{
  "_format": "hh-sol-artifact-1",
  "contractName": "NewBaseContract",
  "sourceName": "contracts/Storage/OpenQStorage.sol",
  "abi": [
    {
      "inputs": [],
      "name": "foo",
      "outputs": [
        {
          "internalType": "uint256",
          "name": "",
          "type": "uint256"
        }
      ],
      "stateMutability": "view",
      "type": "function"
    },
    {
      "inputs": [
        {
          "internalType": "uint256",
          "name": "_foo",
          "type": "uint256"
        }
      ],
      "name": "setFoo",
      "outputs": [],
      "stateMutability": "nonpayable",
      "type": "function"
    }
  ],
  "bytecode": "0x608060405234801561001057600080fd5b5060b18061001f6000396000f3fe6080604052348015600f57600080fd5b506004361060325760003560e01c8063c2985578146037578063dc80035d146051575b600080fd5b603f60005481565b60405190815260200160405180910390f35b6061605c3660046063565b600055565b005b600060208284031215607457600080fd5b503591905056fea26469706673582212205a262e034e7846692e62ca31e9c23ce53cabe48f1e8d8607dcdf04fbfc15d9db64736f6c634300080d0033",
  "linkReferences": {},
  "deployedLinkReferences": {}
}