{
  "_format": "hh-sol-artifact-1",
  "contractName": "OpenQStorage",
  "sourceName": "contracts/Storage/OpenQStorage.sol",
  "abi": [
    {
      "inputs": [],
      "stateMutability": "nonpayable",
      "type": "constructor"
    },
    {
      "inputs": [
        {
          "internalType": "bytes32",
          "name": "_key",
          "type": "bytes32"
        },
        {
          "internalType": "uint256",
          "name": "_amount",
          "type": "uint256"
        }
      ],
      "name": "addUint",
      "outputs": [],
      "stateMutability": "nonpayable",
      "type": "function"
    },
    {
      "inputs": [
        {
          "internalType": "bytes32",
          "name": "_key",
          "type": "bytes32"
        }
      ],
      "name": "deleteAddress",
      "outputs": [],
      "stateMutability": "nonpayable",
      "type": "function"
    },
    {
      "inputs": [
        {
          "internalType": "bytes32",
          "name": "_key",
          "type": "bytes32"
        }
      ],
      "name": "deleteBool",
      "outputs": [],
      "stateMutability": "nonpayable",
      "type": "function"
    },
    {
      "inputs": [
        {
          "internalType": "bytes32",
          "name": "_key",
          "type": "bytes32"
        }
      ],
      "name": "deleteBytes",
      "outputs": [],
      "stateMutability": "nonpayable",
      "type": "function"
    },
    {
      "inputs": [
        {
          "internalType": "bytes32",
          "name": "_key",
          "type": "bytes32"
        }
      ],
      "name": "deleteBytes32",
      "outputs": [],
      "stateMutability": "nonpayable",
      "type": "function"
    },
    {
      "inputs": [
        {
          "internalType": "bytes32",
          "name": "_key",
          "type": "bytes32"
        }
      ],
      "name": "deleteInt",
      "outputs": [],
      "stateMutability": "nonpayable",
      "type": "function"
    },
    {
      "inputs": [
        {
          "internalType": "bytes32",
          "name": "_key",
          "type": "bytes32"
        }
      ],
      "name": "deleteString",
      "outputs": [],
      "stateMutability": "nonpayable",
      "type": "function"
    },
    {
      "inputs": [
        {
          "internalType": "bytes32",
          "name": "_key",
          "type": "bytes32"
        }
      ],
      "name": "deleteUint",
      "outputs": [],
      "stateMutability": "nonpayable",
      "type": "function"
    },
    {
      "inputs": [
        {
          "internalType": "bytes32",
          "name": "_key",
          "type": "bytes32"
        }
      ],
      "name": "getAddress",
      "outputs": [
        {
          "internalType": "address",
          "name": "r",
          "type": "address"
        }
      ],
      "stateMutability": "view",
      "type": "function"
    },
    {
      "inputs": [
        {
          "internalType": "bytes32",
          "name": "_key",
          "type": "bytes32"
        }
      ],
      "name": "getBool",
      "outputs": [
        {
          "internalType": "bool",
          "name": "r",
          "type": "bool"
        }
      ],
      "stateMutability": "view",
      "type": "function"
    },
    {
      "inputs": [
        {
          "internalType": "bytes32",
          "name": "_key",
          "type": "bytes32"
        }
      ],
      "name": "getBytes",
      "outputs": [
        {
          "internalType": "bytes",
          "name": "",
          "type": "bytes"
        }
      ],
      "stateMutability": "view",
      "type": "function"
    },
    {
      "inputs": [
        {
          "internalType": "bytes32",
          "name": "_key",
          "type": "bytes32"
        }
      ],
      "name": "getBytes32",
      "outputs": [
        {
          "internalType": "bytes32",
          "name": "r",
          "type": "bytes32"
        }
      ],
      "stateMutability": "view",
      "type": "function"
    },
    {
      "inputs": [
        {
          "internalType": "bytes32",
          "name": "_key",
          "type": "bytes32"
        }
      ],
      "name": "getInt",
      "outputs": [
        {
          "internalType": "int256",
          "name": "r",
          "type": "int256"
        }
      ],
      "stateMutability": "view",
      "type": "function"
    },
    {
      "inputs": [
        {
          "internalType": "bytes32",
          "name": "_key",
          "type": "bytes32"
        }
      ],
      "name": "getString",
      "outputs": [
        {
          "internalType": "string",
          "name": "",
          "type": "string"
        }
      ],
      "stateMutability": "view",
      "type": "function"
    },
    {
      "inputs": [
        {
          "internalType": "bytes32",
          "name": "_key",
          "type": "bytes32"
        }
      ],
      "name": "getUint",
      "outputs": [
        {
          "internalType": "uint256",
          "name": "r",
          "type": "uint256"
        }
      ],
      "stateMutability": "view",
      "type": "function"
    },
    {
      "inputs": [],
      "name": "guardian",
      "outputs": [
        {
          "internalType": "address",
          "name": "",
          "type": "address"
        }
      ],
      "stateMutability": "view",
      "type": "function"
    },
    {
      "inputs": [
        {
          "internalType": "bytes32",
          "name": "_key",
          "type": "bytes32"
        },
        {
          "internalType": "address",
          "name": "_value",
          "type": "address"
        }
      ],
      "name": "setAddress",
      "outputs": [],
      "stateMutability": "nonpayable",
      "type": "function"
    },
    {
      "inputs": [
        {
          "internalType": "bytes32",
          "name": "_key",
          "type": "bytes32"
        },
        {
          "internalType": "bool",
          "name": "_value",
          "type": "bool"
        }
      ],
      "name": "setBool",
      "outputs": [],
      "stateMutability": "nonpayable",
      "type": "function"
    },
    {
      "inputs": [
        {
          "internalType": "bytes32",
          "name": "_key",
          "type": "bytes32"
        },
        {
          "internalType": "bytes",
          "name": "_value",
          "type": "bytes"
        }
      ],
      "name": "setBytes",
      "outputs": [],
      "stateMutability": "nonpayable",
      "type": "function"
    },
    {
      "inputs": [
        {
          "internalType": "bytes32",
          "name": "_key",
          "type": "bytes32"
        },
        {
          "internalType": "bytes32",
          "name": "_value",
          "type": "bytes32"
        }
      ],
      "name": "setBytes32",
      "outputs": [],
      "stateMutability": "nonpayable",
      "type": "function"
    },
    {
      "inputs": [
        {
          "internalType": "bytes32",
          "name": "_key",
          "type": "bytes32"
        },
        {
          "internalType": "int256",
          "name": "_value",
          "type": "int256"
        }
      ],
      "name": "setInt",
      "outputs": [],
      "stateMutability": "nonpayable",
      "type": "function"
    },
    {
      "inputs": [
        {
          "internalType": "bytes32",
          "name": "_key",
          "type": "bytes32"
        },
        {
          "internalType": "string",
          "name": "_value",
          "type": "string"
        }
      ],
      "name": "setString",
      "outputs": [],
      "stateMutability": "nonpayable",
      "type": "function"
    },
    {
      "inputs": [
        {
          "internalType": "bytes32",
          "name": "_key",
          "type": "bytes32"
        },
        {
          "internalType": "uint256",
          "name": "_value",
          "type": "uint256"
        }
      ],
      "name": "setUint",
      "outputs": [],
      "stateMutability": "nonpayable",
      "type": "function"
    },
    {
      "inputs": [
        {
          "internalType": "bytes32",
          "name": "_key",
          "type": "bytes32"
        },
        {
          "internalType": "uint256",
          "name": "_amount",
          "type": "uint256"
        }
      ],
      "name": "subUint",
      "outputs": [],
      "stateMutability": "nonpayable",
      "type": "function"
    }
  ],
  "bytecode": "0x608060405234801561001057600080fd5b50336000806101000a81548173ffffffffffffffffffffffffffffffffffffffff021916908373ffffffffffffffffffffffffffffffffffffffff1602179055506112a6806100606000396000f3fe608060405234801561001057600080fd5b50600436106101585760003560e01c8063986e791a116100c3578063ca446dd91161007c578063ca446dd9146103cf578063dc97d962146103eb578063e2a4853a1461041b578063e2b202bf14610437578063ebb9d8c914610453578063f6bb3cc41461046f57610158565b8063986e791a146102d7578063a6ed563e14610307578063abfdcced14610337578063adb353dc14610353578063bd02d0f51461036f578063c031a1801461039f57610158565b8063452a932011610115578063452a9320146102195780634e91db0814610237578063616b59f6146102535780636e8995501461026f5780637ae1cfca1461028b5780638c160095146102bb57610158565b80630b9adc571461015d5780630e14a3761461017957806321f8a721146101955780632c62ff2d146101c55780632e28d084146101e15780633e49bed0146101fd575b600080fd5b61017760048036038101906101729190610b68565b61048b565b005b610193600480360381019061018e9190610b68565b6104a5565b005b6101af60048036038101906101aa9190610b68565b6104de565b6040516101bc9190610bd6565b60405180910390f35b6101df60048036038101906101da9190610b68565b61051b565b005b6101fb60048036038101906101f69190610c56565b610541565b005b61021760048036038101906102129190610cec565b610569565b005b610221610585565b60405161022e9190610bd6565b60405180910390f35b610251600480360381019061024c9190610d2c565b6105a9565b005b61026d60048036038101906102689190610b68565b6105c5565b005b61028960048036038101906102849190610dc2565b6105e7565b005b6102a560048036038101906102a09190610b68565b61060f565b6040516102b29190610e3d565b60405180910390f35b6102d560048036038101906102d09190610b68565b610639565b005b6102f160048036038101906102ec9190610b68565b610653565b6040516102fe9190610ef1565b60405180910390f35b610321600480360381019061031c9190610b68565b6106f8565b60405161032e9190610f22565b60405180910390f35b610351600480360381019061034c9190610f69565b610715565b005b61036d60048036038101906103689190610fdf565b610744565b005b61038960048036038101906103849190610b68565b610785565b604051610396919061102e565b60405180910390f35b6103b960048036038101906103b49190610b68565b6107a2565b6040516103c6919061109e565b60405180910390f35b6103e960048036038101906103e491906110ec565b610847565b005b61040560048036038101906104009190610b68565b61089d565b604051610412919061113b565b60405180910390f35b61043560048036038101906104309190610fdf565b6108ba565b005b610451600480360381019061044c9190610b68565b6108d6565b005b61046d60048036038101906104689190610fdf565b6108f0565b005b61048960048036038101906104849190610b68565b610931565b005b600760008281526020019081526020016000206000905550565b6005600082815260200190815260200160002060006101000a81549073ffffffffffffffffffffffffffffffffffffffff021916905550565b60006005600083815260200190815260200160002060009054906101000a900473ffffffffffffffffffffffffffffffffffffffff169050919050565b6006600082815260200190815260200160002060006101000a81549060ff021916905550565b818160026000868152602001908152602001600020919061056392919061097f565b50505050565b8060046000848152602001908152602001600020819055505050565b60008054906101000a900473ffffffffffffffffffffffffffffffffffffffff1681565b8060076000848152602001908152602001600020819055505050565b6002600082815260200190815260200160002060006105e49190610a05565b50565b8181600160008681526020019081526020016000209190610609929190610a45565b50505050565b60006006600083815260200190815260200160002060009054906101000a900460ff169050919050565b600460008281526020019081526020016000206000905550565b606060016000838152602001908152602001600020805461067390611185565b80601f016020809104026020016040519081016040528092919081815260200182805461069f90611185565b80156106ec5780601f106106c1576101008083540402835291602001916106ec565b820191906000526020600020905b8154815290600101906020018083116106cf57829003601f168201915b50505050509050919050565b600060076000838152602001908152602001600020549050919050565b806006600084815260200190815260200160002060006101000a81548160ff0219169083151502179055505050565b61076a81600360008581526020019081526020016000205461095390919063ffffffff16565b60036000848152602001908152602001600020819055505050565b600060036000838152602001908152602001600020549050919050565b60606002600083815260200190815260200160002080546107c290611185565b80601f01602080910402602001604051908101604052809291908181526020018280546107ee90611185565b801561083b5780601f106108105761010080835404028352916020019161083b565b820191906000526020600020905b81548152906001019060200180831161081e57829003601f168201915b50505050509050919050565b806005600084815260200190815260200160002060006101000a81548173ffffffffffffffffffffffffffffffffffffffff021916908373ffffffffffffffffffffffffffffffffffffffff1602179055505050565b600060046000838152602001908152602001600020549050919050565b8060036000848152602001908152602001600020819055505050565b600360008281526020019081526020016000206000905550565b61091681600360008581526020019081526020016000205461096990919063ffffffff16565b60036000848152602001908152602001600020819055505050565b6001600082815260200190815260200160002060006109509190610acb565b50565b6000818361096191906111e6565b905092915050565b60008183610977919061123c565b905092915050565b82805461098b90611185565b90600052602060002090601f0160209004810192826109ad57600085556109f4565b82601f106109c657803560ff19168380011785556109f4565b828001600101855582156109f4579182015b828111156109f35782358255916020019190600101906109d8565b5b509050610a019190610b0b565b5090565b508054610a1190611185565b6000825580601f10610a235750610a42565b601f016020900490600052602060002090810190610a419190610b0b565b5b50565b828054610a5190611185565b90600052602060002090601f016020900481019282610a735760008555610aba565b82601f10610a8c57803560ff1916838001178555610aba565b82800160010185558215610aba579182015b82811115610ab9578235825591602001919060010190610a9e565b5b509050610ac79190610b0b565b5090565b508054610ad790611185565b6000825580601f10610ae95750610b08565b601f016020900490600052602060002090810190610b079190610b0b565b5b50565b5b80821115610b24576000816000905550600101610b0c565b5090565b600080fd5b600080fd5b6000819050919050565b610b4581610b32565b8114610b5057600080fd5b50565b600081359050610b6281610b3c565b92915050565b600060208284031215610b7e57610b7d610b28565b5b6000610b8c84828501610b53565b91505092915050565b600073ffffffffffffffffffffffffffffffffffffffff82169050919050565b6000610bc082610b95565b9050919050565b610bd081610bb5565b82525050565b6000602082019050610beb6000830184610bc7565b92915050565b600080fd5b600080fd5b600080fd5b60008083601f840112610c1657610c15610bf1565b5b8235905067ffffffffffffffff811115610c3357610c32610bf6565b5b602083019150836001820283011115610c4f57610c4e610bfb565b5b9250929050565b600080600060408486031215610c6f57610c6e610b28565b5b6000610c7d86828701610b53565b935050602084013567ffffffffffffffff811115610c9e57610c9d610b2d565b5b610caa86828701610c00565b92509250509250925092565b6000819050919050565b610cc981610cb6565b8114610cd457600080fd5b50565b600081359050610ce681610cc0565b92915050565b60008060408385031215610d0357610d02610b28565b5b6000610d1185828601610b53565b9250506020610d2285828601610cd7565b9150509250929050565b60008060408385031215610d4357610d42610b28565b5b6000610d5185828601610b53565b9250506020610d6285828601610b53565b9150509250929050565b60008083601f840112610d8257610d81610bf1565b5b8235905067ffffffffffffffff811115610d9f57610d9e610bf6565b5b602083019150836001820283011115610dbb57610dba610bfb565b5b9250929050565b600080600060408486031215610ddb57610dda610b28565b5b6000610de986828701610b53565b935050602084013567ffffffffffffffff811115610e0a57610e09610b2d565b5b610e1686828701610d6c565b92509250509250925092565b60008115159050919050565b610e3781610e22565b82525050565b6000602082019050610e526000830184610e2e565b92915050565b600081519050919050565b600082825260208201905092915050565b60005b83811015610e92578082015181840152602081019050610e77565b83811115610ea1576000848401525b50505050565b6000601f19601f8301169050919050565b6000610ec382610e58565b610ecd8185610e63565b9350610edd818560208601610e74565b610ee681610ea7565b840191505092915050565b60006020820190508181036000830152610f0b8184610eb8565b905092915050565b610f1c81610b32565b82525050565b6000602082019050610f376000830184610f13565b92915050565b610f4681610e22565b8114610f5157600080fd5b50565b600081359050610f6381610f3d565b92915050565b60008060408385031215610f8057610f7f610b28565b5b6000610f8e85828601610b53565b9250506020610f9f85828601610f54565b9150509250929050565b6000819050919050565b610fbc81610fa9565b8114610fc757600080fd5b50565b600081359050610fd981610fb3565b92915050565b60008060408385031215610ff657610ff5610b28565b5b600061100485828601610b53565b925050602061101585828601610fca565b9150509250929050565b61102881610fa9565b82525050565b6000602082019050611043600083018461101f565b92915050565b600081519050919050565b600082825260208201905092915050565b600061107082611049565b61107a8185611054565b935061108a818560208601610e74565b61109381610ea7565b840191505092915050565b600060208201905081810360008301526110b88184611065565b905092915050565b6110c981610bb5565b81146110d457600080fd5b50565b6000813590506110e6816110c0565b92915050565b6000806040838503121561110357611102610b28565b5b600061111185828601610b53565b9250506020611122858286016110d7565b9150509250929050565b61113581610cb6565b82525050565b6000602082019050611150600083018461112c565b92915050565b7f4e487b7100000000000000000000000000000000000000000000000000000000600052602260045260246000fd5b6000600282049050600182168061119d57607f821691505b602082108114156111b1576111b0611156565b5b50919050565b7f4e487b7100000000000000000000000000000000000000000000000000000000600052601160045260246000fd5b60006111f182610fa9565b91506111fc83610fa9565b9250827fffffffffffffffffffffffffffffffffffffffffffffffffffffffffffffffff03821115611231576112306111b7565b5b828201905092915050565b600061124782610fa9565b915061125283610fa9565b925082821015611265576112646111b7565b5b82820390509291505056fea26469706673582212206c8d842352687227053af8fd982dc68292259bc4342ea05cf3bffe01b0a03a8e64736f6c63430008080033",
  "linkReferences": {},
  "deployedLinkReferences": {}
}