{
  "_format": "hh-sol-artifact-1",
  "contractName": "TieredFixedBountyV1",
  "sourceName": "contracts/Bounty/Implementations/TieredFixedBountyV1.sol",
  "abi": [
    {
      "inputs": [],
      "stateMutability": "nonpayable",
      "type": "constructor"
    },
    {
      "anonymous": false,
      "inputs": [
        {
          "indexed": false,
          "internalType": "uint8",
          "name": "version",
          "type": "uint8"
        }
      ],
      "name": "Initialized",
      "type": "event"
    },
    {
      "inputs": [],
      "name": "VERSION_1",
      "outputs": [
        {
          "internalType": "uint256",
          "name": "",
          "type": "uint256"
        }
      ],
      "stateMutability": "view",
      "type": "function"
    },
    {
      "inputs": [],
      "name": "bountyClosedTime",
      "outputs": [
        {
          "internalType": "uint256",
          "name": "",
          "type": "uint256"
        }
      ],
      "stateMutability": "view",
      "type": "function"
    },
    {
      "inputs": [],
      "name": "bountyCreatedTime",
      "outputs": [
        {
          "internalType": "uint256",
          "name": "",
          "type": "uint256"
        }
      ],
      "stateMutability": "view",
      "type": "function"
    },
    {
      "inputs": [],
      "name": "bountyId",
      "outputs": [
        {
          "internalType": "string",
          "name": "",
          "type": "string"
        }
      ],
      "stateMutability": "view",
      "type": "function"
    },
    {
      "inputs": [],
      "name": "bountyType",
      "outputs": [
        {
          "internalType": "uint256",
          "name": "",
          "type": "uint256"
        }
      ],
      "stateMutability": "view",
      "type": "function"
    },
    {
      "inputs": [],
      "name": "claimManager",
      "outputs": [
        {
          "internalType": "address",
          "name": "",
          "type": "address"
        }
      ],
      "stateMutability": "view",
      "type": "function"
    },
    {
      "inputs": [
        {
          "internalType": "address",
          "name": "_payoutAddress",
          "type": "address"
        },
        {
          "internalType": "uint256",
          "name": "_tier",
          "type": "uint256"
        }
      ],
      "name": "claimTieredFixed",
      "outputs": [
        {
          "internalType": "uint256",
          "name": "",
          "type": "uint256"
        }
      ],
      "stateMutability": "nonpayable",
      "type": "function"
    },
    {
      "inputs": [],
      "name": "closeCompetition",
      "outputs": [],
      "stateMutability": "nonpayable",
      "type": "function"
    },
    {
      "inputs": [],
      "name": "closer",
      "outputs": [
        {
          "internalType": "address",
          "name": "",
          "type": "address"
        }
      ],
      "stateMutability": "view",
      "type": "function"
    },
    {
      "inputs": [],
      "name": "closerData",
      "outputs": [
        {
          "internalType": "bytes",
          "name": "",
          "type": "bytes"
        }
      ],
      "stateMutability": "view",
      "type": "function"
    },
    {
      "inputs": [],
      "name": "depositManager",
      "outputs": [
        {
          "internalType": "address",
          "name": "",
          "type": "address"
        }
      ],
      "stateMutability": "view",
      "type": "function"
    },
    {
      "inputs": [
        {
          "internalType": "bytes32",
          "name": "",
          "type": "bytes32"
        }
      ],
      "name": "depositTime",
      "outputs": [
        {
          "internalType": "uint256",
          "name": "",
          "type": "uint256"
        }
      ],
      "stateMutability": "view",
      "type": "function"
    },
    {
      "inputs": [
        {
          "internalType": "uint256",
          "name": "",
          "type": "uint256"
        }
      ],
      "name": "deposits",
      "outputs": [
        {
          "internalType": "bytes32",
          "name": "",
          "type": "bytes32"
        }
      ],
      "stateMutability": "view",
      "type": "function"
    },
    {
      "inputs": [
        {
          "internalType": "bytes32",
          "name": "",
          "type": "bytes32"
        }
      ],
      "name": "expiration",
      "outputs": [
        {
          "internalType": "uint256",
          "name": "",
          "type": "uint256"
        }
      ],
      "stateMutability": "view",
      "type": "function"
    },
    {
      "inputs": [
        {
          "internalType": "bytes32",
          "name": "_depositId",
          "type": "bytes32"
        },
        {
          "internalType": "uint256",
          "name": "_seconds",
          "type": "uint256"
        },
        {
          "internalType": "address",
          "name": "_funder",
          "type": "address"
        }
      ],
      "name": "extendDeposit",
      "outputs": [
        {
          "internalType": "uint256",
          "name": "",
          "type": "uint256"
        }
      ],
      "stateMutability": "nonpayable",
      "type": "function"
    },
    {
      "inputs": [
        {
          "internalType": "bytes32",
          "name": "",
          "type": "bytes32"
        }
      ],
      "name": "funder",
      "outputs": [
        {
          "internalType": "address",
          "name": "",
          "type": "address"
        }
      ],
      "stateMutability": "view",
      "type": "function"
    },
    {
      "inputs": [],
      "name": "fundingGoal",
      "outputs": [
        {
          "internalType": "uint256",
          "name": "",
          "type": "uint256"
        }
      ],
      "stateMutability": "view",
      "type": "function"
    },
    {
      "inputs": [],
      "name": "fundingToken",
      "outputs": [
        {
          "internalType": "address",
          "name": "",
          "type": "address"
        }
      ],
      "stateMutability": "view",
      "type": "function"
    },
    {
      "inputs": [
        {
          "internalType": "address",
          "name": "",
          "type": "address"
        }
      ],
      "name": "fundingTotals",
      "outputs": [
        {
          "internalType": "uint256",
          "name": "",
          "type": "uint256"
        }
      ],
      "stateMutability": "view",
      "type": "function"
    },
    {
      "inputs": [],
      "name": "getDeposits",
      "outputs": [
        {
          "internalType": "bytes32[]",
          "name": "",
          "type": "bytes32[]"
        }
      ],
      "stateMutability": "view",
      "type": "function"
    },
    {
      "inputs": [
        {
          "internalType": "address",
          "name": "_tokenAddress",
          "type": "address"
        }
      ],
      "name": "getERC20Balance",
      "outputs": [
        {
          "internalType": "uint256",
          "name": "balance",
          "type": "uint256"
        }
      ],
      "stateMutability": "view",
      "type": "function"
    },
    {
      "inputs": [],
      "name": "getInvoiceComplete",
      "outputs": [
        {
          "internalType": "bytes",
          "name": "",
          "type": "bytes"
        }
      ],
      "stateMutability": "view",
      "type": "function"
    },
    {
      "inputs": [],
      "name": "getPayoutSchedule",
      "outputs": [
        {
          "internalType": "uint256[]",
          "name": "",
          "type": "uint256[]"
        }
      ],
      "stateMutability": "view",
      "type": "function"
    },
    {
      "inputs": [],
      "name": "getSupportingDocumentsComplete",
      "outputs": [
        {
          "internalType": "bytes",
          "name": "",
          "type": "bytes"
        }
      ],
      "stateMutability": "view",
      "type": "function"
    },
    {
      "inputs": [],
      "name": "getTierWinners",
      "outputs": [
        {
          "internalType": "string[]",
          "name": "",
          "type": "string[]"
        }
      ],
      "stateMutability": "view",
      "type": "function"
    },
    {
      "inputs": [],
      "name": "getTokenAddresses",
      "outputs": [
        {
          "internalType": "address[]",
          "name": "",
          "type": "address[]"
        }
      ],
      "stateMutability": "view",
      "type": "function"
    },
    {
      "inputs": [],
      "name": "getTokenAddressesCount",
      "outputs": [
        {
          "internalType": "uint256",
          "name": "",
          "type": "uint256"
        }
      ],
      "stateMutability": "view",
      "type": "function"
    },
    {
      "inputs": [
        {
          "internalType": "address",
          "name": "_tokenAddress",
          "type": "address"
        }
      ],
      "name": "getTokenBalance",
      "outputs": [
        {
          "internalType": "uint256",
          "name": "",
          "type": "uint256"
        }
      ],
      "stateMutability": "view",
      "type": "function"
    },
    {
      "inputs": [],
      "name": "hasFundingGoal",
      "outputs": [
        {
          "internalType": "bool",
          "name": "",
          "type": "bool"
        }
      ],
      "stateMutability": "view",
      "type": "function"
    },
    {
      "inputs": [
        {
          "internalType": "string",
          "name": "_bountyId",
          "type": "string"
        },
        {
          "internalType": "address",
          "name": "_issuer",
          "type": "address"
        },
        {
          "internalType": "string",
          "name": "_organization",
          "type": "string"
        },
        {
          "internalType": "address",
          "name": "_openQ",
          "type": "address"
        },
        {
          "internalType": "address",
          "name": "_claimManager",
          "type": "address"
        },
        {
          "internalType": "address",
          "name": "_depositManager",
          "type": "address"
        },
        {
          "components": [
            {
              "internalType": "uint32",
              "name": "operationType",
              "type": "uint32"
            },
            {
              "internalType": "bytes",
              "name": "data",
              "type": "bytes"
            }
          ],
          "internalType": "struct OpenQDefinitions.InitOperation",
          "name": "_operation",
          "type": "tuple"
        }
      ],
      "name": "initialize",
      "outputs": [],
      "stateMutability": "nonpayable",
      "type": "function"
    },
    {
      "inputs": [
        {
          "internalType": "uint256",
          "name": "",
          "type": "uint256"
        }
      ],
      "name": "invoiceComplete",
      "outputs": [
        {
          "internalType": "bool",
          "name": "",
          "type": "bool"
        }
      ],
      "stateMutability": "view",
      "type": "function"
    },
    {
      "inputs": [],
      "name": "invoiceRequired",
      "outputs": [
        {
          "internalType": "bool",
          "name": "",
          "type": "bool"
        }
      ],
      "stateMutability": "view",
      "type": "function"
    },
    {
      "inputs": [],
      "name": "issuer",
      "outputs": [
        {
          "internalType": "address",
          "name": "",
          "type": "address"
        }
      ],
      "stateMutability": "view",
      "type": "function"
    },
    {
      "inputs": [],
      "name": "issuerExternalUserId",
      "outputs": [
        {
          "internalType": "string",
          "name": "",
          "type": "string"
        }
      ],
      "stateMutability": "view",
      "type": "function"
    },
    {
      "inputs": [],
      "name": "kycRequired",
      "outputs": [
        {
          "internalType": "bool",
          "name": "",
          "type": "bool"
        }
      ],
      "stateMutability": "view",
      "type": "function"
    },
    {
      "inputs": [],
      "name": "openQ",
      "outputs": [
        {
          "internalType": "address",
          "name": "",
          "type": "address"
        }
      ],
      "stateMutability": "view",
      "type": "function"
    },
    {
      "inputs": [],
      "name": "organization",
      "outputs": [
        {
          "internalType": "string",
          "name": "",
          "type": "string"
        }
      ],
      "stateMutability": "view",
      "type": "function"
    },
    {
      "inputs": [
        {
          "internalType": "bytes32",
          "name": "",
          "type": "bytes32"
        }
      ],
      "name": "payoutAddress",
      "outputs": [
        {
          "internalType": "address",
          "name": "",
          "type": "address"
        }
      ],
      "stateMutability": "view",
      "type": "function"
    },
    {
      "inputs": [
        {
          "internalType": "uint256",
          "name": "",
          "type": "uint256"
        }
      ],
      "name": "payoutSchedule",
      "outputs": [
        {
          "internalType": "uint256",
          "name": "",
          "type": "uint256"
        }
      ],
      "stateMutability": "view",
      "type": "function"
    },
    {
      "inputs": [],
      "name": "payoutTokenAddress",
      "outputs": [
        {
          "internalType": "address",
          "name": "",
          "type": "address"
        }
      ],
      "stateMutability": "view",
      "type": "function"
    },
    {
      "inputs": [
        {
          "internalType": "address",
          "name": "_funder",
          "type": "address"
        },
        {
          "internalType": "address",
          "name": "_tokenAddress",
          "type": "address"
        },
        {
          "internalType": "uint256",
          "name": "_volume",
          "type": "uint256"
        },
        {
          "internalType": "uint256",
          "name": "_expiration",
          "type": "uint256"
        }
      ],
      "name": "receiveFunds",
      "outputs": [
        {
          "internalType": "bytes32",
          "name": "",
          "type": "bytes32"
        },
        {
          "internalType": "uint256",
          "name": "",
          "type": "uint256"
        }
      ],
      "stateMutability": "payable",
      "type": "function"
    },
    {
      "inputs": [
        {
          "internalType": "bytes32",
          "name": "_depositId",
          "type": "bytes32"
        },
        {
          "internalType": "address",
          "name": "_funder",
          "type": "address"
        },
        {
          "internalType": "uint256",
          "name": "_volume",
          "type": "uint256"
        }
      ],
      "name": "refundDeposit",
      "outputs": [],
      "stateMutability": "nonpayable",
      "type": "function"
    },
    {
      "inputs": [
        {
          "internalType": "bytes32",
          "name": "",
          "type": "bytes32"
        }
      ],
      "name": "refunded",
      "outputs": [
        {
          "internalType": "bool",
          "name": "",
          "type": "bool"
        }
      ],
      "stateMutability": "view",
      "type": "function"
    },
    {
      "inputs": [
        {
          "internalType": "address",
          "name": "_fundingToken",
          "type": "address"
        },
        {
          "internalType": "uint256",
          "name": "_fundingGoal",
          "type": "uint256"
        }
      ],
      "name": "setFundingGoal",
      "outputs": [],
      "stateMutability": "nonpayable",
      "type": "function"
    },
    {
      "inputs": [
        {
          "internalType": "bytes",
          "name": "_data",
          "type": "bytes"
        }
      ],
      "name": "setInvoiceComplete",
      "outputs": [],
      "stateMutability": "nonpayable",
      "type": "function"
    },
    {
      "inputs": [
        {
          "internalType": "bool",
          "name": "_invoiceRequired",
          "type": "bool"
        }
      ],
      "name": "setInvoiceRequired",
      "outputs": [],
      "stateMutability": "nonpayable",
      "type": "function"
    },
    {
      "inputs": [
        {
          "internalType": "bool",
          "name": "_kycRequired",
          "type": "bool"
        }
      ],
      "name": "setKycRequired",
      "outputs": [],
      "stateMutability": "nonpayable",
      "type": "function"
    },
    {
      "inputs": [
        {
          "internalType": "uint256[]",
          "name": "_payoutSchedule",
          "type": "uint256[]"
        },
        {
          "internalType": "address",
          "name": "_payoutTokenAddress",
          "type": "address"
        }
      ],
      "name": "setPayoutScheduleFixed",
      "outputs": [],
      "stateMutability": "nonpayable",
      "type": "function"
    },
    {
      "inputs": [
        {
          "internalType": "bytes",
          "name": "_data",
          "type": "bytes"
        }
      ],
      "name": "setSupportingDocumentsComplete",
      "outputs": [],
      "stateMutability": "nonpayable",
      "type": "function"
    },
    {
      "inputs": [
        {
          "internalType": "bool",
          "name": "_supportingDocumentsRequired",
          "type": "bool"
        }
      ],
      "name": "setSupportingDocumentsRequired",
      "outputs": [],
      "stateMutability": "nonpayable",
      "type": "function"
    },
    {
      "inputs": [
        {
          "internalType": "uint256",
          "name": "_tier",
          "type": "uint256"
        }
      ],
      "name": "setTierClaimed",
      "outputs": [],
      "stateMutability": "nonpayable",
      "type": "function"
    },
    {
      "inputs": [
        {
          "internalType": "string",
          "name": "_winner",
          "type": "string"
        },
        {
          "internalType": "uint256",
          "name": "_tier",
          "type": "uint256"
        }
      ],
      "name": "setTierWinner",
      "outputs": [],
      "stateMutability": "nonpayable",
      "type": "function"
    },
    {
      "inputs": [],
      "name": "status",
      "outputs": [
        {
          "internalType": "uint256",
          "name": "",
          "type": "uint256"
        }
      ],
      "stateMutability": "view",
      "type": "function"
    },
    {
      "inputs": [
        {
          "internalType": "uint256",
          "name": "",
          "type": "uint256"
        }
      ],
      "name": "supportingDocumentsComplete",
      "outputs": [
        {
          "internalType": "bool",
          "name": "",
          "type": "bool"
        }
      ],
      "stateMutability": "view",
      "type": "function"
    },
    {
      "inputs": [],
      "name": "supportingDocumentsRequired",
      "outputs": [
        {
          "internalType": "bool",
          "name": "",
          "type": "bool"
        }
      ],
      "stateMutability": "view",
      "type": "function"
    },
    {
      "inputs": [
        {
          "internalType": "bytes32",
          "name": "",
          "type": "bytes32"
        }
      ],
      "name": "tier",
      "outputs": [
        {
          "internalType": "uint256",
          "name": "",
          "type": "uint256"
        }
      ],
      "stateMutability": "view",
      "type": "function"
    },
    {
      "inputs": [
        {
          "internalType": "uint256",
          "name": "",
          "type": "uint256"
        }
      ],
      "name": "tierClaimed",
      "outputs": [
        {
          "internalType": "bool",
          "name": "",
          "type": "bool"
        }
      ],
      "stateMutability": "view",
      "type": "function"
    },
    {
      "inputs": [
        {
          "internalType": "uint256",
          "name": "",
          "type": "uint256"
        }
      ],
      "name": "tierWinners",
      "outputs": [
        {
          "internalType": "string",
          "name": "",
          "type": "string"
        }
      ],
      "stateMutability": "view",
      "type": "function"
    },
    {
      "inputs": [
        {
          "internalType": "bytes32",
          "name": "",
          "type": "bytes32"
        }
      ],
      "name": "tokenAddress",
      "outputs": [
        {
          "internalType": "address",
          "name": "",
          "type": "address"
        }
      ],
      "stateMutability": "view",
      "type": "function"
    },
    {
      "inputs": [
        {
          "internalType": "bytes32",
          "name": "",
          "type": "bytes32"
        }
      ],
      "name": "tokenId",
      "outputs": [
        {
          "internalType": "uint256",
          "name": "",
          "type": "uint256"
        }
      ],
      "stateMutability": "view",
      "type": "function"
    },
    {
      "inputs": [
        {
          "internalType": "bytes32",
          "name": "",
          "type": "bytes32"
        }
      ],
      "name": "volume",
      "outputs": [
        {
          "internalType": "uint256",
          "name": "",
          "type": "uint256"
        }
      ],
      "stateMutability": "view",
      "type": "function"
    },
    {
      "stateMutability": "payable",
      "type": "receive"
    }
  ],
  "bytecode": "0x60806040523480156200001157600080fd5b506200001c62000022565b620000e4565b600054610100900460ff16156200008f5760405162461bcd60e51b815260206004820152602760248201527f496e697469616c697a61626c653a20636f6e747261637420697320696e697469604482015266616c697a696e6760c81b606482015260840160405180910390fd5b60005460ff9081161015620000e2576000805460ff191660ff9081179091556040519081527f7f26b83ff96e1f2b6a682f133852f6798a09c465da95921460cefb38474024989060200160405180910390a15b565b613fb180620000f46000396000f3fe6080604052600436106103265760003560e01c806397bb3ce9116101a7578063cd8ffb37116100ed578063ee1034fb11610090578063ee1034fb14610ac9578063ee1e43e014610ae9578063ee8c24b814610b04578063f05e0f7e14610b26578063f232172514610b57578063fbeadd2b14610b85578063fd9ef47c14610b9a578063fe0329c914610bba57600080fd5b8063cd8ffb37146109be578063ceff3107146109de578063d6fe0f44146109fe578063dda6408114610a26578063e452d08b14610a3b578063e5f6094714610a5b578063e83963eb14610a89578063eb58c0fd14610aa957600080fd5b8063b969909111610155578063b9699091146108c5578063b99bb990146108e5578063bf8644101461091c578063c0530a261461093c578063c17bd75e1461095c578063c5b6e70514610971578063cb4436b714610986578063cbcca3dc1461099d57600080fd5b806397bb3ce9146107d2578063995280b0146108095780639dcb7b8e1461081f578063a9a36dcd14610850578063b02c43d01461086e578063b3ca1f3b1461088e578063b588d225146108a557600080fd5b80633aecd0e31161026c5780636c7ac9d81161021a5780636c7ac9d8146106ca5780637026b472146106e85780637044f282146106fd57806378065f271461071e5780637a3a0e84146107445780637d6694b51461075b5780637dc81fa214610786578063968b098f146107a457600080fd5b80633aecd0e3146105cf5780633f40f636146105ef57806355f1c18a1461060f57806356406fa51461062f57806359ba83441461065d5780635cc04838146106945780636b149d87146106b557600080fd5b8063184f1f38116102d4578063184f1f38146104dc5780631d143848146104fc578063200d2ed21461053557806322fa365e1461054c57806323bd4d7a1461056157806326c20e5f146105765780632a120b331461058b57806336150d38146105ad57600080fd5b8063040e05fe146103c95780630dd81887146103fc5780630f3b6d4d1461041e578063150909f7146104405780631595eea41461046057806315add63b1461048e578063160a30a3146104ae57600080fd5b366103c45760405162461bcd60e51b815260206004820152605d60248201527f43616e6e6f742073656e64204574686572206469726563746c7920746f20626f60448201527f75746e7920636f6e74726163742e20506c65617365207573652074686520426f60648201527f756e747956312e7265636569766546756e64732829206d6574686f642e000000608482015260a4015b60405180910390fd5b600080fd5b3480156103d557600080fd5b506103e96103e4366004612cce565b610bda565b6040519081526020015b60405180910390f35b34801561040857600080fd5b50610411610d46565b6040516103f39190612d4a565b34801561042a57600080fd5b5061043e610439366004612e28565b610dd5565b005b34801561044c57600080fd5b5061043e61045b366004612e7a565b610e38565b34801561046c57600080fd5b506103e961047b366004612e97565b6101076020526000908152604090205481565b34801561049a57600080fd5b5061043e6104a9366004612e7a565b610e86565b3480156104ba57600080fd5b506103e96104c9366004612e97565b61014b6020526000908152604090205481565b3480156104e857600080fd5b5061043e6104f7366004612eb0565b610ecd565b34801561050857600080fd5b506101015461051d906001600160a01b031681565b6040516001600160a01b0390911681526020016103f3565b34801561054157600080fd5b506103e96101045481565b34801561055857600080fd5b5061043e6112a2565b34801561056d57600080fd5b5061041161132b565b34801561058257600080fd5b506103e9600181565b34801561059757600080fd5b506105a0611339565b6040516103f39190612f35565b3480156105b957600080fd5b506105c2611392565b6040516103f39190612f79565b3480156105db57600080fd5b506103e96105ea366004612fdb565b61146c565b3480156105fb57600080fd5b5061043e61060a36600461308e565b611497565b34801561061b57600080fd5b5061043e61062a366004613161565b61186f565b34801561063b57600080fd5b506103e961064a366004612e97565b61010c6020526000908152604090205481565b34801561066957600080fd5b5061051d610678366004612e97565b610105602052600090815260409020546001600160a01b031681565b3480156106a057600080fd5b506101815461051d906001600160a01b031681565b3480156106c157600080fd5b506105a06118f9565b3480156106d657600080fd5b5060cb546001600160a01b031661051d565b3480156106f457600080fd5b50610411611950565b34801561070957600080fd5b506101035461051d906001600160a01b031681565b34801561072a57600080fd5b506101125461051d9061010090046001600160a01b031681565b34801561075057600080fd5b506103e96101135481565b34801561076757600080fd5b50610114546107769060ff1681565b60405190151581526020016103f3565b34801561079257600080fd5b506065546001600160a01b031661051d565b3480156107b057600080fd5b506103e96107bf366004612e97565b6101086020526000908152604090205481565b3480156107de57600080fd5b5061051d6107ed366004612e97565b610106602052600090815260409020546001600160a01b031681565b34801561081557600080fd5b506103e960ff5481565b34801561082b57600080fd5b5061077661083a366004612e97565b61014a6020526000908152604090205460ff1681565b34801561085c57600080fd5b506098546001600160a01b031661051d565b34801561087a57600080fd5b506103e9610889366004612e97565b611979565b34801561089a57600080fd5b506103e96101115481565b3480156108b157600080fd5b506103e96108c0366004612fdb565b61199b565b3480156108d157600080fd5b506101145461077690610100900460ff1681565b3480156108f157600080fd5b5061051d610900366004612e97565b61010a602052600090815260409020546001600160a01b031681565b34801561092857600080fd5b50610776610937366004612e97565b611a0f565b34801561094857600080fd5b50610776610957366004612e97565b611a44565b34801561096857600080fd5b50610411611a55565b34801561097d57600080fd5b506103e9611a62565b34801561099257600080fd5b506103e96101005481565b3480156109a957600080fd5b50610114546107769062010000900460ff1681565b3480156109ca57600080fd5b506104116109d9366004612e97565b611a75565b3480156109ea57600080fd5b5061043e6109f9366004612cce565b611aa1565b610a11610a0c3660046131d2565b611b1b565b604080519283526020830191909152016103f3565b348015610a3257600080fd5b50610411611bbd565b348015610a4757600080fd5b506103e9610a56366004612e97565b611bd2565b348015610a6757600080fd5b506103e9610a76366004612fdb565b6101496020526000908152604090205481565b348015610a9557600080fd5b506103e9610aa4366004613218565b611be3565b348015610ab557600080fd5b5061043e610ac4366004613246565b611e00565b348015610ad557600080fd5b5061043e610ae4366004613161565b612030565b348015610af557600080fd5b50610112546107769060ff1681565b348015610b1057600080fd5b50610b1961208b565b6040516103f3919061327e565b348015610b3257600080fd5b50610776610b41366004612e97565b6101096020526000908152604090205460ff1681565b348015610b6357600080fd5b506103e9610b72366004612e97565b61010b6020526000908152604090205481565b348015610b9157600080fd5b5061041161209d565b348015610ba657600080fd5b5061043e610bb5366004612e7a565b6120ab565b348015610bc657600080fd5b5061043e610bd5366004612e97565b6120fb565b6098546000906001600160a01b03163314610c075760405162461bcd60e51b81526004016103bb906132bf565b600260015403610c295760405162461bcd60e51b81526004016103bb90613327565b6002600155610111546040805180820190915260198152784e4f545f415f5449455245445f46495845445f424f554e545960381b602082015290600314610c835760405162461bcd60e51b81526004016103bb9190612d4a565b50600082815261014a602090815260409182902054825180840190935260148352731512515497d053149150511657d0d3105253515160621b9183019190915260ff1615610ce45760405162461bcd60e51b81526004016103bb9190612d4a565b50600082815261014a60205260408120805460ff19166001179055610148805484908110610d1457610d1461335e565b60009182526020909120015461018154909150610d3b906001600160a01b03168286612141565b600180559392505050565b6101108054610d5490613374565b80601f0160208091040260200160405190810160405280929190818152602001828054610d8090613374565b8015610dcd5780601f10610da257610100808354040283529160200191610dcd565b820191906000526020600020905b815481529060010190602001808311610db057829003601f168201915b505050505081565b6065546001600160a01b0316336001600160a01b031614610e085760405162461bcd60e51b81526004016103bb906133ae565b8161014e8281548110610e1d57610e1d61335e565b906000526020600020019081610e339190613431565b505050565b6065546001600160a01b0316336001600160a01b031614610e6b5760405162461bcd60e51b81526004016103bb906133ae565b61011480549115156101000261ff0019909216919091179055565b6065546001600160a01b0316336001600160a01b031614610eb95760405162461bcd60e51b81526004016103bb906133ae565b610114805460ff1916911515919091179055565b6065546001600160a01b0316336001600160a01b031614610f005760405162461bcd60e51b81526004016103bb906133ae565b610111546040805180820190915260198152784e4f545f415f46495845445f5449455245445f424f554e545960381b602082015290600314610f555760405162461bcd60e51b81526004016103bb9190612d4a565b50610f636101488484612ac7565b5061018180546001600160a01b0319166001600160a01b038316179055610148546000906001600160401b03811115610f9e57610f9e612d5d565b604051908082528060200260200182016040528015610fd157816020015b6060815260200190600190039081610fbc5790505b50610148549091506000906001600160401b03811115610ff357610ff3612d5d565b60405190808252806020026020018201604052801561101c578160200160208202803683370190505b50610148549091506000906001600160401b0381111561103e5761103e612d5d565b604051908082528060200260200182016040528015611067578160200160208202803683370190505b50905060005b83518110156111585761014e548110156111465761014e81815481106110955761109561335e565b9060005260206000200180546110aa90613374565b80601f01602080910402602001604051908101604052809291908181526020018280546110d690613374565b80156111235780601f106110f857610100808354040283529160200191611123565b820191906000526020600020905b81548152906001019060200180831161110657829003601f168201915b505050505084828151811061113a5761113a61335e565b60200260200101819052505b8061115081613506565b91505061106d565b50825161116d9061014e906020860190612b12565b5060005b82518110156111ee5761014c548110156111dc5761014c81815481106111995761119961335e565b90600052602060002090602091828204019190069054906101000a900460ff168382815181106111cb576111cb61335e565b911515602092830291909101909101525b806111e681613506565b915050611171565b5081516112039061014c906020850190612b64565b5060005b81518110156112845761014d548110156112725761014d818154811061122f5761122f61335e565b90600052602060002090602091828204019190069054906101000a900460ff168282815181106112615761126161335e565b911515602092830291909101909101525b8061127c81613506565b915050611207565b5080516112999061014d906020840190612b64565b50505050505050565b6098546001600160a01b031633146112cc5760405162461bcd60e51b81526004016103bb906132bf565b6101045460408051808201909152601781527610d3d395149050d517d053149150511657d0d313d4d151604a1b6020820152901561131d5760405162461bcd60e51b81526004016103bb9190612d4a565b506001610104554261010055565b6101028054610d5490613374565b606061014880548060200260200160405190810160405280929190818152602001828054801561138857602002820191906000526020600020905b815481526020019060010190808311611374575b5050505050905090565b606061014e805480602002602001604051908101604052809291908181526020016000905b828210156114635783829060005260206000200180546113d690613374565b80601f016020809104026020016040519081016040528092919081815260200182805461140290613374565b801561144f5780601f106114245761010080835404028352916020019161144f565b820191906000526020600020905b81548152906001019060200180831161143257829003601f168201915b5050505050815260200190600101906113b7565b50505050905090565b60006001600160a01b038216611483575047919050565b61148c8261199b565b92915050565b919050565b600054610100900460ff16158080156114b75750600054600160ff909116105b806114d15750303b1580156114d1575060005460ff166001145b6115345760405162461bcd60e51b815260206004820152602e60248201527f496e697469616c697a61626c653a20636f6e747261637420697320616c72656160448201526d191e481a5b9a5d1a585b1a5e995960921b60648201526084016103bb565b6000805460ff191660011790558015611557576000805461ff0019166101001790555b87516040805180820190915260128152711393d7d15354151657d093d553951657d25160721b6020820152906115a05760405162461bcd60e51b81526004016103bb9190612d4a565b5085516040805180820190915260158152742727afa2a6a82a2cafa7a923a0a724ad20aa24a7a760591b6020820152906115ed5760405162461bcd60e51b81526004016103bb9190612d4a565b506115f6612164565b606580546001600160a01b0319166001600160a01b03871617905561161a84612195565b611623836121de565b60fe61162f8982613431565b5061010180546001600160a01b0319166001600160a01b0389161790556101026116598782613431565b504260ff81905550600080600080600080876020015180602001905181019061168291906135ee565b50506003610111558551959b509399509197509550935091506116ad90610148906020890190612c04565b5061018180546001600160a01b0319166001600160a01b038716179055610114805461ffff191685151561ff00191617610100851515021762ff0000191662010000841515021790556101156117038282613431565b5085516001600160401b0381111561171d5761171d612d5d565b60405190808252806020026020018201604052801561175057816020015b606081526020019060019003908161173b5790505b5080516117669161014e91602090910190612b12565b5085516001600160401b0381111561178057611780612d5d565b6040519080825280602002602001820160405280156117a9578160200160208202803683370190505b5080516117bf9161014c91602090910190612b64565b5085516001600160401b038111156117d9576117d9612d5d565b604051908082528060200260200182016040528015611802578160200160208202803683370190505b5080516118189161014d91602090910190612b64565b505050505050508015611865576000805461ff0019169055604051600181527f7f26b83ff96e1f2b6a682f133852f6798a09c465da95921460cefb38474024989060200160405180910390a15b5050505050505050565b6065546001600160a01b0316336001600160a01b0316146118a25760405162461bcd60e51b81526004016103bb906133ae565b6000806118b1838501856136dd565b915091508061014c83815481106118ca576118ca61335e565b90600052602060002090602091828204019190066101000a81548160ff02191690831515021790555050505050565b606061010d8054806020026020016040519081016040528092919081815260200182805480156113885760200282019190600052602060002090815481526020019060010190808311611374575050505050905090565b606061014d604051602001611965919061370d565b604051602081830303815290604052905090565b61010d818154811061198a57600080fd5b600091825260209091200154905081565b6040516370a0823160e01b815230600482015260009082906001600160a01b038216906370a0823190602401602060405180830381865afa1580156119e4573d6000803e3d6000fd5b505050506040513d601f19601f82011682018060405250810190611a089190613db8565b9392505050565b61014d8181548110611a2057600080fd5b9060005260206000209060209182820401919006915054906101000a900460ff1681565b61014c8181548110611a2057600080fd5b60fe8054610d5490613374565b6000611a6f61010e612227565b51905090565b61014e8181548110611a8657600080fd5b906000526020600020016000915090508054610d5490613374565b6065546001600160a01b0316336001600160a01b031614611ad45760405162461bcd60e51b81526004016103bb906133ae565b61011355610112805460016001600160a81b03199091166101006001600160a01b039490941693840260ff19161717905561018180546001600160a01b0319169091179055565b60cb5460009081906001600160a01b03163314611b4a5760405162461bcd60e51b81526004016103bb90613dd1565b610181546040805180820190915260128152711513d2d15397d393d517d050d0d15415115160721b6020820152906001600160a01b03878116911614611ba35760405162461bcd60e51b81526004016103bb9190612d4a565b50611bb086868686612234565b9150915094509492505050565b606061014c604051602001611965919061370d565b610148818154811061198a57600080fd5b60cb546000906001600160a01b03163314611c105760405162461bcd60e51b81526004016103bb90613dd1565b600260015403611c325760405162461bcd60e51b81526004016103bb90613327565b60026001556101045460408051808201909152601281527110d3d395149050d517d254d7d0d313d4d15160721b60208201529015611c835760405162461bcd60e51b81526004016103bb9190612d4a565b5060008481526101096020908152604091829020548251808401909352601883527711115413d4d25517d053149150511657d49151955391115160421b9183019190915260ff1615611ce85760405162461bcd60e51b81526004016103bb9190612d4a565b5060008481526101056020908152604091829020548251808401909352601183527021a0a62622a92fa727aa2fa32aa72222a960791b918301919091526001600160a01b03848116911614611d505760405162461bcd60e51b81526004016103bb9190612d4a565b50600084815261010c602090815260408083205461010890925290912054611d789190613e3d565b421115611dba57600084815261010860205260409020548390611d9b9042613e50565b611da59190613e3d565b600085815261010c6020526040902055611de6565b600084815261010c6020526040902054611dd5908490613e3d565b600085815261010c60205260409020555b505050600090815261010c60205260409020546001805590565b60cb546001600160a01b03163314611e2a5760405162461bcd60e51b81526004016103bb90613dd1565b600260015403611e4c5760405162461bcd60e51b81526004016103bb90613327565b600260015560008381526101096020908152604091829020548251808401909352601883527711115413d4d25517d053149150511657d49151955391115160421b9183019190915260ff1615611eb55760405162461bcd60e51b81526004016103bb9190612d4a565b5060008381526101056020908152604091829020548251808401909352601183527021a0a62622a92fa727aa2fa32aa72222a960791b918301919091526001600160a01b03848116911614611f1d5760405162461bcd60e51b81526004016103bb9190612d4a565b50600083815261010c602090815260408083205461010890925290912054611f459190613e3d565b4210156040518060400160405280601881526020017714149153505515549157d4915195539117d49154555154d560421b81525090611f975760405162461bcd60e51b81526004016103bb9190612d4a565b50600083815261010960209081526040808320805460ff191660011790556101069091529020546001600160a01b0316611ff35760008381526101056020526040902054611fee906001600160a01b0316826124dd565b612027565b6000838152610106602090815260408083205461010590925290912054612027916001600160a01b039081169116836124f4565b50506001805550565b6065546001600160a01b0316336001600160a01b0316146120635760405162461bcd60e51b81526004016103bb906133ae565b600080612072838501856136dd565b915091508061014d83815481106118ca576118ca61335e565b606061209861010e612227565b905090565b6101158054610d5490613374565b6065546001600160a01b0316336001600160a01b0316146120de5760405162461bcd60e51b81526004016103bb906133ae565b6101148054911515620100000262ff000019909216919091179055565b6098546001600160a01b031633146121255760405162461bcd60e51b81526004016103bb906132bf565b600090815261014a60205260409020805460ff19166001179055565b6001600160a01b03831661215957610e3381836124dd565b610e338382846124f4565b600054610100900460ff1661218b5760405162461bcd60e51b81526004016103bb90613e63565b61219361250f565b565b600054610100900460ff166121bc5760405162461bcd60e51b81526004016103bb90613e63565b609880546001600160a01b0319166001600160a01b0392909216919091179055565b600054610100900460ff166122055760405162461bcd60e51b81526004016103bb90613e63565b60cb80546001600160a01b0319166001600160a01b0392909216919091179055565b60606000611a088361253c565b60cb5460009081906001600160a01b031633146122635760405162461bcd60e51b81526004016103bb90613dd1565b6002600154036122855760405162461bcd60e51b81526004016103bb90613327565b60026001556040805180820190915260208082527f45585049524154494f4e5f4e4f545f475245415445525f5448414e5f5a45524f90820152836122dc5760405162461bcd60e51b81526004016103bb9190612d4a565b506101045460408051808201909152601281527110d3d395149050d517d254d7d0d313d4d15160721b602082015290156123295760405162461bcd60e51b81526004016103bb9190612d4a565b506000612334612598565b905060006001600160a01b0387166123945760408051808201909152601081526f16915493d7d593d315535157d4d1539560821b60208201523461238b5760405162461bcd60e51b81526004016103bb9190612d4a565b503490506123e0565b34156123d257604080518082018252600a815269115512115497d4d1539560b21b6020820152905162461bcd60e51b81526103bb9190600401612d4a565b6123dd8789886125cd565b90505b60408051808201909152601081526f16915493d7d593d315535157d4d1539560821b6020820152816124255760405162461bcd60e51b81526004016103bb9190612d4a565b5060008281526101056020908152604080832080546001600160a01b03808e166001600160a01b03199283161790925561010684528285208054928d16929091169190911790556101078252808320849055610108825280832042905561010c909152812086905561010d805460018101825591527fd37d5aab611bd3c946977441ea77c3eceb623a7966962fbc75015048e8640bfb018290556124cb61010e8861266c565b50600180559097909650945050505050565b6124f06001600160a01b03831682612681565b5050565b826125096001600160a01b038216848461279a565b50505050565b600054610100900460ff166125365760405162461bcd60e51b81526004016103bb90613e63565b60018055565b60608160000180548060200260200160405190810160405280929190818152602001828054801561258c57602002820191906000526020600020905b815481526020019060010190808311612578575b50505050509050919050565b61010d546040516000916125b29160fe9190602001613eae565b60405160208183030381529060405280519060200120905090565b6000806125d98561199b565b9050846125f16001600160a01b0382168630876127fd565b60006125fc8761199b565b9050828110156040518060400160405280601a81526020017f544f4b454e5f5452414e534645525f494e5f4f564552464c4f57000000000000815250906126565760405162461bcd60e51b81526004016103bb9190612d4a565b506126618382613e50565b979650505050505050565b6000611a08836001600160a01b038416612835565b804710156126d15760405162461bcd60e51b815260206004820152601d60248201527f416464726573733a20696e73756666696369656e742062616c616e636500000060448201526064016103bb565b6000826001600160a01b03168260405160006040518083038185875af1925050503d806000811461271e576040519150601f19603f3d011682016040523d82523d6000602084013e612723565b606091505b5050905080610e335760405162461bcd60e51b815260206004820152603a60248201527f416464726573733a20756e61626c6520746f2073656e642076616c75652c207260448201527f6563697069656e74206d6179206861766520726576657274656400000000000060648201526084016103bb565b6040516001600160a01b038316602482015260448101829052610e3390849063a9059cbb60e01b906064015b60408051601f198184030181529190526020810180516001600160e01b03166001600160e01b031990931692909217909152612884565b6040516001600160a01b03808516602483015283166044820152606481018290526125099085906323b872dd60e01b906084016127c6565b600081815260018301602052604081205461287c5750815460018181018455600084815260208082209093018490558454848252828601909352604090209190915561148c565b50600061148c565b60006128d9826040518060400160405280602081526020017f5361666545524332303a206c6f772d6c6576656c2063616c6c206661696c6564815250856001600160a01b03166129569092919063ffffffff16565b805190915015610e3357808060200190518101906128f79190613f42565b610e335760405162461bcd60e51b815260206004820152602a60248201527f5361666545524332303a204552433230206f7065726174696f6e20646964206e6044820152691bdd081cdd58d8d9595960b21b60648201526084016103bb565b6060612965848460008561296d565b949350505050565b6060824710156129ce5760405162461bcd60e51b815260206004820152602660248201527f416464726573733a20696e73756666696369656e742062616c616e636520666f6044820152651c8818d85b1b60d21b60648201526084016103bb565b6001600160a01b0385163b612a255760405162461bcd60e51b815260206004820152601d60248201527f416464726573733a2063616c6c20746f206e6f6e2d636f6e747261637400000060448201526064016103bb565b600080866001600160a01b03168587604051612a419190613f5f565b60006040518083038185875af1925050503d8060008114612a7e576040519150601f19603f3d011682016040523d82523d6000602084013e612a83565b606091505b509150915061266182828660608315612a9d575081611a08565b825115612aad5782518084602001fd5b8160405162461bcd60e51b81526004016103bb9190612d4a565b828054828255906000526020600020908101928215612b02579160200282015b82811115612b02578235825591602001919060010190612ae7565b50612b0e929150612c3f565b5090565b828054828255906000526020600020908101928215612b58579160200282015b82811115612b585782518290612b489082613431565b5091602001919060010190612b32565b50612b0e929150612c54565b82805482825590600052602060002090601f01602090048101928215612b025791602002820160005b83821115612bca57835183826101000a81548160ff0219169083151502179055509260200192600101602081600001049283019260010302612b8d565b8015612bf75782816101000a81549060ff0219169055600101602081600001049283019260010302612bca565b5050612b0e929150612c3f565b828054828255906000526020600020908101928215612b02579160200282015b82811115612b02578251825591602001919060010190612c24565b5b80821115612b0e5760008155600101612c40565b80821115612b0e576000612c688282612c71565b50600101612c54565b508054612c7d90613374565b6000825580601f10612c8d575050565b601f016020900490600052602060002090810190612cab9190612c3f565b50565b6001600160a01b0381168114612cab57600080fd5b803561149281612cae565b60008060408385031215612ce157600080fd5b8235612cec81612cae565b946020939093013593505050565b60005b83811015612d15578181015183820152602001612cfd565b50506000910152565b60008151808452612d36816020860160208601612cfa565b601f01601f19169290920160200192915050565b602081526000611a086020830184612d1e565b634e487b7160e01b600052604160045260246000fd5b604051601f8201601f191681016001600160401b0381118282101715612d9b57612d9b612d5d565b604052919050565b60006001600160401b03821115612dbc57612dbc612d5d565b50601f01601f191660200190565b6000612ddd612dd884612da3565b612d73565b9050828152838383011115612df157600080fd5b828260208301376000602084830101529392505050565b600082601f830112612e1957600080fd5b611a0883833560208501612dca565b60008060408385031215612e3b57600080fd5b82356001600160401b03811115612e5157600080fd5b612e5d85828601612e08565b95602094909401359450505050565b8015158114612cab57600080fd5b600060208284031215612e8c57600080fd5b8135611a0881612e6c565b600060208284031215612ea957600080fd5b5035919050565b600080600060408486031215612ec557600080fd5b83356001600160401b0380821115612edc57600080fd5b818601915086601f830112612ef057600080fd5b813581811115612eff57600080fd5b8760208260051b8501011115612f1457600080fd5b60209283019550935050840135612f2a81612cae565b809150509250925092565b6020808252825182820181905260009190848201906040850190845b81811015612f6d57835183529284019291840191600101612f51565b50909695505050505050565b6000602080830181845280855180835260408601915060408160051b870101925083870160005b82811015612fce57603f19888603018452612fbc858351612d1e565b94509285019290850190600101612fa0565b5092979650505050505050565b600060208284031215612fed57600080fd5b8135611a0881612cae565b60006040828403121561300a57600080fd5b604051604081016001600160401b03828210818311171561302d5761302d612d5d565b816040528293508435915063ffffffff8216821461304a57600080fd5b9082526020840135908082111561306057600080fd5b508301601f8101851361307257600080fd5b61308185823560208401612dca565b6020830152505092915050565b600080600080600080600060e0888a0312156130a957600080fd5b87356001600160401b03808211156130c057600080fd5b6130cc8b838c01612e08565b985060208a013591506130de82612cae565b909650604089013590808211156130f457600080fd5b6131008b838c01612e08565b965060608a0135915061311282612cae565b81955061312160808b01612cc3565b945061312f60a08b01612cc3565b935060c08a013591508082111561314557600080fd5b506131528a828b01612ff8565b91505092959891949750929550565b6000806020838503121561317457600080fd5b82356001600160401b038082111561318b57600080fd5b818501915085601f83011261319f57600080fd5b8135818111156131ae57600080fd5b8660208285010111156131c057600080fd5b60209290920196919550909350505050565b600080600080608085870312156131e857600080fd5b84356131f381612cae565b9350602085013561320381612cae565b93969395505050506040820135916060013590565b60008060006060848603121561322d57600080fd5b83359250602084013591506040840135612f2a81612cae565b60008060006060848603121561325b57600080fd5b83359250602084013561326d81612cae565b929592945050506040919091013590565b6020808252825182820181905260009190848201906040850190845b81811015612f6d5783516001600160a01b03168352928401929184019160010161329a565b60208082526042908201527f436c61696d4d616e616765724f776e61626c653a2063616c6c6572206973206e60408201527f6f74207468652063757272656e74204f70656e5120436c61696d204d616e616760608201526132b960f11b608082015260a00190565b6020808252601f908201527f5265656e7472616e637947756172643a207265656e7472616e742063616c6c00604082015260600190565b634e487b7160e01b600052603260045260246000fd5b600181811c9082168061338857607f821691505b6020821081036133a857634e487b7160e01b600052602260045260246000fd5b50919050565b6020808252818101527f4d6574686f64206973206f6e6c792063616c6c61626c65206279204f70656e51604082015260600190565b601f821115610e3357600081815260208120601f850160051c8101602086101561340a5750805b601f850160051c820191505b8181101561342957828155600101613416565b505050505050565b81516001600160401b0381111561344a5761344a612d5d565b61345e816134588454613374565b846133e3565b602080601f831160018114613493576000841561347b5750858301515b600019600386901b1c1916600185901b178555613429565b600085815260208120601f198616915b828110156134c2578886015182559484019460019091019084016134a3565b50858210156134e05787850151600019600388901b60f8161c191681555b5050505050600190811b01905550565b634e487b7160e01b600052601160045260246000fd5b600060018201613518576135186134f0565b5060010190565b600082601f83011261353057600080fd5b815160206001600160401b0382111561354b5761354b612d5d565b8160051b61355a828201612d73565b928352848101820192828101908785111561357457600080fd5b83870192505b848310156126615782518252918301919083019061357a565b805161149281612cae565b805161149281612e6c565b600082601f8301126135ba57600080fd5b81516135c8612dd882612da3565b8181528460208386010111156135dd57600080fd5b612965826020830160208701612cfa565b600080600080600080600080610100898b03121561360b57600080fd5b88516001600160401b038082111561362257600080fd5b61362e8c838d0161351f565b995061363c60208c01613593565b985061364a60408c0161359e565b975061365860608c0161359e565b965061366660808c0161359e565b955060a08b015191508082111561367c57600080fd5b6136888c838d016135a9565b945060c08b015191508082111561369e57600080fd5b6136aa8c838d016135a9565b935060e08b01519150808211156136c057600080fd5b506136cd8b828c016135a9565b9150509295985092959890939650565b600080604083850312156136f057600080fd5b82359150602083013561370281612e6c565b809150509250929050565b60006020808301818452808554613728818490815260200190565b60008881526020812094509092505b81601f820110156139a257835460ff8082161515855261375f878601828460081c1615159052565b6040613773818701838560101c1615159052565b6060613787818801848660181c1615159052565b608061379a81890185878d1c1615159052565b60a06137ae818a01868860281c1615159052565b60c06137c2818b01878960301c1615159052565b60e06137d6818c01888a60381c1615159052565b87861c871615156101008c01526137f76101208c01888a60481c1615159052565b61380b6101408c01888a60501c1615159052565b61381f6101608c01888a60581c1615159052565b87851c871615156101808c01526138406101a08c01888a60681c1615159052565b6138546101c08c01888a60701c1615159052565b6138686101e08c01888a60781c1615159052565b87841c871615156102008c01526138896102208c01888a60881c1615159052565b61389d6102408c01888a60901c1615159052565b6138b16102608c01888a60981c1615159052565b87831c871615156102808c01526138d26102a08c01888a60a81c1615159052565b6138e66102c08c01888a60b01c1615159052565b6138fa6102e08c01888a60b81c1615159052565b87821c871615156103008c015261391b6103208c01888a60c81c1615159052565b61392f6103408c01888a60d01c1615159052565b6139436103608c01888a60d81c1615159052565b87901c861615156103808b0152505050505060e882901c811615156103a08601526139786103c08601828460f01c1615159052565b5061398b6103e085018260f81c15159052565b506001939093019261040092909201918401613737565b925492818110156139bd5760ff841615158352918401916001015b818110156139de576139d68360ff8660081c1615159052565b918401916001015b818110156139ff576139f78360ff8660101c1615159052565b918401916001015b81811015613a2057613a188360ff8660181c1615159052565b918401916001015b81811015613a3a5783851c60ff1615158352918401916001015b81811015613a5b57613a538360ff8660281c1615159052565b918401916001015b81811015613a7c57613a748360ff8660301c1615159052565b918401916001015b81811015613a9d57613a958360ff8660381c1615159052565b918401916001015b81811015613abe57613ab68360ff8660401c1615159052565b918401916001015b81811015613adf57613ad78360ff8660481c1615159052565b918401916001015b81811015613b0057613af88360ff8660501c1615159052565b918401916001015b81811015613b2157613b198360ff8660581c1615159052565b918401916001015b81811015613b4257613b3a8360ff8660601c1615159052565b918401916001015b81811015613b6357613b5b8360ff8660681c1615159052565b918401916001015b81811015613b8457613b7c8360ff8660701c1615159052565b918401916001015b81811015613ba557613b9d8360ff8660781c1615159052565b918401916001015b81811015613bc657613bbe8360ff8660801c1615159052565b918401916001015b81811015613be757613bdf8360ff8660881c1615159052565b918401916001015b81811015613c0857613c008360ff8660901c1615159052565b918401916001015b81811015613c2957613c218360ff8660981c1615159052565b918401916001015b81811015613c4a57613c428360ff8660a01c1615159052565b918401916001015b81811015613c6b57613c638360ff8660a81c1615159052565b918401916001015b81811015613c8c57613c848360ff8660b01c1615159052565b918401916001015b81811015613cad57613ca58360ff8660b81c1615159052565b918401916001015b81811015613cce57613cc68360ff8660c01c1615159052565b918401916001015b81811015613cef57613ce78360ff8660c81c1615159052565b918401916001015b81811015613d1057613d088360ff8660d01c1615159052565b918401916001015b81811015613d3157613d298360ff8660d81c1615159052565b918401916001015b81811015613d5257613d4a8360ff8660e01c1615159052565b918401916001015b81811015613d7357613d6b8360ff8660e81c1615159052565b918401916001015b81811015613d9457613d8c8360ff8660f01c1615159052565b918401916001015b81811015612f6d57613daa838560f81c15159052565b505091909101949350505050565b600060208284031215613dca57600080fd5b5051919050565b60208082526046908201527f4465706f7369744d616e616765724f776e61626c653a2063616c6c657220697360408201527f206e6f74207468652063757272656e74204f70656e51204465706f736974204d60608201526530b730b3b2b960d11b608082015260a00190565b8082018082111561148c5761148c6134f0565b8181038181111561148c5761148c6134f0565b6020808252602b908201527f496e697469616c697a61626c653a20636f6e7472616374206973206e6f74206960408201526a6e697469616c697a696e6760a81b606082015260800190565b604081526000808454613ec081613374565b8060408601526060600180841660008114613ee25760018114613efc57613f2d565b60ff1985168884015283151560051b880183019550613f2d565b8960005260208060002060005b86811015613f245781548b8201870152908401908201613f09565b8a018501975050505b50505050506020929092019290925292915050565b600060208284031215613f5457600080fd5b8151611a0881612e6c565b60008251613f71818460208701612cfa565b919091019291505056fea264697066735822122096b8688ade9f3f3f6aae1f94e7298bafeac0c8f1fff65f5c1324191f8849ad2c64736f6c63430008110033",
  "linkReferences": {},
  "deployedLinkReferences": {}
}