{
  "_format": "hh-sol-artifact-1",
  "contractName": "TieredFixedBountyV1",
  "sourceName": "contracts/Bounty/Implementations/TieredFixedBountyV1.sol",
  "abi": [
    {
      "inputs": [],
      "stateMutability": "nonpayable",
      "type": "constructor"
    },
    {
      "anonymous": false,
      "inputs": [
        {
          "indexed": false,
          "internalType": "uint8",
          "name": "version",
          "type": "uint8"
        }
      ],
      "name": "Initialized",
      "type": "event"
    },
    {
      "inputs": [],
      "name": "VERSION_1",
      "outputs": [
        {
          "internalType": "uint256",
          "name": "",
          "type": "uint256"
        }
      ],
      "stateMutability": "view",
      "type": "function"
    },
    {
      "inputs": [],
      "name": "bountyClosedTime",
      "outputs": [
        {
          "internalType": "uint256",
          "name": "",
          "type": "uint256"
        }
      ],
      "stateMutability": "view",
      "type": "function"
    },
    {
      "inputs": [],
      "name": "bountyCreatedTime",
      "outputs": [
        {
          "internalType": "uint256",
          "name": "",
          "type": "uint256"
        }
      ],
      "stateMutability": "view",
      "type": "function"
    },
    {
      "inputs": [],
      "name": "bountyId",
      "outputs": [
        {
          "internalType": "string",
          "name": "",
          "type": "string"
        }
      ],
      "stateMutability": "view",
      "type": "function"
    },
    {
      "inputs": [],
      "name": "bountyType",
      "outputs": [
        {
          "internalType": "uint256",
          "name": "",
          "type": "uint256"
        }
      ],
      "stateMutability": "view",
      "type": "function"
    },
    {
      "inputs": [],
      "name": "claimManager",
      "outputs": [
        {
          "internalType": "address",
          "name": "",
          "type": "address"
        }
      ],
      "stateMutability": "view",
      "type": "function"
    },
    {
      "inputs": [
        {
          "internalType": "address",
          "name": "_payoutAddress",
          "type": "address"
        },
        {
          "internalType": "bytes32",
          "name": "_depositId",
          "type": "bytes32"
        }
      ],
      "name": "claimNft",
      "outputs": [],
      "stateMutability": "nonpayable",
      "type": "function"
    },
    {
      "inputs": [
        {
          "internalType": "address",
          "name": "_payoutAddress",
          "type": "address"
        },
        {
          "internalType": "uint256",
          "name": "_tier",
          "type": "uint256"
        }
      ],
      "name": "claimTieredFixed",
      "outputs": [
        {
          "internalType": "uint256",
          "name": "",
          "type": "uint256"
        }
      ],
      "stateMutability": "nonpayable",
      "type": "function"
    },
    {
      "inputs": [],
      "name": "closeCompetition",
      "outputs": [],
      "stateMutability": "nonpayable",
      "type": "function"
    },
    {
      "inputs": [],
      "name": "closer",
      "outputs": [
        {
          "internalType": "address",
          "name": "",
          "type": "address"
        }
      ],
      "stateMutability": "view",
      "type": "function"
    },
    {
      "inputs": [],
      "name": "closerData",
      "outputs": [
        {
          "internalType": "bytes",
          "name": "",
          "type": "bytes"
        }
      ],
      "stateMutability": "view",
      "type": "function"
    },
    {
      "inputs": [],
      "name": "depositManager",
      "outputs": [
        {
          "internalType": "address",
          "name": "",
          "type": "address"
        }
      ],
      "stateMutability": "view",
      "type": "function"
    },
    {
      "inputs": [
        {
          "internalType": "bytes32",
          "name": "",
          "type": "bytes32"
        }
      ],
      "name": "depositTime",
      "outputs": [
        {
          "internalType": "uint256",
          "name": "",
          "type": "uint256"
        }
      ],
      "stateMutability": "view",
      "type": "function"
    },
    {
      "inputs": [
        {
          "internalType": "uint256",
          "name": "",
          "type": "uint256"
        }
      ],
      "name": "deposits",
      "outputs": [
        {
          "internalType": "bytes32",
          "name": "",
          "type": "bytes32"
        }
      ],
      "stateMutability": "view",
      "type": "function"
    },
    {
      "inputs": [
        {
          "internalType": "bytes32",
          "name": "",
          "type": "bytes32"
        }
      ],
      "name": "expiration",
      "outputs": [
        {
          "internalType": "uint256",
          "name": "",
          "type": "uint256"
        }
      ],
      "stateMutability": "view",
      "type": "function"
    },
    {
      "inputs": [
        {
          "internalType": "bytes32",
          "name": "_depositId",
          "type": "bytes32"
        },
        {
          "internalType": "uint256",
          "name": "_seconds",
          "type": "uint256"
        },
        {
          "internalType": "address",
          "name": "_funder",
          "type": "address"
        }
      ],
      "name": "extendDeposit",
      "outputs": [
        {
          "internalType": "uint256",
          "name": "",
          "type": "uint256"
        }
      ],
      "stateMutability": "nonpayable",
      "type": "function"
    },
    {
      "inputs": [
        {
          "internalType": "bytes32",
          "name": "",
          "type": "bytes32"
        }
      ],
      "name": "funder",
      "outputs": [
        {
          "internalType": "address",
          "name": "",
          "type": "address"
        }
      ],
      "stateMutability": "view",
      "type": "function"
    },
    {
      "inputs": [],
      "name": "fundingGoal",
      "outputs": [
        {
          "internalType": "uint256",
          "name": "",
          "type": "uint256"
        }
      ],
      "stateMutability": "view",
      "type": "function"
    },
    {
      "inputs": [],
      "name": "fundingToken",
      "outputs": [
        {
          "internalType": "address",
          "name": "",
          "type": "address"
        }
      ],
      "stateMutability": "view",
      "type": "function"
    },
    {
      "inputs": [
        {
          "internalType": "address",
          "name": "",
          "type": "address"
        }
      ],
      "name": "fundingTotals",
      "outputs": [
        {
          "internalType": "uint256",
          "name": "",
          "type": "uint256"
        }
      ],
      "stateMutability": "view",
      "type": "function"
    },
    {
      "inputs": [],
      "name": "getDeposits",
      "outputs": [
        {
          "internalType": "bytes32[]",
          "name": "",
          "type": "bytes32[]"
        }
      ],
      "stateMutability": "view",
      "type": "function"
    },
    {
      "inputs": [
        {
          "internalType": "address",
          "name": "_tokenAddress",
          "type": "address"
        }
      ],
      "name": "getERC20Balance",
      "outputs": [
        {
          "internalType": "uint256",
          "name": "balance",
          "type": "uint256"
        }
      ],
      "stateMutability": "view",
      "type": "function"
    },
    {
      "inputs": [],
      "name": "getInvoiceComplete",
      "outputs": [
        {
          "internalType": "bytes",
          "name": "",
          "type": "bytes"
        }
      ],
      "stateMutability": "view",
      "type": "function"
    },
    {
      "inputs": [
        {
          "internalType": "address",
          "name": "_depositId",
          "type": "address"
        }
      ],
      "name": "getLockedFunds",
      "outputs": [
        {
          "internalType": "uint256",
          "name": "",
          "type": "uint256"
        }
      ],
      "stateMutability": "view",
      "type": "function"
    },
    {
      "inputs": [],
      "name": "getNftDeposits",
      "outputs": [
        {
          "internalType": "bytes32[]",
          "name": "",
          "type": "bytes32[]"
        }
      ],
      "stateMutability": "view",
      "type": "function"
    },
    {
      "inputs": [],
      "name": "getPayoutSchedule",
      "outputs": [
        {
          "internalType": "uint256[]",
          "name": "",
          "type": "uint256[]"
        }
      ],
      "stateMutability": "view",
      "type": "function"
    },
    {
      "inputs": [],
      "name": "getSupportingDocumentsComplete",
      "outputs": [
        {
          "internalType": "bytes",
          "name": "",
          "type": "bytes"
        }
      ],
      "stateMutability": "view",
      "type": "function"
    },
    {
      "inputs": [],
      "name": "getTierWinners",
      "outputs": [
        {
          "internalType": "string[]",
          "name": "",
          "type": "string[]"
        }
      ],
      "stateMutability": "view",
      "type": "function"
    },
    {
      "inputs": [],
      "name": "getTokenAddresses",
      "outputs": [
        {
          "internalType": "address[]",
          "name": "",
          "type": "address[]"
        }
      ],
      "stateMutability": "view",
      "type": "function"
    },
    {
      "inputs": [],
      "name": "getTokenAddressesCount",
      "outputs": [
        {
          "internalType": "uint256",
          "name": "",
          "type": "uint256"
        }
      ],
      "stateMutability": "view",
      "type": "function"
    },
    {
      "inputs": [
        {
          "internalType": "address",
          "name": "_tokenAddress",
          "type": "address"
        }
      ],
      "name": "getTokenBalance",
      "outputs": [
        {
          "internalType": "uint256",
          "name": "",
          "type": "uint256"
        }
      ],
      "stateMutability": "view",
      "type": "function"
    },
    {
      "inputs": [],
      "name": "hasFundingGoal",
      "outputs": [
        {
          "internalType": "bool",
          "name": "",
          "type": "bool"
        }
      ],
      "stateMutability": "view",
      "type": "function"
    },
    {
      "inputs": [
        {
          "internalType": "string",
          "name": "_bountyId",
          "type": "string"
        },
        {
          "internalType": "address",
          "name": "_issuer",
          "type": "address"
        },
        {
          "internalType": "string",
          "name": "_organization",
          "type": "string"
        },
        {
          "internalType": "address",
          "name": "_openQ",
          "type": "address"
        },
        {
          "internalType": "address",
          "name": "_claimManager",
          "type": "address"
        },
        {
          "internalType": "address",
          "name": "_depositManager",
          "type": "address"
        },
        {
          "components": [
            {
              "internalType": "uint32",
              "name": "operationType",
              "type": "uint32"
            },
            {
              "internalType": "bytes",
              "name": "data",
              "type": "bytes"
            }
          ],
          "internalType": "struct OpenQDefinitions.InitOperation",
          "name": "_operation",
          "type": "tuple"
        }
      ],
      "name": "initialize",
      "outputs": [],
      "stateMutability": "nonpayable",
      "type": "function"
    },
    {
      "inputs": [
        {
          "internalType": "uint256",
          "name": "",
          "type": "uint256"
        }
      ],
      "name": "invoiceComplete",
      "outputs": [
        {
          "internalType": "bool",
          "name": "",
          "type": "bool"
        }
      ],
      "stateMutability": "view",
      "type": "function"
    },
    {
      "inputs": [],
      "name": "invoiceRequired",
      "outputs": [
        {
          "internalType": "bool",
          "name": "",
          "type": "bool"
        }
      ],
      "stateMutability": "view",
      "type": "function"
    },
    {
      "inputs": [
        {
          "internalType": "bytes32",
          "name": "",
          "type": "bytes32"
        }
      ],
      "name": "isNFT",
      "outputs": [
        {
          "internalType": "bool",
          "name": "",
          "type": "bool"
        }
      ],
      "stateMutability": "view",
      "type": "function"
    },
    {
      "inputs": [],
      "name": "issuer",
      "outputs": [
        {
          "internalType": "address",
          "name": "",
          "type": "address"
        }
      ],
      "stateMutability": "view",
      "type": "function"
    },
    {
      "inputs": [],
      "name": "issuerExternalUserId",
      "outputs": [
        {
          "internalType": "string",
          "name": "",
          "type": "string"
        }
      ],
      "stateMutability": "view",
      "type": "function"
    },
    {
      "inputs": [],
      "name": "kycRequired",
      "outputs": [
        {
          "internalType": "bool",
          "name": "",
          "type": "bool"
        }
      ],
      "stateMutability": "view",
      "type": "function"
    },
    {
      "inputs": [],
      "name": "nftDepositLimit",
      "outputs": [
        {
          "internalType": "uint256",
          "name": "",
          "type": "uint256"
        }
      ],
      "stateMutability": "view",
      "type": "function"
    },
    {
      "inputs": [
        {
          "internalType": "uint256",
          "name": "",
          "type": "uint256"
        }
      ],
      "name": "nftDeposits",
      "outputs": [
        {
          "internalType": "bytes32",
          "name": "",
          "type": "bytes32"
        }
      ],
      "stateMutability": "view",
      "type": "function"
    },
    {
      "inputs": [
        {
          "internalType": "address",
          "name": "",
          "type": "address"
        },
        {
          "internalType": "address",
          "name": "",
          "type": "address"
        },
        {
          "internalType": "uint256",
          "name": "",
          "type": "uint256"
        },
        {
          "internalType": "bytes",
          "name": "",
          "type": "bytes"
        }
      ],
      "name": "onERC721Received",
      "outputs": [
        {
          "internalType": "bytes4",
          "name": "",
          "type": "bytes4"
        }
      ],
      "stateMutability": "nonpayable",
      "type": "function"
    },
    {
      "inputs": [],
      "name": "openQ",
      "outputs": [
        {
          "internalType": "address",
          "name": "",
          "type": "address"
        }
      ],
      "stateMutability": "view",
      "type": "function"
    },
    {
      "inputs": [],
      "name": "organization",
      "outputs": [
        {
          "internalType": "string",
          "name": "",
          "type": "string"
        }
      ],
      "stateMutability": "view",
      "type": "function"
    },
    {
      "inputs": [
        {
          "internalType": "bytes32",
          "name": "",
          "type": "bytes32"
        }
      ],
      "name": "payoutAddress",
      "outputs": [
        {
          "internalType": "address",
          "name": "",
          "type": "address"
        }
      ],
      "stateMutability": "view",
      "type": "function"
    },
    {
      "inputs": [
        {
          "internalType": "uint256",
          "name": "",
          "type": "uint256"
        }
      ],
      "name": "payoutSchedule",
      "outputs": [
        {
          "internalType": "uint256",
          "name": "",
          "type": "uint256"
        }
      ],
      "stateMutability": "view",
      "type": "function"
    },
    {
      "inputs": [],
      "name": "payoutTokenAddress",
      "outputs": [
        {
          "internalType": "address",
          "name": "",
          "type": "address"
        }
      ],
      "stateMutability": "view",
      "type": "function"
    },
    {
      "inputs": [
        {
          "internalType": "address",
          "name": "_funder",
          "type": "address"
        },
        {
          "internalType": "address",
          "name": "_tokenAddress",
          "type": "address"
        },
        {
          "internalType": "uint256",
          "name": "_volume",
          "type": "uint256"
        },
        {
          "internalType": "uint256",
          "name": "_expiration",
          "type": "uint256"
        }
      ],
      "name": "receiveFunds",
      "outputs": [
        {
          "internalType": "bytes32",
          "name": "",
          "type": "bytes32"
        },
        {
          "internalType": "uint256",
          "name": "",
          "type": "uint256"
        }
      ],
      "stateMutability": "payable",
      "type": "function"
    },
    {
      "inputs": [
        {
          "internalType": "address",
          "name": "_sender",
          "type": "address"
        },
        {
          "internalType": "address",
          "name": "_tokenAddress",
          "type": "address"
        },
        {
          "internalType": "uint256",
          "name": "_tokenId",
          "type": "uint256"
        },
        {
          "internalType": "uint256",
          "name": "_expiration",
          "type": "uint256"
        },
        {
          "internalType": "bytes",
          "name": "_data",
          "type": "bytes"
        }
      ],
      "name": "receiveNft",
      "outputs": [
        {
          "internalType": "bytes32",
          "name": "",
          "type": "bytes32"
        }
      ],
      "stateMutability": "nonpayable",
      "type": "function"
    },
    {
      "inputs": [
        {
          "internalType": "bytes32",
          "name": "_depositId",
          "type": "bytes32"
        },
        {
          "internalType": "address",
          "name": "_funder",
          "type": "address"
        },
        {
          "internalType": "uint256",
          "name": "_volume",
          "type": "uint256"
        }
      ],
      "name": "refundDeposit",
      "outputs": [],
      "stateMutability": "nonpayable",
      "type": "function"
    },
    {
      "inputs": [
        {
          "internalType": "bytes32",
          "name": "",
          "type": "bytes32"
        }
      ],
      "name": "refunded",
      "outputs": [
        {
          "internalType": "bool",
          "name": "",
          "type": "bool"
        }
      ],
      "stateMutability": "view",
      "type": "function"
    },
    {
      "inputs": [
        {
          "internalType": "address",
          "name": "_fundingToken",
          "type": "address"
        },
        {
          "internalType": "uint256",
          "name": "_fundingGoal",
          "type": "uint256"
        }
      ],
      "name": "setFundingGoal",
      "outputs": [],
      "stateMutability": "nonpayable",
      "type": "function"
    },
    {
      "inputs": [
        {
          "internalType": "bytes",
          "name": "_data",
          "type": "bytes"
        }
      ],
      "name": "setInvoiceComplete",
      "outputs": [],
      "stateMutability": "nonpayable",
      "type": "function"
    },
    {
      "inputs": [
        {
          "internalType": "bool",
          "name": "_invoiceRequired",
          "type": "bool"
        }
      ],
      "name": "setInvoiceRequired",
      "outputs": [],
      "stateMutability": "nonpayable",
      "type": "function"
    },
    {
      "inputs": [
        {
          "internalType": "bool",
          "name": "_kycRequired",
          "type": "bool"
        }
      ],
      "name": "setKycRequired",
      "outputs": [],
      "stateMutability": "nonpayable",
      "type": "function"
    },
    {
      "inputs": [
        {
          "internalType": "uint256[]",
          "name": "_payoutSchedule",
          "type": "uint256[]"
        },
        {
          "internalType": "address",
          "name": "_payoutTokenAddress",
          "type": "address"
        }
      ],
      "name": "setPayoutScheduleFixed",
      "outputs": [],
      "stateMutability": "nonpayable",
      "type": "function"
    },
    {
      "inputs": [
        {
          "internalType": "bytes",
          "name": "_data",
          "type": "bytes"
        }
      ],
      "name": "setSupportingDocumentsComplete",
      "outputs": [],
      "stateMutability": "nonpayable",
      "type": "function"
    },
    {
      "inputs": [
        {
          "internalType": "bool",
          "name": "_supportingDocumentsRequired",
          "type": "bool"
        }
      ],
      "name": "setSupportingDocumentsRequired",
      "outputs": [],
      "stateMutability": "nonpayable",
      "type": "function"
    },
    {
      "inputs": [
        {
          "internalType": "uint256",
          "name": "_tier",
          "type": "uint256"
        }
      ],
      "name": "setTierClaimed",
      "outputs": [],
      "stateMutability": "nonpayable",
      "type": "function"
    },
    {
      "inputs": [
        {
          "internalType": "string",
          "name": "_winner",
          "type": "string"
        },
        {
          "internalType": "uint256",
          "name": "_tier",
          "type": "uint256"
        }
      ],
      "name": "setTierWinner",
      "outputs": [],
      "stateMutability": "nonpayable",
      "type": "function"
    },
    {
      "inputs": [],
      "name": "status",
      "outputs": [
        {
          "internalType": "uint256",
          "name": "",
          "type": "uint256"
        }
      ],
      "stateMutability": "view",
      "type": "function"
    },
    {
      "inputs": [
        {
          "internalType": "uint256",
          "name": "",
          "type": "uint256"
        }
      ],
      "name": "supportingDocumentsComplete",
      "outputs": [
        {
          "internalType": "bool",
          "name": "",
          "type": "bool"
        }
      ],
      "stateMutability": "view",
      "type": "function"
    },
    {
      "inputs": [],
      "name": "supportingDocumentsRequired",
      "outputs": [
        {
          "internalType": "bool",
          "name": "",
          "type": "bool"
        }
      ],
      "stateMutability": "view",
      "type": "function"
    },
    {
      "inputs": [
        {
          "internalType": "bytes32",
          "name": "",
          "type": "bytes32"
        }
      ],
      "name": "tier",
      "outputs": [
        {
          "internalType": "uint256",
          "name": "",
          "type": "uint256"
        }
      ],
      "stateMutability": "view",
      "type": "function"
    },
    {
      "inputs": [
        {
          "internalType": "uint256",
          "name": "",
          "type": "uint256"
        }
      ],
      "name": "tierClaimed",
      "outputs": [
        {
          "internalType": "bool",
          "name": "",
          "type": "bool"
        }
      ],
      "stateMutability": "view",
      "type": "function"
    },
    {
      "inputs": [
        {
          "internalType": "uint256",
          "name": "",
          "type": "uint256"
        }
      ],
      "name": "tierWinners",
      "outputs": [
        {
          "internalType": "string",
          "name": "",
          "type": "string"
        }
      ],
      "stateMutability": "view",
      "type": "function"
    },
    {
      "inputs": [
        {
          "internalType": "bytes32",
          "name": "",
          "type": "bytes32"
        }
      ],
      "name": "tokenAddress",
      "outputs": [
        {
          "internalType": "address",
          "name": "",
          "type": "address"
        }
      ],
      "stateMutability": "view",
      "type": "function"
    },
    {
      "inputs": [
        {
          "internalType": "bytes32",
          "name": "",
          "type": "bytes32"
        }
      ],
      "name": "tokenId",
      "outputs": [
        {
          "internalType": "uint256",
          "name": "",
          "type": "uint256"
        }
      ],
      "stateMutability": "view",
      "type": "function"
    },
    {
      "inputs": [
        {
          "internalType": "bytes32",
          "name": "",
          "type": "bytes32"
        }
      ],
      "name": "volume",
      "outputs": [
        {
          "internalType": "uint256",
          "name": "",
          "type": "uint256"
        }
      ],
      "stateMutability": "view",
      "type": "function"
    },
    {
      "stateMutability": "payable",
      "type": "receive"
    }
  ],
  "bytecode": "0x608060405234801561001057600080fd5b5061467f806100206000396000f3fe60806040526004361061037e5760003560e01c80637dc81fa2116101d3578063cb4436b711610103578063eb58c0fd1161009b578063eb58c0fd14610c0c578063ee1034fb14610c2c578063ee1e43e014610c4c578063ee8c24b814610c66578063f05e0f7e14610c88578063f232172514610cb8578063fbeadd2b14610ce5578063fd9ef47c14610cfa578063fe0329c914610d1a57600080fd5b8063cb4436b714610aec578063cbcca3dc14610b02578063cd8ffb3714610b22578063ceff310714610b42578063d6fe0f4414610b62578063dda6408114610b8a578063e452d08b14610b9f578063e5f6094714610bbf578063e83963eb14610bec57600080fd5b8063b02c43d011610176578063b02c43d0146109d7578063b3ca1f3b146109f7578063b588d22514610a0d578063b969909114610a2d578063b99bb99014610a4c578063bf86441014610a82578063c0530a2614610aa2578063c17bd75e14610ac2578063c5b6e70514610ad757600080fd5b80637dc81fa2146108b2578063968b098f146108d057806397bb3ce9146108fd578063995280b0146109335780639dcaa3cc146109495780639dcb7b8e14610969578063a7f01e4d14610999578063a9a36dcd146109b957600080fd5b80632a120b33116102ae5780636b149d87116102515780636b149d87146107c05780636c7ac9d8146107d55780637026b472146107f35780637044f2821461080857806371ec4ebf1461082857806377ede8a61461084857806378065f271461085d5780637a3a0e84146108825780637d6694b51461089857600080fd5b80632a120b331461069957806336150d38146106bb5780633aecd0e3146106dd5780633f40f636146106fd57806355f1c18a1461071d57806356406fa51461073d57806359ba83441461076a5780635cc04838146107a057600080fd5b8063160a30a311610321578063160a30a31461055f578063184f1f381461058c5780631bc5fc96146105ac5780631d143848146105cc578063200d2ed21461060457806322fa365e1461061a578063235b2b941461062f57806323bd4d7a1461066f57806326c20e5f1461068457600080fd5b8063040e05fe146104215780630961413d146104545780630dd818871461046a5780630f3b6d4d1461048c578063150909f7146104ae578063150b7a02146104ce5780631595eea41461051257806315add63b1461053f57600080fd5b3661041c5760405162461bcd60e51b815260206004820152605d60248201527f43616e6e6f742073656e64204574686572206469726563746c7920746f20626f60448201527f75746e7920636f6e74726163742e20506c65617365207573652074686520426f60648201527f756e747956312e7265636569766546756e64732829206d6574686f642e000000608482015260a4015b60405180910390fd5b600080fd5b34801561042d57600080fd5b5061044161043c3660046131fc565b610d3a565b6040519081526020015b60405180910390f35b34801561046057600080fd5b5061044160a15481565b34801561047657600080fd5b5061047f610e89565b60405161044b9190613278565b34801561049857600080fd5b506104ac6104a736600461334e565b610f17565b005b3480156104ba57600080fd5b506104ac6104c93660046133a0565b610f79565b3480156104da57600080fd5b506104f96104e93660046133bd565b630a85bd0160e11b949350505050565b6040516001600160e01b0319909116815260200161044b565b34801561051e57600080fd5b5061044161052d366004613428565b60a46020526000908152604090205481565b34801561054b57600080fd5b506104ac61055a3660046133a0565b610fc6565b34801561056b57600080fd5b5061044161057a366004613428565b60b86020526000908152604090205481565b34801561059857600080fd5b506104ac6105a7366004613441565b61100c565b3480156105b857600080fd5b506104416105c7366004613428565b6113b5565b3480156105d857600080fd5b50609d546105ec906001600160a01b031681565b6040516001600160a01b03909116815260200161044b565b34801561061057600080fd5b5061044160a05481565b34801561062657600080fd5b506104ac6113d6565b34801561063b57600080fd5b5061065f61064a366004613428565b60aa6020526000908152604090205460ff1681565b604051901515815260200161044b565b34801561067b57600080fd5b5061047f61145c565b34801561069057600080fd5b50610441600181565b3480156106a557600080fd5b506106ae611469565b60405161044b91906134c6565b3480156106c757600080fd5b506106d06114c1565b60405161044b919061350a565b3480156106e957600080fd5b506104416106f836600461356c565b61159a565b34801561070957600080fd5b506104ac61071836600461360b565b6115c5565b34801561072957600080fd5b506104ac610738366004613726565b61199b565b34801561074957600080fd5b50610441610758366004613428565b60a96020526000908152604090205481565b34801561077657600080fd5b506105ec610785366004613428565b60a2602052600090815260409020546001600160a01b031681565b3480156107ac57600080fd5b5060bc546105ec906001600160a01b031681565b3480156107cc57600080fd5b506106ae611a24565b3480156107e157600080fd5b506099546001600160a01b03166105ec565b3480156107ff57600080fd5b5061047f611a7a565b34801561081457600080fd5b50609f546105ec906001600160a01b031681565b34801561083457600080fd5b506104ac6108433660046131fc565b611aa2565b34801561085457600080fd5b506106ae611b2b565b34801561086957600080fd5b5060b1546105ec9061010090046001600160a01b031681565b34801561088e57600080fd5b5061044160b25481565b3480156108a457600080fd5b5060b35461065f9060ff1681565b3480156108be57600080fd5b506097546001600160a01b03166105ec565b3480156108dc57600080fd5b506104416108eb366004613428565b60a56020526000908152604090205481565b34801561090957600080fd5b506105ec610918366004613428565b60a3602052600090815260409020546001600160a01b031681565b34801561093f57600080fd5b50610441609b5481565b34801561095557600080fd5b50610441610964366004613767565b611b81565b34801561097557600080fd5b5061065f610984366004613428565b60b76020526000908152604090205460ff1681565b3480156109a557600080fd5b506104416109b436600461356c565b611d9f565b3480156109c557600080fd5b506098546001600160a01b03166105ec565b3480156109e357600080fd5b506104416109f2366004613428565b611f26565b348015610a0357600080fd5b5061044160b05481565b348015610a1957600080fd5b50610441610a2836600461356c565b611f36565b348015610a3957600080fd5b5060b35461065f90610100900460ff1681565b348015610a5857600080fd5b506105ec610a67366004613428565b60a7602052600090815260409020546001600160a01b031681565b348015610a8e57600080fd5b5061065f610a9d366004613428565b611faa565b348015610aae57600080fd5b5061065f610abd366004613428565b611fde565b348015610ace57600080fd5b5061047f611fee565b348015610ae357600080fd5b50610441611ffb565b348015610af857600080fd5b50610441609c5481565b348015610b0e57600080fd5b5060b35461065f9062010000900460ff1681565b348015610b2e57600080fd5b5061047f610b3d366004613428565b61200d565b348015610b4e57600080fd5b506104ac610b5d3660046131fc565b612038565b610b75610b703660046137e2565b6120af565b6040805192835260208301919091520161044b565b348015610b9657600080fd5b5061047f6122e0565b348015610bab57600080fd5b50610441610bba366004613428565b6122f4565b348015610bcb57600080fd5b50610441610bda36600461356c565b60b66020526000908152604090205481565b348015610bf857600080fd5b50610441610c07366004613828565b612304565b348015610c1857600080fd5b506104ac610c27366004613856565b612517565b348015610c3857600080fd5b506104ac610c47366004613726565b61278e565b348015610c5857600080fd5b5060b15461065f9060ff1681565b348015610c7257600080fd5b50610c7b6127e8565b60405161044b919061388e565b348015610c9457600080fd5b5061065f610ca3366004613428565b60a66020526000908152604090205460ff1681565b348015610cc457600080fd5b50610441610cd3366004613428565b60a86020526000908152604090205481565b348015610cf157600080fd5b5061047f6127f9565b348015610d0657600080fd5b506104ac610d153660046133a0565b612806565b348015610d2657600080fd5b506104ac610d35366004613428565b612855565b6098546000906001600160a01b03163314610d675760405162461bcd60e51b8152600401610413906138cf565b600260015403610d895760405162461bcd60e51b815260040161041390613937565b600260015560b0546040805180820190915260198152784e4f545f415f5449455245445f46495845445f424f554e545960381b602082015290600314610de25760405162461bcd60e51b81526004016104139190613278565b50600082815260b7602090815260409182902054825180840190935260148352731512515497d053149150511657d0d3105253515160621b9183019190915260ff1615610e425760405162461bcd60e51b81526004016104139190613278565b50600060b58381548110610e5857610e5861396e565b60009182526020909120015460bc54909150610e7e906001600160a01b0316828661289a565b600180559392505050565b60af8054610e9690613984565b80601f0160208091040260200160405190810160405280929190818152602001828054610ec290613984565b8015610f0f5780601f10610ee457610100808354040283529160200191610f0f565b820191906000526020600020905b815481529060010190602001808311610ef257829003601f168201915b505050505081565b6097546001600160a01b0316336001600160a01b031614610f4a5760405162461bcd60e51b8152600401610413906139be565b8160bb8281548110610f5e57610f5e61396e565b906000526020600020019081610f749190613a41565b505050565b6097546001600160a01b0316336001600160a01b031614610fac5760405162461bcd60e51b8152600401610413906139be565b60b380549115156101000261ff0019909216919091179055565b6097546001600160a01b0316336001600160a01b031614610ff95760405162461bcd60e51b8152600401610413906139be565b60b3805460ff1916911515919091179055565b6097546001600160a01b0316336001600160a01b03161461103f5760405162461bcd60e51b8152600401610413906139be565b60b0546040805180820190915260198152784e4f545f415f46495845445f5449455245445f424f554e545960381b6020820152906003146110935760405162461bcd60e51b81526004016104139190613278565b506110a060b58484612ff5565b5060bc80546001600160a01b0319166001600160a01b03831617905560b5546000906001600160401b038111156110d9576110d961328b565b60405190808252806020026020018201604052801561110c57816020015b60608152602001906001900390816110f75790505b5060b5549091506000906001600160401b0381111561112d5761112d61328b565b604051908082528060200260200182016040528015611156578160200160208202803683370190505b5060b5549091506000906001600160401b038111156111775761117761328b565b6040519080825280602002602001820160405280156111a0578160200160208202803683370190505b50905060005b60bb548110156112865760bb81815481106111c3576111c361396e565b9060005260206000200180546111d890613984565b80601f016020809104026020016040519081016040528092919081815260200182805461120490613984565b80156112515780601f1061122657610100808354040283529160200191611251565b820191906000526020600020905b81548152906001019060200180831161123457829003601f168201915b50505050508482815181106112685761126861396e565b6020026020010181905250808061127e90613b16565b9150506111a6565b50825161129a9060bb906020860190613040565b5060005b60b95481101561130f5760b981815481106112bb576112bb61396e565b90600052602060002090602091828204019190069054906101000a900460ff168382815181106112ed576112ed61396e565b911515602092830291909101909101528061130781613b16565b91505061129e565b5081516113239060b9906020850190613092565b5060005b60ba548110156113985760ba81815481106113445761134461396e565b90600052602060002090602091828204019190069054906101000a900460ff168282815181106113765761137661396e565b911515602092830291909101909101528061139081613b16565b915050611327565b5080516113ac9060ba906020840190613092565b50505050505050565b60ac81815481106113c557600080fd5b600091825260209091200154905081565b6098546001600160a01b031633146114005760405162461bcd60e51b8152600401610413906138cf565b60a05460408051808201909152601781527610d3d395149050d517d053149150511657d0d313d4d151604a1b602082015290156114505760405162461bcd60e51b81526004016104139190613278565b50600160a05542609c55565b609e8054610e9690613984565b606060b58054806020026020016040519081016040528092919081815260200182805480156114b757602002820191906000526020600020905b8154815260200190600101908083116114a3575b5050505050905090565b606060bb805480602002602001604051908101604052809291908181526020016000905b8282101561159157838290600052602060002001805461150490613984565b80601f016020809104026020016040519081016040528092919081815260200182805461153090613984565b801561157d5780601f106115525761010080835404028352916020019161157d565b820191906000526020600020905b81548152906001019060200180831161156057829003601f168201915b5050505050815260200190600101906114e5565b50505050905090565b60006001600160a01b0382166115b1575047919050565b6115ba82611f36565b92915050565b919050565b600054610100900460ff16158080156115e55750600054600160ff909116105b806115ff5750303b1580156115ff575060005460ff166001145b6116625760405162461bcd60e51b815260206004820152602e60248201527f496e697469616c697a61626c653a20636f6e747261637420697320616c72656160448201526d191e481a5b9a5d1a585b1a5e995960921b6064820152608401610413565b6000805460ff191660011790558015611685576000805461ff0019166101001790555b87516040805180820190915260128152711393d7d15354151657d093d553951657d25160721b6020820152906116ce5760405162461bcd60e51b81526004016104139190613278565b5085516040805180820190915260158152742727afa2a6a82a2cafa7a923a0a724ad20aa24a7a760591b60208201529061171b5760405162461bcd60e51b81526004016104139190613278565b506117246128bd565b609780546001600160a01b0319166001600160a01b038716179055611748846128ee565b61175183612937565b609a61175d8982613a41565b50609d80546001600160a01b0319166001600160a01b038916179055609e6117858782613a41565b5042609b81905550600560a18190555060008060008060008087602001518060200190518101906117b69190613c13565b5050600360b0558551959b509399509197509550935091506117df9060b5906020890190613132565b5060bc80546001600160a01b0319166001600160a01b03871617905560b3805461ffff191685151561ff00191617610100851515021762ff00001916620100008415150217905560b46118328282613a41565b5085516001600160401b0381111561184c5761184c61328b565b60405190808252806020026020018201604052801561187f57816020015b606081526020019060019003908161186a5790505b5080516118949160bb91602090910190613040565b5085516001600160401b038111156118ae576118ae61328b565b6040519080825280602002602001820160405280156118d7578160200160208202803683370190505b5080516118ec9160b991602090910190613092565b5085516001600160401b038111156119065761190661328b565b60405190808252806020026020018201604052801561192f578160200160208202803683370190505b5080516119449160ba91602090910190613092565b505050505050508015611991576000805461ff0019169055604051600181527f7f26b83ff96e1f2b6a682f133852f6798a09c465da95921460cefb38474024989060200160405180910390a15b5050505050505050565b6097546001600160a01b0316336001600160a01b0316146119ce5760405162461bcd60e51b8152600401610413906139be565b6000806119dd83850185613d02565b915091508060b983815481106119f5576119f561396e565b90600052602060002090602091828204019190066101000a81548160ff02191690831515021790555050505050565b606060ab8054806020026020016040519081016040528092919081815260200182805480156114b757602002820191906000526020600020908154815260200190600101908083116114a3575050505050905090565b606060ba604051602001611a8e9190613d32565b604051602081830303815290604052905090565b6098546001600160a01b03163314611acc5760405162461bcd60e51b8152600401610413906138cf565b600260015403611aee5760405162461bcd60e51b815260040161041390613937565b6002600155600081815260a3602090815260408083205460a890925290912054611b23916001600160a01b0316908490612980565b505060018055565b606060ac8054806020026020016040519081016040528092919081815260200182805480156114b757602002820191906000526020600020908154815260200190600101908083116114a3575050505050905090565b6099546000906001600160a01b03163314611bae5760405162461bcd60e51b8152600401610413906143dd565b600260015403611bd05760405162461bcd60e51b815260040161041390613937565b600260015560a15460ac5460408051808201909152601981527813919517d1115413d4d25517d31253525517d4915050d21151603a1b60208201529111611c2a5760405162461bcd60e51b81526004016104139190613278565b50600084116040518060400160405280602081526020017f45585049524154494f4e5f4e4f545f475245415445525f5448414e5f5a45524f81525090611c835760405162461bcd60e51b81526004016104139190613278565b50611c8f8688876129e0565b6000611c99612a12565b600081815260a26020908152604080832080546001600160a01b03808f166001600160a01b03199283161790925560a384528285208054928e169290911691909117905560a5825280832042905560a882528083208a905560a9825280832089905560aa9091528120805460ff19166001179055909150611d1c84860186613428565b600083815260b8602052604081209190915560ab805460018082019092557ffc377260a69a39dd786235c89f4bcd5d9639157731cac38071a0508750eb115a0184905560ac8054808301825592527f0a0a1bcadd9f6a5539376fa82276e043ae3cb4499daaaf8136572ecb1f9f0d60909101839055805550979650505050505050565b6000806000306001600160a01b0316636b149d876040518163ffffffff1660e01b8152600401600060405180830381865afa158015611de2573d6000803e3d6000fd5b505050506040513d6000823e601f3d908101601f19168201604052611e0a9190810190614449565b905060005b8151811015611f1d5760a96000838381518110611e2e57611e2e61396e565b602002602001015181526020019081526020016000205460a56000848481518110611e5b57611e5b61396e565b6020026020010151815260200190815260200160002054611e7c91906144ce565b42108015611ecb5750846001600160a01b031660a36000848481518110611ea557611ea561396e565b6020908102919091018101518252810191909152604001600020546001600160a01b0316145b15611f0b5760a46000838381518110611ee657611ee661396e565b602002602001015181526020019081526020016000205483611f0891906144ce565b92505b80611f1581613b16565b915050611e0f565b50909392505050565b60ab81815481106113c557600080fd5b6040516370a0823160e01b815230600482015260009082906001600160a01b038216906370a0823190602401602060405180830381865afa158015611f7f573d6000803e3d6000fd5b505050506040513d601f19601f82011682018060405250810190611fa391906144e1565b9392505050565b60ba8181548110611fba57600080fd5b9060005260206000209060209182820401919006915054906101000a900460ff1681565b60b98181548110611fba57600080fd5b609a8054610e9690613984565b600061200760ad612a46565b51905090565b60bb818154811061201d57600080fd5b906000526020600020016000915090508054610e9690613984565b6097546001600160a01b0316336001600160a01b03161461206b5760405162461bcd60e51b8152600401610413906139be565b60b25560b1805460016001600160a81b03199091166101006001600160a01b039490941693840260ff19161717905560bc80546001600160a01b0319169091179055565b60995460009081906001600160a01b031633146120de5760405162461bcd60e51b8152600401610413906143dd565b6002600154036121005760405162461bcd60e51b815260040161041390613937565b600260015560408051808201909152601081526f16915493d7d593d315535157d4d1539560821b60208201528461214a5760405162461bcd60e51b81526004016104139190613278565b50600083116040518060400160405280602081526020017f45585049524154494f4e5f4e4f545f475245415445525f5448414e5f5a45524f815250906121a35760405162461bcd60e51b81526004016104139190613278565b5060a05460408051808201909152601281527110d3d395149050d517d254d7d0d313d4d15160721b602082015290156121ef5760405162461bcd60e51b81526004016104139190613278565b5060006121fa612a12565b905060006001600160a01b038716612213575034612221565b61221e878988612a53565b90505b600082815260a26020908152604080832080546001600160a01b03808e166001600160a01b03199283161790925560a384528285208054928d169290911691909117905560a4825280832084905560a5825280832042905560a9825280832088905560aa9091528120805460ff1916905560ab805460018101825591527ffc377260a69a39dd786235c89f4bcd5d9639157731cac38071a0508750eb115a018290556122ce60ad88612af2565b50600180559097909650945050505050565b606060b9604051602001611a8e9190613d32565b60b581815481106113c557600080fd5b6099546000906001600160a01b031633146123315760405162461bcd60e51b8152600401610413906143dd565b6002600154036123535760405162461bcd60e51b815260040161041390613937565b600260015560a05460408051808201909152601281527110d3d395149050d517d254d7d0d313d4d15160721b602082015290156123a35760405162461bcd60e51b81526004016104139190613278565b50600084815260a66020908152604091829020548251808401909352601883527711115413d4d25517d053149150511657d49151955391115160421b9183019190915260ff16156124075760405162461bcd60e51b81526004016104139190613278565b50600084815260a26020908152604091829020548251808401909352601183527021a0a62622a92fa727aa2fa32aa72222a960791b918301919091526001600160a01b0384811691161461246e5760405162461bcd60e51b81526004016104139190613278565b50600084815260a9602090815260408083205460a59092529091205461249491906144ce565b4211156124d457600084815260a5602052604090205483906124b690426144fa565b6124c091906144ce565b600085815260a960205260409020556124fe565b600084815260a960205260409020546124ee9084906144ce565b600085815260a960205260409020555b505050600090815260a960205260409020546001805590565b6099546001600160a01b031633146125415760405162461bcd60e51b8152600401610413906143dd565b6002600154036125635760405162461bcd60e51b815260040161041390613937565b6002600155600083815260a66020908152604091829020548251808401909352601883527711115413d4d25517d053149150511657d49151955391115160421b9183019190915260ff16156125cb5760405162461bcd60e51b81526004016104139190613278565b50600083815260a26020908152604091829020548251808401909352601183527021a0a62622a92fa727aa2fa32aa72222a960791b918301919091526001600160a01b038481169116146126325760405162461bcd60e51b81526004016104139190613278565b50600083815260a9602090815260408083205460a59092529091205461265891906144ce565b4210156040518060400160405280601881526020017714149153505515549157d4915195539117d49154555154d560421b815250906126aa5760405162461bcd60e51b81526004016104139190613278565b50600083815260a660209081526040808320805460ff1916600117905560a39091529020546001600160a01b031661270357600083815260a260205260409020546126fe906001600160a01b031682612b07565b612785565b600083815260aa602052604090205460ff161561275357600083815260a3602090815260408083205460a283528184205460a89093529220546126fe926001600160a01b03908116921690612980565b600083815260a3602090815260408083205460a290925290912054612785916001600160a01b03908116911683612b1e565b50506001805550565b6097546001600160a01b0316336001600160a01b0316146127c15760405162461bcd60e51b8152600401610413906139be565b6000806127d083850185613d02565b915091508060ba83815481106119f5576119f561396e565b60606127f460ad612a46565b905090565b60b48054610e9690613984565b6097546001600160a01b0316336001600160a01b0316146128395760405162461bcd60e51b8152600401610413906139be565b60b38054911515620100000262ff000019909216919091179055565b6098546001600160a01b0316331461287f5760405162461bcd60e51b8152600401610413906138cf565b600090815260b760205260409020805460ff19166001179055565b6001600160a01b0383166128b257610f748183612b07565b610f74838284612b1e565b600054610100900460ff166128e45760405162461bcd60e51b81526004016104139061450d565b6128ec612b39565b565b600054610100900460ff166129155760405162461bcd60e51b81526004016104139061450d565b609880546001600160a01b0319166001600160a01b0392909216919091179055565b600054610100900460ff1661295e5760405162461bcd60e51b81526004016104139061450d565b609980546001600160a01b0319166001600160a01b0392909216919091179055565b604051632142170760e11b815283906001600160a01b038216906342842e0e906129b290309087908790600401614558565b600060405180830381600087803b1580156129cc57600080fd5b505af1158015611991573d6000803e3d6000fd5b604051632142170760e11b815283906001600160a01b038216906342842e0e906129b290869030908790600401614558565b60ab54604051600091612a2b91609a919060200161457c565b60405160208183030381529060405280519060200120905090565b60606000611fa383612b66565b600080612a5f85611f36565b905084612a776001600160a01b038216863087612bc2565b6000612a8287611f36565b9050828110156040518060400160405280601a81526020017f544f4b454e5f5452414e534645525f494e5f4f564552464c4f5700000000000081525090612adc5760405162461bcd60e51b81526004016104139190613278565b50612ae783826144fa565b979650505050505050565b6000611fa3836001600160a01b038416612c1a565b612b1a6001600160a01b03831682612c69565b5050565b82612b336001600160a01b0382168484612d82565b50505050565b600054610100900460ff16612b605760405162461bcd60e51b81526004016104139061450d565b60018055565b606081600001805480602002602001604051908101604052809291908181526020018280548015612bb657602002820191906000526020600020905b815481526020019060010190808311612ba2575b50505050509050919050565b612b33846323b872dd60e01b858585604051602401612be393929190614558565b60408051601f198184030181529190526020810180516001600160e01b03166001600160e01b031990931692909217909152612db2565b6000818152600183016020526040812054612c61575081546001818101845560008481526020808220909301849055845484825282860190935260409020919091556115ba565b5060006115ba565b80471015612cb95760405162461bcd60e51b815260206004820152601d60248201527f416464726573733a20696e73756666696369656e742062616c616e63650000006044820152606401610413565b6000826001600160a01b03168260405160006040518083038185875af1925050503d8060008114612d06576040519150601f19603f3d011682016040523d82523d6000602084013e612d0b565b606091505b5050905080610f745760405162461bcd60e51b815260206004820152603a60248201527f416464726573733a20756e61626c6520746f2073656e642076616c75652c207260448201527f6563697069656e74206d617920686176652072657665727465640000000000006064820152608401610413565b6040516001600160a01b038316602482015260448101829052610f7490849063a9059cbb60e01b90606401612be3565b6000612e07826040518060400160405280602081526020017f5361666545524332303a206c6f772d6c6576656c2063616c6c206661696c6564815250856001600160a01b0316612e849092919063ffffffff16565b805190915015610f745780806020019051810190612e259190614610565b610f745760405162461bcd60e51b815260206004820152602a60248201527f5361666545524332303a204552433230206f7065726174696f6e20646964206e6044820152691bdd081cdd58d8d9595960b21b6064820152608401610413565b6060612e938484600085612e9b565b949350505050565b606082471015612efc5760405162461bcd60e51b815260206004820152602660248201527f416464726573733a20696e73756666696369656e742062616c616e636520666f6044820152651c8818d85b1b60d21b6064820152608401610413565b6001600160a01b0385163b612f535760405162461bcd60e51b815260206004820152601d60248201527f416464726573733a2063616c6c20746f206e6f6e2d636f6e74726163740000006044820152606401610413565b600080866001600160a01b03168587604051612f6f919061462d565b60006040518083038185875af1925050503d8060008114612fac576040519150601f19603f3d011682016040523d82523d6000602084013e612fb1565b606091505b5091509150612ae782828660608315612fcb575081611fa3565b825115612fdb5782518084602001fd5b8160405162461bcd60e51b81526004016104139190613278565b828054828255906000526020600020908101928215613030579160200282015b82811115613030578235825591602001919060010190613015565b5061303c92915061316d565b5090565b828054828255906000526020600020908101928215613086579160200282015b8281111561308657825182906130769082613a41565b5091602001919060010190613060565b5061303c929150613182565b82805482825590600052602060002090601f016020900481019282156130305791602002820160005b838211156130f857835183826101000a81548160ff02191690831515021790555092602001926001016020816000010492830192600103026130bb565b80156131255782816101000a81549060ff02191690556001016020816000010492830192600103026130f8565b505061303c92915061316d565b828054828255906000526020600020908101928215613030579160200282015b82811115613030578251825591602001919060010190613152565b5b8082111561303c576000815560010161316e565b8082111561303c576000613196828261319f565b50600101613182565b5080546131ab90613984565b6000825580601f106131bb575050565b601f0160209004906000526020600020908101906131d9919061316d565b50565b6001600160a01b03811681146131d957600080fd5b80356115c0816131dc565b6000806040838503121561320f57600080fd5b823561321a816131dc565b946020939093013593505050565b60005b8381101561324357818101518382015260200161322b565b50506000910152565b60008151808452613264816020860160208601613228565b601f01601f19169290920160200192915050565b602081526000611fa3602083018461324c565b634e487b7160e01b600052604160045260246000fd5b604051601f8201601f191681016001600160401b03811182821017156132c9576132c961328b565b604052919050565b60006001600160401b038211156132ea576132ea61328b565b50601f01601f191660200190565b600082601f83011261330957600080fd5b813561331c613317826132d1565b6132a1565b81815284602083860101111561333157600080fd5b816020850160208301376000918101602001919091529392505050565b6000806040838503121561336157600080fd5b82356001600160401b0381111561337757600080fd5b613383858286016132f8565b95602094909401359450505050565b80151581146131d957600080fd5b6000602082840312156133b257600080fd5b8135611fa381613392565b600080600080608085870312156133d357600080fd5b84356133de816131dc565b935060208501356133ee816131dc565b92506040850135915060608501356001600160401b0381111561341057600080fd5b61341c878288016132f8565b91505092959194509250565b60006020828403121561343a57600080fd5b5035919050565b60008060006040848603121561345657600080fd5b83356001600160401b038082111561346d57600080fd5b818601915086601f83011261348157600080fd5b81358181111561349057600080fd5b8760208260051b85010111156134a557600080fd5b602092830195509350508401356134bb816131dc565b809150509250925092565b6020808252825182820181905260009190848201906040850190845b818110156134fe578351835292840192918401916001016134e2565b50909695505050505050565b6000602080830181845280855180835260408601915060408160051b870101925083870160005b8281101561355f57603f1988860301845261354d85835161324c565b94509285019290850190600101613531565b5092979650505050505050565b60006020828403121561357e57600080fd5b8135611fa3816131dc565b60006040828403121561359b57600080fd5b604051604081016001600160401b0382821081831117156135be576135be61328b565b816040528293508435915063ffffffff821682146135db57600080fd5b908252602084013590808211156135f157600080fd5b506135fe858286016132f8565b6020830152505092915050565b600080600080600080600060e0888a03121561362657600080fd5b87356001600160401b038082111561363d57600080fd5b6136498b838c016132f8565b985060208a0135915061365b826131dc565b9096506040890135908082111561367157600080fd5b61367d8b838c016132f8565b965060608a0135915061368f826131dc565b81955061369e60808b016131f1565b94506136ac60a08b016131f1565b935060c08a01359150808211156136c257600080fd5b506136cf8a828b01613589565b91505092959891949750929550565b60008083601f8401126136f057600080fd5b5081356001600160401b0381111561370757600080fd5b60208301915083602082850101111561371f57600080fd5b9250929050565b6000806020838503121561373957600080fd5b82356001600160401b0381111561374f57600080fd5b61375b858286016136de565b90969095509350505050565b60008060008060008060a0878903121561378057600080fd5b863561378b816131dc565b9550602087013561379b816131dc565b9450604087013593506060870135925060808701356001600160401b038111156137c457600080fd5b6137d089828a016136de565b979a9699509497509295939492505050565b600080600080608085870312156137f857600080fd5b8435613803816131dc565b93506020850135613813816131dc565b93969395505050506040820135916060013590565b60008060006060848603121561383d57600080fd5b833592506020840135915060408401356134bb816131dc565b60008060006060848603121561386b57600080fd5b83359250602084013561387d816131dc565b929592945050506040919091013590565b6020808252825182820181905260009190848201906040850190845b818110156134fe5783516001600160a01b0316835292840192918401916001016138aa565b60208082526042908201527f436c61696d4d616e616765724f776e61626c653a2063616c6c6572206973206e60408201527f6f74207468652063757272656e74204f70656e5120436c61696d204d616e616760608201526132b960f11b608082015260a00190565b6020808252601f908201527f5265656e7472616e637947756172643a207265656e7472616e742063616c6c00604082015260600190565b634e487b7160e01b600052603260045260246000fd5b600181811c9082168061399857607f821691505b6020821081036139b857634e487b7160e01b600052602260045260246000fd5b50919050565b6020808252818101527f4d6574686f64206973206f6e6c792063616c6c61626c65206279204f70656e51604082015260600190565b601f821115610f7457600081815260208120601f850160051c81016020861015613a1a5750805b601f850160051c820191505b81811015613a3957828155600101613a26565b505050505050565b81516001600160401b03811115613a5a57613a5a61328b565b613a6e81613a688454613984565b846139f3565b602080601f831160018114613aa35760008415613a8b5750858301515b600019600386901b1c1916600185901b178555613a39565b600085815260208120601f198616915b82811015613ad257888601518255948401946001909101908401613ab3565b5085821015613af05787850151600019600388901b60f8161c191681555b5050505050600190811b01905550565b634e487b7160e01b600052601160045260246000fd5b600060018201613b2857613b28613b00565b5060010190565b60006001600160401b03821115613b4857613b4861328b565b5060051b60200190565b600082601f830112613b6357600080fd5b81516020613b7361331783613b2f565b82815260059290921b84018101918181019086841115613b9257600080fd5b8286015b84811015613bad5780518352918301918301613b96565b509695505050505050565b80516115c0816131dc565b80516115c081613392565b600082601f830112613bdf57600080fd5b8151613bed613317826132d1565b818152846020838601011115613c0257600080fd5b612e93826020830160208701613228565b600080600080600080600080610100898b031215613c3057600080fd5b88516001600160401b0380821115613c4757600080fd5b613c538c838d01613b52565b9950613c6160208c01613bb8565b9850613c6f60408c01613bc3565b9750613c7d60608c01613bc3565b9650613c8b60808c01613bc3565b955060a08b0151915080821115613ca157600080fd5b613cad8c838d01613bce565b945060c08b0151915080821115613cc357600080fd5b613ccf8c838d01613bce565b935060e08b0151915080821115613ce557600080fd5b50613cf28b828c01613bce565b9150509295985092959890939650565b60008060408385031215613d1557600080fd5b823591506020830135613d2781613392565b809150509250929050565b60006020808301818452808554613d4d818490815260200190565b60008881526020812094509092505b81601f82011015613fc757835460ff80821615158552613d84878601828460081c1615159052565b6040613d98818701838560101c1615159052565b6060613dac818801848660181c1615159052565b6080613dbf81890185878d1c1615159052565b60a0613dd3818a01868860281c1615159052565b60c0613de7818b01878960301c1615159052565b60e0613dfb818c01888a60381c1615159052565b87861c871615156101008c0152613e1c6101208c01888a60481c1615159052565b613e306101408c01888a60501c1615159052565b613e446101608c01888a60581c1615159052565b87851c871615156101808c0152613e656101a08c01888a60681c1615159052565b613e796101c08c01888a60701c1615159052565b613e8d6101e08c01888a60781c1615159052565b87841c871615156102008c0152613eae6102208c01888a60881c1615159052565b613ec26102408c01888a60901c1615159052565b613ed66102608c01888a60981c1615159052565b87831c871615156102808c0152613ef76102a08c01888a60a81c1615159052565b613f0b6102c08c01888a60b01c1615159052565b613f1f6102e08c01888a60b81c1615159052565b87821c871615156103008c0152613f406103208c01888a60c81c1615159052565b613f546103408c01888a60d01c1615159052565b613f686103608c01888a60d81c1615159052565b87901c861615156103808b0152505050505060e882901c811615156103a0860152613f9d6103c08601828460f01c1615159052565b50613fb06103e085018260f81c15159052565b506001939093019261040092909201918401613d5c565b92549281811015613fe25760ff841615158352918401916001015b8181101561400357613ffb8360ff8660081c1615159052565b918401916001015b818110156140245761401c8360ff8660101c1615159052565b918401916001015b818110156140455761403d8360ff8660181c1615159052565b918401916001015b8181101561405f5783851c60ff1615158352918401916001015b81811015614080576140788360ff8660281c1615159052565b918401916001015b818110156140a1576140998360ff8660301c1615159052565b918401916001015b818110156140c2576140ba8360ff8660381c1615159052565b918401916001015b818110156140e3576140db8360ff8660401c1615159052565b918401916001015b81811015614104576140fc8360ff8660481c1615159052565b918401916001015b818110156141255761411d8360ff8660501c1615159052565b918401916001015b818110156141465761413e8360ff8660581c1615159052565b918401916001015b818110156141675761415f8360ff8660601c1615159052565b918401916001015b81811015614188576141808360ff8660681c1615159052565b918401916001015b818110156141a9576141a18360ff8660701c1615159052565b918401916001015b818110156141ca576141c28360ff8660781c1615159052565b918401916001015b818110156141eb576141e38360ff8660801c1615159052565b918401916001015b8181101561420c576142048360ff8660881c1615159052565b918401916001015b8181101561422d576142258360ff8660901c1615159052565b918401916001015b8181101561424e576142468360ff8660981c1615159052565b918401916001015b8181101561426f576142678360ff8660a01c1615159052565b918401916001015b81811015614290576142888360ff8660a81c1615159052565b918401916001015b818110156142b1576142a98360ff8660b01c1615159052565b918401916001015b818110156142d2576142ca8360ff8660b81c1615159052565b918401916001015b818110156142f3576142eb8360ff8660c01c1615159052565b918401916001015b818110156143145761430c8360ff8660c81c1615159052565b918401916001015b818110156143355761432d8360ff8660d01c1615159052565b918401916001015b818110156143565761434e8360ff8660d81c1615159052565b918401916001015b818110156143775761436f8360ff8660e01c1615159052565b918401916001015b81811015614398576143908360ff8660e81c1615159052565b918401916001015b818110156143b9576143b18360ff8660f01c1615159052565b918401916001015b818110156134fe576143cf838560f81c15159052565b505091909101949350505050565b60208082526046908201527f4465706f7369744d616e616765724f776e61626c653a2063616c6c657220697360408201527f206e6f74207468652063757272656e74204f70656e51204465706f736974204d60608201526530b730b3b2b960d11b608082015260a00190565b6000602080838503121561445c57600080fd5b82516001600160401b0381111561447257600080fd5b8301601f8101851361448357600080fd5b805161449161331782613b2f565b81815260059190911b820183019083810190878311156144b057600080fd5b928401925b82841015612ae7578351825292840192908401906144b5565b808201808211156115ba576115ba613b00565b6000602082840312156144f357600080fd5b5051919050565b818103818111156115ba576115ba613b00565b6020808252602b908201527f496e697469616c697a61626c653a20636f6e7472616374206973206e6f74206960408201526a6e697469616c697a696e6760a81b606082015260800190565b6001600160a01b039384168152919092166020820152604081019190915260600190565b60408152600080845461458e81613984565b80604086015260606001808416600081146145b057600181146145ca576145fb565b60ff1985168884015283151560051b8801830195506145fb565b8960005260208060002060005b868110156145f25781548b82018701529084019082016145d7565b8a018501975050505b50505050506020929092019290925292915050565b60006020828403121561462257600080fd5b8151611fa381613392565b6000825161463f818460208701613228565b919091019291505056fea26469706673582212209c5502929ce92169ed95e6cc8f37540b2ebf3cd44542c81cd4663a4cd3f8cb8764736f6c63430008110033",
  "linkReferences": {},
  "deployedLinkReferences": {}
}