{
  "contracts/OpenQ.sol": {
    "OpenQ": {
      "abi": [
        {
          "inputs": [],
          "stateMutability": "nonpayable",
          "type": "constructor"
        },
        {
          "anonymous": false,
          "inputs": [
            {
              "indexed": true,
              "internalType": "address",
              "name": "from",
              "type": "address"
            },
            {
              "indexed": false,
              "internalType": "string",
              "name": "id",
              "type": "string"
            },
            {
              "indexed": true,
              "internalType": "address",
              "name": "issueAddress",
              "type": "address"
            }
          ],
          "name": "IssueCreated",
          "type": "event"
        },
        {
          "inputs": [
            {
              "internalType": "address",
              "name": "tokenAddress",
              "type": "address"
            }
          ],
          "name": "addTokenAddress",
          "outputs": [],
          "stateMutability": "nonpayable",
          "type": "function"
        },
        {
          "inputs": [
            {
              "internalType": "string",
              "name": "_id",
              "type": "string"
            },
            {
              "internalType": "address",
              "name": "_payoutAddress",
              "type": "address"
            }
          ],
          "name": "claimBounty",
          "outputs": [],
          "stateMutability": "nonpayable",
          "type": "function"
        },
        {
          "inputs": [
            {
              "internalType": "string",
              "name": "_id",
              "type": "string"
            }
          ],
          "name": "getBountyAddress",
          "outputs": [
            {
              "internalType": "address",
              "name": "",
              "type": "address"
            }
          ],
          "stateMutability": "view",
          "type": "function"
        },
        {
          "inputs": [],
          "name": "getIssueIds",
          "outputs": [
            {
              "internalType": "string[]",
              "name": "",
              "type": "string[]"
            }
          ],
          "stateMutability": "view",
          "type": "function"
        },
        {
          "inputs": [
            {
              "internalType": "uint256",
              "name": "",
              "type": "uint256"
            }
          ],
          "name": "issueIds",
          "outputs": [
            {
              "internalType": "string",
              "name": "",
              "type": "string"
            }
          ],
          "stateMutability": "view",
          "type": "function"
        },
        {
          "inputs": [
            {
              "internalType": "string",
              "name": "",
              "type": "string"
            }
          ],
          "name": "issueToAddress",
          "outputs": [
            {
              "internalType": "address",
              "name": "",
              "type": "address"
            }
          ],
          "stateMutability": "view",
          "type": "function"
        },
        {
          "inputs": [
            {
              "internalType": "string",
              "name": "_id",
              "type": "string"
            }
          ],
          "name": "mintBounty",
          "outputs": [
            {
              "internalType": "address",
              "name": "issueAddress",
              "type": "address"
            }
          ],
          "stateMutability": "nonpayable",
          "type": "function"
        },
        {
          "inputs": [
            {
              "internalType": "uint256",
              "name": "",
              "type": "uint256"
            }
          ],
          "name": "tokenAddresses",
          "outputs": [
            {
              "internalType": "address",
              "name": "",
              "type": "address"
            }
          ],
          "stateMutability": "view",
          "type": "function"
        }
      ],
      "evm": {
        "bytecode": {
          "linkReferences": {},
          "object": "608060405234801561001057600080fd5b50336000806101000a81548173ffffffffffffffffffffffffffffffffffffffff021916908373ffffffffffffffffffffffffffffffffffffffff160217905550612047806100606000396000f3fe60806040523480156200001157600080fd5b5060043610620000945760003560e01c8063cde962831162000063578063cde962831462000145578063e5df8b841462000167578063eea7f924146200019d578063fcedbecf14620001d35762000094565b80633e7da1a914620000995780634badc44e14620000b957806351992fcb14620000ef578063b233e6e8146200010f575b600080fd5b620000b76004803603810190620000b19190620009be565b62000209565b005b620000d76004803603810190620000d1919062000a61565b620002c5565b604051620000e6919062000d97565b60405180910390f35b6200010d600480360381019062000107919062000949565b6200037a565b005b6200012d600480360381019062000127919062000975565b620003e0565b6040516200013c919062000cf3565b60405180910390f35b6200014f620005e5565b6040516200015e919062000d10565b60405180910390f35b6200018560048036038101906200017f919062000a61565b620006c8565b60405162000194919062000cf3565b60405180910390f35b620001bb6004803603810190620001b5919062000a1c565b62000708565b604051620001ca919062000cf3565b60405180910390f35b620001f16004803603810190620001eb919062000975565b62000751565b60405162000200919062000cf3565b60405180910390f35b6000600284846040516200021f92919062000cd8565b908152602001604051809103902060009054906101000a900473ffffffffffffffffffffffffffffffffffffffff1690508073ffffffffffffffffffffffffffffffffffffffff16639375dd90836040518263ffffffff1660e01b81526004016200028b919062000cf3565b600060405180830381600087803b158015620002a657600080fd5b505af1158015620002bb573d6000803e3d6000fd5b5050505050505050565b60018181548110620002d657600080fd5b906000526020600020016000915090508054620002f39062000f8e565b80601f0160208091040260200160405190810160405280929190818152602001828054620003219062000f8e565b8015620003725780601f10620003465761010080835404028352916020019162000372565b820191906000526020600020905b8154815290600101906020018083116200035457829003601f168201915b505050505081565b6003819080600181540180825580915050600190039060005260206000200160009091909190916101000a81548173ffffffffffffffffffffffffffffffffffffffff021916908373ffffffffffffffffffffffffffffffffffffffff16021790555050565b60008073ffffffffffffffffffffffffffffffffffffffff16600284846040516200040d92919062000cd8565b908152602001604051809103902060009054906101000a900473ffffffffffffffffffffffffffffffffffffffff1673ffffffffffffffffffffffffffffffffffffffff161462000495576040517f08c379a00000000000000000000000000000000000000000000000000000000081526004016200048c9062000dbb565b60405180910390fd5b82826003604051620004a7906200079e565b620004b59392919062000d5a565b604051809103906000f080158015620004d2573d6000803e3d6000fd5b5090508060028484604051620004ea92919062000cd8565b908152602001604051809103902060006101000a81548173ffffffffffffffffffffffffffffffffffffffff021916908373ffffffffffffffffffffffffffffffffffffffff160217905550600183839091806001815401808255809150506001900390600052602060002001600090919290919290919290919250919062000575929190620007ac565b508073ffffffffffffffffffffffffffffffffffffffff163373ffffffffffffffffffffffffffffffffffffffff167fd093611f2be5c7b2095065f744ea72e98dfb48b49a9c50a55206ba8698e441d18585604051620005d792919062000d34565b60405180910390a392915050565b60606001805480602002602001604051908101604052809291908181526020016000905b82821015620006bf5783829060005260206000200180546200062b9062000f8e565b80601f0160208091040260200160405190810160405280929190818152602001828054620006599062000f8e565b8015620006aa5780601f106200067e57610100808354040283529160200191620006aa565b820191906000526020600020905b8154815290600101906020018083116200068c57829003601f168201915b50505050508152602001906001019062000609565b50505050905090565b60038181548110620006d957600080fd5b906000526020600020016000915054906101000a900473ffffffffffffffffffffffffffffffffffffffff1681565b6002818051602081018201805184825260208301602085012081835280955050505050506000915054906101000a900473ffffffffffffffffffffffffffffffffffffffff1681565b6000600283836040516200076792919062000cd8565b908152602001604051809103902060009054906101000a900473ffffffffffffffffffffffffffffffffffffffff16905092915050565b610e99806200117983390190565b828054620007ba9062000f8e565b90600052602060002090601f016020900481019282620007de57600085556200082a565b82601f10620007f957803560ff19168380011785556200082a565b828001600101855582156200082a579182015b82811115620008295782358255916020019190600101906200080c565b5b5090506200083991906200083d565b5090565b5b80821115620008585760008160009055506001016200083e565b5090565b6000620008736200086d8462000e06565b62000ddd565b9050828152602081018484840111156200088c57600080fd5b6200089984828562000f49565b509392505050565b600081359050620008b28162001144565b92915050565b60008083601f840112620008cb57600080fd5b8235905067ffffffffffffffff811115620008e557600080fd5b602083019150836001820283011115620008fe57600080fd5b9250929050565b600082601f8301126200091757600080fd5b8135620009298482602086016200085c565b91505092915050565b60008135905062000943816200115e565b92915050565b6000602082840312156200095c57600080fd5b60006200096c84828501620008a1565b91505092915050565b600080602083850312156200098957600080fd5b600083013567ffffffffffffffff811115620009a457600080fd5b620009b285828601620008b8565b92509250509250929050565b600080600060408486031215620009d457600080fd5b600084013567ffffffffffffffff811115620009ef57600080fd5b620009fd86828701620008b8565b9350935050602062000a1286828701620008a1565b9150509250925092565b60006020828403121562000a2f57600080fd5b600082013567ffffffffffffffff81111562000a4a57600080fd5b62000a588482850162000905565b91505092915050565b60006020828403121562000a7457600080fd5b600062000a848482850162000932565b91505092915050565b600062000a9b838362000abd565b60208301905092915050565b600062000ab5838362000c2f565b905092915050565b62000ac88162000f0b565b82525050565b62000ad98162000f0b565b82525050565b600062000aec8262000e61565b62000af8818562000e9c565b935062000b058362000e3c565b8060005b8381101562000b455762000b1d8262001076565b62000b29888262000a8d565b975062000b368362000e82565b92505060018101905062000b09565b5085935050505092915050565b600062000b5f8262000e6c565b62000b6b818562000ead565b93508360208202850162000b7f8562000e51565b8060005b8581101562000bc1578484038952815162000b9f858262000aa7565b945062000bac8362000e8f565b925060208a0199505060018101905062000b83565b50829750879550505050505092915050565b600062000be1838562000ecf565b935062000bf083858462000f49565b62000bfb836200108b565b840190509392505050565b600062000c14838562000ee0565b935062000c2383858462000f49565b82840190509392505050565b600062000c3c8262000e77565b62000c48818562000ebe565b935062000c5a81856020860162000f58565b62000c65816200108b565b840191505092915050565b600062000c7d8262000e77565b62000c89818562000ecf565b935062000c9b81856020860162000f58565b62000ca6816200108b565b840191505092915050565b600062000cc0606f8362000ecf565b915062000ccd82620010a9565b608082019050919050565b600062000ce782848662000c06565b91508190509392505050565b600060208201905062000d0a600083018462000ace565b92915050565b6000602082019050818103600083015262000d2c818462000b52565b905092915050565b6000602082019050818103600083015262000d5181848662000bd3565b90509392505050565b6000604082019050818103600083015262000d7781858762000bd3565b9050818103602083015262000d8d818462000adf565b9050949350505050565b6000602082019050818103600083015262000db3818462000c70565b905092915050565b6000602082019050818103600083015262000dd68162000cb1565b9050919050565b600062000de962000dfc565b905062000df7828262000fe2565b919050565b6000604051905090565b600067ffffffffffffffff82111562000e245762000e2362001047565b5b62000e2f826200108b565b9050602081019050919050565b60008190508160005260206000209050919050565b6000819050602082019050919050565b600081549050919050565b600081519050919050565b600081519050919050565b6000600182019050919050565b6000602082019050919050565b600082825260208201905092915050565b600082825260208201905092915050565b600082825260208201905092915050565b600082825260208201905092915050565b600081905092915050565b600073ffffffffffffffffffffffffffffffffffffffff82169050919050565b600062000f188262000f1f565b9050919050565b600073ffffffffffffffffffffffffffffffffffffffff82169050919050565b6000819050919050565b82818337600083830152505050565b60005b8381101562000f7857808201518184015260208101905062000f5b565b8381111562000f88576000848401525b50505050565b6000600282049050600182168062000fa757607f821691505b6020821081141562000fbe5762000fbd62001018565b5b50919050565b600062000fdb62000fd5836200109c565b62000eeb565b9050919050565b62000fed826200108b565b810181811067ffffffffffffffff821117156200100f576200100e62001047565b5b80604052505050565b7f4e487b7100000000000000000000000000000000000000000000000000000000600052602260045260246000fd5b7f4e487b7100000000000000000000000000000000000000000000000000000000600052604160045260246000fd5b600062001084825462000fc4565b9050919050565b6000601f19601f8301169050919050565b60008160001c9050919050565b7f497373756520616c72656164792065786973747320666f7220676976656e206960008201527f642e2046696e642069747320616464726573732062792063616c6c696e67206960208201527f73737565546f41646472657373206f6e207468697320636f6e7472616374207760408201527f6974682074686520697373756549640000000000000000000000000000000000606082015250565b6200114f8162000f0b565b81146200115b57600080fd5b50565b620011698162000f3f565b81146200117557600080fd5b5056fe60806040523480156200001157600080fd5b5060405162000e9938038062000e9983398181016040528101906200003791906200031c565b81600090805190602001906200004f929190620000b2565b5033600160006101000a81548173ffffffffffffffffffffffffffffffffffffffff021916908373ffffffffffffffffffffffffffffffffffffffff1602179055508060029080519060200190620000a992919062000143565b5050506200057c565b828054620000c09062000487565b90600052602060002090601f016020900481019282620000e4576000855562000130565b82601f10620000ff57805160ff191683800117855562000130565b8280016001018555821562000130579182015b828111156200012f57825182559160200191906001019062000112565b5b5090506200013f9190620001d2565b5090565b828054828255906000526020600020908101928215620001bf579160200282015b82811115620001be5782518260006101000a81548173ffffffffffffffffffffffffffffffffffffffff021916908373ffffffffffffffffffffffffffffffffffffffff1602179055509160200191906001019062000164565b5b509050620001ce9190620001d2565b5090565b5b80821115620001ed576000816000905550600101620001d3565b5090565b6000620002086200020284620003b8565b6200038f565b905080838252602082019050828560208602820111156200022857600080fd5b60005b858110156200025c5781620002418882620002ab565b8452602084019350602083019250506001810190506200022b565b5050509392505050565b60006200027d6200027784620003e7565b6200038f565b9050828152602081018484840111156200029657600080fd5b620002a384828562000451565b509392505050565b600081519050620002bc8162000562565b92915050565b600082601f830112620002d457600080fd5b8151620002e6848260208601620001f1565b91505092915050565b600082601f8301126200030157600080fd5b81516200031384826020860162000266565b91505092915050565b600080604083850312156200033057600080fd5b600083015167ffffffffffffffff8111156200034b57600080fd5b6200035985828601620002ef565b925050602083015167ffffffffffffffff8111156200037757600080fd5b6200038585828601620002c2565b9150509250929050565b60006200039b620003ae565b9050620003a98282620004bd565b919050565b6000604051905090565b600067ffffffffffffffff821115620003d657620003d562000522565b5b602082029050602081019050919050565b600067ffffffffffffffff82111562000405576200040462000522565b5b620004108262000551565b9050602081019050919050565b60006200042a8262000431565b9050919050565b600073ffffffffffffffffffffffffffffffffffffffff82169050919050565b60005b838110156200047157808201518184015260208101905062000454565b8381111562000481576000848401525b50505050565b60006002820490506001821680620004a057607f821691505b60208210811415620004b757620004b6620004f3565b5b50919050565b620004c88262000551565b810181811067ffffffffffffffff82111715620004ea57620004e962000522565b5b80604052505050565b7f4e487b7100000000000000000000000000000000000000000000000000000000600052602260045260246000fd5b7f4e487b7100000000000000000000000000000000000000000000000000000000600052604160045260246000fd5b6000601f19601f8301169050919050565b6200056d816200041d565b81146200057957600080fd5b50565b61090d806200058c6000396000f3fe608060405234801561001057600080fd5b50600436106100575760003560e01c80638da5cb5b1461005c5780639375dd901461007a578063af640d0f14610096578063b588d225146100b4578063e5df8b84146100e4575b600080fd5b610064610114565b6040516100719190610647565b60405180910390f35b610094600480360381019061008f9190610529565b61013a565b005b61009e610371565b6040516100ab919061068b565b60405180910390f35b6100ce60048036038101906100c99190610529565b6103ff565b6040516100db91906106cd565b60405180910390f35b6100fe60048036038101906100f9919061057b565b610496565b60405161010b9190610647565b60405180910390f35b600160009054906101000a900473ffffffffffffffffffffffffffffffffffffffff1681565b600160009054906101000a900473ffffffffffffffffffffffffffffffffffffffff1673ffffffffffffffffffffffffffffffffffffffff163373ffffffffffffffffffffffffffffffffffffffff16146101ca576040517f08c379a00000000000000000000000000000000000000000000000000000000081526004016101c1906106ad565b60405180910390fd5b60005b60028054905081101561036d57600060028281548110610216577f4e487b7100000000000000000000000000000000000000000000000000000000600052603260045260246000fd5b9060005260206000200160009054906101000a900473ffffffffffffffffffffffffffffffffffffffff1690508073ffffffffffffffffffffffffffffffffffffffff1663a9059cbb848373ffffffffffffffffffffffffffffffffffffffff166370a08231306040518263ffffffff1660e01b81526004016102999190610647565b60206040518083038186803b1580156102b157600080fd5b505afa1580156102c5573d6000803e3d6000fd5b505050506040513d601f19601f820116820180604052508101906102e991906105a4565b6040518363ffffffff1660e01b8152600401610306929190610662565b602060405180830381600087803b15801561032057600080fd5b505af1158015610334573d6000803e3d6000fd5b505050506040513d601f19601f820116820180604052508101906103589190610552565b50508080610365906107b1565b9150506101cd565b5050565b6000805461037e9061077f565b80601f01602080910402602001604051908101604052809291908181526020018280546103aa9061077f565b80156103f75780601f106103cc576101008083540402835291602001916103f7565b820191906000526020600020905b8154815290600101906020018083116103da57829003601f168201915b505050505081565b6000808290508073ffffffffffffffffffffffffffffffffffffffff166370a08231306040518263ffffffff1660e01b815260040161043e9190610647565b60206040518083038186803b15801561045657600080fd5b505afa15801561046a573d6000803e3d6000fd5b505050506040513d601f19601f8201168201806040525081019061048e91906105a4565b915050919050565b600281815481106104a657600080fd5b906000526020600020016000915054906101000a900473ffffffffffffffffffffffffffffffffffffffff1681565b6000813590506104e481610892565b92915050565b6000815190506104f9816108a9565b92915050565b60008135905061050e816108c0565b92915050565b600081519050610523816108c0565b92915050565b60006020828403121561053b57600080fd5b6000610549848285016104d5565b91505092915050565b60006020828403121561056457600080fd5b6000610572848285016104ea565b91505092915050565b60006020828403121561058d57600080fd5b600061059b848285016104ff565b91505092915050565b6000602082840312156105b657600080fd5b60006105c484828501610514565b91505092915050565b6105d681610704565b82525050565b60006105e7826106e8565b6105f181856106f3565b935061060181856020860161074c565b61060a81610858565b840191505092915050565b6000610622601f836106f3565b915061062d82610869565b602082019050919050565b61064181610742565b82525050565b600060208201905061065c60008301846105cd565b92915050565b600060408201905061067760008301856105cd565b6106846020830184610638565b9392505050565b600060208201905081810360008301526106a581846105dc565b905092915050565b600060208201905081810360008301526106c681610615565b9050919050565b60006020820190506106e26000830184610638565b92915050565b600081519050919050565b600082825260208201905092915050565b600061070f82610722565b9050919050565b60008115159050919050565b600073ffffffffffffffffffffffffffffffffffffffff82169050919050565b6000819050919050565b60005b8381101561076a57808201518184015260208101905061074f565b83811115610779576000848401525b50505050565b6000600282049050600182168061079757607f821691505b602082108114156107ab576107aa610829565b5b50919050565b60006107bc82610742565b91507fffffffffffffffffffffffffffffffffffffffffffffffffffffffffffffffff8214156107ef576107ee6107fa565b5b600182019050919050565b7f4e487b7100000000000000000000000000000000000000000000000000000000600052601160045260246000fd5b7f4e487b7100000000000000000000000000000000000000000000000000000000600052602260045260246000fd5b6000601f19601f8301169050919050565b7f4f6e6c792063616c6c61626c65206279204f70656e5120636f6e747261637400600082015250565b61089b81610704565b81146108a657600080fd5b50565b6108b281610716565b81146108bd57600080fd5b50565b6108c981610742565b81146108d457600080fd5b5056fea264697066735822122003c8313aca6d946da39c8c748464056ca16f5ca7b0ad30fe7c0e42069307f13d64736f6c63430008040033a2646970667358221220f8e8b09b4f169aab0061240e1ee2d273e5ece503e743f0d6c2af7929c71b111a64736f6c63430008040033",
          "opcodes": "PUSH1 0x80 PUSH1 0x40 MSTORE CALLVALUE DUP1 ISZERO PUSH2 0x10 JUMPI PUSH1 0x0 DUP1 REVERT JUMPDEST POP CALLER PUSH1 0x0 DUP1 PUSH2 0x100 EXP DUP2 SLOAD DUP2 PUSH20 0xFFFFFFFFFFFFFFFFFFFFFFFFFFFFFFFFFFFFFFFF MUL NOT AND SWAP1 DUP4 PUSH20 0xFFFFFFFFFFFFFFFFFFFFFFFFFFFFFFFFFFFFFFFF AND MUL OR SWAP1 SSTORE POP PUSH2 0x2047 DUP1 PUSH2 0x60 PUSH1 0x0 CODECOPY PUSH1 0x0 RETURN INVALID PUSH1 0x80 PUSH1 0x40 MSTORE CALLVALUE DUP1 ISZERO PUSH3 0x11 JUMPI PUSH1 0x0 DUP1 REVERT JUMPDEST POP PUSH1 0x4 CALLDATASIZE LT PUSH3 0x94 JUMPI PUSH1 0x0 CALLDATALOAD PUSH1 0xE0 SHR DUP1 PUSH4 0xCDE96283 GT PUSH3 0x63 JUMPI DUP1 PUSH4 0xCDE96283 EQ PUSH3 0x145 JUMPI DUP1 PUSH4 0xE5DF8B84 EQ PUSH3 0x167 JUMPI DUP1 PUSH4 0xEEA7F924 EQ PUSH3 0x19D JUMPI DUP1 PUSH4 0xFCEDBECF EQ PUSH3 0x1D3 JUMPI PUSH3 0x94 JUMP JUMPDEST DUP1 PUSH4 0x3E7DA1A9 EQ PUSH3 0x99 JUMPI DUP1 PUSH4 0x4BADC44E EQ PUSH3 0xB9 JUMPI DUP1 PUSH4 0x51992FCB EQ PUSH3 0xEF JUMPI DUP1 PUSH4 0xB233E6E8 EQ PUSH3 0x10F JUMPI JUMPDEST PUSH1 0x0 DUP1 REVERT JUMPDEST PUSH3 0xB7 PUSH1 0x4 DUP1 CALLDATASIZE SUB DUP2 ADD SWAP1 PUSH3 0xB1 SWAP2 SWAP1 PUSH3 0x9BE JUMP JUMPDEST PUSH3 0x209 JUMP JUMPDEST STOP JUMPDEST PUSH3 0xD7 PUSH1 0x4 DUP1 CALLDATASIZE SUB DUP2 ADD SWAP1 PUSH3 0xD1 SWAP2 SWAP1 PUSH3 0xA61 JUMP JUMPDEST PUSH3 0x2C5 JUMP JUMPDEST PUSH1 0x40 MLOAD PUSH3 0xE6 SWAP2 SWAP1 PUSH3 0xD97 JUMP JUMPDEST PUSH1 0x40 MLOAD DUP1 SWAP2 SUB SWAP1 RETURN JUMPDEST PUSH3 0x10D PUSH1 0x4 DUP1 CALLDATASIZE SUB DUP2 ADD SWAP1 PUSH3 0x107 SWAP2 SWAP1 PUSH3 0x949 JUMP JUMPDEST PUSH3 0x37A JUMP JUMPDEST STOP JUMPDEST PUSH3 0x12D PUSH1 0x4 DUP1 CALLDATASIZE SUB DUP2 ADD SWAP1 PUSH3 0x127 SWAP2 SWAP1 PUSH3 0x975 JUMP JUMPDEST PUSH3 0x3E0 JUMP JUMPDEST PUSH1 0x40 MLOAD PUSH3 0x13C SWAP2 SWAP1 PUSH3 0xCF3 JUMP JUMPDEST PUSH1 0x40 MLOAD DUP1 SWAP2 SUB SWAP1 RETURN JUMPDEST PUSH3 0x14F PUSH3 0x5E5 JUMP JUMPDEST PUSH1 0x40 MLOAD PUSH3 0x15E SWAP2 SWAP1 PUSH3 0xD10 JUMP JUMPDEST PUSH1 0x40 MLOAD DUP1 SWAP2 SUB SWAP1 RETURN JUMPDEST PUSH3 0x185 PUSH1 0x4 DUP1 CALLDATASIZE SUB DUP2 ADD SWAP1 PUSH3 0x17F SWAP2 SWAP1 PUSH3 0xA61 JUMP JUMPDEST PUSH3 0x6C8 JUMP JUMPDEST PUSH1 0x40 MLOAD PUSH3 0x194 SWAP2 SWAP1 PUSH3 0xCF3 JUMP JUMPDEST PUSH1 0x40 MLOAD DUP1 SWAP2 SUB SWAP1 RETURN JUMPDEST PUSH3 0x1BB PUSH1 0x4 DUP1 CALLDATASIZE SUB DUP2 ADD SWAP1 PUSH3 0x1B5 SWAP2 SWAP1 PUSH3 0xA1C JUMP JUMPDEST PUSH3 0x708 JUMP JUMPDEST PUSH1 0x40 MLOAD PUSH3 0x1CA SWAP2 SWAP1 PUSH3 0xCF3 JUMP JUMPDEST PUSH1 0x40 MLOAD DUP1 SWAP2 SUB SWAP1 RETURN JUMPDEST PUSH3 0x1F1 PUSH1 0x4 DUP1 CALLDATASIZE SUB DUP2 ADD SWAP1 PUSH3 0x1EB SWAP2 SWAP1 PUSH3 0x975 JUMP JUMPDEST PUSH3 0x751 JUMP JUMPDEST PUSH1 0x40 MLOAD PUSH3 0x200 SWAP2 SWAP1 PUSH3 0xCF3 JUMP JUMPDEST PUSH1 0x40 MLOAD DUP1 SWAP2 SUB SWAP1 RETURN JUMPDEST PUSH1 0x0 PUSH1 0x2 DUP5 DUP5 PUSH1 0x40 MLOAD PUSH3 0x21F SWAP3 SWAP2 SWAP1 PUSH3 0xCD8 JUMP JUMPDEST SWAP1 DUP2 MSTORE PUSH1 0x20 ADD PUSH1 0x40 MLOAD DUP1 SWAP2 SUB SWAP1 KECCAK256 PUSH1 0x0 SWAP1 SLOAD SWAP1 PUSH2 0x100 EXP SWAP1 DIV PUSH20 0xFFFFFFFFFFFFFFFFFFFFFFFFFFFFFFFFFFFFFFFF AND SWAP1 POP DUP1 PUSH20 0xFFFFFFFFFFFFFFFFFFFFFFFFFFFFFFFFFFFFFFFF AND PUSH4 0x9375DD90 DUP4 PUSH1 0x40 MLOAD DUP3 PUSH4 0xFFFFFFFF AND PUSH1 0xE0 SHL DUP2 MSTORE PUSH1 0x4 ADD PUSH3 0x28B SWAP2 SWAP1 PUSH3 0xCF3 JUMP JUMPDEST PUSH1 0x0 PUSH1 0x40 MLOAD DUP1 DUP4 SUB DUP2 PUSH1 0x0 DUP8 DUP1 EXTCODESIZE ISZERO DUP1 ISZERO PUSH3 0x2A6 JUMPI PUSH1 0x0 DUP1 REVERT JUMPDEST POP GAS CALL ISZERO DUP1 ISZERO PUSH3 0x2BB JUMPI RETURNDATASIZE PUSH1 0x0 DUP1 RETURNDATACOPY RETURNDATASIZE PUSH1 0x0 REVERT JUMPDEST POP POP POP POP POP POP POP POP JUMP JUMPDEST PUSH1 0x1 DUP2 DUP2 SLOAD DUP2 LT PUSH3 0x2D6 JUMPI PUSH1 0x0 DUP1 REVERT JUMPDEST SWAP1 PUSH1 0x0 MSTORE PUSH1 0x20 PUSH1 0x0 KECCAK256 ADD PUSH1 0x0 SWAP2 POP SWAP1 POP DUP1 SLOAD PUSH3 0x2F3 SWAP1 PUSH3 0xF8E JUMP JUMPDEST DUP1 PUSH1 0x1F ADD PUSH1 0x20 DUP1 SWAP2 DIV MUL PUSH1 0x20 ADD PUSH1 0x40 MLOAD SWAP1 DUP2 ADD PUSH1 0x40 MSTORE DUP1 SWAP3 SWAP2 SWAP1 DUP2 DUP2 MSTORE PUSH1 0x20 ADD DUP3 DUP1 SLOAD PUSH3 0x321 SWAP1 PUSH3 0xF8E JUMP JUMPDEST DUP1 ISZERO PUSH3 0x372 JUMPI DUP1 PUSH1 0x1F LT PUSH3 0x346 JUMPI PUSH2 0x100 DUP1 DUP4 SLOAD DIV MUL DUP4 MSTORE SWAP2 PUSH1 0x20 ADD SWAP2 PUSH3 0x372 JUMP JUMPDEST DUP3 ADD SWAP2 SWAP1 PUSH1 0x0 MSTORE PUSH1 0x20 PUSH1 0x0 KECCAK256 SWAP1 JUMPDEST DUP2 SLOAD DUP2 MSTORE SWAP1 PUSH1 0x1 ADD SWAP1 PUSH1 0x20 ADD DUP1 DUP4 GT PUSH3 0x354 JUMPI DUP3 SWAP1 SUB PUSH1 0x1F AND DUP3 ADD SWAP2 JUMPDEST POP POP POP POP POP DUP2 JUMP JUMPDEST PUSH1 0x3 DUP2 SWAP1 DUP1 PUSH1 0x1 DUP2 SLOAD ADD DUP1 DUP3 SSTORE DUP1 SWAP2 POP POP PUSH1 0x1 SWAP1 SUB SWAP1 PUSH1 0x0 MSTORE PUSH1 0x20 PUSH1 0x0 KECCAK256 ADD PUSH1 0x0 SWAP1 SWAP2 SWAP1 SWAP2 SWAP1 SWAP2 PUSH2 0x100 EXP DUP2 SLOAD DUP2 PUSH20 0xFFFFFFFFFFFFFFFFFFFFFFFFFFFFFFFFFFFFFFFF MUL NOT AND SWAP1 DUP4 PUSH20 0xFFFFFFFFFFFFFFFFFFFFFFFFFFFFFFFFFFFFFFFF AND MUL OR SWAP1 SSTORE POP POP JUMP JUMPDEST PUSH1 0x0 DUP1 PUSH20 0xFFFFFFFFFFFFFFFFFFFFFFFFFFFFFFFFFFFFFFFF AND PUSH1 0x2 DUP5 DUP5 PUSH1 0x40 MLOAD PUSH3 0x40D SWAP3 SWAP2 SWAP1 PUSH3 0xCD8 JUMP JUMPDEST SWAP1 DUP2 MSTORE PUSH1 0x20 ADD PUSH1 0x40 MLOAD DUP1 SWAP2 SUB SWAP1 KECCAK256 PUSH1 0x0 SWAP1 SLOAD SWAP1 PUSH2 0x100 EXP SWAP1 DIV PUSH20 0xFFFFFFFFFFFFFFFFFFFFFFFFFFFFFFFFFFFFFFFF AND PUSH20 0xFFFFFFFFFFFFFFFFFFFFFFFFFFFFFFFFFFFFFFFF AND EQ PUSH3 0x495 JUMPI PUSH1 0x40 MLOAD PUSH32 0x8C379A000000000000000000000000000000000000000000000000000000000 DUP2 MSTORE PUSH1 0x4 ADD PUSH3 0x48C SWAP1 PUSH3 0xDBB JUMP JUMPDEST PUSH1 0x40 MLOAD DUP1 SWAP2 SUB SWAP1 REVERT JUMPDEST DUP3 DUP3 PUSH1 0x3 PUSH1 0x40 MLOAD PUSH3 0x4A7 SWAP1 PUSH3 0x79E JUMP JUMPDEST PUSH3 0x4B5 SWAP4 SWAP3 SWAP2 SWAP1 PUSH3 0xD5A JUMP JUMPDEST PUSH1 0x40 MLOAD DUP1 SWAP2 SUB SWAP1 PUSH1 0x0 CREATE DUP1 ISZERO DUP1 ISZERO PUSH3 0x4D2 JUMPI RETURNDATASIZE PUSH1 0x0 DUP1 RETURNDATACOPY RETURNDATASIZE PUSH1 0x0 REVERT JUMPDEST POP SWAP1 POP DUP1 PUSH1 0x2 DUP5 DUP5 PUSH1 0x40 MLOAD PUSH3 0x4EA SWAP3 SWAP2 SWAP1 PUSH3 0xCD8 JUMP JUMPDEST SWAP1 DUP2 MSTORE PUSH1 0x20 ADD PUSH1 0x40 MLOAD DUP1 SWAP2 SUB SWAP1 KECCAK256 PUSH1 0x0 PUSH2 0x100 EXP DUP2 SLOAD DUP2 PUSH20 0xFFFFFFFFFFFFFFFFFFFFFFFFFFFFFFFFFFFFFFFF MUL NOT AND SWAP1 DUP4 PUSH20 0xFFFFFFFFFFFFFFFFFFFFFFFFFFFFFFFFFFFFFFFF AND MUL OR SWAP1 SSTORE POP PUSH1 0x1 DUP4 DUP4 SWAP1 SWAP2 DUP1 PUSH1 0x1 DUP2 SLOAD ADD DUP1 DUP3 SSTORE DUP1 SWAP2 POP POP PUSH1 0x1 SWAP1 SUB SWAP1 PUSH1 0x0 MSTORE PUSH1 0x20 PUSH1 0x0 KECCAK256 ADD PUSH1 0x0 SWAP1 SWAP2 SWAP3 SWAP1 SWAP2 SWAP3 SWAP1 SWAP2 SWAP3 SWAP1 SWAP2 SWAP3 POP SWAP2 SWAP1 PUSH3 0x575 SWAP3 SWAP2 SWAP1 PUSH3 0x7AC JUMP JUMPDEST POP DUP1 PUSH20 0xFFFFFFFFFFFFFFFFFFFFFFFFFFFFFFFFFFFFFFFF AND CALLER PUSH20 0xFFFFFFFFFFFFFFFFFFFFFFFFFFFFFFFFFFFFFFFF AND PUSH32 0xD093611F2BE5C7B2095065F744EA72E98DFB48B49A9C50A55206BA8698E441D1 DUP6 DUP6 PUSH1 0x40 MLOAD PUSH3 0x5D7 SWAP3 SWAP2 SWAP1 PUSH3 0xD34 JUMP JUMPDEST PUSH1 0x40 MLOAD DUP1 SWAP2 SUB SWAP1 LOG3 SWAP3 SWAP2 POP POP JUMP JUMPDEST PUSH1 0x60 PUSH1 0x1 DUP1 SLOAD DUP1 PUSH1 0x20 MUL PUSH1 0x20 ADD PUSH1 0x40 MLOAD SWAP1 DUP2 ADD PUSH1 0x40 MSTORE DUP1 SWAP3 SWAP2 SWAP1 DUP2 DUP2 MSTORE PUSH1 0x20 ADD PUSH1 0x0 SWAP1 JUMPDEST DUP3 DUP3 LT ISZERO PUSH3 0x6BF JUMPI DUP4 DUP3 SWAP1 PUSH1 0x0 MSTORE PUSH1 0x20 PUSH1 0x0 KECCAK256 ADD DUP1 SLOAD PUSH3 0x62B SWAP1 PUSH3 0xF8E JUMP JUMPDEST DUP1 PUSH1 0x1F ADD PUSH1 0x20 DUP1 SWAP2 DIV MUL PUSH1 0x20 ADD PUSH1 0x40 MLOAD SWAP1 DUP2 ADD PUSH1 0x40 MSTORE DUP1 SWAP3 SWAP2 SWAP1 DUP2 DUP2 MSTORE PUSH1 0x20 ADD DUP3 DUP1 SLOAD PUSH3 0x659 SWAP1 PUSH3 0xF8E JUMP JUMPDEST DUP1 ISZERO PUSH3 0x6AA JUMPI DUP1 PUSH1 0x1F LT PUSH3 0x67E JUMPI PUSH2 0x100 DUP1 DUP4 SLOAD DIV MUL DUP4 MSTORE SWAP2 PUSH1 0x20 ADD SWAP2 PUSH3 0x6AA JUMP JUMPDEST DUP3 ADD SWAP2 SWAP1 PUSH1 0x0 MSTORE PUSH1 0x20 PUSH1 0x0 KECCAK256 SWAP1 JUMPDEST DUP2 SLOAD DUP2 MSTORE SWAP1 PUSH1 0x1 ADD SWAP1 PUSH1 0x20 ADD DUP1 DUP4 GT PUSH3 0x68C JUMPI DUP3 SWAP1 SUB PUSH1 0x1F AND DUP3 ADD SWAP2 JUMPDEST POP POP POP POP POP DUP2 MSTORE PUSH1 0x20 ADD SWAP1 PUSH1 0x1 ADD SWAP1 PUSH3 0x609 JUMP JUMPDEST POP POP POP POP SWAP1 POP SWAP1 JUMP JUMPDEST PUSH1 0x3 DUP2 DUP2 SLOAD DUP2 LT PUSH3 0x6D9 JUMPI PUSH1 0x0 DUP1 REVERT JUMPDEST SWAP1 PUSH1 0x0 MSTORE PUSH1 0x20 PUSH1 0x0 KECCAK256 ADD PUSH1 0x0 SWAP2 POP SLOAD SWAP1 PUSH2 0x100 EXP SWAP1 DIV PUSH20 0xFFFFFFFFFFFFFFFFFFFFFFFFFFFFFFFFFFFFFFFF AND DUP2 JUMP JUMPDEST PUSH1 0x2 DUP2 DUP1 MLOAD PUSH1 0x20 DUP2 ADD DUP3 ADD DUP1 MLOAD DUP5 DUP3 MSTORE PUSH1 0x20 DUP4 ADD PUSH1 0x20 DUP6 ADD KECCAK256 DUP2 DUP4 MSTORE DUP1 SWAP6 POP POP POP POP POP POP PUSH1 0x0 SWAP2 POP SLOAD SWAP1 PUSH2 0x100 EXP SWAP1 DIV PUSH20 0xFFFFFFFFFFFFFFFFFFFFFFFFFFFFFFFFFFFFFFFF AND DUP2 JUMP JUMPDEST PUSH1 0x0 PUSH1 0x2 DUP4 DUP4 PUSH1 0x40 MLOAD PUSH3 0x767 SWAP3 SWAP2 SWAP1 PUSH3 0xCD8 JUMP JUMPDEST SWAP1 DUP2 MSTORE PUSH1 0x20 ADD PUSH1 0x40 MLOAD DUP1 SWAP2 SUB SWAP1 KECCAK256 PUSH1 0x0 SWAP1 SLOAD SWAP1 PUSH2 0x100 EXP SWAP1 DIV PUSH20 0xFFFFFFFFFFFFFFFFFFFFFFFFFFFFFFFFFFFFFFFF AND SWAP1 POP SWAP3 SWAP2 POP POP JUMP JUMPDEST PUSH2 0xE99 DUP1 PUSH3 0x1179 DUP4 CODECOPY ADD SWAP1 JUMP JUMPDEST DUP3 DUP1 SLOAD PUSH3 0x7BA SWAP1 PUSH3 0xF8E JUMP JUMPDEST SWAP1 PUSH1 0x0 MSTORE PUSH1 0x20 PUSH1 0x0 KECCAK256 SWAP1 PUSH1 0x1F ADD PUSH1 0x20 SWAP1 DIV DUP2 ADD SWAP3 DUP3 PUSH3 0x7DE JUMPI PUSH1 0x0 DUP6 SSTORE PUSH3 0x82A JUMP JUMPDEST DUP3 PUSH1 0x1F LT PUSH3 0x7F9 JUMPI DUP1 CALLDATALOAD PUSH1 0xFF NOT AND DUP4 DUP1 ADD OR DUP6 SSTORE PUSH3 0x82A JUMP JUMPDEST DUP3 DUP1 ADD PUSH1 0x1 ADD DUP6 SSTORE DUP3 ISZERO PUSH3 0x82A JUMPI SWAP2 DUP3 ADD JUMPDEST DUP3 DUP2 GT ISZERO PUSH3 0x829 JUMPI DUP3 CALLDATALOAD DUP3 SSTORE SWAP2 PUSH1 0x20 ADD SWAP2 SWAP1 PUSH1 0x1 ADD SWAP1 PUSH3 0x80C JUMP JUMPDEST JUMPDEST POP SWAP1 POP PUSH3 0x839 SWAP2 SWAP1 PUSH3 0x83D JUMP JUMPDEST POP SWAP1 JUMP JUMPDEST JUMPDEST DUP1 DUP3 GT ISZERO PUSH3 0x858 JUMPI PUSH1 0x0 DUP2 PUSH1 0x0 SWAP1 SSTORE POP PUSH1 0x1 ADD PUSH3 0x83E JUMP JUMPDEST POP SWAP1 JUMP JUMPDEST PUSH1 0x0 PUSH3 0x873 PUSH3 0x86D DUP5 PUSH3 0xE06 JUMP JUMPDEST PUSH3 0xDDD JUMP JUMPDEST SWAP1 POP DUP3 DUP2 MSTORE PUSH1 0x20 DUP2 ADD DUP5 DUP5 DUP5 ADD GT ISZERO PUSH3 0x88C JUMPI PUSH1 0x0 DUP1 REVERT JUMPDEST PUSH3 0x899 DUP5 DUP3 DUP6 PUSH3 0xF49 JUMP JUMPDEST POP SWAP4 SWAP3 POP POP POP JUMP JUMPDEST PUSH1 0x0 DUP2 CALLDATALOAD SWAP1 POP PUSH3 0x8B2 DUP2 PUSH3 0x1144 JUMP JUMPDEST SWAP3 SWAP2 POP POP JUMP JUMPDEST PUSH1 0x0 DUP1 DUP4 PUSH1 0x1F DUP5 ADD SLT PUSH3 0x8CB JUMPI PUSH1 0x0 DUP1 REVERT JUMPDEST DUP3 CALLDATALOAD SWAP1 POP PUSH8 0xFFFFFFFFFFFFFFFF DUP2 GT ISZERO PUSH3 0x8E5 JUMPI PUSH1 0x0 DUP1 REVERT JUMPDEST PUSH1 0x20 DUP4 ADD SWAP2 POP DUP4 PUSH1 0x1 DUP3 MUL DUP4 ADD GT ISZERO PUSH3 0x8FE JUMPI PUSH1 0x0 DUP1 REVERT JUMPDEST SWAP3 POP SWAP3 SWAP1 POP JUMP JUMPDEST PUSH1 0x0 DUP3 PUSH1 0x1F DUP4 ADD SLT PUSH3 0x917 JUMPI PUSH1 0x0 DUP1 REVERT JUMPDEST DUP2 CALLDATALOAD PUSH3 0x929 DUP5 DUP3 PUSH1 0x20 DUP7 ADD PUSH3 0x85C JUMP JUMPDEST SWAP2 POP POP SWAP3 SWAP2 POP POP JUMP JUMPDEST PUSH1 0x0 DUP2 CALLDATALOAD SWAP1 POP PUSH3 0x943 DUP2 PUSH3 0x115E JUMP JUMPDEST SWAP3 SWAP2 POP POP JUMP JUMPDEST PUSH1 0x0 PUSH1 0x20 DUP3 DUP5 SUB SLT ISZERO PUSH3 0x95C JUMPI PUSH1 0x0 DUP1 REVERT JUMPDEST PUSH1 0x0 PUSH3 0x96C DUP5 DUP3 DUP6 ADD PUSH3 0x8A1 JUMP JUMPDEST SWAP2 POP POP SWAP3 SWAP2 POP POP JUMP JUMPDEST PUSH1 0x0 DUP1 PUSH1 0x20 DUP4 DUP6 SUB SLT ISZERO PUSH3 0x989 JUMPI PUSH1 0x0 DUP1 REVERT JUMPDEST PUSH1 0x0 DUP4 ADD CALLDATALOAD PUSH8 0xFFFFFFFFFFFFFFFF DUP2 GT ISZERO PUSH3 0x9A4 JUMPI PUSH1 0x0 DUP1 REVERT JUMPDEST PUSH3 0x9B2 DUP6 DUP3 DUP7 ADD PUSH3 0x8B8 JUMP JUMPDEST SWAP3 POP SWAP3 POP POP SWAP3 POP SWAP3 SWAP1 POP JUMP JUMPDEST PUSH1 0x0 DUP1 PUSH1 0x0 PUSH1 0x40 DUP5 DUP7 SUB SLT ISZERO PUSH3 0x9D4 JUMPI PUSH1 0x0 DUP1 REVERT JUMPDEST PUSH1 0x0 DUP5 ADD CALLDATALOAD PUSH8 0xFFFFFFFFFFFFFFFF DUP2 GT ISZERO PUSH3 0x9EF JUMPI PUSH1 0x0 DUP1 REVERT JUMPDEST PUSH3 0x9FD DUP7 DUP3 DUP8 ADD PUSH3 0x8B8 JUMP JUMPDEST SWAP4 POP SWAP4 POP POP PUSH1 0x20 PUSH3 0xA12 DUP7 DUP3 DUP8 ADD PUSH3 0x8A1 JUMP JUMPDEST SWAP2 POP POP SWAP3 POP SWAP3 POP SWAP3 JUMP JUMPDEST PUSH1 0x0 PUSH1 0x20 DUP3 DUP5 SUB SLT ISZERO PUSH3 0xA2F JUMPI PUSH1 0x0 DUP1 REVERT JUMPDEST PUSH1 0x0 DUP3 ADD CALLDATALOAD PUSH8 0xFFFFFFFFFFFFFFFF DUP2 GT ISZERO PUSH3 0xA4A JUMPI PUSH1 0x0 DUP1 REVERT JUMPDEST PUSH3 0xA58 DUP5 DUP3 DUP6 ADD PUSH3 0x905 JUMP JUMPDEST SWAP2 POP POP SWAP3 SWAP2 POP POP JUMP JUMPDEST PUSH1 0x0 PUSH1 0x20 DUP3 DUP5 SUB SLT ISZERO PUSH3 0xA74 JUMPI PUSH1 0x0 DUP1 REVERT JUMPDEST PUSH1 0x0 PUSH3 0xA84 DUP5 DUP3 DUP6 ADD PUSH3 0x932 JUMP JUMPDEST SWAP2 POP POP SWAP3 SWAP2 POP POP JUMP JUMPDEST PUSH1 0x0 PUSH3 0xA9B DUP4 DUP4 PUSH3 0xABD JUMP JUMPDEST PUSH1 0x20 DUP4 ADD SWAP1 POP SWAP3 SWAP2 POP POP JUMP JUMPDEST PUSH1 0x0 PUSH3 0xAB5 DUP4 DUP4 PUSH3 0xC2F JUMP JUMPDEST SWAP1 POP SWAP3 SWAP2 POP POP JUMP JUMPDEST PUSH3 0xAC8 DUP2 PUSH3 0xF0B JUMP JUMPDEST DUP3 MSTORE POP POP JUMP JUMPDEST PUSH3 0xAD9 DUP2 PUSH3 0xF0B JUMP JUMPDEST DUP3 MSTORE POP POP JUMP JUMPDEST PUSH1 0x0 PUSH3 0xAEC DUP3 PUSH3 0xE61 JUMP JUMPDEST PUSH3 0xAF8 DUP2 DUP6 PUSH3 0xE9C JUMP JUMPDEST SWAP4 POP PUSH3 0xB05 DUP4 PUSH3 0xE3C JUMP JUMPDEST DUP1 PUSH1 0x0 JUMPDEST DUP4 DUP2 LT ISZERO PUSH3 0xB45 JUMPI PUSH3 0xB1D DUP3 PUSH3 0x1076 JUMP JUMPDEST PUSH3 0xB29 DUP9 DUP3 PUSH3 0xA8D JUMP JUMPDEST SWAP8 POP PUSH3 0xB36 DUP4 PUSH3 0xE82 JUMP JUMPDEST SWAP3 POP POP PUSH1 0x1 DUP2 ADD SWAP1 POP PUSH3 0xB09 JUMP JUMPDEST POP DUP6 SWAP4 POP POP POP POP SWAP3 SWAP2 POP POP JUMP JUMPDEST PUSH1 0x0 PUSH3 0xB5F DUP3 PUSH3 0xE6C JUMP JUMPDEST PUSH3 0xB6B DUP2 DUP6 PUSH3 0xEAD JUMP JUMPDEST SWAP4 POP DUP4 PUSH1 0x20 DUP3 MUL DUP6 ADD PUSH3 0xB7F DUP6 PUSH3 0xE51 JUMP JUMPDEST DUP1 PUSH1 0x0 JUMPDEST DUP6 DUP2 LT ISZERO PUSH3 0xBC1 JUMPI DUP5 DUP5 SUB DUP10 MSTORE DUP2 MLOAD PUSH3 0xB9F DUP6 DUP3 PUSH3 0xAA7 JUMP JUMPDEST SWAP5 POP PUSH3 0xBAC DUP4 PUSH3 0xE8F JUMP JUMPDEST SWAP3 POP PUSH1 0x20 DUP11 ADD SWAP10 POP POP PUSH1 0x1 DUP2 ADD SWAP1 POP PUSH3 0xB83 JUMP JUMPDEST POP DUP3 SWAP8 POP DUP8 SWAP6 POP POP POP POP POP POP SWAP3 SWAP2 POP POP JUMP JUMPDEST PUSH1 0x0 PUSH3 0xBE1 DUP4 DUP6 PUSH3 0xECF JUMP JUMPDEST SWAP4 POP PUSH3 0xBF0 DUP4 DUP6 DUP5 PUSH3 0xF49 JUMP JUMPDEST PUSH3 0xBFB DUP4 PUSH3 0x108B JUMP JUMPDEST DUP5 ADD SWAP1 POP SWAP4 SWAP3 POP POP POP JUMP JUMPDEST PUSH1 0x0 PUSH3 0xC14 DUP4 DUP6 PUSH3 0xEE0 JUMP JUMPDEST SWAP4 POP PUSH3 0xC23 DUP4 DUP6 DUP5 PUSH3 0xF49 JUMP JUMPDEST DUP3 DUP5 ADD SWAP1 POP SWAP4 SWAP3 POP POP POP JUMP JUMPDEST PUSH1 0x0 PUSH3 0xC3C DUP3 PUSH3 0xE77 JUMP JUMPDEST PUSH3 0xC48 DUP2 DUP6 PUSH3 0xEBE JUMP JUMPDEST SWAP4 POP PUSH3 0xC5A DUP2 DUP6 PUSH1 0x20 DUP7 ADD PUSH3 0xF58 JUMP JUMPDEST PUSH3 0xC65 DUP2 PUSH3 0x108B JUMP JUMPDEST DUP5 ADD SWAP2 POP POP SWAP3 SWAP2 POP POP JUMP JUMPDEST PUSH1 0x0 PUSH3 0xC7D DUP3 PUSH3 0xE77 JUMP JUMPDEST PUSH3 0xC89 DUP2 DUP6 PUSH3 0xECF JUMP JUMPDEST SWAP4 POP PUSH3 0xC9B DUP2 DUP6 PUSH1 0x20 DUP7 ADD PUSH3 0xF58 JUMP JUMPDEST PUSH3 0xCA6 DUP2 PUSH3 0x108B JUMP JUMPDEST DUP5 ADD SWAP2 POP POP SWAP3 SWAP2 POP POP JUMP JUMPDEST PUSH1 0x0 PUSH3 0xCC0 PUSH1 0x6F DUP4 PUSH3 0xECF JUMP JUMPDEST SWAP2 POP PUSH3 0xCCD DUP3 PUSH3 0x10A9 JUMP JUMPDEST PUSH1 0x80 DUP3 ADD SWAP1 POP SWAP2 SWAP1 POP JUMP JUMPDEST PUSH1 0x0 PUSH3 0xCE7 DUP3 DUP5 DUP7 PUSH3 0xC06 JUMP JUMPDEST SWAP2 POP DUP2 SWAP1 POP SWAP4 SWAP3 POP POP POP JUMP JUMPDEST PUSH1 0x0 PUSH1 0x20 DUP3 ADD SWAP1 POP PUSH3 0xD0A PUSH1 0x0 DUP4 ADD DUP5 PUSH3 0xACE JUMP JUMPDEST SWAP3 SWAP2 POP POP JUMP JUMPDEST PUSH1 0x0 PUSH1 0x20 DUP3 ADD SWAP1 POP DUP2 DUP2 SUB PUSH1 0x0 DUP4 ADD MSTORE PUSH3 0xD2C DUP2 DUP5 PUSH3 0xB52 JUMP JUMPDEST SWAP1 POP SWAP3 SWAP2 POP POP JUMP JUMPDEST PUSH1 0x0 PUSH1 0x20 DUP3 ADD SWAP1 POP DUP2 DUP2 SUB PUSH1 0x0 DUP4 ADD MSTORE PUSH3 0xD51 DUP2 DUP5 DUP7 PUSH3 0xBD3 JUMP JUMPDEST SWAP1 POP SWAP4 SWAP3 POP POP POP JUMP JUMPDEST PUSH1 0x0 PUSH1 0x40 DUP3 ADD SWAP1 POP DUP2 DUP2 SUB PUSH1 0x0 DUP4 ADD MSTORE PUSH3 0xD77 DUP2 DUP6 DUP8 PUSH3 0xBD3 JUMP JUMPDEST SWAP1 POP DUP2 DUP2 SUB PUSH1 0x20 DUP4 ADD MSTORE PUSH3 0xD8D DUP2 DUP5 PUSH3 0xADF JUMP JUMPDEST SWAP1 POP SWAP5 SWAP4 POP POP POP POP JUMP JUMPDEST PUSH1 0x0 PUSH1 0x20 DUP3 ADD SWAP1 POP DUP2 DUP2 SUB PUSH1 0x0 DUP4 ADD MSTORE PUSH3 0xDB3 DUP2 DUP5 PUSH3 0xC70 JUMP JUMPDEST SWAP1 POP SWAP3 SWAP2 POP POP JUMP JUMPDEST PUSH1 0x0 PUSH1 0x20 DUP3 ADD SWAP1 POP DUP2 DUP2 SUB PUSH1 0x0 DUP4 ADD MSTORE PUSH3 0xDD6 DUP2 PUSH3 0xCB1 JUMP JUMPDEST SWAP1 POP SWAP2 SWAP1 POP JUMP JUMPDEST PUSH1 0x0 PUSH3 0xDE9 PUSH3 0xDFC JUMP JUMPDEST SWAP1 POP PUSH3 0xDF7 DUP3 DUP3 PUSH3 0xFE2 JUMP JUMPDEST SWAP2 SWAP1 POP JUMP JUMPDEST PUSH1 0x0 PUSH1 0x40 MLOAD SWAP1 POP SWAP1 JUMP JUMPDEST PUSH1 0x0 PUSH8 0xFFFFFFFFFFFFFFFF DUP3 GT ISZERO PUSH3 0xE24 JUMPI PUSH3 0xE23 PUSH3 0x1047 JUMP JUMPDEST JUMPDEST PUSH3 0xE2F DUP3 PUSH3 0x108B JUMP JUMPDEST SWAP1 POP PUSH1 0x20 DUP2 ADD SWAP1 POP SWAP2 SWAP1 POP JUMP JUMPDEST PUSH1 0x0 DUP2 SWAP1 POP DUP2 PUSH1 0x0 MSTORE PUSH1 0x20 PUSH1 0x0 KECCAK256 SWAP1 POP SWAP2 SWAP1 POP JUMP JUMPDEST PUSH1 0x0 DUP2 SWAP1 POP PUSH1 0x20 DUP3 ADD SWAP1 POP SWAP2 SWAP1 POP JUMP JUMPDEST PUSH1 0x0 DUP2 SLOAD SWAP1 POP SWAP2 SWAP1 POP JUMP JUMPDEST PUSH1 0x0 DUP2 MLOAD SWAP1 POP SWAP2 SWAP1 POP JUMP JUMPDEST PUSH1 0x0 DUP2 MLOAD SWAP1 POP SWAP2 SWAP1 POP JUMP JUMPDEST PUSH1 0x0 PUSH1 0x1 DUP3 ADD SWAP1 POP SWAP2 SWAP1 POP JUMP JUMPDEST PUSH1 0x0 PUSH1 0x20 DUP3 ADD SWAP1 POP SWAP2 SWAP1 POP JUMP JUMPDEST PUSH1 0x0 DUP3 DUP3 MSTORE PUSH1 0x20 DUP3 ADD SWAP1 POP SWAP3 SWAP2 POP POP JUMP JUMPDEST PUSH1 0x0 DUP3 DUP3 MSTORE PUSH1 0x20 DUP3 ADD SWAP1 POP SWAP3 SWAP2 POP POP JUMP JUMPDEST PUSH1 0x0 DUP3 DUP3 MSTORE PUSH1 0x20 DUP3 ADD SWAP1 POP SWAP3 SWAP2 POP POP JUMP JUMPDEST PUSH1 0x0 DUP3 DUP3 MSTORE PUSH1 0x20 DUP3 ADD SWAP1 POP SWAP3 SWAP2 POP POP JUMP JUMPDEST PUSH1 0x0 DUP2 SWAP1 POP SWAP3 SWAP2 POP POP JUMP JUMPDEST PUSH1 0x0 PUSH20 0xFFFFFFFFFFFFFFFFFFFFFFFFFFFFFFFFFFFFFFFF DUP3 AND SWAP1 POP SWAP2 SWAP1 POP JUMP JUMPDEST PUSH1 0x0 PUSH3 0xF18 DUP3 PUSH3 0xF1F JUMP JUMPDEST SWAP1 POP SWAP2 SWAP1 POP JUMP JUMPDEST PUSH1 0x0 PUSH20 0xFFFFFFFFFFFFFFFFFFFFFFFFFFFFFFFFFFFFFFFF DUP3 AND SWAP1 POP SWAP2 SWAP1 POP JUMP JUMPDEST PUSH1 0x0 DUP2 SWAP1 POP SWAP2 SWAP1 POP JUMP JUMPDEST DUP3 DUP2 DUP4 CALLDATACOPY PUSH1 0x0 DUP4 DUP4 ADD MSTORE POP POP POP JUMP JUMPDEST PUSH1 0x0 JUMPDEST DUP4 DUP2 LT ISZERO PUSH3 0xF78 JUMPI DUP1 DUP3 ADD MLOAD DUP2 DUP5 ADD MSTORE PUSH1 0x20 DUP2 ADD SWAP1 POP PUSH3 0xF5B JUMP JUMPDEST DUP4 DUP2 GT ISZERO PUSH3 0xF88 JUMPI PUSH1 0x0 DUP5 DUP5 ADD MSTORE JUMPDEST POP POP POP POP JUMP JUMPDEST PUSH1 0x0 PUSH1 0x2 DUP3 DIV SWAP1 POP PUSH1 0x1 DUP3 AND DUP1 PUSH3 0xFA7 JUMPI PUSH1 0x7F DUP3 AND SWAP2 POP JUMPDEST PUSH1 0x20 DUP3 LT DUP2 EQ ISZERO PUSH3 0xFBE JUMPI PUSH3 0xFBD PUSH3 0x1018 JUMP JUMPDEST JUMPDEST POP SWAP2 SWAP1 POP JUMP JUMPDEST PUSH1 0x0 PUSH3 0xFDB PUSH3 0xFD5 DUP4 PUSH3 0x109C JUMP JUMPDEST PUSH3 0xEEB JUMP JUMPDEST SWAP1 POP SWAP2 SWAP1 POP JUMP JUMPDEST PUSH3 0xFED DUP3 PUSH3 0x108B JUMP JUMPDEST DUP2 ADD DUP2 DUP2 LT PUSH8 0xFFFFFFFFFFFFFFFF DUP3 GT OR ISZERO PUSH3 0x100F JUMPI PUSH3 0x100E PUSH3 0x1047 JUMP JUMPDEST JUMPDEST DUP1 PUSH1 0x40 MSTORE POP POP POP JUMP JUMPDEST PUSH32 0x4E487B7100000000000000000000000000000000000000000000000000000000 PUSH1 0x0 MSTORE PUSH1 0x22 PUSH1 0x4 MSTORE PUSH1 0x24 PUSH1 0x0 REVERT JUMPDEST PUSH32 0x4E487B7100000000000000000000000000000000000000000000000000000000 PUSH1 0x0 MSTORE PUSH1 0x41 PUSH1 0x4 MSTORE PUSH1 0x24 PUSH1 0x0 REVERT JUMPDEST PUSH1 0x0 PUSH3 0x1084 DUP3 SLOAD PUSH3 0xFC4 JUMP JUMPDEST SWAP1 POP SWAP2 SWAP1 POP JUMP JUMPDEST PUSH1 0x0 PUSH1 0x1F NOT PUSH1 0x1F DUP4 ADD AND SWAP1 POP SWAP2 SWAP1 POP JUMP JUMPDEST PUSH1 0x0 DUP2 PUSH1 0x0 SHR SWAP1 POP SWAP2 SWAP1 POP JUMP JUMPDEST PUSH32 0x497373756520616C72656164792065786973747320666F7220676976656E2069 PUSH1 0x0 DUP3 ADD MSTORE PUSH32 0x642E2046696E642069747320616464726573732062792063616C6C696E672069 PUSH1 0x20 DUP3 ADD MSTORE PUSH32 0x73737565546F41646472657373206F6E207468697320636F6E74726163742077 PUSH1 0x40 DUP3 ADD MSTORE PUSH32 0x6974682074686520697373756549640000000000000000000000000000000000 PUSH1 0x60 DUP3 ADD MSTORE POP JUMP JUMPDEST PUSH3 0x114F DUP2 PUSH3 0xF0B JUMP JUMPDEST DUP2 EQ PUSH3 0x115B JUMPI PUSH1 0x0 DUP1 REVERT JUMPDEST POP JUMP JUMPDEST PUSH3 0x1169 DUP2 PUSH3 0xF3F JUMP JUMPDEST DUP2 EQ PUSH3 0x1175 JUMPI PUSH1 0x0 DUP1 REVERT JUMPDEST POP JUMP INVALID PUSH1 0x80 PUSH1 0x40 MSTORE CALLVALUE DUP1 ISZERO PUSH3 0x11 JUMPI PUSH1 0x0 DUP1 REVERT JUMPDEST POP PUSH1 0x40 MLOAD PUSH3 0xE99 CODESIZE SUB DUP1 PUSH3 0xE99 DUP4 CODECOPY DUP2 DUP2 ADD PUSH1 0x40 MSTORE DUP2 ADD SWAP1 PUSH3 0x37 SWAP2 SWAP1 PUSH3 0x31C JUMP JUMPDEST DUP2 PUSH1 0x0 SWAP1 DUP1 MLOAD SWAP1 PUSH1 0x20 ADD SWAP1 PUSH3 0x4F SWAP3 SWAP2 SWAP1 PUSH3 0xB2 JUMP JUMPDEST POP CALLER PUSH1 0x1 PUSH1 0x0 PUSH2 0x100 EXP DUP2 SLOAD DUP2 PUSH20 0xFFFFFFFFFFFFFFFFFFFFFFFFFFFFFFFFFFFFFFFF MUL NOT AND SWAP1 DUP4 PUSH20 0xFFFFFFFFFFFFFFFFFFFFFFFFFFFFFFFFFFFFFFFF AND MUL OR SWAP1 SSTORE POP DUP1 PUSH1 0x2 SWAP1 DUP1 MLOAD SWAP1 PUSH1 0x20 ADD SWAP1 PUSH3 0xA9 SWAP3 SWAP2 SWAP1 PUSH3 0x143 JUMP JUMPDEST POP POP POP PUSH3 0x57C JUMP JUMPDEST DUP3 DUP1 SLOAD PUSH3 0xC0 SWAP1 PUSH3 0x487 JUMP JUMPDEST SWAP1 PUSH1 0x0 MSTORE PUSH1 0x20 PUSH1 0x0 KECCAK256 SWAP1 PUSH1 0x1F ADD PUSH1 0x20 SWAP1 DIV DUP2 ADD SWAP3 DUP3 PUSH3 0xE4 JUMPI PUSH1 0x0 DUP6 SSTORE PUSH3 0x130 JUMP JUMPDEST DUP3 PUSH1 0x1F LT PUSH3 0xFF JUMPI DUP1 MLOAD PUSH1 0xFF NOT AND DUP4 DUP1 ADD OR DUP6 SSTORE PUSH3 0x130 JUMP JUMPDEST DUP3 DUP1 ADD PUSH1 0x1 ADD DUP6 SSTORE DUP3 ISZERO PUSH3 0x130 JUMPI SWAP2 DUP3 ADD JUMPDEST DUP3 DUP2 GT ISZERO PUSH3 0x12F JUMPI DUP3 MLOAD DUP3 SSTORE SWAP2 PUSH1 0x20 ADD SWAP2 SWAP1 PUSH1 0x1 ADD SWAP1 PUSH3 0x112 JUMP JUMPDEST JUMPDEST POP SWAP1 POP PUSH3 0x13F SWAP2 SWAP1 PUSH3 0x1D2 JUMP JUMPDEST POP SWAP1 JUMP JUMPDEST DUP3 DUP1 SLOAD DUP3 DUP3 SSTORE SWAP1 PUSH1 0x0 MSTORE PUSH1 0x20 PUSH1 0x0 KECCAK256 SWAP1 DUP2 ADD SWAP3 DUP3 ISZERO PUSH3 0x1BF JUMPI SWAP2 PUSH1 0x20 MUL DUP3 ADD JUMPDEST DUP3 DUP2 GT ISZERO PUSH3 0x1BE JUMPI DUP3 MLOAD DUP3 PUSH1 0x0 PUSH2 0x100 EXP DUP2 SLOAD DUP2 PUSH20 0xFFFFFFFFFFFFFFFFFFFFFFFFFFFFFFFFFFFFFFFF MUL NOT AND SWAP1 DUP4 PUSH20 0xFFFFFFFFFFFFFFFFFFFFFFFFFFFFFFFFFFFFFFFF AND MUL OR SWAP1 SSTORE POP SWAP2 PUSH1 0x20 ADD SWAP2 SWAP1 PUSH1 0x1 ADD SWAP1 PUSH3 0x164 JUMP JUMPDEST JUMPDEST POP SWAP1 POP PUSH3 0x1CE SWAP2 SWAP1 PUSH3 0x1D2 JUMP JUMPDEST POP SWAP1 JUMP JUMPDEST JUMPDEST DUP1 DUP3 GT ISZERO PUSH3 0x1ED JUMPI PUSH1 0x0 DUP2 PUSH1 0x0 SWAP1 SSTORE POP PUSH1 0x1 ADD PUSH3 0x1D3 JUMP JUMPDEST POP SWAP1 JUMP JUMPDEST PUSH1 0x0 PUSH3 0x208 PUSH3 0x202 DUP5 PUSH3 0x3B8 JUMP JUMPDEST PUSH3 0x38F JUMP JUMPDEST SWAP1 POP DUP1 DUP4 DUP3 MSTORE PUSH1 0x20 DUP3 ADD SWAP1 POP DUP3 DUP6 PUSH1 0x20 DUP7 MUL DUP3 ADD GT ISZERO PUSH3 0x228 JUMPI PUSH1 0x0 DUP1 REVERT JUMPDEST PUSH1 0x0 JUMPDEST DUP6 DUP2 LT ISZERO PUSH3 0x25C JUMPI DUP2 PUSH3 0x241 DUP9 DUP3 PUSH3 0x2AB JUMP JUMPDEST DUP5 MSTORE PUSH1 0x20 DUP5 ADD SWAP4 POP PUSH1 0x20 DUP4 ADD SWAP3 POP POP PUSH1 0x1 DUP2 ADD SWAP1 POP PUSH3 0x22B JUMP JUMPDEST POP POP POP SWAP4 SWAP3 POP POP POP JUMP JUMPDEST PUSH1 0x0 PUSH3 0x27D PUSH3 0x277 DUP5 PUSH3 0x3E7 JUMP JUMPDEST PUSH3 0x38F JUMP JUMPDEST SWAP1 POP DUP3 DUP2 MSTORE PUSH1 0x20 DUP2 ADD DUP5 DUP5 DUP5 ADD GT ISZERO PUSH3 0x296 JUMPI PUSH1 0x0 DUP1 REVERT JUMPDEST PUSH3 0x2A3 DUP5 DUP3 DUP6 PUSH3 0x451 JUMP JUMPDEST POP SWAP4 SWAP3 POP POP POP JUMP JUMPDEST PUSH1 0x0 DUP2 MLOAD SWAP1 POP PUSH3 0x2BC DUP2 PUSH3 0x562 JUMP JUMPDEST SWAP3 SWAP2 POP POP JUMP JUMPDEST PUSH1 0x0 DUP3 PUSH1 0x1F DUP4 ADD SLT PUSH3 0x2D4 JUMPI PUSH1 0x0 DUP1 REVERT JUMPDEST DUP2 MLOAD PUSH3 0x2E6 DUP5 DUP3 PUSH1 0x20 DUP7 ADD PUSH3 0x1F1 JUMP JUMPDEST SWAP2 POP POP SWAP3 SWAP2 POP POP JUMP JUMPDEST PUSH1 0x0 DUP3 PUSH1 0x1F DUP4 ADD SLT PUSH3 0x301 JUMPI PUSH1 0x0 DUP1 REVERT JUMPDEST DUP2 MLOAD PUSH3 0x313 DUP5 DUP3 PUSH1 0x20 DUP7 ADD PUSH3 0x266 JUMP JUMPDEST SWAP2 POP POP SWAP3 SWAP2 POP POP JUMP JUMPDEST PUSH1 0x0 DUP1 PUSH1 0x40 DUP4 DUP6 SUB SLT ISZERO PUSH3 0x330 JUMPI PUSH1 0x0 DUP1 REVERT JUMPDEST PUSH1 0x0 DUP4 ADD MLOAD PUSH8 0xFFFFFFFFFFFFFFFF DUP2 GT ISZERO PUSH3 0x34B JUMPI PUSH1 0x0 DUP1 REVERT JUMPDEST PUSH3 0x359 DUP6 DUP3 DUP7 ADD PUSH3 0x2EF JUMP JUMPDEST SWAP3 POP POP PUSH1 0x20 DUP4 ADD MLOAD PUSH8 0xFFFFFFFFFFFFFFFF DUP2 GT ISZERO PUSH3 0x377 JUMPI PUSH1 0x0 DUP1 REVERT JUMPDEST PUSH3 0x385 DUP6 DUP3 DUP7 ADD PUSH3 0x2C2 JUMP JUMPDEST SWAP2 POP POP SWAP3 POP SWAP3 SWAP1 POP JUMP JUMPDEST PUSH1 0x0 PUSH3 0x39B PUSH3 0x3AE JUMP JUMPDEST SWAP1 POP PUSH3 0x3A9 DUP3 DUP3 PUSH3 0x4BD JUMP JUMPDEST SWAP2 SWAP1 POP JUMP JUMPDEST PUSH1 0x0 PUSH1 0x40 MLOAD SWAP1 POP SWAP1 JUMP JUMPDEST PUSH1 0x0 PUSH8 0xFFFFFFFFFFFFFFFF DUP3 GT ISZERO PUSH3 0x3D6 JUMPI PUSH3 0x3D5 PUSH3 0x522 JUMP JUMPDEST JUMPDEST PUSH1 0x20 DUP3 MUL SWAP1 POP PUSH1 0x20 DUP2 ADD SWAP1 POP SWAP2 SWAP1 POP JUMP JUMPDEST PUSH1 0x0 PUSH8 0xFFFFFFFFFFFFFFFF DUP3 GT ISZERO PUSH3 0x405 JUMPI PUSH3 0x404 PUSH3 0x522 JUMP JUMPDEST JUMPDEST PUSH3 0x410 DUP3 PUSH3 0x551 JUMP JUMPDEST SWAP1 POP PUSH1 0x20 DUP2 ADD SWAP1 POP SWAP2 SWAP1 POP JUMP JUMPDEST PUSH1 0x0 PUSH3 0x42A DUP3 PUSH3 0x431 JUMP JUMPDEST SWAP1 POP SWAP2 SWAP1 POP JUMP JUMPDEST PUSH1 0x0 PUSH20 0xFFFFFFFFFFFFFFFFFFFFFFFFFFFFFFFFFFFFFFFF DUP3 AND SWAP1 POP SWAP2 SWAP1 POP JUMP JUMPDEST PUSH1 0x0 JUMPDEST DUP4 DUP2 LT ISZERO PUSH3 0x471 JUMPI DUP1 DUP3 ADD MLOAD DUP2 DUP5 ADD MSTORE PUSH1 0x20 DUP2 ADD SWAP1 POP PUSH3 0x454 JUMP JUMPDEST DUP4 DUP2 GT ISZERO PUSH3 0x481 JUMPI PUSH1 0x0 DUP5 DUP5 ADD MSTORE JUMPDEST POP POP POP POP JUMP JUMPDEST PUSH1 0x0 PUSH1 0x2 DUP3 DIV SWAP1 POP PUSH1 0x1 DUP3 AND DUP1 PUSH3 0x4A0 JUMPI PUSH1 0x7F DUP3 AND SWAP2 POP JUMPDEST PUSH1 0x20 DUP3 LT DUP2 EQ ISZERO PUSH3 0x4B7 JUMPI PUSH3 0x4B6 PUSH3 0x4F3 JUMP JUMPDEST JUMPDEST POP SWAP2 SWAP1 POP JUMP JUMPDEST PUSH3 0x4C8 DUP3 PUSH3 0x551 JUMP JUMPDEST DUP2 ADD DUP2 DUP2 LT PUSH8 0xFFFFFFFFFFFFFFFF DUP3 GT OR ISZERO PUSH3 0x4EA JUMPI PUSH3 0x4E9 PUSH3 0x522 JUMP JUMPDEST JUMPDEST DUP1 PUSH1 0x40 MSTORE POP POP POP JUMP JUMPDEST PUSH32 0x4E487B7100000000000000000000000000000000000000000000000000000000 PUSH1 0x0 MSTORE PUSH1 0x22 PUSH1 0x4 MSTORE PUSH1 0x24 PUSH1 0x0 REVERT JUMPDEST PUSH32 0x4E487B7100000000000000000000000000000000000000000000000000000000 PUSH1 0x0 MSTORE PUSH1 0x41 PUSH1 0x4 MSTORE PUSH1 0x24 PUSH1 0x0 REVERT JUMPDEST PUSH1 0x0 PUSH1 0x1F NOT PUSH1 0x1F DUP4 ADD AND SWAP1 POP SWAP2 SWAP1 POP JUMP JUMPDEST PUSH3 0x56D DUP2 PUSH3 0x41D JUMP JUMPDEST DUP2 EQ PUSH3 0x579 JUMPI PUSH1 0x0 DUP1 REVERT JUMPDEST POP JUMP JUMPDEST PUSH2 0x90D DUP1 PUSH3 0x58C PUSH1 0x0 CODECOPY PUSH1 0x0 RETURN INVALID PUSH1 0x80 PUSH1 0x40 MSTORE CALLVALUE DUP1 ISZERO PUSH2 0x10 JUMPI PUSH1 0x0 DUP1 REVERT JUMPDEST POP PUSH1 0x4 CALLDATASIZE LT PUSH2 0x57 JUMPI PUSH1 0x0 CALLDATALOAD PUSH1 0xE0 SHR DUP1 PUSH4 0x8DA5CB5B EQ PUSH2 0x5C JUMPI DUP1 PUSH4 0x9375DD90 EQ PUSH2 0x7A JUMPI DUP1 PUSH4 0xAF640D0F EQ PUSH2 0x96 JUMPI DUP1 PUSH4 0xB588D225 EQ PUSH2 0xB4 JUMPI DUP1 PUSH4 0xE5DF8B84 EQ PUSH2 0xE4 JUMPI JUMPDEST PUSH1 0x0 DUP1 REVERT JUMPDEST PUSH2 0x64 PUSH2 0x114 JUMP JUMPDEST PUSH1 0x40 MLOAD PUSH2 0x71 SWAP2 SWAP1 PUSH2 0x647 JUMP JUMPDEST PUSH1 0x40 MLOAD DUP1 SWAP2 SUB SWAP1 RETURN JUMPDEST PUSH2 0x94 PUSH1 0x4 DUP1 CALLDATASIZE SUB DUP2 ADD SWAP1 PUSH2 0x8F SWAP2 SWAP1 PUSH2 0x529 JUMP JUMPDEST PUSH2 0x13A JUMP JUMPDEST STOP JUMPDEST PUSH2 0x9E PUSH2 0x371 JUMP JUMPDEST PUSH1 0x40 MLOAD PUSH2 0xAB SWAP2 SWAP1 PUSH2 0x68B JUMP JUMPDEST PUSH1 0x40 MLOAD DUP1 SWAP2 SUB SWAP1 RETURN JUMPDEST PUSH2 0xCE PUSH1 0x4 DUP1 CALLDATASIZE SUB DUP2 ADD SWAP1 PUSH2 0xC9 SWAP2 SWAP1 PUSH2 0x529 JUMP JUMPDEST PUSH2 0x3FF JUMP JUMPDEST PUSH1 0x40 MLOAD PUSH2 0xDB SWAP2 SWAP1 PUSH2 0x6CD JUMP JUMPDEST PUSH1 0x40 MLOAD DUP1 SWAP2 SUB SWAP1 RETURN JUMPDEST PUSH2 0xFE PUSH1 0x4 DUP1 CALLDATASIZE SUB DUP2 ADD SWAP1 PUSH2 0xF9 SWAP2 SWAP1 PUSH2 0x57B JUMP JUMPDEST PUSH2 0x496 JUMP JUMPDEST PUSH1 0x40 MLOAD PUSH2 0x10B SWAP2 SWAP1 PUSH2 0x647 JUMP JUMPDEST PUSH1 0x40 MLOAD DUP1 SWAP2 SUB SWAP1 RETURN JUMPDEST PUSH1 0x1 PUSH1 0x0 SWAP1 SLOAD SWAP1 PUSH2 0x100 EXP SWAP1 DIV PUSH20 0xFFFFFFFFFFFFFFFFFFFFFFFFFFFFFFFFFFFFFFFF AND DUP2 JUMP JUMPDEST PUSH1 0x1 PUSH1 0x0 SWAP1 SLOAD SWAP1 PUSH2 0x100 EXP SWAP1 DIV PUSH20 0xFFFFFFFFFFFFFFFFFFFFFFFFFFFFFFFFFFFFFFFF AND PUSH20 0xFFFFFFFFFFFFFFFFFFFFFFFFFFFFFFFFFFFFFFFF AND CALLER PUSH20 0xFFFFFFFFFFFFFFFFFFFFFFFFFFFFFFFFFFFFFFFF AND EQ PUSH2 0x1CA JUMPI PUSH1 0x40 MLOAD PUSH32 0x8C379A000000000000000000000000000000000000000000000000000000000 DUP2 MSTORE PUSH1 0x4 ADD PUSH2 0x1C1 SWAP1 PUSH2 0x6AD JUMP JUMPDEST PUSH1 0x40 MLOAD DUP1 SWAP2 SUB SWAP1 REVERT JUMPDEST PUSH1 0x0 JUMPDEST PUSH1 0x2 DUP1 SLOAD SWAP1 POP DUP2 LT ISZERO PUSH2 0x36D JUMPI PUSH1 0x0 PUSH1 0x2 DUP3 DUP2 SLOAD DUP2 LT PUSH2 0x216 JUMPI PUSH32 0x4E487B7100000000000000000000000000000000000000000000000000000000 PUSH1 0x0 MSTORE PUSH1 0x32 PUSH1 0x4 MSTORE PUSH1 0x24 PUSH1 0x0 REVERT JUMPDEST SWAP1 PUSH1 0x0 MSTORE PUSH1 0x20 PUSH1 0x0 KECCAK256 ADD PUSH1 0x0 SWAP1 SLOAD SWAP1 PUSH2 0x100 EXP SWAP1 DIV PUSH20 0xFFFFFFFFFFFFFFFFFFFFFFFFFFFFFFFFFFFFFFFF AND SWAP1 POP DUP1 PUSH20 0xFFFFFFFFFFFFFFFFFFFFFFFFFFFFFFFFFFFFFFFF AND PUSH4 0xA9059CBB DUP5 DUP4 PUSH20 0xFFFFFFFFFFFFFFFFFFFFFFFFFFFFFFFFFFFFFFFF AND PUSH4 0x70A08231 ADDRESS PUSH1 0x40 MLOAD DUP3 PUSH4 0xFFFFFFFF AND PUSH1 0xE0 SHL DUP2 MSTORE PUSH1 0x4 ADD PUSH2 0x299 SWAP2 SWAP1 PUSH2 0x647 JUMP JUMPDEST PUSH1 0x20 PUSH1 0x40 MLOAD DUP1 DUP4 SUB DUP2 DUP7 DUP1 EXTCODESIZE ISZERO DUP1 ISZERO PUSH2 0x2B1 JUMPI PUSH1 0x0 DUP1 REVERT JUMPDEST POP GAS STATICCALL ISZERO DUP1 ISZERO PUSH2 0x2C5 JUMPI RETURNDATASIZE PUSH1 0x0 DUP1 RETURNDATACOPY RETURNDATASIZE PUSH1 0x0 REVERT JUMPDEST POP POP POP POP PUSH1 0x40 MLOAD RETURNDATASIZE PUSH1 0x1F NOT PUSH1 0x1F DUP3 ADD AND DUP3 ADD DUP1 PUSH1 0x40 MSTORE POP DUP2 ADD SWAP1 PUSH2 0x2E9 SWAP2 SWAP1 PUSH2 0x5A4 JUMP JUMPDEST PUSH1 0x40 MLOAD DUP4 PUSH4 0xFFFFFFFF AND PUSH1 0xE0 SHL DUP2 MSTORE PUSH1 0x4 ADD PUSH2 0x306 SWAP3 SWAP2 SWAP1 PUSH2 0x662 JUMP JUMPDEST PUSH1 0x20 PUSH1 0x40 MLOAD DUP1 DUP4 SUB DUP2 PUSH1 0x0 DUP8 DUP1 EXTCODESIZE ISZERO DUP1 ISZERO PUSH2 0x320 JUMPI PUSH1 0x0 DUP1 REVERT JUMPDEST POP GAS CALL ISZERO DUP1 ISZERO PUSH2 0x334 JUMPI RETURNDATASIZE PUSH1 0x0 DUP1 RETURNDATACOPY RETURNDATASIZE PUSH1 0x0 REVERT JUMPDEST POP POP POP POP PUSH1 0x40 MLOAD RETURNDATASIZE PUSH1 0x1F NOT PUSH1 0x1F DUP3 ADD AND DUP3 ADD DUP1 PUSH1 0x40 MSTORE POP DUP2 ADD SWAP1 PUSH2 0x358 SWAP2 SWAP1 PUSH2 0x552 JUMP JUMPDEST POP POP DUP1 DUP1 PUSH2 0x365 SWAP1 PUSH2 0x7B1 JUMP JUMPDEST SWAP2 POP POP PUSH2 0x1CD JUMP JUMPDEST POP POP JUMP JUMPDEST PUSH1 0x0 DUP1 SLOAD PUSH2 0x37E SWAP1 PUSH2 0x77F JUMP JUMPDEST DUP1 PUSH1 0x1F ADD PUSH1 0x20 DUP1 SWAP2 DIV MUL PUSH1 0x20 ADD PUSH1 0x40 MLOAD SWAP1 DUP2 ADD PUSH1 0x40 MSTORE DUP1 SWAP3 SWAP2 SWAP1 DUP2 DUP2 MSTORE PUSH1 0x20 ADD DUP3 DUP1 SLOAD PUSH2 0x3AA SWAP1 PUSH2 0x77F JUMP JUMPDEST DUP1 ISZERO PUSH2 0x3F7 JUMPI DUP1 PUSH1 0x1F LT PUSH2 0x3CC JUMPI PUSH2 0x100 DUP1 DUP4 SLOAD DIV MUL DUP4 MSTORE SWAP2 PUSH1 0x20 ADD SWAP2 PUSH2 0x3F7 JUMP JUMPDEST DUP3 ADD SWAP2 SWAP1 PUSH1 0x0 MSTORE PUSH1 0x20 PUSH1 0x0 KECCAK256 SWAP1 JUMPDEST DUP2 SLOAD DUP2 MSTORE SWAP1 PUSH1 0x1 ADD SWAP1 PUSH1 0x20 ADD DUP1 DUP4 GT PUSH2 0x3DA JUMPI DUP3 SWAP1 SUB PUSH1 0x1F AND DUP3 ADD SWAP2 JUMPDEST POP POP POP POP POP DUP2 JUMP JUMPDEST PUSH1 0x0 DUP1 DUP3 SWAP1 POP DUP1 PUSH20 0xFFFFFFFFFFFFFFFFFFFFFFFFFFFFFFFFFFFFFFFF AND PUSH4 0x70A08231 ADDRESS PUSH1 0x40 MLOAD DUP3 PUSH4 0xFFFFFFFF AND PUSH1 0xE0 SHL DUP2 MSTORE PUSH1 0x4 ADD PUSH2 0x43E SWAP2 SWAP1 PUSH2 0x647 JUMP JUMPDEST PUSH1 0x20 PUSH1 0x40 MLOAD DUP1 DUP4 SUB DUP2 DUP7 DUP1 EXTCODESIZE ISZERO DUP1 ISZERO PUSH2 0x456 JUMPI PUSH1 0x0 DUP1 REVERT JUMPDEST POP GAS STATICCALL ISZERO DUP1 ISZERO PUSH2 0x46A JUMPI RETURNDATASIZE PUSH1 0x0 DUP1 RETURNDATACOPY RETURNDATASIZE PUSH1 0x0 REVERT JUMPDEST POP POP POP POP PUSH1 0x40 MLOAD RETURNDATASIZE PUSH1 0x1F NOT PUSH1 0x1F DUP3 ADD AND DUP3 ADD DUP1 PUSH1 0x40 MSTORE POP DUP2 ADD SWAP1 PUSH2 0x48E SWAP2 SWAP1 PUSH2 0x5A4 JUMP JUMPDEST SWAP2 POP POP SWAP2 SWAP1 POP JUMP JUMPDEST PUSH1 0x2 DUP2 DUP2 SLOAD DUP2 LT PUSH2 0x4A6 JUMPI PUSH1 0x0 DUP1 REVERT JUMPDEST SWAP1 PUSH1 0x0 MSTORE PUSH1 0x20 PUSH1 0x0 KECCAK256 ADD PUSH1 0x0 SWAP2 POP SLOAD SWAP1 PUSH2 0x100 EXP SWAP1 DIV PUSH20 0xFFFFFFFFFFFFFFFFFFFFFFFFFFFFFFFFFFFFFFFF AND DUP2 JUMP JUMPDEST PUSH1 0x0 DUP2 CALLDATALOAD SWAP1 POP PUSH2 0x4E4 DUP2 PUSH2 0x892 JUMP JUMPDEST SWAP3 SWAP2 POP POP JUMP JUMPDEST PUSH1 0x0 DUP2 MLOAD SWAP1 POP PUSH2 0x4F9 DUP2 PUSH2 0x8A9 JUMP JUMPDEST SWAP3 SWAP2 POP POP JUMP JUMPDEST PUSH1 0x0 DUP2 CALLDATALOAD SWAP1 POP PUSH2 0x50E DUP2 PUSH2 0x8C0 JUMP JUMPDEST SWAP3 SWAP2 POP POP JUMP JUMPDEST PUSH1 0x0 DUP2 MLOAD SWAP1 POP PUSH2 0x523 DUP2 PUSH2 0x8C0 JUMP JUMPDEST SWAP3 SWAP2 POP POP JUMP JUMPDEST PUSH1 0x0 PUSH1 0x20 DUP3 DUP5 SUB SLT ISZERO PUSH2 0x53B JUMPI PUSH1 0x0 DUP1 REVERT JUMPDEST PUSH1 0x0 PUSH2 0x549 DUP5 DUP3 DUP6 ADD PUSH2 0x4D5 JUMP JUMPDEST SWAP2 POP POP SWAP3 SWAP2 POP POP JUMP JUMPDEST PUSH1 0x0 PUSH1 0x20 DUP3 DUP5 SUB SLT ISZERO PUSH2 0x564 JUMPI PUSH1 0x0 DUP1 REVERT JUMPDEST PUSH1 0x0 PUSH2 0x572 DUP5 DUP3 DUP6 ADD PUSH2 0x4EA JUMP JUMPDEST SWAP2 POP POP SWAP3 SWAP2 POP POP JUMP JUMPDEST PUSH1 0x0 PUSH1 0x20 DUP3 DUP5 SUB SLT ISZERO PUSH2 0x58D JUMPI PUSH1 0x0 DUP1 REVERT JUMPDEST PUSH1 0x0 PUSH2 0x59B DUP5 DUP3 DUP6 ADD PUSH2 0x4FF JUMP JUMPDEST SWAP2 POP POP SWAP3 SWAP2 POP POP JUMP JUMPDEST PUSH1 0x0 PUSH1 0x20 DUP3 DUP5 SUB SLT ISZERO PUSH2 0x5B6 JUMPI PUSH1 0x0 DUP1 REVERT JUMPDEST PUSH1 0x0 PUSH2 0x5C4 DUP5 DUP3 DUP6 ADD PUSH2 0x514 JUMP JUMPDEST SWAP2 POP POP SWAP3 SWAP2 POP POP JUMP JUMPDEST PUSH2 0x5D6 DUP2 PUSH2 0x704 JUMP JUMPDEST DUP3 MSTORE POP POP JUMP JUMPDEST PUSH1 0x0 PUSH2 0x5E7 DUP3 PUSH2 0x6E8 JUMP JUMPDEST PUSH2 0x5F1 DUP2 DUP6 PUSH2 0x6F3 JUMP JUMPDEST SWAP4 POP PUSH2 0x601 DUP2 DUP6 PUSH1 0x20 DUP7 ADD PUSH2 0x74C JUMP JUMPDEST PUSH2 0x60A DUP2 PUSH2 0x858 JUMP JUMPDEST DUP5 ADD SWAP2 POP POP SWAP3 SWAP2 POP POP JUMP JUMPDEST PUSH1 0x0 PUSH2 0x622 PUSH1 0x1F DUP4 PUSH2 0x6F3 JUMP JUMPDEST SWAP2 POP PUSH2 0x62D DUP3 PUSH2 0x869 JUMP JUMPDEST PUSH1 0x20 DUP3 ADD SWAP1 POP SWAP2 SWAP1 POP JUMP JUMPDEST PUSH2 0x641 DUP2 PUSH2 0x742 JUMP JUMPDEST DUP3 MSTORE POP POP JUMP JUMPDEST PUSH1 0x0 PUSH1 0x20 DUP3 ADD SWAP1 POP PUSH2 0x65C PUSH1 0x0 DUP4 ADD DUP5 PUSH2 0x5CD JUMP JUMPDEST SWAP3 SWAP2 POP POP JUMP JUMPDEST PUSH1 0x0 PUSH1 0x40 DUP3 ADD SWAP1 POP PUSH2 0x677 PUSH1 0x0 DUP4 ADD DUP6 PUSH2 0x5CD JUMP JUMPDEST PUSH2 0x684 PUSH1 0x20 DUP4 ADD DUP5 PUSH2 0x638 JUMP JUMPDEST SWAP4 SWAP3 POP POP POP JUMP JUMPDEST PUSH1 0x0 PUSH1 0x20 DUP3 ADD SWAP1 POP DUP2 DUP2 SUB PUSH1 0x0 DUP4 ADD MSTORE PUSH2 0x6A5 DUP2 DUP5 PUSH2 0x5DC JUMP JUMPDEST SWAP1 POP SWAP3 SWAP2 POP POP JUMP JUMPDEST PUSH1 0x0 PUSH1 0x20 DUP3 ADD SWAP1 POP DUP2 DUP2 SUB PUSH1 0x0 DUP4 ADD MSTORE PUSH2 0x6C6 DUP2 PUSH2 0x615 JUMP JUMPDEST SWAP1 POP SWAP2 SWAP1 POP JUMP JUMPDEST PUSH1 0x0 PUSH1 0x20 DUP3 ADD SWAP1 POP PUSH2 0x6E2 PUSH1 0x0 DUP4 ADD DUP5 PUSH2 0x638 JUMP JUMPDEST SWAP3 SWAP2 POP POP JUMP JUMPDEST PUSH1 0x0 DUP2 MLOAD SWAP1 POP SWAP2 SWAP1 POP JUMP JUMPDEST PUSH1 0x0 DUP3 DUP3 MSTORE PUSH1 0x20 DUP3 ADD SWAP1 POP SWAP3 SWAP2 POP POP JUMP JUMPDEST PUSH1 0x0 PUSH2 0x70F DUP3 PUSH2 0x722 JUMP JUMPDEST SWAP1 POP SWAP2 SWAP1 POP JUMP JUMPDEST PUSH1 0x0 DUP2 ISZERO ISZERO SWAP1 POP SWAP2 SWAP1 POP JUMP JUMPDEST PUSH1 0x0 PUSH20 0xFFFFFFFFFFFFFFFFFFFFFFFFFFFFFFFFFFFFFFFF DUP3 AND SWAP1 POP SWAP2 SWAP1 POP JUMP JUMPDEST PUSH1 0x0 DUP2 SWAP1 POP SWAP2 SWAP1 POP JUMP JUMPDEST PUSH1 0x0 JUMPDEST DUP4 DUP2 LT ISZERO PUSH2 0x76A JUMPI DUP1 DUP3 ADD MLOAD DUP2 DUP5 ADD MSTORE PUSH1 0x20 DUP2 ADD SWAP1 POP PUSH2 0x74F JUMP JUMPDEST DUP4 DUP2 GT ISZERO PUSH2 0x779 JUMPI PUSH1 0x0 DUP5 DUP5 ADD MSTORE JUMPDEST POP POP POP POP JUMP JUMPDEST PUSH1 0x0 PUSH1 0x2 DUP3 DIV SWAP1 POP PUSH1 0x1 DUP3 AND DUP1 PUSH2 0x797 JUMPI PUSH1 0x7F DUP3 AND SWAP2 POP JUMPDEST PUSH1 0x20 DUP3 LT DUP2 EQ ISZERO PUSH2 0x7AB JUMPI PUSH2 0x7AA PUSH2 0x829 JUMP JUMPDEST JUMPDEST POP SWAP2 SWAP1 POP JUMP JUMPDEST PUSH1 0x0 PUSH2 0x7BC DUP3 PUSH2 0x742 JUMP JUMPDEST SWAP2 POP PUSH32 0xFFFFFFFFFFFFFFFFFFFFFFFFFFFFFFFFFFFFFFFFFFFFFFFFFFFFFFFFFFFFFFFF DUP3 EQ ISZERO PUSH2 0x7EF JUMPI PUSH2 0x7EE PUSH2 0x7FA JUMP JUMPDEST JUMPDEST PUSH1 0x1 DUP3 ADD SWAP1 POP SWAP2 SWAP1 POP JUMP JUMPDEST PUSH32 0x4E487B7100000000000000000000000000000000000000000000000000000000 PUSH1 0x0 MSTORE PUSH1 0x11 PUSH1 0x4 MSTORE PUSH1 0x24 PUSH1 0x0 REVERT JUMPDEST PUSH32 0x4E487B7100000000000000000000000000000000000000000000000000000000 PUSH1 0x0 MSTORE PUSH1 0x22 PUSH1 0x4 MSTORE PUSH1 0x24 PUSH1 0x0 REVERT JUMPDEST PUSH1 0x0 PUSH1 0x1F NOT PUSH1 0x1F DUP4 ADD AND SWAP1 POP SWAP2 SWAP1 POP JUMP JUMPDEST PUSH32 0x4F6E6C792063616C6C61626C65206279204F70656E5120636F6E747261637400 PUSH1 0x0 DUP3 ADD MSTORE POP JUMP JUMPDEST PUSH2 0x89B DUP2 PUSH2 0x704 JUMP JUMPDEST DUP2 EQ PUSH2 0x8A6 JUMPI PUSH1 0x0 DUP1 REVERT JUMPDEST POP JUMP JUMPDEST PUSH2 0x8B2 DUP2 PUSH2 0x716 JUMP JUMPDEST DUP2 EQ PUSH2 0x8BD JUMPI PUSH1 0x0 DUP1 REVERT JUMPDEST POP JUMP JUMPDEST PUSH2 0x8C9 DUP2 PUSH2 0x742 JUMP JUMPDEST DUP2 EQ PUSH2 0x8D4 JUMPI PUSH1 0x0 DUP1 REVERT JUMPDEST POP JUMP INVALID LOG2 PUSH5 0x6970667358 0x22 SLT KECCAK256 SUB 0xC8 BALANCE GASPRICE 0xCA PUSH14 0x946DA39C8C748464056CA16F5CA7 0xB0 0xAD ADDRESS INVALID PUSH29 0xE42069307F13D64736F6C63430008040033A2646970667358221220F8 0xE8 0xB0 SWAP12 0x4F AND SWAP11 0xAB STOP PUSH2 0x240E 0x1E 0xE2 0xD2 PUSH20 0xE5ECE503E743F0D6C2AF7929C71B111A64736F6C PUSH4 0x43000804 STOP CALLER "
        },
        "methodIdentifiers": {
          "addTokenAddress(address)": "51992fcb",
          "claimBounty(string,address)": "3e7da1a9",
          "getBountyAddress(string)": "fcedbecf",
          "getIssueIds()": "cde96283",
          "issueIds(uint256)": "4badc44e",
          "issueToAddress(string)": "eea7f924",
          "mintBounty(string)": "b233e6e8",
          "tokenAddresses(uint256)": "e5df8b84"
        }
      }
    }
  }
}