{
  "_format": "hh-sol-artifact-1",
  "contractName": "DepositManager",
  "sourceName": "contracts/DepositManager/DepositManager.sol",
  "abi": [
    {
      "inputs": [],
      "stateMutability": "nonpayable",
      "type": "constructor"
    },
    {
      "anonymous": false,
      "inputs": [
        {
          "indexed": false,
          "internalType": "address",
          "name": "previousAdmin",
          "type": "address"
        },
        {
          "indexed": false,
          "internalType": "address",
          "name": "newAdmin",
          "type": "address"
        }
      ],
      "name": "AdminChanged",
      "type": "event"
    },
    {
      "anonymous": false,
      "inputs": [
        {
          "indexed": true,
          "internalType": "address",
          "name": "beacon",
          "type": "address"
        }
      ],
      "name": "BeaconUpgraded",
      "type": "event"
    },
    {
      "anonymous": false,
      "inputs": [
        {
          "indexed": false,
          "internalType": "string",
          "name": "bountyId",
          "type": "string"
        },
        {
          "indexed": false,
          "internalType": "address",
          "name": "bountyAddress",
          "type": "address"
        },
        {
          "indexed": false,
          "internalType": "string",
          "name": "organization",
          "type": "string"
        },
        {
          "indexed": false,
          "internalType": "address",
          "name": "closer",
          "type": "address"
        },
        {
          "indexed": false,
          "internalType": "uint256",
          "name": "bountyClosedTime",
          "type": "uint256"
        },
        {
          "indexed": false,
          "internalType": "uint256",
          "name": "bountyType",
          "type": "uint256"
        },
        {
          "indexed": false,
          "internalType": "bytes",
          "name": "data",
          "type": "bytes"
        },
        {
          "indexed": false,
          "internalType": "uint256",
          "name": "version",
          "type": "uint256"
        }
      ],
      "name": "BountyClosed",
      "type": "event"
    },
    {
      "anonymous": false,
      "inputs": [
        {
          "indexed": false,
          "internalType": "string",
          "name": "bountyId",
          "type": "string"
        },
        {
          "indexed": false,
          "internalType": "string",
          "name": "organization",
          "type": "string"
        },
        {
          "indexed": false,
          "internalType": "address",
          "name": "issuerAddress",
          "type": "address"
        },
        {
          "indexed": false,
          "internalType": "address",
          "name": "bountyAddress",
          "type": "address"
        },
        {
          "indexed": false,
          "internalType": "uint256",
          "name": "bountyMintTime",
          "type": "uint256"
        },
        {
          "indexed": false,
          "internalType": "uint256",
          "name": "bountyType",
          "type": "uint256"
        },
        {
          "indexed": false,
          "internalType": "bytes",
          "name": "data",
          "type": "bytes"
        },
        {
          "indexed": false,
          "internalType": "uint256",
          "name": "version",
          "type": "uint256"
        }
      ],
      "name": "BountyCreated",
      "type": "event"
    },
    {
      "anonymous": false,
      "inputs": [
        {
          "indexed": false,
          "internalType": "uint256",
          "name": "claimTime",
          "type": "uint256"
        },
        {
          "indexed": false,
          "internalType": "uint256",
          "name": "bountyType",
          "type": "uint256"
        },
        {
          "indexed": false,
          "internalType": "bytes",
          "name": "data",
          "type": "bytes"
        },
        {
          "indexed": false,
          "internalType": "uint256",
          "name": "version",
          "type": "uint256"
        }
      ],
      "name": "ClaimSuccess",
      "type": "event"
    },
    {
      "anonymous": false,
      "inputs": [
        {
          "indexed": false,
          "internalType": "bytes32",
          "name": "depositId",
          "type": "bytes32"
        },
        {
          "indexed": false,
          "internalType": "uint256",
          "name": "newExpiration",
          "type": "uint256"
        },
        {
          "indexed": false,
          "internalType": "uint256",
          "name": "bountyType",
          "type": "uint256"
        },
        {
          "indexed": false,
          "internalType": "bytes",
          "name": "data",
          "type": "bytes"
        },
        {
          "indexed": false,
          "internalType": "uint256",
          "name": "version",
          "type": "uint256"
        }
      ],
      "name": "DepositExtended",
      "type": "event"
    },
    {
      "anonymous": false,
      "inputs": [
        {
          "indexed": false,
          "internalType": "bytes32",
          "name": "depositId",
          "type": "bytes32"
        },
        {
          "indexed": false,
          "internalType": "string",
          "name": "bountyId",
          "type": "string"
        },
        {
          "indexed": false,
          "internalType": "address",
          "name": "bountyAddress",
          "type": "address"
        },
        {
          "indexed": false,
          "internalType": "string",
          "name": "organization",
          "type": "string"
        },
        {
          "indexed": false,
          "internalType": "uint256",
          "name": "refundTime",
          "type": "uint256"
        },
        {
          "indexed": false,
          "internalType": "address",
          "name": "tokenAddress",
          "type": "address"
        },
        {
          "indexed": false,
          "internalType": "uint256",
          "name": "volume",
          "type": "uint256"
        },
        {
          "indexed": false,
          "internalType": "uint256",
          "name": "bountyType",
          "type": "uint256"
        },
        {
          "indexed": false,
          "internalType": "bytes",
          "name": "data",
          "type": "bytes"
        },
        {
          "indexed": false,
          "internalType": "uint256",
          "name": "version",
          "type": "uint256"
        }
      ],
      "name": "DepositRefunded",
      "type": "event"
    },
    {
      "anonymous": false,
      "inputs": [
        {
          "indexed": false,
          "internalType": "string",
          "name": "externalUserId",
          "type": "string"
        },
        {
          "indexed": false,
          "internalType": "address",
          "name": "newAddress",
          "type": "address"
        },
        {
          "indexed": false,
          "internalType": "bytes",
          "name": "data",
          "type": "bytes"
        },
        {
          "indexed": false,
          "internalType": "uint256",
          "name": "version",
          "type": "uint256"
        }
      ],
      "name": "ExternalUserIdAssociatedWithAddress",
      "type": "event"
    },
    {
      "anonymous": false,
      "inputs": [
        {
          "indexed": false,
          "internalType": "address",
          "name": "bountyAddress",
          "type": "address"
        },
        {
          "indexed": false,
          "internalType": "address",
          "name": "fundingGoalTokenAddress",
          "type": "address"
        },
        {
          "indexed": false,
          "internalType": "uint256",
          "name": "fundingGoalVolume",
          "type": "uint256"
        },
        {
          "indexed": false,
          "internalType": "uint256",
          "name": "bountyType",
          "type": "uint256"
        },
        {
          "indexed": false,
          "internalType": "bytes",
          "name": "data",
          "type": "bytes"
        },
        {
          "indexed": false,
          "internalType": "uint256",
          "name": "version",
          "type": "uint256"
        }
      ],
      "name": "FundingGoalSet",
      "type": "event"
    },
    {
      "anonymous": false,
      "inputs": [
        {
          "indexed": false,
          "internalType": "uint8",
          "name": "version",
          "type": "uint8"
        }
      ],
      "name": "Initialized",
      "type": "event"
    },
    {
      "anonymous": false,
      "inputs": [
        {
          "indexed": false,
          "internalType": "string",
          "name": "bountyId",
          "type": "string"
        },
        {
          "indexed": false,
          "internalType": "address",
          "name": "bountyAddress",
          "type": "address"
        },
        {
          "indexed": false,
          "internalType": "string",
          "name": "organization",
          "type": "string"
        },
        {
          "indexed": false,
          "internalType": "address",
          "name": "closer",
          "type": "address"
        },
        {
          "indexed": false,
          "internalType": "uint256",
          "name": "payoutTime",
          "type": "uint256"
        },
        {
          "indexed": false,
          "internalType": "address",
          "name": "tokenAddress",
          "type": "address"
        },
        {
          "indexed": false,
          "internalType": "uint256",
          "name": "tokenId",
          "type": "uint256"
        },
        {
          "indexed": false,
          "internalType": "uint256",
          "name": "bountyType",
          "type": "uint256"
        },
        {
          "indexed": false,
          "internalType": "bytes",
          "name": "data",
          "type": "bytes"
        },
        {
          "indexed": false,
          "internalType": "uint256",
          "name": "version",
          "type": "uint256"
        }
      ],
      "name": "NFTClaimed",
      "type": "event"
    },
    {
      "anonymous": false,
      "inputs": [
        {
          "indexed": false,
          "internalType": "bytes32",
          "name": "depositId",
          "type": "bytes32"
        },
        {
          "indexed": false,
          "internalType": "address",
          "name": "bountyAddress",
          "type": "address"
        },
        {
          "indexed": false,
          "internalType": "string",
          "name": "bountyId",
          "type": "string"
        },
        {
          "indexed": false,
          "internalType": "string",
          "name": "organization",
          "type": "string"
        },
        {
          "indexed": false,
          "internalType": "address",
          "name": "tokenAddress",
          "type": "address"
        },
        {
          "indexed": false,
          "internalType": "uint256",
          "name": "receiveTime",
          "type": "uint256"
        },
        {
          "indexed": false,
          "internalType": "address",
          "name": "sender",
          "type": "address"
        },
        {
          "indexed": false,
          "internalType": "uint256",
          "name": "expiration",
          "type": "uint256"
        },
        {
          "indexed": false,
          "internalType": "uint256",
          "name": "tokenId",
          "type": "uint256"
        },
        {
          "indexed": false,
          "internalType": "uint256",
          "name": "bountyType",
          "type": "uint256"
        },
        {
          "indexed": false,
          "internalType": "bytes",
          "name": "data",
          "type": "bytes"
        },
        {
          "indexed": false,
          "internalType": "uint256",
          "name": "version",
          "type": "uint256"
        }
      ],
      "name": "NFTDepositReceived",
      "type": "event"
    },
    {
      "anonymous": false,
      "inputs": [
        {
          "indexed": true,
          "internalType": "address",
          "name": "previousOwner",
          "type": "address"
        },
        {
          "indexed": true,
          "internalType": "address",
          "name": "newOwner",
          "type": "address"
        }
      ],
      "name": "OwnershipTransferred",
      "type": "event"
    },
    {
      "anonymous": false,
      "inputs": [
        {
          "indexed": false,
          "internalType": "address",
          "name": "bountyAddress",
          "type": "address"
        },
        {
          "indexed": false,
          "internalType": "address",
          "name": "payoutTokenAddress",
          "type": "address"
        },
        {
          "indexed": false,
          "internalType": "uint256[]",
          "name": "payoutSchedule",
          "type": "uint256[]"
        },
        {
          "indexed": false,
          "internalType": "uint256",
          "name": "bountyType",
          "type": "uint256"
        },
        {
          "indexed": false,
          "internalType": "bytes",
          "name": "data",
          "type": "bytes"
        },
        {
          "indexed": false,
          "internalType": "uint256",
          "name": "version",
          "type": "uint256"
        }
      ],
      "name": "PayoutScheduleSet",
      "type": "event"
    },
    {
      "anonymous": false,
      "inputs": [
        {
          "indexed": false,
          "internalType": "address",
          "name": "bountyAddress",
          "type": "address"
        },
        {
          "indexed": false,
          "internalType": "address",
          "name": "payoutTokenAddress",
          "type": "address"
        },
        {
          "indexed": false,
          "internalType": "uint256",
          "name": "payoutTokenVolume",
          "type": "uint256"
        },
        {
          "indexed": false,
          "internalType": "uint256",
          "name": "bountyType",
          "type": "uint256"
        },
        {
          "indexed": false,
          "internalType": "bytes",
          "name": "data",
          "type": "bytes"
        },
        {
          "indexed": false,
          "internalType": "uint256",
          "name": "version",
          "type": "uint256"
        }
      ],
      "name": "PayoutSet",
      "type": "event"
    },
    {
      "anonymous": false,
      "inputs": [
        {
          "indexed": false,
          "internalType": "address",
          "name": "bountyAddress",
          "type": "address"
        },
        {
          "indexed": false,
          "internalType": "address",
          "name": "claimant",
          "type": "address"
        },
        {
          "indexed": false,
          "internalType": "bytes",
          "name": "data",
          "type": "bytes"
        },
        {
          "indexed": false,
          "internalType": "uint256",
          "name": "version",
          "type": "uint256"
        }
      ],
      "name": "TierClaimed",
      "type": "event"
    },
    {
      "anonymous": false,
      "inputs": [
        {
          "indexed": false,
          "internalType": "string",
          "name": "bountyId",
          "type": "string"
        },
        {
          "indexed": false,
          "internalType": "address",
          "name": "bountyAddress",
          "type": "address"
        },
        {
          "indexed": false,
          "internalType": "string",
          "name": "organization",
          "type": "string"
        },
        {
          "indexed": false,
          "internalType": "address",
          "name": "closer",
          "type": "address"
        },
        {
          "indexed": false,
          "internalType": "uint256",
          "name": "payoutTime",
          "type": "uint256"
        },
        {
          "indexed": false,
          "internalType": "address",
          "name": "tokenAddress",
          "type": "address"
        },
        {
          "indexed": false,
          "internalType": "uint256",
          "name": "volume",
          "type": "uint256"
        },
        {
          "indexed": false,
          "internalType": "uint256",
          "name": "bountyType",
          "type": "uint256"
        },
        {
          "indexed": false,
          "internalType": "bytes",
          "name": "data",
          "type": "bytes"
        },
        {
          "indexed": false,
          "internalType": "uint256",
          "name": "version",
          "type": "uint256"
        }
      ],
      "name": "TokenBalanceClaimed",
      "type": "event"
    },
    {
      "anonymous": false,
      "inputs": [
        {
          "indexed": false,
          "internalType": "bytes32",
          "name": "depositId",
          "type": "bytes32"
        },
        {
          "indexed": false,
          "internalType": "address",
          "name": "bountyAddress",
          "type": "address"
        },
        {
          "indexed": false,
          "internalType": "string",
          "name": "bountyId",
          "type": "string"
        },
        {
          "indexed": false,
          "internalType": "string",
          "name": "organization",
          "type": "string"
        },
        {
          "indexed": false,
          "internalType": "address",
          "name": "tokenAddress",
          "type": "address"
        },
        {
          "indexed": false,
          "internalType": "uint256",
          "name": "receiveTime",
          "type": "uint256"
        },
        {
          "indexed": false,
          "internalType": "address",
          "name": "sender",
          "type": "address"
        },
        {
          "indexed": false,
          "internalType": "uint256",
          "name": "expiration",
          "type": "uint256"
        },
        {
          "indexed": false,
          "internalType": "uint256",
          "name": "volume",
          "type": "uint256"
        },
        {
          "indexed": false,
          "internalType": "uint256",
          "name": "bountyType",
          "type": "uint256"
        },
        {
          "indexed": false,
          "internalType": "bytes",
          "name": "data",
          "type": "bytes"
        },
        {
          "indexed": false,
          "internalType": "uint256",
          "name": "version",
          "type": "uint256"
        }
      ],
      "name": "TokenDepositReceived",
      "type": "event"
    },
    {
      "anonymous": false,
      "inputs": [
        {
          "indexed": true,
          "internalType": "address",
          "name": "implementation",
          "type": "address"
        }
      ],
      "name": "Upgraded",
      "type": "event"
    },
    {
      "inputs": [],
      "name": "VERSION_1",
      "outputs": [
        {
          "internalType": "uint256",
          "name": "",
          "type": "uint256"
        }
      ],
      "stateMutability": "view",
      "type": "function"
    },
    {
      "inputs": [
        {
          "internalType": "address",
          "name": "_bountyAddress",
          "type": "address"
        }
      ],
      "name": "bountyIsOpen",
      "outputs": [
        {
          "internalType": "bool",
          "name": "",
          "type": "bool"
        }
      ],
      "stateMutability": "view",
      "type": "function"
    },
    {
      "inputs": [
        {
          "internalType": "address",
          "name": "_bountyAddress",
          "type": "address"
        },
        {
          "internalType": "bytes32",
          "name": "_depositId",
          "type": "bytes32"
        },
        {
          "internalType": "uint256",
          "name": "_seconds",
          "type": "uint256"
        }
      ],
      "name": "extendDeposit",
      "outputs": [],
      "stateMutability": "nonpayable",
      "type": "function"
    },
    {
      "inputs": [
        {
          "internalType": "address",
          "name": "_bountyAddress",
          "type": "address"
        },
        {
          "internalType": "address",
          "name": "_tokenAddress",
          "type": "address"
        },
        {
          "internalType": "uint256",
          "name": "_tokenId",
          "type": "uint256"
        },
        {
          "internalType": "uint256",
          "name": "_expiration",
          "type": "uint256"
        },
        {
          "internalType": "uint256",
          "name": "_tier",
          "type": "uint256"
        }
      ],
      "name": "fundBountyNFT",
      "outputs": [],
      "stateMutability": "nonpayable",
      "type": "function"
    },
    {
      "inputs": [
        {
          "internalType": "address",
          "name": "_bountyAddress",
          "type": "address"
        },
        {
          "internalType": "address",
          "name": "_tokenAddress",
          "type": "address"
        },
        {
          "internalType": "uint256",
          "name": "_volume",
          "type": "uint256"
        },
        {
          "internalType": "uint256",
          "name": "_expiration",
          "type": "uint256"
        }
      ],
      "name": "fundBountyToken",
      "outputs": [],
      "stateMutability": "payable",
      "type": "function"
    },
    {
      "inputs": [],
      "name": "initialize",
      "outputs": [],
      "stateMutability": "nonpayable",
      "type": "function"
    },
    {
      "inputs": [
        {
          "internalType": "address",
          "name": "_tokenAddress",
          "type": "address"
        }
      ],
      "name": "isWhitelisted",
      "outputs": [
        {
          "internalType": "bool",
          "name": "",
          "type": "bool"
        }
      ],
      "stateMutability": "view",
      "type": "function"
    },
    {
      "inputs": [],
      "name": "openQTokenWhitelist",
      "outputs": [
        {
          "internalType": "contract OpenQTokenWhitelist",
          "name": "",
          "type": "address"
        }
      ],
      "stateMutability": "view",
      "type": "function"
    },
    {
      "inputs": [],
      "name": "owner",
      "outputs": [
        {
          "internalType": "address",
          "name": "",
          "type": "address"
        }
      ],
      "stateMutability": "view",
      "type": "function"
    },
    {
      "inputs": [],
      "name": "proxiableUUID",
      "outputs": [
        {
          "internalType": "bytes32",
          "name": "",
          "type": "bytes32"
        }
      ],
      "stateMutability": "view",
      "type": "function"
    },
    {
      "inputs": [
        {
          "internalType": "address",
          "name": "_bountyAddress",
          "type": "address"
        },
        {
          "internalType": "bytes32",
          "name": "_depositId",
          "type": "bytes32"
        }
      ],
      "name": "refundDeposit",
      "outputs": [],
      "stateMutability": "nonpayable",
      "type": "function"
    },
    {
      "inputs": [],
      "name": "renounceOwnership",
      "outputs": [],
      "stateMutability": "nonpayable",
      "type": "function"
    },
    {
      "inputs": [
        {
          "internalType": "address",
          "name": "_openQTokenWhitelist",
          "type": "address"
        }
      ],
      "name": "setTokenWhitelist",
      "outputs": [],
      "stateMutability": "nonpayable",
      "type": "function"
    },
    {
      "inputs": [
        {
          "internalType": "address",
          "name": "_bountyAddress",
          "type": "address"
        }
      ],
      "name": "tokenAddressLimitReached",
      "outputs": [
        {
          "internalType": "bool",
          "name": "",
          "type": "bool"
        }
      ],
      "stateMutability": "view",
      "type": "function"
    },
    {
      "inputs": [
        {
          "internalType": "address",
          "name": "newOwner",
          "type": "address"
        }
      ],
      "name": "transferOwnership",
      "outputs": [],
      "stateMutability": "nonpayable",
      "type": "function"
    },
    {
      "inputs": [
        {
          "internalType": "address",
          "name": "newImplementation",
          "type": "address"
        }
      ],
      "name": "upgradeTo",
      "outputs": [],
      "stateMutability": "nonpayable",
      "type": "function"
    },
    {
      "inputs": [
        {
          "internalType": "address",
          "name": "newImplementation",
          "type": "address"
        },
        {
          "internalType": "bytes",
          "name": "data",
          "type": "bytes"
        }
      ],
      "name": "upgradeToAndCall",
      "outputs": [],
      "stateMutability": "payable",
      "type": "function"
    }
  ],
  "bytecode": "0x60a06040523060805234801561001457600080fd5b50608051612429610092600039600081816103fc01528181610445015281816106360152818161067601528181610773015281816107b30152818161082c0152818161086c01528181610b7201528181610bb201528181610c3701528181610ce701528181610d270152818161116201526111a201526124296000f3fe6080604052600436106100fe5760003560e01c806352d1902d116100955780638da5cb5b116100645780638da5cb5b14610262578063975b961514610294578063d0dec359146102b4578063f2fde38b146102d4578063f75161c6146102f457600080fd5b806352d1902d146102035780636da585e214610218578063715018a6146102385780638129fc1c1461024d57600080fd5b80633af32abf116100d15780633af32abf1461019d5780634f1ef286146101bd5780635255008c146101d0578063527b22db146101e357600080fd5b806326c20e5f146101035780632fa0ac291461012b57806332fe1fec1461015b5780633659cfe61461017d575b600080fd5b34801561010f57600080fd5b50610118600181565b6040519081526020015b60405180910390f35b34801561013757600080fd5b5061014b610146366004611db3565b610314565b6040519015158152602001610122565b34801561016757600080fd5b5061017b610176366004611dd0565b6103f2565b005b34801561018957600080fd5b5061017b610198366004611db3565b61062c565b3480156101a957600080fd5b5061014b6101b8366004611db3565b6106f4565b61017b6101cb366004611e74565b610769565b61017b6101de366004611f07565b610822565b3480156101ef57600080fd5b5061017b6101fe366004611db3565b610b60565b34801561020f57600080fd5b50610118610c2a565b34801561022457600080fd5b5061017b610233366004611f4d565b610cdd565b34801561024457600080fd5b5061017b610fb2565b34801561025957600080fd5b5061017b610fc6565b34801561026e57600080fd5b506033546001600160a01b03165b6040516001600160a01b039091168152602001610122565b3480156102a057600080fd5b5061014b6102af366004611db3565b6110de565b3480156102c057600080fd5b5061017b6102cf366004611f9e565b611158565b3480156102e057600080fd5b5061017b6102ef366004611db3565b611827565b34801561030057600080fd5b5060c95461027c906001600160a01b031681565b60c95460408051630c024c1b60e31b8152905160009284926001600160a01b039091169163601260d8916004808201926020929091908290030181865afa158015610363573d6000803e3d6000fd5b505050506040513d601f19601f820116820180604052508101906103879190611fca565b816001600160a01b031663c5b6e7056040518163ffffffff1660e01b8152600401602060405180830381865afa1580156103c5573d6000803e3d6000fd5b505050506040513d601f19601f820116820180604052508101906103e99190611fca565b10159392505050565b6001600160a01b037f00000000000000000000000000000000000000000000000000000000000000001630036104435760405162461bcd60e51b815260040161043a90611fe3565b60405180910390fd5b7f00000000000000000000000000000000000000000000000000000000000000006001600160a01b031661047561189d565b6001600160a01b03161461049b5760405162461bcd60e51b815260040161043a9061202f565b60405163166ea0d160e21b815260048101839052839033906001600160a01b038316906359ba834490602401602060405180830381865afa1580156104e4573d6000803e3d6000fd5b505050506040513d601f19601f82011682018060405250810190610508919061207b565b6001600160a01b0316146040518060400160405280601181526020017021a0a62622a92fa727aa2fa32aa72222a960791b8152509061055a5760405162461bcd60e51b815260040161043a91906120e8565b5060405163e83963eb60e01b815260048101849052602481018390523360448201526000906001600160a01b0383169063e83963eb906064016020604051808303816000875af11580156105b2573d6000803e3d6000fd5b505050506040513d601f19601f820116820180604052508101906105d69190611fca565b60408051600080825260208201928390529293507fff6b606253b167363e000664c8b931e839bf0ab135de9d6cfc5e26311a1ff6c49261061d9288928692916001906120fb565b60405180910390a15050505050565b6001600160a01b037f00000000000000000000000000000000000000000000000000000000000000001630036106745760405162461bcd60e51b815260040161043a90611fe3565b7f00000000000000000000000000000000000000000000000000000000000000006001600160a01b03166106a661189d565b6001600160a01b0316146106cc5760405162461bcd60e51b815260040161043a9061202f565b6106d5816118b9565b604080516000808252602082019092526106f1918391906118c1565b50565b60c954604051633af32abf60e01b81526001600160a01b0383811660048301526000921690633af32abf90602401602060405180830381865afa15801561073f573d6000803e3d6000fd5b505050506040513d601f19601f820116820180604052508101906107639190612132565b92915050565b6001600160a01b037f00000000000000000000000000000000000000000000000000000000000000001630036107b15760405162461bcd60e51b815260040161043a90611fe3565b7f00000000000000000000000000000000000000000000000000000000000000006001600160a01b03166107e361189d565b6001600160a01b0316146108095760405162461bcd60e51b815260040161043a9061202f565b610812826118b9565b61081e828260016118c1565b5050565b6001600160a01b037f000000000000000000000000000000000000000000000000000000000000000016300361086a5760405162461bcd60e51b815260040161043a90611fe3565b7f00000000000000000000000000000000000000000000000000000000000000006001600160a01b031661089c61189d565b6001600160a01b0316146108c25760405162461bcd60e51b815260040161043a9061202f565b836108cc846106f4565b610930576108d985610314565b156040518060400160405280601881526020017f544f4f5f4d414e595f544f4b454e5f41444452455353455300000000000000008152509061092e5760405162461bcd60e51b815260040161043a91906120e8565b505b610939856110de565b6040518060400160405280601781526020017610d3d395149050d517d053149150511657d0d313d4d151604a1b815250906109875760405162461bcd60e51b815260040161043a91906120e8565b506040516335bf83d160e21b81523360048201526001600160a01b0385811660248301526044820185905260648201849052600091829184169063d6fe0f44903490608401604080518083038185885af11580156109e9573d6000803e3d6000fd5b50505050506040513d601f19601f82011682018060405250810190610a0e9190612154565b915091507f5b079a43aec0177fbeb930213940b8d476a8c4e0b37343e2059b6d61400d97628288856001600160a01b031663c17bd75e6040518163ffffffff1660e01b8152600401600060405180830381865afa158015610a73573d6000803e3d6000fd5b505050506040513d6000823e601f3d908101601f19168201604052610a9b9190810190612178565b866001600160a01b03166323bd4d7a6040518163ffffffff1660e01b8152600401600060405180830381865afa158015610ad9573d6000803e3d6000fd5b505050506040513d6000823e601f3d908101601f19168201604052610b019190810190612178565b8a42338b896000805b6040519080825280601f01601f191660200182016040528015610b34576020820181803683370190505b506001604051610b4f9c9b9a999897969594939291906121e6565b60405180910390a150505050505050565b610b68611a31565b6001600160a01b037f0000000000000000000000000000000000000000000000000000000000000000163003610bb05760405162461bcd60e51b815260040161043a90611fe3565b7f00000000000000000000000000000000000000000000000000000000000000006001600160a01b0316610be261189d565b6001600160a01b031614610c085760405162461bcd60e51b815260040161043a9061202f565b60c980546001600160a01b0319166001600160a01b0392909216919091179055565b6000306001600160a01b037f00000000000000000000000000000000000000000000000000000000000000001614610cca5760405162461bcd60e51b815260206004820152603860248201527f555550535570677261646561626c653a206d757374206e6f742062652063616c60448201527f6c6564207468726f7567682064656c656761746563616c6c0000000000000000606482015260840161043a565b506000805160206123ad83398151915290565b6001600160a01b037f0000000000000000000000000000000000000000000000000000000000000000163003610d255760405162461bcd60e51b815260040161043a90611fe3565b7f00000000000000000000000000000000000000000000000000000000000000006001600160a01b0316610d5761189d565b6001600160a01b031614610d7d5760405162461bcd60e51b815260040161043a9061202f565b84610d87856106f4565b604051806040016040528060128152602001711513d2d15397d393d517d050d0d15415115160721b81525090610dd05760405162461bcd60e51b815260040161043a91906120e8565b50610dda866110de565b6040518060400160405280601781526020017610d3d395149050d517d053149150511657d0d313d4d151604a1b81525090610e285760405162461bcd60e51b815260040161043a91906120e8565b506040516324f0cae560e01b81523360048201526001600160a01b038681166024830152604482018690526064820185905260848201849052600091908316906324f0cae59060a4016020604051808303816000875af1158015610e90573d6000803e3d6000fd5b505050506040513d601f19601f82011682018060405250810190610eb49190611fca565b90507f113d7b68690d10a1b57a4033f31ccbe3071a8b22eb4156a27533b32fe2cfb1e48188846001600160a01b031663c17bd75e6040518163ffffffff1660e01b8152600401600060405180830381865afa158015610f17573d6000803e3d6000fd5b505050506040513d6000823e601f3d908101601f19168201604052610f3f9190810190612178565b856001600160a01b03166323bd4d7a6040518163ffffffff1660e01b8152600401600060405180830381865afa158015610f7d573d6000803e3d6000fd5b505050506040513d6000823e601f3d908101601f19168201604052610fa59190810190612178565b8a42338b8d600080610b0a565b610fba611a31565b610fc46000611a8b565b565b600054610100900460ff1615808015610fe65750600054600160ff909116105b806110005750303b158015611000575060005460ff166001145b6110635760405162461bcd60e51b815260206004820152602e60248201527f496e697469616c697a61626c653a20636f6e747261637420697320616c72656160448201526d191e481a5b9a5d1a585b1a5e995960921b606482015260840161043a565b6000805460ff191660011790558015611086576000805461ff0019166101001790555b61108e611add565b611096611b0c565b80156106f1576000805461ff0019169055604051600181527f7f26b83ff96e1f2b6a682f133852f6798a09c465da95921460cefb38474024989060200160405180910390a150565b60008082905060008063ffffffff16826001600160a01b031663200d2ed26040518163ffffffff1660e01b8152600401602060405180830381865afa15801561112b573d6000803e3d6000fd5b505050506040513d601f19601f8201168201806040525081019061114f9190611fca565b14949350505050565b6001600160a01b037f00000000000000000000000000000000000000000000000000000000000000001630036111a05760405162461bcd60e51b815260040161043a90611fe3565b7f00000000000000000000000000000000000000000000000000000000000000006001600160a01b03166111d261189d565b6001600160a01b0316146111f85760405162461bcd60e51b815260040161043a9061202f565b60405163166ea0d160e21b815260048101829052829033906001600160a01b038316906359ba834490602401602060405180830381865afa158015611241573d6000803e3d6000fd5b505050506040513d601f19601f82011682018060405250810190611265919061207b565b6001600160a01b0316146040518060400160405280601181526020017021a0a62622a92fa727aa2fa32aa72222a960791b815250906112b75760405162461bcd60e51b815260040161043a91906120e8565b506040516356406fa560e01b8152600481018390526001600160a01b038216906356406fa590602401602060405180830381865afa1580156112fd573d6000803e3d6000fd5b505050506040513d601f19601f820116820180604052508101906113219190611fca565b60405163968b098f60e01b8152600481018490526001600160a01b0383169063968b098f90602401602060405180830381865afa158015611366573d6000803e3d6000fd5b505050506040513d601f19601f8201168201806040525081019061138a9190611fca565b6113949190612297565b4210156040518060400160405280601881526020017f5052454d41545552455f524546554e445f524551554553540000000000000000815250906113eb5760405162461bcd60e51b815260040161043a91906120e8565b506040516397bb3ce960e01b8152600481018390526000906001600160a01b038316906397bb3ce990602401602060405180830381865afa158015611434573d6000803e3d6000fd5b505050506040513d601f19601f82011682018060405250810190611458919061207b565b604051636df367b560e11b81526001600160a01b038681166004830152808316602483015291925060009184169063dbe6cf6a90604401602060405180830381865afa1580156114ac573d6000803e3d6000fd5b505050506040513d601f19601f820116820180604052508101906114d09190611fca565b604051633aecd0e360e01b81526001600160a01b038481166004830152851690633aecd0e390602401602060405180830381865afa158015611516573d6000803e3d6000fd5b505050506040513d601f19601f8201168201806040525081019061153a9190611fca565b61154491906122aa565b9050600081846001600160a01b0316631595eea4876040518263ffffffff1660e01b815260040161157791815260200190565b602060405180830381865afa158015611594573d6000803e3d6000fd5b505050506040513d601f19601f820116820180604052508101906115b89190611fca565b1161162d576040516305657ba960e21b8152600481018690526001600160a01b03851690631595eea490602401602060405180830381865afa158015611602573d6000803e3d6000fd5b505050506040513d601f19601f820116820180604052508101906116269190611fca565b9050611630565b50805b60405163eb58c0fd60e01b815260048101869052336024820152604481018290526001600160a01b0385169063eb58c0fd90606401600060405180830381600087803b15801561167f57600080fd5b505af1158015611693573d6000803e3d6000fd5b505050507f69564edf78e6beb23606d24a3d00a7d77315e974782eca07c9a0139393ef797f85856001600160a01b031663c17bd75e6040518163ffffffff1660e01b8152600401600060405180830381865afa1580156116f7573d6000803e3d6000fd5b505050506040513d6000823e601f3d908101601f1916820160405261171f9190810190612178565b88876001600160a01b03166323bd4d7a6040518163ffffffff1660e01b8152600401600060405180830381865afa15801561175e573d6000803e3d6000fd5b505050506040513d6000823e601f3d908101601f191682016040526117869190810190612178565b6040516397bb3ce960e01b8152600481018b905242906001600160a01b038b16906397bb3ce990602401602060405180830381865afa1580156117cd573d6000803e3d6000fd5b505050506040513d601f19601f820116820180604052508101906117f1919061207b565b6040805160008082526020820192839052611817989796959493928b92906001906122bd565b60405180910390a1505050505050565b61182f611a31565b6001600160a01b0381166118945760405162461bcd60e51b815260206004820152602660248201527f4f776e61626c653a206e6577206f776e657220697320746865207a65726f206160448201526564647265737360d01b606482015260840161043a565b6106f181611a8b565b6000805160206123ad833981519152546001600160a01b031690565b6106f1611a31565b7f4910fdfa16fed3260ed0e7147f7cc6da11a60208b5b9406d12a635614ffd91435460ff16156118f9576118f483611b33565b505050565b826001600160a01b03166352d1902d6040518163ffffffff1660e01b8152600401602060405180830381865afa925050508015611953575060408051601f3d908101601f1916820190925261195091810190611fca565b60015b6119b65760405162461bcd60e51b815260206004820152602e60248201527f45524331393637557067726164653a206e657720696d706c656d656e7461746960448201526d6f6e206973206e6f74205555505360901b606482015260840161043a565b6000805160206123ad8339815191528114611a255760405162461bcd60e51b815260206004820152602960248201527f45524331393637557067726164653a20756e737570706f727465642070726f786044820152681a58589b195555525160ba1b606482015260840161043a565b506118f4838383611bcf565b6033546001600160a01b03163314610fc45760405162461bcd60e51b815260206004820181905260248201527f4f776e61626c653a2063616c6c6572206973206e6f7420746865206f776e6572604482015260640161043a565b603380546001600160a01b038381166001600160a01b0319831681179093556040519116919082907f8be0079c531659141344cd1fd0a4f28419497f9722a3daafe3b4186f6b6457e090600090a35050565b600054610100900460ff16611b045760405162461bcd60e51b815260040161043a90612345565b610fc4611bfa565b600054610100900460ff16610fc45760405162461bcd60e51b815260040161043a90612345565b6001600160a01b0381163b611ba05760405162461bcd60e51b815260206004820152602d60248201527f455243313936373a206e657720696d706c656d656e746174696f6e206973206e60448201526c1bdd08184818dbdb9d1c9858dd609a1b606482015260840161043a565b6000805160206123ad83398151915280546001600160a01b0319166001600160a01b0392909216919091179055565b611bd883611c2a565b600082511180611be55750805b156118f457611bf48383611c6a565b50505050565b600054610100900460ff16611c215760405162461bcd60e51b815260040161043a90612345565b610fc433611a8b565b611c3381611b33565b6040516001600160a01b038216907fbc7cd75a20ee27fd9adebab32041f755214dbc6bffa90cc0225b39da2e5c2d3b90600090a250565b60606001600160a01b0383163b611cd25760405162461bcd60e51b815260206004820152602660248201527f416464726573733a2064656c65676174652063616c6c20746f206e6f6e2d636f6044820152651b9d1c9858dd60d21b606482015260840161043a565b600080846001600160a01b031684604051611ced9190612390565b600060405180830381855af49150503d8060008114611d28576040519150601f19603f3d011682016040523d82523d6000602084013e611d2d565b606091505b5091509150611d5582826040518060600160405280602781526020016123cd60279139611d5e565b95945050505050565b60608315611d6d575081611d97565b825115611d7d5782518084602001fd5b8160405162461bcd60e51b815260040161043a91906120e8565b9392505050565b6001600160a01b03811681146106f157600080fd5b600060208284031215611dc557600080fd5b8135611d9781611d9e565b600080600060608486031215611de557600080fd5b8335611df081611d9e565b95602085013595506040909401359392505050565b634e487b7160e01b600052604160045260246000fd5b604051601f8201601f1916810167ffffffffffffffff81118282101715611e4457611e44611e05565b604052919050565b600067ffffffffffffffff821115611e6657611e66611e05565b50601f01601f191660200190565b60008060408385031215611e8757600080fd5b8235611e9281611d9e565b9150602083013567ffffffffffffffff811115611eae57600080fd5b8301601f81018513611ebf57600080fd5b8035611ed2611ecd82611e4c565b611e1b565b818152866020838501011115611ee757600080fd5b816020840160208301376000602083830101528093505050509250929050565b60008060008060808587031215611f1d57600080fd5b8435611f2881611d9e565b93506020850135611f3881611d9e565b93969395505050506040820135916060013590565b600080600080600060a08688031215611f6557600080fd5b8535611f7081611d9e565b94506020860135611f8081611d9e565b94979496505050506040830135926060810135926080909101359150565b60008060408385031215611fb157600080fd5b8235611fbc81611d9e565b946020939093013593505050565b600060208284031215611fdc57600080fd5b5051919050565b6020808252602c908201527f46756e6374696f6e206d7573742062652063616c6c6564207468726f7567682060408201526b19195b1959d85d1958d85b1b60a21b606082015260800190565b6020808252602c908201527f46756e6374696f6e206d7573742062652063616c6c6564207468726f7567682060408201526b6163746976652070726f787960a01b606082015260800190565b60006020828403121561208d57600080fd5b8151611d9781611d9e565b60005b838110156120b357818101518382015260200161209b565b50506000910152565b600081518084526120d4816020860160208601612098565b601f01601f19169290920160200192915050565b602081526000611d9760208301846120bc565b85815284602082015283604082015260a06060820152600061212060a08301856120bc565b90508260808301529695505050505050565b60006020828403121561214457600080fd5b81518015158114611d9757600080fd5b6000806040838503121561216757600080fd5b505080516020909101519092909150565b60006020828403121561218a57600080fd5b815167ffffffffffffffff8111156121a157600080fd5b8201601f810184136121b257600080fd5b80516121c0611ecd82611e4c565b8181528560208385010111156121d557600080fd5b611d55826020830160208601612098565b8c81526001600160a01b038c81166020830152610180604083018190526000916122128483018f6120bc565b91508382036060850152612226828e6120bc565b9150808c1660808501528a60a0850152808a1660c0850152508760e0840152866101008401528561012084015282810361014084015261226681866120bc565b915050826101608301529d9c50505050505050505050505050565b634e487b7160e01b600052601160045260246000fd5b8082018082111561076357610763612281565b8181038181111561076357610763612281565b60006101408c83528060208401526122d78184018d6120bc565b6001600160a01b038c8116604086015284820360608601529091506122fc828c6120bc565b915089608085015280891660a0850152508660c08401528560e084015282810361010084015261232c81866120bc565b915050826101208301529b9a5050505050505050505050565b6020808252602b908201527f496e697469616c697a61626c653a20636f6e7472616374206973206e6f74206960408201526a6e697469616c697a696e6760a81b606082015260800190565b600082516123a2818460208701612098565b919091019291505056fe360894a13ba1a3210667c828492db98dca3e2076cc3735a920a3ca505d382bbc416464726573733a206c6f772d6c6576656c2064656c65676174652063616c6c206661696c6564a26469706673582212209bdb2d4f1f047d7ee75e6a8d0dcc885ae67381f8b2b776b093746de108ed262a64736f6c63430008100033",
  "linkReferences": {},
  "deployedLinkReferences": {}
}