{
  "_format": "hh-sol-artifact-1",
  "contractName": "ClaimManagerV1",
  "sourceName": "contracts/ClaimManager/Implementations/ClaimManagerV1.sol",
  "abi": [
    {
      "inputs": [],
      "stateMutability": "nonpayable",
      "type": "constructor"
    },
    {
      "anonymous": false,
      "inputs": [
        {
          "indexed": false,
          "internalType": "address",
          "name": "previousAdmin",
          "type": "address"
        },
        {
          "indexed": false,
          "internalType": "address",
          "name": "newAdmin",
          "type": "address"
        }
      ],
      "name": "AdminChanged",
      "type": "event"
    },
    {
      "anonymous": false,
      "inputs": [
        {
          "indexed": true,
          "internalType": "address",
          "name": "beacon",
          "type": "address"
        }
      ],
      "name": "BeaconUpgraded",
      "type": "event"
    },
    {
      "anonymous": false,
      "inputs": [
        {
          "indexed": false,
          "internalType": "string",
          "name": "bountyId",
          "type": "string"
        },
        {
          "indexed": false,
          "internalType": "address",
          "name": "bountyAddress",
          "type": "address"
        },
        {
          "indexed": false,
          "internalType": "string",
          "name": "organization",
          "type": "string"
        },
        {
          "indexed": false,
          "internalType": "address",
          "name": "closer",
          "type": "address"
        },
        {
          "indexed": false,
          "internalType": "uint256",
          "name": "bountyClosedTime",
          "type": "uint256"
        },
        {
          "indexed": false,
          "internalType": "uint256",
          "name": "bountyType",
          "type": "uint256"
        },
        {
          "indexed": false,
          "internalType": "bytes",
          "name": "data",
          "type": "bytes"
        },
        {
          "indexed": false,
          "internalType": "uint256",
          "name": "version",
          "type": "uint256"
        }
      ],
      "name": "BountyClosed",
      "type": "event"
    },
    {
      "anonymous": false,
      "inputs": [
        {
          "indexed": false,
          "internalType": "uint256",
          "name": "claimTime",
          "type": "uint256"
        },
        {
          "indexed": false,
          "internalType": "uint256",
          "name": "bountyType",
          "type": "uint256"
        },
        {
          "indexed": false,
          "internalType": "bytes",
          "name": "data",
          "type": "bytes"
        },
        {
          "indexed": false,
          "internalType": "uint256",
          "name": "version",
          "type": "uint256"
        }
      ],
      "name": "ClaimSuccess",
      "type": "event"
    },
    {
      "anonymous": false,
      "inputs": [
        {
          "indexed": false,
          "internalType": "uint8",
          "name": "version",
          "type": "uint8"
        }
      ],
      "name": "Initialized",
      "type": "event"
    },
    {
      "anonymous": false,
      "inputs": [
        {
          "indexed": false,
          "internalType": "string",
          "name": "bountyId",
          "type": "string"
        },
        {
          "indexed": false,
          "internalType": "address",
          "name": "bountyAddress",
          "type": "address"
        },
        {
          "indexed": false,
          "internalType": "string",
          "name": "organization",
          "type": "string"
        },
        {
          "indexed": false,
          "internalType": "address",
          "name": "closer",
          "type": "address"
        },
        {
          "indexed": false,
          "internalType": "uint256",
          "name": "payoutTime",
          "type": "uint256"
        },
        {
          "indexed": false,
          "internalType": "address",
          "name": "tokenAddress",
          "type": "address"
        },
        {
          "indexed": false,
          "internalType": "uint256",
          "name": "tokenId",
          "type": "uint256"
        },
        {
          "indexed": false,
          "internalType": "uint256",
          "name": "bountyType",
          "type": "uint256"
        },
        {
          "indexed": false,
          "internalType": "bytes",
          "name": "data",
          "type": "bytes"
        },
        {
          "indexed": false,
          "internalType": "uint256",
          "name": "version",
          "type": "uint256"
        }
      ],
      "name": "NFTClaimed",
      "type": "event"
    },
    {
      "anonymous": false,
      "inputs": [
        {
          "indexed": true,
          "internalType": "address",
          "name": "previousOracle",
          "type": "address"
        },
        {
          "indexed": true,
          "internalType": "address",
          "name": "newOracle",
          "type": "address"
        }
      ],
      "name": "OracleTransferred",
      "type": "event"
    },
    {
      "anonymous": false,
      "inputs": [
        {
          "indexed": true,
          "internalType": "address",
          "name": "previousOwner",
          "type": "address"
        },
        {
          "indexed": true,
          "internalType": "address",
          "name": "newOwner",
          "type": "address"
        }
      ],
      "name": "OwnershipTransferred",
      "type": "event"
    },
    {
      "anonymous": false,
      "inputs": [
        {
          "indexed": false,
          "internalType": "string",
          "name": "bountyId",
          "type": "string"
        },
        {
          "indexed": false,
          "internalType": "address",
          "name": "bountyAddress",
          "type": "address"
        },
        {
          "indexed": false,
          "internalType": "string",
          "name": "organization",
          "type": "string"
        },
        {
          "indexed": false,
          "internalType": "address",
          "name": "closer",
          "type": "address"
        },
        {
          "indexed": false,
          "internalType": "uint256",
          "name": "payoutTime",
          "type": "uint256"
        },
        {
          "indexed": false,
          "internalType": "address",
          "name": "tokenAddress",
          "type": "address"
        },
        {
          "indexed": false,
          "internalType": "uint256",
          "name": "volume",
          "type": "uint256"
        },
        {
          "indexed": false,
          "internalType": "uint256",
          "name": "bountyType",
          "type": "uint256"
        },
        {
          "indexed": false,
          "internalType": "bytes",
          "name": "data",
          "type": "bytes"
        },
        {
          "indexed": false,
          "internalType": "uint256",
          "name": "version",
          "type": "uint256"
        }
      ],
      "name": "TokenBalanceClaimed",
      "type": "event"
    },
    {
      "anonymous": false,
      "inputs": [
        {
          "indexed": true,
          "internalType": "address",
          "name": "implementation",
          "type": "address"
        }
      ],
      "name": "Upgraded",
      "type": "event"
    },
    {
      "inputs": [],
      "name": "VERSION_1",
      "outputs": [
        {
          "internalType": "uint256",
          "name": "",
          "type": "uint256"
        }
      ],
      "stateMutability": "view",
      "type": "function"
    },
    {
      "inputs": [
        {
          "internalType": "address",
          "name": "_bountyAddress",
          "type": "address"
        }
      ],
      "name": "bountyIsClaimable",
      "outputs": [
        {
          "internalType": "bool",
          "name": "",
          "type": "bool"
        }
      ],
      "stateMutability": "view",
      "type": "function"
    },
    {
      "inputs": [
        {
          "internalType": "address",
          "name": "_bountyAddress",
          "type": "address"
        },
        {
          "internalType": "address",
          "name": "_closer",
          "type": "address"
        },
        {
          "internalType": "bytes",
          "name": "_closerData",
          "type": "bytes"
        }
      ],
      "name": "claimBounty",
      "outputs": [],
      "stateMutability": "nonpayable",
      "type": "function"
    },
    {
      "inputs": [
        {
          "internalType": "address",
          "name": "_address",
          "type": "address"
        }
      ],
      "name": "hasKYC",
      "outputs": [
        {
          "internalType": "bool",
          "name": "",
          "type": "bool"
        }
      ],
      "stateMutability": "view",
      "type": "function"
    },
    {
      "inputs": [
        {
          "internalType": "address",
          "name": "_oracle",
          "type": "address"
        }
      ],
      "name": "initialize",
      "outputs": [],
      "stateMutability": "nonpayable",
      "type": "function"
    },
    {
      "inputs": [],
      "name": "kyc",
      "outputs": [
        {
          "internalType": "contract IKycValidity",
          "name": "",
          "type": "address"
        }
      ],
      "stateMutability": "view",
      "type": "function"
    },
    {
      "inputs": [],
      "name": "openQ",
      "outputs": [
        {
          "internalType": "address",
          "name": "",
          "type": "address"
        }
      ],
      "stateMutability": "view",
      "type": "function"
    },
    {
      "inputs": [],
      "name": "oracle",
      "outputs": [
        {
          "internalType": "address",
          "name": "",
          "type": "address"
        }
      ],
      "stateMutability": "view",
      "type": "function"
    },
    {
      "inputs": [],
      "name": "owner",
      "outputs": [
        {
          "internalType": "address",
          "name": "",
          "type": "address"
        }
      ],
      "stateMutability": "view",
      "type": "function"
    },
    {
      "inputs": [
        {
          "internalType": "address",
          "name": "_bountyAddress",
          "type": "address"
        },
        {
          "internalType": "bytes",
          "name": "_closerData",
          "type": "bytes"
        }
      ],
      "name": "permissionedClaimTieredBounty",
      "outputs": [],
      "stateMutability": "nonpayable",
      "type": "function"
    },
    {
      "inputs": [],
      "name": "proxiableUUID",
      "outputs": [
        {
          "internalType": "bytes32",
          "name": "",
          "type": "bytes32"
        }
      ],
      "stateMutability": "view",
      "type": "function"
    },
    {
      "inputs": [],
      "name": "renounceOwnership",
      "outputs": [],
      "stateMutability": "nonpayable",
      "type": "function"
    },
    {
      "inputs": [
        {
          "internalType": "address",
          "name": "_kyc",
          "type": "address"
        }
      ],
      "name": "setKyc",
      "outputs": [],
      "stateMutability": "nonpayable",
      "type": "function"
    },
    {
      "inputs": [
        {
          "internalType": "address",
          "name": "_openQ",
          "type": "address"
        }
      ],
      "name": "setOpenQ",
      "outputs": [],
      "stateMutability": "nonpayable",
      "type": "function"
    },
    {
      "inputs": [
        {
          "internalType": "address",
          "name": "_newOracle",
          "type": "address"
        }
      ],
      "name": "transferOracle",
      "outputs": [],
      "stateMutability": "nonpayable",
      "type": "function"
    },
    {
      "inputs": [
        {
          "internalType": "address",
          "name": "newOwner",
          "type": "address"
        }
      ],
      "name": "transferOwnership",
      "outputs": [],
      "stateMutability": "nonpayable",
      "type": "function"
    },
    {
      "inputs": [
        {
          "internalType": "address",
          "name": "newImplementation",
          "type": "address"
        }
      ],
      "name": "upgradeTo",
      "outputs": [],
      "stateMutability": "nonpayable",
      "type": "function"
    },
    {
      "inputs": [
        {
          "internalType": "address",
          "name": "newImplementation",
          "type": "address"
        },
        {
          "internalType": "bytes",
          "name": "data",
          "type": "bytes"
        }
      ],
      "name": "upgradeToAndCall",
      "outputs": [],
      "stateMutability": "payable",
      "type": "function"
    }
  ],
  "bytecode": "0x60a06040523060805234801561001457600080fd5b506080516149106100a0600039600081816103340152818161037d015281816104050152818161044501528181610539015281816105f801528181610638015281816107350152818161077501528181610d3101528181610d7101528181610e3301528181610e73015281816112d20152818161131201528181611555015261159501526149106000f3fe6080604052600436106100e95760003560e01c806390d6b45f1161008557806390d6b45f1461020a57806399c272061461022a578063a9c6dfda1461024a578063c4d66de81461026a578063e1a0e3d81461028a578063e7326806146102aa578063e7ae390a146102ca578063f2fde38b146102ea578063fdf993a81461030a57600080fd5b806326c20e5f146100ee5780633659cfe6146101165780634f1ef286146101385780635249e8621461014b57806352d1902d1461017b578063715018a6146101905780637dc0d1d0146101a55780637dc81fa2146101cc5780638da5cb5b146101ec575b600080fd5b3480156100fa57600080fd5b50610103600181565b6040519081526020015b60405180910390f35b34801561012257600080fd5b50610136610131366004613f45565b61032a565b005b61013661014636600461400d565b6103fb565b34801561015757600080fd5b5061016b610166366004613f45565b6104b4565b604051901515815260200161010d565b34801561018757600080fd5b5061010361052c565b34801561019c57600080fd5b506101366105da565b3480156101b157600080fd5b506033546001600160a01b03165b60405161010d9190614070565b3480156101d857600080fd5b5060ca546101bf906001600160a01b031681565b3480156101f857600080fd5b506034546001600160a01b03166101bf565b34801561021657600080fd5b5060cb546101bf906001600160a01b031681565b34801561023657600080fd5b50610136610245366004613f45565b6105ee565b34801561025657600080fd5b506101366102653660046140cc565b6106b8565b34801561027657600080fd5b50610136610285366004613f45565b610c67565b34801561029657600080fd5b506101366102a5366004614130565b610e29565b3480156102b657600080fd5b506101366102c5366004613f45565b6112c8565b3480156102d657600080fd5b5061016b6102e5366004613f45565b6113c7565b3480156102f657600080fd5b50610136610305366004613f45565b6114d5565b34801561031657600080fd5b50610136610325366004613f45565b61154b565b6001600160a01b037f000000000000000000000000000000000000000000000000000000000000000016300361037b5760405162461bcd60e51b815260040161037290614184565b60405180910390fd5b7f00000000000000000000000000000000000000000000000000000000000000006001600160a01b03166103ad611615565b6001600160a01b0316146103d35760405162461bcd60e51b8152600401610372906141d0565b6103dc81611631565b604080516000808252602082019092526103f891839190611639565b50565b6001600160a01b037f00000000000000000000000000000000000000000000000000000000000000001630036104435760405162461bcd60e51b815260040161037290614184565b7f00000000000000000000000000000000000000000000000000000000000000006001600160a01b0316610475611615565b6001600160a01b03161461049b5760405162461bcd60e51b8152600401610372906141d0565b6104a482611631565b6104b082826001611639565b5050565b60cb546040516309d2676360e41b81526000916001600160a01b031690639d267630906104e5908590600401614070565b602060405180830381865afa158015610502573d6000803e3d6000fd5b505050506040513d601f19601f82011682018060405250810190610526919061421c565b92915050565b6000306001600160a01b037f000000000000000000000000000000000000000000000000000000000000000016146105c75760405162461bcd60e51b815260206004820152603860248201527f555550535570677261646561626c653a206d757374206e6f742062652063616c6044820152771b1959081d1a1c9bdd59da0819195b1959d85d1958d85b1b60421b6064820152608401610372565b5060008051602061489483398151915290565b6105e26117a9565b6105ec6000611803565b565b6001600160a01b037f00000000000000000000000000000000000000000000000000000000000000001630036106365760405162461bcd60e51b815260040161037290614184565b7f00000000000000000000000000000000000000000000000000000000000000006001600160a01b0316610668611615565b6001600160a01b03161461068e5760405162461bcd60e51b8152600401610372906141d0565b6106966117a9565b60cb80546001600160a01b0319166001600160a01b0392909216919091179055565b6033546001600160a01b0316331461072b5760405162461bcd60e51b815260206004820152603060248201527f4f7261636c697a653a2063616c6c6572206973206e6f7420746865206375727260448201526f656e74204f70656e51204f7261636c6560801b6064820152608401610372565b6001600160a01b037f00000000000000000000000000000000000000000000000000000000000000001630036107735760405162461bcd60e51b815260040161037290614184565b7f00000000000000000000000000000000000000000000000000000000000000006001600160a01b03166107a5611615565b6001600160a01b0316146107cb5760405162461bcd60e51b8152600401610372906141d0565b60008490506000816001600160a01b031663b3ca1f3b6040518163ffffffff1660e01b8152600401602060405180830381865afa158015610810573d6000803e3d6000fd5b505050506040513d601f19601f82011682018060405250810190610834919061423e565b905061084283850185614277565b50849350610ade9250505057600063ffffffff16826001600160a01b031663200d2ed26040518163ffffffff1660e01b8152600401602060405180830381865afa158015610894573d6000803e3d6000fd5b505050506040513d601f19601f820116820180604052508101906108b8919061423e565b1460405180604001604052806019815260200178434f4e54524143545f49535f4e4f545f434c41494d41424c4560381b815250906109095760405162461bcd60e51b81526004016103729190614359565b5061091682868686611855565b604051632338d37760e01b81526001600160a01b03831690632338d3779061094690889088908890600401614395565b600060405180830381600087803b15801561096057600080fd5b505af1158015610974573d6000803e3d6000fd5b50505050600080516020614854833981519152826001600160a01b031663c17bd75e6040518163ffffffff1660e01b8152600401600060405180830381865afa1580156109c5573d6000803e3d6000fd5b505050506040513d6000823e601f3d908101601f191682016040526109ed91908101906143ea565b87846001600160a01b03166323bd4d7a6040518163ffffffff1660e01b8152600401600060405180830381865afa158015610a2c573d6000803e3d6000fd5b505050506040513d6000823e601f3d908101601f19168201604052610a5491908101906143ea565b8842876001600160a01b031663b3ca1f3b6040518163ffffffff1660e01b8152600401602060405180830381865afa158015610a94573d6000803e3d6000fd5b505050506040513d601f19601f82011682018060405250810190610ab8919061423e565b8a8a6001604051610ad19998979695949392919061443a565b60405180910390a1610c1f565b6000198101610bb457600063ffffffff16826001600160a01b031663200d2ed26040518163ffffffff1660e01b8152600401602060405180830381865afa158015610b2d573d6000803e3d6000fd5b505050506040513d601f19601f82011682018060405250810190610b51919061423e565b1460405180604001604052806019815260200178434f4e54524143545f49535f4e4f545f434c41494d41424c4560381b81525090610ba25760405162461bcd60e51b81526004016103729190614359565b50610baf82868686612020565b610c1f565b6001198101610bc957610baf828686866121f6565b6002198101610bde57610baf82868686612c15565b6040805180820182526013815272554e4b4e4f574e5f424f554e54595f5459504560681b6020820152905162461bcd60e51b81526103729190600401614359565b7fd6de63792ebd5ae7b0da0e2a38b6fe8acd3b85073d8c96d84bd84271663d0eca428286866001604051610c579594939291906144b4565b60405180910390a1505050505050565b600054610100900460ff1615808015610c875750600054600160ff909116105b80610ca15750303b158015610ca1575060005460ff166001145b610d045760405162461bcd60e51b815260206004820152602e60248201527f496e697469616c697a61626c653a20636f6e747261637420697320616c72656160448201526d191e481a5b9a5d1a585b1a5e995960921b6064820152608401610372565b6000805460ff191660011790558015610d27576000805461ff0019166101001790555b6001600160a01b037f0000000000000000000000000000000000000000000000000000000000000000163003610d6f5760405162461bcd60e51b815260040161037290614184565b7f00000000000000000000000000000000000000000000000000000000000000006001600160a01b0316610da1611615565b6001600160a01b031614610dc75760405162461bcd60e51b8152600401610372906141d0565b610dcf6134fc565b610dd761352b565b610de082613552565b80156104b0576000805461ff0019169055604051600181527f7f26b83ff96e1f2b6a682f133852f6798a09c465da95921460cefb38474024989060200160405180910390a15050565b6001600160a01b037f0000000000000000000000000000000000000000000000000000000000000000163003610e715760405162461bcd60e51b815260040161037290614184565b7f00000000000000000000000000000000000000000000000000000000000000006001600160a01b0316610ea3611615565b6001600160a01b031614610ec95760405162461bcd60e51b8152600401610372906141d0565b826000610ed883850185614277565b60ca546040516315fe148360e21b8152919650600095506001600160a01b031693506357f8520c9250610f1091503390600401614070565b6000604051808303816000875af1158015610f2f573d6000803e3d6000fd5b505050506040513d6000823e601f3d908101601f19168201604052610f5791908101906143ea565b60408051600081526020810180835281519020929350610f79918491016144e6565b604051602081830303815290604052805190602001201415604051806040016040528060158152602001744e4f5f4153534f4349415445445f4144445245535360581b81525090610fdd5760405162461bcd60e51b81526004016103729190614359565b5060405163cd8ffb3760e01b8152600481018390526001600160a01b0384169063cd8ffb3790602401600060405180830381865afa158015611023573d6000803e3d6000fd5b505050506040513d6000823e601f3d908101601f1916820160405261104b91908101906143ea565b60405160200161105b9190614359565b60405160208183030381529060405280519060200120816040516020016110829190614359565b60405160208183030381529060405280519060200120146040518060400160405280601881526020017721a620a4a6a0a72a2fa727aa2faa24a2a92faba4a72722a960411b815250906110e85760405162461bcd60e51b81526004016103729190614359565b50600363ffffffff16836001600160a01b031663b3ca1f3b6040518163ffffffff1660e01b8152600401602060405180830381865afa15801561112f573d6000803e3d6000fd5b505050506040513d601f19601f82011682018060405250810190611153919061423e565b036111695761116483338787612c15565b61122f565b600263ffffffff16836001600160a01b031663b3ca1f3b6040518163ffffffff1660e01b8152600401602060405180830381865afa1580156111af573d6000803e3d6000fd5b505050506040513d601f19601f820116820180604052508101906111d3919061423e565b036111e457611164833387876121f6565b604080518082018252601a81527f4e4f545f415f434f4d5045544954494f4e5f434f4e54524143540000000000006020820152905162461bcd60e51b81526103729190600401614359565b7fd6de63792ebd5ae7b0da0e2a38b6fe8acd3b85073d8c96d84bd84271663d0eca42846001600160a01b031663b3ca1f3b6040518163ffffffff1660e01b8152600401602060405180830381865afa15801561128f573d6000803e3d6000fd5b505050506040513d601f19601f820116820180604052508101906112b3919061423e565b87876001604051610c579594939291906144b4565b6001600160a01b037f00000000000000000000000000000000000000000000000000000000000000001630036113105760405162461bcd60e51b815260040161037290614184565b7f00000000000000000000000000000000000000000000000000000000000000006001600160a01b0316611342611615565b6001600160a01b0316146113685760405162461bcd60e51b8152600401610372906141d0565b6113706117a9565b60408051808201909152600f81526e4e4f5f5a45524f5f4144445245535360881b60208201526001600160a01b0382166113bd5760405162461bcd60e51b81526004016103729190614359565b506103f88161359b565b6000808290506000816001600160a01b031663200d2ed26040518163ffffffff1660e01b8152600401602060405180830381865afa15801561140d573d6000803e3d6000fd5b505050506040513d601f19601f82011682018060405250810190611431919061423e565b90506000826001600160a01b031663b3ca1f3b6040518163ffffffff1660e01b8152600401602060405180830381865afa158015611473573d6000803e3d6000fd5b505050506040513d601f19601f82011682018060405250810190611497919061423e565b90508015806114a65750600181145b806114b15750600281145b806114bc5750600381145b156114ca5750159392505050565b506001149392505050565b6114dd6117a9565b6001600160a01b0381166115425760405162461bcd60e51b815260206004820152602660248201527f4f776e61626c653a206e6577206f776e657220697320746865207a65726f206160448201526564647265737360d01b6064820152608401610372565b6103f881611803565b6001600160a01b037f00000000000000000000000000000000000000000000000000000000000000001630036115935760405162461bcd60e51b815260040161037290614184565b7f00000000000000000000000000000000000000000000000000000000000000006001600160a01b03166115c5611615565b6001600160a01b0316146115eb5760405162461bcd60e51b8152600401610372906141d0565b6115f36117a9565b60ca80546001600160a01b0319166001600160a01b0392909216919091179055565b600080516020614894833981519152546001600160a01b031690565b6103f86117a9565b7f4910fdfa16fed3260ed0e7147f7cc6da11a60208b5b9406d12a635614ffd91435460ff16156116715761166c836135ed565b505050565b826001600160a01b03166352d1902d6040518163ffffffff1660e01b8152600401602060405180830381865afa9250505080156116cb575060408051601f3d908101601f191682019092526116c89181019061423e565b60015b61172e5760405162461bcd60e51b815260206004820152602e60248201527f45524331393637557067726164653a206e657720696d706c656d656e7461746960448201526d6f6e206973206e6f74205555505360901b6064820152608401610372565b600080516020614894833981519152811461179d5760405162461bcd60e51b815260206004820152602960248201527f45524331393637557067726164653a20756e737570706f727465642070726f786044820152681a58589b195555525160ba1b6064820152608401610372565b5061166c838383613689565b6034546001600160a01b031633146105ec5760405162461bcd60e51b815260206004820181905260248201527f4f776e61626c653a2063616c6c6572206973206e6f7420746865206f776e65726044820152606401610372565b603480546001600160a01b038381166001600160a01b0319831681179093556040519116919082907f8be0079c531659141344cd1fd0a4f28419497f9722a3daafe3b4186f6b6457e090600090a35050565b61185f84846136b4565b60005b846001600160a01b031663ee8c24b86040518163ffffffff1660e01b8152600401600060405180830381865afa1580156118a0573d6000803e3d6000fd5b505050506040513d6000823e601f3d908101601f191682016040526118c89190810190614525565b51811015611bce576000856001600160a01b031663cb2da3db86886001600160a01b031663ee8c24b86040518163ffffffff1660e01b8152600401600060405180830381865afa158015611920573d6000803e3d6000fd5b505050506040513d6000823e601f3d908101601f191682016040526119489190810190614525565b8581518110611959576119596145be565b60200260200101516040518363ffffffff1660e01b81526004016119939291906001600160a01b0392831681529116602082015260400190565b6020604051808303816000875af11580156119b2573d6000803e3d6000fd5b505050506040513d601f19601f820116820180604052508101906119d6919061423e565b9050600080516020614834833981519152866001600160a01b031663c17bd75e6040518163ffffffff1660e01b8152600401600060405180830381865afa158015611a25573d6000803e3d6000fd5b505050506040513d6000823e601f3d908101601f19168201604052611a4d91908101906143ea565b87886001600160a01b03166323bd4d7a6040518163ffffffff1660e01b8152600401600060405180830381865afa158015611a8c573d6000803e3d6000fd5b505050506040513d6000823e601f3d908101601f19168201604052611ab491908101906143ea565b88428b6001600160a01b031663ee8c24b86040518163ffffffff1660e01b8152600401600060405180830381865afa158015611af4573d6000803e3d6000fd5b505050506040513d6000823e601f3d908101601f19168201604052611b1c9190810190614525565b8881518110611b2d57611b2d6145be565b6020026020010151878d6001600160a01b031663b3ca1f3b6040518163ffffffff1660e01b8152600401602060405180830381865afa158015611b74573d6000803e3d6000fd5b505050506040513d601f19601f82011682018060405250810190611b98919061423e565b8c8c6001604051611bb39b9a999897969594939291906145d4565b60405180910390a15080611bc681614660565b915050611862565b5060005b846001600160a01b03166377ede8a66040518163ffffffff1660e01b8152600401600060405180830381865afa158015611c10573d6000803e3d6000fd5b505050506040513d6000823e601f3d908101601f19168201604052611c389190810190614687565b5181101561201957604051630de2fe4b60e11b8152600481018290526001600160a01b038616906371ec4ebf9086908390631bc5fc9690602401602060405180830381865afa158015611c8f573d6000803e3d6000fd5b505050506040513d601f19601f82011682018060405250810190611cb3919061423e565b6040518363ffffffff1660e01b8152600401611cd092919061470c565b600060405180830381600087803b158015611cea57600080fd5b505af1158015611cfe573d6000803e3d6000fd5b50505050600080516020614874833981519152856001600160a01b031663c17bd75e6040518163ffffffff1660e01b8152600401600060405180830381865afa158015611d4f573d6000803e3d6000fd5b505050506040513d6000823e601f3d908101601f19168201604052611d7791908101906143ea565b86876001600160a01b03166323bd4d7a6040518163ffffffff1660e01b8152600401600060405180830381865afa158015611db6573d6000803e3d6000fd5b505050506040513d6000823e601f3d908101601f19168201604052611dde91908101906143ea565b604051630de2fe4b60e11b815260048101869052889042906001600160a01b038c16906397bb3ce9908290631bc5fc9690602401602060405180830381865afa158015611e2f573d6000803e3d6000fd5b505050506040513d601f19601f82011682018060405250810190611e53919061423e565b6040518263ffffffff1660e01b8152600401611e7191815260200190565b602060405180830381865afa158015611e8e573d6000803e3d6000fd5b505050506040513d601f19601f82011682018060405250810190611eb29190614725565b604051630de2fe4b60e11b8152600481018990526001600160a01b038d169063f2321725908290631bc5fc9690602401602060405180830381865afa158015611eff573d6000803e3d6000fd5b505050506040513d601f19601f82011682018060405250810190611f23919061423e565b6040518263ffffffff1660e01b8152600401611f4191815260200190565b602060405180830381865afa158015611f5e573d6000803e3d6000fd5b505050506040513d601f19601f82011682018060405250810190611f82919061423e565b8c6001600160a01b031663b3ca1f3b6040518163ffffffff1660e01b8152600401602060405180830381865afa158015611fc0573d6000803e3d6000fd5b505050506040513d601f19601f82011682018060405250810190611fe4919061423e565b8b8b6001604051611fff9b9a999897969594939291906145d4565b60405180910390a18061201181614660565b915050611bd2565b5050505050565b600080856001600160a01b031663a09dd1aa8686866040518463ffffffff1660e01b815260040161205393929190614395565b60408051808303816000875af1158015612071573d6000803e3d6000fd5b505050506040513d601f19601f820116820180604052508101906120959190614742565b91509150600080516020614834833981519152866001600160a01b031663c17bd75e6040518163ffffffff1660e01b8152600401600060405180830381865afa1580156120e6573d6000803e3d6000fd5b505050506040513d6000823e601f3d908101601f1916820160405261210e91908101906143ea565b87886001600160a01b03166323bd4d7a6040518163ffffffff1660e01b8152600401600060405180830381865afa15801561214d573d6000803e3d6000fd5b505050506040513d6000823e601f3d908101601f1916820160405261217591908101906143ea565b884287878d6001600160a01b031663b3ca1f3b6040518163ffffffff1660e01b8152600401602060405180830381865afa1580156121b7573d6000803e3d6000fd5b505050506040513d601f19601f820116820180604052508101906121db919061423e565b8c8c6001604051610c579b9a999897969594939291906145d4565b600061220482840184614277565b9450505050506122158582866139db565b846001600160a01b031663200d2ed26040518163ffffffff1660e01b8152600401602060405180830381865afa158015612253573d6000803e3d6000fd5b505050506040513d601f19601f82011682018060405250810190612277919061423e565b60000361243d57846001600160a01b03166322fa365e6040518163ffffffff1660e01b8152600401600060405180830381600087803b1580156122b957600080fd5b505af11580156122cd573d6000803e3d6000fd5b50505050600080516020614854833981519152856001600160a01b031663c17bd75e6040518163ffffffff1660e01b8152600401600060405180830381865afa15801561231e573d6000803e3d6000fd5b505050506040513d6000823e601f3d908101601f1916820160405261234691908101906143ea565b86876001600160a01b03166323bd4d7a6040518163ffffffff1660e01b8152600401600060405180830381865afa158015612385573d6000803e3d6000fd5b505050506040513d6000823e601f3d908101601f191682016040526123ad91908101906143ea565b6000428a6001600160a01b031663b3ca1f3b6040518163ffffffff1660e01b8152600401602060405180830381865afa1580156123ee573d6000803e3d6000fd5b505050506040513d601f19601f82011682018060405250810190612412919061423e565b6040805160008152602081019182905261243497969594939291600190614770565b60405180910390a15b60005b856001600160a01b031663ee8c24b86040518163ffffffff1660e01b8152600401600060405180830381865afa15801561247e573d6000803e3d6000fd5b505050506040513d6000823e601f3d908101601f191682016040526124a69190810190614525565b518110156127b7576000866001600160a01b031663b3b41cea87858a6001600160a01b031663ee8c24b86040518163ffffffff1660e01b8152600401600060405180830381865afa1580156124ff573d6000803e3d6000fd5b505050506040513d6000823e601f3d908101601f191682016040526125279190810190614525565b8681518110612538576125386145be565b60200260200101516040518463ffffffff1660e01b815260040161257c939291906001600160a01b0393841681526020810192909252909116604082015260600190565b6020604051808303816000875af115801561259b573d6000803e3d6000fd5b505050506040513d601f19601f820116820180604052508101906125bf919061423e565b9050600080516020614834833981519152876001600160a01b031663c17bd75e6040518163ffffffff1660e01b8152600401600060405180830381865afa15801561260e573d6000803e3d6000fd5b505050506040513d6000823e601f3d908101601f1916820160405261263691908101906143ea565b88896001600160a01b03166323bd4d7a6040518163ffffffff1660e01b8152600401600060405180830381865afa158015612675573d6000803e3d6000fd5b505050506040513d6000823e601f3d908101601f1916820160405261269d91908101906143ea565b89428c6001600160a01b031663ee8c24b86040518163ffffffff1660e01b8152600401600060405180830381865afa1580156126dd573d6000803e3d6000fd5b505050506040513d6000823e601f3d908101601f191682016040526127059190810190614525565b8881518110612716576127166145be565b6020026020010151878e6001600160a01b031663b3ca1f3b6040518163ffffffff1660e01b8152600401602060405180830381865afa15801561275d573d6000803e3d6000fd5b505050506040513d601f19601f82011682018060405250810190612781919061423e565b8d8d600160405161279c9b9a999897969594939291906145d4565b60405180910390a150806127af81614660565b915050612440565b5060005b856001600160a01b03166377ede8a66040518163ffffffff1660e01b8152600401600060405180830381865afa1580156127f9573d6000803e3d6000fd5b505050506040513d6000823e601f3d908101601f191682016040526128219190810190614687565b51811015612bb357604051630de2fe4b60e11b8152600481018290526000906001600160a01b03881690631bc5fc9690602401602060405180830381865afa158015612871573d6000803e3d6000fd5b505050506040513d601f19601f82011682018060405250810190612895919061423e565b60405163160a30a360e01b81526004810182905290915083906001600160a01b0389169063160a30a390602401602060405180830381865afa1580156128df573d6000803e3d6000fd5b505050506040513d601f19601f82011682018060405250810190612903919061423e565b03612ba0576040516371ec4ebf60e01b81526001600160a01b038816906371ec4ebf90612936908990859060040161470c565b600060405180830381600087803b15801561295057600080fd5b505af1158015612964573d6000803e3d6000fd5b50505050600080516020614874833981519152876001600160a01b031663c17bd75e6040518163ffffffff1660e01b8152600401600060405180830381865afa1580156129b5573d6000803e3d6000fd5b505050506040513d6000823e601f3d908101601f191682016040526129dd91908101906143ea565b88896001600160a01b03166323bd4d7a6040518163ffffffff1660e01b8152600401600060405180830381865afa158015612a1c573d6000803e3d6000fd5b505050506040513d6000823e601f3d908101601f19168201604052612a4491908101906143ea565b6040516397bb3ce960e01b8152600481018690528a9042906001600160a01b038e16906397bb3ce990602401602060405180830381865afa158015612a8d573d6000803e3d6000fd5b505050506040513d601f19601f82011682018060405250810190612ab19190614725565b60405163f232172560e01b8152600481018990526001600160a01b038f169063f232172590602401602060405180830381865afa158015612af6573d6000803e3d6000fd5b505050506040513d601f19601f82011682018060405250810190612b1a919061423e565b8e6001600160a01b031663b3ca1f3b6040518163ffffffff1660e01b8152600401602060405180830381865afa158015612b58573d6000803e3d6000fd5b505050506040513d601f19601f82011682018060405250810190612b7c919061423e565b8d8d6001604051612b979b9a999897969594939291906145d4565b60405180910390a15b5080612bab81614660565b9150506127bb565b5060405163fe0329c960e01b8152600481018290526001600160a01b0386169063fe0329c990602401600060405180830381600087803b158015612bf657600080fd5b505af1158015612c0a573d6000803e3d6000fd5b505050505050505050565b6000612c2382840184614277565b945050505050612c348582866139db565b846001600160a01b031663200d2ed26040518163ffffffff1660e01b8152600401602060405180830381865afa158015612c72573d6000803e3d6000fd5b505050506040513d601f19601f82011682018060405250810190612c96919061423e565b600003612e5c57846001600160a01b03166322fa365e6040518163ffffffff1660e01b8152600401600060405180830381600087803b158015612cd857600080fd5b505af1158015612cec573d6000803e3d6000fd5b50505050600080516020614854833981519152856001600160a01b031663c17bd75e6040518163ffffffff1660e01b8152600401600060405180830381865afa158015612d3d573d6000803e3d6000fd5b505050506040513d6000823e601f3d908101601f19168201604052612d6591908101906143ea565b86876001600160a01b03166323bd4d7a6040518163ffffffff1660e01b8152600401600060405180830381865afa158015612da4573d6000803e3d6000fd5b505050506040513d6000823e601f3d908101601f19168201604052612dcc91908101906143ea565b6000428a6001600160a01b031663b3ca1f3b6040518163ffffffff1660e01b8152600401602060405180830381865afa158015612e0d573d6000803e3d6000fd5b505050506040513d601f19601f82011682018060405250810190612e31919061423e565b60408051600081526020810191829052612e5397969594939291600190614770565b60405180910390a15b60405163020702ff60e11b81526000906001600160a01b0387169063040e05fe90612e8d908890869060040161470c565b6020604051808303816000875af1158015612eac573d6000803e3d6000fd5b505050506040513d601f19601f82011682018060405250810190612ed0919061423e565b9050600080516020614834833981519152866001600160a01b031663c17bd75e6040518163ffffffff1660e01b8152600401600060405180830381865afa158015612f1f573d6000803e3d6000fd5b505050506040513d6000823e601f3d908101601f19168201604052612f4791908101906143ea565b87886001600160a01b03166323bd4d7a6040518163ffffffff1660e01b8152600401600060405180830381865afa158015612f86573d6000803e3d6000fd5b505050506040513d6000823e601f3d908101601f19168201604052612fae91908101906143ea565b88428b6001600160a01b0316635cc048386040518163ffffffff1660e01b8152600401602060405180830381865afa158015612fee573d6000803e3d6000fd5b505050506040513d601f19601f820116820180604052508101906130129190614725565b878d6001600160a01b031663b3ca1f3b6040518163ffffffff1660e01b8152600401602060405180830381865afa158015613051573d6000803e3d6000fd5b505050506040513d601f19601f82011682018060405250810190613075919061423e565b8c8c60016040516130909b9a999897969594939291906145d4565b60405180910390a160005b866001600160a01b03166377ede8a66040518163ffffffff1660e01b8152600401600060405180830381865afa1580156130d9573d6000803e3d6000fd5b505050506040513d6000823e601f3d908101601f191682016040526131019190810190614687565b5181101561349957604051630de2fe4b60e11b8152600481018290526000906001600160a01b03891690631bc5fc9690602401602060405180830381865afa158015613151573d6000803e3d6000fd5b505050506040513d601f19601f82011682018060405250810190613175919061423e565b60405163160a30a360e01b81526004810182905290915084906001600160a01b038a169063160a30a390602401602060405180830381865afa1580156131bf573d6000803e3d6000fd5b505050506040513d601f19601f820116820180604052508101906131e3919061423e565b03613486576040516371ec4ebf60e01b81526001600160a01b038916906371ec4ebf90613216908a90859060040161470c565b600060405180830381600087803b15801561323057600080fd5b505af1158015613244573d6000803e3d6000fd5b50505050600080516020614874833981519152886001600160a01b031663c17bd75e6040518163ffffffff1660e01b8152600401600060405180830381865afa158015613295573d6000803e3d6000fd5b505050506040513d6000823e601f3d908101601f191682016040526132bd91908101906143ea565b898a6001600160a01b03166323bd4d7a6040518163ffffffff1660e01b8152600401600060405180830381865afa1580156132fc573d6000803e3d6000fd5b505050506040513d6000823e601f3d908101601f1916820160405261332491908101906143ea565b6040516397bb3ce960e01b8152600481018690528b9042906001600160a01b038f16906397bb3ce990602401602060405180830381865afa15801561336d573d6000803e3d6000fd5b505050506040513d601f19601f820116820180604052508101906133919190614725565b8e6001600160a01b031663f2321725896040518263ffffffff1660e01b81526004016133bf91815260200190565b602060405180830381865afa1580156133dc573d6000803e3d6000fd5b505050506040513d601f19601f82011682018060405250810190613400919061423e565b8f6001600160a01b031663b3ca1f3b6040518163ffffffff1660e01b8152600401602060405180830381865afa15801561343e573d6000803e3d6000fd5b505050506040513d601f19601f82011682018060405250810190613462919061423e565b8e8e600160405161347d9b9a999897969594939291906145d4565b60405180910390a15b508061349181614660565b91505061309b565b5060405163fe0329c960e01b8152600481018390526001600160a01b0387169063fe0329c990602401600060405180830381600087803b1580156134dc57600080fd5b505af11580156134f0573d6000803e3d6000fd5b50505050505050505050565b600054610100900460ff166135235760405162461bcd60e51b8152600401610372906147e8565b6105ec613d8c565b600054610100900460ff166105ec5760405162461bcd60e51b8152600401610372906147e8565b600054610100900460ff166135795760405162461bcd60e51b8152600401610372906147e8565b603380546001600160a01b0319166001600160a01b0392909216919091179055565b603380546001600160a01b038381166001600160a01b0319831681179093556040519116919082907f9b0948b943e24ff3413cb400b2eeae4337138739aaf31759dc6e813e8076fbc390600090a35050565b6001600160a01b0381163b61365a5760405162461bcd60e51b815260206004820152602d60248201527f455243313936373a206e657720696d706c656d656e746174696f6e206973206e60448201526c1bdd08184818dbdb9d1c9858dd609a1b6064820152608401610372565b60008051602061489483398151915280546001600160a01b0319166001600160a01b0392909216919091179055565b61369283613dbc565b60008251118061369f5750805b1561166c576136ae8383613dfc565b50505050565b816001600160a01b0316637d6694b56040518163ffffffff1660e01b8152600401602060405180830381865afa1580156136f2573d6000803e3d6000fd5b505050506040513d601f19601f82011682018060405250810190613716919061421c565b156137e7576000826001600160a01b031663dda640816040518163ffffffff1660e01b8152600401600060405180830381865afa15801561375b573d6000803e3d6000fd5b505050506040513d6000823e601f3d908101601f1916820160405261378391908101906143ea565b806020019051810190613796919061421c565b90508060405180604001604052806014815260200173494e564f4943455f4e4f545f434f4d504c45544560601b815250906137e45760405162461bcd60e51b81526004016103729190614359565b50505b816001600160a01b031663cbcca3dc6040518163ffffffff1660e01b8152600401602060405180830381865afa158015613825573d6000803e3d6000fd5b505050506040513d601f19601f82011682018060405250810190613849919061421c565b15613923576000826001600160a01b0316637026b4726040518163ffffffff1660e01b8152600401600060405180830381865afa15801561388e573d6000803e3d6000fd5b505050506040513d6000823e601f3d908101601f191682016040526138b691908101906143ea565b8060200190518101906138c9919061421c565b9050806040518060400160405280601c81526020017f535550504f5254494e475f444f43535f4e4f545f434f4d504c45544500000000815250906139205760405162461bcd60e51b81526004016103729190614359565b50505b816001600160a01b031663b96990916040518163ffffffff1660e01b8152600401602060405180830381865afa158015613961573d6000803e3d6000fd5b505050506040513d601f19601f82011682018060405250810190613985919061421c565b156104b057613993816104b4565b60405180604001604052806011815260200170414444524553535f4c41434b535f4b594360781b8152509061166c5760405162461bcd60e51b81526004016103729190614359565b604051634ee5bdc760e11b8152600481018390526001600160a01b03841690639dcb7b8e90602401602060405180830381865afa158015613a20573d6000803e3d6000fd5b505050506040513d601f19601f82011682018060405250810190613a44919061421c565b15604051806040016040528060148152602001731512515497d053149150511657d0d3105253515160621b81525090613a905760405162461bcd60e51b81526004016103729190614359565b50826001600160a01b0316637d6694b56040518163ffffffff1660e01b8152600401602060405180830381865afa158015613acf573d6000803e3d6000fd5b505050506040513d601f19601f82011682018060405250810190613af3919061421c565b15613bae57604051636029851360e11b8152600481018390526001600160a01b0384169063c0530a2690602401602060405180830381865afa158015613b3d573d6000803e3d6000fd5b505050506040513d601f19601f82011682018060405250810190613b61919061421c565b60405180604001604052806014815260200173494e564f4943455f4e4f545f434f4d504c45544560601b81525090613bac5760405162461bcd60e51b81526004016103729190614359565b505b826001600160a01b031663cbcca3dc6040518163ffffffff1660e01b8152600401602060405180830381865afa158015613bec573d6000803e3d6000fd5b505050506040513d601f19601f82011682018060405250810190613c10919061421c565b15613cd457604051630bf8644160e41b8152600481018390526001600160a01b0384169063bf86441090602401602060405180830381865afa158015613c5a573d6000803e3d6000fd5b505050506040513d601f19601f82011682018060405250810190613c7e919061421c565b6040518060400160405280601c81526020017f535550504f5254494e475f444f43535f4e4f545f434f4d504c4554450000000081525090613cd25760405162461bcd60e51b81526004016103729190614359565b505b826001600160a01b031663b96990916040518163ffffffff1660e01b8152600401602060405180830381865afa158015613d12573d6000803e3d6000fd5b505050506040513d601f19601f82011682018060405250810190613d36919061421c565b1561166c57613d44816104b4565b60405180604001604052806011815260200170414444524553535f4c41434b535f4b594360781b815250906136ae5760405162461bcd60e51b81526004016103729190614359565b600054610100900460ff16613db35760405162461bcd60e51b8152600401610372906147e8565b6105ec33611803565b613dc5816135ed565b6040516001600160a01b038216907fbc7cd75a20ee27fd9adebab32041f755214dbc6bffa90cc0225b39da2e5c2d3b90600090a250565b60606001600160a01b0383163b613e645760405162461bcd60e51b815260206004820152602660248201527f416464726573733a2064656c65676174652063616c6c20746f206e6f6e2d636f6044820152651b9d1c9858dd60d21b6064820152608401610372565b600080846001600160a01b031684604051613e7f91906144e6565b600060405180830381855af49150503d8060008114613eba576040519150601f19603f3d011682016040523d82523d6000602084013e613ebf565b606091505b5091509150613ee782826040518060600160405280602781526020016148b460279139613ef0565b95945050505050565b60608315613eff575081613f29565b825115613f0f5782518084602001fd5b8160405162461bcd60e51b81526004016103729190614359565b9392505050565b6001600160a01b03811681146103f857600080fd5b600060208284031215613f5757600080fd5b8135613f2981613f30565b634e487b7160e01b600052604160045260246000fd5b604051601f8201601f191681016001600160401b0381118282101715613fa057613fa0613f62565b604052919050565b60006001600160401b03821115613fc157613fc1613f62565b50601f01601f191660200190565b6000613fe2613fdd84613fa8565b613f78565b9050828152838383011115613ff657600080fd5b828260208301376000602084830101529392505050565b6000806040838503121561402057600080fd5b823561402b81613f30565b915060208301356001600160401b0381111561404657600080fd5b8301601f8101851361405757600080fd5b61406685823560208401613fcf565b9150509250929050565b6001600160a01b0391909116815260200190565b60008083601f84011261409657600080fd5b5081356001600160401b038111156140ad57600080fd5b6020830191508360208285010111156140c557600080fd5b9250929050565b600080600080606085870312156140e257600080fd5b84356140ed81613f30565b935060208501356140fd81613f30565b925060408501356001600160401b0381111561411857600080fd5b61412487828801614084565b95989497509550505050565b60008060006040848603121561414557600080fd5b833561415081613f30565b925060208401356001600160401b0381111561416b57600080fd5b61417786828701614084565b9497909650939450505050565b6020808252602c908201527f46756e6374696f6e206d7573742062652063616c6c6564207468726f7567682060408201526b19195b1959d85d1958d85b1b60a21b606082015260800190565b6020808252602c908201527f46756e6374696f6e206d7573742062652063616c6c6564207468726f7567682060408201526b6163746976652070726f787960a01b606082015260800190565b60006020828403121561422e57600080fd5b81518015158114613f2957600080fd5b60006020828403121561425057600080fd5b5051919050565b600082601f83011261426857600080fd5b613f2983833560208501613fcf565b600080600080600060a0868803121561428f57600080fd5b853561429a81613f30565b945060208601356001600160401b03808211156142b657600080fd5b6142c289838a01614257565b9550604088013591506142d482613f30565b909350606087013590808211156142ea57600080fd5b506142f788828901614257565b95989497509295608001359392505050565b60005b8381101561432457818101518382015260200161430c565b50506000910152565b60008151808452614345816020860160208601614309565b601f01601f19169290920160200192915050565b602081526000613f29602083018461432d565b81835281816020850137506000828201602090810191909152601f909101601f19169091010190565b6001600160a01b0384168152604060208201819052600090613ee7908301848661436c565b60006143c8613fdd84613fa8565b90508281528383830111156143dc57600080fd5b613f29836020830184614309565b6000602082840312156143fc57600080fd5b81516001600160401b0381111561441257600080fd5b8201601f8101841361442357600080fd5b614432848251602084016143ba565b949350505050565b600061010080835261444e8184018d61432d565b6001600160a01b038c811660208601528482036040860152909150614473828c61432d565b9150808a166060850152508760808401528660a084015282810360c084015261449d81868861436c565b9150508260e08301529a9950505050505050505050565b8581528460208201526080604082015260006144d460808301858761436c565b90508260608301529695505050505050565b600082516144f8818460208701614309565b9190910192915050565b60006001600160401b0382111561451b5761451b613f62565b5060051b60200190565b6000602080838503121561453857600080fd5b82516001600160401b0381111561454e57600080fd5b8301601f8101851361455f57600080fd5b805161456d613fdd82614502565b81815260059190911b8201830190838101908783111561458c57600080fd5b928401925b828410156145b35783516145a481613f30565b82529284019290840190614591565b979650505050505050565b634e487b7160e01b600052603260045260246000fd5b60006101408083526145e88184018f61432d565b6001600160a01b038e81166020860152848203604086015290915061460d828e61432d565b9150808c1660608501528a6080850152808a1660a0850152508760c08401528660e084015282810361010084015261464681868861436c565b915050826101208301529c9b505050505050505050505050565b60006001820161468057634e487b7160e01b600052601160045260246000fd5b5060010190565b6000602080838503121561469a57600080fd5b82516001600160401b038111156146b057600080fd5b8301601f810185136146c157600080fd5b80516146cf613fdd82614502565b81815260059190911b820183019083810190878311156146ee57600080fd5b928401925b828410156145b3578351825292840192908401906146f3565b6001600160a01b03929092168252602082015260400190565b60006020828403121561473757600080fd5b8151613f2981613f30565b6000806040838503121561475557600080fd5b825161476081613f30565b6020939093015192949293505050565b60006101008083526147848184018c61432d565b6001600160a01b038b8116602086015284820360408601529091506147a9828b61432d565b91508089166060850152508660808401528560a084015282810360c08401526147d2818661432d565b9150508260e08301529998505050505050505050565b6020808252602b908201527f496e697469616c697a61626c653a20636f6e7472616374206973206e6f74206960408201526a6e697469616c697a696e6760a81b60608201526080019056fe740c702bb9b71852192a0a943140360ddb500d906a1f945b48c4a6bf78047852b9d76ba577270421a3b4826a02b81b7678f1d62214225408b99f94e42d78278c7bec1fa43a121aa27c28cbbe6f5296871967c47439c054218395b34e41579e55360894a13ba1a3210667c828492db98dca3e2076cc3735a920a3ca505d382bbc416464726573733a206c6f772d6c6576656c2064656c65676174652063616c6c206661696c6564a2646970667358221220039e35954ab7226278801e7f618e930a4ee3d7e22613457377da47a58b49fcaf64736f6c63430008110033",
  "linkReferences": {},
  "deployedLinkReferences": {}
}