{
  "_format": "hh-sol-artifact-1",
  "contractName": "ClaimManagerV1",
  "sourceName": "contracts/ClaimManager/Implementations/ClaimManagerV1.sol",
  "abi": [
    {
      "inputs": [],
      "stateMutability": "nonpayable",
      "type": "constructor"
    },
    {
      "anonymous": false,
      "inputs": [
        {
          "indexed": false,
          "internalType": "address",
          "name": "previousAdmin",
          "type": "address"
        },
        {
          "indexed": false,
          "internalType": "address",
          "name": "newAdmin",
          "type": "address"
        }
      ],
      "name": "AdminChanged",
      "type": "event"
    },
    {
      "anonymous": false,
      "inputs": [
        {
          "indexed": true,
          "internalType": "address",
          "name": "beacon",
          "type": "address"
        }
      ],
      "name": "BeaconUpgraded",
      "type": "event"
    },
    {
      "anonymous": false,
      "inputs": [
        {
          "indexed": false,
          "internalType": "string",
          "name": "bountyId",
          "type": "string"
        },
        {
          "indexed": false,
          "internalType": "address",
          "name": "bountyAddress",
          "type": "address"
        },
        {
          "indexed": false,
          "internalType": "string",
          "name": "organization",
          "type": "string"
        },
        {
          "indexed": false,
          "internalType": "address",
          "name": "closer",
          "type": "address"
        },
        {
          "indexed": false,
          "internalType": "uint256",
          "name": "bountyClosedTime",
          "type": "uint256"
        },
        {
          "indexed": false,
          "internalType": "uint256",
          "name": "bountyType",
          "type": "uint256"
        },
        {
          "indexed": false,
          "internalType": "bytes",
          "name": "data",
          "type": "bytes"
        },
        {
          "indexed": false,
          "internalType": "uint256",
          "name": "version",
          "type": "uint256"
        }
      ],
      "name": "BountyClosed",
      "type": "event"
    },
    {
      "anonymous": false,
      "inputs": [
        {
          "indexed": false,
          "internalType": "uint256",
          "name": "claimTime",
          "type": "uint256"
        },
        {
          "indexed": false,
          "internalType": "uint256",
          "name": "bountyType",
          "type": "uint256"
        },
        {
          "indexed": false,
          "internalType": "bytes",
          "name": "data",
          "type": "bytes"
        },
        {
          "indexed": false,
          "internalType": "uint256",
          "name": "version",
          "type": "uint256"
        }
      ],
      "name": "ClaimSuccess",
      "type": "event"
    },
    {
      "anonymous": false,
      "inputs": [
        {
          "indexed": false,
          "internalType": "uint8",
          "name": "version",
          "type": "uint8"
        }
      ],
      "name": "Initialized",
      "type": "event"
    },
    {
      "anonymous": false,
      "inputs": [
        {
          "indexed": false,
          "internalType": "string",
          "name": "bountyId",
          "type": "string"
        },
        {
          "indexed": false,
          "internalType": "address",
          "name": "bountyAddress",
          "type": "address"
        },
        {
          "indexed": false,
          "internalType": "string",
          "name": "organization",
          "type": "string"
        },
        {
          "indexed": false,
          "internalType": "address",
          "name": "closer",
          "type": "address"
        },
        {
          "indexed": false,
          "internalType": "uint256",
          "name": "payoutTime",
          "type": "uint256"
        },
        {
          "indexed": false,
          "internalType": "address",
          "name": "tokenAddress",
          "type": "address"
        },
        {
          "indexed": false,
          "internalType": "uint256",
          "name": "tokenId",
          "type": "uint256"
        },
        {
          "indexed": false,
          "internalType": "uint256",
          "name": "bountyType",
          "type": "uint256"
        },
        {
          "indexed": false,
          "internalType": "bytes",
          "name": "data",
          "type": "bytes"
        },
        {
          "indexed": false,
          "internalType": "uint256",
          "name": "version",
          "type": "uint256"
        }
      ],
      "name": "NFTClaimed",
      "type": "event"
    },
    {
      "anonymous": false,
      "inputs": [
        {
          "indexed": true,
          "internalType": "address",
          "name": "previousOracle",
          "type": "address"
        },
        {
          "indexed": true,
          "internalType": "address",
          "name": "newOracle",
          "type": "address"
        }
      ],
      "name": "OracleTransferred",
      "type": "event"
    },
    {
      "anonymous": false,
      "inputs": [
        {
          "indexed": true,
          "internalType": "address",
          "name": "previousOwner",
          "type": "address"
        },
        {
          "indexed": true,
          "internalType": "address",
          "name": "newOwner",
          "type": "address"
        }
      ],
      "name": "OwnershipTransferred",
      "type": "event"
    },
    {
      "anonymous": false,
      "inputs": [
        {
          "indexed": false,
          "internalType": "string",
          "name": "bountyId",
          "type": "string"
        },
        {
          "indexed": false,
          "internalType": "address",
          "name": "bountyAddress",
          "type": "address"
        },
        {
          "indexed": false,
          "internalType": "string",
          "name": "organization",
          "type": "string"
        },
        {
          "indexed": false,
          "internalType": "address",
          "name": "closer",
          "type": "address"
        },
        {
          "indexed": false,
          "internalType": "uint256",
          "name": "payoutTime",
          "type": "uint256"
        },
        {
          "indexed": false,
          "internalType": "address",
          "name": "tokenAddress",
          "type": "address"
        },
        {
          "indexed": false,
          "internalType": "uint256",
          "name": "volume",
          "type": "uint256"
        },
        {
          "indexed": false,
          "internalType": "uint256",
          "name": "bountyType",
          "type": "uint256"
        },
        {
          "indexed": false,
          "internalType": "bytes",
          "name": "data",
          "type": "bytes"
        },
        {
          "indexed": false,
          "internalType": "uint256",
          "name": "version",
          "type": "uint256"
        }
      ],
      "name": "TokenBalanceClaimed",
      "type": "event"
    },
    {
      "anonymous": false,
      "inputs": [
        {
          "indexed": true,
          "internalType": "address",
          "name": "implementation",
          "type": "address"
        }
      ],
      "name": "Upgraded",
      "type": "event"
    },
    {
      "inputs": [],
      "name": "VERSION_1",
      "outputs": [
        {
          "internalType": "uint256",
          "name": "",
          "type": "uint256"
        }
      ],
      "stateMutability": "view",
      "type": "function"
    },
    {
      "inputs": [
        {
          "internalType": "address",
          "name": "_bountyAddress",
          "type": "address"
        },
        {
          "internalType": "address",
          "name": "_closer",
          "type": "address"
        },
        {
          "internalType": "bytes",
          "name": "_closerData",
          "type": "bytes"
        }
      ],
      "name": "claimBounty",
      "outputs": [],
      "stateMutability": "nonpayable",
      "type": "function"
    },
    {
      "inputs": [
        {
          "internalType": "address",
          "name": "_address",
          "type": "address"
        }
      ],
      "name": "hasKYC",
      "outputs": [
        {
          "internalType": "bool",
          "name": "",
          "type": "bool"
        }
      ],
      "stateMutability": "view",
      "type": "function"
    },
    {
      "inputs": [
        {
          "internalType": "address",
          "name": "_oracle",
          "type": "address"
        },
        {
          "internalType": "address",
          "name": "_openQ",
          "type": "address"
        },
        {
          "internalType": "address",
          "name": "_kyc",
          "type": "address"
        }
      ],
      "name": "initialize",
      "outputs": [],
      "stateMutability": "nonpayable",
      "type": "function"
    },
    {
      "inputs": [],
      "name": "kyc",
      "outputs": [
        {
          "internalType": "address",
          "name": "",
          "type": "address"
        }
      ],
      "stateMutability": "view",
      "type": "function"
    },
    {
      "inputs": [],
      "name": "openQ",
      "outputs": [
        {
          "internalType": "address",
          "name": "",
          "type": "address"
        }
      ],
      "stateMutability": "view",
      "type": "function"
    },
    {
      "inputs": [],
      "name": "oracle",
      "outputs": [
        {
          "internalType": "address",
          "name": "",
          "type": "address"
        }
      ],
      "stateMutability": "view",
      "type": "function"
    },
    {
      "inputs": [],
      "name": "owner",
      "outputs": [
        {
          "internalType": "address",
          "name": "",
          "type": "address"
        }
      ],
      "stateMutability": "view",
      "type": "function"
    },
    {
      "inputs": [
        {
          "internalType": "address",
          "name": "_bountyAddress",
          "type": "address"
        },
        {
          "internalType": "bytes",
          "name": "_closerData",
          "type": "bytes"
        }
      ],
      "name": "permissionedClaimTieredBounty",
      "outputs": [],
      "stateMutability": "nonpayable",
      "type": "function"
    },
    {
      "inputs": [],
      "name": "proxiableUUID",
      "outputs": [
        {
          "internalType": "bytes32",
          "name": "",
          "type": "bytes32"
        }
      ],
      "stateMutability": "view",
      "type": "function"
    },
    {
      "inputs": [],
      "name": "renounceOwnership",
      "outputs": [],
      "stateMutability": "nonpayable",
      "type": "function"
    },
    {
      "inputs": [
        {
          "internalType": "address",
          "name": "_kyc",
          "type": "address"
        }
      ],
      "name": "setKyc",
      "outputs": [],
      "stateMutability": "nonpayable",
      "type": "function"
    },
    {
      "inputs": [
        {
          "internalType": "address",
          "name": "_openQ",
          "type": "address"
        }
      ],
      "name": "setOpenQ",
      "outputs": [],
      "stateMutability": "nonpayable",
      "type": "function"
    },
    {
      "inputs": [
        {
          "internalType": "address",
          "name": "_newOracle",
          "type": "address"
        }
      ],
      "name": "transferOracle",
      "outputs": [],
      "stateMutability": "nonpayable",
      "type": "function"
    },
    {
      "inputs": [
        {
          "internalType": "address",
          "name": "newOwner",
          "type": "address"
        }
      ],
      "name": "transferOwnership",
      "outputs": [],
      "stateMutability": "nonpayable",
      "type": "function"
    },
    {
      "inputs": [
        {
          "internalType": "address",
          "name": "newImplementation",
          "type": "address"
        }
      ],
      "name": "upgradeTo",
      "outputs": [],
      "stateMutability": "nonpayable",
      "type": "function"
    },
    {
      "inputs": [
        {
          "internalType": "address",
          "name": "newImplementation",
          "type": "address"
        },
        {
          "internalType": "bytes",
          "name": "data",
          "type": "bytes"
        }
      ],
      "name": "upgradeToAndCall",
      "outputs": [],
      "stateMutability": "payable",
      "type": "function"
    }
  ],
  "bytecode": "0x60a0604052306080523480156200001557600080fd5b506200002062000026565b620000e8565b600054610100900460ff1615620000935760405162461bcd60e51b815260206004820152602760248201527f496e697469616c697a61626c653a20636f6e747261637420697320696e697469604482015266616c697a696e6760c81b606482015260840160405180910390fd5b60005460ff9081161015620000e6576000805460ff191660ff9081179091556040519081527f7f26b83ff96e1f2b6a682f133852f6798a09c465da95921460cefb38474024989060200160405180910390a15b565b6080516131df620001746000396000818161030901528181610352015281816103da0152818161041a0152818161050e015281816105cd0152818161060d0152818161070a0152818161074a01528181610b7301528181610bb301528181610ca801528181610ce8015281816110cc0152818161110c01528181611241015261128101526131df6000f3fe6080604052600436106100de5760003560e01c80638da5cb5b116100855780638da5cb5b146101e157806390d6b45f146101ff57806399c272061461021f578063a9c6dfda1461023f578063c0c53b8b1461025f578063e1a0e3d81461027f578063e73268061461029f578063f2fde38b146102bf578063fdf993a8146102df57600080fd5b806326c20e5f146100e35780633659cfe61461010b5780634f1ef2861461012d5780635249e8621461014057806352d1902d14610170578063715018a6146101855780637dc0d1d01461019a5780637dc81fa2146101c1575b600080fd5b3480156100ef57600080fd5b506100f8600181565b6040519081526020015b60405180910390f35b34801561011757600080fd5b5061012b610126366004612876565b6102ff565b005b61012b61013b36600461293e565b6103d0565b34801561014c57600080fd5b5061016061015b366004612876565b610489565b6040519015158152602001610102565b34801561017c57600080fd5b506100f8610501565b34801561019157600080fd5b5061012b6105af565b3480156101a657600080fd5b506033546001600160a01b03165b60405161010291906129a1565b3480156101cd57600080fd5b5060fc546101b4906001600160a01b031681565b3480156101ed57600080fd5b506066546001600160a01b03166101b4565b34801561020b57600080fd5b5060fd546101b4906001600160a01b031681565b34801561022b57600080fd5b5061012b61023a366004612876565b6105c3565b34801561024b57600080fd5b5061012b61025a3660046129fd565b61068d565b34801561026b57600080fd5b5061012b61027a366004612a61565b610aa9565b34801561028b57600080fd5b5061012b61029a366004612aac565b610c9e565b3480156102ab57600080fd5b5061012b6102ba366004612876565b6110c2565b3480156102cb57600080fd5b5061012b6102da366004612876565b6111c1565b3480156102eb57600080fd5b5061012b6102fa366004612876565b611237565b6001600160a01b037f00000000000000000000000000000000000000000000000000000000000000001630036103505760405162461bcd60e51b815260040161034790612b00565b60405180910390fd5b7f00000000000000000000000000000000000000000000000000000000000000006001600160a01b0316610382611301565b6001600160a01b0316146103a85760405162461bcd60e51b815260040161034790612b4c565b6103b18161131d565b604080516000808252602082019092526103cd91839190611325565b50565b6001600160a01b037f00000000000000000000000000000000000000000000000000000000000000001630036104185760405162461bcd60e51b815260040161034790612b00565b7f00000000000000000000000000000000000000000000000000000000000000006001600160a01b031661044a611301565b6001600160a01b0316146104705760405162461bcd60e51b815260040161034790612b4c565b6104798261131d565b61048582826001611325565b5050565b60fd546040516309d2676360e41b81526000916001600160a01b031690639d267630906104ba9085906004016129a1565b602060405180830381865afa1580156104d7573d6000803e3d6000fd5b505050506040513d601f19601f820116820180604052508101906104fb9190612b98565b92915050565b6000306001600160a01b037f0000000000000000000000000000000000000000000000000000000000000000161461059c5760405162461bcd60e51b815260206004820152603860248201527f555550535570677261646561626c653a206d757374206e6f742062652063616c6044820152771b1959081d1a1c9bdd59da0819195b1959d85d1958d85b1b60421b6064820152608401610347565b5060008051602061316383398151915290565b6105b7611495565b6105c160006114ef565b565b6001600160a01b037f000000000000000000000000000000000000000000000000000000000000000016300361060b5760405162461bcd60e51b815260040161034790612b00565b7f00000000000000000000000000000000000000000000000000000000000000006001600160a01b031661063d611301565b6001600160a01b0316146106635760405162461bcd60e51b815260040161034790612b4c565b61066b611495565b60fd80546001600160a01b0319166001600160a01b0392909216919091179055565b6033546001600160a01b031633146107005760405162461bcd60e51b815260206004820152603060248201527f4f7261636c697a653a2063616c6c6572206973206e6f7420746865206375727260448201526f656e74204f70656e51204f7261636c6560801b6064820152608401610347565b6001600160a01b037f00000000000000000000000000000000000000000000000000000000000000001630036107485760405162461bcd60e51b815260040161034790612b00565b7f00000000000000000000000000000000000000000000000000000000000000006001600160a01b031661077a611301565b6001600160a01b0316146107a05760405162461bcd60e51b815260040161034790612b4c565b60008490506000816001600160a01b031663b3ca1f3b6040518163ffffffff1660e01b8152600401602060405180830381865afa1580156107e5573d6000803e3d6000fd5b505050506040513d601f19601f820116820180604052508101906108099190612bba565b905080610a065761081c83850185612bf3565b5050505061082c82868686611541565b604051632338d37760e01b81526001600160a01b03831690632338d3779061085c90889088908890600401612ca6565b600060405180830381600087803b15801561087657600080fd5b505af115801561088a573d6000803e3d6000fd5b505050507fb9d76ba577270421a3b4826a02b81b7678f1d62214225408b99f94e42d78278c826001600160a01b031663c17bd75e6040518163ffffffff1660e01b8152600401600060405180830381865afa1580156108ed573d6000803e3d6000fd5b505050506040513d6000823e601f3d908101601f191682016040526109159190810190612d1f565b87846001600160a01b03166323bd4d7a6040518163ffffffff1660e01b8152600401600060405180830381865afa158015610954573d6000803e3d6000fd5b505050506040513d6000823e601f3d908101601f1916820160405261097c9190810190612d1f565b8842876001600160a01b031663b3ca1f3b6040518163ffffffff1660e01b8152600401602060405180830381865afa1580156109bc573d6000803e3d6000fd5b505050506040513d601f19601f820116820180604052508101906109e09190612bba565b8a8a60016040516109f999989796959493929190612d9b565b60405180910390a1610a61565b6002198101610a2057610a1b828686866118d3565b610a61565b6040805180820182526013815272554e4b4e4f574e5f424f554e54595f5459504560681b6020820152905162461bcd60e51b81526103479190600401612e15565b7fd6de63792ebd5ae7b0da0e2a38b6fe8acd3b85073d8c96d84bd84271663d0eca428286866001604051610a99959493929190612e28565b60405180910390a1505050505050565b600054610100900460ff1615808015610ac95750600054600160ff909116105b80610ae35750303b158015610ae3575060005460ff166001145b610b465760405162461bcd60e51b815260206004820152602e60248201527f496e697469616c697a61626c653a20636f6e747261637420697320616c72656160448201526d191e481a5b9a5d1a585b1a5e995960921b6064820152608401610347565b6000805460ff191660011790558015610b69576000805461ff0019166101001790555b6001600160a01b037f0000000000000000000000000000000000000000000000000000000000000000163003610bb15760405162461bcd60e51b815260040161034790612b00565b7f00000000000000000000000000000000000000000000000000000000000000006001600160a01b0316610be3611301565b6001600160a01b031614610c095760405162461bcd60e51b815260040161034790612b4c565b610c11611d77565b610c19611da6565b610c2284611dcd565b60fc80546001600160a01b038086166001600160a01b03199283161790925560fd8054928516929091169190911790558015610c98576000805461ff0019169055604051600181527f7f26b83ff96e1f2b6a682f133852f6798a09c465da95921460cefb38474024989060200160405180910390a15b50505050565b6001600160a01b037f0000000000000000000000000000000000000000000000000000000000000000163003610ce65760405162461bcd60e51b815260040161034790612b00565b7f00000000000000000000000000000000000000000000000000000000000000006001600160a01b0316610d18611301565b6001600160a01b031614610d3e5760405162461bcd60e51b815260040161034790612b4c565b826000610d4d83850185612e5a565b60fc546040516315fe148360e21b8152919650600095506001600160a01b031693506357f8520c9250610d85915033906004016129a1565b6000604051808303816000875af1158015610da4573d6000803e3d6000fd5b505050506040513d6000823e601f3d908101601f19168201604052610dcc9190810190612d1f565b60408051600081526020810180835281519020929350610dee91849101612eec565b604051602081830303815290604052805190602001201415604051806040016040528060158152602001744e4f5f4153534f4349415445445f4144445245535360581b81525090610e525760405162461bcd60e51b81526004016103479190612e15565b5060405163cd8ffb3760e01b8152600481018390526001600160a01b0384169063cd8ffb3790602401600060405180830381865afa158015610e98573d6000803e3d6000fd5b505050506040513d6000823e601f3d908101601f19168201604052610ec09190810190612d1f565b604051602001610ed09190612e15565b6040516020818303038152906040528051906020012081604051602001610ef79190612e15565b60405160208183030381529060405280519060200120146040518060400160405280601881526020017721a620a4a6a0a72a2fa727aa2faa24a2a92faba4a72722a960411b81525090610f5d5760405162461bcd60e51b81526004016103479190612e15565b50600363ffffffff16836001600160a01b031663b3ca1f3b6040518163ffffffff1660e01b8152600401602060405180830381865afa158015610fa4573d6000803e3d6000fd5b505050506040513d601f19601f82011682018060405250810190610fc89190612bba565b03610fde57610fd9833387876118d3565b611029565b604080518082018252601a81527f4e4f545f415f434f4d5045544954494f4e5f434f4e54524143540000000000006020820152905162461bcd60e51b81526103479190600401612e15565b7fd6de63792ebd5ae7b0da0e2a38b6fe8acd3b85073d8c96d84bd84271663d0eca42846001600160a01b031663b3ca1f3b6040518163ffffffff1660e01b8152600401602060405180830381865afa158015611089573d6000803e3d6000fd5b505050506040513d601f19601f820116820180604052508101906110ad9190612bba565b87876001604051610a99959493929190612e28565b6001600160a01b037f000000000000000000000000000000000000000000000000000000000000000016300361110a5760405162461bcd60e51b815260040161034790612b00565b7f00000000000000000000000000000000000000000000000000000000000000006001600160a01b031661113c611301565b6001600160a01b0316146111625760405162461bcd60e51b815260040161034790612b4c565b61116a611495565b60408051808201909152600f81526e4e4f5f5a45524f5f4144445245535360881b60208201526001600160a01b0382166111b75760405162461bcd60e51b81526004016103479190612e15565b506103cd81611e16565b6111c9611495565b6001600160a01b03811661122e5760405162461bcd60e51b815260206004820152602660248201527f4f776e61626c653a206e6577206f776e657220697320746865207a65726f206160448201526564647265737360d01b6064820152608401610347565b6103cd816114ef565b6001600160a01b037f000000000000000000000000000000000000000000000000000000000000000016300361127f5760405162461bcd60e51b815260040161034790612b00565b7f00000000000000000000000000000000000000000000000000000000000000006001600160a01b03166112b1611301565b6001600160a01b0316146112d75760405162461bcd60e51b815260040161034790612b4c565b6112df611495565b60fc80546001600160a01b0319166001600160a01b0392909216919091179055565b600080516020613163833981519152546001600160a01b031690565b6103cd611495565b7f4910fdfa16fed3260ed0e7147f7cc6da11a60208b5b9406d12a635614ffd91435460ff161561135d5761135883611e68565b505050565b826001600160a01b03166352d1902d6040518163ffffffff1660e01b8152600401602060405180830381865afa9250505080156113b7575060408051601f3d908101601f191682019092526113b491810190612bba565b60015b61141a5760405162461bcd60e51b815260206004820152602e60248201527f45524331393637557067726164653a206e657720696d706c656d656e7461746960448201526d6f6e206973206e6f74205555505360901b6064820152608401610347565b60008051602061316383398151915281146114895760405162461bcd60e51b815260206004820152602960248201527f45524331393637557067726164653a20756e737570706f727465642070726f786044820152681a58589b195555525160ba1b6064820152608401610347565b50611358838383611f04565b6066546001600160a01b031633146105c15760405162461bcd60e51b815260206004820181905260248201527f4f776e61626c653a2063616c6c6572206973206e6f7420746865206f776e65726044820152606401610347565b606680546001600160a01b038381166001600160a01b0319831681179093556040519116919082907f8be0079c531659141344cd1fd0a4f28419497f9722a3daafe3b4186f6b6457e090600090a35050565b61154b8484611f29565b60005b846001600160a01b031663ee8c24b86040518163ffffffff1660e01b8152600401600060405180830381865afa15801561158c573d6000803e3d6000fd5b505050506040513d6000823e601f3d908101601f191682016040526115b49190810190612f08565b518110156118cc576000856001600160a01b031663cb2da3db86886001600160a01b031663ee8c24b86040518163ffffffff1660e01b8152600401600060405180830381865afa15801561160c573d6000803e3d6000fd5b505050506040513d6000823e601f3d908101601f191682016040526116349190810190612f08565b858151811061164557611645612fb9565b60200260200101516040518363ffffffff1660e01b815260040161167f9291906001600160a01b0392831681529116602082015260400190565b6020604051808303816000875af115801561169e573d6000803e3d6000fd5b505050506040513d601f19601f820116820180604052508101906116c29190612bba565b90507f740c702bb9b71852192a0a943140360ddb500d906a1f945b48c4a6bf78047852866001600160a01b031663c17bd75e6040518163ffffffff1660e01b8152600401600060405180830381865afa158015611723573d6000803e3d6000fd5b505050506040513d6000823e601f3d908101601f1916820160405261174b9190810190612d1f565b87886001600160a01b03166323bd4d7a6040518163ffffffff1660e01b8152600401600060405180830381865afa15801561178a573d6000803e3d6000fd5b505050506040513d6000823e601f3d908101601f191682016040526117b29190810190612d1f565b88428b6001600160a01b031663ee8c24b86040518163ffffffff1660e01b8152600401600060405180830381865afa1580156117f2573d6000803e3d6000fd5b505050506040513d6000823e601f3d908101601f1916820160405261181a9190810190612f08565b888151811061182b5761182b612fb9565b6020026020010151878d6001600160a01b031663b3ca1f3b6040518163ffffffff1660e01b8152600401602060405180830381865afa158015611872573d6000803e3d6000fd5b505050506040513d601f19601f820116820180604052508101906118969190612bba565b8c8c60016040516118b19b9a99989796959493929190612fcf565b60405180910390a150806118c48161305b565b91505061154e565b5050505050565b60006118e182840184612e5a565b9450505050506118f285828661230c565b846001600160a01b031663200d2ed26040518163ffffffff1660e01b8152600401602060405180830381865afa158015611930573d6000803e3d6000fd5b505050506040513d601f19601f820116820180604052508101906119549190612bba565b600003611b2c57846001600160a01b03166322fa365e6040518163ffffffff1660e01b8152600401600060405180830381600087803b15801561199657600080fd5b505af11580156119aa573d6000803e3d6000fd5b505050507fb9d76ba577270421a3b4826a02b81b7678f1d62214225408b99f94e42d78278c856001600160a01b031663c17bd75e6040518163ffffffff1660e01b8152600401600060405180830381865afa158015611a0d573d6000803e3d6000fd5b505050506040513d6000823e601f3d908101601f19168201604052611a359190810190612d1f565b86876001600160a01b03166323bd4d7a6040518163ffffffff1660e01b8152600401600060405180830381865afa158015611a74573d6000803e3d6000fd5b505050506040513d6000823e601f3d908101601f19168201604052611a9c9190810190612d1f565b6000428a6001600160a01b031663b3ca1f3b6040518163ffffffff1660e01b8152600401602060405180830381865afa158015611add573d6000803e3d6000fd5b505050506040513d601f19601f82011682018060405250810190611b019190612bba565b60408051600081526020810191829052611b2397969594939291600190613082565b60405180910390a15b60405163020702ff60e11b81526001600160a01b038581166004830152602482018390526000919087169063040e05fe906044016020604051808303816000875af1158015611b7f573d6000803e3d6000fd5b505050506040513d601f19601f82011682018060405250810190611ba39190612bba565b90507f740c702bb9b71852192a0a943140360ddb500d906a1f945b48c4a6bf78047852866001600160a01b031663c17bd75e6040518163ffffffff1660e01b8152600401600060405180830381865afa158015611c04573d6000803e3d6000fd5b505050506040513d6000823e601f3d908101601f19168201604052611c2c9190810190612d1f565b87886001600160a01b03166323bd4d7a6040518163ffffffff1660e01b8152600401600060405180830381865afa158015611c6b573d6000803e3d6000fd5b505050506040513d6000823e601f3d908101601f19168201604052611c939190810190612d1f565b88428b6001600160a01b0316635cc048386040518163ffffffff1660e01b81526004016020604051808303816000875af1158015611cd5573d6000803e3d6000fd5b505050506040513d601f19601f82011682018060405250810190611cf991906130fa565b878d6001600160a01b031663b3ca1f3b6040518163ffffffff1660e01b8152600401602060405180830381865afa158015611d38573d6000803e3d6000fd5b505050506040513d601f19601f82011682018060405250810190611d5c9190612bba565b8c8c6001604051610a999b9a99989796959493929190612fcf565b600054610100900460ff16611d9e5760405162461bcd60e51b815260040161034790613117565b6105c16126bd565b600054610100900460ff166105c15760405162461bcd60e51b815260040161034790613117565b600054610100900460ff16611df45760405162461bcd60e51b815260040161034790613117565b603380546001600160a01b0319166001600160a01b0392909216919091179055565b603380546001600160a01b038381166001600160a01b0319831681179093556040519116919082907f9b0948b943e24ff3413cb400b2eeae4337138739aaf31759dc6e813e8076fbc390600090a35050565b6001600160a01b0381163b611ed55760405162461bcd60e51b815260206004820152602d60248201527f455243313936373a206e657720696d706c656d656e746174696f6e206973206e60448201526c1bdd08184818dbdb9d1c9858dd609a1b6064820152608401610347565b60008051602061316383398151915280546001600160a01b0319166001600160a01b0392909216919091179055565b611f0d836126ed565b600082511180611f1a5750805b1561135857610c98838361272d565b600063ffffffff16826001600160a01b031663200d2ed26040518163ffffffff1660e01b8152600401602060405180830381865afa158015611f6f573d6000803e3d6000fd5b505050506040513d601f19601f82011682018060405250810190611f939190612bba565b1460405180604001604052806019815260200178434f4e54524143545f49535f4e4f545f434c41494d41424c4560381b81525090611fe45760405162461bcd60e51b81526004016103479190612e15565b50816001600160a01b0316637d6694b56040518163ffffffff1660e01b8152600401602060405180830381865afa158015612023573d6000803e3d6000fd5b505050506040513d601f19601f820116820180604052508101906120479190612b98565b15612118576000826001600160a01b031663dda640816040518163ffffffff1660e01b8152600401600060405180830381865afa15801561208c573d6000803e3d6000fd5b505050506040513d6000823e601f3d908101601f191682016040526120b49190810190612d1f565b8060200190518101906120c79190612b98565b90508060405180604001604052806014815260200173494e564f4943455f4e4f545f434f4d504c45544560601b815250906121155760405162461bcd60e51b81526004016103479190612e15565b50505b816001600160a01b031663cbcca3dc6040518163ffffffff1660e01b8152600401602060405180830381865afa158015612156573d6000803e3d6000fd5b505050506040513d601f19601f8201168201806040525081019061217a9190612b98565b15612254576000826001600160a01b0316637026b4726040518163ffffffff1660e01b8152600401600060405180830381865afa1580156121bf573d6000803e3d6000fd5b505050506040513d6000823e601f3d908101601f191682016040526121e79190810190612d1f565b8060200190518101906121fa9190612b98565b9050806040518060400160405280601c81526020017f535550504f5254494e475f444f43535f4e4f545f434f4d504c45544500000000815250906122515760405162461bcd60e51b81526004016103479190612e15565b50505b816001600160a01b031663b96990916040518163ffffffff1660e01b8152600401602060405180830381865afa158015612292573d6000803e3d6000fd5b505050506040513d601f19601f820116820180604052508101906122b69190612b98565b15610485576122c481610489565b60405180604001604052806011815260200170414444524553535f4c41434b535f4b594360781b815250906113585760405162461bcd60e51b81526004016103479190612e15565b604051634ee5bdc760e11b8152600481018390526001600160a01b03841690639dcb7b8e90602401602060405180830381865afa158015612351573d6000803e3d6000fd5b505050506040513d601f19601f820116820180604052508101906123759190612b98565b15604051806040016040528060148152602001731512515497d053149150511657d0d3105253515160621b815250906123c15760405162461bcd60e51b81526004016103479190612e15565b50826001600160a01b0316637d6694b56040518163ffffffff1660e01b8152600401602060405180830381865afa158015612400573d6000803e3d6000fd5b505050506040513d601f19601f820116820180604052508101906124249190612b98565b156124df57604051636029851360e11b8152600481018390526001600160a01b0384169063c0530a2690602401602060405180830381865afa15801561246e573d6000803e3d6000fd5b505050506040513d601f19601f820116820180604052508101906124929190612b98565b60405180604001604052806014815260200173494e564f4943455f4e4f545f434f4d504c45544560601b815250906124dd5760405162461bcd60e51b81526004016103479190612e15565b505b826001600160a01b031663cbcca3dc6040518163ffffffff1660e01b8152600401602060405180830381865afa15801561251d573d6000803e3d6000fd5b505050506040513d601f19601f820116820180604052508101906125419190612b98565b1561260557604051630bf8644160e41b8152600481018390526001600160a01b0384169063bf86441090602401602060405180830381865afa15801561258b573d6000803e3d6000fd5b505050506040513d601f19601f820116820180604052508101906125af9190612b98565b6040518060400160405280601c81526020017f535550504f5254494e475f444f43535f4e4f545f434f4d504c45544500000000815250906126035760405162461bcd60e51b81526004016103479190612e15565b505b826001600160a01b031663b96990916040518163ffffffff1660e01b8152600401602060405180830381865afa158015612643573d6000803e3d6000fd5b505050506040513d601f19601f820116820180604052508101906126679190612b98565b156113585761267581610489565b60405180604001604052806011815260200170414444524553535f4c41434b535f4b594360781b81525090610c985760405162461bcd60e51b81526004016103479190612e15565b600054610100900460ff166126e45760405162461bcd60e51b815260040161034790613117565b6105c1336114ef565b6126f681611e68565b6040516001600160a01b038216907fbc7cd75a20ee27fd9adebab32041f755214dbc6bffa90cc0225b39da2e5c2d3b90600090a250565b60606001600160a01b0383163b6127955760405162461bcd60e51b815260206004820152602660248201527f416464726573733a2064656c65676174652063616c6c20746f206e6f6e2d636f6044820152651b9d1c9858dd60d21b6064820152608401610347565b600080846001600160a01b0316846040516127b09190612eec565b600060405180830381855af49150503d80600081146127eb576040519150601f19603f3d011682016040523d82523d6000602084013e6127f0565b606091505b5091509150612818828260405180606001604052806027815260200161318360279139612821565b95945050505050565b6060831561283057508161285a565b8251156128405782518084602001fd5b8160405162461bcd60e51b81526004016103479190612e15565b9392505050565b6001600160a01b03811681146103cd57600080fd5b60006020828403121561288857600080fd5b813561285a81612861565b634e487b7160e01b600052604160045260246000fd5b604051601f8201601f191681016001600160401b03811182821017156128d1576128d1612893565b604052919050565b60006001600160401b038211156128f2576128f2612893565b50601f01601f191660200190565b600061291361290e846128d9565b6128a9565b905082815283838301111561292757600080fd5b828260208301376000602084830101529392505050565b6000806040838503121561295157600080fd5b823561295c81612861565b915060208301356001600160401b0381111561297757600080fd5b8301601f8101851361298857600080fd5b61299785823560208401612900565b9150509250929050565b6001600160a01b0391909116815260200190565b60008083601f8401126129c757600080fd5b5081356001600160401b038111156129de57600080fd5b6020830191508360208285010111156129f657600080fd5b9250929050565b60008060008060608587031215612a1357600080fd5b8435612a1e81612861565b93506020850135612a2e81612861565b925060408501356001600160401b03811115612a4957600080fd5b612a55878288016129b5565b95989497509550505050565b600080600060608486031215612a7657600080fd5b8335612a8181612861565b92506020840135612a9181612861565b91506040840135612aa181612861565b809150509250925092565b600080600060408486031215612ac157600080fd5b8335612acc81612861565b925060208401356001600160401b03811115612ae757600080fd5b612af3868287016129b5565b9497909650939450505050565b6020808252602c908201527f46756e6374696f6e206d7573742062652063616c6c6564207468726f7567682060408201526b19195b1959d85d1958d85b1b60a21b606082015260800190565b6020808252602c908201527f46756e6374696f6e206d7573742062652063616c6c6564207468726f7567682060408201526b6163746976652070726f787960a01b606082015260800190565b600060208284031215612baa57600080fd5b8151801515811461285a57600080fd5b600060208284031215612bcc57600080fd5b5051919050565b600082601f830112612be457600080fd5b61285a83833560208501612900565b60008060008060808587031215612c0957600080fd5b8435612c1481612861565b935060208501356001600160401b0380821115612c3057600080fd5b612c3c88838901612bd3565b945060408701359150612c4e82612861565b90925060608601359080821115612c6457600080fd5b50612c7187828801612bd3565b91505092959194509250565b81835281816020850137506000828201602090810191909152601f909101601f19169091010190565b6001600160a01b03841681526040602082018190526000906128189083018486612c7d565b60005b83811015612ce6578181015183820152602001612cce565b50506000910152565b6000612cfd61290e846128d9565b9050828152838383011115612d1157600080fd5b61285a836020830184612ccb565b600060208284031215612d3157600080fd5b81516001600160401b03811115612d4757600080fd5b8201601f81018413612d5857600080fd5b612d6784825160208401612cef565b949350505050565b60008151808452612d87816020860160208601612ccb565b601f01601f19169290920160200192915050565b6000610100808352612daf8184018d612d6f565b6001600160a01b038c811660208601528482036040860152909150612dd4828c612d6f565b9150808a166060850152508760808401528660a084015282810360c0840152612dfe818688612c7d565b9150508260e08301529a9950505050505050505050565b60208152600061285a6020830184612d6f565b858152846020820152608060408201526000612e48608083018587612c7d565b90508260608301529695505050505050565b600080600080600060a08688031215612e7257600080fd5b8535612e7d81612861565b945060208601356001600160401b0380821115612e9957600080fd5b612ea589838a01612bd3565b955060408801359150612eb782612861565b90935060608701359080821115612ecd57600080fd5b50612eda88828901612bd3565b95989497509295608001359392505050565b60008251612efe818460208701612ccb565b9190910192915050565b60006020808385031215612f1b57600080fd5b82516001600160401b0380821115612f3257600080fd5b818501915085601f830112612f4657600080fd5b815181811115612f5857612f58612893565b8060051b9150612f698483016128a9565b8181529183018401918481019088841115612f8357600080fd5b938501935b83851015612fad5784519250612f9d83612861565b8282529385019390850190612f88565b98975050505050505050565b634e487b7160e01b600052603260045260246000fd5b6000610140808352612fe38184018f612d6f565b6001600160a01b038e811660208601528482036040860152909150613008828e612d6f565b9150808c1660608501528a6080850152808a1660a0850152508760c08401528660e0840152828103610100840152613041818688612c7d565b915050826101208301529c9b505050505050505050505050565b60006001820161307b57634e487b7160e01b600052601160045260246000fd5b5060010190565b60006101008083526130968184018c612d6f565b6001600160a01b038b8116602086015284820360408601529091506130bb828b612d6f565b91508089166060850152508660808401528560a084015282810360c08401526130e48186612d6f565b9150508260e08301529998505050505050505050565b60006020828403121561310c57600080fd5b815161285a81612861565b6020808252602b908201527f496e697469616c697a61626c653a20636f6e7472616374206973206e6f74206960408201526a6e697469616c697a696e6760a81b60608201526080019056fe360894a13ba1a3210667c828492db98dca3e2076cc3735a920a3ca505d382bbc416464726573733a206c6f772d6c6576656c2064656c65676174652063616c6c206661696c6564a2646970667358221220c3fe865d807e993597a0bedd821a1a0cc55a83bd17eaa381be8e7fe7f9391dca64736f6c63430008110033",
  "linkReferences": {},
  "deployedLinkReferences": {}
}