{
  "_format": "hh-sol-artifact-1",
  "contractName": "TieredPercentageBountyV1",
  "sourceName": "contracts/Bounty/Implementations/TieredPercentageBountyV1.sol",
  "abi": [
    {
      "inputs": [],
      "stateMutability": "nonpayable",
      "type": "constructor"
    },
    {
      "anonymous": false,
      "inputs": [
        {
          "indexed": false,
          "internalType": "uint8",
          "name": "version",
          "type": "uint8"
        }
      ],
      "name": "Initialized",
      "type": "event"
    },
    {
      "inputs": [],
      "name": "VERSION_1",
      "outputs": [
        {
          "internalType": "uint256",
          "name": "",
          "type": "uint256"
        }
      ],
      "stateMutability": "view",
      "type": "function"
    },
    {
      "inputs": [],
      "name": "bountyClosedTime",
      "outputs": [
        {
          "internalType": "uint256",
          "name": "",
          "type": "uint256"
        }
      ],
      "stateMutability": "view",
      "type": "function"
    },
    {
      "inputs": [],
      "name": "bountyCreatedTime",
      "outputs": [
        {
          "internalType": "uint256",
          "name": "",
          "type": "uint256"
        }
      ],
      "stateMutability": "view",
      "type": "function"
    },
    {
      "inputs": [],
      "name": "bountyId",
      "outputs": [
        {
          "internalType": "string",
          "name": "",
          "type": "string"
        }
      ],
      "stateMutability": "view",
      "type": "function"
    },
    {
      "inputs": [],
      "name": "bountyType",
      "outputs": [
        {
          "internalType": "uint256",
          "name": "",
          "type": "uint256"
        }
      ],
      "stateMutability": "view",
      "type": "function"
    },
    {
      "inputs": [],
      "name": "claimManager",
      "outputs": [
        {
          "internalType": "address",
          "name": "",
          "type": "address"
        }
      ],
      "stateMutability": "view",
      "type": "function"
    },
    {
      "inputs": [
        {
          "internalType": "address",
          "name": "_payoutAddress",
          "type": "address"
        },
        {
          "internalType": "bytes32",
          "name": "_depositId",
          "type": "bytes32"
        }
      ],
      "name": "claimNft",
      "outputs": [],
      "stateMutability": "nonpayable",
      "type": "function"
    },
    {
      "inputs": [
        {
          "internalType": "address",
          "name": "_payoutAddress",
          "type": "address"
        },
        {
          "internalType": "uint256",
          "name": "_tier",
          "type": "uint256"
        },
        {
          "internalType": "address",
          "name": "_tokenAddress",
          "type": "address"
        }
      ],
      "name": "claimTiered",
      "outputs": [
        {
          "internalType": "uint256",
          "name": "",
          "type": "uint256"
        }
      ],
      "stateMutability": "nonpayable",
      "type": "function"
    },
    {
      "inputs": [],
      "name": "closeCompetition",
      "outputs": [],
      "stateMutability": "nonpayable",
      "type": "function"
    },
    {
      "inputs": [],
      "name": "closer",
      "outputs": [
        {
          "internalType": "address",
          "name": "",
          "type": "address"
        }
      ],
      "stateMutability": "view",
      "type": "function"
    },
    {
      "inputs": [],
      "name": "closerData",
      "outputs": [
        {
          "internalType": "bytes",
          "name": "",
          "type": "bytes"
        }
      ],
      "stateMutability": "view",
      "type": "function"
    },
    {
      "inputs": [],
      "name": "depositManager",
      "outputs": [
        {
          "internalType": "address",
          "name": "",
          "type": "address"
        }
      ],
      "stateMutability": "view",
      "type": "function"
    },
    {
      "inputs": [
        {
          "internalType": "bytes32",
          "name": "",
          "type": "bytes32"
        }
      ],
      "name": "depositTime",
      "outputs": [
        {
          "internalType": "uint256",
          "name": "",
          "type": "uint256"
        }
      ],
      "stateMutability": "view",
      "type": "function"
    },
    {
      "inputs": [
        {
          "internalType": "uint256",
          "name": "",
          "type": "uint256"
        }
      ],
      "name": "deposits",
      "outputs": [
        {
          "internalType": "bytes32",
          "name": "",
          "type": "bytes32"
        }
      ],
      "stateMutability": "view",
      "type": "function"
    },
    {
      "inputs": [
        {
          "internalType": "bytes32",
          "name": "",
          "type": "bytes32"
        }
      ],
      "name": "expiration",
      "outputs": [
        {
          "internalType": "uint256",
          "name": "",
          "type": "uint256"
        }
      ],
      "stateMutability": "view",
      "type": "function"
    },
    {
      "inputs": [
        {
          "internalType": "bytes32",
          "name": "_depositId",
          "type": "bytes32"
        },
        {
          "internalType": "uint256",
          "name": "_seconds",
          "type": "uint256"
        },
        {
          "internalType": "address",
          "name": "_funder",
          "type": "address"
        }
      ],
      "name": "extendDeposit",
      "outputs": [
        {
          "internalType": "uint256",
          "name": "",
          "type": "uint256"
        }
      ],
      "stateMutability": "nonpayable",
      "type": "function"
    },
    {
      "inputs": [
        {
          "internalType": "bytes32",
          "name": "",
          "type": "bytes32"
        }
      ],
      "name": "funder",
      "outputs": [
        {
          "internalType": "address",
          "name": "",
          "type": "address"
        }
      ],
      "stateMutability": "view",
      "type": "function"
    },
    {
      "inputs": [],
      "name": "fundingGoal",
      "outputs": [
        {
          "internalType": "uint256",
          "name": "",
          "type": "uint256"
        }
      ],
      "stateMutability": "view",
      "type": "function"
    },
    {
      "inputs": [],
      "name": "fundingToken",
      "outputs": [
        {
          "internalType": "address",
          "name": "",
          "type": "address"
        }
      ],
      "stateMutability": "view",
      "type": "function"
    },
    {
      "inputs": [
        {
          "internalType": "address",
          "name": "",
          "type": "address"
        }
      ],
      "name": "fundingTotals",
      "outputs": [
        {
          "internalType": "uint256",
          "name": "",
          "type": "uint256"
        }
      ],
      "stateMutability": "view",
      "type": "function"
    },
    {
      "inputs": [],
      "name": "getDeposits",
      "outputs": [
        {
          "internalType": "bytes32[]",
          "name": "",
          "type": "bytes32[]"
        }
      ],
      "stateMutability": "view",
      "type": "function"
    },
    {
      "inputs": [
        {
          "internalType": "address",
          "name": "_tokenAddress",
          "type": "address"
        }
      ],
      "name": "getERC20Balance",
      "outputs": [
        {
          "internalType": "uint256",
          "name": "balance",
          "type": "uint256"
        }
      ],
      "stateMutability": "view",
      "type": "function"
    },
    {
      "inputs": [],
      "name": "getInvoiceComplete",
      "outputs": [
        {
          "internalType": "bytes",
          "name": "",
          "type": "bytes"
        }
      ],
      "stateMutability": "view",
      "type": "function"
    },
    {
      "inputs": [
        {
          "internalType": "address",
          "name": "_depositId",
          "type": "address"
        }
      ],
      "name": "getLockedFunds",
      "outputs": [
        {
          "internalType": "uint256",
          "name": "",
          "type": "uint256"
        }
      ],
      "stateMutability": "view",
      "type": "function"
    },
    {
      "inputs": [],
      "name": "getNftDeposits",
      "outputs": [
        {
          "internalType": "bytes32[]",
          "name": "",
          "type": "bytes32[]"
        }
      ],
      "stateMutability": "view",
      "type": "function"
    },
    {
      "inputs": [],
      "name": "getPayoutSchedule",
      "outputs": [
        {
          "internalType": "uint256[]",
          "name": "",
          "type": "uint256[]"
        }
      ],
      "stateMutability": "view",
      "type": "function"
    },
    {
      "inputs": [],
      "name": "getSupportingDocumentsComplete",
      "outputs": [
        {
          "internalType": "bytes",
          "name": "",
          "type": "bytes"
        }
      ],
      "stateMutability": "view",
      "type": "function"
    },
    {
      "inputs": [],
      "name": "getTierWinners",
      "outputs": [
        {
          "internalType": "string[]",
          "name": "",
          "type": "string[]"
        }
      ],
      "stateMutability": "view",
      "type": "function"
    },
    {
      "inputs": [],
      "name": "getTokenAddresses",
      "outputs": [
        {
          "internalType": "address[]",
          "name": "",
          "type": "address[]"
        }
      ],
      "stateMutability": "view",
      "type": "function"
    },
    {
      "inputs": [],
      "name": "getTokenAddressesCount",
      "outputs": [
        {
          "internalType": "uint256",
          "name": "",
          "type": "uint256"
        }
      ],
      "stateMutability": "view",
      "type": "function"
    },
    {
      "inputs": [
        {
          "internalType": "address",
          "name": "_tokenAddress",
          "type": "address"
        }
      ],
      "name": "getTokenBalance",
      "outputs": [
        {
          "internalType": "uint256",
          "name": "",
          "type": "uint256"
        }
      ],
      "stateMutability": "view",
      "type": "function"
    },
    {
      "inputs": [],
      "name": "hasFundingGoal",
      "outputs": [
        {
          "internalType": "bool",
          "name": "",
          "type": "bool"
        }
      ],
      "stateMutability": "view",
      "type": "function"
    },
    {
      "inputs": [
        {
          "internalType": "string",
          "name": "_bountyId",
          "type": "string"
        },
        {
          "internalType": "address",
          "name": "_issuer",
          "type": "address"
        },
        {
          "internalType": "string",
          "name": "_organization",
          "type": "string"
        },
        {
          "internalType": "address",
          "name": "_openQ",
          "type": "address"
        },
        {
          "internalType": "address",
          "name": "_claimManager",
          "type": "address"
        },
        {
          "internalType": "address",
          "name": "_depositManager",
          "type": "address"
        },
        {
          "components": [
            {
              "internalType": "uint32",
              "name": "operationType",
              "type": "uint32"
            },
            {
              "internalType": "bytes",
              "name": "data",
              "type": "bytes"
            }
          ],
          "internalType": "struct OpenQDefinitions.InitOperation",
          "name": "_operation",
          "type": "tuple"
        }
      ],
      "name": "initialize",
      "outputs": [],
      "stateMutability": "nonpayable",
      "type": "function"
    },
    {
      "inputs": [
        {
          "internalType": "uint256",
          "name": "",
          "type": "uint256"
        }
      ],
      "name": "invoiceComplete",
      "outputs": [
        {
          "internalType": "bool",
          "name": "",
          "type": "bool"
        }
      ],
      "stateMutability": "view",
      "type": "function"
    },
    {
      "inputs": [],
      "name": "invoiceRequired",
      "outputs": [
        {
          "internalType": "bool",
          "name": "",
          "type": "bool"
        }
      ],
      "stateMutability": "view",
      "type": "function"
    },
    {
      "inputs": [
        {
          "internalType": "bytes32",
          "name": "",
          "type": "bytes32"
        }
      ],
      "name": "isNFT",
      "outputs": [
        {
          "internalType": "bool",
          "name": "",
          "type": "bool"
        }
      ],
      "stateMutability": "view",
      "type": "function"
    },
    {
      "inputs": [],
      "name": "issuer",
      "outputs": [
        {
          "internalType": "address",
          "name": "",
          "type": "address"
        }
      ],
      "stateMutability": "view",
      "type": "function"
    },
    {
      "inputs": [],
      "name": "issuerExternalUserId",
      "outputs": [
        {
          "internalType": "string",
          "name": "",
          "type": "string"
        }
      ],
      "stateMutability": "view",
      "type": "function"
    },
    {
      "inputs": [],
      "name": "kycRequired",
      "outputs": [
        {
          "internalType": "bool",
          "name": "",
          "type": "bool"
        }
      ],
      "stateMutability": "view",
      "type": "function"
    },
    {
      "inputs": [],
      "name": "nftDepositLimit",
      "outputs": [
        {
          "internalType": "uint256",
          "name": "",
          "type": "uint256"
        }
      ],
      "stateMutability": "view",
      "type": "function"
    },
    {
      "inputs": [
        {
          "internalType": "uint256",
          "name": "",
          "type": "uint256"
        }
      ],
      "name": "nftDeposits",
      "outputs": [
        {
          "internalType": "bytes32",
          "name": "",
          "type": "bytes32"
        }
      ],
      "stateMutability": "view",
      "type": "function"
    },
    {
      "inputs": [
        {
          "internalType": "address",
          "name": "",
          "type": "address"
        },
        {
          "internalType": "address",
          "name": "",
          "type": "address"
        },
        {
          "internalType": "uint256",
          "name": "",
          "type": "uint256"
        },
        {
          "internalType": "bytes",
          "name": "",
          "type": "bytes"
        }
      ],
      "name": "onERC721Received",
      "outputs": [
        {
          "internalType": "bytes4",
          "name": "",
          "type": "bytes4"
        }
      ],
      "stateMutability": "nonpayable",
      "type": "function"
    },
    {
      "inputs": [],
      "name": "openQ",
      "outputs": [
        {
          "internalType": "address",
          "name": "",
          "type": "address"
        }
      ],
      "stateMutability": "view",
      "type": "function"
    },
    {
      "inputs": [],
      "name": "organization",
      "outputs": [
        {
          "internalType": "string",
          "name": "",
          "type": "string"
        }
      ],
      "stateMutability": "view",
      "type": "function"
    },
    {
      "inputs": [
        {
          "internalType": "bytes32",
          "name": "",
          "type": "bytes32"
        }
      ],
      "name": "payoutAddress",
      "outputs": [
        {
          "internalType": "address",
          "name": "",
          "type": "address"
        }
      ],
      "stateMutability": "view",
      "type": "function"
    },
    {
      "inputs": [
        {
          "internalType": "uint256",
          "name": "",
          "type": "uint256"
        }
      ],
      "name": "payoutSchedule",
      "outputs": [
        {
          "internalType": "uint256",
          "name": "",
          "type": "uint256"
        }
      ],
      "stateMutability": "view",
      "type": "function"
    },
    {
      "inputs": [
        {
          "internalType": "address",
          "name": "_funder",
          "type": "address"
        },
        {
          "internalType": "address",
          "name": "_tokenAddress",
          "type": "address"
        },
        {
          "internalType": "uint256",
          "name": "_volume",
          "type": "uint256"
        },
        {
          "internalType": "uint256",
          "name": "_expiration",
          "type": "uint256"
        }
      ],
      "name": "receiveFunds",
      "outputs": [
        {
          "internalType": "bytes32",
          "name": "",
          "type": "bytes32"
        },
        {
          "internalType": "uint256",
          "name": "",
          "type": "uint256"
        }
      ],
      "stateMutability": "payable",
      "type": "function"
    },
    {
      "inputs": [
        {
          "internalType": "address",
          "name": "_sender",
          "type": "address"
        },
        {
          "internalType": "address",
          "name": "_tokenAddress",
          "type": "address"
        },
        {
          "internalType": "uint256",
          "name": "_tokenId",
          "type": "uint256"
        },
        {
          "internalType": "uint256",
          "name": "_expiration",
          "type": "uint256"
        },
        {
          "internalType": "bytes",
          "name": "_data",
          "type": "bytes"
        }
      ],
      "name": "receiveNft",
      "outputs": [
        {
          "internalType": "bytes32",
          "name": "",
          "type": "bytes32"
        }
      ],
      "stateMutability": "nonpayable",
      "type": "function"
    },
    {
      "inputs": [
        {
          "internalType": "bytes32",
          "name": "_depositId",
          "type": "bytes32"
        },
        {
          "internalType": "address",
          "name": "_funder",
          "type": "address"
        },
        {
          "internalType": "uint256",
          "name": "_volume",
          "type": "uint256"
        }
      ],
      "name": "refundDeposit",
      "outputs": [],
      "stateMutability": "nonpayable",
      "type": "function"
    },
    {
      "inputs": [
        {
          "internalType": "bytes32",
          "name": "",
          "type": "bytes32"
        }
      ],
      "name": "refunded",
      "outputs": [
        {
          "internalType": "bool",
          "name": "",
          "type": "bool"
        }
      ],
      "stateMutability": "view",
      "type": "function"
    },
    {
      "inputs": [
        {
          "internalType": "address",
          "name": "_fundingToken",
          "type": "address"
        },
        {
          "internalType": "uint256",
          "name": "_fundingGoal",
          "type": "uint256"
        }
      ],
      "name": "setFundingGoal",
      "outputs": [],
      "stateMutability": "nonpayable",
      "type": "function"
    },
    {
      "inputs": [
        {
          "internalType": "bytes",
          "name": "_data",
          "type": "bytes"
        }
      ],
      "name": "setInvoiceComplete",
      "outputs": [],
      "stateMutability": "nonpayable",
      "type": "function"
    },
    {
      "inputs": [
        {
          "internalType": "bool",
          "name": "_invoiceRequired",
          "type": "bool"
        }
      ],
      "name": "setInvoiceRequired",
      "outputs": [],
      "stateMutability": "nonpayable",
      "type": "function"
    },
    {
      "inputs": [
        {
          "internalType": "bool",
          "name": "_kycRequired",
          "type": "bool"
        }
      ],
      "name": "setKycRequired",
      "outputs": [],
      "stateMutability": "nonpayable",
      "type": "function"
    },
    {
      "inputs": [
        {
          "internalType": "uint256[]",
          "name": "_payoutSchedule",
          "type": "uint256[]"
        }
      ],
      "name": "setPayoutSchedule",
      "outputs": [],
      "stateMutability": "nonpayable",
      "type": "function"
    },
    {
      "inputs": [
        {
          "internalType": "bytes",
          "name": "_data",
          "type": "bytes"
        }
      ],
      "name": "setSupportingDocumentsComplete",
      "outputs": [],
      "stateMutability": "nonpayable",
      "type": "function"
    },
    {
      "inputs": [
        {
          "internalType": "bool",
          "name": "_supportingDocumentsRequired",
          "type": "bool"
        }
      ],
      "name": "setSupportingDocumentsRequired",
      "outputs": [],
      "stateMutability": "nonpayable",
      "type": "function"
    },
    {
      "inputs": [
        {
          "internalType": "uint256",
          "name": "_tier",
          "type": "uint256"
        }
      ],
      "name": "setTierClaimed",
      "outputs": [],
      "stateMutability": "nonpayable",
      "type": "function"
    },
    {
      "inputs": [
        {
          "internalType": "string",
          "name": "_winner",
          "type": "string"
        },
        {
          "internalType": "uint256",
          "name": "_tier",
          "type": "uint256"
        }
      ],
      "name": "setTierWinner",
      "outputs": [],
      "stateMutability": "nonpayable",
      "type": "function"
    },
    {
      "inputs": [],
      "name": "status",
      "outputs": [
        {
          "internalType": "uint256",
          "name": "",
          "type": "uint256"
        }
      ],
      "stateMutability": "view",
      "type": "function"
    },
    {
      "inputs": [
        {
          "internalType": "uint256",
          "name": "",
          "type": "uint256"
        }
      ],
      "name": "supportingDocumentsComplete",
      "outputs": [
        {
          "internalType": "bool",
          "name": "",
          "type": "bool"
        }
      ],
      "stateMutability": "view",
      "type": "function"
    },
    {
      "inputs": [],
      "name": "supportingDocumentsRequired",
      "outputs": [
        {
          "internalType": "bool",
          "name": "",
          "type": "bool"
        }
      ],
      "stateMutability": "view",
      "type": "function"
    },
    {
      "inputs": [
        {
          "internalType": "bytes32",
          "name": "",
          "type": "bytes32"
        }
      ],
      "name": "tier",
      "outputs": [
        {
          "internalType": "uint256",
          "name": "",
          "type": "uint256"
        }
      ],
      "stateMutability": "view",
      "type": "function"
    },
    {
      "inputs": [
        {
          "internalType": "uint256",
          "name": "",
          "type": "uint256"
        }
      ],
      "name": "tierClaimed",
      "outputs": [
        {
          "internalType": "bool",
          "name": "",
          "type": "bool"
        }
      ],
      "stateMutability": "view",
      "type": "function"
    },
    {
      "inputs": [
        {
          "internalType": "uint256",
          "name": "",
          "type": "uint256"
        }
      ],
      "name": "tierWinners",
      "outputs": [
        {
          "internalType": "string",
          "name": "",
          "type": "string"
        }
      ],
      "stateMutability": "view",
      "type": "function"
    },
    {
      "inputs": [
        {
          "internalType": "bytes32",
          "name": "",
          "type": "bytes32"
        }
      ],
      "name": "tokenAddress",
      "outputs": [
        {
          "internalType": "address",
          "name": "",
          "type": "address"
        }
      ],
      "stateMutability": "view",
      "type": "function"
    },
    {
      "inputs": [
        {
          "internalType": "bytes32",
          "name": "",
          "type": "bytes32"
        }
      ],
      "name": "tokenId",
      "outputs": [
        {
          "internalType": "uint256",
          "name": "",
          "type": "uint256"
        }
      ],
      "stateMutability": "view",
      "type": "function"
    },
    {
      "inputs": [
        {
          "internalType": "bytes32",
          "name": "",
          "type": "bytes32"
        }
      ],
      "name": "volume",
      "outputs": [
        {
          "internalType": "uint256",
          "name": "",
          "type": "uint256"
        }
      ],
      "stateMutability": "view",
      "type": "function"
    },
    {
      "stateMutability": "payable",
      "type": "receive"
    }
  ],
  "bytecode": "0x608060405234801561001057600080fd5b50614894806100206000396000f3fe6080604052600436106103735760003560e01c806397bb3ce9116101c8578063cbcca3dc116100f8578063eb58c0fd1161009b578063eb58c0fd14610be1578063ee1034fb14610c01578063ee1e43e014610c21578063ee8c24b814610c3b578063f05e0f7e14610c5d578063f232172514610c8d578063fbeadd2b14610cba578063fd9ef47c14610ccf578063fe0329c914610cef57600080fd5b8063cbcca3dc14610ad7578063cd8ffb3714610af7578063ceff310714610b17578063d6fe0f4414610b37578063dda6408114610b5f578063e452d08b14610b74578063e5f6094714610b94578063e83963eb14610bc157600080fd5b8063b3ca1f3b1161016b578063b3ca1f3b146109cc578063b588d225146109e2578063b969909114610a02578063b99bb99014610a21578063bf86441014610a57578063c0530a2614610a77578063c17bd75e14610a97578063c5b6e70514610aac578063cb4436b714610ac157600080fd5b806397bb3ce9146108b2578063995280b0146108e85780639dcaa3cc146108fe5780639dcb7b8e1461091e578063a7f01e4d1461094e578063a9a36dcd1461096e578063b02c43d01461098c578063b3b41cea146109ac57600080fd5b80633aecd0e3116102a35780637044f282116102465780637044f2821461079d57806371ec4ebf146107bd57806377ede8a6146107dd57806378065f27146107f25780637a3a0e84146108175780637cb8e8e41461082d5780637d6694b51461084d5780637dc81fa214610867578063968b098f1461088557600080fd5b80633aecd0e3146106925780633f40f636146106b257806355f1c18a146106d257806356406fa5146106f257806359ba83441461071f5780636b149d87146107555780636c7ac9d81461076a5780637026b4721461078857600080fd5b80631bc5fc96116103165780631bc5fc96146105615780631d14384814610581578063200d2ed2146105b957806322fa365e146105cf578063235b2b94146105e457806323bd4d7a1461062457806326c20e5f146106395780632a120b331461064e57806336150d381461067057600080fd5b80630961413d146104165780630dd818871461043f5780630f3b6d4d14610461578063150909f714610483578063150b7a02146104a35780631595eea4146104e757806315add63b14610514578063160a30a31461053457600080fd5b366104115760405162461bcd60e51b815260206004820152605d60248201527f43616e6e6f742073656e64204574686572206469726563746c7920746f20626f60448201527f75746e7920636f6e74726163742e20506c65617365207573652074686520426f60648201527f756e747956312e7265636569766546756e64732829206d6574686f642e000000608482015260a4015b60405180910390fd5b600080fd5b34801561042257600080fd5b5061042c60a15481565b6040519081526020015b60405180910390f35b34801561044b57600080fd5b50610454610d0f565b60405161043691906133bb565b34801561046d57600080fd5b5061048161047c366004613491565b610d9d565b005b34801561048f57600080fd5b5061048161049e3660046134e3565b610dff565b3480156104af57600080fd5b506104ce6104be366004613520565b630a85bd0160e11b949350505050565b6040516001600160e01b03199091168152602001610436565b3480156104f357600080fd5b5061042c61050236600461358b565b60a46020526000908152604090205481565b34801561052057600080fd5b5061048161052f3660046134e3565b610e4c565b34801561054057600080fd5b5061042c61054f36600461358b565b60b86020526000908152604090205481565b34801561056d57600080fd5b5061042c61057c36600461358b565b610e92565b34801561058d57600080fd5b50609d546105a1906001600160a01b031681565b6040516001600160a01b039091168152602001610436565b3480156105c557600080fd5b5061042c60a05481565b3480156105db57600080fd5b50610481610eb3565b3480156105f057600080fd5b506106146105ff36600461358b565b60aa6020526000908152604090205460ff1681565b6040519015158152602001610436565b34801561063057600080fd5b50610454610fa7565b34801561064557600080fd5b5061042c600181565b34801561065a57600080fd5b50610663610fb4565b60405161043691906135a4565b34801561067c57600080fd5b5061068561100c565b60405161043691906135e8565b34801561069e57600080fd5b5061042c6106ad36600461364a565b6110e5565b3480156106be57600080fd5b506104816106cd3660046136e9565b611110565b3480156106de57600080fd5b506104816106ed366004613804565b6115ad565b3480156106fe57600080fd5b5061042c61070d36600461358b565b60a96020526000908152604090205481565b34801561072b57600080fd5b506105a161073a36600461358b565b60a2602052600090815260409020546001600160a01b031681565b34801561076157600080fd5b50610663611636565b34801561077657600080fd5b506099546001600160a01b03166105a1565b34801561079457600080fd5b5061045461168c565b3480156107a957600080fd5b50609f546105a1906001600160a01b031681565b3480156107c957600080fd5b506104816107d8366004613845565b6116b4565b3480156107e957600080fd5b5061066361173d565b3480156107fe57600080fd5b5060b1546105a19061010090046001600160a01b031681565b34801561082357600080fd5b5061042c60b25481565b34801561083957600080fd5b50610481610848366004613871565b611793565b34801561085957600080fd5b5060b3546106149060ff1681565b34801561087357600080fd5b506097546001600160a01b03166105a1565b34801561089157600080fd5b5061042c6108a036600461358b565b60a56020526000908152604090205481565b3480156108be57600080fd5b506105a16108cd36600461358b565b60a3602052600090815260409020546001600160a01b031681565b3480156108f457600080fd5b5061042c609b5481565b34801561090a57600080fd5b5061042c6109193660046138e5565b611bb6565b34801561092a57600080fd5b5061061461093936600461358b565b60b76020526000908152604090205460ff1681565b34801561095a57600080fd5b5061042c61096936600461364a565b611dd4565b34801561097a57600080fd5b506098546001600160a01b03166105a1565b34801561099857600080fd5b5061042c6109a736600461358b565b611f5b565b3480156109b857600080fd5b5061042c6109c7366004613960565b611f6b565b3480156109d857600080fd5b5061042c60b05481565b3480156109ee57600080fd5b5061042c6109fd36600461364a565b6120d8565b348015610a0e57600080fd5b5060b35461061490610100900460ff1681565b348015610a2d57600080fd5b506105a1610a3c36600461358b565b60a7602052600090815260409020546001600160a01b031681565b348015610a6357600080fd5b50610614610a7236600461358b565b61214c565b348015610a8357600080fd5b50610614610a9236600461358b565b612180565b348015610aa357600080fd5b50610454612190565b348015610ab857600080fd5b5061042c61219d565b348015610acd57600080fd5b5061042c609c5481565b348015610ae357600080fd5b5060b3546106149062010000900460ff1681565b348015610b0357600080fd5b50610454610b1236600461358b565b6121af565b348015610b2357600080fd5b50610481610b32366004613845565b6121da565b610b4a610b453660046139a2565b612241565b60408051928352602083019190915201610436565b348015610b6b57600080fd5b50610454612472565b348015610b8057600080fd5b5061042c610b8f36600461358b565b612486565b348015610ba057600080fd5b5061042c610baf36600461364a565b60b66020526000908152604090205481565b348015610bcd57600080fd5b5061042c610bdc3660046139e8565b612496565b348015610bed57600080fd5b50610481610bfc366004613a16565b6126a9565b348015610c0d57600080fd5b50610481610c1c366004613804565b612920565b348015610c2d57600080fd5b5060b1546106149060ff1681565b348015610c4757600080fd5b50610c5061297a565b6040516104369190613a4e565b348015610c6957600080fd5b50610614610c7836600461358b565b60a66020526000908152604090205460ff1681565b348015610c9957600080fd5b5061042c610ca836600461358b565b60a86020526000908152604090205481565b348015610cc657600080fd5b5061045461298b565b348015610cdb57600080fd5b50610481610cea3660046134e3565b612998565b348015610cfb57600080fd5b50610481610d0a36600461358b565b6129e7565b60af8054610d1c90613a8f565b80601f0160208091040260200160405190810160405280929190818152602001828054610d4890613a8f565b8015610d955780601f10610d6a57610100808354040283529160200191610d95565b820191906000526020600020905b815481529060010190602001808311610d7857829003601f168201915b505050505081565b6097546001600160a01b0316336001600160a01b031614610dd05760405162461bcd60e51b815260040161040890613ac9565b8160bb8281548110610de457610de4613afe565b906000526020600020019081610dfa9190613b62565b505050565b6097546001600160a01b0316336001600160a01b031614610e325760405162461bcd60e51b815260040161040890613ac9565b60b380549115156101000261ff0019909216919091179055565b6097546001600160a01b0316336001600160a01b031614610e7f5760405162461bcd60e51b815260040161040890613ac9565b60b3805460ff1916911515919091179055565b60ac8181548110610ea257600080fd5b600091825260209091200154905081565b6098546001600160a01b03163314610edd5760405162461bcd60e51b815260040161040890613c21565b60a05460408051808201909152601781527610d3d395149050d517d053149150511657d0d313d4d151604a1b60208201529015610f2d5760405162461bcd60e51b815260040161040891906133bb565b50600160a05542609c5560005b610f4261297a565b51811015610fa4576000610f5461297a565b8281518110610f6557610f65613afe565b60200260200101519050610f78816110e5565b6001600160a01b03909116600090815260b6602052604090205580610f9c81613c9f565b915050610f3a565b50565b609e8054610d1c90613a8f565b606060b580548060200260200160405190810160405280929190818152602001828054801561100257602002820191906000526020600020905b815481526020019060010190808311610fee575b5050505050905090565b606060bb805480602002602001604051908101604052809291908181526020016000905b828210156110dc57838290600052602060002001805461104f90613a8f565b80601f016020809104026020016040519081016040528092919081815260200182805461107b90613a8f565b80156110c85780601f1061109d576101008083540402835291602001916110c8565b820191906000526020600020905b8154815290600101906020018083116110ab57829003601f168201915b505050505081526020019060010190611030565b50505050905090565b60006001600160a01b0382166110fc575047919050565b611105826120d8565b92915050565b919050565b600054610100900460ff16158080156111305750600054600160ff909116105b8061114a5750303b15801561114a575060005460ff166001145b6111ad5760405162461bcd60e51b815260206004820152602e60248201527f496e697469616c697a61626c653a20636f6e747261637420697320616c72656160448201526d191e481a5b9a5d1a585b1a5e995960921b6064820152608401610408565b6000805460ff1916600117905580156111d0576000805461ff0019166101001790555b87516040805180820190915260128152711393d7d15354151657d093d553951657d25160721b6020820152906112195760405162461bcd60e51b815260040161040891906133bb565b5085516040805180820190915260158152742727afa2a6a82a2cafa7a923a0a724ad20aa24a7a760591b6020820152906112665760405162461bcd60e51b815260040161040891906133bb565b5061126f612a2c565b609780546001600160a01b0319166001600160a01b03871617905561129384612a5d565b61129c83612aa6565b609a6112a88982613b62565b50609d80546001600160a01b0319166001600160a01b038916179055609e6112d08782613b62565b5042609b81905550600560a18190555060008060008060008060008089602001518060200190518101906113049190613d9c565b505097509750975097509750975097509750600080600090505b89518110156113605789818151811061133957611339613afe565b60200260200101518261134c9190613ea7565b91508061135881613c9f565b91505061131e565b5060408051808201909152601f81527f5041594f55545f5343484544554c455f4d5553545f4144445f544f5f313030006020820152606482146113b65760405162461bcd60e51b815260040161040891906133bb565b5088516113ca9060b59060208c0190613187565b50600260b05560b180546001600160a81b031916891515610100600160a81b031916176101006001600160a01b038a1681029190911790915560b287905560b3805461ffff191687151561ff001916178615159092029190911762ff00001916620100008515150217905560b46114418382613b62565b5088516001600160401b0381111561145b5761145b6133ce565b60405190808252806020026020018201604052801561148e57816020015b60608152602001906001900390816114795790505b5080516114a39160bb916020909101906131d2565b5088516001600160401b038111156114bd576114bd6133ce565b6040519080825280602002602001820160405280156114e6578160200160208202803683370190505b5080516114fb9160b991602090910190613224565b5088516001600160401b03811115611515576115156133ce565b60405190808252806020026020018201604052801561153e578160200160208202803683370190505b5080516115539160ba91602090910190613224565b5050505050505050505080156115a3576000805461ff0019169055604051600181527f7f26b83ff96e1f2b6a682f133852f6798a09c465da95921460cefb38474024989060200160405180910390a15b5050505050505050565b6097546001600160a01b0316336001600160a01b0316146115e05760405162461bcd60e51b815260040161040890613ac9565b6000806115ef83850185613eba565b915091508060b9838154811061160757611607613afe565b90600052602060002090602091828204019190066101000a81548160ff02191690831515021790555050505050565b606060ab8054806020026020016040519081016040528092919081815260200182805480156110025760200282019190600052602060002090815481526020019060010190808311610fee575050505050905090565b606060ba6040516020016116a09190613eea565b604051602081830303815290604052905090565b6098546001600160a01b031633146116de5760405162461bcd60e51b815260040161040890613c21565b6002600154036117005760405162461bcd60e51b815260040161040890614595565b6002600155600081815260a3602090815260408083205460a890925290912054611735916001600160a01b0316908490612aef565b505060018055565b606060ac8054806020026020016040519081016040528092919081815260200182805480156110025760200282019190600052602060002090815481526020019060010190808311610fee575050505050905090565b6097546001600160a01b0316336001600160a01b0316146117c65760405162461bcd60e51b815260040161040890613ac9565b60b0546040805180820190915260138152724e4f545f415f5449455245445f424f554e545960681b6020820152906002146118145760405162461bcd60e51b815260040161040891906133bb565b506000805b828110156118595783838281811061183357611833613afe565b90506020020135826118459190613ea7565b91508061185181613c9f565b915050611819565b5060408051808201909152601f81527f5041594f55545f5343484544554c455f4d5553545f4144445f544f5f313030006020820152606482146118af5760405162461bcd60e51b815260040161040891906133bb565b506118bc60b584846132c4565b5060b5546000906001600160401b038111156118da576118da6133ce565b60405190808252806020026020018201604052801561190d57816020015b60608152602001906001900390816118f85790505b5060b5549091506000906001600160401b0381111561192e5761192e6133ce565b604051908082528060200260200182016040528015611957578160200160208202803683370190505b5060b5549091506000906001600160401b03811115611978576119786133ce565b6040519080825280602002602001820160405280156119a1578160200160208202803683370190505b50905060005b60bb54811015611a875760bb81815481106119c4576119c4613afe565b9060005260206000200180546119d990613a8f565b80601f0160208091040260200160405190810160405280929190818152602001828054611a0590613a8f565b8015611a525780601f10611a2757610100808354040283529160200191611a52565b820191906000526020600020905b815481529060010190602001808311611a3557829003601f168201915b5050505050848281518110611a6957611a69613afe565b60200260200101819052508080611a7f90613c9f565b9150506119a7565b508251611a9b9060bb9060208601906131d2565b5060005b60b954811015611b105760b98181548110611abc57611abc613afe565b90600052602060002090602091828204019190069054906101000a900460ff16838281518110611aee57611aee613afe565b9115156020928302919091019091015280611b0881613c9f565b915050611a9f565b508151611b249060b9906020850190613224565b5060005b60ba54811015611b995760ba8181548110611b4557611b45613afe565b90600052602060002090602091828204019190069054906101000a900460ff16828281518110611b7757611b77613afe565b9115156020928302919091019091015280611b9181613c9f565b915050611b28565b508051611bad9060ba906020840190613224565b50505050505050565b6099546000906001600160a01b03163314611be35760405162461bcd60e51b8152600401610408906145cc565b600260015403611c055760405162461bcd60e51b815260040161040890614595565b600260015560a15460ac5460408051808201909152601981527813919517d1115413d4d25517d31253525517d4915050d21151603a1b60208201529111611c5f5760405162461bcd60e51b815260040161040891906133bb565b50600084116040518060400160405280602081526020017f45585049524154494f4e5f4e4f545f475245415445525f5448414e5f5a45524f81525090611cb85760405162461bcd60e51b815260040161040891906133bb565b50611cc4868887612b4f565b6000611cce612b81565b600081815260a26020908152604080832080546001600160a01b03808f166001600160a01b03199283161790925560a384528285208054928e169290911691909117905560a5825280832042905560a882528083208a905560a9825280832089905560aa9091528120805460ff19166001179055909150611d518486018661358b565b600083815260b8602052604081209190915560ab805460018082019092557ffc377260a69a39dd786235c89f4bcd5d9639157731cac38071a0508750eb115a0184905560ac8054808301825592527f0a0a1bcadd9f6a5539376fa82276e043ae3cb4499daaaf8136572ecb1f9f0d60909101839055805550979650505050505050565b6000806000306001600160a01b0316636b149d876040518163ffffffff1660e01b8152600401600060405180830381865afa158015611e17573d6000803e3d6000fd5b505050506040513d6000823e601f3d908101601f19168201604052611e3f9190810190614638565b905060005b8151811015611f525760a96000838381518110611e6357611e63613afe565b602002602001015181526020019081526020016000205460a56000848481518110611e9057611e90613afe565b6020026020010151815260200190815260200160002054611eb19190613ea7565b42108015611f005750846001600160a01b031660a36000848481518110611eda57611eda613afe565b6020908102919091018101518252810191909152604001600020546001600160a01b0316145b15611f405760a46000838381518110611f1b57611f1b613afe565b602002602001015181526020019081526020016000205483611f3d9190613ea7565b92505b80611f4a81613c9f565b915050611e44565b50909392505050565b60ab8181548110610ea257600080fd5b6098546000906001600160a01b03163314611f985760405162461bcd60e51b815260040161040890613c21565b600260015403611fba5760405162461bcd60e51b815260040161040890614595565b6002600181905560b0546040805180820190915260138152724e4f545f415f5449455245445f424f554e545960681b6020820152911461200d5760405162461bcd60e51b815260040161040891906133bb565b50600083815260b7602090815260409182902054825180840190935260148352731512515497d053149150511657d0d3105253515160621b9183019190915260ff161561206d5760405162461bcd60e51b815260040161040891906133bb565b506001600160a01b038216600090815260b6602052604081205460b580546064929190879081106120a0576120a0613afe565b90600052602060002001546120b591906146bd565b6120bf91906146d4565b90506120cc838287612bb5565b60018055949350505050565b6040516370a0823160e01b815230600482015260009082906001600160a01b038216906370a0823190602401602060405180830381865afa158015612121573d6000803e3d6000fd5b505050506040513d601f19601f8201168201806040525081019061214591906146f6565b9392505050565b60ba818154811061215c57600080fd5b9060005260206000209060209182820401919006915054906101000a900460ff1681565b60b9818154811061215c57600080fd5b609a8054610d1c90613a8f565b60006121a960ad612bd8565b51905090565b60bb81815481106121bf57600080fd5b906000526020600020016000915090508054610d1c90613a8f565b6097546001600160a01b0316336001600160a01b03161461220d5760405162461bcd60e51b815260040161040890613ac9565b60b25560b1805460ff196001600160a01b0390931661010002929092166001600160a81b0319909216919091176001179055565b60995460009081906001600160a01b031633146122705760405162461bcd60e51b8152600401610408906145cc565b6002600154036122925760405162461bcd60e51b815260040161040890614595565b600260015560408051808201909152601081526f16915493d7d593d315535157d4d1539560821b6020820152846122dc5760405162461bcd60e51b815260040161040891906133bb565b50600083116040518060400160405280602081526020017f45585049524154494f4e5f4e4f545f475245415445525f5448414e5f5a45524f815250906123355760405162461bcd60e51b815260040161040891906133bb565b5060a05460408051808201909152601281527110d3d395149050d517d254d7d0d313d4d15160721b602082015290156123815760405162461bcd60e51b815260040161040891906133bb565b50600061238c612b81565b905060006001600160a01b0387166123a55750346123b3565b6123b0878988612be5565b90505b600082815260a26020908152604080832080546001600160a01b03808e166001600160a01b03199283161790925560a384528285208054928d169290911691909117905560a4825280832084905560a5825280832042905560a9825280832088905560aa9091528120805460ff1916905560ab805460018101825591527ffc377260a69a39dd786235c89f4bcd5d9639157731cac38071a0508750eb115a0182905561246060ad88612c84565b50600180559097909650945050505050565b606060b96040516020016116a09190613eea565b60b58181548110610ea257600080fd5b6099546000906001600160a01b031633146124c35760405162461bcd60e51b8152600401610408906145cc565b6002600154036124e55760405162461bcd60e51b815260040161040890614595565b600260015560a05460408051808201909152601281527110d3d395149050d517d254d7d0d313d4d15160721b602082015290156125355760405162461bcd60e51b815260040161040891906133bb565b50600084815260a66020908152604091829020548251808401909352601883527711115413d4d25517d053149150511657d49151955391115160421b9183019190915260ff16156125995760405162461bcd60e51b815260040161040891906133bb565b50600084815260a26020908152604091829020548251808401909352601183527021a0a62622a92fa727aa2fa32aa72222a960791b918301919091526001600160a01b038481169116146126005760405162461bcd60e51b815260040161040891906133bb565b50600084815260a9602090815260408083205460a5909252909120546126269190613ea7565b42111561266657600084815260a560205260409020548390612648904261470f565b6126529190613ea7565b600085815260a96020526040902055612690565b600084815260a96020526040902054612680908490613ea7565b600085815260a960205260409020555b505050600090815260a960205260409020546001805590565b6099546001600160a01b031633146126d35760405162461bcd60e51b8152600401610408906145cc565b6002600154036126f55760405162461bcd60e51b815260040161040890614595565b6002600155600083815260a66020908152604091829020548251808401909352601883527711115413d4d25517d053149150511657d49151955391115160421b9183019190915260ff161561275d5760405162461bcd60e51b815260040161040891906133bb565b50600083815260a26020908152604091829020548251808401909352601183527021a0a62622a92fa727aa2fa32aa72222a960791b918301919091526001600160a01b038481169116146127c45760405162461bcd60e51b815260040161040891906133bb565b50600083815260a9602090815260408083205460a5909252909120546127ea9190613ea7565b4210156040518060400160405280601881526020017714149153505515549157d4915195539117d49154555154d560421b8152509061283c5760405162461bcd60e51b815260040161040891906133bb565b50600083815260a660209081526040808320805460ff1916600117905560a39091529020546001600160a01b031661289557600083815260a26020526040902054612890906001600160a01b031682612c99565b612917565b600083815260aa602052604090205460ff16156128e557600083815260a3602090815260408083205460a283528184205460a8909352922054612890926001600160a01b03908116921690612aef565b600083815260a3602090815260408083205460a290925290912054612917916001600160a01b03908116911683612cb0565b50506001805550565b6097546001600160a01b0316336001600160a01b0316146129535760405162461bcd60e51b815260040161040890613ac9565b60008061296283850185613eba565b915091508060ba838154811061160757611607613afe565b606061298660ad612bd8565b905090565b60b48054610d1c90613a8f565b6097546001600160a01b0316336001600160a01b0316146129cb5760405162461bcd60e51b815260040161040890613ac9565b60b38054911515620100000262ff000019909216919091179055565b6098546001600160a01b03163314612a115760405162461bcd60e51b815260040161040890613c21565b600090815260b760205260409020805460ff19166001179055565b600054610100900460ff16612a535760405162461bcd60e51b815260040161040890614722565b612a5b612ccb565b565b600054610100900460ff16612a845760405162461bcd60e51b815260040161040890614722565b609880546001600160a01b0319166001600160a01b0392909216919091179055565b600054610100900460ff16612acd5760405162461bcd60e51b815260040161040890614722565b609980546001600160a01b0319166001600160a01b0392909216919091179055565b604051632142170760e11b815283906001600160a01b038216906342842e0e90612b219030908790879060040161476d565b600060405180830381600087803b158015612b3b57600080fd5b505af11580156115a3573d6000803e3d6000fd5b604051632142170760e11b815283906001600160a01b038216906342842e0e90612b219086903090879060040161476d565b60ab54604051600091612b9a91609a9190602001614791565b60405160208183030381529060405280519060200120905090565b6001600160a01b038316612bcd57610dfa8183612c99565b610dfa838284612cb0565b6060600061214583612cf8565b600080612bf1856120d8565b905084612c096001600160a01b038216863087612d54565b6000612c14876120d8565b9050828110156040518060400160405280601a81526020017f544f4b454e5f5452414e534645525f494e5f4f564552464c4f5700000000000081525090612c6e5760405162461bcd60e51b815260040161040891906133bb565b50612c79838261470f565b979650505050505050565b6000612145836001600160a01b038416612dac565b612cac6001600160a01b03831682612dfb565b5050565b82612cc56001600160a01b0382168484612f14565b50505050565b600054610100900460ff16612cf25760405162461bcd60e51b815260040161040890614722565b60018055565b606081600001805480602002602001604051908101604052809291908181526020018280548015612d4857602002820191906000526020600020905b815481526020019060010190808311612d34575b50505050509050919050565b612cc5846323b872dd60e01b858585604051602401612d759392919061476d565b60408051601f198184030181529190526020810180516001600160e01b03166001600160e01b031990931692909217909152612f44565b6000818152600183016020526040812054612df357508154600181810184556000848152602080822090930184905584548482528286019093526040902091909155611105565b506000611105565b80471015612e4b5760405162461bcd60e51b815260206004820152601d60248201527f416464726573733a20696e73756666696369656e742062616c616e63650000006044820152606401610408565b6000826001600160a01b03168260405160006040518083038185875af1925050503d8060008114612e98576040519150601f19603f3d011682016040523d82523d6000602084013e612e9d565b606091505b5050905080610dfa5760405162461bcd60e51b815260206004820152603a60248201527f416464726573733a20756e61626c6520746f2073656e642076616c75652c207260448201527f6563697069656e74206d617920686176652072657665727465640000000000006064820152608401610408565b6040516001600160a01b038316602482015260448101829052610dfa90849063a9059cbb60e01b90606401612d75565b6000612f99826040518060400160405280602081526020017f5361666545524332303a206c6f772d6c6576656c2063616c6c206661696c6564815250856001600160a01b03166130169092919063ffffffff16565b805190915015610dfa5780806020019051810190612fb79190614825565b610dfa5760405162461bcd60e51b815260206004820152602a60248201527f5361666545524332303a204552433230206f7065726174696f6e20646964206e6044820152691bdd081cdd58d8d9595960b21b6064820152608401610408565b6060613025848460008561302d565b949350505050565b60608247101561308e5760405162461bcd60e51b815260206004820152602660248201527f416464726573733a20696e73756666696369656e742062616c616e636520666f6044820152651c8818d85b1b60d21b6064820152608401610408565b6001600160a01b0385163b6130e55760405162461bcd60e51b815260206004820152601d60248201527f416464726573733a2063616c6c20746f206e6f6e2d636f6e74726163740000006044820152606401610408565b600080866001600160a01b031685876040516131019190614842565b60006040518083038185875af1925050503d806000811461313e576040519150601f19603f3d011682016040523d82523d6000602084013e613143565b606091505b5091509150612c798282866060831561315d575081612145565b82511561316d5782518084602001fd5b8160405162461bcd60e51b815260040161040891906133bb565b8280548282559060005260206000209081019282156131c2579160200282015b828111156131c25782518255916020019190600101906131a7565b506131ce9291506132ff565b5090565b828054828255906000526020600020908101928215613218579160200282015b8281111561321857825182906132089082613b62565b50916020019190600101906131f2565b506131ce929150613314565b82805482825590600052602060002090601f016020900481019282156131c25791602002820160005b8382111561328a57835183826101000a81548160ff021916908315150217905550926020019260010160208160000104928301926001030261324d565b80156132b75782816101000a81549060ff021916905560010160208160000104928301926001030261328a565b50506131ce9291506132ff565b8280548282559060005260206000209081019282156131c2579160200282015b828111156131c25782358255916020019190600101906132e4565b5b808211156131ce5760008155600101613300565b808211156131ce5760006133288282613331565b50600101613314565b50805461333d90613a8f565b6000825580601f1061334d575050565b601f016020900490600052602060002090810190610fa491906132ff565b60005b8381101561338657818101518382015260200161336e565b50506000910152565b600081518084526133a781602086016020860161336b565b601f01601f19169290920160200192915050565b602081526000612145602083018461338f565b634e487b7160e01b600052604160045260246000fd5b604051601f8201601f191681016001600160401b038111828210171561340c5761340c6133ce565b604052919050565b60006001600160401b0382111561342d5761342d6133ce565b50601f01601f191660200190565b600082601f83011261344c57600080fd5b813561345f61345a82613414565b6133e4565b81815284602083860101111561347457600080fd5b816020850160208301376000918101602001919091529392505050565b600080604083850312156134a457600080fd5b82356001600160401b038111156134ba57600080fd5b6134c68582860161343b565b95602094909401359450505050565b8015158114610fa457600080fd5b6000602082840312156134f557600080fd5b8135612145816134d5565b6001600160a01b0381168114610fa457600080fd5b803561110b81613500565b6000806000806080858703121561353657600080fd5b843561354181613500565b9350602085013561355181613500565b92506040850135915060608501356001600160401b0381111561357357600080fd5b61357f8782880161343b565b91505092959194509250565b60006020828403121561359d57600080fd5b5035919050565b6020808252825182820181905260009190848201906040850190845b818110156135dc578351835292840192918401916001016135c0565b50909695505050505050565b6000602080830181845280855180835260408601915060408160051b870101925083870160005b8281101561363d57603f1988860301845261362b85835161338f565b9450928501929085019060010161360f565b5092979650505050505050565b60006020828403121561365c57600080fd5b813561214581613500565b60006040828403121561367957600080fd5b604051604081016001600160401b03828210818311171561369c5761369c6133ce565b816040528293508435915063ffffffff821682146136b957600080fd5b908252602084013590808211156136cf57600080fd5b506136dc8582860161343b565b6020830152505092915050565b600080600080600080600060e0888a03121561370457600080fd5b87356001600160401b038082111561371b57600080fd5b6137278b838c0161343b565b985060208a0135915061373982613500565b9096506040890135908082111561374f57600080fd5b61375b8b838c0161343b565b965060608a0135915061376d82613500565b81955061377c60808b01613515565b945061378a60a08b01613515565b935060c08a01359150808211156137a057600080fd5b506137ad8a828b01613667565b91505092959891949750929550565b60008083601f8401126137ce57600080fd5b5081356001600160401b038111156137e557600080fd5b6020830191508360208285010111156137fd57600080fd5b9250929050565b6000806020838503121561381757600080fd5b82356001600160401b0381111561382d57600080fd5b613839858286016137bc565b90969095509350505050565b6000806040838503121561385857600080fd5b823561386381613500565b946020939093013593505050565b6000806020838503121561388457600080fd5b82356001600160401b038082111561389b57600080fd5b818501915085601f8301126138af57600080fd5b8135818111156138be57600080fd5b8660208260051b85010111156138d357600080fd5b60209290920196919550909350505050565b60008060008060008060a087890312156138fe57600080fd5b863561390981613500565b9550602087013561391981613500565b9450604087013593506060870135925060808701356001600160401b0381111561394257600080fd5b61394e89828a016137bc565b979a9699509497509295939492505050565b60008060006060848603121561397557600080fd5b833561398081613500565b925060208401359150604084013561399781613500565b809150509250925092565b600080600080608085870312156139b857600080fd5b84356139c381613500565b935060208501356139d381613500565b93969395505050506040820135916060013590565b6000806000606084860312156139fd57600080fd5b8335925060208401359150604084013561399781613500565b600080600060608486031215613a2b57600080fd5b833592506020840135613a3d81613500565b929592945050506040919091013590565b6020808252825182820181905260009190848201906040850190845b818110156135dc5783516001600160a01b031683529284019291840191600101613a6a565b600181811c90821680613aa357607f821691505b602082108103613ac357634e487b7160e01b600052602260045260246000fd5b50919050565b6020808252818101527f4d6574686f64206973206f6e6c792063616c6c61626c65206279204f70656e51604082015260600190565b634e487b7160e01b600052603260045260246000fd5b601f821115610dfa57600081815260208120601f850160051c81016020861015613b3b5750805b601f850160051c820191505b81811015613b5a57828155600101613b47565b505050505050565b81516001600160401b03811115613b7b57613b7b6133ce565b613b8f81613b898454613a8f565b84613b14565b602080601f831160018114613bc45760008415613bac5750858301515b600019600386901b1c1916600185901b178555613b5a565b600085815260208120601f198616915b82811015613bf357888601518255948401946001909101908401613bd4565b5085821015613c115787850151600019600388901b60f8161c191681555b5050505050600190811b01905550565b60208082526042908201527f436c61696d4d616e616765724f776e61626c653a2063616c6c6572206973206e60408201527f6f74207468652063757272656e74204f70656e5120436c61696d204d616e616760608201526132b960f11b608082015260a00190565b634e487b7160e01b600052601160045260246000fd5b600060018201613cb157613cb1613c89565b5060010190565b60006001600160401b03821115613cd157613cd16133ce565b5060051b60200190565b600082601f830112613cec57600080fd5b81516020613cfc61345a83613cb8565b82815260059290921b84018101918181019086841115613d1b57600080fd5b8286015b84811015613d365780518352918301918301613d1f565b509695505050505050565b805161110b816134d5565b805161110b81613500565b600082601f830112613d6857600080fd5b8151613d7661345a82613414565b818152846020838601011115613d8b57600080fd5b61302582602083016020870161336b565b6000806000806000806000806000806101408b8d031215613dbc57600080fd5b8a516001600160401b0380821115613dd357600080fd5b613ddf8e838f01613cdb565b9b50613ded60208e01613d41565b9a50613dfb60408e01613d4c565b995060608d01519850613e1060808e01613d41565b9750613e1e60a08e01613d41565b9650613e2c60c08e01613d41565b955060e08d0151915080821115613e4257600080fd5b613e4e8e838f01613d57565b94506101008d0151915080821115613e6557600080fd5b613e718e838f01613d57565b93506101208d0151915080821115613e8857600080fd5b50613e958d828e01613d57565b9150509295989b9194979a5092959850565b8082018082111561110557611105613c89565b60008060408385031215613ecd57600080fd5b823591506020830135613edf816134d5565b809150509250929050565b60006020808301818452808554613f05818490815260200190565b60008881526020812094509092505b81601f8201101561417f57835460ff80821615158552613f3c878601828460081c1615159052565b6040613f50818701838560101c1615159052565b6060613f64818801848660181c1615159052565b6080613f7781890185878d1c1615159052565b60a0613f8b818a01868860281c1615159052565b60c0613f9f818b01878960301c1615159052565b60e0613fb3818c01888a60381c1615159052565b87861c871615156101008c0152613fd46101208c01888a60481c1615159052565b613fe86101408c01888a60501c1615159052565b613ffc6101608c01888a60581c1615159052565b87851c871615156101808c015261401d6101a08c01888a60681c1615159052565b6140316101c08c01888a60701c1615159052565b6140456101e08c01888a60781c1615159052565b87841c871615156102008c01526140666102208c01888a60881c1615159052565b61407a6102408c01888a60901c1615159052565b61408e6102608c01888a60981c1615159052565b87831c871615156102808c01526140af6102a08c01888a60a81c1615159052565b6140c36102c08c01888a60b01c1615159052565b6140d76102e08c01888a60b81c1615159052565b87821c871615156103008c01526140f86103208c01888a60c81c1615159052565b61410c6103408c01888a60d01c1615159052565b6141206103608c01888a60d81c1615159052565b87901c861615156103808b0152505050505060e882901c811615156103a08601526141556103c08601828460f01c1615159052565b506141686103e085018260f81c15159052565b506001939093019261040092909201918401613f14565b9254928181101561419a5760ff841615158352918401916001015b818110156141bb576141b38360ff8660081c1615159052565b918401916001015b818110156141dc576141d48360ff8660101c1615159052565b918401916001015b818110156141fd576141f58360ff8660181c1615159052565b918401916001015b818110156142175783851c60ff1615158352918401916001015b81811015614238576142308360ff8660281c1615159052565b918401916001015b81811015614259576142518360ff8660301c1615159052565b918401916001015b8181101561427a576142728360ff8660381c1615159052565b918401916001015b8181101561429b576142938360ff8660401c1615159052565b918401916001015b818110156142bc576142b48360ff8660481c1615159052565b918401916001015b818110156142dd576142d58360ff8660501c1615159052565b918401916001015b818110156142fe576142f68360ff8660581c1615159052565b918401916001015b8181101561431f576143178360ff8660601c1615159052565b918401916001015b81811015614340576143388360ff8660681c1615159052565b918401916001015b81811015614361576143598360ff8660701c1615159052565b918401916001015b818110156143825761437a8360ff8660781c1615159052565b918401916001015b818110156143a35761439b8360ff8660801c1615159052565b918401916001015b818110156143c4576143bc8360ff8660881c1615159052565b918401916001015b818110156143e5576143dd8360ff8660901c1615159052565b918401916001015b81811015614406576143fe8360ff8660981c1615159052565b918401916001015b818110156144275761441f8360ff8660a01c1615159052565b918401916001015b81811015614448576144408360ff8660a81c1615159052565b918401916001015b81811015614469576144618360ff8660b01c1615159052565b918401916001015b8181101561448a576144828360ff8660b81c1615159052565b918401916001015b818110156144ab576144a38360ff8660c01c1615159052565b918401916001015b818110156144cc576144c48360ff8660c81c1615159052565b918401916001015b818110156144ed576144e58360ff8660d01c1615159052565b918401916001015b8181101561450e576145068360ff8660d81c1615159052565b918401916001015b8181101561452f576145278360ff8660e01c1615159052565b918401916001015b81811015614550576145488360ff8660e81c1615159052565b918401916001015b81811015614571576145698360ff8660f01c1615159052565b918401916001015b818110156135dc57614587838560f81c15159052565b505091909101949350505050565b6020808252601f908201527f5265656e7472616e637947756172643a207265656e7472616e742063616c6c00604082015260600190565b60208082526046908201527f4465706f7369744d616e616765724f776e61626c653a2063616c6c657220697360408201527f206e6f74207468652063757272656e74204f70656e51204465706f736974204d60608201526530b730b3b2b960d11b608082015260a00190565b6000602080838503121561464b57600080fd5b82516001600160401b0381111561466157600080fd5b8301601f8101851361467257600080fd5b805161468061345a82613cb8565b81815260059190911b8201830190838101908783111561469f57600080fd5b928401925b82841015612c79578351825292840192908401906146a4565b808202811582820484141761110557611105613c89565b6000826146f157634e487b7160e01b600052601260045260246000fd5b500490565b60006020828403121561470857600080fd5b5051919050565b8181038181111561110557611105613c89565b6020808252602b908201527f496e697469616c697a61626c653a20636f6e7472616374206973206e6f74206960408201526a6e697469616c697a696e6760a81b606082015260800190565b6001600160a01b039384168152919092166020820152604081019190915260600190565b6040815260008084546147a381613a8f565b80604086015260606001808416600081146147c557600181146147df57614810565b60ff1985168884015283151560051b880183019550614810565b8960005260208060002060005b868110156148075781548b82018701529084019082016147ec565b8a018501975050505b50505050506020929092019290925292915050565b60006020828403121561483757600080fd5b8151612145816134d5565b6000825161485481846020870161336b565b919091019291505056fea264697066735822122026f91fd09b115861eb95f58d06868ea7f36d78c672aa37e07d04155730cf555664736f6c63430008110033",
  "linkReferences": {},
  "deployedLinkReferences": {}
}