{
  "_format": "hh-sol-artifact-1",
  "contractName": "MockNft",
  "sourceName": "contracts/Tokens/MockNft.sol",
  "abi": [
    {
      "inputs": [],
      "stateMutability": "nonpayable",
      "type": "constructor"
    },
    {
      "anonymous": false,
      "inputs": [
        {
          "indexed": true,
          "internalType": "address",
          "name": "owner",
          "type": "address"
        },
        {
          "indexed": true,
          "internalType": "address",
          "name": "approved",
          "type": "address"
        },
        {
          "indexed": true,
          "internalType": "uint256",
          "name": "tokenId",
          "type": "uint256"
        }
      ],
      "name": "Approval",
      "type": "event"
    },
    {
      "anonymous": false,
      "inputs": [
        {
          "indexed": true,
          "internalType": "address",
          "name": "owner",
          "type": "address"
        },
        {
          "indexed": true,
          "internalType": "address",
          "name": "operator",
          "type": "address"
        },
        {
          "indexed": false,
          "internalType": "bool",
          "name": "approved",
          "type": "bool"
        }
      ],
      "name": "ApprovalForAll",
      "type": "event"
    },
    {
      "anonymous": false,
      "inputs": [
        {
          "indexed": true,
          "internalType": "address",
          "name": "previousOwner",
          "type": "address"
        },
        {
          "indexed": true,
          "internalType": "address",
          "name": "newOwner",
          "type": "address"
        }
      ],
      "name": "OwnershipTransferred",
      "type": "event"
    },
    {
      "anonymous": false,
      "inputs": [
        {
          "indexed": true,
          "internalType": "address",
          "name": "from",
          "type": "address"
        },
        {
          "indexed": true,
          "internalType": "address",
          "name": "to",
          "type": "address"
        },
        {
          "indexed": true,
          "internalType": "uint256",
          "name": "tokenId",
          "type": "uint256"
        }
      ],
      "name": "Transfer",
      "type": "event"
    },
    {
      "inputs": [
        {
          "internalType": "address",
          "name": "to",
          "type": "address"
        },
        {
          "internalType": "uint256",
          "name": "tokenId",
          "type": "uint256"
        }
      ],
      "name": "approve",
      "outputs": [],
      "stateMutability": "nonpayable",
      "type": "function"
    },
    {
      "inputs": [
        {
          "internalType": "address",
          "name": "owner",
          "type": "address"
        }
      ],
      "name": "balanceOf",
      "outputs": [
        {
          "internalType": "uint256",
          "name": "",
          "type": "uint256"
        }
      ],
      "stateMutability": "view",
      "type": "function"
    },
    {
      "inputs": [
        {
          "internalType": "uint256",
          "name": "tokenId",
          "type": "uint256"
        }
      ],
      "name": "getApproved",
      "outputs": [
        {
          "internalType": "address",
          "name": "",
          "type": "address"
        }
      ],
      "stateMutability": "view",
      "type": "function"
    },
    {
      "inputs": [
        {
          "internalType": "address",
          "name": "owner",
          "type": "address"
        },
        {
          "internalType": "address",
          "name": "operator",
          "type": "address"
        }
      ],
      "name": "isApprovedForAll",
      "outputs": [
        {
          "internalType": "bool",
          "name": "",
          "type": "bool"
        }
      ],
      "stateMutability": "view",
      "type": "function"
    },
    {
      "inputs": [],
      "name": "name",
      "outputs": [
        {
          "internalType": "string",
          "name": "",
          "type": "string"
        }
      ],
      "stateMutability": "view",
      "type": "function"
    },
    {
      "inputs": [],
      "name": "owner",
      "outputs": [
        {
          "internalType": "address",
          "name": "",
          "type": "address"
        }
      ],
      "stateMutability": "view",
      "type": "function"
    },
    {
      "inputs": [
        {
          "internalType": "uint256",
          "name": "tokenId",
          "type": "uint256"
        }
      ],
      "name": "ownerOf",
      "outputs": [
        {
          "internalType": "address",
          "name": "",
          "type": "address"
        }
      ],
      "stateMutability": "view",
      "type": "function"
    },
    {
      "inputs": [],
      "name": "renounceOwnership",
      "outputs": [],
      "stateMutability": "nonpayable",
      "type": "function"
    },
    {
      "inputs": [
        {
          "internalType": "address",
          "name": "to",
          "type": "address"
        }
      ],
      "name": "safeMint",
      "outputs": [],
      "stateMutability": "nonpayable",
      "type": "function"
    },
    {
      "inputs": [
        {
          "internalType": "address",
          "name": "from",
          "type": "address"
        },
        {
          "internalType": "address",
          "name": "to",
          "type": "address"
        },
        {
          "internalType": "uint256",
          "name": "tokenId",
          "type": "uint256"
        }
      ],
      "name": "safeTransferFrom",
      "outputs": [],
      "stateMutability": "nonpayable",
      "type": "function"
    },
    {
      "inputs": [
        {
          "internalType": "address",
          "name": "from",
          "type": "address"
        },
        {
          "internalType": "address",
          "name": "to",
          "type": "address"
        },
        {
          "internalType": "uint256",
          "name": "tokenId",
          "type": "uint256"
        },
        {
          "internalType": "bytes",
          "name": "data",
          "type": "bytes"
        }
      ],
      "name": "safeTransferFrom",
      "outputs": [],
      "stateMutability": "nonpayable",
      "type": "function"
    },
    {
      "inputs": [
        {
          "internalType": "address",
          "name": "operator",
          "type": "address"
        },
        {
          "internalType": "bool",
          "name": "approved",
          "type": "bool"
        }
      ],
      "name": "setApprovalForAll",
      "outputs": [],
      "stateMutability": "nonpayable",
      "type": "function"
    },
    {
      "inputs": [
        {
          "internalType": "bytes4",
          "name": "interfaceId",
          "type": "bytes4"
        }
      ],
      "name": "supportsInterface",
      "outputs": [
        {
          "internalType": "bool",
          "name": "",
          "type": "bool"
        }
      ],
      "stateMutability": "view",
      "type": "function"
    },
    {
      "inputs": [],
      "name": "symbol",
      "outputs": [
        {
          "internalType": "string",
          "name": "",
          "type": "string"
        }
      ],
      "stateMutability": "view",
      "type": "function"
    },
    {
      "inputs": [
        {
          "internalType": "uint256",
          "name": "tokenId",
          "type": "uint256"
        }
      ],
      "name": "tokenURI",
      "outputs": [
        {
          "internalType": "string",
          "name": "",
          "type": "string"
        }
      ],
      "stateMutability": "view",
      "type": "function"
    },
    {
      "inputs": [
        {
          "internalType": "address",
          "name": "from",
          "type": "address"
        },
        {
          "internalType": "address",
          "name": "to",
          "type": "address"
        },
        {
          "internalType": "uint256",
          "name": "tokenId",
          "type": "uint256"
        }
      ],
      "name": "transferFrom",
      "outputs": [],
      "stateMutability": "nonpayable",
      "type": "function"
    },
    {
      "inputs": [
        {
          "internalType": "address",
          "name": "newOwner",
          "type": "address"
        }
      ],
      "name": "transferOwnership",
      "outputs": [],
      "stateMutability": "nonpayable",
      "type": "function"
    }
  ],
  "bytecode": "0x610100604052605460808181529062001a4960a039600990620000239082620001ad565b503480156200003157600080fd5b5060405180604001604052806007815260200166135bd8dad3999d60ca1b815250604051806040016040528060048152602001631353919560e21b8152508160009081620000809190620001ad565b5060016200008f8282620001ad565b505050620000ac620000a6620000b260201b60201c565b620000b6565b62000279565b3390565b600780546001600160a01b038381166001600160a01b0319831681179093556040519116919082907f8be0079c531659141344cd1fd0a4f28419497f9722a3daafe3b4186f6b6457e090600090a35050565b634e487b7160e01b600052604160045260246000fd5b600181811c908216806200013357607f821691505b6020821081036200015457634e487b7160e01b600052602260045260246000fd5b50919050565b601f821115620001a857600081815260208120601f850160051c81016020861015620001835750805b601f850160051c820191505b81811015620001a4578281556001016200018f565b5050505b505050565b81516001600160401b03811115620001c957620001c962000108565b620001e181620001da84546200011e565b846200015a565b602080601f831160018114620002195760008415620002005750858301515b600019600386901b1c1916600185901b178555620001a4565b600085815260208120601f198616915b828110156200024a5788860151825594840194600190910190840162000229565b5085821015620002695787850151600019600388901b60f8161c191681555b5050505050600190811b01905550565b6117c080620002896000396000f3fe608060405234801561001057600080fd5b506004361061010b5760003560e01c806370a08231116100a2578063a22cb46511610071578063a22cb4651461021b578063b88d4fde1461022e578063c87b56dd14610241578063e985e9c514610254578063f2fde38b1461026757600080fd5b806370a08231146101d9578063715018a6146101fa5780638da5cb5b1461020257806395d89b411461021357600080fd5b806323b872dd116100de57806323b872dd1461018d57806340d097c3146101a057806342842e0e146101b35780636352211e146101c657600080fd5b806301ffc9a71461011057806306fdde0314610138578063081812fc1461014d578063095ea7b314610178575b600080fd5b61012361011e3660046111d9565b61027a565b60405190151581526020015b60405180910390f35b6101406102cc565b60405161012f9190611246565b61016061015b366004611259565b61035e565b6040516001600160a01b03909116815260200161012f565b61018b61018636600461128e565b610385565b005b61018b61019b3660046112b8565b61049f565b61018b6101ae3660046112f4565b6104d0565b61018b6101c13660046112b8565b610595565b6101606101d4366004611259565b6105b0565b6101ec6101e73660046112f4565b610610565b60405190815260200161012f565b61018b610696565b6007546001600160a01b0316610160565b6101406106aa565b61018b61022936600461130f565b6106b9565b61018b61023c366004611361565b6106c4565b61014061024f366004611259565b6106fc565b61012361026236600461143d565b610707565b61018b6102753660046112f4565b610735565b60006001600160e01b031982166380ac58cd60e01b14806102ab57506001600160e01b03198216635b5e139f60e01b145b806102c657506301ffc9a760e01b6001600160e01b03198316145b92915050565b6060600080546102db90611470565b80601f016020809104026020016040519081016040528092919081815260200182805461030790611470565b80156103545780601f1061032957610100808354040283529160200191610354565b820191906000526020600020905b81548152906001019060200180831161033757829003601f168201915b5050505050905090565b6000610369826107ae565b506000908152600460205260409020546001600160a01b031690565b6000610390826105b0565b9050806001600160a01b0316836001600160a01b0316036104025760405162461bcd60e51b815260206004820152602160248201527f4552433732313a20617070726f76616c20746f2063757272656e74206f776e656044820152603960f91b60648201526084015b60405180910390fd5b336001600160a01b038216148061041e575061041e8133610707565b6104905760405162461bcd60e51b815260206004820152603e60248201527f4552433732313a20617070726f76652063616c6c6572206973206e6f7420746f60448201527f6b656e206f776e6572206e6f7220617070726f76656420666f7220616c6c000060648201526084016103f9565b61049a838361080d565b505050565b6104a9338261087b565b6104c55760405162461bcd60e51b81526004016103f9906114aa565b61049a8383836108da565b6104d8610a76565b60006104e360085490565b90506104f3600880546001019055565b6104fd8282610ad0565b610591816009805461050e90611470565b80601f016020809104026020016040519081016040528092919081815260200182805461053a90611470565b80156105875780601f1061055c57610100808354040283529160200191610587565b820191906000526020600020905b81548152906001019060200180831161056a57829003601f168201915b5050505050610aea565b5050565b61049a838383604051806020016040528060008152506106c4565b6000818152600260205260408120546001600160a01b0316806102c65760405162461bcd60e51b8152602060048201526018602482015277115490cdcc8c4e881a5b9d985b1a59081d1bdad95b88125160421b60448201526064016103f9565b60006001600160a01b03821661067a5760405162461bcd60e51b815260206004820152602960248201527f4552433732313a2061646472657373207a65726f206973206e6f7420612076616044820152683634b21037bbb732b960b91b60648201526084016103f9565b506001600160a01b031660009081526003602052604090205490565b61069e610a76565b6106a86000610b7d565b565b6060600180546102db90611470565b610591338383610bcf565b6106ce338361087b565b6106ea5760405162461bcd60e51b81526004016103f9906114aa565b6106f684848484610c9d565b50505050565b60606102c682610cd0565b6001600160a01b03918216600090815260056020908152604080832093909416825291909152205460ff1690565b61073d610a76565b6001600160a01b0381166107a25760405162461bcd60e51b815260206004820152602660248201527f4f776e61626c653a206e6577206f776e657220697320746865207a65726f206160448201526564647265737360d01b60648201526084016103f9565b6107ab81610b7d565b50565b6000818152600260205260409020546001600160a01b03166107ab5760405162461bcd60e51b8152602060048201526018602482015277115490cdcc8c4e881a5b9d985b1a59081d1bdad95b88125160421b60448201526064016103f9565b600081815260046020526040902080546001600160a01b0319166001600160a01b0384169081179091558190610842826105b0565b6001600160a01b03167f8c5be1e5ebec7d5bd14f71427d1e84f3dd0314c0f7b2291e5b200ac8c7c3b92560405160405180910390a45050565b600080610887836105b0565b9050806001600160a01b0316846001600160a01b031614806108ae57506108ae8185610707565b806108d25750836001600160a01b03166108c78461035e565b6001600160a01b0316145b949350505050565b826001600160a01b03166108ed826105b0565b6001600160a01b0316146109515760405162461bcd60e51b815260206004820152602560248201527f4552433732313a207472616e736665722066726f6d20696e636f72726563742060448201526437bbb732b960d91b60648201526084016103f9565b6001600160a01b0382166109b35760405162461bcd60e51b8152602060048201526024808201527f4552433732313a207472616e7366657220746f20746865207a65726f206164646044820152637265737360e01b60648201526084016103f9565b6109be60008261080d565b6001600160a01b03831660009081526003602052604081208054600192906109e790849061150e565b90915550506001600160a01b0382166000908152600360205260408120805460019290610a15908490611521565b909155505060008181526002602052604080822080546001600160a01b0319166001600160a01b0386811691821790925591518493918716917fddf252ad1be2c89b69c2b068fc378daa952ba7f163c4a11628f55a4df523b3ef91a4505050565b6007546001600160a01b031633146106a85760405162461bcd60e51b815260206004820181905260248201527f4f776e61626c653a2063616c6c6572206973206e6f7420746865206f776e657260448201526064016103f9565b610591828260405180602001604052806000815250610dd8565b6000828152600260205260409020546001600160a01b0316610b655760405162461bcd60e51b815260206004820152602e60248201527f45524337323155524953746f726167653a2055524920736574206f66206e6f6e60448201526d32bc34b9ba32b73a103a37b5b2b760911b60648201526084016103f9565b600082815260066020526040902061049a8282611582565b600780546001600160a01b038381166001600160a01b0319831681179093556040519116919082907f8be0079c531659141344cd1fd0a4f28419497f9722a3daafe3b4186f6b6457e090600090a35050565b816001600160a01b0316836001600160a01b031603610c305760405162461bcd60e51b815260206004820152601960248201527f4552433732313a20617070726f766520746f2063616c6c65720000000000000060448201526064016103f9565b6001600160a01b03838116600081815260056020908152604080832094871680845294825291829020805460ff191686151590811790915591519182527f17307eab39ab6107e8899845ad3d59bd9653f200f220920489ca2b5937696c31910160405180910390a3505050565b610ca88484846108da565b610cb484848484610e0b565b6106f65760405162461bcd60e51b81526004016103f990611642565b6060610cdb826107ae565b60008281526006602052604081208054610cf490611470565b80601f0160208091040260200160405190810160405280929190818152602001828054610d2090611470565b8015610d6d5780601f10610d4257610100808354040283529160200191610d6d565b820191906000526020600020905b815481529060010190602001808311610d5057829003601f168201915b505050505090506000610d8b60408051602081019091526000815290565b90508051600003610d9d575092915050565b815115610dcf578082604051602001610db7929190611694565b60405160208183030381529060405292505050919050565b6108d284610f0c565b610de28383610f80565b610def6000848484610e0b565b61049a5760405162461bcd60e51b81526004016103f990611642565b60006001600160a01b0384163b15610f0157604051630a85bd0160e11b81526001600160a01b0385169063150b7a0290610e4f9033908990889088906004016116c3565b6020604051808303816000875af1925050508015610e8a575060408051601f3d908101601f19168201909252610e8791810190611700565b60015b610ee7573d808015610eb8576040519150601f19603f3d011682016040523d82523d6000602084013e610ebd565b606091505b508051600003610edf5760405162461bcd60e51b81526004016103f990611642565b805181602001fd5b6001600160e01b031916630a85bd0160e11b1490506108d2565b506001949350505050565b6060610f17826107ae565b6000610f2e60408051602081019091526000815290565b90506000815111610f4e5760405180602001604052806000815250610f79565b80610f58846110c2565b604051602001610f69929190611694565b6040516020818303038152906040525b9392505050565b6001600160a01b038216610fd65760405162461bcd60e51b815260206004820181905260248201527f4552433732313a206d696e7420746f20746865207a65726f206164647265737360448201526064016103f9565b6000818152600260205260409020546001600160a01b03161561103b5760405162461bcd60e51b815260206004820152601c60248201527f4552433732313a20746f6b656e20616c7265616479206d696e7465640000000060448201526064016103f9565b6001600160a01b0382166000908152600360205260408120805460019290611064908490611521565b909155505060008181526002602052604080822080546001600160a01b0319166001600160a01b03861690811790915590518392907fddf252ad1be2c89b69c2b068fc378daa952ba7f163c4a11628f55a4df523b3ef908290a45050565b6060816000036110e95750506040805180820190915260018152600360fc1b602082015290565b8160005b811561111357806110fd8161171d565b915061110c9050600a8361174c565b91506110ed565b60008167ffffffffffffffff81111561112e5761112e61134b565b6040519080825280601f01601f191660200182016040528015611158576020820181803683370190505b5090505b84156108d25761116d60018361150e565b915061117a600a86611760565b611185906030611521565b60f81b81838151811061119a5761119a611774565b60200101906001600160f81b031916908160001a9053506111bc600a8661174c565b945061115c565b6001600160e01b0319811681146107ab57600080fd5b6000602082840312156111eb57600080fd5b8135610f79816111c3565b60005b838110156112115781810151838201526020016111f9565b50506000910152565b600081518084526112328160208601602086016111f6565b601f01601f19169290920160200192915050565b602081526000610f79602083018461121a565b60006020828403121561126b57600080fd5b5035919050565b80356001600160a01b038116811461128957600080fd5b919050565b600080604083850312156112a157600080fd5b6112aa83611272565b946020939093013593505050565b6000806000606084860312156112cd57600080fd5b6112d684611272565b92506112e460208501611272565b9150604084013590509250925092565b60006020828403121561130657600080fd5b610f7982611272565b6000806040838503121561132257600080fd5b61132b83611272565b91506020830135801515811461134057600080fd5b809150509250929050565b634e487b7160e01b600052604160045260246000fd5b6000806000806080858703121561137757600080fd5b61138085611272565b935061138e60208601611272565b925060408501359150606085013567ffffffffffffffff808211156113b257600080fd5b818701915087601f8301126113c657600080fd5b8135818111156113d8576113d861134b565b604051601f8201601f19908116603f011681019083821181831017156114005761140061134b565b816040528281528a602084870101111561141957600080fd5b82602086016020830137600060208483010152809550505050505092959194509250565b6000806040838503121561145057600080fd5b61145983611272565b915061146760208401611272565b90509250929050565b600181811c9082168061148457607f821691505b6020821081036114a457634e487b7160e01b600052602260045260246000fd5b50919050565b6020808252602e908201527f4552433732313a2063616c6c6572206973206e6f7420746f6b656e206f776e6560408201526d1c881b9bdc88185c1c1c9bdd995960921b606082015260800190565b634e487b7160e01b600052601160045260246000fd5b818103818111156102c6576102c66114f8565b808201808211156102c6576102c66114f8565b601f82111561049a57600081815260208120601f850160051c8101602086101561155b5750805b601f850160051c820191505b8181101561157a57828155600101611567565b505050505050565b815167ffffffffffffffff81111561159c5761159c61134b565b6115b0816115aa8454611470565b84611534565b602080601f8311600181146115e557600084156115cd5750858301515b600019600386901b1c1916600185901b17855561157a565b600085815260208120601f198616915b82811015611614578886015182559484019460019091019084016115f5565b50858210156116325787850151600019600388901b60f8161c191681555b5050505050600190811b01905550565b60208082526032908201527f4552433732313a207472616e7366657220746f206e6f6e20455243373231526560408201527131b2b4bb32b91034b6b83632b6b2b73a32b960711b606082015260800190565b600083516116a68184602088016111f6565b8351908301906116ba8183602088016111f6565b01949350505050565b6001600160a01b03858116825284166020820152604081018390526080606082018190526000906116f69083018461121a565b9695505050505050565b60006020828403121561171257600080fd5b8151610f79816111c3565b60006001820161172f5761172f6114f8565b5060010190565b634e487b7160e01b600052601260045260246000fd5b60008261175b5761175b611736565b500490565b60008261176f5761176f611736565b500690565b634e487b7160e01b600052603260045260246000fdfea26469706673582212203b9c39186c7322a996f67d35c2f0ea1e0cad43e3e093833a78c51de9f1c4c68464736f6c6343000810003368747470733a2f2f6461726b686f7273652e696e667572612d697066732e696f2f697066732f516d647078737237596e6866367046365935726b653466574e455a633367655775704c694732754b433352385254",
  "linkReferences": {},
  "deployedLinkReferences": {}
}