{
  "_format": "hh-sol-artifact-1",
  "contractName": "OpenQ",
  "sourceName": "contracts/OpenQ.sol",
  "abi": [
    {
      "inputs": [],
      "stateMutability": "nonpayable",
      "type": "constructor"
    },
    {
      "anonymous": false,
      "inputs": [
        {
          "indexed": true,
          "internalType": "address",
          "name": "from",
          "type": "address"
        },
        {
          "indexed": false,
          "internalType": "string",
          "name": "id",
          "type": "string"
        },
        {
          "indexed": true,
          "internalType": "address",
          "name": "issueAddress",
          "type": "address"
        }
      ],
      "name": "IssueCreated",
      "type": "event"
    },
    {
      "inputs": [
        {
          "internalType": "address",
          "name": "tokenAddress",
          "type": "address"
        }
      ],
      "name": "addTokenAddress",
      "outputs": [],
      "stateMutability": "nonpayable",
      "type": "function"
    },
    {
      "inputs": [
        {
          "internalType": "string",
          "name": "_id",
          "type": "string"
        },
        {
          "internalType": "address",
          "name": "_payoutAddress",
          "type": "address"
        }
      ],
      "name": "claimBounty",
      "outputs": [],
      "stateMutability": "nonpayable",
      "type": "function"
    },
    {
      "inputs": [
        {
          "internalType": "string",
          "name": "_id",
          "type": "string"
        }
      ],
      "name": "getBountyAddress",
      "outputs": [
        {
          "internalType": "address",
          "name": "",
          "type": "address"
        }
      ],
      "stateMutability": "view",
      "type": "function"
    },
    {
      "inputs": [],
      "name": "getIssueIds",
      "outputs": [
        {
          "internalType": "string[]",
          "name": "",
          "type": "string[]"
        }
      ],
      "stateMutability": "view",
      "type": "function"
    },
    {
      "inputs": [
        {
          "internalType": "uint256",
          "name": "",
          "type": "uint256"
        }
      ],
      "name": "issueIds",
      "outputs": [
        {
          "internalType": "string",
          "name": "",
          "type": "string"
        }
      ],
      "stateMutability": "view",
      "type": "function"
    },
    {
      "inputs": [
        {
          "internalType": "string",
          "name": "",
          "type": "string"
        }
      ],
      "name": "issueToAddress",
      "outputs": [
        {
          "internalType": "address",
          "name": "",
          "type": "address"
        }
      ],
      "stateMutability": "view",
      "type": "function"
    },
    {
      "inputs": [
        {
          "internalType": "string",
          "name": "_id",
          "type": "string"
        }
      ],
      "name": "mintBounty",
      "outputs": [
        {
          "internalType": "address",
          "name": "issueAddress",
          "type": "address"
        }
      ],
      "stateMutability": "nonpayable",
      "type": "function"
    },
    {
      "inputs": [
        {
          "internalType": "uint256",
          "name": "",
          "type": "uint256"
        }
      ],
      "name": "tokenAddresses",
      "outputs": [
        {
          "internalType": "address",
          "name": "",
          "type": "address"
        }
      ],
      "stateMutability": "view",
      "type": "function"
    }
  ],
  "bytecode": "0x608060405234801561001057600080fd5b50336000806101000a81548173ffffffffffffffffffffffffffffffffffffffff021916908373ffffffffffffffffffffffffffffffffffffffff160217905550612047806100606000396000f3fe60806040523480156200001157600080fd5b5060043610620000945760003560e01c8063cde962831162000063578063cde962831462000145578063e5df8b841462000167578063eea7f924146200019d578063fcedbecf14620001d35762000094565b80633e7da1a914620000995780634badc44e14620000b957806351992fcb14620000ef578063b233e6e8146200010f575b600080fd5b620000b76004803603810190620000b19190620009be565b62000209565b005b620000d76004803603810190620000d1919062000a61565b620002c5565b604051620000e6919062000d97565b60405180910390f35b6200010d600480360381019062000107919062000949565b6200037a565b005b6200012d600480360381019062000127919062000975565b620003e0565b6040516200013c919062000cf3565b60405180910390f35b6200014f620005e5565b6040516200015e919062000d10565b60405180910390f35b6200018560048036038101906200017f919062000a61565b620006c8565b60405162000194919062000cf3565b60405180910390f35b620001bb6004803603810190620001b5919062000a1c565b62000708565b604051620001ca919062000cf3565b60405180910390f35b620001f16004803603810190620001eb919062000975565b62000751565b60405162000200919062000cf3565b60405180910390f35b6000600284846040516200021f92919062000cd8565b908152602001604051809103902060009054906101000a900473ffffffffffffffffffffffffffffffffffffffff1690508073ffffffffffffffffffffffffffffffffffffffff16639375dd90836040518263ffffffff1660e01b81526004016200028b919062000cf3565b600060405180830381600087803b158015620002a657600080fd5b505af1158015620002bb573d6000803e3d6000fd5b5050505050505050565b60018181548110620002d657600080fd5b906000526020600020016000915090508054620002f39062000f8e565b80601f0160208091040260200160405190810160405280929190818152602001828054620003219062000f8e565b8015620003725780601f10620003465761010080835404028352916020019162000372565b820191906000526020600020905b8154815290600101906020018083116200035457829003601f168201915b505050505081565b6003819080600181540180825580915050600190039060005260206000200160009091909190916101000a81548173ffffffffffffffffffffffffffffffffffffffff021916908373ffffffffffffffffffffffffffffffffffffffff16021790555050565b60008073ffffffffffffffffffffffffffffffffffffffff16600284846040516200040d92919062000cd8565b908152602001604051809103902060009054906101000a900473ffffffffffffffffffffffffffffffffffffffff1673ffffffffffffffffffffffffffffffffffffffff161462000495576040517f08c379a00000000000000000000000000000000000000000000000000000000081526004016200048c9062000dbb565b60405180910390fd5b82826003604051620004a7906200079e565b620004b59392919062000d5a565b604051809103906000f080158015620004d2573d6000803e3d6000fd5b5090508060028484604051620004ea92919062000cd8565b908152602001604051809103902060006101000a81548173ffffffffffffffffffffffffffffffffffffffff021916908373ffffffffffffffffffffffffffffffffffffffff160217905550600183839091806001815401808255809150506001900390600052602060002001600090919290919290919290919250919062000575929190620007ac565b508073ffffffffffffffffffffffffffffffffffffffff163373ffffffffffffffffffffffffffffffffffffffff167fd093611f2be5c7b2095065f744ea72e98dfb48b49a9c50a55206ba8698e441d18585604051620005d792919062000d34565b60405180910390a392915050565b60606001805480602002602001604051908101604052809291908181526020016000905b82821015620006bf5783829060005260206000200180546200062b9062000f8e565b80601f0160208091040260200160405190810160405280929190818152602001828054620006599062000f8e565b8015620006aa5780601f106200067e57610100808354040283529160200191620006aa565b820191906000526020600020905b8154815290600101906020018083116200068c57829003601f168201915b50505050508152602001906001019062000609565b50505050905090565b60038181548110620006d957600080fd5b906000526020600020016000915054906101000a900473ffffffffffffffffffffffffffffffffffffffff1681565b6002818051602081018201805184825260208301602085012081835280955050505050506000915054906101000a900473ffffffffffffffffffffffffffffffffffffffff1681565b6000600283836040516200076792919062000cd8565b908152602001604051809103902060009054906101000a900473ffffffffffffffffffffffffffffffffffffffff16905092915050565b610e99806200117983390190565b828054620007ba9062000f8e565b90600052602060002090601f016020900481019282620007de57600085556200082a565b82601f10620007f957803560ff19168380011785556200082a565b828001600101855582156200082a579182015b82811115620008295782358255916020019190600101906200080c565b5b5090506200083991906200083d565b5090565b5b80821115620008585760008160009055506001016200083e565b5090565b6000620008736200086d8462000e06565b62000ddd565b9050828152602081018484840111156200088c57600080fd5b6200089984828562000f49565b509392505050565b600081359050620008b28162001144565b92915050565b60008083601f840112620008cb57600080fd5b8235905067ffffffffffffffff811115620008e557600080fd5b602083019150836001820283011115620008fe57600080fd5b9250929050565b600082601f8301126200091757600080fd5b8135620009298482602086016200085c565b91505092915050565b60008135905062000943816200115e565b92915050565b6000602082840312156200095c57600080fd5b60006200096c84828501620008a1565b91505092915050565b600080602083850312156200098957600080fd5b600083013567ffffffffffffffff811115620009a457600080fd5b620009b285828601620008b8565b92509250509250929050565b600080600060408486031215620009d457600080fd5b600084013567ffffffffffffffff811115620009ef57600080fd5b620009fd86828701620008b8565b9350935050602062000a1286828701620008a1565b9150509250925092565b60006020828403121562000a2f57600080fd5b600082013567ffffffffffffffff81111562000a4a57600080fd5b62000a588482850162000905565b91505092915050565b60006020828403121562000a7457600080fd5b600062000a848482850162000932565b91505092915050565b600062000a9b838362000abd565b60208301905092915050565b600062000ab5838362000c2f565b905092915050565b62000ac88162000f0b565b82525050565b62000ad98162000f0b565b82525050565b600062000aec8262000e61565b62000af8818562000e9c565b935062000b058362000e3c565b8060005b8381101562000b455762000b1d8262001076565b62000b29888262000a8d565b975062000b368362000e82565b92505060018101905062000b09565b5085935050505092915050565b600062000b5f8262000e6c565b62000b6b818562000ead565b93508360208202850162000b7f8562000e51565b8060005b8581101562000bc1578484038952815162000b9f858262000aa7565b945062000bac8362000e8f565b925060208a0199505060018101905062000b83565b50829750879550505050505092915050565b600062000be1838562000ecf565b935062000bf083858462000f49565b62000bfb836200108b565b840190509392505050565b600062000c14838562000ee0565b935062000c2383858462000f49565b82840190509392505050565b600062000c3c8262000e77565b62000c48818562000ebe565b935062000c5a81856020860162000f58565b62000c65816200108b565b840191505092915050565b600062000c7d8262000e77565b62000c89818562000ecf565b935062000c9b81856020860162000f58565b62000ca6816200108b565b840191505092915050565b600062000cc0606f8362000ecf565b915062000ccd82620010a9565b608082019050919050565b600062000ce782848662000c06565b91508190509392505050565b600060208201905062000d0a600083018462000ace565b92915050565b6000602082019050818103600083015262000d2c818462000b52565b905092915050565b6000602082019050818103600083015262000d5181848662000bd3565b90509392505050565b6000604082019050818103600083015262000d7781858762000bd3565b9050818103602083015262000d8d818462000adf565b9050949350505050565b6000602082019050818103600083015262000db3818462000c70565b905092915050565b6000602082019050818103600083015262000dd68162000cb1565b9050919050565b600062000de962000dfc565b905062000df7828262000fe2565b919050565b6000604051905090565b600067ffffffffffffffff82111562000e245762000e2362001047565b5b62000e2f826200108b565b9050602081019050919050565b60008190508160005260206000209050919050565b6000819050602082019050919050565b600081549050919050565b600081519050919050565b600081519050919050565b6000600182019050919050565b6000602082019050919050565b600082825260208201905092915050565b600082825260208201905092915050565b600082825260208201905092915050565b600082825260208201905092915050565b600081905092915050565b600073ffffffffffffffffffffffffffffffffffffffff82169050919050565b600062000f188262000f1f565b9050919050565b600073ffffffffffffffffffffffffffffffffffffffff82169050919050565b6000819050919050565b82818337600083830152505050565b60005b8381101562000f7857808201518184015260208101905062000f5b565b8381111562000f88576000848401525b50505050565b6000600282049050600182168062000fa757607f821691505b6020821081141562000fbe5762000fbd62001018565b5b50919050565b600062000fdb62000fd5836200109c565b62000eeb565b9050919050565b62000fed826200108b565b810181811067ffffffffffffffff821117156200100f576200100e62001047565b5b80604052505050565b7f4e487b7100000000000000000000000000000000000000000000000000000000600052602260045260246000fd5b7f4e487b7100000000000000000000000000000000000000000000000000000000600052604160045260246000fd5b600062001084825462000fc4565b9050919050565b6000601f19601f8301169050919050565b60008160001c9050919050565b7f497373756520616c72656164792065786973747320666f7220676976656e206960008201527f642e2046696e642069747320616464726573732062792063616c6c696e67206960208201527f73737565546f41646472657373206f6e207468697320636f6e7472616374207760408201527f6974682074686520697373756549640000000000000000000000000000000000606082015250565b6200114f8162000f0b565b81146200115b57600080fd5b50565b620011698162000f3f565b81146200117557600080fd5b5056fe60806040523480156200001157600080fd5b5060405162000e9938038062000e9983398181016040528101906200003791906200031c565b81600090805190602001906200004f929190620000b2565b5033600160006101000a81548173ffffffffffffffffffffffffffffffffffffffff021916908373ffffffffffffffffffffffffffffffffffffffff1602179055508060029080519060200190620000a992919062000143565b5050506200057c565b828054620000c09062000487565b90600052602060002090601f016020900481019282620000e4576000855562000130565b82601f10620000ff57805160ff191683800117855562000130565b8280016001018555821562000130579182015b828111156200012f57825182559160200191906001019062000112565b5b5090506200013f9190620001d2565b5090565b828054828255906000526020600020908101928215620001bf579160200282015b82811115620001be5782518260006101000a81548173ffffffffffffffffffffffffffffffffffffffff021916908373ffffffffffffffffffffffffffffffffffffffff1602179055509160200191906001019062000164565b5b509050620001ce9190620001d2565b5090565b5b80821115620001ed576000816000905550600101620001d3565b5090565b6000620002086200020284620003b8565b6200038f565b905080838252602082019050828560208602820111156200022857600080fd5b60005b858110156200025c5781620002418882620002ab565b8452602084019350602083019250506001810190506200022b565b5050509392505050565b60006200027d6200027784620003e7565b6200038f565b9050828152602081018484840111156200029657600080fd5b620002a384828562000451565b509392505050565b600081519050620002bc8162000562565b92915050565b600082601f830112620002d457600080fd5b8151620002e6848260208601620001f1565b91505092915050565b600082601f8301126200030157600080fd5b81516200031384826020860162000266565b91505092915050565b600080604083850312156200033057600080fd5b600083015167ffffffffffffffff8111156200034b57600080fd5b6200035985828601620002ef565b925050602083015167ffffffffffffffff8111156200037757600080fd5b6200038585828601620002c2565b9150509250929050565b60006200039b620003ae565b9050620003a98282620004bd565b919050565b6000604051905090565b600067ffffffffffffffff821115620003d657620003d562000522565b5b602082029050602081019050919050565b600067ffffffffffffffff82111562000405576200040462000522565b5b620004108262000551565b9050602081019050919050565b60006200042a8262000431565b9050919050565b600073ffffffffffffffffffffffffffffffffffffffff82169050919050565b60005b838110156200047157808201518184015260208101905062000454565b8381111562000481576000848401525b50505050565b60006002820490506001821680620004a057607f821691505b60208210811415620004b757620004b6620004f3565b5b50919050565b620004c88262000551565b810181811067ffffffffffffffff82111715620004ea57620004e962000522565b5b80604052505050565b7f4e487b7100000000000000000000000000000000000000000000000000000000600052602260045260246000fd5b7f4e487b7100000000000000000000000000000000000000000000000000000000600052604160045260246000fd5b6000601f19601f8301169050919050565b6200056d816200041d565b81146200057957600080fd5b50565b61090d806200058c6000396000f3fe608060405234801561001057600080fd5b50600436106100575760003560e01c80638da5cb5b1461005c5780639375dd901461007a578063af640d0f14610096578063b588d225146100b4578063e5df8b84146100e4575b600080fd5b610064610114565b6040516100719190610647565b60405180910390f35b610094600480360381019061008f9190610529565b61013a565b005b61009e610371565b6040516100ab919061068b565b60405180910390f35b6100ce60048036038101906100c99190610529565b6103ff565b6040516100db91906106cd565b60405180910390f35b6100fe60048036038101906100f9919061057b565b610496565b60405161010b9190610647565b60405180910390f35b600160009054906101000a900473ffffffffffffffffffffffffffffffffffffffff1681565b600160009054906101000a900473ffffffffffffffffffffffffffffffffffffffff1673ffffffffffffffffffffffffffffffffffffffff163373ffffffffffffffffffffffffffffffffffffffff16146101ca576040517f08c379a00000000000000000000000000000000000000000000000000000000081526004016101c1906106ad565b60405180910390fd5b60005b60028054905081101561036d57600060028281548110610216577f4e487b7100000000000000000000000000000000000000000000000000000000600052603260045260246000fd5b9060005260206000200160009054906101000a900473ffffffffffffffffffffffffffffffffffffffff1690508073ffffffffffffffffffffffffffffffffffffffff1663a9059cbb848373ffffffffffffffffffffffffffffffffffffffff166370a08231306040518263ffffffff1660e01b81526004016102999190610647565b60206040518083038186803b1580156102b157600080fd5b505afa1580156102c5573d6000803e3d6000fd5b505050506040513d601f19601f820116820180604052508101906102e991906105a4565b6040518363ffffffff1660e01b8152600401610306929190610662565b602060405180830381600087803b15801561032057600080fd5b505af1158015610334573d6000803e3d6000fd5b505050506040513d601f19601f820116820180604052508101906103589190610552565b50508080610365906107b1565b9150506101cd565b5050565b6000805461037e9061077f565b80601f01602080910402602001604051908101604052809291908181526020018280546103aa9061077f565b80156103f75780601f106103cc576101008083540402835291602001916103f7565b820191906000526020600020905b8154815290600101906020018083116103da57829003601f168201915b505050505081565b6000808290508073ffffffffffffffffffffffffffffffffffffffff166370a08231306040518263ffffffff1660e01b815260040161043e9190610647565b60206040518083038186803b15801561045657600080fd5b505afa15801561046a573d6000803e3d6000fd5b505050506040513d601f19601f8201168201806040525081019061048e91906105a4565b915050919050565b600281815481106104a657600080fd5b906000526020600020016000915054906101000a900473ffffffffffffffffffffffffffffffffffffffff1681565b6000813590506104e481610892565b92915050565b6000815190506104f9816108a9565b92915050565b60008135905061050e816108c0565b92915050565b600081519050610523816108c0565b92915050565b60006020828403121561053b57600080fd5b6000610549848285016104d5565b91505092915050565b60006020828403121561056457600080fd5b6000610572848285016104ea565b91505092915050565b60006020828403121561058d57600080fd5b600061059b848285016104ff565b91505092915050565b6000602082840312156105b657600080fd5b60006105c484828501610514565b91505092915050565b6105d681610704565b82525050565b60006105e7826106e8565b6105f181856106f3565b935061060181856020860161074c565b61060a81610858565b840191505092915050565b6000610622601f836106f3565b915061062d82610869565b602082019050919050565b61064181610742565b82525050565b600060208201905061065c60008301846105cd565b92915050565b600060408201905061067760008301856105cd565b6106846020830184610638565b9392505050565b600060208201905081810360008301526106a581846105dc565b905092915050565b600060208201905081810360008301526106c681610615565b9050919050565b60006020820190506106e26000830184610638565b92915050565b600081519050919050565b600082825260208201905092915050565b600061070f82610722565b9050919050565b60008115159050919050565b600073ffffffffffffffffffffffffffffffffffffffff82169050919050565b6000819050919050565b60005b8381101561076a57808201518184015260208101905061074f565b83811115610779576000848401525b50505050565b6000600282049050600182168061079757607f821691505b602082108114156107ab576107aa610829565b5b50919050565b60006107bc82610742565b91507fffffffffffffffffffffffffffffffffffffffffffffffffffffffffffffffff8214156107ef576107ee6107fa565b5b600182019050919050565b7f4e487b7100000000000000000000000000000000000000000000000000000000600052601160045260246000fd5b7f4e487b7100000000000000000000000000000000000000000000000000000000600052602260045260246000fd5b6000601f19601f8301169050919050565b7f4f6e6c792063616c6c61626c65206279204f70656e5120636f6e747261637400600082015250565b61089b81610704565b81146108a657600080fd5b50565b6108b281610716565b81146108bd57600080fd5b50565b6108c981610742565b81146108d457600080fd5b5056fea264697066735822122003c8313aca6d946da39c8c748464056ca16f5ca7b0ad30fe7c0e42069307f13d64736f6c63430008040033a2646970667358221220f8e8b09b4f169aab0061240e1ee2d273e5ece503e743f0d6c2af7929c71b111a64736f6c63430008040033",
  "linkReferences": {},
  "deployedLinkReferences": {}
}