{
  "_format": "hh-sol-artifact-1",
  "contractName": "OpenQ",
  "sourceName": "contracts/OpenQ.sol",
  "abi": [
    {
      "inputs": [],
      "stateMutability": "nonpayable",
      "type": "constructor"
    },
    {
      "anonymous": false,
      "inputs": [
        {
          "indexed": true,
          "internalType": "string",
          "name": "id",
          "type": "string"
        },
        {
          "indexed": true,
          "internalType": "address",
          "name": "issueAddress",
          "type": "address"
        },
        {
          "indexed": true,
          "internalType": "address",
          "name": "payoutAddress",
          "type": "address"
        }
      ],
      "name": "IssueClosed",
      "type": "event"
    },
    {
      "anonymous": false,
      "inputs": [
        {
          "indexed": true,
          "internalType": "address",
          "name": "from",
          "type": "address"
        },
        {
          "indexed": false,
          "internalType": "string",
          "name": "id",
          "type": "string"
        },
        {
          "indexed": true,
          "internalType": "address",
          "name": "issueAddress",
          "type": "address"
        }
      ],
      "name": "IssueCreated",
      "type": "event"
    },
    {
      "inputs": [
        {
          "internalType": "address",
          "name": "tokenAddress",
          "type": "address"
        }
      ],
      "name": "addTokenAddress",
      "outputs": [],
      "stateMutability": "nonpayable",
      "type": "function"
    },
    {
      "inputs": [
        {
          "internalType": "address",
          "name": "",
          "type": "address"
        }
      ],
      "name": "addressToIssue",
      "outputs": [
        {
          "internalType": "string",
          "name": "",
          "type": "string"
        }
      ],
      "stateMutability": "view",
      "type": "function"
    },
    {
      "inputs": [
        {
          "internalType": "string",
          "name": "_id",
          "type": "string"
        },
        {
          "internalType": "address",
          "name": "_payoutAddress",
          "type": "address"
        }
      ],
      "name": "claimBounty",
      "outputs": [],
      "stateMutability": "nonpayable",
      "type": "function"
    },
    {
      "inputs": [
        {
          "internalType": "string",
          "name": "_id",
          "type": "string"
        }
      ],
      "name": "getBountyAddress",
      "outputs": [
        {
          "internalType": "address",
          "name": "",
          "type": "address"
        }
      ],
      "stateMutability": "view",
      "type": "function"
    },
    {
      "inputs": [],
      "name": "getIssueIds",
      "outputs": [
        {
          "internalType": "string[]",
          "name": "",
          "type": "string[]"
        }
      ],
      "stateMutability": "view",
      "type": "function"
    },
    {
      "inputs": [
        {
          "internalType": "uint256",
          "name": "",
          "type": "uint256"
        }
      ],
      "name": "issueIds",
      "outputs": [
        {
          "internalType": "string",
          "name": "",
          "type": "string"
        }
      ],
      "stateMutability": "view",
      "type": "function"
    },
    {
      "inputs": [
        {
          "internalType": "string",
          "name": "id_",
          "type": "string"
        }
      ],
      "name": "issueIsOpen",
      "outputs": [
        {
          "internalType": "bool",
          "name": "",
          "type": "bool"
        }
      ],
      "stateMutability": "view",
      "type": "function"
    },
    {
      "inputs": [
        {
          "internalType": "string",
          "name": "",
          "type": "string"
        }
      ],
      "name": "issueToAddress",
      "outputs": [
        {
          "internalType": "address",
          "name": "",
          "type": "address"
        }
      ],
      "stateMutability": "view",
      "type": "function"
    },
    {
      "inputs": [
        {
          "internalType": "string",
          "name": "_id",
          "type": "string"
        }
      ],
      "name": "mintBounty",
      "outputs": [
        {
          "internalType": "address",
          "name": "issueAddress",
          "type": "address"
        }
      ],
      "stateMutability": "nonpayable",
      "type": "function"
    },
    {
      "inputs": [
        {
          "internalType": "uint256",
          "name": "",
          "type": "uint256"
        }
      ],
      "name": "tokenAddresses",
      "outputs": [
        {
          "internalType": "address",
          "name": "",
          "type": "address"
        }
      ],
      "stateMutability": "view",
      "type": "function"
    }
  ],
  "bytecode": "0x608060405234801561001057600080fd5b50336000806101000a81548173ffffffffffffffffffffffffffffffffffffffff021916908373ffffffffffffffffffffffffffffffffffffffff16021790555061282b806100606000396000f3fe60806040523480156200001157600080fd5b5060043610620000ac5760003560e01c8063c4a9199c116200006f578063c4a9199c1462000193578063cde9628314620001c9578063e5df8b8414620001eb578063eea7f9241462000221578063fcedbecf146200025757620000ac565b80633e7da1a914620000b15780634badc44e14620000d157806351992fcb1462000107578063b233e6e81462000127578063b83b6b65146200015d575b600080fd5b620000cf6004803603810190620000c9919062000dd6565b6200028d565b005b620000ef6004803603810190620000e9919062000e79565b620003c3565b604051620000fe9190620011dd565b60405180910390f35b6200012560048036038101906200011f919062000d09565b62000478565b005b6200014560048036038101906200013f919062000d8d565b620004de565b6040516200015491906200111c565b60405180910390f35b6200017b600480360381019062000175919062000d09565b62000734565b6040516200018a9190620011dd565b60405180910390f35b620001b16004803603810190620001ab919062000d8d565b620007dc565b604051620001c091906200115d565b60405180910390f35b620001d362000977565b604051620001e2919062001139565b60405180910390f35b62000209600480360381019062000203919062000e79565b62000a5a565b6040516200021891906200111c565b60405180910390f35b6200023f600480360381019062000239919062000e34565b62000a9a565b6040516200024e91906200111c565b60405180910390f35b6200027560048036038101906200026f919062000d8d565b62000ae3565b6040516200028491906200111c565b60405180910390f35b600060028484604051620002a392919062001101565b908152602001604051809103902060009054906101000a900473ffffffffffffffffffffffffffffffffffffffff16905060008190508073ffffffffffffffffffffffffffffffffffffffff16639375dd90846040518263ffffffff1660e01b81526004016200031491906200111c565b600060405180830381600087803b1580156200032f57600080fd5b505af115801562000344573d6000803e3d6000fd5b505050508273ffffffffffffffffffffffffffffffffffffffff168273ffffffffffffffffffffffffffffffffffffffff1686866040516200038892919062001101565b60405180910390207fe8bca3c18ca1c7ab481718f184745e0be969b9ff855fc58d9a483562ec9c960d60405160405180910390a45050505050565b60018181548110620003d457600080fd5b906000526020600020016000915090508054620003f190620013e0565b80601f01602080910402602001604051908101604052809291908181526020018280546200041f90620013e0565b8015620004705780601f10620004445761010080835404028352916020019162000470565b820191906000526020600020905b8154815290600101906020018083116200045257829003601f168201915b505050505081565b6004819080600181540180825580915050600190039060005260206000200160009091909190916101000a81548173ffffffffffffffffffffffffffffffffffffffff021916908373ffffffffffffffffffffffffffffffffffffffff16021790555050565b60008073ffffffffffffffffffffffffffffffffffffffff16600284846040516200050b92919062001101565b908152602001604051809103902060009054906101000a900473ffffffffffffffffffffffffffffffffffffffff1673ffffffffffffffffffffffffffffffffffffffff161462000593576040517f08c379a00000000000000000000000000000000000000000000000000000000081526004016200058a9062001201565b60405180910390fd5b82826004604051620005a59062000b30565b620005b393929190620011a0565b604051809103906000f080158015620005d0573d6000803e3d6000fd5b5090508060028484604051620005e892919062001101565b908152602001604051809103902060006101000a81548173ffffffffffffffffffffffffffffffffffffffff021916908373ffffffffffffffffffffffffffffffffffffffff1602179055508282600360008473ffffffffffffffffffffffffffffffffffffffff1673ffffffffffffffffffffffffffffffffffffffff16815260200190815260200160002091906200068492919062000b3e565b506001838390918060018154018082558091505060019003906000526020600020016000909192909192909192909192509190620006c492919062000b3e565b508073ffffffffffffffffffffffffffffffffffffffff163373ffffffffffffffffffffffffffffffffffffffff167fd093611f2be5c7b2095065f744ea72e98dfb48b49a9c50a55206ba8698e441d18585604051620007269291906200117a565b60405180910390a392915050565b600360205280600052604060002060009150905080546200075590620013e0565b80601f01602080910402602001604051908101604052809291908181526020018280546200078390620013e0565b8015620007d45780601f10620007a857610100808354040283529160200191620007d4565b820191906000526020600020905b815481529060010190602001808311620007b657829003601f168201915b505050505081565b6000803073ffffffffffffffffffffffffffffffffffffffff1663eea7f92485856040518363ffffffff1660e01b81526004016200081c9291906200117a565b60206040518083038186803b1580156200083557600080fd5b505afa1580156200084a573d6000803e3d6000fd5b505050506040513d601f19601f8201168201806040525081019062000870919062000d35565b90506000806001811115620008ae577f4e487b7100000000000000000000000000000000000000000000000000000000600052602160045260246000fd5b8273ffffffffffffffffffffffffffffffffffffffff1663200d2ed26040518163ffffffff1660e01b815260040160206040518083038186803b158015620008f557600080fd5b505afa1580156200090a573d6000803e3d6000fd5b505050506040513d601f19601f8201168201806040525081019062000930919062000d61565b600181111562000969577f4e487b7100000000000000000000000000000000000000000000000000000000600052602160045260246000fd5b149050809250505092915050565b60606001805480602002602001604051908101604052809291908181526020016000905b8282101562000a51578382906000526020600020018054620009bd90620013e0565b80601f0160208091040260200160405190810160405280929190818152602001828054620009eb90620013e0565b801562000a3c5780601f1062000a105761010080835404028352916020019162000a3c565b820191906000526020600020905b81548152906001019060200180831162000a1e57829003601f168201915b5050505050815260200190600101906200099b565b50505050905090565b6004818154811062000a6b57600080fd5b906000526020600020016000915054906101000a900473ffffffffffffffffffffffffffffffffffffffff1681565b6002818051602081018201805184825260208301602085012081835280955050505050506000915054906101000a900473ffffffffffffffffffffffffffffffffffffffff1681565b60006002838360405162000af992919062001101565b908152602001604051809103902060009054906101000a900473ffffffffffffffffffffffffffffffffffffffff16905092915050565b61121a80620015dc83390190565b82805462000b4c90620013e0565b90600052602060002090601f01602090048101928262000b70576000855562000bbc565b82601f1062000b8b57803560ff191683800117855562000bbc565b8280016001018555821562000bbc579182015b8281111562000bbb57823582559160200191906001019062000b9e565b5b50905062000bcb919062000bcf565b5090565b5b8082111562000bea57600081600090555060010162000bd0565b5090565b600062000c0562000bff846200124c565b62001223565b90508281526020810184848401111562000c1e57600080fd5b62000c2b8482856200139b565b509392505050565b60008135905062000c448162001596565b92915050565b60008151905062000c5b8162001596565b92915050565b60008151905062000c7281620015b0565b92915050565b60008083601f84011262000c8b57600080fd5b8235905067ffffffffffffffff81111562000ca557600080fd5b60208301915083600182028301111562000cbe57600080fd5b9250929050565b600082601f83011262000cd757600080fd5b813562000ce984826020860162000bee565b91505092915050565b60008135905062000d0381620015c1565b92915050565b60006020828403121562000d1c57600080fd5b600062000d2c8482850162000c33565b91505092915050565b60006020828403121562000d4857600080fd5b600062000d588482850162000c4a565b91505092915050565b60006020828403121562000d7457600080fd5b600062000d848482850162000c61565b91505092915050565b6000806020838503121562000da157600080fd5b600083013567ffffffffffffffff81111562000dbc57600080fd5b62000dca8582860162000c78565b92509250509250929050565b60008060006040848603121562000dec57600080fd5b600084013567ffffffffffffffff81111562000e0757600080fd5b62000e158682870162000c78565b9350935050602062000e2a8682870162000c33565b9150509250925092565b60006020828403121562000e4757600080fd5b600082013567ffffffffffffffff81111562000e6257600080fd5b62000e708482850162000cc5565b91505092915050565b60006020828403121562000e8c57600080fd5b600062000e9c8482850162000cf2565b91505092915050565b600062000eb3838362000ed5565b60208301905092915050565b600062000ecd838362001058565b905092915050565b62000ee08162001351565b82525050565b62000ef18162001351565b82525050565b600062000f0482620012a7565b62000f108185620012e2565b935062000f1d8362001282565b8060005b8381101562000f5d5762000f3582620014c8565b62000f41888262000ea5565b975062000f4e83620012c8565b92505060018101905062000f21565b5085935050505092915050565b600062000f7782620012b2565b62000f838185620012f3565b93508360208202850162000f978562001297565b8060005b8581101562000fd9578484038952815162000fb7858262000ebf565b945062000fc483620012d5565b925060208a0199505060018101905062000f9b565b50829750879550505050505092915050565b62000ff68162001365565b82525050565b60006200100a838562001315565b9350620010198385846200139b565b6200102483620014dd565b840190509392505050565b60006200103d838562001326565b93506200104c8385846200139b565b82840190509392505050565b60006200106582620012bd565b62001071818562001304565b935062001083818560208601620013aa565b6200108e81620014dd565b840191505092915050565b6000620010a682620012bd565b620010b2818562001315565b9350620010c4818560208601620013aa565b620010cf81620014dd565b840191505092915050565b6000620010e9606f8362001315565b9150620010f682620014fb565b608082019050919050565b6000620011108284866200102f565b91508190509392505050565b600060208201905062001133600083018462000ee6565b92915050565b6000602082019050818103600083015262001155818462000f6a565b905092915050565b600060208201905062001174600083018462000feb565b92915050565b600060208201905081810360008301526200119781848662000ffc565b90509392505050565b60006040820190508181036000830152620011bd81858762000ffc565b90508181036020830152620011d3818462000ef7565b9050949350505050565b60006020820190508181036000830152620011f9818462001099565b905092915050565b600060208201905081810360008301526200121c81620010da565b9050919050565b60006200122f62001242565b90506200123d828262001434565b919050565b6000604051905090565b600067ffffffffffffffff8211156200126a576200126962001499565b5b6200127582620014dd565b9050602081019050919050565b60008190508160005260206000209050919050565b6000819050602082019050919050565b600081549050919050565b600081519050919050565b600081519050919050565b6000600182019050919050565b6000602082019050919050565b600082825260208201905092915050565b600082825260208201905092915050565b600082825260208201905092915050565b600082825260208201905092915050565b600081905092915050565b600073ffffffffffffffffffffffffffffffffffffffff82169050919050565b60006200135e8262001371565b9050919050565b60008115159050919050565b600073ffffffffffffffffffffffffffffffffffffffff82169050919050565b6000819050919050565b82818337600083830152505050565b60005b83811015620013ca578082015181840152602081019050620013ad565b83811115620013da576000848401525b50505050565b60006002820490506001821680620013f957607f821691505b6020821081141562001410576200140f6200146a565b5b50919050565b60006200142d6200142783620014ee565b62001331565b9050919050565b6200143f82620014dd565b810181811067ffffffffffffffff8211171562001461576200146062001499565b5b80604052505050565b7f4e487b7100000000000000000000000000000000000000000000000000000000600052602260045260246000fd5b7f4e487b7100000000000000000000000000000000000000000000000000000000600052604160045260246000fd5b6000620014d6825462001416565b9050919050565b6000601f19601f8301169050919050565b60008160001c9050919050565b7f497373756520616c72656164792065786973747320666f7220676976656e206960008201527f642e2046696e642069747320616464726573732062792063616c6c696e67206960208201527f73737565546f41646472657373206f6e207468697320636f6e7472616374207760408201527f6974682074686520697373756549640000000000000000000000000000000000606082015250565b620015a18162001351565b8114620015ad57600080fd5b50565b60028110620015be57600080fd5b50565b620015cc8162001391565b8114620015d857600080fd5b5056fe60806040523480156200001157600080fd5b506040516200121a3803806200121a83398181016040528101906200003791906200036e565b81600090805190602001906200004f92919062000104565b5033600160006101000a81548173ffffffffffffffffffffffffffffffffffffffff021916908373ffffffffffffffffffffffffffffffffffffffff1602179055508060029080519060200190620000a992919062000195565b506000600360006101000a81548160ff02191690836001811115620000f7577f4e487b7100000000000000000000000000000000000000000000000000000000600052602160045260246000fd5b02179055505050620005ce565b8280546200011290620004d9565b90600052602060002090601f01602090048101928262000136576000855562000182565b82601f106200015157805160ff191683800117855562000182565b8280016001018555821562000182579182015b828111156200018157825182559160200191906001019062000164565b5b50905062000191919062000224565b5090565b82805482825590600052602060002090810192821562000211579160200282015b82811115620002105782518260006101000a81548173ffffffffffffffffffffffffffffffffffffffff021916908373ffffffffffffffffffffffffffffffffffffffff16021790555091602001919060010190620001b6565b5b50905062000220919062000224565b5090565b5b808211156200023f57600081600090555060010162000225565b5090565b60006200025a62000254846200040a565b620003e1565b905080838252602082019050828560208602820111156200027a57600080fd5b60005b85811015620002ae5781620002938882620002fd565b8452602084019350602083019250506001810190506200027d565b5050509392505050565b6000620002cf620002c98462000439565b620003e1565b905082815260208101848484011115620002e857600080fd5b620002f5848285620004a3565b509392505050565b6000815190506200030e81620005b4565b92915050565b600082601f8301126200032657600080fd5b81516200033884826020860162000243565b91505092915050565b600082601f8301126200035357600080fd5b815162000365848260208601620002b8565b91505092915050565b600080604083850312156200038257600080fd5b600083015167ffffffffffffffff8111156200039d57600080fd5b620003ab8582860162000341565b925050602083015167ffffffffffffffff811115620003c957600080fd5b620003d78582860162000314565b9150509250929050565b6000620003ed62000400565b9050620003fb82826200050f565b919050565b6000604051905090565b600067ffffffffffffffff82111562000428576200042762000574565b5b602082029050602081019050919050565b600067ffffffffffffffff82111562000457576200045662000574565b5b6200046282620005a3565b9050602081019050919050565b60006200047c8262000483565b9050919050565b600073ffffffffffffffffffffffffffffffffffffffff82169050919050565b60005b83811015620004c3578082015181840152602081019050620004a6565b83811115620004d3576000848401525b50505050565b60006002820490506001821680620004f257607f821691505b6020821081141562000509576200050862000545565b5b50919050565b6200051a82620005a3565b810181811067ffffffffffffffff821117156200053c576200053b62000574565b5b80604052505050565b7f4e487b7100000000000000000000000000000000000000000000000000000000600052602260045260246000fd5b7f4e487b7100000000000000000000000000000000000000000000000000000000600052604160045260246000fd5b6000601f19601f8301169050919050565b620005bf816200046f565b8114620005cb57600080fd5b50565b610c3c80620005de6000396000f3fe608060405234801561001057600080fd5b50600436106100625760003560e01c8063200d2ed2146100675780638da5cb5b146100855780639375dd90146100a3578063af640d0f146100bf578063b588d225146100dd578063e5df8b841461010d575b600080fd5b61006f61013d565b60405161007c91906108b8565b60405180910390f35b61008d610150565b60405161009a9190610874565b60405180910390f35b6100bd60048036038101906100b891906106fb565b610176565b005b6100c761052e565b6040516100d491906108d3565b60405180910390f35b6100f760048036038101906100f291906106fb565b6105bc565b6040516101049190610935565b60405180910390f35b61012760048036038101906101229190610776565b610653565b6040516101349190610874565b60405180910390f35b600360009054906101000a900460ff1681565b600160009054906101000a900473ffffffffffffffffffffffffffffffffffffffff1681565b600160009054906101000a900473ffffffffffffffffffffffffffffffffffffffff1673ffffffffffffffffffffffffffffffffffffffff163373ffffffffffffffffffffffffffffffffffffffff1614610206576040517f08c379a00000000000000000000000000000000000000000000000000000000081526004016101fd90610915565b60405180910390fd5b60006001811115610240577f4e487b7100000000000000000000000000000000000000000000000000000000600052602160045260246000fd5b3073ffffffffffffffffffffffffffffffffffffffff1663200d2ed26040518163ffffffff1660e01b815260040160206040518083038186803b15801561028657600080fd5b505afa15801561029a573d6000803e3d6000fd5b505050506040513d601f19601f820116820180604052508101906102be919061074d565b60018111156102f6577f4e487b7100000000000000000000000000000000000000000000000000000000600052602160045260246000fd5b14610336576040517f08c379a000000000000000000000000000000000000000000000000000000000815260040161032d906108f5565b60405180910390fd5b60005b6002805490508110156104d957600060028281548110610382577f4e487b7100000000000000000000000000000000000000000000000000000000600052603260045260246000fd5b9060005260206000200160009054906101000a900473ffffffffffffffffffffffffffffffffffffffff1690508073ffffffffffffffffffffffffffffffffffffffff1663a9059cbb848373ffffffffffffffffffffffffffffffffffffffff166370a08231306040518263ffffffff1660e01b81526004016104059190610874565b60206040518083038186803b15801561041d57600080fd5b505afa158015610431573d6000803e3d6000fd5b505050506040513d601f19601f82011682018060405250810190610455919061079f565b6040518363ffffffff1660e01b815260040161047292919061088f565b602060405180830381600087803b15801561048c57600080fd5b505af11580156104a0573d6000803e3d6000fd5b505050506040513d601f19601f820116820180604052508101906104c49190610724565b505080806104d190610a3e565b915050610339565b506001600360006101000a81548160ff02191690836001811115610526577f4e487b7100000000000000000000000000000000000000000000000000000000600052602160045260246000fd5b021790555050565b6000805461053b90610a0c565b80601f016020809104026020016040519081016040528092919081815260200182805461056790610a0c565b80156105b45780601f10610589576101008083540402835291602001916105b4565b820191906000526020600020905b81548152906001019060200180831161059757829003601f168201915b505050505081565b6000808290508073ffffffffffffffffffffffffffffffffffffffff166370a08231306040518263ffffffff1660e01b81526004016105fb9190610874565b60206040518083038186803b15801561061357600080fd5b505afa158015610627573d6000803e3d6000fd5b505050506040513d601f19601f8201168201806040525081019061064b919061079f565b915050919050565b6002818154811061066357600080fd5b906000526020600020016000915054906101000a900473ffffffffffffffffffffffffffffffffffffffff1681565b6000813590506106a181610bb1565b92915050565b6000815190506106b681610bc8565b92915050565b6000815190506106cb81610bdf565b92915050565b6000813590506106e081610bef565b92915050565b6000815190506106f581610bef565b92915050565b60006020828403121561070d57600080fd5b600061071b84828501610692565b91505092915050565b60006020828403121561073657600080fd5b6000610744848285016106a7565b91505092915050565b60006020828403121561075f57600080fd5b600061076d848285016106bc565b91505092915050565b60006020828403121561078857600080fd5b6000610796848285016106d1565b91505092915050565b6000602082840312156107b157600080fd5b60006107bf848285016106e6565b91505092915050565b6107d18161096c565b82525050565b6107e0816109c7565b82525050565b60006107f182610950565b6107fb818561095b565b935061080b8185602086016109d9565b61081481610b14565b840191505092915050565b600061082c602f8361095b565b915061083782610b25565b604082019050919050565b600061084f601f8361095b565b915061085a82610b74565b602082019050919050565b61086e816109bd565b82525050565b600060208201905061088960008301846107c8565b92915050565b60006040820190506108a460008301856107c8565b6108b16020830184610865565b9392505050565b60006020820190506108cd60008301846107d7565b92915050565b600060208201905081810360008301526108ed81846107e6565b905092915050565b6000602082019050818103600083015261090e8161081f565b9050919050565b6000602082019050818103600083015261092e81610842565b9050919050565b600060208201905061094a6000830184610865565b92915050565b600081519050919050565b600082825260208201905092915050565b60006109778261099d565b9050919050565b60008115159050919050565b600081905061099882610b9d565b919050565b600073ffffffffffffffffffffffffffffffffffffffff82169050919050565b6000819050919050565b60006109d28261098a565b9050919050565b60005b838110156109f75780820151818401526020810190506109dc565b83811115610a06576000848401525b50505050565b60006002820490506001821680610a2457607f821691505b60208210811415610a3857610a37610ae5565b5b50919050565b6000610a49826109bd565b91507fffffffffffffffffffffffffffffffffffffffffffffffffffffffffffffffff821415610a7c57610a7b610a87565b5b600182019050919050565b7f4e487b7100000000000000000000000000000000000000000000000000000000600052601160045260246000fd5b7f4e487b7100000000000000000000000000000000000000000000000000000000600052602160045260246000fd5b7f4e487b7100000000000000000000000000000000000000000000000000000000600052602260045260246000fd5b6000601f19601f8301169050919050565b7f5468697320697320697373756520697320636c6f7365642e2043616e6e6f742060008201527f776974686472617720616761696e2e0000000000000000000000000000000000602082015250565b7f4f6e6c792063616c6c61626c65206279204f70656e5120636f6e747261637400600082015250565b60028110610bae57610bad610ab6565b5b50565b610bba8161096c565b8114610bc557600080fd5b50565b610bd18161097e565b8114610bdc57600080fd5b50565b60028110610bec57600080fd5b50565b610bf8816109bd565b8114610c0357600080fd5b5056fea2646970667358221220ee780906be9605f4233143e90028f76608fe5332356e2b31037390077bfeb49a64736f6c63430008040033a26469706673582212203ad0c84c59a586c4ff0733a0ea7257ebe0ac67c49f86f20928520c77a6b9351b64736f6c63430008040033",
  "linkReferences": {},
  "deployedLinkReferences": {}
}