{
  "_format": "hh-sol-artifact-1",
  "contractName": "BountyV1",
  "sourceName": "contracts/Bounty/Implementations/BountyV1.sol",
  "abi": [
    {
      "inputs": [],
      "stateMutability": "nonpayable",
      "type": "constructor"
    },
    {
      "anonymous": false,
      "inputs": [
        {
          "indexed": false,
          "internalType": "uint8",
          "name": "version",
          "type": "uint8"
        }
      ],
      "name": "Initialized",
      "type": "event"
    },
    {
      "inputs": [],
      "name": "bountyClosedTime",
      "outputs": [
        {
          "internalType": "uint256",
          "name": "",
          "type": "uint256"
        }
      ],
      "stateMutability": "view",
      "type": "function"
    },
    {
      "inputs": [],
      "name": "bountyCreatedTime",
      "outputs": [
        {
          "internalType": "uint256",
          "name": "",
          "type": "uint256"
        }
      ],
      "stateMutability": "view",
      "type": "function"
    },
    {
      "inputs": [],
      "name": "bountyId",
      "outputs": [
        {
          "internalType": "string",
          "name": "",
          "type": "string"
        }
      ],
      "stateMutability": "view",
      "type": "function"
    },
    {
      "inputs": [],
      "name": "bountyType",
      "outputs": [
        {
          "internalType": "uint256",
          "name": "",
          "type": "uint256"
        }
      ],
      "stateMutability": "view",
      "type": "function"
    },
    {
      "inputs": [
        {
          "internalType": "address",
          "name": "_payoutAddress",
          "type": "address"
        },
        {
          "internalType": "address",
          "name": "_tokenAddress",
          "type": "address"
        }
      ],
      "name": "claimBalance",
      "outputs": [
        {
          "internalType": "uint256",
          "name": "",
          "type": "uint256"
        }
      ],
      "stateMutability": "nonpayable",
      "type": "function"
    },
    {
      "inputs": [],
      "name": "claimManager",
      "outputs": [
        {
          "internalType": "address",
          "name": "",
          "type": "address"
        }
      ],
      "stateMutability": "view",
      "type": "function"
    },
    {
      "inputs": [
        {
          "internalType": "address",
          "name": "_payoutAddress",
          "type": "address"
        },
        {
          "internalType": "bytes32",
          "name": "_depositId",
          "type": "bytes32"
        }
      ],
      "name": "claimNft",
      "outputs": [],
      "stateMutability": "nonpayable",
      "type": "function"
    },
    {
      "inputs": [
        {
          "internalType": "address",
          "name": "_payoutAddress",
          "type": "address"
        },
        {
          "internalType": "bytes",
          "name": "_closerData",
          "type": "bytes"
        }
      ],
      "name": "claimOngoingPayout",
      "outputs": [
        {
          "internalType": "address",
          "name": "",
          "type": "address"
        },
        {
          "internalType": "uint256",
          "name": "",
          "type": "uint256"
        }
      ],
      "stateMutability": "nonpayable",
      "type": "function"
    },
    {
      "inputs": [
        {
          "internalType": "address",
          "name": "_payoutAddress",
          "type": "address"
        },
        {
          "internalType": "uint256",
          "name": "_tier",
          "type": "uint256"
        },
        {
          "internalType": "address",
          "name": "_tokenAddress",
          "type": "address"
        }
      ],
      "name": "claimTiered",
      "outputs": [
        {
          "internalType": "uint256",
          "name": "",
          "type": "uint256"
        }
      ],
      "stateMutability": "nonpayable",
      "type": "function"
    },
    {
      "inputs": [
        {
          "internalType": "address",
          "name": "_payoutAddress",
          "type": "address"
        },
        {
          "internalType": "uint256",
          "name": "_tier",
          "type": "uint256"
        }
      ],
      "name": "claimTieredFixed",
      "outputs": [
        {
          "internalType": "uint256",
          "name": "",
          "type": "uint256"
        }
      ],
      "stateMutability": "nonpayable",
      "type": "function"
    },
    {
      "inputs": [
        {
          "internalType": "bytes32",
          "name": "",
          "type": "bytes32"
        }
      ],
      "name": "claimantId",
      "outputs": [
        {
          "internalType": "bool",
          "name": "",
          "type": "bool"
        }
      ],
      "stateMutability": "view",
      "type": "function"
    },
    {
      "inputs": [
        {
          "internalType": "address",
          "name": "_payoutAddress",
          "type": "address"
        },
        {
          "internalType": "bytes",
          "name": "_closerData",
          "type": "bytes"
        }
      ],
      "name": "close",
      "outputs": [],
      "stateMutability": "nonpayable",
      "type": "function"
    },
    {
      "inputs": [],
      "name": "closeCompetition",
      "outputs": [],
      "stateMutability": "nonpayable",
      "type": "function"
    },
    {
      "inputs": [
        {
          "internalType": "address",
          "name": "_closer",
          "type": "address"
        }
      ],
      "name": "closeOngoing",
      "outputs": [],
      "stateMutability": "nonpayable",
      "type": "function"
    },
    {
      "inputs": [],
      "name": "closer",
      "outputs": [
        {
          "internalType": "address",
          "name": "",
          "type": "address"
        }
      ],
      "stateMutability": "view",
      "type": "function"
    },
    {
      "inputs": [],
      "name": "closerData",
      "outputs": [
        {
          "internalType": "bytes",
          "name": "",
          "type": "bytes"
        }
      ],
      "stateMutability": "view",
      "type": "function"
    },
    {
      "inputs": [],
      "name": "depositManager",
      "outputs": [
        {
          "internalType": "address",
          "name": "",
          "type": "address"
        }
      ],
      "stateMutability": "view",
      "type": "function"
    },
    {
      "inputs": [
        {
          "internalType": "bytes32",
          "name": "",
          "type": "bytes32"
        }
      ],
      "name": "depositTime",
      "outputs": [
        {
          "internalType": "uint256",
          "name": "",
          "type": "uint256"
        }
      ],
      "stateMutability": "view",
      "type": "function"
    },
    {
      "inputs": [
        {
          "internalType": "uint256",
          "name": "",
          "type": "uint256"
        }
      ],
      "name": "deposits",
      "outputs": [
        {
          "internalType": "bytes32",
          "name": "",
          "type": "bytes32"
        }
      ],
      "stateMutability": "view",
      "type": "function"
    },
    {
      "inputs": [
        {
          "internalType": "bytes32",
          "name": "",
          "type": "bytes32"
        }
      ],
      "name": "expiration",
      "outputs": [
        {
          "internalType": "uint256",
          "name": "",
          "type": "uint256"
        }
      ],
      "stateMutability": "view",
      "type": "function"
    },
    {
      "inputs": [
        {
          "internalType": "bytes32",
          "name": "_depositId",
          "type": "bytes32"
        },
        {
          "internalType": "uint256",
          "name": "_seconds",
          "type": "uint256"
        },
        {
          "internalType": "address",
          "name": "_funder",
          "type": "address"
        }
      ],
      "name": "extendDeposit",
      "outputs": [
        {
          "internalType": "uint256",
          "name": "",
          "type": "uint256"
        }
      ],
      "stateMutability": "nonpayable",
      "type": "function"
    },
    {
      "inputs": [
        {
          "internalType": "bytes32",
          "name": "",
          "type": "bytes32"
        }
      ],
      "name": "funder",
      "outputs": [
        {
          "internalType": "address",
          "name": "",
          "type": "address"
        }
      ],
      "stateMutability": "view",
      "type": "function"
    },
    {
      "inputs": [],
      "name": "fundingGoal",
      "outputs": [
        {
          "internalType": "uint256",
          "name": "",
          "type": "uint256"
        }
      ],
      "stateMutability": "view",
      "type": "function"
    },
    {
      "inputs": [],
      "name": "fundingToken",
      "outputs": [
        {
          "internalType": "address",
          "name": "",
          "type": "address"
        }
      ],
      "stateMutability": "view",
      "type": "function"
    },
    {
      "inputs": [
        {
          "internalType": "address",
          "name": "",
          "type": "address"
        }
      ],
      "name": "fundingTotals",
      "outputs": [
        {
          "internalType": "uint256",
          "name": "",
          "type": "uint256"
        }
      ],
      "stateMutability": "view",
      "type": "function"
    },
    {
      "inputs": [],
      "name": "getDeposits",
      "outputs": [
        {
          "internalType": "bytes32[]",
          "name": "",
          "type": "bytes32[]"
        }
      ],
      "stateMutability": "view",
      "type": "function"
    },
    {
      "inputs": [
        {
          "internalType": "address",
          "name": "_tokenAddress",
          "type": "address"
        }
      ],
      "name": "getERC20Balance",
      "outputs": [
        {
          "internalType": "uint256",
          "name": "balance",
          "type": "uint256"
        }
      ],
      "stateMutability": "view",
      "type": "function"
    },
    {
      "inputs": [
        {
          "internalType": "address",
          "name": "_bountyAddress",
          "type": "address"
        },
        {
          "internalType": "address",
          "name": "_depositId",
          "type": "address"
        }
      ],
      "name": "getLockedFunds",
      "outputs": [
        {
          "internalType": "uint256",
          "name": "",
          "type": "uint256"
        }
      ],
      "stateMutability": "view",
      "type": "function"
    },
    {
      "inputs": [],
      "name": "getNftDeposits",
      "outputs": [
        {
          "internalType": "bytes32[]",
          "name": "",
          "type": "bytes32[]"
        }
      ],
      "stateMutability": "view",
      "type": "function"
    },
    {
      "inputs": [],
      "name": "getPayoutSchedule",
      "outputs": [
        {
          "internalType": "uint256[]",
          "name": "",
          "type": "uint256[]"
        }
      ],
      "stateMutability": "view",
      "type": "function"
    },
    {
      "inputs": [],
      "name": "getTokenAddresses",
      "outputs": [
        {
          "internalType": "address[]",
          "name": "",
          "type": "address[]"
        }
      ],
      "stateMutability": "view",
      "type": "function"
    },
    {
      "inputs": [],
      "name": "getTokenAddressesCount",
      "outputs": [
        {
          "internalType": "uint256",
          "name": "",
          "type": "uint256"
        }
      ],
      "stateMutability": "view",
      "type": "function"
    },
    {
      "inputs": [
        {
          "internalType": "address",
          "name": "_tokenAddress",
          "type": "address"
        }
      ],
      "name": "getTokenBalance",
      "outputs": [
        {
          "internalType": "uint256",
          "name": "",
          "type": "uint256"
        }
      ],
      "stateMutability": "view",
      "type": "function"
    },
    {
      "inputs": [],
      "name": "hasFundingGoal",
      "outputs": [
        {
          "internalType": "bool",
          "name": "",
          "type": "bool"
        }
      ],
      "stateMutability": "view",
      "type": "function"
    },
    {
      "inputs": [
        {
          "internalType": "string",
          "name": "_bountyId",
          "type": "string"
        },
        {
          "internalType": "address",
          "name": "_issuer",
          "type": "address"
        },
        {
          "internalType": "string",
          "name": "_organization",
          "type": "string"
        },
        {
          "internalType": "address",
          "name": "_openQ",
          "type": "address"
        },
        {
          "internalType": "address",
          "name": "_claimManager",
          "type": "address"
        },
        {
          "internalType": "address",
          "name": "_depositManager",
          "type": "address"
        },
        {
          "components": [
            {
              "internalType": "uint32",
              "name": "operationType",
              "type": "uint32"
            },
            {
              "internalType": "bytes",
              "name": "data",
              "type": "bytes"
            }
          ],
          "internalType": "struct OpenQDefinitions.InitOperation",
          "name": "operation",
          "type": "tuple"
        }
      ],
      "name": "initialize",
      "outputs": [],
      "stateMutability": "nonpayable",
      "type": "function"
    },
    {
      "inputs": [
        {
          "internalType": "bytes32",
          "name": "",
          "type": "bytes32"
        }
      ],
      "name": "isNFT",
      "outputs": [
        {
          "internalType": "bool",
          "name": "",
          "type": "bool"
        }
      ],
      "stateMutability": "view",
      "type": "function"
    },
    {
      "inputs": [],
      "name": "issuer",
      "outputs": [
        {
          "internalType": "address",
          "name": "",
          "type": "address"
        }
      ],
      "stateMutability": "view",
      "type": "function"
    },
    {
      "inputs": [],
      "name": "nftDepositLimit",
      "outputs": [
        {
          "internalType": "uint256",
          "name": "",
          "type": "uint256"
        }
      ],
      "stateMutability": "view",
      "type": "function"
    },
    {
      "inputs": [
        {
          "internalType": "uint256",
          "name": "",
          "type": "uint256"
        }
      ],
      "name": "nftDeposits",
      "outputs": [
        {
          "internalType": "bytes32",
          "name": "",
          "type": "bytes32"
        }
      ],
      "stateMutability": "view",
      "type": "function"
    },
    {
      "inputs": [
        {
          "internalType": "address",
          "name": "",
          "type": "address"
        },
        {
          "internalType": "address",
          "name": "",
          "type": "address"
        },
        {
          "internalType": "uint256",
          "name": "",
          "type": "uint256"
        },
        {
          "internalType": "bytes",
          "name": "",
          "type": "bytes"
        }
      ],
      "name": "onERC721Received",
      "outputs": [
        {
          "internalType": "bytes4",
          "name": "",
          "type": "bytes4"
        }
      ],
      "stateMutability": "nonpayable",
      "type": "function"
    },
    {
      "inputs": [],
      "name": "openQ",
      "outputs": [
        {
          "internalType": "address",
          "name": "",
          "type": "address"
        }
      ],
      "stateMutability": "view",
      "type": "function"
    },
    {
      "inputs": [],
      "name": "organization",
      "outputs": [
        {
          "internalType": "string",
          "name": "",
          "type": "string"
        }
      ],
      "stateMutability": "view",
      "type": "function"
    },
    {
      "inputs": [
        {
          "internalType": "bytes32",
          "name": "",
          "type": "bytes32"
        }
      ],
      "name": "payoutAddress",
      "outputs": [
        {
          "internalType": "address",
          "name": "",
          "type": "address"
        }
      ],
      "stateMutability": "view",
      "type": "function"
    },
    {
      "inputs": [
        {
          "internalType": "uint256",
          "name": "",
          "type": "uint256"
        }
      ],
      "name": "payoutSchedule",
      "outputs": [
        {
          "internalType": "uint256",
          "name": "",
          "type": "uint256"
        }
      ],
      "stateMutability": "view",
      "type": "function"
    },
    {
      "inputs": [],
      "name": "payoutTokenAddress",
      "outputs": [
        {
          "internalType": "address",
          "name": "",
          "type": "address"
        }
      ],
      "stateMutability": "view",
      "type": "function"
    },
    {
      "inputs": [],
      "name": "payoutVolume",
      "outputs": [
        {
          "internalType": "uint256",
          "name": "",
          "type": "uint256"
        }
      ],
      "stateMutability": "view",
      "type": "function"
    },
    {
      "inputs": [
        {
          "internalType": "address",
          "name": "_funder",
          "type": "address"
        },
        {
          "internalType": "address",
          "name": "_tokenAddress",
          "type": "address"
        },
        {
          "internalType": "uint256",
          "name": "_volume",
          "type": "uint256"
        },
        {
          "internalType": "uint256",
          "name": "_expiration",
          "type": "uint256"
        }
      ],
      "name": "receiveFunds",
      "outputs": [
        {
          "internalType": "bytes32",
          "name": "",
          "type": "bytes32"
        },
        {
          "internalType": "uint256",
          "name": "",
          "type": "uint256"
        }
      ],
      "stateMutability": "payable",
      "type": "function"
    },
    {
      "inputs": [
        {
          "internalType": "address",
          "name": "_sender",
          "type": "address"
        },
        {
          "internalType": "address",
          "name": "_tokenAddress",
          "type": "address"
        },
        {
          "internalType": "uint256",
          "name": "_tokenId",
          "type": "uint256"
        },
        {
          "internalType": "uint256",
          "name": "_expiration",
          "type": "uint256"
        },
        {
          "internalType": "uint256",
          "name": "_tier",
          "type": "uint256"
        }
      ],
      "name": "receiveNft",
      "outputs": [
        {
          "internalType": "bytes32",
          "name": "",
          "type": "bytes32"
        }
      ],
      "stateMutability": "nonpayable",
      "type": "function"
    },
    {
      "inputs": [
        {
          "internalType": "bytes32",
          "name": "_depositId",
          "type": "bytes32"
        },
        {
          "internalType": "address",
          "name": "_funder",
          "type": "address"
        },
        {
          "internalType": "uint256",
          "name": "_volume",
          "type": "uint256"
        }
      ],
      "name": "refundDeposit",
      "outputs": [],
      "stateMutability": "nonpayable",
      "type": "function"
    },
    {
      "inputs": [
        {
          "internalType": "bytes32",
          "name": "",
          "type": "bytes32"
        }
      ],
      "name": "refunded",
      "outputs": [
        {
          "internalType": "bool",
          "name": "",
          "type": "bool"
        }
      ],
      "stateMutability": "view",
      "type": "function"
    },
    {
      "inputs": [
        {
          "internalType": "address",
          "name": "_fundingToken",
          "type": "address"
        },
        {
          "internalType": "uint256",
          "name": "_fundingGoal",
          "type": "uint256"
        }
      ],
      "name": "setFundingGoal",
      "outputs": [],
      "stateMutability": "nonpayable",
      "type": "function"
    },
    {
      "inputs": [
        {
          "internalType": "address",
          "name": "_payoutTokenAddress",
          "type": "address"
        },
        {
          "internalType": "uint256",
          "name": "_payoutVolume",
          "type": "uint256"
        }
      ],
      "name": "setPayout",
      "outputs": [],
      "stateMutability": "nonpayable",
      "type": "function"
    },
    {
      "inputs": [
        {
          "internalType": "uint256[]",
          "name": "_payoutSchedule",
          "type": "uint256[]"
        }
      ],
      "name": "setPayoutSchedule",
      "outputs": [],
      "stateMutability": "nonpayable",
      "type": "function"
    },
    {
      "inputs": [
        {
          "internalType": "uint256[]",
          "name": "_payoutSchedule",
          "type": "uint256[]"
        },
        {
          "internalType": "address",
          "name": "_payoutTokenAddress",
          "type": "address"
        }
      ],
      "name": "setPayoutScheduleFixed",
      "outputs": [],
      "stateMutability": "nonpayable",
      "type": "function"
    },
    {
      "inputs": [
        {
          "internalType": "uint256",
          "name": "_tier",
          "type": "uint256"
        }
      ],
      "name": "setTierClaimed",
      "outputs": [],
      "stateMutability": "nonpayable",
      "type": "function"
    },
    {
      "inputs": [],
      "name": "status",
      "outputs": [
        {
          "internalType": "uint256",
          "name": "",
          "type": "uint256"
        }
      ],
      "stateMutability": "view",
      "type": "function"
    },
    {
      "inputs": [
        {
          "internalType": "bytes32",
          "name": "",
          "type": "bytes32"
        }
      ],
      "name": "tier",
      "outputs": [
        {
          "internalType": "uint256",
          "name": "",
          "type": "uint256"
        }
      ],
      "stateMutability": "view",
      "type": "function"
    },
    {
      "inputs": [
        {
          "internalType": "uint256",
          "name": "",
          "type": "uint256"
        }
      ],
      "name": "tierClaimed",
      "outputs": [
        {
          "internalType": "bool",
          "name": "",
          "type": "bool"
        }
      ],
      "stateMutability": "view",
      "type": "function"
    },
    {
      "inputs": [
        {
          "internalType": "bytes32",
          "name": "",
          "type": "bytes32"
        }
      ],
      "name": "tokenAddress",
      "outputs": [
        {
          "internalType": "address",
          "name": "",
          "type": "address"
        }
      ],
      "stateMutability": "view",
      "type": "function"
    },
    {
      "inputs": [
        {
          "internalType": "bytes32",
          "name": "",
          "type": "bytes32"
        }
      ],
      "name": "tokenId",
      "outputs": [
        {
          "internalType": "uint256",
          "name": "",
          "type": "uint256"
        }
      ],
      "stateMutability": "view",
      "type": "function"
    },
    {
      "inputs": [
        {
          "internalType": "bytes32",
          "name": "",
          "type": "bytes32"
        }
      ],
      "name": "volume",
      "outputs": [
        {
          "internalType": "uint256",
          "name": "",
          "type": "uint256"
        }
      ],
      "stateMutability": "view",
      "type": "function"
    },
    {
      "stateMutability": "payable",
      "type": "receive"
    }
  ],
  "bytecode": "0x608060405234801561001057600080fd5b5061421d806100206000396000f3fe6080604052600436106103a65760003560e01c80637cb8e8e4116101e7578063c5b6e7051161010d578063e83963eb116100a0578063ee8c24b81161006f578063ee8c24b814610c19578063f05e0f7e14610c3b578063f232172514610c6b578063fe0329c914610c9857600080fd5b8063e83963eb14610b9f578063eb58c0fd14610bbf578063ec9c2c3614610bdf578063ee1e43e014610bff57600080fd5b8063d6fe0f44116100dc578063d6fe0f4414610b0a578063dbe6cf6a14610b32578063e452d08b14610b52578063e5f6094714610b7257600080fd5b8063c5b6e70514610a9f578063cb2da3db14610ab4578063cb4436b714610ad4578063ceff310714610aea57600080fd5b8063a9a36dcd11610185578063b3f23b7311610154578063b3f23b7314610a1e578063b588d22514610a34578063b99bb99014610a54578063c17bd75e14610a8a57600080fd5b8063a9a36dcd146109aa578063b02c43d0146109c8578063b3b41cea146109e8578063b3ca1f3b14610a0857600080fd5b806397bb3ce9116101c157806397bb3ce9146108ef578063995280b0146109255780639dcb7b8e1461093b578063a09dd1aa1461096b57600080fd5b80637cb8e8e4146108845780637dc81fa2146108a4578063968b098f146108c257600080fd5b80632a120b33116102cc5780636b149d871161026a57806377ede8a61161023957806377ede8a61461081457806378065f27146108295780637a196d0e1461084e5780637a3a0e841461086e57600080fd5b80636b149d87146107a15780636c7ac9d8146107b65780637044f282146107d457806371ec4ebf146107f457600080fd5b806356406fa5116102a657806356406fa5146106ee57806359ba83441461071b5780635cc04838146107515780636420fd931461077157600080fd5b80632a120b331461068c5780633aecd0e3146106ae5780633f40f636146106ce57600080fd5b80631bc5fc96116103445780632338d377116103135780632338d377146105f7578063235b2b941461061757806323bd4d7a1461065757806324f0cae51461066c57600080fd5b80631bc5fc96146105745780631d14384814610594578063200d2ed2146105cc57806322fa365e146105e257600080fd5b8063150b7a0211610380578063150b7a02146104b45780631595eea4146104f8578063160a30a314610525578063184f1f381461055257600080fd5b8063040e05fe146104495780630961413d1461047c5780630dd818871461049257600080fd5b366104445760405162461bcd60e51b815260206004820152605d60248201527f43616e6e6f742073656e64204574686572206469726563746c7920746f20626f60448201527f75746e7920636f6e74726163742e20506c65617365207573652074686520426f60648201527f756e747956312e7265636569766546756e64732829206d6574686f642e000000608482015260a4015b60405180910390fd5b600080fd5b34801561045557600080fd5b50610469610464366004613305565b610cb8565b6040519081526020015b60405180910390f35b34801561048857600080fd5b5061046960a15481565b34801561049e57600080fd5b506104a7610e0b565b6040516104739190613381565b3480156104c057600080fd5b506104df6104cf366004613449565b630a85bd0160e11b949350505050565b6040516001600160e01b03199091168152602001610473565b34801561050457600080fd5b506104696105133660046134b4565b60a46020526000908152604090205481565b34801561053157600080fd5b506104696105403660046134b4565b60ab6020526000908152604090205481565b34801561055e57600080fd5b5061057261056d366004613518565b610e99565b005b34801561058057600080fd5b5061046961058f3660046134b4565b610f58565b3480156105a057600080fd5b50609d546105b4906001600160a01b031681565b6040516001600160a01b039091168152602001610473565b3480156105d857600080fd5b5061046960a05481565b3480156105ee57600080fd5b50610572610f79565b34801561060357600080fd5b5061057261061236600461356e565b61106d565b34801561062357600080fd5b506106476106323660046134b4565b60aa6020526000908152604090205460ff1681565b6040519015158152602001610473565b34801561066357600080fd5b506104a761116d565b34801561067857600080fd5b506104696106873660046135f2565b61117a565b34801561069857600080fd5b506106a1611382565b6040516104739190613643565b3480156106ba57600080fd5b506104696106c9366004613687565b6113da565b3480156106da57600080fd5b506105726106e9366004613726565b611405565b3480156106fa57600080fd5b506104696107093660046134b4565b60a96020526000908152604090205481565b34801561072757600080fd5b506105b46107363660046134b4565b60a2602052600090815260409020546001600160a01b031681565b34801561075d57600080fd5b5060b2546105b4906001600160a01b031681565b34801561077d57600080fd5b5061064761078c3660046134b4565b60b46020526000908152604090205460ff1681565b3480156107ad57600080fd5b506106a1611628565b3480156107c257600080fd5b506099546001600160a01b03166105b4565b3480156107e057600080fd5b50609f546105b4906001600160a01b031681565b34801561080057600080fd5b5061057261080f366004613305565b61167e565b34801561082057600080fd5b506106a1611707565b34801561083557600080fd5b5060b8546105b49061010090046001600160a01b031681565b34801561085a57600080fd5b50610572610869366004613305565b61175d565b34801561087a57600080fd5b5061046960b95481565b34801561089057600080fd5b5061057261089f3660046137f9565b6117b6565b3480156108b057600080fd5b506097546001600160a01b03166105b4565b3480156108ce57600080fd5b506104696108dd3660046134b4565b60a56020526000908152604090205481565b3480156108fb57600080fd5b506105b461090a3660046134b4565b60a3602052600090815260409020546001600160a01b031681565b34801561093157600080fd5b50610469609b5481565b34801561094757600080fd5b506106476109563660046134b4565b60b76020526000908152604090205460ff1681565b34801561097757600080fd5b5061098b61098636600461356e565b6118e1565b604080516001600160a01b039093168352602083019190915201610473565b3480156109b657600080fd5b506098546001600160a01b03166105b4565b3480156109d457600080fd5b506104696109e33660046134b4565b6119b3565b3480156109f457600080fd5b50610469610a0336600461383a565b6119c3565b348015610a1457600080fd5b5061046960b15481565b348015610a2a57600080fd5b5061046960b35481565b348015610a4057600080fd5b50610469610a4f366004613687565b611b30565b348015610a6057600080fd5b506105b4610a6f3660046134b4565b60a7602052600090815260409020546001600160a01b031681565b348015610a9657600080fd5b506104a7611ba4565b348015610aab57600080fd5b50610469611bb1565b348015610ac057600080fd5b50610469610acf366004613871565b611bc3565b348015610ae057600080fd5b50610469609c5481565b348015610af657600080fd5b50610572610b05366004613305565b611c2f565b610b1d610b183660046138aa565b611c96565b60408051928352602083019190915201610473565b348015610b3e57600080fd5b50610469610b4d366004613871565b611ec7565b348015610b5e57600080fd5b50610469610b6d3660046134b4565b6121bb565b348015610b7e57600080fd5b50610469610b8d366004613687565b60b66020526000908152604090205481565b348015610bab57600080fd5b50610469610bba3660046138f0565b6121cb565b348015610bcb57600080fd5b50610572610bda36600461391e565b6123de565b348015610beb57600080fd5b50610572610bfa366004613687565b61265a565b348015610c0b57600080fd5b5060b8546106479060ff1681565b348015610c2557600080fd5b50610c2e612742565b6040516104739190613956565b348015610c4757600080fd5b50610647610c563660046134b4565b60a66020526000908152604090205460ff1681565b348015610c7757600080fd5b50610469610c863660046134b4565b60a86020526000908152604090205481565b348015610ca457600080fd5b50610572610cb33660046134b4565b612753565b6098546000906001600160a01b03163314610ce55760405162461bcd60e51b815260040161043b90613997565b600260015403610d075760405162461bcd60e51b815260040161043b906139ff565b600260015560b15460408051808201909152601981527f4e4f545f415f5449455245445f46495845445f424f554e545900000000000000602082015290600314610d645760405162461bcd60e51b815260040161043b9190613381565b50600082815260b7602090815260409182902054825180840190935260148352731512515497d053149150511657d0d3105253515160621b9183019190915260ff1615610dc45760405162461bcd60e51b815260040161043b9190613381565b50600060b58381548110610dda57610dda613a36565b60009182526020909120015460b254909150610e00906001600160a01b03168286612798565b600180559392505050565b60b08054610e1890613a4c565b80601f0160208091040260200160405190810160405280929190818152602001828054610e4490613a4c565b8015610e915780601f10610e6657610100808354040283529160200191610e91565b820191906000526020600020905b815481529060010190602001808311610e7457829003601f168201915b505050505081565b6097546001600160a01b0316336001600160a01b031614610ecc5760405162461bcd60e51b815260040161043b90613a86565b60b1546003146040518060400160405280601981526020017f4e4f545f415f46495845445f5449455245445f424f554e54590000000000000081525090610f265760405162461bcd60e51b815260040161043b9190613381565b50610f3360b5848461324a565b5060b280546001600160a01b0319166001600160a01b03929092169190911790555050565b60ad8181548110610f6857600080fd5b600091825260209091200154905081565b6098546001600160a01b03163314610fa35760405162461bcd60e51b815260040161043b90613997565b60a05460408051808201909152601781527610d3d395149050d517d053149150511657d0d313d4d151604a1b60208201529015610ff35760405162461bcd60e51b815260040161043b9190613381565b50600160a05542609c5560005b611008612742565b5181101561106a57600061101a612742565b828151811061102b5761102b613a36565b6020026020010151905061103e816113da565b6001600160a01b03909116600090815260b660205260409020558061106281613ad1565b915050611000565b50565b6098546001600160a01b031633146110975760405162461bcd60e51b815260040161043b90613997565b60a05460408051808201909152601781527610d3d395149050d517d053149150511657d0d313d4d151604a1b602082015290156110e75760405162461bcd60e51b815260040161043b9190613381565b5060408051808201909152600f81526e4e4f5f5a45524f5f4144445245535360881b60208201526001600160a01b0384166111355760405162461bcd60e51b815260040161043b9190613381565b50600160a055609f80546001600160a01b0319166001600160a01b03851617905542609c5560b0611167828483613b30565b50505050565b609e8054610e1890613a4c565b6099546000906001600160a01b031633146111a75760405162461bcd60e51b815260040161043b90613bef565b6002600154036111c95760405162461bcd60e51b815260040161043b906139ff565b600260015560a15460ad5460408051808201909152601981527f4e46545f4445504f5349545f4c494d49545f5245414348454400000000000000602082015291116112275760405162461bcd60e51b815260040161043b9190613381565b50600083116040518060400160405280602081526020017f45585049524154494f4e5f4e4f545f475245415445525f5448414e5f5a45524f815250906112805760405162461bcd60e51b815260040161043b9190613381565b5061128c8587866127c0565b6000611296612828565b600081815260a26020908152604080832080546001600160a01b039c8d166001600160a01b03199182161790915560a3835281842080549b909c169a169990991790995560a5895287812042905560a889528781209690965560a9885286862094909455505060aa8552838320805460ff1916600190811790915560ab9095529282209290925560ac80548085019091557f0a0a1bcadd9f6a5539376fa82276e043ae3cb4499daaaf8136572ecb1f9f0d600182905560ad8054808501825591527f0440fd76b4e685d17019b0eef836cea9994650028b99dddfb48be06fa4240aa60181905590805590565b606060b58054806020026020016040519081016040528092919081815260200182805480156113d057602002820191906000526020600020905b8154815260200190600101908083116113bc575b5050505050905090565b60006001600160a01b0382166113f1575047919050565b6113fa82611b30565b92915050565b919050565b600054610100900460ff16158080156114255750600054600160ff909116105b8061143f5750303b15801561143f575060005460ff166001145b6114a25760405162461bcd60e51b815260206004820152602e60248201527f496e697469616c697a61626c653a20636f6e747261637420697320616c72656160448201526d191e481a5b9a5d1a585b1a5e995960921b606482015260840161043b565b6000805460ff1916600117905580156114c5576000805461ff0019166101001790555b87516040805180820190915260128152711393d7d15354151657d093d553951657d25160721b60208201529061150e5760405162461bcd60e51b815260040161043b9190613381565b5085516040805180820190915260158152742727afa2a6a82a2cafa7a923a0a724ad20aa24a7a760591b60208201529061155b5760405162461bcd60e51b815260040161043b9190613381565b5061156461285c565b609780546001600160a01b0319166001600160a01b0387161790556115888461288d565b611591836128d6565b609a61159d8982613c5b565b50609d80546001600160a01b0319166001600160a01b038916179055609e6115c58782613c5b565b5042609b55600560a1556115d88261291f565b801561161e576000805461ff0019169055604051600181527f7f26b83ff96e1f2b6a682f133852f6798a09c465da95921460cefb38474024989060200160405180910390a15b5050505050505050565b606060ac8054806020026020016040519081016040528092919081815260200182805480156113d057602002820191906000526020600020908154815260200190600101908083116113bc575050505050905090565b6098546001600160a01b031633146116a85760405162461bcd60e51b815260040161043b90613997565b6002600154036116ca5760405162461bcd60e51b815260040161043b906139ff565b6002600155600081815260a3602090815260408083205460a8909252909120546116ff916001600160a01b0316908490612aee565b505060018055565b606060ad8054806020026020016040519081016040528092919081815260200182805480156113d057602002820191906000526020600020908154815260200190600101908083116113bc575050505050905090565b6097546001600160a01b0316336001600160a01b0316146117905760405162461bcd60e51b815260040161043b90613a86565b60b280546001600160a01b0319166001600160a01b03939093169290921790915560b355565b6097546001600160a01b0316336001600160a01b0316146117e95760405162461bcd60e51b815260040161043b90613a86565b60b154600214604051806040016040528060138152602001724e4f545f415f5449455245445f424f554e545960681b815250906118395760405162461bcd60e51b815260040161043b9190613381565b506000805b8281101561187e5783838281811061185857611858613a36565b905060200201358261186a9190613d1a565b91508061187681613ad1565b91505061183e565b5060408051808201909152601f81527f5041594f55545f5343484544554c455f4d5553545f4144445f544f5f313030006020820152606482146118d45760405162461bcd60e51b815260040161043b9190613381565b5061116760b5848461324a565b60985460009081906001600160a01b031633146119105760405162461bcd60e51b815260040161043b90613997565b6002600154036119325760405162461bcd60e51b815260040161043b906139ff565b600260015560008061194685870187613d2d565b93505092505060006119588383612b2c565b600081815260b460205260409020805460ff1916600117905560b25460b354919250611990916001600160a01b03909116908a612798565b505060b25460b354600180556001600160a01b0390911697909650945050505050565b60ac8181548110610f6857600080fd5b6098546000906001600160a01b031633146119f05760405162461bcd60e51b815260040161043b90613997565b600260015403611a125760405162461bcd60e51b815260040161043b906139ff565b6002600181905560b1546040805180820190915260138152724e4f545f415f5449455245445f424f554e545960681b60208201529114611a655760405162461bcd60e51b815260040161043b9190613381565b50600083815260b7602090815260409182902054825180840190935260148352731512515497d053149150511657d0d3105253515160621b9183019190915260ff1615611ac55760405162461bcd60e51b815260040161043b9190613381565b506001600160a01b038216600090815260b6602052604081205460b58054606492919087908110611af857611af8613a36565b9060005260206000200154611b0d9190613dab565b611b179190613dca565b9050611b24838287612798565b60018055949350505050565b6040516370a0823160e01b815230600482015260009082906001600160a01b038216906370a0823190602401602060405180830381865afa158015611b79573d6000803e3d6000fd5b505050506040513d601f19601f82011682018060405250810190611b9d9190613dec565b9392505050565b609a8054610e1890613a4c565b6000611bbd60ae612b5f565b51905090565b6098546000906001600160a01b03163314611bf05760405162461bcd60e51b815260040161043b90613997565b600260015403611c125760405162461bcd60e51b815260040161043b906139ff565b60026001556000611c22836113da565b9050610e00838286612798565b6097546001600160a01b0316336001600160a01b031614611c625760405162461bcd60e51b815260040161043b90613a86565b60b95560b8805460ff196001600160a01b0390931661010002929092166001600160a81b0319909216919091176001179055565b60995460009081906001600160a01b03163314611cc55760405162461bcd60e51b815260040161043b90613bef565b600260015403611ce75760405162461bcd60e51b815260040161043b906139ff565b600260015560408051808201909152601081526f16915493d7d593d315535157d4d1539560821b602082015284611d315760405162461bcd60e51b815260040161043b9190613381565b50600083116040518060400160405280602081526020017f45585049524154494f4e5f4e4f545f475245415445525f5448414e5f5a45524f81525090611d8a5760405162461bcd60e51b815260040161043b9190613381565b5060a05460408051808201909152601281527110d3d395149050d517d254d7d0d313d4d15160721b60208201529015611dd65760405162461bcd60e51b815260040161043b9190613381565b506000611de1612828565b905060006001600160a01b038716611dfa575034611e08565b611e05878988612b6c565b90505b600082815260a26020908152604080832080546001600160a01b03808e166001600160a01b03199283161790925560a384528285208054928d169290911691909117905560a4825280832084905560a5825280832042905560a9825280832088905560aa9091528120805460ff1916905560ac805460018101825591527f0a0a1bcadd9f6a5539376fa82276e043ae3cb4499daaaf8136572ecb1f9f0d6001829055611eb560ae88612c0b565b50600180559097909650945050505050565b600080839050600080826001600160a01b0316636b149d876040518163ffffffff1660e01b8152600401600060405180830381865afa158015611f0e573d6000803e3d6000fd5b505050506040513d6000823e601f3d908101601f19168201604052611f369190810190613e28565b905060005b81518110156121b057836001600160a01b03166356406fa5838381518110611f6557611f65613a36565b60200260200101516040518263ffffffff1660e01b8152600401611f8b91815260200190565b602060405180830381865afa158015611fa8573d6000803e3d6000fd5b505050506040513d601f19601f82011682018060405250810190611fcc9190613dec565b846001600160a01b031663968b098f848481518110611fed57611fed613a36565b60200260200101516040518263ffffffff1660e01b815260040161201391815260200190565b602060405180830381865afa158015612030573d6000803e3d6000fd5b505050506040513d601f19601f820116820180604052508101906120549190613dec565b61205e9190613d1a565b421080156121045750856001600160a01b0316846001600160a01b03166397bb3ce984848151811061209257612092613a36565b60200260200101516040518263ffffffff1660e01b81526004016120b891815260200190565b602060405180830381865afa1580156120d5573d6000803e3d6000fd5b505050506040513d601f19601f820116820180604052508101906120f99190613eb2565b6001600160a01b0316145b1561219e57836001600160a01b0316631595eea483838151811061212a5761212a613a36565b60200260200101516040518263ffffffff1660e01b815260040161215091815260200190565b602060405180830381865afa15801561216d573d6000803e3d6000fd5b505050506040513d601f19601f820116820180604052508101906121919190613dec565b61219b9084613d1a565b92505b806121a881613ad1565b915050611f3b565b509095945050505050565b60b58181548110610f6857600080fd5b6099546000906001600160a01b031633146121f85760405162461bcd60e51b815260040161043b90613bef565b60026001540361221a5760405162461bcd60e51b815260040161043b906139ff565b600260015560a05460408051808201909152601281527110d3d395149050d517d254d7d0d313d4d15160721b6020820152901561226a5760405162461bcd60e51b815260040161043b9190613381565b50600084815260a66020908152604091829020548251808401909352601883527711115413d4d25517d053149150511657d49151955391115160421b9183019190915260ff16156122ce5760405162461bcd60e51b815260040161043b9190613381565b50600084815260a26020908152604091829020548251808401909352601183527021a0a62622a92fa727aa2fa32aa72222a960791b918301919091526001600160a01b038481169116146123355760405162461bcd60e51b815260040161043b9190613381565b50600084815260a9602090815260408083205460a59092529091205461235b9190613d1a565b42111561239b57600084815260a56020526040902054839061237d9042613ecf565b6123879190613d1a565b600085815260a960205260409020556123c5565b600084815260a960205260409020546123b5908490613d1a565b600085815260a960205260409020555b505050600090815260a960205260409020546001805590565b6099546001600160a01b031633146124085760405162461bcd60e51b815260040161043b90613bef565b60026001540361242a5760405162461bcd60e51b815260040161043b906139ff565b6002600155600083815260a66020908152604091829020548251808401909352601883527711115413d4d25517d053149150511657d49151955391115160421b9183019190915260ff16156124925760405162461bcd60e51b815260040161043b9190613381565b50600083815260a26020908152604091829020548251808401909352601183527021a0a62622a92fa727aa2fa32aa72222a960791b918301919091526001600160a01b038481169116146124f95760405162461bcd60e51b815260040161043b9190613381565b50600083815260a9602090815260408083205460a59092529091205461251f9190613d1a565b4210156040518060400160405280601881526020017f5052454d41545552455f524546554e445f524551554553540000000000000000815250906125765760405162461bcd60e51b815260040161043b9190613381565b50600083815260a660209081526040808320805460ff1916600117905560a39091529020546001600160a01b03166125cf57600083815260a260205260409020546125ca906001600160a01b031682612c20565b612651565b600083815260aa602052604090205460ff161561261f57600083815260a3602090815260408083205460a283528184205460a89093529220546125ca926001600160a01b03908116921690612aee565b600083815260a3602090815260408083205460a290925290912054612651916001600160a01b03908116911683612c33565b50506001805550565b6097546001600160a01b0316336001600160a01b03161461268d5760405162461bcd60e51b815260040161043b90613a86565b60a05460408051808201909152601781527610d3d395149050d517d053149150511657d0d313d4d151604a1b602082015290156126dd5760405162461bcd60e51b815260040161043b9190613381565b50609d5460408051808201909152601181527021a0a62622a92fa727aa2fa4a9a9aaa2a960791b6020820152906001600160a01b038381169116146127355760405162461bcd60e51b815260040161043b9190613381565b5050600160a05542609c55565b606061274e60ae612b5f565b905090565b6098546001600160a01b0316331461277d5760405162461bcd60e51b815260040161043b90613997565b600090815260b760205260409020805460ff19166001179055565b6001600160a01b0383166127b5576127b08183612c20565b505050565b6127b0838284612c33565b604051632142170760e11b81526001600160a01b038381166004830152306024830152604482018390528491908216906342842e0e906064015b600060405180830381600087803b15801561281457600080fd5b505af115801561161e573d6000803e3d6000fd5b60ac5460405160009161284191609a9190602001613ee2565b60405160208183030381529060405280519060200120905090565b600054610100900460ff166128835760405162461bcd60e51b815260040161043b90613f76565b61288b612c48565b565b600054610100900460ff166128b45760405162461bcd60e51b815260040161043b90613f76565b609880546001600160a01b0319166001600160a01b0392909216919091179055565b600054610100900460ff166128fd5760405162461bcd60e51b815260040161043b90613f76565b609980546001600160a01b0319166001600160a01b0392909216919091179055565b805163ffffffff811661299057600080600084602001518060200190518101906129499190613fd1565b600060b15560b880546001600160a81b031916841515610100600160a81b031916176101006001600160a01b0385160217905560b9819055919450925090505b5050505050565b60001963ffffffff821601612a2157600080600080600086602001518060200190518101906129bf9190614011565b600160b15560b280546001600160a01b0319166001600160a01b0396871617905560b39390935560b880546001600160a81b031916921515610100600160a81b0319169290921761010091909416029290921790915560b95550505050505050565b60011963ffffffff821601612a6a576000806000808560200151806020019051810190612a4e91906140d5565b9350935093509350612a6284848484612c75565b505050505050565b60021963ffffffff821601612aa2576000808360200151806020019051810190612a94919061413c565b915091506111678282612d6c565b60405162461bcd60e51b815260206004820152601f60248201527f4f513a20756e6b6e6f776e20696e6974206f7065726174696f6e207479706500604482015260640161043b565b5050565b604051632142170760e11b81523060048201526001600160a01b038381166024830152604482018390528491908216906342842e0e906064016127fa565b60008282604051602001612b41929190614182565b60405160208183030381529060405280519060200120905092915050565b60606000611b9d83612da8565b600080612b7885611b30565b905084612b906001600160a01b038216863087612e04565b6000612b9b87611b30565b9050828110156040518060400160405280601a81526020017f544f4b454e5f5452414e534645525f494e5f4f564552464c4f5700000000000081525090612bf55760405162461bcd60e51b815260040161043b9190613381565b50612c008382613ecf565b979650505050505050565b6000611b9d836001600160a01b038416612e6f565b612aea6001600160a01b03831682612ebe565b826111676001600160a01b0382168484612fd7565b600054610100900460ff16612c6f5760405162461bcd60e51b815260040161043b90613f76565b60018055565b600260b1556000805b8551811015612cc057858181518110612c9957612c99613a36565b602002602001015182612cac9190613d1a565b915080612cb881613ad1565b915050612c7e565b5060408051808201909152601f81527f5041594f55545f5343484544554c455f4d5553545f4144445f544f5f31303000602082015260648214612d165760405162461bcd60e51b815260040161043b9190613381565b508451612d2a9060b5906020880190613295565b505060b880546001600160a01b0390931661010002610100600160a81b0319941515949094166001600160a81b03199093169290921792909217905560b95550565b600360b1558151612d849060b5906020850190613295565b5060b280546001600160a01b0319166001600160a01b039290921691909117905550565b606081600001805480602002602001604051908101604052809291908181526020018280548015612df857602002820191906000526020600020905b815481526020019060010190808311612de4575b50505050509050919050565b6040516001600160a01b03808516602483015283166044820152606481018290526111679085906323b872dd60e01b906084015b60408051601f198184030181529190526020810180516001600160e01b03166001600160e01b031990931692909217909152613007565b6000818152600183016020526040812054612eb6575081546001818101845560008481526020808220909301849055845484825282860190935260409020919091556113fa565b5060006113fa565b80471015612f0e5760405162461bcd60e51b815260206004820152601d60248201527f416464726573733a20696e73756666696369656e742062616c616e6365000000604482015260640161043b565b6000826001600160a01b03168260405160006040518083038185875af1925050503d8060008114612f5b576040519150601f19603f3d011682016040523d82523d6000602084013e612f60565b606091505b50509050806127b05760405162461bcd60e51b815260206004820152603a60248201527f416464726573733a20756e61626c6520746f2073656e642076616c75652c207260448201527f6563697069656e74206d61792068617665207265766572746564000000000000606482015260840161043b565b6040516001600160a01b0383166024820152604481018290526127b090849063a9059cbb60e01b90606401612e38565b600061305c826040518060400160405280602081526020017f5361666545524332303a206c6f772d6c6576656c2063616c6c206661696c6564815250856001600160a01b03166130d99092919063ffffffff16565b8051909150156127b0578080602001905181019061307a91906141b0565b6127b05760405162461bcd60e51b815260206004820152602a60248201527f5361666545524332303a204552433230206f7065726174696f6e20646964206e6044820152691bdd081cdd58d8d9595960b21b606482015260840161043b565b60606130e884846000856130f0565b949350505050565b6060824710156131515760405162461bcd60e51b815260206004820152602660248201527f416464726573733a20696e73756666696369656e742062616c616e636520666f6044820152651c8818d85b1b60d21b606482015260840161043b565b6001600160a01b0385163b6131a85760405162461bcd60e51b815260206004820152601d60248201527f416464726573733a2063616c6c20746f206e6f6e2d636f6e7472616374000000604482015260640161043b565b600080866001600160a01b031685876040516131c491906141cb565b60006040518083038185875af1925050503d8060008114613201576040519150601f19603f3d011682016040523d82523d6000602084013e613206565b606091505b5091509150612c0082828660608315613220575081611b9d565b8251156132305782518084602001fd5b8160405162461bcd60e51b815260040161043b9190613381565b828054828255906000526020600020908101928215613285579160200282015b8281111561328557823582559160200191906001019061326a565b506132919291506132d0565b5090565b828054828255906000526020600020908101928215613285579160200282015b828111156132855782518255916020019190600101906132b5565b5b8082111561329157600081556001016132d1565b6001600160a01b038116811461106a57600080fd5b8035611400816132e5565b6000806040838503121561331857600080fd5b8235613323816132e5565b946020939093013593505050565b60005b8381101561334c578181015183820152602001613334565b50506000910152565b6000815180845261336d816020860160208601613331565b601f01601f19169290920160200192915050565b602081526000611b9d6020830184613355565b634e487b7160e01b600052604160045260246000fd5b604051601f8201601f191681016001600160401b03811182821017156133d2576133d2613394565b604052919050565b600082601f8301126133eb57600080fd5b81356001600160401b0381111561340457613404613394565b613417601f8201601f19166020016133aa565b81815284602083860101111561342c57600080fd5b816020850160208301376000918101602001919091529392505050565b6000806000806080858703121561345f57600080fd5b843561346a816132e5565b9350602085013561347a816132e5565b92506040850135915060608501356001600160401b0381111561349c57600080fd5b6134a8878288016133da565b91505092959194509250565b6000602082840312156134c657600080fd5b5035919050565b60008083601f8401126134df57600080fd5b5081356001600160401b038111156134f657600080fd5b6020830191508360208260051b850101111561351157600080fd5b9250929050565b60008060006040848603121561352d57600080fd5b83356001600160401b0381111561354357600080fd5b61354f868287016134cd565b9094509250506020840135613563816132e5565b809150509250925092565b60008060006040848603121561358357600080fd5b833561358e816132e5565b925060208401356001600160401b03808211156135aa57600080fd5b818601915086601f8301126135be57600080fd5b8135818111156135cd57600080fd5b8760208285010111156135df57600080fd5b6020830194508093505050509250925092565b600080600080600060a0868803121561360a57600080fd5b8535613615816132e5565b94506020860135613625816132e5565b94979496505050506040830135926060810135926080909101359150565b6020808252825182820181905260009190848201906040850190845b8181101561367b5783518352928401929184019160010161365f565b50909695505050505050565b60006020828403121561369957600080fd5b8135611b9d816132e5565b6000604082840312156136b657600080fd5b604051604081016001600160401b0382821081831117156136d9576136d9613394565b816040528293508435915063ffffffff821682146136f657600080fd5b9082526020840135908082111561370c57600080fd5b50613719858286016133da565b6020830152505092915050565b600080600080600080600060e0888a03121561374157600080fd5b87356001600160401b038082111561375857600080fd5b6137648b838c016133da565b985060208a01359150613776826132e5565b9096506040890135908082111561378c57600080fd5b6137988b838c016133da565b965060608a013591506137aa826132e5565b8195506137b960808b016132fa565b94506137c760a08b016132fa565b935060c08a01359150808211156137dd57600080fd5b506137ea8a828b016136a4565b91505092959891949750929550565b6000806020838503121561380c57600080fd5b82356001600160401b0381111561382257600080fd5b61382e858286016134cd565b90969095509350505050565b60008060006060848603121561384f57600080fd5b833561385a816132e5565b9250602084013591506040840135613563816132e5565b6000806040838503121561388457600080fd5b823561388f816132e5565b9150602083013561389f816132e5565b809150509250929050565b600080600080608085870312156138c057600080fd5b84356138cb816132e5565b935060208501356138db816132e5565b93969395505050506040820135916060013590565b60008060006060848603121561390557600080fd5b83359250602084013591506040840135613563816132e5565b60008060006060848603121561393357600080fd5b833592506020840135613945816132e5565b929592945050506040919091013590565b6020808252825182820181905260009190848201906040850190845b8181101561367b5783516001600160a01b031683529284019291840191600101613972565b60208082526042908201527f436c61696d4d616e616765724f776e61626c653a2063616c6c6572206973206e60408201527f6f74207468652063757272656e74204f70656e5120436c61696d204d616e616760608201526132b960f11b608082015260a00190565b6020808252601f908201527f5265656e7472616e637947756172643a207265656e7472616e742063616c6c00604082015260600190565b634e487b7160e01b600052603260045260246000fd5b600181811c90821680613a6057607f821691505b602082108103613a8057634e487b7160e01b600052602260045260246000fd5b50919050565b6020808252818101527f4d6574686f64206973206f6e6c792063616c6c61626c65206279204f70656e51604082015260600190565b634e487b7160e01b600052601160045260246000fd5b600060018201613ae357613ae3613abb565b5060010190565b601f8211156127b057600081815260208120601f850160051c81016020861015613b115750805b601f850160051c820191505b81811015612a6257828155600101613b1d565b6001600160401b03831115613b4757613b47613394565b613b5b83613b558354613a4c565b83613aea565b6000601f841160018114613b8f5760008515613b775750838201355b600019600387901b1c1916600186901b178355612989565b600083815260209020601f19861690835b82811015613bc05786850135825560209485019460019092019101613ba0565b5086821015613bdd5760001960f88860031b161c19848701351681555b505060018560011b0183555050505050565b60208082526046908201527f4465706f7369744d616e616765724f776e61626c653a2063616c6c657220697360408201527f206e6f74207468652063757272656e74204f70656e51204465706f736974204d60608201526530b730b3b2b960d11b608082015260a00190565b81516001600160401b03811115613c7457613c74613394565b613c8881613c828454613a4c565b84613aea565b602080601f831160018114613cbd5760008415613ca55750858301515b600019600386901b1c1916600185901b178555612a62565b600085815260208120601f198616915b82811015613cec57888601518255948401946001909101908401613ccd565b5085821015613d0a5787850151600019600388901b60f8161c191681555b5050505050600190811b01905550565b808201808211156113fa576113fa613abb565b60008060008060808587031215613d4357600080fd5b8435613d4e816132e5565b935060208501356001600160401b0380821115613d6a57600080fd5b613d76888389016133da565b945060408701359150613d88826132e5565b90925060608601359080821115613d9e57600080fd5b506134a8878288016133da565b6000816000190483118215151615613dc557613dc5613abb565b500290565b600082613de757634e487b7160e01b600052601260045260246000fd5b500490565b600060208284031215613dfe57600080fd5b5051919050565b60006001600160401b03821115613e1e57613e1e613394565b5060051b60200190565b60006020808385031215613e3b57600080fd5b82516001600160401b03811115613e5157600080fd5b8301601f81018513613e6257600080fd5b8051613e75613e7082613e05565b6133aa565b81815260059190911b82018301908381019087831115613e9457600080fd5b928401925b82841015612c0057835182529284019290840190613e99565b600060208284031215613ec457600080fd5b8151611b9d816132e5565b818103818111156113fa576113fa613abb565b604081526000808454613ef481613a4c565b8060408601526060600180841660008114613f165760018114613f3057613f61565b60ff1985168884015283151560051b880183019550613f61565b8960005260208060002060005b86811015613f585781548b8201870152908401908201613f3d565b8a018501975050505b50505050506020929092019290925292915050565b6020808252602b908201527f496e697469616c697a61626c653a20636f6e7472616374206973206e6f74206960408201526a6e697469616c697a696e6760a81b606082015260800190565b8051801515811461140057600080fd5b600080600060608486031215613fe657600080fd5b613fef84613fc1565b92506020840151613fff816132e5565b80925050604084015190509250925092565b600080600080600060a0868803121561402957600080fd5b8551614034816132e5565b6020870151909550935061404a60408701613fc1565b9250606086015161405a816132e5565b80925050608086015190509295509295909350565b600082601f83011261408057600080fd5b81516020614090613e7083613e05565b82815260059290921b840181019181810190868411156140af57600080fd5b8286015b848110156140ca57805183529183019183016140b3565b509695505050505050565b600080600080608085870312156140eb57600080fd5b84516001600160401b0381111561410157600080fd5b61410d8782880161406f565b94505061411c60208601613fc1565b9250604085015161412c816132e5565b6060959095015193969295505050565b6000806040838503121561414f57600080fd5b82516001600160401b0381111561416557600080fd5b6141718582860161406f565b925050602083015161389f816132e5565b6040815260006141956040830185613355565b82810360208401526141a78185613355565b95945050505050565b6000602082840312156141c257600080fd5b611b9d82613fc1565b600082516141dd818460208701613331565b919091019291505056fea2646970667358221220b5bf3eb2cc3e161dd98b94663ee5e970d69becbe9e23e47c9b151eb8520a6a4a64736f6c63430008100033",
  "linkReferences": {},
  "deployedLinkReferences": {}
}