{
  "_format": "hh-sol-artifact-1",
  "contractName": "BountyV1",
  "sourceName": "contracts/Bounty/Implementations/BountyV1.sol",
  "abi": [
    {
      "inputs": [],
      "stateMutability": "nonpayable",
      "type": "constructor"
    },
    {
      "anonymous": false,
      "inputs": [
        {
          "indexed": false,
          "internalType": "uint8",
          "name": "version",
          "type": "uint8"
        }
      ],
      "name": "Initialized",
      "type": "event"
    },
    {
      "inputs": [],
      "name": "bountyClosedTime",
      "outputs": [
        {
          "internalType": "uint256",
          "name": "",
          "type": "uint256"
        }
      ],
      "stateMutability": "view",
      "type": "function"
    },
    {
      "inputs": [],
      "name": "bountyCreatedTime",
      "outputs": [
        {
          "internalType": "uint256",
          "name": "",
          "type": "uint256"
        }
      ],
      "stateMutability": "view",
      "type": "function"
    },
    {
      "inputs": [],
      "name": "bountyId",
      "outputs": [
        {
          "internalType": "string",
          "name": "",
          "type": "string"
        }
      ],
      "stateMutability": "view",
      "type": "function"
    },
    {
      "inputs": [],
      "name": "bountyType",
      "outputs": [
        {
          "internalType": "uint256",
          "name": "",
          "type": "uint256"
        }
      ],
      "stateMutability": "view",
      "type": "function"
    },
    {
      "inputs": [
        {
          "internalType": "address",
          "name": "_payoutAddress",
          "type": "address"
        },
        {
          "internalType": "address",
          "name": "_tokenAddress",
          "type": "address"
        }
      ],
      "name": "claimBalance",
      "outputs": [
        {
          "internalType": "uint256",
          "name": "",
          "type": "uint256"
        }
      ],
      "stateMutability": "nonpayable",
      "type": "function"
    },
    {
      "inputs": [],
      "name": "claimManager",
      "outputs": [
        {
          "internalType": "address",
          "name": "",
          "type": "address"
        }
      ],
      "stateMutability": "view",
      "type": "function"
    },
    {
      "inputs": [
        {
          "internalType": "address",
          "name": "_payoutAddress",
          "type": "address"
        },
        {
          "internalType": "bytes32",
          "name": "_depositId",
          "type": "bytes32"
        }
      ],
      "name": "claimNft",
      "outputs": [],
      "stateMutability": "nonpayable",
      "type": "function"
    },
    {
      "inputs": [
        {
          "internalType": "address",
          "name": "_payoutAddress",
          "type": "address"
        },
        {
          "internalType": "bytes",
          "name": "_closerData",
          "type": "bytes"
        }
      ],
      "name": "claimOngoingPayout",
      "outputs": [
        {
          "internalType": "address",
          "name": "",
          "type": "address"
        },
        {
          "internalType": "uint256",
          "name": "",
          "type": "uint256"
        }
      ],
      "stateMutability": "nonpayable",
      "type": "function"
    },
    {
      "inputs": [
        {
          "internalType": "address",
          "name": "_payoutAddress",
          "type": "address"
        },
        {
          "internalType": "uint256",
          "name": "_tier",
          "type": "uint256"
        },
        {
          "internalType": "address",
          "name": "_tokenAddress",
          "type": "address"
        }
      ],
      "name": "claimTiered",
      "outputs": [
        {
          "internalType": "uint256",
          "name": "",
          "type": "uint256"
        }
      ],
      "stateMutability": "nonpayable",
      "type": "function"
    },
    {
      "inputs": [
        {
          "internalType": "address",
          "name": "_payoutAddress",
          "type": "address"
        },
        {
          "internalType": "uint256",
          "name": "_tier",
          "type": "uint256"
        }
      ],
      "name": "claimTieredFixed",
      "outputs": [
        {
          "internalType": "uint256",
          "name": "",
          "type": "uint256"
        }
      ],
      "stateMutability": "nonpayable",
      "type": "function"
    },
    {
      "inputs": [
        {
          "internalType": "bytes32",
          "name": "",
          "type": "bytes32"
        }
      ],
      "name": "claimantId",
      "outputs": [
        {
          "internalType": "bool",
          "name": "",
          "type": "bool"
        }
      ],
      "stateMutability": "view",
      "type": "function"
    },
    {
      "inputs": [
        {
          "internalType": "address",
          "name": "_payoutAddress",
          "type": "address"
        },
        {
          "internalType": "bytes",
          "name": "_closerData",
          "type": "bytes"
        }
      ],
      "name": "close",
      "outputs": [],
      "stateMutability": "nonpayable",
      "type": "function"
    },
    {
      "inputs": [
        {
          "internalType": "address",
          "name": "_closer",
          "type": "address"
        }
      ],
      "name": "closeCompetition",
      "outputs": [],
      "stateMutability": "nonpayable",
      "type": "function"
    },
    {
      "inputs": [
        {
          "internalType": "address",
          "name": "_closer",
          "type": "address"
        }
      ],
      "name": "closeOngoing",
      "outputs": [],
      "stateMutability": "nonpayable",
      "type": "function"
    },
    {
      "inputs": [],
      "name": "closer",
      "outputs": [
        {
          "internalType": "address",
          "name": "",
          "type": "address"
        }
      ],
      "stateMutability": "view",
      "type": "function"
    },
    {
      "inputs": [],
      "name": "closerData",
      "outputs": [
        {
          "internalType": "bytes",
          "name": "",
          "type": "bytes"
        }
      ],
      "stateMutability": "view",
      "type": "function"
    },
    {
      "inputs": [],
      "name": "depositManager",
      "outputs": [
        {
          "internalType": "address",
          "name": "",
          "type": "address"
        }
      ],
      "stateMutability": "view",
      "type": "function"
    },
    {
      "inputs": [
        {
          "internalType": "bytes32",
          "name": "",
          "type": "bytes32"
        }
      ],
      "name": "depositTime",
      "outputs": [
        {
          "internalType": "uint256",
          "name": "",
          "type": "uint256"
        }
      ],
      "stateMutability": "view",
      "type": "function"
    },
    {
      "inputs": [
        {
          "internalType": "uint256",
          "name": "",
          "type": "uint256"
        }
      ],
      "name": "deposits",
      "outputs": [
        {
          "internalType": "bytes32",
          "name": "",
          "type": "bytes32"
        }
      ],
      "stateMutability": "view",
      "type": "function"
    },
    {
      "inputs": [
        {
          "internalType": "bytes32",
          "name": "",
          "type": "bytes32"
        }
      ],
      "name": "expiration",
      "outputs": [
        {
          "internalType": "uint256",
          "name": "",
          "type": "uint256"
        }
      ],
      "stateMutability": "view",
      "type": "function"
    },
    {
      "inputs": [
        {
          "internalType": "bytes32",
          "name": "_depositId",
          "type": "bytes32"
        },
        {
          "internalType": "uint256",
          "name": "_seconds",
          "type": "uint256"
        },
        {
          "internalType": "address",
          "name": "_funder",
          "type": "address"
        }
      ],
      "name": "extendDeposit",
      "outputs": [
        {
          "internalType": "uint256",
          "name": "",
          "type": "uint256"
        }
      ],
      "stateMutability": "nonpayable",
      "type": "function"
    },
    {
      "inputs": [
        {
          "internalType": "bytes32",
          "name": "",
          "type": "bytes32"
        }
      ],
      "name": "funder",
      "outputs": [
        {
          "internalType": "address",
          "name": "",
          "type": "address"
        }
      ],
      "stateMutability": "view",
      "type": "function"
    },
    {
      "inputs": [],
      "name": "fundingGoal",
      "outputs": [
        {
          "internalType": "uint256",
          "name": "",
          "type": "uint256"
        }
      ],
      "stateMutability": "view",
      "type": "function"
    },
    {
      "inputs": [],
      "name": "fundingToken",
      "outputs": [
        {
          "internalType": "address",
          "name": "",
          "type": "address"
        }
      ],
      "stateMutability": "view",
      "type": "function"
    },
    {
      "inputs": [
        {
          "internalType": "address",
          "name": "",
          "type": "address"
        }
      ],
      "name": "fundingTotals",
      "outputs": [
        {
          "internalType": "uint256",
          "name": "",
          "type": "uint256"
        }
      ],
      "stateMutability": "view",
      "type": "function"
    },
    {
      "inputs": [],
      "name": "getDeposits",
      "outputs": [
        {
          "internalType": "bytes32[]",
          "name": "",
          "type": "bytes32[]"
        }
      ],
      "stateMutability": "view",
      "type": "function"
    },
    {
      "inputs": [
        {
          "internalType": "address",
          "name": "_tokenAddress",
          "type": "address"
        }
      ],
      "name": "getERC20Balance",
      "outputs": [
        {
          "internalType": "uint256",
          "name": "balance",
          "type": "uint256"
        }
      ],
      "stateMutability": "view",
      "type": "function"
    },
    {
      "inputs": [],
      "name": "getNftDeposits",
      "outputs": [
        {
          "internalType": "bytes32[]",
          "name": "",
          "type": "bytes32[]"
        }
      ],
      "stateMutability": "view",
      "type": "function"
    },
    {
      "inputs": [],
      "name": "getPayoutSchedule",
      "outputs": [
        {
          "internalType": "uint256[]",
          "name": "",
          "type": "uint256[]"
        }
      ],
      "stateMutability": "view",
      "type": "function"
    },
    {
      "inputs": [],
      "name": "getTokenAddresses",
      "outputs": [
        {
          "internalType": "address[]",
          "name": "",
          "type": "address[]"
        }
      ],
      "stateMutability": "view",
      "type": "function"
    },
    {
      "inputs": [],
      "name": "getTokenAddressesCount",
      "outputs": [
        {
          "internalType": "uint256",
          "name": "",
          "type": "uint256"
        }
      ],
      "stateMutability": "view",
      "type": "function"
    },
    {
      "inputs": [
        {
          "internalType": "address",
          "name": "_tokenAddress",
          "type": "address"
        }
      ],
      "name": "getTokenBalance",
      "outputs": [
        {
          "internalType": "uint256",
          "name": "",
          "type": "uint256"
        }
      ],
      "stateMutability": "view",
      "type": "function"
    },
    {
      "inputs": [],
      "name": "hasFundingGoal",
      "outputs": [
        {
          "internalType": "bool",
          "name": "",
          "type": "bool"
        }
      ],
      "stateMutability": "view",
      "type": "function"
    },
    {
      "inputs": [
        {
          "internalType": "string",
          "name": "_bountyId",
          "type": "string"
        },
        {
          "internalType": "address",
          "name": "_issuer",
          "type": "address"
        },
        {
          "internalType": "string",
          "name": "_organization",
          "type": "string"
        },
        {
          "internalType": "address",
          "name": "_openQ",
          "type": "address"
        },
        {
          "internalType": "address",
          "name": "_claimManager",
          "type": "address"
        },
        {
          "internalType": "address",
          "name": "_depositManager",
          "type": "address"
        },
        {
          "components": [
            {
              "internalType": "uint32",
              "name": "operationType",
              "type": "uint32"
            },
            {
              "internalType": "bytes",
              "name": "data",
              "type": "bytes"
            }
          ],
          "internalType": "struct OpenQDefinitions.InitOperation",
          "name": "operation",
          "type": "tuple"
        }
      ],
      "name": "initialize",
      "outputs": [],
      "stateMutability": "nonpayable",
      "type": "function"
    },
    {
      "inputs": [
        {
          "internalType": "bytes32",
          "name": "",
          "type": "bytes32"
        }
      ],
      "name": "isNFT",
      "outputs": [
        {
          "internalType": "bool",
          "name": "",
          "type": "bool"
        }
      ],
      "stateMutability": "view",
      "type": "function"
    },
    {
      "inputs": [],
      "name": "issuer",
      "outputs": [
        {
          "internalType": "address",
          "name": "",
          "type": "address"
        }
      ],
      "stateMutability": "view",
      "type": "function"
    },
    {
      "inputs": [],
      "name": "nftDepositLimit",
      "outputs": [
        {
          "internalType": "uint256",
          "name": "",
          "type": "uint256"
        }
      ],
      "stateMutability": "view",
      "type": "function"
    },
    {
      "inputs": [
        {
          "internalType": "uint256",
          "name": "",
          "type": "uint256"
        }
      ],
      "name": "nftDeposits",
      "outputs": [
        {
          "internalType": "bytes32",
          "name": "",
          "type": "bytes32"
        }
      ],
      "stateMutability": "view",
      "type": "function"
    },
    {
      "inputs": [
        {
          "internalType": "address",
          "name": "",
          "type": "address"
        },
        {
          "internalType": "address",
          "name": "",
          "type": "address"
        },
        {
          "internalType": "uint256",
          "name": "",
          "type": "uint256"
        },
        {
          "internalType": "bytes",
          "name": "",
          "type": "bytes"
        }
      ],
      "name": "onERC721Received",
      "outputs": [
        {
          "internalType": "bytes4",
          "name": "",
          "type": "bytes4"
        }
      ],
      "stateMutability": "nonpayable",
      "type": "function"
    },
    {
      "inputs": [],
      "name": "openQ",
      "outputs": [
        {
          "internalType": "address",
          "name": "",
          "type": "address"
        }
      ],
      "stateMutability": "view",
      "type": "function"
    },
    {
      "inputs": [],
      "name": "organization",
      "outputs": [
        {
          "internalType": "string",
          "name": "",
          "type": "string"
        }
      ],
      "stateMutability": "view",
      "type": "function"
    },
    {
      "inputs": [
        {
          "internalType": "bytes32",
          "name": "",
          "type": "bytes32"
        }
      ],
      "name": "payoutAddress",
      "outputs": [
        {
          "internalType": "address",
          "name": "",
          "type": "address"
        }
      ],
      "stateMutability": "view",
      "type": "function"
    },
    {
      "inputs": [
        {
          "internalType": "uint256",
          "name": "",
          "type": "uint256"
        }
      ],
      "name": "payoutSchedule",
      "outputs": [
        {
          "internalType": "uint256",
          "name": "",
          "type": "uint256"
        }
      ],
      "stateMutability": "view",
      "type": "function"
    },
    {
      "inputs": [],
      "name": "payoutTokenAddress",
      "outputs": [
        {
          "internalType": "address",
          "name": "",
          "type": "address"
        }
      ],
      "stateMutability": "view",
      "type": "function"
    },
    {
      "inputs": [],
      "name": "payoutVolume",
      "outputs": [
        {
          "internalType": "uint256",
          "name": "",
          "type": "uint256"
        }
      ],
      "stateMutability": "view",
      "type": "function"
    },
    {
      "inputs": [
        {
          "internalType": "address",
          "name": "_funder",
          "type": "address"
        },
        {
          "internalType": "address",
          "name": "_tokenAddress",
          "type": "address"
        },
        {
          "internalType": "uint256",
          "name": "_volume",
          "type": "uint256"
        },
        {
          "internalType": "uint256",
          "name": "_expiration",
          "type": "uint256"
        }
      ],
      "name": "receiveFunds",
      "outputs": [
        {
          "internalType": "bytes32",
          "name": "",
          "type": "bytes32"
        },
        {
          "internalType": "uint256",
          "name": "",
          "type": "uint256"
        }
      ],
      "stateMutability": "payable",
      "type": "function"
    },
    {
      "inputs": [
        {
          "internalType": "address",
          "name": "_sender",
          "type": "address"
        },
        {
          "internalType": "address",
          "name": "_tokenAddress",
          "type": "address"
        },
        {
          "internalType": "uint256",
          "name": "_tokenId",
          "type": "uint256"
        },
        {
          "internalType": "uint256",
          "name": "_expiration",
          "type": "uint256"
        },
        {
          "internalType": "uint256",
          "name": "_tier",
          "type": "uint256"
        }
      ],
      "name": "receiveNft",
      "outputs": [
        {
          "internalType": "bytes32",
          "name": "",
          "type": "bytes32"
        }
      ],
      "stateMutability": "nonpayable",
      "type": "function"
    },
    {
      "inputs": [
        {
          "internalType": "bytes32",
          "name": "_depositId",
          "type": "bytes32"
        },
        {
          "internalType": "address",
          "name": "_funder",
          "type": "address"
        }
      ],
      "name": "refundDeposit",
      "outputs": [],
      "stateMutability": "nonpayable",
      "type": "function"
    },
    {
      "inputs": [
        {
          "internalType": "bytes32",
          "name": "",
          "type": "bytes32"
        }
      ],
      "name": "refunded",
      "outputs": [
        {
          "internalType": "bool",
          "name": "",
          "type": "bool"
        }
      ],
      "stateMutability": "view",
      "type": "function"
    },
    {
      "inputs": [
        {
          "internalType": "address",
          "name": "_fundingToken",
          "type": "address"
        },
        {
          "internalType": "uint256",
          "name": "_fundingGoal",
          "type": "uint256"
        }
      ],
      "name": "setFundingGoal",
      "outputs": [],
      "stateMutability": "nonpayable",
      "type": "function"
    },
    {
      "inputs": [
        {
          "internalType": "address",
          "name": "_payoutTokenAddress",
          "type": "address"
        },
        {
          "internalType": "uint256",
          "name": "_payoutVolume",
          "type": "uint256"
        }
      ],
      "name": "setPayout",
      "outputs": [],
      "stateMutability": "nonpayable",
      "type": "function"
    },
    {
      "inputs": [
        {
          "internalType": "uint256[]",
          "name": "_payoutSchedule",
          "type": "uint256[]"
        }
      ],
      "name": "setPayoutSchedule",
      "outputs": [],
      "stateMutability": "nonpayable",
      "type": "function"
    },
    {
      "inputs": [
        {
          "internalType": "uint256[]",
          "name": "_payoutSchedule",
          "type": "uint256[]"
        },
        {
          "internalType": "address",
          "name": "_payoutTokenAddress",
          "type": "address"
        }
      ],
      "name": "setPayoutScheduleFixed",
      "outputs": [],
      "stateMutability": "nonpayable",
      "type": "function"
    },
    {
      "inputs": [
        {
          "internalType": "uint256",
          "name": "_tier",
          "type": "uint256"
        }
      ],
      "name": "setTierClaimed",
      "outputs": [],
      "stateMutability": "nonpayable",
      "type": "function"
    },
    {
      "inputs": [],
      "name": "status",
      "outputs": [
        {
          "internalType": "uint256",
          "name": "",
          "type": "uint256"
        }
      ],
      "stateMutability": "view",
      "type": "function"
    },
    {
      "inputs": [
        {
          "internalType": "bytes32",
          "name": "",
          "type": "bytes32"
        }
      ],
      "name": "tier",
      "outputs": [
        {
          "internalType": "uint256",
          "name": "",
          "type": "uint256"
        }
      ],
      "stateMutability": "view",
      "type": "function"
    },
    {
      "inputs": [
        {
          "internalType": "uint256",
          "name": "",
          "type": "uint256"
        }
      ],
      "name": "tierClaimed",
      "outputs": [
        {
          "internalType": "bool",
          "name": "",
          "type": "bool"
        }
      ],
      "stateMutability": "view",
      "type": "function"
    },
    {
      "inputs": [
        {
          "internalType": "bytes32",
          "name": "",
          "type": "bytes32"
        }
      ],
      "name": "tokenAddress",
      "outputs": [
        {
          "internalType": "address",
          "name": "",
          "type": "address"
        }
      ],
      "stateMutability": "view",
      "type": "function"
    },
    {
      "inputs": [
        {
          "internalType": "bytes32",
          "name": "",
          "type": "bytes32"
        }
      ],
      "name": "tokenId",
      "outputs": [
        {
          "internalType": "uint256",
          "name": "",
          "type": "uint256"
        }
      ],
      "stateMutability": "view",
      "type": "function"
    },
    {
      "inputs": [
        {
          "internalType": "bytes32",
          "name": "",
          "type": "bytes32"
        }
      ],
      "name": "volume",
      "outputs": [
        {
          "internalType": "uint256",
          "name": "",
          "type": "uint256"
        }
      ],
      "stateMutability": "view",
      "type": "function"
    },
    {
      "stateMutability": "payable",
      "type": "receive"
    }
  ],
  "bytecode": "0x608060405234801561001057600080fd5b50613d45806100206000396000f3fe60806040526004361061039b5760003560e01c80637a3a0e84116101dc578063c17bd75e11610102578063e5f60947116100a0578063ee8c24b81161006f578063ee8c24b814610bf9578063f05e0f7e14610c1b578063f232172514610c4b578063fe0329c914610c7857600080fd5b8063e5f6094714610b72578063e83963eb14610b9f578063ec9c2c3614610bbf578063ee1e43e014610bdf57600080fd5b8063cb4436b7116100dc578063cb4436b714610af4578063ceff310714610b0a578063d6fe0f4414610b2a578063e452d08b14610b5257600080fd5b8063c17bd75e14610aaa578063c5b6e70514610abf578063cb2da3db14610ad457600080fd5b8063a09dd1aa1161017a578063b3ca1f3b11610149578063b3ca1f3b14610a28578063b3f23b7314610a3e578063b588d22514610a54578063b99bb99014610a7457600080fd5b8063a09dd1aa1461098b578063a9a36dcd146109ca578063b02c43d0146109e8578063b3b41cea14610a0857600080fd5b8063968b098f116101b6578063968b098f146108e257806397bb3ce91461090f578063995280b0146109455780639dcb7b8e1461095b57600080fd5b80637a3a0e841461088e5780637cb8e8e4146108a45780637dc81fa2146108c457600080fd5b80632a120b33116102c15780636420fd931161025f57806371ec4ebf1161022e57806371ec4ebf1461081457806377ede8a61461083457806378065f27146108495780637a196d0e1461086e57600080fd5b80636420fd93146107915780636b149d87146107c15780636c7ac9d8146107d65780637044f282146107f457600080fd5b806356406fa51161029b57806356406fa5146106ee57806359ba83441461071b5780635cc0483814610751578063641411f81461077157600080fd5b80632a120b331461068c5780633aecd0e3146106ae5780633f40f636146106ce57600080fd5b8063184f1f38116103395780632338d377116103085780632338d377146105f7578063235b2b941461061757806323bd4d7a1461065757806324f0cae51461066c57600080fd5b8063184f1f38146105695780631bc5fc96146105895780631d143848146105a9578063200d2ed2146105e157600080fd5b80630dd81887116103755780630dd81887146104a9578063150b7a02146104cb5780631595eea41461050f578063160a30a31461053c57600080fd5b8063040e05fe1461043e5780630636676e146104715780630961413d1461049357600080fd5b366104395760405162461bcd60e51b815260206004820152605d60248201527f43616e6e6f742073656e64204574686572206469726563746c7920746f20626f60448201527f75746e7920636f6e74726163742e20506c65617365207573652074686520426f60648201527f756e747956312e7265636569766546756e64732829206d6574686f642e000000608482015260a4015b60405180910390fd5b600080fd5b34801561044a57600080fd5b5061045e610459366004612ec7565b610c98565b6040519081526020015b60405180910390f35b34801561047d57600080fd5b5061049161048c366004612ef3565b610e25565b005b34801561049f57600080fd5b5061045e60a15481565b3480156104b557600080fd5b506104be610f7f565b6040516104689190612f60565b3480156104d757600080fd5b506104f66104e6366004613028565b630a85bd0160e11b949350505050565b6040516001600160e01b03199091168152602001610468565b34801561051b57600080fd5b5061045e61052a366004613093565b60a46020526000908152604090205481565b34801561054857600080fd5b5061045e610557366004613093565b60ab6020526000908152604090205481565b34801561057557600080fd5b506104916105843660046130f7565b61100d565b34801561059557600080fd5b5061045e6105a4366004613093565b611071565b3480156105b557600080fd5b50609d546105c9906001600160a01b031681565b6040516001600160a01b039091168152602001610468565b3480156105ed57600080fd5b5061045e60a05481565b34801561060357600080fd5b5061049161061236600461314d565b611092565b34801561062357600080fd5b50610647610632366004613093565b60aa6020526000908152604090205460ff1681565b6040519015158152602001610468565b34801561066357600080fd5b506104be61113b565b34801561067857600080fd5b5061045e6106873660046131d1565b611148565b34801561069857600080fd5b506106a1611310565b6040516104689190613222565b3480156106ba57600080fd5b5061045e6106c9366004612ef3565b611368565b3480156106da57600080fd5b506104916106e93660046132e8565b611393565b3480156106fa57600080fd5b5061045e610709366004613093565b60a96020526000908152604090205481565b34801561072757600080fd5b506105c9610736366004613093565b60a2602052600090815260409020546001600160a01b031681565b34801561075d57600080fd5b5060b2546105c9906001600160a01b031681565b34801561077d57600080fd5b5061049161078c3660046133bb565b6115ae565b34801561079d57600080fd5b506106476107ac366004613093565b60b46020526000908152604090205460ff1681565b3480156107cd57600080fd5b506106a161182b565b3480156107e257600080fd5b506099546001600160a01b03166105c9565b34801561080057600080fd5b50609f546105c9906001600160a01b031681565b34801561082057600080fd5b5061049161082f366004612ec7565b611881565b34801561084057600080fd5b506106a1611902565b34801561085557600080fd5b5060b8546105c99061010090046001600160a01b031681565b34801561087a57600080fd5b50610491610889366004612ec7565b611958565b34801561089a57600080fd5b5061045e60b95481565b3480156108b057600080fd5b506104916108bf3660046133eb565b6119b1565b3480156108d057600080fd5b506097546001600160a01b03166105c9565b3480156108ee57600080fd5b5061045e6108fd366004613093565b60a56020526000908152604090205481565b34801561091b57600080fd5b506105c961092a366004613093565b60a3602052600090815260409020546001600160a01b031681565b34801561095157600080fd5b5061045e609b5481565b34801561096757600080fd5b50610647610976366004613093565b60b76020526000908152604090205460ff1681565b34801561099757600080fd5b506109ab6109a636600461314d565b611a85565b604080516001600160a01b039093168352602083019190915201610468565b3480156109d657600080fd5b506098546001600160a01b03166105c9565b3480156109f457600080fd5b5061045e610a03366004613093565b611b57565b348015610a1457600080fd5b5061045e610a2336600461342c565b611b67565b348015610a3457600080fd5b5061045e60b15481565b348015610a4a57600080fd5b5061045e60b35481565b348015610a6057600080fd5b5061045e610a6f366004612ef3565b611d0e565b348015610a8057600080fd5b506105c9610a8f366004613093565b60a7602052600090815260409020546001600160a01b031681565b348015610ab657600080fd5b506104be611d82565b348015610acb57600080fd5b5061045e611d8f565b348015610ae057600080fd5b5061045e610aef366004613463565b611da1565b348015610b0057600080fd5b5061045e609c5481565b348015610b1657600080fd5b50610491610b25366004612ec7565b611e0d565b610b3d610b38366004613491565b611e74565b60408051928352602083019190915201610468565b348015610b5e57600080fd5b5061045e610b6d366004613093565b612081565b348015610b7e57600080fd5b5061045e610b8d366004612ef3565b60b66020526000908152604090205481565b348015610bab57600080fd5b5061045e610bba3660046134d7565b612091565b348015610bcb57600080fd5b50610491610bda366004612ef3565b612228565b348015610beb57600080fd5b5060b8546106479060ff1681565b348015610c0557600080fd5b50610c0e612314565b6040516104689190613505565b348015610c2757600080fd5b50610647610c36366004613093565b60a66020526000908152604090205460ff1681565b348015610c5757600080fd5b5061045e610c66366004613093565b60a86020526000908152604090205481565b348015610c8457600080fd5b50610491610c93366004613093565b612325565b6098546000906001600160a01b03163314610cc55760405162461bcd60e51b815260040161043090613546565b600260015403610ce75760405162461bcd60e51b8152600401610430906135ae565b6002600190815560a05414610d375760405162461bcd60e51b815260206004820152601660248201527510d3d354115512551253d397d393d517d0d313d4d15160521b6044820152606401610430565b60b154600314610d895760405162461bcd60e51b815260206004820152601960248201527f4e4f545f415f5449455245445f46495845445f424f554e5459000000000000006044820152606401610430565b600082815260b7602052604090205460ff1615610ddf5760405162461bcd60e51b81526020600482015260146024820152731512515497d053149150511657d0d3105253515160621b6044820152606401610430565b600060b58381548110610df457610df46135e5565b60009182526020909120015460b254909150610e1a906001600160a01b0316828661236a565b600180559392505050565b6097546001600160a01b0316336001600160a01b031614610e585760405162461bcd60e51b8152600401610430906135fb565b60a05415610ea85760405162461bcd60e51b815260206004820152601a60248201527f434f4d5045544954494f4e5f414c52454144595f434c4f5345440000000000006044820152606401610430565b609d546001600160a01b03828116911614610f055760405162461bcd60e51b815260206004820152601d60248201527f434f4d5045544954494f4e5f434c4f5345525f4e4f545f4953535545520000006044820152606401610430565b600160a05542609c5560005b610f19612314565b51811015610f7b576000610f2b612314565b8281518110610f3c57610f3c6135e5565b60200260200101519050610f4f81611368565b6001600160a01b03909116600090815260b6602052604090205580610f7381613646565b915050610f11565b5050565b60b08054610f8c9061365f565b80601f0160208091040260200160405190810160405280929190818152602001828054610fb89061365f565b80156110055780601f10610fda57610100808354040283529160200191611005565b820191906000526020600020905b815481529060010190602001808311610fe857829003601f168201915b505050505081565b6097546001600160a01b0316336001600160a01b0316146110405760405162461bcd60e51b8152600401610430906135fb565b61104c60b58484612e09565b5060b280546001600160a01b0319166001600160a01b03929092169190911790555050565b60ad818154811061108157600080fd5b600091825260209091200154905081565b6098546001600160a01b031633146110bc5760405162461bcd60e51b815260040161043090613546565b60a054156111045760405162461bcd60e51b8152602060048201526015602482015274434c4f53494e475f434c4f5345445f424f554e545960581b6044820152606401610430565b600160a055609f80546001600160a01b0319166001600160a01b03851617905542609c5560b06111358284836136df565b50505050565b609e8054610f8c9061365f565b6099546000906001600160a01b031633146111755760405162461bcd60e51b81526004016104309061379e565b6002600154036111975760405162461bcd60e51b8152600401610430906135ae565b600260015560a15460ad54106111ef5760405162461bcd60e51b815260206004820152601960248201527f4e46545f4445504f5349545f4c494d49545f52454143484544000000000000006044820152606401610430565b6000831161120f5760405162461bcd60e51b81526004016104309061380a565b61121a858786612392565b60006112246123fa565b600081815260a26020908152604080832080546001600160a01b039c8d166001600160a01b03199182161790915560a3835281842080549b909c169a169990991790995560a5895287812042905560a889528781209690965560a9885286862094909455505060aa8552838320805460ff1916600190811790915560ab9095529282209290925560ac80548085019091557f0a0a1bcadd9f6a5539376fa82276e043ae3cb4499daaaf8136572ecb1f9f0d600182905560ad8054808501825591527f0440fd76b4e685d17019b0eef836cea9994650028b99dddfb48be06fa4240aa60181905590805590565b606060b580548060200260200160405190810160405280929190818152602001828054801561135e57602002820191906000526020600020905b81548152602001906001019080831161134a575b5050505050905090565b60006001600160a01b03821661137f575047919050565b61138882611d0e565b92915050565b919050565b600054610100900460ff16158080156113b35750600054600160ff909116105b806113cd5750303b1580156113cd575060005460ff166001145b6114305760405162461bcd60e51b815260206004820152602e60248201527f496e697469616c697a61626c653a20636f6e747261637420697320616c72656160448201526d191e481a5b9a5d1a585b1a5e995960921b6064820152608401610430565b6000805460ff191660011790558015611453576000805461ff0019166101001790555b87516000036114995760405162461bcd60e51b81526020600482015260126024820152711393d7d15354151657d093d553951657d25160721b6044820152606401610430565b85516000036114e25760405162461bcd60e51b81526020600482015260156024820152742727afa2a6a82a2cafa7a923a0a724ad20aa24a7a760591b6044820152606401610430565b6114ea61242e565b609780546001600160a01b0319166001600160a01b03871617905561150e8461245f565b611517836124a8565b609a611523898261383f565b50609d80546001600160a01b0319166001600160a01b038916179055609e61154b878261383f565b5042609b55600560a15561155e826124f1565b80156115a4576000805461ff0019169055604051600181527f7f26b83ff96e1f2b6a682f133852f6798a09c465da95921460cefb38474024989060200160405180910390a15b5050505050505050565b6099546001600160a01b031633146115d85760405162461bcd60e51b81526004016104309061379e565b6002600154036115fa5760405162461bcd60e51b8152600401610430906135ae565b6002600155600082815260a6602052604090205460ff16156116595760405162461bcd60e51b815260206004820152601860248201527711115413d4d25517d053149150511657d49151955391115160421b6044820152606401610430565b600082815260a260205260409020546001600160a01b038281169116146116c25760405162461bcd60e51b815260206004820152601e60248201527f4f4e4c595f46554e4445525f43414e5f524551554553545f524546554e4400006044820152606401610430565b600082815260a9602090815260408083205460a5909252909120546116e791906138fe565b4210156117365760405162461bcd60e51b815260206004820152601860248201527f5052454d41545552455f524546554e445f5245515545535400000000000000006044820152606401610430565b600082815260a660209081526040808320805460ff1916600117905560a39091529020546001600160a01b031661179a57600082815260a2602090815260408083205460a490925290912054611795916001600160a01b0316906126bc565b611823565b600082815260aa602052604090205460ff16156117ea57600082815260a3602090815260408083205460a283528184205460a8909352922054611795926001600160a01b039081169216906126cf565b600082815260a3602090815260408083205460a283528184205460a4909352922054611823926001600160a01b0390811692169061270d565b505060018055565b606060ac80548060200260200160405190810160405280929190818152602001828054801561135e576020028201919060005260206000209081548152602001906001019080831161134a575050505050905090565b6098546001600160a01b031633146118ab5760405162461bcd60e51b815260040161043090613546565b6002600154036118cd5760405162461bcd60e51b8152600401610430906135ae565b6002600155600081815260a3602090815260408083205460a890925290912054611823916001600160a01b03169084906126cf565b606060ad80548060200260200160405190810160405280929190818152602001828054801561135e576020028201919060005260206000209081548152602001906001019080831161134a575050505050905090565b6097546001600160a01b0316336001600160a01b03161461198b5760405162461bcd60e51b8152600401610430906135fb565b60b280546001600160a01b0319166001600160a01b03939093169290921790915560b355565b6097546001600160a01b0316336001600160a01b0316146119e45760405162461bcd60e51b8152600401610430906135fb565b6000805b82811015611a2857838382818110611a0257611a026135e5565b9050602002013582611a1491906138fe565b915080611a2081613646565b9150506119e8565b5080606414611a795760405162461bcd60e51b815260206004820152601f60248201527f5041594f55545f5343484544554c455f4d5553545f4144445f544f5f313030006044820152606401610430565b61113560b58484612e09565b60985460009081906001600160a01b03163314611ab45760405162461bcd60e51b815260040161043090613546565b600260015403611ad65760405162461bcd60e51b8152600401610430906135ae565b6002600155600080611aea85870187613911565b9350509250506000611afc8383612722565b600081815260b460205260409020805460ff1916600117905560b25460b354919250611b34916001600160a01b03909116908a61236a565b505060b25460b354600180556001600160a01b0390911697909650945050505050565b60ac818154811061108157600080fd5b6098546000906001600160a01b03163314611b945760405162461bcd60e51b815260040161043090613546565b600260015403611bb65760405162461bcd60e51b8152600401610430906135ae565b6002600190815560a05414611c065760405162461bcd60e51b815260206004820152601660248201527510d3d354115512551253d397d393d517d0d313d4d15160521b6044820152606401610430565b60b154600214611c4e5760405162461bcd60e51b81526020600482015260136024820152724e4f545f415f5449455245445f424f554e545960681b6044820152606401610430565b600083815260b7602052604090205460ff1615611ca45760405162461bcd60e51b81526020600482015260146024820152731512515497d053149150511657d0d3105253515160621b6044820152606401610430565b6001600160a01b038216600090815260b6602052604081205460b58054606492919087908110611cd657611cd66135e5565b9060005260206000200154611ceb919061398f565b611cf591906139ae565b9050611d0283828761236a565b60018055949350505050565b6040516370a0823160e01b815230600482015260009082906001600160a01b038216906370a0823190602401602060405180830381865afa158015611d57573d6000803e3d6000fd5b505050506040513d601f19601f82011682018060405250810190611d7b91906139d0565b9392505050565b609a8054610f8c9061365f565b6000611d9b60ae612755565b51905090565b6098546000906001600160a01b03163314611dce5760405162461bcd60e51b815260040161043090613546565b600260015403611df05760405162461bcd60e51b8152600401610430906135ae565b60026001556000611e0083611368565b9050610e1a83828661236a565b6097546001600160a01b0316336001600160a01b031614611e405760405162461bcd60e51b8152600401610430906135fb565b60b95560b8805460ff196001600160a01b0390931661010002929092166001600160a81b0319909216919091176001179055565b60995460009081906001600160a01b03163314611ea35760405162461bcd60e51b81526004016104309061379e565b600260015403611ec55760405162461bcd60e51b8152600401610430906135ae565b60026001556000849003611f0e5760405162461bcd60e51b815260206004820152601060248201526f16915493d7d593d315535157d4d1539560821b6044820152606401610430565b60008311611f2e5760405162461bcd60e51b81526004016104309061380a565b60a05415611f715760405162461bcd60e51b815260206004820152601060248201526f1093d553951657d254d7d0d313d4d15160821b6044820152606401610430565b60008311611f915760405162461bcd60e51b81526004016104309061380a565b6000611f9b6123fa565b905060006001600160a01b038716611fb4575034611fc2565b611fbf878988612762565b90505b600082815260a26020908152604080832080546001600160a01b03808e166001600160a01b03199283161790925560a384528285208054928d169290911691909117905560a4825280832084905560a5825280832042905560a9825280832088905560aa9091528120805460ff1916905560ac805460018101825591527f0a0a1bcadd9f6a5539376fa82276e043ae3cb4499daaaf8136572ecb1f9f0d600182905561206f60ae886127f8565b50600180559097909650945050505050565b60b5818154811061108157600080fd5b6099546000906001600160a01b031633146120be5760405162461bcd60e51b81526004016104309061379e565b6002600154036120e05760405162461bcd60e51b8152600401610430906135ae565b600260015560a054156121255760405162461bcd60e51b815260206004820152600d60248201526c434c4f5345445f424f554e545960981b6044820152606401610430565b600084815260a6602052604090205460ff161561217f5760405162461bcd60e51b815260206004820152601860248201527711115413d4d25517d053149150511657d49151955391115160421b6044820152606401610430565b600084815260a260205260409020546001600160a01b038381169116146121f25760405162461bcd60e51b815260206004820152602160248201527f4f4e4c595f46554e4445525f43414e5f524551554553545f455854454e53494f6044820152602760f91b6064820152608401610430565b600084815260a9602052604090205461220c9084906138fe565b600094855260a960205260409094208490555050600180555090565b6097546001600160a01b0316336001600160a01b03161461225b5760405162461bcd60e51b8152600401610430906135fb565b60a054156122ab5760405162461bcd60e51b815260206004820152601d60248201527f4f4e474f494e475f424f554e54595f414c52454144595f434c4f5345440000006044820152606401610430565b609d546001600160a01b038281169116146123085760405162461bcd60e51b815260206004820152601860248201527f424f554e54595f434c4f5345525f4e4f545f49535355455200000000000000006044820152606401610430565b50600160a05542609c55565b606061232060ae612755565b905090565b6098546001600160a01b0316331461234f5760405162461bcd60e51b815260040161043090613546565b600090815260b760205260409020805460ff19166001179055565b6001600160a01b0383166123875761238281836126bc565b505050565b61238283828461270d565b604051632142170760e11b81526001600160a01b038381166004830152306024830152604482018390528491908216906342842e0e906064015b600060405180830381600087803b1580156123e657600080fd5b505af11580156115a4573d6000803e3d6000fd5b60ac5460405160009161241391609a91906020016139e9565b60405160208183030381529060405280519060200120905090565b600054610100900460ff166124555760405162461bcd60e51b815260040161043090613a7d565b61245d61280d565b565b600054610100900460ff166124865760405162461bcd60e51b815260040161043090613a7d565b609880546001600160a01b0319166001600160a01b0392909216919091179055565b600054610100900460ff166124cf5760405162461bcd60e51b815260040161043090613a7d565b609980546001600160a01b0319166001600160a01b0392909216919091179055565b805163ffffffff8116612562576000806000846020015180602001905181019061251b9190613ad8565b600060b15560b880546001600160a81b031916841515610100600160a81b031916176101006001600160a01b0385160217905560b9819055919450925090505b5050505050565b60001963ffffffff8216016125f357600080600080600086602001518060200190518101906125919190613b18565b600160b15560b280546001600160a01b0319166001600160a01b0396871617905560b39390935560b880546001600160a81b031916921515610100600160a81b0319169290921761010091909416029290921790915560b95550505050505050565b60011963ffffffff82160161263c5760008060008085602001518060200190518101906126209190613bea565b93509350935093506126348484848461283a565b505050505050565b60021963ffffffff8216016126745760008083602001518060200190518101906126669190613c51565b91509150611135828261292b565b60405162461bcd60e51b815260206004820152601f60248201527f4f513a20756e6b6e6f776e20696e6974206f7065726174696f6e2074797065006044820152606401610430565b610f7b6001600160a01b03831682612967565b604051632142170760e11b81523060048201526001600160a01b038381166024830152604482018390528491908216906342842e0e906064016123cc565b826111356001600160a01b0382168484612a80565b60008282604051602001612737929190613c97565b60405160208183030381529060405280519060200120905092915050565b60606000611d7b83612ae3565b60008061276e85611d0e565b9050846127866001600160a01b038216863087612b3f565b600061279187611d0e565b9050828110156127e35760405162461bcd60e51b815260206004820152601a60248201527f544f4b454e5f5452414e534645525f494e5f4f564552464c4f570000000000006044820152606401610430565b6127ed8382613cc5565b979650505050505050565b6000611d7b836001600160a01b038416612b77565b600054610100900460ff166128345760405162461bcd60e51b815260040161043090613a7d565b60018055565b600260b1556000805b85518110156128855785818151811061285e5761285e6135e5565b60200260200101518261287191906138fe565b91508061287d81613646565b915050612843565b50806064146128d65760405162461bcd60e51b815260206004820152601f60248201527f5041594f55545f5343484544554c455f4d5553545f4144445f544f5f313030006044820152606401610430565b84516128e99060b5906020880190612e54565b505060b880546001600160a01b0390931661010002610100600160a81b0319941515949094166001600160a81b03199093169290921792909217905560b95550565b600360b15581516129439060b5906020850190612e54565b5060b280546001600160a01b0319166001600160a01b039290921691909117905550565b804710156129b75760405162461bcd60e51b815260206004820152601d60248201527f416464726573733a20696e73756666696369656e742062616c616e63650000006044820152606401610430565b6000826001600160a01b03168260405160006040518083038185875af1925050503d8060008114612a04576040519150601f19603f3d011682016040523d82523d6000602084013e612a09565b606091505b50509050806123825760405162461bcd60e51b815260206004820152603a60248201527f416464726573733a20756e61626c6520746f2073656e642076616c75652c207260448201527f6563697069656e74206d617920686176652072657665727465640000000000006064820152608401610430565b6040516001600160a01b03831660248201526044810182905261238290849063a9059cbb60e01b906064015b60408051601f198184030181529190526020810180516001600160e01b03166001600160e01b031990931692909217909152612bc6565b606081600001805480602002602001604051908101604052809291908181526020018280548015612b3357602002820191906000526020600020905b815481526020019060010190808311612b1f575b50505050509050919050565b6040516001600160a01b03808516602483015283166044820152606481018290526111359085906323b872dd60e01b90608401612aac565b6000818152600183016020526040812054612bbe57508154600181810184556000848152602080822090930184905584548482528286019093526040902091909155611388565b506000611388565b6000612c1b826040518060400160405280602081526020017f5361666545524332303a206c6f772d6c6576656c2063616c6c206661696c6564815250856001600160a01b0316612c989092919063ffffffff16565b8051909150156123825780806020019051810190612c399190613cd8565b6123825760405162461bcd60e51b815260206004820152602a60248201527f5361666545524332303a204552433230206f7065726174696f6e20646964206e6044820152691bdd081cdd58d8d9595960b21b6064820152608401610430565b6060612ca78484600085612caf565b949350505050565b606082471015612d105760405162461bcd60e51b815260206004820152602660248201527f416464726573733a20696e73756666696369656e742062616c616e636520666f6044820152651c8818d85b1b60d21b6064820152608401610430565b6001600160a01b0385163b612d675760405162461bcd60e51b815260206004820152601d60248201527f416464726573733a2063616c6c20746f206e6f6e2d636f6e74726163740000006044820152606401610430565b600080866001600160a01b03168587604051612d839190613cf3565b60006040518083038185875af1925050503d8060008114612dc0576040519150601f19603f3d011682016040523d82523d6000602084013e612dc5565b606091505b50915091506127ed82828660608315612ddf575081611d7b565b825115612def5782518084602001fd5b8160405162461bcd60e51b81526004016104309190612f60565b828054828255906000526020600020908101928215612e44579160200282015b82811115612e44578235825591602001919060010190612e29565b50612e50929150612e8f565b5090565b828054828255906000526020600020908101928215612e44579160200282015b82811115612e44578251825591602001919060010190612e74565b5b80821115612e505760008155600101612e90565b6001600160a01b0381168114612eb957600080fd5b50565b803561138e81612ea4565b60008060408385031215612eda57600080fd5b8235612ee581612ea4565b946020939093013593505050565b600060208284031215612f0557600080fd5b8135611d7b81612ea4565b60005b83811015612f2b578181015183820152602001612f13565b50506000910152565b60008151808452612f4c816020860160208601612f10565b601f01601f19169290920160200192915050565b602081526000611d7b6020830184612f34565b634e487b7160e01b600052604160045260246000fd5b604051601f8201601f191681016001600160401b0381118282101715612fb157612fb1612f73565b604052919050565b600082601f830112612fca57600080fd5b81356001600160401b03811115612fe357612fe3612f73565b612ff6601f8201601f1916602001612f89565b81815284602083860101111561300b57600080fd5b816020850160208301376000918101602001919091529392505050565b6000806000806080858703121561303e57600080fd5b843561304981612ea4565b9350602085013561305981612ea4565b92506040850135915060608501356001600160401b0381111561307b57600080fd5b61308787828801612fb9565b91505092959194509250565b6000602082840312156130a557600080fd5b5035919050565b60008083601f8401126130be57600080fd5b5081356001600160401b038111156130d557600080fd5b6020830191508360208260051b85010111156130f057600080fd5b9250929050565b60008060006040848603121561310c57600080fd5b83356001600160401b0381111561312257600080fd5b61312e868287016130ac565b909450925050602084013561314281612ea4565b809150509250925092565b60008060006040848603121561316257600080fd5b833561316d81612ea4565b925060208401356001600160401b038082111561318957600080fd5b818601915086601f83011261319d57600080fd5b8135818111156131ac57600080fd5b8760208285010111156131be57600080fd5b6020830194508093505050509250925092565b600080600080600060a086880312156131e957600080fd5b85356131f481612ea4565b9450602086013561320481612ea4565b94979496505050506040830135926060810135926080909101359150565b6020808252825182820181905260009190848201906040850190845b8181101561325a5783518352928401929184019160010161323e565b50909695505050505050565b60006040828403121561327857600080fd5b604051604081016001600160401b03828210818311171561329b5761329b612f73565b816040528293508435915063ffffffff821682146132b857600080fd5b908252602084013590808211156132ce57600080fd5b506132db85828601612fb9565b6020830152505092915050565b600080600080600080600060e0888a03121561330357600080fd5b87356001600160401b038082111561331a57600080fd5b6133268b838c01612fb9565b985060208a0135915061333882612ea4565b9096506040890135908082111561334e57600080fd5b61335a8b838c01612fb9565b965060608a0135915061336c82612ea4565b81955061337b60808b01612ebc565b945061338960a08b01612ebc565b935060c08a013591508082111561339f57600080fd5b506133ac8a828b01613266565b91505092959891949750929550565b600080604083850312156133ce57600080fd5b8235915060208301356133e081612ea4565b809150509250929050565b600080602083850312156133fe57600080fd5b82356001600160401b0381111561341457600080fd5b613420858286016130ac565b90969095509350505050565b60008060006060848603121561344157600080fd5b833561344c81612ea4565b925060208401359150604084013561314281612ea4565b6000806040838503121561347657600080fd5b823561348181612ea4565b915060208301356133e081612ea4565b600080600080608085870312156134a757600080fd5b84356134b281612ea4565b935060208501356134c281612ea4565b93969395505050506040820135916060013590565b6000806000606084860312156134ec57600080fd5b8335925060208401359150604084013561314281612ea4565b6020808252825182820181905260009190848201906040850190845b8181101561325a5783516001600160a01b031683529284019291840191600101613521565b60208082526042908201527f436c61696d4d616e616765724f776e61626c653a2063616c6c6572206973206e60408201527f6f74207468652063757272656e74204f70656e5120436c61696d204d616e616760608201526132b960f11b608082015260a00190565b6020808252601f908201527f5265656e7472616e637947756172643a207265656e7472616e742063616c6c00604082015260600190565b634e487b7160e01b600052603260045260246000fd5b6020808252818101527f4d6574686f64206973206f6e6c792063616c6c61626c65206279204f70656e51604082015260600190565b634e487b7160e01b600052601160045260246000fd5b60006001820161365857613658613630565b5060010190565b600181811c9082168061367357607f821691505b60208210810361369357634e487b7160e01b600052602260045260246000fd5b50919050565b601f82111561238257600081815260208120601f850160051c810160208610156136c05750805b601f850160051c820191505b81811015612634578281556001016136cc565b6001600160401b038311156136f6576136f6612f73565b61370a83613704835461365f565b83613699565b6000601f84116001811461373e57600085156137265750838201355b600019600387901b1c1916600186901b17835561255b565b600083815260209020601f19861690835b8281101561376f578685013582556020948501946001909201910161374f565b508682101561378c5760001960f88860031b161c19848701351681555b505060018560011b0183555050505050565b60208082526046908201527f4465706f7369744d616e616765724f776e61626c653a2063616c6c657220697360408201527f206e6f74207468652063757272656e74204f70656e51204465706f736974204d60608201526530b730b3b2b960d11b608082015260a00190565b6020808252818101527f45585049524154494f4e5f4e4f545f475245415445525f5448414e5f5a45524f604082015260600190565b81516001600160401b0381111561385857613858612f73565b61386c81613866845461365f565b84613699565b602080601f8311600181146138a157600084156138895750858301515b600019600386901b1c1916600185901b178555612634565b600085815260208120601f198616915b828110156138d0578886015182559484019460019091019084016138b1565b50858210156138ee5787850151600019600388901b60f8161c191681555b5050505050600190811b01905550565b8082018082111561138857611388613630565b6000806000806080858703121561392757600080fd5b843561393281612ea4565b935060208501356001600160401b038082111561394e57600080fd5b61395a88838901612fb9565b94506040870135915061396c82612ea4565b9092506060860135908082111561398257600080fd5b5061308787828801612fb9565b60008160001904831182151516156139a9576139a9613630565b500290565b6000826139cb57634e487b7160e01b600052601260045260246000fd5b500490565b6000602082840312156139e257600080fd5b5051919050565b6040815260008084546139fb8161365f565b8060408601526060600180841660008114613a1d5760018114613a3757613a68565b60ff1985168884015283151560051b880183019550613a68565b8960005260208060002060005b86811015613a5f5781548b8201870152908401908201613a44565b8a018501975050505b50505050506020929092019290925292915050565b6020808252602b908201527f496e697469616c697a61626c653a20636f6e7472616374206973206e6f74206960408201526a6e697469616c697a696e6760a81b606082015260800190565b8051801515811461138e57600080fd5b600080600060608486031215613aed57600080fd5b613af684613ac8565b92506020840151613b0681612ea4565b80925050604084015190509250925092565b600080600080600060a08688031215613b3057600080fd5b8551613b3b81612ea4565b60208701519095509350613b5160408701613ac8565b92506060860151613b6181612ea4565b80925050608086015190509295509295909350565b600082601f830112613b8757600080fd5b815160206001600160401b03821115613ba257613ba2612f73565b8160051b613bb1828201612f89565b9283528481018201928281019087851115613bcb57600080fd5b83870192505b848310156127ed57825182529183019190830190613bd1565b60008060008060808587031215613c0057600080fd5b84516001600160401b03811115613c1657600080fd5b613c2287828801613b76565b945050613c3160208601613ac8565b92506040850151613c4181612ea4565b6060959095015193969295505050565b60008060408385031215613c6457600080fd5b82516001600160401b03811115613c7a57600080fd5b613c8685828601613b76565b92505060208301516133e081612ea4565b604081526000613caa6040830185612f34565b8281036020840152613cbc8185612f34565b95945050505050565b8181038181111561138857611388613630565b600060208284031215613cea57600080fd5b611d7b82613ac8565b60008251613d05818460208701612f10565b919091019291505056fea26469706673582212206bd6d005be03acde1a6cf2ef87a47bf036e29bd7967d33427f6c5d11ea1b14b264736f6c63430008100033",
  "linkReferences": {},
  "deployedLinkReferences": {}
}