{
  "_format": "hh-sol-artifact-1",
  "contractName": "BountyV1",
  "sourceName": "contracts/Bounty/Implementations/BountyV1.sol",
  "abi": [
    {
      "inputs": [],
      "stateMutability": "nonpayable",
      "type": "constructor"
    },
    {
      "stateMutability": "nonpayable",
      "type": "fallback"
    },
    {
      "inputs": [],
      "name": "bountyClosedTime",
      "outputs": [
        {
          "internalType": "uint256",
          "name": "",
          "type": "uint256"
        }
      ],
      "stateMutability": "view",
      "type": "function"
    },
    {
      "inputs": [],
      "name": "bountyCreatedTime",
      "outputs": [
        {
          "internalType": "uint256",
          "name": "",
          "type": "uint256"
        }
      ],
      "stateMutability": "view",
      "type": "function"
    },
    {
      "inputs": [],
      "name": "bountyId",
      "outputs": [
        {
          "internalType": "string",
          "name": "",
          "type": "string"
        }
      ],
      "stateMutability": "view",
      "type": "function"
    },
    {
      "inputs": [
        {
          "internalType": "address",
          "name": "_payoutAddress",
          "type": "address"
        },
        {
          "internalType": "address",
          "name": "_tokenAddress",
          "type": "address"
        }
      ],
      "name": "claimBalance",
      "outputs": [
        {
          "internalType": "uint256",
          "name": "",
          "type": "uint256"
        }
      ],
      "stateMutability": "nonpayable",
      "type": "function"
    },
    {
      "inputs": [
        {
          "internalType": "address",
          "name": "_payoutAddress",
          "type": "address"
        },
        {
          "internalType": "bytes32",
          "name": "_depositId",
          "type": "bytes32"
        }
      ],
      "name": "claimNft",
      "outputs": [],
      "stateMutability": "nonpayable",
      "type": "function"
    },
    {
      "inputs": [
        {
          "internalType": "address",
          "name": "_payoutAddress",
          "type": "address"
        }
      ],
      "name": "close",
      "outputs": [],
      "stateMutability": "nonpayable",
      "type": "function"
    },
    {
      "inputs": [],
      "name": "closer",
      "outputs": [
        {
          "internalType": "address",
          "name": "",
          "type": "address"
        }
      ],
      "stateMutability": "view",
      "type": "function"
    },
    {
      "inputs": [
        {
          "internalType": "bytes32",
          "name": "",
          "type": "bytes32"
        }
      ],
      "name": "depositTime",
      "outputs": [
        {
          "internalType": "uint256",
          "name": "",
          "type": "uint256"
        }
      ],
      "stateMutability": "view",
      "type": "function"
    },
    {
      "inputs": [
        {
          "internalType": "uint256",
          "name": "",
          "type": "uint256"
        }
      ],
      "name": "deposits",
      "outputs": [
        {
          "internalType": "bytes32",
          "name": "",
          "type": "bytes32"
        }
      ],
      "stateMutability": "view",
      "type": "function"
    },
    {
      "inputs": [
        {
          "internalType": "bytes32",
          "name": "",
          "type": "bytes32"
        }
      ],
      "name": "expiration",
      "outputs": [
        {
          "internalType": "uint256",
          "name": "",
          "type": "uint256"
        }
      ],
      "stateMutability": "view",
      "type": "function"
    },
    {
      "inputs": [
        {
          "internalType": "bytes32",
          "name": "",
          "type": "bytes32"
        }
      ],
      "name": "funder",
      "outputs": [
        {
          "internalType": "address",
          "name": "",
          "type": "address"
        }
      ],
      "stateMutability": "view",
      "type": "function"
    },
    {
      "inputs": [],
      "name": "getDeposits",
      "outputs": [
        {
          "internalType": "bytes32[]",
          "name": "",
          "type": "bytes32[]"
        }
      ],
      "stateMutability": "view",
      "type": "function"
    },
    {
      "inputs": [
        {
          "internalType": "address",
          "name": "_tokenAddress",
          "type": "address"
        }
      ],
      "name": "getERC20Balance",
      "outputs": [
        {
          "internalType": "uint256",
          "name": "balance",
          "type": "uint256"
        }
      ],
      "stateMutability": "view",
      "type": "function"
    },
    {
      "inputs": [],
      "name": "getNftDeposits",
      "outputs": [
        {
          "internalType": "bytes32[]",
          "name": "",
          "type": "bytes32[]"
        }
      ],
      "stateMutability": "view",
      "type": "function"
    },
    {
      "inputs": [],
      "name": "getTokenAddresses",
      "outputs": [
        {
          "internalType": "address[]",
          "name": "",
          "type": "address[]"
        }
      ],
      "stateMutability": "view",
      "type": "function"
    },
    {
      "inputs": [
        {
          "internalType": "string",
          "name": "_bountyId",
          "type": "string"
        },
        {
          "internalType": "address",
          "name": "_issuer",
          "type": "address"
        },
        {
          "internalType": "string",
          "name": "_organization",
          "type": "string"
        },
        {
          "internalType": "address",
          "name": "_openQ",
          "type": "address"
        }
      ],
      "name": "initialize",
      "outputs": [],
      "stateMutability": "nonpayable",
      "type": "function"
    },
    {
      "inputs": [
        {
          "internalType": "bytes32",
          "name": "",
          "type": "bytes32"
        }
      ],
      "name": "isNFT",
      "outputs": [
        {
          "internalType": "bool",
          "name": "",
          "type": "bool"
        }
      ],
      "stateMutability": "view",
      "type": "function"
    },
    {
      "inputs": [],
      "name": "issuer",
      "outputs": [
        {
          "internalType": "address",
          "name": "",
          "type": "address"
        }
      ],
      "stateMutability": "view",
      "type": "function"
    },
    {
      "inputs": [],
      "name": "newFoo",
      "outputs": [
        {
          "internalType": "uint256",
          "name": "",
          "type": "uint256"
        }
      ],
      "stateMutability": "view",
      "type": "function"
    },
    {
      "inputs": [],
      "name": "nftDepositLimit",
      "outputs": [
        {
          "internalType": "uint256",
          "name": "",
          "type": "uint256"
        }
      ],
      "stateMutability": "view",
      "type": "function"
    },
    {
      "inputs": [
        {
          "internalType": "uint256",
          "name": "",
          "type": "uint256"
        }
      ],
      "name": "nftDeposits",
      "outputs": [
        {
          "internalType": "bytes32",
          "name": "",
          "type": "bytes32"
        }
      ],
      "stateMutability": "view",
      "type": "function"
    },
    {
      "inputs": [
        {
          "internalType": "address",
          "name": "",
          "type": "address"
        },
        {
          "internalType": "address",
          "name": "",
          "type": "address"
        },
        {
          "internalType": "uint256",
          "name": "",
          "type": "uint256"
        },
        {
          "internalType": "bytes",
          "name": "",
          "type": "bytes"
        }
      ],
      "name": "onERC721Received",
      "outputs": [
        {
          "internalType": "bytes4",
          "name": "",
          "type": "bytes4"
        }
      ],
      "stateMutability": "pure",
      "type": "function"
    },
    {
      "inputs": [],
      "name": "openQ",
      "outputs": [
        {
          "internalType": "address",
          "name": "",
          "type": "address"
        }
      ],
      "stateMutability": "view",
      "type": "function"
    },
    {
      "inputs": [],
      "name": "organization",
      "outputs": [
        {
          "internalType": "string",
          "name": "",
          "type": "string"
        }
      ],
      "stateMutability": "view",
      "type": "function"
    },
    {
      "inputs": [
        {
          "internalType": "bytes32",
          "name": "",
          "type": "bytes32"
        }
      ],
      "name": "payoutAddress",
      "outputs": [
        {
          "internalType": "address",
          "name": "",
          "type": "address"
        }
      ],
      "stateMutability": "view",
      "type": "function"
    },
    {
      "inputs": [
        {
          "internalType": "address",
          "name": "_funder",
          "type": "address"
        },
        {
          "internalType": "address",
          "name": "_tokenAddress",
          "type": "address"
        },
        {
          "internalType": "uint256",
          "name": "_volume",
          "type": "uint256"
        },
        {
          "internalType": "uint256",
          "name": "_expiration",
          "type": "uint256"
        }
      ],
      "name": "receiveFunds",
      "outputs": [
        {
          "internalType": "bytes32",
          "name": "",
          "type": "bytes32"
        },
        {
          "internalType": "uint256",
          "name": "",
          "type": "uint256"
        }
      ],
      "stateMutability": "payable",
      "type": "function"
    },
    {
      "inputs": [
        {
          "internalType": "address",
          "name": "_sender",
          "type": "address"
        },
        {
          "internalType": "address",
          "name": "_tokenAddress",
          "type": "address"
        },
        {
          "internalType": "uint256",
          "name": "_tokenId",
          "type": "uint256"
        },
        {
          "internalType": "uint256",
          "name": "_expiration",
          "type": "uint256"
        }
      ],
      "name": "receiveNft",
      "outputs": [
        {
          "internalType": "bytes32",
          "name": "",
          "type": "bytes32"
        }
      ],
      "stateMutability": "nonpayable",
      "type": "function"
    },
    {
      "inputs": [
        {
          "internalType": "bytes32",
          "name": "_depositId",
          "type": "bytes32"
        },
        {
          "internalType": "address",
          "name": "_funder",
          "type": "address"
        }
      ],
      "name": "refundDeposit",
      "outputs": [],
      "stateMutability": "nonpayable",
      "type": "function"
    },
    {
      "inputs": [
        {
          "internalType": "bytes32",
          "name": "",
          "type": "bytes32"
        }
      ],
      "name": "refunded",
      "outputs": [
        {
          "internalType": "bool",
          "name": "",
          "type": "bool"
        }
      ],
      "stateMutability": "view",
      "type": "function"
    },
    {
      "inputs": [],
      "name": "status",
      "outputs": [
        {
          "internalType": "uint256",
          "name": "",
          "type": "uint256"
        }
      ],
      "stateMutability": "view",
      "type": "function"
    },
    {
      "inputs": [
        {
          "internalType": "bytes32",
          "name": "",
          "type": "bytes32"
        }
      ],
      "name": "tokenAddress",
      "outputs": [
        {
          "internalType": "address",
          "name": "",
          "type": "address"
        }
      ],
      "stateMutability": "view",
      "type": "function"
    },
    {
      "inputs": [
        {
          "internalType": "bytes32",
          "name": "",
          "type": "bytes32"
        }
      ],
      "name": "tokenId",
      "outputs": [
        {
          "internalType": "uint256",
          "name": "",
          "type": "uint256"
        }
      ],
      "stateMutability": "view",
      "type": "function"
    },
    {
      "inputs": [
        {
          "internalType": "bytes32",
          "name": "",
          "type": "bytes32"
        }
      ],
      "name": "volume",
      "outputs": [
        {
          "internalType": "uint256",
          "name": "",
          "type": "uint256"
        }
      ],
      "stateMutability": "view",
      "type": "function"
    },
    {
      "stateMutability": "payable",
      "type": "receive"
    }
  ],
  "bytecode": "0x608060405234801561001057600080fd5b50612152806100206000396000f3fe6080604052600436106101f25760003560e01c80637dc81fa21161010d578063c17bd75e116100a0578063d6fe0f441161006f578063d6fe0f4414610639578063e129b33314610661578063ee8c24b814610681578063f05e0f7e146106a3578063f2321725146106d3576101f9565b8063c17bd75e146105ce578063c74073a1146105e3578063cb2da3db14610603578063cb4436b714610623576101f9565b80639a67a706116100dc5780639a67a70614610542578063b02c43d014610558578063b588d22514610578578063b99bb99014610598576101f9565b80637dc81fa2146104ab578063968b098f146104c957806397bb3ce9146104f6578063995280b01461052c576101f9565b806323bd4d7a116101855780636b149d87116101545780636b149d87146104345780637044f2821461045657806371ec4ebf1461047657806377ede8a614610496576101f9565b806323bd4d7a1461038f57806356406fa5146103b157806359ba8344146103de578063641411f814610414576101f9565b80631d143848116101c15780631d143848146102df5780631ecfacee14610317578063200d2ed214610339578063235b2b941461034f576101f9565b80630961413d1461020b578063150b7a02146102345780631595eea4146102925780631bc5fc96146102bf576101f9565b366101f957005b34801561020557600080fd5b50600080fd5b34801561021757600080fd5b50610221606d5481565b6040519081526020015b60405180910390f35b34801561024057600080fd5b5061027961024f366004611b43565b7f150b7a023d4804d13e8c85fb27262cb750cf6ba9f9dd3bb30d90f482ceeb4b1f95945050505050565b6040516001600160e01b0319909116815260200161022b565b34801561029e57600080fd5b506102216102ad366004611bde565b60706020526000908152604090205481565b3480156102cb57600080fd5b506102216102da366004611bde565b610700565b3480156102eb57600080fd5b506069546102ff906001600160a01b031681565b6040516001600160a01b03909116815260200161022b565b34801561032357600080fd5b50610337610332366004611c9a565b610721565b005b34801561034557600080fd5b50610221606c5481565b34801561035b57600080fd5b5061037f61036a366004611bde565b60766020526000908152604090205460ff1681565b604051901515815260200161022b565b34801561039b57600080fd5b506103a46108e1565b60405161022b9190611d4b565b3480156103bd57600080fd5b506102216103cc366004611bde565b60756020526000908152604090205481565b3480156103ea57600080fd5b506102ff6103f9366004611bde565b606e602052600090815260409020546001600160a01b031681565b34801561042057600080fd5b5061033761042f366004611d7e565b61096f565b34801561044057600080fd5b50610449610bf9565b60405161022b9190611daa565b34801561046257600080fd5b50606b546102ff906001600160a01b031681565b34801561048257600080fd5b50610337610491366004611dee565b610c51565b3480156104a257600080fd5b50610449610d24565b3480156104b757600080fd5b506065546001600160a01b03166102ff565b3480156104d557600080fd5b506102216104e4366004611bde565b60716020526000908152604090205481565b34801561050257600080fd5b506102ff610511366004611bde565b606f602052600090815260409020546001600160a01b031681565b34801561053857600080fd5b5061022160675481565b34801561054e57600080fd5b50610221607b5481565b34801561056457600080fd5b50610221610573366004611bde565b610d7a565b34801561058457600080fd5b50610221610593366004611e18565b610d8a565b3480156105a457600080fd5b506102ff6105b3366004611bde565b6073602052600090815260409020546001600160a01b031681565b3480156105da57600080fd5b506103a4610dfe565b3480156105ef57600080fd5b506103376105fe366004611e18565b610e0b565b34801561060f57600080fd5b5061022161061e366004611e33565b610f10565b34801561062f57600080fd5b5061022160685481565b61064c610647366004611e5d565b610faf565b6040805192835260208301919091520161022b565b34801561066d57600080fd5b5061022161067c366004611e5d565b611192565b34801561068d57600080fd5b50610696611389565b60405161022b9190611e9f565b3480156106af57600080fd5b5061037f6106be366004611bde565b60726020526000908152604090205460ff1681565b3480156106df57600080fd5b506102216106ee366004611bde565b60746020526000908152604090205481565b6078818154811061071057600080fd5b600091825260209091200154905081565b600054610100900460ff1661073c5760005460ff1615610740565b303b155b6107a85760405162461bcd60e51b815260206004820152602e60248201527f496e697469616c697a61626c653a20636f6e747261637420697320616c72656160448201526d191e481a5b9a5d1a585b1a5e995960921b60648201526084015b60405180910390fd5b600054610100900460ff161580156107ca576000805461ffff19166101011790555b84516000036108105760405162461bcd60e51b81526020600482015260126024820152711393d7d15354151657d093d553951657d25160721b604482015260640161079f565b82516000036108595760405162461bcd60e51b81526020600482015260156024820152742727afa2a6a82a2cafa7a923a0a724ad20aa24a7a760591b604482015260640161079f565b61086161139a565b606580546001600160a01b0319166001600160a01b038416179055845161088f906066906020880190611a8e565b50606980546001600160a01b0319166001600160a01b03861617905582516108be90606a906020860190611a8e565b50426067556005606d5580156108da576000805461ff00191690555b5050505050565b606a80546108ee90611ee0565b80601f016020809104026020016040519081016040528092919081815260200182805461091a90611ee0565b80156109675780601f1061093c57610100808354040283529160200191610967565b820191906000526020600020905b81548152906001019060200180831161094a57829003601f168201915b505050505081565b6065546001600160a01b0316336001600160a01b0316146109a25760405162461bcd60e51b815260040161079f90611f1a565b6002600154036109c45760405162461bcd60e51b815260040161079f90611f4f565b600260015560008281526072602052604090205460ff1615610a285760405162461bcd60e51b815260206004820152601860248201527f4445504f5349545f414c52454144595f524546554e4445440000000000000000604482015260640161079f565b6000828152606e60205260409020546001600160a01b03828116911614610a915760405162461bcd60e51b815260206004820152601e60248201527f4f4e4c595f46554e4445525f43414e5f524551554553545f524546554e440000604482015260640161079f565b600082815260756020908152604080832054607190925290912054610ab5916113cb565b421015610b045760405162461bcd60e51b815260206004820152601860248201527f5052454d41545552455f524546554e445f524551554553540000000000000000604482015260640161079f565b6000828152607260209081526040808320805460ff19166001179055606f9091529020546001600160a01b0316610b68576000828152606e6020908152604080832054607090925290912054610b63916001600160a01b0316906113e0565b610bf1565b60008281526076602052604090205460ff1615610bb8576000828152606f6020908152604080832054606e8352818420546074909352922054610b63926001600160a01b039081169216906113f7565b6000828152606f6020908152604080832054606e8352818420546070909352922054610bf1926001600160a01b03908116921690611469565b505060018055565b60606077805480602002602001604051908101604052809291908181526020018280548015610c4757602002820191906000526020600020905b815481526020019060010190808311610c33575b5050505050905090565b6065546001600160a01b0316336001600160a01b031614610c845760405162461bcd60e51b815260040161079f90611f1a565b600260015403610ca65760405162461bcd60e51b815260040161079f90611f4f565b6002600155606c5415610cf45760405162461bcd60e51b8152602060048201526016602482015275434c41494d494e475f434c4f5345445f424f554e545960501b604482015260640161079f565b6000818152606f6020908152604080832054607490925290912054610bf1916001600160a01b03169084906113f7565b60606078805480602002602001604051908101604052809291908181526020018280548015610c475760200282019190600052602060002090815481526020019060010190808311610c33575050505050905090565b6077818154811061071057600080fd5b6040516370a0823160e01b815230600482015260009082906001600160a01b038216906370a0823190602401602060405180830381865afa158015610dd3573d6000803e3d6000fd5b505050506040513d601f19601f82011682018060405250810190610df79190611f86565b9392505050565b606680546108ee90611ee0565b6065546001600160a01b0316336001600160a01b031614610e3e5760405162461bcd60e51b815260040161079f90611f1a565b306001600160a01b031663200d2ed26040518163ffffffff1660e01b8152600401602060405180830381865afa158015610e7c573d6000803e3d6000fd5b505050506040513d601f19601f82011682018060405250810190610ea09190611f86565b15610ee55760405162461bcd60e51b8152602060048201526015602482015274434c4f53494e475f434c4f5345445f424f554e545960581b604482015260640161079f565b6001606c55606b80546001600160a01b0319166001600160a01b039290921691909117905542606855565b6065546000906001600160a01b0316336001600160a01b031614610f465760405162461bcd60e51b815260040161079f90611f1a565b600260015403610f685760405162461bcd60e51b815260040161079f90611f4f565b600260015560006001600160a01b038316610f8e575047610f8984826113e0565b610fa4565b610f9783610d8a565b9050610fa4838583611469565b600180559392505050565b60655460009081906001600160a01b0316336001600160a01b031614610fe75760405162461bcd60e51b815260040161079f90611f1a565b6002600154036110095760405162461bcd60e51b815260040161079f90611f4f565b600260015560008490036110525760405162461bcd60e51b815260206004820152601060248201526f16915493d7d593d315535157d4d1539560821b604482015260640161079f565b600083116110a25760405162461bcd60e51b815260206004820181905260248201527f45585049524154494f4e5f4e4f545f475245415445525f5448414e5f5a45524f604482015260640161079f565b60006110ac611484565b905060006001600160a01b0387166110c55750346110d3565b6110d08789886114b8565b90505b6000828152606e6020908152604080832080546001600160a01b03808e166001600160a01b031992831617909255606f84528285208054928d169290911691909117905560708252808320849055607182528083204290556075825280832088905560769091528120805460ff191690556077805460018101825591527f7901cb5addcae2d210a531c604a76a660d77039093bac314de0816a16392aff10182905561118060798861154e565b50600180559097909650945050505050565b6065546000906001600160a01b0316336001600160a01b0316146111c85760405162461bcd60e51b815260040161079f90611f1a565b6002600154036111ea5760405162461bcd60e51b815260040161079f90611f4f565b6002600155606d54607854106112425760405162461bcd60e51b815260206004820152601960248201527f4e46545f4445504f5349545f4c494d49545f5245414348454400000000000000604482015260640161079f565b600082116112925760405162461bcd60e51b815260206004820181905260248201527f45585049524154494f4e5f4e4f545f475245415445525f5448414e5f5a45524f604482015260640161079f565b61129d848685611563565b60006112a7611484565b6000818152606e6020908152604080832080546001600160a01b039b8c166001600160a01b031991821617909155606f835281842080549a909b16991698909817909855607188528681204290556074885286812095909555607587528585209390935550506076909352908120805460ff19166001908117909155607780548083019091557f7901cb5addcae2d210a531c604a76a660d77039093bac314de0816a16392aff10183905560788054808301825592527f8dc6fb69531d98d70dc0420e638d2dfd04e09e1ec783ede9aac77da9c5a0dac4909101829055805590565b606061139560796115a1565b905090565b600054610100900460ff166113c15760405162461bcd60e51b815260040161079f90611f9f565b6113c96115ae565b565b60006113d78284612000565b90505b92915050565b6113f36001600160a01b038316826115db565b5050565b604051632142170760e11b81523060048201526001600160a01b038381166024830152604482018390528491908216906342842e0e906064015b600060405180830381600087803b15801561144b57600080fd5b505af115801561145f573d6000803e3d6000fd5b5050505050505050565b8261147e6001600160a01b03821684846116f9565b50505050565b60775460405160009161149d9160669190602001612018565b60405160208183030381529060405280519060200120905090565b6000806114c485610d8a565b9050846114dc6001600160a01b03821686308761175c565b60006114e787610d8a565b9050828110156115395760405162461bcd60e51b815260206004820152601a60248201527f544f4b454e5f5452414e534645525f494e5f4f564552464c4f57000000000000604482015260640161079f565b6115438184611794565b979650505050505050565b60006113d7836001600160a01b0384166117a0565b604051632142170760e11b81526001600160a01b038381166004830152306024830152604482018390528491908216906342842e0e90606401611431565b60606000610df7836117ef565b600054610100900460ff166115d55760405162461bcd60e51b815260040161079f90611f9f565b60018055565b8047101561162b5760405162461bcd60e51b815260206004820152601d60248201527f416464726573733a20696e73756666696369656e742062616c616e6365000000604482015260640161079f565b6000826001600160a01b03168260405160006040518083038185875af1925050503d8060008114611678576040519150601f19603f3d011682016040523d82523d6000602084013e61167d565b606091505b50509050806116f45760405162461bcd60e51b815260206004820152603a60248201527f416464726573733a20756e61626c6520746f2073656e642076616c75652c207260448201527f6563697069656e74206d61792068617665207265766572746564000000000000606482015260840161079f565b505050565b6040516001600160a01b0383166024820152604481018290526116f490849063a9059cbb60e01b906064015b60408051601f198184030181529190526020810180516001600160e01b03166001600160e01b03199093169290921790915261184b565b6040516001600160a01b038085166024830152831660448201526064810182905261147e9085906323b872dd60e01b90608401611725565b60006113d782846120c7565b60008181526001830160205260408120546117e7575081546001818101845560008481526020808220909301849055845484825282860190935260409020919091556113da565b5060006113da565b60608160000180548060200260200160405190810160405280929190818152602001828054801561183f57602002820191906000526020600020905b81548152602001906001019080831161182b575b50505050509050919050565b60006118a0826040518060400160405280602081526020017f5361666545524332303a206c6f772d6c6576656c2063616c6c206661696c6564815250856001600160a01b031661191d9092919063ffffffff16565b8051909150156116f457808060200190518101906118be91906120de565b6116f45760405162461bcd60e51b815260206004820152602a60248201527f5361666545524332303a204552433230206f7065726174696f6e20646964206e6044820152691bdd081cdd58d8d9595960b21b606482015260840161079f565b606061192c8484600085611934565b949350505050565b6060824710156119955760405162461bcd60e51b815260206004820152602660248201527f416464726573733a20696e73756666696369656e742062616c616e636520666f6044820152651c8818d85b1b60d21b606482015260840161079f565b6001600160a01b0385163b6119ec5760405162461bcd60e51b815260206004820152601d60248201527f416464726573733a2063616c6c20746f206e6f6e2d636f6e7472616374000000604482015260640161079f565b600080866001600160a01b03168587604051611a089190612100565b60006040518083038185875af1925050503d8060008114611a45576040519150601f19603f3d011682016040523d82523d6000602084013e611a4a565b606091505b509150915061154382828660608315611a64575081610df7565b825115611a745782518084602001fd5b8160405162461bcd60e51b815260040161079f9190611d4b565b828054611a9a90611ee0565b90600052602060002090601f016020900481019282611abc5760008555611b02565b82601f10611ad557805160ff1916838001178555611b02565b82800160010185558215611b02579182015b82811115611b02578251825591602001919060010190611ae7565b50611b0e929150611b12565b5090565b5b80821115611b0e5760008155600101611b13565b80356001600160a01b0381168114611b3e57600080fd5b919050565b600080600080600060808688031215611b5b57600080fd5b611b6486611b27565b9450611b7260208701611b27565b935060408601359250606086013567ffffffffffffffff80821115611b9657600080fd5b818801915088601f830112611baa57600080fd5b813581811115611bb957600080fd5b896020828501011115611bcb57600080fd5b9699959850939650602001949392505050565b600060208284031215611bf057600080fd5b5035919050565b634e487b7160e01b600052604160045260246000fd5b600082601f830112611c1e57600080fd5b813567ffffffffffffffff80821115611c3957611c39611bf7565b604051601f8301601f19908116603f01168101908282118183101715611c6157611c61611bf7565b81604052838152866020858801011115611c7a57600080fd5b836020870160208301376000602085830101528094505050505092915050565b60008060008060808587031215611cb057600080fd5b843567ffffffffffffffff80821115611cc857600080fd5b611cd488838901611c0d565b9550611ce260208801611b27565b94506040870135915080821115611cf857600080fd5b50611d0587828801611c0d565b925050611d1460608601611b27565b905092959194509250565b60005b83811015611d3a578181015183820152602001611d22565b8381111561147e5750506000910152565b6020815260008251806020840152611d6a816040850160208701611d1f565b601f01601f19169190910160400192915050565b60008060408385031215611d9157600080fd5b82359150611da160208401611b27565b90509250929050565b6020808252825182820181905260009190848201906040850190845b81811015611de257835183529284019291840191600101611dc6565b50909695505050505050565b60008060408385031215611e0157600080fd5b611e0a83611b27565b946020939093013593505050565b600060208284031215611e2a57600080fd5b6113d782611b27565b60008060408385031215611e4657600080fd5b611e4f83611b27565b9150611da160208401611b27565b60008060008060808587031215611e7357600080fd5b611e7c85611b27565b9350611e8a60208601611b27565b93969395505050506040820135916060013590565b6020808252825182820181905260009190848201906040850190845b81811015611de25783516001600160a01b031683529284019291840191600101611ebb565b600181811c90821680611ef457607f821691505b602082108103611f1457634e487b7160e01b600052602260045260246000fd5b50919050565b6020808252818101527f4d6574686f64206973206f6e6c792063616c6c61626c65206279204f70656e51604082015260600190565b6020808252601f908201527f5265656e7472616e637947756172643a207265656e7472616e742063616c6c00604082015260600190565b600060208284031215611f9857600080fd5b5051919050565b6020808252602b908201527f496e697469616c697a61626c653a20636f6e7472616374206973206e6f74206960408201526a6e697469616c697a696e6760a81b606082015260800190565b634e487b7160e01b600052601160045260246000fd5b6000821982111561201357612013611fea565b500190565b60408152600080845481600182811c91508083168061203857607f831692505b6020808410820361205757634e487b7160e01b86526022600452602486fd5b60408801849052606088018280156120765760018114612087576120b2565b60ff198716825282820197506120b2565b60008c81526020902060005b878110156120ac57815484820152908601908401612093565b83019850505b50509690960196909652509095945050505050565b6000828210156120d9576120d9611fea565b500390565b6000602082840312156120f057600080fd5b81518015158114610df757600080fd5b60008251612112818460208701611d1f565b919091019291505056fea26469706673582212208fa8b10cc68235e8f980d4a12da9b65c6a89c1e6550c13f2d57335900e2d94f964736f6c634300080d0033",
  "linkReferences": {},
  "deployedLinkReferences": {}
}