{
  "_format": "hh-sol-artifact-1",
  "contractName": "BountyV1",
  "sourceName": "contracts/Bounty/Implementations/BountyV1.sol",
  "abi": [
    {
      "inputs": [],
      "stateMutability": "nonpayable",
      "type": "constructor"
    },
    {
      "anonymous": false,
      "inputs": [
        {
          "indexed": false,
          "internalType": "uint8",
          "name": "version",
          "type": "uint8"
        }
      ],
      "name": "Initialized",
      "type": "event"
    },
    {
      "stateMutability": "nonpayable",
      "type": "fallback"
    },
    {
      "inputs": [],
      "name": "bountyClosedTime",
      "outputs": [
        {
          "internalType": "uint256",
          "name": "",
          "type": "uint256"
        }
      ],
      "stateMutability": "view",
      "type": "function"
    },
    {
      "inputs": [],
      "name": "bountyCreatedTime",
      "outputs": [
        {
          "internalType": "uint256",
          "name": "",
          "type": "uint256"
        }
      ],
      "stateMutability": "view",
      "type": "function"
    },
    {
      "inputs": [],
      "name": "bountyId",
      "outputs": [
        {
          "internalType": "string",
          "name": "",
          "type": "string"
        }
      ],
      "stateMutability": "view",
      "type": "function"
    },
    {
      "inputs": [
        {
          "internalType": "address",
          "name": "_payoutAddress",
          "type": "address"
        },
        {
          "internalType": "address",
          "name": "_tokenAddress",
          "type": "address"
        }
      ],
      "name": "claimBalance",
      "outputs": [
        {
          "internalType": "uint256",
          "name": "",
          "type": "uint256"
        }
      ],
      "stateMutability": "nonpayable",
      "type": "function"
    },
    {
      "inputs": [
        {
          "internalType": "address",
          "name": "_payoutAddress",
          "type": "address"
        },
        {
          "internalType": "bytes32",
          "name": "_depositId",
          "type": "bytes32"
        }
      ],
      "name": "claimNft",
      "outputs": [],
      "stateMutability": "nonpayable",
      "type": "function"
    },
    {
      "inputs": [
        {
          "internalType": "address",
          "name": "_payoutAddress",
          "type": "address"
        }
      ],
      "name": "close",
      "outputs": [],
      "stateMutability": "nonpayable",
      "type": "function"
    },
    {
      "inputs": [],
      "name": "closer",
      "outputs": [
        {
          "internalType": "address",
          "name": "",
          "type": "address"
        }
      ],
      "stateMutability": "view",
      "type": "function"
    },
    {
      "inputs": [
        {
          "internalType": "bytes32",
          "name": "",
          "type": "bytes32"
        }
      ],
      "name": "depositTime",
      "outputs": [
        {
          "internalType": "uint256",
          "name": "",
          "type": "uint256"
        }
      ],
      "stateMutability": "view",
      "type": "function"
    },
    {
      "inputs": [
        {
          "internalType": "uint256",
          "name": "",
          "type": "uint256"
        }
      ],
      "name": "deposits",
      "outputs": [
        {
          "internalType": "bytes32",
          "name": "",
          "type": "bytes32"
        }
      ],
      "stateMutability": "view",
      "type": "function"
    },
    {
      "inputs": [
        {
          "internalType": "bytes32",
          "name": "",
          "type": "bytes32"
        }
      ],
      "name": "expiration",
      "outputs": [
        {
          "internalType": "uint256",
          "name": "",
          "type": "uint256"
        }
      ],
      "stateMutability": "view",
      "type": "function"
    },
    {
      "inputs": [
        {
          "internalType": "bytes32",
          "name": "",
          "type": "bytes32"
        }
      ],
      "name": "funder",
      "outputs": [
        {
          "internalType": "address",
          "name": "",
          "type": "address"
        }
      ],
      "stateMutability": "view",
      "type": "function"
    },
    {
      "inputs": [],
      "name": "getDeposits",
      "outputs": [
        {
          "internalType": "bytes32[]",
          "name": "",
          "type": "bytes32[]"
        }
      ],
      "stateMutability": "view",
      "type": "function"
    },
    {
      "inputs": [
        {
          "internalType": "address",
          "name": "_tokenAddress",
          "type": "address"
        }
      ],
      "name": "getERC20Balance",
      "outputs": [
        {
          "internalType": "uint256",
          "name": "balance",
          "type": "uint256"
        }
      ],
      "stateMutability": "view",
      "type": "function"
    },
    {
      "inputs": [],
      "name": "getNftDeposits",
      "outputs": [
        {
          "internalType": "bytes32[]",
          "name": "",
          "type": "bytes32[]"
        }
      ],
      "stateMutability": "view",
      "type": "function"
    },
    {
      "inputs": [],
      "name": "getTokenAddresses",
      "outputs": [
        {
          "internalType": "address[]",
          "name": "",
          "type": "address[]"
        }
      ],
      "stateMutability": "view",
      "type": "function"
    },
    {
      "inputs": [
        {
          "internalType": "string",
          "name": "_bountyId",
          "type": "string"
        },
        {
          "internalType": "address",
          "name": "_issuer",
          "type": "address"
        },
        {
          "internalType": "string",
          "name": "_organization",
          "type": "string"
        },
        {
          "internalType": "address",
          "name": "_openQ",
          "type": "address"
        }
      ],
      "name": "initialize",
      "outputs": [],
      "stateMutability": "nonpayable",
      "type": "function"
    },
    {
      "inputs": [
        {
          "internalType": "bytes32",
          "name": "",
          "type": "bytes32"
        }
      ],
      "name": "isNFT",
      "outputs": [
        {
          "internalType": "bool",
          "name": "",
          "type": "bool"
        }
      ],
      "stateMutability": "view",
      "type": "function"
    },
    {
      "inputs": [],
      "name": "issuer",
      "outputs": [
        {
          "internalType": "address",
          "name": "",
          "type": "address"
        }
      ],
      "stateMutability": "view",
      "type": "function"
    },
    {
      "inputs": [],
      "name": "newFoo",
      "outputs": [
        {
          "internalType": "uint256",
          "name": "",
          "type": "uint256"
        }
      ],
      "stateMutability": "view",
      "type": "function"
    },
    {
      "inputs": [],
      "name": "nftDepositLimit",
      "outputs": [
        {
          "internalType": "uint256",
          "name": "",
          "type": "uint256"
        }
      ],
      "stateMutability": "view",
      "type": "function"
    },
    {
      "inputs": [
        {
          "internalType": "uint256",
          "name": "",
          "type": "uint256"
        }
      ],
      "name": "nftDeposits",
      "outputs": [
        {
          "internalType": "bytes32",
          "name": "",
          "type": "bytes32"
        }
      ],
      "stateMutability": "view",
      "type": "function"
    },
    {
      "inputs": [
        {
          "internalType": "address",
          "name": "",
          "type": "address"
        },
        {
          "internalType": "address",
          "name": "",
          "type": "address"
        },
        {
          "internalType": "uint256",
          "name": "",
          "type": "uint256"
        },
        {
          "internalType": "bytes",
          "name": "",
          "type": "bytes"
        }
      ],
      "name": "onERC721Received",
      "outputs": [
        {
          "internalType": "bytes4",
          "name": "",
          "type": "bytes4"
        }
      ],
      "stateMutability": "pure",
      "type": "function"
    },
    {
      "inputs": [],
      "name": "openQ",
      "outputs": [
        {
          "internalType": "address",
          "name": "",
          "type": "address"
        }
      ],
      "stateMutability": "view",
      "type": "function"
    },
    {
      "inputs": [],
      "name": "organization",
      "outputs": [
        {
          "internalType": "string",
          "name": "",
          "type": "string"
        }
      ],
      "stateMutability": "view",
      "type": "function"
    },
    {
      "inputs": [
        {
          "internalType": "bytes32",
          "name": "",
          "type": "bytes32"
        }
      ],
      "name": "payoutAddress",
      "outputs": [
        {
          "internalType": "address",
          "name": "",
          "type": "address"
        }
      ],
      "stateMutability": "view",
      "type": "function"
    },
    {
      "inputs": [
        {
          "internalType": "address",
          "name": "_funder",
          "type": "address"
        },
        {
          "internalType": "address",
          "name": "_tokenAddress",
          "type": "address"
        },
        {
          "internalType": "uint256",
          "name": "_volume",
          "type": "uint256"
        },
        {
          "internalType": "uint256",
          "name": "_expiration",
          "type": "uint256"
        }
      ],
      "name": "receiveFunds",
      "outputs": [
        {
          "internalType": "bytes32",
          "name": "",
          "type": "bytes32"
        },
        {
          "internalType": "uint256",
          "name": "",
          "type": "uint256"
        }
      ],
      "stateMutability": "payable",
      "type": "function"
    },
    {
      "inputs": [
        {
          "internalType": "address",
          "name": "_sender",
          "type": "address"
        },
        {
          "internalType": "address",
          "name": "_tokenAddress",
          "type": "address"
        },
        {
          "internalType": "uint256",
          "name": "_tokenId",
          "type": "uint256"
        },
        {
          "internalType": "uint256",
          "name": "_expiration",
          "type": "uint256"
        }
      ],
      "name": "receiveNft",
      "outputs": [
        {
          "internalType": "bytes32",
          "name": "",
          "type": "bytes32"
        }
      ],
      "stateMutability": "nonpayable",
      "type": "function"
    },
    {
      "inputs": [
        {
          "internalType": "bytes32",
          "name": "_depositId",
          "type": "bytes32"
        },
        {
          "internalType": "address",
          "name": "_funder",
          "type": "address"
        }
      ],
      "name": "refundDeposit",
      "outputs": [],
      "stateMutability": "nonpayable",
      "type": "function"
    },
    {
      "inputs": [
        {
          "internalType": "bytes32",
          "name": "",
          "type": "bytes32"
        }
      ],
      "name": "refunded",
      "outputs": [
        {
          "internalType": "bool",
          "name": "",
          "type": "bool"
        }
      ],
      "stateMutability": "view",
      "type": "function"
    },
    {
      "inputs": [],
      "name": "status",
      "outputs": [
        {
          "internalType": "uint256",
          "name": "",
          "type": "uint256"
        }
      ],
      "stateMutability": "view",
      "type": "function"
    },
    {
      "inputs": [
        {
          "internalType": "bytes32",
          "name": "",
          "type": "bytes32"
        }
      ],
      "name": "tokenAddress",
      "outputs": [
        {
          "internalType": "address",
          "name": "",
          "type": "address"
        }
      ],
      "stateMutability": "view",
      "type": "function"
    },
    {
      "inputs": [
        {
          "internalType": "bytes32",
          "name": "",
          "type": "bytes32"
        }
      ],
      "name": "tokenId",
      "outputs": [
        {
          "internalType": "uint256",
          "name": "",
          "type": "uint256"
        }
      ],
      "stateMutability": "view",
      "type": "function"
    },
    {
      "inputs": [
        {
          "internalType": "bytes32",
          "name": "",
          "type": "bytes32"
        }
      ],
      "name": "volume",
      "outputs": [
        {
          "internalType": "uint256",
          "name": "",
          "type": "uint256"
        }
      ],
      "stateMutability": "view",
      "type": "function"
    },
    {
      "stateMutability": "payable",
      "type": "receive"
    }
  ],
  "bytecode": "0x608060405234801561001057600080fd5b506121dc806100206000396000f3fe6080604052600436106101f25760003560e01c80637dc81fa21161010d578063c17bd75e116100a0578063d6fe0f441161006f578063d6fe0f4414610639578063e129b33314610661578063ee8c24b814610681578063f05e0f7e146106a3578063f2321725146106d3576101f9565b8063c17bd75e146105ce578063c74073a1146105e3578063cb2da3db14610603578063cb4436b714610623576101f9565b80639a67a706116100dc5780639a67a70614610542578063b02c43d014610558578063b588d22514610578578063b99bb99014610598576101f9565b80637dc81fa2146104ab578063968b098f146104c957806397bb3ce9146104f6578063995280b01461052c576101f9565b806323bd4d7a116101855780636b149d87116101545780636b149d87146104345780637044f2821461045657806371ec4ebf1461047657806377ede8a614610496576101f9565b806323bd4d7a1461038f57806356406fa5146103b157806359ba8344146103de578063641411f814610414576101f9565b80631d143848116101c15780631d143848146102df5780631ecfacee14610317578063200d2ed214610339578063235b2b941461034f576101f9565b80630961413d1461020b578063150b7a02146102345780631595eea4146102925780631bc5fc96146102bf576101f9565b366101f957005b34801561020557600080fd5b50600080fd5b34801561021757600080fd5b50610221606d5481565b6040519081526020015b60405180910390f35b34801561024057600080fd5b5061027961024f366004611b7f565b7f150b7a023d4804d13e8c85fb27262cb750cf6ba9f9dd3bb30d90f482ceeb4b1f95945050505050565b6040516001600160e01b0319909116815260200161022b565b34801561029e57600080fd5b506102216102ad366004611c1a565b60706020526000908152604090205481565b3480156102cb57600080fd5b506102216102da366004611c1a565b610700565b3480156102eb57600080fd5b506069546102ff906001600160a01b031681565b6040516001600160a01b03909116815260200161022b565b34801561032357600080fd5b50610337610332366004611cd6565b610721565b005b34801561034557600080fd5b50610221606c5481565b34801561035b57600080fd5b5061037f61036a366004611c1a565b60766020526000908152604090205460ff1681565b604051901515815260200161022b565b34801561039b57600080fd5b506103a4610895565b60405161022b9190611d87565b3480156103bd57600080fd5b506102216103cc366004611c1a565b60756020526000908152604090205481565b3480156103ea57600080fd5b506102ff6103f9366004611c1a565b606e602052600090815260409020546001600160a01b031681565b34801561042057600080fd5b5061033761042f366004611dba565b610923565b34801561044057600080fd5b50610449610bad565b60405161022b9190611de6565b34801561046257600080fd5b50606b546102ff906001600160a01b031681565b34801561048257600080fd5b50610337610491366004611e2a565b610c05565b3480156104a257600080fd5b50610449610cd8565b3480156104b757600080fd5b506065546001600160a01b03166102ff565b3480156104d557600080fd5b506102216104e4366004611c1a565b60716020526000908152604090205481565b34801561050257600080fd5b506102ff610511366004611c1a565b606f602052600090815260409020546001600160a01b031681565b34801561053857600080fd5b5061022160675481565b34801561054e57600080fd5b50610221607b5481565b34801561056457600080fd5b50610221610573366004611c1a565b610d2e565b34801561058457600080fd5b50610221610593366004611e54565b610d3e565b3480156105a457600080fd5b506102ff6105b3366004611c1a565b6073602052600090815260409020546001600160a01b031681565b3480156105da57600080fd5b506103a4610db2565b3480156105ef57600080fd5b506103376105fe366004611e54565b610dbf565b34801561060f57600080fd5b5061022161061e366004611e6f565b610ec4565b34801561062f57600080fd5b5061022160685481565b61064c610647366004611e99565b610f63565b6040805192835260208301919091520161022b565b34801561066d57600080fd5b5061022161067c366004611e99565b611146565b34801561068d57600080fd5b5061069661133d565b60405161022b9190611edb565b3480156106af57600080fd5b5061037f6106be366004611c1a565b60726020526000908152604090205460ff1681565b3480156106df57600080fd5b506102216106ee366004611c1a565b60746020526000908152604090205481565b6078818154811061071057600080fd5b600091825260209091200154905081565b600061072d600161134e565b90508015610745576000805461ff0019166101001790555b84516000036107905760405162461bcd60e51b81526020600482015260126024820152711393d7d15354151657d093d553951657d25160721b60448201526064015b60405180910390fd5b82516000036107d95760405162461bcd60e51b81526020600482015260156024820152742727afa2a6a82a2cafa7a923a0a724ad20aa24a7a760591b6044820152606401610787565b6107e16113db565b606580546001600160a01b0319166001600160a01b038416179055845161080f906066906020880190611acf565b50606980546001600160a01b0319166001600160a01b038616179055825161083e90606a906020860190611acf565b50426067556005606d55801561088e576000805461ff0019169055604051600181527f7f26b83ff96e1f2b6a682f133852f6798a09c465da95921460cefb38474024989060200160405180910390a15b5050505050565b606a80546108a290611f1c565b80601f01602080910402602001604051908101604052809291908181526020018280546108ce90611f1c565b801561091b5780601f106108f05761010080835404028352916020019161091b565b820191906000526020600020905b8154815290600101906020018083116108fe57829003601f168201915b505050505081565b6065546001600160a01b0316336001600160a01b0316146109565760405162461bcd60e51b815260040161078790611f56565b6002600154036109785760405162461bcd60e51b815260040161078790611f8b565b600260015560008281526072602052604090205460ff16156109dc5760405162461bcd60e51b815260206004820152601860248201527f4445504f5349545f414c52454144595f524546554e44454400000000000000006044820152606401610787565b6000828152606e60205260409020546001600160a01b03828116911614610a455760405162461bcd60e51b815260206004820152601e60248201527f4f4e4c595f46554e4445525f43414e5f524551554553545f524546554e4400006044820152606401610787565b600082815260756020908152604080832054607190925290912054610a699161140c565b421015610ab85760405162461bcd60e51b815260206004820152601860248201527f5052454d41545552455f524546554e445f5245515545535400000000000000006044820152606401610787565b6000828152607260209081526040808320805460ff19166001179055606f9091529020546001600160a01b0316610b1c576000828152606e6020908152604080832054607090925290912054610b17916001600160a01b031690611421565b610ba5565b60008281526076602052604090205460ff1615610b6c576000828152606f6020908152604080832054606e8352818420546074909352922054610b17926001600160a01b03908116921690611438565b6000828152606f6020908152604080832054606e8352818420546070909352922054610ba5926001600160a01b039081169216906114aa565b505060018055565b60606077805480602002602001604051908101604052809291908181526020018280548015610bfb57602002820191906000526020600020905b815481526020019060010190808311610be7575b5050505050905090565b6065546001600160a01b0316336001600160a01b031614610c385760405162461bcd60e51b815260040161078790611f56565b600260015403610c5a5760405162461bcd60e51b815260040161078790611f8b565b6002600155606c5415610ca85760405162461bcd60e51b8152602060048201526016602482015275434c41494d494e475f434c4f5345445f424f554e545960501b6044820152606401610787565b6000818152606f6020908152604080832054607490925290912054610ba5916001600160a01b0316908490611438565b60606078805480602002602001604051908101604052809291908181526020018280548015610bfb5760200282019190600052602060002090815481526020019060010190808311610be7575050505050905090565b6077818154811061071057600080fd5b6040516370a0823160e01b815230600482015260009082906001600160a01b038216906370a0823190602401602060405180830381865afa158015610d87573d6000803e3d6000fd5b505050506040513d601f19601f82011682018060405250810190610dab9190611fc2565b9392505050565b606680546108a290611f1c565b6065546001600160a01b0316336001600160a01b031614610df25760405162461bcd60e51b815260040161078790611f56565b306001600160a01b031663200d2ed26040518163ffffffff1660e01b8152600401602060405180830381865afa158015610e30573d6000803e3d6000fd5b505050506040513d601f19601f82011682018060405250810190610e549190611fc2565b15610e995760405162461bcd60e51b8152602060048201526015602482015274434c4f53494e475f434c4f5345445f424f554e545960581b6044820152606401610787565b6001606c55606b80546001600160a01b0319166001600160a01b039290921691909117905542606855565b6065546000906001600160a01b0316336001600160a01b031614610efa5760405162461bcd60e51b815260040161078790611f56565b600260015403610f1c5760405162461bcd60e51b815260040161078790611f8b565b600260015560006001600160a01b038316610f42575047610f3d8482611421565b610f58565b610f4b83610d3e565b9050610f588385836114aa565b600180559392505050565b60655460009081906001600160a01b0316336001600160a01b031614610f9b5760405162461bcd60e51b815260040161078790611f56565b600260015403610fbd5760405162461bcd60e51b815260040161078790611f8b565b600260015560008490036110065760405162461bcd60e51b815260206004820152601060248201526f16915493d7d593d315535157d4d1539560821b6044820152606401610787565b600083116110565760405162461bcd60e51b815260206004820181905260248201527f45585049524154494f4e5f4e4f545f475245415445525f5448414e5f5a45524f6044820152606401610787565b60006110606114c5565b905060006001600160a01b038716611079575034611087565b6110848789886114f9565b90505b6000828152606e6020908152604080832080546001600160a01b03808e166001600160a01b031992831617909255606f84528285208054928d169290911691909117905560708252808320849055607182528083204290556075825280832088905560769091528120805460ff191690556077805460018101825591527f7901cb5addcae2d210a531c604a76a660d77039093bac314de0816a16392aff10182905561113460798861158f565b50600180559097909650945050505050565b6065546000906001600160a01b0316336001600160a01b03161461117c5760405162461bcd60e51b815260040161078790611f56565b60026001540361119e5760405162461bcd60e51b815260040161078790611f8b565b6002600155606d54607854106111f65760405162461bcd60e51b815260206004820152601960248201527f4e46545f4445504f5349545f4c494d49545f52454143484544000000000000006044820152606401610787565b600082116112465760405162461bcd60e51b815260206004820181905260248201527f45585049524154494f4e5f4e4f545f475245415445525f5448414e5f5a45524f6044820152606401610787565b6112518486856115a4565b600061125b6114c5565b6000818152606e6020908152604080832080546001600160a01b039b8c166001600160a01b031991821617909155606f835281842080549a909b16991698909817909855607188528681204290556074885286812095909555607587528585209390935550506076909352908120805460ff19166001908117909155607780548083019091557f7901cb5addcae2d210a531c604a76a660d77039093bac314de0816a16392aff10183905560788054808301825592527f8dc6fb69531d98d70dc0420e638d2dfd04e09e1ec783ede9aac77da9c5a0dac4909101829055805590565b606061134960796115e2565b905090565b60008054610100900460ff1615611395578160ff1660011480156113715750303b155b61138d5760405162461bcd60e51b815260040161078790611fdb565b506000919050565b60005460ff8084169116106113bc5760405162461bcd60e51b815260040161078790611fdb565b506000805460ff191660ff92909216919091179055600190565b919050565b600054610100900460ff166114025760405162461bcd60e51b815260040161078790612029565b61140a6115ef565b565b6000611418828461208a565b90505b92915050565b6114346001600160a01b0383168261161c565b5050565b604051632142170760e11b81523060048201526001600160a01b038381166024830152604482018390528491908216906342842e0e906064015b600060405180830381600087803b15801561148c57600080fd5b505af11580156114a0573d6000803e3d6000fd5b5050505050505050565b826114bf6001600160a01b038216848461173a565b50505050565b6077546040516000916114de91606691906020016120a2565b60405160208183030381529060405280519060200120905090565b60008061150585610d3e565b90508461151d6001600160a01b03821686308761179d565b600061152887610d3e565b90508281101561157a5760405162461bcd60e51b815260206004820152601a60248201527f544f4b454e5f5452414e534645525f494e5f4f564552464c4f570000000000006044820152606401610787565b61158481846117d5565b979650505050505050565b6000611418836001600160a01b0384166117e1565b604051632142170760e11b81526001600160a01b038381166004830152306024830152604482018390528491908216906342842e0e90606401611472565b60606000610dab83611830565b600054610100900460ff166116165760405162461bcd60e51b815260040161078790612029565b60018055565b8047101561166c5760405162461bcd60e51b815260206004820152601d60248201527f416464726573733a20696e73756666696369656e742062616c616e63650000006044820152606401610787565b6000826001600160a01b03168260405160006040518083038185875af1925050503d80600081146116b9576040519150601f19603f3d011682016040523d82523d6000602084013e6116be565b606091505b50509050806117355760405162461bcd60e51b815260206004820152603a60248201527f416464726573733a20756e61626c6520746f2073656e642076616c75652c207260448201527f6563697069656e74206d617920686176652072657665727465640000000000006064820152608401610787565b505050565b6040516001600160a01b03831660248201526044810182905261173590849063a9059cbb60e01b906064015b60408051601f198184030181529190526020810180516001600160e01b03166001600160e01b03199093169290921790915261188c565b6040516001600160a01b03808516602483015283166044820152606481018290526114bf9085906323b872dd60e01b90608401611766565b60006114188284612151565b60008181526001830160205260408120546118285750815460018181018455600084815260208082209093018490558454848252828601909352604090209190915561141b565b50600061141b565b60608160000180548060200260200160405190810160405280929190818152602001828054801561188057602002820191906000526020600020905b81548152602001906001019080831161186c575b50505050509050919050565b60006118e1826040518060400160405280602081526020017f5361666545524332303a206c6f772d6c6576656c2063616c6c206661696c6564815250856001600160a01b031661195e9092919063ffffffff16565b80519091501561173557808060200190518101906118ff9190612168565b6117355760405162461bcd60e51b815260206004820152602a60248201527f5361666545524332303a204552433230206f7065726174696f6e20646964206e6044820152691bdd081cdd58d8d9595960b21b6064820152608401610787565b606061196d8484600085611975565b949350505050565b6060824710156119d65760405162461bcd60e51b815260206004820152602660248201527f416464726573733a20696e73756666696369656e742062616c616e636520666f6044820152651c8818d85b1b60d21b6064820152608401610787565b6001600160a01b0385163b611a2d5760405162461bcd60e51b815260206004820152601d60248201527f416464726573733a2063616c6c20746f206e6f6e2d636f6e74726163740000006044820152606401610787565b600080866001600160a01b03168587604051611a49919061218a565b60006040518083038185875af1925050503d8060008114611a86576040519150601f19603f3d011682016040523d82523d6000602084013e611a8b565b606091505b509150915061158482828660608315611aa5575081610dab565b825115611ab55782518084602001fd5b8160405162461bcd60e51b81526004016107879190611d87565b828054611adb90611f1c565b90600052602060002090601f016020900481019282611afd5760008555611b43565b82601f10611b1657805160ff1916838001178555611b43565b82800160010185558215611b43579182015b82811115611b43578251825591602001919060010190611b28565b50611b4f929150611b53565b5090565b5b80821115611b4f5760008155600101611b54565b80356001600160a01b03811681146113d657600080fd5b600080600080600060808688031215611b9757600080fd5b611ba086611b68565b9450611bae60208701611b68565b935060408601359250606086013567ffffffffffffffff80821115611bd257600080fd5b818801915088601f830112611be657600080fd5b813581811115611bf557600080fd5b896020828501011115611c0757600080fd5b9699959850939650602001949392505050565b600060208284031215611c2c57600080fd5b5035919050565b634e487b7160e01b600052604160045260246000fd5b600082601f830112611c5a57600080fd5b813567ffffffffffffffff80821115611c7557611c75611c33565b604051601f8301601f19908116603f01168101908282118183101715611c9d57611c9d611c33565b81604052838152866020858801011115611cb657600080fd5b836020870160208301376000602085830101528094505050505092915050565b60008060008060808587031215611cec57600080fd5b843567ffffffffffffffff80821115611d0457600080fd5b611d1088838901611c49565b9550611d1e60208801611b68565b94506040870135915080821115611d3457600080fd5b50611d4187828801611c49565b925050611d5060608601611b68565b905092959194509250565b60005b83811015611d76578181015183820152602001611d5e565b838111156114bf5750506000910152565b6020815260008251806020840152611da6816040850160208701611d5b565b601f01601f19169190910160400192915050565b60008060408385031215611dcd57600080fd5b82359150611ddd60208401611b68565b90509250929050565b6020808252825182820181905260009190848201906040850190845b81811015611e1e57835183529284019291840191600101611e02565b50909695505050505050565b60008060408385031215611e3d57600080fd5b611e4683611b68565b946020939093013593505050565b600060208284031215611e6657600080fd5b61141882611b68565b60008060408385031215611e8257600080fd5b611e8b83611b68565b9150611ddd60208401611b68565b60008060008060808587031215611eaf57600080fd5b611eb885611b68565b9350611ec660208601611b68565b93969395505050506040820135916060013590565b6020808252825182820181905260009190848201906040850190845b81811015611e1e5783516001600160a01b031683529284019291840191600101611ef7565b600181811c90821680611f3057607f821691505b602082108103611f5057634e487b7160e01b600052602260045260246000fd5b50919050565b6020808252818101527f4d6574686f64206973206f6e6c792063616c6c61626c65206279204f70656e51604082015260600190565b6020808252601f908201527f5265656e7472616e637947756172643a207265656e7472616e742063616c6c00604082015260600190565b600060208284031215611fd457600080fd5b5051919050565b6020808252602e908201527f496e697469616c697a61626c653a20636f6e747261637420697320616c72656160408201526d191e481a5b9a5d1a585b1a5e995960921b606082015260800190565b6020808252602b908201527f496e697469616c697a61626c653a20636f6e7472616374206973206e6f74206960408201526a6e697469616c697a696e6760a81b606082015260800190565b634e487b7160e01b600052601160045260246000fd5b6000821982111561209d5761209d612074565b500190565b60408152600080845481600182811c9150808316806120c257607f831692505b602080841082036120e157634e487b7160e01b86526022600452602486fd5b604088018490526060880182801561210057600181146121115761213c565b60ff1987168252828201975061213c565b60008c81526020902060005b878110156121365781548482015290860190840161211d565b83019850505b50509690960196909652509095945050505050565b60008282101561216357612163612074565b500390565b60006020828403121561217a57600080fd5b81518015158114610dab57600080fd5b6000825161219c818460208701611d5b565b919091019291505056fea26469706673582212202f70f2044d46791c41ae064f573535c744a1e89e803d4167d167afae166531fc64736f6c634300080d0033",
  "linkReferences": {},
  "deployedLinkReferences": {}
}