{
  "_format": "hh-sol-artifact-1",
  "contractName": "BountyV1",
  "sourceName": "contracts/Bounty/Implementations/BountyV1.sol",
  "abi": [
    {
      "inputs": [],
      "stateMutability": "nonpayable",
      "type": "constructor"
    },
    {
      "stateMutability": "nonpayable",
      "type": "fallback"
    },
    {
      "inputs": [],
      "name": "bountyClosedTime",
      "outputs": [
        {
          "internalType": "uint256",
          "name": "",
          "type": "uint256"
        }
      ],
      "stateMutability": "view",
      "type": "function"
    },
    {
      "inputs": [],
      "name": "bountyCreatedTime",
      "outputs": [
        {
          "internalType": "uint256",
          "name": "",
          "type": "uint256"
        }
      ],
      "stateMutability": "view",
      "type": "function"
    },
    {
      "inputs": [],
      "name": "bountyId",
      "outputs": [
        {
          "internalType": "string",
          "name": "",
          "type": "string"
        }
      ],
      "stateMutability": "view",
      "type": "function"
    },
    {
      "inputs": [
        {
          "internalType": "address",
          "name": "_payoutAddress",
          "type": "address"
        },
        {
          "internalType": "address",
          "name": "_tokenAddress",
          "type": "address"
        }
      ],
      "name": "claimBalance",
      "outputs": [
        {
          "internalType": "uint256",
          "name": "",
          "type": "uint256"
        }
      ],
      "stateMutability": "nonpayable",
      "type": "function"
    },
    {
      "inputs": [
        {
          "internalType": "address",
          "name": "_payoutAddress",
          "type": "address"
        },
        {
          "internalType": "bytes32",
          "name": "_depositId",
          "type": "bytes32"
        }
      ],
      "name": "claimNft",
      "outputs": [],
      "stateMutability": "nonpayable",
      "type": "function"
    },
    {
      "inputs": [
        {
          "internalType": "address",
          "name": "_payoutAddress",
          "type": "address"
        }
      ],
      "name": "close",
      "outputs": [],
      "stateMutability": "nonpayable",
      "type": "function"
    },
    {
      "inputs": [],
      "name": "closer",
      "outputs": [
        {
          "internalType": "address",
          "name": "",
          "type": "address"
        }
      ],
      "stateMutability": "view",
      "type": "function"
    },
    {
      "inputs": [],
      "name": "closerData",
      "outputs": [
        {
          "internalType": "string",
          "name": "",
          "type": "string"
        }
      ],
      "stateMutability": "view",
      "type": "function"
    },
    {
      "inputs": [
        {
          "internalType": "bytes32",
          "name": "",
          "type": "bytes32"
        }
      ],
      "name": "depositTime",
      "outputs": [
        {
          "internalType": "uint256",
          "name": "",
          "type": "uint256"
        }
      ],
      "stateMutability": "view",
      "type": "function"
    },
    {
      "inputs": [
        {
          "internalType": "uint256",
          "name": "",
          "type": "uint256"
        }
      ],
      "name": "deposits",
      "outputs": [
        {
          "internalType": "bytes32",
          "name": "",
          "type": "bytes32"
        }
      ],
      "stateMutability": "view",
      "type": "function"
    },
    {
      "inputs": [
        {
          "internalType": "bytes32",
          "name": "",
          "type": "bytes32"
        }
      ],
      "name": "expiration",
      "outputs": [
        {
          "internalType": "uint256",
          "name": "",
          "type": "uint256"
        }
      ],
      "stateMutability": "view",
      "type": "function"
    },
    {
      "inputs": [
        {
          "internalType": "bytes32",
          "name": "",
          "type": "bytes32"
        }
      ],
      "name": "funder",
      "outputs": [
        {
          "internalType": "address",
          "name": "",
          "type": "address"
        }
      ],
      "stateMutability": "view",
      "type": "function"
    },
    {
      "inputs": [],
      "name": "getDeposits",
      "outputs": [
        {
          "internalType": "bytes32[]",
          "name": "",
          "type": "bytes32[]"
        }
      ],
      "stateMutability": "view",
      "type": "function"
    },
    {
      "inputs": [
        {
          "internalType": "address",
          "name": "_tokenAddress",
          "type": "address"
        }
      ],
      "name": "getERC20Balance",
      "outputs": [
        {
          "internalType": "uint256",
          "name": "balance",
          "type": "uint256"
        }
      ],
      "stateMutability": "view",
      "type": "function"
    },
    {
      "inputs": [],
      "name": "getNftDeposits",
      "outputs": [
        {
          "internalType": "bytes32[]",
          "name": "",
          "type": "bytes32[]"
        }
      ],
      "stateMutability": "view",
      "type": "function"
    },
    {
      "inputs": [],
      "name": "getTokenAddresses",
      "outputs": [
        {
          "internalType": "address[]",
          "name": "",
          "type": "address[]"
        }
      ],
      "stateMutability": "view",
      "type": "function"
    },
    {
      "inputs": [
        {
          "internalType": "string",
          "name": "_bountyId",
          "type": "string"
        },
        {
          "internalType": "address",
          "name": "_issuer",
          "type": "address"
        },
        {
          "internalType": "string",
          "name": "_organization",
          "type": "string"
        },
        {
          "internalType": "address",
          "name": "_openQ",
          "type": "address"
        }
      ],
      "name": "initialize",
      "outputs": [],
      "stateMutability": "nonpayable",
      "type": "function"
    },
    {
      "inputs": [
        {
          "internalType": "bytes32",
          "name": "",
          "type": "bytes32"
        }
      ],
      "name": "isNFT",
      "outputs": [
        {
          "internalType": "bool",
          "name": "",
          "type": "bool"
        }
      ],
      "stateMutability": "view",
      "type": "function"
    },
    {
      "inputs": [],
      "name": "issuer",
      "outputs": [
        {
          "internalType": "address",
          "name": "",
          "type": "address"
        }
      ],
      "stateMutability": "view",
      "type": "function"
    },
    {
      "inputs": [],
      "name": "newFoo",
      "outputs": [
        {
          "internalType": "uint256",
          "name": "",
          "type": "uint256"
        }
      ],
      "stateMutability": "view",
      "type": "function"
    },
    {
      "inputs": [],
      "name": "nftDepositLimit",
      "outputs": [
        {
          "internalType": "uint256",
          "name": "",
          "type": "uint256"
        }
      ],
      "stateMutability": "view",
      "type": "function"
    },
    {
      "inputs": [
        {
          "internalType": "uint256",
          "name": "",
          "type": "uint256"
        }
      ],
      "name": "nftDeposits",
      "outputs": [
        {
          "internalType": "bytes32",
          "name": "",
          "type": "bytes32"
        }
      ],
      "stateMutability": "view",
      "type": "function"
    },
    {
      "inputs": [
        {
          "internalType": "address",
          "name": "",
          "type": "address"
        },
        {
          "internalType": "address",
          "name": "",
          "type": "address"
        },
        {
          "internalType": "uint256",
          "name": "",
          "type": "uint256"
        },
        {
          "internalType": "bytes",
          "name": "",
          "type": "bytes"
        }
      ],
      "name": "onERC721Received",
      "outputs": [
        {
          "internalType": "bytes4",
          "name": "",
          "type": "bytes4"
        }
      ],
      "stateMutability": "pure",
      "type": "function"
    },
    {
      "inputs": [],
      "name": "openQ",
      "outputs": [
        {
          "internalType": "address",
          "name": "",
          "type": "address"
        }
      ],
      "stateMutability": "view",
      "type": "function"
    },
    {
      "inputs": [],
      "name": "organization",
      "outputs": [
        {
          "internalType": "string",
          "name": "",
          "type": "string"
        }
      ],
      "stateMutability": "view",
      "type": "function"
    },
    {
      "inputs": [
        {
          "internalType": "bytes32",
          "name": "",
          "type": "bytes32"
        }
      ],
      "name": "payoutAddress",
      "outputs": [
        {
          "internalType": "address",
          "name": "",
          "type": "address"
        }
      ],
      "stateMutability": "view",
      "type": "function"
    },
    {
      "inputs": [
        {
          "internalType": "address",
          "name": "_funder",
          "type": "address"
        },
        {
          "internalType": "address",
          "name": "_tokenAddress",
          "type": "address"
        },
        {
          "internalType": "uint256",
          "name": "_volume",
          "type": "uint256"
        },
        {
          "internalType": "uint256",
          "name": "_expiration",
          "type": "uint256"
        }
      ],
      "name": "receiveFunds",
      "outputs": [
        {
          "internalType": "bytes32",
          "name": "",
          "type": "bytes32"
        },
        {
          "internalType": "uint256",
          "name": "",
          "type": "uint256"
        }
      ],
      "stateMutability": "payable",
      "type": "function"
    },
    {
      "inputs": [
        {
          "internalType": "address",
          "name": "_sender",
          "type": "address"
        },
        {
          "internalType": "address",
          "name": "_tokenAddress",
          "type": "address"
        },
        {
          "internalType": "uint256",
          "name": "_tokenId",
          "type": "uint256"
        },
        {
          "internalType": "uint256",
          "name": "_expiration",
          "type": "uint256"
        }
      ],
      "name": "receiveNft",
      "outputs": [
        {
          "internalType": "bytes32",
          "name": "",
          "type": "bytes32"
        }
      ],
      "stateMutability": "nonpayable",
      "type": "function"
    },
    {
      "inputs": [
        {
          "internalType": "bytes32",
          "name": "_depositId",
          "type": "bytes32"
        },
        {
          "internalType": "address",
          "name": "_funder",
          "type": "address"
        }
      ],
      "name": "refundDeposit",
      "outputs": [],
      "stateMutability": "nonpayable",
      "type": "function"
    },
    {
      "inputs": [
        {
          "internalType": "bytes32",
          "name": "",
          "type": "bytes32"
        }
      ],
      "name": "refunded",
      "outputs": [
        {
          "internalType": "bool",
          "name": "",
          "type": "bool"
        }
      ],
      "stateMutability": "view",
      "type": "function"
    },
    {
      "inputs": [],
      "name": "status",
      "outputs": [
        {
          "internalType": "uint256",
          "name": "",
          "type": "uint256"
        }
      ],
      "stateMutability": "view",
      "type": "function"
    },
    {
      "inputs": [
        {
          "internalType": "bytes32",
          "name": "",
          "type": "bytes32"
        }
      ],
      "name": "tokenAddress",
      "outputs": [
        {
          "internalType": "address",
          "name": "",
          "type": "address"
        }
      ],
      "stateMutability": "view",
      "type": "function"
    },
    {
      "inputs": [
        {
          "internalType": "bytes32",
          "name": "",
          "type": "bytes32"
        }
      ],
      "name": "tokenId",
      "outputs": [
        {
          "internalType": "uint256",
          "name": "",
          "type": "uint256"
        }
      ],
      "stateMutability": "view",
      "type": "function"
    },
    {
      "inputs": [
        {
          "internalType": "bytes32",
          "name": "",
          "type": "bytes32"
        }
      ],
      "name": "volume",
      "outputs": [
        {
          "internalType": "uint256",
          "name": "",
          "type": "uint256"
        }
      ],
      "stateMutability": "view",
      "type": "function"
    },
    {
      "stateMutability": "payable",
      "type": "receive"
    }
  ],
  "bytecode": "0x608060405234801561001057600080fd5b5061217f806100206000396000f3fe6080604052600436106101fd5760003560e01c80637dc81fa21161010d578063c17bd75e116100a0578063d6fe0f441161006f578063d6fe0f4414610659578063e129b33314610681578063ee8c24b8146106a1578063f05e0f7e146106c3578063f2321725146106f357610204565b8063c17bd75e146105ee578063c74073a114610603578063cb2da3db14610623578063cb4436b71461064357610204565b80639a67a706116100dc5780639a67a70614610562578063b02c43d014610578578063b588d22514610598578063b99bb990146105b857610204565b80637dc81fa2146104cb578063968b098f146104e957806397bb3ce914610516578063995280b01461054c57610204565b8063235b2b9411610190578063641411f81161015f578063641411f8146104345780636b149d87146104545780637044f2821461047657806371ec4ebf1461049657806377ede8a6146104b657610204565b8063235b2b941461037c57806323bd4d7a146103bc57806356406fa5146103d157806359ba8344146103fe57610204565b80631bc5fc96116101cc5780631bc5fc96146102ec5780631d1438481461030c5780631ecfacee14610344578063200d2ed21461036657610204565b80630961413d146102165780630dd818871461023f578063150b7a02146102615780631595eea4146102bf57610204565b3661020457005b34801561021057600080fd5b50600080fd5b34801561022257600080fd5b5061022c606d5481565b6040519081526020015b60405180910390f35b34801561024b57600080fd5b50610254610720565b6040516102369190611b80565b34801561026d57600080fd5b506102a661027c366004611bcf565b7f150b7a023d4804d13e8c85fb27262cb750cf6ba9f9dd3bb30d90f482ceeb4b1f95945050505050565b6040516001600160e01b03199091168152602001610236565b3480156102cb57600080fd5b5061022c6102da366004611c6a565b60706020526000908152604090205481565b3480156102f857600080fd5b5061022c610307366004611c6a565b6107ae565b34801561031857600080fd5b5060695461032c906001600160a01b031681565b6040516001600160a01b039091168152602001610236565b34801561035057600080fd5b5061036461035f366004611d26565b6107cf565b005b34801561037257600080fd5b5061022c606c5481565b34801561038857600080fd5b506103ac610397366004611c6a565b60766020526000908152604090205460ff1681565b6040519015158152602001610236565b3480156103c857600080fd5b5061025461098f565b3480156103dd57600080fd5b5061022c6103ec366004611c6a565b60756020526000908152604090205481565b34801561040a57600080fd5b5061032c610419366004611c6a565b606e602052600090815260409020546001600160a01b031681565b34801561044057600080fd5b5061036461044f366004611dab565b61099c565b34801561046057600080fd5b50610469610c26565b6040516102369190611dd7565b34801561048257600080fd5b50606b5461032c906001600160a01b031681565b3480156104a257600080fd5b506103646104b1366004611e1b565b610c7e565b3480156104c257600080fd5b50610469610d51565b3480156104d757600080fd5b506065546001600160a01b031661032c565b3480156104f557600080fd5b5061022c610504366004611c6a565b60716020526000908152604090205481565b34801561052257600080fd5b5061032c610531366004611c6a565b606f602052600090815260409020546001600160a01b031681565b34801561055857600080fd5b5061022c60675481565b34801561056e57600080fd5b5061022c607c5481565b34801561058457600080fd5b5061022c610593366004611c6a565b610da7565b3480156105a457600080fd5b5061022c6105b3366004611e45565b610db7565b3480156105c457600080fd5b5061032c6105d3366004611c6a565b6073602052600090815260409020546001600160a01b031681565b3480156105fa57600080fd5b50610254610e2b565b34801561060f57600080fd5b5061036461061e366004611e45565b610e38565b34801561062f57600080fd5b5061022c61063e366004611e60565b610f3d565b34801561064f57600080fd5b5061022c60685481565b61066c610667366004611e8a565b610fdc565b60408051928352602083019190915201610236565b34801561068d57600080fd5b5061022c61069c366004611e8a565b6111bf565b3480156106ad57600080fd5b506106b66113b6565b6040516102369190611ecc565b3480156106cf57600080fd5b506103ac6106de366004611c6a565b60726020526000908152604090205460ff1681565b3480156106ff57600080fd5b5061022c61070e366004611c6a565b60746020526000908152604090205481565b607b805461072d90611f0d565b80601f016020809104026020016040519081016040528092919081815260200182805461075990611f0d565b80156107a65780601f1061077b576101008083540402835291602001916107a6565b820191906000526020600020905b81548152906001019060200180831161078957829003601f168201915b505050505081565b607881815481106107be57600080fd5b600091825260209091200154905081565b600054610100900460ff166107ea5760005460ff16156107ee565b303b155b6108565760405162461bcd60e51b815260206004820152602e60248201527f496e697469616c697a61626c653a20636f6e747261637420697320616c72656160448201526d191e481a5b9a5d1a585b1a5e995960921b60648201526084015b60405180910390fd5b600054610100900460ff16158015610878576000805461ffff19166101011790555b84516000036108be5760405162461bcd60e51b81526020600482015260126024820152711393d7d15354151657d093d553951657d25160721b604482015260640161084d565b82516000036109075760405162461bcd60e51b81526020600482015260156024820152742727afa2a6a82a2cafa7a923a0a724ad20aa24a7a760591b604482015260640161084d565b61090f6113c7565b606580546001600160a01b0319166001600160a01b038416179055845161093d906066906020880190611abb565b50606980546001600160a01b0319166001600160a01b038616179055825161096c90606a906020860190611abb565b50426067556005606d558015610988576000805461ff00191690555b5050505050565b606a805461072d90611f0d565b6065546001600160a01b0316336001600160a01b0316146109cf5760405162461bcd60e51b815260040161084d90611f47565b6002600154036109f15760405162461bcd60e51b815260040161084d90611f7c565b600260015560008281526072602052604090205460ff1615610a555760405162461bcd60e51b815260206004820152601860248201527f4445504f5349545f414c52454144595f524546554e4445440000000000000000604482015260640161084d565b6000828152606e60205260409020546001600160a01b03828116911614610abe5760405162461bcd60e51b815260206004820152601e60248201527f4f4e4c595f46554e4445525f43414e5f524551554553545f524546554e440000604482015260640161084d565b600082815260756020908152604080832054607190925290912054610ae2916113f8565b421015610b315760405162461bcd60e51b815260206004820152601860248201527f5052454d41545552455f524546554e445f524551554553540000000000000000604482015260640161084d565b6000828152607260209081526040808320805460ff19166001179055606f9091529020546001600160a01b0316610b95576000828152606e6020908152604080832054607090925290912054610b90916001600160a01b03169061140d565b610c1e565b60008281526076602052604090205460ff1615610be5576000828152606f6020908152604080832054606e8352818420546074909352922054610b90926001600160a01b03908116921690611424565b6000828152606f6020908152604080832054606e8352818420546070909352922054610c1e926001600160a01b03908116921690611496565b505060018055565b60606077805480602002602001604051908101604052809291908181526020018280548015610c7457602002820191906000526020600020905b815481526020019060010190808311610c60575b5050505050905090565b6065546001600160a01b0316336001600160a01b031614610cb15760405162461bcd60e51b815260040161084d90611f47565b600260015403610cd35760405162461bcd60e51b815260040161084d90611f7c565b6002600155606c5415610d215760405162461bcd60e51b8152602060048201526016602482015275434c41494d494e475f434c4f5345445f424f554e545960501b604482015260640161084d565b6000818152606f6020908152604080832054607490925290912054610c1e916001600160a01b0316908490611424565b60606078805480602002602001604051908101604052809291908181526020018280548015610c745760200282019190600052602060002090815481526020019060010190808311610c60575050505050905090565b607781815481106107be57600080fd5b6040516370a0823160e01b815230600482015260009082906001600160a01b038216906370a0823190602401602060405180830381865afa158015610e00573d6000803e3d6000fd5b505050506040513d601f19601f82011682018060405250810190610e249190611fb3565b9392505050565b6066805461072d90611f0d565b6065546001600160a01b0316336001600160a01b031614610e6b5760405162461bcd60e51b815260040161084d90611f47565b306001600160a01b031663200d2ed26040518163ffffffff1660e01b8152600401602060405180830381865afa158015610ea9573d6000803e3d6000fd5b505050506040513d601f19601f82011682018060405250810190610ecd9190611fb3565b15610f125760405162461bcd60e51b8152602060048201526015602482015274434c4f53494e475f434c4f5345445f424f554e545960581b604482015260640161084d565b6001606c55606b80546001600160a01b0319166001600160a01b039290921691909117905542606855565b6065546000906001600160a01b0316336001600160a01b031614610f735760405162461bcd60e51b815260040161084d90611f47565b600260015403610f955760405162461bcd60e51b815260040161084d90611f7c565b600260015560006001600160a01b038316610fbb575047610fb6848261140d565b610fd1565b610fc483610db7565b9050610fd1838583611496565b600180559392505050565b60655460009081906001600160a01b0316336001600160a01b0316146110145760405162461bcd60e51b815260040161084d90611f47565b6002600154036110365760405162461bcd60e51b815260040161084d90611f7c565b6002600155600084900361107f5760405162461bcd60e51b815260206004820152601060248201526f16915493d7d593d315535157d4d1539560821b604482015260640161084d565b600083116110cf5760405162461bcd60e51b815260206004820181905260248201527f45585049524154494f4e5f4e4f545f475245415445525f5448414e5f5a45524f604482015260640161084d565b60006110d96114b1565b905060006001600160a01b0387166110f2575034611100565b6110fd8789886114e5565b90505b6000828152606e6020908152604080832080546001600160a01b03808e166001600160a01b031992831617909255606f84528285208054928d169290911691909117905560708252808320849055607182528083204290556075825280832088905560769091528120805460ff191690556077805460018101825591527f7901cb5addcae2d210a531c604a76a660d77039093bac314de0816a16392aff1018290556111ad60798861157b565b50600180559097909650945050505050565b6065546000906001600160a01b0316336001600160a01b0316146111f55760405162461bcd60e51b815260040161084d90611f47565b6002600154036112175760405162461bcd60e51b815260040161084d90611f7c565b6002600155606d546078541061126f5760405162461bcd60e51b815260206004820152601960248201527f4e46545f4445504f5349545f4c494d49545f5245414348454400000000000000604482015260640161084d565b600082116112bf5760405162461bcd60e51b815260206004820181905260248201527f45585049524154494f4e5f4e4f545f475245415445525f5448414e5f5a45524f604482015260640161084d565b6112ca848685611590565b60006112d46114b1565b6000818152606e6020908152604080832080546001600160a01b039b8c166001600160a01b031991821617909155606f835281842080549a909b16991698909817909855607188528681204290556074885286812095909555607587528585209390935550506076909352908120805460ff19166001908117909155607780548083019091557f7901cb5addcae2d210a531c604a76a660d77039093bac314de0816a16392aff10183905560788054808301825592527f8dc6fb69531d98d70dc0420e638d2dfd04e09e1ec783ede9aac77da9c5a0dac4909101829055805590565b60606113c260796115ce565b905090565b600054610100900460ff166113ee5760405162461bcd60e51b815260040161084d90611fcc565b6113f66115db565b565b6000611404828461202d565b90505b92915050565b6114206001600160a01b03831682611608565b5050565b604051632142170760e11b81523060048201526001600160a01b038381166024830152604482018390528491908216906342842e0e906064015b600060405180830381600087803b15801561147857600080fd5b505af115801561148c573d6000803e3d6000fd5b5050505050505050565b826114ab6001600160a01b0382168484611726565b50505050565b6077546040516000916114ca9160669190602001612045565b60405160208183030381529060405280519060200120905090565b6000806114f185610db7565b9050846115096001600160a01b038216863087611789565b600061151487610db7565b9050828110156115665760405162461bcd60e51b815260206004820152601a60248201527f544f4b454e5f5452414e534645525f494e5f4f564552464c4f57000000000000604482015260640161084d565b61157081846117c1565b979650505050505050565b6000611404836001600160a01b0384166117cd565b604051632142170760e11b81526001600160a01b038381166004830152306024830152604482018390528491908216906342842e0e9060640161145e565b60606000610e248361181c565b600054610100900460ff166116025760405162461bcd60e51b815260040161084d90611fcc565b60018055565b804710156116585760405162461bcd60e51b815260206004820152601d60248201527f416464726573733a20696e73756666696369656e742062616c616e6365000000604482015260640161084d565b6000826001600160a01b03168260405160006040518083038185875af1925050503d80600081146116a5576040519150601f19603f3d011682016040523d82523d6000602084013e6116aa565b606091505b50509050806117215760405162461bcd60e51b815260206004820152603a60248201527f416464726573733a20756e61626c6520746f2073656e642076616c75652c207260448201527f6563697069656e74206d61792068617665207265766572746564000000000000606482015260840161084d565b505050565b6040516001600160a01b03831660248201526044810182905261172190849063a9059cbb60e01b906064015b60408051601f198184030181529190526020810180516001600160e01b03166001600160e01b031990931692909217909152611878565b6040516001600160a01b03808516602483015283166044820152606481018290526114ab9085906323b872dd60e01b90608401611752565b600061140482846120f4565b600081815260018301602052604081205461181457508154600181810184556000848152602080822090930184905584548482528286019093526040902091909155611407565b506000611407565b60608160000180548060200260200160405190810160405280929190818152602001828054801561186c57602002820191906000526020600020905b815481526020019060010190808311611858575b50505050509050919050565b60006118cd826040518060400160405280602081526020017f5361666545524332303a206c6f772d6c6576656c2063616c6c206661696c6564815250856001600160a01b031661194a9092919063ffffffff16565b80519091501561172157808060200190518101906118eb919061210b565b6117215760405162461bcd60e51b815260206004820152602a60248201527f5361666545524332303a204552433230206f7065726174696f6e20646964206e6044820152691bdd081cdd58d8d9595960b21b606482015260840161084d565b60606119598484600085611961565b949350505050565b6060824710156119c25760405162461bcd60e51b815260206004820152602660248201527f416464726573733a20696e73756666696369656e742062616c616e636520666f6044820152651c8818d85b1b60d21b606482015260840161084d565b6001600160a01b0385163b611a195760405162461bcd60e51b815260206004820152601d60248201527f416464726573733a2063616c6c20746f206e6f6e2d636f6e7472616374000000604482015260640161084d565b600080866001600160a01b03168587604051611a35919061212d565b60006040518083038185875af1925050503d8060008114611a72576040519150601f19603f3d011682016040523d82523d6000602084013e611a77565b606091505b509150915061157082828660608315611a91575081610e24565b825115611aa15782518084602001fd5b8160405162461bcd60e51b815260040161084d9190611b80565b828054611ac790611f0d565b90600052602060002090601f016020900481019282611ae95760008555611b2f565b82601f10611b0257805160ff1916838001178555611b2f565b82800160010185558215611b2f579182015b82811115611b2f578251825591602001919060010190611b14565b50611b3b929150611b3f565b5090565b5b80821115611b3b5760008155600101611b40565b60005b83811015611b6f578181015183820152602001611b57565b838111156114ab5750506000910152565b6020815260008251806020840152611b9f816040850160208701611b54565b601f01601f19169190910160400192915050565b80356001600160a01b0381168114611bca57600080fd5b919050565b600080600080600060808688031215611be757600080fd5b611bf086611bb3565b9450611bfe60208701611bb3565b935060408601359250606086013567ffffffffffffffff80821115611c2257600080fd5b818801915088601f830112611c3657600080fd5b813581811115611c4557600080fd5b896020828501011115611c5757600080fd5b9699959850939650602001949392505050565b600060208284031215611c7c57600080fd5b5035919050565b634e487b7160e01b600052604160045260246000fd5b600082601f830112611caa57600080fd5b813567ffffffffffffffff80821115611cc557611cc5611c83565b604051601f8301601f19908116603f01168101908282118183101715611ced57611ced611c83565b81604052838152866020858801011115611d0657600080fd5b836020870160208301376000602085830101528094505050505092915050565b60008060008060808587031215611d3c57600080fd5b843567ffffffffffffffff80821115611d5457600080fd5b611d6088838901611c99565b9550611d6e60208801611bb3565b94506040870135915080821115611d8457600080fd5b50611d9187828801611c99565b925050611da060608601611bb3565b905092959194509250565b60008060408385031215611dbe57600080fd5b82359150611dce60208401611bb3565b90509250929050565b6020808252825182820181905260009190848201906040850190845b81811015611e0f57835183529284019291840191600101611df3565b50909695505050505050565b60008060408385031215611e2e57600080fd5b611e3783611bb3565b946020939093013593505050565b600060208284031215611e5757600080fd5b61140482611bb3565b60008060408385031215611e7357600080fd5b611e7c83611bb3565b9150611dce60208401611bb3565b60008060008060808587031215611ea057600080fd5b611ea985611bb3565b9350611eb760208601611bb3565b93969395505050506040820135916060013590565b6020808252825182820181905260009190848201906040850190845b81811015611e0f5783516001600160a01b031683529284019291840191600101611ee8565b600181811c90821680611f2157607f821691505b602082108103611f4157634e487b7160e01b600052602260045260246000fd5b50919050565b6020808252818101527f4d6574686f64206973206f6e6c792063616c6c61626c65206279204f70656e51604082015260600190565b6020808252601f908201527f5265656e7472616e637947756172643a207265656e7472616e742063616c6c00604082015260600190565b600060208284031215611fc557600080fd5b5051919050565b6020808252602b908201527f496e697469616c697a61626c653a20636f6e7472616374206973206e6f74206960408201526a6e697469616c697a696e6760a81b606082015260800190565b634e487b7160e01b600052601160045260246000fd5b6000821982111561204057612040612017565b500190565b60408152600080845481600182811c91508083168061206557607f831692505b6020808410820361208457634e487b7160e01b86526022600452602486fd5b60408801849052606088018280156120a357600181146120b4576120df565b60ff198716825282820197506120df565b60008c81526020902060005b878110156120d9578154848201529086019084016120c0565b83019850505b50509690960196909652509095945050505050565b60008282101561210657612106612017565b500390565b60006020828403121561211d57600080fd5b81518015158114610e2457600080fd5b6000825161213f818460208701611b54565b919091019291505056fea264697066735822122075e83e97f1b71170724715c020ceae97b5dadd2193ede66e4a690e25936ee1f464736f6c634300080d0033",
  "linkReferences": {},
  "deployedLinkReferences": {}
}