{
  "_format": "hh-sol-artifact-1",
  "contractName": "Bounty",
  "sourceName": "contracts/Bounty.sol",
  "abi": [
    {
      "inputs": [
        {
          "internalType": "string",
          "name": "_id",
          "type": "string"
        },
        {
          "internalType": "address",
          "name": "_issuer",
          "type": "address"
        },
        {
          "internalType": "string",
          "name": "_organization",
          "type": "string"
        }
      ],
      "stateMutability": "nonpayable",
      "type": "constructor"
    },
    {
      "anonymous": false,
      "inputs": [
        {
          "indexed": true,
          "internalType": "address",
          "name": "previousOwner",
          "type": "address"
        },
        {
          "indexed": true,
          "internalType": "address",
          "name": "newOwner",
          "type": "address"
        }
      ],
      "name": "OwnershipTransferred",
      "type": "event"
    },
    {
      "stateMutability": "nonpayable",
      "type": "fallback"
    },
    {
      "inputs": [],
      "name": "bountyClosedTime",
      "outputs": [
        {
          "internalType": "uint256",
          "name": "",
          "type": "uint256"
        }
      ],
      "stateMutability": "view",
      "type": "function"
    },
    {
      "inputs": [],
      "name": "bountyCreatedTime",
      "outputs": [
        {
          "internalType": "uint256",
          "name": "",
          "type": "uint256"
        }
      ],
      "stateMutability": "view",
      "type": "function"
    },
    {
      "inputs": [],
      "name": "bountyId",
      "outputs": [
        {
          "internalType": "string",
          "name": "",
          "type": "string"
        }
      ],
      "stateMutability": "view",
      "type": "function"
    },
    {
      "inputs": [
        {
          "internalType": "uint256",
          "name": "",
          "type": "uint256"
        }
      ],
      "name": "bountyTokenAddresses",
      "outputs": [
        {
          "internalType": "address",
          "name": "",
          "type": "address"
        }
      ],
      "stateMutability": "view",
      "type": "function"
    },
    {
      "inputs": [
        {
          "internalType": "address",
          "name": "_payoutAddress",
          "type": "address"
        },
        {
          "internalType": "address",
          "name": "_tokenAddress",
          "type": "address"
        }
      ],
      "name": "claim",
      "outputs": [
        {
          "internalType": "bool",
          "name": "success",
          "type": "bool"
        }
      ],
      "stateMutability": "nonpayable",
      "type": "function"
    },
    {
      "inputs": [
        {
          "internalType": "address",
          "name": "_payoutAddress",
          "type": "address"
        }
      ],
      "name": "closeBounty",
      "outputs": [
        {
          "internalType": "bool",
          "name": "success",
          "type": "bool"
        }
      ],
      "stateMutability": "nonpayable",
      "type": "function"
    },
    {
      "inputs": [],
      "name": "closer",
      "outputs": [
        {
          "internalType": "address",
          "name": "",
          "type": "address"
        }
      ],
      "stateMutability": "view",
      "type": "function"
    },
    {
      "inputs": [],
      "name": "escrowPeriod",
      "outputs": [
        {
          "internalType": "uint256",
          "name": "",
          "type": "uint256"
        }
      ],
      "stateMutability": "view",
      "type": "function"
    },
    {
      "inputs": [
        {
          "internalType": "address",
          "name": "",
          "type": "address"
        },
        {
          "internalType": "address",
          "name": "",
          "type": "address"
        }
      ],
      "name": "funderDeposits",
      "outputs": [
        {
          "internalType": "uint256",
          "name": "",
          "type": "uint256"
        }
      ],
      "stateMutability": "view",
      "type": "function"
    },
    {
      "inputs": [
        {
          "internalType": "address",
          "name": "",
          "type": "address"
        },
        {
          "internalType": "uint256",
          "name": "",
          "type": "uint256"
        }
      ],
      "name": "funderTokenAddresses",
      "outputs": [
        {
          "internalType": "address",
          "name": "",
          "type": "address"
        }
      ],
      "stateMutability": "view",
      "type": "function"
    },
    {
      "inputs": [],
      "name": "getBountyTokenAddresses",
      "outputs": [
        {
          "internalType": "address[]",
          "name": "",
          "type": "address[]"
        }
      ],
      "stateMutability": "view",
      "type": "function"
    },
    {
      "inputs": [
        {
          "internalType": "address",
          "name": "_tokenAddress",
          "type": "address"
        }
      ],
      "name": "getERC20Balance",
      "outputs": [
        {
          "internalType": "uint256",
          "name": "balance",
          "type": "uint256"
        }
      ],
      "stateMutability": "view",
      "type": "function"
    },
    {
      "inputs": [
        {
          "internalType": "address",
          "name": "_funder",
          "type": "address"
        }
      ],
      "name": "getFunderTokenAddresses",
      "outputs": [
        {
          "internalType": "address[]",
          "name": "",
          "type": "address[]"
        }
      ],
      "stateMutability": "view",
      "type": "function"
    },
    {
      "inputs": [
        {
          "internalType": "address",
          "name": "",
          "type": "address"
        }
      ],
      "name": "isAFunder",
      "outputs": [
        {
          "internalType": "bool",
          "name": "",
          "type": "bool"
        }
      ],
      "stateMutability": "view",
      "type": "function"
    },
    {
      "inputs": [],
      "name": "issuer",
      "outputs": [
        {
          "internalType": "address",
          "name": "",
          "type": "address"
        }
      ],
      "stateMutability": "view",
      "type": "function"
    },
    {
      "inputs": [],
      "name": "organization",
      "outputs": [
        {
          "internalType": "string",
          "name": "",
          "type": "string"
        }
      ],
      "stateMutability": "view",
      "type": "function"
    },
    {
      "inputs": [],
      "name": "owner",
      "outputs": [
        {
          "internalType": "address",
          "name": "",
          "type": "address"
        }
      ],
      "stateMutability": "view",
      "type": "function"
    },
    {
      "inputs": [
        {
          "internalType": "address",
          "name": "_funder",
          "type": "address"
        },
        {
          "internalType": "address",
          "name": "_tokenAddress",
          "type": "address"
        },
        {
          "internalType": "uint256",
          "name": "_value",
          "type": "uint256"
        }
      ],
      "name": "receiveFunds",
      "outputs": [
        {
          "internalType": "bool",
          "name": "success",
          "type": "bool"
        }
      ],
      "stateMutability": "nonpayable",
      "type": "function"
    },
    {
      "inputs": [
        {
          "internalType": "address",
          "name": "_funder",
          "type": "address"
        },
        {
          "internalType": "address",
          "name": "_tokenAddress",
          "type": "address"
        }
      ],
      "name": "refundBountyDeposit",
      "outputs": [
        {
          "internalType": "bool",
          "name": "success",
          "type": "bool"
        }
      ],
      "stateMutability": "nonpayable",
      "type": "function"
    },
    {
      "inputs": [],
      "name": "renounceOwnership",
      "outputs": [],
      "stateMutability": "nonpayable",
      "type": "function"
    },
    {
      "inputs": [],
      "name": "status",
      "outputs": [
        {
          "internalType": "enum Bounty.BountyStatus",
          "name": "",
          "type": "uint8"
        }
      ],
      "stateMutability": "view",
      "type": "function"
    },
    {
      "inputs": [
        {
          "internalType": "address",
          "name": "newOwner",
          "type": "address"
        }
      ],
      "name": "transferOwnership",
      "outputs": [],
      "stateMutability": "nonpayable",
      "type": "function"
    }
  ],
  "bytecode": "0x608060405242600655601e6008553480156200001a57600080fd5b50604051620027db380380620027db833981810160405281019062000040919062000333565b62000060620000546200012e60201b60201c565b6200013660201b60201c565b826005908051906020019062000078929190620001fa565b506000600b60146101000a81548160ff02191690836001811115620000c6577f4e487b7100000000000000000000000000000000000000000000000000000000600052602160045260246000fd5b021790555081600960006101000a81548173ffffffffffffffffffffffffffffffffffffffff021916908373ffffffffffffffffffffffffffffffffffffffff16021790555080600a908051906020019062000124929190620001fa565b5050505062000579565b600033905090565b60008060009054906101000a900473ffffffffffffffffffffffffffffffffffffffff169050816000806101000a81548173ffffffffffffffffffffffffffffffffffffffff021916908373ffffffffffffffffffffffffffffffffffffffff1602179055508173ffffffffffffffffffffffffffffffffffffffff168173ffffffffffffffffffffffffffffffffffffffff167f8be0079c531659141344cd1fd0a4f28419497f9722a3daafe3b4186f6b6457e060405160405180910390a35050565b828054620002089062000484565b90600052602060002090601f0160209004810192826200022c576000855562000278565b82601f106200024757805160ff191683800117855562000278565b8280016001018555821562000278579182015b82811115620002775782518255916020019190600101906200025a565b5b5090506200028791906200028b565b5090565b5b80821115620002a65760008160009055506001016200028c565b5090565b6000620002c1620002bb84620003e4565b620003bb565b905082815260208101848484011115620002da57600080fd5b620002e78482856200044e565b509392505050565b60008151905062000300816200055f565b92915050565b600082601f8301126200031857600080fd5b81516200032a848260208601620002aa565b91505092915050565b6000806000606084860312156200034957600080fd5b600084015167ffffffffffffffff8111156200036457600080fd5b620003728682870162000306565b93505060206200038586828701620002ef565b925050604084015167ffffffffffffffff811115620003a357600080fd5b620003b18682870162000306565b9150509250925092565b6000620003c7620003da565b9050620003d58282620004ba565b919050565b6000604051905090565b600067ffffffffffffffff8211156200040257620004016200051f565b5b6200040d826200054e565b9050602081019050919050565b600062000427826200042e565b9050919050565b600073ffffffffffffffffffffffffffffffffffffffff82169050919050565b60005b838110156200046e57808201518184015260208101905062000451565b838111156200047e576000848401525b50505050565b600060028204905060018216806200049d57607f821691505b60208210811415620004b457620004b3620004f0565b5b50919050565b620004c5826200054e565b810181811067ffffffffffffffff82111715620004e757620004e66200051f565b5b80604052505050565b7f4e487b7100000000000000000000000000000000000000000000000000000000600052602260045260246000fd5b7f4e487b7100000000000000000000000000000000000000000000000000000000600052604160045260246000fd5b6000601f19601f8301169050919050565b6200056a816200041a565b81146200057657600080fd5b50565b61225280620005896000396000f3fe608060405234801561001057600080fd5b50600436106101465760003560e01c8063995280b0116100b8578063cb4436b71161007c578063cb4436b7146103a8578063df9229f0146103c6578063ec05635c146103f6578063f16b51c114610426578063f2fde38b14610444578063fc5d2cf41461046057610147565b8063995280b0146102dc578063b0100cf7146102fa578063b588d2251461032a578063b9df819f1461035a578063c17bd75e1461038a57610147565b806329ffef151161010a57806329ffef15146102065780634b8022b2146102365780636216753b146102665780637044f28214610296578063715018a6146102b45780638da5cb5b146102be57610147565b80631bef55051461014c5780631d1438481461017c578063200d2ed21461019a57806321c0b342146101b857806323bd4d7a146101e857610147565b5b600080fd5b610166600480360381019061016191906117b6565b61047e565b6040516101739190611bfc565b60405180910390f35b61018461054b565b6040516101919190611b81565b60405180910390f35b6101a2610571565b6040516101af9190611c39565b60405180910390f35b6101d260048036038101906101cd91906117df565b610584565b6040516101df9190611c1e565b60405180910390f35b6101f0610755565b6040516101fd9190611c54565b60405180910390f35b610220600480360381019061021b91906117df565b6107e3565b60405161022d9190611c1e565b60405180910390f35b610250600480360381019061024b919061186a565b610a01565b60405161025d9190611b81565b60405180910390f35b610280600480360381019061027b91906117df565b610a4f565b60405161028d9190611d56565b60405180910390f35b61029e610a74565b6040516102ab9190611b81565b60405180910390f35b6102bc610a9a565b005b6102c6610b22565b6040516102d39190611b81565b60405180910390f35b6102e4610b4b565b6040516102f19190611d56565b60405180910390f35b610314600480360381019061030f91906117b6565b610b51565b6040516103219190611c1e565b60405180910390f35b610344600480360381019061033f91906117b6565b610b71565b6040516103519190611d56565b60405180910390f35b610374600480360381019061036f919061181b565b610c08565b6040516103819190611c1e565b60405180910390f35b610392610f63565b60405161039f9190611c54565b60405180910390f35b6103b0610ff1565b6040516103bd9190611d56565b60405180910390f35b6103e060048036038101906103db91906118f8565b610ff7565b6040516103ed9190611b81565b60405180910390f35b610410600480360381019061040b91906117b6565b611036565b60405161041d9190611c1e565b60405180910390f35b61042e611286565b60405161043b9190611d56565b60405180910390f35b61045e600480360381019061045991906117b6565b61128c565b005b610468611384565b6040516104759190611bfc565b60405180910390f35b6060600260008373ffffffffffffffffffffffffffffffffffffffff1673ffffffffffffffffffffffffffffffffffffffff16815260200190815260200160002080548060200260200160405190810160405280929190818152602001828054801561053f57602002820191906000526020600020905b8160009054906101000a900473ffffffffffffffffffffffffffffffffffffffff1673ffffffffffffffffffffffffffffffffffffffff16815260200190600101908083116104f5575b50505050509050919050565b600960009054906101000a900473ffffffffffffffffffffffffffffffffffffffff1681565b600b60149054906101000a900460ff1681565b600061058e611412565b73ffffffffffffffffffffffffffffffffffffffff166105ac610b22565b73ffffffffffffffffffffffffffffffffffffffff1614610602576040517f08c379a00000000000000000000000000000000000000000000000000000000081526004016105f990611cf6565b60405180910390fd5b6000600181111561063c577f4e487b7100000000000000000000000000000000000000000000000000000000600052602160045260246000fd5b3073ffffffffffffffffffffffffffffffffffffffff1663200d2ed26040518163ffffffff1660e01b815260040160206040518083038186803b15801561068257600080fd5b505afa158015610696573d6000803e3d6000fd5b505050506040513d601f19601f820116820180604052508101906106ba91906118cf565b60018111156106f2577f4e487b7100000000000000000000000000000000000000000000000000000000600052602160045260246000fd5b14610732576040517f08c379a000000000000000000000000000000000000000000000000000000000815260040161072990611cd6565b60405180910390fd5b600061073d83610b71565b905061074a83858361141a565b600191505092915050565b600a805461076290611f06565b80601f016020809104026020016040519081016040528092919081815260200182805461078e90611f06565b80156107db5780601f106107b0576101008083540402835291602001916107db565b820191906000526020600020905b8154815290600101906020018083116107be57829003601f168201915b505050505081565b60006107ed611412565b73ffffffffffffffffffffffffffffffffffffffff1661080b610b22565b73ffffffffffffffffffffffffffffffffffffffff1614610861576040517f08c379a000000000000000000000000000000000000000000000000000000000815260040161085890611cf6565b60405180910390fd5b6108e88284600360008773ffffffffffffffffffffffffffffffffffffffff1673ffffffffffffffffffffffffffffffffffffffff16815260200190815260200160002060008673ffffffffffffffffffffffffffffffffffffffff1673ffffffffffffffffffffffffffffffffffffffff1681526020019081526020016000205461141a565b600360008473ffffffffffffffffffffffffffffffffffffffff1673ffffffffffffffffffffffffffffffffffffffff16815260200190815260200160002060008373ffffffffffffffffffffffffffffffffffffffff1673ffffffffffffffffffffffffffffffffffffffff16815260200190815260200160002054600360008573ffffffffffffffffffffffffffffffffffffffff1673ffffffffffffffffffffffffffffffffffffffff16815260200190815260200160002060008473ffffffffffffffffffffffffffffffffffffffff1673ffffffffffffffffffffffffffffffffffffffff16815260200190815260200160002060008282546109f09190611e32565b925050819055506001905092915050565b60026020528160005260406000208181548110610a1d57600080fd5b906000526020600020016000915091509054906101000a900473ffffffffffffffffffffffffffffffffffffffff1681565b6003602052816000526040600020602052806000526040600020600091509150505481565b600b60009054906101000a900473ffffffffffffffffffffffffffffffffffffffff1681565b610aa2611412565b73ffffffffffffffffffffffffffffffffffffffff16610ac0610b22565b73ffffffffffffffffffffffffffffffffffffffff1614610b16576040517f08c379a0000000000000000000000000000000000000000000000000000000008152600401610b0d90611cf6565b60405180910390fd5b610b206000611550565b565b60008060009054906101000a900473ffffffffffffffffffffffffffffffffffffffff16905090565b60065481565b60046020528060005260406000206000915054906101000a900460ff1681565b6000808290508073ffffffffffffffffffffffffffffffffffffffff166370a08231306040518263ffffffff1660e01b8152600401610bb09190611b81565b60206040518083038186803b158015610bc857600080fd5b505afa158015610bdc573d6000803e3d6000fd5b505050506040513d601f19601f82011682018060405250810190610c009190611921565b915050919050565b6000610c12611412565b73ffffffffffffffffffffffffffffffffffffffff16610c30610b22565b73ffffffffffffffffffffffffffffffffffffffff1614610c86576040517f08c379a0000000000000000000000000000000000000000000000000000000008152600401610c7d90611cf6565b60405180910390fd5b6000821415610cca576040517f08c379a0000000000000000000000000000000000000000000000000000000008152600401610cc190611cb6565b60405180910390fd5b6000610cd584610b71565b1415610d3f576001839080600181540180825580915050600190039060005260206000200160009091909190916101000a81548173ffffffffffffffffffffffffffffffffffffffff021916908373ffffffffffffffffffffffffffffffffffffffff1602179055505b610d4b83853085611614565b6001600460008673ffffffffffffffffffffffffffffffffffffffff1673ffffffffffffffffffffffffffffffffffffffff16815260200190815260200160002060006101000a81548160ff0219169083151502179055506000600360008673ffffffffffffffffffffffffffffffffffffffff1673ffffffffffffffffffffffffffffffffffffffff16815260200190815260200160002060008573ffffffffffffffffffffffffffffffffffffffff1673ffffffffffffffffffffffffffffffffffffffff168152602001908152602001600020541415610ec957600260008573ffffffffffffffffffffffffffffffffffffffff1673ffffffffffffffffffffffffffffffffffffffff168152602001908152602001600020839080600181540180825580915050600190039060005260206000200160009091909190916101000a81548173ffffffffffffffffffffffffffffffffffffffff021916908373ffffffffffffffffffffffffffffffffffffffff1602179055505b81600360008673ffffffffffffffffffffffffffffffffffffffff1673ffffffffffffffffffffffffffffffffffffffff16815260200190815260200160002060008573ffffffffffffffffffffffffffffffffffffffff1673ffffffffffffffffffffffffffffffffffffffff1681526020019081526020016000206000828254610f559190611ddc565b925050819055509392505050565b60058054610f7090611f06565b80601f0160208091040260200160405190810160405280929190818152602001828054610f9c90611f06565b8015610fe95780601f10610fbe57610100808354040283529160200191610fe9565b820191906000526020600020905b815481529060010190602001808311610fcc57829003601f168201915b505050505081565b60075481565b6001818154811061100757600080fd5b906000526020600020016000915054906101000a900473ffffffffffffffffffffffffffffffffffffffff1681565b6000611040611412565b73ffffffffffffffffffffffffffffffffffffffff1661105e610b22565b73ffffffffffffffffffffffffffffffffffffffff16146110b4576040517f08c379a00000000000000000000000000000000000000000000000000000000081526004016110ab90611cf6565b60405180910390fd5b600060018111156110ee577f4e487b7100000000000000000000000000000000000000000000000000000000600052602160045260246000fd5b3073ffffffffffffffffffffffffffffffffffffffff1663200d2ed26040518163ffffffff1660e01b815260040160206040518083038186803b15801561113457600080fd5b505afa158015611148573d6000803e3d6000fd5b505050506040513d601f19601f8201168201806040525081019061116c91906118cf565b60018111156111a4577f4e487b7100000000000000000000000000000000000000000000000000000000600052602160045260246000fd5b146111e4576040517f08c379a00000000000000000000000000000000000000000000000000000000081526004016111db90611d16565b60405180910390fd5b6001600b60146101000a81548160ff02191690836001811115611230577f4e487b7100000000000000000000000000000000000000000000000000000000600052602160045260246000fd5b021790555081600b60006101000a81548173ffffffffffffffffffffffffffffffffffffffff021916908373ffffffffffffffffffffffffffffffffffffffff1602179055504260078190555060019050919050565b60085481565b611294611412565b73ffffffffffffffffffffffffffffffffffffffff166112b2610b22565b73ffffffffffffffffffffffffffffffffffffffff1614611308576040517f08c379a00000000000000000000000000000000000000000000000000000000081526004016112ff90611cf6565b60405180910390fd5b600073ffffffffffffffffffffffffffffffffffffffff168173ffffffffffffffffffffffffffffffffffffffff161415611378576040517f08c379a000000000000000000000000000000000000000000000000000000000815260040161136f90611c76565b60405180910390fd5b61138181611550565b50565b6060600180548060200260200160405190810160405280929190818152602001828054801561140857602002820191906000526020600020905b8160009054906101000a900473ffffffffffffffffffffffffffffffffffffffff1673ffffffffffffffffffffffffffffffffffffffff16815260200190600101908083116113be575b5050505050905090565b600033905090565b6000808473ffffffffffffffffffffffffffffffffffffffff1663a9059cbb858560405160240161144c929190611bd3565b6040516020818303038152906040529060e01b6020820180517bffffffffffffffffffffffffffffffffffffffffffffffffffffffff838183161783525050505060405161149a9190611b6a565b6000604051808303816000865af19150503d80600081146114d7576040519150601f19603f3d011682016040523d82523d6000602084013e6114dc565b606091505b509150915081801561150a575060008151148061150957508080602001905181019061150891906118a6565b5b5b611549576040517f08c379a000000000000000000000000000000000000000000000000000000000815260040161154090611d36565b60405180910390fd5b5050505050565b60008060009054906101000a900473ffffffffffffffffffffffffffffffffffffffff169050816000806101000a81548173ffffffffffffffffffffffffffffffffffffffff021916908373ffffffffffffffffffffffffffffffffffffffff1602179055508173ffffffffffffffffffffffffffffffffffffffff168173ffffffffffffffffffffffffffffffffffffffff167f8be0079c531659141344cd1fd0a4f28419497f9722a3daafe3b4186f6b6457e060405160405180910390a35050565b6000808573ffffffffffffffffffffffffffffffffffffffff166323b872dd86868660405160240161164893929190611b9c565b6040516020818303038152906040529060e01b6020820180517bffffffffffffffffffffffffffffffffffffffffffffffffffffffff83818316178352505050506040516116969190611b6a565b6000604051808303816000865af19150503d80600081146116d3576040519150601f19603f3d011682016040523d82523d6000602084013e6116d8565b606091505b5091509150818015611706575060008151148061170557508080602001905181019061170491906118a6565b5b5b611745576040517f08c379a000000000000000000000000000000000000000000000000000000000815260040161173c90611c96565b60405180910390fd5b505050505050565b60008135905061175c816121c7565b92915050565b600081519050611771816121de565b92915050565b600081519050611786816121f5565b92915050565b60008135905061179b81612205565b92915050565b6000815190506117b081612205565b92915050565b6000602082840312156117c857600080fd5b60006117d68482850161174d565b91505092915050565b600080604083850312156117f257600080fd5b60006118008582860161174d565b92505060206118118582860161174d565b9150509250929050565b60008060006060848603121561183057600080fd5b600061183e8682870161174d565b935050602061184f8682870161174d565b92505060406118608682870161178c565b9150509250925092565b6000806040838503121561187d57600080fd5b600061188b8582860161174d565b925050602061189c8582860161178c565b9150509250929050565b6000602082840312156118b857600080fd5b60006118c684828501611762565b91505092915050565b6000602082840312156118e157600080fd5b60006118ef84828501611777565b91505092915050565b60006020828403121561190a57600080fd5b60006119188482850161178c565b91505092915050565b60006020828403121561193357600080fd5b6000611941848285016117a1565b91505092915050565b60006119568383611962565b60208301905092915050565b61196b81611e66565b82525050565b61197a81611e66565b82525050565b600061198b82611d81565b6119958185611daf565b93506119a083611d71565b8060005b838110156119d15781516119b8888261194a565b97506119c383611da2565b9250506001810190506119a4565b5085935050505092915050565b6119e781611e78565b82525050565b60006119f882611d8c565b611a028185611dc0565b9350611a12818560208601611ed3565b80840191505092915050565b611a2781611ec1565b82525050565b6000611a3882611d97565b611a428185611dcb565b9350611a52818560208601611ed3565b611a5b81611fc5565b840191505092915050565b6000611a73602683611dcb565b9150611a7e82611fd6565b604082019050919050565b6000611a96603183611dcb565b9150611aa182612025565b604082019050919050565b6000611ab9601483611dcb565b9150611ac482612074565b602082019050919050565b6000611adc603083611dcb565b9150611ae78261209d565b604082019050919050565b6000611aff602083611dcb565b9150611b0a826120ec565b602082019050919050565b6000611b22603583611dcb565b9150611b2d82612115565b604082019050919050565b6000611b45602d83611dcb565b9150611b5082612164565b604082019050919050565b611b6481611eb7565b82525050565b6000611b7682846119ed565b915081905092915050565b6000602082019050611b966000830184611971565b92915050565b6000606082019050611bb16000830186611971565b611bbe6020830185611971565b611bcb6040830184611b5b565b949350505050565b6000604082019050611be86000830185611971565b611bf56020830184611b5b565b9392505050565b60006020820190508181036000830152611c168184611980565b905092915050565b6000602082019050611c3360008301846119de565b92915050565b6000602082019050611c4e6000830184611a1e565b92915050565b60006020820190508181036000830152611c6e8184611a2d565b905092915050565b60006020820190508181036000830152611c8f81611a66565b9050919050565b60006020820190508181036000830152611caf81611a89565b9050919050565b60006020820190508181036000830152611ccf81611aac565b9050919050565b60006020820190508181036000830152611cef81611acf565b9050919050565b60006020820190508181036000830152611d0f81611af2565b9050919050565b60006020820190508181036000830152611d2f81611b15565b9050919050565b60006020820190508181036000830152611d4f81611b38565b9050919050565b6000602082019050611d6b6000830184611b5b565b92915050565b6000819050602082019050919050565b600081519050919050565b600081519050919050565b600081519050919050565b6000602082019050919050565b600082825260208201905092915050565b600081905092915050565b600082825260208201905092915050565b6000611de782611eb7565b9150611df283611eb7565b9250827fffffffffffffffffffffffffffffffffffffffffffffffffffffffffffffffff03821115611e2757611e26611f38565b5b828201905092915050565b6000611e3d82611eb7565b9150611e4883611eb7565b925082821015611e5b57611e5a611f38565b5b828203905092915050565b6000611e7182611e97565b9050919050565b60008115159050919050565b6000819050611e92826121b3565b919050565b600073ffffffffffffffffffffffffffffffffffffffff82169050919050565b6000819050919050565b6000611ecc82611e84565b9050919050565b60005b83811015611ef1578082015181840152602081019050611ed6565b83811115611f00576000848401525b50505050565b60006002820490506001821680611f1e57607f821691505b60208210811415611f3257611f31611f96565b5b50919050565b7f4e487b7100000000000000000000000000000000000000000000000000000000600052601160045260246000fd5b7f4e487b7100000000000000000000000000000000000000000000000000000000600052602160045260246000fd5b7f4e487b7100000000000000000000000000000000000000000000000000000000600052602260045260246000fd5b6000601f19601f8301169050919050565b7f4f776e61626c653a206e6577206f776e657220697320746865207a65726f206160008201527f6464726573730000000000000000000000000000000000000000000000000000602082015250565b7f5472616e7366657248656c7065723a3a7472616e7366657246726f6d3a20747260008201527f616e7366657246726f6d206661696c6564000000000000000000000000000000602082015250565b7f4d7573742073656e6420736f6d652076616c7565000000000000000000000000600082015250565b7f5468697320697320626f756e747920697320636c6f7365642e2043616e6e6f7460008201527f20776974686472617720616761696e2e00000000000000000000000000000000602082015250565b7f4f776e61626c653a2063616c6c6572206973206e6f7420746865206f776e6572600082015250565b7f5468697320697320626f756e747920697320616c726561647920636c6f73656460008201527f2e2043616e6e6f7420636c6f736520616761696e2e0000000000000000000000602082015250565b7f5472616e7366657248656c7065723a3a736166655472616e736665723a20747260008201527f616e73666572206661696c656400000000000000000000000000000000000000602082015250565b600281106121c4576121c3611f67565b5b50565b6121d081611e66565b81146121db57600080fd5b50565b6121e781611e78565b81146121f257600080fd5b50565b6002811061220257600080fd5b50565b61220e81611eb7565b811461221957600080fd5b5056fea26469706673582212201814a80424d8b7298f5ad5330cc208531b7b65dc568e55acf9a678458f0a1d1964736f6c63430008040033",
  "linkReferences": {},
  "deployedLinkReferences": {}
}