{
  "_format": "hh-sol-artifact-1",
  "contractName": "MockKyc",
  "sourceName": "contracts/KYC/MockKyc.sol",
  "abi": [
    {
      "inputs": [
        {
          "internalType": "address",
          "name": "_addr",
          "type": "address"
        }
      ],
      "name": "hasValidToken",
      "outputs": [
        {
          "internalType": "bool",
          "name": "valid",
          "type": "bool"
        }
      ],
      "stateMutability": "view",
      "type": "function"
    },
    {
      "inputs": [],
      "name": "isValid",
      "outputs": [
        {
          "internalType": "bool",
          "name": "",
          "type": "bool"
        }
      ],
      "stateMutability": "view",
      "type": "function"
    }
  ],
  "bytecode": "0x608060405234801561001057600080fd5b5060d08061001f6000396000f3fe6080604052348015600f57600080fd5b506004361060325760003560e01c80639d267630146037578063bb5d40eb146060575b600080fd5b604c6042366004606c565b5060005460ff1690565b604051901515815260200160405180910390f35b600054604c9060ff1681565b600060208284031215607d57600080fd5b81356001600160a01b0381168114609357600080fd5b939250505056fea26469706673582212209e66820d6c80ae5d85bf1f85cd08a1f7a75b1b8a9b2a81d711657539b82c705364736f6c63430008100033",
  "linkReferences": {},
  "deployedLinkReferences": {}
}