{
  "_format": "hh-sol-artifact-1",
  "contractName": "OpenQV1",
  "sourceName": "contracts/OpenQ/Implementations/OpenQV1.sol",
  "abi": [
    {
      "inputs": [],
      "stateMutability": "nonpayable",
      "type": "constructor"
    },
    {
      "anonymous": false,
      "inputs": [
        {
          "indexed": false,
          "internalType": "address",
          "name": "previousAdmin",
          "type": "address"
        },
        {
          "indexed": false,
          "internalType": "address",
          "name": "newAdmin",
          "type": "address"
        }
      ],
      "name": "AdminChanged",
      "type": "event"
    },
    {
      "anonymous": false,
      "inputs": [
        {
          "indexed": true,
          "internalType": "address",
          "name": "beacon",
          "type": "address"
        }
      ],
      "name": "BeaconUpgraded",
      "type": "event"
    },
    {
      "anonymous": false,
      "inputs": [
        {
          "indexed": false,
          "internalType": "string",
          "name": "bountyId",
          "type": "string"
        },
        {
          "indexed": false,
          "internalType": "address",
          "name": "bountyAddress",
          "type": "address"
        },
        {
          "indexed": false,
          "internalType": "string",
          "name": "organization",
          "type": "string"
        },
        {
          "indexed": false,
          "internalType": "address",
          "name": "closer",
          "type": "address"
        },
        {
          "indexed": false,
          "internalType": "uint256",
          "name": "bountyClosedTime",
          "type": "uint256"
        },
        {
          "indexed": false,
          "internalType": "uint256",
          "name": "bountyType",
          "type": "uint256"
        },
        {
          "indexed": false,
          "internalType": "bytes",
          "name": "data",
          "type": "bytes"
        },
        {
          "indexed": false,
          "internalType": "uint256",
          "name": "version",
          "type": "uint256"
        }
      ],
      "name": "BountyClosed",
      "type": "event"
    },
    {
      "anonymous": false,
      "inputs": [
        {
          "indexed": false,
          "internalType": "string",
          "name": "bountyId",
          "type": "string"
        },
        {
          "indexed": false,
          "internalType": "string",
          "name": "organization",
          "type": "string"
        },
        {
          "indexed": false,
          "internalType": "address",
          "name": "issuerAddress",
          "type": "address"
        },
        {
          "indexed": false,
          "internalType": "address",
          "name": "bountyAddress",
          "type": "address"
        },
        {
          "indexed": false,
          "internalType": "uint256",
          "name": "bountyMintTime",
          "type": "uint256"
        },
        {
          "indexed": false,
          "internalType": "uint256",
          "name": "bountyType",
          "type": "uint256"
        },
        {
          "indexed": false,
          "internalType": "bytes",
          "name": "data",
          "type": "bytes"
        },
        {
          "indexed": false,
          "internalType": "uint256",
          "name": "version",
          "type": "uint256"
        }
      ],
      "name": "BountyCreated",
      "type": "event"
    },
    {
      "anonymous": false,
      "inputs": [
        {
          "indexed": false,
          "internalType": "uint256",
          "name": "claimTime",
          "type": "uint256"
        },
        {
          "indexed": false,
          "internalType": "uint256",
          "name": "bountyType",
          "type": "uint256"
        },
        {
          "indexed": false,
          "internalType": "bytes",
          "name": "data",
          "type": "bytes"
        },
        {
          "indexed": false,
          "internalType": "uint256",
          "name": "version",
          "type": "uint256"
        }
      ],
      "name": "ClaimSuccess",
      "type": "event"
    },
    {
      "anonymous": false,
      "inputs": [
        {
          "indexed": false,
          "internalType": "bytes32",
          "name": "depositId",
          "type": "bytes32"
        },
        {
          "indexed": false,
          "internalType": "uint256",
          "name": "newExpiration",
          "type": "uint256"
        },
        {
          "indexed": false,
          "internalType": "uint256",
          "name": "bountyType",
          "type": "uint256"
        },
        {
          "indexed": false,
          "internalType": "bytes",
          "name": "data",
          "type": "bytes"
        },
        {
          "indexed": false,
          "internalType": "uint256",
          "name": "version",
          "type": "uint256"
        }
      ],
      "name": "DepositExtended",
      "type": "event"
    },
    {
      "anonymous": false,
      "inputs": [
        {
          "indexed": false,
          "internalType": "bytes32",
          "name": "depositId",
          "type": "bytes32"
        },
        {
          "indexed": false,
          "internalType": "string",
          "name": "bountyId",
          "type": "string"
        },
        {
          "indexed": false,
          "internalType": "address",
          "name": "bountyAddress",
          "type": "address"
        },
        {
          "indexed": false,
          "internalType": "string",
          "name": "organization",
          "type": "string"
        },
        {
          "indexed": false,
          "internalType": "uint256",
          "name": "refundTime",
          "type": "uint256"
        },
        {
          "indexed": false,
          "internalType": "address",
          "name": "tokenAddress",
          "type": "address"
        },
        {
          "indexed": false,
          "internalType": "uint256",
          "name": "volume",
          "type": "uint256"
        },
        {
          "indexed": false,
          "internalType": "uint256",
          "name": "bountyType",
          "type": "uint256"
        },
        {
          "indexed": false,
          "internalType": "bytes",
          "name": "data",
          "type": "bytes"
        },
        {
          "indexed": false,
          "internalType": "uint256",
          "name": "version",
          "type": "uint256"
        }
      ],
      "name": "DepositRefunded",
      "type": "event"
    },
    {
      "anonymous": false,
      "inputs": [
        {
          "indexed": false,
          "internalType": "address",
          "name": "bountyAddress",
          "type": "address"
        },
        {
          "indexed": false,
          "internalType": "address",
          "name": "fundingGoalTokenAddress",
          "type": "address"
        },
        {
          "indexed": false,
          "internalType": "uint256",
          "name": "fundingGoalVolume",
          "type": "uint256"
        },
        {
          "indexed": false,
          "internalType": "uint256",
          "name": "bountyType",
          "type": "uint256"
        },
        {
          "indexed": false,
          "internalType": "bytes",
          "name": "data",
          "type": "bytes"
        },
        {
          "indexed": false,
          "internalType": "uint256",
          "name": "version",
          "type": "uint256"
        }
      ],
      "name": "FundingGoalSet",
      "type": "event"
    },
    {
      "anonymous": false,
      "inputs": [
        {
          "indexed": false,
          "internalType": "uint8",
          "name": "version",
          "type": "uint8"
        }
      ],
      "name": "Initialized",
      "type": "event"
    },
    {
      "anonymous": false,
      "inputs": [
        {
          "indexed": false,
          "internalType": "string",
          "name": "bountyId",
          "type": "string"
        },
        {
          "indexed": false,
          "internalType": "address",
          "name": "bountyAddress",
          "type": "address"
        },
        {
          "indexed": false,
          "internalType": "string",
          "name": "organization",
          "type": "string"
        },
        {
          "indexed": false,
          "internalType": "address",
          "name": "closer",
          "type": "address"
        },
        {
          "indexed": false,
          "internalType": "uint256",
          "name": "payoutTime",
          "type": "uint256"
        },
        {
          "indexed": false,
          "internalType": "address",
          "name": "tokenAddress",
          "type": "address"
        },
        {
          "indexed": false,
          "internalType": "uint256",
          "name": "tokenId",
          "type": "uint256"
        },
        {
          "indexed": false,
          "internalType": "uint256",
          "name": "bountyType",
          "type": "uint256"
        },
        {
          "indexed": false,
          "internalType": "bytes",
          "name": "data",
          "type": "bytes"
        },
        {
          "indexed": false,
          "internalType": "uint256",
          "name": "version",
          "type": "uint256"
        }
      ],
      "name": "NFTClaimed",
      "type": "event"
    },
    {
      "anonymous": false,
      "inputs": [
        {
          "indexed": false,
          "internalType": "bytes32",
          "name": "depositId",
          "type": "bytes32"
        },
        {
          "indexed": false,
          "internalType": "address",
          "name": "bountyAddress",
          "type": "address"
        },
        {
          "indexed": false,
          "internalType": "string",
          "name": "bountyId",
          "type": "string"
        },
        {
          "indexed": false,
          "internalType": "string",
          "name": "organization",
          "type": "string"
        },
        {
          "indexed": false,
          "internalType": "address",
          "name": "tokenAddress",
          "type": "address"
        },
        {
          "indexed": false,
          "internalType": "uint256",
          "name": "receiveTime",
          "type": "uint256"
        },
        {
          "indexed": false,
          "internalType": "address",
          "name": "sender",
          "type": "address"
        },
        {
          "indexed": false,
          "internalType": "uint256",
          "name": "expiration",
          "type": "uint256"
        },
        {
          "indexed": false,
          "internalType": "uint256",
          "name": "tokenId",
          "type": "uint256"
        },
        {
          "indexed": false,
          "internalType": "uint256",
          "name": "bountyType",
          "type": "uint256"
        },
        {
          "indexed": false,
          "internalType": "bytes",
          "name": "data",
          "type": "bytes"
        },
        {
          "indexed": false,
          "internalType": "uint256",
          "name": "version",
          "type": "uint256"
        }
      ],
      "name": "NFTDepositReceived",
      "type": "event"
    },
    {
      "anonymous": false,
      "inputs": [
        {
          "indexed": true,
          "internalType": "address",
          "name": "previousOwner",
          "type": "address"
        },
        {
          "indexed": true,
          "internalType": "address",
          "name": "newOwner",
          "type": "address"
        }
      ],
      "name": "OwnershipTransferred",
      "type": "event"
    },
    {
      "anonymous": false,
      "inputs": [
        {
          "indexed": false,
          "internalType": "address",
          "name": "bountyAddress",
          "type": "address"
        },
        {
          "indexed": false,
          "internalType": "address",
          "name": "payoutTokenAddress",
          "type": "address"
        },
        {
          "indexed": false,
          "internalType": "uint256[]",
          "name": "payoutSchedule",
          "type": "uint256[]"
        },
        {
          "indexed": false,
          "internalType": "uint256",
          "name": "bountyType",
          "type": "uint256"
        },
        {
          "indexed": false,
          "internalType": "bytes",
          "name": "data",
          "type": "bytes"
        },
        {
          "indexed": false,
          "internalType": "uint256",
          "name": "version",
          "type": "uint256"
        }
      ],
      "name": "PayoutScheduleSet",
      "type": "event"
    },
    {
      "anonymous": false,
      "inputs": [
        {
          "indexed": false,
          "internalType": "address",
          "name": "bountyAddress",
          "type": "address"
        },
        {
          "indexed": false,
          "internalType": "address",
          "name": "payoutTokenAddress",
          "type": "address"
        },
        {
          "indexed": false,
          "internalType": "uint256",
          "name": "payoutTokenVolume",
          "type": "uint256"
        },
        {
          "indexed": false,
          "internalType": "uint256",
          "name": "bountyType",
          "type": "uint256"
        },
        {
          "indexed": false,
          "internalType": "bytes",
          "name": "data",
          "type": "bytes"
        },
        {
          "indexed": false,
          "internalType": "uint256",
          "name": "version",
          "type": "uint256"
        }
      ],
      "name": "PayoutSet",
      "type": "event"
    },
    {
      "anonymous": false,
      "inputs": [
        {
          "indexed": false,
          "internalType": "string",
          "name": "bountyId",
          "type": "string"
        },
        {
          "indexed": false,
          "internalType": "address",
          "name": "bountyAddress",
          "type": "address"
        },
        {
          "indexed": false,
          "internalType": "string",
          "name": "organization",
          "type": "string"
        },
        {
          "indexed": false,
          "internalType": "address",
          "name": "closer",
          "type": "address"
        },
        {
          "indexed": false,
          "internalType": "uint256",
          "name": "payoutTime",
          "type": "uint256"
        },
        {
          "indexed": false,
          "internalType": "address",
          "name": "tokenAddress",
          "type": "address"
        },
        {
          "indexed": false,
          "internalType": "uint256",
          "name": "volume",
          "type": "uint256"
        },
        {
          "indexed": false,
          "internalType": "uint256",
          "name": "bountyType",
          "type": "uint256"
        },
        {
          "indexed": false,
          "internalType": "bytes",
          "name": "data",
          "type": "bytes"
        },
        {
          "indexed": false,
          "internalType": "uint256",
          "name": "version",
          "type": "uint256"
        }
      ],
      "name": "TokenBalanceClaimed",
      "type": "event"
    },
    {
      "anonymous": false,
      "inputs": [
        {
          "indexed": false,
          "internalType": "bytes32",
          "name": "depositId",
          "type": "bytes32"
        },
        {
          "indexed": false,
          "internalType": "address",
          "name": "bountyAddress",
          "type": "address"
        },
        {
          "indexed": false,
          "internalType": "string",
          "name": "bountyId",
          "type": "string"
        },
        {
          "indexed": false,
          "internalType": "string",
          "name": "organization",
          "type": "string"
        },
        {
          "indexed": false,
          "internalType": "address",
          "name": "tokenAddress",
          "type": "address"
        },
        {
          "indexed": false,
          "internalType": "uint256",
          "name": "receiveTime",
          "type": "uint256"
        },
        {
          "indexed": false,
          "internalType": "address",
          "name": "sender",
          "type": "address"
        },
        {
          "indexed": false,
          "internalType": "uint256",
          "name": "expiration",
          "type": "uint256"
        },
        {
          "indexed": false,
          "internalType": "uint256",
          "name": "volume",
          "type": "uint256"
        },
        {
          "indexed": false,
          "internalType": "uint256",
          "name": "bountyType",
          "type": "uint256"
        },
        {
          "indexed": false,
          "internalType": "bytes",
          "name": "data",
          "type": "bytes"
        },
        {
          "indexed": false,
          "internalType": "uint256",
          "name": "version",
          "type": "uint256"
        }
      ],
      "name": "TokenDepositReceived",
      "type": "event"
    },
    {
      "anonymous": false,
      "inputs": [
        {
          "indexed": true,
          "internalType": "address",
          "name": "implementation",
          "type": "address"
        }
      ],
      "name": "Upgraded",
      "type": "event"
    },
    {
      "inputs": [],
      "name": "VERSION_1",
      "outputs": [
        {
          "internalType": "uint256",
          "name": "",
          "type": "uint256"
        }
      ],
      "stateMutability": "view",
      "type": "function"
    },
    {
      "inputs": [
        {
          "internalType": "address",
          "name": "_bountyAddress",
          "type": "address"
        }
      ],
      "name": "bountyAddressToBountyId",
      "outputs": [
        {
          "internalType": "string",
          "name": "",
          "type": "string"
        }
      ],
      "stateMutability": "view",
      "type": "function"
    },
    {
      "inputs": [],
      "name": "bountyFactory",
      "outputs": [
        {
          "internalType": "contract BountyFactory",
          "name": "",
          "type": "address"
        }
      ],
      "stateMutability": "view",
      "type": "function"
    },
    {
      "inputs": [
        {
          "internalType": "string",
          "name": "",
          "type": "string"
        }
      ],
      "name": "bountyIdToAddress",
      "outputs": [
        {
          "internalType": "address",
          "name": "",
          "type": "address"
        }
      ],
      "stateMutability": "view",
      "type": "function"
    },
    {
      "inputs": [
        {
          "internalType": "string",
          "name": "_bountyId",
          "type": "string"
        }
      ],
      "name": "bountyIsOpen",
      "outputs": [
        {
          "internalType": "bool",
          "name": "",
          "type": "bool"
        }
      ],
      "stateMutability": "view",
      "type": "function"
    },
    {
      "inputs": [
        {
          "internalType": "string",
          "name": "_bountyId",
          "type": "string"
        }
      ],
      "name": "bountyType",
      "outputs": [
        {
          "internalType": "uint256",
          "name": "",
          "type": "uint256"
        }
      ],
      "stateMutability": "view",
      "type": "function"
    },
    {
      "inputs": [],
      "name": "claimManager",
      "outputs": [
        {
          "internalType": "address",
          "name": "",
          "type": "address"
        }
      ],
      "stateMutability": "view",
      "type": "function"
    },
    {
      "inputs": [
        {
          "internalType": "string",
          "name": "_bountyId",
          "type": "string"
        }
      ],
      "name": "closeOngoing",
      "outputs": [],
      "stateMutability": "nonpayable",
      "type": "function"
    },
    {
      "inputs": [],
      "name": "depositManager",
      "outputs": [
        {
          "internalType": "address",
          "name": "",
          "type": "address"
        }
      ],
      "stateMutability": "view",
      "type": "function"
    },
    {
      "inputs": [],
      "name": "getImplementation",
      "outputs": [
        {
          "internalType": "address",
          "name": "",
          "type": "address"
        }
      ],
      "stateMutability": "view",
      "type": "function"
    },
    {
      "inputs": [],
      "name": "initialize",
      "outputs": [],
      "stateMutability": "nonpayable",
      "type": "function"
    },
    {
      "inputs": [
        {
          "internalType": "string",
          "name": "_bountyId",
          "type": "string"
        },
        {
          "internalType": "string",
          "name": "_organization",
          "type": "string"
        },
        {
          "components": [
            {
              "internalType": "uint32",
              "name": "operationType",
              "type": "uint32"
            },
            {
              "internalType": "bytes",
              "name": "data",
              "type": "bytes"
            }
          ],
          "internalType": "struct OpenQDefinitions.InitOperation",
          "name": "_initOperation",
          "type": "tuple"
        }
      ],
      "name": "mintBounty",
      "outputs": [
        {
          "internalType": "address",
          "name": "",
          "type": "address"
        }
      ],
      "stateMutability": "nonpayable",
      "type": "function"
    },
    {
      "inputs": [
        {
          "internalType": "string",
          "name": "_bountyId",
          "type": "string"
        },
        {
          "internalType": "string",
          "name": "claimant",
          "type": "string"
        },
        {
          "internalType": "string",
          "name": "claimantAsset",
          "type": "string"
        }
      ],
      "name": "ongoingClaimed",
      "outputs": [
        {
          "internalType": "bool",
          "name": "",
          "type": "bool"
        }
      ],
      "stateMutability": "view",
      "type": "function"
    },
    {
      "inputs": [],
      "name": "owner",
      "outputs": [
        {
          "internalType": "address",
          "name": "",
          "type": "address"
        }
      ],
      "stateMutability": "view",
      "type": "function"
    },
    {
      "inputs": [],
      "name": "proxiableUUID",
      "outputs": [
        {
          "internalType": "bytes32",
          "name": "",
          "type": "bytes32"
        }
      ],
      "stateMutability": "view",
      "type": "function"
    },
    {
      "inputs": [],
      "name": "renounceOwnership",
      "outputs": [],
      "stateMutability": "nonpayable",
      "type": "function"
    },
    {
      "inputs": [
        {
          "internalType": "address",
          "name": "_bountyFactory",
          "type": "address"
        }
      ],
      "name": "setBountyFactory",
      "outputs": [],
      "stateMutability": "nonpayable",
      "type": "function"
    },
    {
      "inputs": [
        {
          "internalType": "address",
          "name": "_claimManager",
          "type": "address"
        }
      ],
      "name": "setClaimManager",
      "outputs": [],
      "stateMutability": "nonpayable",
      "type": "function"
    },
    {
      "inputs": [
        {
          "internalType": "address",
          "name": "_depositManager",
          "type": "address"
        }
      ],
      "name": "setDepositManager",
      "outputs": [],
      "stateMutability": "nonpayable",
      "type": "function"
    },
    {
      "inputs": [
        {
          "internalType": "string",
          "name": "_bountyId",
          "type": "string"
        },
        {
          "internalType": "address",
          "name": "_fundingGoalToken",
          "type": "address"
        },
        {
          "internalType": "uint256",
          "name": "_fundingGoalVolume",
          "type": "uint256"
        }
      ],
      "name": "setFundingGoal",
      "outputs": [],
      "stateMutability": "nonpayable",
      "type": "function"
    },
    {
      "inputs": [
        {
          "internalType": "string",
          "name": "_bountyId",
          "type": "string"
        },
        {
          "internalType": "address",
          "name": "_payoutToken",
          "type": "address"
        },
        {
          "internalType": "uint256",
          "name": "_payoutVolume",
          "type": "uint256"
        }
      ],
      "name": "setPayout",
      "outputs": [],
      "stateMutability": "nonpayable",
      "type": "function"
    },
    {
      "inputs": [
        {
          "internalType": "string",
          "name": "_bountyId",
          "type": "string"
        },
        {
          "internalType": "uint256[]",
          "name": "_payoutSchedule",
          "type": "uint256[]"
        }
      ],
      "name": "setPayoutSchedule",
      "outputs": [],
      "stateMutability": "nonpayable",
      "type": "function"
    },
    {
      "inputs": [
        {
          "internalType": "string",
          "name": "_bountyId",
          "type": "string"
        },
        {
          "internalType": "uint256[]",
          "name": "_payoutSchedule",
          "type": "uint256[]"
        },
        {
          "internalType": "address",
          "name": "_payoutTokenAddress",
          "type": "address"
        }
      ],
      "name": "setPayoutScheduleFixed",
      "outputs": [],
      "stateMutability": "nonpayable",
      "type": "function"
    },
    {
      "inputs": [
        {
          "internalType": "string",
          "name": "_bountyId",
          "type": "string"
        }
      ],
      "name": "solvent",
      "outputs": [
        {
          "internalType": "bool",
          "name": "",
          "type": "bool"
        }
      ],
      "stateMutability": "view",
      "type": "function"
    },
    {
      "inputs": [
        {
          "internalType": "string",
          "name": "_bountyId",
          "type": "string"
        },
        {
          "internalType": "uint256",
          "name": "_tier",
          "type": "uint256"
        }
      ],
      "name": "tierClaimed",
      "outputs": [
        {
          "internalType": "bool",
          "name": "",
          "type": "bool"
        }
      ],
      "stateMutability": "view",
      "type": "function"
    },
    {
      "inputs": [
        {
          "internalType": "address",
          "name": "newOwner",
          "type": "address"
        }
      ],
      "name": "transferOwnership",
      "outputs": [],
      "stateMutability": "nonpayable",
      "type": "function"
    },
    {
      "inputs": [
        {
          "internalType": "address",
          "name": "newImplementation",
          "type": "address"
        }
      ],
      "name": "upgradeTo",
      "outputs": [],
      "stateMutability": "nonpayable",
      "type": "function"
    },
    {
      "inputs": [
        {
          "internalType": "address",
          "name": "newImplementation",
          "type": "address"
        },
        {
          "internalType": "bytes",
          "name": "data",
          "type": "bytes"
        }
      ],
      "name": "upgradeToAndCall",
      "outputs": [],
      "stateMutability": "payable",
      "type": "function"
    }
  ],
  "bytecode": "0x60a06040523060805234801561001457600080fd5b506080516131b66100ca600039600081816105e30152818161062c015281816106b6015281816106f60152818161085b0152818161089b0152818161097c015281816109bc01528181610d4801528181610d8801528181610e0401528181610ec801528181610f080152818161122b0152818161126b0152818161132b0152818161136b0152818161166a015281816116aa01528181611ba201528181611be201528181611df10152611e3101526131b66000f3fe6080604052600436106101b75760003560e01c80638129fc1c116100ec578063b8f75c0b1161008a578063f2fde38b11610064578063f2fde38b146104e5578063f8d7c19d14610505578063fa4657ad14610525578063fd1b2e3f1461054557600080fd5b8063b8f75c0b14610485578063b91a53df146104a5578063bdc969c6146104c557600080fd5b8063a8bca7b8116100c6578063a8bca7b814610410578063a9a36dcd14610430578063aaf10f4214610450578063b6da21441461046557600080fd5b80638129fc1c146103bd5780638da5cb5b146103d2578063957016ed146103f057600080fd5b80634352dc1b1161015957806352d1902d1161013357806352d1902d146103535780636c7ac9d814610368578063715018a61461038857806371b30d8c1461039d57600080fd5b80634352dc1b146102df57806348bd1e99146102ff5780634f1ef2861461034057600080fd5b806326c20e5f1161019557806326c20e5f1461023457806336200461146102575780633659cfe6146102875780633948eddd146102a757600080fd5b806310fd86c8146101bc57806316a2a0cc146101f2578063228d71a914610214575b600080fd5b3480156101c857600080fd5b506101dc6101d7366004612696565b610565565b6040516101e99190612703565b60405180910390f35b3480156101fe57600080fd5b5061021261020d366004612696565b6105d9565b005b34801561022057600080fd5b5061021261022f366004612696565b6106ac565b34801561024057600080fd5b50610249600181565b6040519081526020016101e9565b34801561026357600080fd5b5061027761027236600461275e565b610776565b60405190151581526020016101e9565b34801561029357600080fd5b506102126102a2366004612696565b610851565b3480156102b357600080fd5b506102c76102c23660046128ea565b610919565b6040516001600160a01b0390911681526020016101e9565b3480156102eb57600080fd5b506102776102fa3660046129c9565b610bcd565b34801561030b57600080fd5b506102c761031a366004612a0a565b805160208183018101805160fe825292820191909301209152546001600160a01b031681565b61021261034e366004612a5a565b610d3e565b34801561035f57600080fd5b50610249610df7565b34801561037457600080fd5b5060fd546102c7906001600160a01b031681565b34801561039457600080fd5b50610212610eaa565b3480156103a957600080fd5b506102126103b8366004612aa9565b610ebe565b3480156103c957600080fd5b50610212611161565b3480156103de57600080fd5b506033546001600160a01b03166102c7565b3480156103fc57600080fd5b5061021261040b366004612b49565b611321565b34801561041c57600080fd5b5061024961042b3660046129c9565b6115b5565b34801561043c57600080fd5b5060fc546102c7906001600160a01b031681565b34801561045c57600080fd5b506102c7611651565b34801561047157600080fd5b50610212610480366004612696565b611660565b34801561049157600080fd5b5060fb546102c7906001600160a01b031681565b3480156104b157600080fd5b506102126104c03660046129c9565b61172a565b3480156104d157600080fd5b506102776104e0366004612bb4565b611a7d565b3480156104f157600080fd5b50610212610500366004612696565b611b22565b34801561051157600080fd5b50610212610520366004612aa9565b611b98565b34801561053157600080fd5b50610212610540366004612bff565b611de7565b34801561055157600080fd5b506102776105603660046129c9565b61208d565b60606000829050806001600160a01b031663c17bd75e6040518163ffffffff1660e01b8152600401600060405180830381865afa1580156105aa573d6000803e3d6000fd5b505050506040513d6000823e601f3d908101601f191682016040526105d29190810190612c82565b9392505050565b6001600160a01b037f000000000000000000000000000000000000000000000000000000000000000016300361062a5760405162461bcd60e51b815260040161062190612cef565b60405180910390fd5b7f00000000000000000000000000000000000000000000000000000000000000006001600160a01b031661065c61212a565b6001600160a01b0316146106825760405162461bcd60e51b815260040161062190612d3b565b61068a612146565b60fb80546001600160a01b0319166001600160a01b0392909216919091179055565b6001600160a01b037f00000000000000000000000000000000000000000000000000000000000000001630036106f45760405162461bcd60e51b815260040161062190612cef565b7f00000000000000000000000000000000000000000000000000000000000000006001600160a01b031661072661212a565b6001600160a01b03161461074c5760405162461bcd60e51b815260040161062190612d3b565b610754612146565b60fd80546001600160a01b0319166001600160a01b0392909216919091179055565b60008060fe888860405161078b929190612d87565b90815260405160209181900382018120546001600160a01b0316925082916000916107be918a918a918a918a9101612dc0565b60408051601f19818403018152908290528051602090910120636420fd9360e01b82526004820181905291506000906001600160a01b03841690636420fd9390602401602060405180830381865afa15801561081e573d6000803e3d6000fd5b505050506040513d601f19601f820116820180604052508101906108429190612de7565b9b9a5050505050505050505050565b6001600160a01b037f00000000000000000000000000000000000000000000000000000000000000001630036108995760405162461bcd60e51b815260040161062190612cef565b7f00000000000000000000000000000000000000000000000000000000000000006001600160a01b03166108cb61212a565b6001600160a01b0316146108f15760405162461bcd60e51b815260040161062190612d3b565b6108fa816121a0565b60408051600080825260208201909252610916918391906121a8565b50565b6000600260c9540361096d5760405162461bcd60e51b815260206004820152601f60248201527f5265656e7472616e637947756172643a207265656e7472616e742063616c6c006044820152606401610621565b600260c9556001600160a01b037f00000000000000000000000000000000000000000000000000000000000000001630036109ba5760405162461bcd60e51b815260040161062190612cef565b7f00000000000000000000000000000000000000000000000000000000000000006001600160a01b03166109ec61212a565b6001600160a01b031614610a125760405162461bcd60e51b815260040161062190612d3b565b60006001600160a01b031660fe8787604051610a2f929190612d87565b908152604080519182900360209081018320548383019092526015835274424f554e54595f414c52454144595f45584953545360581b9083015290916001600160a01b0390911614610a945760405162461bcd60e51b81526004016106219190612703565b5060fb5460fc5460fd546040516323e95f5160e11b81526000936001600160a01b03908116936347d2bea293610ae0938d938d9333938e938e9392831692909116908d90600401612e09565b6020604051808303816000875af1158015610aff573d6000803e3d6000fd5b505050506040513d601f19601f82011682018060405250810190610b239190612e8e565b90508060fe8888604051610b38929190612d87565b90815260405190819003602001902080546001600160a01b03929092166001600160a01b03199092169190911790557f07bf14db09a3c8b7d7e240acc23ab6da8587183655a6ffcbda01ca7b026a375787878787338642610b9987876115b5565b8b602001516001604051610bb69a99989796959493929190612eab565b60405180910390a1600160c9559695505050505050565b60008060fe8484604051610be2929190612d87565b908152604080516020928190038301812054630b98090760e31b825291516001600160a01b03909216935083926000928492633aecd0e3928492635cc048389260048082019392918290030181865afa158015610c43573d6000803e3d6000fd5b505050506040513d601f19601f82011682018060405250810190610c679190612e8e565b6040516001600160e01b031960e084901b1681526001600160a01b039091166004820152602401602060405180830381865afa158015610cab573d6000803e3d6000fd5b505050506040513d601f19601f82011682018060405250810190610ccf9190612f26565b9050816001600160a01b031663b3f23b736040518163ffffffff1660e01b8152600401602060405180830381865afa158015610d0f573d6000803e3d6000fd5b505050506040513d601f19601f82011682018060405250810190610d339190612f26565b111595945050505050565b6001600160a01b037f0000000000000000000000000000000000000000000000000000000000000000163003610d865760405162461bcd60e51b815260040161062190612cef565b7f00000000000000000000000000000000000000000000000000000000000000006001600160a01b0316610db861212a565b6001600160a01b031614610dde5760405162461bcd60e51b815260040161062190612d3b565b610de7826121a0565b610df3828260016121a8565b5050565b6000306001600160a01b037f00000000000000000000000000000000000000000000000000000000000000001614610e975760405162461bcd60e51b815260206004820152603860248201527f555550535570677261646561626c653a206d757374206e6f742062652063616c60448201527f6c6564207468726f7567682064656c656761746563616c6c00000000000000006064820152608401610621565b5060008051602061313a83398151915290565b610eb2612146565b610ebc6000612318565b565b6001600160a01b037f0000000000000000000000000000000000000000000000000000000000000000163003610f065760405162461bcd60e51b815260040161062190612cef565b7f00000000000000000000000000000000000000000000000000000000000000006001600160a01b0316610f3861212a565b6001600160a01b031614610f5e5760405162461bcd60e51b815260040161062190612d3b565b600060fe8585604051610f72929190612d87565b9081526040805160209281900383018120546303a2870960e31b825291516001600160a01b03909216935083928392631d1438489260048082019392918290030181865afa158015610fc8573d6000803e3d6000fd5b505050506040513d601f19601f82011682018060405250810190610fec9190612e8e565b6001600160a01b0316336001600160a01b0316146040518060400160405280601181526020017021a0a62622a92fa727aa2fa4a9a9aaa2a960791b815250906110485760405162461bcd60e51b81526004016106219190612703565b50604051633d0cb68760e11b81526001600160a01b03858116600483015260248201859052821690637a196d0e90604401600060405180830381600087803b15801561109357600080fd5b505af11580156110a7573d6000803e3d6000fd5b505050507fbb9405a972eb4ee3568c40dcd1a2c0ad2b86495f0478c68c5924d0a3773f282d828585846001600160a01b031663b3ca1f3b6040518163ffffffff1660e01b8152600401602060405180830381865afa15801561110d573d6000803e3d6000fd5b505050506040513d601f19601f820116820180604052508101906111319190612f26565b604080516000815260208101918290526111519594939291600190612f3f565b60405180910390a1505050505050565b600054610100900460ff16158080156111815750600054600160ff909116105b8061119b5750303b15801561119b575060005460ff166001145b6111fe5760405162461bcd60e51b815260206004820152602e60248201527f496e697469616c697a61626c653a20636f6e747261637420697320616c72656160448201526d191e481a5b9a5d1a585b1a5e995960921b6064820152608401610621565b6000805460ff191660011790558015611221576000805461ff0019166101001790555b6001600160a01b037f00000000000000000000000000000000000000000000000000000000000000001630036112695760405162461bcd60e51b815260040161062190612cef565b7f00000000000000000000000000000000000000000000000000000000000000006001600160a01b031661129b61212a565b6001600160a01b0316146112c15760405162461bcd60e51b815260040161062190612d3b565b6112c961236a565b6112d1612399565b6112d96123c0565b8015610916576000805461ff0019169055604051600181527f7f26b83ff96e1f2b6a682f133852f6798a09c465da95921460cefb38474024989060200160405180910390a150565b6001600160a01b037f00000000000000000000000000000000000000000000000000000000000000001630036113695760405162461bcd60e51b815260040161062190612cef565b7f00000000000000000000000000000000000000000000000000000000000000006001600160a01b031661139b61212a565b6001600160a01b0316146113c15760405162461bcd60e51b815260040161062190612d3b565b600060fe85856040516113d5929190612d87565b9081526040805160209281900383018120546303a2870960e31b825291516001600160a01b03909216935083928392631d1438489260048082019392918290030181865afa15801561142b573d6000803e3d6000fd5b505050506040513d601f19601f8201168201806040525081019061144f9190612e8e565b6001600160a01b0316336001600160a01b0316146040518060400160405280601181526020017021a0a62622a92fa727aa2fa4a9a9aaa2a960791b815250906114ab5760405162461bcd60e51b81526004016106219190612703565b50604051631f2e3a3960e21b81526001600160a01b03821690637cb8e8e4906114da9087908790600401612fbe565b600060405180830381600087803b1580156114f457600080fd5b505af1158015611508573d6000803e3d6000fd5b505050507fc01596aef916fd836c1d861e3aa0bcabd30fa27830ebb88b76016236c942b4598260008686856001600160a01b031663b3ca1f3b6040518163ffffffff1660e01b8152600401602060405180830381865afa158015611570573d6000803e3d6000fd5b505050506040513d601f19601f820116820180604052508101906115949190612f26565b60408051600081526020810191829052611151969594939291600190612fd2565b60008060fe84846040516115ca929190612d87565b9081526040805191829003602090810183205463b3ca1f3b60e01b845291516001600160a01b0390921693508392600092849263b3ca1f3b92600480820193918290030181865afa158015611623573d6000803e3d6000fd5b505050506040513d601f19601f820116820180604052508101906116479190612f26565b9695505050505050565b600061165b61212a565b905090565b6001600160a01b037f00000000000000000000000000000000000000000000000000000000000000001630036116a85760405162461bcd60e51b815260040161062190612cef565b7f00000000000000000000000000000000000000000000000000000000000000006001600160a01b03166116da61212a565b6001600160a01b0316146117005760405162461bcd60e51b815260040161062190612d3b565b611708612146565b60fc80546001600160a01b0319166001600160a01b0392909216919091179055565b611734828261208d565b6040518060400160405280601781526020017f434f4e54524143545f414c52454144595f434c4f534544000000000000000000815250906117885760405162461bcd60e51b81526004016106219190612703565b50600161179583836115b5565b146040518060400160405280601781526020017f4e4f545f414e5f4f4e474f494e475f434f4e5452414354000000000000000000815250906117ea5760405162461bcd60e51b81526004016106219190612703565b50600060fe83836040516117ff929190612d87565b9081526040805160209281900383018120546303a2870960e31b825291516001600160a01b0390921693508392631d143848926004808401938290030181865afa158015611851573d6000803e3d6000fd5b505050506040513d601f19601f820116820180604052508101906118759190612e8e565b6001600160a01b0316336001600160a01b0316146040518060400160405280601181526020017021a0a62622a92fa727aa2fa4a9a9aaa2a960791b815250906118d15760405162461bcd60e51b81526004016106219190612703565b5060405163764e161b60e11b81523360048201526001600160a01b0382169063ec9c2c3690602401600060405180830381600087803b15801561191357600080fd5b505af1158015611927573d6000803e3d6000fd5b505050507fb9d76ba577270421a3b4826a02b81b7678f1d62214225408b99f94e42d78278c838360fe8686604051611960929190612d87565b908152602001604051809103902060009054906101000a90046001600160a01b0316846001600160a01b03166323bd4d7a6040518163ffffffff1660e01b8152600401600060405180830381865afa1580156119c0573d6000803e3d6000fd5b505050506040513d6000823e601f3d908101601f191682016040526119e89190810190612c82565b600042876001600160a01b031663b3ca1f3b6040518163ffffffff1660e01b8152600401602060405180830381865afa158015611a29573d6000803e3d6000fd5b505050506040513d601f19601f82011682018060405250810190611a4d9190612f26565b60408051600081526020810191829052611a70989796959493929160019061302c565b60405180910390a1505050565b60008060fe8585604051611a92929190612d87565b90815260405190819003602001812054634ee5bdc760e11b82526001600160a01b0316915081906000908290639dcb7b8e90611ad690889060040190815260200190565b602060405180830381865afa158015611af3573d6000803e3d6000fd5b505050506040513d601f19601f82011682018060405250810190611b179190612de7565b979650505050505050565b611b2a612146565b6001600160a01b038116611b8f5760405162461bcd60e51b815260206004820152602660248201527f4f776e61626c653a206e6577206f776e657220697320746865207a65726f206160448201526564647265737360d01b6064820152608401610621565b61091681612318565b6001600160a01b037f0000000000000000000000000000000000000000000000000000000000000000163003611be05760405162461bcd60e51b815260040161062190612cef565b7f00000000000000000000000000000000000000000000000000000000000000006001600160a01b0316611c1261212a565b6001600160a01b031614611c385760405162461bcd60e51b815260040161062190612d3b565b600060fe8585604051611c4c929190612d87565b9081526040805160209281900383018120546303a2870960e31b825291516001600160a01b03909216935083928392631d1438489260048082019392918290030181865afa158015611ca2573d6000803e3d6000fd5b505050506040513d601f19601f82011682018060405250810190611cc69190612e8e565b6001600160a01b0316336001600160a01b0316146040518060400160405280601181526020017021a0a62622a92fa727aa2fa4a9a9aaa2a960791b81525090611d225760405162461bcd60e51b81526004016106219190612703565b5060405163ceff310760e01b81526001600160a01b0385811660048301526024820185905282169063ceff310790604401600060405180830381600087803b158015611d6d57600080fd5b505af1158015611d81573d6000803e3d6000fd5b505050507f9ebf11c1043e634700e1019f0f2f99b428b0fe7e1d5f1d1a5cb3fc74137eb957828585846001600160a01b031663b3ca1f3b6040518163ffffffff1660e01b8152600401602060405180830381865afa15801561110d573d6000803e3d6000fd5b6001600160a01b037f0000000000000000000000000000000000000000000000000000000000000000163003611e2f5760405162461bcd60e51b815260040161062190612cef565b7f00000000000000000000000000000000000000000000000000000000000000006001600160a01b0316611e6161212a565b6001600160a01b031614611e875760405162461bcd60e51b815260040161062190612d3b565b600060fe8686604051611e9b929190612d87565b9081526040805160209281900383018120546303a2870960e31b825291516001600160a01b03909216935083928392631d1438489260048082019392918290030181865afa158015611ef1573d6000803e3d6000fd5b505050506040513d601f19601f82011682018060405250810190611f159190612e8e565b6001600160a01b0316336001600160a01b0316146040518060400160405280601181526020017021a0a62622a92fa727aa2fa4a9a9aaa2a960791b81525090611f715760405162461bcd60e51b81526004016106219190612703565b50604051630309e3e760e31b81526001600160a01b0382169063184f1f3890611fa2908890889088906004016130a6565b600060405180830381600087803b158015611fbc57600080fd5b505af1158015611fd0573d6000803e3d6000fd5b505050507fc01596aef916fd836c1d861e3aa0bcabd30fa27830ebb88b76016236c942b45982848787856001600160a01b031663b3ca1f3b6040518163ffffffff1660e01b8152600401602060405180830381865afa158015612037573d6000803e3d6000fd5b505050506040513d601f19601f8201168201806040525081019061205b9190612f26565b6040805160008152602081019182905261207c969594939291600190612fd2565b60405180910390a150505050505050565b60008060fe84846040516120a2929190612d87565b908152604080516020928190038301812054631006976960e11b825291516001600160a01b03909216935083926000928392859263200d2ed2926004808401938290030181865afa1580156120fb573d6000803e3d6000fd5b505050506040513d601f19601f8201168201806040525081019061211f9190612f26565b149695505050505050565b60008051602061313a833981519152546001600160a01b031690565b6033546001600160a01b03163314610ebc5760405162461bcd60e51b815260206004820181905260248201527f4f776e61626c653a2063616c6c6572206973206e6f7420746865206f776e65726044820152606401610621565b610916612146565b7f4910fdfa16fed3260ed0e7147f7cc6da11a60208b5b9406d12a635614ffd91435460ff16156121e0576121db836123ef565b505050565b826001600160a01b03166352d1902d6040518163ffffffff1660e01b8152600401602060405180830381865afa92505050801561223a575060408051601f3d908101601f1916820190925261223791810190612f26565b60015b61229d5760405162461bcd60e51b815260206004820152602e60248201527f45524331393637557067726164653a206e657720696d706c656d656e7461746960448201526d6f6e206973206e6f74205555505360901b6064820152608401610621565b60008051602061313a833981519152811461230c5760405162461bcd60e51b815260206004820152602960248201527f45524331393637557067726164653a20756e737570706f727465642070726f786044820152681a58589b195555525160ba1b6064820152608401610621565b506121db83838361248b565b603380546001600160a01b038381166001600160a01b0319831681179093556040519116919082907f8be0079c531659141344cd1fd0a4f28419497f9722a3daafe3b4186f6b6457e090600090a35050565b600054610100900460ff166123915760405162461bcd60e51b8152600401610621906130d2565b610ebc6124b6565b600054610100900460ff16610ebc5760405162461bcd60e51b8152600401610621906130d2565b600054610100900460ff166123e75760405162461bcd60e51b8152600401610621906130d2565b610ebc6124e6565b6001600160a01b0381163b61245c5760405162461bcd60e51b815260206004820152602d60248201527f455243313936373a206e657720696d706c656d656e746174696f6e206973206e60448201526c1bdd08184818dbdb9d1c9858dd609a1b6064820152608401610621565b60008051602061313a83398151915280546001600160a01b0319166001600160a01b0392909216919091179055565b61249483612514565b6000825111806124a15750805b156121db576124b08383612554565b50505050565b600054610100900460ff166124dd5760405162461bcd60e51b8152600401610621906130d2565b610ebc33612318565b600054610100900460ff1661250d5760405162461bcd60e51b8152600401610621906130d2565b600160c955565b61251d816123ef565b6040516001600160a01b038216907fbc7cd75a20ee27fd9adebab32041f755214dbc6bffa90cc0225b39da2e5c2d3b90600090a250565b60606001600160a01b0383163b6125bc5760405162461bcd60e51b815260206004820152602660248201527f416464726573733a2064656c65676174652063616c6c20746f206e6f6e2d636f6044820152651b9d1c9858dd60d21b6064820152608401610621565b600080846001600160a01b0316846040516125d7919061311d565b600060405180830381855af49150503d8060008114612612576040519150601f19603f3d011682016040523d82523d6000602084013e612617565b606091505b509150915061263f828260405180606001604052806027815260200161315a60279139612648565b95945050505050565b606083156126575750816105d2565b8251156126675782518084602001fd5b8160405162461bcd60e51b81526004016106219190612703565b6001600160a01b038116811461091657600080fd5b6000602082840312156126a857600080fd5b81356105d281612681565b60005b838110156126ce5781810151838201526020016126b6565b50506000910152565b600081518084526126ef8160208601602086016126b3565b601f01601f19169290920160200192915050565b6020815260006105d260208301846126d7565b60008083601f84011261272857600080fd5b5081356001600160401b0381111561273f57600080fd5b60208301915083602082850101111561275757600080fd5b9250929050565b6000806000806000806060878903121561277757600080fd5b86356001600160401b038082111561278e57600080fd5b61279a8a838b01612716565b909850965060208901359150808211156127b357600080fd5b6127bf8a838b01612716565b909650945060408901359150808211156127d857600080fd5b506127e589828a01612716565b979a9699509497509295939492505050565b634e487b7160e01b600052604160045260246000fd5b604080519081016001600160401b038111828210171561282f5761282f6127f7565b60405290565b604051601f8201601f191681016001600160401b038111828210171561285d5761285d6127f7565b604052919050565b60006001600160401b0382111561287e5761287e6127f7565b50601f01601f191660200190565b600061289f61289a84612865565b612835565b90508281528383830111156128b357600080fd5b828260208301376000602084830101529392505050565b600082601f8301126128db57600080fd5b6105d28383356020850161288c565b60008060008060006060868803121561290257600080fd5b85356001600160401b038082111561291957600080fd5b61292589838a01612716565b9097509550602088013591508082111561293e57600080fd5b61294a89838a01612716565b9095509350604088013591508082111561296357600080fd5b908701906040828a03121561297757600080fd5b61297f61280d565b823563ffffffff8116811461299357600080fd5b81526020830135828111156129a757600080fd5b6129b38b8286016128ca565b6020830152508093505050509295509295909350565b600080602083850312156129dc57600080fd5b82356001600160401b038111156129f257600080fd5b6129fe85828601612716565b90969095509350505050565b600060208284031215612a1c57600080fd5b81356001600160401b03811115612a3257600080fd5b8201601f81018413612a4357600080fd5b612a528482356020840161288c565b949350505050565b60008060408385031215612a6d57600080fd5b8235612a7881612681565b915060208301356001600160401b03811115612a9357600080fd5b612a9f858286016128ca565b9150509250929050565b60008060008060608587031215612abf57600080fd5b84356001600160401b03811115612ad557600080fd5b612ae187828801612716565b9095509350506020850135612af581612681565b9396929550929360400135925050565b60008083601f840112612b1757600080fd5b5081356001600160401b03811115612b2e57600080fd5b6020830191508360208260051b850101111561275757600080fd5b60008060008060408587031215612b5f57600080fd5b84356001600160401b0380821115612b7657600080fd5b612b8288838901612716565b90965094506020870135915080821115612b9b57600080fd5b50612ba887828801612b05565b95989497509550505050565b600080600060408486031215612bc957600080fd5b83356001600160401b03811115612bdf57600080fd5b612beb86828701612716565b909790965060209590950135949350505050565b600080600080600060608688031215612c1757600080fd5b85356001600160401b0380821115612c2e57600080fd5b612c3a89838a01612716565b90975095506020880135915080821115612c5357600080fd5b50612c6088828901612b05565b9094509250506040860135612c7481612681565b809150509295509295909350565b600060208284031215612c9457600080fd5b81516001600160401b03811115612caa57600080fd5b8201601f81018413612cbb57600080fd5b8051612cc961289a82612865565b818152856020838501011115612cde57600080fd5b61263f8260208301602086016126b3565b6020808252602c908201527f46756e6374696f6e206d7573742062652063616c6c6564207468726f7567682060408201526b19195b1959d85d1958d85b1b60a21b606082015260800190565b6020808252602c908201527f46756e6374696f6e206d7573742062652063616c6c6564207468726f7567682060408201526b6163746976652070726f787960a01b606082015260800190565b8183823760009101908152919050565b81835281816020850137506000828201602090810191909152601f909101601f19169091010190565b604081526000612dd4604083018688612d97565b8281036020840152611b17818587612d97565b600060208284031215612df957600080fd5b815180151581146105d257600080fd5b60c081526000612e1d60c083018a8c612d97565b6001600160a01b0389811660208501528382036040850152612e4082898b612d97565b9150808716606085015280861660808501525082810360a084015263ffffffff8451168152602084015160406020830152612e7e60408301826126d7565b9c9b505050505050505050505050565b600060208284031215612ea057600080fd5b81516105d281612681565b6000610100808352612ec08184018d8f612d97565b90508281036020840152612ed5818b8d612d97565b6001600160a01b038a81166040860152891660608501526080840188905260a0840187905283810360c08501529050612f0e81866126d7565b9150508260e08301529b9a5050505050505050505050565b600060208284031215612f3857600080fd5b5051919050565b6001600160a01b03878116825286166020820152604081018590526060810184905260c060808201819052600090612f79908301856126d7565b90508260a0830152979650505050505050565b81835260006001600160fb1b03831115612fa557600080fd5b8260051b80836020870137939093016020019392505050565b602081526000612a52602083018486612f8c565b6001600160a01b0388811682528716602082015260c060408201819052600090612fff9083018789612f8c565b856060840152828103608084015261301781866126d7565b9150508260a083015298975050505050505050565b60006101008083526130418184018c8e612d97565b6001600160a01b038b811660208601528482036040860152909150613066828b6126d7565b91508089166060850152508660808401528560a084015282810360c084015261308f81866126d7565b9150508260e08301529a9950505050505050505050565b6040815260006130ba604083018587612f8c565b905060018060a01b0383166020830152949350505050565b6020808252602b908201527f496e697469616c697a61626c653a20636f6e7472616374206973206e6f74206960408201526a6e697469616c697a696e6760a81b606082015260800190565b6000825161312f8184602087016126b3565b919091019291505056fe360894a13ba1a3210667c828492db98dca3e2076cc3735a920a3ca505d382bbc416464726573733a206c6f772d6c6576656c2064656c65676174652063616c6c206661696c6564a2646970667358221220fd233233fb8af64a97f3084f15c8b1112a1b3bec8ccca8d73c9379a1c8829a4864736f6c63430008100033",
  "linkReferences": {},
  "deployedLinkReferences": {}
}