{
  "_format": "hh-sol-artifact-1",
  "contractName": "BountyV3",
  "sourceName": "contracts/Bounty/Implementations/BountyV3.sol",
  "abi": [
    {
      "inputs": [],
      "stateMutability": "nonpayable",
      "type": "constructor"
    },
    {
      "anonymous": false,
      "inputs": [
        {
          "indexed": false,
          "internalType": "uint8",
          "name": "version",
          "type": "uint8"
        }
      ],
      "name": "Initialized",
      "type": "event"
    },
    {
      "inputs": [],
      "name": "bountyClosedTime",
      "outputs": [
        {
          "internalType": "uint256",
          "name": "",
          "type": "uint256"
        }
      ],
      "stateMutability": "view",
      "type": "function"
    },
    {
      "inputs": [],
      "name": "bountyCreatedTime",
      "outputs": [
        {
          "internalType": "uint256",
          "name": "",
          "type": "uint256"
        }
      ],
      "stateMutability": "view",
      "type": "function"
    },
    {
      "inputs": [],
      "name": "bountyId",
      "outputs": [
        {
          "internalType": "string",
          "name": "",
          "type": "string"
        }
      ],
      "stateMutability": "view",
      "type": "function"
    },
    {
      "inputs": [],
      "name": "bountyType",
      "outputs": [
        {
          "internalType": "uint256",
          "name": "",
          "type": "uint256"
        }
      ],
      "stateMutability": "view",
      "type": "function"
    },
    {
      "inputs": [
        {
          "internalType": "address",
          "name": "_payoutAddress",
          "type": "address"
        },
        {
          "internalType": "address",
          "name": "_tokenAddress",
          "type": "address"
        }
      ],
      "name": "claimBalance",
      "outputs": [
        {
          "internalType": "uint256",
          "name": "",
          "type": "uint256"
        }
      ],
      "stateMutability": "nonpayable",
      "type": "function"
    },
    {
      "inputs": [],
      "name": "claimManager",
      "outputs": [
        {
          "internalType": "address",
          "name": "",
          "type": "address"
        }
      ],
      "stateMutability": "view",
      "type": "function"
    },
    {
      "inputs": [
        {
          "internalType": "address",
          "name": "_payoutAddress",
          "type": "address"
        },
        {
          "internalType": "bytes32",
          "name": "_depositId",
          "type": "bytes32"
        }
      ],
      "name": "claimNft",
      "outputs": [],
      "stateMutability": "nonpayable",
      "type": "function"
    },
    {
      "inputs": [
        {
          "internalType": "address",
          "name": "_payoutAddress",
          "type": "address"
        },
        {
          "internalType": "bytes",
          "name": "_closerData",
          "type": "bytes"
        }
      ],
      "name": "claimOngoingPayout",
      "outputs": [
        {
          "internalType": "address",
          "name": "",
          "type": "address"
        },
        {
          "internalType": "uint256",
          "name": "",
          "type": "uint256"
        }
      ],
      "stateMutability": "nonpayable",
      "type": "function"
    },
    {
      "inputs": [
        {
          "internalType": "address",
          "name": "_payoutAddress",
          "type": "address"
        },
        {
          "internalType": "uint256",
          "name": "_tier",
          "type": "uint256"
        },
        {
          "internalType": "address",
          "name": "_tokenAddress",
          "type": "address"
        }
      ],
      "name": "claimTiered",
      "outputs": [
        {
          "internalType": "uint256",
          "name": "",
          "type": "uint256"
        }
      ],
      "stateMutability": "nonpayable",
      "type": "function"
    },
    {
      "inputs": [
        {
          "internalType": "address",
          "name": "_payoutAddress",
          "type": "address"
        },
        {
          "internalType": "uint256",
          "name": "_tier",
          "type": "uint256"
        }
      ],
      "name": "claimTieredFixed",
      "outputs": [
        {
          "internalType": "uint256",
          "name": "",
          "type": "uint256"
        }
      ],
      "stateMutability": "nonpayable",
      "type": "function"
    },
    {
      "inputs": [
        {
          "internalType": "bytes32",
          "name": "",
          "type": "bytes32"
        }
      ],
      "name": "claimantId",
      "outputs": [
        {
          "internalType": "bool",
          "name": "",
          "type": "bool"
        }
      ],
      "stateMutability": "view",
      "type": "function"
    },
    {
      "inputs": [
        {
          "internalType": "address",
          "name": "_payoutAddress",
          "type": "address"
        },
        {
          "internalType": "bytes",
          "name": "_closerData",
          "type": "bytes"
        }
      ],
      "name": "close",
      "outputs": [],
      "stateMutability": "nonpayable",
      "type": "function"
    },
    {
      "inputs": [],
      "name": "closeCompetition",
      "outputs": [],
      "stateMutability": "nonpayable",
      "type": "function"
    },
    {
      "inputs": [
        {
          "internalType": "address",
          "name": "_closer",
          "type": "address"
        }
      ],
      "name": "closeOngoing",
      "outputs": [],
      "stateMutability": "nonpayable",
      "type": "function"
    },
    {
      "inputs": [],
      "name": "closer",
      "outputs": [
        {
          "internalType": "address",
          "name": "",
          "type": "address"
        }
      ],
      "stateMutability": "view",
      "type": "function"
    },
    {
      "inputs": [],
      "name": "closerData",
      "outputs": [
        {
          "internalType": "bytes",
          "name": "",
          "type": "bytes"
        }
      ],
      "stateMutability": "view",
      "type": "function"
    },
    {
      "inputs": [],
      "name": "depositManager",
      "outputs": [
        {
          "internalType": "address",
          "name": "",
          "type": "address"
        }
      ],
      "stateMutability": "view",
      "type": "function"
    },
    {
      "inputs": [
        {
          "internalType": "bytes32",
          "name": "",
          "type": "bytes32"
        }
      ],
      "name": "depositTime",
      "outputs": [
        {
          "internalType": "uint256",
          "name": "",
          "type": "uint256"
        }
      ],
      "stateMutability": "view",
      "type": "function"
    },
    {
      "inputs": [
        {
          "internalType": "uint256",
          "name": "",
          "type": "uint256"
        }
      ],
      "name": "deposits",
      "outputs": [
        {
          "internalType": "bytes32",
          "name": "",
          "type": "bytes32"
        }
      ],
      "stateMutability": "view",
      "type": "function"
    },
    {
      "inputs": [
        {
          "internalType": "bytes32",
          "name": "",
          "type": "bytes32"
        }
      ],
      "name": "expiration",
      "outputs": [
        {
          "internalType": "uint256",
          "name": "",
          "type": "uint256"
        }
      ],
      "stateMutability": "view",
      "type": "function"
    },
    {
      "inputs": [
        {
          "internalType": "bytes32",
          "name": "_depositId",
          "type": "bytes32"
        },
        {
          "internalType": "uint256",
          "name": "_seconds",
          "type": "uint256"
        },
        {
          "internalType": "address",
          "name": "_funder",
          "type": "address"
        }
      ],
      "name": "extendDeposit",
      "outputs": [
        {
          "internalType": "uint256",
          "name": "",
          "type": "uint256"
        }
      ],
      "stateMutability": "nonpayable",
      "type": "function"
    },
    {
      "inputs": [],
      "name": "externalUserId",
      "outputs": [
        {
          "internalType": "string",
          "name": "",
          "type": "string"
        }
      ],
      "stateMutability": "view",
      "type": "function"
    },
    {
      "inputs": [
        {
          "internalType": "bytes32",
          "name": "",
          "type": "bytes32"
        }
      ],
      "name": "funder",
      "outputs": [
        {
          "internalType": "address",
          "name": "",
          "type": "address"
        }
      ],
      "stateMutability": "view",
      "type": "function"
    },
    {
      "inputs": [],
      "name": "fundingGoal",
      "outputs": [
        {
          "internalType": "uint256",
          "name": "",
          "type": "uint256"
        }
      ],
      "stateMutability": "view",
      "type": "function"
    },
    {
      "inputs": [],
      "name": "fundingToken",
      "outputs": [
        {
          "internalType": "address",
          "name": "",
          "type": "address"
        }
      ],
      "stateMutability": "view",
      "type": "function"
    },
    {
      "inputs": [
        {
          "internalType": "address",
          "name": "",
          "type": "address"
        }
      ],
      "name": "fundingTotals",
      "outputs": [
        {
          "internalType": "uint256",
          "name": "",
          "type": "uint256"
        }
      ],
      "stateMutability": "view",
      "type": "function"
    },
    {
      "inputs": [],
      "name": "getDeposits",
      "outputs": [
        {
          "internalType": "bytes32[]",
          "name": "",
          "type": "bytes32[]"
        }
      ],
      "stateMutability": "view",
      "type": "function"
    },
    {
      "inputs": [
        {
          "internalType": "address",
          "name": "_tokenAddress",
          "type": "address"
        }
      ],
      "name": "getERC20Balance",
      "outputs": [
        {
          "internalType": "uint256",
          "name": "balance",
          "type": "uint256"
        }
      ],
      "stateMutability": "view",
      "type": "function"
    },
    {
      "inputs": [
        {
          "internalType": "address",
          "name": "_bountyAddress",
          "type": "address"
        },
        {
          "internalType": "address",
          "name": "_depositId",
          "type": "address"
        }
      ],
      "name": "getLockedFunds",
      "outputs": [
        {
          "internalType": "uint256",
          "name": "",
          "type": "uint256"
        }
      ],
      "stateMutability": "view",
      "type": "function"
    },
    {
      "inputs": [],
      "name": "getNftDeposits",
      "outputs": [
        {
          "internalType": "bytes32[]",
          "name": "",
          "type": "bytes32[]"
        }
      ],
      "stateMutability": "view",
      "type": "function"
    },
    {
      "inputs": [],
      "name": "getPayoutSchedule",
      "outputs": [
        {
          "internalType": "uint256[]",
          "name": "",
          "type": "uint256[]"
        }
      ],
      "stateMutability": "view",
      "type": "function"
    },
    {
      "inputs": [],
      "name": "getTokenAddresses",
      "outputs": [
        {
          "internalType": "address[]",
          "name": "",
          "type": "address[]"
        }
      ],
      "stateMutability": "view",
      "type": "function"
    },
    {
      "inputs": [],
      "name": "getTokenAddressesCount",
      "outputs": [
        {
          "internalType": "uint256",
          "name": "",
          "type": "uint256"
        }
      ],
      "stateMutability": "view",
      "type": "function"
    },
    {
      "inputs": [
        {
          "internalType": "address",
          "name": "_tokenAddress",
          "type": "address"
        }
      ],
      "name": "getTokenBalance",
      "outputs": [
        {
          "internalType": "uint256",
          "name": "",
          "type": "uint256"
        }
      ],
      "stateMutability": "view",
      "type": "function"
    },
    {
      "inputs": [],
      "name": "hasFundingGoal",
      "outputs": [
        {
          "internalType": "bool",
          "name": "",
          "type": "bool"
        }
      ],
      "stateMutability": "view",
      "type": "function"
    },
    {
      "inputs": [
        {
          "internalType": "string",
          "name": "_bountyId",
          "type": "string"
        },
        {
          "internalType": "address",
          "name": "_issuer",
          "type": "address"
        },
        {
          "internalType": "string",
          "name": "_organization",
          "type": "string"
        },
        {
          "internalType": "address",
          "name": "_openQ",
          "type": "address"
        },
        {
          "internalType": "address",
          "name": "_claimManager",
          "type": "address"
        },
        {
          "internalType": "address",
          "name": "_depositManager",
          "type": "address"
        },
        {
          "components": [
            {
              "internalType": "uint32",
              "name": "operationType",
              "type": "uint32"
            },
            {
              "internalType": "bytes",
              "name": "data",
              "type": "bytes"
            }
          ],
          "internalType": "struct OpenQDefinitions.InitOperation",
          "name": "_operation",
          "type": "tuple"
        }
      ],
      "name": "initialize",
      "outputs": [],
      "stateMutability": "nonpayable",
      "type": "function"
    },
    {
      "inputs": [],
      "name": "invoiceComplete",
      "outputs": [
        {
          "internalType": "bool",
          "name": "",
          "type": "bool"
        }
      ],
      "stateMutability": "view",
      "type": "function"
    },
    {
      "inputs": [],
      "name": "invoiceable",
      "outputs": [
        {
          "internalType": "bool",
          "name": "",
          "type": "bool"
        }
      ],
      "stateMutability": "view",
      "type": "function"
    },
    {
      "inputs": [
        {
          "internalType": "bytes32",
          "name": "",
          "type": "bytes32"
        }
      ],
      "name": "isNFT",
      "outputs": [
        {
          "internalType": "bool",
          "name": "",
          "type": "bool"
        }
      ],
      "stateMutability": "view",
      "type": "function"
    },
    {
      "inputs": [],
      "name": "issuer",
      "outputs": [
        {
          "internalType": "address",
          "name": "",
          "type": "address"
        }
      ],
      "stateMutability": "view",
      "type": "function"
    },
    {
      "inputs": [],
      "name": "kycRequired",
      "outputs": [
        {
          "internalType": "bool",
          "name": "",
          "type": "bool"
        }
      ],
      "stateMutability": "view",
      "type": "function"
    },
    {
      "inputs": [],
      "name": "nftDepositLimit",
      "outputs": [
        {
          "internalType": "uint256",
          "name": "",
          "type": "uint256"
        }
      ],
      "stateMutability": "view",
      "type": "function"
    },
    {
      "inputs": [
        {
          "internalType": "uint256",
          "name": "",
          "type": "uint256"
        }
      ],
      "name": "nftDeposits",
      "outputs": [
        {
          "internalType": "bytes32",
          "name": "",
          "type": "bytes32"
        }
      ],
      "stateMutability": "view",
      "type": "function"
    },
    {
      "inputs": [
        {
          "internalType": "address",
          "name": "",
          "type": "address"
        },
        {
          "internalType": "address",
          "name": "",
          "type": "address"
        },
        {
          "internalType": "uint256",
          "name": "",
          "type": "uint256"
        },
        {
          "internalType": "bytes",
          "name": "",
          "type": "bytes"
        }
      ],
      "name": "onERC721Received",
      "outputs": [
        {
          "internalType": "bytes4",
          "name": "",
          "type": "bytes4"
        }
      ],
      "stateMutability": "nonpayable",
      "type": "function"
    },
    {
      "inputs": [],
      "name": "openQ",
      "outputs": [
        {
          "internalType": "address",
          "name": "",
          "type": "address"
        }
      ],
      "stateMutability": "view",
      "type": "function"
    },
    {
      "inputs": [],
      "name": "organization",
      "outputs": [
        {
          "internalType": "string",
          "name": "",
          "type": "string"
        }
      ],
      "stateMutability": "view",
      "type": "function"
    },
    {
      "inputs": [
        {
          "internalType": "bytes32",
          "name": "",
          "type": "bytes32"
        }
      ],
      "name": "payoutAddress",
      "outputs": [
        {
          "internalType": "address",
          "name": "",
          "type": "address"
        }
      ],
      "stateMutability": "view",
      "type": "function"
    },
    {
      "inputs": [
        {
          "internalType": "uint256",
          "name": "",
          "type": "uint256"
        }
      ],
      "name": "payoutSchedule",
      "outputs": [
        {
          "internalType": "uint256",
          "name": "",
          "type": "uint256"
        }
      ],
      "stateMutability": "view",
      "type": "function"
    },
    {
      "inputs": [],
      "name": "payoutTokenAddress",
      "outputs": [
        {
          "internalType": "address",
          "name": "",
          "type": "address"
        }
      ],
      "stateMutability": "view",
      "type": "function"
    },
    {
      "inputs": [],
      "name": "payoutVolume",
      "outputs": [
        {
          "internalType": "uint256",
          "name": "",
          "type": "uint256"
        }
      ],
      "stateMutability": "view",
      "type": "function"
    },
    {
      "inputs": [
        {
          "internalType": "address",
          "name": "_funder",
          "type": "address"
        },
        {
          "internalType": "address",
          "name": "_tokenAddress",
          "type": "address"
        },
        {
          "internalType": "uint256",
          "name": "_volume",
          "type": "uint256"
        },
        {
          "internalType": "uint256",
          "name": "_expiration",
          "type": "uint256"
        }
      ],
      "name": "receiveFunds",
      "outputs": [
        {
          "internalType": "bytes32",
          "name": "",
          "type": "bytes32"
        },
        {
          "internalType": "uint256",
          "name": "",
          "type": "uint256"
        }
      ],
      "stateMutability": "payable",
      "type": "function"
    },
    {
      "inputs": [
        {
          "internalType": "address",
          "name": "_sender",
          "type": "address"
        },
        {
          "internalType": "address",
          "name": "_tokenAddress",
          "type": "address"
        },
        {
          "internalType": "uint256",
          "name": "_tokenId",
          "type": "uint256"
        },
        {
          "internalType": "uint256",
          "name": "_expiration",
          "type": "uint256"
        },
        {
          "internalType": "uint256",
          "name": "_tier",
          "type": "uint256"
        }
      ],
      "name": "receiveNft",
      "outputs": [
        {
          "internalType": "bytes32",
          "name": "",
          "type": "bytes32"
        }
      ],
      "stateMutability": "nonpayable",
      "type": "function"
    },
    {
      "inputs": [
        {
          "internalType": "bytes32",
          "name": "_depositId",
          "type": "bytes32"
        },
        {
          "internalType": "address",
          "name": "_funder",
          "type": "address"
        },
        {
          "internalType": "uint256",
          "name": "_volume",
          "type": "uint256"
        }
      ],
      "name": "refundDeposit",
      "outputs": [],
      "stateMutability": "nonpayable",
      "type": "function"
    },
    {
      "inputs": [
        {
          "internalType": "bytes32",
          "name": "",
          "type": "bytes32"
        }
      ],
      "name": "refunded",
      "outputs": [
        {
          "internalType": "bool",
          "name": "",
          "type": "bool"
        }
      ],
      "stateMutability": "view",
      "type": "function"
    },
    {
      "inputs": [
        {
          "internalType": "address",
          "name": "_fundingToken",
          "type": "address"
        },
        {
          "internalType": "uint256",
          "name": "_fundingGoal",
          "type": "uint256"
        }
      ],
      "name": "setFundingGoal",
      "outputs": [],
      "stateMutability": "nonpayable",
      "type": "function"
    },
    {
      "inputs": [
        {
          "internalType": "bool",
          "name": "_invoiceComplete",
          "type": "bool"
        }
      ],
      "name": "setInvoiceComplete",
      "outputs": [],
      "stateMutability": "nonpayable",
      "type": "function"
    },
    {
      "inputs": [
        {
          "internalType": "bool",
          "name": "_invoiceable",
          "type": "bool"
        }
      ],
      "name": "setInvoiceable",
      "outputs": [],
      "stateMutability": "nonpayable",
      "type": "function"
    },
    {
      "inputs": [
        {
          "internalType": "bool",
          "name": "_kycRequired",
          "type": "bool"
        }
      ],
      "name": "setKycRequired",
      "outputs": [],
      "stateMutability": "nonpayable",
      "type": "function"
    },
    {
      "inputs": [
        {
          "internalType": "address",
          "name": "_payoutTokenAddress",
          "type": "address"
        },
        {
          "internalType": "uint256",
          "name": "_payoutVolume",
          "type": "uint256"
        }
      ],
      "name": "setPayout",
      "outputs": [],
      "stateMutability": "nonpayable",
      "type": "function"
    },
    {
      "inputs": [
        {
          "internalType": "uint256[]",
          "name": "_payoutSchedule",
          "type": "uint256[]"
        }
      ],
      "name": "setPayoutSchedule",
      "outputs": [],
      "stateMutability": "nonpayable",
      "type": "function"
    },
    {
      "inputs": [
        {
          "internalType": "uint256[]",
          "name": "_payoutSchedule",
          "type": "uint256[]"
        },
        {
          "internalType": "address",
          "name": "_payoutTokenAddress",
          "type": "address"
        }
      ],
      "name": "setPayoutScheduleFixed",
      "outputs": [],
      "stateMutability": "nonpayable",
      "type": "function"
    },
    {
      "inputs": [
        {
          "internalType": "bool",
          "name": "_supportingDocuments",
          "type": "bool"
        }
      ],
      "name": "setSupportingDocuments",
      "outputs": [],
      "stateMutability": "nonpayable",
      "type": "function"
    },
    {
      "inputs": [
        {
          "internalType": "bool",
          "name": "_supportingDocumentsComplete",
          "type": "bool"
        }
      ],
      "name": "setSupportingDocumentsComplete",
      "outputs": [],
      "stateMutability": "nonpayable",
      "type": "function"
    },
    {
      "inputs": [
        {
          "internalType": "uint256",
          "name": "_tier",
          "type": "uint256"
        }
      ],
      "name": "setTierClaimed",
      "outputs": [],
      "stateMutability": "nonpayable",
      "type": "function"
    },
    {
      "inputs": [
        {
          "internalType": "string",
          "name": "_winner",
          "type": "string"
        },
        {
          "internalType": "uint256",
          "name": "_tier",
          "type": "uint256"
        }
      ],
      "name": "setTierWinner",
      "outputs": [],
      "stateMutability": "nonpayable",
      "type": "function"
    },
    {
      "inputs": [],
      "name": "status",
      "outputs": [
        {
          "internalType": "uint256",
          "name": "",
          "type": "uint256"
        }
      ],
      "stateMutability": "view",
      "type": "function"
    },
    {
      "inputs": [],
      "name": "supportingDocuments",
      "outputs": [
        {
          "internalType": "bool",
          "name": "",
          "type": "bool"
        }
      ],
      "stateMutability": "view",
      "type": "function"
    },
    {
      "inputs": [],
      "name": "supportingDocumentsComplete",
      "outputs": [
        {
          "internalType": "bool",
          "name": "",
          "type": "bool"
        }
      ],
      "stateMutability": "view",
      "type": "function"
    },
    {
      "inputs": [
        {
          "internalType": "bytes32",
          "name": "",
          "type": "bytes32"
        }
      ],
      "name": "tier",
      "outputs": [
        {
          "internalType": "uint256",
          "name": "",
          "type": "uint256"
        }
      ],
      "stateMutability": "view",
      "type": "function"
    },
    {
      "inputs": [
        {
          "internalType": "uint256",
          "name": "",
          "type": "uint256"
        }
      ],
      "name": "tierClaimed",
      "outputs": [
        {
          "internalType": "bool",
          "name": "",
          "type": "bool"
        }
      ],
      "stateMutability": "view",
      "type": "function"
    },
    {
      "inputs": [
        {
          "internalType": "uint256",
          "name": "",
          "type": "uint256"
        }
      ],
      "name": "tierWinners",
      "outputs": [
        {
          "internalType": "string",
          "name": "",
          "type": "string"
        }
      ],
      "stateMutability": "view",
      "type": "function"
    },
    {
      "inputs": [
        {
          "internalType": "bytes32",
          "name": "",
          "type": "bytes32"
        }
      ],
      "name": "tokenAddress",
      "outputs": [
        {
          "internalType": "address",
          "name": "",
          "type": "address"
        }
      ],
      "stateMutability": "view",
      "type": "function"
    },
    {
      "inputs": [
        {
          "internalType": "bytes32",
          "name": "",
          "type": "bytes32"
        }
      ],
      "name": "tokenId",
      "outputs": [
        {
          "internalType": "uint256",
          "name": "",
          "type": "uint256"
        }
      ],
      "stateMutability": "view",
      "type": "function"
    },
    {
      "inputs": [
        {
          "internalType": "bytes32",
          "name": "",
          "type": "bytes32"
        }
      ],
      "name": "volume",
      "outputs": [
        {
          "internalType": "uint256",
          "name": "",
          "type": "uint256"
        }
      ],
      "stateMutability": "view",
      "type": "function"
    },
    {
      "stateMutability": "payable",
      "type": "receive"
    }
  ],
  "bytecode": "0x608060405234801561001057600080fd5b50614c61806100206000396000f3fe6080604052600436106103d55760003560e01c80637a3a0e84116101f9578063c17bd75e1161011e578063e452d08b116100b6578063ee1e43e01161007a578063ee1e43e014610db5578063ee8c24b814610dcf578063f05e0f7e14610df1578063f232172514610e21578063fe0329c914610e4e57600080fd5b8063e452d08b14610d08578063e5f6094714610d28578063e83963eb14610d55578063eb58c0fd14610d75578063ec9c2c3614610d9557600080fd5b8063c17bd75e14610c00578063c5b6e70514610c15578063cb2da3db14610c2a578063cb4436b714610c4a578063cd8ffb3714610c60578063ceff310714610c80578063d54a117b14610ca0578063d6fe0f4414610cc0578063dbe6cf6a14610ce857600080fd5b8063a9a36dcd11610191578063a9a36dcd14610ae1578063b02c43d014610aff578063b3b41cea14610b1f578063b3ca1f3b14610b3f578063b3f23b7314610b55578063b588d22514610b6b578063b92a4e7b14610b8b578063b969909114610bab578063b99bb99014610bca57600080fd5b80637a3a0e84146109905780637cb8e8e4146109a65780637dc81fa2146109c65780637f2e3afe146109e4578063968b098f146109f957806397bb3ce914610a26578063995280b014610a5c5780639dcb7b8e14610a72578063a09dd1aa14610aa257600080fd5b80632a120b33116102fa5780635cc0483811610292578063714dbe4611610256578063714dbe46146108fc57806371ec4ebf1461091657806377ede8a61461093657806378065f271461094b5780637a196d0e1461097057600080fd5b80635cc04838146108595780636420fd93146108795780636b149d87146108a95780636c7ac9d8146108be5780637044f282146108dc57600080fd5b80632a120b331461071a5780632ba2976e1461073c5780633aecd0e31461075c5780633b67152b1461077c5780633f40f6361461079c5780633f6e1899146107bc5780634ff2b6c9146107dc57806356406fa5146107f657806359ba83441461082357600080fd5b8063184f1f381161036d578063184f1f38146105f25780631bc5fc96146106125780631d14384814610632578063200d2ed21461066a57806322fa365e146106805780632338d37714610695578063235b2b94146106b557806323bd4d7a146106e557806324f0cae5146106fa57600080fd5b8063040e05fe146104785780630961413d146104ab5780630dd81887146104c15780630f3b6d4d146104e3578063150909f714610505578063150b7a0214610525578063152e56a2146105695780631595eea414610598578063160a30a3146105c557600080fd5b366104735760405162461bcd60e51b815260206004820152605d60248201527f43616e6e6f742073656e64204574686572206469726563746c7920746f20626f60448201527f75746e7920636f6e74726163742e20506c65617365207573652074686520426f60648201527f756e747956312e7265636569766546756e64732829206d6574686f642e000000608482015260a4015b60405180910390fd5b600080fd5b34801561048457600080fd5b506104986104933660046139ae565b610e6e565b6040519081526020015b60405180910390f35b3480156104b757600080fd5b5061049860a15481565b3480156104cd57600080fd5b506104d6610fbd565b6040516104a29190613a2a565b3480156104ef57600080fd5b506105036104fe366004613b00565b61104b565b005b34801561051157600080fd5b50610503610520366004613b52565b6110ad565b34801561053157600080fd5b50610550610540366004613b6f565b630a85bd0160e11b949350505050565b6040516001600160e01b031990911681526020016104a2565b34801561057557600080fd5b5060bc5461058890610100900460ff1681565b60405190151581526020016104a2565b3480156105a457600080fd5b506104986105b3366004613bda565b60a46020526000908152604090205481565b3480156105d157600080fd5b506104986105e0366004613bda565b60ab6020526000908152604090205481565b3480156105fe57600080fd5b5061050361060d366004613c3e565b6110fa565b34801561061e57600080fd5b5061049861062d366004613bda565b6111b3565b34801561063e57600080fd5b50609d54610652906001600160a01b031681565b6040516001600160a01b0390911681526020016104a2565b34801561067657600080fd5b5061049860a05481565b34801561068c57600080fd5b506105036111d4565b3480156106a157600080fd5b506105036106b0366004613c94565b6112c8565b3480156106c157600080fd5b506105886106d0366004613bda565b60aa6020526000908152604090205460ff1681565b3480156106f157600080fd5b506104d66113c8565b34801561070657600080fd5b50610498610715366004613d18565b6113d5565b34801561072657600080fd5b5061072f6115d9565b6040516104a29190613d69565b34801561074857600080fd5b50610503610757366004613b52565b611631565b34801561076857600080fd5b50610498610777366004613dad565b611680565b34801561078857600080fd5b50610503610797366004613b52565b6116ab565b3480156107a857600080fd5b506105036107b7366004613e4c565b6116f1565b3480156107c857600080fd5b506105036107d7366004613b52565b611914565b3480156107e857600080fd5b5060bc546105889060ff1681565b34801561080257600080fd5b50610498610811366004613bda565b60a96020526000908152604090205481565b34801561082f57600080fd5b5061065261083e366004613bda565b60a2602052600090815260409020546001600160a01b031681565b34801561086557600080fd5b5060b254610652906001600160a01b031681565b34801561088557600080fd5b50610588610894366004613bda565b60b46020526000908152604090205460ff1681565b3480156108b557600080fd5b5061072f611961565b3480156108ca57600080fd5b506099546001600160a01b0316610652565b3480156108e857600080fd5b50609f54610652906001600160a01b031681565b34801561090857600080fd5b5060ba546105889060ff1681565b34801561092257600080fd5b506105036109313660046139ae565b6119b7565b34801561094257600080fd5b5061072f611a40565b34801561095757600080fd5b5060b8546106529061010090046001600160a01b031681565b34801561097c57600080fd5b5061050361098b3660046139ae565b611a96565b34801561099c57600080fd5b5061049860b95481565b3480156109b257600080fd5b506105036109c1366004613f1f565b611aef565b3480156109d257600080fd5b506097546001600160a01b0316610652565b3480156109f057600080fd5b506104d6611c7b565b348015610a0557600080fd5b50610498610a14366004613bda565b60a56020526000908152604090205481565b348015610a3257600080fd5b50610652610a41366004613bda565b60a3602052600090815260409020546001600160a01b031681565b348015610a6857600080fd5b50610498609b5481565b348015610a7e57600080fd5b50610588610a8d366004613bda565b60b76020526000908152604090205460ff1681565b348015610aae57600080fd5b50610ac2610abd366004613c94565b611c88565b604080516001600160a01b0390931683526020830191909152016104a2565b348015610aed57600080fd5b506098546001600160a01b0316610652565b348015610b0b57600080fd5b50610498610b1a366004613bda565b611d5a565b348015610b2b57600080fd5b50610498610b3a366004613f60565b611d6a565b348015610b4b57600080fd5b5061049860b15481565b348015610b6157600080fd5b5061049860b35481565b348015610b7757600080fd5b50610498610b86366004613dad565b611ed7565b348015610b9757600080fd5b50610503610ba6366004613b52565b611f4b565b348015610bb757600080fd5b5060ba5461058890610100900460ff1681565b348015610bd657600080fd5b50610652610be5366004613bda565b60a7602052600090815260409020546001600160a01b031681565b348015610c0c57600080fd5b506104d6611f91565b348015610c2157600080fd5b50610498611f9e565b348015610c3657600080fd5b50610498610c45366004613f97565b611fb0565b348015610c5657600080fd5b50610498609c5481565b348015610c6c57600080fd5b506104d6610c7b366004613bda565b61201c565b348015610c8c57600080fd5b50610503610c9b3660046139ae565b612047565b348015610cac57600080fd5b5060bc546105889062010000900460ff1681565b610cd3610cce366004613fd0565b6120ae565b604080519283526020830191909152016104a2565b348015610cf457600080fd5b50610498610d03366004613f97565b6122df565b348015610d1457600080fd5b50610498610d23366004613bda565b6125d3565b348015610d3457600080fd5b50610498610d43366004613dad565b60b66020526000908152604090205481565b348015610d6157600080fd5b50610498610d70366004614016565b6125e3565b348015610d8157600080fd5b50610503610d90366004614044565b6127f6565b348015610da157600080fd5b50610503610db0366004613dad565b612a6d565b348015610dc157600080fd5b5060b8546105889060ff1681565b348015610ddb57600080fd5b50610de4612b55565b6040516104a2919061407c565b348015610dfd57600080fd5b50610588610e0c366004613bda565b60a66020526000908152604090205460ff1681565b348015610e2d57600080fd5b50610498610e3c366004613bda565b60a86020526000908152604090205481565b348015610e5a57600080fd5b50610503610e69366004613bda565b612b66565b6098546000906001600160a01b03163314610e9b5760405162461bcd60e51b815260040161046a906140bd565b600260015403610ebd5760405162461bcd60e51b815260040161046a90614125565b600260015560b1546040805180820190915260198152784e4f545f415f5449455245445f46495845445f424f554e545960381b602082015290600314610f165760405162461bcd60e51b815260040161046a9190613a2a565b50600082815260b7602090815260409182902054825180840190935260148352731512515497d053149150511657d0d3105253515160621b9183019190915260ff1615610f765760405162461bcd60e51b815260040161046a9190613a2a565b50600060b58381548110610f8c57610f8c61415c565b60009182526020909120015460b254909150610fb2906001600160a01b03168286612bab565b600180559392505050565b60b08054610fca90614172565b80601f0160208091040260200160405190810160405280929190818152602001828054610ff690614172565b80156110435780601f1061101857610100808354040283529160200191611043565b820191906000526020600020905b81548152906001019060200180831161102657829003601f168201915b505050505081565b6097546001600160a01b0316336001600160a01b03161461107e5760405162461bcd60e51b815260040161046a906141ac565b8160bd82815481106110925761109261415c565b9060005260206000200190816110a89190614244565b505050565b6097546001600160a01b0316336001600160a01b0316146110e05760405162461bcd60e51b815260040161046a906141ac565b60ba80549115156101000261ff0019909216919091179055565b6097546001600160a01b0316336001600160a01b03161461112d5760405162461bcd60e51b815260040161046a906141ac565b60b1546040805180820190915260198152784e4f545f415f46495845445f5449455245445f424f554e545960381b6020820152906003146111815760405162461bcd60e51b815260040161046a9190613a2a565b5061118e60b5848461384a565b5060b280546001600160a01b0319166001600160a01b03929092169190911790555050565b60ad81815481106111c357600080fd5b600091825260209091200154905081565b6098546001600160a01b031633146111fe5760405162461bcd60e51b815260040161046a906140bd565b60a05460408051808201909152601781527610d3d395149050d517d053149150511657d0d313d4d151604a1b6020820152901561124e5760405162461bcd60e51b815260040161046a9190613a2a565b50600160a05542609c5560005b611263612b55565b518110156112c5576000611275612b55565b82815181106112865761128661415c565b6020026020010151905061129981611680565b6001600160a01b03909116600090815260b66020526040902055806112bd81614313565b91505061125b565b50565b6098546001600160a01b031633146112f25760405162461bcd60e51b815260040161046a906140bd565b60a05460408051808201909152601781527610d3d395149050d517d053149150511657d0d313d4d151604a1b602082015290156113425760405162461bcd60e51b815260040161046a9190613a2a565b5060408051808201909152600f81526e4e4f5f5a45524f5f4144445245535360881b60208201526001600160a01b0384166113905760405162461bcd60e51b815260040161046a9190613a2a565b50600160a055609f80546001600160a01b0319166001600160a01b03851617905542609c5560b06113c282848361432c565b50505050565b609e8054610fca90614172565b6099546000906001600160a01b031633146114025760405162461bcd60e51b815260040161046a906143e6565b6002600154036114245760405162461bcd60e51b815260040161046a90614125565b600260015560a15460ad5460408051808201909152601981527813919517d1115413d4d25517d31253525517d4915050d21151603a1b6020820152911161147e5760405162461bcd60e51b815260040161046a9190613a2a565b50600083116040518060400160405280602081526020017f45585049524154494f4e5f4e4f545f475245415445525f5448414e5f5a45524f815250906114d75760405162461bcd60e51b815260040161046a9190613a2a565b506114e3858786612bce565b60006114ed612c2e565b600081815260a26020908152604080832080546001600160a01b039c8d166001600160a01b03199182161790915560a3835281842080549b909c169a169990991790995560a5895287812042905560a889528781209690965560a9885286862094909455505060aa8552838320805460ff1916600190811790915560ab9095529282209290925560ac80548085019091557f0a0a1bcadd9f6a5539376fa82276e043ae3cb4499daaaf8136572ecb1f9f0d600182905560ad8054808501825591527f0440fd76b4e685d17019b0eef836cea9994650028b99dddfb48be06fa4240aa60181905590805590565b606060b580548060200260200160405190810160405280929190818152602001828054801561162757602002820191906000526020600020905b815481526020019060010190808311611613575b5050505050905090565b6097546001600160a01b0316336001600160a01b0316146116645760405162461bcd60e51b815260040161046a906141ac565b60bc8054911515620100000262ff000019909216919091179055565b60006001600160a01b038216611697575047919050565b6116a082611ed7565b92915050565b919050565b6097546001600160a01b0316336001600160a01b0316146116de5760405162461bcd60e51b815260040161046a906141ac565b60ba805460ff1916911515919091179055565b600054610100900460ff16158080156117115750600054600160ff909116105b8061172b5750303b15801561172b575060005460ff166001145b61178e5760405162461bcd60e51b815260206004820152602e60248201527f496e697469616c697a61626c653a20636f6e747261637420697320616c72656160448201526d191e481a5b9a5d1a585b1a5e995960921b606482015260840161046a565b6000805460ff1916600117905580156117b1576000805461ff0019166101001790555b87516040805180820190915260128152711393d7d15354151657d093d553951657d25160721b6020820152906117fa5760405162461bcd60e51b815260040161046a9190613a2a565b5085516040805180820190915260158152742727afa2a6a82a2cafa7a923a0a724ad20aa24a7a760591b6020820152906118475760405162461bcd60e51b815260040161046a9190613a2a565b50611850612c62565b609780546001600160a01b0319166001600160a01b03871617905561187484612c93565b61187d83612cdc565b609a6118898982614244565b50609d80546001600160a01b0319166001600160a01b038916179055609e6118b18782614244565b5042609b55600560a1556118c482612d25565b801561190a576000805461ff0019169055604051600181527f7f26b83ff96e1f2b6a682f133852f6798a09c465da95921460cefb38474024989060200160405180910390a15b5050505050505050565b6097546001600160a01b0316336001600160a01b0316146119475760405162461bcd60e51b815260040161046a906141ac565b60bc80549115156101000261ff0019909216919091179055565b606060ac8054806020026020016040519081016040528092919081815260200182805480156116275760200282019190600052602060002090815481526020019060010190808311611613575050505050905090565b6098546001600160a01b031633146119e15760405162461bcd60e51b815260040161046a906140bd565b600260015403611a035760405162461bcd60e51b815260040161046a90614125565b6002600155600081815260a3602090815260408083205460a890925290912054611a38916001600160a01b0316908490612edf565b505060018055565b606060ad8054806020026020016040519081016040528092919081815260200182805480156116275760200282019190600052602060002090815481526020019060010190808311611613575050505050905090565b6097546001600160a01b0316336001600160a01b031614611ac95760405162461bcd60e51b815260040161046a906141ac565b60b280546001600160a01b0319166001600160a01b03939093169290921790915560b355565b6097546001600160a01b0316336001600160a01b031614611b225760405162461bcd60e51b815260040161046a906141ac565b60b1546040805180820190915260138152724e4f545f415f5449455245445f424f554e545960681b602082015290600214611b705760405162461bcd60e51b815260040161046a9190613a2a565b506000805b82811015611bb557838382818110611b8f57611b8f61415c565b9050602002013582611ba19190614452565b915080611bad81614313565b915050611b75565b5060408051808201909152601f81527f5041594f55545f5343484544554c455f4d5553545f4144445f544f5f31303000602082015260648214611c0b5760405162461bcd60e51b815260040161046a9190613a2a565b50611c1860b5848461384a565b5060b5546001600160401b03811115611c3357611c33613a3d565b604051908082528060200260200182016040528015611c6657816020015b6060815260200190600190039081611c515790505b5080516113c29160bd91602090910190613895565b60bb8054610fca90614172565b60985460009081906001600160a01b03163314611cb75760405162461bcd60e51b815260040161046a906140bd565b600260015403611cd95760405162461bcd60e51b815260040161046a90614125565b6002600155600080611ced85870187614465565b9350509250506000611cff8383612f11565b600081815260b460205260409020805460ff1916600117905560b25460b354919250611d37916001600160a01b03909116908a612bab565b505060b25460b354600180556001600160a01b0390911697909650945050505050565b60ac81815481106111c357600080fd5b6098546000906001600160a01b03163314611d975760405162461bcd60e51b815260040161046a906140bd565b600260015403611db95760405162461bcd60e51b815260040161046a90614125565b6002600181905560b1546040805180820190915260138152724e4f545f415f5449455245445f424f554e545960681b60208201529114611e0c5760405162461bcd60e51b815260040161046a9190613a2a565b50600083815260b7602090815260409182902054825180840190935260148352731512515497d053149150511657d0d3105253515160621b9183019190915260ff1615611e6c5760405162461bcd60e51b815260040161046a9190613a2a565b506001600160a01b038216600090815260b6602052604081205460b58054606492919087908110611e9f57611e9f61415c565b9060005260206000200154611eb491906144e3565b611ebe9190614502565b9050611ecb838287612bab565b60018055949350505050565b6040516370a0823160e01b815230600482015260009082906001600160a01b038216906370a0823190602401602060405180830381865afa158015611f20573d6000803e3d6000fd5b505050506040513d601f19601f82011682018060405250810190611f449190614524565b9392505050565b6097546001600160a01b0316336001600160a01b031614611f7e5760405162461bcd60e51b815260040161046a906141ac565b60bc805460ff1916911515919091179055565b609a8054610fca90614172565b6000611faa60ae612f44565b51905090565b6098546000906001600160a01b03163314611fdd5760405162461bcd60e51b815260040161046a906140bd565b600260015403611fff5760405162461bcd60e51b815260040161046a90614125565b6002600155600061200f83611680565b9050610fb2838286612bab565b60bd818154811061202c57600080fd5b906000526020600020016000915090508054610fca90614172565b6097546001600160a01b0316336001600160a01b03161461207a5760405162461bcd60e51b815260040161046a906141ac565b60b95560b8805460ff196001600160a01b0390931661010002929092166001600160a81b0319909216919091176001179055565b60995460009081906001600160a01b031633146120dd5760405162461bcd60e51b815260040161046a906143e6565b6002600154036120ff5760405162461bcd60e51b815260040161046a90614125565b600260015560408051808201909152601081526f16915493d7d593d315535157d4d1539560821b6020820152846121495760405162461bcd60e51b815260040161046a9190613a2a565b50600083116040518060400160405280602081526020017f45585049524154494f4e5f4e4f545f475245415445525f5448414e5f5a45524f815250906121a25760405162461bcd60e51b815260040161046a9190613a2a565b5060a05460408051808201909152601281527110d3d395149050d517d254d7d0d313d4d15160721b602082015290156121ee5760405162461bcd60e51b815260040161046a9190613a2a565b5060006121f9612c2e565b905060006001600160a01b038716612212575034612220565b61221d878988612f51565b90505b600082815260a26020908152604080832080546001600160a01b03808e166001600160a01b03199283161790925560a384528285208054928d169290911691909117905560a4825280832084905560a5825280832042905560a9825280832088905560aa9091528120805460ff1916905560ac805460018101825591527f0a0a1bcadd9f6a5539376fa82276e043ae3cb4499daaaf8136572ecb1f9f0d60018290556122cd60ae88612ff0565b50600180559097909650945050505050565b600080839050600080826001600160a01b0316636b149d876040518163ffffffff1660e01b8152600401600060405180830381865afa158015612326573d6000803e3d6000fd5b505050506040513d6000823e601f3d908101601f1916820160405261234e9190810190614560565b905060005b81518110156125c857836001600160a01b03166356406fa583838151811061237d5761237d61415c565b60200260200101516040518263ffffffff1660e01b81526004016123a391815260200190565b602060405180830381865afa1580156123c0573d6000803e3d6000fd5b505050506040513d601f19601f820116820180604052508101906123e49190614524565b846001600160a01b031663968b098f8484815181106124055761240561415c565b60200260200101516040518263ffffffff1660e01b815260040161242b91815260200190565b602060405180830381865afa158015612448573d6000803e3d6000fd5b505050506040513d601f19601f8201168201806040525081019061246c9190614524565b6124769190614452565b4210801561251c5750856001600160a01b0316846001600160a01b03166397bb3ce98484815181106124aa576124aa61415c565b60200260200101516040518263ffffffff1660e01b81526004016124d091815260200190565b602060405180830381865afa1580156124ed573d6000803e3d6000fd5b505050506040513d601f19601f8201168201806040525081019061251191906145e5565b6001600160a01b0316145b156125b657836001600160a01b0316631595eea48383815181106125425761254261415c565b60200260200101516040518263ffffffff1660e01b815260040161256891815260200190565b602060405180830381865afa158015612585573d6000803e3d6000fd5b505050506040513d601f19601f820116820180604052508101906125a99190614524565b6125b39084614452565b92505b806125c081614313565b915050612353565b509095945050505050565b60b581815481106111c357600080fd5b6099546000906001600160a01b031633146126105760405162461bcd60e51b815260040161046a906143e6565b6002600154036126325760405162461bcd60e51b815260040161046a90614125565b600260015560a05460408051808201909152601281527110d3d395149050d517d254d7d0d313d4d15160721b602082015290156126825760405162461bcd60e51b815260040161046a9190613a2a565b50600084815260a66020908152604091829020548251808401909352601883527711115413d4d25517d053149150511657d49151955391115160421b9183019190915260ff16156126e65760405162461bcd60e51b815260040161046a9190613a2a565b50600084815260a26020908152604091829020548251808401909352601183527021a0a62622a92fa727aa2fa32aa72222a960791b918301919091526001600160a01b0384811691161461274d5760405162461bcd60e51b815260040161046a9190613a2a565b50600084815260a9602090815260408083205460a5909252909120546127739190614452565b4211156127b357600084815260a5602052604090205483906127959042614602565b61279f9190614452565b600085815260a960205260409020556127dd565b600084815260a960205260409020546127cd908490614452565b600085815260a960205260409020555b505050600090815260a960205260409020546001805590565b6099546001600160a01b031633146128205760405162461bcd60e51b815260040161046a906143e6565b6002600154036128425760405162461bcd60e51b815260040161046a90614125565b6002600155600083815260a66020908152604091829020548251808401909352601883527711115413d4d25517d053149150511657d49151955391115160421b9183019190915260ff16156128aa5760405162461bcd60e51b815260040161046a9190613a2a565b50600083815260a26020908152604091829020548251808401909352601183527021a0a62622a92fa727aa2fa32aa72222a960791b918301919091526001600160a01b038481169116146129115760405162461bcd60e51b815260040161046a9190613a2a565b50600083815260a9602090815260408083205460a5909252909120546129379190614452565b4210156040518060400160405280601881526020017714149153505515549157d4915195539117d49154555154d560421b815250906129895760405162461bcd60e51b815260040161046a9190613a2a565b50600083815260a660209081526040808320805460ff1916600117905560a39091529020546001600160a01b03166129e257600083815260a260205260409020546129dd906001600160a01b031682613005565b612a64565b600083815260aa602052604090205460ff1615612a3257600083815260a3602090815260408083205460a283528184205460a89093529220546129dd926001600160a01b03908116921690612edf565b600083815260a3602090815260408083205460a290925290912054612a64916001600160a01b03908116911683613018565b50506001805550565b6097546001600160a01b0316336001600160a01b031614612aa05760405162461bcd60e51b815260040161046a906141ac565b60a05460408051808201909152601781527610d3d395149050d517d053149150511657d0d313d4d151604a1b60208201529015612af05760405162461bcd60e51b815260040161046a9190613a2a565b50609d5460408051808201909152601181527021a0a62622a92fa727aa2fa4a9a9aaa2a960791b6020820152906001600160a01b03838116911614612b485760405162461bcd60e51b815260040161046a9190613a2a565b5050600160a05542609c55565b6060612b6160ae612f44565b905090565b6098546001600160a01b03163314612b905760405162461bcd60e51b815260040161046a906140bd565b600090815260b760205260409020805460ff19166001179055565b6001600160a01b038316612bc3576110a88183613005565b6110a8838284613018565b604051632142170760e11b815283906001600160a01b038216906342842e0e90612c0090869030908790600401614615565b600060405180830381600087803b158015612c1a57600080fd5b505af115801561190a573d6000803e3d6000fd5b60ac54604051600091612c4791609a9190602001614639565b60405160208183030381529060405280519060200120905090565b600054610100900460ff16612c895760405162461bcd60e51b815260040161046a906146cd565b612c9161302d565b565b600054610100900460ff16612cba5760405162461bcd60e51b815260040161046a906146cd565b609880546001600160a01b0319166001600160a01b0392909216919091179055565b600054610100900460ff16612d035760405162461bcd60e51b815260040161046a906146cd565b609980546001600160a01b0319166001600160a01b0392909216919091179055565b805163ffffffff8116612d7f5760008060008060008060008860200151806020019051810190612d559190614773565b50509650965096509650965096509650612d748787878787878761305a565b505050505050505050565b60001963ffffffff821601612de65760008060008060008060008060008a60200151806020019051810190612db49190614858565b5050985098509850985098509850985098509850612dd98989898989898989896130cf565b5050505050505050505050565b60011963ffffffff821601612e47576000806000806000806000808960200151806020019051810190612e1991906149ca565b505097509750975097509750975097509750612e3b888888888888888861315e565b50505050505050505050565b60021963ffffffff821601612e93576000806000806000808760200151806020019051810190612e779190614ad5565b505095509550955095509550955061190a8686868686866132e6565b60405162461bcd60e51b815260206004820152601f60248201527f4f513a20756e6b6e6f776e20696e6974206f7065726174696f6e207479706500604482015260640161046a565b5050565b604051632142170760e11b815283906001600160a01b038216906342842e0e90612c0090309087908790600401614615565b60008282604051602001612f26929190614bc4565b60405160208183030381529060405280519060200120905092915050565b60606000611f44836133bb565b600080612f5d85611ed7565b905084612f756001600160a01b038216863087613417565b6000612f8087611ed7565b9050828110156040518060400160405280601a81526020017f544f4b454e5f5452414e534645525f494e5f4f564552464c4f5700000000000081525090612fda5760405162461bcd60e51b815260040161046a9190613a2a565b50612fe58382614602565b979650505050505050565b6000611f44836001600160a01b03841661346f565b612edb6001600160a01b038316826134be565b826113c26001600160a01b03821684846135d7565b600054610100900460ff166130545760405162461bcd60e51b815260040161046a906146cd565b60018055565b600060b15560b880546001600160a81b031916881515610100600160a81b031916176101006001600160a01b03891681029190911790915560b986905560ba805461ffff191686151561ff0019161785151590920291909117905560bc805460ff191683151517905560bb61190a8282614244565b600160b15560b280546001600160a01b0319166001600160a01b038b81169190911790915560b389905560b880546001600160a81b031916891515610100600160a81b03191617610100928916830217905560b986905560ba805461ffff191686151561ff0019161785151590920291909117905560bc805460ff191683151517905560bb612e3b8282614244565b600260b1556000805b89518110156131a9578981815181106131825761318261415c565b6020026020010151826131959190614452565b9150806131a181614313565b915050613167565b5060408051808201909152601f81527f5041594f55545f5343484544554c455f4d5553545f4144445f544f5f313030006020820152606482146131ff5760405162461bcd60e51b815260040161046a9190613a2a565b5088516132139060b59060208c01906138e7565b5060b880546001600160a81b031916891515610100600160a81b031916176101006001600160a01b038a1681029190911790915560b987905560ba805461ffff191687151561ff0019161786151590920291909117905560bc805460ff191684151517905560bb6132848382614244565b5088516001600160401b0381111561329e5761329e613a3d565b6040519080825280602002602001820160405280156132d157816020015b60608152602001906001900390816132bc5790505b508051612e3b9160bd91602090910190613895565b600360b15585516132fe9060b59060208901906138e7565b5060b280546001600160a01b0319166001600160a01b03871617905560ba805461ffff191685151561ff001916176101008515150217905560bc805460ff191683151517905560bb6133508282614244565b5085516001600160401b0381111561336a5761336a613a3d565b60405190808252806020026020018201604052801561339d57816020015b60608152602001906001900390816133885790505b5080516133b29160bd91602090910190613895565b50505050505050565b60608160000180548060200260200160405190810160405280929190818152602001828054801561340b57602002820191906000526020600020905b8154815260200190600101908083116133f7575b50505050509050919050565b6113c2846323b872dd60e01b85858560405160240161343893929190614615565b60408051601f198184030181529190526020810180516001600160e01b03166001600160e01b031990931692909217909152613607565b60008181526001830160205260408120546134b6575081546001818101845560008481526020808220909301849055845484825282860190935260409020919091556116a0565b5060006116a0565b8047101561350e5760405162461bcd60e51b815260206004820152601d60248201527f416464726573733a20696e73756666696369656e742062616c616e6365000000604482015260640161046a565b6000826001600160a01b03168260405160006040518083038185875af1925050503d806000811461355b576040519150601f19603f3d011682016040523d82523d6000602084013e613560565b606091505b50509050806110a85760405162461bcd60e51b815260206004820152603a60248201527f416464726573733a20756e61626c6520746f2073656e642076616c75652c207260448201527f6563697069656e74206d61792068617665207265766572746564000000000000606482015260840161046a565b6040516001600160a01b0383166024820152604481018290526110a890849063a9059cbb60e01b90606401613438565b600061365c826040518060400160405280602081526020017f5361666545524332303a206c6f772d6c6576656c2063616c6c206661696c6564815250856001600160a01b03166136d99092919063ffffffff16565b8051909150156110a8578080602001905181019061367a9190614bf2565b6110a85760405162461bcd60e51b815260206004820152602a60248201527f5361666545524332303a204552433230206f7065726174696f6e20646964206e6044820152691bdd081cdd58d8d9595960b21b606482015260840161046a565b60606136e884846000856136f0565b949350505050565b6060824710156137515760405162461bcd60e51b815260206004820152602660248201527f416464726573733a20696e73756666696369656e742062616c616e636520666f6044820152651c8818d85b1b60d21b606482015260840161046a565b6001600160a01b0385163b6137a85760405162461bcd60e51b815260206004820152601d60248201527f416464726573733a2063616c6c20746f206e6f6e2d636f6e7472616374000000604482015260640161046a565b600080866001600160a01b031685876040516137c49190614c0f565b60006040518083038185875af1925050503d8060008114613801576040519150601f19603f3d011682016040523d82523d6000602084013e613806565b606091505b5091509150612fe582828660608315613820575081611f44565b8251156138305782518084602001fd5b8160405162461bcd60e51b815260040161046a9190613a2a565b828054828255906000526020600020908101928215613885579160200282015b8281111561388557823582559160200191906001019061386a565b50613891929150613922565b5090565b8280548282559060005260206000209081019282156138db579160200282015b828111156138db57825182906138cb9082614244565b50916020019190600101906138b5565b50613891929150613937565b828054828255906000526020600020908101928215613885579160200282015b82811115613885578251825591602001919060010190613907565b5b808211156138915760008155600101613923565b8082111561389157600061394b8282613954565b50600101613937565b50805461396090614172565b6000825580601f10613970575050565b601f0160209004906000526020600020908101906112c59190613922565b6001600160a01b03811681146112c557600080fd5b80356116a68161398e565b600080604083850312156139c157600080fd5b82356139cc8161398e565b946020939093013593505050565b60005b838110156139f55781810151838201526020016139dd565b50506000910152565b60008151808452613a168160208601602086016139da565b601f01601f19169290920160200192915050565b602081526000611f4460208301846139fe565b634e487b7160e01b600052604160045260246000fd5b604051601f8201601f191681016001600160401b0381118282101715613a7b57613a7b613a3d565b604052919050565b60006001600160401b03821115613a9c57613a9c613a3d565b50601f01601f191660200190565b600082601f830112613abb57600080fd5b8135613ace613ac982613a83565b613a53565b818152846020838601011115613ae357600080fd5b816020850160208301376000918101602001919091529392505050565b60008060408385031215613b1357600080fd5b82356001600160401b03811115613b2957600080fd5b613b3585828601613aaa565b95602094909401359450505050565b80151581146112c557600080fd5b600060208284031215613b6457600080fd5b8135611f4481613b44565b60008060008060808587031215613b8557600080fd5b8435613b908161398e565b93506020850135613ba08161398e565b92506040850135915060608501356001600160401b03811115613bc257600080fd5b613bce87828801613aaa565b91505092959194509250565b600060208284031215613bec57600080fd5b5035919050565b60008083601f840112613c0557600080fd5b5081356001600160401b03811115613c1c57600080fd5b6020830191508360208260051b8501011115613c3757600080fd5b9250929050565b600080600060408486031215613c5357600080fd5b83356001600160401b03811115613c6957600080fd5b613c7586828701613bf3565b9094509250506020840135613c898161398e565b809150509250925092565b600080600060408486031215613ca957600080fd5b8335613cb48161398e565b925060208401356001600160401b0380821115613cd057600080fd5b818601915086601f830112613ce457600080fd5b813581811115613cf357600080fd5b876020828501011115613d0557600080fd5b6020830194508093505050509250925092565b600080600080600060a08688031215613d3057600080fd5b8535613d3b8161398e565b94506020860135613d4b8161398e565b94979496505050506040830135926060810135926080909101359150565b6020808252825182820181905260009190848201906040850190845b81811015613da157835183529284019291840191600101613d85565b50909695505050505050565b600060208284031215613dbf57600080fd5b8135611f448161398e565b600060408284031215613ddc57600080fd5b604051604081016001600160401b038282108183111715613dff57613dff613a3d565b816040528293508435915063ffffffff82168214613e1c57600080fd5b90825260208401359080821115613e3257600080fd5b50613e3f85828601613aaa565b6020830152505092915050565b600080600080600080600060e0888a031215613e6757600080fd5b87356001600160401b0380821115613e7e57600080fd5b613e8a8b838c01613aaa565b985060208a01359150613e9c8261398e565b90965060408901359080821115613eb257600080fd5b613ebe8b838c01613aaa565b965060608a01359150613ed08261398e565b819550613edf60808b016139a3565b9450613eed60a08b016139a3565b935060c08a0135915080821115613f0357600080fd5b50613f108a828b01613dca565b91505092959891949750929550565b60008060208385031215613f3257600080fd5b82356001600160401b03811115613f4857600080fd5b613f5485828601613bf3565b90969095509350505050565b600080600060608486031215613f7557600080fd5b8335613f808161398e565b9250602084013591506040840135613c898161398e565b60008060408385031215613faa57600080fd5b8235613fb58161398e565b91506020830135613fc58161398e565b809150509250929050565b60008060008060808587031215613fe657600080fd5b8435613ff18161398e565b935060208501356140018161398e565b93969395505050506040820135916060013590565b60008060006060848603121561402b57600080fd5b83359250602084013591506040840135613c898161398e565b60008060006060848603121561405957600080fd5b83359250602084013561406b8161398e565b929592945050506040919091013590565b6020808252825182820181905260009190848201906040850190845b81811015613da15783516001600160a01b031683529284019291840191600101614098565b60208082526042908201527f436c61696d4d616e616765724f776e61626c653a2063616c6c6572206973206e60408201527f6f74207468652063757272656e74204f70656e5120436c61696d204d616e616760608201526132b960f11b608082015260a00190565b6020808252601f908201527f5265656e7472616e637947756172643a207265656e7472616e742063616c6c00604082015260600190565b634e487b7160e01b600052603260045260246000fd5b600181811c9082168061418657607f821691505b6020821081036141a657634e487b7160e01b600052602260045260246000fd5b50919050565b6020808252818101527f4d6574686f64206973206f6e6c792063616c6c61626c65206279204f70656e51604082015260600190565b601f8211156110a857600081815260208120601f850160051c810160208610156142085750805b601f850160051c820191505b8181101561422757828155600101614214565b505050505050565b600019600383901b1c191660019190911b1790565b81516001600160401b0381111561425d5761425d613a3d565b6142718161426b8454614172565b846141e1565b602080601f8311600181146142a0576000841561428e5750858301515b614298858261422f565b865550614227565b600085815260208120601f198616915b828110156142cf578886015182559484019460019091019084016142b0565b50858210156142ed5787850151600019600388901b60f8161c191681555b5050505050600190811b01905550565b634e487b7160e01b600052601160045260246000fd5b600060018201614325576143256142fd565b5060010190565b6001600160401b0383111561434357614343613a3d565b614357836143518354614172565b836141e1565b6000601f84116001811461438557600085156143735750838201355b61437d868261422f565b8455506143df565b600083815260209020601f19861690835b828110156143b65786850135825560209485019460019092019101614396565b50868210156143d35760001960f88860031b161c19848701351681555b505060018560011b0183555b5050505050565b60208082526046908201527f4465706f7369744d616e616765724f776e61626c653a2063616c6c657220697360408201527f206e6f74207468652063757272656e74204f70656e51204465706f736974204d60608201526530b730b3b2b960d11b608082015260a00190565b808201808211156116a0576116a06142fd565b6000806000806080858703121561447b57600080fd5b84356144868161398e565b935060208501356001600160401b03808211156144a257600080fd5b6144ae88838901613aaa565b9450604087013591506144c08261398e565b909250606086013590808211156144d657600080fd5b50613bce87828801613aaa565b60008160001904831182151516156144fd576144fd6142fd565b500290565b60008261451f57634e487b7160e01b600052601260045260246000fd5b500490565b60006020828403121561453657600080fd5b5051919050565b60006001600160401b0382111561455657614556613a3d565b5060051b60200190565b6000602080838503121561457357600080fd5b82516001600160401b0381111561458957600080fd5b8301601f8101851361459a57600080fd5b80516145a8613ac98261453d565b81815260059190911b820183019083810190878311156145c757600080fd5b928401925b82841015612fe5578351825292840192908401906145cc565b6000602082840312156145f757600080fd5b8151611f448161398e565b818103818111156116a0576116a06142fd565b6001600160a01b039384168152919092166020820152604081019190915260600190565b60408152600080845461464b81614172565b806040860152606060018084166000811461466d5760018114614687576146b8565b60ff1985168884015283151560051b8801830195506146b8565b8960005260208060002060005b868110156146af5781548b8201870152908401908201614694565b8a018501975050505b50505050506020929092019290925292915050565b6020808252602b908201527f496e697469616c697a61626c653a20636f6e7472616374206973206e6f74206960408201526a6e697469616c697a696e6760a81b606082015260800190565b80516116a681613b44565b80516116a68161398e565b600082601f83011261473f57600080fd5b815161474d613ac982613a83565b81815284602083860101111561476257600080fd5b6136e88260208301602087016139da565b60008060008060008060008060006101208a8c03121561479257600080fd5b61479b8a614718565b98506147a960208b01614723565b975060408a015196506147be60608b01614718565b95506147cc60808b01614718565b94506147da60a08b01614718565b935060c08a01516001600160401b03808211156147f657600080fd5b6148028d838e0161472e565b945060e08c015191508082111561481857600080fd5b6148248d838e0161472e565b93506101008c015191508082111561483b57600080fd5b506148488c828d0161472e565b9150509295985092959850929598565b60008060008060008060008060008060006101608c8e03121561487a57600080fd5b6148838c614723565b9a5060208c0151995061489860408d01614718565b98506148a660608d01614723565b975060808c015196506148bb60a08d01614718565b95506148c960c08d01614718565b94506148d760e08d01614718565b93506101008c01516001600160401b038111156148f357600080fd5b6148ff8e828f0161472e565b9350506101208c01516001600160401b0381111561491c57600080fd5b6149288e828f0161472e565b9250506101408c01516001600160401b0381111561494557600080fd5b6149518e828f0161472e565b9150509295989b509295989b9093969950565b600082601f83011261497557600080fd5b81516020614985613ac98361453d565b82815260059290921b840181019181810190868411156149a457600080fd5b8286015b848110156149bf57805183529183019183016149a8565b509695505050505050565b6000806000806000806000806000806101408b8d0312156149ea57600080fd5b8a516001600160401b0380821115614a0157600080fd5b614a0d8e838f01614964565b9b50614a1b60208e01614718565b9a50614a2960408e01614723565b995060608d01519850614a3e60808e01614718565b9750614a4c60a08e01614718565b9650614a5a60c08e01614718565b955060e08d0151915080821115614a7057600080fd5b614a7c8e838f0161472e565b94506101008d0151915080821115614a9357600080fd5b614a9f8e838f0161472e565b93506101208d0151915080821115614ab657600080fd5b50614ac38d828e0161472e565b9150509295989b9194979a5092959850565b600080600080600080600080610100898b031215614af257600080fd5b88516001600160401b0380821115614b0957600080fd5b614b158c838d01614964565b9950614b2360208c01614723565b9850614b3160408c01614718565b9750614b3f60608c01614718565b9650614b4d60808c01614718565b955060a08b0151915080821115614b6357600080fd5b614b6f8c838d0161472e565b945060c08b0151915080821115614b8557600080fd5b614b918c838d0161472e565b935060e08b0151915080821115614ba757600080fd5b50614bb48b828c0161472e565b9150509295985092959890939650565b604081526000614bd760408301856139fe565b8281036020840152614be981856139fe565b95945050505050565b600060208284031215614c0457600080fd5b8151611f4481613b44565b60008251614c218184602087016139da565b919091019291505056fea2646970667358221220933c75af8be17e66063ef8e3fcb6f7bb5bf558a4e096db3d7c318fef4636cd9564736f6c63430008100033",
  "linkReferences": {},
  "deployedLinkReferences": {}
}