{
  "_format": "hh-sol-artifact-1",
  "contractName": "BountyV0",
  "sourceName": "contracts/Bounty/Implementations/BountyV0.sol",
  "abi": [
    {
      "stateMutability": "nonpayable",
      "type": "fallback"
    },
    {
      "inputs": [],
      "name": "bountyClosedTime",
      "outputs": [
        {
          "internalType": "uint256",
          "name": "",
          "type": "uint256"
        }
      ],
      "stateMutability": "view",
      "type": "function"
    },
    {
      "inputs": [],
      "name": "bountyCreatedTime",
      "outputs": [
        {
          "internalType": "uint256",
          "name": "",
          "type": "uint256"
        }
      ],
      "stateMutability": "view",
      "type": "function"
    },
    {
      "inputs": [],
      "name": "bountyId",
      "outputs": [
        {
          "internalType": "string",
          "name": "",
          "type": "string"
        }
      ],
      "stateMutability": "view",
      "type": "function"
    },
    {
      "inputs": [
        {
          "internalType": "address",
          "name": "_payoutAddress",
          "type": "address"
        },
        {
          "internalType": "address",
          "name": "_tokenAddress",
          "type": "address"
        }
      ],
      "name": "claimBalance",
      "outputs": [
        {
          "internalType": "uint256",
          "name": "",
          "type": "uint256"
        }
      ],
      "stateMutability": "nonpayable",
      "type": "function"
    },
    {
      "inputs": [
        {
          "internalType": "address",
          "name": "_payoutAddress",
          "type": "address"
        },
        {
          "internalType": "bytes32",
          "name": "depositId",
          "type": "bytes32"
        }
      ],
      "name": "claimNft",
      "outputs": [
        {
          "internalType": "bool",
          "name": "success",
          "type": "bool"
        }
      ],
      "stateMutability": "nonpayable",
      "type": "function"
    },
    {
      "inputs": [
        {
          "internalType": "address",
          "name": "_payoutAddress",
          "type": "address"
        }
      ],
      "name": "close",
      "outputs": [
        {
          "internalType": "bool",
          "name": "success",
          "type": "bool"
        }
      ],
      "stateMutability": "nonpayable",
      "type": "function"
    },
    {
      "inputs": [],
      "name": "closer",
      "outputs": [
        {
          "internalType": "address",
          "name": "",
          "type": "address"
        }
      ],
      "stateMutability": "view",
      "type": "function"
    },
    {
      "inputs": [
        {
          "internalType": "bytes32",
          "name": "",
          "type": "bytes32"
        }
      ],
      "name": "depositTime",
      "outputs": [
        {
          "internalType": "uint256",
          "name": "",
          "type": "uint256"
        }
      ],
      "stateMutability": "view",
      "type": "function"
    },
    {
      "inputs": [
        {
          "internalType": "uint256",
          "name": "",
          "type": "uint256"
        }
      ],
      "name": "deposits",
      "outputs": [
        {
          "internalType": "bytes32",
          "name": "",
          "type": "bytes32"
        }
      ],
      "stateMutability": "view",
      "type": "function"
    },
    {
      "inputs": [
        {
          "internalType": "bytes32",
          "name": "",
          "type": "bytes32"
        }
      ],
      "name": "expiration",
      "outputs": [
        {
          "internalType": "uint256",
          "name": "",
          "type": "uint256"
        }
      ],
      "stateMutability": "view",
      "type": "function"
    },
    {
      "inputs": [
        {
          "internalType": "bytes32",
          "name": "",
          "type": "bytes32"
        }
      ],
      "name": "funder",
      "outputs": [
        {
          "internalType": "address",
          "name": "",
          "type": "address"
        }
      ],
      "stateMutability": "view",
      "type": "function"
    },
    {
      "inputs": [],
      "name": "getDeposits",
      "outputs": [
        {
          "internalType": "bytes32[]",
          "name": "",
          "type": "bytes32[]"
        }
      ],
      "stateMutability": "view",
      "type": "function"
    },
    {
      "inputs": [
        {
          "internalType": "address",
          "name": "_tokenAddress",
          "type": "address"
        }
      ],
      "name": "getERC20Balance",
      "outputs": [
        {
          "internalType": "uint256",
          "name": "balance",
          "type": "uint256"
        }
      ],
      "stateMutability": "view",
      "type": "function"
    },
    {
      "inputs": [],
      "name": "getNftDeposits",
      "outputs": [
        {
          "internalType": "bytes32[]",
          "name": "",
          "type": "bytes32[]"
        }
      ],
      "stateMutability": "view",
      "type": "function"
    },
    {
      "inputs": [],
      "name": "getTokenAddresses",
      "outputs": [
        {
          "internalType": "address[]",
          "name": "",
          "type": "address[]"
        }
      ],
      "stateMutability": "view",
      "type": "function"
    },
    {
      "inputs": [
        {
          "internalType": "string",
          "name": "_bountyId",
          "type": "string"
        },
        {
          "internalType": "address",
          "name": "_issuer",
          "type": "address"
        },
        {
          "internalType": "string",
          "name": "_organization",
          "type": "string"
        },
        {
          "internalType": "address",
          "name": "_openQ",
          "type": "address"
        }
      ],
      "name": "initialize",
      "outputs": [],
      "stateMutability": "nonpayable",
      "type": "function"
    },
    {
      "inputs": [
        {
          "internalType": "bytes32",
          "name": "",
          "type": "bytes32"
        }
      ],
      "name": "isNFT",
      "outputs": [
        {
          "internalType": "bool",
          "name": "",
          "type": "bool"
        }
      ],
      "stateMutability": "view",
      "type": "function"
    },
    {
      "inputs": [],
      "name": "issuer",
      "outputs": [
        {
          "internalType": "address",
          "name": "",
          "type": "address"
        }
      ],
      "stateMutability": "view",
      "type": "function"
    },
    {
      "inputs": [
        {
          "internalType": "uint256",
          "name": "",
          "type": "uint256"
        }
      ],
      "name": "nftDeposits",
      "outputs": [
        {
          "internalType": "bytes32",
          "name": "",
          "type": "bytes32"
        }
      ],
      "stateMutability": "view",
      "type": "function"
    },
    {
      "inputs": [
        {
          "internalType": "address",
          "name": "",
          "type": "address"
        },
        {
          "internalType": "address",
          "name": "",
          "type": "address"
        },
        {
          "internalType": "uint256",
          "name": "",
          "type": "uint256"
        },
        {
          "internalType": "bytes",
          "name": "",
          "type": "bytes"
        }
      ],
      "name": "onERC721Received",
      "outputs": [
        {
          "internalType": "bytes4",
          "name": "",
          "type": "bytes4"
        }
      ],
      "stateMutability": "pure",
      "type": "function"
    },
    {
      "inputs": [],
      "name": "openQ",
      "outputs": [
        {
          "internalType": "address",
          "name": "",
          "type": "address"
        }
      ],
      "stateMutability": "view",
      "type": "function"
    },
    {
      "inputs": [],
      "name": "organization",
      "outputs": [
        {
          "internalType": "string",
          "name": "",
          "type": "string"
        }
      ],
      "stateMutability": "view",
      "type": "function"
    },
    {
      "inputs": [
        {
          "internalType": "bytes32",
          "name": "",
          "type": "bytes32"
        }
      ],
      "name": "payoutAddress",
      "outputs": [
        {
          "internalType": "address",
          "name": "",
          "type": "address"
        }
      ],
      "stateMutability": "view",
      "type": "function"
    },
    {
      "inputs": [
        {
          "internalType": "address",
          "name": "_funder",
          "type": "address"
        },
        {
          "internalType": "address",
          "name": "_tokenAddress",
          "type": "address"
        },
        {
          "internalType": "uint256",
          "name": "_volume",
          "type": "uint256"
        },
        {
          "internalType": "uint256",
          "name": "_expiration",
          "type": "uint256"
        }
      ],
      "name": "receiveFunds",
      "outputs": [
        {
          "internalType": "bytes32",
          "name": "",
          "type": "bytes32"
        },
        {
          "internalType": "uint256",
          "name": "",
          "type": "uint256"
        }
      ],
      "stateMutability": "payable",
      "type": "function"
    },
    {
      "inputs": [
        {
          "internalType": "address",
          "name": "_sender",
          "type": "address"
        },
        {
          "internalType": "address",
          "name": "_tokenAddress",
          "type": "address"
        },
        {
          "internalType": "uint256",
          "name": "_tokenId",
          "type": "uint256"
        },
        {
          "internalType": "uint256",
          "name": "_expiration",
          "type": "uint256"
        }
      ],
      "name": "receiveNft",
      "outputs": [
        {
          "internalType": "bytes32",
          "name": "",
          "type": "bytes32"
        }
      ],
      "stateMutability": "nonpayable",
      "type": "function"
    },
    {
      "inputs": [
        {
          "internalType": "bytes32",
          "name": "_depositId",
          "type": "bytes32"
        },
        {
          "internalType": "address",
          "name": "_funder",
          "type": "address"
        }
      ],
      "name": "refundDeposit",
      "outputs": [
        {
          "internalType": "bool",
          "name": "success",
          "type": "bool"
        }
      ],
      "stateMutability": "nonpayable",
      "type": "function"
    },
    {
      "inputs": [
        {
          "internalType": "bytes32",
          "name": "",
          "type": "bytes32"
        }
      ],
      "name": "refunded",
      "outputs": [
        {
          "internalType": "bool",
          "name": "",
          "type": "bool"
        }
      ],
      "stateMutability": "view",
      "type": "function"
    },
    {
      "inputs": [],
      "name": "status",
      "outputs": [
        {
          "internalType": "enum Bounty.BountyStatus",
          "name": "",
          "type": "uint8"
        }
      ],
      "stateMutability": "view",
      "type": "function"
    },
    {
      "inputs": [
        {
          "internalType": "bytes32",
          "name": "",
          "type": "bytes32"
        }
      ],
      "name": "tokenAddress",
      "outputs": [
        {
          "internalType": "address",
          "name": "",
          "type": "address"
        }
      ],
      "stateMutability": "view",
      "type": "function"
    },
    {
      "inputs": [
        {
          "internalType": "bytes32",
          "name": "",
          "type": "bytes32"
        }
      ],
      "name": "tokenId",
      "outputs": [
        {
          "internalType": "uint256",
          "name": "",
          "type": "uint256"
        }
      ],
      "stateMutability": "view",
      "type": "function"
    },
    {
      "inputs": [
        {
          "internalType": "bytes32",
          "name": "",
          "type": "bytes32"
        }
      ],
      "name": "volume",
      "outputs": [
        {
          "internalType": "uint256",
          "name": "",
          "type": "uint256"
        }
      ],
      "stateMutability": "view",
      "type": "function"
    },
    {
      "stateMutability": "payable",
      "type": "receive"
    }
  ],
  "bytecode": "0x608060405234801561001057600080fd5b50613f91806100206000396000f3fe6080604052600436106101dc5760003560e01c80637dc81fa211610102578063c74073a111610095578063e129b33311610064578063e129b33314610790578063ee8c24b8146107cd578063f05e0f7e146107f8578063f232172514610835576101e3565b8063c74073a1146106ba578063cb2da3db146106f7578063cb4436b714610734578063d6fe0f441461075f576101e3565b8063b02c43d0116100d1578063b02c43d0146105d8578063b588d22514610615578063b99bb99014610652578063c17bd75e1461068f576101e3565b80637dc81fa214610508578063968b098f1461053357806397bb3ce914610570578063995280b0146105ad576101e3565b806323bd4d7a1161017a5780636b149d87116101495780636b149d871461044a5780637044f2821461047557806371ec4ebf146104a057806377ede8a6146104dd576101e3565b806323bd4d7a1461036857806356406fa51461039357806359ba8344146103d0578063641411f81461040d576101e3565b80631d143848116101b65780631d143848146102ac5780631ecfacee146102d7578063200d2ed214610300578063235b2b941461032b576101e3565b8063150b7a02146101f55780631595eea4146102325780631bc5fc961461026f576101e3565b366101e357005b3480156101ef57600080fd5b50600080fd5b34801561020157600080fd5b5061021c600480360381019061021791906129ed565b610872565b6040516102299190612ab0565b60405180910390f35b34801561023e57600080fd5b5061025960048036038101906102549190612b01565b6108a0565b6040516102669190612b3d565b60405180910390f35b34801561027b57600080fd5b5061029660048036038101906102919190612b58565b6108b8565b6040516102a39190612b94565b60405180910390f35b3480156102b857600080fd5b506102c16108dc565b6040516102ce9190612bbe565b60405180910390f35b3480156102e357600080fd5b506102fe60048036038101906102f99190612d1a565b610902565b005b34801561030c57600080fd5b50610315610afb565b6040516103229190612e30565b60405180910390f35b34801561033757600080fd5b50610352600480360381019061034d9190612b01565b610b0e565b60405161035f9190612e66565b60405180910390f35b34801561037457600080fd5b5061037d610b2e565b60405161038a9190612f09565b60405180910390f35b34801561039f57600080fd5b506103ba60048036038101906103b59190612b01565b610bbc565b6040516103c79190612b3d565b60405180910390f35b3480156103dc57600080fd5b506103f760048036038101906103f29190612b01565b610bd4565b6040516104049190612bbe565b60405180910390f35b34801561041957600080fd5b50610434600480360381019061042f9190612f2b565b610c07565b6040516104419190612e66565b60405180910390f35b34801561045657600080fd5b5061045f6110a0565b60405161046c9190613029565b60405180910390f35b34801561048157600080fd5b5061048a6110f8565b6040516104979190612bbe565b60405180910390f35b3480156104ac57600080fd5b506104c760048036038101906104c2919061304b565b61111e565b6040516104d49190612e66565b60405180910390f35b3480156104e957600080fd5b506104f26112dd565b6040516104ff9190613029565b60405180910390f35b34801561051457600080fd5b5061051d611335565b60405161052a9190612bbe565b60405180910390f35b34801561053f57600080fd5b5061055a60048036038101906105559190612b01565b61135b565b6040516105679190612b3d565b60405180910390f35b34801561057c57600080fd5b5061059760048036038101906105929190612b01565b611373565b6040516105a49190612bbe565b60405180910390f35b3480156105b957600080fd5b506105c26113a6565b6040516105cf9190612b3d565b60405180910390f35b3480156105e457600080fd5b506105ff60048036038101906105fa9190612b58565b6113ac565b60405161060c9190612b94565b60405180910390f35b34801561062157600080fd5b5061063c6004803603810190610637919061308b565b6113d0565b6040516106499190612b3d565b60405180910390f35b34801561065e57600080fd5b5061067960048036038101906106749190612b01565b611458565b6040516106869190612bbe565b60405180910390f35b34801561069b57600080fd5b506106a461148b565b6040516106b19190612f09565b60405180910390f35b3480156106c657600080fd5b506106e160048036038101906106dc919061308b565b611519565b6040516106ee9190612e66565b60405180910390f35b34801561070357600080fd5b5061071e600480360381019061071991906130b8565b611703565b60405161072b9190612b3d565b60405180910390f35b34801561074057600080fd5b5061074961185a565b6040516107569190612b3d565b60405180910390f35b610779600480360381019061077491906130f8565b611860565b60405161078792919061315f565b60405180910390f35b34801561079c57600080fd5b506107b760048036038101906107b291906130f8565b611b95565b6040516107c49190612b94565b60405180910390f35b3480156107d957600080fd5b506107e2611e9b565b6040516107ef9190613246565b60405180910390f35b34801561080457600080fd5b5061081f600480360381019061081a9190612b01565b611eac565b60405161082c9190612e66565b60405180910390f35b34801561084157600080fd5b5061085c60048036038101906108579190612b01565b611ecc565b6040516108699190612b3d565b60405180910390f35b60007f150b7a023d4804d13e8c85fb27262cb750cf6ba9f9dd3bb30d90f482ceeb4b1f905095945050505050565b603c6020528060005260406000206000915090505481565b604481815481106108c857600080fd5b906000526020600020016000915090505481565b603760009054906101000a900473ffffffffffffffffffffffffffffffffffffffff1681565b600060019054906101000a900460ff1661092a5760008054906101000a900460ff1615610933565b610932611ee4565b5b610972576040517f08c379a0000000000000000000000000000000000000000000000000000000008152600401610969906132da565b60405180910390fd5b60008060019054906101000a900460ff1615905080156109c2576001600060016101000a81548160ff02191690831515021790555060016000806101000a81548160ff0219169083151502179055505b600085511415610a07576040517f08c379a00000000000000000000000000000000000000000000000000000000081526004016109fe90613346565b60405180910390fd5b600083511415610a4c576040517f08c379a0000000000000000000000000000000000000000000000000000000008152600401610a43906133b2565b60405180910390fd5b8460349080519060200190610a6292919061283d565b5083603760006101000a81548173ffffffffffffffffffffffffffffffffffffffff021916908373ffffffffffffffffffffffffffffffffffffffff1602179055508260389080519060200190610aba92919061283d565b5042603581905550610aca611ef5565b610ad382611f4e565b8015610af45760008060016101000a81548160ff0219169083151502179055505b5050505050565b603960149054906101000a900460ff1681565b60426020528060005260406000206000915054906101000a900460ff1681565b60388054610b3b90613401565b80601f0160208091040260200160405190810160405280929190818152602001828054610b6790613401565b8015610bb45780601f10610b8957610100808354040283529160200191610bb4565b820191906000526020600020905b815481529060010190602001808311610b9757829003601f168201915b505050505081565b60416020528060005260406000206000915090505481565b603a6020528060005260406000206000915054906101000a900473ffffffffffffffffffffffffffffffffffffffff1681565b6000603360009054906101000a900473ffffffffffffffffffffffffffffffffffffffff1673ffffffffffffffffffffffffffffffffffffffff16610c4a611f92565b73ffffffffffffffffffffffffffffffffffffffff1614610ca0576040517f08c379a0000000000000000000000000000000000000000000000000000000008152600401610c979061347f565b60405180910390fd5b60026001541415610ce6576040517f08c379a0000000000000000000000000000000000000000000000000000000008152600401610cdd906134eb565b60405180910390fd5b600260018190555060001515603e600085815260200190815260200160002060009054906101000a900460ff16151514610d55576040517f08c379a0000000000000000000000000000000000000000000000000000000008152600401610d4c90613557565b60405180910390fd5b8173ffffffffffffffffffffffffffffffffffffffff16603a600085815260200190815260200160002060009054906101000a900473ffffffffffffffffffffffffffffffffffffffff1673ffffffffffffffffffffffffffffffffffffffff1614610df6576040517f08c379a0000000000000000000000000000000000000000000000000000000008152600401610ded906135c3565b60405180910390fd5b610e2f6041600085815260200190815260200160002054603d600086815260200190815260200160002054611f9a90919063ffffffff16565b421015610e71576040517f08c379a0000000000000000000000000000000000000000000000000000000008152600401610e689061362f565b60405180910390fd5b6001603e600085815260200190815260200160002060006101000a81548160ff021916908315150217905550600073ffffffffffffffffffffffffffffffffffffffff16603b600085815260200190815260200160002060009054906101000a900473ffffffffffffffffffffffffffffffffffffffff1673ffffffffffffffffffffffffffffffffffffffff161415610f5a57610f55603a600085815260200190815260200160002060009054906101000a900473ffffffffffffffffffffffffffffffffffffffff16603c600086815260200190815260200160002054611fb0565b61108f565b6042600084815260200190815260200160002060009054906101000a900460ff161561100957611004603b600085815260200190815260200160002060009054906101000a900473ffffffffffffffffffffffffffffffffffffffff16603a600086815260200190815260200160002060009054906101000a900473ffffffffffffffffffffffffffffffffffffffff166040600087815260200190815260200160002054611fdd565b61108e565b61108d603b600085815260200190815260200160002060009054906101000a900473ffffffffffffffffffffffffffffffffffffffff16603a600086815260200190815260200160002060009054906101000a900473ffffffffffffffffffffffffffffffffffffffff16603c600087815260200190815260200160002054612057565b5b5b600190506001808190555092915050565b606060438054806020026020016040519081016040528092919081815260200182805480156110ee57602002820191906000526020600020905b8154815260200190600101908083116110da575b5050505050905090565b603960009054906101000a900473ffffffffffffffffffffffffffffffffffffffff1681565b6000603360009054906101000a900473ffffffffffffffffffffffffffffffffffffffff1673ffffffffffffffffffffffffffffffffffffffff16611161611f92565b73ffffffffffffffffffffffffffffffffffffffff16146111b7576040517f08c379a00000000000000000000000000000000000000000000000000000000081526004016111ae9061347f565b60405180910390fd5b600260015414156111fd576040517f08c379a00000000000000000000000000000000000000000000000000000000081526004016111f4906134eb565b60405180910390fd5b60026001819055506000600181111561121957611218612db9565b5b603960149054906101000a900460ff16600181111561123b5761123a612db9565b5b1461127b576040517f08c379a00000000000000000000000000000000000000000000000000000000081526004016112729061369b565b60405180910390fd5b6112cc603b600084815260200190815260200160002060009054906101000a900473ffffffffffffffffffffffffffffffffffffffff16846040600086815260200190815260200160002054611fdd565b600190506001808190555092915050565b6060604480548060200260200160405190810160405280929190818152602001828054801561132b57602002820191906000526020600020905b815481526020019060010190808311611317575b5050505050905090565b603360009054906101000a900473ffffffffffffffffffffffffffffffffffffffff1681565b603d6020528060005260406000206000915090505481565b603b6020528060005260406000206000915054906101000a900473ffffffffffffffffffffffffffffffffffffffff1681565b60355481565b604381815481106113bc57600080fd5b906000526020600020016000915090505481565b6000808290508073ffffffffffffffffffffffffffffffffffffffff166370a08231306040518263ffffffff1660e01b815260040161140f9190612bbe565b602060405180830381865afa15801561142c573d6000803e3d6000fd5b505050506040513d601f19601f8201168201806040525081019061145091906136d0565b915050919050565b603f6020528060005260406000206000915054906101000a900473ffffffffffffffffffffffffffffffffffffffff1681565b6034805461149890613401565b80601f01602080910402602001604051908101604052809291908181526020018280546114c490613401565b80156115115780601f106114e657610100808354040283529160200191611511565b820191906000526020600020905b8154815290600101906020018083116114f457829003601f168201915b505050505081565b6000603360009054906101000a900473ffffffffffffffffffffffffffffffffffffffff1673ffffffffffffffffffffffffffffffffffffffff1661155c611f92565b73ffffffffffffffffffffffffffffffffffffffff16146115b2576040517f08c379a00000000000000000000000000000000000000000000000000000000081526004016115a99061347f565b60405180910390fd5b600060018111156115c6576115c5612db9565b5b3073ffffffffffffffffffffffffffffffffffffffff1663200d2ed26040518163ffffffff1660e01b8152600401602060405180830381865afa158015611611573d6000803e3d6000fd5b505050506040513d601f19601f820116820180604052508101906116359190613722565b600181111561164757611646612db9565b5b14611687576040517f08c379a000000000000000000000000000000000000000000000000000000000815260040161167e9061379b565b60405180910390fd5b6001603960146101000a81548160ff021916908360018111156116ad576116ac612db9565b5b021790555081603960006101000a81548173ffffffffffffffffffffffffffffffffffffffff021916908373ffffffffffffffffffffffffffffffffffffffff1602179055504260368190555060019050919050565b6000603360009054906101000a900473ffffffffffffffffffffffffffffffffffffffff1673ffffffffffffffffffffffffffffffffffffffff16611746611f92565b73ffffffffffffffffffffffffffffffffffffffff161461179c576040517f08c379a00000000000000000000000000000000000000000000000000000000081526004016117939061347f565b60405180910390fd5b600260015414156117e2576040517f08c379a00000000000000000000000000000000000000000000000000000000081526004016117d9906134eb565b60405180910390fd5b600260018190555060008073ffffffffffffffffffffffffffffffffffffffff168373ffffffffffffffffffffffffffffffffffffffff1614156118325747905061182d8482611fb0565b611849565b61183b836113d0565b9050611848838583612057565b5b809150506001808190555092915050565b60365481565b600080603360009054906101000a900473ffffffffffffffffffffffffffffffffffffffff1673ffffffffffffffffffffffffffffffffffffffff166118a4611f92565b73ffffffffffffffffffffffffffffffffffffffff16146118fa576040517f08c379a00000000000000000000000000000000000000000000000000000000081526004016118f19061347f565b60405180910390fd5b60026001541415611940576040517f08c379a0000000000000000000000000000000000000000000000000000000008152600401611937906134eb565b60405180910390fd5b6002600181905550600084141561198c576040517f08c379a000000000000000000000000000000000000000000000000000000000815260040161198390613807565b60405180910390fd5b600083116119cf576040517f08c379a00000000000000000000000000000000000000000000000000000000081526004016119c690613873565b60405180910390fd5b60006119d961208d565b905060008073ffffffffffffffffffffffffffffffffffffffff168773ffffffffffffffffffffffffffffffffffffffff161415611a1957349050611a27565b611a248789886120c3565b90505b87603a600084815260200190815260200160002060006101000a81548173ffffffffffffffffffffffffffffffffffffffff021916908373ffffffffffffffffffffffffffffffffffffffff16021790555086603b600084815260200190815260200160002060006101000a81548173ffffffffffffffffffffffffffffffffffffffff021916908373ffffffffffffffffffffffffffffffffffffffff16021790555080603c60008481526020019081526020016000208190555042603d60008481526020019081526020016000208190555084604160008481526020019081526020016000208190555060006042600084815260200190815260200160002060006101000a81548160ff0219169083151502179055506043829080600181540180825580915050600190039060005260206000200160009091909190915055611b7c87604561217290919063ffffffff16565b5081819350935050506001808190555094509492505050565b6000603360009054906101000a900473ffffffffffffffffffffffffffffffffffffffff1673ffffffffffffffffffffffffffffffffffffffff16611bd8611f92565b73ffffffffffffffffffffffffffffffffffffffff1614611c2e576040517f08c379a0000000000000000000000000000000000000000000000000000000008152600401611c259061347f565b60405180910390fd5b60026001541415611c74576040517f08c379a0000000000000000000000000000000000000000000000000000000008152600401611c6b906134eb565b60405180910390fd5b6002600181905550600560448054905010611cc4576040517f08c379a0000000000000000000000000000000000000000000000000000000008152600401611cbb906138df565b60405180910390fd5b60008211611d07576040517f08c379a0000000000000000000000000000000000000000000000000000000008152600401611cfe90613873565b60405180910390fd5b611d128486856121a2565b6000611d1c61208d565b905085603a600083815260200190815260200160002060006101000a81548173ffffffffffffffffffffffffffffffffffffffff021916908373ffffffffffffffffffffffffffffffffffffffff16021790555084603b600083815260200190815260200160002060006101000a81548173ffffffffffffffffffffffffffffffffffffffff021916908373ffffffffffffffffffffffffffffffffffffffff16021790555042603d60008381526020019081526020016000208190555083604060008381526020019081526020016000208190555082604160008381526020019081526020016000208190555060016042600083815260200190815260200160002060006101000a81548160ff021916908315150217905550604381908060018154018082558091505060019003906000526020600020016000909190919091505560448190806001815401808255809150506001900390600052602060002001600090919091909150558091505060018081905550949350505050565b6060611ea7604561221c565b905090565b603e6020528060005260406000206000915054906101000a900460ff1681565b60406020528060005260406000206000915090505481565b6000611eef3061223d565b15905090565b600060019054906101000a900460ff16611f44576040517f08c379a0000000000000000000000000000000000000000000000000000000008152600401611f3b90613971565b60405180910390fd5b611f4c612260565b565b80603360006101000a81548173ffffffffffffffffffffffffffffffffffffffff021916908373ffffffffffffffffffffffffffffffffffffffff16021790555050565b600033905090565b60008183611fa891906139c0565b905092915050565b611fd9818373ffffffffffffffffffffffffffffffffffffffff166122b890919063ffffffff16565b5050565b60008390508073ffffffffffffffffffffffffffffffffffffffff166342842e0e3085856040518463ffffffff1660e01b815260040161201f93929190613a16565b600060405180830381600087803b15801561203957600080fd5b505af115801561204d573d6000803e3d6000fd5b5050505050505050565b600083905061208783838373ffffffffffffffffffffffffffffffffffffffff166123ac9092919063ffffffff16565b50505050565b600060346043805490506040516020016120a8929190613ae2565b60405160208183030381529060405280519060200120905090565b6000806120cf856113d0565b905060008590506121038530868473ffffffffffffffffffffffffffffffffffffffff16612432909392919063ffffffff16565b600061210e876113d0565b905082811015612153576040517f08c379a000000000000000000000000000000000000000000000000000000000815260040161214a90613b5e565b60405180910390fd5b61216683826124bb90919063ffffffff16565b93505050509392505050565b600061219a836000018373ffffffffffffffffffffffffffffffffffffffff1660001b6124d1565b905092915050565b60008390508073ffffffffffffffffffffffffffffffffffffffff166342842e0e8430856040518463ffffffff1660e01b81526004016121e493929190613a16565b600060405180830381600087803b1580156121fe57600080fd5b505af1158015612212573d6000803e3d6000fd5b5050505050505050565b6060600061222c83600001612541565b905060608190508092505050919050565b6000808273ffffffffffffffffffffffffffffffffffffffff163b119050919050565b600060019054906101000a900460ff166122af576040517f08c379a00000000000000000000000000000000000000000000000000000000081526004016122a690613971565b60405180910390fd5b60018081905550565b804710156122fb576040517f08c379a00000000000000000000000000000000000000000000000000000000081526004016122f290613bca565b60405180910390fd5b60008273ffffffffffffffffffffffffffffffffffffffff168260405161232190613c1b565b60006040518083038185875af1925050503d806000811461235e576040519150601f19603f3d011682016040523d82523d6000602084013e612363565b606091505b50509050806123a7576040517f08c379a000000000000000000000000000000000000000000000000000000000815260040161239e90613ca2565b60405180910390fd5b505050565b61242d8363a9059cbb60e01b84846040516024016123cb929190613cc2565b604051602081830303815290604052907bffffffffffffffffffffffffffffffffffffffffffffffffffffffff19166020820180517bffffffffffffffffffffffffffffffffffffffffffffffffffffffff838183161783525050505061259d565b505050565b6124b5846323b872dd60e01b85858560405160240161245393929190613a16565b604051602081830303815290604052907bffffffffffffffffffffffffffffffffffffffffffffffffffffffff19166020820180517bffffffffffffffffffffffffffffffffffffffffffffffffffffffff838183161783525050505061259d565b50505050565b600081836124c99190613ceb565b905092915050565b60006124dd8383612664565b61253657826000018290806001815401808255809150506001900390600052602060002001600090919091909150558260000180549050836001016000848152602001908152602001600020819055506001905061253b565b600090505b92915050565b60608160000180548060200260200160405190810160405280929190818152602001828054801561259157602002820191906000526020600020905b81548152602001906001019080831161257d575b50505050509050919050565b60006125ff826040518060400160405280602081526020017f5361666545524332303a206c6f772d6c6576656c2063616c6c206661696c65648152508573ffffffffffffffffffffffffffffffffffffffff166126879092919063ffffffff16565b905060008151111561265f578080602001905181019061261f9190613d4b565b61265e576040517f08c379a000000000000000000000000000000000000000000000000000000000815260040161265590613dea565b60405180910390fd5b5b505050565b600080836001016000848152602001908152602001600020541415905092915050565b6060612696848460008561269f565b90509392505050565b6060824710156126e4576040517f08c379a00000000000000000000000000000000000000000000000000000000081526004016126db90613e7c565b60405180910390fd5b6126ed856127b3565b61272c576040517f08c379a000000000000000000000000000000000000000000000000000000000815260040161272390613ee8565b60405180910390fd5b6000808673ffffffffffffffffffffffffffffffffffffffff1685876040516127559190613f44565b60006040518083038185875af1925050503d8060008114612792576040519150601f19603f3d011682016040523d82523d6000602084013e612797565b606091505b50915091506127a78282866127d6565b92505050949350505050565b6000808273ffffffffffffffffffffffffffffffffffffffff163b119050919050565b606083156127e657829050612836565b6000835111156127f95782518084602001fd5b816040517f08c379a000000000000000000000000000000000000000000000000000000000815260040161282d9190612f09565b60405180910390fd5b9392505050565b82805461284990613401565b90600052602060002090601f01602090048101928261286b57600085556128b2565b82601f1061288457805160ff19168380011785556128b2565b828001600101855582156128b2579182015b828111156128b1578251825591602001919060010190612896565b5b5090506128bf91906128c3565b5090565b5b808211156128dc5760008160009055506001016128c4565b5090565b6000604051905090565b600080fd5b600080fd5b600073ffffffffffffffffffffffffffffffffffffffff82169050919050565b600061291f826128f4565b9050919050565b61292f81612914565b811461293a57600080fd5b50565b60008135905061294c81612926565b92915050565b6000819050919050565b61296581612952565b811461297057600080fd5b50565b6000813590506129828161295c565b92915050565b600080fd5b600080fd5b600080fd5b60008083601f8401126129ad576129ac612988565b5b8235905067ffffffffffffffff8111156129ca576129c961298d565b5b6020830191508360018202830111156129e6576129e5612992565b5b9250929050565b600080600080600060808688031215612a0957612a086128ea565b5b6000612a178882890161293d565b9550506020612a288882890161293d565b9450506040612a3988828901612973565b935050606086013567ffffffffffffffff811115612a5a57612a596128ef565b5b612a6688828901612997565b92509250509295509295909350565b60007fffffffff0000000000000000000000000000000000000000000000000000000082169050919050565b612aaa81612a75565b82525050565b6000602082019050612ac56000830184612aa1565b92915050565b6000819050919050565b612ade81612acb565b8114612ae957600080fd5b50565b600081359050612afb81612ad5565b92915050565b600060208284031215612b1757612b166128ea565b5b6000612b2584828501612aec565b91505092915050565b612b3781612952565b82525050565b6000602082019050612b526000830184612b2e565b92915050565b600060208284031215612b6e57612b6d6128ea565b5b6000612b7c84828501612973565b91505092915050565b612b8e81612acb565b82525050565b6000602082019050612ba96000830184612b85565b92915050565b612bb881612914565b82525050565b6000602082019050612bd36000830184612baf565b92915050565b600080fd5b6000601f19601f8301169050919050565b7f4e487b7100000000000000000000000000000000000000000000000000000000600052604160045260246000fd5b612c2782612bde565b810181811067ffffffffffffffff82111715612c4657612c45612bef565b5b80604052505050565b6000612c596128e0565b9050612c658282612c1e565b919050565b600067ffffffffffffffff821115612c8557612c84612bef565b5b612c8e82612bde565b9050602081019050919050565b82818337600083830152505050565b6000612cbd612cb884612c6a565b612c4f565b905082815260208101848484011115612cd957612cd8612bd9565b5b612ce4848285612c9b565b509392505050565b600082601f830112612d0157612d00612988565b5b8135612d11848260208601612caa565b91505092915050565b60008060008060808587031215612d3457612d336128ea565b5b600085013567ffffffffffffffff811115612d5257612d516128ef565b5b612d5e87828801612cec565b9450506020612d6f8782880161293d565b935050604085013567ffffffffffffffff811115612d9057612d8f6128ef565b5b612d9c87828801612cec565b9250506060612dad8782880161293d565b91505092959194509250565b7f4e487b7100000000000000000000000000000000000000000000000000000000600052602160045260246000fd5b60028110612df957612df8612db9565b5b50565b6000819050612e0a82612de8565b919050565b6000612e1a82612dfc565b9050919050565b612e2a81612e0f565b82525050565b6000602082019050612e456000830184612e21565b92915050565b60008115159050919050565b612e6081612e4b565b82525050565b6000602082019050612e7b6000830184612e57565b92915050565b600081519050919050565b600082825260208201905092915050565b60005b83811015612ebb578082015181840152602081019050612ea0565b83811115612eca576000848401525b50505050565b6000612edb82612e81565b612ee58185612e8c565b9350612ef5818560208601612e9d565b612efe81612bde565b840191505092915050565b60006020820190508181036000830152612f238184612ed0565b905092915050565b60008060408385031215612f4257612f416128ea565b5b6000612f5085828601612aec565b9250506020612f618582860161293d565b9150509250929050565b600081519050919050565b600082825260208201905092915050565b6000819050602082019050919050565b612fa081612acb565b82525050565b6000612fb28383612f97565b60208301905092915050565b6000602082019050919050565b6000612fd682612f6b565b612fe08185612f76565b9350612feb83612f87565b8060005b8381101561301c5781516130038882612fa6565b975061300e83612fbe565b925050600181019050612fef565b5085935050505092915050565b600060208201905081810360008301526130438184612fcb565b905092915050565b60008060408385031215613062576130616128ea565b5b60006130708582860161293d565b925050602061308185828601612aec565b9150509250929050565b6000602082840312156130a1576130a06128ea565b5b60006130af8482850161293d565b91505092915050565b600080604083850312156130cf576130ce6128ea565b5b60006130dd8582860161293d565b92505060206130ee8582860161293d565b9150509250929050565b60008060008060808587031215613112576131116128ea565b5b60006131208782880161293d565b94505060206131318782880161293d565b935050604061314287828801612973565b925050606061315387828801612973565b91505092959194509250565b60006040820190506131746000830185612b85565b6131816020830184612b2e565b9392505050565b600081519050919050565b600082825260208201905092915050565b6000819050602082019050919050565b6131bd81612914565b82525050565b60006131cf83836131b4565b60208301905092915050565b6000602082019050919050565b60006131f382613188565b6131fd8185613193565b9350613208836131a4565b8060005b8381101561323957815161322088826131c3565b975061322b836131db565b92505060018101905061320c565b5085935050505092915050565b6000602082019050818103600083015261326081846131e8565b905092915050565b7f496e697469616c697a61626c653a20636f6e747261637420697320616c72656160008201527f647920696e697469616c697a6564000000000000000000000000000000000000602082015250565b60006132c4602e83612e8c565b91506132cf82613268565b604082019050919050565b600060208201905081810360008301526132f3816132b7565b9050919050565b7f4e4f5f454d5054595f424f554e54595f49440000000000000000000000000000600082015250565b6000613330601283612e8c565b915061333b826132fa565b602082019050919050565b6000602082019050818103600083015261335f81613323565b9050919050565b7f4e4f5f454d5054595f4f5247414e495a4154494f4e0000000000000000000000600082015250565b600061339c601583612e8c565b91506133a782613366565b602082019050919050565b600060208201905081810360008301526133cb8161338f565b9050919050565b7f4e487b7100000000000000000000000000000000000000000000000000000000600052602260045260246000fd5b6000600282049050600182168061341957607f821691505b6020821081141561342d5761342c6133d2565b5b50919050565b7f4d6574686f64206973206f6e6c792063616c6c61626c65206279204f70656e51600082015250565b6000613469602083612e8c565b915061347482613433565b602082019050919050565b600060208201905081810360008301526134988161345c565b9050919050565b7f5265656e7472616e637947756172643a207265656e7472616e742063616c6c00600082015250565b60006134d5601f83612e8c565b91506134e08261349f565b602082019050919050565b60006020820190508181036000830152613504816134c8565b9050919050565b7f4445504f5349545f414c52454144595f524546554e4445440000000000000000600082015250565b6000613541601883612e8c565b915061354c8261350b565b602082019050919050565b6000602082019050818103600083015261357081613534565b9050919050565b7f4f4e4c595f46554e4445525f43414e5f524551554553545f524546554e440000600082015250565b60006135ad601e83612e8c565b91506135b882613577565b602082019050919050565b600060208201905081810360008301526135dc816135a0565b9050919050565b7f5052454d41545552455f524546554e445f524551554553540000000000000000600082015250565b6000613619601883612e8c565b9150613624826135e3565b602082019050919050565b600060208201905081810360008301526136488161360c565b9050919050565b7f434c41494d494e475f434c4f5345445f424f554e545900000000000000000000600082015250565b6000613685601683612e8c565b91506136908261364f565b602082019050919050565b600060208201905081810360008301526136b481613678565b9050919050565b6000815190506136ca8161295c565b92915050565b6000602082840312156136e6576136e56128ea565b5b60006136f4848285016136bb565b91505092915050565b6002811061370a57600080fd5b50565b60008151905061371c816136fd565b92915050565b600060208284031215613738576137376128ea565b5b60006137468482850161370d565b91505092915050565b7f434c4f53494e475f434c4f5345445f424f554e54590000000000000000000000600082015250565b6000613785601583612e8c565b91506137908261374f565b602082019050919050565b600060208201905081810360008301526137b481613778565b9050919050565b7f5a45524f5f564f4c554d455f53454e5400000000000000000000000000000000600082015250565b60006137f1601083612e8c565b91506137fc826137bb565b602082019050919050565b60006020820190508181036000830152613820816137e4565b9050919050565b7f45585049524154494f4e5f4e4f545f475245415445525f5448414e5f5a45524f600082015250565b600061385d602083612e8c565b915061386882613827565b602082019050919050565b6000602082019050818103600083015261388c81613850565b9050919050565b7f4e46545f4445504f5349545f4c494d49545f5245414348454400000000000000600082015250565b60006138c9601983612e8c565b91506138d482613893565b602082019050919050565b600060208201905081810360008301526138f8816138bc565b9050919050565b7f496e697469616c697a61626c653a20636f6e7472616374206973206e6f74206960008201527f6e697469616c697a696e67000000000000000000000000000000000000000000602082015250565b600061395b602b83612e8c565b9150613966826138ff565b604082019050919050565b6000602082019050818103600083015261398a8161394e565b9050919050565b7f4e487b7100000000000000000000000000000000000000000000000000000000600052601160045260246000fd5b60006139cb82612952565b91506139d683612952565b9250827fffffffffffffffffffffffffffffffffffffffffffffffffffffffffffffffff03821115613a0b57613a0a613991565b5b828201905092915050565b6000606082019050613a2b6000830186612baf565b613a386020830185612baf565b613a456040830184612b2e565b949350505050565b60008190508160005260206000209050919050565b60008154613a6f81613401565b613a798186612e8c565b94506001821660008114613a945760018114613aa657613ad9565b60ff1983168652602086019350613ad9565b613aaf85613a4d565b60005b83811015613ad157815481890152600182019150602081019050613ab2565b808801955050505b50505092915050565b60006040820190508181036000830152613afc8185613a62565b9050613b0b6020830184612b2e565b9392505050565b7f544f4b454e5f5452414e534645525f494e5f4f564552464c4f57000000000000600082015250565b6000613b48601a83612e8c565b9150613b5382613b12565b602082019050919050565b60006020820190508181036000830152613b7781613b3b565b9050919050565b7f416464726573733a20696e73756666696369656e742062616c616e6365000000600082015250565b6000613bb4601d83612e8c565b9150613bbf82613b7e565b602082019050919050565b60006020820190508181036000830152613be381613ba7565b9050919050565b600081905092915050565b50565b6000613c05600083613bea565b9150613c1082613bf5565b600082019050919050565b6000613c2682613bf8565b9150819050919050565b7f416464726573733a20756e61626c6520746f2073656e642076616c75652c207260008201527f6563697069656e74206d61792068617665207265766572746564000000000000602082015250565b6000613c8c603a83612e8c565b9150613c9782613c30565b604082019050919050565b60006020820190508181036000830152613cbb81613c7f565b9050919050565b6000604082019050613cd76000830185612baf565b613ce46020830184612b2e565b9392505050565b6000613cf682612952565b9150613d0183612952565b925082821015613d1457613d13613991565b5b828203905092915050565b613d2881612e4b565b8114613d3357600080fd5b50565b600081519050613d4581613d1f565b92915050565b600060208284031215613d6157613d606128ea565b5b6000613d6f84828501613d36565b91505092915050565b7f5361666545524332303a204552433230206f7065726174696f6e20646964206e60008201527f6f74207375636365656400000000000000000000000000000000000000000000602082015250565b6000613dd4602a83612e8c565b9150613ddf82613d78565b604082019050919050565b60006020820190508181036000830152613e0381613dc7565b9050919050565b7f416464726573733a20696e73756666696369656e742062616c616e636520666f60008201527f722063616c6c0000000000000000000000000000000000000000000000000000602082015250565b6000613e66602683612e8c565b9150613e7182613e0a565b604082019050919050565b60006020820190508181036000830152613e9581613e59565b9050919050565b7f416464726573733a2063616c6c20746f206e6f6e2d636f6e7472616374000000600082015250565b6000613ed2601d83612e8c565b9150613edd82613e9c565b602082019050919050565b60006020820190508181036000830152613f0181613ec5565b9050919050565b600081519050919050565b6000613f1e82613f08565b613f288185613bea565b9350613f38818560208601612e9d565b80840191505092915050565b6000613f508284613f13565b91508190509291505056fea2646970667358221220763ab120a83dc5c24568d88f9f6321391919be282e9226b2b17bc99bdaa6471164736f6c634300080c0033",
  "linkReferences": {},
  "deployedLinkReferences": {}
}