{
  "_format": "hh-sol-artifact-1",
  "contractName": "BountyV0",
  "sourceName": "contracts/Bounty/Implementations/BountyV0.sol",
  "abi": [
    {
      "inputs": [],
      "stateMutability": "nonpayable",
      "type": "constructor"
    },
    {
      "stateMutability": "nonpayable",
      "type": "fallback"
    },
    {
      "inputs": [],
      "name": "bountyClosedTime",
      "outputs": [
        {
          "internalType": "uint256",
          "name": "",
          "type": "uint256"
        }
      ],
      "stateMutability": "view",
      "type": "function"
    },
    {
      "inputs": [],
      "name": "bountyCreatedTime",
      "outputs": [
        {
          "internalType": "uint256",
          "name": "",
          "type": "uint256"
        }
      ],
      "stateMutability": "view",
      "type": "function"
    },
    {
      "inputs": [],
      "name": "bountyId",
      "outputs": [
        {
          "internalType": "string",
          "name": "",
          "type": "string"
        }
      ],
      "stateMutability": "view",
      "type": "function"
    },
    {
      "inputs": [
        {
          "internalType": "address",
          "name": "_payoutAddress",
          "type": "address"
        },
        {
          "internalType": "address",
          "name": "_tokenAddress",
          "type": "address"
        }
      ],
      "name": "claimBalance",
      "outputs": [
        {
          "internalType": "uint256",
          "name": "",
          "type": "uint256"
        }
      ],
      "stateMutability": "nonpayable",
      "type": "function"
    },
    {
      "inputs": [
        {
          "internalType": "address",
          "name": "_payoutAddress",
          "type": "address"
        },
        {
          "internalType": "bytes32",
          "name": "_depositId",
          "type": "bytes32"
        }
      ],
      "name": "claimNft",
      "outputs": [],
      "stateMutability": "nonpayable",
      "type": "function"
    },
    {
      "inputs": [
        {
          "internalType": "address",
          "name": "_payoutAddress",
          "type": "address"
        },
        {
          "internalType": "string",
          "name": "_closerData",
          "type": "string"
        }
      ],
      "name": "close",
      "outputs": [],
      "stateMutability": "nonpayable",
      "type": "function"
    },
    {
      "inputs": [],
      "name": "closer",
      "outputs": [
        {
          "internalType": "address",
          "name": "",
          "type": "address"
        }
      ],
      "stateMutability": "view",
      "type": "function"
    },
    {
      "inputs": [],
      "name": "closerData",
      "outputs": [
        {
          "internalType": "string",
          "name": "",
          "type": "string"
        }
      ],
      "stateMutability": "view",
      "type": "function"
    },
    {
      "inputs": [
        {
          "internalType": "bytes32",
          "name": "",
          "type": "bytes32"
        }
      ],
      "name": "depositTime",
      "outputs": [
        {
          "internalType": "uint256",
          "name": "",
          "type": "uint256"
        }
      ],
      "stateMutability": "view",
      "type": "function"
    },
    {
      "inputs": [
        {
          "internalType": "uint256",
          "name": "",
          "type": "uint256"
        }
      ],
      "name": "deposits",
      "outputs": [
        {
          "internalType": "bytes32",
          "name": "",
          "type": "bytes32"
        }
      ],
      "stateMutability": "view",
      "type": "function"
    },
    {
      "inputs": [
        {
          "internalType": "bytes32",
          "name": "",
          "type": "bytes32"
        }
      ],
      "name": "expiration",
      "outputs": [
        {
          "internalType": "uint256",
          "name": "",
          "type": "uint256"
        }
      ],
      "stateMutability": "view",
      "type": "function"
    },
    {
      "inputs": [
        {
          "internalType": "bytes32",
          "name": "_depositId",
          "type": "bytes32"
        },
        {
          "internalType": "uint256",
          "name": "_seconds",
          "type": "uint256"
        },
        {
          "internalType": "address",
          "name": "_funder",
          "type": "address"
        }
      ],
      "name": "extendDeposit",
      "outputs": [
        {
          "internalType": "uint256",
          "name": "",
          "type": "uint256"
        }
      ],
      "stateMutability": "nonpayable",
      "type": "function"
    },
    {
      "inputs": [
        {
          "internalType": "bytes32",
          "name": "",
          "type": "bytes32"
        }
      ],
      "name": "funder",
      "outputs": [
        {
          "internalType": "address",
          "name": "",
          "type": "address"
        }
      ],
      "stateMutability": "view",
      "type": "function"
    },
    {
      "inputs": [],
      "name": "getDeposits",
      "outputs": [
        {
          "internalType": "bytes32[]",
          "name": "",
          "type": "bytes32[]"
        }
      ],
      "stateMutability": "view",
      "type": "function"
    },
    {
      "inputs": [
        {
          "internalType": "address",
          "name": "_tokenAddress",
          "type": "address"
        }
      ],
      "name": "getERC20Balance",
      "outputs": [
        {
          "internalType": "uint256",
          "name": "balance",
          "type": "uint256"
        }
      ],
      "stateMutability": "view",
      "type": "function"
    },
    {
      "inputs": [],
      "name": "getNftDeposits",
      "outputs": [
        {
          "internalType": "bytes32[]",
          "name": "",
          "type": "bytes32[]"
        }
      ],
      "stateMutability": "view",
      "type": "function"
    },
    {
      "inputs": [],
      "name": "getTokenAddresses",
      "outputs": [
        {
          "internalType": "address[]",
          "name": "",
          "type": "address[]"
        }
      ],
      "stateMutability": "view",
      "type": "function"
    },
    {
      "inputs": [],
      "name": "getTokenAddressesCount",
      "outputs": [
        {
          "internalType": "uint256",
          "name": "",
          "type": "uint256"
        }
      ],
      "stateMutability": "view",
      "type": "function"
    },
    {
      "inputs": [
        {
          "internalType": "string",
          "name": "_bountyId",
          "type": "string"
        },
        {
          "internalType": "address",
          "name": "_issuer",
          "type": "address"
        },
        {
          "internalType": "string",
          "name": "_organization",
          "type": "string"
        },
        {
          "internalType": "address",
          "name": "_openQ",
          "type": "address"
        }
      ],
      "name": "initialize",
      "outputs": [],
      "stateMutability": "nonpayable",
      "type": "function"
    },
    {
      "inputs": [
        {
          "internalType": "bytes32",
          "name": "",
          "type": "bytes32"
        }
      ],
      "name": "isNFT",
      "outputs": [
        {
          "internalType": "bool",
          "name": "",
          "type": "bool"
        }
      ],
      "stateMutability": "view",
      "type": "function"
    },
    {
      "inputs": [],
      "name": "issuer",
      "outputs": [
        {
          "internalType": "address",
          "name": "",
          "type": "address"
        }
      ],
      "stateMutability": "view",
      "type": "function"
    },
    {
      "inputs": [],
      "name": "nftDepositLimit",
      "outputs": [
        {
          "internalType": "uint256",
          "name": "",
          "type": "uint256"
        }
      ],
      "stateMutability": "view",
      "type": "function"
    },
    {
      "inputs": [
        {
          "internalType": "uint256",
          "name": "",
          "type": "uint256"
        }
      ],
      "name": "nftDeposits",
      "outputs": [
        {
          "internalType": "bytes32",
          "name": "",
          "type": "bytes32"
        }
      ],
      "stateMutability": "view",
      "type": "function"
    },
    {
      "inputs": [
        {
          "internalType": "address",
          "name": "",
          "type": "address"
        },
        {
          "internalType": "address",
          "name": "",
          "type": "address"
        },
        {
          "internalType": "uint256",
          "name": "",
          "type": "uint256"
        },
        {
          "internalType": "bytes",
          "name": "",
          "type": "bytes"
        }
      ],
      "name": "onERC721Received",
      "outputs": [
        {
          "internalType": "bytes4",
          "name": "",
          "type": "bytes4"
        }
      ],
      "stateMutability": "pure",
      "type": "function"
    },
    {
      "inputs": [],
      "name": "openQ",
      "outputs": [
        {
          "internalType": "address",
          "name": "",
          "type": "address"
        }
      ],
      "stateMutability": "view",
      "type": "function"
    },
    {
      "inputs": [],
      "name": "organization",
      "outputs": [
        {
          "internalType": "string",
          "name": "",
          "type": "string"
        }
      ],
      "stateMutability": "view",
      "type": "function"
    },
    {
      "inputs": [
        {
          "internalType": "bytes32",
          "name": "",
          "type": "bytes32"
        }
      ],
      "name": "payoutAddress",
      "outputs": [
        {
          "internalType": "address",
          "name": "",
          "type": "address"
        }
      ],
      "stateMutability": "view",
      "type": "function"
    },
    {
      "inputs": [
        {
          "internalType": "address",
          "name": "_funder",
          "type": "address"
        },
        {
          "internalType": "address",
          "name": "_tokenAddress",
          "type": "address"
        },
        {
          "internalType": "uint256",
          "name": "_volume",
          "type": "uint256"
        },
        {
          "internalType": "uint256",
          "name": "_expiration",
          "type": "uint256"
        }
      ],
      "name": "receiveFunds",
      "outputs": [
        {
          "internalType": "bytes32",
          "name": "",
          "type": "bytes32"
        },
        {
          "internalType": "uint256",
          "name": "",
          "type": "uint256"
        }
      ],
      "stateMutability": "payable",
      "type": "function"
    },
    {
      "inputs": [
        {
          "internalType": "address",
          "name": "_sender",
          "type": "address"
        },
        {
          "internalType": "address",
          "name": "_tokenAddress",
          "type": "address"
        },
        {
          "internalType": "uint256",
          "name": "_tokenId",
          "type": "uint256"
        },
        {
          "internalType": "uint256",
          "name": "_expiration",
          "type": "uint256"
        }
      ],
      "name": "receiveNft",
      "outputs": [
        {
          "internalType": "bytes32",
          "name": "",
          "type": "bytes32"
        }
      ],
      "stateMutability": "nonpayable",
      "type": "function"
    },
    {
      "inputs": [
        {
          "internalType": "bytes32",
          "name": "_depositId",
          "type": "bytes32"
        },
        {
          "internalType": "address",
          "name": "_funder",
          "type": "address"
        }
      ],
      "name": "refundDeposit",
      "outputs": [],
      "stateMutability": "nonpayable",
      "type": "function"
    },
    {
      "inputs": [
        {
          "internalType": "bytes32",
          "name": "",
          "type": "bytes32"
        }
      ],
      "name": "refunded",
      "outputs": [
        {
          "internalType": "bool",
          "name": "",
          "type": "bool"
        }
      ],
      "stateMutability": "view",
      "type": "function"
    },
    {
      "inputs": [],
      "name": "status",
      "outputs": [
        {
          "internalType": "uint256",
          "name": "",
          "type": "uint256"
        }
      ],
      "stateMutability": "view",
      "type": "function"
    },
    {
      "inputs": [
        {
          "internalType": "bytes32",
          "name": "",
          "type": "bytes32"
        }
      ],
      "name": "tokenAddress",
      "outputs": [
        {
          "internalType": "address",
          "name": "",
          "type": "address"
        }
      ],
      "stateMutability": "view",
      "type": "function"
    },
    {
      "inputs": [
        {
          "internalType": "bytes32",
          "name": "",
          "type": "bytes32"
        }
      ],
      "name": "tokenId",
      "outputs": [
        {
          "internalType": "uint256",
          "name": "",
          "type": "uint256"
        }
      ],
      "stateMutability": "view",
      "type": "function"
    },
    {
      "inputs": [
        {
          "internalType": "bytes32",
          "name": "",
          "type": "bytes32"
        }
      ],
      "name": "volume",
      "outputs": [
        {
          "internalType": "uint256",
          "name": "",
          "type": "uint256"
        }
      ],
      "stateMutability": "view",
      "type": "function"
    },
    {
      "stateMutability": "payable",
      "type": "receive"
    }
  ],
  "bytecode": "0x608060405234801561001057600080fd5b50612474806100206000396000f3fe6080604052600436106102085760003560e01c80637dc81fa211610118578063c5b6e705116100a0578063e129b3331161006f578063e129b3331461068b578063e83963eb146106ab578063ee8c24b8146106cb578063f05e0f7e146106ed578063f23217251461071d5761020f565b8063c5b6e70514610618578063cb2da3db1461062d578063cb4436b71461064d578063d6fe0f44146106635761020f565b8063b02c43d0116100e7578063b02c43d01461056d578063b588d2251461058d578063b99bb990146105ad578063c17bd75e146105e3578063c3e03578146105f85761020f565b80637dc81fa2146104d6578063968b098f146104f457806397bb3ce914610521578063995280b0146105575761020f565b8063235b2b941161019b578063641411f81161016a578063641411f81461043f5780636b149d871461045f5780637044f2821461048157806371ec4ebf146104a157806377ede8a6146104c15761020f565b8063235b2b941461038757806323bd4d7a146103c757806356406fa5146103dc57806359ba8344146104095761020f565b80631bc5fc96116101d75780631bc5fc96146102f75780631d143848146103175780631ecfacee1461034f578063200d2ed2146103715761020f565b80630961413d146102215780630dd818871461024a578063150b7a021461026c5780631595eea4146102ca5761020f565b3661020f57005b34801561021b57600080fd5b50600080fd5b34801561022d57600080fd5b50610237606d5481565b6040519081526020015b60405180910390f35b34801561025657600080fd5b5061025f61074a565b6040516102419190611dd0565b34801561027857600080fd5b506102b1610287366004611e68565b7f150b7a023d4804d13e8c85fb27262cb750cf6ba9f9dd3bb30d90f482ceeb4b1f95945050505050565b6040516001600160e01b03199091168152602001610241565b3480156102d657600080fd5b506102376102e5366004611ed7565b60706020526000908152604090205481565b34801561030357600080fd5b50610237610312366004611ed7565b6107d8565b34801561032357600080fd5b50606954610337906001600160a01b031681565b6040516001600160a01b039091168152602001610241565b34801561035b57600080fd5b5061036f61036a366004611f93565b6107f9565b005b34801561037d57600080fd5b50610237606c5481565b34801561039357600080fd5b506103b76103a2366004611ed7565b60766020526000908152604090205460ff1681565b6040519015158152602001610241565b3480156103d357600080fd5b5061025f6109b9565b3480156103e857600080fd5b506102376103f7366004611ed7565b60756020526000908152604090205481565b34801561041557600080fd5b50610337610424366004611ed7565b606e602052600090815260409020546001600160a01b031681565b34801561044b57600080fd5b5061036f61045a366004612018565b6109c6565b34801561046b57600080fd5b50610474610c4b565b6040516102419190612044565b34801561048d57600080fd5b50606b54610337906001600160a01b031681565b3480156104ad57600080fd5b5061036f6104bc366004612088565b610ca3565b3480156104cd57600080fd5b50610474610d76565b3480156104e257600080fd5b506065546001600160a01b0316610337565b34801561050057600080fd5b5061023761050f366004611ed7565b60716020526000908152604090205481565b34801561052d57600080fd5b5061033761053c366004611ed7565b606f602052600090815260409020546001600160a01b031681565b34801561056357600080fd5b5061023760675481565b34801561057957600080fd5b50610237610588366004611ed7565b610dcc565b34801561059957600080fd5b506102376105a83660046120b2565b610ddc565b3480156105b957600080fd5b506103376105c8366004611ed7565b6073602052600090815260409020546001600160a01b031681565b3480156105ef57600080fd5b5061025f610e50565b34801561060457600080fd5b5061036f6106133660046120cd565b610e5d565b34801561062457600080fd5b50610237610f6d565b34801561063957600080fd5b50610237610648366004612120565b610f7f565b34801561065957600080fd5b5061023760685481565b61067661067136600461214a565b61101e565b60408051928352602083019190915201610241565b34801561069757600080fd5b506102376106a636600461214a565b611201565b3480156106b757600080fd5b506102376106c636600461218c565b6113f8565b3480156106d757600080fd5b506106e0611598565b60405161024191906121c1565b3480156106f957600080fd5b506103b7610708366004611ed7565b60726020526000908152604090205460ff1681565b34801561072957600080fd5b50610237610738366004611ed7565b60746020526000908152604090205481565b607b805461075790612202565b80601f016020809104026020016040519081016040528092919081815260200182805461078390612202565b80156107d05780601f106107a5576101008083540402835291602001916107d0565b820191906000526020600020905b8154815290600101906020018083116107b357829003601f168201915b505050505081565b607881815481106107e857600080fd5b600091825260209091200154905081565b600054610100900460ff166108145760005460ff1615610818565b303b155b6108805760405162461bcd60e51b815260206004820152602e60248201527f496e697469616c697a61626c653a20636f6e747261637420697320616c72656160448201526d191e481a5b9a5d1a585b1a5e995960921b60648201526084015b60405180910390fd5b600054610100900460ff161580156108a2576000805461ffff19166101011790555b84516000036108e85760405162461bcd60e51b81526020600482015260126024820152711393d7d15354151657d093d553951657d25160721b6044820152606401610877565b82516000036109315760405162461bcd60e51b81526020600482015260156024820152742727afa2a6a82a2cafa7a923a0a724ad20aa24a7a760591b6044820152606401610877565b6109396115a9565b606580546001600160a01b0319166001600160a01b0384161790558451610967906066906020880190611c97565b50606980546001600160a01b0319166001600160a01b038616179055825161099690606a906020860190611c97565b50426067556005606d5580156109b2576000805461ff00191690555b5050505050565b606a805461075790612202565b6065546001600160a01b0316336001600160a01b0316146109f95760405162461bcd60e51b81526004016108779061223c565b600260015403610a1b5760405162461bcd60e51b815260040161087790612271565b600260015560008281526072602052604090205460ff1615610a7a5760405162461bcd60e51b815260206004820152601860248201527711115413d4d25517d053149150511657d49151955391115160421b6044820152606401610877565b6000828152606e60205260409020546001600160a01b03828116911614610ae35760405162461bcd60e51b815260206004820152601e60248201527f4f4e4c595f46554e4445525f43414e5f524551554553545f524546554e4400006044820152606401610877565b600082815260756020908152604080832054607190925290912054610b07916115da565b421015610b565760405162461bcd60e51b815260206004820152601860248201527f5052454d41545552455f524546554e445f5245515545535400000000000000006044820152606401610877565b6000828152607260209081526040808320805460ff19166001179055606f9091529020546001600160a01b0316610bba576000828152606e6020908152604080832054607090925290912054610bb5916001600160a01b0316906115ef565b610c43565b60008281526076602052604090205460ff1615610c0a576000828152606f6020908152604080832054606e8352818420546074909352922054610bb5926001600160a01b03908116921690611606565b6000828152606f6020908152604080832054606e8352818420546070909352922054610c43926001600160a01b03908116921690611678565b505060018055565b60606077805480602002602001604051908101604052809291908181526020018280548015610c9957602002820191906000526020600020905b815481526020019060010190808311610c85575b5050505050905090565b6065546001600160a01b0316336001600160a01b031614610cd65760405162461bcd60e51b81526004016108779061223c565b600260015403610cf85760405162461bcd60e51b815260040161087790612271565b6002600155606c5415610d465760405162461bcd60e51b8152602060048201526016602482015275434c41494d494e475f434c4f5345445f424f554e545960501b6044820152606401610877565b6000818152606f6020908152604080832054607490925290912054610c43916001600160a01b0316908490611606565b60606078805480602002602001604051908101604052809291908181526020018280548015610c995760200282019190600052602060002090815481526020019060010190808311610c85575050505050905090565b607781815481106107e857600080fd5b6040516370a0823160e01b815230600482015260009082906001600160a01b038216906370a0823190602401602060405180830381865afa158015610e25573d6000803e3d6000fd5b505050506040513d601f19601f82011682018060405250810190610e4991906122a8565b9392505050565b6066805461075790612202565b6065546001600160a01b0316336001600160a01b031614610e905760405162461bcd60e51b81526004016108779061223c565b306001600160a01b031663200d2ed26040518163ffffffff1660e01b8152600401602060405180830381865afa158015610ece573d6000803e3d6000fd5b505050506040513d601f19601f82011682018060405250810190610ef291906122a8565b15610f375760405162461bcd60e51b8152602060048201526015602482015274434c4f53494e475f434c4f5345445f424f554e545960581b6044820152606401610877565b6001606c55606b80546001600160a01b0319166001600160a01b03851617905542606855610f67607b8383611d1b565b50505050565b6000610f79607961168d565b51905090565b6065546000906001600160a01b0316336001600160a01b031614610fb55760405162461bcd60e51b81526004016108779061223c565b600260015403610fd75760405162461bcd60e51b815260040161087790612271565b600260015560006001600160a01b038316610ffd575047610ff884826115ef565b611013565b61100683610ddc565b9050611013838583611678565b600180559392505050565b60655460009081906001600160a01b0316336001600160a01b0316146110565760405162461bcd60e51b81526004016108779061223c565b6002600154036110785760405162461bcd60e51b815260040161087790612271565b600260015560008490036110c15760405162461bcd60e51b815260206004820152601060248201526f16915493d7d593d315535157d4d1539560821b6044820152606401610877565b600083116111115760405162461bcd60e51b815260206004820181905260248201527f45585049524154494f4e5f4e4f545f475245415445525f5448414e5f5a45524f6044820152606401610877565b600061111b61169a565b905060006001600160a01b038716611134575034611142565b61113f8789886116ce565b90505b6000828152606e6020908152604080832080546001600160a01b03808e166001600160a01b031992831617909255606f84528285208054928d169290911691909117905560708252808320849055607182528083204290556075825280832088905560769091528120805460ff191690556077805460018101825591527f7901cb5addcae2d210a531c604a76a660d77039093bac314de0816a16392aff1018290556111ef607988611764565b50600180559097909650945050505050565b6065546000906001600160a01b0316336001600160a01b0316146112375760405162461bcd60e51b81526004016108779061223c565b6002600154036112595760405162461bcd60e51b815260040161087790612271565b6002600155606d54607854106112b15760405162461bcd60e51b815260206004820152601960248201527f4e46545f4445504f5349545f4c494d49545f52454143484544000000000000006044820152606401610877565b600082116113015760405162461bcd60e51b815260206004820181905260248201527f45585049524154494f4e5f4e4f545f475245415445525f5448414e5f5a45524f6044820152606401610877565b61130c848685611779565b600061131661169a565b6000818152606e6020908152604080832080546001600160a01b039b8c166001600160a01b031991821617909155606f835281842080549a909b16991698909817909855607188528681204290556074885286812095909555607587528585209390935550506076909352908120805460ff19166001908117909155607780548083019091557f7901cb5addcae2d210a531c604a76a660d77039093bac314de0816a16392aff10183905560788054808301825592527f8dc6fb69531d98d70dc0420e638d2dfd04e09e1ec783ede9aac77da9c5a0dac4909101829055805590565b6065546000906001600160a01b0316336001600160a01b03161461142e5760405162461bcd60e51b81526004016108779061223c565b6002600154036114505760405162461bcd60e51b815260040161087790612271565b6002600155606c54156114955760405162461bcd60e51b815260206004820152600d60248201526c434c4f5345445f424f554e545960981b6044820152606401610877565b60008481526072602052604090205460ff16156114ef5760405162461bcd60e51b815260206004820152601860248201527711115413d4d25517d053149150511657d49151955391115160421b6044820152606401610877565b6000848152606e60205260409020546001600160a01b038381169116146115625760405162461bcd60e51b815260206004820152602160248201527f4f4e4c595f46554e4445525f43414e5f524551554553545f455854454e53494f6044820152602760f91b6064820152608401610877565b60008481526075602052604090205461157c9084906122d7565b6000948552607560205260409094208490555050600180555090565b60606115a4607961168d565b905090565b600054610100900460ff166115d05760405162461bcd60e51b8152600401610877906122ef565b6115d86117b7565b565b60006115e682846122d7565b90505b92915050565b6116026001600160a01b038316826117e4565b5050565b604051632142170760e11b81523060048201526001600160a01b038381166024830152604482018390528491908216906342842e0e906064015b600060405180830381600087803b15801561165a57600080fd5b505af115801561166e573d6000803e3d6000fd5b5050505050505050565b82610f676001600160a01b0382168484611902565b60606000610e4983611965565b6077546040516000916116b3916066919060200161233a565b60405160208183030381529060405280519060200120905090565b6000806116da85610ddc565b9050846116f26001600160a01b0382168630876119c1565b60006116fd87610ddc565b90508281101561174f5760405162461bcd60e51b815260206004820152601a60248201527f544f4b454e5f5452414e534645525f494e5f4f564552464c4f570000000000006044820152606401610877565b61175981846119f9565b979650505050505050565b60006115e6836001600160a01b038416611a05565b604051632142170760e11b81526001600160a01b038381166004830152306024830152604482018390528491908216906342842e0e90606401611640565b600054610100900460ff166117de5760405162461bcd60e51b8152600401610877906122ef565b60018055565b804710156118345760405162461bcd60e51b815260206004820152601d60248201527f416464726573733a20696e73756666696369656e742062616c616e63650000006044820152606401610877565b6000826001600160a01b03168260405160006040518083038185875af1925050503d8060008114611881576040519150601f19603f3d011682016040523d82523d6000602084013e611886565b606091505b50509050806118fd5760405162461bcd60e51b815260206004820152603a60248201527f416464726573733a20756e61626c6520746f2073656e642076616c75652c207260448201527f6563697069656e74206d617920686176652072657665727465640000000000006064820152608401610877565b505050565b6040516001600160a01b0383166024820152604481018290526118fd90849063a9059cbb60e01b906064015b60408051601f198184030181529190526020810180516001600160e01b03166001600160e01b031990931692909217909152611a54565b6060816000018054806020026020016040519081016040528092919081815260200182805480156119b557602002820191906000526020600020905b8154815260200190600101908083116119a1575b50505050509050919050565b6040516001600160a01b0380851660248301528316604482015260648101829052610f679085906323b872dd60e01b9060840161192e565b60006115e682846123e9565b6000818152600183016020526040812054611a4c575081546001818101845560008481526020808220909301849055845484825282860190935260409020919091556115e9565b5060006115e9565b6000611aa9826040518060400160405280602081526020017f5361666545524332303a206c6f772d6c6576656c2063616c6c206661696c6564815250856001600160a01b0316611b269092919063ffffffff16565b8051909150156118fd5780806020019051810190611ac79190612400565b6118fd5760405162461bcd60e51b815260206004820152602a60248201527f5361666545524332303a204552433230206f7065726174696f6e20646964206e6044820152691bdd081cdd58d8d9595960b21b6064820152608401610877565b6060611b358484600085611b3d565b949350505050565b606082471015611b9e5760405162461bcd60e51b815260206004820152602660248201527f416464726573733a20696e73756666696369656e742062616c616e636520666f6044820152651c8818d85b1b60d21b6064820152608401610877565b6001600160a01b0385163b611bf55760405162461bcd60e51b815260206004820152601d60248201527f416464726573733a2063616c6c20746f206e6f6e2d636f6e74726163740000006044820152606401610877565b600080866001600160a01b03168587604051611c119190612422565b60006040518083038185875af1925050503d8060008114611c4e576040519150601f19603f3d011682016040523d82523d6000602084013e611c53565b606091505b509150915061175982828660608315611c6d575081610e49565b825115611c7d5782518084602001fd5b8160405162461bcd60e51b81526004016108779190611dd0565b828054611ca390612202565b90600052602060002090601f016020900481019282611cc55760008555611d0b565b82601f10611cde57805160ff1916838001178555611d0b565b82800160010185558215611d0b579182015b82811115611d0b578251825591602001919060010190611cf0565b50611d17929150611d8f565b5090565b828054611d2790612202565b90600052602060002090601f016020900481019282611d495760008555611d0b565b82601f10611d625782800160ff19823516178555611d0b565b82800160010185558215611d0b579182015b82811115611d0b578235825591602001919060010190611d74565b5b80821115611d175760008155600101611d90565b60005b83811015611dbf578181015183820152602001611da7565b83811115610f675750506000910152565b6020815260008251806020840152611def816040850160208701611da4565b601f01601f19169190910160400192915050565b80356001600160a01b0381168114611e1a57600080fd5b919050565b60008083601f840112611e3157600080fd5b50813567ffffffffffffffff811115611e4957600080fd5b602083019150836020828501011115611e6157600080fd5b9250929050565b600080600080600060808688031215611e8057600080fd5b611e8986611e03565b9450611e9760208701611e03565b935060408601359250606086013567ffffffffffffffff811115611eba57600080fd5b611ec688828901611e1f565b969995985093965092949392505050565b600060208284031215611ee957600080fd5b5035919050565b634e487b7160e01b600052604160045260246000fd5b600082601f830112611f1757600080fd5b813567ffffffffffffffff80821115611f3257611f32611ef0565b604051601f8301601f19908116603f01168101908282118183101715611f5a57611f5a611ef0565b81604052838152866020858801011115611f7357600080fd5b836020870160208301376000602085830101528094505050505092915050565b60008060008060808587031215611fa957600080fd5b843567ffffffffffffffff80821115611fc157600080fd5b611fcd88838901611f06565b9550611fdb60208801611e03565b94506040870135915080821115611ff157600080fd5b50611ffe87828801611f06565b92505061200d60608601611e03565b905092959194509250565b6000806040838503121561202b57600080fd5b8235915061203b60208401611e03565b90509250929050565b6020808252825182820181905260009190848201906040850190845b8181101561207c57835183529284019291840191600101612060565b50909695505050505050565b6000806040838503121561209b57600080fd5b6120a483611e03565b946020939093013593505050565b6000602082840312156120c457600080fd5b6115e682611e03565b6000806000604084860312156120e257600080fd5b6120eb84611e03565b9250602084013567ffffffffffffffff81111561210757600080fd5b61211386828701611e1f565b9497909650939450505050565b6000806040838503121561213357600080fd5b61213c83611e03565b915061203b60208401611e03565b6000806000806080858703121561216057600080fd5b61216985611e03565b935061217760208601611e03565b93969395505050506040820135916060013590565b6000806000606084860312156121a157600080fd5b83359250602084013591506121b860408501611e03565b90509250925092565b6020808252825182820181905260009190848201906040850190845b8181101561207c5783516001600160a01b0316835292840192918401916001016121dd565b600181811c9082168061221657607f821691505b60208210810361223657634e487b7160e01b600052602260045260246000fd5b50919050565b6020808252818101527f4d6574686f64206973206f6e6c792063616c6c61626c65206279204f70656e51604082015260600190565b6020808252601f908201527f5265656e7472616e637947756172643a207265656e7472616e742063616c6c00604082015260600190565b6000602082840312156122ba57600080fd5b5051919050565b634e487b7160e01b600052601160045260246000fd5b600082198211156122ea576122ea6122c1565b500190565b6020808252602b908201527f496e697469616c697a61626c653a20636f6e7472616374206973206e6f74206960408201526a6e697469616c697a696e6760a81b606082015260800190565b60408152600080845481600182811c91508083168061235a57607f831692505b6020808410820361237957634e487b7160e01b86526022600452602486fd5b604088018490526060880182801561239857600181146123a9576123d4565b60ff198716825282820197506123d4565b60008c81526020902060005b878110156123ce578154848201529086019084016123b5565b83019850505b50509690960196909652509095945050505050565b6000828210156123fb576123fb6122c1565b500390565b60006020828403121561241257600080fd5b81518015158114610e4957600080fd5b60008251612434818460208701611da4565b919091019291505056fea2646970667358221220e8cc8f5d92ab4b7d4542303917ea9b50cdf28e1045367a5f50906df96bc9ab3464736f6c634300080d0033",
  "linkReferences": {},
  "deployedLinkReferences": {}
}