{
  "_format": "hh-sol-artifact-1",
  "contractName": "BountyV0",
  "sourceName": "contracts/Bounty/Implementations/BountyV0.sol",
  "abi": [
    {
      "inputs": [],
      "stateMutability": "nonpayable",
      "type": "constructor"
    },
    {
      "anonymous": false,
      "inputs": [
        {
          "indexed": false,
          "internalType": "uint8",
          "name": "version",
          "type": "uint8"
        }
      ],
      "name": "Initialized",
      "type": "event"
    },
    {
      "stateMutability": "nonpayable",
      "type": "fallback"
    },
    {
      "inputs": [],
      "name": "bountyClosedTime",
      "outputs": [
        {
          "internalType": "uint256",
          "name": "",
          "type": "uint256"
        }
      ],
      "stateMutability": "view",
      "type": "function"
    },
    {
      "inputs": [],
      "name": "bountyCreatedTime",
      "outputs": [
        {
          "internalType": "uint256",
          "name": "",
          "type": "uint256"
        }
      ],
      "stateMutability": "view",
      "type": "function"
    },
    {
      "inputs": [],
      "name": "bountyId",
      "outputs": [
        {
          "internalType": "string",
          "name": "",
          "type": "string"
        }
      ],
      "stateMutability": "view",
      "type": "function"
    },
    {
      "inputs": [
        {
          "internalType": "address",
          "name": "_payoutAddress",
          "type": "address"
        },
        {
          "internalType": "address",
          "name": "_tokenAddress",
          "type": "address"
        }
      ],
      "name": "claimBalance",
      "outputs": [
        {
          "internalType": "uint256",
          "name": "",
          "type": "uint256"
        }
      ],
      "stateMutability": "nonpayable",
      "type": "function"
    },
    {
      "inputs": [
        {
          "internalType": "address",
          "name": "_payoutAddress",
          "type": "address"
        },
        {
          "internalType": "bytes32",
          "name": "_depositId",
          "type": "bytes32"
        }
      ],
      "name": "claimNft",
      "outputs": [],
      "stateMutability": "nonpayable",
      "type": "function"
    },
    {
      "inputs": [
        {
          "internalType": "address",
          "name": "_payoutAddress",
          "type": "address"
        }
      ],
      "name": "close",
      "outputs": [],
      "stateMutability": "nonpayable",
      "type": "function"
    },
    {
      "inputs": [],
      "name": "closer",
      "outputs": [
        {
          "internalType": "address",
          "name": "",
          "type": "address"
        }
      ],
      "stateMutability": "view",
      "type": "function"
    },
    {
      "inputs": [
        {
          "internalType": "bytes32",
          "name": "",
          "type": "bytes32"
        }
      ],
      "name": "depositTime",
      "outputs": [
        {
          "internalType": "uint256",
          "name": "",
          "type": "uint256"
        }
      ],
      "stateMutability": "view",
      "type": "function"
    },
    {
      "inputs": [
        {
          "internalType": "uint256",
          "name": "",
          "type": "uint256"
        }
      ],
      "name": "deposits",
      "outputs": [
        {
          "internalType": "bytes32",
          "name": "",
          "type": "bytes32"
        }
      ],
      "stateMutability": "view",
      "type": "function"
    },
    {
      "inputs": [
        {
          "internalType": "bytes32",
          "name": "",
          "type": "bytes32"
        }
      ],
      "name": "expiration",
      "outputs": [
        {
          "internalType": "uint256",
          "name": "",
          "type": "uint256"
        }
      ],
      "stateMutability": "view",
      "type": "function"
    },
    {
      "inputs": [
        {
          "internalType": "bytes32",
          "name": "_depositId",
          "type": "bytes32"
        },
        {
          "internalType": "uint256",
          "name": "_seconds",
          "type": "uint256"
        },
        {
          "internalType": "address",
          "name": "_funder",
          "type": "address"
        }
      ],
      "name": "extendDeposit",
      "outputs": [
        {
          "internalType": "uint256",
          "name": "",
          "type": "uint256"
        }
      ],
      "stateMutability": "nonpayable",
      "type": "function"
    },
    {
      "inputs": [
        {
          "internalType": "bytes32",
          "name": "",
          "type": "bytes32"
        }
      ],
      "name": "funder",
      "outputs": [
        {
          "internalType": "address",
          "name": "",
          "type": "address"
        }
      ],
      "stateMutability": "view",
      "type": "function"
    },
    {
      "inputs": [],
      "name": "getDeposits",
      "outputs": [
        {
          "internalType": "bytes32[]",
          "name": "",
          "type": "bytes32[]"
        }
      ],
      "stateMutability": "view",
      "type": "function"
    },
    {
      "inputs": [
        {
          "internalType": "address",
          "name": "_tokenAddress",
          "type": "address"
        }
      ],
      "name": "getERC20Balance",
      "outputs": [
        {
          "internalType": "uint256",
          "name": "balance",
          "type": "uint256"
        }
      ],
      "stateMutability": "view",
      "type": "function"
    },
    {
      "inputs": [],
      "name": "getNftDeposits",
      "outputs": [
        {
          "internalType": "bytes32[]",
          "name": "",
          "type": "bytes32[]"
        }
      ],
      "stateMutability": "view",
      "type": "function"
    },
    {
      "inputs": [],
      "name": "getTokenAddresses",
      "outputs": [
        {
          "internalType": "address[]",
          "name": "",
          "type": "address[]"
        }
      ],
      "stateMutability": "view",
      "type": "function"
    },
    {
      "inputs": [],
      "name": "getTokenAddressesCount",
      "outputs": [
        {
          "internalType": "uint256",
          "name": "",
          "type": "uint256"
        }
      ],
      "stateMutability": "view",
      "type": "function"
    },
    {
      "inputs": [
        {
          "internalType": "string",
          "name": "_bountyId",
          "type": "string"
        },
        {
          "internalType": "address",
          "name": "_issuer",
          "type": "address"
        },
        {
          "internalType": "string",
          "name": "_organization",
          "type": "string"
        },
        {
          "internalType": "address",
          "name": "_openQ",
          "type": "address"
        }
      ],
      "name": "initialize",
      "outputs": [],
      "stateMutability": "nonpayable",
      "type": "function"
    },
    {
      "inputs": [
        {
          "internalType": "bytes32",
          "name": "",
          "type": "bytes32"
        }
      ],
      "name": "isNFT",
      "outputs": [
        {
          "internalType": "bool",
          "name": "",
          "type": "bool"
        }
      ],
      "stateMutability": "view",
      "type": "function"
    },
    {
      "inputs": [],
      "name": "issuer",
      "outputs": [
        {
          "internalType": "address",
          "name": "",
          "type": "address"
        }
      ],
      "stateMutability": "view",
      "type": "function"
    },
    {
      "inputs": [],
      "name": "nftDepositLimit",
      "outputs": [
        {
          "internalType": "uint256",
          "name": "",
          "type": "uint256"
        }
      ],
      "stateMutability": "view",
      "type": "function"
    },
    {
      "inputs": [
        {
          "internalType": "uint256",
          "name": "",
          "type": "uint256"
        }
      ],
      "name": "nftDeposits",
      "outputs": [
        {
          "internalType": "bytes32",
          "name": "",
          "type": "bytes32"
        }
      ],
      "stateMutability": "view",
      "type": "function"
    },
    {
      "inputs": [
        {
          "internalType": "address",
          "name": "",
          "type": "address"
        },
        {
          "internalType": "address",
          "name": "",
          "type": "address"
        },
        {
          "internalType": "uint256",
          "name": "",
          "type": "uint256"
        },
        {
          "internalType": "bytes",
          "name": "",
          "type": "bytes"
        }
      ],
      "name": "onERC721Received",
      "outputs": [
        {
          "internalType": "bytes4",
          "name": "",
          "type": "bytes4"
        }
      ],
      "stateMutability": "pure",
      "type": "function"
    },
    {
      "inputs": [],
      "name": "openQ",
      "outputs": [
        {
          "internalType": "address",
          "name": "",
          "type": "address"
        }
      ],
      "stateMutability": "view",
      "type": "function"
    },
    {
      "inputs": [],
      "name": "organization",
      "outputs": [
        {
          "internalType": "string",
          "name": "",
          "type": "string"
        }
      ],
      "stateMutability": "view",
      "type": "function"
    },
    {
      "inputs": [
        {
          "internalType": "bytes32",
          "name": "",
          "type": "bytes32"
        }
      ],
      "name": "payoutAddress",
      "outputs": [
        {
          "internalType": "address",
          "name": "",
          "type": "address"
        }
      ],
      "stateMutability": "view",
      "type": "function"
    },
    {
      "inputs": [
        {
          "internalType": "address",
          "name": "_funder",
          "type": "address"
        },
        {
          "internalType": "address",
          "name": "_tokenAddress",
          "type": "address"
        },
        {
          "internalType": "uint256",
          "name": "_volume",
          "type": "uint256"
        },
        {
          "internalType": "uint256",
          "name": "_expiration",
          "type": "uint256"
        }
      ],
      "name": "receiveFunds",
      "outputs": [
        {
          "internalType": "bytes32",
          "name": "",
          "type": "bytes32"
        },
        {
          "internalType": "uint256",
          "name": "",
          "type": "uint256"
        }
      ],
      "stateMutability": "payable",
      "type": "function"
    },
    {
      "inputs": [
        {
          "internalType": "address",
          "name": "_sender",
          "type": "address"
        },
        {
          "internalType": "address",
          "name": "_tokenAddress",
          "type": "address"
        },
        {
          "internalType": "uint256",
          "name": "_tokenId",
          "type": "uint256"
        },
        {
          "internalType": "uint256",
          "name": "_expiration",
          "type": "uint256"
        }
      ],
      "name": "receiveNft",
      "outputs": [
        {
          "internalType": "bytes32",
          "name": "",
          "type": "bytes32"
        }
      ],
      "stateMutability": "nonpayable",
      "type": "function"
    },
    {
      "inputs": [
        {
          "internalType": "bytes32",
          "name": "_depositId",
          "type": "bytes32"
        },
        {
          "internalType": "address",
          "name": "_funder",
          "type": "address"
        }
      ],
      "name": "refundDeposit",
      "outputs": [],
      "stateMutability": "nonpayable",
      "type": "function"
    },
    {
      "inputs": [
        {
          "internalType": "bytes32",
          "name": "",
          "type": "bytes32"
        }
      ],
      "name": "refunded",
      "outputs": [
        {
          "internalType": "bool",
          "name": "",
          "type": "bool"
        }
      ],
      "stateMutability": "view",
      "type": "function"
    },
    {
      "inputs": [],
      "name": "status",
      "outputs": [
        {
          "internalType": "uint256",
          "name": "",
          "type": "uint256"
        }
      ],
      "stateMutability": "view",
      "type": "function"
    },
    {
      "inputs": [
        {
          "internalType": "bytes32",
          "name": "",
          "type": "bytes32"
        }
      ],
      "name": "tokenAddress",
      "outputs": [
        {
          "internalType": "address",
          "name": "",
          "type": "address"
        }
      ],
      "stateMutability": "view",
      "type": "function"
    },
    {
      "inputs": [
        {
          "internalType": "bytes32",
          "name": "",
          "type": "bytes32"
        }
      ],
      "name": "tokenId",
      "outputs": [
        {
          "internalType": "uint256",
          "name": "",
          "type": "uint256"
        }
      ],
      "stateMutability": "view",
      "type": "function"
    },
    {
      "inputs": [
        {
          "internalType": "bytes32",
          "name": "",
          "type": "bytes32"
        }
      ],
      "name": "volume",
      "outputs": [
        {
          "internalType": "uint256",
          "name": "",
          "type": "uint256"
        }
      ],
      "stateMutability": "view",
      "type": "function"
    },
    {
      "stateMutability": "payable",
      "type": "receive"
    }
  ],
  "bytecode": "0x608060405234801561001057600080fd5b506123e8806100206000396000f3fe6080604052600436106101fd5760003560e01c8063968b098f1161010d578063c74073a1116100a0578063e129b3331161006f578063e129b3331461066b578063e83963eb1461068b578063ee8c24b8146106ab578063f05e0f7e146106cd578063f2321725146106fd57610204565b8063c74073a1146105ed578063cb2da3db1461060d578063cb4436b71461062d578063d6fe0f441461064357610204565b8063b588d225116100dc578063b588d2251461056d578063b99bb9901461058d578063c17bd75e146105c3578063c5b6e705146105d857610204565b8063968b098f146104d457806397bb3ce914610501578063995280b014610537578063b02c43d01461054d57610204565b806323bd4d7a116101905780636b149d871161015f5780636b149d871461043f5780637044f2821461046157806371ec4ebf1461048157806377ede8a6146104a15780637dc81fa2146104b657610204565b806323bd4d7a1461039a57806356406fa5146103bc57806359ba8344146103e9578063641411f81461041f57610204565b80631d143848116101cc5780631d143848146102ea5780631ecfacee14610322578063200d2ed214610344578063235b2b941461035a57610204565b80630961413d14610216578063150b7a021461023f5780631595eea41461029d5780631bc5fc96146102ca57610204565b3661020457005b34801561021057600080fd5b50600080fd5b34801561022257600080fd5b5061022c606d5481565b6040519081526020015b60405180910390f35b34801561024b57600080fd5b5061028461025a366004611d56565b7f150b7a023d4804d13e8c85fb27262cb750cf6ba9f9dd3bb30d90f482ceeb4b1f95945050505050565b6040516001600160e01b03199091168152602001610236565b3480156102a957600080fd5b5061022c6102b8366004611df1565b60706020526000908152604090205481565b3480156102d657600080fd5b5061022c6102e5366004611df1565b61072a565b3480156102f657600080fd5b5060695461030a906001600160a01b031681565b6040516001600160a01b039091168152602001610236565b34801561032e57600080fd5b5061034261033d366004611ead565b61074b565b005b34801561035057600080fd5b5061022c606c5481565b34801561036657600080fd5b5061038a610375366004611df1565b60766020526000908152604090205460ff1681565b6040519015158152602001610236565b3480156103a657600080fd5b506103af6108bf565b6040516102369190611f5e565b3480156103c857600080fd5b5061022c6103d7366004611df1565b60756020526000908152604090205481565b3480156103f557600080fd5b5061030a610404366004611df1565b606e602052600090815260409020546001600160a01b031681565b34801561042b57600080fd5b5061034261043a366004611f91565b61094d565b34801561044b57600080fd5b50610454610bd2565b6040516102369190611fbd565b34801561046d57600080fd5b50606b5461030a906001600160a01b031681565b34801561048d57600080fd5b5061034261049c366004612001565b610c2a565b3480156104ad57600080fd5b50610454610cfd565b3480156104c257600080fd5b506065546001600160a01b031661030a565b3480156104e057600080fd5b5061022c6104ef366004611df1565b60716020526000908152604090205481565b34801561050d57600080fd5b5061030a61051c366004611df1565b606f602052600090815260409020546001600160a01b031681565b34801561054357600080fd5b5061022c60675481565b34801561055957600080fd5b5061022c610568366004611df1565b610d53565b34801561057957600080fd5b5061022c61058836600461202b565b610d63565b34801561059957600080fd5b5061030a6105a8366004611df1565b6073602052600090815260409020546001600160a01b031681565b3480156105cf57600080fd5b506103af610dd7565b3480156105e457600080fd5b5061022c610de4565b3480156105f957600080fd5b5061034261060836600461202b565b610df6565b34801561061957600080fd5b5061022c610628366004612046565b610efb565b34801561063957600080fd5b5061022c60685481565b610656610651366004612070565b610f9a565b60408051928352602083019190915201610236565b34801561067757600080fd5b5061022c610686366004612070565b61117d565b34801561069757600080fd5b5061022c6106a63660046120b2565b611374565b3480156106b757600080fd5b506106c0611514565b60405161023691906120e7565b3480156106d957600080fd5b5061038a6106e8366004611df1565b60726020526000908152604090205460ff1681565b34801561070957600080fd5b5061022c610718366004611df1565b60746020526000908152604090205481565b6078818154811061073a57600080fd5b600091825260209091200154905081565b60006107576001611525565b9050801561076f576000805461ff0019166101001790555b84516000036107ba5760405162461bcd60e51b81526020600482015260126024820152711393d7d15354151657d093d553951657d25160721b60448201526064015b60405180910390fd5b82516000036108035760405162461bcd60e51b81526020600482015260156024820152742727afa2a6a82a2cafa7a923a0a724ad20aa24a7a760591b60448201526064016107b1565b61080b6115b2565b606580546001600160a01b0319166001600160a01b0384161790558451610839906066906020880190611ca6565b50606980546001600160a01b0319166001600160a01b038616179055825161086890606a906020860190611ca6565b50426067556005606d5580156108b8576000805461ff0019169055604051600181527f7f26b83ff96e1f2b6a682f133852f6798a09c465da95921460cefb38474024989060200160405180910390a15b5050505050565b606a80546108cc90612128565b80601f01602080910402602001604051908101604052809291908181526020018280546108f890612128565b80156109455780601f1061091a57610100808354040283529160200191610945565b820191906000526020600020905b81548152906001019060200180831161092857829003601f168201915b505050505081565b6065546001600160a01b0316336001600160a01b0316146109805760405162461bcd60e51b81526004016107b190612162565b6002600154036109a25760405162461bcd60e51b81526004016107b190612197565b600260015560008281526072602052604090205460ff1615610a015760405162461bcd60e51b815260206004820152601860248201527711115413d4d25517d053149150511657d49151955391115160421b60448201526064016107b1565b6000828152606e60205260409020546001600160a01b03828116911614610a6a5760405162461bcd60e51b815260206004820152601e60248201527f4f4e4c595f46554e4445525f43414e5f524551554553545f524546554e44000060448201526064016107b1565b600082815260756020908152604080832054607190925290912054610a8e916115e3565b421015610add5760405162461bcd60e51b815260206004820152601860248201527f5052454d41545552455f524546554e445f52455155455354000000000000000060448201526064016107b1565b6000828152607260209081526040808320805460ff19166001179055606f9091529020546001600160a01b0316610b41576000828152606e6020908152604080832054607090925290912054610b3c916001600160a01b0316906115f8565b610bca565b60008281526076602052604090205460ff1615610b91576000828152606f6020908152604080832054606e8352818420546074909352922054610b3c926001600160a01b0390811692169061160f565b6000828152606f6020908152604080832054606e8352818420546070909352922054610bca926001600160a01b03908116921690611681565b505060018055565b60606077805480602002602001604051908101604052809291908181526020018280548015610c2057602002820191906000526020600020905b815481526020019060010190808311610c0c575b5050505050905090565b6065546001600160a01b0316336001600160a01b031614610c5d5760405162461bcd60e51b81526004016107b190612162565b600260015403610c7f5760405162461bcd60e51b81526004016107b190612197565b6002600155606c5415610ccd5760405162461bcd60e51b8152602060048201526016602482015275434c41494d494e475f434c4f5345445f424f554e545960501b60448201526064016107b1565b6000818152606f6020908152604080832054607490925290912054610bca916001600160a01b031690849061160f565b60606078805480602002602001604051908101604052809291908181526020018280548015610c205760200282019190600052602060002090815481526020019060010190808311610c0c575050505050905090565b6077818154811061073a57600080fd5b6040516370a0823160e01b815230600482015260009082906001600160a01b038216906370a0823190602401602060405180830381865afa158015610dac573d6000803e3d6000fd5b505050506040513d601f19601f82011682018060405250810190610dd091906121ce565b9392505050565b606680546108cc90612128565b6000610df0607961169c565b51905090565b6065546001600160a01b0316336001600160a01b031614610e295760405162461bcd60e51b81526004016107b190612162565b306001600160a01b031663200d2ed26040518163ffffffff1660e01b8152600401602060405180830381865afa158015610e67573d6000803e3d6000fd5b505050506040513d601f19601f82011682018060405250810190610e8b91906121ce565b15610ed05760405162461bcd60e51b8152602060048201526015602482015274434c4f53494e475f434c4f5345445f424f554e545960581b60448201526064016107b1565b6001606c55606b80546001600160a01b0319166001600160a01b039290921691909117905542606855565b6065546000906001600160a01b0316336001600160a01b031614610f315760405162461bcd60e51b81526004016107b190612162565b600260015403610f535760405162461bcd60e51b81526004016107b190612197565b600260015560006001600160a01b038316610f79575047610f7484826115f8565b610f8f565b610f8283610d63565b9050610f8f838583611681565b600180559392505050565b60655460009081906001600160a01b0316336001600160a01b031614610fd25760405162461bcd60e51b81526004016107b190612162565b600260015403610ff45760405162461bcd60e51b81526004016107b190612197565b6002600155600084900361103d5760405162461bcd60e51b815260206004820152601060248201526f16915493d7d593d315535157d4d1539560821b60448201526064016107b1565b6000831161108d5760405162461bcd60e51b815260206004820181905260248201527f45585049524154494f4e5f4e4f545f475245415445525f5448414e5f5a45524f60448201526064016107b1565b60006110976116a9565b905060006001600160a01b0387166110b05750346110be565b6110bb8789886116dd565b90505b6000828152606e6020908152604080832080546001600160a01b03808e166001600160a01b031992831617909255606f84528285208054928d169290911691909117905560708252808320849055607182528083204290556075825280832088905560769091528120805460ff191690556077805460018101825591527f7901cb5addcae2d210a531c604a76a660d77039093bac314de0816a16392aff10182905561116b607988611773565b50600180559097909650945050505050565b6065546000906001600160a01b0316336001600160a01b0316146111b35760405162461bcd60e51b81526004016107b190612162565b6002600154036111d55760405162461bcd60e51b81526004016107b190612197565b6002600155606d546078541061122d5760405162461bcd60e51b815260206004820152601960248201527f4e46545f4445504f5349545f4c494d49545f524541434845440000000000000060448201526064016107b1565b6000821161127d5760405162461bcd60e51b815260206004820181905260248201527f45585049524154494f4e5f4e4f545f475245415445525f5448414e5f5a45524f60448201526064016107b1565b611288848685611788565b60006112926116a9565b6000818152606e6020908152604080832080546001600160a01b039b8c166001600160a01b031991821617909155606f835281842080549a909b16991698909817909855607188528681204290556074885286812095909555607587528585209390935550506076909352908120805460ff19166001908117909155607780548083019091557f7901cb5addcae2d210a531c604a76a660d77039093bac314de0816a16392aff10183905560788054808301825592527f8dc6fb69531d98d70dc0420e638d2dfd04e09e1ec783ede9aac77da9c5a0dac4909101829055805590565b6065546000906001600160a01b0316336001600160a01b0316146113aa5760405162461bcd60e51b81526004016107b190612162565b6002600154036113cc5760405162461bcd60e51b81526004016107b190612197565b6002600155606c54156114115760405162461bcd60e51b815260206004820152600d60248201526c434c4f5345445f424f554e545960981b60448201526064016107b1565b60008481526072602052604090205460ff161561146b5760405162461bcd60e51b815260206004820152601860248201527711115413d4d25517d053149150511657d49151955391115160421b60448201526064016107b1565b6000848152606e60205260409020546001600160a01b038381169116146114de5760405162461bcd60e51b815260206004820152602160248201527f4f4e4c595f46554e4445525f43414e5f524551554553545f455854454e53494f6044820152602760f91b60648201526084016107b1565b6000848152607560205260409020546114f89084906121fd565b6000948552607560205260409094208490555050600180555090565b6060611520607961169c565b905090565b60008054610100900460ff161561156c578160ff1660011480156115485750303b155b6115645760405162461bcd60e51b81526004016107b190612215565b506000919050565b60005460ff8084169116106115935760405162461bcd60e51b81526004016107b190612215565b506000805460ff191660ff92909216919091179055600190565b919050565b600054610100900460ff166115d95760405162461bcd60e51b81526004016107b190612263565b6115e16117c6565b565b60006115ef82846121fd565b90505b92915050565b61160b6001600160a01b038316826117f3565b5050565b604051632142170760e11b81523060048201526001600160a01b038381166024830152604482018390528491908216906342842e0e906064015b600060405180830381600087803b15801561166357600080fd5b505af1158015611677573d6000803e3d6000fd5b5050505050505050565b826116966001600160a01b0382168484611911565b50505050565b60606000610dd083611974565b6077546040516000916116c291606691906020016122ae565b60405160208183030381529060405280519060200120905090565b6000806116e985610d63565b9050846117016001600160a01b0382168630876119d0565b600061170c87610d63565b90508281101561175e5760405162461bcd60e51b815260206004820152601a60248201527f544f4b454e5f5452414e534645525f494e5f4f564552464c4f5700000000000060448201526064016107b1565b6117688184611a08565b979650505050505050565b60006115ef836001600160a01b038416611a14565b604051632142170760e11b81526001600160a01b038381166004830152306024830152604482018390528491908216906342842e0e90606401611649565b600054610100900460ff166117ed5760405162461bcd60e51b81526004016107b190612263565b60018055565b804710156118435760405162461bcd60e51b815260206004820152601d60248201527f416464726573733a20696e73756666696369656e742062616c616e636500000060448201526064016107b1565b6000826001600160a01b03168260405160006040518083038185875af1925050503d8060008114611890576040519150601f19603f3d011682016040523d82523d6000602084013e611895565b606091505b505090508061190c5760405162461bcd60e51b815260206004820152603a60248201527f416464726573733a20756e61626c6520746f2073656e642076616c75652c207260448201527f6563697069656e74206d6179206861766520726576657274656400000000000060648201526084016107b1565b505050565b6040516001600160a01b03831660248201526044810182905261190c90849063a9059cbb60e01b906064015b60408051601f198184030181529190526020810180516001600160e01b03166001600160e01b031990931692909217909152611a63565b6060816000018054806020026020016040519081016040528092919081815260200182805480156119c457602002820191906000526020600020905b8154815260200190600101908083116119b0575b50505050509050919050565b6040516001600160a01b03808516602483015283166044820152606481018290526116969085906323b872dd60e01b9060840161193d565b60006115ef828461235d565b6000818152600183016020526040812054611a5b575081546001818101845560008481526020808220909301849055845484825282860190935260409020919091556115f2565b5060006115f2565b6000611ab8826040518060400160405280602081526020017f5361666545524332303a206c6f772d6c6576656c2063616c6c206661696c6564815250856001600160a01b0316611b359092919063ffffffff16565b80519091501561190c5780806020019051810190611ad69190612374565b61190c5760405162461bcd60e51b815260206004820152602a60248201527f5361666545524332303a204552433230206f7065726174696f6e20646964206e6044820152691bdd081cdd58d8d9595960b21b60648201526084016107b1565b6060611b448484600085611b4c565b949350505050565b606082471015611bad5760405162461bcd60e51b815260206004820152602660248201527f416464726573733a20696e73756666696369656e742062616c616e636520666f6044820152651c8818d85b1b60d21b60648201526084016107b1565b6001600160a01b0385163b611c045760405162461bcd60e51b815260206004820152601d60248201527f416464726573733a2063616c6c20746f206e6f6e2d636f6e747261637400000060448201526064016107b1565b600080866001600160a01b03168587604051611c209190612396565b60006040518083038185875af1925050503d8060008114611c5d576040519150601f19603f3d011682016040523d82523d6000602084013e611c62565b606091505b509150915061176882828660608315611c7c575081610dd0565b825115611c8c5782518084602001fd5b8160405162461bcd60e51b81526004016107b19190611f5e565b828054611cb290612128565b90600052602060002090601f016020900481019282611cd45760008555611d1a565b82601f10611ced57805160ff1916838001178555611d1a565b82800160010185558215611d1a579182015b82811115611d1a578251825591602001919060010190611cff565b50611d26929150611d2a565b5090565b5b80821115611d265760008155600101611d2b565b80356001600160a01b03811681146115ad57600080fd5b600080600080600060808688031215611d6e57600080fd5b611d7786611d3f565b9450611d8560208701611d3f565b935060408601359250606086013567ffffffffffffffff80821115611da957600080fd5b818801915088601f830112611dbd57600080fd5b813581811115611dcc57600080fd5b896020828501011115611dde57600080fd5b9699959850939650602001949392505050565b600060208284031215611e0357600080fd5b5035919050565b634e487b7160e01b600052604160045260246000fd5b600082601f830112611e3157600080fd5b813567ffffffffffffffff80821115611e4c57611e4c611e0a565b604051601f8301601f19908116603f01168101908282118183101715611e7457611e74611e0a565b81604052838152866020858801011115611e8d57600080fd5b836020870160208301376000602085830101528094505050505092915050565b60008060008060808587031215611ec357600080fd5b843567ffffffffffffffff80821115611edb57600080fd5b611ee788838901611e20565b9550611ef560208801611d3f565b94506040870135915080821115611f0b57600080fd5b50611f1887828801611e20565b925050611f2760608601611d3f565b905092959194509250565b60005b83811015611f4d578181015183820152602001611f35565b838111156116965750506000910152565b6020815260008251806020840152611f7d816040850160208701611f32565b601f01601f19169190910160400192915050565b60008060408385031215611fa457600080fd5b82359150611fb460208401611d3f565b90509250929050565b6020808252825182820181905260009190848201906040850190845b81811015611ff557835183529284019291840191600101611fd9565b50909695505050505050565b6000806040838503121561201457600080fd5b61201d83611d3f565b946020939093013593505050565b60006020828403121561203d57600080fd5b6115ef82611d3f565b6000806040838503121561205957600080fd5b61206283611d3f565b9150611fb460208401611d3f565b6000806000806080858703121561208657600080fd5b61208f85611d3f565b935061209d60208601611d3f565b93969395505050506040820135916060013590565b6000806000606084860312156120c757600080fd5b83359250602084013591506120de60408501611d3f565b90509250925092565b6020808252825182820181905260009190848201906040850190845b81811015611ff55783516001600160a01b031683529284019291840191600101612103565b600181811c9082168061213c57607f821691505b60208210810361215c57634e487b7160e01b600052602260045260246000fd5b50919050565b6020808252818101527f4d6574686f64206973206f6e6c792063616c6c61626c65206279204f70656e51604082015260600190565b6020808252601f908201527f5265656e7472616e637947756172643a207265656e7472616e742063616c6c00604082015260600190565b6000602082840312156121e057600080fd5b5051919050565b634e487b7160e01b600052601160045260246000fd5b60008219821115612210576122106121e7565b500190565b6020808252602e908201527f496e697469616c697a61626c653a20636f6e747261637420697320616c72656160408201526d191e481a5b9a5d1a585b1a5e995960921b606082015260800190565b6020808252602b908201527f496e697469616c697a61626c653a20636f6e7472616374206973206e6f74206960408201526a6e697469616c697a696e6760a81b606082015260800190565b60408152600080845481600182811c9150808316806122ce57607f831692505b602080841082036122ed57634e487b7160e01b86526022600452602486fd5b604088018490526060880182801561230c576001811461231d57612348565b60ff19871682528282019750612348565b60008c81526020902060005b8781101561234257815484820152908601908401612329565b83019850505b50509690960196909652509095945050505050565b60008282101561236f5761236f6121e7565b500390565b60006020828403121561238657600080fd5b81518015158114610dd057600080fd5b600082516123a8818460208701611f32565b919091019291505056fea2646970667358221220fd793f9c67fb6bea1a59166249a9cb824767fccd4d1ce1d36d6374c6c08676f464736f6c634300080d0033",
  "linkReferences": {},
  "deployedLinkReferences": {}
}