{
  "_format": "hh-sol-artifact-1",
  "contractName": "BountyV0",
  "sourceName": "contracts/Bounty/Implementations/BountyV0.sol",
  "abi": [
    {
      "inputs": [
        {
          "internalType": "string",
          "name": "_id",
          "type": "string"
        },
        {
          "internalType": "address",
          "name": "_issuer",
          "type": "address"
        },
        {
          "internalType": "string",
          "name": "_organization",
          "type": "string"
        }
      ],
      "stateMutability": "nonpayable",
      "type": "constructor"
    },
    {
      "anonymous": false,
      "inputs": [
        {
          "indexed": true,
          "internalType": "address",
          "name": "previousOwner",
          "type": "address"
        },
        {
          "indexed": true,
          "internalType": "address",
          "name": "newOwner",
          "type": "address"
        }
      ],
      "name": "OwnershipTransferred",
      "type": "event"
    },
    {
      "stateMutability": "nonpayable",
      "type": "fallback"
    },
    {
      "inputs": [],
      "name": "bountyClosedTime",
      "outputs": [
        {
          "internalType": "uint256",
          "name": "",
          "type": "uint256"
        }
      ],
      "stateMutability": "view",
      "type": "function"
    },
    {
      "inputs": [],
      "name": "bountyCreatedTime",
      "outputs": [
        {
          "internalType": "uint256",
          "name": "",
          "type": "uint256"
        }
      ],
      "stateMutability": "view",
      "type": "function"
    },
    {
      "inputs": [],
      "name": "bountyId",
      "outputs": [
        {
          "internalType": "string",
          "name": "",
          "type": "string"
        }
      ],
      "stateMutability": "view",
      "type": "function"
    },
    {
      "inputs": [
        {
          "internalType": "uint256",
          "name": "",
          "type": "uint256"
        }
      ],
      "name": "bountyTokenAddresses",
      "outputs": [
        {
          "internalType": "address",
          "name": "",
          "type": "address"
        }
      ],
      "stateMutability": "view",
      "type": "function"
    },
    {
      "inputs": [
        {
          "internalType": "address",
          "name": "_payoutAddress",
          "type": "address"
        },
        {
          "internalType": "address",
          "name": "_tokenAddress",
          "type": "address"
        }
      ],
      "name": "claim",
      "outputs": [
        {
          "internalType": "bool",
          "name": "success",
          "type": "bool"
        }
      ],
      "stateMutability": "nonpayable",
      "type": "function"
    },
    {
      "inputs": [
        {
          "internalType": "address",
          "name": "_payoutAddress",
          "type": "address"
        }
      ],
      "name": "closeBounty",
      "outputs": [
        {
          "internalType": "bool",
          "name": "success",
          "type": "bool"
        }
      ],
      "stateMutability": "nonpayable",
      "type": "function"
    },
    {
      "inputs": [],
      "name": "closer",
      "outputs": [
        {
          "internalType": "address",
          "name": "",
          "type": "address"
        }
      ],
      "stateMutability": "view",
      "type": "function"
    },
    {
      "inputs": [],
      "name": "escrowPeriod",
      "outputs": [
        {
          "internalType": "uint256",
          "name": "",
          "type": "uint256"
        }
      ],
      "stateMutability": "view",
      "type": "function"
    },
    {
      "inputs": [
        {
          "internalType": "address",
          "name": "",
          "type": "address"
        },
        {
          "internalType": "address",
          "name": "",
          "type": "address"
        }
      ],
      "name": "funderDeposits",
      "outputs": [
        {
          "internalType": "uint256",
          "name": "",
          "type": "uint256"
        }
      ],
      "stateMutability": "view",
      "type": "function"
    },
    {
      "inputs": [
        {
          "internalType": "address",
          "name": "",
          "type": "address"
        },
        {
          "internalType": "uint256",
          "name": "",
          "type": "uint256"
        }
      ],
      "name": "funderTokenAddresses",
      "outputs": [
        {
          "internalType": "address",
          "name": "",
          "type": "address"
        }
      ],
      "stateMutability": "view",
      "type": "function"
    },
    {
      "inputs": [],
      "name": "getBountyTokenAddresses",
      "outputs": [
        {
          "internalType": "address[]",
          "name": "",
          "type": "address[]"
        }
      ],
      "stateMutability": "view",
      "type": "function"
    },
    {
      "inputs": [
        {
          "internalType": "address",
          "name": "_tokenAddress",
          "type": "address"
        }
      ],
      "name": "getERC20Balance",
      "outputs": [
        {
          "internalType": "uint256",
          "name": "balance",
          "type": "uint256"
        }
      ],
      "stateMutability": "view",
      "type": "function"
    },
    {
      "inputs": [
        {
          "internalType": "address",
          "name": "_funder",
          "type": "address"
        }
      ],
      "name": "getFunderTokenAddresses",
      "outputs": [
        {
          "internalType": "address[]",
          "name": "",
          "type": "address[]"
        }
      ],
      "stateMutability": "view",
      "type": "function"
    },
    {
      "inputs": [
        {
          "internalType": "address",
          "name": "",
          "type": "address"
        }
      ],
      "name": "isAFunder",
      "outputs": [
        {
          "internalType": "bool",
          "name": "",
          "type": "bool"
        }
      ],
      "stateMutability": "view",
      "type": "function"
    },
    {
      "inputs": [],
      "name": "issuer",
      "outputs": [
        {
          "internalType": "address",
          "name": "",
          "type": "address"
        }
      ],
      "stateMutability": "view",
      "type": "function"
    },
    {
      "inputs": [],
      "name": "organization",
      "outputs": [
        {
          "internalType": "string",
          "name": "",
          "type": "string"
        }
      ],
      "stateMutability": "view",
      "type": "function"
    },
    {
      "inputs": [],
      "name": "owner",
      "outputs": [
        {
          "internalType": "address",
          "name": "",
          "type": "address"
        }
      ],
      "stateMutability": "view",
      "type": "function"
    },
    {
      "inputs": [
        {
          "internalType": "address",
          "name": "_funder",
          "type": "address"
        },
        {
          "internalType": "address",
          "name": "_tokenAddress",
          "type": "address"
        },
        {
          "internalType": "uint256",
          "name": "_volume",
          "type": "uint256"
        }
      ],
      "name": "receiveFunds",
      "outputs": [
        {
          "internalType": "bool",
          "name": "success",
          "type": "bool"
        }
      ],
      "stateMutability": "nonpayable",
      "type": "function"
    },
    {
      "inputs": [
        {
          "internalType": "address",
          "name": "_funder",
          "type": "address"
        },
        {
          "internalType": "address",
          "name": "_tokenAddress",
          "type": "address"
        }
      ],
      "name": "refundBountyDeposit",
      "outputs": [
        {
          "internalType": "bool",
          "name": "success",
          "type": "bool"
        }
      ],
      "stateMutability": "nonpayable",
      "type": "function"
    },
    {
      "inputs": [],
      "name": "renounceOwnership",
      "outputs": [],
      "stateMutability": "nonpayable",
      "type": "function"
    },
    {
      "inputs": [],
      "name": "status",
      "outputs": [
        {
          "internalType": "enum Bounty.BountyStatus",
          "name": "",
          "type": "uint8"
        }
      ],
      "stateMutability": "view",
      "type": "function"
    },
    {
      "inputs": [
        {
          "internalType": "address",
          "name": "newOwner",
          "type": "address"
        }
      ],
      "name": "transferOwnership",
      "outputs": [],
      "stateMutability": "nonpayable",
      "type": "function"
    }
  ],
  "bytecode": "0x60806040524260065562278d006008553480156200001c57600080fd5b50604051620027ad380380620027ad833981810160405281019062000042919062000490565b82828262000065620000596200011260201b60201c565b6200011a60201b60201c565b82600590805190602001906200007d929190620001de565b506000600b60146101000a81548160ff02191690836001811115620000a757620000a66200052a565b5b021790555081600960006101000a81548173ffffffffffffffffffffffffffffffffffffffff021916908373ffffffffffffffffffffffffffffffffffffffff16021790555080600a908051906020019062000105929190620001de565b50505050505050620005be565b600033905090565b60008060009054906101000a900473ffffffffffffffffffffffffffffffffffffffff169050816000806101000a81548173ffffffffffffffffffffffffffffffffffffffff021916908373ffffffffffffffffffffffffffffffffffffffff1602179055508173ffffffffffffffffffffffffffffffffffffffff168173ffffffffffffffffffffffffffffffffffffffff167f8be0079c531659141344cd1fd0a4f28419497f9722a3daafe3b4186f6b6457e060405160405180910390a35050565b828054620001ec9062000588565b90600052602060002090601f0160209004810192826200021057600085556200025c565b82601f106200022b57805160ff19168380011785556200025c565b828001600101855582156200025c579182015b828111156200025b5782518255916020019190600101906200023e565b5b5090506200026b91906200026f565b5090565b5b808211156200028a57600081600090555060010162000270565b5090565b6000604051905090565b600080fd5b600080fd5b600080fd5b600080fd5b6000601f19601f8301169050919050565b7f4e487b7100000000000000000000000000000000000000000000000000000000600052604160045260246000fd5b620002f782620002ac565b810181811067ffffffffffffffff82111715620003195762000318620002bd565b5b80604052505050565b60006200032e6200028e565b90506200033c8282620002ec565b919050565b600067ffffffffffffffff8211156200035f576200035e620002bd565b5b6200036a82620002ac565b9050602081019050919050565b60005b83811015620003975780820151818401526020810190506200037a565b83811115620003a7576000848401525b50505050565b6000620003c4620003be8462000341565b62000322565b905082815260208101848484011115620003e357620003e2620002a7565b5b620003f084828562000377565b509392505050565b600082601f83011262000410576200040f620002a2565b5b815162000422848260208601620003ad565b91505092915050565b600073ffffffffffffffffffffffffffffffffffffffff82169050919050565b600062000458826200042b565b9050919050565b6200046a816200044b565b81146200047657600080fd5b50565b6000815190506200048a816200045f565b92915050565b600080600060608486031215620004ac57620004ab62000298565b5b600084015167ffffffffffffffff811115620004cd57620004cc6200029d565b5b620004db86828701620003f8565b9350506020620004ee8682870162000479565b925050604084015167ffffffffffffffff8111156200051257620005116200029d565b5b6200052086828701620003f8565b9150509250925092565b7f4e487b7100000000000000000000000000000000000000000000000000000000600052602160045260246000fd5b7f4e487b7100000000000000000000000000000000000000000000000000000000600052602260045260246000fd5b60006002820490506001821680620005a157607f821691505b60208210811415620005b857620005b762000559565b5b50919050565b6121df80620005ce6000396000f3fe608060405234801561001057600080fd5b50600436106101465760003560e01c8063995280b0116100b8578063cb4436b71161007c578063cb4436b7146103a8578063df9229f0146103c6578063ec05635c146103f6578063f16b51c114610426578063f2fde38b14610444578063fc5d2cf41461046057610147565b8063995280b0146102dc578063b0100cf7146102fa578063b588d2251461032a578063b9df819f1461035a578063c17bd75e1461038a57610147565b806329ffef151161010a57806329ffef15146102065780634b8022b2146102365780636216753b146102665780637044f28214610296578063715018a6146102b45780638da5cb5b146102be57610147565b80631bef55051461014c5780631d1438481461017c578063200d2ed21461019a57806321c0b342146101b857806323bd4d7a146101e857610147565b5b600080fd5b610166600480360381019061016191906116f2565b61047e565b60405161017391906117dd565b60405180910390f35b61018461054b565b604051610191919061180e565b60405180910390f35b6101a2610571565b6040516101af91906118a0565b60405180910390f35b6101d260048036038101906101cd91906118bb565b610584565b6040516101df9190611916565b60405180910390f35b6101f0610709565b6040516101fd91906119ca565b60405180910390f35b610220600480360381019061021b91906118bb565b610797565b60405161022d9190611916565b60405180910390f35b610250600480360381019061024b9190611a22565b6109b5565b60405161025d919061180e565b60405180910390f35b610280600480360381019061027b91906118bb565b610a03565b60405161028d9190611a71565b60405180910390f35b61029e610a28565b6040516102ab919061180e565b60405180910390f35b6102bc610a4e565b005b6102c6610ad6565b6040516102d3919061180e565b60405180910390f35b6102e4610aff565b6040516102f19190611a71565b60405180910390f35b610314600480360381019061030f91906116f2565b610b05565b6040516103219190611916565b60405180910390f35b610344600480360381019061033f91906116f2565b610b25565b6040516103519190611a71565b60405180910390f35b610374600480360381019061036f9190611a8c565b610bbc565b6040516103819190611916565b60405180910390f35b610392610f17565b60405161039f91906119ca565b60405180910390f35b6103b0610fa5565b6040516103bd9190611a71565b60405180910390f35b6103e060048036038101906103db9190611adf565b610fab565b6040516103ed919061180e565b60405180910390f35b610410600480360381019061040b91906116f2565b610fea565b60405161041d9190611916565b60405180910390f35b61042e6111c8565b60405161043b9190611a71565b60405180910390f35b61045e600480360381019061045991906116f2565b6111ce565b005b6104686112c6565b60405161047591906117dd565b60405180910390f35b6060600260008373ffffffffffffffffffffffffffffffffffffffff1673ffffffffffffffffffffffffffffffffffffffff16815260200190815260200160002080548060200260200160405190810160405280929190818152602001828054801561053f57602002820191906000526020600020905b8160009054906101000a900473ffffffffffffffffffffffffffffffffffffffff1673ffffffffffffffffffffffffffffffffffffffff16815260200190600101908083116104f5575b50505050509050919050565b600960009054906101000a900473ffffffffffffffffffffffffffffffffffffffff1681565b600b60149054906101000a900460ff1681565b600061058e611354565b73ffffffffffffffffffffffffffffffffffffffff166105ac610ad6565b73ffffffffffffffffffffffffffffffffffffffff1614610602576040517f08c379a00000000000000000000000000000000000000000000000000000000081526004016105f990611b58565b60405180910390fd5b6000600181111561061657610615611829565b5b3073ffffffffffffffffffffffffffffffffffffffff1663200d2ed26040518163ffffffff1660e01b815260040160206040518083038186803b15801561065c57600080fd5b505afa158015610670573d6000803e3d6000fd5b505050506040513d601f19601f820116820180604052508101906106949190611b9d565b60018111156106a6576106a5611829565b5b146106e6576040517f08c379a00000000000000000000000000000000000000000000000000000000081526004016106dd90611c3c565b60405180910390fd5b60006106f183610b25565b90506106fe83858361135c565b600191505092915050565b600a805461071690611c8b565b80601f016020809104026020016040519081016040528092919081815260200182805461074290611c8b565b801561078f5780601f106107645761010080835404028352916020019161078f565b820191906000526020600020905b81548152906001019060200180831161077257829003601f168201915b505050505081565b60006107a1611354565b73ffffffffffffffffffffffffffffffffffffffff166107bf610ad6565b73ffffffffffffffffffffffffffffffffffffffff1614610815576040517f08c379a000000000000000000000000000000000000000000000000000000000815260040161080c90611b58565b60405180910390fd5b61089c8284600360008773ffffffffffffffffffffffffffffffffffffffff1673ffffffffffffffffffffffffffffffffffffffff16815260200190815260200160002060008673ffffffffffffffffffffffffffffffffffffffff1673ffffffffffffffffffffffffffffffffffffffff1681526020019081526020016000205461135c565b600360008473ffffffffffffffffffffffffffffffffffffffff1673ffffffffffffffffffffffffffffffffffffffff16815260200190815260200160002060008373ffffffffffffffffffffffffffffffffffffffff1673ffffffffffffffffffffffffffffffffffffffff16815260200190815260200160002054600360008573ffffffffffffffffffffffffffffffffffffffff1673ffffffffffffffffffffffffffffffffffffffff16815260200190815260200160002060008473ffffffffffffffffffffffffffffffffffffffff1673ffffffffffffffffffffffffffffffffffffffff16815260200190815260200160002060008282546109a49190611cec565b925050819055506001905092915050565b600260205281600052604060002081815481106109d157600080fd5b906000526020600020016000915091509054906101000a900473ffffffffffffffffffffffffffffffffffffffff1681565b6003602052816000526040600020602052806000526040600020600091509150505481565b600b60009054906101000a900473ffffffffffffffffffffffffffffffffffffffff1681565b610a56611354565b73ffffffffffffffffffffffffffffffffffffffff16610a74610ad6565b73ffffffffffffffffffffffffffffffffffffffff1614610aca576040517f08c379a0000000000000000000000000000000000000000000000000000000008152600401610ac190611b58565b60405180910390fd5b610ad46000611492565b565b60008060009054906101000a900473ffffffffffffffffffffffffffffffffffffffff16905090565b60065481565b60046020528060005260406000206000915054906101000a900460ff1681565b6000808290508073ffffffffffffffffffffffffffffffffffffffff166370a08231306040518263ffffffff1660e01b8152600401610b64919061180e565b60206040518083038186803b158015610b7c57600080fd5b505afa158015610b90573d6000803e3d6000fd5b505050506040513d601f19601f82011682018060405250810190610bb49190611d35565b915050919050565b6000610bc6611354565b73ffffffffffffffffffffffffffffffffffffffff16610be4610ad6565b73ffffffffffffffffffffffffffffffffffffffff1614610c3a576040517f08c379a0000000000000000000000000000000000000000000000000000000008152600401610c3190611b58565b60405180910390fd5b6000821415610c7e576040517f08c379a0000000000000000000000000000000000000000000000000000000008152600401610c7590611dd4565b60405180910390fd5b6000610c8984610b25565b1415610cf3576001839080600181540180825580915050600190039060005260206000200160009091909190916101000a81548173ffffffffffffffffffffffffffffffffffffffff021916908373ffffffffffffffffffffffffffffffffffffffff1602179055505b610cff83853085611556565b6001600460008673ffffffffffffffffffffffffffffffffffffffff1673ffffffffffffffffffffffffffffffffffffffff16815260200190815260200160002060006101000a81548160ff0219169083151502179055506000600360008673ffffffffffffffffffffffffffffffffffffffff1673ffffffffffffffffffffffffffffffffffffffff16815260200190815260200160002060008573ffffffffffffffffffffffffffffffffffffffff1673ffffffffffffffffffffffffffffffffffffffff168152602001908152602001600020541415610e7d57600260008573ffffffffffffffffffffffffffffffffffffffff1673ffffffffffffffffffffffffffffffffffffffff168152602001908152602001600020839080600181540180825580915050600190039060005260206000200160009091909190916101000a81548173ffffffffffffffffffffffffffffffffffffffff021916908373ffffffffffffffffffffffffffffffffffffffff1602179055505b81600360008673ffffffffffffffffffffffffffffffffffffffff1673ffffffffffffffffffffffffffffffffffffffff16815260200190815260200160002060008573ffffffffffffffffffffffffffffffffffffffff1673ffffffffffffffffffffffffffffffffffffffff1681526020019081526020016000206000828254610f099190611df4565b925050819055509392505050565b60058054610f2490611c8b565b80601f0160208091040260200160405190810160405280929190818152602001828054610f5090611c8b565b8015610f9d5780601f10610f7257610100808354040283529160200191610f9d565b820191906000526020600020905b815481529060010190602001808311610f8057829003601f168201915b505050505081565b60075481565b60018181548110610fbb57600080fd5b906000526020600020016000915054906101000a900473ffffffffffffffffffffffffffffffffffffffff1681565b6000610ff4611354565b73ffffffffffffffffffffffffffffffffffffffff16611012610ad6565b73ffffffffffffffffffffffffffffffffffffffff1614611068576040517f08c379a000000000000000000000000000000000000000000000000000000000815260040161105f90611b58565b60405180910390fd5b6000600181111561107c5761107b611829565b5b3073ffffffffffffffffffffffffffffffffffffffff1663200d2ed26040518163ffffffff1660e01b815260040160206040518083038186803b1580156110c257600080fd5b505afa1580156110d6573d6000803e3d6000fd5b505050506040513d601f19601f820116820180604052508101906110fa9190611b9d565b600181111561110c5761110b611829565b5b1461114c576040517f08c379a000000000000000000000000000000000000000000000000000000000815260040161114390611ebc565b60405180910390fd5b6001600b60146101000a81548160ff0219169083600181111561117257611171611829565b5b021790555081600b60006101000a81548173ffffffffffffffffffffffffffffffffffffffff021916908373ffffffffffffffffffffffffffffffffffffffff1602179055504260078190555060019050919050565b60085481565b6111d6611354565b73ffffffffffffffffffffffffffffffffffffffff166111f4610ad6565b73ffffffffffffffffffffffffffffffffffffffff161461124a576040517f08c379a000000000000000000000000000000000000000000000000000000000815260040161124190611b58565b60405180910390fd5b600073ffffffffffffffffffffffffffffffffffffffff168173ffffffffffffffffffffffffffffffffffffffff1614156112ba576040517f08c379a00000000000000000000000000000000000000000000000000000000081526004016112b190611f4e565b60405180910390fd5b6112c381611492565b50565b6060600180548060200260200160405190810160405280929190818152602001828054801561134a57602002820191906000526020600020905b8160009054906101000a900473ffffffffffffffffffffffffffffffffffffffff1673ffffffffffffffffffffffffffffffffffffffff1681526020019060010190808311611300575b5050505050905090565b600033905090565b6000808473ffffffffffffffffffffffffffffffffffffffff1663a9059cbb858560405160240161138e929190611f6e565b6040516020818303038152906040529060e01b6020820180517bffffffffffffffffffffffffffffffffffffffffffffffffffffffff83818316178352505050506040516113dc9190611fde565b6000604051808303816000865af19150503d8060008114611419576040519150601f19603f3d011682016040523d82523d6000602084013e61141e565b606091505b509150915081801561144c575060008151148061144b57508080602001905181019061144a9190612021565b5b5b61148b576040517f08c379a0000000000000000000000000000000000000000000000000000000008152600401611482906120c0565b60405180910390fd5b5050505050565b60008060009054906101000a900473ffffffffffffffffffffffffffffffffffffffff169050816000806101000a81548173ffffffffffffffffffffffffffffffffffffffff021916908373ffffffffffffffffffffffffffffffffffffffff1602179055508173ffffffffffffffffffffffffffffffffffffffff168173ffffffffffffffffffffffffffffffffffffffff167f8be0079c531659141344cd1fd0a4f28419497f9722a3daafe3b4186f6b6457e060405160405180910390a35050565b6000808573ffffffffffffffffffffffffffffffffffffffff166323b872dd86868660405160240161158a939291906120e0565b6040516020818303038152906040529060e01b6020820180517bffffffffffffffffffffffffffffffffffffffffffffffffffffffff83818316178352505050506040516115d89190611fde565b6000604051808303816000865af19150503d8060008114611615576040519150601f19603f3d011682016040523d82523d6000602084013e61161a565b606091505b509150915081801561164857506000815114806116475750808060200190518101906116469190612021565b5b5b611687576040517f08c379a000000000000000000000000000000000000000000000000000000000815260040161167e90612189565b60405180910390fd5b505050505050565b600080fd5b600073ffffffffffffffffffffffffffffffffffffffff82169050919050565b60006116bf82611694565b9050919050565b6116cf816116b4565b81146116da57600080fd5b50565b6000813590506116ec816116c6565b92915050565b6000602082840312156117085761170761168f565b5b6000611716848285016116dd565b91505092915050565b600081519050919050565b600082825260208201905092915050565b6000819050602082019050919050565b611754816116b4565b82525050565b6000611766838361174b565b60208301905092915050565b6000602082019050919050565b600061178a8261171f565b611794818561172a565b935061179f8361173b565b8060005b838110156117d05781516117b7888261175a565b97506117c283611772565b9250506001810190506117a3565b5085935050505092915050565b600060208201905081810360008301526117f7818461177f565b905092915050565b611808816116b4565b82525050565b600060208201905061182360008301846117ff565b92915050565b7f4e487b7100000000000000000000000000000000000000000000000000000000600052602160045260246000fd5b6002811061186957611868611829565b5b50565b600081905061187a82611858565b919050565b600061188a8261186c565b9050919050565b61189a8161187f565b82525050565b60006020820190506118b56000830184611891565b92915050565b600080604083850312156118d2576118d161168f565b5b60006118e0858286016116dd565b92505060206118f1858286016116dd565b9150509250929050565b60008115159050919050565b611910816118fb565b82525050565b600060208201905061192b6000830184611907565b92915050565b600081519050919050565b600082825260208201905092915050565b60005b8381101561196b578082015181840152602081019050611950565b8381111561197a576000848401525b50505050565b6000601f19601f8301169050919050565b600061199c82611931565b6119a6818561193c565b93506119b681856020860161194d565b6119bf81611980565b840191505092915050565b600060208201905081810360008301526119e48184611991565b905092915050565b6000819050919050565b6119ff816119ec565b8114611a0a57600080fd5b50565b600081359050611a1c816119f6565b92915050565b60008060408385031215611a3957611a3861168f565b5b6000611a47858286016116dd565b9250506020611a5885828601611a0d565b9150509250929050565b611a6b816119ec565b82525050565b6000602082019050611a866000830184611a62565b92915050565b600080600060608486031215611aa557611aa461168f565b5b6000611ab3868287016116dd565b9350506020611ac4868287016116dd565b9250506040611ad586828701611a0d565b9150509250925092565b600060208284031215611af557611af461168f565b5b6000611b0384828501611a0d565b91505092915050565b7f4f776e61626c653a2063616c6c6572206973206e6f7420746865206f776e6572600082015250565b6000611b4260208361193c565b9150611b4d82611b0c565b602082019050919050565b60006020820190508181036000830152611b7181611b35565b9050919050565b60028110611b8557600080fd5b50565b600081519050611b9781611b78565b92915050565b600060208284031215611bb357611bb261168f565b5b6000611bc184828501611b88565b91505092915050565b7f5468697320697320626f756e747920697320636c6f7365642e2043616e6e6f7460008201527f20776974686472617720616761696e2e00000000000000000000000000000000602082015250565b6000611c2660308361193c565b9150611c3182611bca565b604082019050919050565b60006020820190508181036000830152611c5581611c19565b9050919050565b7f4e487b7100000000000000000000000000000000000000000000000000000000600052602260045260246000fd5b60006002820490506001821680611ca357607f821691505b60208210811415611cb757611cb6611c5c565b5b50919050565b7f4e487b7100000000000000000000000000000000000000000000000000000000600052601160045260246000fd5b6000611cf7826119ec565b9150611d02836119ec565b925082821015611d1557611d14611cbd565b5b828203905092915050565b600081519050611d2f816119f6565b92915050565b600060208284031215611d4b57611d4a61168f565b5b6000611d5984828501611d20565b91505092915050565b7f4d7573742073656e642061206e6f6e2d7a65726f20766f6c756d65206f66207460008201527f6f6b656e732e0000000000000000000000000000000000000000000000000000602082015250565b6000611dbe60268361193c565b9150611dc982611d62565b604082019050919050565b60006020820190508181036000830152611ded81611db1565b9050919050565b6000611dff826119ec565b9150611e0a836119ec565b9250827fffffffffffffffffffffffffffffffffffffffffffffffffffffffffffffffff03821115611e3f57611e3e611cbd565b5b828201905092915050565b7f5468697320697320626f756e747920697320616c726561647920636c6f73656460008201527f2e2043616e6e6f7420636c6f736520616761696e2e0000000000000000000000602082015250565b6000611ea660358361193c565b9150611eb182611e4a565b604082019050919050565b60006020820190508181036000830152611ed581611e99565b9050919050565b7f4f776e61626c653a206e6577206f776e657220697320746865207a65726f206160008201527f6464726573730000000000000000000000000000000000000000000000000000602082015250565b6000611f3860268361193c565b9150611f4382611edc565b604082019050919050565b60006020820190508181036000830152611f6781611f2b565b9050919050565b6000604082019050611f8360008301856117ff565b611f906020830184611a62565b9392505050565b600081519050919050565b600081905092915050565b6000611fb882611f97565b611fc28185611fa2565b9350611fd281856020860161194d565b80840191505092915050565b6000611fea8284611fad565b915081905092915050565b611ffe816118fb565b811461200957600080fd5b50565b60008151905061201b81611ff5565b92915050565b6000602082840312156120375761203661168f565b5b60006120458482850161200c565b91505092915050565b7f5472616e7366657248656c7065723a3a736166655472616e736665723a20747260008201527f616e73666572206661696c656400000000000000000000000000000000000000602082015250565b60006120aa602d8361193c565b91506120b58261204e565b604082019050919050565b600060208201905081810360008301526120d98161209d565b9050919050565b60006060820190506120f560008301866117ff565b61210260208301856117ff565b61210f6040830184611a62565b949350505050565b7f5472616e7366657248656c7065723a3a7472616e7366657246726f6d3a20747260008201527f616e7366657246726f6d206661696c6564000000000000000000000000000000602082015250565b600061217360318361193c565b915061217e82612117565b604082019050919050565b600060208201905081810360008301526121a281612166565b905091905056fea2646970667358221220c495ae514ca689fb51dd9300dbd050942d41fdb106eb1bd21a23d76c648534c264736f6c63430008080033",
  "linkReferences": {},
  "deployedLinkReferences": {}
}