{
  "_format": "hh-sol-artifact-1",
  "contractName": "BountyV0",
  "sourceName": "contracts/Bounty/Implementations/BountyV0.sol",
  "abi": [
    {
      "inputs": [],
      "stateMutability": "nonpayable",
      "type": "constructor"
    },
    {
      "stateMutability": "nonpayable",
      "type": "fallback"
    },
    {
      "inputs": [],
      "name": "bountyClosedTime",
      "outputs": [
        {
          "internalType": "uint256",
          "name": "",
          "type": "uint256"
        }
      ],
      "stateMutability": "view",
      "type": "function"
    },
    {
      "inputs": [],
      "name": "bountyCreatedTime",
      "outputs": [
        {
          "internalType": "uint256",
          "name": "",
          "type": "uint256"
        }
      ],
      "stateMutability": "view",
      "type": "function"
    },
    {
      "inputs": [],
      "name": "bountyId",
      "outputs": [
        {
          "internalType": "string",
          "name": "",
          "type": "string"
        }
      ],
      "stateMutability": "view",
      "type": "function"
    },
    {
      "inputs": [
        {
          "internalType": "address",
          "name": "_payoutAddress",
          "type": "address"
        },
        {
          "internalType": "address",
          "name": "_tokenAddress",
          "type": "address"
        }
      ],
      "name": "claimBalance",
      "outputs": [
        {
          "internalType": "uint256",
          "name": "",
          "type": "uint256"
        }
      ],
      "stateMutability": "nonpayable",
      "type": "function"
    },
    {
      "inputs": [
        {
          "internalType": "address",
          "name": "_payoutAddress",
          "type": "address"
        },
        {
          "internalType": "bytes32",
          "name": "_depositId",
          "type": "bytes32"
        }
      ],
      "name": "claimNft",
      "outputs": [],
      "stateMutability": "nonpayable",
      "type": "function"
    },
    {
      "inputs": [
        {
          "internalType": "address",
          "name": "_payoutAddress",
          "type": "address"
        }
      ],
      "name": "close",
      "outputs": [],
      "stateMutability": "nonpayable",
      "type": "function"
    },
    {
      "inputs": [],
      "name": "closer",
      "outputs": [
        {
          "internalType": "address",
          "name": "",
          "type": "address"
        }
      ],
      "stateMutability": "view",
      "type": "function"
    },
    {
      "inputs": [
        {
          "internalType": "bytes32",
          "name": "",
          "type": "bytes32"
        }
      ],
      "name": "depositTime",
      "outputs": [
        {
          "internalType": "uint256",
          "name": "",
          "type": "uint256"
        }
      ],
      "stateMutability": "view",
      "type": "function"
    },
    {
      "inputs": [
        {
          "internalType": "uint256",
          "name": "",
          "type": "uint256"
        }
      ],
      "name": "deposits",
      "outputs": [
        {
          "internalType": "bytes32",
          "name": "",
          "type": "bytes32"
        }
      ],
      "stateMutability": "view",
      "type": "function"
    },
    {
      "inputs": [
        {
          "internalType": "bytes32",
          "name": "",
          "type": "bytes32"
        }
      ],
      "name": "expiration",
      "outputs": [
        {
          "internalType": "uint256",
          "name": "",
          "type": "uint256"
        }
      ],
      "stateMutability": "view",
      "type": "function"
    },
    {
      "inputs": [
        {
          "internalType": "bytes32",
          "name": "_depositId",
          "type": "bytes32"
        },
        {
          "internalType": "uint256",
          "name": "_seconds",
          "type": "uint256"
        },
        {
          "internalType": "address",
          "name": "_funder",
          "type": "address"
        }
      ],
      "name": "extendDeposit",
      "outputs": [
        {
          "internalType": "uint256",
          "name": "",
          "type": "uint256"
        }
      ],
      "stateMutability": "nonpayable",
      "type": "function"
    },
    {
      "inputs": [
        {
          "internalType": "bytes32",
          "name": "",
          "type": "bytes32"
        }
      ],
      "name": "funder",
      "outputs": [
        {
          "internalType": "address",
          "name": "",
          "type": "address"
        }
      ],
      "stateMutability": "view",
      "type": "function"
    },
    {
      "inputs": [],
      "name": "getDeposits",
      "outputs": [
        {
          "internalType": "bytes32[]",
          "name": "",
          "type": "bytes32[]"
        }
      ],
      "stateMutability": "view",
      "type": "function"
    },
    {
      "inputs": [
        {
          "internalType": "address",
          "name": "_tokenAddress",
          "type": "address"
        }
      ],
      "name": "getERC20Balance",
      "outputs": [
        {
          "internalType": "uint256",
          "name": "balance",
          "type": "uint256"
        }
      ],
      "stateMutability": "view",
      "type": "function"
    },
    {
      "inputs": [],
      "name": "getNftDeposits",
      "outputs": [
        {
          "internalType": "bytes32[]",
          "name": "",
          "type": "bytes32[]"
        }
      ],
      "stateMutability": "view",
      "type": "function"
    },
    {
      "inputs": [],
      "name": "getTokenAddresses",
      "outputs": [
        {
          "internalType": "address[]",
          "name": "",
          "type": "address[]"
        }
      ],
      "stateMutability": "view",
      "type": "function"
    },
    {
      "inputs": [],
      "name": "getTokenAddressesCount",
      "outputs": [
        {
          "internalType": "uint256",
          "name": "",
          "type": "uint256"
        }
      ],
      "stateMutability": "view",
      "type": "function"
    },
    {
      "inputs": [
        {
          "internalType": "string",
          "name": "_bountyId",
          "type": "string"
        },
        {
          "internalType": "address",
          "name": "_issuer",
          "type": "address"
        },
        {
          "internalType": "string",
          "name": "_organization",
          "type": "string"
        },
        {
          "internalType": "address",
          "name": "_openQ",
          "type": "address"
        }
      ],
      "name": "initialize",
      "outputs": [],
      "stateMutability": "nonpayable",
      "type": "function"
    },
    {
      "inputs": [
        {
          "internalType": "bytes32",
          "name": "",
          "type": "bytes32"
        }
      ],
      "name": "isNFT",
      "outputs": [
        {
          "internalType": "bool",
          "name": "",
          "type": "bool"
        }
      ],
      "stateMutability": "view",
      "type": "function"
    },
    {
      "inputs": [],
      "name": "issuer",
      "outputs": [
        {
          "internalType": "address",
          "name": "",
          "type": "address"
        }
      ],
      "stateMutability": "view",
      "type": "function"
    },
    {
      "inputs": [],
      "name": "nftDepositLimit",
      "outputs": [
        {
          "internalType": "uint256",
          "name": "",
          "type": "uint256"
        }
      ],
      "stateMutability": "view",
      "type": "function"
    },
    {
      "inputs": [
        {
          "internalType": "uint256",
          "name": "",
          "type": "uint256"
        }
      ],
      "name": "nftDeposits",
      "outputs": [
        {
          "internalType": "bytes32",
          "name": "",
          "type": "bytes32"
        }
      ],
      "stateMutability": "view",
      "type": "function"
    },
    {
      "inputs": [
        {
          "internalType": "address",
          "name": "",
          "type": "address"
        },
        {
          "internalType": "address",
          "name": "",
          "type": "address"
        },
        {
          "internalType": "uint256",
          "name": "",
          "type": "uint256"
        },
        {
          "internalType": "bytes",
          "name": "",
          "type": "bytes"
        }
      ],
      "name": "onERC721Received",
      "outputs": [
        {
          "internalType": "bytes4",
          "name": "",
          "type": "bytes4"
        }
      ],
      "stateMutability": "pure",
      "type": "function"
    },
    {
      "inputs": [],
      "name": "openQ",
      "outputs": [
        {
          "internalType": "address",
          "name": "",
          "type": "address"
        }
      ],
      "stateMutability": "view",
      "type": "function"
    },
    {
      "inputs": [],
      "name": "organization",
      "outputs": [
        {
          "internalType": "string",
          "name": "",
          "type": "string"
        }
      ],
      "stateMutability": "view",
      "type": "function"
    },
    {
      "inputs": [
        {
          "internalType": "bytes32",
          "name": "",
          "type": "bytes32"
        }
      ],
      "name": "payoutAddress",
      "outputs": [
        {
          "internalType": "address",
          "name": "",
          "type": "address"
        }
      ],
      "stateMutability": "view",
      "type": "function"
    },
    {
      "inputs": [
        {
          "internalType": "address",
          "name": "_funder",
          "type": "address"
        },
        {
          "internalType": "address",
          "name": "_tokenAddress",
          "type": "address"
        },
        {
          "internalType": "uint256",
          "name": "_volume",
          "type": "uint256"
        },
        {
          "internalType": "uint256",
          "name": "_expiration",
          "type": "uint256"
        }
      ],
      "name": "receiveFunds",
      "outputs": [
        {
          "internalType": "bytes32",
          "name": "",
          "type": "bytes32"
        },
        {
          "internalType": "uint256",
          "name": "",
          "type": "uint256"
        }
      ],
      "stateMutability": "payable",
      "type": "function"
    },
    {
      "inputs": [
        {
          "internalType": "address",
          "name": "_sender",
          "type": "address"
        },
        {
          "internalType": "address",
          "name": "_tokenAddress",
          "type": "address"
        },
        {
          "internalType": "uint256",
          "name": "_tokenId",
          "type": "uint256"
        },
        {
          "internalType": "uint256",
          "name": "_expiration",
          "type": "uint256"
        }
      ],
      "name": "receiveNft",
      "outputs": [
        {
          "internalType": "bytes32",
          "name": "",
          "type": "bytes32"
        }
      ],
      "stateMutability": "nonpayable",
      "type": "function"
    },
    {
      "inputs": [
        {
          "internalType": "bytes32",
          "name": "_depositId",
          "type": "bytes32"
        },
        {
          "internalType": "address",
          "name": "_funder",
          "type": "address"
        }
      ],
      "name": "refundDeposit",
      "outputs": [],
      "stateMutability": "nonpayable",
      "type": "function"
    },
    {
      "inputs": [
        {
          "internalType": "bytes32",
          "name": "",
          "type": "bytes32"
        }
      ],
      "name": "refunded",
      "outputs": [
        {
          "internalType": "bool",
          "name": "",
          "type": "bool"
        }
      ],
      "stateMutability": "view",
      "type": "function"
    },
    {
      "inputs": [],
      "name": "status",
      "outputs": [
        {
          "internalType": "uint256",
          "name": "",
          "type": "uint256"
        }
      ],
      "stateMutability": "view",
      "type": "function"
    },
    {
      "inputs": [
        {
          "internalType": "bytes32",
          "name": "",
          "type": "bytes32"
        }
      ],
      "name": "tokenAddress",
      "outputs": [
        {
          "internalType": "address",
          "name": "",
          "type": "address"
        }
      ],
      "stateMutability": "view",
      "type": "function"
    },
    {
      "inputs": [
        {
          "internalType": "bytes32",
          "name": "",
          "type": "bytes32"
        }
      ],
      "name": "tokenId",
      "outputs": [
        {
          "internalType": "uint256",
          "name": "",
          "type": "uint256"
        }
      ],
      "stateMutability": "view",
      "type": "function"
    },
    {
      "inputs": [
        {
          "internalType": "bytes32",
          "name": "",
          "type": "bytes32"
        }
      ],
      "name": "volume",
      "outputs": [
        {
          "internalType": "uint256",
          "name": "",
          "type": "uint256"
        }
      ],
      "stateMutability": "view",
      "type": "function"
    },
    {
      "stateMutability": "payable",
      "type": "receive"
    }
  ],
  "bytecode": "0x608060405234801561001057600080fd5b5061235e806100206000396000f3fe6080604052600436106101fd5760003560e01c8063968b098f1161010d578063c74073a1116100a0578063e129b3331161006f578063e129b3331461066b578063e83963eb1461068b578063ee8c24b8146106ab578063f05e0f7e146106cd578063f2321725146106fd57610204565b8063c74073a1146105ed578063cb2da3db1461060d578063cb4436b71461062d578063d6fe0f441461064357610204565b8063b588d225116100dc578063b588d2251461056d578063b99bb9901461058d578063c17bd75e146105c3578063c5b6e705146105d857610204565b8063968b098f146104d457806397bb3ce914610501578063995280b014610537578063b02c43d01461054d57610204565b806323bd4d7a116101905780636b149d871161015f5780636b149d871461043f5780637044f2821461046157806371ec4ebf1461048157806377ede8a6146104a15780637dc81fa2146104b657610204565b806323bd4d7a1461039a57806356406fa5146103bc57806359ba8344146103e9578063641411f81461041f57610204565b80631d143848116101cc5780631d143848146102ea5780631ecfacee14610322578063200d2ed214610344578063235b2b941461035a57610204565b80630961413d14610216578063150b7a021461023f5780631595eea41461029d5780631bc5fc96146102ca57610204565b3661020457005b34801561021057600080fd5b50600080fd5b34801561022257600080fd5b5061022c606d5481565b6040519081526020015b60405180910390f35b34801561024b57600080fd5b5061028461025a366004611d1a565b7f150b7a023d4804d13e8c85fb27262cb750cf6ba9f9dd3bb30d90f482ceeb4b1f95945050505050565b6040516001600160e01b03199091168152602001610236565b3480156102a957600080fd5b5061022c6102b8366004611db5565b60706020526000908152604090205481565b3480156102d657600080fd5b5061022c6102e5366004611db5565b61072a565b3480156102f657600080fd5b5060695461030a906001600160a01b031681565b6040516001600160a01b039091168152602001610236565b34801561032e57600080fd5b5061034261033d366004611e71565b61074b565b005b34801561035057600080fd5b5061022c606c5481565b34801561036657600080fd5b5061038a610375366004611db5565b60766020526000908152604090205460ff1681565b6040519015158152602001610236565b3480156103a657600080fd5b506103af61090b565b6040516102369190611f22565b3480156103c857600080fd5b5061022c6103d7366004611db5565b60756020526000908152604090205481565b3480156103f557600080fd5b5061030a610404366004611db5565b606e602052600090815260409020546001600160a01b031681565b34801561042b57600080fd5b5061034261043a366004611f55565b610999565b34801561044b57600080fd5b50610454610c1e565b6040516102369190611f81565b34801561046d57600080fd5b50606b5461030a906001600160a01b031681565b34801561048d57600080fd5b5061034261049c366004611fc5565b610c76565b3480156104ad57600080fd5b50610454610d49565b3480156104c257600080fd5b506065546001600160a01b031661030a565b3480156104e057600080fd5b5061022c6104ef366004611db5565b60716020526000908152604090205481565b34801561050d57600080fd5b5061030a61051c366004611db5565b606f602052600090815260409020546001600160a01b031681565b34801561054357600080fd5b5061022c60675481565b34801561055957600080fd5b5061022c610568366004611db5565b610d9f565b34801561057957600080fd5b5061022c610588366004611fef565b610daf565b34801561059957600080fd5b5061030a6105a8366004611db5565b6073602052600090815260409020546001600160a01b031681565b3480156105cf57600080fd5b506103af610e23565b3480156105e457600080fd5b5061022c610e30565b3480156105f957600080fd5b50610342610608366004611fef565b610e42565b34801561061957600080fd5b5061022c61062836600461200a565b610f47565b34801561063957600080fd5b5061022c60685481565b610656610651366004612034565b610fe6565b60408051928352602083019190915201610236565b34801561067757600080fd5b5061022c610686366004612034565b6111c9565b34801561069757600080fd5b5061022c6106a6366004612076565b6113c0565b3480156106b757600080fd5b506106c0611560565b60405161023691906120ab565b3480156106d957600080fd5b5061038a6106e8366004611db5565b60726020526000908152604090205460ff1681565b34801561070957600080fd5b5061022c610718366004611db5565b60746020526000908152604090205481565b6078818154811061073a57600080fd5b600091825260209091200154905081565b600054610100900460ff166107665760005460ff161561076a565b303b155b6107d25760405162461bcd60e51b815260206004820152602e60248201527f496e697469616c697a61626c653a20636f6e747261637420697320616c72656160448201526d191e481a5b9a5d1a585b1a5e995960921b60648201526084015b60405180910390fd5b600054610100900460ff161580156107f4576000805461ffff19166101011790555b845160000361083a5760405162461bcd60e51b81526020600482015260126024820152711393d7d15354151657d093d553951657d25160721b60448201526064016107c9565b82516000036108835760405162461bcd60e51b81526020600482015260156024820152742727afa2a6a82a2cafa7a923a0a724ad20aa24a7a760591b60448201526064016107c9565b61088b611571565b606580546001600160a01b0319166001600160a01b03841617905584516108b9906066906020880190611c65565b50606980546001600160a01b0319166001600160a01b03861617905582516108e890606a906020860190611c65565b50426067556005606d558015610904576000805461ff00191690555b5050505050565b606a8054610918906120ec565b80601f0160208091040260200160405190810160405280929190818152602001828054610944906120ec565b80156109915780601f1061096657610100808354040283529160200191610991565b820191906000526020600020905b81548152906001019060200180831161097457829003601f168201915b505050505081565b6065546001600160a01b0316336001600160a01b0316146109cc5760405162461bcd60e51b81526004016107c990612126565b6002600154036109ee5760405162461bcd60e51b81526004016107c99061215b565b600260015560008281526072602052604090205460ff1615610a4d5760405162461bcd60e51b815260206004820152601860248201527711115413d4d25517d053149150511657d49151955391115160421b60448201526064016107c9565b6000828152606e60205260409020546001600160a01b03828116911614610ab65760405162461bcd60e51b815260206004820152601e60248201527f4f4e4c595f46554e4445525f43414e5f524551554553545f524546554e44000060448201526064016107c9565b600082815260756020908152604080832054607190925290912054610ada916115a2565b421015610b295760405162461bcd60e51b815260206004820152601860248201527f5052454d41545552455f524546554e445f52455155455354000000000000000060448201526064016107c9565b6000828152607260209081526040808320805460ff19166001179055606f9091529020546001600160a01b0316610b8d576000828152606e6020908152604080832054607090925290912054610b88916001600160a01b0316906115b7565b610c16565b60008281526076602052604090205460ff1615610bdd576000828152606f6020908152604080832054606e8352818420546074909352922054610b88926001600160a01b039081169216906115ce565b6000828152606f6020908152604080832054606e8352818420546070909352922054610c16926001600160a01b03908116921690611640565b505060018055565b60606077805480602002602001604051908101604052809291908181526020018280548015610c6c57602002820191906000526020600020905b815481526020019060010190808311610c58575b5050505050905090565b6065546001600160a01b0316336001600160a01b031614610ca95760405162461bcd60e51b81526004016107c990612126565b600260015403610ccb5760405162461bcd60e51b81526004016107c99061215b565b6002600155606c5415610d195760405162461bcd60e51b8152602060048201526016602482015275434c41494d494e475f434c4f5345445f424f554e545960501b60448201526064016107c9565b6000818152606f6020908152604080832054607490925290912054610c16916001600160a01b03169084906115ce565b60606078805480602002602001604051908101604052809291908181526020018280548015610c6c5760200282019190600052602060002090815481526020019060010190808311610c58575050505050905090565b6077818154811061073a57600080fd5b6040516370a0823160e01b815230600482015260009082906001600160a01b038216906370a0823190602401602060405180830381865afa158015610df8573d6000803e3d6000fd5b505050506040513d601f19601f82011682018060405250810190610e1c9190612192565b9392505050565b60668054610918906120ec565b6000610e3c607961165b565b51905090565b6065546001600160a01b0316336001600160a01b031614610e755760405162461bcd60e51b81526004016107c990612126565b306001600160a01b031663200d2ed26040518163ffffffff1660e01b8152600401602060405180830381865afa158015610eb3573d6000803e3d6000fd5b505050506040513d601f19601f82011682018060405250810190610ed79190612192565b15610f1c5760405162461bcd60e51b8152602060048201526015602482015274434c4f53494e475f434c4f5345445f424f554e545960581b60448201526064016107c9565b6001606c55606b80546001600160a01b0319166001600160a01b039290921691909117905542606855565b6065546000906001600160a01b0316336001600160a01b031614610f7d5760405162461bcd60e51b81526004016107c990612126565b600260015403610f9f5760405162461bcd60e51b81526004016107c99061215b565b600260015560006001600160a01b038316610fc5575047610fc084826115b7565b610fdb565b610fce83610daf565b9050610fdb838583611640565b600180559392505050565b60655460009081906001600160a01b0316336001600160a01b03161461101e5760405162461bcd60e51b81526004016107c990612126565b6002600154036110405760405162461bcd60e51b81526004016107c99061215b565b600260015560008490036110895760405162461bcd60e51b815260206004820152601060248201526f16915493d7d593d315535157d4d1539560821b60448201526064016107c9565b600083116110d95760405162461bcd60e51b815260206004820181905260248201527f45585049524154494f4e5f4e4f545f475245415445525f5448414e5f5a45524f60448201526064016107c9565b60006110e3611668565b905060006001600160a01b0387166110fc57503461110a565b61110787898861169c565b90505b6000828152606e6020908152604080832080546001600160a01b03808e166001600160a01b031992831617909255606f84528285208054928d169290911691909117905560708252808320849055607182528083204290556075825280832088905560769091528120805460ff191690556077805460018101825591527f7901cb5addcae2d210a531c604a76a660d77039093bac314de0816a16392aff1018290556111b7607988611732565b50600180559097909650945050505050565b6065546000906001600160a01b0316336001600160a01b0316146111ff5760405162461bcd60e51b81526004016107c990612126565b6002600154036112215760405162461bcd60e51b81526004016107c99061215b565b6002600155606d54607854106112795760405162461bcd60e51b815260206004820152601960248201527f4e46545f4445504f5349545f4c494d49545f524541434845440000000000000060448201526064016107c9565b600082116112c95760405162461bcd60e51b815260206004820181905260248201527f45585049524154494f4e5f4e4f545f475245415445525f5448414e5f5a45524f60448201526064016107c9565b6112d4848685611747565b60006112de611668565b6000818152606e6020908152604080832080546001600160a01b039b8c166001600160a01b031991821617909155606f835281842080549a909b16991698909817909855607188528681204290556074885286812095909555607587528585209390935550506076909352908120805460ff19166001908117909155607780548083019091557f7901cb5addcae2d210a531c604a76a660d77039093bac314de0816a16392aff10183905560788054808301825592527f8dc6fb69531d98d70dc0420e638d2dfd04e09e1ec783ede9aac77da9c5a0dac4909101829055805590565b6065546000906001600160a01b0316336001600160a01b0316146113f65760405162461bcd60e51b81526004016107c990612126565b6002600154036114185760405162461bcd60e51b81526004016107c99061215b565b6002600155606c541561145d5760405162461bcd60e51b815260206004820152600d60248201526c434c4f5345445f424f554e545960981b60448201526064016107c9565b60008481526072602052604090205460ff16156114b75760405162461bcd60e51b815260206004820152601860248201527711115413d4d25517d053149150511657d49151955391115160421b60448201526064016107c9565b6000848152606e60205260409020546001600160a01b0383811691161461152a5760405162461bcd60e51b815260206004820152602160248201527f4f4e4c595f46554e4445525f43414e5f524551554553545f455854454e53494f6044820152602760f91b60648201526084016107c9565b6000848152607560205260409020546115449084906121c1565b6000948552607560205260409094208490555050600180555090565b606061156c607961165b565b905090565b600054610100900460ff166115985760405162461bcd60e51b81526004016107c9906121d9565b6115a0611785565b565b60006115ae82846121c1565b90505b92915050565b6115ca6001600160a01b038316826117b2565b5050565b604051632142170760e11b81523060048201526001600160a01b038381166024830152604482018390528491908216906342842e0e906064015b600060405180830381600087803b15801561162257600080fd5b505af1158015611636573d6000803e3d6000fd5b5050505050505050565b826116556001600160a01b03821684846118d0565b50505050565b60606000610e1c83611933565b6077546040516000916116819160669190602001612224565b60405160208183030381529060405280519060200120905090565b6000806116a885610daf565b9050846116c06001600160a01b03821686308761198f565b60006116cb87610daf565b90508281101561171d5760405162461bcd60e51b815260206004820152601a60248201527f544f4b454e5f5452414e534645525f494e5f4f564552464c4f5700000000000060448201526064016107c9565b61172781846119c7565b979650505050505050565b60006115ae836001600160a01b0384166119d3565b604051632142170760e11b81526001600160a01b038381166004830152306024830152604482018390528491908216906342842e0e90606401611608565b600054610100900460ff166117ac5760405162461bcd60e51b81526004016107c9906121d9565b60018055565b804710156118025760405162461bcd60e51b815260206004820152601d60248201527f416464726573733a20696e73756666696369656e742062616c616e636500000060448201526064016107c9565b6000826001600160a01b03168260405160006040518083038185875af1925050503d806000811461184f576040519150601f19603f3d011682016040523d82523d6000602084013e611854565b606091505b50509050806118cb5760405162461bcd60e51b815260206004820152603a60248201527f416464726573733a20756e61626c6520746f2073656e642076616c75652c207260448201527f6563697069656e74206d6179206861766520726576657274656400000000000060648201526084016107c9565b505050565b6040516001600160a01b0383166024820152604481018290526118cb90849063a9059cbb60e01b906064015b60408051601f198184030181529190526020810180516001600160e01b03166001600160e01b031990931692909217909152611a22565b60608160000180548060200260200160405190810160405280929190818152602001828054801561198357602002820191906000526020600020905b81548152602001906001019080831161196f575b50505050509050919050565b6040516001600160a01b03808516602483015283166044820152606481018290526116559085906323b872dd60e01b906084016118fc565b60006115ae82846122d3565b6000818152600183016020526040812054611a1a575081546001818101845560008481526020808220909301849055845484825282860190935260409020919091556115b1565b5060006115b1565b6000611a77826040518060400160405280602081526020017f5361666545524332303a206c6f772d6c6576656c2063616c6c206661696c6564815250856001600160a01b0316611af49092919063ffffffff16565b8051909150156118cb5780806020019051810190611a9591906122ea565b6118cb5760405162461bcd60e51b815260206004820152602a60248201527f5361666545524332303a204552433230206f7065726174696f6e20646964206e6044820152691bdd081cdd58d8d9595960b21b60648201526084016107c9565b6060611b038484600085611b0b565b949350505050565b606082471015611b6c5760405162461bcd60e51b815260206004820152602660248201527f416464726573733a20696e73756666696369656e742062616c616e636520666f6044820152651c8818d85b1b60d21b60648201526084016107c9565b6001600160a01b0385163b611bc35760405162461bcd60e51b815260206004820152601d60248201527f416464726573733a2063616c6c20746f206e6f6e2d636f6e747261637400000060448201526064016107c9565b600080866001600160a01b03168587604051611bdf919061230c565b60006040518083038185875af1925050503d8060008114611c1c576040519150601f19603f3d011682016040523d82523d6000602084013e611c21565b606091505b509150915061172782828660608315611c3b575081610e1c565b825115611c4b5782518084602001fd5b8160405162461bcd60e51b81526004016107c99190611f22565b828054611c71906120ec565b90600052602060002090601f016020900481019282611c935760008555611cd9565b82601f10611cac57805160ff1916838001178555611cd9565b82800160010185558215611cd9579182015b82811115611cd9578251825591602001919060010190611cbe565b50611ce5929150611ce9565b5090565b5b80821115611ce55760008155600101611cea565b80356001600160a01b0381168114611d1557600080fd5b919050565b600080600080600060808688031215611d3257600080fd5b611d3b86611cfe565b9450611d4960208701611cfe565b935060408601359250606086013567ffffffffffffffff80821115611d6d57600080fd5b818801915088601f830112611d8157600080fd5b813581811115611d9057600080fd5b896020828501011115611da257600080fd5b9699959850939650602001949392505050565b600060208284031215611dc757600080fd5b5035919050565b634e487b7160e01b600052604160045260246000fd5b600082601f830112611df557600080fd5b813567ffffffffffffffff80821115611e1057611e10611dce565b604051601f8301601f19908116603f01168101908282118183101715611e3857611e38611dce565b81604052838152866020858801011115611e5157600080fd5b836020870160208301376000602085830101528094505050505092915050565b60008060008060808587031215611e8757600080fd5b843567ffffffffffffffff80821115611e9f57600080fd5b611eab88838901611de4565b9550611eb960208801611cfe565b94506040870135915080821115611ecf57600080fd5b50611edc87828801611de4565b925050611eeb60608601611cfe565b905092959194509250565b60005b83811015611f11578181015183820152602001611ef9565b838111156116555750506000910152565b6020815260008251806020840152611f41816040850160208701611ef6565b601f01601f19169190910160400192915050565b60008060408385031215611f6857600080fd5b82359150611f7860208401611cfe565b90509250929050565b6020808252825182820181905260009190848201906040850190845b81811015611fb957835183529284019291840191600101611f9d565b50909695505050505050565b60008060408385031215611fd857600080fd5b611fe183611cfe565b946020939093013593505050565b60006020828403121561200157600080fd5b6115ae82611cfe565b6000806040838503121561201d57600080fd5b61202683611cfe565b9150611f7860208401611cfe565b6000806000806080858703121561204a57600080fd5b61205385611cfe565b935061206160208601611cfe565b93969395505050506040820135916060013590565b60008060006060848603121561208b57600080fd5b83359250602084013591506120a260408501611cfe565b90509250925092565b6020808252825182820181905260009190848201906040850190845b81811015611fb95783516001600160a01b0316835292840192918401916001016120c7565b600181811c9082168061210057607f821691505b60208210810361212057634e487b7160e01b600052602260045260246000fd5b50919050565b6020808252818101527f4d6574686f64206973206f6e6c792063616c6c61626c65206279204f70656e51604082015260600190565b6020808252601f908201527f5265656e7472616e637947756172643a207265656e7472616e742063616c6c00604082015260600190565b6000602082840312156121a457600080fd5b5051919050565b634e487b7160e01b600052601160045260246000fd5b600082198211156121d4576121d46121ab565b500190565b6020808252602b908201527f496e697469616c697a61626c653a20636f6e7472616374206973206e6f74206960408201526a6e697469616c697a696e6760a81b606082015260800190565b60408152600080845481600182811c91508083168061224457607f831692505b6020808410820361226357634e487b7160e01b86526022600452602486fd5b60408801849052606088018280156122825760018114612293576122be565b60ff198716825282820197506122be565b60008c81526020902060005b878110156122b85781548482015290860190840161229f565b83019850505b50509690960196909652509095945050505050565b6000828210156122e5576122e56121ab565b500390565b6000602082840312156122fc57600080fd5b81518015158114610e1c57600080fd5b6000825161231e818460208701611ef6565b919091019291505056fea2646970667358221220ca1d8212fb40c34a0335a378dfca7cf1ee7a123110d92f144f72394412847f8f64736f6c634300080d0033",
  "linkReferences": {},
  "deployedLinkReferences": {}
}