{
  "_format": "hh-sol-artifact-1",
  "contractName": "OpenQV0",
  "sourceName": "contracts/OpenQ/Implementations/OpenQV0.sol",
  "abi": [
    {
      "inputs": [],
      "stateMutability": "nonpayable",
      "type": "constructor"
    },
    {
      "anonymous": false,
      "inputs": [
        {
          "indexed": false,
          "internalType": "address",
          "name": "previousAdmin",
          "type": "address"
        },
        {
          "indexed": false,
          "internalType": "address",
          "name": "newAdmin",
          "type": "address"
        }
      ],
      "name": "AdminChanged",
      "type": "event"
    },
    {
      "anonymous": false,
      "inputs": [
        {
          "indexed": true,
          "internalType": "address",
          "name": "beacon",
          "type": "address"
        }
      ],
      "name": "BeaconUpgraded",
      "type": "event"
    },
    {
      "anonymous": false,
      "inputs": [
        {
          "indexed": false,
          "internalType": "string",
          "name": "bountyId",
          "type": "string"
        },
        {
          "indexed": true,
          "internalType": "address",
          "name": "bountyAddress",
          "type": "address"
        },
        {
          "indexed": false,
          "internalType": "string",
          "name": "organization",
          "type": "string"
        },
        {
          "indexed": false,
          "internalType": "address",
          "name": "closer",
          "type": "address"
        },
        {
          "indexed": false,
          "internalType": "uint256",
          "name": "bountyClosedTime",
          "type": "uint256"
        },
        {
          "indexed": false,
          "internalType": "string",
          "name": "closerData",
          "type": "string"
        }
      ],
      "name": "BountyClosed",
      "type": "event"
    },
    {
      "anonymous": false,
      "inputs": [
        {
          "indexed": false,
          "internalType": "string",
          "name": "bountyId",
          "type": "string"
        },
        {
          "indexed": false,
          "internalType": "string",
          "name": "organization",
          "type": "string"
        },
        {
          "indexed": false,
          "internalType": "address",
          "name": "issuerAddress",
          "type": "address"
        },
        {
          "indexed": true,
          "internalType": "address",
          "name": "bountyAddress",
          "type": "address"
        },
        {
          "indexed": false,
          "internalType": "uint256",
          "name": "bountyMintTime",
          "type": "uint256"
        }
      ],
      "name": "BountyCreated",
      "type": "event"
    },
    {
      "anonymous": false,
      "inputs": [
        {
          "indexed": false,
          "internalType": "bytes32",
          "name": "depositId",
          "type": "bytes32"
        },
        {
          "indexed": false,
          "internalType": "uint256",
          "name": "newExpiration",
          "type": "uint256"
        }
      ],
      "name": "DepositExtended",
      "type": "event"
    },
    {
      "anonymous": false,
      "inputs": [
        {
          "indexed": false,
          "internalType": "bytes32",
          "name": "depositId",
          "type": "bytes32"
        },
        {
          "indexed": false,
          "internalType": "string",
          "name": "bountyId",
          "type": "string"
        },
        {
          "indexed": true,
          "internalType": "address",
          "name": "bountyAddress",
          "type": "address"
        },
        {
          "indexed": false,
          "internalType": "string",
          "name": "organization",
          "type": "string"
        },
        {
          "indexed": false,
          "internalType": "uint256",
          "name": "refundTime",
          "type": "uint256"
        }
      ],
      "name": "DepositRefunded",
      "type": "event"
    },
    {
      "anonymous": false,
      "inputs": [
        {
          "indexed": false,
          "internalType": "bytes32",
          "name": "depositId",
          "type": "bytes32"
        },
        {
          "indexed": true,
          "internalType": "address",
          "name": "bountyAddress",
          "type": "address"
        },
        {
          "indexed": false,
          "internalType": "string",
          "name": "bountyId",
          "type": "string"
        },
        {
          "indexed": false,
          "internalType": "string",
          "name": "organization",
          "type": "string"
        },
        {
          "indexed": false,
          "internalType": "address",
          "name": "tokenAddress",
          "type": "address"
        },
        {
          "indexed": false,
          "internalType": "uint256",
          "name": "receiveTime",
          "type": "uint256"
        },
        {
          "indexed": false,
          "internalType": "address",
          "name": "sender",
          "type": "address"
        },
        {
          "indexed": false,
          "internalType": "uint256",
          "name": "expiration",
          "type": "uint256"
        },
        {
          "indexed": false,
          "internalType": "uint256",
          "name": "tokenId",
          "type": "uint256"
        }
      ],
      "name": "NFTDepositReceived",
      "type": "event"
    },
    {
      "anonymous": false,
      "inputs": [
        {
          "indexed": true,
          "internalType": "address",
          "name": "previousOracle",
          "type": "address"
        },
        {
          "indexed": true,
          "internalType": "address",
          "name": "newOracle",
          "type": "address"
        }
      ],
      "name": "OracleTransferred",
      "type": "event"
    },
    {
      "anonymous": false,
      "inputs": [
        {
          "indexed": true,
          "internalType": "address",
          "name": "previousOwner",
          "type": "address"
        },
        {
          "indexed": true,
          "internalType": "address",
          "name": "newOwner",
          "type": "address"
        }
      ],
      "name": "OwnershipTransferred",
      "type": "event"
    },
    {
      "anonymous": false,
      "inputs": [
        {
          "indexed": false,
          "internalType": "string",
          "name": "bountyId",
          "type": "string"
        },
        {
          "indexed": true,
          "internalType": "address",
          "name": "bountyAddress",
          "type": "address"
        },
        {
          "indexed": false,
          "internalType": "string",
          "name": "organization",
          "type": "string"
        },
        {
          "indexed": false,
          "internalType": "address",
          "name": "closer",
          "type": "address"
        },
        {
          "indexed": false,
          "internalType": "uint256",
          "name": "payoutTime",
          "type": "uint256"
        },
        {
          "indexed": false,
          "internalType": "address",
          "name": "tokenAddress",
          "type": "address"
        },
        {
          "indexed": false,
          "internalType": "uint256",
          "name": "volume",
          "type": "uint256"
        }
      ],
      "name": "TokenBalanceClaimed",
      "type": "event"
    },
    {
      "anonymous": false,
      "inputs": [
        {
          "indexed": false,
          "internalType": "bytes32",
          "name": "depositId",
          "type": "bytes32"
        },
        {
          "indexed": true,
          "internalType": "address",
          "name": "bountyAddress",
          "type": "address"
        },
        {
          "indexed": false,
          "internalType": "string",
          "name": "bountyId",
          "type": "string"
        },
        {
          "indexed": false,
          "internalType": "string",
          "name": "organization",
          "type": "string"
        },
        {
          "indexed": false,
          "internalType": "address",
          "name": "tokenAddress",
          "type": "address"
        },
        {
          "indexed": false,
          "internalType": "uint256",
          "name": "receiveTime",
          "type": "uint256"
        },
        {
          "indexed": false,
          "internalType": "address",
          "name": "sender",
          "type": "address"
        },
        {
          "indexed": false,
          "internalType": "uint256",
          "name": "expiration",
          "type": "uint256"
        },
        {
          "indexed": false,
          "internalType": "uint256",
          "name": "volume",
          "type": "uint256"
        }
      ],
      "name": "TokenDepositReceived",
      "type": "event"
    },
    {
      "anonymous": false,
      "inputs": [
        {
          "indexed": true,
          "internalType": "address",
          "name": "implementation",
          "type": "address"
        }
      ],
      "name": "Upgraded",
      "type": "event"
    },
    {
      "inputs": [
        {
          "internalType": "address",
          "name": "_bountyAddress",
          "type": "address"
        }
      ],
      "name": "bountyAddressToBountyId",
      "outputs": [
        {
          "internalType": "string",
          "name": "",
          "type": "string"
        }
      ],
      "stateMutability": "view",
      "type": "function"
    },
    {
      "inputs": [],
      "name": "bountyFactory",
      "outputs": [
        {
          "internalType": "contract BountyFactory",
          "name": "",
          "type": "address"
        }
      ],
      "stateMutability": "view",
      "type": "function"
    },
    {
      "inputs": [
        {
          "internalType": "string",
          "name": "",
          "type": "string"
        }
      ],
      "name": "bountyIdToAddress",
      "outputs": [
        {
          "internalType": "address",
          "name": "",
          "type": "address"
        }
      ],
      "stateMutability": "view",
      "type": "function"
    },
    {
      "inputs": [
        {
          "internalType": "string",
          "name": "_bountyId",
          "type": "string"
        }
      ],
      "name": "bountyIsOpen",
      "outputs": [
        {
          "internalType": "bool",
          "name": "",
          "type": "bool"
        }
      ],
      "stateMutability": "view",
      "type": "function"
    },
    {
      "inputs": [
        {
          "internalType": "string",
          "name": "_bountyId",
          "type": "string"
        },
        {
          "internalType": "address",
          "name": "_closer",
          "type": "address"
        },
        {
          "internalType": "string",
          "name": "_closerData",
          "type": "string"
        }
      ],
      "name": "claimBounty",
      "outputs": [],
      "stateMutability": "nonpayable",
      "type": "function"
    },
    {
      "inputs": [
        {
          "internalType": "string",
          "name": "_bountyId",
          "type": "string"
        },
        {
          "internalType": "bytes32",
          "name": "_depositId",
          "type": "bytes32"
        },
        {
          "internalType": "uint256",
          "name": "_seconds",
          "type": "uint256"
        }
      ],
      "name": "extendDeposit",
      "outputs": [],
      "stateMutability": "nonpayable",
      "type": "function"
    },
    {
      "inputs": [
        {
          "internalType": "string",
          "name": "_bountyId",
          "type": "string"
        },
        {
          "internalType": "address",
          "name": "_tokenAddress",
          "type": "address"
        },
        {
          "internalType": "uint256",
          "name": "_tokenId",
          "type": "uint256"
        },
        {
          "internalType": "uint256",
          "name": "_expiration",
          "type": "uint256"
        }
      ],
      "name": "fundBountyNFT",
      "outputs": [],
      "stateMutability": "nonpayable",
      "type": "function"
    },
    {
      "inputs": [
        {
          "internalType": "string",
          "name": "_bountyId",
          "type": "string"
        },
        {
          "internalType": "address",
          "name": "_tokenAddress",
          "type": "address"
        },
        {
          "internalType": "uint256",
          "name": "_volume",
          "type": "uint256"
        },
        {
          "internalType": "uint256",
          "name": "_expiration",
          "type": "uint256"
        }
      ],
      "name": "fundBountyToken",
      "outputs": [],
      "stateMutability": "payable",
      "type": "function"
    },
    {
      "inputs": [],
      "name": "getImplementation",
      "outputs": [
        {
          "internalType": "address",
          "name": "",
          "type": "address"
        }
      ],
      "stateMutability": "view",
      "type": "function"
    },
    {
      "inputs": [
        {
          "internalType": "address",
          "name": "oracle",
          "type": "address"
        }
      ],
      "name": "initialize",
      "outputs": [],
      "stateMutability": "nonpayable",
      "type": "function"
    },
    {
      "inputs": [
        {
          "internalType": "address",
          "name": "_tokenAddress",
          "type": "address"
        }
      ],
      "name": "isWhitelisted",
      "outputs": [
        {
          "internalType": "bool",
          "name": "",
          "type": "bool"
        }
      ],
      "stateMutability": "view",
      "type": "function"
    },
    {
      "inputs": [
        {
          "internalType": "string",
          "name": "_bountyId",
          "type": "string"
        },
        {
          "internalType": "string",
          "name": "_organization",
          "type": "string"
        }
      ],
      "name": "mintBounty",
      "outputs": [
        {
          "internalType": "address",
          "name": "",
          "type": "address"
        }
      ],
      "stateMutability": "nonpayable",
      "type": "function"
    },
    {
      "inputs": [],
      "name": "openQTokenWhitelist",
      "outputs": [
        {
          "internalType": "contract OpenQTokenWhitelist",
          "name": "",
          "type": "address"
        }
      ],
      "stateMutability": "view",
      "type": "function"
    },
    {
      "inputs": [],
      "name": "oracle",
      "outputs": [
        {
          "internalType": "address",
          "name": "",
          "type": "address"
        }
      ],
      "stateMutability": "view",
      "type": "function"
    },
    {
      "inputs": [],
      "name": "owner",
      "outputs": [
        {
          "internalType": "address",
          "name": "",
          "type": "address"
        }
      ],
      "stateMutability": "view",
      "type": "function"
    },
    {
      "inputs": [],
      "name": "proxiableUUID",
      "outputs": [
        {
          "internalType": "bytes32",
          "name": "",
          "type": "bytes32"
        }
      ],
      "stateMutability": "view",
      "type": "function"
    },
    {
      "inputs": [
        {
          "internalType": "string",
          "name": "_bountyId",
          "type": "string"
        },
        {
          "internalType": "bytes32",
          "name": "_depositId",
          "type": "bytes32"
        }
      ],
      "name": "refundDeposit",
      "outputs": [],
      "stateMutability": "nonpayable",
      "type": "function"
    },
    {
      "inputs": [],
      "name": "renounceOwnership",
      "outputs": [],
      "stateMutability": "nonpayable",
      "type": "function"
    },
    {
      "inputs": [
        {
          "internalType": "address",
          "name": "_bountyFactory",
          "type": "address"
        }
      ],
      "name": "setBountyFactory",
      "outputs": [],
      "stateMutability": "nonpayable",
      "type": "function"
    },
    {
      "inputs": [
        {
          "internalType": "address",
          "name": "_openQTokenWhitelist",
          "type": "address"
        }
      ],
      "name": "setTokenWhitelist",
      "outputs": [],
      "stateMutability": "nonpayable",
      "type": "function"
    },
    {
      "inputs": [
        {
          "internalType": "string",
          "name": "_bountyId",
          "type": "string"
        }
      ],
      "name": "tokenAddressLimitReached",
      "outputs": [
        {
          "internalType": "bool",
          "name": "",
          "type": "bool"
        }
      ],
      "stateMutability": "view",
      "type": "function"
    },
    {
      "inputs": [
        {
          "internalType": "address",
          "name": "_newOracle",
          "type": "address"
        }
      ],
      "name": "transferOracle",
      "outputs": [],
      "stateMutability": "nonpayable",
      "type": "function"
    },
    {
      "inputs": [
        {
          "internalType": "address",
          "name": "newOwner",
          "type": "address"
        }
      ],
      "name": "transferOwnership",
      "outputs": [],
      "stateMutability": "nonpayable",
      "type": "function"
    },
    {
      "inputs": [
        {
          "internalType": "address",
          "name": "newImplementation",
          "type": "address"
        }
      ],
      "name": "upgradeTo",
      "outputs": [],
      "stateMutability": "nonpayable",
      "type": "function"
    },
    {
      "inputs": [
        {
          "internalType": "address",
          "name": "newImplementation",
          "type": "address"
        },
        {
          "internalType": "bytes",
          "name": "data",
          "type": "bytes"
        }
      ],
      "name": "upgradeToAndCall",
      "outputs": [],
      "stateMutability": "payable",
      "type": "function"
    }
  ],
  "bytecode": "0x60a06040523060805234801561001457600080fd5b506080516135666100ca600039600081816104f50152818161053501528181610e5601528181610e9601528181610f6b01528181610fab01528181611193015281816111d3015281816112d00152818161131001528181611389015281816113c90152818161147801528181611585015281816115c5015281816119dd01528181611a1d01528181611d4801528181611d8801528181611e4501528181611e8501528181612219015261225901526135666000f3fe6080604052600436106101665760003560e01c80637dc0d1d0116100d1578063c4d66de81161008a578063e732680611610064578063e73268061461043b578063f2fde38b1461045b578063f75161c61461047b578063fd1b2e3f1461049b57600080fd5b8063c4d66de8146103e8578063decef9b014610408578063e0c33c161461041b57600080fd5b80637dc0d1d0146103375780638da5cb5b14610355578063aaaa2c5e14610373578063aae5706514610393578063aaf10f42146103b3578063b8f75c0b146103c857600080fd5b80633af32abf116101235780633af32abf1461025b57806348bd1e991461028b5780634f1ef286146102cc578063527b22db146102df57806352d1902d146102ff578063715018a61461032257600080fd5b8063062b366d1461016b5780630b2711801461018d57806310fd86c8146101ad57806316a2a0cc146101e35780631ee290fb146102035780633659cfe61461023b575b600080fd5b34801561017757600080fd5b5061018b610186366004612a8c565b6104bb565b005b34801561019957600080fd5b5061018b6101a8366004612af1565b6107a6565b3480156101b957600080fd5b506101cd6101c8366004612b75565b610dd8565b6040516101da9190612bea565b60405180910390f35b3480156101ef57600080fd5b5061018b6101fe366004612b75565b610e4c565b34801561020f57600080fd5b5061022361021e366004612bfd565b610f38565b6040516001600160a01b0390911681526020016101da565b34801561024757600080fd5b5061018b610256366004612b75565b611189565b34801561026757600080fd5b5061027b610276366004612b75565b611251565b60405190151581526020016101da565b34801561029757600080fd5b506102236102a6366004612d13565b805160208183018101805160fe825292820191909301209152546001600160a01b031681565b61018b6102da366004612d63565b6112c6565b3480156102eb57600080fd5b5061018b6102fa366004612b75565b61137f565b34801561030b57600080fd5b5061031461146b565b6040519081526020016101da565b34801561032e57600080fd5b5061018b61151e565b34801561034357600080fd5b5060fb546001600160a01b0316610223565b34801561036157600080fd5b506033546001600160a01b0316610223565b34801561037f57600080fd5b5061018b61038e366004612dc6565b611554565b34801561039f57600080fd5b5061018b6103ae366004612e11565b6119ac565b3480156103bf57600080fd5b50610223611c8b565b3480156103d457600080fd5b5060fc54610223906001600160a01b031681565b3480156103f457600080fd5b5061018b610403366004612b75565b611c9a565b61018b610416366004612e11565b611e14565b34801561042757600080fd5b5061027b610436366004612e77565b61210d565b34801561044757600080fd5b5061018b610456366004612b75565b61220f565b34801561046757600080fd5b5061018b610476366004612b75565b612349565b34801561048757600080fd5b5060fd54610223906001600160a01b031681565b3480156104a757600080fd5b5061027b6104b6366004612e77565b6123e1565b600260c954036104e65760405162461bcd60e51b81526004016104dd90612eb8565b60405180910390fd5b600260c9556001600160a01b037f00000000000000000000000000000000000000000000000000000000000000001630036105335760405162461bcd60e51b81526004016104dd90612eef565b7f00000000000000000000000000000000000000000000000000000000000000006001600160a01b031661056561247e565b6001600160a01b03161461058b5760405162461bcd60e51b81526004016104dd90612f3b565b600060fe858560405161059f929190612f87565b908152604051908190036020019020546001600160a01b03169050806105c586866123e1565b15156001146106165760405162461bcd60e51b815260206004820152601760248201527f455854454e44494e475f434c4f5345445f424f554e545900000000000000000060448201526064016104dd565b60405163166ea0d160e21b81526004810185905233906001600160a01b038316906359ba834490602401602060405180830381865afa15801561065d573d6000803e3d6000fd5b505050506040513d601f19601f820116820180604052508101906106819190612f97565b6001600160a01b0316146106e15760405162461bcd60e51b815260206004820152602160248201527f4f4e4c595f46554e4445525f43414e5f524551554553545f455854454e53494f6044820152602760f91b60648201526084016104dd565b60405163e83963eb60e01b815260048101859052602481018490523360448201526000906001600160a01b0383169063e83963eb906064016020604051808303816000875af1158015610738573d6000803e3d6000fd5b505050506040513d601f19601f8201168201806040525081019061075c9190612fb4565b60408051878152602081018390529192507f9d5e198041b374e7d9238646161abedf8ee45c32b6b9e97193ab7de6662d3b6f910160405180910390a15050600160c9555050505050565b60fb546001600160a01b031633146108195760405162461bcd60e51b815260206004820152603060248201527f4f7261636c697a653a2063616c6c6572206973206e6f7420746865206375727260448201526f656e74204f70656e51204f7261636c6560801b60648201526084016104dd565b600260c9540361083b5760405162461bcd60e51b81526004016104dd90612eb8565b600260c95561084a85856123e1565b15156001146108945760405162461bcd60e51b8152602060048201526016602482015275434c41494d494e475f434c4f5345445f424f554e545960501b60448201526064016104dd565b600060fe86866040516108a8929190612f87565b908152604051908190036020019020546001600160a01b031690508060005b816001600160a01b031663ee8c24b86040518163ffffffff1660e01b8152600401600060405180830381865afa158015610905573d6000803e3d6000fd5b505050506040513d6000823e601f3d908101601f1916820160405261092d9190810190612ff0565b51811015610b5f576000826001600160a01b031663ee8c24b86040518163ffffffff1660e01b8152600401600060405180830381865afa158015610975573d6000803e3d6000fd5b505050506040513d6000823e601f3d908101601f1916820160405261099d9190810190612ff0565b82815181106109ae576109ae613089565b602090810291909101015160405163cb2da3db60e01b81526001600160a01b038981166004830152808316602483015291925060009185169063cb2da3db906044016020604051808303816000875af1158015610a0f573d6000803e3d6000fd5b505050506040513d601f19601f82011682018060405250810190610a339190612fb4565b9050846001600160a01b03167f2bf17f21105d9af8509a541a76fc6a7aa864cba19c9069c816abf81fe49eab59856001600160a01b031663c17bd75e6040518163ffffffff1660e01b8152600401600060405180830381865afa158015610a9e573d6000803e3d6000fd5b505050506040513d6000823e601f3d908101601f19168201604052610ac6919081019061309f565b866001600160a01b03166323bd4d7a6040518163ffffffff1660e01b8152600401600060405180830381865afa158015610b04573d6000803e3d6000fd5b505050506040513d6000823e601f3d908101601f19168201604052610b2c919081019061309f565b8b428787604051610b429695949392919061310c565b60405180910390a250508080610b5790613177565b9150506108c7565b5060005b816001600160a01b03166377ede8a66040518163ffffffff1660e01b8152600401600060405180830381865afa158015610ba1573d6000803e3d6000fd5b505050506040513d6000823e601f3d908101601f19168201604052610bc99190810190613190565b51811015610cb557604051630de2fe4b60e11b8152600481018290526001600160a01b038316906371ec4ebf9088908390631bc5fc9690602401602060405180830381865afa158015610c20573d6000803e3d6000fd5b505050506040513d601f19601f82011682018060405250810190610c449190612fb4565b6040516001600160e01b031960e085901b1681526001600160a01b0390921660048301526024820152604401600060405180830381600087803b158015610c8a57600080fd5b505af1158015610c9e573d6000803e3d6000fd5b505050508080610cad90613177565b915050610b63565b5060405163187c06af60e31b81526001600160a01b0382169063c3e0357890610ce69088908890889060040161323e565b600060405180830381600087803b158015610d0057600080fd5b505af1158015610d14573d6000803e3d6000fd5b50505050816001600160a01b03167fd67ae373601e56612bbe8787644f4cdd5d6f7ef88ebc0bf73fa75f3fdc4d92268888846001600160a01b03166323bd4d7a6040518163ffffffff1660e01b8152600401600060405180830381865afa158015610d83573d6000803e3d6000fd5b505050506040513d6000823e601f3d908101601f19168201604052610dab919081019061309f565b89428a8a604051610dc29796959493929190613263565b60405180910390a25050600160c9555050505050565b60606000829050806001600160a01b031663c17bd75e6040518163ffffffff1660e01b8152600401600060405180830381865afa158015610e1d573d6000803e3d6000fd5b505050506040513d6000823e601f3d908101601f19168201604052610e45919081019061309f565b9392505050565b6001600160a01b037f0000000000000000000000000000000000000000000000000000000000000000163003610e945760405162461bcd60e51b81526004016104dd90612eef565b7f00000000000000000000000000000000000000000000000000000000000000006001600160a01b0316610ec661247e565b6001600160a01b031614610eec5760405162461bcd60e51b81526004016104dd90612f3b565b6033546001600160a01b03163314610f165760405162461bcd60e51b81526004016104dd906132c2565b60fc80546001600160a01b0319166001600160a01b0392909216919091179055565b6000600260c95403610f5c5760405162461bcd60e51b81526004016104dd90612eb8565b600260c9556001600160a01b037f0000000000000000000000000000000000000000000000000000000000000000163003610fa95760405162461bcd60e51b81526004016104dd90612eef565b7f00000000000000000000000000000000000000000000000000000000000000006001600160a01b0316610fdb61247e565b6001600160a01b0316146110015760405162461bcd60e51b81526004016104dd90612f3b565b60006001600160a01b031660fe868660405161101e929190612f87565b908152604051908190036020019020546001600160a01b03161461107c5760405162461bcd60e51b8152602060048201526015602482015274424f554e54595f414c52454144595f45584953545360581b60448201526064016104dd565b60fc546040516318aa5f9d60e31b81526000916001600160a01b03169063c552fce8906110b5908990899033908a908a906004016132f7565b6020604051808303816000875af11580156110d4573d6000803e3d6000fd5b505050506040513d601f19601f820116820180604052508101906110f89190612f97565b90508060fe878760405161110d929190612f87565b90815260405190819003602001812080546001600160a01b039384166001600160a01b0319909116179055908216907f9b4ec425461e6b6e22c6b5a40c3fba7c8200dbc1832b92910140d4311872c1399061117390899089908990899033904290613339565b60405180910390a2600160c95595945050505050565b6001600160a01b037f00000000000000000000000000000000000000000000000000000000000000001630036111d15760405162461bcd60e51b81526004016104dd90612eef565b7f00000000000000000000000000000000000000000000000000000000000000006001600160a01b031661120361247e565b6001600160a01b0316146112295760405162461bcd60e51b81526004016104dd90612f3b565b6112328161249a565b6040805160008082526020820190925261124e918391906124c4565b50565b60fd54604051633af32abf60e01b81526001600160a01b0383811660048301526000921690633af32abf90602401602060405180830381865afa15801561129c573d6000803e3d6000fd5b505050506040513d601f19601f820116820180604052508101906112c0919061337f565b92915050565b6001600160a01b037f000000000000000000000000000000000000000000000000000000000000000016300361130e5760405162461bcd60e51b81526004016104dd90612eef565b7f00000000000000000000000000000000000000000000000000000000000000006001600160a01b031661134061247e565b6001600160a01b0316146113665760405162461bcd60e51b81526004016104dd90612f3b565b61136f8261249a565b61137b828260016124c4565b5050565b6001600160a01b037f00000000000000000000000000000000000000000000000000000000000000001630036113c75760405162461bcd60e51b81526004016104dd90612eef565b7f00000000000000000000000000000000000000000000000000000000000000006001600160a01b03166113f961247e565b6001600160a01b03161461141f5760405162461bcd60e51b81526004016104dd90612f3b565b6033546001600160a01b031633146114495760405162461bcd60e51b81526004016104dd906132c2565b60fd80546001600160a01b0319166001600160a01b0392909216919091179055565b6000306001600160a01b037f0000000000000000000000000000000000000000000000000000000000000000161461150b5760405162461bcd60e51b815260206004820152603860248201527f555550535570677261646561626c653a206d757374206e6f742062652063616c60448201527f6c6564207468726f7567682064656c656761746563616c6c000000000000000060648201526084016104dd565b506000805160206134ea83398151915290565b6033546001600160a01b031633146115485760405162461bcd60e51b81526004016104dd906132c2565b6115526000612634565b565b600260c954036115765760405162461bcd60e51b81526004016104dd90612eb8565b600260c9556001600160a01b037f00000000000000000000000000000000000000000000000000000000000000001630036115c35760405162461bcd60e51b81526004016104dd90612eef565b7f00000000000000000000000000000000000000000000000000000000000000006001600160a01b03166115f561247e565b6001600160a01b03161461161b5760405162461bcd60e51b81526004016104dd90612f3b565b600060fe848460405161162f929190612f87565b908152604051908190036020019020546001600160a01b031690508061165585856123e1565b15156001146116a65760405162461bcd60e51b815260206004820152601760248201527f524546554e44494e475f434c4f5345445f424f554e545900000000000000000060448201526064016104dd565b60405163166ea0d160e21b81526004810184905233906001600160a01b038316906359ba834490602401602060405180830381865afa1580156116ed573d6000803e3d6000fd5b505050506040513d601f19601f820116820180604052508101906117119190612f97565b6001600160a01b0316146117675760405162461bcd60e51b815260206004820152601e60248201527f4f4e4c595f46554e4445525f43414e5f524551554553545f524546554e44000060448201526064016104dd565b6040516356406fa560e01b815260048101849052611843906001600160a01b038316906356406fa590602401602060405180830381865afa1580156117b0573d6000803e3d6000fd5b505050506040513d601f19601f820116820180604052508101906117d49190612fb4565b60405163968b098f60e01b8152600481018690526001600160a01b0384169063968b098f90602401602060405180830381865afa158015611819573d6000803e3d6000fd5b505050506040513d601f19601f8201168201806040525081019061183d9190612fb4565b90612686565b4210156118925760405162461bcd60e51b815260206004820152601860248201527f5052454d41545552455f524546554e445f52455155455354000000000000000060448201526064016104dd565b604051630c82823f60e31b8152600481018490523360248201526001600160a01b0382169063641411f890604401600060405180830381600087803b1580156118da57600080fd5b505af11580156118ee573d6000803e3d6000fd5b50505050816001600160a01b03167f5cfacced9b0054c7760e6620dfb8bb83cae10b8c701ad759b2e68e0d6707bfd4848787856001600160a01b03166323bd4d7a6040518163ffffffff1660e01b8152600401600060405180830381865afa15801561195e573d6000803e3d6000fd5b505050506040513d6000823e601f3d908101601f19168201604052611986919081019061309f565b426040516119989594939291906133a1565b60405180910390a25050600160c955505050565b600260c954036119ce5760405162461bcd60e51b81526004016104dd90612eb8565b600260c9556001600160a01b037f0000000000000000000000000000000000000000000000000000000000000000163003611a1b5760405162461bcd60e51b81526004016104dd90612eef565b7f00000000000000000000000000000000000000000000000000000000000000006001600160a01b0316611a4d61247e565b6001600160a01b031614611a735760405162461bcd60e51b81526004016104dd90612f3b565b600060fe8686604051611a87929190612f87565b908152604051908190036020019020546001600160a01b0316905080611aac85611251565b611aed5760405162461bcd60e51b81526020600482015260126024820152711513d2d15397d393d517d050d0d15415115160721b60448201526064016104dd565b611af787876123e1565b1515600114611b405760405162461bcd60e51b815260206004820152601560248201527446554e44494e475f434c4f5345445f424f554e545960581b60448201526064016104dd565b60405163e129b33360e01b81523360048201526001600160a01b03868116602483015260448201869052606482018590526000919083169063e129b333906084016020604051808303816000875af1158015611ba0573d6000803e3d6000fd5b505050506040513d601f19601f82011682018060405250810190611bc49190612fb4565b9050826001600160a01b03167f787b2d0c3b917fe6a118b5225b044e4a4ba6d2d1cfa26f9b156fc1b1e263dee7828a8a866001600160a01b03166323bd4d7a6040518163ffffffff1660e01b8152600401600060405180830381865afa158015611c32573d6000803e3d6000fd5b505050506040513d6000823e601f3d908101601f19168201604052611c5a919081019061309f565b8b42338c8e604051611c74999897969594939291906133e0565b60405180910390a25050600160c955505050505050565b6000611c9561247e565b905090565b600054610100900460ff16611cb55760005460ff1615611cb9565b303b155b611d1c5760405162461bcd60e51b815260206004820152602e60248201527f496e697469616c697a61626c653a20636f6e747261637420697320616c72656160448201526d191e481a5b9a5d1a585b1a5e995960921b60648201526084016104dd565b600054610100900460ff16158015611d3e576000805461ffff19166101011790555b6001600160a01b037f0000000000000000000000000000000000000000000000000000000000000000163003611d865760405162461bcd60e51b81526004016104dd90612eef565b7f00000000000000000000000000000000000000000000000000000000000000006001600160a01b0316611db861247e565b6001600160a01b031614611dde5760405162461bcd60e51b81526004016104dd90612f3b565b611de6612692565b611dee6126c1565b611df7826126e8565b611dff612731565b801561137b576000805461ff00191690555050565b600260c95403611e365760405162461bcd60e51b81526004016104dd90612eb8565b600260c9556001600160a01b037f0000000000000000000000000000000000000000000000000000000000000000163003611e835760405162461bcd60e51b81526004016104dd90612eef565b7f00000000000000000000000000000000000000000000000000000000000000006001600160a01b0316611eb561247e565b6001600160a01b031614611edb5760405162461bcd60e51b81526004016104dd90612f3b565b600060fe8686604051611eef929190612f87565b908152604051908190036020019020546001600160a01b0316905080611f1485611251565b611f6f57611f22878761210d565b15611f6f5760405162461bcd60e51b815260206004820152601860248201527f544f4f5f4d414e595f544f4b454e5f414444524553534553000000000000000060448201526064016104dd565b611f7987876123e1565b611fbd5760405162461bcd60e51b815260206004820152601560248201527446554e44494e475f434c4f5345445f424f554e545960581b60448201526064016104dd565b6040516335bf83d160e21b81523360048201526001600160a01b0386811660248301526044820186905260648201859052600091829184169063d6fe0f44903490608401604080518083038185885af115801561201e573d6000803e3d6000fd5b50505050506040513d601f19601f820116820180604052508101906120439190613446565b91509150836001600160a01b03167faf36131f1dc94492cced7f049feaadaceaba10e417412ce818eccd383e16f563838b8b876001600160a01b03166323bd4d7a6040518163ffffffff1660e01b8152600401600060405180830381865afa1580156120b3573d6000803e3d6000fd5b505050506040513d6000823e601f3d908101601f191682016040526120db919081019061309f565b8c42338d8a6040516120f5999897969594939291906133e0565b60405180910390a25050600160c95550505050505050565b60008060fe8484604051612122929190612f87565b90815260408051602092819003830181205460fd54630c024c1b60e31b835292516001600160a01b0391821695508594919093169263601260d89260048082019392918290030181865afa15801561217e573d6000803e3d6000fd5b505050506040513d601f19601f820116820180604052508101906121a29190612fb4565b816001600160a01b031663c5b6e7056040518163ffffffff1660e01b8152600401602060405180830381865afa1580156121e0573d6000803e3d6000fd5b505050506040513d601f19601f820116820180604052508101906122049190612fb4565b101595945050505050565b6001600160a01b037f00000000000000000000000000000000000000000000000000000000000000001630036122575760405162461bcd60e51b81526004016104dd90612eef565b7f00000000000000000000000000000000000000000000000000000000000000006001600160a01b031661228961247e565b6001600160a01b0316146122af5760405162461bcd60e51b81526004016104dd90612f3b565b6033546001600160a01b031633146122d95760405162461bcd60e51b81526004016104dd906132c2565b6001600160a01b0381166123405760405162461bcd60e51b815260206004820152602860248201527f4f7261636c697a653a206e6577206f7261636c6520697320746865207a65726f604482015267206164647265737360c01b60648201526084016104dd565b61124e81612760565b6033546001600160a01b031633146123735760405162461bcd60e51b81526004016104dd906132c2565b6001600160a01b0381166123d85760405162461bcd60e51b815260206004820152602660248201527f4f776e61626c653a206e6577206f776e657220697320746865207a65726f206160448201526564647265737360d01b60648201526084016104dd565b61124e81612634565b60008060fe84846040516123f6929190612f87565b90815260408051918290036020908101832054631006976960e11b845291516001600160a01b0390921693508392600092849263200d2ed292600480820193918290030181865afa15801561244f573d6000803e3d6000fd5b505050506040513d601f19601f820116820180604052508101906124739190612fb4565b159695505050505050565b6000805160206134ea833981519152546001600160a01b031690565b6033546001600160a01b0316331461124e5760405162461bcd60e51b81526004016104dd906132c2565b7f4910fdfa16fed3260ed0e7147f7cc6da11a60208b5b9406d12a635614ffd91435460ff16156124fc576124f7836127b2565b505050565b826001600160a01b03166352d1902d6040518163ffffffff1660e01b8152600401602060405180830381865afa925050508015612556575060408051601f3d908101601f1916820190925261255391810190612fb4565b60015b6125b95760405162461bcd60e51b815260206004820152602e60248201527f45524331393637557067726164653a206e657720696d706c656d656e7461746960448201526d6f6e206973206e6f74205555505360901b60648201526084016104dd565b6000805160206134ea83398151915281146126285760405162461bcd60e51b815260206004820152602960248201527f45524331393637557067726164653a20756e737570706f727465642070726f786044820152681a58589b195555525160ba1b60648201526084016104dd565b506124f783838361284e565b603380546001600160a01b038381166001600160a01b0319831681179093556040519116919082907f8be0079c531659141344cd1fd0a4f28419497f9722a3daafe3b4186f6b6457e090600090a35050565b6000610e45828461346a565b600054610100900460ff166126b95760405162461bcd60e51b81526004016104dd90613482565b611552612879565b600054610100900460ff166115525760405162461bcd60e51b81526004016104dd90613482565b600054610100900460ff1661270f5760405162461bcd60e51b81526004016104dd90613482565b60fb80546001600160a01b0319166001600160a01b0392909216919091179055565b600054610100900460ff166127585760405162461bcd60e51b81526004016104dd90613482565b6115526128a9565b60fb80546001600160a01b038381166001600160a01b0319831681179093556040519116919082907f9b0948b943e24ff3413cb400b2eeae4337138739aaf31759dc6e813e8076fbc390600090a35050565b6001600160a01b0381163b61281f5760405162461bcd60e51b815260206004820152602d60248201527f455243313936373a206e657720696d706c656d656e746174696f6e206973206e60448201526c1bdd08184818dbdb9d1c9858dd609a1b60648201526084016104dd565b6000805160206134ea83398151915280546001600160a01b0319166001600160a01b0392909216919091179055565b612857836128d7565b6000825111806128645750805b156124f7576128738383612917565b50505050565b600054610100900460ff166128a05760405162461bcd60e51b81526004016104dd90613482565b61155233612634565b600054610100900460ff166128d05760405162461bcd60e51b81526004016104dd90613482565b600160c955565b6128e0816127b2565b6040516001600160a01b038216907fbc7cd75a20ee27fd9adebab32041f755214dbc6bffa90cc0225b39da2e5c2d3b90600090a250565b60606001600160a01b0383163b61297f5760405162461bcd60e51b815260206004820152602660248201527f416464726573733a2064656c65676174652063616c6c20746f206e6f6e2d636f6044820152651b9d1c9858dd60d21b60648201526084016104dd565b600080846001600160a01b03168460405161299a91906134cd565b600060405180830381855af49150503d80600081146129d5576040519150601f19603f3d011682016040523d82523d6000602084013e6129da565b606091505b5091509150612a02828260405180606001604052806027815260200161350a60279139612a0b565b95945050505050565b60608315612a1a575081610e45565b825115612a2a5782518084602001fd5b8160405162461bcd60e51b81526004016104dd9190612bea565b60008083601f840112612a5657600080fd5b5081356001600160401b03811115612a6d57600080fd5b602083019150836020828501011115612a8557600080fd5b9250929050565b60008060008060608587031215612aa257600080fd5b84356001600160401b03811115612ab857600080fd5b612ac487828801612a44565b90989097506020870135966040013595509350505050565b6001600160a01b038116811461124e57600080fd5b600080600080600060608688031215612b0957600080fd5b85356001600160401b0380821115612b2057600080fd5b612b2c89838a01612a44565b909750955060208801359150612b4182612adc565b90935060408701359080821115612b5757600080fd5b50612b6488828901612a44565b969995985093965092949392505050565b600060208284031215612b8757600080fd5b8135610e4581612adc565b60005b83811015612bad578181015183820152602001612b95565b838111156128735750506000910152565b60008151808452612bd6816020860160208601612b92565b601f01601f19169290920160200192915050565b602081526000610e456020830184612bbe565b60008060008060408587031215612c1357600080fd5b84356001600160401b0380821115612c2a57600080fd5b612c3688838901612a44565b90965094506020870135915080821115612c4f57600080fd5b50612c5c87828801612a44565b95989497509550505050565b634e487b7160e01b600052604160045260246000fd5b604051601f8201601f191681016001600160401b0381118282101715612ca657612ca6612c68565b604052919050565b60006001600160401b03821115612cc757612cc7612c68565b50601f01601f191660200190565b6000612ce8612ce384612cae565b612c7e565b9050828152838383011115612cfc57600080fd5b828260208301376000602084830101529392505050565b600060208284031215612d2557600080fd5b81356001600160401b03811115612d3b57600080fd5b8201601f81018413612d4c57600080fd5b612d5b84823560208401612cd5565b949350505050565b60008060408385031215612d7657600080fd5b8235612d8181612adc565b915060208301356001600160401b03811115612d9c57600080fd5b8301601f81018513612dad57600080fd5b612dbc85823560208401612cd5565b9150509250929050565b600080600060408486031215612ddb57600080fd5b83356001600160401b03811115612df157600080fd5b612dfd86828701612a44565b909790965060209590950135949350505050565b600080600080600060808688031215612e2957600080fd5b85356001600160401b03811115612e3f57600080fd5b612e4b88828901612a44565b9096509450506020860135612e5f81612adc565b94979396509394604081013594506060013592915050565b60008060208385031215612e8a57600080fd5b82356001600160401b03811115612ea057600080fd5b612eac85828601612a44565b90969095509350505050565b6020808252601f908201527f5265656e7472616e637947756172643a207265656e7472616e742063616c6c00604082015260600190565b6020808252602c908201527f46756e6374696f6e206d7573742062652063616c6c6564207468726f7567682060408201526b19195b1959d85d1958d85b1b60a21b606082015260800190565b6020808252602c908201527f46756e6374696f6e206d7573742062652063616c6c6564207468726f7567682060408201526b6163746976652070726f787960a01b606082015260800190565b8183823760009101908152919050565b600060208284031215612fa957600080fd5b8151610e4581612adc565b600060208284031215612fc657600080fd5b5051919050565b60006001600160401b03821115612fe657612fe6612c68565b5060051b60200190565b6000602080838503121561300357600080fd5b82516001600160401b0381111561301957600080fd5b8301601f8101851361302a57600080fd5b8051613038612ce382612fcd565b81815260059190911b8201830190838101908783111561305757600080fd5b928401925b8284101561307e57835161306f81612adc565b8252928401929084019061305c565b979650505050505050565b634e487b7160e01b600052603260045260246000fd5b6000602082840312156130b157600080fd5b81516001600160401b038111156130c757600080fd5b8201601f810184136130d857600080fd5b80516130e6612ce382612cae565b8181528560208385010111156130fb57600080fd5b612a02826020830160208601612b92565b60c08152600061311f60c0830189612bbe565b82810360208401526131318189612bbe565b6001600160a01b0397881660408501526060840196909652505091909316608082015260a0019190915292915050565b634e487b7160e01b600052601160045260246000fd5b60006001820161318957613189613161565b5060010190565b600060208083850312156131a357600080fd5b82516001600160401b038111156131b957600080fd5b8301601f810185136131ca57600080fd5b80516131d8612ce382612fcd565b81815260059190911b820183019083810190878311156131f757600080fd5b928401925b8284101561307e578351825292840192908401906131fc565b81835281816020850137506000828201602090810191909152601f909101601f19169091010190565b6001600160a01b0384168152604060208201819052600090612a029083018486613215565b60a08152600061327760a08301898b613215565b82810360208401526132898189612bbe565b6001600160a01b038816604085015260608401879052838103608085015290506132b4818587613215565b9a9950505050505050505050565b6020808252818101527f4f776e61626c653a2063616c6c6572206973206e6f7420746865206f776e6572604082015260600190565b60608152600061330b606083018789613215565b6001600160a01b0386166020840152828103604084015261332d818587613215565b98975050505050505050565b60808152600061334d60808301888a613215565b8281036020840152613360818789613215565b6001600160a01b03959095166040840152505060600152949350505050565b60006020828403121561339157600080fd5b81518015158114610e4557600080fd5b8581526080602082015260006133bb608083018688613215565b82810360408401526133cd8186612bbe565b9150508260608301529695505050505050565b60006101008b83528060208401526133fb8184018b8d613215565b9050828103604084015261340f818a612bbe565b6001600160a01b039889166060850152608084019790975250509290941660a083015260c082015260e00191909152949350505050565b6000806040838503121561345957600080fd5b505080516020909101519092909150565b6000821982111561347d5761347d613161565b500190565b6020808252602b908201527f496e697469616c697a61626c653a20636f6e7472616374206973206e6f74206960408201526a6e697469616c697a696e6760a81b606082015260800190565b600082516134df818460208701612b92565b919091019291505056fe360894a13ba1a3210667c828492db98dca3e2076cc3735a920a3ca505d382bbc416464726573733a206c6f772d6c6576656c2064656c65676174652063616c6c206661696c6564a2646970667358221220a89ed922c8863ce88485a0f753fc91b2e8e84df388670ecd415b4d79977b698064736f6c634300080d0033",
  "linkReferences": {},
  "deployedLinkReferences": {}
}