{
  "_format": "hh-sol-artifact-1",
  "contractName": "OpenQV0",
  "sourceName": "contracts/OpenQ/Implementations/OpenQV0.sol",
  "abi": [
    {
      "inputs": [],
      "stateMutability": "nonpayable",
      "type": "constructor"
    },
    {
      "anonymous": false,
      "inputs": [
        {
          "indexed": false,
          "internalType": "address",
          "name": "previousAdmin",
          "type": "address"
        },
        {
          "indexed": false,
          "internalType": "address",
          "name": "newAdmin",
          "type": "address"
        }
      ],
      "name": "AdminChanged",
      "type": "event"
    },
    {
      "anonymous": false,
      "inputs": [
        {
          "indexed": true,
          "internalType": "address",
          "name": "beacon",
          "type": "address"
        }
      ],
      "name": "BeaconUpgraded",
      "type": "event"
    },
    {
      "anonymous": false,
      "inputs": [
        {
          "indexed": false,
          "internalType": "string",
          "name": "bountyId",
          "type": "string"
        },
        {
          "indexed": true,
          "internalType": "address",
          "name": "bountyAddress",
          "type": "address"
        },
        {
          "indexed": false,
          "internalType": "string",
          "name": "organization",
          "type": "string"
        },
        {
          "indexed": false,
          "internalType": "address",
          "name": "closer",
          "type": "address"
        },
        {
          "indexed": false,
          "internalType": "uint256",
          "name": "bountyClosedTime",
          "type": "uint256"
        }
      ],
      "name": "BountyClosed",
      "type": "event"
    },
    {
      "anonymous": false,
      "inputs": [
        {
          "indexed": false,
          "internalType": "string",
          "name": "bountyId",
          "type": "string"
        },
        {
          "indexed": false,
          "internalType": "string",
          "name": "organization",
          "type": "string"
        },
        {
          "indexed": false,
          "internalType": "address",
          "name": "issuerAddress",
          "type": "address"
        },
        {
          "indexed": true,
          "internalType": "address",
          "name": "bountyAddress",
          "type": "address"
        },
        {
          "indexed": false,
          "internalType": "uint256",
          "name": "bountyMintTime",
          "type": "uint256"
        }
      ],
      "name": "BountyCreated",
      "type": "event"
    },
    {
      "anonymous": false,
      "inputs": [
        {
          "indexed": false,
          "internalType": "bytes32",
          "name": "depositId",
          "type": "bytes32"
        },
        {
          "indexed": false,
          "internalType": "string",
          "name": "bountyId",
          "type": "string"
        },
        {
          "indexed": true,
          "internalType": "address",
          "name": "bountyAddress",
          "type": "address"
        },
        {
          "indexed": false,
          "internalType": "string",
          "name": "organization",
          "type": "string"
        },
        {
          "indexed": false,
          "internalType": "uint256",
          "name": "refundTime",
          "type": "uint256"
        }
      ],
      "name": "DepositRefunded",
      "type": "event"
    },
    {
      "anonymous": false,
      "inputs": [
        {
          "indexed": false,
          "internalType": "bytes32",
          "name": "depositId",
          "type": "bytes32"
        },
        {
          "indexed": true,
          "internalType": "address",
          "name": "bountyAddress",
          "type": "address"
        },
        {
          "indexed": false,
          "internalType": "string",
          "name": "bountyId",
          "type": "string"
        },
        {
          "indexed": false,
          "internalType": "string",
          "name": "organization",
          "type": "string"
        },
        {
          "indexed": false,
          "internalType": "address",
          "name": "tokenAddress",
          "type": "address"
        },
        {
          "indexed": false,
          "internalType": "uint256",
          "name": "receiveTime",
          "type": "uint256"
        },
        {
          "indexed": false,
          "internalType": "address",
          "name": "sender",
          "type": "address"
        },
        {
          "indexed": false,
          "internalType": "uint256",
          "name": "expiration",
          "type": "uint256"
        },
        {
          "indexed": false,
          "internalType": "uint256",
          "name": "tokenId",
          "type": "uint256"
        }
      ],
      "name": "NFTDepositReceived",
      "type": "event"
    },
    {
      "anonymous": false,
      "inputs": [
        {
          "indexed": true,
          "internalType": "address",
          "name": "previousOracle",
          "type": "address"
        },
        {
          "indexed": true,
          "internalType": "address",
          "name": "newOracle",
          "type": "address"
        }
      ],
      "name": "OracleTransferred",
      "type": "event"
    },
    {
      "anonymous": false,
      "inputs": [
        {
          "indexed": true,
          "internalType": "address",
          "name": "previousOwner",
          "type": "address"
        },
        {
          "indexed": true,
          "internalType": "address",
          "name": "newOwner",
          "type": "address"
        }
      ],
      "name": "OwnershipTransferred",
      "type": "event"
    },
    {
      "anonymous": false,
      "inputs": [
        {
          "indexed": false,
          "internalType": "string",
          "name": "bountyId",
          "type": "string"
        },
        {
          "indexed": true,
          "internalType": "address",
          "name": "bountyAddress",
          "type": "address"
        },
        {
          "indexed": false,
          "internalType": "string",
          "name": "organization",
          "type": "string"
        },
        {
          "indexed": false,
          "internalType": "address",
          "name": "closer",
          "type": "address"
        },
        {
          "indexed": false,
          "internalType": "uint256",
          "name": "payoutTime",
          "type": "uint256"
        },
        {
          "indexed": false,
          "internalType": "address",
          "name": "tokenAddress",
          "type": "address"
        },
        {
          "indexed": false,
          "internalType": "uint256",
          "name": "volume",
          "type": "uint256"
        }
      ],
      "name": "TokenBalanceClaimed",
      "type": "event"
    },
    {
      "anonymous": false,
      "inputs": [
        {
          "indexed": false,
          "internalType": "bytes32",
          "name": "depositId",
          "type": "bytes32"
        },
        {
          "indexed": true,
          "internalType": "address",
          "name": "bountyAddress",
          "type": "address"
        },
        {
          "indexed": false,
          "internalType": "string",
          "name": "bountyId",
          "type": "string"
        },
        {
          "indexed": false,
          "internalType": "string",
          "name": "organization",
          "type": "string"
        },
        {
          "indexed": false,
          "internalType": "address",
          "name": "tokenAddress",
          "type": "address"
        },
        {
          "indexed": false,
          "internalType": "uint256",
          "name": "receiveTime",
          "type": "uint256"
        },
        {
          "indexed": false,
          "internalType": "address",
          "name": "sender",
          "type": "address"
        },
        {
          "indexed": false,
          "internalType": "uint256",
          "name": "expiration",
          "type": "uint256"
        },
        {
          "indexed": false,
          "internalType": "uint256",
          "name": "volume",
          "type": "uint256"
        }
      ],
      "name": "TokenDepositReceived",
      "type": "event"
    },
    {
      "anonymous": false,
      "inputs": [
        {
          "indexed": true,
          "internalType": "address",
          "name": "implementation",
          "type": "address"
        }
      ],
      "name": "Upgraded",
      "type": "event"
    },
    {
      "inputs": [
        {
          "internalType": "address",
          "name": "bountyAddress",
          "type": "address"
        }
      ],
      "name": "bountyAddressToBountyId",
      "outputs": [
        {
          "internalType": "string",
          "name": "",
          "type": "string"
        }
      ],
      "stateMutability": "view",
      "type": "function"
    },
    {
      "inputs": [],
      "name": "bountyFactory",
      "outputs": [
        {
          "internalType": "contract BountyFactory",
          "name": "",
          "type": "address"
        }
      ],
      "stateMutability": "view",
      "type": "function"
    },
    {
      "inputs": [
        {
          "internalType": "string",
          "name": "_bountyId",
          "type": "string"
        }
      ],
      "name": "bountyIdToAddress",
      "outputs": [
        {
          "internalType": "address",
          "name": "",
          "type": "address"
        }
      ],
      "stateMutability": "view",
      "type": "function"
    },
    {
      "inputs": [
        {
          "internalType": "string",
          "name": "_bountyId",
          "type": "string"
        }
      ],
      "name": "bountyIsOpen",
      "outputs": [
        {
          "internalType": "bool",
          "name": "",
          "type": "bool"
        }
      ],
      "stateMutability": "view",
      "type": "function"
    },
    {
      "inputs": [
        {
          "internalType": "string",
          "name": "_bountyId",
          "type": "string"
        },
        {
          "internalType": "address",
          "name": "closer",
          "type": "address"
        }
      ],
      "name": "claimBounty",
      "outputs": [],
      "stateMutability": "nonpayable",
      "type": "function"
    },
    {
      "inputs": [
        {
          "internalType": "string",
          "name": "_bountyId",
          "type": "string"
        },
        {
          "internalType": "address",
          "name": "_tokenAddress",
          "type": "address"
        },
        {
          "internalType": "uint256",
          "name": "_tokenId",
          "type": "uint256"
        },
        {
          "internalType": "uint256",
          "name": "_expiration",
          "type": "uint256"
        }
      ],
      "name": "fundBountyNFT",
      "outputs": [
        {
          "internalType": "bool",
          "name": "success",
          "type": "bool"
        }
      ],
      "stateMutability": "nonpayable",
      "type": "function"
    },
    {
      "inputs": [
        {
          "internalType": "string",
          "name": "_bountyId",
          "type": "string"
        },
        {
          "internalType": "address",
          "name": "_tokenAddress",
          "type": "address"
        },
        {
          "internalType": "uint256",
          "name": "_volume",
          "type": "uint256"
        },
        {
          "internalType": "uint256",
          "name": "_expiration",
          "type": "uint256"
        }
      ],
      "name": "fundBountyToken",
      "outputs": [
        {
          "internalType": "bool",
          "name": "success",
          "type": "bool"
        }
      ],
      "stateMutability": "payable",
      "type": "function"
    },
    {
      "inputs": [],
      "name": "getImplementation",
      "outputs": [
        {
          "internalType": "address",
          "name": "",
          "type": "address"
        }
      ],
      "stateMutability": "view",
      "type": "function"
    },
    {
      "inputs": [
        {
          "internalType": "address",
          "name": "oracle",
          "type": "address"
        }
      ],
      "name": "initialize",
      "outputs": [],
      "stateMutability": "nonpayable",
      "type": "function"
    },
    {
      "inputs": [
        {
          "internalType": "address",
          "name": "tokenAddress",
          "type": "address"
        }
      ],
      "name": "isWhitelisted",
      "outputs": [
        {
          "internalType": "bool",
          "name": "",
          "type": "bool"
        }
      ],
      "stateMutability": "view",
      "type": "function"
    },
    {
      "inputs": [
        {
          "internalType": "string",
          "name": "_bountyId",
          "type": "string"
        },
        {
          "internalType": "string",
          "name": "_organization",
          "type": "string"
        }
      ],
      "name": "mintBounty",
      "outputs": [
        {
          "internalType": "address",
          "name": "",
          "type": "address"
        }
      ],
      "stateMutability": "nonpayable",
      "type": "function"
    },
    {
      "inputs": [],
      "name": "openQStorage",
      "outputs": [
        {
          "internalType": "contract OpenQStorage",
          "name": "",
          "type": "address"
        }
      ],
      "stateMutability": "view",
      "type": "function"
    },
    {
      "inputs": [],
      "name": "openQTokenWhitelist",
      "outputs": [
        {
          "internalType": "contract OpenQTokenWhitelist",
          "name": "",
          "type": "address"
        }
      ],
      "stateMutability": "view",
      "type": "function"
    },
    {
      "inputs": [],
      "name": "oracle",
      "outputs": [
        {
          "internalType": "address",
          "name": "",
          "type": "address"
        }
      ],
      "stateMutability": "view",
      "type": "function"
    },
    {
      "inputs": [],
      "name": "owner",
      "outputs": [
        {
          "internalType": "address",
          "name": "",
          "type": "address"
        }
      ],
      "stateMutability": "view",
      "type": "function"
    },
    {
      "inputs": [],
      "name": "proxiableUUID",
      "outputs": [
        {
          "internalType": "bytes32",
          "name": "",
          "type": "bytes32"
        }
      ],
      "stateMutability": "view",
      "type": "function"
    },
    {
      "inputs": [
        {
          "internalType": "string",
          "name": "_bountyId",
          "type": "string"
        },
        {
          "internalType": "bytes32",
          "name": "_depositId",
          "type": "bytes32"
        }
      ],
      "name": "refundDeposit",
      "outputs": [
        {
          "internalType": "bool",
          "name": "success",
          "type": "bool"
        }
      ],
      "stateMutability": "nonpayable",
      "type": "function"
    },
    {
      "inputs": [],
      "name": "renounceOwnership",
      "outputs": [],
      "stateMutability": "nonpayable",
      "type": "function"
    },
    {
      "inputs": [
        {
          "internalType": "address",
          "name": "_bountyFactory",
          "type": "address"
        }
      ],
      "name": "setBountyFactory",
      "outputs": [],
      "stateMutability": "nonpayable",
      "type": "function"
    },
    {
      "inputs": [
        {
          "internalType": "address",
          "name": "_openQStorage",
          "type": "address"
        }
      ],
      "name": "setOpenQStorage",
      "outputs": [],
      "stateMutability": "nonpayable",
      "type": "function"
    },
    {
      "inputs": [
        {
          "internalType": "address",
          "name": "_openQTokenWhitelist",
          "type": "address"
        }
      ],
      "name": "setTokenWhitelist",
      "outputs": [],
      "stateMutability": "nonpayable",
      "type": "function"
    },
    {
      "inputs": [
        {
          "internalType": "address",
          "name": "_newOracle",
          "type": "address"
        }
      ],
      "name": "transferOracle",
      "outputs": [],
      "stateMutability": "nonpayable",
      "type": "function"
    },
    {
      "inputs": [
        {
          "internalType": "address",
          "name": "newOwner",
          "type": "address"
        }
      ],
      "name": "transferOwnership",
      "outputs": [],
      "stateMutability": "nonpayable",
      "type": "function"
    },
    {
      "inputs": [
        {
          "internalType": "address",
          "name": "newImplementation",
          "type": "address"
        }
      ],
      "name": "upgradeTo",
      "outputs": [],
      "stateMutability": "nonpayable",
      "type": "function"
    },
    {
      "inputs": [
        {
          "internalType": "address",
          "name": "newImplementation",
          "type": "address"
        },
        {
          "internalType": "bytes",
          "name": "data",
          "type": "bytes"
        }
      ],
      "name": "upgradeToAndCall",
      "outputs": [],
      "stateMutability": "payable",
      "type": "function"
    }
  ],
  "bytecode": "0x60a06040523073ffffffffffffffffffffffffffffffffffffffff1660809073ffffffffffffffffffffffffffffffffffffffff1681525034801561004357600080fd5b506080516153056100f96000396000818161069701528181610726015281816108cb0152818161095a01528181610b0701528181610b96015281816114ec0152818161157b01528181611629015281816116b80152818161180f015281816119f201528181611a8101528181611f5401528181611fe30152818161238b0152818161241a01528181612546015281816125d5015281816128810152818161291001528181612b950152612c2401526153056000f3fe6080604052600436106101665760003560e01c80637dc0d1d0116100d1578063c4d66de81161008a578063f2fde38b11610064578063f2fde38b14610534578063f52584911461055d578063f75161c614610586578063fd1b2e3f146105b157610166565b8063c4d66de8146104b2578063decef9b0146104db578063e73268061461050b57610166565b80637dc0d1d01461038c5780638da5cb5b146103b7578063aaaa2c5e146103e2578063aae570651461041f578063aaf10f421461045c578063b8f75c0b1461048757610166565b80633e7da1a9116101235780633e7da1a91461029f57806348bd1e99146102c85780634f1ef28614610305578063527b22db1461032157806352d1902d1461034a578063715018a61461037557610166565b80630bc930011461016b57806310fd86c81461019657806316a2a0cc146101d35780631ee290fb146101fc5780633659cfe6146102395780633af32abf14610262575b600080fd5b34801561017757600080fd5b506101806105ee565b60405161018d91906137d9565b60405180910390f35b3480156101a257600080fd5b506101bd60048036038101906101b89190613846565b610612565b6040516101ca919061390c565b60405180910390f35b3480156101df57600080fd5b506101fa60048036038101906101f59190613846565b610695565b005b34801561020857600080fd5b50610223600480360381019061021e9190613993565b610879565b6040516102309190613a23565b60405180910390f35b34801561024557600080fd5b50610260600480360381019061025b9190613846565b610b05565b005b34801561026e57600080fd5b5061028960048036038101906102849190613846565b610c8e565b6040516102969190613a59565b60405180910390f35b3480156102ab57600080fd5b506102c660048036038101906102c19190613a74565b610d33565b005b3480156102d457600080fd5b506102ef60048036038101906102ea9190613ad4565b611442565b6040516102fc9190613a23565b60405180910390f35b61031f600480360381019061031a9190613c51565b6114ea565b005b34801561032d57600080fd5b5061034860048036038101906103439190613846565b611627565b005b34801561035657600080fd5b5061035f61180b565b60405161036c9190613cc6565b60405180910390f35b34801561038157600080fd5b5061038a6118c4565b005b34801561039857600080fd5b506103a161194c565b6040516103ae9190613a23565b60405180910390f35b3480156103c357600080fd5b506103cc611976565b6040516103d99190613a23565b60405180910390f35b3480156103ee57600080fd5b5061040960048036038101906104049190613d0d565b6119a0565b6040516104169190613a59565b60405180910390f35b34801561042b57600080fd5b5061044660048036038101906104419190613da3565b611f02565b6040516104539190613a59565b60405180910390f35b34801561046857600080fd5b50610471612290565b60405161047e9190613a23565b60405180910390f35b34801561049357600080fd5b5061049c61229f565b6040516104a99190613e4c565b60405180910390f35b3480156104be57600080fd5b506104d960048036038101906104d49190613846565b6122c5565b005b6104f560048036038101906104f09190613da3565b6124f4565b6040516105029190613a59565b60405180910390f35b34801561051757600080fd5b50610532600480360381019061052d9190613846565b61287f565b005b34801561054057600080fd5b5061055b60048036038101906105569190613846565b612a9b565b005b34801561056957600080fd5b50610584600480360381019061057f9190613846565b612b93565b005b34801561059257600080fd5b5061059b612d76565b6040516105a89190613e88565b60405180910390f35b3480156105bd57600080fd5b506105d860048036038101906105d39190613ad4565b612d9c565b6040516105e59190613a59565b60405180910390f35b60008054906101000a900473ffffffffffffffffffffffffffffffffffffffff1681565b606060008290508073ffffffffffffffffffffffffffffffffffffffff1663c17bd75e6040518163ffffffff1660e01b8152600401600060405180830381865afa158015610664573d6000803e3d6000fd5b505050506040513d6000823e3d601f19601f8201168201806040525081019061068d9190613f44565b915050919050565b7f000000000000000000000000000000000000000000000000000000000000000073ffffffffffffffffffffffffffffffffffffffff163073ffffffffffffffffffffffffffffffffffffffff161415610724576040517f08c379a000000000000000000000000000000000000000000000000000000000815260040161071b90613fff565b60405180910390fd5b7f000000000000000000000000000000000000000000000000000000000000000073ffffffffffffffffffffffffffffffffffffffff16610763612e55565b73ffffffffffffffffffffffffffffffffffffffff16146107b9576040517f08c379a00000000000000000000000000000000000000000000000000000000081526004016107b090614091565b60405180910390fd5b6107c1612eac565b73ffffffffffffffffffffffffffffffffffffffff166107df611976565b73ffffffffffffffffffffffffffffffffffffffff1614610835576040517f08c379a000000000000000000000000000000000000000000000000000000000815260040161082c906140fd565b60405180910390fd5b80600160006101000a81548173ffffffffffffffffffffffffffffffffffffffff021916908373ffffffffffffffffffffffffffffffffffffffff16021790555050565b6000600260cb5414156108c1576040517f08c379a00000000000000000000000000000000000000000000000000000000081526004016108b890614169565b60405180910390fd5b600260cb819055507f000000000000000000000000000000000000000000000000000000000000000073ffffffffffffffffffffffffffffffffffffffff163073ffffffffffffffffffffffffffffffffffffffff161415610958576040517f08c379a000000000000000000000000000000000000000000000000000000000815260040161094f90613fff565b60405180910390fd5b7f000000000000000000000000000000000000000000000000000000000000000073ffffffffffffffffffffffffffffffffffffffff16610997612e55565b73ffffffffffffffffffffffffffffffffffffffff16146109ed576040517f08c379a00000000000000000000000000000000000000000000000000000000081526004016109e490614091565b60405180910390fd5b6000600160009054906101000a900473ffffffffffffffffffffffffffffffffffffffff1673ffffffffffffffffffffffffffffffffffffffff166355e2ba408787338888306040518763ffffffff1660e01b8152600401610a54969594939291906141b6565b6020604051808303816000875af1158015610a73573d6000803e3d6000fd5b505050506040513d601f19601f82011682018060405250810190610a979190614222565b90508073ffffffffffffffffffffffffffffffffffffffff167f9b4ec425461e6b6e22c6b5a40c3fba7c8200dbc1832b92910140d4311872c139878787873342604051610ae99695949392919061425e565b60405180910390a280915050600160cb81905550949350505050565b7f000000000000000000000000000000000000000000000000000000000000000073ffffffffffffffffffffffffffffffffffffffff163073ffffffffffffffffffffffffffffffffffffffff161415610b94576040517f08c379a0000000000000000000000000000000000000000000000000000000008152600401610b8b90613fff565b60405180910390fd5b7f000000000000000000000000000000000000000000000000000000000000000073ffffffffffffffffffffffffffffffffffffffff16610bd3612e55565b73ffffffffffffffffffffffffffffffffffffffff1614610c29576040517f08c379a0000000000000000000000000000000000000000000000000000000008152600401610c2090614091565b60405180910390fd5b610c3281612eb4565b610c8b81600067ffffffffffffffff811115610c5157610c50613b26565b5b6040519080825280601f01601f191660200182016040528015610c835781602001600182028036833780820191505090505b506000612f33565b50565b6000600260009054906101000a900473ffffffffffffffffffffffffffffffffffffffff1673ffffffffffffffffffffffffffffffffffffffff16633af32abf836040518263ffffffff1660e01b8152600401610ceb9190613a23565b602060405180830381865afa158015610d08573d6000803e3d6000fd5b505050506040513d601f19601f82011682018060405250810190610d2c91906142e1565b9050919050565b610d3b612eac565b73ffffffffffffffffffffffffffffffffffffffff1660fd60009054906101000a900473ffffffffffffffffffffffffffffffffffffffff1673ffffffffffffffffffffffffffffffffffffffff1614610dca576040517f08c379a0000000000000000000000000000000000000000000000000000000008152600401610dc190614380565b60405180910390fd5b600260cb541415610e10576040517f08c379a0000000000000000000000000000000000000000000000000000000008152600401610e0790614169565b60405180910390fd5b600260cb8190555060011515610e268484612d9c565b151514610e68576040517f08c379a0000000000000000000000000000000000000000000000000000000008152600401610e5f906143ec565b60405180910390fd5b6000610e748484611442565b9050600081905060005b8173ffffffffffffffffffffffffffffffffffffffff1663ee8c24b86040518163ffffffff1660e01b8152600401600060405180830381865afa158015610ec9573d6000803e3d6000fd5b505050506040513d6000823e3d601f19601f82011682018060405250810190610ef291906144cf565b518110156111615760008273ffffffffffffffffffffffffffffffffffffffff1663ee8c24b86040518163ffffffff1660e01b8152600401600060405180830381865afa158015610f47573d6000803e3d6000fd5b505050506040513d6000823e3d601f19601f82011682018060405250810190610f7091906144cf565b8281518110610f8257610f81614518565b5b6020026020010151905060008373ffffffffffffffffffffffffffffffffffffffff1663cb2da3db87846040518363ffffffff1660e01b8152600401610fc9929190614547565b6020604051808303816000875af1158015610fe8573d6000803e3d6000fd5b505050506040513d601f19601f8201168201806040525081019061100c9190614585565b90508473ffffffffffffffffffffffffffffffffffffffff167f2bf17f21105d9af8509a541a76fc6a7aa864cba19c9069c816abf81fe49eab598573ffffffffffffffffffffffffffffffffffffffff1663c17bd75e6040518163ffffffff1660e01b8152600401600060405180830381865afa158015611091573d6000803e3d6000fd5b505050506040513d6000823e3d601f19601f820116820180604052508101906110ba9190613f44565b8673ffffffffffffffffffffffffffffffffffffffff166323bd4d7a6040518163ffffffff1660e01b8152600401600060405180830381865afa158015611105573d6000803e3d6000fd5b505050506040513d6000823e3d601f19601f8201168201806040525081019061112e9190613f44565b89428787604051611144969594939291906145b2565b60405180910390a25050808061115990614650565b915050610e7e565b5060005b8173ffffffffffffffffffffffffffffffffffffffff166377ede8a66040518163ffffffff1660e01b8152600401600060405180830381865afa1580156111b0573d6000803e3d6000fd5b505050506040513d6000823e3d601f19601f820116820180604052508101906111d99190614771565b518110156112ec578173ffffffffffffffffffffffffffffffffffffffff166371ec4ebf858473ffffffffffffffffffffffffffffffffffffffff16631bc5fc96856040518263ffffffff1660e01b815260040161123791906147ba565b602060405180830381865afa158015611254573d6000803e3d6000fd5b505050506040513d601f19601f8201168201806040525081019061127891906147d5565b6040518363ffffffff1660e01b8152600401611295929190614802565b6020604051808303816000875af11580156112b4573d6000803e3d6000fd5b505050506040513d601f19601f820116820180604052508101906112d891906142e1565b5080806112e490614650565b915050611165565b508073ffffffffffffffffffffffffffffffffffffffff1663c74073a1846040518263ffffffff1660e01b81526004016113269190613a23565b6020604051808303816000875af1158015611345573d6000803e3d6000fd5b505050506040513d601f19601f8201168201806040525081019061136991906142e1565b508173ffffffffffffffffffffffffffffffffffffffff167f9343271f905976f6466b93515ab914676ff8c6c6151a3d597d8c319dc3bc751386868473ffffffffffffffffffffffffffffffffffffffff166323bd4d7a6040518163ffffffff1660e01b8152600401600060405180830381865afa1580156113ef573d6000803e3d6000fd5b505050506040513d6000823e3d601f19601f820116820180604052508101906114189190613f44565b874260405161142b95949392919061482b565b60405180910390a25050600160cb81905550505050565b6000600160009054906101000a900473ffffffffffffffffffffffffffffffffffffffff1673ffffffffffffffffffffffffffffffffffffffff16635c3aaab784846040518363ffffffff1660e01b81526004016114a1929190614880565b602060405180830381865afa1580156114be573d6000803e3d6000fd5b505050506040513d601f19601f820116820180604052508101906114e29190614222565b905092915050565b7f000000000000000000000000000000000000000000000000000000000000000073ffffffffffffffffffffffffffffffffffffffff163073ffffffffffffffffffffffffffffffffffffffff161415611579576040517f08c379a000000000000000000000000000000000000000000000000000000000815260040161157090613fff565b60405180910390fd5b7f000000000000000000000000000000000000000000000000000000000000000073ffffffffffffffffffffffffffffffffffffffff166115b8612e55565b73ffffffffffffffffffffffffffffffffffffffff161461160e576040517f08c379a000000000000000000000000000000000000000000000000000000000815260040161160590614091565b60405180910390fd5b61161782612eb4565b61162382826001612f33565b5050565b7f000000000000000000000000000000000000000000000000000000000000000073ffffffffffffffffffffffffffffffffffffffff163073ffffffffffffffffffffffffffffffffffffffff1614156116b6576040517f08c379a00000000000000000000000000000000000000000000000000000000081526004016116ad90613fff565b60405180910390fd5b7f000000000000000000000000000000000000000000000000000000000000000073ffffffffffffffffffffffffffffffffffffffff166116f5612e55565b73ffffffffffffffffffffffffffffffffffffffff161461174b576040517f08c379a000000000000000000000000000000000000000000000000000000000815260040161174290614091565b60405180910390fd5b611753612eac565b73ffffffffffffffffffffffffffffffffffffffff16611771611976565b73ffffffffffffffffffffffffffffffffffffffff16146117c7576040517f08c379a00000000000000000000000000000000000000000000000000000000081526004016117be906140fd565b60405180910390fd5b80600260006101000a81548173ffffffffffffffffffffffffffffffffffffffff021916908373ffffffffffffffffffffffffffffffffffffffff16021790555050565b60007f000000000000000000000000000000000000000000000000000000000000000073ffffffffffffffffffffffffffffffffffffffff163073ffffffffffffffffffffffffffffffffffffffff161461189b576040517f08c379a000000000000000000000000000000000000000000000000000000000815260040161189290614916565b60405180910390fd5b7f360894a13ba1a3210667c828492db98dca3e2076cc3735a920a3ca505d382bbc60001b905090565b6118cc612eac565b73ffffffffffffffffffffffffffffffffffffffff166118ea611976565b73ffffffffffffffffffffffffffffffffffffffff1614611940576040517f08c379a0000000000000000000000000000000000000000000000000000000008152600401611937906140fd565b60405180910390fd5b61194a60006130a1565b565b600060fd60009054906101000a900473ffffffffffffffffffffffffffffffffffffffff16905090565b6000606760009054906101000a900473ffffffffffffffffffffffffffffffffffffffff16905090565b6000600260cb5414156119e8576040517f08c379a00000000000000000000000000000000000000000000000000000000081526004016119df90614169565b60405180910390fd5b600260cb819055507f000000000000000000000000000000000000000000000000000000000000000073ffffffffffffffffffffffffffffffffffffffff163073ffffffffffffffffffffffffffffffffffffffff161415611a7f576040517f08c379a0000000000000000000000000000000000000000000000000000000008152600401611a7690613fff565b60405180910390fd5b7f000000000000000000000000000000000000000000000000000000000000000073ffffffffffffffffffffffffffffffffffffffff16611abe612e55565b73ffffffffffffffffffffffffffffffffffffffff1614611b14576040517f08c379a0000000000000000000000000000000000000000000000000000000008152600401611b0b90614091565b60405180910390fd5b6000611b208585611442565b9050600081905060011515611b358787612d9c565b151514611b77576040517f08c379a0000000000000000000000000000000000000000000000000000000008152600401611b6e90614982565b60405180910390fd5b3373ffffffffffffffffffffffffffffffffffffffff168173ffffffffffffffffffffffffffffffffffffffff166359ba8344866040518263ffffffff1660e01b8152600401611bc79190613cc6565b602060405180830381865afa158015611be4573d6000803e3d6000fd5b505050506040513d601f19601f82011682018060405250810190611c089190614222565b73ffffffffffffffffffffffffffffffffffffffff1614611c5e576040517f08c379a0000000000000000000000000000000000000000000000000000000008152600401611c55906149ee565b60405180910390fd5b611d638173ffffffffffffffffffffffffffffffffffffffff166356406fa5866040518263ffffffff1660e01b8152600401611c9a9190613cc6565b602060405180830381865afa158015611cb7573d6000803e3d6000fd5b505050506040513d601f19601f82011682018060405250810190611cdb9190614585565b8273ffffffffffffffffffffffffffffffffffffffff1663968b098f876040518263ffffffff1660e01b8152600401611d149190613cc6565b602060405180830381865afa158015611d31573d6000803e3d6000fd5b505050506040513d601f19601f82011682018060405250810190611d559190614585565b61316790919063ffffffff16565b421015611da5576040517f08c379a0000000000000000000000000000000000000000000000000000000008152600401611d9c90614a5a565b60405180910390fd5b8073ffffffffffffffffffffffffffffffffffffffff1663641411f885336040518363ffffffff1660e01b8152600401611de0929190614a7a565b6020604051808303816000875af1158015611dff573d6000803e3d6000fd5b505050506040513d601f19601f82011682018060405250810190611e2391906142e1565b508173ffffffffffffffffffffffffffffffffffffffff167f5cfacced9b0054c7760e6620dfb8bb83cae10b8c701ad759b2e68e0d6707bfd48588888573ffffffffffffffffffffffffffffffffffffffff166323bd4d7a6040518163ffffffff1660e01b8152600401600060405180830381865afa158015611eaa573d6000803e3d6000fd5b505050506040513d6000823e3d601f19601f82011682018060405250810190611ed39190613f44565b42604051611ee5959493929190614aa3565b60405180910390a2600192505050600160cb819055509392505050565b6000600260cb541415611f4a576040517f08c379a0000000000000000000000000000000000000000000000000000000008152600401611f4190614169565b60405180910390fd5b600260cb819055507f000000000000000000000000000000000000000000000000000000000000000073ffffffffffffffffffffffffffffffffffffffff163073ffffffffffffffffffffffffffffffffffffffff161415611fe1576040517f08c379a0000000000000000000000000000000000000000000000000000000008152600401611fd890613fff565b60405180910390fd5b7f000000000000000000000000000000000000000000000000000000000000000073ffffffffffffffffffffffffffffffffffffffff16612020612e55565b73ffffffffffffffffffffffffffffffffffffffff1614612076576040517f08c379a000000000000000000000000000000000000000000000000000000000815260040161206d90614091565b60405180910390fd5b60006120828787611442565b9050600081905061209286610c8e565b6120d1576040517f08c379a00000000000000000000000000000000000000000000000000000000081526004016120c890614b44565b60405180910390fd5b600115156120df8989612d9c565b151514612121576040517f08c379a000000000000000000000000000000000000000000000000000000000815260040161211890614bb0565b60405180910390fd5b60008173ffffffffffffffffffffffffffffffffffffffff1663e129b333338989896040518563ffffffff1660e01b81526004016121629493929190614bd0565b6020604051808303816000875af1158015612181573d6000803e3d6000fd5b505050506040513d601f19601f820116820180604052508101906121a591906147d5565b90508273ffffffffffffffffffffffffffffffffffffffff167f787b2d0c3b917fe6a118b5225b044e4a4ba6d2d1cfa26f9b156fc1b1e263dee7828b8b8673ffffffffffffffffffffffffffffffffffffffff166323bd4d7a6040518163ffffffff1660e01b8152600401600060405180830381865afa15801561222d573d6000803e3d6000fd5b505050506040513d6000823e3d601f19601f820116820180604052508101906122569190613f44565b8c42338d8f60405161227099989796959493929190614c15565b60405180910390a260019350505050600160cb8190555095945050505050565b600061229a612e55565b905090565b600160009054906101000a900473ffffffffffffffffffffffffffffffffffffffff1681565b600260159054906101000a900460ff166122ef57600260149054906101000a900460ff16156122f8565b6122f761317d565b5b612337576040517f08c379a000000000000000000000000000000000000000000000000000000000815260040161232e90614d15565b60405180910390fd5b6000600260159054906101000a900460ff161590508015612389576001600260156101000a81548160ff0219169083151502179055506001600260146101000a81548160ff0219169083151502179055505b7f000000000000000000000000000000000000000000000000000000000000000073ffffffffffffffffffffffffffffffffffffffff163073ffffffffffffffffffffffffffffffffffffffff161415612418576040517f08c379a000000000000000000000000000000000000000000000000000000000815260040161240f90613fff565b60405180910390fd5b7f000000000000000000000000000000000000000000000000000000000000000073ffffffffffffffffffffffffffffffffffffffff16612457612e55565b73ffffffffffffffffffffffffffffffffffffffff16146124ad576040517f08c379a00000000000000000000000000000000000000000000000000000000081526004016124a490614091565b60405180910390fd5b6124b561318e565b6124bd6131e7565b6124c682613238565b6124ce6132cb565b80156124f0576000600260156101000a81548160ff0219169083151502179055505b5050565b6000600260cb54141561253c576040517f08c379a000000000000000000000000000000000000000000000000000000000815260040161253390614169565b60405180910390fd5b600260cb819055507f000000000000000000000000000000000000000000000000000000000000000073ffffffffffffffffffffffffffffffffffffffff163073ffffffffffffffffffffffffffffffffffffffff1614156125d3576040517f08c379a00000000000000000000000000000000000000000000000000000000081526004016125ca90613fff565b60405180910390fd5b7f000000000000000000000000000000000000000000000000000000000000000073ffffffffffffffffffffffffffffffffffffffff16612612612e55565b73ffffffffffffffffffffffffffffffffffffffff1614612668576040517f08c379a000000000000000000000000000000000000000000000000000000000815260040161265f90614091565b60405180910390fd5b60006126748787611442565b9050600081905061268486610c8e565b6126c3576040517f08c379a00000000000000000000000000000000000000000000000000000000081526004016126ba90614b44565b60405180910390fd5b6126cd8888612d9c565b61270c576040517f08c379a000000000000000000000000000000000000000000000000000000000815260040161270390614bb0565b60405180910390fd5b6000808273ffffffffffffffffffffffffffffffffffffffff1663d6fe0f4434338b8b8b6040518663ffffffff1660e01b815260040161274f9493929190614bd0565b604080518083038185885af115801561276c573d6000803e3d6000fd5b50505050506040513d601f19601f820116820180604052508101906127919190614d35565b915091508373ffffffffffffffffffffffffffffffffffffffff167faf36131f1dc94492cced7f049feaadaceaba10e417412ce818eccd383e16f563838c8c8773ffffffffffffffffffffffffffffffffffffffff166323bd4d7a6040518163ffffffff1660e01b8152600401600060405180830381865afa15801561281b573d6000803e3d6000fd5b505050506040513d6000823e3d601f19601f820116820180604052508101906128449190613f44565b8d42338e8a60405161285e99989796959493929190614c15565b60405180910390a26001945050505050600160cb8190555095945050505050565b7f000000000000000000000000000000000000000000000000000000000000000073ffffffffffffffffffffffffffffffffffffffff163073ffffffffffffffffffffffffffffffffffffffff16141561290e576040517f08c379a000000000000000000000000000000000000000000000000000000000815260040161290590613fff565b60405180910390fd5b7f000000000000000000000000000000000000000000000000000000000000000073ffffffffffffffffffffffffffffffffffffffff1661294d612e55565b73ffffffffffffffffffffffffffffffffffffffff16146129a3576040517f08c379a000000000000000000000000000000000000000000000000000000000815260040161299a90614091565b60405180910390fd5b6129ab612eac565b73ffffffffffffffffffffffffffffffffffffffff166129c9611976565b73ffffffffffffffffffffffffffffffffffffffff1614612a1f576040517f08c379a0000000000000000000000000000000000000000000000000000000008152600401612a16906140fd565b60405180910390fd5b600073ffffffffffffffffffffffffffffffffffffffff168173ffffffffffffffffffffffffffffffffffffffff161415612a8f576040517f08c379a0000000000000000000000000000000000000000000000000000000008152600401612a8690614de7565b60405180910390fd5b612a9881613324565b50565b612aa3612eac565b73ffffffffffffffffffffffffffffffffffffffff16612ac1611976565b73ffffffffffffffffffffffffffffffffffffffff1614612b17576040517f08c379a0000000000000000000000000000000000000000000000000000000008152600401612b0e906140fd565b60405180910390fd5b600073ffffffffffffffffffffffffffffffffffffffff168173ffffffffffffffffffffffffffffffffffffffff161415612b87576040517f08c379a0000000000000000000000000000000000000000000000000000000008152600401612b7e90614e79565b60405180910390fd5b612b90816130a1565b50565b7f000000000000000000000000000000000000000000000000000000000000000073ffffffffffffffffffffffffffffffffffffffff163073ffffffffffffffffffffffffffffffffffffffff161415612c22576040517f08c379a0000000000000000000000000000000000000000000000000000000008152600401612c1990613fff565b60405180910390fd5b7f000000000000000000000000000000000000000000000000000000000000000073ffffffffffffffffffffffffffffffffffffffff16612c61612e55565b73ffffffffffffffffffffffffffffffffffffffff1614612cb7576040517f08c379a0000000000000000000000000000000000000000000000000000000008152600401612cae90614091565b60405180910390fd5b612cbf612eac565b73ffffffffffffffffffffffffffffffffffffffff16612cdd611976565b73ffffffffffffffffffffffffffffffffffffffff1614612d33576040517f08c379a0000000000000000000000000000000000000000000000000000000008152600401612d2a906140fd565b60405180910390fd5b806000806101000a81548173ffffffffffffffffffffffffffffffffffffffff021916908373ffffffffffffffffffffffffffffffffffffffff16021790555050565b600260009054906101000a900473ffffffffffffffffffffffffffffffffffffffff1681565b600080612da98484611442565b905060008190506000806001811115612dc557612dc4614e99565b5b8273ffffffffffffffffffffffffffffffffffffffff1663200d2ed26040518163ffffffff1660e01b8152600401602060405180830381865afa158015612e10573d6000803e3d6000fd5b505050506040513d601f19601f82011682018060405250810190612e349190614eed565b6001811115612e4657612e45614e99565b5b14905080935050505092915050565b6000612e837f360894a13ba1a3210667c828492db98dca3e2076cc3735a920a3ca505d382bbc60001b6133ea565b60000160009054906101000a900473ffffffffffffffffffffffffffffffffffffffff16905090565b600033905090565b612ebc612eac565b73ffffffffffffffffffffffffffffffffffffffff16612eda611976565b73ffffffffffffffffffffffffffffffffffffffff1614612f30576040517f08c379a0000000000000000000000000000000000000000000000000000000008152600401612f27906140fd565b60405180910390fd5b50565b612f5f7f4910fdfa16fed3260ed0e7147f7cc6da11a60208b5b9406d12a635614ffd914360001b6133f4565b60000160009054906101000a900460ff1615612f8357612f7e836133fe565b61309c565b8273ffffffffffffffffffffffffffffffffffffffff166352d1902d6040518163ffffffff1660e01b8152600401602060405180830381865afa925050508015612feb57506040513d601f19601f82011682018060405250810190612fe891906147d5565b60015b61302a576040517f08c379a000000000000000000000000000000000000000000000000000000000815260040161302190614f8c565b60405180910390fd5b7f360894a13ba1a3210667c828492db98dca3e2076cc3735a920a3ca505d382bbc60001b811461308f576040517f08c379a00000000000000000000000000000000000000000000000000000000081526004016130869061501e565b60405180910390fd5b5061309b8383836134b7565b5b505050565b6000606760009054906101000a900473ffffffffffffffffffffffffffffffffffffffff16905081606760006101000a81548173ffffffffffffffffffffffffffffffffffffffff021916908373ffffffffffffffffffffffffffffffffffffffff1602179055508173ffffffffffffffffffffffffffffffffffffffff168173ffffffffffffffffffffffffffffffffffffffff167f8be0079c531659141344cd1fd0a4f28419497f9722a3daafe3b4186f6b6457e060405160405180910390a35050565b60008183613175919061503e565b905092915050565b6000613188306134e3565b15905090565b600260159054906101000a900460ff166131dd576040517f08c379a00000000000000000000000000000000000000000000000000000000081526004016131d490615106565b60405180910390fd5b6131e5613506565b565b600260159054906101000a900460ff16613236576040517f08c379a000000000000000000000000000000000000000000000000000000000815260040161322d90615106565b60405180910390fd5b565b600260159054906101000a900460ff16613287576040517f08c379a000000000000000000000000000000000000000000000000000000000815260040161327e90615106565b60405180910390fd5b8060fd60006101000a81548173ffffffffffffffffffffffffffffffffffffffff021916908373ffffffffffffffffffffffffffffffffffffffff16021790555050565b600260159054906101000a900460ff1661331a576040517f08c379a000000000000000000000000000000000000000000000000000000000815260040161331190615106565b60405180910390fd5b613322613567565b565b600060fd60009054906101000a900473ffffffffffffffffffffffffffffffffffffffff1690508160fd60006101000a81548173ffffffffffffffffffffffffffffffffffffffff021916908373ffffffffffffffffffffffffffffffffffffffff1602179055508173ffffffffffffffffffffffffffffffffffffffff168173ffffffffffffffffffffffffffffffffffffffff167f9b0948b943e24ff3413cb400b2eeae4337138739aaf31759dc6e813e8076fbc360405160405180910390a35050565b6000819050919050565b6000819050919050565b613407816134e3565b613446576040517f08c379a000000000000000000000000000000000000000000000000000000000815260040161343d90615198565b60405180910390fd5b806134737f360894a13ba1a3210667c828492db98dca3e2076cc3735a920a3ca505d382bbc60001b6133ea565b60000160006101000a81548173ffffffffffffffffffffffffffffffffffffffff021916908373ffffffffffffffffffffffffffffffffffffffff16021790555050565b6134c0836135c0565b6000825111806134cd5750805b156134de576134dc838361360f565b505b505050565b6000808273ffffffffffffffffffffffffffffffffffffffff163b119050919050565b600260159054906101000a900460ff16613555576040517f08c379a000000000000000000000000000000000000000000000000000000000815260040161354c90615106565b60405180910390fd5b613565613560612eac565b6130a1565b565b600260159054906101000a900460ff166135b6576040517f08c379a00000000000000000000000000000000000000000000000000000000081526004016135ad90615106565b60405180910390fd5b600160cb81905550565b6135c9816133fe565b8073ffffffffffffffffffffffffffffffffffffffff167fbc7cd75a20ee27fd9adebab32041f755214dbc6bffa90cc0225b39da2e5c2d3b60405160405180910390a250565b606061361a836134e3565b613659576040517f08c379a00000000000000000000000000000000000000000000000000000000081526004016136509061522a565b60405180910390fd5b6000808473ffffffffffffffffffffffffffffffffffffffff16846040516136819190615291565b600060405180830381855af49150503d80600081146136bc576040519150601f19603f3d011682016040523d82523d6000602084013e6136c1565b606091505b50915091506136e982826040518060600160405280602781526020016152a9602791396136f3565b9250505092915050565b6060831561370357829050613753565b6000835111156137165782518084602001fd5b816040517f08c379a000000000000000000000000000000000000000000000000000000000815260040161374a919061390c565b60405180910390fd5b9392505050565b600073ffffffffffffffffffffffffffffffffffffffff82169050919050565b6000819050919050565b600061379f61379a6137958461375a565b61377a565b61375a565b9050919050565b60006137b182613784565b9050919050565b60006137c3826137a6565b9050919050565b6137d3816137b8565b82525050565b60006020820190506137ee60008301846137ca565b92915050565b6000604051905090565b600080fd5b600080fd5b60006138138261375a565b9050919050565b61382381613808565b811461382e57600080fd5b50565b6000813590506138408161381a565b92915050565b60006020828403121561385c5761385b6137fe565b5b600061386a84828501613831565b91505092915050565b600081519050919050565b600082825260208201905092915050565b60005b838110156138ad578082015181840152602081019050613892565b838111156138bc576000848401525b50505050565b6000601f19601f8301169050919050565b60006138de82613873565b6138e8818561387e565b93506138f881856020860161388f565b613901816138c2565b840191505092915050565b6000602082019050818103600083015261392681846138d3565b905092915050565b600080fd5b600080fd5b600080fd5b60008083601f8401126139535761395261392e565b5b8235905067ffffffffffffffff8111156139705761396f613933565b5b60208301915083600182028301111561398c5761398b613938565b5b9250929050565b600080600080604085870312156139ad576139ac6137fe565b5b600085013567ffffffffffffffff8111156139cb576139ca613803565b5b6139d78782880161393d565b9450945050602085013567ffffffffffffffff8111156139fa576139f9613803565b5b613a068782880161393d565b925092505092959194509250565b613a1d81613808565b82525050565b6000602082019050613a386000830184613a14565b92915050565b60008115159050919050565b613a5381613a3e565b82525050565b6000602082019050613a6e6000830184613a4a565b92915050565b600080600060408486031215613a8d57613a8c6137fe565b5b600084013567ffffffffffffffff811115613aab57613aaa613803565b5b613ab78682870161393d565b93509350506020613aca86828701613831565b9150509250925092565b60008060208385031215613aeb57613aea6137fe565b5b600083013567ffffffffffffffff811115613b0957613b08613803565b5b613b158582860161393d565b92509250509250929050565b600080fd5b7f4e487b7100000000000000000000000000000000000000000000000000000000600052604160045260246000fd5b613b5e826138c2565b810181811067ffffffffffffffff82111715613b7d57613b7c613b26565b5b80604052505050565b6000613b906137f4565b9050613b9c8282613b55565b919050565b600067ffffffffffffffff821115613bbc57613bbb613b26565b5b613bc5826138c2565b9050602081019050919050565b82818337600083830152505050565b6000613bf4613bef84613ba1565b613b86565b905082815260208101848484011115613c1057613c0f613b21565b5b613c1b848285613bd2565b509392505050565b600082601f830112613c3857613c3761392e565b5b8135613c48848260208601613be1565b91505092915050565b60008060408385031215613c6857613c676137fe565b5b6000613c7685828601613831565b925050602083013567ffffffffffffffff811115613c9757613c96613803565b5b613ca385828601613c23565b9150509250929050565b6000819050919050565b613cc081613cad565b82525050565b6000602082019050613cdb6000830184613cb7565b92915050565b613cea81613cad565b8114613cf557600080fd5b50565b600081359050613d0781613ce1565b92915050565b600080600060408486031215613d2657613d256137fe565b5b600084013567ffffffffffffffff811115613d4457613d43613803565b5b613d508682870161393d565b93509350506020613d6386828701613cf8565b9150509250925092565b6000819050919050565b613d8081613d6d565b8114613d8b57600080fd5b50565b600081359050613d9d81613d77565b92915050565b600080600080600060808688031215613dbf57613dbe6137fe565b5b600086013567ffffffffffffffff811115613ddd57613ddc613803565b5b613de98882890161393d565b95509550506020613dfc88828901613831565b9350506040613e0d88828901613d8e565b9250506060613e1e88828901613d8e565b9150509295509295909350565b6000613e36826137a6565b9050919050565b613e4681613e2b565b82525050565b6000602082019050613e616000830184613e3d565b92915050565b6000613e72826137a6565b9050919050565b613e8281613e67565b82525050565b6000602082019050613e9d6000830184613e79565b92915050565b600067ffffffffffffffff821115613ebe57613ebd613b26565b5b613ec7826138c2565b9050602081019050919050565b6000613ee7613ee284613ea3565b613b86565b905082815260208101848484011115613f0357613f02613b21565b5b613f0e84828561388f565b509392505050565b600082601f830112613f2b57613f2a61392e565b5b8151613f3b848260208601613ed4565b91505092915050565b600060208284031215613f5a57613f596137fe565b5b600082015167ffffffffffffffff811115613f7857613f77613803565b5b613f8484828501613f16565b91505092915050565b7f46756e6374696f6e206d7573742062652063616c6c6564207468726f7567682060008201527f64656c656761746563616c6c0000000000000000000000000000000000000000602082015250565b6000613fe9602c8361387e565b9150613ff482613f8d565b604082019050919050565b6000602082019050818103600083015261401881613fdc565b9050919050565b7f46756e6374696f6e206d7573742062652063616c6c6564207468726f7567682060008201527f6163746976652070726f78790000000000000000000000000000000000000000602082015250565b600061407b602c8361387e565b91506140868261401f565b604082019050919050565b600060208201905081810360008301526140aa8161406e565b9050919050565b7f4f776e61626c653a2063616c6c6572206973206e6f7420746865206f776e6572600082015250565b60006140e760208361387e565b91506140f2826140b1565b602082019050919050565b60006020820190508181036000830152614116816140da565b9050919050565b7f5265656e7472616e637947756172643a207265656e7472616e742063616c6c00600082015250565b6000614153601f8361387e565b915061415e8261411d565b602082019050919050565b6000602082019050818103600083015261418281614146565b9050919050565b6000614195838561387e565b93506141a2838584613bd2565b6141ab836138c2565b840190509392505050565b600060808201905081810360008301526141d181888a614189565b90506141e06020830187613a14565b81810360408301526141f3818587614189565b90506142026060830184613a14565b979650505050505050565b60008151905061421c8161381a565b92915050565b600060208284031215614238576142376137fe565b5b60006142468482850161420d565b91505092915050565b61425881613d6d565b82525050565b6000608082019050818103600083015261427981888a614189565b9050818103602083015261428e818688614189565b905061429d6040830185613a14565b6142aa606083018461424f565b979650505050505050565b6142be81613a3e565b81146142c957600080fd5b50565b6000815190506142db816142b5565b92915050565b6000602082840312156142f7576142f66137fe565b5b6000614305848285016142cc565b91505092915050565b7f4f7261636c697a653a2063616c6c6572206973206e6f7420746865206375727260008201527f656e74204f70656e51204f7261636c6500000000000000000000000000000000602082015250565b600061436a60308361387e565b91506143758261430e565b604082019050919050565b600060208201905081810360008301526143998161435d565b9050919050565b7f434c41494d494e475f434c4f5345445f424f554e545900000000000000000000600082015250565b60006143d660168361387e565b91506143e1826143a0565b602082019050919050565b60006020820190508181036000830152614405816143c9565b9050919050565b600067ffffffffffffffff82111561442757614426613b26565b5b602082029050602081019050919050565b600061444b6144468461440c565b613b86565b9050808382526020820190506020840283018581111561446e5761446d613938565b5b835b818110156144975780614483888261420d565b845260208401935050602081019050614470565b5050509392505050565b600082601f8301126144b6576144b561392e565b5b81516144c6848260208601614438565b91505092915050565b6000602082840312156144e5576144e46137fe565b5b600082015167ffffffffffffffff81111561450357614502613803565b5b61450f848285016144a1565b91505092915050565b7f4e487b7100000000000000000000000000000000000000000000000000000000600052603260045260246000fd5b600060408201905061455c6000830185613a14565b6145696020830184613a14565b9392505050565b60008151905061457f81613d77565b92915050565b60006020828403121561459b5761459a6137fe565b5b60006145a984828501614570565b91505092915050565b600060c08201905081810360008301526145cc81896138d3565b905081810360208301526145e081886138d3565b90506145ef6040830187613a14565b6145fc606083018661424f565b6146096080830185613a14565b61461660a083018461424f565b979650505050505050565b7f4e487b7100000000000000000000000000000000000000000000000000000000600052601160045260246000fd5b600061465b82613d6d565b91507fffffffffffffffffffffffffffffffffffffffffffffffffffffffffffffffff82141561468e5761468d614621565b5b600182019050919050565b600067ffffffffffffffff8211156146b4576146b3613b26565b5b602082029050602081019050919050565b6000815190506146d481613ce1565b92915050565b60006146ed6146e884614699565b613b86565b905080838252602082019050602084028301858111156147105761470f613938565b5b835b81811015614739578061472588826146c5565b845260208401935050602081019050614712565b5050509392505050565b600082601f8301126147585761475761392e565b5b81516147688482602086016146da565b91505092915050565b600060208284031215614787576147866137fe565b5b600082015167ffffffffffffffff8111156147a5576147a4613803565b5b6147b184828501614743565b91505092915050565b60006020820190506147cf600083018461424f565b92915050565b6000602082840312156147eb576147ea6137fe565b5b60006147f9848285016146c5565b91505092915050565b60006040820190506148176000830185613a14565b6148246020830184613cb7565b9392505050565b60006080820190508181036000830152614846818789614189565b9050818103602083015261485a81866138d3565b90506148696040830185613a14565b614876606083018461424f565b9695505050505050565b6000602082019050818103600083015261489b818486614189565b90509392505050565b7f555550535570677261646561626c653a206d757374206e6f742062652063616c60008201527f6c6564207468726f7567682064656c656761746563616c6c0000000000000000602082015250565b600061490060388361387e565b915061490b826148a4565b604082019050919050565b6000602082019050818103600083015261492f816148f3565b9050919050565b7f524546554e44494e475f434c4f5345445f424f554e5459000000000000000000600082015250565b600061496c60178361387e565b915061497782614936565b602082019050919050565b6000602082019050818103600083015261499b8161495f565b9050919050565b7f4f4e4c595f46554e4445525f43414e5f524551554553545f524546554e440000600082015250565b60006149d8601e8361387e565b91506149e3826149a2565b602082019050919050565b60006020820190508181036000830152614a07816149cb565b9050919050565b7f5052454d41545552455f524546554e445f524551554553540000000000000000600082015250565b6000614a4460188361387e565b9150614a4f82614a0e565b602082019050919050565b60006020820190508181036000830152614a7381614a37565b9050919050565b6000604082019050614a8f6000830185613cb7565b614a9c6020830184613a14565b9392505050565b6000608082019050614ab86000830188613cb7565b8181036020830152614acb818688614189565b90508181036040830152614adf81856138d3565b9050614aee606083018461424f565b9695505050505050565b7f544f4b454e5f4e4f545f41434345505445440000000000000000000000000000600082015250565b6000614b2e60128361387e565b9150614b3982614af8565b602082019050919050565b60006020820190508181036000830152614b5d81614b21565b9050919050565b7f46554e44494e475f434c4f5345445f424f554e54590000000000000000000000600082015250565b6000614b9a60158361387e565b9150614ba582614b64565b602082019050919050565b60006020820190508181036000830152614bc981614b8d565b9050919050565b6000608082019050614be56000830187613a14565b614bf26020830186613a14565b614bff604083018561424f565b614c0c606083018461424f565b95945050505050565b600061010082019050614c2b600083018c613cb7565b8181036020830152614c3e818a8c614189565b90508181036040830152614c5281896138d3565b9050614c616060830188613a14565b614c6e608083018761424f565b614c7b60a0830186613a14565b614c8860c083018561424f565b614c9560e083018461424f565b9a9950505050505050505050565b7f496e697469616c697a61626c653a20636f6e747261637420697320616c72656160008201527f647920696e697469616c697a6564000000000000000000000000000000000000602082015250565b6000614cff602e8361387e565b9150614d0a82614ca3565b604082019050919050565b60006020820190508181036000830152614d2e81614cf2565b9050919050565b60008060408385031215614d4c57614d4b6137fe565b5b6000614d5a858286016146c5565b9250506020614d6b85828601614570565b9150509250929050565b7f4f7261636c697a653a206e6577206f7261636c6520697320746865207a65726f60008201527f2061646472657373000000000000000000000000000000000000000000000000602082015250565b6000614dd160288361387e565b9150614ddc82614d75565b604082019050919050565b60006020820190508181036000830152614e0081614dc4565b9050919050565b7f4f776e61626c653a206e6577206f776e657220697320746865207a65726f206160008201527f6464726573730000000000000000000000000000000000000000000000000000602082015250565b6000614e6360268361387e565b9150614e6e82614e07565b604082019050919050565b60006020820190508181036000830152614e9281614e56565b9050919050565b7f4e487b7100000000000000000000000000000000000000000000000000000000600052602160045260246000fd5b60028110614ed557600080fd5b50565b600081519050614ee781614ec8565b92915050565b600060208284031215614f0357614f026137fe565b5b6000614f1184828501614ed8565b91505092915050565b7f45524331393637557067726164653a206e657720696d706c656d656e7461746960008201527f6f6e206973206e6f742055555053000000000000000000000000000000000000602082015250565b6000614f76602e8361387e565b9150614f8182614f1a565b604082019050919050565b60006020820190508181036000830152614fa581614f69565b9050919050565b7f45524331393637557067726164653a20756e737570706f727465642070726f7860008201527f6961626c65555549440000000000000000000000000000000000000000000000602082015250565b600061500860298361387e565b915061501382614fac565b604082019050919050565b6000602082019050818103600083015261503781614ffb565b9050919050565b600061504982613d6d565b915061505483613d6d565b9250827fffffffffffffffffffffffffffffffffffffffffffffffffffffffffffffffff0382111561508957615088614621565b5b828201905092915050565b7f496e697469616c697a61626c653a20636f6e7472616374206973206e6f74206960008201527f6e697469616c697a696e67000000000000000000000000000000000000000000602082015250565b60006150f0602b8361387e565b91506150fb82615094565b604082019050919050565b6000602082019050818103600083015261511f816150e3565b9050919050565b7f455243313936373a206e657720696d706c656d656e746174696f6e206973206e60008201527f6f74206120636f6e747261637400000000000000000000000000000000000000602082015250565b6000615182602d8361387e565b915061518d82615126565b604082019050919050565b600060208201905081810360008301526151b181615175565b9050919050565b7f416464726573733a2064656c65676174652063616c6c20746f206e6f6e2d636f60008201527f6e74726163740000000000000000000000000000000000000000000000000000602082015250565b600061521460268361387e565b915061521f826151b8565b604082019050919050565b6000602082019050818103600083015261524381615207565b9050919050565b600081519050919050565b600081905092915050565b600061526b8261524a565b6152758185615255565b935061528581856020860161388f565b80840191505092915050565b600061529d8284615260565b91508190509291505056fe416464726573733a206c6f772d6c6576656c2064656c65676174652063616c6c206661696c6564a26469706673582212202577bbae378343f10b0c831ef000b9c413cf95af5566bbe5171b355fd652089064736f6c634300080c0033",
  "linkReferences": {},
  "deployedLinkReferences": {}
}