{
  "_format": "hh-sol-artifact-1",
  "contractName": "OpenQV0",
  "sourceName": "contracts/OpenQ/Implementations/OpenQV0.sol",
  "abi": [
    {
      "inputs": [],
      "stateMutability": "nonpayable",
      "type": "constructor"
    },
    {
      "anonymous": false,
      "inputs": [
        {
          "indexed": false,
          "internalType": "address",
          "name": "previousAdmin",
          "type": "address"
        },
        {
          "indexed": false,
          "internalType": "address",
          "name": "newAdmin",
          "type": "address"
        }
      ],
      "name": "AdminChanged",
      "type": "event"
    },
    {
      "anonymous": false,
      "inputs": [
        {
          "indexed": true,
          "internalType": "address",
          "name": "beacon",
          "type": "address"
        }
      ],
      "name": "BeaconUpgraded",
      "type": "event"
    },
    {
      "anonymous": false,
      "inputs": [
        {
          "indexed": false,
          "internalType": "string",
          "name": "bountyId",
          "type": "string"
        },
        {
          "indexed": true,
          "internalType": "address",
          "name": "bountyAddress",
          "type": "address"
        },
        {
          "indexed": false,
          "internalType": "string",
          "name": "organization",
          "type": "string"
        },
        {
          "indexed": false,
          "internalType": "address",
          "name": "closer",
          "type": "address"
        },
        {
          "indexed": false,
          "internalType": "uint256",
          "name": "bountyClosedTime",
          "type": "uint256"
        }
      ],
      "name": "BountyClosed",
      "type": "event"
    },
    {
      "anonymous": false,
      "inputs": [
        {
          "indexed": false,
          "internalType": "string",
          "name": "bountyId",
          "type": "string"
        },
        {
          "indexed": false,
          "internalType": "string",
          "name": "organization",
          "type": "string"
        },
        {
          "indexed": false,
          "internalType": "address",
          "name": "issuerAddress",
          "type": "address"
        },
        {
          "indexed": true,
          "internalType": "address",
          "name": "bountyAddress",
          "type": "address"
        },
        {
          "indexed": false,
          "internalType": "uint256",
          "name": "bountyMintTime",
          "type": "uint256"
        }
      ],
      "name": "BountyCreated",
      "type": "event"
    },
    {
      "anonymous": false,
      "inputs": [
        {
          "indexed": false,
          "internalType": "bytes32",
          "name": "depositId",
          "type": "bytes32"
        },
        {
          "indexed": false,
          "internalType": "uint256",
          "name": "newExpiration",
          "type": "uint256"
        }
      ],
      "name": "DepositExtended",
      "type": "event"
    },
    {
      "anonymous": false,
      "inputs": [
        {
          "indexed": false,
          "internalType": "bytes32",
          "name": "depositId",
          "type": "bytes32"
        },
        {
          "indexed": false,
          "internalType": "string",
          "name": "bountyId",
          "type": "string"
        },
        {
          "indexed": true,
          "internalType": "address",
          "name": "bountyAddress",
          "type": "address"
        },
        {
          "indexed": false,
          "internalType": "string",
          "name": "organization",
          "type": "string"
        },
        {
          "indexed": false,
          "internalType": "uint256",
          "name": "refundTime",
          "type": "uint256"
        }
      ],
      "name": "DepositRefunded",
      "type": "event"
    },
    {
      "anonymous": false,
      "inputs": [
        {
          "indexed": false,
          "internalType": "bytes32",
          "name": "depositId",
          "type": "bytes32"
        },
        {
          "indexed": true,
          "internalType": "address",
          "name": "bountyAddress",
          "type": "address"
        },
        {
          "indexed": false,
          "internalType": "string",
          "name": "bountyId",
          "type": "string"
        },
        {
          "indexed": false,
          "internalType": "string",
          "name": "organization",
          "type": "string"
        },
        {
          "indexed": false,
          "internalType": "address",
          "name": "tokenAddress",
          "type": "address"
        },
        {
          "indexed": false,
          "internalType": "uint256",
          "name": "receiveTime",
          "type": "uint256"
        },
        {
          "indexed": false,
          "internalType": "address",
          "name": "sender",
          "type": "address"
        },
        {
          "indexed": false,
          "internalType": "uint256",
          "name": "expiration",
          "type": "uint256"
        },
        {
          "indexed": false,
          "internalType": "uint256",
          "name": "tokenId",
          "type": "uint256"
        }
      ],
      "name": "NFTDepositReceived",
      "type": "event"
    },
    {
      "anonymous": false,
      "inputs": [
        {
          "indexed": true,
          "internalType": "address",
          "name": "previousOracle",
          "type": "address"
        },
        {
          "indexed": true,
          "internalType": "address",
          "name": "newOracle",
          "type": "address"
        }
      ],
      "name": "OracleTransferred",
      "type": "event"
    },
    {
      "anonymous": false,
      "inputs": [
        {
          "indexed": true,
          "internalType": "address",
          "name": "previousOwner",
          "type": "address"
        },
        {
          "indexed": true,
          "internalType": "address",
          "name": "newOwner",
          "type": "address"
        }
      ],
      "name": "OwnershipTransferred",
      "type": "event"
    },
    {
      "anonymous": false,
      "inputs": [
        {
          "indexed": false,
          "internalType": "string",
          "name": "bountyId",
          "type": "string"
        },
        {
          "indexed": true,
          "internalType": "address",
          "name": "bountyAddress",
          "type": "address"
        },
        {
          "indexed": false,
          "internalType": "string",
          "name": "organization",
          "type": "string"
        },
        {
          "indexed": false,
          "internalType": "address",
          "name": "closer",
          "type": "address"
        },
        {
          "indexed": false,
          "internalType": "uint256",
          "name": "payoutTime",
          "type": "uint256"
        },
        {
          "indexed": false,
          "internalType": "address",
          "name": "tokenAddress",
          "type": "address"
        },
        {
          "indexed": false,
          "internalType": "uint256",
          "name": "volume",
          "type": "uint256"
        }
      ],
      "name": "TokenBalanceClaimed",
      "type": "event"
    },
    {
      "anonymous": false,
      "inputs": [
        {
          "indexed": false,
          "internalType": "bytes32",
          "name": "depositId",
          "type": "bytes32"
        },
        {
          "indexed": true,
          "internalType": "address",
          "name": "bountyAddress",
          "type": "address"
        },
        {
          "indexed": false,
          "internalType": "string",
          "name": "bountyId",
          "type": "string"
        },
        {
          "indexed": false,
          "internalType": "string",
          "name": "organization",
          "type": "string"
        },
        {
          "indexed": false,
          "internalType": "address",
          "name": "tokenAddress",
          "type": "address"
        },
        {
          "indexed": false,
          "internalType": "uint256",
          "name": "receiveTime",
          "type": "uint256"
        },
        {
          "indexed": false,
          "internalType": "address",
          "name": "sender",
          "type": "address"
        },
        {
          "indexed": false,
          "internalType": "uint256",
          "name": "expiration",
          "type": "uint256"
        },
        {
          "indexed": false,
          "internalType": "uint256",
          "name": "volume",
          "type": "uint256"
        }
      ],
      "name": "TokenDepositReceived",
      "type": "event"
    },
    {
      "anonymous": false,
      "inputs": [
        {
          "indexed": true,
          "internalType": "address",
          "name": "implementation",
          "type": "address"
        }
      ],
      "name": "Upgraded",
      "type": "event"
    },
    {
      "inputs": [
        {
          "internalType": "address",
          "name": "_bountyAddress",
          "type": "address"
        }
      ],
      "name": "bountyAddressToBountyId",
      "outputs": [
        {
          "internalType": "string",
          "name": "",
          "type": "string"
        }
      ],
      "stateMutability": "view",
      "type": "function"
    },
    {
      "inputs": [],
      "name": "bountyFactory",
      "outputs": [
        {
          "internalType": "contract BountyFactory",
          "name": "",
          "type": "address"
        }
      ],
      "stateMutability": "view",
      "type": "function"
    },
    {
      "inputs": [
        {
          "internalType": "string",
          "name": "",
          "type": "string"
        }
      ],
      "name": "bountyIdToAddress",
      "outputs": [
        {
          "internalType": "address",
          "name": "",
          "type": "address"
        }
      ],
      "stateMutability": "view",
      "type": "function"
    },
    {
      "inputs": [
        {
          "internalType": "string",
          "name": "_bountyId",
          "type": "string"
        }
      ],
      "name": "bountyIsOpen",
      "outputs": [
        {
          "internalType": "bool",
          "name": "",
          "type": "bool"
        }
      ],
      "stateMutability": "view",
      "type": "function"
    },
    {
      "inputs": [
        {
          "internalType": "string",
          "name": "_bountyId",
          "type": "string"
        },
        {
          "internalType": "address",
          "name": "_closer",
          "type": "address"
        }
      ],
      "name": "claimBounty",
      "outputs": [],
      "stateMutability": "nonpayable",
      "type": "function"
    },
    {
      "inputs": [
        {
          "internalType": "string",
          "name": "_bountyId",
          "type": "string"
        },
        {
          "internalType": "bytes32",
          "name": "_depositId",
          "type": "bytes32"
        },
        {
          "internalType": "uint256",
          "name": "_seconds",
          "type": "uint256"
        }
      ],
      "name": "extendDeposit",
      "outputs": [],
      "stateMutability": "nonpayable",
      "type": "function"
    },
    {
      "inputs": [
        {
          "internalType": "string",
          "name": "_bountyId",
          "type": "string"
        },
        {
          "internalType": "address",
          "name": "_tokenAddress",
          "type": "address"
        },
        {
          "internalType": "uint256",
          "name": "_tokenId",
          "type": "uint256"
        },
        {
          "internalType": "uint256",
          "name": "_expiration",
          "type": "uint256"
        }
      ],
      "name": "fundBountyNFT",
      "outputs": [],
      "stateMutability": "nonpayable",
      "type": "function"
    },
    {
      "inputs": [
        {
          "internalType": "string",
          "name": "_bountyId",
          "type": "string"
        },
        {
          "internalType": "address",
          "name": "_tokenAddress",
          "type": "address"
        },
        {
          "internalType": "uint256",
          "name": "_volume",
          "type": "uint256"
        },
        {
          "internalType": "uint256",
          "name": "_expiration",
          "type": "uint256"
        }
      ],
      "name": "fundBountyToken",
      "outputs": [],
      "stateMutability": "payable",
      "type": "function"
    },
    {
      "inputs": [],
      "name": "getImplementation",
      "outputs": [
        {
          "internalType": "address",
          "name": "",
          "type": "address"
        }
      ],
      "stateMutability": "view",
      "type": "function"
    },
    {
      "inputs": [
        {
          "internalType": "address",
          "name": "oracle",
          "type": "address"
        }
      ],
      "name": "initialize",
      "outputs": [],
      "stateMutability": "nonpayable",
      "type": "function"
    },
    {
      "inputs": [
        {
          "internalType": "address",
          "name": "_tokenAddress",
          "type": "address"
        }
      ],
      "name": "isWhitelisted",
      "outputs": [
        {
          "internalType": "bool",
          "name": "",
          "type": "bool"
        }
      ],
      "stateMutability": "view",
      "type": "function"
    },
    {
      "inputs": [
        {
          "internalType": "string",
          "name": "_bountyId",
          "type": "string"
        },
        {
          "internalType": "string",
          "name": "_organization",
          "type": "string"
        }
      ],
      "name": "mintBounty",
      "outputs": [
        {
          "internalType": "address",
          "name": "",
          "type": "address"
        }
      ],
      "stateMutability": "nonpayable",
      "type": "function"
    },
    {
      "inputs": [],
      "name": "openQTokenWhitelist",
      "outputs": [
        {
          "internalType": "contract OpenQTokenWhitelist",
          "name": "",
          "type": "address"
        }
      ],
      "stateMutability": "view",
      "type": "function"
    },
    {
      "inputs": [],
      "name": "oracle",
      "outputs": [
        {
          "internalType": "address",
          "name": "",
          "type": "address"
        }
      ],
      "stateMutability": "view",
      "type": "function"
    },
    {
      "inputs": [],
      "name": "owner",
      "outputs": [
        {
          "internalType": "address",
          "name": "",
          "type": "address"
        }
      ],
      "stateMutability": "view",
      "type": "function"
    },
    {
      "inputs": [],
      "name": "proxiableUUID",
      "outputs": [
        {
          "internalType": "bytes32",
          "name": "",
          "type": "bytes32"
        }
      ],
      "stateMutability": "view",
      "type": "function"
    },
    {
      "inputs": [
        {
          "internalType": "string",
          "name": "_bountyId",
          "type": "string"
        },
        {
          "internalType": "bytes32",
          "name": "_depositId",
          "type": "bytes32"
        }
      ],
      "name": "refundDeposit",
      "outputs": [],
      "stateMutability": "nonpayable",
      "type": "function"
    },
    {
      "inputs": [],
      "name": "renounceOwnership",
      "outputs": [],
      "stateMutability": "nonpayable",
      "type": "function"
    },
    {
      "inputs": [
        {
          "internalType": "address",
          "name": "_bountyFactory",
          "type": "address"
        }
      ],
      "name": "setBountyFactory",
      "outputs": [],
      "stateMutability": "nonpayable",
      "type": "function"
    },
    {
      "inputs": [
        {
          "internalType": "address",
          "name": "_openQTokenWhitelist",
          "type": "address"
        }
      ],
      "name": "setTokenWhitelist",
      "outputs": [],
      "stateMutability": "nonpayable",
      "type": "function"
    },
    {
      "inputs": [
        {
          "internalType": "string",
          "name": "_bountyId",
          "type": "string"
        }
      ],
      "name": "tokenAddressLimitReached",
      "outputs": [
        {
          "internalType": "bool",
          "name": "",
          "type": "bool"
        }
      ],
      "stateMutability": "view",
      "type": "function"
    },
    {
      "inputs": [
        {
          "internalType": "address",
          "name": "_newOracle",
          "type": "address"
        }
      ],
      "name": "transferOracle",
      "outputs": [],
      "stateMutability": "nonpayable",
      "type": "function"
    },
    {
      "inputs": [
        {
          "internalType": "address",
          "name": "newOwner",
          "type": "address"
        }
      ],
      "name": "transferOwnership",
      "outputs": [],
      "stateMutability": "nonpayable",
      "type": "function"
    },
    {
      "inputs": [
        {
          "internalType": "address",
          "name": "newImplementation",
          "type": "address"
        }
      ],
      "name": "upgradeTo",
      "outputs": [],
      "stateMutability": "nonpayable",
      "type": "function"
    },
    {
      "inputs": [
        {
          "internalType": "address",
          "name": "newImplementation",
          "type": "address"
        },
        {
          "internalType": "bytes",
          "name": "data",
          "type": "bytes"
        }
      ],
      "name": "upgradeToAndCall",
      "outputs": [],
      "stateMutability": "payable",
      "type": "function"
    }
  ],
  "bytecode": "0x60a06040523060805234801561001457600080fd5b506080516134d76100ca600039600081816104f5015281816105350152818161082401528181610864015281816109390152818161097901528181610b6101528181610ba1015281816112c3015281816113030152818161137c015281816113bc0152818161146b01528181611578015281816115b8015281816119bc015281816119fc01528181611d2701528181611d6701528181611e2401528181611e64015281816121f8015261223801526134d76000f3fe6080604052600436106101665760003560e01c80637dc0d1d0116100d1578063c4d66de81161008a578063e732680611610064578063e73268061461043b578063f2fde38b1461045b578063f75161c61461047b578063fd1b2e3f1461049b57600080fd5b8063c4d66de8146103e8578063decef9b014610408578063e0c33c161461041b57600080fd5b80637dc0d1d0146103375780638da5cb5b14610355578063aaaa2c5e14610373578063aae5706514610393578063aaf10f42146103b3578063b8f75c0b146103c857600080fd5b80633e7da1a9116101235780633e7da1a91461026b57806348bd1e991461028b5780634f1ef286146102cc578063527b22db146102df57806352d1902d146102ff578063715018a61461032257600080fd5b8063062b366d1461016b57806310fd86c81461018d57806316a2a0cc146101c35780631ee290fb146101e35780633659cfe61461021b5780633af32abf1461023b575b600080fd5b34801561017757600080fd5b5061018b610186366004612a6b565b6104bb565b005b34801561019957600080fd5b506101ad6101a8366004612ad0565b6107a6565b6040516101ba9190612b45565b60405180910390f35b3480156101cf57600080fd5b5061018b6101de366004612ad0565b61081a565b3480156101ef57600080fd5b506102036101fe366004612b58565b610906565b6040516001600160a01b0390911681526020016101ba565b34801561022757600080fd5b5061018b610236366004612ad0565b610b57565b34801561024757600080fd5b5061025b610256366004612ad0565b610c1f565b60405190151581526020016101ba565b34801561027757600080fd5b5061018b610286366004612bc3565b610c94565b34801561029757600080fd5b506102036102a6366004612cc4565b805160208183018101805160fe825292820191909301209152546001600160a01b031681565b61018b6102da366004612d14565b6112b9565b3480156102eb57600080fd5b5061018b6102fa366004612ad0565b611372565b34801561030b57600080fd5b5061031461145e565b6040519081526020016101ba565b34801561032e57600080fd5b5061018b611511565b34801561034357600080fd5b5060fb546001600160a01b0316610203565b34801561036157600080fd5b506033546001600160a01b0316610203565b34801561037f57600080fd5b5061018b61038e366004612d77565b611547565b34801561039f57600080fd5b5061018b6103ae366004612dc2565b61198b565b3480156103bf57600080fd5b50610203611c6a565b3480156103d457600080fd5b5060fc54610203906001600160a01b031681565b3480156103f457600080fd5b5061018b610403366004612ad0565b611c79565b61018b610416366004612dc2565b611df3565b34801561042757600080fd5b5061025b610436366004612e28565b6120ec565b34801561044757600080fd5b5061018b610456366004612ad0565b6121ee565b34801561046757600080fd5b5061018b610476366004612ad0565b612328565b34801561048757600080fd5b5060fd54610203906001600160a01b031681565b3480156104a757600080fd5b5061025b6104b6366004612e28565b6123c0565b600260c954036104e65760405162461bcd60e51b81526004016104dd90612e69565b60405180910390fd5b600260c9556001600160a01b037f00000000000000000000000000000000000000000000000000000000000000001630036105335760405162461bcd60e51b81526004016104dd90612ea0565b7f00000000000000000000000000000000000000000000000000000000000000006001600160a01b031661056561245d565b6001600160a01b03161461058b5760405162461bcd60e51b81526004016104dd90612eec565b600060fe858560405161059f929190612f38565b908152604051908190036020019020546001600160a01b03169050806105c586866123c0565b15156001146106165760405162461bcd60e51b815260206004820152601760248201527f455854454e44494e475f434c4f5345445f424f554e545900000000000000000060448201526064016104dd565b60405163166ea0d160e21b81526004810185905233906001600160a01b038316906359ba834490602401602060405180830381865afa15801561065d573d6000803e3d6000fd5b505050506040513d601f19601f820116820180604052508101906106819190612f48565b6001600160a01b0316146106e15760405162461bcd60e51b815260206004820152602160248201527f4f4e4c595f46554e4445525f43414e5f524551554553545f455854454e53494f6044820152602760f91b60648201526084016104dd565b60405163e83963eb60e01b815260048101859052602481018490523360448201526000906001600160a01b0383169063e83963eb906064016020604051808303816000875af1158015610738573d6000803e3d6000fd5b505050506040513d601f19601f8201168201806040525081019061075c9190612f65565b60408051878152602081018390529192507f9d5e198041b374e7d9238646161abedf8ee45c32b6b9e97193ab7de6662d3b6f910160405180910390a15050600160c9555050505050565b60606000829050806001600160a01b031663c17bd75e6040518163ffffffff1660e01b8152600401600060405180830381865afa1580156107eb573d6000803e3d6000fd5b505050506040513d6000823e601f3d908101601f191682016040526108139190810190612f7e565b9392505050565b6001600160a01b037f00000000000000000000000000000000000000000000000000000000000000001630036108625760405162461bcd60e51b81526004016104dd90612ea0565b7f00000000000000000000000000000000000000000000000000000000000000006001600160a01b031661089461245d565b6001600160a01b0316146108ba5760405162461bcd60e51b81526004016104dd90612eec565b6033546001600160a01b031633146108e45760405162461bcd60e51b81526004016104dd90612feb565b60fc80546001600160a01b0319166001600160a01b0392909216919091179055565b6000600260c9540361092a5760405162461bcd60e51b81526004016104dd90612e69565b600260c9556001600160a01b037f00000000000000000000000000000000000000000000000000000000000000001630036109775760405162461bcd60e51b81526004016104dd90612ea0565b7f00000000000000000000000000000000000000000000000000000000000000006001600160a01b03166109a961245d565b6001600160a01b0316146109cf5760405162461bcd60e51b81526004016104dd90612eec565b60006001600160a01b031660fe86866040516109ec929190612f38565b908152604051908190036020019020546001600160a01b031614610a4a5760405162461bcd60e51b8152602060048201526015602482015274424f554e54595f414c52454144595f45584953545360581b60448201526064016104dd565b60fc546040516318aa5f9d60e31b81526000916001600160a01b03169063c552fce890610a83908990899033908a908a90600401613049565b6020604051808303816000875af1158015610aa2573d6000803e3d6000fd5b505050506040513d601f19601f82011682018060405250810190610ac69190612f48565b90508060fe8787604051610adb929190612f38565b90815260405190819003602001812080546001600160a01b039384166001600160a01b0319909116179055908216907f9b4ec425461e6b6e22c6b5a40c3fba7c8200dbc1832b92910140d4311872c13990610b419089908990899089903390429061308b565b60405180910390a2600160c95595945050505050565b6001600160a01b037f0000000000000000000000000000000000000000000000000000000000000000163003610b9f5760405162461bcd60e51b81526004016104dd90612ea0565b7f00000000000000000000000000000000000000000000000000000000000000006001600160a01b0316610bd161245d565b6001600160a01b031614610bf75760405162461bcd60e51b81526004016104dd90612eec565b610c0081612479565b60408051600080825260208201909252610c1c918391906124a3565b50565b60fd54604051633af32abf60e01b81526001600160a01b0383811660048301526000921690633af32abf90602401602060405180830381865afa158015610c6a573d6000803e3d6000fd5b505050506040513d601f19601f82011682018060405250810190610c8e91906130d1565b92915050565b60fb546001600160a01b03163314610d075760405162461bcd60e51b815260206004820152603060248201527f4f7261636c697a653a2063616c6c6572206973206e6f7420746865206375727260448201526f656e74204f70656e51204f7261636c6560801b60648201526084016104dd565b600260c95403610d295760405162461bcd60e51b81526004016104dd90612e69565b600260c955610d3883836123c0565b1515600114610d825760405162461bcd60e51b8152602060048201526016602482015275434c41494d494e475f434c4f5345445f424f554e545960501b60448201526064016104dd565b600060fe8484604051610d96929190612f38565b908152604051908190036020019020546001600160a01b031690508060005b816001600160a01b031663ee8c24b86040518163ffffffff1660e01b8152600401600060405180830381865afa158015610df3573d6000803e3d6000fd5b505050506040513d6000823e601f3d908101601f19168201604052610e1b9190810190613116565b5181101561104d576000826001600160a01b031663ee8c24b86040518163ffffffff1660e01b8152600401600060405180830381865afa158015610e63573d6000803e3d6000fd5b505050506040513d6000823e601f3d908101601f19168201604052610e8b9190810190613116565b8281518110610e9c57610e9c6131af565b602090810291909101015160405163cb2da3db60e01b81526001600160a01b038781166004830152808316602483015291925060009185169063cb2da3db906044016020604051808303816000875af1158015610efd573d6000803e3d6000fd5b505050506040513d601f19601f82011682018060405250810190610f219190612f65565b9050846001600160a01b03167f2bf17f21105d9af8509a541a76fc6a7aa864cba19c9069c816abf81fe49eab59856001600160a01b031663c17bd75e6040518163ffffffff1660e01b8152600401600060405180830381865afa158015610f8c573d6000803e3d6000fd5b505050506040513d6000823e601f3d908101601f19168201604052610fb49190810190612f7e565b866001600160a01b03166323bd4d7a6040518163ffffffff1660e01b8152600401600060405180830381865afa158015610ff2573d6000803e3d6000fd5b505050506040513d6000823e601f3d908101601f1916820160405261101a9190810190612f7e565b89428787604051611030969594939291906131c5565b60405180910390a25050808061104590613230565b915050610db5565b5060005b816001600160a01b03166377ede8a66040518163ffffffff1660e01b8152600401600060405180830381865afa15801561108f573d6000803e3d6000fd5b505050506040513d6000823e601f3d908101601f191682016040526110b79190810190613249565b518110156111a357604051630de2fe4b60e11b8152600481018290526001600160a01b038316906371ec4ebf9086908390631bc5fc9690602401602060405180830381865afa15801561110e573d6000803e3d6000fd5b505050506040513d601f19601f820116820180604052508101906111329190612f65565b6040516001600160e01b031960e085901b1681526001600160a01b0390921660048301526024820152604401600060405180830381600087803b15801561117857600080fd5b505af115801561118c573d6000803e3d6000fd5b50505050808061119b90613230565b915050611051565b5060405163c74073a160e01b81526001600160a01b03848116600483015282169063c74073a190602401600060405180830381600087803b1580156111e757600080fd5b505af11580156111fb573d6000803e3d6000fd5b50505050816001600160a01b03167f9343271f905976f6466b93515ab914676ff8c6c6151a3d597d8c319dc3bc75138686846001600160a01b03166323bd4d7a6040518163ffffffff1660e01b8152600401600060405180830381865afa15801561126a573d6000803e3d6000fd5b505050506040513d6000823e601f3d908101601f191682016040526112929190810190612f7e565b87426040516112a59594939291906132ce565b60405180910390a25050600160c955505050565b6001600160a01b037f00000000000000000000000000000000000000000000000000000000000000001630036113015760405162461bcd60e51b81526004016104dd90612ea0565b7f00000000000000000000000000000000000000000000000000000000000000006001600160a01b031661133361245d565b6001600160a01b0316146113595760405162461bcd60e51b81526004016104dd90612eec565b61136282612479565b61136e828260016124a3565b5050565b6001600160a01b037f00000000000000000000000000000000000000000000000000000000000000001630036113ba5760405162461bcd60e51b81526004016104dd90612ea0565b7f00000000000000000000000000000000000000000000000000000000000000006001600160a01b03166113ec61245d565b6001600160a01b0316146114125760405162461bcd60e51b81526004016104dd90612eec565b6033546001600160a01b0316331461143c5760405162461bcd60e51b81526004016104dd90612feb565b60fd80546001600160a01b0319166001600160a01b0392909216919091179055565b6000306001600160a01b037f000000000000000000000000000000000000000000000000000000000000000016146114fe5760405162461bcd60e51b815260206004820152603860248201527f555550535570677261646561626c653a206d757374206e6f742062652063616c60448201527f6c6564207468726f7567682064656c656761746563616c6c000000000000000060648201526084016104dd565b5060008051602061345b83398151915290565b6033546001600160a01b0316331461153b5760405162461bcd60e51b81526004016104dd90612feb565b6115456000612613565b565b600260c954036115695760405162461bcd60e51b81526004016104dd90612e69565b600260c9556001600160a01b037f00000000000000000000000000000000000000000000000000000000000000001630036115b65760405162461bcd60e51b81526004016104dd90612ea0565b7f00000000000000000000000000000000000000000000000000000000000000006001600160a01b03166115e861245d565b6001600160a01b03161461160e5760405162461bcd60e51b81526004016104dd90612eec565b600060fe8484604051611622929190612f38565b908152604051908190036020019020546001600160a01b031690508061164885856123c0565b15156001146116995760405162461bcd60e51b815260206004820152601760248201527f524546554e44494e475f434c4f5345445f424f554e545900000000000000000060448201526064016104dd565b60405163166ea0d160e21b81526004810184905233906001600160a01b038316906359ba834490602401602060405180830381865afa1580156116e0573d6000803e3d6000fd5b505050506040513d601f19601f820116820180604052508101906117049190612f48565b6001600160a01b03161461175a5760405162461bcd60e51b815260206004820152601e60248201527f4f4e4c595f46554e4445525f43414e5f524551554553545f524546554e44000060448201526064016104dd565b6040516356406fa560e01b815260048101849052611836906001600160a01b038316906356406fa590602401602060405180830381865afa1580156117a3573d6000803e3d6000fd5b505050506040513d601f19601f820116820180604052508101906117c79190612f65565b60405163968b098f60e01b8152600481018690526001600160a01b0384169063968b098f90602401602060405180830381865afa15801561180c573d6000803e3d6000fd5b505050506040513d601f19601f820116820180604052508101906118309190612f65565b90612665565b4210156118855760405162461bcd60e51b815260206004820152601860248201527f5052454d41545552455f524546554e445f52455155455354000000000000000060448201526064016104dd565b604051630c82823f60e31b8152600481018490523360248201526001600160a01b0382169063641411f890604401600060405180830381600087803b1580156118cd57600080fd5b505af11580156118e1573d6000803e3d6000fd5b50505050816001600160a01b03167f5cfacced9b0054c7760e6620dfb8bb83cae10b8c701ad759b2e68e0d6707bfd4848787856001600160a01b03166323bd4d7a6040518163ffffffff1660e01b8152600401600060405180830381865afa158015611951573d6000803e3d6000fd5b505050506040513d6000823e601f3d908101601f191682016040526119799190810190612f7e565b426040516112a5959493929190613312565b600260c954036119ad5760405162461bcd60e51b81526004016104dd90612e69565b600260c9556001600160a01b037f00000000000000000000000000000000000000000000000000000000000000001630036119fa5760405162461bcd60e51b81526004016104dd90612ea0565b7f00000000000000000000000000000000000000000000000000000000000000006001600160a01b0316611a2c61245d565b6001600160a01b031614611a525760405162461bcd60e51b81526004016104dd90612eec565b600060fe8686604051611a66929190612f38565b908152604051908190036020019020546001600160a01b0316905080611a8b85610c1f565b611acc5760405162461bcd60e51b81526020600482015260126024820152711513d2d15397d393d517d050d0d15415115160721b60448201526064016104dd565b611ad687876123c0565b1515600114611b1f5760405162461bcd60e51b815260206004820152601560248201527446554e44494e475f434c4f5345445f424f554e545960581b60448201526064016104dd565b60405163e129b33360e01b81523360048201526001600160a01b03868116602483015260448201869052606482018590526000919083169063e129b333906084016020604051808303816000875af1158015611b7f573d6000803e3d6000fd5b505050506040513d601f19601f82011682018060405250810190611ba39190612f65565b9050826001600160a01b03167f787b2d0c3b917fe6a118b5225b044e4a4ba6d2d1cfa26f9b156fc1b1e263dee7828a8a866001600160a01b03166323bd4d7a6040518163ffffffff1660e01b8152600401600060405180830381865afa158015611c11573d6000803e3d6000fd5b505050506040513d6000823e601f3d908101601f19168201604052611c399190810190612f7e565b8b42338c8e604051611c5399989796959493929190613351565b60405180910390a25050600160c955505050505050565b6000611c7461245d565b905090565b600054610100900460ff16611c945760005460ff1615611c98565b303b155b611cfb5760405162461bcd60e51b815260206004820152602e60248201527f496e697469616c697a61626c653a20636f6e747261637420697320616c72656160448201526d191e481a5b9a5d1a585b1a5e995960921b60648201526084016104dd565b600054610100900460ff16158015611d1d576000805461ffff19166101011790555b6001600160a01b037f0000000000000000000000000000000000000000000000000000000000000000163003611d655760405162461bcd60e51b81526004016104dd90612ea0565b7f00000000000000000000000000000000000000000000000000000000000000006001600160a01b0316611d9761245d565b6001600160a01b031614611dbd5760405162461bcd60e51b81526004016104dd90612eec565b611dc5612671565b611dcd6126a0565b611dd6826126c7565b611dde612710565b801561136e576000805461ff00191690555050565b600260c95403611e155760405162461bcd60e51b81526004016104dd90612e69565b600260c9556001600160a01b037f0000000000000000000000000000000000000000000000000000000000000000163003611e625760405162461bcd60e51b81526004016104dd90612ea0565b7f00000000000000000000000000000000000000000000000000000000000000006001600160a01b0316611e9461245d565b6001600160a01b031614611eba5760405162461bcd60e51b81526004016104dd90612eec565b600060fe8686604051611ece929190612f38565b908152604051908190036020019020546001600160a01b0316905080611ef385610c1f565b611f4e57611f0187876120ec565b15611f4e5760405162461bcd60e51b815260206004820152601860248201527f544f4f5f4d414e595f544f4b454e5f414444524553534553000000000000000060448201526064016104dd565b611f5887876123c0565b611f9c5760405162461bcd60e51b815260206004820152601560248201527446554e44494e475f434c4f5345445f424f554e545960581b60448201526064016104dd565b6040516335bf83d160e21b81523360048201526001600160a01b0386811660248301526044820186905260648201859052600091829184169063d6fe0f44903490608401604080518083038185885af1158015611ffd573d6000803e3d6000fd5b50505050506040513d601f19601f8201168201806040525081019061202291906133b7565b91509150836001600160a01b03167faf36131f1dc94492cced7f049feaadaceaba10e417412ce818eccd383e16f563838b8b876001600160a01b03166323bd4d7a6040518163ffffffff1660e01b8152600401600060405180830381865afa158015612092573d6000803e3d6000fd5b505050506040513d6000823e601f3d908101601f191682016040526120ba9190810190612f7e565b8c42338d8a6040516120d499989796959493929190613351565b60405180910390a25050600160c95550505050505050565b60008060fe8484604051612101929190612f38565b90815260408051602092819003830181205460fd54630c024c1b60e31b835292516001600160a01b0391821695508594919093169263601260d89260048082019392918290030181865afa15801561215d573d6000803e3d6000fd5b505050506040513d601f19601f820116820180604052508101906121819190612f65565b816001600160a01b031663c5b6e7056040518163ffffffff1660e01b8152600401602060405180830381865afa1580156121bf573d6000803e3d6000fd5b505050506040513d601f19601f820116820180604052508101906121e39190612f65565b101595945050505050565b6001600160a01b037f00000000000000000000000000000000000000000000000000000000000000001630036122365760405162461bcd60e51b81526004016104dd90612ea0565b7f00000000000000000000000000000000000000000000000000000000000000006001600160a01b031661226861245d565b6001600160a01b03161461228e5760405162461bcd60e51b81526004016104dd90612eec565b6033546001600160a01b031633146122b85760405162461bcd60e51b81526004016104dd90612feb565b6001600160a01b03811661231f5760405162461bcd60e51b815260206004820152602860248201527f4f7261636c697a653a206e6577206f7261636c6520697320746865207a65726f604482015267206164647265737360c01b60648201526084016104dd565b610c1c8161273f565b6033546001600160a01b031633146123525760405162461bcd60e51b81526004016104dd90612feb565b6001600160a01b0381166123b75760405162461bcd60e51b815260206004820152602660248201527f4f776e61626c653a206e6577206f776e657220697320746865207a65726f206160448201526564647265737360d01b60648201526084016104dd565b610c1c81612613565b60008060fe84846040516123d5929190612f38565b90815260408051918290036020908101832054631006976960e11b845291516001600160a01b0390921693508392600092849263200d2ed292600480820193918290030181865afa15801561242e573d6000803e3d6000fd5b505050506040513d601f19601f820116820180604052508101906124529190612f65565b159695505050505050565b60008051602061345b833981519152546001600160a01b031690565b6033546001600160a01b03163314610c1c5760405162461bcd60e51b81526004016104dd90612feb565b7f4910fdfa16fed3260ed0e7147f7cc6da11a60208b5b9406d12a635614ffd91435460ff16156124db576124d683612791565b505050565b826001600160a01b03166352d1902d6040518163ffffffff1660e01b8152600401602060405180830381865afa925050508015612535575060408051601f3d908101601f1916820190925261253291810190612f65565b60015b6125985760405162461bcd60e51b815260206004820152602e60248201527f45524331393637557067726164653a206e657720696d706c656d656e7461746960448201526d6f6e206973206e6f74205555505360901b60648201526084016104dd565b60008051602061345b83398151915281146126075760405162461bcd60e51b815260206004820152602960248201527f45524331393637557067726164653a20756e737570706f727465642070726f786044820152681a58589b195555525160ba1b60648201526084016104dd565b506124d683838361282d565b603380546001600160a01b038381166001600160a01b0319831681179093556040519116919082907f8be0079c531659141344cd1fd0a4f28419497f9722a3daafe3b4186f6b6457e090600090a35050565b600061081382846133db565b600054610100900460ff166126985760405162461bcd60e51b81526004016104dd906133f3565b611545612858565b600054610100900460ff166115455760405162461bcd60e51b81526004016104dd906133f3565b600054610100900460ff166126ee5760405162461bcd60e51b81526004016104dd906133f3565b60fb80546001600160a01b0319166001600160a01b0392909216919091179055565b600054610100900460ff166127375760405162461bcd60e51b81526004016104dd906133f3565b611545612888565b60fb80546001600160a01b038381166001600160a01b0319831681179093556040519116919082907f9b0948b943e24ff3413cb400b2eeae4337138739aaf31759dc6e813e8076fbc390600090a35050565b6001600160a01b0381163b6127fe5760405162461bcd60e51b815260206004820152602d60248201527f455243313936373a206e657720696d706c656d656e746174696f6e206973206e60448201526c1bdd08184818dbdb9d1c9858dd609a1b60648201526084016104dd565b60008051602061345b83398151915280546001600160a01b0319166001600160a01b0392909216919091179055565b612836836128b6565b6000825111806128435750805b156124d65761285283836128f6565b50505050565b600054610100900460ff1661287f5760405162461bcd60e51b81526004016104dd906133f3565b61154533612613565b600054610100900460ff166128af5760405162461bcd60e51b81526004016104dd906133f3565b600160c955565b6128bf81612791565b6040516001600160a01b038216907fbc7cd75a20ee27fd9adebab32041f755214dbc6bffa90cc0225b39da2e5c2d3b90600090a250565b60606001600160a01b0383163b61295e5760405162461bcd60e51b815260206004820152602660248201527f416464726573733a2064656c65676174652063616c6c20746f206e6f6e2d636f6044820152651b9d1c9858dd60d21b60648201526084016104dd565b600080846001600160a01b031684604051612979919061343e565b600060405180830381855af49150503d80600081146129b4576040519150601f19603f3d011682016040523d82523d6000602084013e6129b9565b606091505b50915091506129e1828260405180606001604052806027815260200161347b602791396129ea565b95945050505050565b606083156129f9575081610813565b825115612a095782518084602001fd5b8160405162461bcd60e51b81526004016104dd9190612b45565b60008083601f840112612a3557600080fd5b5081356001600160401b03811115612a4c57600080fd5b602083019150836020828501011115612a6457600080fd5b9250929050565b60008060008060608587031215612a8157600080fd5b84356001600160401b03811115612a9757600080fd5b612aa387828801612a23565b90989097506020870135966040013595509350505050565b6001600160a01b0381168114610c1c57600080fd5b600060208284031215612ae257600080fd5b813561081381612abb565b60005b83811015612b08578181015183820152602001612af0565b838111156128525750506000910152565b60008151808452612b31816020860160208601612aed565b601f01601f19169290920160200192915050565b6020815260006108136020830184612b19565b60008060008060408587031215612b6e57600080fd5b84356001600160401b0380821115612b8557600080fd5b612b9188838901612a23565b90965094506020870135915080821115612baa57600080fd5b50612bb787828801612a23565b95989497509550505050565b600080600060408486031215612bd857600080fd5b83356001600160401b03811115612bee57600080fd5b612bfa86828701612a23565b9094509250506020840135612c0e81612abb565b809150509250925092565b634e487b7160e01b600052604160045260246000fd5b604051601f8201601f191681016001600160401b0381118282101715612c5757612c57612c19565b604052919050565b60006001600160401b03821115612c7857612c78612c19565b50601f01601f191660200190565b6000612c99612c9484612c5f565b612c2f565b9050828152838383011115612cad57600080fd5b828260208301376000602084830101529392505050565b600060208284031215612cd657600080fd5b81356001600160401b03811115612cec57600080fd5b8201601f81018413612cfd57600080fd5b612d0c84823560208401612c86565b949350505050565b60008060408385031215612d2757600080fd5b8235612d3281612abb565b915060208301356001600160401b03811115612d4d57600080fd5b8301601f81018513612d5e57600080fd5b612d6d85823560208401612c86565b9150509250929050565b600080600060408486031215612d8c57600080fd5b83356001600160401b03811115612da257600080fd5b612dae86828701612a23565b909790965060209590950135949350505050565b600080600080600060808688031215612dda57600080fd5b85356001600160401b03811115612df057600080fd5b612dfc88828901612a23565b9096509450506020860135612e1081612abb565b94979396509394604081013594506060013592915050565b60008060208385031215612e3b57600080fd5b82356001600160401b03811115612e5157600080fd5b612e5d85828601612a23565b90969095509350505050565b6020808252601f908201527f5265656e7472616e637947756172643a207265656e7472616e742063616c6c00604082015260600190565b6020808252602c908201527f46756e6374696f6e206d7573742062652063616c6c6564207468726f7567682060408201526b19195b1959d85d1958d85b1b60a21b606082015260800190565b6020808252602c908201527f46756e6374696f6e206d7573742062652063616c6c6564207468726f7567682060408201526b6163746976652070726f787960a01b606082015260800190565b8183823760009101908152919050565b600060208284031215612f5a57600080fd5b815161081381612abb565b600060208284031215612f7757600080fd5b5051919050565b600060208284031215612f9057600080fd5b81516001600160401b03811115612fa657600080fd5b8201601f81018413612fb757600080fd5b8051612fc5612c9482612c5f565b818152856020838501011115612fda57600080fd5b6129e1826020830160208601612aed565b6020808252818101527f4f776e61626c653a2063616c6c6572206973206e6f7420746865206f776e6572604082015260600190565b81835281816020850137506000828201602090810191909152601f909101601f19169091010190565b60608152600061305d606083018789613020565b6001600160a01b0386166020840152828103604084015261307f818587613020565b98975050505050505050565b60808152600061309f60808301888a613020565b82810360208401526130b2818789613020565b6001600160a01b03959095166040840152505060600152949350505050565b6000602082840312156130e357600080fd5b8151801515811461081357600080fd5b60006001600160401b0382111561310c5761310c612c19565b5060051b60200190565b6000602080838503121561312957600080fd5b82516001600160401b0381111561313f57600080fd5b8301601f8101851361315057600080fd5b805161315e612c94826130f3565b81815260059190911b8201830190838101908783111561317d57600080fd5b928401925b828410156131a457835161319581612abb565b82529284019290840190613182565b979650505050505050565b634e487b7160e01b600052603260045260246000fd5b60c0815260006131d860c0830189612b19565b82810360208401526131ea8189612b19565b6001600160a01b0397881660408501526060840196909652505091909316608082015260a0019190915292915050565b634e487b7160e01b600052601160045260246000fd5b6000600182016132425761324261321a565b5060010190565b6000602080838503121561325c57600080fd5b82516001600160401b0381111561327257600080fd5b8301601f8101851361328357600080fd5b8051613291612c94826130f3565b81815260059190911b820183019083810190878311156132b057600080fd5b928401925b828410156131a4578351825292840192908401906132b5565b6080815260006132e2608083018789613020565b82810360208401526132f48187612b19565b6001600160a01b039590951660408401525050606001529392505050565b85815260806020820152600061332c608083018688613020565b828103604084015261333e8186612b19565b9150508260608301529695505050505050565b60006101008b835280602084015261336c8184018b8d613020565b90508281036040840152613380818a612b19565b6001600160a01b039889166060850152608084019790975250509290941660a083015260c082015260e00191909152949350505050565b600080604083850312156133ca57600080fd5b505080516020909101519092909150565b600082198211156133ee576133ee61321a565b500190565b6020808252602b908201527f496e697469616c697a61626c653a20636f6e7472616374206973206e6f74206960408201526a6e697469616c697a696e6760a81b606082015260800190565b60008251613450818460208701612aed565b919091019291505056fe360894a13ba1a3210667c828492db98dca3e2076cc3735a920a3ca505d382bbc416464726573733a206c6f772d6c6576656c2064656c65676174652063616c6c206661696c6564a2646970667358221220d2222e94c6d03e5489017fccb2223f4e6c709fe4841511522231f0f93db282ea64736f6c634300080d0033",
  "linkReferences": {},
  "deployedLinkReferences": {}
}