{
  "_format": "hh-sol-artifact-1",
  "contractName": "OpenQV0",
  "sourceName": "contracts/OpenQ/Implementations/OpenQV0.sol",
  "abi": [
    {
      "anonymous": false,
      "inputs": [
        {
          "indexed": false,
          "internalType": "string",
          "name": "bountyId",
          "type": "string"
        },
        {
          "indexed": false,
          "internalType": "string",
          "name": "organization",
          "type": "string"
        },
        {
          "indexed": false,
          "internalType": "address",
          "name": "bountyAddress",
          "type": "address"
        },
        {
          "indexed": false,
          "internalType": "address",
          "name": "payoutAddress",
          "type": "address"
        },
        {
          "indexed": false,
          "internalType": "uint256",
          "name": "bountyClosedTime",
          "type": "uint256"
        }
      ],
      "name": "BountyClosed",
      "type": "event"
    },
    {
      "anonymous": false,
      "inputs": [
        {
          "indexed": false,
          "internalType": "string",
          "name": "bountyId",
          "type": "string"
        },
        {
          "indexed": false,
          "internalType": "string",
          "name": "organization",
          "type": "string"
        },
        {
          "indexed": false,
          "internalType": "address",
          "name": "issuerAddress",
          "type": "address"
        },
        {
          "indexed": false,
          "internalType": "address",
          "name": "bountyAddress",
          "type": "address"
        },
        {
          "indexed": false,
          "internalType": "uint256",
          "name": "bountyMintTime",
          "type": "uint256"
        }
      ],
      "name": "BountyCreated",
      "type": "event"
    },
    {
      "anonymous": false,
      "inputs": [
        {
          "indexed": false,
          "internalType": "string",
          "name": "bountyId",
          "type": "string"
        },
        {
          "indexed": false,
          "internalType": "string",
          "name": "organization",
          "type": "string"
        },
        {
          "indexed": false,
          "internalType": "address",
          "name": "bountyAddress",
          "type": "address"
        },
        {
          "indexed": false,
          "internalType": "address",
          "name": "tokenAddress",
          "type": "address"
        },
        {
          "indexed": false,
          "internalType": "address",
          "name": "payoutAddress",
          "type": "address"
        },
        {
          "indexed": false,
          "internalType": "uint256",
          "name": "volume",
          "type": "uint256"
        },
        {
          "indexed": false,
          "internalType": "uint256",
          "name": "payoutTime",
          "type": "uint256"
        }
      ],
      "name": "BountyPaidout",
      "type": "event"
    },
    {
      "anonymous": false,
      "inputs": [
        {
          "indexed": false,
          "internalType": "string",
          "name": "bountyId",
          "type": "string"
        },
        {
          "indexed": false,
          "internalType": "string",
          "name": "organization",
          "type": "string"
        },
        {
          "indexed": false,
          "internalType": "address",
          "name": "bountyAddress",
          "type": "address"
        },
        {
          "indexed": false,
          "internalType": "address",
          "name": "tokenAddress",
          "type": "address"
        },
        {
          "indexed": false,
          "internalType": "address",
          "name": "sender",
          "type": "address"
        },
        {
          "indexed": false,
          "internalType": "uint256",
          "name": "volume",
          "type": "uint256"
        },
        {
          "indexed": false,
          "internalType": "uint256",
          "name": "receiveTime",
          "type": "uint256"
        }
      ],
      "name": "DepositReceived",
      "type": "event"
    },
    {
      "anonymous": false,
      "inputs": [
        {
          "indexed": false,
          "internalType": "string",
          "name": "bountyId",
          "type": "string"
        },
        {
          "indexed": false,
          "internalType": "string",
          "name": "organization",
          "type": "string"
        },
        {
          "indexed": false,
          "internalType": "address",
          "name": "bountyAddress",
          "type": "address"
        },
        {
          "indexed": false,
          "internalType": "address",
          "name": "tokenAddress",
          "type": "address"
        },
        {
          "indexed": false,
          "internalType": "address",
          "name": "sender",
          "type": "address"
        },
        {
          "indexed": false,
          "internalType": "uint256",
          "name": "volume",
          "type": "uint256"
        },
        {
          "indexed": false,
          "internalType": "uint256",
          "name": "refundTime",
          "type": "uint256"
        }
      ],
      "name": "DepositRefunded",
      "type": "event"
    },
    {
      "anonymous": false,
      "inputs": [
        {
          "indexed": true,
          "internalType": "address",
          "name": "previousOwner",
          "type": "address"
        },
        {
          "indexed": true,
          "internalType": "address",
          "name": "newOwner",
          "type": "address"
        }
      ],
      "name": "OwnershipTransferred",
      "type": "event"
    },
    {
      "inputs": [
        {
          "internalType": "address",
          "name": "_bountyAddress",
          "type": "address"
        }
      ],
      "name": "bountyAddressToBountyId",
      "outputs": [
        {
          "internalType": "string",
          "name": "bountyId",
          "type": "string"
        }
      ],
      "stateMutability": "view",
      "type": "function"
    },
    {
      "inputs": [
        {
          "internalType": "string",
          "name": "_bountyId",
          "type": "string"
        }
      ],
      "name": "bountyIdToAddress",
      "outputs": [
        {
          "internalType": "address",
          "name": "bountyAddress",
          "type": "address"
        }
      ],
      "stateMutability": "view",
      "type": "function"
    },
    {
      "inputs": [
        {
          "internalType": "string",
          "name": "id_",
          "type": "string"
        }
      ],
      "name": "bountyIsOpen",
      "outputs": [
        {
          "internalType": "bool",
          "name": "",
          "type": "bool"
        }
      ],
      "stateMutability": "view",
      "type": "function"
    },
    {
      "inputs": [
        {
          "internalType": "string",
          "name": "_id",
          "type": "string"
        },
        {
          "internalType": "address",
          "name": "_payoutAddress",
          "type": "address"
        }
      ],
      "name": "claimBounty",
      "outputs": [],
      "stateMutability": "nonpayable",
      "type": "function"
    },
    {
      "inputs": [
        {
          "internalType": "address",
          "name": "_bountyAddress",
          "type": "address"
        },
        {
          "internalType": "address",
          "name": "_tokenAddress",
          "type": "address"
        },
        {
          "internalType": "uint256",
          "name": "_volume",
          "type": "uint256"
        }
      ],
      "name": "fundBounty",
      "outputs": [
        {
          "internalType": "bool",
          "name": "success",
          "type": "bool"
        }
      ],
      "stateMutability": "nonpayable",
      "type": "function"
    },
    {
      "inputs": [
        {
          "internalType": "bytes",
          "name": "encoded",
          "type": "bytes"
        }
      ],
      "name": "hash",
      "outputs": [
        {
          "internalType": "bytes32",
          "name": "",
          "type": "bytes32"
        }
      ],
      "stateMutability": "pure",
      "type": "function"
    },
    {
      "inputs": [
        {
          "internalType": "string",
          "name": "_id",
          "type": "string"
        },
        {
          "internalType": "string",
          "name": "_organization",
          "type": "string"
        }
      ],
      "name": "mintBounty",
      "outputs": [
        {
          "internalType": "address",
          "name": "bountyAddress",
          "type": "address"
        }
      ],
      "stateMutability": "nonpayable",
      "type": "function"
    },
    {
      "inputs": [],
      "name": "openQStorage",
      "outputs": [
        {
          "internalType": "contract OpenQStorage",
          "name": "",
          "type": "address"
        }
      ],
      "stateMutability": "view",
      "type": "function"
    },
    {
      "inputs": [],
      "name": "owner",
      "outputs": [
        {
          "internalType": "address",
          "name": "",
          "type": "address"
        }
      ],
      "stateMutability": "view",
      "type": "function"
    },
    {
      "inputs": [
        {
          "internalType": "address",
          "name": "_bountyAddress",
          "type": "address"
        }
      ],
      "name": "refundBountyDeposits",
      "outputs": [
        {
          "internalType": "bool",
          "name": "success",
          "type": "bool"
        }
      ],
      "stateMutability": "nonpayable",
      "type": "function"
    },
    {
      "inputs": [],
      "name": "renounceOwnership",
      "outputs": [],
      "stateMutability": "nonpayable",
      "type": "function"
    },
    {
      "inputs": [
        {
          "internalType": "address",
          "name": "_bountyAddress",
          "type": "address"
        },
        {
          "internalType": "string",
          "name": "_bountyId",
          "type": "string"
        }
      ],
      "name": "setBountyAddressToBountyId",
      "outputs": [],
      "stateMutability": "nonpayable",
      "type": "function"
    },
    {
      "inputs": [
        {
          "internalType": "string",
          "name": "_bountyId",
          "type": "string"
        },
        {
          "internalType": "address",
          "name": "_bountyAddress",
          "type": "address"
        }
      ],
      "name": "setBountyIdToAddress",
      "outputs": [],
      "stateMutability": "nonpayable",
      "type": "function"
    },
    {
      "inputs": [
        {
          "internalType": "address",
          "name": "_openQStorage",
          "type": "address"
        }
      ],
      "name": "setOpenQStorage",
      "outputs": [],
      "stateMutability": "nonpayable",
      "type": "function"
    },
    {
      "inputs": [
        {
          "internalType": "address",
          "name": "newOwner",
          "type": "address"
        }
      ],
      "name": "transferOwnership",
      "outputs": [],
      "stateMutability": "nonpayable",
      "type": "function"
    }
  ],
  "bytecode": "0x60806040523480156200001157600080fd5b5062000032620000266200003860201b60201c565b6200004060201b60201c565b62000106565b600033905090565b6000600160009054906101000a900473ffffffffffffffffffffffffffffffffffffffff16905081600160006101000a81548173ffffffffffffffffffffffffffffffffffffffff021916908373ffffffffffffffffffffffffffffffffffffffff1602179055508173ffffffffffffffffffffffffffffffffffffffff168173ffffffffffffffffffffffffffffffffffffffff167f8be0079c531659141344cd1fd0a4f28419497f9722a3daafe3b4186f6b6457e060405160405180910390a35050565b615a9080620001166000396000f3fe60806040523480156200001157600080fd5b50600436106200010c5760003560e01c8063715018a611620000a5578063ed4326b1116200006f578063ed4326b114620002e5578063f2fde38b1462000305578063f52584911462000325578063fd1b2e3f1462000345576200010c565b8063715018a614620002615780638babb8b3146200026d5780638da5cb5b146200028d578063aa1e84de14620002af576200010c565b80631b967a1911620000e75780631b967a19146200019f5780631ee290fb14620001d55780633e7da1a9146200020b57806348bd1e99146200022b576200010c565b80630bc93001146200011157806310fd86c814620001335780631b7803121462000169575b600080fd5b6200011b6200037b565b6040516200012a919062001e0a565b60405180910390f35b6200015160048036038101906200014b919062001e80565b6200039f565b60405162000160919062001f56565b60405180910390f35b62000187600480360381019062000181919062001e80565b6200048d565b60405162000196919062001f97565b60405180910390f35b620001bd6004803603810190620001b7919062001fef565b62000b6c565b604051620001cc919062001f97565b60405180910390f35b620001f36004803603810190620001ed9190620020b9565b62000e91565b60405162000202919062002158565b60405180910390f35b62000229600480360381019062000223919062002175565b62001082565b005b6200024960048036038101906200024391906200232b565b62001750565b60405162000258919062002158565b60405180910390f35b6200026b62001838565b005b6200028b60048036038101906200028591906200237c565b620018c9565b005b620002976200198f565b604051620002a6919062002158565b60405180910390f35b620002cd6004803603810190620002c7919062002496565b620019b9565b604051620002dc919062002502565b60405180910390f35b620003036004803603810190620002fd91906200251f565b620019ca565b005b6200032360048036038101906200031d919062001e80565b62001a90565b005b6200034360048036038101906200033d919062001e80565b62001b94565b005b6200036360048036038101906200035d91906200232b565b62001bd7565b60405162000372919062001f97565b60405180910390f35b60008054906101000a900473ffffffffffffffffffffffffffffffffffffffff1681565b6060600082604051602001620003b69190620025d5565b604051602081830303815290604052905060008054906101000a900473ffffffffffffffffffffffffffffffffffffffff1673ffffffffffffffffffffffffffffffffffffffff1663986e791a6200040e83620019b9565b6040518263ffffffff1660e01b81526004016200042c919062002502565b60006040518083038186803b1580156200044557600080fd5b505afa1580156200045a573d6000803e3d6000fd5b505050506040513d6000823e3d601f19601f8201168201806040525081019062000485919062002685565b915050919050565b60008082905060011515620005288273ffffffffffffffffffffffffffffffffffffffff1663c17bd75e6040518163ffffffff1660e01b815260040160006040518083038186803b158015620004e257600080fd5b505afa158015620004f7573d6000803e3d6000fd5b505050506040513d6000823e3d601f19601f8201168201806040525081019062000522919062002685565b62001bd7565b1515146200056d576040517f08c379a000000000000000000000000000000000000000000000000000000000815260040162000564906200274c565b60405180910390fd5b8073ffffffffffffffffffffffffffffffffffffffff1663f16b51c16040518163ffffffff1660e01b815260040160206040518083038186803b158015620005b457600080fd5b505afa158015620005c9573d6000803e3d6000fd5b505050506040513d601f19601f82011682018060405250810190620005ef919062002785565b8173ffffffffffffffffffffffffffffffffffffffff1663995280b06040518163ffffffff1660e01b815260040160206040518083038186803b1580156200063657600080fd5b505afa1580156200064b573d6000803e3d6000fd5b505050506040513d601f19601f8201168201806040525081019062000671919062002785565b6200067d9190620027e6565b421015620006c2576040517f08c379a0000000000000000000000000000000000000000000000000000000008152600401620006b99062002893565b60405180910390fd5b600115158173ffffffffffffffffffffffffffffffffffffffff1663b0100cf7336040518263ffffffff1660e01b815260040162000701919062002158565b60206040518083038186803b1580156200071a57600080fd5b505afa1580156200072f573d6000803e3d6000fd5b505050506040513d601f19601f82011682018060405250810190620007559190620028e6565b1515146200079a576040517f08c379a000000000000000000000000000000000000000000000000000000000815260040162000791906200298e565b60405180910390fd5b60005b8173ffffffffffffffffffffffffffffffffffffffff16631bef5505336040518263ffffffff1660e01b8152600401620007d8919062002158565b60006040518083038186803b158015620007f157600080fd5b505afa15801562000806573d6000803e3d6000fd5b505050506040513d6000823e3d601f19601f8201168201806040525081019062000831919062002a9d565b5181101562000b615760008273ffffffffffffffffffffffffffffffffffffffff16634b8022b233846040518363ffffffff1660e01b81526004016200087992919062002aff565b60206040518083038186803b1580156200089257600080fd5b505afa158015620008a7573d6000803e3d6000fd5b505050506040513d601f19601f82011682018060405250810190620008cd919062002b2c565b905060008373ffffffffffffffffffffffffffffffffffffffff16636216753b33846040518363ffffffff1660e01b81526004016200090e92919062002b5e565b60206040518083038186803b1580156200092757600080fd5b505afa1580156200093c573d6000803e3d6000fd5b505050506040513d601f19601f8201168201806040525081019062000962919062002785565b90508373ffffffffffffffffffffffffffffffffffffffff166329ffef1533846040518363ffffffff1660e01b8152600401620009a192919062002b5e565b602060405180830381600087803b158015620009bc57600080fd5b505af1158015620009d1573d6000803e3d6000fd5b505050506040513d601f19601f82011682018060405250810190620009f79190620028e6565b507f4211ead49bf362672e4351d6e542f467b16d61128c523d3a6710cd20a89a894b8473ffffffffffffffffffffffffffffffffffffffff1663c17bd75e6040518163ffffffff1660e01b815260040160006040518083038186803b15801562000a6057600080fd5b505afa15801562000a75573d6000803e3d6000fd5b505050506040513d6000823e3d601f19601f8201168201806040525081019062000aa0919062002685565b8573ffffffffffffffffffffffffffffffffffffffff166323bd4d7a6040518163ffffffff1660e01b815260040160006040518083038186803b15801562000ae757600080fd5b505afa15801562000afc573d6000803e3d6000fd5b505050506040513d6000823e3d601f19601f8201168201806040525081019062000b27919062002685565b888533864260405162000b41979695949392919062002b8b565b60405180910390a15050808062000b589062002c16565b9150506200079d565b506001915050919050565b6000808490506001151562000c078273ffffffffffffffffffffffffffffffffffffffff1663c17bd75e6040518163ffffffff1660e01b815260040160006040518083038186803b15801562000bc157600080fd5b505afa15801562000bd6573d6000803e3d6000fd5b505050506040513d6000823e3d601f19601f8201168201806040525081019062000c01919062002685565b62001bd7565b15151462000c4c576040517f08c379a000000000000000000000000000000000000000000000000000000000815260040162000c43906200274c565b60405180910390fd5b600062000c59866200039f565b51141562000c9e576040517f08c379a000000000000000000000000000000000000000000000000000000000815260040162000c959062002cda565b60405180910390fd5b8073ffffffffffffffffffffffffffffffffffffffff1663b9df819f3386866040518463ffffffff1660e01b815260040162000cdd9392919062002cfc565b602060405180830381600087803b15801562000cf857600080fd5b505af115801562000d0d573d6000803e3d6000fd5b505050506040513d601f19601f8201168201806040525081019062000d339190620028e6565b507f3349ee137a7ac00a8441ce0944c2afba5d9be645f5f7be945ec0760dd68431ad8173ffffffffffffffffffffffffffffffffffffffff1663c17bd75e6040518163ffffffff1660e01b815260040160006040518083038186803b15801562000d9c57600080fd5b505afa15801562000db1573d6000803e3d6000fd5b505050506040513d6000823e3d601f19601f8201168201806040525081019062000ddc919062002685565b8273ffffffffffffffffffffffffffffffffffffffff166323bd4d7a6040518163ffffffff1660e01b815260040160006040518083038186803b15801562000e2357600080fd5b505afa15801562000e38573d6000803e3d6000fd5b505050506040513d6000823e3d601f19601f8201168201806040525081019062000e63919062002685565b878733884260405162000e7d979695949392919062002b8b565b60405180910390a160019150509392505050565b60008073ffffffffffffffffffffffffffffffffffffffff1662000ef986868080601f016020809104026020016040519081016040528093929190818152602001838380828437600081840152601f19601f8201169050808301925050505050505062001750565b73ffffffffffffffffffffffffffffffffffffffff161462000f52576040517f08c379a000000000000000000000000000000000000000000000000000000000815260040162000f499062002dfb565b60405180910390fd5b848433858560405162000f659062001d71565b62000f7595949392919062002e50565b604051809103906000f08015801562000f92573d6000803e3d6000fd5b50905062000fe585858080601f016020809104026020016040519081016040528093929190818152602001838380828437600081840152601f19601f8201169050808301925050505050505082620018c9565b620010358186868080601f016020809104026020016040519081016040528093929190818152602001838380828437600081840152601f19601f82011690508083019250505050505050620019ca565b7f9b4ec425461e6b6e22c6b5a40c3fba7c8200dbc1832b92910140d4311872c1398585858533864260405162001072979695949392919062002e9f565b60405180910390a1949350505050565b6200108c62001ca3565b73ffffffffffffffffffffffffffffffffffffffff16620010ac6200198f565b73ffffffffffffffffffffffffffffffffffffffff161462001105576040517f08c379a0000000000000000000000000000000000000000000000000000000008152600401620010fc9062002f5e565b60405180910390fd5b60006200115684848080601f016020809104026020016040519081016040528093929190818152602001838380828437600081840152601f19601f8201169050808301925050505050505062001750565b9050600081905060011515620011f28273ffffffffffffffffffffffffffffffffffffffff1663c17bd75e6040518163ffffffff1660e01b815260040160006040518083038186803b158015620011ac57600080fd5b505afa158015620011c1573d6000803e3d6000fd5b505050506040513d6000823e3d601f19601f82011682018060405250810190620011ec919062002685565b62001bd7565b15151462001237576040517f08c379a00000000000000000000000000000000000000000000000000000000081526004016200122e9062002ff6565b60405180910390fd5b60005b8173ffffffffffffffffffffffffffffffffffffffff1663fc5d2cf46040518163ffffffff1660e01b815260040160006040518083038186803b1580156200128157600080fd5b505afa15801562001296573d6000803e3d6000fd5b505050506040513d6000823e3d601f19601f82011682018060405250810190620012c1919062002a9d565b51811015620015ed5760008273ffffffffffffffffffffffffffffffffffffffff1663df9229f0836040518263ffffffff1660e01b815260040162001307919062003018565b60206040518083038186803b1580156200132057600080fd5b505afa15801562001335573d6000803e3d6000fd5b505050506040513d601f19601f820116820180604052508101906200135b919062002b2c565b905060008373ffffffffffffffffffffffffffffffffffffffff1663b588d225836040518263ffffffff1660e01b81526004016200139a919062002158565b60206040518083038186803b158015620013b357600080fd5b505afa158015620013c8573d6000803e3d6000fd5b505050506040513d601f19601f82011682018060405250810190620013ee919062002785565b90508373ffffffffffffffffffffffffffffffffffffffff166321c0b34287846040518363ffffffff1660e01b81526004016200142d92919062002b5e565b602060405180830381600087803b1580156200144857600080fd5b505af11580156200145d573d6000803e3d6000fd5b505050506040513d601f19601f82011682018060405250810190620014839190620028e6565b507f115a7a7d5f5cacec69cd610a9eeededb99e12dea6cb7f441fd372ebc0a4519f78473ffffffffffffffffffffffffffffffffffffffff1663c17bd75e6040518163ffffffff1660e01b815260040160006040518083038186803b158015620014ec57600080fd5b505afa15801562001501573d6000803e3d6000fd5b505050506040513d6000823e3d601f19601f820116820180604052508101906200152c919062002685565b8573ffffffffffffffffffffffffffffffffffffffff166323bd4d7a6040518163ffffffff1660e01b815260040160006040518083038186803b1580156200157357600080fd5b505afa15801562001588573d6000803e3d6000fd5b505050506040513d6000823e3d601f19601f82011682018060405250810190620015b3919062002685565b87858a8642604051620015cd979695949392919062002b8b565b60405180910390a150508080620015e49062002c16565b9150506200123a565b508073ffffffffffffffffffffffffffffffffffffffff1663ec05635c846040518263ffffffff1660e01b815260040162001629919062002158565b602060405180830381600087803b1580156200164457600080fd5b505af115801562001659573d6000803e3d6000fd5b505050506040513d601f19601f820116820180604052508101906200167f9190620028e6565b507fd03054905e687534a4568646abd4d931cedd194fe3ab9aa9a91be330968dfbd785858373ffffffffffffffffffffffffffffffffffffffff166323bd4d7a6040518163ffffffff1660e01b815260040160006040518083038186803b158015620016ea57600080fd5b505afa158015620016ff573d6000803e3d6000fd5b505050506040513d6000823e3d601f19601f820116820180604052508101906200172a919062002685565b858742604051620017419695949392919062003035565b60405180910390a15050505050565b60008082604051602001620017669190620030f2565b604051602081830303815290604052905060008054906101000a900473ffffffffffffffffffffffffffffffffffffffff1673ffffffffffffffffffffffffffffffffffffffff166321f8a721620017be83620019b9565b6040518263ffffffff1660e01b8152600401620017dc919062002502565b60206040518083038186803b158015620017f557600080fd5b505afa1580156200180a573d6000803e3d6000fd5b505050506040513d601f19601f8201168201806040525081019062001830919062002b2c565b915050919050565b6200184262001ca3565b73ffffffffffffffffffffffffffffffffffffffff16620018626200198f565b73ffffffffffffffffffffffffffffffffffffffff1614620018bb576040517f08c379a0000000000000000000000000000000000000000000000000000000008152600401620018b29062002f5e565b60405180910390fd5b620018c7600062001cab565b565b600082604051602001620018de9190620030f2565b604051602081830303815290604052905060008054906101000a900473ffffffffffffffffffffffffffffffffffffffff1673ffffffffffffffffffffffffffffffffffffffff1663ca446dd96200193683620019b9565b846040518363ffffffff1660e01b8152600401620019569291906200312b565b600060405180830381600087803b1580156200197157600080fd5b505af115801562001986573d6000803e3d6000fd5b50505050505050565b6000600160009054906101000a900473ffffffffffffffffffffffffffffffffffffffff16905090565b600081805190602001209050919050565b600082604051602001620019df9190620025d5565b604051602081830303815290604052905060008054906101000a900473ffffffffffffffffffffffffffffffffffffffff1673ffffffffffffffffffffffffffffffffffffffff16636e89955062001a3783620019b9565b846040518363ffffffff1660e01b815260040162001a5792919062003158565b600060405180830381600087803b15801562001a7257600080fd5b505af115801562001a87573d6000803e3d6000fd5b50505050505050565b62001a9a62001ca3565b73ffffffffffffffffffffffffffffffffffffffff1662001aba6200198f565b73ffffffffffffffffffffffffffffffffffffffff161462001b13576040517f08c379a000000000000000000000000000000000000000000000000000000000815260040162001b0a9062002f5e565b60405180910390fd5b600073ffffffffffffffffffffffffffffffffffffffff168173ffffffffffffffffffffffffffffffffffffffff16141562001b86576040517f08c379a000000000000000000000000000000000000000000000000000000000815260040162001b7d9062003202565b60405180910390fd5b62001b918162001cab565b50565b806000806101000a81548173ffffffffffffffffffffffffffffffffffffffff021916908373ffffffffffffffffffffffffffffffffffffffff16021790555050565b60008062001be58362001750565b9050600080600181111562001bff5762001bfe62003224565b5b8273ffffffffffffffffffffffffffffffffffffffff1663200d2ed26040518163ffffffff1660e01b815260040160206040518083038186803b15801562001c4657600080fd5b505afa15801562001c5b573d6000803e3d6000fd5b505050506040513d601f19601f8201168201806040525081019062001c8191906200327b565b600181111562001c965762001c9562003224565b5b1490508092505050919050565b600033905090565b6000600160009054906101000a900473ffffffffffffffffffffffffffffffffffffffff16905081600160006101000a81548173ffffffffffffffffffffffffffffffffffffffff021916908373ffffffffffffffffffffffffffffffffffffffff1602179055508173ffffffffffffffffffffffffffffffffffffffff168173ffffffffffffffffffffffffffffffffffffffff167f8be0079c531659141344cd1fd0a4f28419497f9722a3daafe3b4186f6b6457e060405160405180910390a35050565b6127ad80620032ae83390190565b600073ffffffffffffffffffffffffffffffffffffffff82169050919050565b6000819050919050565b600062001dca62001dc462001dbe8462001d7f565b62001d9f565b62001d7f565b9050919050565b600062001dde8262001da9565b9050919050565b600062001df28262001dd1565b9050919050565b62001e048162001de5565b82525050565b600060208201905062001e21600083018462001df9565b92915050565b6000604051905090565b600080fd5b600080fd5b600062001e488262001d7f565b9050919050565b62001e5a8162001e3b565b811462001e6657600080fd5b50565b60008135905062001e7a8162001e4f565b92915050565b60006020828403121562001e995762001e9862001e31565b5b600062001ea98482850162001e69565b91505092915050565b600081519050919050565b600082825260208201905092915050565b60005b8381101562001eee57808201518184015260208101905062001ed1565b8381111562001efe576000848401525b50505050565b6000601f19601f8301169050919050565b600062001f228262001eb2565b62001f2e818562001ebd565b935062001f4081856020860162001ece565b62001f4b8162001f04565b840191505092915050565b6000602082019050818103600083015262001f72818462001f15565b905092915050565b60008115159050919050565b62001f918162001f7a565b82525050565b600060208201905062001fae600083018462001f86565b92915050565b6000819050919050565b62001fc98162001fb4565b811462001fd557600080fd5b50565b60008135905062001fe98162001fbe565b92915050565b6000806000606084860312156200200b576200200a62001e31565b5b60006200201b8682870162001e69565b93505060206200202e8682870162001e69565b9250506040620020418682870162001fd8565b9150509250925092565b600080fd5b600080fd5b600080fd5b60008083601f8401126200207357620020726200204b565b5b8235905067ffffffffffffffff81111562002093576200209262002050565b5b602083019150836001820283011115620020b257620020b162002055565b5b9250929050565b60008060008060408587031215620020d657620020d562001e31565b5b600085013567ffffffffffffffff811115620020f757620020f662001e36565b5b62002105878288016200205a565b9450945050602085013567ffffffffffffffff8111156200212b576200212a62001e36565b5b62002139878288016200205a565b925092505092959194509250565b620021528162001e3b565b82525050565b60006020820190506200216f600083018462002147565b92915050565b60008060006040848603121562002191576200219062001e31565b5b600084013567ffffffffffffffff811115620021b257620021b162001e36565b5b620021c0868287016200205a565b93509350506020620021d58682870162001e69565b9150509250925092565b600080fd5b7f4e487b7100000000000000000000000000000000000000000000000000000000600052604160045260246000fd5b6200221e8262001f04565b810181811067ffffffffffffffff8211171562002240576200223f620021e4565b5b80604052505050565b60006200225562001e27565b905062002263828262002213565b919050565b600067ffffffffffffffff821115620022865762002285620021e4565b5b620022918262001f04565b9050602081019050919050565b82818337600083830152505050565b6000620022c4620022be8462002268565b62002249565b905082815260208101848484011115620022e357620022e2620021df565b5b620022f08482856200229e565b509392505050565b600082601f83011262002310576200230f6200204b565b5b813562002322848260208601620022ad565b91505092915050565b60006020828403121562002344576200234362001e31565b5b600082013567ffffffffffffffff81111562002365576200236462001e36565b5b6200237384828501620022f8565b91505092915050565b6000806040838503121562002396576200239562001e31565b5b600083013567ffffffffffffffff811115620023b757620023b662001e36565b5b620023c585828601620022f8565b9250506020620023d88582860162001e69565b9150509250929050565b600067ffffffffffffffff8211156200240057620023ff620021e4565b5b6200240b8262001f04565b9050602081019050919050565b60006200242f6200242984620023e2565b62002249565b9050828152602081018484840111156200244e576200244d620021df565b5b6200245b8482856200229e565b509392505050565b600082601f8301126200247b576200247a6200204b565b5b81356200248d84826020860162002418565b91505092915050565b600060208284031215620024af57620024ae62001e31565b5b600082013567ffffffffffffffff811115620024d057620024cf62001e36565b5b620024de8482850162002463565b91505092915050565b6000819050919050565b620024fc81620024e7565b82525050565b6000602082019050620025196000830184620024f1565b92915050565b6000806040838503121562002539576200253862001e31565b5b6000620025498582860162001e69565b925050602083013567ffffffffffffffff8111156200256d576200256c62001e36565b5b6200257b85828601620022f8565b9150509250929050565b7f626f756e747941646472657373546f4964000000000000000000000000000000600082015250565b6000620025bd60118362001ebd565b9150620025ca8262002585565b602082019050919050565b60006040820190508181036000830152620025f081620025ae565b905062002601602083018462002147565b92915050565b60006200261e620026188462002268565b62002249565b9050828152602081018484840111156200263d576200263c620021df565b5b6200264a84828562001ece565b509392505050565b600082601f8301126200266a57620026696200204b565b5b81516200267c84826020860162002607565b91505092915050565b6000602082840312156200269e576200269d62001e31565b5b600082015167ffffffffffffffff811115620026bf57620026be62001e36565b5b620026cd8482850162002652565b91505092915050565b7f43616e6e6f74207265717565737420726566756e64206f6e206120636c6f736560008201527f6420626f756e7479000000000000000000000000000000000000000000000000602082015250565b60006200273460288362001ebd565b91506200274182620026d6565b604082019050919050565b60006020820190508181036000830152620027678162002725565b9050919050565b6000815190506200277f8162001fbe565b92915050565b6000602082840312156200279e576200279d62001e31565b5b6000620027ae848285016200276e565b91505092915050565b7f4e487b7100000000000000000000000000000000000000000000000000000000600052601160045260246000fd5b6000620027f38262001fb4565b9150620028008362001fb4565b9250827fffffffffffffffffffffffffffffffffffffffffffffffffffffffffffffffff03821115620028385762002837620027b7565b5b828201905092915050565b7f546f6f206561726c7920746f2077697468647261772066756e64730000000000600082015250565b60006200287b601b8362001ebd565b9150620028888262002843565b602082019050919050565b60006020820190508181036000830152620028ae816200286c565b9050919050565b620028c08162001f7a565b8114620028cc57600080fd5b50565b600081519050620028e081620028b5565b92915050565b600060208284031215620028ff57620028fe62001e31565b5b60006200290f84828501620028cf565b91505092915050565b7f4f6e6c792066756e64657273206f66207468697320626f756e74792063616e2060008201527f7265636c61696d2066756e647320616674657220333020646179732e00000000602082015250565b600062002976603c8362001ebd565b9150620029838262002918565b604082019050919050565b60006020820190508181036000830152620029a98162002967565b9050919050565b600067ffffffffffffffff821115620029ce57620029cd620021e4565b5b602082029050602081019050919050565b600081519050620029f08162001e4f565b92915050565b600062002a0d62002a0784620029b0565b62002249565b9050808382526020820190506020840283018581111562002a335762002a3262002055565b5b835b8181101562002a60578062002a4b8882620029df565b84526020840193505060208101905062002a35565b5050509392505050565b600082601f83011262002a825762002a816200204b565b5b815162002a94848260208601620029f6565b91505092915050565b60006020828403121562002ab65762002ab562001e31565b5b600082015167ffffffffffffffff81111562002ad75762002ad662001e36565b5b62002ae58482850162002a6a565b91505092915050565b62002af98162001fb4565b82525050565b600060408201905062002b16600083018562002147565b62002b25602083018462002aee565b9392505050565b60006020828403121562002b455762002b4462001e31565b5b600062002b5584828501620029df565b91505092915050565b600060408201905062002b75600083018562002147565b62002b84602083018462002147565b9392505050565b600060e082019050818103600083015262002ba7818a62001f15565b9050818103602083015262002bbd818962001f15565b905062002bce604083018862002147565b62002bdd606083018762002147565b62002bec608083018662002147565b62002bfb60a083018562002aee565b62002c0a60c083018462002aee565b98975050505050505050565b600062002c238262001fb4565b91507fffffffffffffffffffffffffffffffffffffffffffffffffffffffffffffffff82141562002c595762002c58620027b7565b5b600182019050919050565b7f417474656d7074696e6720746f2066756e64206120626f756e7479207468617460008201527f20646f6573206e6f742065786973742e00000000000000000000000000000000602082015250565b600062002cc260308362001ebd565b915062002ccf8262002c64565b604082019050919050565b6000602082019050818103600083015262002cf58162002cb3565b9050919050565b600060608201905062002d13600083018662002147565b62002d22602083018562002147565b62002d31604083018462002aee565b949350505050565b7f426f756e747920616c72656164792065786973747320666f7220676976656e2060008201527f69642e2046696e642069747320616464726573732062792063616c6c696e672060208201527f626f756e74794964546f41646472657373206f6e207468697320636f6e74726160408201527f637420776974682074686520626f756e74794964000000000000000000000000606082015250565b600062002de360748362001ebd565b915062002df08262002d39565b608082019050919050565b6000602082019050818103600083015262002e168162002dd4565b9050919050565b600062002e2b838562001ebd565b935062002e3a8385846200229e565b62002e458362001f04565b840190509392505050565b6000606082019050818103600083015262002e6d81878962002e1d565b905062002e7e602083018662002147565b818103604083015262002e9381848662002e1d565b90509695505050505050565b600060a082019050818103600083015262002ebc81898b62002e1d565b9050818103602083015262002ed381878962002e1d565b905062002ee4604083018662002147565b62002ef3606083018562002147565b62002f02608083018462002aee565b98975050505050505050565b7f4f776e61626c653a2063616c6c6572206973206e6f7420746865206f776e6572600082015250565b600062002f4660208362001ebd565b915062002f538262002f0e565b602082019050919050565b6000602082019050818103600083015262002f798162002f37565b9050919050565b7f43616e6e6f7420636c61696d206120626f756e7479207468617420697320616c60008201527f726561647920636c6f7365642e00000000000000000000000000000000000000602082015250565b600062002fde602d8362001ebd565b915062002feb8262002f80565b604082019050919050565b60006020820190508181036000830152620030118162002fcf565b9050919050565b60006020820190506200302f600083018462002aee565b92915050565b600060a08201905081810360008301526200305281888a62002e1d565b9050818103602083015262003068818762001f15565b905062003079604083018662002147565b62003088606083018562002147565b62003097608083018462002aee565b979650505050505050565b7f626f756e74794964546f41646472657373000000000000000000000000000000600082015250565b6000620030da60118362001ebd565b9150620030e782620030a2565b602082019050919050565b600060408201905081810360008301526200310d81620030cb565b9050818103602083015262003123818462001f15565b905092915050565b6000604082019050620031426000830185620024f1565b62003151602083018462002147565b9392505050565b60006040820190506200316f6000830185620024f1565b818103602083015262003183818462001f15565b90509392505050565b7f4f776e61626c653a206e6577206f776e657220697320746865207a65726f206160008201527f6464726573730000000000000000000000000000000000000000000000000000602082015250565b6000620031ea60268362001ebd565b9150620031f7826200318c565b604082019050919050565b600060208201905081810360008301526200321d81620031db565b9050919050565b7f4e487b7100000000000000000000000000000000000000000000000000000000600052602160045260246000fd5b600281106200326157600080fd5b50565b600081519050620032758162003253565b92915050565b60006020828403121562003294576200329362001e31565b5b6000620032a48482850162003264565b9150509291505056fe60806040524260065562278d006008553480156200001c57600080fd5b50604051620027ad380380620027ad833981810160405281019062000042919062000490565b82828262000065620000596200011260201b60201c565b6200011a60201b60201c565b82600590805190602001906200007d929190620001de565b506000600b60146101000a81548160ff02191690836001811115620000a757620000a66200052a565b5b021790555081600960006101000a81548173ffffffffffffffffffffffffffffffffffffffff021916908373ffffffffffffffffffffffffffffffffffffffff16021790555080600a908051906020019062000105929190620001de565b50505050505050620005be565b600033905090565b60008060009054906101000a900473ffffffffffffffffffffffffffffffffffffffff169050816000806101000a81548173ffffffffffffffffffffffffffffffffffffffff021916908373ffffffffffffffffffffffffffffffffffffffff1602179055508173ffffffffffffffffffffffffffffffffffffffff168173ffffffffffffffffffffffffffffffffffffffff167f8be0079c531659141344cd1fd0a4f28419497f9722a3daafe3b4186f6b6457e060405160405180910390a35050565b828054620001ec9062000588565b90600052602060002090601f0160209004810192826200021057600085556200025c565b82601f106200022b57805160ff19168380011785556200025c565b828001600101855582156200025c579182015b828111156200025b5782518255916020019190600101906200023e565b5b5090506200026b91906200026f565b5090565b5b808211156200028a57600081600090555060010162000270565b5090565b6000604051905090565b600080fd5b600080fd5b600080fd5b600080fd5b6000601f19601f8301169050919050565b7f4e487b7100000000000000000000000000000000000000000000000000000000600052604160045260246000fd5b620002f782620002ac565b810181811067ffffffffffffffff82111715620003195762000318620002bd565b5b80604052505050565b60006200032e6200028e565b90506200033c8282620002ec565b919050565b600067ffffffffffffffff8211156200035f576200035e620002bd565b5b6200036a82620002ac565b9050602081019050919050565b60005b83811015620003975780820151818401526020810190506200037a565b83811115620003a7576000848401525b50505050565b6000620003c4620003be8462000341565b62000322565b905082815260208101848484011115620003e357620003e2620002a7565b5b620003f084828562000377565b509392505050565b600082601f83011262000410576200040f620002a2565b5b815162000422848260208601620003ad565b91505092915050565b600073ffffffffffffffffffffffffffffffffffffffff82169050919050565b600062000458826200042b565b9050919050565b6200046a816200044b565b81146200047657600080fd5b50565b6000815190506200048a816200045f565b92915050565b600080600060608486031215620004ac57620004ab62000298565b5b600084015167ffffffffffffffff811115620004cd57620004cc6200029d565b5b620004db86828701620003f8565b9350506020620004ee8682870162000479565b925050604084015167ffffffffffffffff8111156200051257620005116200029d565b5b6200052086828701620003f8565b9150509250925092565b7f4e487b7100000000000000000000000000000000000000000000000000000000600052602160045260246000fd5b7f4e487b7100000000000000000000000000000000000000000000000000000000600052602260045260246000fd5b60006002820490506001821680620005a157607f821691505b60208210811415620005b857620005b762000559565b5b50919050565b6121df80620005ce6000396000f3fe608060405234801561001057600080fd5b50600436106101465760003560e01c8063995280b0116100b8578063cb4436b71161007c578063cb4436b7146103a8578063df9229f0146103c6578063ec05635c146103f6578063f16b51c114610426578063f2fde38b14610444578063fc5d2cf41461046057610147565b8063995280b0146102dc578063b0100cf7146102fa578063b588d2251461032a578063b9df819f1461035a578063c17bd75e1461038a57610147565b806329ffef151161010a57806329ffef15146102065780634b8022b2146102365780636216753b146102665780637044f28214610296578063715018a6146102b45780638da5cb5b146102be57610147565b80631bef55051461014c5780631d1438481461017c578063200d2ed21461019a57806321c0b342146101b857806323bd4d7a146101e857610147565b5b600080fd5b610166600480360381019061016191906116f2565b61047e565b60405161017391906117dd565b60405180910390f35b61018461054b565b604051610191919061180e565b60405180910390f35b6101a2610571565b6040516101af91906118a0565b60405180910390f35b6101d260048036038101906101cd91906118bb565b610584565b6040516101df9190611916565b60405180910390f35b6101f0610709565b6040516101fd91906119ca565b60405180910390f35b610220600480360381019061021b91906118bb565b610797565b60405161022d9190611916565b60405180910390f35b610250600480360381019061024b9190611a22565b6109b5565b60405161025d919061180e565b60405180910390f35b610280600480360381019061027b91906118bb565b610a03565b60405161028d9190611a71565b60405180910390f35b61029e610a28565b6040516102ab919061180e565b60405180910390f35b6102bc610a4e565b005b6102c6610ad6565b6040516102d3919061180e565b60405180910390f35b6102e4610aff565b6040516102f19190611a71565b60405180910390f35b610314600480360381019061030f91906116f2565b610b05565b6040516103219190611916565b60405180910390f35b610344600480360381019061033f91906116f2565b610b25565b6040516103519190611a71565b60405180910390f35b610374600480360381019061036f9190611a8c565b610bbc565b6040516103819190611916565b60405180910390f35b610392610f17565b60405161039f91906119ca565b60405180910390f35b6103b0610fa5565b6040516103bd9190611a71565b60405180910390f35b6103e060048036038101906103db9190611adf565b610fab565b6040516103ed919061180e565b60405180910390f35b610410600480360381019061040b91906116f2565b610fea565b60405161041d9190611916565b60405180910390f35b61042e6111c8565b60405161043b9190611a71565b60405180910390f35b61045e600480360381019061045991906116f2565b6111ce565b005b6104686112c6565b60405161047591906117dd565b60405180910390f35b6060600260008373ffffffffffffffffffffffffffffffffffffffff1673ffffffffffffffffffffffffffffffffffffffff16815260200190815260200160002080548060200260200160405190810160405280929190818152602001828054801561053f57602002820191906000526020600020905b8160009054906101000a900473ffffffffffffffffffffffffffffffffffffffff1673ffffffffffffffffffffffffffffffffffffffff16815260200190600101908083116104f5575b50505050509050919050565b600960009054906101000a900473ffffffffffffffffffffffffffffffffffffffff1681565b600b60149054906101000a900460ff1681565b600061058e611354565b73ffffffffffffffffffffffffffffffffffffffff166105ac610ad6565b73ffffffffffffffffffffffffffffffffffffffff1614610602576040517f08c379a00000000000000000000000000000000000000000000000000000000081526004016105f990611b58565b60405180910390fd5b6000600181111561061657610615611829565b5b3073ffffffffffffffffffffffffffffffffffffffff1663200d2ed26040518163ffffffff1660e01b815260040160206040518083038186803b15801561065c57600080fd5b505afa158015610670573d6000803e3d6000fd5b505050506040513d601f19601f820116820180604052508101906106949190611b9d565b60018111156106a6576106a5611829565b5b146106e6576040517f08c379a00000000000000000000000000000000000000000000000000000000081526004016106dd90611c3c565b60405180910390fd5b60006106f183610b25565b90506106fe83858361135c565b600191505092915050565b600a805461071690611c8b565b80601f016020809104026020016040519081016040528092919081815260200182805461074290611c8b565b801561078f5780601f106107645761010080835404028352916020019161078f565b820191906000526020600020905b81548152906001019060200180831161077257829003601f168201915b505050505081565b60006107a1611354565b73ffffffffffffffffffffffffffffffffffffffff166107bf610ad6565b73ffffffffffffffffffffffffffffffffffffffff1614610815576040517f08c379a000000000000000000000000000000000000000000000000000000000815260040161080c90611b58565b60405180910390fd5b61089c8284600360008773ffffffffffffffffffffffffffffffffffffffff1673ffffffffffffffffffffffffffffffffffffffff16815260200190815260200160002060008673ffffffffffffffffffffffffffffffffffffffff1673ffffffffffffffffffffffffffffffffffffffff1681526020019081526020016000205461135c565b600360008473ffffffffffffffffffffffffffffffffffffffff1673ffffffffffffffffffffffffffffffffffffffff16815260200190815260200160002060008373ffffffffffffffffffffffffffffffffffffffff1673ffffffffffffffffffffffffffffffffffffffff16815260200190815260200160002054600360008573ffffffffffffffffffffffffffffffffffffffff1673ffffffffffffffffffffffffffffffffffffffff16815260200190815260200160002060008473ffffffffffffffffffffffffffffffffffffffff1673ffffffffffffffffffffffffffffffffffffffff16815260200190815260200160002060008282546109a49190611cec565b925050819055506001905092915050565b600260205281600052604060002081815481106109d157600080fd5b906000526020600020016000915091509054906101000a900473ffffffffffffffffffffffffffffffffffffffff1681565b6003602052816000526040600020602052806000526040600020600091509150505481565b600b60009054906101000a900473ffffffffffffffffffffffffffffffffffffffff1681565b610a56611354565b73ffffffffffffffffffffffffffffffffffffffff16610a74610ad6565b73ffffffffffffffffffffffffffffffffffffffff1614610aca576040517f08c379a0000000000000000000000000000000000000000000000000000000008152600401610ac190611b58565b60405180910390fd5b610ad46000611492565b565b60008060009054906101000a900473ffffffffffffffffffffffffffffffffffffffff16905090565b60065481565b60046020528060005260406000206000915054906101000a900460ff1681565b6000808290508073ffffffffffffffffffffffffffffffffffffffff166370a08231306040518263ffffffff1660e01b8152600401610b64919061180e565b60206040518083038186803b158015610b7c57600080fd5b505afa158015610b90573d6000803e3d6000fd5b505050506040513d601f19601f82011682018060405250810190610bb49190611d35565b915050919050565b6000610bc6611354565b73ffffffffffffffffffffffffffffffffffffffff16610be4610ad6565b73ffffffffffffffffffffffffffffffffffffffff1614610c3a576040517f08c379a0000000000000000000000000000000000000000000000000000000008152600401610c3190611b58565b60405180910390fd5b6000821415610c7e576040517f08c379a0000000000000000000000000000000000000000000000000000000008152600401610c7590611dd4565b60405180910390fd5b6000610c8984610b25565b1415610cf3576001839080600181540180825580915050600190039060005260206000200160009091909190916101000a81548173ffffffffffffffffffffffffffffffffffffffff021916908373ffffffffffffffffffffffffffffffffffffffff1602179055505b610cff83853085611556565b6001600460008673ffffffffffffffffffffffffffffffffffffffff1673ffffffffffffffffffffffffffffffffffffffff16815260200190815260200160002060006101000a81548160ff0219169083151502179055506000600360008673ffffffffffffffffffffffffffffffffffffffff1673ffffffffffffffffffffffffffffffffffffffff16815260200190815260200160002060008573ffffffffffffffffffffffffffffffffffffffff1673ffffffffffffffffffffffffffffffffffffffff168152602001908152602001600020541415610e7d57600260008573ffffffffffffffffffffffffffffffffffffffff1673ffffffffffffffffffffffffffffffffffffffff168152602001908152602001600020839080600181540180825580915050600190039060005260206000200160009091909190916101000a81548173ffffffffffffffffffffffffffffffffffffffff021916908373ffffffffffffffffffffffffffffffffffffffff1602179055505b81600360008673ffffffffffffffffffffffffffffffffffffffff1673ffffffffffffffffffffffffffffffffffffffff16815260200190815260200160002060008573ffffffffffffffffffffffffffffffffffffffff1673ffffffffffffffffffffffffffffffffffffffff1681526020019081526020016000206000828254610f099190611df4565b925050819055509392505050565b60058054610f2490611c8b565b80601f0160208091040260200160405190810160405280929190818152602001828054610f5090611c8b565b8015610f9d5780601f10610f7257610100808354040283529160200191610f9d565b820191906000526020600020905b815481529060010190602001808311610f8057829003601f168201915b505050505081565b60075481565b60018181548110610fbb57600080fd5b906000526020600020016000915054906101000a900473ffffffffffffffffffffffffffffffffffffffff1681565b6000610ff4611354565b73ffffffffffffffffffffffffffffffffffffffff16611012610ad6565b73ffffffffffffffffffffffffffffffffffffffff1614611068576040517f08c379a000000000000000000000000000000000000000000000000000000000815260040161105f90611b58565b60405180910390fd5b6000600181111561107c5761107b611829565b5b3073ffffffffffffffffffffffffffffffffffffffff1663200d2ed26040518163ffffffff1660e01b815260040160206040518083038186803b1580156110c257600080fd5b505afa1580156110d6573d6000803e3d6000fd5b505050506040513d601f19601f820116820180604052508101906110fa9190611b9d565b600181111561110c5761110b611829565b5b1461114c576040517f08c379a000000000000000000000000000000000000000000000000000000000815260040161114390611ebc565b60405180910390fd5b6001600b60146101000a81548160ff0219169083600181111561117257611171611829565b5b021790555081600b60006101000a81548173ffffffffffffffffffffffffffffffffffffffff021916908373ffffffffffffffffffffffffffffffffffffffff1602179055504260078190555060019050919050565b60085481565b6111d6611354565b73ffffffffffffffffffffffffffffffffffffffff166111f4610ad6565b73ffffffffffffffffffffffffffffffffffffffff161461124a576040517f08c379a000000000000000000000000000000000000000000000000000000000815260040161124190611b58565b60405180910390fd5b600073ffffffffffffffffffffffffffffffffffffffff168173ffffffffffffffffffffffffffffffffffffffff1614156112ba576040517f08c379a00000000000000000000000000000000000000000000000000000000081526004016112b190611f4e565b60405180910390fd5b6112c381611492565b50565b6060600180548060200260200160405190810160405280929190818152602001828054801561134a57602002820191906000526020600020905b8160009054906101000a900473ffffffffffffffffffffffffffffffffffffffff1673ffffffffffffffffffffffffffffffffffffffff1681526020019060010190808311611300575b5050505050905090565b600033905090565b6000808473ffffffffffffffffffffffffffffffffffffffff1663a9059cbb858560405160240161138e929190611f6e565b6040516020818303038152906040529060e01b6020820180517bffffffffffffffffffffffffffffffffffffffffffffffffffffffff83818316178352505050506040516113dc9190611fde565b6000604051808303816000865af19150503d8060008114611419576040519150601f19603f3d011682016040523d82523d6000602084013e61141e565b606091505b509150915081801561144c575060008151148061144b57508080602001905181019061144a9190612021565b5b5b61148b576040517f08c379a0000000000000000000000000000000000000000000000000000000008152600401611482906120c0565b60405180910390fd5b5050505050565b60008060009054906101000a900473ffffffffffffffffffffffffffffffffffffffff169050816000806101000a81548173ffffffffffffffffffffffffffffffffffffffff021916908373ffffffffffffffffffffffffffffffffffffffff1602179055508173ffffffffffffffffffffffffffffffffffffffff168173ffffffffffffffffffffffffffffffffffffffff167f8be0079c531659141344cd1fd0a4f28419497f9722a3daafe3b4186f6b6457e060405160405180910390a35050565b6000808573ffffffffffffffffffffffffffffffffffffffff166323b872dd86868660405160240161158a939291906120e0565b6040516020818303038152906040529060e01b6020820180517bffffffffffffffffffffffffffffffffffffffffffffffffffffffff83818316178352505050506040516115d89190611fde565b6000604051808303816000865af19150503d8060008114611615576040519150601f19603f3d011682016040523d82523d6000602084013e61161a565b606091505b509150915081801561164857506000815114806116475750808060200190518101906116469190612021565b5b5b611687576040517f08c379a000000000000000000000000000000000000000000000000000000000815260040161167e90612189565b60405180910390fd5b505050505050565b600080fd5b600073ffffffffffffffffffffffffffffffffffffffff82169050919050565b60006116bf82611694565b9050919050565b6116cf816116b4565b81146116da57600080fd5b50565b6000813590506116ec816116c6565b92915050565b6000602082840312156117085761170761168f565b5b6000611716848285016116dd565b91505092915050565b600081519050919050565b600082825260208201905092915050565b6000819050602082019050919050565b611754816116b4565b82525050565b6000611766838361174b565b60208301905092915050565b6000602082019050919050565b600061178a8261171f565b611794818561172a565b935061179f8361173b565b8060005b838110156117d05781516117b7888261175a565b97506117c283611772565b9250506001810190506117a3565b5085935050505092915050565b600060208201905081810360008301526117f7818461177f565b905092915050565b611808816116b4565b82525050565b600060208201905061182360008301846117ff565b92915050565b7f4e487b7100000000000000000000000000000000000000000000000000000000600052602160045260246000fd5b6002811061186957611868611829565b5b50565b600081905061187a82611858565b919050565b600061188a8261186c565b9050919050565b61189a8161187f565b82525050565b60006020820190506118b56000830184611891565b92915050565b600080604083850312156118d2576118d161168f565b5b60006118e0858286016116dd565b92505060206118f1858286016116dd565b9150509250929050565b60008115159050919050565b611910816118fb565b82525050565b600060208201905061192b6000830184611907565b92915050565b600081519050919050565b600082825260208201905092915050565b60005b8381101561196b578082015181840152602081019050611950565b8381111561197a576000848401525b50505050565b6000601f19601f8301169050919050565b600061199c82611931565b6119a6818561193c565b93506119b681856020860161194d565b6119bf81611980565b840191505092915050565b600060208201905081810360008301526119e48184611991565b905092915050565b6000819050919050565b6119ff816119ec565b8114611a0a57600080fd5b50565b600081359050611a1c816119f6565b92915050565b60008060408385031215611a3957611a3861168f565b5b6000611a47858286016116dd565b9250506020611a5885828601611a0d565b9150509250929050565b611a6b816119ec565b82525050565b6000602082019050611a866000830184611a62565b92915050565b600080600060608486031215611aa557611aa461168f565b5b6000611ab3868287016116dd565b9350506020611ac4868287016116dd565b9250506040611ad586828701611a0d565b9150509250925092565b600060208284031215611af557611af461168f565b5b6000611b0384828501611a0d565b91505092915050565b7f4f776e61626c653a2063616c6c6572206973206e6f7420746865206f776e6572600082015250565b6000611b4260208361193c565b9150611b4d82611b0c565b602082019050919050565b60006020820190508181036000830152611b7181611b35565b9050919050565b60028110611b8557600080fd5b50565b600081519050611b9781611b78565b92915050565b600060208284031215611bb357611bb261168f565b5b6000611bc184828501611b88565b91505092915050565b7f5468697320697320626f756e747920697320636c6f7365642e2043616e6e6f7460008201527f20776974686472617720616761696e2e00000000000000000000000000000000602082015250565b6000611c2660308361193c565b9150611c3182611bca565b604082019050919050565b60006020820190508181036000830152611c5581611c19565b9050919050565b7f4e487b7100000000000000000000000000000000000000000000000000000000600052602260045260246000fd5b60006002820490506001821680611ca357607f821691505b60208210811415611cb757611cb6611c5c565b5b50919050565b7f4e487b7100000000000000000000000000000000000000000000000000000000600052601160045260246000fd5b6000611cf7826119ec565b9150611d02836119ec565b925082821015611d1557611d14611cbd565b5b828203905092915050565b600081519050611d2f816119f6565b92915050565b600060208284031215611d4b57611d4a61168f565b5b6000611d5984828501611d20565b91505092915050565b7f4d7573742073656e642061206e6f6e2d7a65726f20766f6c756d65206f66207460008201527f6f6b656e732e0000000000000000000000000000000000000000000000000000602082015250565b6000611dbe60268361193c565b9150611dc982611d62565b604082019050919050565b60006020820190508181036000830152611ded81611db1565b9050919050565b6000611dff826119ec565b9150611e0a836119ec565b9250827fffffffffffffffffffffffffffffffffffffffffffffffffffffffffffffffff03821115611e3f57611e3e611cbd565b5b828201905092915050565b7f5468697320697320626f756e747920697320616c726561647920636c6f73656460008201527f2e2043616e6e6f7420636c6f736520616761696e2e0000000000000000000000602082015250565b6000611ea660358361193c565b9150611eb182611e4a565b604082019050919050565b60006020820190508181036000830152611ed581611e99565b9050919050565b7f4f776e61626c653a206e6577206f776e657220697320746865207a65726f206160008201527f6464726573730000000000000000000000000000000000000000000000000000602082015250565b6000611f3860268361193c565b9150611f4382611edc565b604082019050919050565b60006020820190508181036000830152611f6781611f2b565b9050919050565b6000604082019050611f8360008301856117ff565b611f906020830184611a62565b9392505050565b600081519050919050565b600081905092915050565b6000611fb882611f97565b611fc28185611fa2565b9350611fd281856020860161194d565b80840191505092915050565b6000611fea8284611fad565b915081905092915050565b611ffe816118fb565b811461200957600080fd5b50565b60008151905061201b81611ff5565b92915050565b6000602082840312156120375761203661168f565b5b60006120458482850161200c565b91505092915050565b7f5472616e7366657248656c7065723a3a736166655472616e736665723a20747260008201527f616e73666572206661696c656400000000000000000000000000000000000000602082015250565b60006120aa602d8361193c565b91506120b58261204e565b604082019050919050565b600060208201905081810360008301526120d98161209d565b9050919050565b60006060820190506120f560008301866117ff565b61210260208301856117ff565b61210f6040830184611a62565b949350505050565b7f5472616e7366657248656c7065723a3a7472616e7366657246726f6d3a20747260008201527f616e7366657246726f6d206661696c6564000000000000000000000000000000602082015250565b600061217360318361193c565b915061217e82612117565b604082019050919050565b600060208201905081810360008301526121a281612166565b905091905056fea2646970667358221220c495ae514ca689fb51dd9300dbd050942d41fdb106eb1bd21a23d76c648534c264736f6c63430008080033a26469706673582212202e2986a3eb87d9c56235fc5ef94cf63b49b197c9108f3a58229732f4802fbd1a64736f6c63430008080033",
  "linkReferences": {},
  "deployedLinkReferences": {}
}