{
	"_format": "hh-sol-artifact-1",
	"contractName": "OpenQV1",
	"sourceName": "contracts/OpenQ/Implementations/OpenQV1.sol",
	"abi": [
		{
			"inputs": [],
			"stateMutability": "nonpayable",
			"type": "constructor"
		},
		{
			"anonymous": false,
			"inputs": [
				{
					"indexed": false,
					"internalType": "address",
					"name": "previousAdmin",
					"type": "address"
				},
				{
					"indexed": false,
					"internalType": "address",
					"name": "newAdmin",
					"type": "address"
				}
			],
			"name": "AdminChanged",
			"type": "event"
		},
		{
			"anonymous": false,
			"inputs": [
				{
					"indexed": true,
					"internalType": "address",
					"name": "beacon",
					"type": "address"
				}
			],
			"name": "BeaconUpgraded",
			"type": "event"
		},
		{
			"anonymous": false,
			"inputs": [
				{
					"indexed": false,
					"internalType": "string",
					"name": "bountyId",
					"type": "string"
				},
				{
					"indexed": false,
					"internalType": "address",
					"name": "bountyAddress",
					"type": "address"
				},
				{
					"indexed": false,
					"internalType": "string",
					"name": "organization",
					"type": "string"
				},
				{
					"indexed": false,
					"internalType": "address",
					"name": "closer",
					"type": "address"
				},
				{
					"indexed": false,
					"internalType": "uint256",
					"name": "bountyClosedTime",
					"type": "uint256"
				},
				{
					"indexed": false,
					"internalType": "uint256",
					"name": "bountyType",
					"type": "uint256"
				},
				{
					"indexed": false,
					"internalType": "bytes",
					"name": "data",
					"type": "bytes"
				},
				{
					"indexed": false,
					"internalType": "uint256",
					"name": "version",
					"type": "uint256"
				}
			],
			"name": "BountyClosed",
			"type": "event"
		},
		{
			"anonymous": false,
			"inputs": [
				{
					"indexed": false,
					"internalType": "string",
					"name": "bountyId",
					"type": "string"
				},
				{
					"indexed": false,
					"internalType": "string",
					"name": "organization",
					"type": "string"
				},
				{
					"indexed": false,
					"internalType": "address",
					"name": "issuerAddress",
					"type": "address"
				},
				{
					"indexed": false,
					"internalType": "address",
					"name": "bountyAddress",
					"type": "address"
				},
				{
					"indexed": false,
					"internalType": "uint256",
					"name": "bountyMintTime",
					"type": "uint256"
				},
				{
					"indexed": false,
					"internalType": "uint256",
					"name": "bountyType",
					"type": "uint256"
				},
				{
					"indexed": false,
					"internalType": "bytes",
					"name": "data",
					"type": "bytes"
				},
				{
					"indexed": false,
					"internalType": "uint256",
					"name": "version",
					"type": "uint256"
				}
			],
			"name": "BountyCreated",
			"type": "event"
		},
		{
			"anonymous": false,
			"inputs": [
				{
					"indexed": false,
					"internalType": "uint256",
					"name": "claimTime",
					"type": "uint256"
				},
				{
					"indexed": false,
					"internalType": "uint256",
					"name": "bountyType",
					"type": "uint256"
				},
				{
					"indexed": false,
					"internalType": "bytes",
					"name": "data",
					"type": "bytes"
				},
				{
					"indexed": false,
					"internalType": "uint256",
					"name": "version",
					"type": "uint256"
				}
			],
			"name": "ClaimSuccess",
			"type": "event"
		},
		{
			"anonymous": false,
			"inputs": [
				{
					"indexed": false,
					"internalType": "bytes32",
					"name": "depositId",
					"type": "bytes32"
				},
				{
					"indexed": false,
					"internalType": "uint256",
					"name": "newExpiration",
					"type": "uint256"
				},
				{
					"indexed": false,
					"internalType": "uint256",
					"name": "bountyType",
					"type": "uint256"
				},
				{
					"indexed": false,
					"internalType": "bytes",
					"name": "data",
					"type": "bytes"
				},
				{
					"indexed": false,
					"internalType": "uint256",
					"name": "version",
					"type": "uint256"
				}
			],
			"name": "DepositExtended",
			"type": "event"
		},
		{
			"anonymous": false,
			"inputs": [
				{
					"indexed": false,
					"internalType": "bytes32",
					"name": "depositId",
					"type": "bytes32"
				},
				{
					"indexed": false,
					"internalType": "string",
					"name": "bountyId",
					"type": "string"
				},
				{
					"indexed": false,
					"internalType": "address",
					"name": "bountyAddress",
					"type": "address"
				},
				{
					"indexed": false,
					"internalType": "string",
					"name": "organization",
					"type": "string"
				},
				{
					"indexed": false,
					"internalType": "uint256",
					"name": "refundTime",
					"type": "uint256"
				},
				{
					"indexed": false,
					"internalType": "address",
					"name": "tokenAddress",
					"type": "address"
				},
				{
					"indexed": false,
					"internalType": "uint256",
					"name": "volume",
					"type": "uint256"
				},
				{
					"indexed": false,
					"internalType": "uint256",
					"name": "bountyType",
					"type": "uint256"
				},
				{
					"indexed": false,
					"internalType": "bytes",
					"name": "data",
					"type": "bytes"
				},
				{
					"indexed": false,
					"internalType": "uint256",
					"name": "version",
					"type": "uint256"
				}
			],
			"name": "DepositRefunded",
			"type": "event"
		},
		{
			"anonymous": false,
			"inputs": [
				{
					"indexed": false,
					"internalType": "uint8",
					"name": "version",
					"type": "uint8"
				}
			],
			"name": "Initialized",
			"type": "event"
		},
		{
			"anonymous": false,
			"inputs": [
				{
					"indexed": false,
					"internalType": "bytes32",
					"name": "depositId",
					"type": "bytes32"
				},
				{
					"indexed": false,
					"internalType": "address",
					"name": "bountyAddress",
					"type": "address"
				},
				{
					"indexed": false,
					"internalType": "string",
					"name": "bountyId",
					"type": "string"
				},
				{
					"indexed": false,
					"internalType": "string",
					"name": "organization",
					"type": "string"
				},
				{
					"indexed": false,
					"internalType": "address",
					"name": "tokenAddress",
					"type": "address"
				},
				{
					"indexed": false,
					"internalType": "uint256",
					"name": "receiveTime",
					"type": "uint256"
				},
				{
					"indexed": false,
					"internalType": "address",
					"name": "sender",
					"type": "address"
				},
				{
					"indexed": false,
					"internalType": "uint256",
					"name": "expiration",
					"type": "uint256"
				},
				{
					"indexed": false,
					"internalType": "uint256",
					"name": "tokenId",
					"type": "uint256"
				},
				{
					"indexed": false,
					"internalType": "uint256",
					"name": "bountyType",
					"type": "uint256"
				},
				{
					"indexed": false,
					"internalType": "bytes",
					"name": "data",
					"type": "bytes"
				},
				{
					"indexed": false,
					"internalType": "uint256",
					"name": "version",
					"type": "uint256"
				}
			],
			"name": "NFTDepositReceived",
			"type": "event"
		},
		{
			"anonymous": false,
			"inputs": [
				{
					"indexed": true,
					"internalType": "address",
					"name": "previousOracle",
					"type": "address"
				},
				{
					"indexed": true,
					"internalType": "address",
					"name": "newOracle",
					"type": "address"
				}
			],
			"name": "OracleTransferred",
			"type": "event"
		},
		{
			"anonymous": false,
			"inputs": [
				{
					"indexed": true,
					"internalType": "address",
					"name": "previousOwner",
					"type": "address"
				},
				{
					"indexed": true,
					"internalType": "address",
					"name": "newOwner",
					"type": "address"
				}
			],
			"name": "OwnershipTransferred",
			"type": "event"
		},
		{
			"anonymous": false,
			"inputs": [
				{
					"indexed": false,
					"internalType": "string",
					"name": "bountyId",
					"type": "string"
				},
				{
					"indexed": false,
					"internalType": "address",
					"name": "bountyAddress",
					"type": "address"
				},
				{
					"indexed": false,
					"internalType": "string",
					"name": "organization",
					"type": "string"
				},
				{
					"indexed": false,
					"internalType": "address",
					"name": "closer",
					"type": "address"
				},
				{
					"indexed": false,
					"internalType": "uint256",
					"name": "payoutTime",
					"type": "uint256"
				},
				{
					"indexed": false,
					"internalType": "address",
					"name": "tokenAddress",
					"type": "address"
				},
				{
					"indexed": false,
					"internalType": "uint256",
					"name": "volume",
					"type": "uint256"
				},
				{
					"indexed": false,
					"internalType": "uint256",
					"name": "bountyType",
					"type": "uint256"
				},
				{
					"indexed": false,
					"internalType": "bytes",
					"name": "data",
					"type": "bytes"
				},
				{
					"indexed": false,
					"internalType": "uint256",
					"name": "version",
					"type": "uint256"
				}
			],
			"name": "TokenBalanceClaimed",
			"type": "event"
		},
		{
			"anonymous": false,
			"inputs": [
				{
					"indexed": false,
					"internalType": "bytes32",
					"name": "depositId",
					"type": "bytes32"
				},
				{
					"indexed": false,
					"internalType": "address",
					"name": "bountyAddress",
					"type": "address"
				},
				{
					"indexed": false,
					"internalType": "string",
					"name": "bountyId",
					"type": "string"
				},
				{
					"indexed": false,
					"internalType": "string",
					"name": "organization",
					"type": "string"
				},
				{
					"indexed": false,
					"internalType": "address",
					"name": "tokenAddress",
					"type": "address"
				},
				{
					"indexed": false,
					"internalType": "uint256",
					"name": "receiveTime",
					"type": "uint256"
				},
				{
					"indexed": false,
					"internalType": "address",
					"name": "sender",
					"type": "address"
				},
				{
					"indexed": false,
					"internalType": "uint256",
					"name": "expiration",
					"type": "uint256"
				},
				{
					"indexed": false,
					"internalType": "uint256",
					"name": "volume",
					"type": "uint256"
				},
				{
					"indexed": false,
					"internalType": "uint256",
					"name": "bountyType",
					"type": "uint256"
				},
				{
					"indexed": false,
					"internalType": "bytes",
					"name": "data",
					"type": "bytes"
				},
				{
					"indexed": false,
					"internalType": "uint256",
					"name": "version",
					"type": "uint256"
				}
			],
			"name": "TokenDepositReceived",
			"type": "event"
		},
		{
			"anonymous": false,
			"inputs": [
				{
					"indexed": true,
					"internalType": "address",
					"name": "implementation",
					"type": "address"
				}
			],
			"name": "Upgraded",
			"type": "event"
		},
		{
			"inputs": [],
			"name": "VERSION_1",
			"outputs": [
				{
					"internalType": "uint256",
					"name": "",
					"type": "uint256"
				}
			],
			"stateMutability": "view",
			"type": "function"
		},
		{
			"inputs": [
				{
					"internalType": "address",
					"name": "_bountyAddress",
					"type": "address"
				}
			],
			"name": "bountyAddressToBountyId",
			"outputs": [
				{
					"internalType": "string",
					"name": "",
					"type": "string"
				}
			],
			"stateMutability": "view",
			"type": "function"
		},
		{
			"inputs": [],
			"name": "bountyFactory",
			"outputs": [
				{
					"internalType": "contract BountyFactory",
					"name": "",
					"type": "address"
				}
			],
			"stateMutability": "view",
			"type": "function"
		},
		{
			"inputs": [
				{
					"internalType": "string",
					"name": "",
					"type": "string"
				}
			],
			"name": "bountyIdToAddress",
			"outputs": [
				{
					"internalType": "address",
					"name": "",
					"type": "address"
				}
			],
			"stateMutability": "view",
			"type": "function"
		},
		{
			"inputs": [
				{
					"internalType": "string",
					"name": "_bountyId",
					"type": "string"
				}
			],
			"name": "bountyIsClaimable",
			"outputs": [
				{
					"internalType": "bool",
					"name": "",
					"type": "bool"
				}
			],
			"stateMutability": "view",
			"type": "function"
		},
		{
			"inputs": [
				{
					"internalType": "string",
					"name": "_bountyId",
					"type": "string"
				}
			],
			"name": "bountyIsOpen",
			"outputs": [
				{
					"internalType": "bool",
					"name": "",
					"type": "bool"
				}
			],
			"stateMutability": "view",
			"type": "function"
		},
		{
			"inputs": [
				{
					"internalType": "string",
					"name": "_bountyId",
					"type": "string"
				}
			],
			"name": "bountyType",
			"outputs": [
				{
					"internalType": "uint256",
					"name": "",
					"type": "uint256"
				}
			],
			"stateMutability": "view",
			"type": "function"
		},
		{
			"inputs": [
				{
					"internalType": "string",
					"name": "_bountyId",
					"type": "string"
				},
				{
					"internalType": "address",
					"name": "_closer",
					"type": "address"
				},
				{
					"internalType": "bytes",
					"name": "_closerData",
					"type": "bytes"
				}
			],
			"name": "claimBounty",
			"outputs": [],
			"stateMutability": "nonpayable",
			"type": "function"
		},
		{
			"inputs": [
				{
					"internalType": "string",
					"name": "_bountyId",
					"type": "string"
				}
			],
			"name": "closeCompetition",
			"outputs": [],
			"stateMutability": "nonpayable",
			"type": "function"
		},
		{
			"inputs": [
				{
					"internalType": "string",
					"name": "_bountyId",
					"type": "string"
				}
			],
			"name": "closeOngoing",
			"outputs": [],
			"stateMutability": "nonpayable",
			"type": "function"
		},
		{
			"inputs": [
				{
					"internalType": "string",
					"name": "_bountyId",
					"type": "string"
				},
				{
					"internalType": "bytes32",
					"name": "_depositId",
					"type": "bytes32"
				},
				{
					"internalType": "uint256",
					"name": "_seconds",
					"type": "uint256"
				}
			],
			"name": "extendDeposit",
			"outputs": [],
			"stateMutability": "nonpayable",
			"type": "function"
		},
		{
			"inputs": [
				{
					"internalType": "string",
					"name": "_bountyId",
					"type": "string"
				},
				{
					"internalType": "address",
					"name": "_tokenAddress",
					"type": "address"
				},
				{
					"internalType": "uint256",
					"name": "_tokenId",
					"type": "uint256"
				},
				{
					"internalType": "uint256",
					"name": "_expiration",
					"type": "uint256"
				}
			],
			"name": "fundBountyNFT",
			"outputs": [],
			"stateMutability": "nonpayable",
			"type": "function"
		},
		{
			"inputs": [
				{
					"internalType": "string",
					"name": "_bountyId",
					"type": "string"
				},
				{
					"internalType": "address",
					"name": "_tokenAddress",
					"type": "address"
				},
				{
					"internalType": "uint256",
					"name": "_volume",
					"type": "uint256"
				},
				{
					"internalType": "uint256",
					"name": "_expiration",
					"type": "uint256"
				}
			],
			"name": "fundBountyToken",
			"outputs": [],
			"stateMutability": "payable",
			"type": "function"
		},
		{
			"inputs": [],
			"name": "getImplementation",
			"outputs": [
				{
					"internalType": "address",
					"name": "",
					"type": "address"
				}
			],
			"stateMutability": "view",
			"type": "function"
		},
		{
			"inputs": [
				{
					"internalType": "address",
					"name": "oracle",
					"type": "address"
				}
			],
			"name": "initialize",
			"outputs": [],
			"stateMutability": "nonpayable",
			"type": "function"
		},
		{
			"inputs": [
				{
					"internalType": "address",
					"name": "_tokenAddress",
					"type": "address"
				}
			],
			"name": "isWhitelisted",
			"outputs": [
				{
					"internalType": "bool",
					"name": "",
					"type": "bool"
				}
			],
			"stateMutability": "view",
			"type": "function"
		},
		{
			"inputs": [
				{
					"internalType": "string",
					"name": "_bountyId",
					"type": "string"
				},
				{
					"internalType": "string",
					"name": "_organization",
					"type": "string"
				},
				{
					"components": [
						{
							"internalType": "uint32",
							"name": "operationType",
							"type": "uint32"
						},
						{
							"internalType": "bytes",
							"name": "data",
							"type": "bytes"
						}
					],
					"internalType": "struct OpenQDefinitions.Operation",
					"name": "_initOperation",
					"type": "tuple"
				}
			],
			"name": "mintBounty",
			"outputs": [
				{
					"internalType": "address",
					"name": "",
					"type": "address"
				}
			],
			"stateMutability": "nonpayable",
			"type": "function"
		},
		{
			"inputs": [
				{
					"internalType": "string",
					"name": "_bountyId",
					"type": "string"
				},
				{
					"internalType": "string",
					"name": "claimant",
					"type": "string"
				},
				{
					"internalType": "string",
					"name": "claimantAsset",
					"type": "string"
				}
			],
			"name": "ongoingClaimed",
			"outputs": [
				{
					"internalType": "bool",
					"name": "",
					"type": "bool"
				}
			],
			"stateMutability": "view",
			"type": "function"
		},
		{
			"inputs": [],
			"name": "openQTokenWhitelist",
			"outputs": [
				{
					"internalType": "contract OpenQTokenWhitelist",
					"name": "",
					"type": "address"
				}
			],
			"stateMutability": "view",
			"type": "function"
		},
		{
			"inputs": [],
			"name": "oracle",
			"outputs": [
				{
					"internalType": "address",
					"name": "",
					"type": "address"
				}
			],
			"stateMutability": "view",
			"type": "function"
		},
		{
			"inputs": [],
			"name": "owner",
			"outputs": [
				{
					"internalType": "address",
					"name": "",
					"type": "address"
				}
			],
			"stateMutability": "view",
			"type": "function"
		},
		{
			"inputs": [],
			"name": "proxiableUUID",
			"outputs": [
				{
					"internalType": "bytes32",
					"name": "",
					"type": "bytes32"
				}
			],
			"stateMutability": "view",
			"type": "function"
		},
		{
			"inputs": [
				{
					"internalType": "string",
					"name": "_bountyId",
					"type": "string"
				},
				{
					"internalType": "bytes32",
					"name": "_depositId",
					"type": "bytes32"
				}
			],
			"name": "refundDeposit",
			"outputs": [],
			"stateMutability": "nonpayable",
			"type": "function"
		},
		{
			"inputs": [],
			"name": "renounceOwnership",
			"outputs": [],
			"stateMutability": "nonpayable",
			"type": "function"
		},
		{
			"inputs": [
				{
					"internalType": "address",
					"name": "_bountyFactory",
					"type": "address"
				}
			],
			"name": "setBountyFactory",
			"outputs": [],
			"stateMutability": "nonpayable",
			"type": "function"
		},
		{
			"inputs": [
				{
					"internalType": "address",
					"name": "_openQTokenWhitelist",
					"type": "address"
				}
			],
			"name": "setTokenWhitelist",
			"outputs": [],
			"stateMutability": "nonpayable",
			"type": "function"
		},
		{
			"inputs": [
				{
					"internalType": "string",
					"name": "_bountyId",
					"type": "string"
				},
				{
					"internalType": "uint256",
					"name": "_tier",
					"type": "uint256"
				}
			],
			"name": "tierClaimed",
			"outputs": [
				{
					"internalType": "bool",
					"name": "",
					"type": "bool"
				}
			],
			"stateMutability": "view",
			"type": "function"
		},
		{
			"inputs": [
				{
					"internalType": "string",
					"name": "_bountyId",
					"type": "string"
				}
			],
			"name": "tokenAddressLimitReached",
			"outputs": [
				{
					"internalType": "bool",
					"name": "",
					"type": "bool"
				}
			],
			"stateMutability": "view",
			"type": "function"
		},
		{
			"inputs": [
				{
					"internalType": "address",
					"name": "_newOracle",
					"type": "address"
				}
			],
			"name": "transferOracle",
			"outputs": [],
			"stateMutability": "nonpayable",
			"type": "function"
		},
		{
			"inputs": [
				{
					"internalType": "address",
					"name": "newOwner",
					"type": "address"
				}
			],
			"name": "transferOwnership",
			"outputs": [],
			"stateMutability": "nonpayable",
			"type": "function"
		},
		{
			"inputs": [
				{
					"internalType": "address",
					"name": "newImplementation",
					"type": "address"
				}
			],
			"name": "upgradeTo",
			"outputs": [],
			"stateMutability": "nonpayable",
			"type": "function"
		},
		{
			"inputs": [
				{
					"internalType": "address",
					"name": "newImplementation",
					"type": "address"
				},
				{
					"internalType": "bytes",
					"name": "data",
					"type": "bytes"
				}
			],
			"name": "upgradeToAndCall",
			"outputs": [],
			"stateMutability": "payable",
			"type": "function"
		}
	],
	"bytecode": "0x60a06040523060805234801561001457600080fd5b50608051614aac6100ca60003960008181610647015281816106870152818161092b0152818161096b01528181610cfa01528181610d3a01528181610deb01528181610e2b015281816110a3015281816110e30152818161115c0152818161119c01528181611229015281816113b0015281816113f00152818161188c015281816118cc015281816120c701528181612107015281816121f801528181612238015281816125df015261261f0152614aac6000f3fe6080604052600436106101e35760003560e01c8063a8bca7b811610102578063bfbcee5d11610095578063e732680611610064578063e73268061461058d578063f2fde38b146105ad578063f75161c6146105cd578063fd1b2e3f146105ed57600080fd5b8063bfbcee5d1461051a578063c4d66de81461053a578063decef9b01461055a578063e0c33c161461056d57600080fd5b8063ab6c6287116100d1578063ab6c62871461049a578063b8f75c0b146104ba578063b91a53df146104da578063bdc969c6146104fa57600080fd5b8063a8bca7b814610425578063aaaa2c5e14610445578063aae5706514610465578063aaf10f421461048557600080fd5b80633af32abf1161017a57806352d1902d1161014957806352d1902d146103bf578063715018a6146103d45780637dc0d1d0146103e95780638da5cb5b1461040757600080fd5b80633af32abf1461032b57806348bd1e991461034b5780634f1ef2861461038c578063527b22db1461039f57600080fd5b806326c20e5f116101b657806326c20e5f1461028057806336200461146102a35780633659cfe6146102d35780633948eddd146102f357600080fd5b8063062b366d146101e857806310fd86c81461020a57806316a2a0cc1461024057806322c2adf514610260575b600080fd5b3480156101f457600080fd5b50610208610203366004613c14565b61060d565b005b34801561021657600080fd5b5061022a610225366004613c79565b6108ad565b6040516102379190613cee565b60405180910390f35b34801561024c57600080fd5b5061020861025b366004613c79565b610921565b34801561026c57600080fd5b5061020861027b366004613d01565b6109eb565b34801561028c57600080fd5b50610295600181565b604051908152602001610237565b3480156102af57600080fd5b506102c36102be366004613d42565b610c15565b6040519015158152602001610237565b3480156102df57600080fd5b506102086102ee366004613c79565b610cf0565b3480156102ff57600080fd5b5061031361030e366004613ec6565b610db8565b6040516001600160a01b039091168152602001610237565b34801561033757600080fd5b506102c3610346366004613c79565b611024565b34801561035757600080fd5b50610313610366366004613fa5565b805160208183018101805160fe825292820191909301209152546001600160a01b031681565b61020861039a366004613fe1565b611099565b3480156103ab57600080fd5b506102086103ba366004613c79565b611152565b3480156103cb57600080fd5b5061029561121c565b3480156103e057600080fd5b506102086112cf565b3480156103f557600080fd5b5060fb546001600160a01b0316610313565b34801561041357600080fd5b506033546001600160a01b0316610313565b34801561043157600080fd5b50610295610440366004613d01565b6112e3565b34801561045157600080fd5b50610208610460366004614030565b61137f565b34801561047157600080fd5b5061020861048036600461407b565b61185b565b34801561049157600080fd5b50610313611b65565b3480156104a657600080fd5b506102086104b53660046140e1565b611b74565b3480156104c657600080fd5b5060fc54610313906001600160a01b031681565b3480156104e657600080fd5b506102086104f5366004613d01565b611d7c565b34801561050657600080fd5b506102c3610515366004614030565b611e26565b34801561052657600080fd5b506102c3610535366004613d01565b611ecb565b34801561054657600080fd5b50610208610555366004613c79565b611ffd565b61020861056836600461407b565b6121c7565b34801561057957600080fd5b506102c3610588366004613d01565b6124d3565b34801561059957600080fd5b506102086105a8366004613c79565b6125d5565b3480156105b957600080fd5b506102086105c8366004613c79565b6126ed565b3480156105d957600080fd5b5060fd54610313906001600160a01b031681565b3480156105f957600080fd5b506102c3610608366004613d01565b612763565b600260c954036106385760405162461bcd60e51b815260040161062f90614165565b60405180910390fd5b600260c9556001600160a01b037f00000000000000000000000000000000000000000000000000000000000000001630036106855760405162461bcd60e51b815260040161062f9061419c565b7f00000000000000000000000000000000000000000000000000000000000000006001600160a01b03166106b7612800565b6001600160a01b0316146106dd5760405162461bcd60e51b815260040161062f906141e8565b600060fe85856040516106f1929190614234565b9081526040519081900360200181205463166ea0d160e21b82526001600160a01b031691508190339082906359ba83449061073490889060040190815260200190565b602060405180830381865afa158015610751573d6000803e3d6000fd5b505050506040513d601f19601f820116820180604052508101906107759190614244565b6001600160a01b0316146107d55760405162461bcd60e51b815260206004820152602160248201527f4f4e4c595f46554e4445525f43414e5f524551554553545f455854454e53494f6044820152602760f91b606482015260840161062f565b60405163e83963eb60e01b815260048101859052602481018490523360448201526000906001600160a01b0383169063e83963eb906064016020604051808303816000875af115801561082c573d6000803e3d6000fd5b505050506040513d601f19601f820116820180604052508101906108509190614261565b60408051600080825260208201928390529293507fff6b606253b167363e000664c8b931e839bf0ab135de9d6cfc5e26311a1ff6c49261089792899286929160019061427a565b60405180910390a15050600160c9555050505050565b60606000829050806001600160a01b031663c17bd75e6040518163ffffffff1660e01b8152600401600060405180830381865afa1580156108f2573d6000803e3d6000fd5b505050506040513d6000823e601f3d908101601f1916820160405261091a91908101906142b1565b9392505050565b6001600160a01b037f00000000000000000000000000000000000000000000000000000000000000001630036109695760405162461bcd60e51b815260040161062f9061419c565b7f00000000000000000000000000000000000000000000000000000000000000006001600160a01b031661099b612800565b6001600160a01b0316146109c15760405162461bcd60e51b815260040161062f906141e8565b6109c961281c565b60fc80546001600160a01b0319166001600160a01b0392909216919091179055565b6109f58282612763565b1515600114610a465760405162461bcd60e51b815260206004820152601a60248201527f434f4d5045544954494f4e5f414c52454144595f434c4f534544000000000000604482015260640161062f565b600060fe8383604051610a5a929190614234565b9081526040519081900360200181205463031b33b760e11b82523360048301526001600160a01b031691508190630636676e906024015b600060405180830381600087803b158015610aab57600080fd5b505af1158015610abf573d6000803e3d6000fd5b505050507fb9d76ba577270421a3b4826a02b81b7678f1d62214225408b99f94e42d78278c838360fe8686604051610af8929190614234565b908152602001604051809103902060009054906101000a90046001600160a01b0316846001600160a01b03166323bd4d7a6040518163ffffffff1660e01b8152600401600060405180830381865afa158015610b58573d6000803e3d6000fd5b505050506040513d6000823e601f3d908101601f19168201604052610b8091908101906142b1565b600042876001600160a01b031663b3ca1f3b6040518163ffffffff1660e01b8152600401602060405180830381865afa158015610bc1573d6000803e3d6000fd5b505050506040513d601f19601f82011682018060405250810190610be59190614261565b60408051600081526020810191829052610c089897969594939291600190614347565b60405180910390a1505050565b60008060fe8888604051610c2a929190614234565b90815260405160209181900382018120546001600160a01b031692508291600091610c5d918a918a918a918a91016143c1565b60408051601f19818403018152908290528051602090910120636420fd9360e01b82526004820181905291506000906001600160a01b03841690636420fd9390602401602060405180830381865afa158015610cbd573d6000803e3d6000fd5b505050506040513d601f19601f82011682018060405250810190610ce191906143e8565b9b9a5050505050505050505050565b6001600160a01b037f0000000000000000000000000000000000000000000000000000000000000000163003610d385760405162461bcd60e51b815260040161062f9061419c565b7f00000000000000000000000000000000000000000000000000000000000000006001600160a01b0316610d6a612800565b6001600160a01b031614610d905760405162461bcd60e51b815260040161062f906141e8565b610d9981612876565b60408051600080825260208201909252610db59183919061287e565b50565b6000600260c95403610ddc5760405162461bcd60e51b815260040161062f90614165565b600260c9556001600160a01b037f0000000000000000000000000000000000000000000000000000000000000000163003610e295760405162461bcd60e51b815260040161062f9061419c565b7f00000000000000000000000000000000000000000000000000000000000000006001600160a01b0316610e5b612800565b6001600160a01b031614610e815760405162461bcd60e51b815260040161062f906141e8565b60006001600160a01b031660fe8787604051610e9e929190614234565b908152604051908190036020019020546001600160a01b031614610efc5760405162461bcd60e51b8152602060048201526015602482015274424f554e54595f414c52454144595f45584953545360581b604482015260640161062f565b60fc54604051630daa2ab360e31b81526000916001600160a01b031690636d51559890610f37908a908a9033908b908b908b9060040161440a565b6020604051808303816000875af1158015610f56573d6000803e3d6000fd5b505050506040513d601f19601f82011682018060405250810190610f7a9190614244565b90508060fe8888604051610f8f929190614234565b90815260405190819003602001902080546001600160a01b03929092166001600160a01b03199092169190911790557f07bf14db09a3c8b7d7e240acc23ab6da8587183655a6ffcbda01ca7b026a375787878787338642610ff087876112e3565b8b60200151600160405161100d9a9998979695949392919061447b565b60405180910390a1600160c9559695505050505050565b60fd54604051633af32abf60e01b81526001600160a01b0383811660048301526000921690633af32abf90602401602060405180830381865afa15801561106f573d6000803e3d6000fd5b505050506040513d601f19601f8201168201806040525081019061109391906143e8565b92915050565b6001600160a01b037f00000000000000000000000000000000000000000000000000000000000000001630036110e15760405162461bcd60e51b815260040161062f9061419c565b7f00000000000000000000000000000000000000000000000000000000000000006001600160a01b0316611113612800565b6001600160a01b0316146111395760405162461bcd60e51b815260040161062f906141e8565b61114282612876565b61114e8282600161287e565b5050565b6001600160a01b037f000000000000000000000000000000000000000000000000000000000000000016300361119a5760405162461bcd60e51b815260040161062f9061419c565b7f00000000000000000000000000000000000000000000000000000000000000006001600160a01b03166111cc612800565b6001600160a01b0316146111f25760405162461bcd60e51b815260040161062f906141e8565b6111fa61281c565b60fd80546001600160a01b0319166001600160a01b0392909216919091179055565b6000306001600160a01b037f000000000000000000000000000000000000000000000000000000000000000016146112bc5760405162461bcd60e51b815260206004820152603860248201527f555550535570677261646561626c653a206d757374206e6f742062652063616c60448201527f6c6564207468726f7567682064656c656761746563616c6c0000000000000000606482015260840161062f565b50600080516020614a3083398151915290565b6112d761281c565b6112e160006129ee565b565b60008060fe84846040516112f8929190614234565b9081526040805191829003602090810183205463b3ca1f3b60e01b845291516001600160a01b0390921693508392600092849263b3ca1f3b92600480820193918290030181865afa158015611351573d6000803e3d6000fd5b505050506040513d601f19601f820116820180604052508101906113759190614261565b9695505050505050565b600260c954036113a15760405162461bcd60e51b815260040161062f90614165565b600260c9556001600160a01b037f00000000000000000000000000000000000000000000000000000000000000001630036113ee5760405162461bcd60e51b815260040161062f9061419c565b7f00000000000000000000000000000000000000000000000000000000000000006001600160a01b0316611420612800565b6001600160a01b0316146114465760405162461bcd60e51b815260040161062f906141e8565b600060fe848460405161145a929190614234565b9081526040519081900360200181205463166ea0d160e21b82526001600160a01b031691508190339082906359ba83449061149d90879060040190815260200190565b602060405180830381865afa1580156114ba573d6000803e3d6000fd5b505050506040513d601f19601f820116820180604052508101906114de9190614244565b6001600160a01b0316146115345760405162461bcd60e51b815260206004820152601e60248201527f4f4e4c595f46554e4445525f43414e5f524551554553545f524546554e440000604482015260640161062f565b6040516356406fa560e01b815260048101849052611610906001600160a01b038316906356406fa590602401602060405180830381865afa15801561157d573d6000803e3d6000fd5b505050506040513d601f19601f820116820180604052508101906115a19190614261565b60405163968b098f60e01b8152600481018690526001600160a01b0384169063968b098f90602401602060405180830381865afa1580156115e6573d6000803e3d6000fd5b505050506040513d601f19601f8201168201806040525081019061160a9190614261565b90612a40565b42101561165f5760405162461bcd60e51b815260206004820152601860248201527f5052454d41545552455f524546554e445f524551554553540000000000000000604482015260640161062f565b604051630c82823f60e31b8152600481018490523360248201526001600160a01b0382169063641411f890604401600060405180830381600087803b1580156116a757600080fd5b505af11580156116bb573d6000803e3d6000fd5b505050507f69564edf78e6beb23606d24a3d00a7d77315e974782eca07c9a0139393ef797f83868685856001600160a01b03166323bd4d7a6040518163ffffffff1660e01b8152600401600060405180830381865afa158015611722573d6000803e3d6000fd5b505050506040513d6000823e601f3d908101601f1916820160405261174a91908101906142b1565b6040516397bb3ce960e01b8152600481018a905242906001600160a01b038916906397bb3ce990602401602060405180830381865afa158015611791573d6000803e3d6000fd5b505050506040513d601f19601f820116820180604052508101906117b59190614244565b6040516305657ba960e21b8152600481018c90526001600160a01b038a1690631595eea490602401602060405180830381865afa1580156117fa573d6000803e3d6000fd5b505050506040513d601f19601f8201168201806040525081019061181e9190614261565b6040805160008082526020820190925260016040516118479b9a999897969594939291906144f6565b60405180910390a15050600160c955505050565b600260c9540361187d5760405162461bcd60e51b815260040161062f90614165565b600260c9556001600160a01b037f00000000000000000000000000000000000000000000000000000000000000001630036118ca5760405162461bcd60e51b815260040161062f9061419c565b7f00000000000000000000000000000000000000000000000000000000000000006001600160a01b03166118fc612800565b6001600160a01b0316146119225760405162461bcd60e51b815260040161062f906141e8565b600060fe8686604051611936929190614234565b908152604051908190036020019020546001600160a01b031690508061195b85611024565b61199c5760405162461bcd60e51b81526020600482015260126024820152711513d2d15397d393d517d050d0d15415115160721b604482015260640161062f565b6119a68787612763565b15156001146119ef5760405162461bcd60e51b815260206004820152601560248201527446554e44494e475f434c4f5345445f424f554e545960581b604482015260640161062f565b60405163e129b33360e01b81523360048201526001600160a01b03868116602483015260448201869052606482018590526000919083169063e129b333906084016020604051808303816000875af1158015611a4f573d6000803e3d6000fd5b505050506040513d601f19601f82011682018060405250810190611a739190614261565b90507f113d7b68690d10a1b57a4033f31ccbe3071a8b22eb4156a27533b32fe2cfb1e481848a8a866001600160a01b03166323bd4d7a6040518163ffffffff1660e01b8152600401600060405180830381865afa158015611ad8573d6000803e3d6000fd5b505050506040513d6000823e601f3d908101601f19168201604052611b0091908101906142b1565b8b42338c8e6000806040519080825280601f01601f191660200182016040528015611b32576020820181803683370190505b506001604051611b4e9d9c9b9a99989796959493929190614580565b60405180910390a15050600160c955505050505050565b6000611b6f612800565b905090565b60fb546001600160a01b03163314611be75760405162461bcd60e51b815260206004820152603060248201527f4f7261636c697a653a2063616c6c6572206973206e6f7420746865206375727260448201526f656e74204f70656e51204f7261636c6560801b606482015260840161062f565b600260c95403611c095760405162461bcd60e51b815260040161062f90614165565b600260c955611c188585611ecb565b1515600114611c695760405162461bcd60e51b815260206004820152601760248201527f424f554e54595f49535f4e4f545f434c41494d41424c45000000000000000000604482015260640161062f565b600060fe8686604051611c7d929190614234565b908152602001604051809103902060009054906101000a90046001600160a01b031690506000816001600160a01b031663b3ca1f3b6040518163ffffffff1660e01b8152600401602060405180830381865afa158015611ce1573d6000803e3d6000fd5b505050506040513d601f19601f82011682018060405250810190611d059190614261565b90506000198101611d2157611d1c82868686612a4c565b611d44565b6001198101611d3657611d1c82868686612cda565b611d44828689898888613172565b7fd6de63792ebd5ae7b0da0e2a38b6fe8acd3b85073d8c96d84bd84271663d0eca428286866001604051610897959493929190614624565b611d868282612763565b1515600114611dd75760405162461bcd60e51b815260206004820152601d60248201527f4f4e474f494e475f424f554e54595f414c52454144595f434c4f534544000000604482015260640161062f565b600060fe8383604051611deb929190614234565b9081526040519081900360200181205463764e161b60e11b82523360048301526001600160a01b03169150819063ec9c2c3690602401610a91565b60008060fe8585604051611e3b929190614234565b90815260405190819003602001812054634ee5bdc760e11b82526001600160a01b0316915081906000908290639dcb7b8e90611e7f90889060040190815260200190565b602060405180830381865afa158015611e9c573d6000803e3d6000fd5b505050506040513d601f19601f82011682018060405250810190611ec091906143e8565b979650505050505050565b60008060fe8484604051611ee0929190614234565b90815260408051918290036020908101832054631006976960e11b845291516001600160a01b0390921693508392600092849263200d2ed292600480820193918290030181865afa158015611f39573d6000803e3d6000fd5b505050506040513d601f19601f82011682018060405250810190611f5d9190614261565b90506000826001600160a01b031663b3ca1f3b6040518163ffffffff1660e01b8152600401602060405180830381865afa158015611f9f573d6000803e3d6000fd5b505050506040513d601f19601f82011682018060405250810190611fc39190614261565b90506000198101611fda5750159250611093915050565b6001198101611ff157506002149250611093915050565b50159250611093915050565b600054610100900460ff161580801561201d5750600054600160ff909116105b806120375750303b158015612037575060005460ff166001145b61209a5760405162461bcd60e51b815260206004820152602e60248201527f496e697469616c697a61626c653a20636f6e747261637420697320616c72656160448201526d191e481a5b9a5d1a585b1a5e995960921b606482015260840161062f565b6000805460ff1916600117905580156120bd576000805461ff0019166101001790555b6001600160a01b037f00000000000000000000000000000000000000000000000000000000000000001630036121055760405162461bcd60e51b815260040161062f9061419c565b7f00000000000000000000000000000000000000000000000000000000000000006001600160a01b0316612137612800565b6001600160a01b03161461215d5760405162461bcd60e51b815260040161062f906141e8565b61216561381a565b61216d613849565b61217682613870565b61217e6138b9565b801561114e576000805461ff0019169055604051600181527f7f26b83ff96e1f2b6a682f133852f6798a09c465da95921460cefb38474024989060200160405180910390a15050565b600260c954036121e95760405162461bcd60e51b815260040161062f90614165565b600260c9556001600160a01b037f00000000000000000000000000000000000000000000000000000000000000001630036122365760405162461bcd60e51b815260040161062f9061419c565b7f00000000000000000000000000000000000000000000000000000000000000006001600160a01b0316612268612800565b6001600160a01b03161461228e5760405162461bcd60e51b815260040161062f906141e8565b600060fe86866040516122a2929190614234565b908152604051908190036020019020546001600160a01b03169050806122c785611024565b612322576122d587876124d3565b156123225760405162461bcd60e51b815260206004820152601860248201527f544f4f5f4d414e595f544f4b454e5f4144445245535345530000000000000000604482015260640161062f565b61232c8787612763565b6123705760405162461bcd60e51b815260206004820152601560248201527446554e44494e475f434c4f5345445f424f554e545960581b604482015260640161062f565b6040516335bf83d160e21b81523360048201526001600160a01b0386811660248301526044820186905260648201859052600091829184169063d6fe0f44903490608401604080518083038185885af11580156123d1573d6000803e3d6000fd5b50505050506040513d601f19601f820116820180604052508101906123f69190614656565b915091507f5b079a43aec0177fbeb930213940b8d476a8c4e0b37343e2059b6d61400d976282858b8b876001600160a01b03166323bd4d7a6040518163ffffffff1660e01b8152600401600060405180830381865afa15801561245d573d6000803e3d6000fd5b505050506040513d6000823e601f3d908101601f1916820160405261248591908101906142b1565b604080516000808252602082019092528e91429133918f918c919060016040516124bb9d9c9b9a99989796959493929190614580565b60405180910390a15050600160c95550505050505050565b60008060fe84846040516124e8929190614234565b90815260408051602092819003830181205460fd54630c024c1b60e31b835292516001600160a01b0391821695508594919093169263601260d89260048082019392918290030181865afa158015612544573d6000803e3d6000fd5b505050506040513d601f19601f820116820180604052508101906125689190614261565b816001600160a01b031663c5b6e7056040518163ffffffff1660e01b8152600401602060405180830381865afa1580156125a6573d6000803e3d6000fd5b505050506040513d601f19601f820116820180604052508101906125ca9190614261565b101595945050505050565b6001600160a01b037f000000000000000000000000000000000000000000000000000000000000000016300361261d5760405162461bcd60e51b815260040161062f9061419c565b7f00000000000000000000000000000000000000000000000000000000000000006001600160a01b031661264f612800565b6001600160a01b0316146126755760405162461bcd60e51b815260040161062f906141e8565b61267d61281c565b6001600160a01b0381166126e45760405162461bcd60e51b815260206004820152602860248201527f4f7261636c697a653a206e6577206f7261636c6520697320746865207a65726f604482015267206164647265737360c01b606482015260840161062f565b610db5816138e8565b6126f561281c565b6001600160a01b03811661275a5760405162461bcd60e51b815260206004820152602660248201527f4f776e61626c653a206e6577206f776e657220697320746865207a65726f206160448201526564647265737360d01b606482015260840161062f565b610db5816129ee565b60008060fe8484604051612778929190614234565b908152604080516020928190038301812054631006976960e11b825291516001600160a01b03909216935083926000928392859263200d2ed2926004808401938290030181865afa1580156127d1573d6000803e3d6000fd5b505050506040513d601f19601f820116820180604052508101906127f59190614261565b149695505050505050565b600080516020614a30833981519152546001600160a01b031690565b6033546001600160a01b031633146112e15760405162461bcd60e51b815260206004820181905260248201527f4f776e61626c653a2063616c6c6572206973206e6f7420746865206f776e6572604482015260640161062f565b610db561281c565b7f4910fdfa16fed3260ed0e7147f7cc6da11a60208b5b9406d12a635614ffd91435460ff16156128b6576128b18361393a565b505050565b826001600160a01b03166352d1902d6040518163ffffffff1660e01b8152600401602060405180830381865afa925050508015612910575060408051601f3d908101601f1916820190925261290d91810190614261565b60015b6129735760405162461bcd60e51b815260206004820152602e60248201527f45524331393637557067726164653a206e657720696d706c656d656e7461746960448201526d6f6e206973206e6f74205555505360901b606482015260840161062f565b600080516020614a3083398151915281146129e25760405162461bcd60e51b815260206004820152602960248201527f45524331393637557067726164653a20756e737570706f727465642070726f786044820152681a58589b195555525160ba1b606482015260840161062f565b506128b18383836139d6565b603380546001600160a01b038381166001600160a01b0319831681179093556040519116919082907f8be0079c531659141344cd1fd0a4f28419497f9722a3daafe3b4186f6b6457e090600090a35050565b600061091a8284614690565b600080856001600160a01b031663a09dd1aa8686866040518463ffffffff1660e01b8152600401612a7f939291906146a8565b60408051808303816000875af1158015612a9d573d6000803e3d6000fd5b505050506040513d601f19601f82011682018060405250810190612ac191906146cd565b915091507f740c702bb9b71852192a0a943140360ddb500d906a1f945b48c4a6bf78047852866001600160a01b031663c17bd75e6040518163ffffffff1660e01b8152600401600060405180830381865afa158015612b24573d6000803e3d6000fd5b505050506040513d6000823e601f3d908101601f19168201604052612b4c91908101906142b1565b60fe886001600160a01b031663c17bd75e6040518163ffffffff1660e01b8152600401600060405180830381865afa158015612b8c573d6000803e3d6000fd5b505050506040513d6000823e601f3d908101601f19168201604052612bb491908101906142b1565b604051612bc191906146fb565b908152602001604051809103902060009054906101000a90046001600160a01b0316886001600160a01b03166323bd4d7a6040518163ffffffff1660e01b8152600401600060405180830381865afa158015612c21573d6000803e3d6000fd5b505050506040513d6000823e601f3d908101601f19168201604052612c4991908101906142b1565b884287878d6001600160a01b031663b3ca1f3b6040518163ffffffff1660e01b8152600401602060405180830381865afa158015612c8b573d6000803e3d6000fd5b505050506040513d601f19601f82011682018060405250810190612caf9190614261565b8c8c6001604051612cca9b9a99989796959493929190614717565b60405180910390a1505050505050565b6000612ce882840184614789565b94505050505060005b856001600160a01b031663ee8c24b86040518163ffffffff1660e01b8152600401600060405180830381865afa158015612d2f573d6000803e3d6000fd5b505050506040513d6000823e601f3d908101601f19168201604052612d57919081019061483e565b51811015613110576000866001600160a01b031663b3b41cea87858a6001600160a01b031663ee8c24b86040518163ffffffff1660e01b8152600401600060405180830381865afa158015612db0573d6000803e3d6000fd5b505050506040513d6000823e601f3d908101601f19168201604052612dd8919081019061483e565b8681518110612de957612de96148cc565b60200260200101516040518463ffffffff1660e01b8152600401612e2d939291906001600160a01b0393841681526020810192909252909116604082015260600190565b6020604051808303816000875af1158015612e4c573d6000803e3d6000fd5b505050506040513d601f19601f82011682018060405250810190612e709190614261565b90507f740c702bb9b71852192a0a943140360ddb500d906a1f945b48c4a6bf78047852876001600160a01b031663c17bd75e6040518163ffffffff1660e01b8152600401600060405180830381865afa158015612ed1573d6000803e3d6000fd5b505050506040513d6000823e601f3d908101601f19168201604052612ef991908101906142b1565b60fe896001600160a01b031663c17bd75e6040518163ffffffff1660e01b8152600401600060405180830381865afa158015612f39573d6000803e3d6000fd5b505050506040513d6000823e601f3d908101601f19168201604052612f6191908101906142b1565b604051612f6e91906146fb565b908152602001604051809103902060009054906101000a90046001600160a01b0316896001600160a01b03166323bd4d7a6040518163ffffffff1660e01b8152600401600060405180830381865afa158015612fce573d6000803e3d6000fd5b505050506040513d6000823e601f3d908101601f19168201604052612ff691908101906142b1565b89428c6001600160a01b031663ee8c24b86040518163ffffffff1660e01b8152600401600060405180830381865afa158015613036573d6000803e3d6000fd5b505050506040513d6000823e601f3d908101601f1916820160405261305e919081019061483e565b888151811061306f5761306f6148cc565b6020026020010151878e6001600160a01b031663b3ca1f3b6040518163ffffffff1660e01b8152600401602060405180830381865afa1580156130b6573d6000803e3d6000fd5b505050506040513d601f19601f820116820180604052508101906130da9190614261565b8d8d60016040516130f59b9a99989796959493929190614717565b60405180910390a15080613108816148e2565b915050612cf1565b5060405163fe0329c960e01b8152600481018290526001600160a01b0386169063fe0329c990602401600060405180830381600087803b15801561315357600080fd5b505af1158015613167573d6000803e3d6000fd5b505050505050505050565b60005b866001600160a01b031663ee8c24b86040518163ffffffff1660e01b8152600401600060405180830381865afa1580156131b3573d6000803e3d6000fd5b505050506040513d6000823e601f3d908101601f191682016040526131db919081019061483e565b51811015613526576000876001600160a01b031663cb2da3db888a6001600160a01b031663ee8c24b86040518163ffffffff1660e01b8152600401600060405180830381865afa158015613233573d6000803e3d6000fd5b505050506040513d6000823e601f3d908101601f1916820160405261325b919081019061483e565b858151811061326c5761326c6148cc565b60200260200101516040518363ffffffff1660e01b81526004016132a69291906001600160a01b0392831681529116602082015260400190565b6020604051808303816000875af11580156132c5573d6000803e3d6000fd5b505050506040513d601f19601f820116820180604052508101906132e99190614261565b90507f740c702bb9b71852192a0a943140360ddb500d906a1f945b48c4a6bf78047852886001600160a01b031663c17bd75e6040518163ffffffff1660e01b8152600401600060405180830381865afa15801561334a573d6000803e3d6000fd5b505050506040513d6000823e601f3d908101601f1916820160405261337291908101906142b1565b60fe8888604051613384929190614234565b908152602001604051809103902060009054906101000a90046001600160a01b03168a6001600160a01b03166323bd4d7a6040518163ffffffff1660e01b8152600401600060405180830381865afa1580156133e4573d6000803e3d6000fd5b505050506040513d6000823e601f3d908101601f1916820160405261340c91908101906142b1565b8a428d6001600160a01b031663ee8c24b86040518163ffffffff1660e01b8152600401600060405180830381865afa15801561344c573d6000803e3d6000fd5b505050506040513d6000823e601f3d908101601f19168201604052613474919081019061483e565b8881518110613485576134856148cc565b6020026020010151878f6001600160a01b031663b3ca1f3b6040518163ffffffff1660e01b8152600401602060405180830381865afa1580156134cc573d6000803e3d6000fd5b505050506040513d601f19601f820116820180604052508101906134f09190614261565b8c8c600160405161350b9b9a99989796959493929190614717565b60405180910390a1508061351e816148e2565b915050613175565b5060005b866001600160a01b03166377ede8a66040518163ffffffff1660e01b8152600401600060405180830381865afa158015613568573d6000803e3d6000fd5b505050506040513d6000823e601f3d908101601f1916820160405261359091908101906148fb565b5181101561367c57604051630de2fe4b60e11b8152600481018290526001600160a01b038816906371ec4ebf9088908390631bc5fc9690602401602060405180830381865afa1580156135e7573d6000803e3d6000fd5b505050506040513d601f19601f8201168201806040525081019061360b9190614261565b6040516001600160e01b031960e085901b1681526001600160a01b0390921660048301526024820152604401600060405180830381600087803b15801561365157600080fd5b505af1158015613665573d6000803e3d6000fd5b505050508080613674906148e2565b91505061352a565b50604051632338d37760e01b81526001600160a01b03871690632338d377906136ad908890869086906004016146a8565b600060405180830381600087803b1580156136c757600080fd5b505af11580156136db573d6000803e3d6000fd5b505050507fb9d76ba577270421a3b4826a02b81b7678f1d62214225408b99f94e42d78278c848460fe8787604051613714929190614234565b908152602001604051809103902060009054906101000a90046001600160a01b0316896001600160a01b03166323bd4d7a6040518163ffffffff1660e01b8152600401600060405180830381865afa158015613774573d6000803e3d6000fd5b505050506040513d6000823e601f3d908101601f1916820160405261379c91908101906142b1565b89428c6001600160a01b031663b3ca1f3b6040518163ffffffff1660e01b8152600401602060405180830381865afa1580156137dc573d6000803e3d6000fd5b505050506040513d601f19601f820116820180604052508101906138009190614261565b89896001604051612cca9a99989796959493929190614980565b600054610100900460ff166138415760405162461bcd60e51b815260040161062f906149e4565b6112e1613a01565b600054610100900460ff166112e15760405162461bcd60e51b815260040161062f906149e4565b600054610100900460ff166138975760405162461bcd60e51b815260040161062f906149e4565b60fb80546001600160a01b0319166001600160a01b0392909216919091179055565b600054610100900460ff166138e05760405162461bcd60e51b815260040161062f906149e4565b6112e1613a31565b60fb80546001600160a01b038381166001600160a01b0319831681179093556040519116919082907f9b0948b943e24ff3413cb400b2eeae4337138739aaf31759dc6e813e8076fbc390600090a35050565b6001600160a01b0381163b6139a75760405162461bcd60e51b815260206004820152602d60248201527f455243313936373a206e657720696d706c656d656e746174696f6e206973206e60448201526c1bdd08184818dbdb9d1c9858dd609a1b606482015260840161062f565b600080516020614a3083398151915280546001600160a01b0319166001600160a01b0392909216919091179055565b6139df83613a5f565b6000825111806139ec5750805b156128b1576139fb8383613a9f565b50505050565b600054610100900460ff16613a285760405162461bcd60e51b815260040161062f906149e4565b6112e1336129ee565b600054610100900460ff16613a585760405162461bcd60e51b815260040161062f906149e4565b600160c955565b613a688161393a565b6040516001600160a01b038216907fbc7cd75a20ee27fd9adebab32041f755214dbc6bffa90cc0225b39da2e5c2d3b90600090a250565b60606001600160a01b0383163b613b075760405162461bcd60e51b815260206004820152602660248201527f416464726573733a2064656c65676174652063616c6c20746f206e6f6e2d636f6044820152651b9d1c9858dd60d21b606482015260840161062f565b600080846001600160a01b031684604051613b2291906146fb565b600060405180830381855af49150503d8060008114613b5d576040519150601f19603f3d011682016040523d82523d6000602084013e613b62565b606091505b5091509150613b8a8282604051806060016040528060278152602001614a5060279139613b93565b95945050505050565b60608315613ba257508161091a565b825115613bb25782518084602001fd5b8160405162461bcd60e51b815260040161062f9190613cee565b60008083601f840112613bde57600080fd5b5081356001600160401b03811115613bf557600080fd5b602083019150836020828501011115613c0d57600080fd5b9250929050565b60008060008060608587031215613c2a57600080fd5b84356001600160401b03811115613c4057600080fd5b613c4c87828801613bcc565b90989097506020870135966040013595509350505050565b6001600160a01b0381168114610db557600080fd5b600060208284031215613c8b57600080fd5b813561091a81613c64565b60005b83811015613cb1578181015183820152602001613c99565b838111156139fb5750506000910152565b60008151808452613cda816020860160208601613c96565b601f01601f19169290920160200192915050565b60208152600061091a6020830184613cc2565b60008060208385031215613d1457600080fd5b82356001600160401b03811115613d2a57600080fd5b613d3685828601613bcc565b90969095509350505050565b60008060008060008060608789031215613d5b57600080fd5b86356001600160401b0380821115613d7257600080fd5b613d7e8a838b01613bcc565b90985096506020890135915080821115613d9757600080fd5b613da38a838b01613bcc565b90965094506040890135915080821115613dbc57600080fd5b50613dc989828a01613bcc565b979a9699509497509295939492505050565b634e487b7160e01b600052604160045260246000fd5b604080519081016001600160401b0381118282101715613e1357613e13613ddb565b60405290565b604051601f8201601f191681016001600160401b0381118282101715613e4157613e41613ddb565b604052919050565b60006001600160401b03821115613e6257613e62613ddb565b50601f01601f191660200190565b600082601f830112613e8157600080fd5b8135613e94613e8f82613e49565b613e19565b818152846020838601011115613ea957600080fd5b816020850160208301376000918101602001919091529392505050565b600080600080600060608688031215613ede57600080fd5b85356001600160401b0380821115613ef557600080fd5b613f0189838a01613bcc565b90975095506020880135915080821115613f1a57600080fd5b613f2689838a01613bcc565b90955093506040880135915080821115613f3f57600080fd5b908701906040828a031215613f5357600080fd5b613f5b613df1565b823563ffffffff81168114613f6f57600080fd5b8152602083013582811115613f8357600080fd5b613f8f8b828601613e70565b6020830152508093505050509295509295909350565b600060208284031215613fb757600080fd5b81356001600160401b03811115613fcd57600080fd5b613fd984828501613e70565b949350505050565b60008060408385031215613ff457600080fd5b8235613fff81613c64565b915060208301356001600160401b0381111561401a57600080fd5b61402685828601613e70565b9150509250929050565b60008060006040848603121561404557600080fd5b83356001600160401b0381111561405b57600080fd5b61406786828701613bcc565b909790965060209590950135949350505050565b60008060008060006080868803121561409357600080fd5b85356001600160401b038111156140a957600080fd5b6140b588828901613bcc565b90965094505060208601356140c981613c64565b94979396509394604081013594506060013592915050565b6000806000806000606086880312156140f957600080fd5b85356001600160401b038082111561411057600080fd5b61411c89838a01613bcc565b90975095506020880135915061413182613c64565b9093506040870135908082111561414757600080fd5b5061415488828901613bcc565b969995985093965092949392505050565b6020808252601f908201527f5265656e7472616e637947756172643a207265656e7472616e742063616c6c00604082015260600190565b6020808252602c908201527f46756e6374696f6e206d7573742062652063616c6c6564207468726f7567682060408201526b19195b1959d85d1958d85b1b60a21b606082015260800190565b6020808252602c908201527f46756e6374696f6e206d7573742062652063616c6c6564207468726f7567682060408201526b6163746976652070726f787960a01b606082015260800190565b8183823760009101908152919050565b60006020828403121561425657600080fd5b815161091a81613c64565b60006020828403121561427357600080fd5b5051919050565b85815284602082015283604082015260a06060820152600061429f60a0830185613cc2565b90508260808301529695505050505050565b6000602082840312156142c357600080fd5b81516001600160401b038111156142d957600080fd5b8201601f810184136142ea57600080fd5b80516142f8613e8f82613e49565b81815285602083850101111561430d57600080fd5b613b8a826020830160208601613c96565b81835281816020850137506000828201602090810191909152601f909101601f19169091010190565b600061010080835261435c8184018c8e61431e565b6001600160a01b038b811660208601528482036040860152909150614381828b613cc2565b91508089166060850152508660808401528560a084015282810360c08401526143aa8186613cc2565b9150508260e08301529a9950505050505050505050565b6040815260006143d560408301868861431e565b8281036020840152611ec081858761431e565b6000602082840312156143fa57600080fd5b8151801515811461091a57600080fd5b60808152600061441e60808301888a61431e565b6001600160a01b0387166020840152828103604084015261444081868861431e565b9050828103606084015263ffffffff845116815260208401516040602083015261446d6040830182613cc2565b9a9950505050505050505050565b60006101008083526144908184018d8f61431e565b905082810360208401526144a5818b8d61431e565b6001600160a01b038a81166040860152891660608501526080840188905260a0840187905283810360c085015290506144de8186613cc2565b9150508260e08301529b9a5050505050505050505050565b60006101408d83528060208401526145118184018d8f61431e565b6001600160a01b038c811660408601528482036060860152909150614536828c613cc2565b915089608085015280891660a0850152508660c08401528560e08401528281036101008401526145668186613cc2565b915050826101208301529c9b505050505050505050505050565b8d81526001600160a01b038d166020820152610180604082018190526000906145ac9083018d8f61431e565b82810360608401526145be818d613cc2565b6001600160a01b038c8116608086015260a085018c90528a1660c085015260e084018990526101008401889052610120840187905283810361014085015290506146088186613cc2565b915050826101608301529e9d5050505050505050505050505050565b85815284602082015260806040820152600061464460808301858761431e565b90508260608301529695505050505050565b6000806040838503121561466957600080fd5b505080516020909101519092909150565b634e487b7160e01b600052601160045260246000fd5b600082198211156146a3576146a361467a565b500190565b6001600160a01b0384168152604060208201819052600090613b8a908301848661431e565b600080604083850312156146e057600080fd5b82516146eb81613c64565b6020939093015192949293505050565b6000825161470d818460208701613c96565b9190910192915050565b600061014080835261472b8184018f613cc2565b6001600160a01b038e811660208601528482036040860152909150614750828e613cc2565b9150808c1660608501528a6080850152808a1660a0850152508760c08401528660e084015282810361010084015261456681868861431e565b600080600080600060a086880312156147a157600080fd5b85356147ac81613c64565b945060208601356001600160401b03808211156147c857600080fd5b6147d489838a01613e70565b9550604088013591506147e682613c64565b909350606087013590808211156147fc57600080fd5b5061480988828901613e70565b95989497509295608001359392505050565b60006001600160401b0382111561483457614834613ddb565b5060051b60200190565b6000602080838503121561485157600080fd5b82516001600160401b0381111561486757600080fd5b8301601f8101851361487857600080fd5b8051614886613e8f8261481b565b81815260059190911b820183019083810190878311156148a557600080fd5b928401925b82841015611ec05783516148bd81613c64565b825292840192908401906148aa565b634e487b7160e01b600052603260045260246000fd5b6000600182016148f4576148f461467a565b5060010190565b6000602080838503121561490e57600080fd5b82516001600160401b0381111561492457600080fd5b8301601f8101851361493557600080fd5b8051614943613e8f8261481b565b81815260059190911b8201830190838101908783111561496257600080fd5b928401925b82841015611ec057835182529284019290840190614967565b60006101008083526149958184018d8f61431e565b6001600160a01b038c8116602086015284820360408601529091506149ba828c613cc2565b9150808a166060850152508760808401528660a084015282810360c08401526144de81868861431e565b6020808252602b908201527f496e697469616c697a61626c653a20636f6e7472616374206973206e6f74206960408201526a6e697469616c697a696e6760a81b60608201526080019056fe360894a13ba1a3210667c828492db98dca3e2076cc3735a920a3ca505d382bbc416464726573733a206c6f772d6c6576656c2064656c65676174652063616c6c206661696c6564a26469706673582212201b5ecee2542c67058b22d2784e0fad9490b14749f4aa64fd547ab4924265411264736f6c634300080d0033",
	"linkReferences": {},
	"deployedLinkReferences": {}
}