{
  "_format": "hh-sol-artifact-1",
  "contractName": "AtomicBountyV1",
  "sourceName": "contracts/Bounty/Implementations/AtomicBountyV1.sol",
  "abi": [
    {
      "inputs": [],
      "stateMutability": "nonpayable",
      "type": "constructor"
    },
    {
      "anonymous": false,
      "inputs": [
        {
          "indexed": false,
          "internalType": "uint8",
          "name": "version",
          "type": "uint8"
        }
      ],
      "name": "Initialized",
      "type": "event"
    },
    {
      "inputs": [],
      "name": "VERSION_1",
      "outputs": [
        {
          "internalType": "uint256",
          "name": "",
          "type": "uint256"
        }
      ],
      "stateMutability": "view",
      "type": "function"
    },
    {
      "inputs": [],
      "name": "bountyClosedTime",
      "outputs": [
        {
          "internalType": "uint256",
          "name": "",
          "type": "uint256"
        }
      ],
      "stateMutability": "view",
      "type": "function"
    },
    {
      "inputs": [],
      "name": "bountyCreatedTime",
      "outputs": [
        {
          "internalType": "uint256",
          "name": "",
          "type": "uint256"
        }
      ],
      "stateMutability": "view",
      "type": "function"
    },
    {
      "inputs": [],
      "name": "bountyId",
      "outputs": [
        {
          "internalType": "string",
          "name": "",
          "type": "string"
        }
      ],
      "stateMutability": "view",
      "type": "function"
    },
    {
      "inputs": [],
      "name": "bountyType",
      "outputs": [
        {
          "internalType": "uint256",
          "name": "",
          "type": "uint256"
        }
      ],
      "stateMutability": "view",
      "type": "function"
    },
    {
      "inputs": [
        {
          "internalType": "address",
          "name": "_payoutAddress",
          "type": "address"
        },
        {
          "internalType": "address",
          "name": "_tokenAddress",
          "type": "address"
        }
      ],
      "name": "claimBalance",
      "outputs": [
        {
          "internalType": "uint256",
          "name": "",
          "type": "uint256"
        }
      ],
      "stateMutability": "nonpayable",
      "type": "function"
    },
    {
      "inputs": [],
      "name": "claimManager",
      "outputs": [
        {
          "internalType": "address",
          "name": "",
          "type": "address"
        }
      ],
      "stateMutability": "view",
      "type": "function"
    },
    {
      "inputs": [
        {
          "internalType": "address",
          "name": "_payoutAddress",
          "type": "address"
        },
        {
          "internalType": "bytes",
          "name": "_closerData",
          "type": "bytes"
        }
      ],
      "name": "close",
      "outputs": [],
      "stateMutability": "nonpayable",
      "type": "function"
    },
    {
      "inputs": [],
      "name": "closer",
      "outputs": [
        {
          "internalType": "address",
          "name": "",
          "type": "address"
        }
      ],
      "stateMutability": "view",
      "type": "function"
    },
    {
      "inputs": [],
      "name": "closerData",
      "outputs": [
        {
          "internalType": "bytes",
          "name": "",
          "type": "bytes"
        }
      ],
      "stateMutability": "view",
      "type": "function"
    },
    {
      "inputs": [],
      "name": "depositManager",
      "outputs": [
        {
          "internalType": "address",
          "name": "",
          "type": "address"
        }
      ],
      "stateMutability": "view",
      "type": "function"
    },
    {
      "inputs": [
        {
          "internalType": "bytes32",
          "name": "",
          "type": "bytes32"
        }
      ],
      "name": "depositTime",
      "outputs": [
        {
          "internalType": "uint256",
          "name": "",
          "type": "uint256"
        }
      ],
      "stateMutability": "view",
      "type": "function"
    },
    {
      "inputs": [
        {
          "internalType": "uint256",
          "name": "",
          "type": "uint256"
        }
      ],
      "name": "deposits",
      "outputs": [
        {
          "internalType": "bytes32",
          "name": "",
          "type": "bytes32"
        }
      ],
      "stateMutability": "view",
      "type": "function"
    },
    {
      "inputs": [
        {
          "internalType": "bytes32",
          "name": "",
          "type": "bytes32"
        }
      ],
      "name": "expiration",
      "outputs": [
        {
          "internalType": "uint256",
          "name": "",
          "type": "uint256"
        }
      ],
      "stateMutability": "view",
      "type": "function"
    },
    {
      "inputs": [
        {
          "internalType": "bytes32",
          "name": "_depositId",
          "type": "bytes32"
        },
        {
          "internalType": "uint256",
          "name": "_seconds",
          "type": "uint256"
        },
        {
          "internalType": "address",
          "name": "_funder",
          "type": "address"
        }
      ],
      "name": "extendDeposit",
      "outputs": [
        {
          "internalType": "uint256",
          "name": "",
          "type": "uint256"
        }
      ],
      "stateMutability": "nonpayable",
      "type": "function"
    },
    {
      "inputs": [
        {
          "internalType": "bytes32",
          "name": "",
          "type": "bytes32"
        }
      ],
      "name": "funder",
      "outputs": [
        {
          "internalType": "address",
          "name": "",
          "type": "address"
        }
      ],
      "stateMutability": "view",
      "type": "function"
    },
    {
      "inputs": [],
      "name": "fundingGoal",
      "outputs": [
        {
          "internalType": "uint256",
          "name": "",
          "type": "uint256"
        }
      ],
      "stateMutability": "view",
      "type": "function"
    },
    {
      "inputs": [],
      "name": "fundingToken",
      "outputs": [
        {
          "internalType": "address",
          "name": "",
          "type": "address"
        }
      ],
      "stateMutability": "view",
      "type": "function"
    },
    {
      "inputs": [],
      "name": "getDeposits",
      "outputs": [
        {
          "internalType": "bytes32[]",
          "name": "",
          "type": "bytes32[]"
        }
      ],
      "stateMutability": "view",
      "type": "function"
    },
    {
      "inputs": [
        {
          "internalType": "address",
          "name": "_tokenAddress",
          "type": "address"
        }
      ],
      "name": "getERC20Balance",
      "outputs": [
        {
          "internalType": "uint256",
          "name": "balance",
          "type": "uint256"
        }
      ],
      "stateMutability": "view",
      "type": "function"
    },
    {
      "inputs": [],
      "name": "getInvoiceComplete",
      "outputs": [
        {
          "internalType": "bytes",
          "name": "",
          "type": "bytes"
        }
      ],
      "stateMutability": "view",
      "type": "function"
    },
    {
      "inputs": [],
      "name": "getSupportingDocumentsComplete",
      "outputs": [
        {
          "internalType": "bytes",
          "name": "",
          "type": "bytes"
        }
      ],
      "stateMutability": "view",
      "type": "function"
    },
    {
      "inputs": [],
      "name": "getTokenAddresses",
      "outputs": [
        {
          "internalType": "address[]",
          "name": "",
          "type": "address[]"
        }
      ],
      "stateMutability": "view",
      "type": "function"
    },
    {
      "inputs": [],
      "name": "getTokenAddressesCount",
      "outputs": [
        {
          "internalType": "uint256",
          "name": "",
          "type": "uint256"
        }
      ],
      "stateMutability": "view",
      "type": "function"
    },
    {
      "inputs": [
        {
          "internalType": "address",
          "name": "_tokenAddress",
          "type": "address"
        }
      ],
      "name": "getTokenBalance",
      "outputs": [
        {
          "internalType": "uint256",
          "name": "",
          "type": "uint256"
        }
      ],
      "stateMutability": "view",
      "type": "function"
    },
    {
      "inputs": [],
      "name": "hasFundingGoal",
      "outputs": [
        {
          "internalType": "bool",
          "name": "",
          "type": "bool"
        }
      ],
      "stateMutability": "view",
      "type": "function"
    },
    {
      "inputs": [
        {
          "internalType": "string",
          "name": "_bountyId",
          "type": "string"
        },
        {
          "internalType": "address",
          "name": "_issuer",
          "type": "address"
        },
        {
          "internalType": "string",
          "name": "_organization",
          "type": "string"
        },
        {
          "internalType": "address",
          "name": "_openQ",
          "type": "address"
        },
        {
          "internalType": "address",
          "name": "_claimManager",
          "type": "address"
        },
        {
          "internalType": "address",
          "name": "_depositManager",
          "type": "address"
        },
        {
          "components": [
            {
              "internalType": "uint32",
              "name": "operationType",
              "type": "uint32"
            },
            {
              "internalType": "bytes",
              "name": "data",
              "type": "bytes"
            }
          ],
          "internalType": "struct OpenQDefinitions.InitOperation",
          "name": "_operation",
          "type": "tuple"
        }
      ],
      "name": "initialize",
      "outputs": [],
      "stateMutability": "nonpayable",
      "type": "function"
    },
    {
      "inputs": [],
      "name": "invoiceComplete",
      "outputs": [
        {
          "internalType": "bool",
          "name": "",
          "type": "bool"
        }
      ],
      "stateMutability": "view",
      "type": "function"
    },
    {
      "inputs": [],
      "name": "invoiceRequired",
      "outputs": [
        {
          "internalType": "bool",
          "name": "",
          "type": "bool"
        }
      ],
      "stateMutability": "view",
      "type": "function"
    },
    {
      "inputs": [],
      "name": "issuer",
      "outputs": [
        {
          "internalType": "address",
          "name": "",
          "type": "address"
        }
      ],
      "stateMutability": "view",
      "type": "function"
    },
    {
      "inputs": [],
      "name": "issuerExternalUserId",
      "outputs": [
        {
          "internalType": "string",
          "name": "",
          "type": "string"
        }
      ],
      "stateMutability": "view",
      "type": "function"
    },
    {
      "inputs": [],
      "name": "kycRequired",
      "outputs": [
        {
          "internalType": "bool",
          "name": "",
          "type": "bool"
        }
      ],
      "stateMutability": "view",
      "type": "function"
    },
    {
      "inputs": [],
      "name": "openQ",
      "outputs": [
        {
          "internalType": "address",
          "name": "",
          "type": "address"
        }
      ],
      "stateMutability": "view",
      "type": "function"
    },
    {
      "inputs": [],
      "name": "organization",
      "outputs": [
        {
          "internalType": "string",
          "name": "",
          "type": "string"
        }
      ],
      "stateMutability": "view",
      "type": "function"
    },
    {
      "inputs": [
        {
          "internalType": "bytes32",
          "name": "",
          "type": "bytes32"
        }
      ],
      "name": "payoutAddress",
      "outputs": [
        {
          "internalType": "address",
          "name": "",
          "type": "address"
        }
      ],
      "stateMutability": "view",
      "type": "function"
    },
    {
      "inputs": [
        {
          "internalType": "address",
          "name": "_funder",
          "type": "address"
        },
        {
          "internalType": "address",
          "name": "_tokenAddress",
          "type": "address"
        },
        {
          "internalType": "uint256",
          "name": "_volume",
          "type": "uint256"
        },
        {
          "internalType": "uint256",
          "name": "_expiration",
          "type": "uint256"
        }
      ],
      "name": "receiveFunds",
      "outputs": [
        {
          "internalType": "bytes32",
          "name": "",
          "type": "bytes32"
        },
        {
          "internalType": "uint256",
          "name": "",
          "type": "uint256"
        }
      ],
      "stateMutability": "payable",
      "type": "function"
    },
    {
      "inputs": [
        {
          "internalType": "bytes32",
          "name": "_depositId",
          "type": "bytes32"
        },
        {
          "internalType": "address",
          "name": "_funder",
          "type": "address"
        },
        {
          "internalType": "uint256",
          "name": "_volume",
          "type": "uint256"
        }
      ],
      "name": "refundDeposit",
      "outputs": [],
      "stateMutability": "nonpayable",
      "type": "function"
    },
    {
      "inputs": [
        {
          "internalType": "bytes32",
          "name": "",
          "type": "bytes32"
        }
      ],
      "name": "refunded",
      "outputs": [
        {
          "internalType": "bool",
          "name": "",
          "type": "bool"
        }
      ],
      "stateMutability": "view",
      "type": "function"
    },
    {
      "inputs": [
        {
          "internalType": "address",
          "name": "_fundingToken",
          "type": "address"
        },
        {
          "internalType": "uint256",
          "name": "_fundingGoal",
          "type": "uint256"
        }
      ],
      "name": "setFundingGoal",
      "outputs": [],
      "stateMutability": "nonpayable",
      "type": "function"
    },
    {
      "inputs": [
        {
          "internalType": "bytes",
          "name": "_data",
          "type": "bytes"
        }
      ],
      "name": "setInvoiceComplete",
      "outputs": [],
      "stateMutability": "nonpayable",
      "type": "function"
    },
    {
      "inputs": [
        {
          "internalType": "bool",
          "name": "_invoiceRequired",
          "type": "bool"
        }
      ],
      "name": "setInvoiceRequired",
      "outputs": [],
      "stateMutability": "nonpayable",
      "type": "function"
    },
    {
      "inputs": [
        {
          "internalType": "bool",
          "name": "_kycRequired",
          "type": "bool"
        }
      ],
      "name": "setKycRequired",
      "outputs": [],
      "stateMutability": "nonpayable",
      "type": "function"
    },
    {
      "inputs": [
        {
          "internalType": "bytes",
          "name": "_data",
          "type": "bytes"
        }
      ],
      "name": "setSupportingDocumentsComplete",
      "outputs": [],
      "stateMutability": "nonpayable",
      "type": "function"
    },
    {
      "inputs": [
        {
          "internalType": "bool",
          "name": "_supportingDocumentsRequired",
          "type": "bool"
        }
      ],
      "name": "setSupportingDocumentsRequired",
      "outputs": [],
      "stateMutability": "nonpayable",
      "type": "function"
    },
    {
      "inputs": [],
      "name": "status",
      "outputs": [
        {
          "internalType": "uint256",
          "name": "",
          "type": "uint256"
        }
      ],
      "stateMutability": "view",
      "type": "function"
    },
    {
      "inputs": [],
      "name": "supportingDocumentsComplete",
      "outputs": [
        {
          "internalType": "bool",
          "name": "",
          "type": "bool"
        }
      ],
      "stateMutability": "view",
      "type": "function"
    },
    {
      "inputs": [],
      "name": "supportingDocumentsRequired",
      "outputs": [
        {
          "internalType": "bool",
          "name": "",
          "type": "bool"
        }
      ],
      "stateMutability": "view",
      "type": "function"
    },
    {
      "inputs": [
        {
          "internalType": "bytes32",
          "name": "",
          "type": "bytes32"
        }
      ],
      "name": "tokenAddress",
      "outputs": [
        {
          "internalType": "address",
          "name": "",
          "type": "address"
        }
      ],
      "stateMutability": "view",
      "type": "function"
    },
    {
      "inputs": [
        {
          "internalType": "bytes32",
          "name": "",
          "type": "bytes32"
        }
      ],
      "name": "tokenId",
      "outputs": [
        {
          "internalType": "uint256",
          "name": "",
          "type": "uint256"
        }
      ],
      "stateMutability": "view",
      "type": "function"
    },
    {
      "inputs": [
        {
          "internalType": "bytes32",
          "name": "",
          "type": "bytes32"
        }
      ],
      "name": "volume",
      "outputs": [
        {
          "internalType": "uint256",
          "name": "",
          "type": "uint256"
        }
      ],
      "stateMutability": "view",
      "type": "function"
    },
    {
      "stateMutability": "payable",
      "type": "receive"
    }
  ],
  "bytecode": "0x60806040523480156200001157600080fd5b506200001c62000022565b620000e4565b600054610100900460ff16156200008f5760405162461bcd60e51b815260206004820152602760248201527f496e697469616c697a61626c653a20636f6e747261637420697320696e697469604482015266616c697a696e6760c81b606482015260840160405180910390fd5b60005460ff9081161015620000e2576000805460ff191660ff9081179091556040519081527f7f26b83ff96e1f2b6a682f133852f6798a09c465da95921460cefb38474024989060200160405180910390a15b565b612c1d80620000f46000396000f3fe6080604052600436106102ad5760003560e01c8063995280b011610165578063ceff3107116100cc578063ee1034fb11610085578063ee1034fb146108f5578063ee1e43e014610915578063ee8c24b814610930578063f05e0f7e14610952578063f232172514610983578063fbeadd2b146109b1578063fd9ef47c146109c657600080fd5b8063ceff310714610838578063d54a117b14610858578063d6fe0f4414610878578063dda64081146108a0578063e83963eb146108b5578063eb58c0fd146108d557600080fd5b8063b99bb9901161011e578063b99bb9901461077f578063c17bd75e146107b6578063c5b6e705146107cb578063cb2da3db146107e0578063cb4436b714610800578063cbcca3dc1461081757600080fd5b8063995280b0146106d4578063a9a36dcd146106ea578063b02c43d014610708578063b3ca1f3b14610728578063b588d2251461073f578063b96990911461075f57600080fd5b806355f1c18a116102145780637044f282116101cd5780637044f282146105d857806378065f27146105f95780637a3a0e841461061f5780637d6694b5146106365780637dc81fa214610651578063968b098f1461066f57806397bb3ce91461069d57600080fd5b806355f1c18a146104fe57806356406fa51461051e57806359ba83441461054c5780636b149d87146105835780636c7ac9d8146105a55780637026b472146105c357600080fd5b8063200d2ed211610266578063200d2ed21461045d5780632338d3771461047457806323bd4d7a1461049457806326c20e5f146104a95780633aecd0e3146104be5780633f40f636146104de57600080fd5b80630dd8188714610350578063150909f71461037b578063152e56a21461039d5780631595eea4146103c857806315add63b146104045780631d1438481461042457600080fd5b3661034b5760405162461bcd60e51b815260206004820152605d60248201527f43616e6e6f742073656e64204574686572206469726563746c7920746f20626f60448201527f75746e7920636f6e74726163742e20506c65617365207573652074686520426f60648201527f756e747956312e7265636569766546756e64732829206d6574686f642e000000608482015260a4015b60405180910390fd5b600080fd5b34801561035c57600080fd5b506103656109e6565b60405161037291906120a1565b60405180910390f35b34801561038757600080fd5b5061039b6103963660046120c5565b610a75565b005b3480156103a957600080fd5b50610148546103b89060ff1681565b6040519015158152602001610372565b3480156103d457600080fd5b506103f66103e33660046120e2565b6101076020526000908152604090205481565b604051908152602001610372565b34801561041057600080fd5b5061039b61041f3660046120c5565b610ac3565b34801561043057600080fd5b5061010154610445906001600160a01b031681565b6040516001600160a01b039091168152602001610372565b34801561046957600080fd5b506103f66101045481565b34801561048057600080fd5b5061039b61048f366004612163565b610b0a565b3480156104a057600080fd5b50610365610c0f565b3480156104b557600080fd5b506103f6600181565b3480156104ca57600080fd5b506103f66104d93660046121b7565b610c1d565b3480156104ea57600080fd5b5061039b6104f9366004612335565b610c48565b34801561050a57600080fd5b5061039b610519366004612408565b610f1b565b34801561052a57600080fd5b506103f66105393660046120e2565b61010c6020526000908152604090205481565b34801561055857600080fd5b506104456105673660046120e2565b610105602052600090815260409020546001600160a01b031681565b34801561058f57600080fd5b50610598610f73565b6040516103729190612449565b3480156105b157600080fd5b5060cb546001600160a01b0316610445565b3480156105cf57600080fd5b50610365610fcc565b3480156105e457600080fd5b5061010354610445906001600160a01b031681565b34801561060557600080fd5b50610112546104459061010090046001600160a01b031681565b34801561062b57600080fd5b506103f66101135481565b34801561064257600080fd5b50610114546103b89060ff1681565b34801561065d57600080fd5b506065546001600160a01b0316610445565b34801561067b57600080fd5b506103f661068a3660046120e2565b6101086020526000908152604090205481565b3480156106a957600080fd5b506104456106b83660046120e2565b610106602052600090815260409020546001600160a01b031681565b3480156106e057600080fd5b506103f660ff5481565b3480156106f657600080fd5b506098546001600160a01b0316610445565b34801561071457600080fd5b506103f66107233660046120e2565b610ffd565b34801561073457600080fd5b506103f66101115481565b34801561074b57600080fd5b506103f661075a3660046121b7565b61101f565b34801561076b57600080fd5b50610114546103b890610100900460ff1681565b34801561078b57600080fd5b5061044561079a3660046120e2565b61010a602052600090815260409020546001600160a01b031681565b3480156107c257600080fd5b50610365611093565b3480156107d757600080fd5b506103f66110a0565b3480156107ec57600080fd5b506103f66107fb36600461248d565b6110b3565b34801561080c57600080fd5b506103f66101005481565b34801561082357600080fd5b50610114546103b89062010000900460ff1681565b34801561084457600080fd5b5061039b6108533660046124c6565b61112a565b34801561086457600080fd5b50610148546103b890610100900460ff1681565b61088b6108863660046124f2565b611193565b60408051928352602083019190915201610372565b3480156108ac57600080fd5b5061036561143c565b3480156108c157600080fd5b506103f66108d0366004612538565b611459565b3480156108e157600080fd5b5061039b6108f0366004612571565b611676565b34801561090157600080fd5b5061039b610910366004612408565b6118a6565b34801561092157600080fd5b50610112546103b89060ff1681565b34801561093c57600080fd5b50610945611905565b60405161037291906125a9565b34801561095e57600080fd5b506103b861096d3660046120e2565b6101096020526000908152604090205460ff1681565b34801561098f57600080fd5b506103f661099e3660046120e2565b61010b6020526000908152604090205481565b3480156109bd57600080fd5b50610365611917565b3480156109d257600080fd5b5061039b6109e13660046120c5565b611925565b61011080546109f4906125ea565b80601f0160208091040260200160405190810160405280929190818152602001828054610a20906125ea565b8015610a6d5780601f10610a4257610100808354040283529160200191610a6d565b820191906000526020600020905b815481529060010190602001808311610a5057829003601f168201915b505050505081565b6065546001600160a01b0316336001600160a01b031614610aa85760405162461bcd60e51b815260040161034290612624565b61011480549115156101000261ff0019909216919091179055565b6065546001600160a01b0316336001600160a01b031614610af65760405162461bcd60e51b815260040161034290612624565b610114805460ff1916911515919091179055565b6098546001600160a01b03163314610b345760405162461bcd60e51b815260040161034290612659565b6101045460408051808201909152601781527610d3d395149050d517d053149150511657d0d313d4d151604a1b60208201529015610b855760405162461bcd60e51b815260040161034291906120a1565b5060408051808201909152600f81526e4e4f5f5a45524f5f4144445245535360881b60208201526001600160a01b038416610bd35760405162461bcd60e51b815260040161034291906120a1565b5060016101045561010380546001600160a01b0319166001600160a01b0385161790554261010055610110610c09828483612724565b50505050565b61010280546109f4906125ea565b60006001600160a01b038216610c34575047919050565b610c3d8261101f565b92915050565b919050565b600054610100900460ff1615808015610c685750600054600160ff909116105b80610c825750303b158015610c82575060005460ff166001145b610ce55760405162461bcd60e51b815260206004820152602e60248201527f496e697469616c697a61626c653a20636f6e747261637420697320616c72656160448201526d191e481a5b9a5d1a585b1a5e995960921b6064820152608401610342565b6000805460ff191660011790558015610d08576000805461ff0019166101001790555b87516040805180820190915260128152711393d7d15354151657d093d553951657d25160721b602082015290610d515760405162461bcd60e51b815260040161034291906120a1565b5085516040805180820190915260158152742727afa2a6a82a2cafa7a923a0a724ad20aa24a7a760591b602082015290610d9e5760405162461bcd60e51b815260040161034291906120a1565b50610da7611975565b606580546001600160a01b0319166001600160a01b038716179055610dcb846119a6565b610dd4836119ef565b60fe610de089826127de565b5061010180546001600160a01b0319166001600160a01b038916179055610102610e0a87826127de565b504260ff8190555060008060008060008060008860200151806020019051810190610e3591906128f2565b505060006101115561011280546001600160a81b031916881515610100600160a81b031916176101006001600160a01b038916810291909117909155610113869055610114805461ffff191686151561ff001916178515159092029190911762ff000019166201000084151502179055959c50939a509198509650945092509050610115610ec382826127de565b50505050505050508015610f11576000805461ff0019169055604051600181527f7f26b83ff96e1f2b6a682f133852f6798a09c465da95921460cefb38474024989060200160405180910390a15b5050505050505050565b6065546001600160a01b0316336001600160a01b031614610f4e5760405162461bcd60e51b815260040161034290612624565b6000610f5c828401846120c5565b610148805460ff1916911515919091179055505050565b606061010d805480602002602001604051908101604052809291908181526020018280548015610fc257602002820191906000526020600020905b815481526020019060010190808311610fae575b5050505050905090565b610148546040805161010090920460ff1615156020830152606091015b604051602081830303815290604052905090565b61010d818154811061100e57600080fd5b600091825260209091200154905081565b6040516370a0823160e01b815230600482015260009082906001600160a01b038216906370a0823190602401602060405180830381865afa158015611068573d6000803e3d6000fd5b505050506040513d601f19601f8201168201806040525081019061108c91906129d7565b9392505050565b60fe80546109f4906125ea565b60006110ad61010e611a38565b51905090565b6098546000906001600160a01b031633146110e05760405162461bcd60e51b815260040161034290612659565b6002600154036111025760405162461bcd60e51b8152600401610342906129f0565b6002600155600061111283610c1d565b905061111f838286611a45565b600180559392505050565b6065546001600160a01b0316336001600160a01b03161461115d5760405162461bcd60e51b815260040161034290612624565b61011355610112805460ff196001600160a01b0390931661010002929092166001600160a81b0319909216919091176001179055565b60cb5460009081906001600160a01b031633146111c25760405162461bcd60e51b815260040161034290612a27565b6002600154036111e45760405162461bcd60e51b8152600401610342906129f0565b60026001556040805180820190915260208082527f45585049524154494f4e5f4e4f545f475245415445525f5448414e5f5a45524f908201528361123b5760405162461bcd60e51b815260040161034291906120a1565b506101045460408051808201909152601281527110d3d395149050d517d254d7d0d313d4d15160721b602082015290156112885760405162461bcd60e51b815260040161034291906120a1565b506000611293611a6d565b905060006001600160a01b0387166112f35760408051808201909152601081526f16915493d7d593d315535157d4d1539560821b6020820152346112ea5760405162461bcd60e51b815260040161034291906120a1565b5034905061133f565b341561133157604080518082018252600a815269115512115497d4d1539560b21b6020820152905162461bcd60e51b815261034291906004016120a1565b61133c878988611aa2565b90505b60408051808201909152601081526f16915493d7d593d315535157d4d1539560821b6020820152816113845760405162461bcd60e51b815260040161034291906120a1565b5060008281526101056020908152604080832080546001600160a01b03808e166001600160a01b03199283161790925561010684528285208054928d16929091169190911790556101078252808320849055610108825280832042905561010c909152812086905561010d805460018101825591527fd37d5aab611bd3c946977441ea77c3eceb623a7966962fbc75015048e8640bfb0182905561142a61010e88611b41565b50600180559097909650945050505050565b610148546040805160ff9092161515602083015260609101610fe9565b60cb546000906001600160a01b031633146114865760405162461bcd60e51b815260040161034290612a27565b6002600154036114a85760405162461bcd60e51b8152600401610342906129f0565b60026001556101045460408051808201909152601281527110d3d395149050d517d254d7d0d313d4d15160721b602082015290156114f95760405162461bcd60e51b815260040161034291906120a1565b5060008481526101096020908152604091829020548251808401909352601883527711115413d4d25517d053149150511657d49151955391115160421b9183019190915260ff161561155e5760405162461bcd60e51b815260040161034291906120a1565b5060008481526101056020908152604091829020548251808401909352601183527021a0a62622a92fa727aa2fa32aa72222a960791b918301919091526001600160a01b038481169116146115c65760405162461bcd60e51b815260040161034291906120a1565b50600084815261010c6020908152604080832054610108909252909120546115ee9190612aa9565b421115611630576000848152610108602052604090205483906116119042612abc565b61161b9190612aa9565b600085815261010c602052604090205561165c565b600084815261010c602052604090205461164b908490612aa9565b600085815261010c60205260409020555b505050600090815261010c60205260409020546001805590565b60cb546001600160a01b031633146116a05760405162461bcd60e51b815260040161034290612a27565b6002600154036116c25760405162461bcd60e51b8152600401610342906129f0565b600260015560008381526101096020908152604091829020548251808401909352601883527711115413d4d25517d053149150511657d49151955391115160421b9183019190915260ff161561172b5760405162461bcd60e51b815260040161034291906120a1565b5060008381526101056020908152604091829020548251808401909352601183527021a0a62622a92fa727aa2fa32aa72222a960791b918301919091526001600160a01b038481169116146117935760405162461bcd60e51b815260040161034291906120a1565b50600083815261010c6020908152604080832054610108909252909120546117bb9190612aa9565b4210156040518060400160405280601881526020017714149153505515549157d4915195539117d49154555154d560421b8152509061180d5760405162461bcd60e51b815260040161034291906120a1565b50600083815261010960209081526040808320805460ff191660011790556101069091529020546001600160a01b03166118695760008381526101056020526040902054611864906001600160a01b031682611b56565b61189d565b600083815261010660209081526040808320546101059092529091205461189d916001600160a01b03908116911683611b6d565b50506001805550565b6065546001600160a01b0316336001600160a01b0316146118d95760405162461bcd60e51b815260040161034290612624565b60006118e7828401846120c5565b61014880549115156101000261ff0019909216919091179055505050565b606061191261010e611a38565b905090565b61011580546109f4906125ea565b6065546001600160a01b0316336001600160a01b0316146119585760405162461bcd60e51b815260040161034290612624565b6101148054911515620100000262ff000019909216919091179055565b600054610100900460ff1661199c5760405162461bcd60e51b815260040161034290612acf565b6119a4611b82565b565b600054610100900460ff166119cd5760405162461bcd60e51b815260040161034290612acf565b609880546001600160a01b0319166001600160a01b0392909216919091179055565b600054610100900460ff16611a165760405162461bcd60e51b815260040161034290612acf565b60cb80546001600160a01b0319166001600160a01b0392909216919091179055565b6060600061108c83611baf565b6001600160a01b038316611a6257611a5d8183611b56565b505050565b611a5d838284611b6d565b61010d54604051600091611a879160fe9190602001612b1a565b60405160208183030381529060405280519060200120905090565b600080611aae8561101f565b905084611ac66001600160a01b038216863087611c0b565b6000611ad18761101f565b9050828110156040518060400160405280601a81526020017f544f4b454e5f5452414e534645525f494e5f4f564552464c4f5700000000000081525090611b2b5760405162461bcd60e51b815260040161034291906120a1565b50611b368382612abc565b979650505050505050565b600061108c836001600160a01b038416611c76565b611b696001600160a01b03831682611cc5565b5050565b82610c096001600160a01b0382168484611dde565b600054610100900460ff16611ba95760405162461bcd60e51b815260040161034290612acf565b60018055565b606081600001805480602002602001604051908101604052809291908181526020018280548015611bff57602002820191906000526020600020905b815481526020019060010190808311611beb575b50505050509050919050565b6040516001600160a01b0380851660248301528316604482015260648101829052610c099085906323b872dd60e01b906084015b60408051601f198184030181529190526020810180516001600160e01b03166001600160e01b031990931692909217909152611e0e565b6000818152600183016020526040812054611cbd57508154600181810184556000848152602080822090930184905584548482528286019093526040902091909155610c3d565b506000610c3d565b80471015611d155760405162461bcd60e51b815260206004820152601d60248201527f416464726573733a20696e73756666696369656e742062616c616e63650000006044820152606401610342565b6000826001600160a01b03168260405160006040518083038185875af1925050503d8060008114611d62576040519150601f19603f3d011682016040523d82523d6000602084013e611d67565b606091505b5050905080611a5d5760405162461bcd60e51b815260206004820152603a60248201527f416464726573733a20756e61626c6520746f2073656e642076616c75652c207260448201527f6563697069656e74206d617920686176652072657665727465640000000000006064820152608401610342565b6040516001600160a01b038316602482015260448101829052611a5d90849063a9059cbb60e01b90606401611c3f565b6000611e63826040518060400160405280602081526020017f5361666545524332303a206c6f772d6c6576656c2063616c6c206661696c6564815250856001600160a01b0316611ee09092919063ffffffff16565b805190915015611a5d5780806020019051810190611e819190612bae565b611a5d5760405162461bcd60e51b815260206004820152602a60248201527f5361666545524332303a204552433230206f7065726174696f6e20646964206e6044820152691bdd081cdd58d8d9595960b21b6064820152608401610342565b6060611eef8484600085611ef7565b949350505050565b606082471015611f585760405162461bcd60e51b815260206004820152602660248201527f416464726573733a20696e73756666696369656e742062616c616e636520666f6044820152651c8818d85b1b60d21b6064820152608401610342565b6001600160a01b0385163b611faf5760405162461bcd60e51b815260206004820152601d60248201527f416464726573733a2063616c6c20746f206e6f6e2d636f6e74726163740000006044820152606401610342565b600080866001600160a01b03168587604051611fcb9190612bcb565b60006040518083038185875af1925050503d8060008114612008576040519150601f19603f3d011682016040523d82523d6000602084013e61200d565b606091505b5091509150611b368282866060831561202757508161108c565b8251156120375782518084602001fd5b8160405162461bcd60e51b815260040161034291906120a1565b60005b8381101561206c578181015183820152602001612054565b50506000910152565b6000815180845261208d816020860160208601612051565b601f01601f19169290920160200192915050565b60208152600061108c6020830184612075565b80151581146120c257600080fd5b50565b6000602082840312156120d757600080fd5b813561108c816120b4565b6000602082840312156120f457600080fd5b5035919050565b6001600160a01b03811681146120c257600080fd5b8035610c43816120fb565b60008083601f84011261212d57600080fd5b5081356001600160401b0381111561214457600080fd5b60208301915083602082850101111561215c57600080fd5b9250929050565b60008060006040848603121561217857600080fd5b8335612183816120fb565b925060208401356001600160401b0381111561219e57600080fd5b6121aa8682870161211b565b9497909650939450505050565b6000602082840312156121c957600080fd5b813561108c816120fb565b634e487b7160e01b600052604160045260246000fd5b604051601f8201601f191681016001600160401b0381118282101715612212576122126121d4565b604052919050565b60006001600160401b03821115612233576122336121d4565b50601f01601f191660200190565b600061225461224f8461221a565b6121ea565b905082815283838301111561226857600080fd5b828260208301376000602084830101529392505050565b600082601f83011261229057600080fd5b61108c83833560208501612241565b6000604082840312156122b157600080fd5b604051604081016001600160401b0382821081831117156122d4576122d46121d4565b816040528293508435915063ffffffff821682146122f157600080fd5b9082526020840135908082111561230757600080fd5b508301601f8101851361231957600080fd5b61232885823560208401612241565b6020830152505092915050565b600080600080600080600060e0888a03121561235057600080fd5b87356001600160401b038082111561236757600080fd5b6123738b838c0161227f565b985060208a01359150612385826120fb565b9096506040890135908082111561239b57600080fd5b6123a78b838c0161227f565b965060608a013591506123b9826120fb565b8195506123c860808b01612110565b94506123d660a08b01612110565b935060c08a01359150808211156123ec57600080fd5b506123f98a828b0161229f565b91505092959891949750929550565b6000806020838503121561241b57600080fd5b82356001600160401b0381111561243157600080fd5b61243d8582860161211b565b90969095509350505050565b6020808252825182820181905260009190848201906040850190845b8181101561248157835183529284019291840191600101612465565b50909695505050505050565b600080604083850312156124a057600080fd5b82356124ab816120fb565b915060208301356124bb816120fb565b809150509250929050565b600080604083850312156124d957600080fd5b82356124e4816120fb565b946020939093013593505050565b6000806000806080858703121561250857600080fd5b8435612513816120fb565b93506020850135612523816120fb565b93969395505050506040820135916060013590565b60008060006060848603121561254d57600080fd5b83359250602084013591506040840135612566816120fb565b809150509250925092565b60008060006060848603121561258657600080fd5b833592506020840135612598816120fb565b929592945050506040919091013590565b6020808252825182820181905260009190848201906040850190845b818110156124815783516001600160a01b0316835292840192918401916001016125c5565b600181811c908216806125fe57607f821691505b60208210810361261e57634e487b7160e01b600052602260045260246000fd5b50919050565b6020808252818101527f4d6574686f64206973206f6e6c792063616c6c61626c65206279204f70656e51604082015260600190565b60208082526042908201527f436c61696d4d616e616765724f776e61626c653a2063616c6c6572206973206e60408201527f6f74207468652063757272656e74204f70656e5120436c61696d204d616e616760608201526132b960f11b608082015260a00190565b601f821115611a5d57600081815260208120601f850160051c810160208610156126e85750805b601f850160051c820191505b81811015612707578281556001016126f4565b505050505050565b600019600383901b1c191660019190911b1790565b6001600160401b0383111561273b5761273b6121d4565b61274f8361274983546125ea565b836126c1565b6000601f84116001811461277d576000851561276b5750838201355b612775868261270f565b8455506127d7565b600083815260209020601f19861690835b828110156127ae578685013582556020948501946001909201910161278e565b50868210156127cb5760001960f88860031b161c19848701351681555b505060018560011b0183555b5050505050565b81516001600160401b038111156127f7576127f76121d4565b61280b8161280584546125ea565b846126c1565b602080601f83116001811461283a57600084156128285750858301515b612832858261270f565b865550612707565b600085815260208120601f198616915b828110156128695788860151825594840194600190910190840161284a565b50858210156128875787850151600019600388901b60f8161c191681555b5050505050600190811b01905550565b8051610c43816120b4565b8051610c43816120fb565b600082601f8301126128be57600080fd5b81516128cc61224f8261221a565b8181528460208386010111156128e157600080fd5b611eef826020830160208701612051565b60008060008060008060008060006101208a8c03121561291157600080fd5b61291a8a612897565b985061292860208b016128a2565b975060408a0151965061293d60608b01612897565b955061294b60808b01612897565b945061295960a08b01612897565b935060c08a01516001600160401b038082111561297557600080fd5b6129818d838e016128ad565b945060e08c015191508082111561299757600080fd5b6129a38d838e016128ad565b93506101008c01519150808211156129ba57600080fd5b506129c78c828d016128ad565b9150509295985092959850929598565b6000602082840312156129e957600080fd5b5051919050565b6020808252601f908201527f5265656e7472616e637947756172643a207265656e7472616e742063616c6c00604082015260600190565b60208082526046908201527f4465706f7369744d616e616765724f776e61626c653a2063616c6c657220697360408201527f206e6f74207468652063757272656e74204f70656e51204465706f736974204d60608201526530b730b3b2b960d11b608082015260a00190565b634e487b7160e01b600052601160045260246000fd5b80820180821115610c3d57610c3d612a93565b81810381811115610c3d57610c3d612a93565b6020808252602b908201527f496e697469616c697a61626c653a20636f6e7472616374206973206e6f74206960408201526a6e697469616c697a696e6760a81b606082015260800190565b604081526000808454612b2c816125ea565b8060408601526060600180841660008114612b4e5760018114612b6857612b99565b60ff1985168884015283151560051b880183019550612b99565b8960005260208060002060005b86811015612b905781548b8201870152908401908201612b75565b8a018501975050505b50505050506020929092019290925292915050565b600060208284031215612bc057600080fd5b815161108c816120b4565b60008251612bdd818460208701612051565b919091019291505056fea26469706673582212201eb7f4e35fe0e4a2acf14e4a1e778fb59fa5f524bf277ec67f88fda70bc3e4f864736f6c63430008110033",
  "linkReferences": {},
  "deployedLinkReferences": {}
}