{
  "_format": "hh-sol-artifact-1",
  "contractName": "AtomicBountyV1",
  "sourceName": "contracts/Bounty/Implementations/AtomicBountyV1.sol",
  "abi": [
    {
      "inputs": [],
      "stateMutability": "nonpayable",
      "type": "constructor"
    },
    {
      "anonymous": false,
      "inputs": [
        {
          "indexed": false,
          "internalType": "uint8",
          "name": "version",
          "type": "uint8"
        }
      ],
      "name": "Initialized",
      "type": "event"
    },
    {
      "inputs": [],
      "name": "VERSION_1",
      "outputs": [
        {
          "internalType": "uint256",
          "name": "",
          "type": "uint256"
        }
      ],
      "stateMutability": "view",
      "type": "function"
    },
    {
      "inputs": [],
      "name": "bountyClosedTime",
      "outputs": [
        {
          "internalType": "uint256",
          "name": "",
          "type": "uint256"
        }
      ],
      "stateMutability": "view",
      "type": "function"
    },
    {
      "inputs": [],
      "name": "bountyCreatedTime",
      "outputs": [
        {
          "internalType": "uint256",
          "name": "",
          "type": "uint256"
        }
      ],
      "stateMutability": "view",
      "type": "function"
    },
    {
      "inputs": [],
      "name": "bountyId",
      "outputs": [
        {
          "internalType": "string",
          "name": "",
          "type": "string"
        }
      ],
      "stateMutability": "view",
      "type": "function"
    },
    {
      "inputs": [],
      "name": "bountyType",
      "outputs": [
        {
          "internalType": "uint256",
          "name": "",
          "type": "uint256"
        }
      ],
      "stateMutability": "view",
      "type": "function"
    },
    {
      "inputs": [
        {
          "internalType": "address",
          "name": "_payoutAddress",
          "type": "address"
        },
        {
          "internalType": "address",
          "name": "_tokenAddress",
          "type": "address"
        }
      ],
      "name": "claimBalance",
      "outputs": [
        {
          "internalType": "uint256",
          "name": "",
          "type": "uint256"
        }
      ],
      "stateMutability": "nonpayable",
      "type": "function"
    },
    {
      "inputs": [],
      "name": "claimManager",
      "outputs": [
        {
          "internalType": "address",
          "name": "",
          "type": "address"
        }
      ],
      "stateMutability": "view",
      "type": "function"
    },
    {
      "inputs": [
        {
          "internalType": "address",
          "name": "_payoutAddress",
          "type": "address"
        },
        {
          "internalType": "bytes32",
          "name": "_depositId",
          "type": "bytes32"
        }
      ],
      "name": "claimNft",
      "outputs": [],
      "stateMutability": "nonpayable",
      "type": "function"
    },
    {
      "inputs": [
        {
          "internalType": "address",
          "name": "_payoutAddress",
          "type": "address"
        },
        {
          "internalType": "bytes",
          "name": "_closerData",
          "type": "bytes"
        }
      ],
      "name": "close",
      "outputs": [],
      "stateMutability": "nonpayable",
      "type": "function"
    },
    {
      "inputs": [],
      "name": "closer",
      "outputs": [
        {
          "internalType": "address",
          "name": "",
          "type": "address"
        }
      ],
      "stateMutability": "view",
      "type": "function"
    },
    {
      "inputs": [],
      "name": "closerData",
      "outputs": [
        {
          "internalType": "bytes",
          "name": "",
          "type": "bytes"
        }
      ],
      "stateMutability": "view",
      "type": "function"
    },
    {
      "inputs": [],
      "name": "depositManager",
      "outputs": [
        {
          "internalType": "address",
          "name": "",
          "type": "address"
        }
      ],
      "stateMutability": "view",
      "type": "function"
    },
    {
      "inputs": [
        {
          "internalType": "bytes32",
          "name": "",
          "type": "bytes32"
        }
      ],
      "name": "depositTime",
      "outputs": [
        {
          "internalType": "uint256",
          "name": "",
          "type": "uint256"
        }
      ],
      "stateMutability": "view",
      "type": "function"
    },
    {
      "inputs": [
        {
          "internalType": "uint256",
          "name": "",
          "type": "uint256"
        }
      ],
      "name": "deposits",
      "outputs": [
        {
          "internalType": "bytes32",
          "name": "",
          "type": "bytes32"
        }
      ],
      "stateMutability": "view",
      "type": "function"
    },
    {
      "inputs": [
        {
          "internalType": "bytes32",
          "name": "",
          "type": "bytes32"
        }
      ],
      "name": "expiration",
      "outputs": [
        {
          "internalType": "uint256",
          "name": "",
          "type": "uint256"
        }
      ],
      "stateMutability": "view",
      "type": "function"
    },
    {
      "inputs": [
        {
          "internalType": "bytes32",
          "name": "_depositId",
          "type": "bytes32"
        },
        {
          "internalType": "uint256",
          "name": "_seconds",
          "type": "uint256"
        },
        {
          "internalType": "address",
          "name": "_funder",
          "type": "address"
        }
      ],
      "name": "extendDeposit",
      "outputs": [
        {
          "internalType": "uint256",
          "name": "",
          "type": "uint256"
        }
      ],
      "stateMutability": "nonpayable",
      "type": "function"
    },
    {
      "inputs": [
        {
          "internalType": "bytes32",
          "name": "",
          "type": "bytes32"
        }
      ],
      "name": "funder",
      "outputs": [
        {
          "internalType": "address",
          "name": "",
          "type": "address"
        }
      ],
      "stateMutability": "view",
      "type": "function"
    },
    {
      "inputs": [],
      "name": "fundingGoal",
      "outputs": [
        {
          "internalType": "uint256",
          "name": "",
          "type": "uint256"
        }
      ],
      "stateMutability": "view",
      "type": "function"
    },
    {
      "inputs": [],
      "name": "fundingToken",
      "outputs": [
        {
          "internalType": "address",
          "name": "",
          "type": "address"
        }
      ],
      "stateMutability": "view",
      "type": "function"
    },
    {
      "inputs": [],
      "name": "getDeposits",
      "outputs": [
        {
          "internalType": "bytes32[]",
          "name": "",
          "type": "bytes32[]"
        }
      ],
      "stateMutability": "view",
      "type": "function"
    },
    {
      "inputs": [
        {
          "internalType": "address",
          "name": "_tokenAddress",
          "type": "address"
        }
      ],
      "name": "getERC20Balance",
      "outputs": [
        {
          "internalType": "uint256",
          "name": "balance",
          "type": "uint256"
        }
      ],
      "stateMutability": "view",
      "type": "function"
    },
    {
      "inputs": [],
      "name": "getInvoiceComplete",
      "outputs": [
        {
          "internalType": "bytes",
          "name": "",
          "type": "bytes"
        }
      ],
      "stateMutability": "view",
      "type": "function"
    },
    {
      "inputs": [
        {
          "internalType": "address",
          "name": "_depositId",
          "type": "address"
        }
      ],
      "name": "getLockedFunds",
      "outputs": [
        {
          "internalType": "uint256",
          "name": "",
          "type": "uint256"
        }
      ],
      "stateMutability": "view",
      "type": "function"
    },
    {
      "inputs": [],
      "name": "getNftDeposits",
      "outputs": [
        {
          "internalType": "bytes32[]",
          "name": "",
          "type": "bytes32[]"
        }
      ],
      "stateMutability": "view",
      "type": "function"
    },
    {
      "inputs": [],
      "name": "getSupportingDocumentsComplete",
      "outputs": [
        {
          "internalType": "bytes",
          "name": "",
          "type": "bytes"
        }
      ],
      "stateMutability": "view",
      "type": "function"
    },
    {
      "inputs": [],
      "name": "getTokenAddresses",
      "outputs": [
        {
          "internalType": "address[]",
          "name": "",
          "type": "address[]"
        }
      ],
      "stateMutability": "view",
      "type": "function"
    },
    {
      "inputs": [],
      "name": "getTokenAddressesCount",
      "outputs": [
        {
          "internalType": "uint256",
          "name": "",
          "type": "uint256"
        }
      ],
      "stateMutability": "view",
      "type": "function"
    },
    {
      "inputs": [
        {
          "internalType": "address",
          "name": "_tokenAddress",
          "type": "address"
        }
      ],
      "name": "getTokenBalance",
      "outputs": [
        {
          "internalType": "uint256",
          "name": "",
          "type": "uint256"
        }
      ],
      "stateMutability": "view",
      "type": "function"
    },
    {
      "inputs": [],
      "name": "hasFundingGoal",
      "outputs": [
        {
          "internalType": "bool",
          "name": "",
          "type": "bool"
        }
      ],
      "stateMutability": "view",
      "type": "function"
    },
    {
      "inputs": [
        {
          "internalType": "string",
          "name": "_bountyId",
          "type": "string"
        },
        {
          "internalType": "address",
          "name": "_issuer",
          "type": "address"
        },
        {
          "internalType": "string",
          "name": "_organization",
          "type": "string"
        },
        {
          "internalType": "address",
          "name": "_openQ",
          "type": "address"
        },
        {
          "internalType": "address",
          "name": "_claimManager",
          "type": "address"
        },
        {
          "internalType": "address",
          "name": "_depositManager",
          "type": "address"
        },
        {
          "components": [
            {
              "internalType": "uint32",
              "name": "operationType",
              "type": "uint32"
            },
            {
              "internalType": "bytes",
              "name": "data",
              "type": "bytes"
            }
          ],
          "internalType": "struct OpenQDefinitions.InitOperation",
          "name": "_operation",
          "type": "tuple"
        }
      ],
      "name": "initialize",
      "outputs": [],
      "stateMutability": "nonpayable",
      "type": "function"
    },
    {
      "inputs": [],
      "name": "invoiceComplete",
      "outputs": [
        {
          "internalType": "bool",
          "name": "",
          "type": "bool"
        }
      ],
      "stateMutability": "view",
      "type": "function"
    },
    {
      "inputs": [],
      "name": "invoiceRequired",
      "outputs": [
        {
          "internalType": "bool",
          "name": "",
          "type": "bool"
        }
      ],
      "stateMutability": "view",
      "type": "function"
    },
    {
      "inputs": [
        {
          "internalType": "bytes32",
          "name": "",
          "type": "bytes32"
        }
      ],
      "name": "isNFT",
      "outputs": [
        {
          "internalType": "bool",
          "name": "",
          "type": "bool"
        }
      ],
      "stateMutability": "view",
      "type": "function"
    },
    {
      "inputs": [],
      "name": "issuer",
      "outputs": [
        {
          "internalType": "address",
          "name": "",
          "type": "address"
        }
      ],
      "stateMutability": "view",
      "type": "function"
    },
    {
      "inputs": [],
      "name": "issuerExternalUserId",
      "outputs": [
        {
          "internalType": "string",
          "name": "",
          "type": "string"
        }
      ],
      "stateMutability": "view",
      "type": "function"
    },
    {
      "inputs": [],
      "name": "kycRequired",
      "outputs": [
        {
          "internalType": "bool",
          "name": "",
          "type": "bool"
        }
      ],
      "stateMutability": "view",
      "type": "function"
    },
    {
      "inputs": [],
      "name": "nftDepositLimit",
      "outputs": [
        {
          "internalType": "uint256",
          "name": "",
          "type": "uint256"
        }
      ],
      "stateMutability": "view",
      "type": "function"
    },
    {
      "inputs": [
        {
          "internalType": "uint256",
          "name": "",
          "type": "uint256"
        }
      ],
      "name": "nftDeposits",
      "outputs": [
        {
          "internalType": "bytes32",
          "name": "",
          "type": "bytes32"
        }
      ],
      "stateMutability": "view",
      "type": "function"
    },
    {
      "inputs": [
        {
          "internalType": "address",
          "name": "",
          "type": "address"
        },
        {
          "internalType": "address",
          "name": "",
          "type": "address"
        },
        {
          "internalType": "uint256",
          "name": "",
          "type": "uint256"
        },
        {
          "internalType": "bytes",
          "name": "",
          "type": "bytes"
        }
      ],
      "name": "onERC721Received",
      "outputs": [
        {
          "internalType": "bytes4",
          "name": "",
          "type": "bytes4"
        }
      ],
      "stateMutability": "nonpayable",
      "type": "function"
    },
    {
      "inputs": [],
      "name": "openQ",
      "outputs": [
        {
          "internalType": "address",
          "name": "",
          "type": "address"
        }
      ],
      "stateMutability": "view",
      "type": "function"
    },
    {
      "inputs": [],
      "name": "organization",
      "outputs": [
        {
          "internalType": "string",
          "name": "",
          "type": "string"
        }
      ],
      "stateMutability": "view",
      "type": "function"
    },
    {
      "inputs": [
        {
          "internalType": "bytes32",
          "name": "",
          "type": "bytes32"
        }
      ],
      "name": "payoutAddress",
      "outputs": [
        {
          "internalType": "address",
          "name": "",
          "type": "address"
        }
      ],
      "stateMutability": "view",
      "type": "function"
    },
    {
      "inputs": [
        {
          "internalType": "address",
          "name": "_funder",
          "type": "address"
        },
        {
          "internalType": "address",
          "name": "_tokenAddress",
          "type": "address"
        },
        {
          "internalType": "uint256",
          "name": "_volume",
          "type": "uint256"
        },
        {
          "internalType": "uint256",
          "name": "_expiration",
          "type": "uint256"
        }
      ],
      "name": "receiveFunds",
      "outputs": [
        {
          "internalType": "bytes32",
          "name": "",
          "type": "bytes32"
        },
        {
          "internalType": "uint256",
          "name": "",
          "type": "uint256"
        }
      ],
      "stateMutability": "payable",
      "type": "function"
    },
    {
      "inputs": [
        {
          "internalType": "address",
          "name": "_sender",
          "type": "address"
        },
        {
          "internalType": "address",
          "name": "_tokenAddress",
          "type": "address"
        },
        {
          "internalType": "uint256",
          "name": "_tokenId",
          "type": "uint256"
        },
        {
          "internalType": "uint256",
          "name": "_expiration",
          "type": "uint256"
        },
        {
          "internalType": "bytes",
          "name": "",
          "type": "bytes"
        }
      ],
      "name": "receiveNft",
      "outputs": [
        {
          "internalType": "bytes32",
          "name": "",
          "type": "bytes32"
        }
      ],
      "stateMutability": "nonpayable",
      "type": "function"
    },
    {
      "inputs": [
        {
          "internalType": "bytes32",
          "name": "_depositId",
          "type": "bytes32"
        },
        {
          "internalType": "address",
          "name": "_funder",
          "type": "address"
        },
        {
          "internalType": "uint256",
          "name": "_volume",
          "type": "uint256"
        }
      ],
      "name": "refundDeposit",
      "outputs": [],
      "stateMutability": "nonpayable",
      "type": "function"
    },
    {
      "inputs": [
        {
          "internalType": "bytes32",
          "name": "",
          "type": "bytes32"
        }
      ],
      "name": "refunded",
      "outputs": [
        {
          "internalType": "bool",
          "name": "",
          "type": "bool"
        }
      ],
      "stateMutability": "view",
      "type": "function"
    },
    {
      "inputs": [
        {
          "internalType": "address",
          "name": "_fundingToken",
          "type": "address"
        },
        {
          "internalType": "uint256",
          "name": "_fundingGoal",
          "type": "uint256"
        }
      ],
      "name": "setFundingGoal",
      "outputs": [],
      "stateMutability": "nonpayable",
      "type": "function"
    },
    {
      "inputs": [
        {
          "internalType": "bytes",
          "name": "_data",
          "type": "bytes"
        }
      ],
      "name": "setInvoiceComplete",
      "outputs": [],
      "stateMutability": "nonpayable",
      "type": "function"
    },
    {
      "inputs": [
        {
          "internalType": "bool",
          "name": "_invoiceRequired",
          "type": "bool"
        }
      ],
      "name": "setInvoiceRequired",
      "outputs": [],
      "stateMutability": "nonpayable",
      "type": "function"
    },
    {
      "inputs": [
        {
          "internalType": "bool",
          "name": "_kycRequired",
          "type": "bool"
        }
      ],
      "name": "setKycRequired",
      "outputs": [],
      "stateMutability": "nonpayable",
      "type": "function"
    },
    {
      "inputs": [
        {
          "internalType": "bytes",
          "name": "_data",
          "type": "bytes"
        }
      ],
      "name": "setSupportingDocumentsComplete",
      "outputs": [],
      "stateMutability": "nonpayable",
      "type": "function"
    },
    {
      "inputs": [
        {
          "internalType": "bool",
          "name": "_supportingDocumentsRequired",
          "type": "bool"
        }
      ],
      "name": "setSupportingDocumentsRequired",
      "outputs": [],
      "stateMutability": "nonpayable",
      "type": "function"
    },
    {
      "inputs": [],
      "name": "status",
      "outputs": [
        {
          "internalType": "uint256",
          "name": "",
          "type": "uint256"
        }
      ],
      "stateMutability": "view",
      "type": "function"
    },
    {
      "inputs": [],
      "name": "supportingDocumentsComplete",
      "outputs": [
        {
          "internalType": "bool",
          "name": "",
          "type": "bool"
        }
      ],
      "stateMutability": "view",
      "type": "function"
    },
    {
      "inputs": [],
      "name": "supportingDocumentsRequired",
      "outputs": [
        {
          "internalType": "bool",
          "name": "",
          "type": "bool"
        }
      ],
      "stateMutability": "view",
      "type": "function"
    },
    {
      "inputs": [
        {
          "internalType": "bytes32",
          "name": "",
          "type": "bytes32"
        }
      ],
      "name": "tokenAddress",
      "outputs": [
        {
          "internalType": "address",
          "name": "",
          "type": "address"
        }
      ],
      "stateMutability": "view",
      "type": "function"
    },
    {
      "inputs": [
        {
          "internalType": "bytes32",
          "name": "",
          "type": "bytes32"
        }
      ],
      "name": "tokenId",
      "outputs": [
        {
          "internalType": "uint256",
          "name": "",
          "type": "uint256"
        }
      ],
      "stateMutability": "view",
      "type": "function"
    },
    {
      "inputs": [
        {
          "internalType": "bytes32",
          "name": "",
          "type": "bytes32"
        }
      ],
      "name": "volume",
      "outputs": [
        {
          "internalType": "uint256",
          "name": "",
          "type": "uint256"
        }
      ],
      "stateMutability": "view",
      "type": "function"
    },
    {
      "stateMutability": "payable",
      "type": "receive"
    }
  ],
  "bytecode": "0x608060405234801561001057600080fd5b506133df806100206000396000f3fe6080604052600436106103055760003560e01c8063968b098f11610191578063cb4436b7116100e2578063eb58c0fd11610090578063eb58c0fd14610a36578063ee1034fb14610a56578063ee1e43e014610a76578063ee8c24b814610a90578063f05e0f7e14610ab2578063f232172514610ae2578063fbeadd2b14610b0f578063fd9ef47c14610b2457600080fd5b8063cb4436b714610964578063cbcca3dc1461097a578063ceff31071461099a578063d54a117b146109ba578063d6fe0f44146109d9578063dda6408114610a01578063e83963eb14610a1657600080fd5b8063b3ca1f3b1161013f578063b3ca1f3b1461088f578063b588d225146108a5578063b9699091146108c5578063b99bb990146108e4578063c17bd75e1461091a578063c5b6e7051461092f578063cb2da3db1461094457600080fd5b8063968b098f1461079857806397bb3ce9146107c5578063995280b0146107fb5780639dcaa3cc14610811578063a7f01e4d14610831578063a9a36dcd14610851578063b02c43d01461086f57600080fd5b80633aecd0e3116102565780637026b472116102045780637026b472146106bb5780637044f282146106d057806371ec4ebf146106f057806377ede8a61461071057806378065f27146107255780637a3a0e841461074a5780637d6694b5146107605780637dc81fa21461077a57600080fd5b80633aecd0e3146105b85780633f40f636146105d857806355f1c18a146105f857806356406fa51461061857806359ba8344146106455780636b149d871461067b5780636c7ac9d81461069d57600080fd5b80631bc5fc96116102b35780631bc5fc96146104d05780631d143848146104f0578063200d2ed2146105285780632338d3771461053e578063235b2b941461055e57806323bd4d7a1461058e57806326c20e5f146105a357600080fd5b80630961413d146103a85780630dd81887146103d1578063150909f7146103f3578063150b7a0214610415578063152e56a2146104595780631595eea41461048357806315add63b146104b057600080fd5b366103a35760405162461bcd60e51b815260206004820152605d60248201527f43616e6e6f742073656e64204574686572206469726563746c7920746f20626f60448201527f75746e7920636f6e74726163742e20506c65617365207573652074686520426f60648201527f756e747956312e7265636569766546756e64732829206d6574686f642e000000608482015260a4015b60405180910390fd5b600080fd5b3480156103b457600080fd5b506103be60a15481565b6040519081526020015b60405180910390f35b3480156103dd57600080fd5b506103e6610b44565b6040516103c891906126a1565b3480156103ff57600080fd5b5061041361040e3660046126c5565b610bd2565b005b34801561042157600080fd5b506104406104303660046127c5565b630a85bd0160e11b949350505050565b6040516001600160e01b031990911681526020016103c8565b34801561046557600080fd5b5060b5546104739060ff1681565b60405190151581526020016103c8565b34801561048f57600080fd5b506103be61049e366004612830565b60a46020526000908152604090205481565b3480156104bc57600080fd5b506104136104cb3660046126c5565b610c1f565b3480156104dc57600080fd5b506103be6104eb366004612830565b610c65565b3480156104fc57600080fd5b50609d54610510906001600160a01b031681565b6040516001600160a01b0390911681526020016103c8565b34801561053457600080fd5b506103be60a05481565b34801561054a57600080fd5b50610413610559366004612891565b610c86565b34801561056a57600080fd5b50610473610579366004612830565b60aa6020526000908152604090205460ff1681565b34801561059a57600080fd5b506103e6610d86565b3480156105af57600080fd5b506103be600181565b3480156105c457600080fd5b506103be6105d33660046128e5565b610d93565b3480156105e457600080fd5b506104136105f3366004612984565b610dbe565b34801561060457600080fd5b50610413610613366004612a57565b611092565b34801561062457600080fd5b506103be610633366004612830565b60a96020526000908152604090205481565b34801561065157600080fd5b50610510610660366004612830565b60a2602052600090815260409020546001600160a01b031681565b34801561068757600080fd5b506106906110e9565b6040516103c89190612a98565b3480156106a957600080fd5b506099546001600160a01b0316610510565b3480156106c757600080fd5b506103e6611141565b3480156106dc57600080fd5b50609f54610510906001600160a01b031681565b3480156106fc57600080fd5b5061041361070b366004612adc565b611171565b34801561071c57600080fd5b506106906111fa565b34801561073157600080fd5b5060b1546105109061010090046001600160a01b031681565b34801561075657600080fd5b506103be60b25481565b34801561076c57600080fd5b5060b3546104739060ff1681565b34801561078657600080fd5b506097546001600160a01b0316610510565b3480156107a457600080fd5b506103be6107b3366004612830565b60a56020526000908152604090205481565b3480156107d157600080fd5b506105106107e0366004612830565b60a3602052600090815260409020546001600160a01b031681565b34801561080757600080fd5b506103be609b5481565b34801561081d57600080fd5b506103be61082c366004612b08565b611250565b34801561083d57600080fd5b506103be61084c3660046128e5565b61144d565b34801561085d57600080fd5b506098546001600160a01b0316610510565b34801561087b57600080fd5b506103be61088a366004612830565b6115d4565b34801561089b57600080fd5b506103be60b05481565b3480156108b157600080fd5b506103be6108c03660046128e5565b6115e4565b3480156108d157600080fd5b5060b35461047390610100900460ff1681565b3480156108f057600080fd5b506105106108ff366004612830565b60a7602052600090815260409020546001600160a01b031681565b34801561092657600080fd5b506103e6611658565b34801561093b57600080fd5b506103be611665565b34801561095057600080fd5b506103be61095f366004612b83565b611677565b34801561097057600080fd5b506103be609c5481565b34801561098657600080fd5b5060b3546104739062010000900460ff1681565b3480156109a657600080fd5b506104136109b5366004612adc565b6116ee565b3480156109c657600080fd5b5060b55461047390610100900460ff1681565b6109ec6109e7366004612bbc565b611755565b604080519283526020830191909152016103c8565b348015610a0d57600080fd5b506103e6611986565b348015610a2257600080fd5b506103be610a31366004612c02565b6119a2565b348015610a4257600080fd5b50610413610a51366004612c3b565b611bb5565b348015610a6257600080fd5b50610413610a71366004612a57565b611e2c565b348015610a8257600080fd5b5060b1546104739060ff1681565b348015610a9c57600080fd5b50610aa5611e8a565b6040516103c89190612c73565b348015610abe57600080fd5b50610473610acd366004612830565b60a66020526000908152604090205460ff1681565b348015610aee57600080fd5b506103be610afd366004612830565b60a86020526000908152604090205481565b348015610b1b57600080fd5b506103e6611e9b565b348015610b3057600080fd5b50610413610b3f3660046126c5565b611ea8565b60af8054610b5190612cb4565b80601f0160208091040260200160405190810160405280929190818152602001828054610b7d90612cb4565b8015610bca5780601f10610b9f57610100808354040283529160200191610bca565b820191906000526020600020905b815481529060010190602001808311610bad57829003601f168201915b505050505081565b6097546001600160a01b0316336001600160a01b031614610c055760405162461bcd60e51b815260040161039a90612cee565b60b380549115156101000261ff0019909216919091179055565b6097546001600160a01b0316336001600160a01b031614610c525760405162461bcd60e51b815260040161039a90612cee565b60b3805460ff1916911515919091179055565b60ac8181548110610c7557600080fd5b600091825260209091200154905081565b6098546001600160a01b03163314610cb05760405162461bcd60e51b815260040161039a90612d23565b60a05460408051808201909152601781527610d3d395149050d517d053149150511657d0d313d4d151604a1b60208201529015610d005760405162461bcd60e51b815260040161039a91906126a1565b5060408051808201909152600f81526e4e4f5f5a45524f5f4144445245535360881b60208201526001600160a01b038416610d4e5760405162461bcd60e51b815260040161039a91906126a1565b50600160a055609f80546001600160a01b0319166001600160a01b03851617905542609c5560af610d80828483612dee565b50505050565b609e8054610b5190612cb4565b60006001600160a01b038216610daa575047919050565b610db3826115e4565b92915050565b919050565b600054610100900460ff1615808015610dde5750600054600160ff909116105b80610df85750303b158015610df8575060005460ff166001145b610e5b5760405162461bcd60e51b815260206004820152602e60248201527f496e697469616c697a61626c653a20636f6e747261637420697320616c72656160448201526d191e481a5b9a5d1a585b1a5e995960921b606482015260840161039a565b6000805460ff191660011790558015610e7e576000805461ff0019166101001790555b87516040805180820190915260128152711393d7d15354151657d093d553951657d25160721b602082015290610ec75760405162461bcd60e51b815260040161039a91906126a1565b5085516040805180820190915260158152742727afa2a6a82a2cafa7a923a0a724ad20aa24a7a760591b602082015290610f145760405162461bcd60e51b815260040161039a91906126a1565b50610f1d611ef7565b609780546001600160a01b0319166001600160a01b038716179055610f4184611f28565b610f4a83611f71565b609a610f568982612ea8565b50609d80546001600160a01b0319166001600160a01b038916179055609e610f7e8782612ea8565b5042609b81905550600560a18190555060008060008060008060008860200151806020019051810190610fb19190612fbc565b5050600060b05560b180546001600160a81b031916881515610100600160a81b031916176101006001600160a01b03891681029190911790915560b286905560b3805461ffff191686151561ff001916178515159092029190911762ff000019166201000084151502179055959c50939a50919850965094509250905060b461103a8282612ea8565b50505050505050508015611088576000805461ff0019169055604051600181527f7f26b83ff96e1f2b6a682f133852f6798a09c465da95921460cefb38474024989060200160405180910390a15b5050505050505050565b6097546001600160a01b0316336001600160a01b0316146110c55760405162461bcd60e51b815260040161039a90612cee565b60006110d3828401846126c5565b60b5805460ff1916911515919091179055505050565b606060ab80548060200260200160405190810160405280929190818152602001828054801561113757602002820191906000526020600020905b815481526020019060010190808311611123575b5050505050905090565b60b5546040805161010090920460ff1615156020830152606091015b604051602081830303815290604052905090565b6098546001600160a01b0316331461119b5760405162461bcd60e51b815260040161039a90612d23565b6002600154036111bd5760405162461bcd60e51b815260040161039a906130a1565b6002600155600081815260a3602090815260408083205460a8909252909120546111f2916001600160a01b0316908490611fba565b505060018055565b606060ac8054806020026020016040519081016040528092919081815260200182805480156111375760200282019190600052602060002090815481526020019060010190808311611123575050505050905090565b6099546000906001600160a01b0316331461127d5760405162461bcd60e51b815260040161039a906130d8565b60026001540361129f5760405162461bcd60e51b815260040161039a906130a1565b600260015560a15460ac5460408051808201909152601981527813919517d1115413d4d25517d31253525517d4915050d21151603a1b602082015291116112f95760405162461bcd60e51b815260040161039a91906126a1565b50600084116040518060400160405280602081526020017f45585049524154494f4e5f4e4f545f475245415445525f5448414e5f5a45524f815250906113525760405162461bcd60e51b815260040161039a91906126a1565b5061135e86888761201a565b600061136861204c565b600081815260a26020908152604080832080546001600160a01b039d8e166001600160a01b03199182161790915560a3835281842080549c909d169b169a909a17909a5560a58a5288812042905560a88a528881209790975560a9895287872095909555505060aa90955250918120805460ff1916600190811790915560ab80548083019091557ffc377260a69a39dd786235c89f4bcd5d9639157731cac38071a0508750eb115a0183905560ac8054808301825592527f0a0a1bcadd9f6a5539376fa82276e043ae3cb4499daaaf8136572ecb1f9f0d609091018290558055919050565b6000806000306001600160a01b0316636b149d876040518163ffffffff1660e01b8152600401600060405180830381865afa158015611490573d6000803e3d6000fd5b505050506040513d6000823e601f3d908101601f191682016040526114b89190810190613144565b905060005b81518110156115cb5760a960008383815181106114dc576114dc6131e9565b602002602001015181526020019081526020016000205460a56000848481518110611509576115096131e9565b602002602001015181526020019081526020016000205461152a9190613215565b421080156115795750846001600160a01b031660a36000848481518110611553576115536131e9565b6020908102919091018101518252810191909152604001600020546001600160a01b0316145b156115b95760a46000838381518110611594576115946131e9565b6020026020010151815260200190815260200160002054836115b69190613215565b92505b806115c381613228565b9150506114bd565b50909392505050565b60ab8181548110610c7557600080fd5b6040516370a0823160e01b815230600482015260009082906001600160a01b038216906370a0823190602401602060405180830381865afa15801561162d573d6000803e3d6000fd5b505050506040513d601f19601f820116820180604052508101906116519190613241565b9392505050565b609a8054610b5190612cb4565b600061167160ad612080565b51905090565b6098546000906001600160a01b031633146116a45760405162461bcd60e51b815260040161039a90612d23565b6002600154036116c65760405162461bcd60e51b815260040161039a906130a1565b600260015560006116d683610d93565b90506116e383828661208d565b600180559392505050565b6097546001600160a01b0316336001600160a01b0316146117215760405162461bcd60e51b815260040161039a90612cee565b60b25560b1805460ff196001600160a01b0390931661010002929092166001600160a81b0319909216919091176001179055565b60995460009081906001600160a01b031633146117845760405162461bcd60e51b815260040161039a906130d8565b6002600154036117a65760405162461bcd60e51b815260040161039a906130a1565b600260015560408051808201909152601081526f16915493d7d593d315535157d4d1539560821b6020820152846117f05760405162461bcd60e51b815260040161039a91906126a1565b50600083116040518060400160405280602081526020017f45585049524154494f4e5f4e4f545f475245415445525f5448414e5f5a45524f815250906118495760405162461bcd60e51b815260040161039a91906126a1565b5060a05460408051808201909152601281527110d3d395149050d517d254d7d0d313d4d15160721b602082015290156118955760405162461bcd60e51b815260040161039a91906126a1565b5060006118a061204c565b905060006001600160a01b0387166118b95750346118c7565b6118c48789886120b5565b90505b600082815260a26020908152604080832080546001600160a01b03808e166001600160a01b03199283161790925560a384528285208054928d169290911691909117905560a4825280832084905560a5825280832042905560a9825280832088905560aa9091528120805460ff1916905560ab805460018101825591527ffc377260a69a39dd786235c89f4bcd5d9639157731cac38071a0508750eb115a0182905561197460ad88612154565b50600180559097909650945050505050565b60b5546040805160ff909216151560208301526060910161115d565b6099546000906001600160a01b031633146119cf5760405162461bcd60e51b815260040161039a906130d8565b6002600154036119f15760405162461bcd60e51b815260040161039a906130a1565b600260015560a05460408051808201909152601281527110d3d395149050d517d254d7d0d313d4d15160721b60208201529015611a415760405162461bcd60e51b815260040161039a91906126a1565b50600084815260a66020908152604091829020548251808401909352601883527711115413d4d25517d053149150511657d49151955391115160421b9183019190915260ff1615611aa55760405162461bcd60e51b815260040161039a91906126a1565b50600084815260a26020908152604091829020548251808401909352601183527021a0a62622a92fa727aa2fa32aa72222a960791b918301919091526001600160a01b03848116911614611b0c5760405162461bcd60e51b815260040161039a91906126a1565b50600084815260a9602090815260408083205460a590925290912054611b329190613215565b421115611b7257600084815260a560205260409020548390611b54904261325a565b611b5e9190613215565b600085815260a96020526040902055611b9c565b600084815260a96020526040902054611b8c908490613215565b600085815260a960205260409020555b505050600090815260a960205260409020546001805590565b6099546001600160a01b03163314611bdf5760405162461bcd60e51b815260040161039a906130d8565b600260015403611c015760405162461bcd60e51b815260040161039a906130a1565b6002600155600083815260a66020908152604091829020548251808401909352601883527711115413d4d25517d053149150511657d49151955391115160421b9183019190915260ff1615611c695760405162461bcd60e51b815260040161039a91906126a1565b50600083815260a26020908152604091829020548251808401909352601183527021a0a62622a92fa727aa2fa32aa72222a960791b918301919091526001600160a01b03848116911614611cd05760405162461bcd60e51b815260040161039a91906126a1565b50600083815260a9602090815260408083205460a590925290912054611cf69190613215565b4210156040518060400160405280601881526020017714149153505515549157d4915195539117d49154555154d560421b81525090611d485760405162461bcd60e51b815260040161039a91906126a1565b50600083815260a660209081526040808320805460ff1916600117905560a39091529020546001600160a01b0316611da157600083815260a26020526040902054611d9c906001600160a01b031682612169565b611e23565b600083815260aa602052604090205460ff1615611df157600083815260a3602090815260408083205460a283528184205460a8909352922054611d9c926001600160a01b03908116921690611fba565b600083815260a3602090815260408083205460a290925290912054611e23916001600160a01b03908116911683612180565b50506001805550565b6097546001600160a01b0316336001600160a01b031614611e5f5760405162461bcd60e51b815260040161039a90612cee565b6000611e6d828401846126c5565b60b580549115156101000261ff0019909216919091179055505050565b6060611e9660ad612080565b905090565b60b48054610b5190612cb4565b6097546001600160a01b0316336001600160a01b031614611edb5760405162461bcd60e51b815260040161039a90612cee565b60b38054911515620100000262ff000019909216919091179055565b600054610100900460ff16611f1e5760405162461bcd60e51b815260040161039a9061326d565b611f26612195565b565b600054610100900460ff16611f4f5760405162461bcd60e51b815260040161039a9061326d565b609880546001600160a01b0319166001600160a01b0392909216919091179055565b600054610100900460ff16611f985760405162461bcd60e51b815260040161039a9061326d565b609980546001600160a01b0319166001600160a01b0392909216919091179055565b604051632142170760e11b815283906001600160a01b038216906342842e0e90611fec903090879087906004016132b8565b600060405180830381600087803b15801561200657600080fd5b505af1158015611088573d6000803e3d6000fd5b604051632142170760e11b815283906001600160a01b038216906342842e0e90611fec908690309087906004016132b8565b60ab5460405160009161206591609a91906020016132dc565b60405160208183030381529060405280519060200120905090565b60606000611651836121c2565b6001600160a01b0383166120aa576120a58183612169565b505050565b6120a5838284612180565b6000806120c1856115e4565b9050846120d96001600160a01b03821686308761221e565b60006120e4876115e4565b9050828110156040518060400160405280601a81526020017f544f4b454e5f5452414e534645525f494e5f4f564552464c4f570000000000008152509061213e5760405162461bcd60e51b815260040161039a91906126a1565b50612149838261325a565b979650505050505050565b6000611651836001600160a01b038416612276565b61217c6001600160a01b038316826122c5565b5050565b82610d806001600160a01b03821684846123de565b600054610100900460ff166121bc5760405162461bcd60e51b815260040161039a9061326d565b60018055565b60608160000180548060200260200160405190810160405280929190818152602001828054801561221257602002820191906000526020600020905b8154815260200190600101908083116121fe575b50505050509050919050565b610d80846323b872dd60e01b85858560405160240161223f939291906132b8565b60408051601f198184030181529190526020810180516001600160e01b03166001600160e01b03199093169290921790915261240e565b60008181526001830160205260408120546122bd57508154600181810184556000848152602080822090930184905584548482528286019093526040902091909155610db3565b506000610db3565b804710156123155760405162461bcd60e51b815260206004820152601d60248201527f416464726573733a20696e73756666696369656e742062616c616e6365000000604482015260640161039a565b6000826001600160a01b03168260405160006040518083038185875af1925050503d8060008114612362576040519150601f19603f3d011682016040523d82523d6000602084013e612367565b606091505b50509050806120a55760405162461bcd60e51b815260206004820152603a60248201527f416464726573733a20756e61626c6520746f2073656e642076616c75652c207260448201527f6563697069656e74206d61792068617665207265766572746564000000000000606482015260840161039a565b6040516001600160a01b0383166024820152604481018290526120a590849063a9059cbb60e01b9060640161223f565b6000612463826040518060400160405280602081526020017f5361666545524332303a206c6f772d6c6576656c2063616c6c206661696c6564815250856001600160a01b03166124e09092919063ffffffff16565b8051909150156120a557808060200190518101906124819190613370565b6120a55760405162461bcd60e51b815260206004820152602a60248201527f5361666545524332303a204552433230206f7065726174696f6e20646964206e6044820152691bdd081cdd58d8d9595960b21b606482015260840161039a565b60606124ef84846000856124f7565b949350505050565b6060824710156125585760405162461bcd60e51b815260206004820152602660248201527f416464726573733a20696e73756666696369656e742062616c616e636520666f6044820152651c8818d85b1b60d21b606482015260840161039a565b6001600160a01b0385163b6125af5760405162461bcd60e51b815260206004820152601d60248201527f416464726573733a2063616c6c20746f206e6f6e2d636f6e7472616374000000604482015260640161039a565b600080866001600160a01b031685876040516125cb919061338d565b60006040518083038185875af1925050503d8060008114612608576040519150601f19603f3d011682016040523d82523d6000602084013e61260d565b606091505b509150915061214982828660608315612627575081611651565b8251156126375782518084602001fd5b8160405162461bcd60e51b815260040161039a91906126a1565b60005b8381101561266c578181015183820152602001612654565b50506000910152565b6000815180845261268d816020860160208601612651565b601f01601f19169290920160200192915050565b6020815260006116516020830184612675565b80151581146126c257600080fd5b50565b6000602082840312156126d757600080fd5b8135611651816126b4565b6001600160a01b03811681146126c257600080fd5b8035610db9816126e2565b634e487b7160e01b600052604160045260246000fd5b604051601f8201601f191681016001600160401b038111828210171561274057612740612702565b604052919050565b60006001600160401b0382111561276157612761612702565b50601f01601f191660200190565b600082601f83011261278057600080fd5b813561279361278e82612748565b612718565b8181528460208386010111156127a857600080fd5b816020850160208301376000918101602001919091529392505050565b600080600080608085870312156127db57600080fd5b84356127e6816126e2565b935060208501356127f6816126e2565b92506040850135915060608501356001600160401b0381111561281857600080fd5b6128248782880161276f565b91505092959194509250565b60006020828403121561284257600080fd5b5035919050565b60008083601f84011261285b57600080fd5b5081356001600160401b0381111561287257600080fd5b60208301915083602082850101111561288a57600080fd5b9250929050565b6000806000604084860312156128a657600080fd5b83356128b1816126e2565b925060208401356001600160401b038111156128cc57600080fd5b6128d886828701612849565b9497909650939450505050565b6000602082840312156128f757600080fd5b8135611651816126e2565b60006040828403121561291457600080fd5b604051604081016001600160401b03828210818311171561293757612937612702565b816040528293508435915063ffffffff8216821461295457600080fd5b9082526020840135908082111561296a57600080fd5b506129778582860161276f565b6020830152505092915050565b600080600080600080600060e0888a03121561299f57600080fd5b87356001600160401b03808211156129b657600080fd5b6129c28b838c0161276f565b985060208a013591506129d4826126e2565b909650604089013590808211156129ea57600080fd5b6129f68b838c0161276f565b965060608a01359150612a08826126e2565b819550612a1760808b016126f7565b9450612a2560a08b016126f7565b935060c08a0135915080821115612a3b57600080fd5b50612a488a828b01612902565b91505092959891949750929550565b60008060208385031215612a6a57600080fd5b82356001600160401b03811115612a8057600080fd5b612a8c85828601612849565b90969095509350505050565b6020808252825182820181905260009190848201906040850190845b81811015612ad057835183529284019291840191600101612ab4565b50909695505050505050565b60008060408385031215612aef57600080fd5b8235612afa816126e2565b946020939093013593505050565b60008060008060008060a08789031215612b2157600080fd5b8635612b2c816126e2565b95506020870135612b3c816126e2565b9450604087013593506060870135925060808701356001600160401b03811115612b6557600080fd5b612b7189828a01612849565b979a9699509497509295939492505050565b60008060408385031215612b9657600080fd5b8235612ba1816126e2565b91506020830135612bb1816126e2565b809150509250929050565b60008060008060808587031215612bd257600080fd5b8435612bdd816126e2565b93506020850135612bed816126e2565b93969395505050506040820135916060013590565b600080600060608486031215612c1757600080fd5b83359250602084013591506040840135612c30816126e2565b809150509250925092565b600080600060608486031215612c5057600080fd5b833592506020840135612c62816126e2565b929592945050506040919091013590565b6020808252825182820181905260009190848201906040850190845b81811015612ad05783516001600160a01b031683529284019291840191600101612c8f565b600181811c90821680612cc857607f821691505b602082108103612ce857634e487b7160e01b600052602260045260246000fd5b50919050565b6020808252818101527f4d6574686f64206973206f6e6c792063616c6c61626c65206279204f70656e51604082015260600190565b60208082526042908201527f436c61696d4d616e616765724f776e61626c653a2063616c6c6572206973206e60408201527f6f74207468652063757272656e74204f70656e5120436c61696d204d616e616760608201526132b960f11b608082015260a00190565b601f8211156120a557600081815260208120601f850160051c81016020861015612db25750805b601f850160051c820191505b81811015612dd157828155600101612dbe565b505050505050565b600019600383901b1c191660019190911b1790565b6001600160401b03831115612e0557612e05612702565b612e1983612e138354612cb4565b83612d8b565b6000601f841160018114612e475760008515612e355750838201355b612e3f8682612dd9565b845550612ea1565b600083815260209020601f19861690835b82811015612e785786850135825560209485019460019092019101612e58565b5086821015612e955760001960f88860031b161c19848701351681555b505060018560011b0183555b5050505050565b81516001600160401b03811115612ec157612ec1612702565b612ed581612ecf8454612cb4565b84612d8b565b602080601f831160018114612f045760008415612ef25750858301515b612efc8582612dd9565b865550612dd1565b600085815260208120601f198616915b82811015612f3357888601518255948401946001909101908401612f14565b5085821015612f515787850151600019600388901b60f8161c191681555b5050505050600190811b01905550565b8051610db9816126b4565b8051610db9816126e2565b600082601f830112612f8857600080fd5b8151612f9661278e82612748565b818152846020838601011115612fab57600080fd5b6124ef826020830160208701612651565b60008060008060008060008060006101208a8c031215612fdb57600080fd5b612fe48a612f61565b9850612ff260208b01612f6c565b975060408a0151965061300760608b01612f61565b955061301560808b01612f61565b945061302360a08b01612f61565b935060c08a01516001600160401b038082111561303f57600080fd5b61304b8d838e01612f77565b945060e08c015191508082111561306157600080fd5b61306d8d838e01612f77565b93506101008c015191508082111561308457600080fd5b506130918c828d01612f77565b9150509295985092959850929598565b6020808252601f908201527f5265656e7472616e637947756172643a207265656e7472616e742063616c6c00604082015260600190565b60208082526046908201527f4465706f7369744d616e616765724f776e61626c653a2063616c6c657220697360408201527f206e6f74207468652063757272656e74204f70656e51204465706f736974204d60608201526530b730b3b2b960d11b608082015260a00190565b6000602080838503121561315757600080fd5b82516001600160401b038082111561316e57600080fd5b818501915085601f83011261318257600080fd5b81518181111561319457613194612702565b8060051b91506131a5848301612718565b81815291830184019184810190888411156131bf57600080fd5b938501935b838510156131dd578451825293850193908501906131c4565b98975050505050505050565b634e487b7160e01b600052603260045260246000fd5b634e487b7160e01b600052601160045260246000fd5b80820180821115610db357610db36131ff565b60006001820161323a5761323a6131ff565b5060010190565b60006020828403121561325357600080fd5b5051919050565b81810381811115610db357610db36131ff565b6020808252602b908201527f496e697469616c697a61626c653a20636f6e7472616374206973206e6f74206960408201526a6e697469616c697a696e6760a81b606082015260800190565b6001600160a01b039384168152919092166020820152604081019190915260600190565b6040815260008084546132ee81612cb4565b8060408601526060600180841660008114613310576001811461332a5761335b565b60ff1985168884015283151560051b88018301955061335b565b8960005260208060002060005b868110156133525781548b8201870152908401908201613337565b8a018501975050505b50505050506020929092019290925292915050565b60006020828403121561338257600080fd5b8151611651816126b4565b6000825161339f818460208701612651565b919091019291505056fea264697066735822122004b789b12fdf5e0611568ff1e322e81ae5e3e1fccf3a1aa270418f2f38db5e0264736f6c63430008110033",
  "linkReferences": {},
  "deployedLinkReferences": {}
}