{
  "_format": "hh-sol-artifact-1",
  "contractName": "OpenQV2",
  "sourceName": "contracts/OpenQ/Implementations/OpenQV2.sol",
  "abi": [
    {
      "inputs": [],
      "stateMutability": "nonpayable",
      "type": "constructor"
    },
    {
      "anonymous": false,
      "inputs": [
        {
          "indexed": false,
          "internalType": "address",
          "name": "previousAdmin",
          "type": "address"
        },
        {
          "indexed": false,
          "internalType": "address",
          "name": "newAdmin",
          "type": "address"
        }
      ],
      "name": "AdminChanged",
      "type": "event"
    },
    {
      "anonymous": false,
      "inputs": [
        {
          "indexed": true,
          "internalType": "address",
          "name": "beacon",
          "type": "address"
        }
      ],
      "name": "BeaconUpgraded",
      "type": "event"
    },
    {
      "anonymous": false,
      "inputs": [
        {
          "indexed": false,
          "internalType": "string",
          "name": "bountyId",
          "type": "string"
        },
        {
          "indexed": false,
          "internalType": "address",
          "name": "bountyAddress",
          "type": "address"
        },
        {
          "indexed": false,
          "internalType": "string",
          "name": "organization",
          "type": "string"
        },
        {
          "indexed": false,
          "internalType": "address",
          "name": "closer",
          "type": "address"
        },
        {
          "indexed": false,
          "internalType": "uint256",
          "name": "bountyClosedTime",
          "type": "uint256"
        },
        {
          "indexed": false,
          "internalType": "uint256",
          "name": "bountyType",
          "type": "uint256"
        },
        {
          "indexed": false,
          "internalType": "bytes",
          "name": "data",
          "type": "bytes"
        },
        {
          "indexed": false,
          "internalType": "uint256",
          "name": "version",
          "type": "uint256"
        }
      ],
      "name": "BountyClosed",
      "type": "event"
    },
    {
      "anonymous": false,
      "inputs": [
        {
          "indexed": false,
          "internalType": "string",
          "name": "bountyId",
          "type": "string"
        },
        {
          "indexed": false,
          "internalType": "string",
          "name": "organization",
          "type": "string"
        },
        {
          "indexed": false,
          "internalType": "address",
          "name": "issuerAddress",
          "type": "address"
        },
        {
          "indexed": false,
          "internalType": "address",
          "name": "bountyAddress",
          "type": "address"
        },
        {
          "indexed": false,
          "internalType": "uint256",
          "name": "bountyMintTime",
          "type": "uint256"
        },
        {
          "indexed": false,
          "internalType": "uint256",
          "name": "bountyType",
          "type": "uint256"
        },
        {
          "indexed": false,
          "internalType": "bytes",
          "name": "data",
          "type": "bytes"
        },
        {
          "indexed": false,
          "internalType": "uint256",
          "name": "version",
          "type": "uint256"
        }
      ],
      "name": "BountyCreated",
      "type": "event"
    },
    {
      "anonymous": false,
      "inputs": [
        {
          "indexed": false,
          "internalType": "uint256",
          "name": "claimTime",
          "type": "uint256"
        },
        {
          "indexed": false,
          "internalType": "uint256",
          "name": "bountyType",
          "type": "uint256"
        },
        {
          "indexed": false,
          "internalType": "bytes",
          "name": "data",
          "type": "bytes"
        },
        {
          "indexed": false,
          "internalType": "uint256",
          "name": "version",
          "type": "uint256"
        }
      ],
      "name": "ClaimSuccess",
      "type": "event"
    },
    {
      "anonymous": false,
      "inputs": [
        {
          "indexed": false,
          "internalType": "bytes32",
          "name": "depositId",
          "type": "bytes32"
        },
        {
          "indexed": false,
          "internalType": "uint256",
          "name": "newExpiration",
          "type": "uint256"
        },
        {
          "indexed": false,
          "internalType": "uint256",
          "name": "bountyType",
          "type": "uint256"
        },
        {
          "indexed": false,
          "internalType": "bytes",
          "name": "data",
          "type": "bytes"
        },
        {
          "indexed": false,
          "internalType": "uint256",
          "name": "version",
          "type": "uint256"
        }
      ],
      "name": "DepositExtended",
      "type": "event"
    },
    {
      "anonymous": false,
      "inputs": [
        {
          "indexed": false,
          "internalType": "bytes32",
          "name": "depositId",
          "type": "bytes32"
        },
        {
          "indexed": false,
          "internalType": "string",
          "name": "bountyId",
          "type": "string"
        },
        {
          "indexed": false,
          "internalType": "address",
          "name": "bountyAddress",
          "type": "address"
        },
        {
          "indexed": false,
          "internalType": "string",
          "name": "organization",
          "type": "string"
        },
        {
          "indexed": false,
          "internalType": "uint256",
          "name": "refundTime",
          "type": "uint256"
        },
        {
          "indexed": false,
          "internalType": "address",
          "name": "tokenAddress",
          "type": "address"
        },
        {
          "indexed": false,
          "internalType": "uint256",
          "name": "volume",
          "type": "uint256"
        },
        {
          "indexed": false,
          "internalType": "uint256",
          "name": "bountyType",
          "type": "uint256"
        },
        {
          "indexed": false,
          "internalType": "bytes",
          "name": "data",
          "type": "bytes"
        },
        {
          "indexed": false,
          "internalType": "uint256",
          "name": "version",
          "type": "uint256"
        }
      ],
      "name": "DepositRefunded",
      "type": "event"
    },
    {
      "anonymous": false,
      "inputs": [
        {
          "indexed": false,
          "internalType": "string",
          "name": "externalUserId",
          "type": "string"
        },
        {
          "indexed": false,
          "internalType": "address",
          "name": "newAddress",
          "type": "address"
        },
        {
          "indexed": false,
          "internalType": "bytes",
          "name": "data",
          "type": "bytes"
        },
        {
          "indexed": false,
          "internalType": "uint256",
          "name": "version",
          "type": "uint256"
        }
      ],
      "name": "ExternalUserIdAssociatedWithAddress",
      "type": "event"
    },
    {
      "anonymous": false,
      "inputs": [
        {
          "indexed": false,
          "internalType": "address",
          "name": "bountyAddress",
          "type": "address"
        },
        {
          "indexed": false,
          "internalType": "address",
          "name": "fundingGoalTokenAddress",
          "type": "address"
        },
        {
          "indexed": false,
          "internalType": "uint256",
          "name": "fundingGoalVolume",
          "type": "uint256"
        },
        {
          "indexed": false,
          "internalType": "uint256",
          "name": "bountyType",
          "type": "uint256"
        },
        {
          "indexed": false,
          "internalType": "bytes",
          "name": "data",
          "type": "bytes"
        },
        {
          "indexed": false,
          "internalType": "uint256",
          "name": "version",
          "type": "uint256"
        }
      ],
      "name": "FundingGoalSet",
      "type": "event"
    },
    {
      "anonymous": false,
      "inputs": [
        {
          "indexed": false,
          "internalType": "uint8",
          "name": "version",
          "type": "uint8"
        }
      ],
      "name": "Initialized",
      "type": "event"
    },
    {
      "anonymous": false,
      "inputs": [
        {
          "indexed": false,
          "internalType": "string",
          "name": "bountyId",
          "type": "string"
        },
        {
          "indexed": false,
          "internalType": "address",
          "name": "bountyAddress",
          "type": "address"
        },
        {
          "indexed": false,
          "internalType": "string",
          "name": "organization",
          "type": "string"
        },
        {
          "indexed": false,
          "internalType": "address",
          "name": "closer",
          "type": "address"
        },
        {
          "indexed": false,
          "internalType": "uint256",
          "name": "payoutTime",
          "type": "uint256"
        },
        {
          "indexed": false,
          "internalType": "address",
          "name": "tokenAddress",
          "type": "address"
        },
        {
          "indexed": false,
          "internalType": "uint256",
          "name": "tokenId",
          "type": "uint256"
        },
        {
          "indexed": false,
          "internalType": "uint256",
          "name": "bountyType",
          "type": "uint256"
        },
        {
          "indexed": false,
          "internalType": "bytes",
          "name": "data",
          "type": "bytes"
        },
        {
          "indexed": false,
          "internalType": "uint256",
          "name": "version",
          "type": "uint256"
        }
      ],
      "name": "NFTClaimed",
      "type": "event"
    },
    {
      "anonymous": false,
      "inputs": [
        {
          "indexed": false,
          "internalType": "bytes32",
          "name": "depositId",
          "type": "bytes32"
        },
        {
          "indexed": false,
          "internalType": "address",
          "name": "bountyAddress",
          "type": "address"
        },
        {
          "indexed": false,
          "internalType": "string",
          "name": "bountyId",
          "type": "string"
        },
        {
          "indexed": false,
          "internalType": "string",
          "name": "organization",
          "type": "string"
        },
        {
          "indexed": false,
          "internalType": "address",
          "name": "tokenAddress",
          "type": "address"
        },
        {
          "indexed": false,
          "internalType": "uint256",
          "name": "receiveTime",
          "type": "uint256"
        },
        {
          "indexed": false,
          "internalType": "address",
          "name": "sender",
          "type": "address"
        },
        {
          "indexed": false,
          "internalType": "uint256",
          "name": "expiration",
          "type": "uint256"
        },
        {
          "indexed": false,
          "internalType": "uint256",
          "name": "tokenId",
          "type": "uint256"
        },
        {
          "indexed": false,
          "internalType": "uint256",
          "name": "bountyType",
          "type": "uint256"
        },
        {
          "indexed": false,
          "internalType": "bytes",
          "name": "data",
          "type": "bytes"
        },
        {
          "indexed": false,
          "internalType": "uint256",
          "name": "version",
          "type": "uint256"
        }
      ],
      "name": "NFTDepositReceived",
      "type": "event"
    },
    {
      "anonymous": false,
      "inputs": [
        {
          "indexed": true,
          "internalType": "address",
          "name": "previousOracle",
          "type": "address"
        },
        {
          "indexed": true,
          "internalType": "address",
          "name": "newOracle",
          "type": "address"
        }
      ],
      "name": "OracleTransferred",
      "type": "event"
    },
    {
      "anonymous": false,
      "inputs": [
        {
          "indexed": true,
          "internalType": "address",
          "name": "previousOwner",
          "type": "address"
        },
        {
          "indexed": true,
          "internalType": "address",
          "name": "newOwner",
          "type": "address"
        }
      ],
      "name": "OwnershipTransferred",
      "type": "event"
    },
    {
      "anonymous": false,
      "inputs": [
        {
          "indexed": false,
          "internalType": "address",
          "name": "bountyAddress",
          "type": "address"
        },
        {
          "indexed": false,
          "internalType": "address",
          "name": "payoutTokenAddress",
          "type": "address"
        },
        {
          "indexed": false,
          "internalType": "uint256[]",
          "name": "payoutSchedule",
          "type": "uint256[]"
        },
        {
          "indexed": false,
          "internalType": "uint256",
          "name": "bountyType",
          "type": "uint256"
        },
        {
          "indexed": false,
          "internalType": "bytes",
          "name": "data",
          "type": "bytes"
        },
        {
          "indexed": false,
          "internalType": "uint256",
          "name": "version",
          "type": "uint256"
        }
      ],
      "name": "PayoutScheduleSet",
      "type": "event"
    },
    {
      "anonymous": false,
      "inputs": [
        {
          "indexed": false,
          "internalType": "address",
          "name": "bountyAddress",
          "type": "address"
        },
        {
          "indexed": false,
          "internalType": "address",
          "name": "payoutTokenAddress",
          "type": "address"
        },
        {
          "indexed": false,
          "internalType": "uint256",
          "name": "payoutTokenVolume",
          "type": "uint256"
        },
        {
          "indexed": false,
          "internalType": "uint256",
          "name": "bountyType",
          "type": "uint256"
        },
        {
          "indexed": false,
          "internalType": "bytes",
          "name": "data",
          "type": "bytes"
        },
        {
          "indexed": false,
          "internalType": "uint256",
          "name": "version",
          "type": "uint256"
        }
      ],
      "name": "PayoutSet",
      "type": "event"
    },
    {
      "anonymous": false,
      "inputs": [
        {
          "indexed": false,
          "internalType": "address",
          "name": "bountyAddress",
          "type": "address"
        },
        {
          "indexed": false,
          "internalType": "address",
          "name": "claimant",
          "type": "address"
        },
        {
          "indexed": false,
          "internalType": "bytes",
          "name": "data",
          "type": "bytes"
        },
        {
          "indexed": false,
          "internalType": "uint256",
          "name": "version",
          "type": "uint256"
        }
      ],
      "name": "TierClaimed",
      "type": "event"
    },
    {
      "anonymous": false,
      "inputs": [
        {
          "indexed": false,
          "internalType": "string",
          "name": "bountyId",
          "type": "string"
        },
        {
          "indexed": false,
          "internalType": "address",
          "name": "bountyAddress",
          "type": "address"
        },
        {
          "indexed": false,
          "internalType": "string",
          "name": "organization",
          "type": "string"
        },
        {
          "indexed": false,
          "internalType": "address",
          "name": "closer",
          "type": "address"
        },
        {
          "indexed": false,
          "internalType": "uint256",
          "name": "payoutTime",
          "type": "uint256"
        },
        {
          "indexed": false,
          "internalType": "address",
          "name": "tokenAddress",
          "type": "address"
        },
        {
          "indexed": false,
          "internalType": "uint256",
          "name": "volume",
          "type": "uint256"
        },
        {
          "indexed": false,
          "internalType": "uint256",
          "name": "bountyType",
          "type": "uint256"
        },
        {
          "indexed": false,
          "internalType": "bytes",
          "name": "data",
          "type": "bytes"
        },
        {
          "indexed": false,
          "internalType": "uint256",
          "name": "version",
          "type": "uint256"
        }
      ],
      "name": "TokenBalanceClaimed",
      "type": "event"
    },
    {
      "anonymous": false,
      "inputs": [
        {
          "indexed": false,
          "internalType": "bytes32",
          "name": "depositId",
          "type": "bytes32"
        },
        {
          "indexed": false,
          "internalType": "address",
          "name": "bountyAddress",
          "type": "address"
        },
        {
          "indexed": false,
          "internalType": "string",
          "name": "bountyId",
          "type": "string"
        },
        {
          "indexed": false,
          "internalType": "string",
          "name": "organization",
          "type": "string"
        },
        {
          "indexed": false,
          "internalType": "address",
          "name": "tokenAddress",
          "type": "address"
        },
        {
          "indexed": false,
          "internalType": "uint256",
          "name": "receiveTime",
          "type": "uint256"
        },
        {
          "indexed": false,
          "internalType": "address",
          "name": "sender",
          "type": "address"
        },
        {
          "indexed": false,
          "internalType": "uint256",
          "name": "expiration",
          "type": "uint256"
        },
        {
          "indexed": false,
          "internalType": "uint256",
          "name": "volume",
          "type": "uint256"
        },
        {
          "indexed": false,
          "internalType": "uint256",
          "name": "bountyType",
          "type": "uint256"
        },
        {
          "indexed": false,
          "internalType": "bytes",
          "name": "data",
          "type": "bytes"
        },
        {
          "indexed": false,
          "internalType": "uint256",
          "name": "version",
          "type": "uint256"
        }
      ],
      "name": "TokenDepositReceived",
      "type": "event"
    },
    {
      "anonymous": false,
      "inputs": [
        {
          "indexed": true,
          "internalType": "address",
          "name": "implementation",
          "type": "address"
        }
      ],
      "name": "Upgraded",
      "type": "event"
    },
    {
      "inputs": [],
      "name": "VERSION_1",
      "outputs": [
        {
          "internalType": "uint256",
          "name": "",
          "type": "uint256"
        }
      ],
      "stateMutability": "view",
      "type": "function"
    },
    {
      "inputs": [],
      "name": "VERSION_2",
      "outputs": [
        {
          "internalType": "uint256",
          "name": "",
          "type": "uint256"
        }
      ],
      "stateMutability": "view",
      "type": "function"
    },
    {
      "inputs": [
        {
          "internalType": "address",
          "name": "",
          "type": "address"
        }
      ],
      "name": "addressToExternalUserId",
      "outputs": [
        {
          "internalType": "string",
          "name": "",
          "type": "string"
        }
      ],
      "stateMutability": "view",
      "type": "function"
    },
    {
      "inputs": [
        {
          "internalType": "string",
          "name": "_externalUserId",
          "type": "string"
        },
        {
          "internalType": "address",
          "name": "_associatedAddress",
          "type": "address"
        }
      ],
      "name": "associateExternalIdToAddress",
      "outputs": [],
      "stateMutability": "nonpayable",
      "type": "function"
    },
    {
      "inputs": [
        {
          "internalType": "address",
          "name": "_bountyAddress",
          "type": "address"
        }
      ],
      "name": "bountyAddressToBountyId",
      "outputs": [
        {
          "internalType": "string",
          "name": "",
          "type": "string"
        }
      ],
      "stateMutability": "view",
      "type": "function"
    },
    {
      "inputs": [],
      "name": "bountyFactory",
      "outputs": [
        {
          "internalType": "contract BountyFactory",
          "name": "",
          "type": "address"
        }
      ],
      "stateMutability": "view",
      "type": "function"
    },
    {
      "inputs": [
        {
          "internalType": "string",
          "name": "",
          "type": "string"
        }
      ],
      "name": "bountyIdToAddress",
      "outputs": [
        {
          "internalType": "address",
          "name": "",
          "type": "address"
        }
      ],
      "stateMutability": "view",
      "type": "function"
    },
    {
      "inputs": [
        {
          "internalType": "string",
          "name": "_bountyId",
          "type": "string"
        }
      ],
      "name": "bountyIsOpen",
      "outputs": [
        {
          "internalType": "bool",
          "name": "",
          "type": "bool"
        }
      ],
      "stateMutability": "view",
      "type": "function"
    },
    {
      "inputs": [
        {
          "internalType": "string",
          "name": "_bountyId",
          "type": "string"
        }
      ],
      "name": "bountyType",
      "outputs": [
        {
          "internalType": "uint256",
          "name": "",
          "type": "uint256"
        }
      ],
      "stateMutability": "view",
      "type": "function"
    },
    {
      "inputs": [],
      "name": "claimManager",
      "outputs": [
        {
          "internalType": "address",
          "name": "",
          "type": "address"
        }
      ],
      "stateMutability": "view",
      "type": "function"
    },
    {
      "inputs": [
        {
          "internalType": "string",
          "name": "_bountyId",
          "type": "string"
        }
      ],
      "name": "closeOngoing",
      "outputs": [],
      "stateMutability": "nonpayable",
      "type": "function"
    },
    {
      "inputs": [],
      "name": "depositManager",
      "outputs": [
        {
          "internalType": "address",
          "name": "",
          "type": "address"
        }
      ],
      "stateMutability": "view",
      "type": "function"
    },
    {
      "inputs": [
        {
          "internalType": "string",
          "name": "",
          "type": "string"
        }
      ],
      "name": "externalUserIdToAddress",
      "outputs": [
        {
          "internalType": "address",
          "name": "",
          "type": "address"
        }
      ],
      "stateMutability": "view",
      "type": "function"
    },
    {
      "inputs": [],
      "name": "getImplementation",
      "outputs": [
        {
          "internalType": "address",
          "name": "",
          "type": "address"
        }
      ],
      "stateMutability": "view",
      "type": "function"
    },
    {
      "inputs": [],
      "name": "initialize",
      "outputs": [],
      "stateMutability": "nonpayable",
      "type": "function"
    },
    {
      "inputs": [
        {
          "internalType": "string",
          "name": "_bountyId",
          "type": "string"
        },
        {
          "internalType": "string",
          "name": "_organization",
          "type": "string"
        },
        {
          "components": [
            {
              "internalType": "uint32",
              "name": "operationType",
              "type": "uint32"
            },
            {
              "internalType": "bytes",
              "name": "data",
              "type": "bytes"
            }
          ],
          "internalType": "struct OpenQDefinitions.InitOperation",
          "name": "_initOperation",
          "type": "tuple"
        }
      ],
      "name": "mintBounty",
      "outputs": [
        {
          "internalType": "address",
          "name": "",
          "type": "address"
        }
      ],
      "stateMutability": "nonpayable",
      "type": "function"
    },
    {
      "inputs": [
        {
          "internalType": "string",
          "name": "_bountyId",
          "type": "string"
        },
        {
          "internalType": "string",
          "name": "claimant",
          "type": "string"
        },
        {
          "internalType": "string",
          "name": "claimantAsset",
          "type": "string"
        }
      ],
      "name": "ongoingClaimed",
      "outputs": [
        {
          "internalType": "bool",
          "name": "",
          "type": "bool"
        }
      ],
      "stateMutability": "view",
      "type": "function"
    },
    {
      "inputs": [],
      "name": "oracle",
      "outputs": [
        {
          "internalType": "address",
          "name": "",
          "type": "address"
        }
      ],
      "stateMutability": "view",
      "type": "function"
    },
    {
      "inputs": [],
      "name": "owner",
      "outputs": [
        {
          "internalType": "address",
          "name": "",
          "type": "address"
        }
      ],
      "stateMutability": "view",
      "type": "function"
    },
    {
      "inputs": [],
      "name": "proxiableUUID",
      "outputs": [
        {
          "internalType": "bytes32",
          "name": "",
          "type": "bytes32"
        }
      ],
      "stateMutability": "view",
      "type": "function"
    },
    {
      "inputs": [],
      "name": "renounceOwnership",
      "outputs": [],
      "stateMutability": "nonpayable",
      "type": "function"
    },
    {
      "inputs": [
        {
          "internalType": "address",
          "name": "_bountyFactory",
          "type": "address"
        }
      ],
      "name": "setBountyFactory",
      "outputs": [],
      "stateMutability": "nonpayable",
      "type": "function"
    },
    {
      "inputs": [
        {
          "internalType": "address",
          "name": "_claimManager",
          "type": "address"
        }
      ],
      "name": "setClaimManager",
      "outputs": [],
      "stateMutability": "nonpayable",
      "type": "function"
    },
    {
      "inputs": [
        {
          "internalType": "address",
          "name": "_depositManager",
          "type": "address"
        }
      ],
      "name": "setDepositManager",
      "outputs": [],
      "stateMutability": "nonpayable",
      "type": "function"
    },
    {
      "inputs": [
        {
          "internalType": "string",
          "name": "_bountyId",
          "type": "string"
        },
        {
          "internalType": "address",
          "name": "_fundingGoalToken",
          "type": "address"
        },
        {
          "internalType": "uint256",
          "name": "_fundingGoalVolume",
          "type": "uint256"
        }
      ],
      "name": "setFundingGoal",
      "outputs": [],
      "stateMutability": "nonpayable",
      "type": "function"
    },
    {
      "inputs": [
        {
          "internalType": "string",
          "name": "_bountyId",
          "type": "string"
        },
        {
          "internalType": "address",
          "name": "_payoutToken",
          "type": "address"
        },
        {
          "internalType": "uint256",
          "name": "_payoutVolume",
          "type": "uint256"
        }
      ],
      "name": "setPayout",
      "outputs": [],
      "stateMutability": "nonpayable",
      "type": "function"
    },
    {
      "inputs": [
        {
          "internalType": "string",
          "name": "_bountyId",
          "type": "string"
        },
        {
          "internalType": "uint256[]",
          "name": "_payoutSchedule",
          "type": "uint256[]"
        }
      ],
      "name": "setPayoutSchedule",
      "outputs": [],
      "stateMutability": "nonpayable",
      "type": "function"
    },
    {
      "inputs": [
        {
          "internalType": "string",
          "name": "_bountyId",
          "type": "string"
        },
        {
          "internalType": "uint256[]",
          "name": "_payoutSchedule",
          "type": "uint256[]"
        },
        {
          "internalType": "address",
          "name": "_payoutTokenAddress",
          "type": "address"
        }
      ],
      "name": "setPayoutScheduleFixed",
      "outputs": [],
      "stateMutability": "nonpayable",
      "type": "function"
    },
    {
      "inputs": [
        {
          "internalType": "string",
          "name": "_bountyId",
          "type": "string"
        }
      ],
      "name": "solvent",
      "outputs": [
        {
          "internalType": "bool",
          "name": "",
          "type": "bool"
        }
      ],
      "stateMutability": "view",
      "type": "function"
    },
    {
      "inputs": [
        {
          "internalType": "string",
          "name": "_bountyId",
          "type": "string"
        },
        {
          "internalType": "uint256",
          "name": "_tier",
          "type": "uint256"
        }
      ],
      "name": "tierClaimed",
      "outputs": [
        {
          "internalType": "bool",
          "name": "",
          "type": "bool"
        }
      ],
      "stateMutability": "view",
      "type": "function"
    },
    {
      "inputs": [
        {
          "internalType": "address",
          "name": "_newOracle",
          "type": "address"
        }
      ],
      "name": "transferOracle",
      "outputs": [],
      "stateMutability": "nonpayable",
      "type": "function"
    },
    {
      "inputs": [
        {
          "internalType": "address",
          "name": "newOwner",
          "type": "address"
        }
      ],
      "name": "transferOwnership",
      "outputs": [],
      "stateMutability": "nonpayable",
      "type": "function"
    },
    {
      "inputs": [
        {
          "internalType": "address",
          "name": "newImplementation",
          "type": "address"
        }
      ],
      "name": "upgradeTo",
      "outputs": [],
      "stateMutability": "nonpayable",
      "type": "function"
    },
    {
      "inputs": [
        {
          "internalType": "address",
          "name": "newImplementation",
          "type": "address"
        },
        {
          "internalType": "bytes",
          "name": "data",
          "type": "bytes"
        }
      ],
      "name": "upgradeToAndCall",
      "outputs": [],
      "stateMutability": "payable",
      "type": "function"
    }
  ],
  "bytecode": "0x60a06040523060805234801561001457600080fd5b506080516137ac6100d86000396000818161081d0152818161085d015281816108e70152818161092701528181610a8c01528181610acc01528181610bad01528181610bed01528181610f7901528181610fb90152818161103501528181611194015281816111d4015281816114f701528181611537015281816115f701528181611637015281816119360152818161197601528181611deb01528181611e2b01528181611f6001528181611fa0015281816121af01526121ef01526137ac6000f3fe6080604052600436106101f95760003560e01c80637dc0d1d01161010d578063b6da2144116100a0578063e73268061161006f578063e7326806146105dc578063f2fde38b146105fc578063f8d7c19d1461061c578063fa4657ad1461063c578063fd1b2e3f1461065c57600080fd5b8063b6da21441461055c578063b8f75c0b1461057c578063b91a53df1461059c578063bdc969c6146105bc57600080fd5b8063957016ed116100dc578063957016ed146104e7578063a8bca7b814610507578063a9a36dcd14610527578063aaf10f421461054757600080fd5b80637dc0d1d0146104815780638129fc1c1461049f5780638ca4d584146104b45780638da5cb5b146104c957600080fd5b80634352dc1b1161019057806357f8520c1161015f57806357f8520c146103ca5780636c7ac9d8146103ea57806371006cf41461040a578063715018a61461044c57806371b30d8c1461046157600080fd5b80634352dc1b1461034157806348bd1e99146103615780634f1ef286146103a257806352d1902d146103b557600080fd5b806326c20e5f116101cc57806326c20e5f1461029657806336200461146102b95780633659cfe6146102e95780633948eddd1461030957600080fd5b80630681ebe5146101fe57806310fd86c81461022057806316a2a0cc14610256578063228d71a914610276575b600080fd5b34801561020a57600080fd5b5061021e610219366004612aee565b61067c565b005b34801561022c57600080fd5b5061024061023b366004612b44565b61079f565b60405161024d9190612bb1565b60405180910390f35b34801561026257600080fd5b5061021e610271366004612b44565b610813565b34801561028257600080fd5b5061021e610291366004612b44565b6108dd565b3480156102a257600080fd5b506102ab600181565b60405190815260200161024d565b3480156102c557600080fd5b506102d96102d4366004612bc4565b6109a7565b604051901515815260200161024d565b3480156102f557600080fd5b5061021e610304366004612b44565b610a82565b34801561031557600080fd5b50610329610324366004612d50565b610b4a565b6040516001600160a01b03909116815260200161024d565b34801561034d57600080fd5b506102d961035c366004612e2f565b610dfe565b34801561036d57600080fd5b5061032961037c366004612e70565b805160208183018101805160fe825292820191909301209152546001600160a01b031681565b61021e6103b0366004612ec0565b610f6f565b3480156103c157600080fd5b506102ab611028565b3480156103d657600080fd5b506102406103e5366004612b44565b6110db565b3480156103f657600080fd5b5060fd54610329906001600160a01b031681565b34801561041657600080fd5b50610329610425366004612e70565b8051602081830181018051610100825292820191909301209152546001600160a01b031681565b34801561045857600080fd5b5061021e611176565b34801561046d57600080fd5b5061021e61047c366004612f0f565b61118a565b34801561048d57600080fd5b5060ff546001600160a01b0316610329565b3480156104ab57600080fd5b5061021e61142d565b3480156104c057600080fd5b506102ab600281565b3480156104d557600080fd5b506033546001600160a01b0316610329565b3480156104f357600080fd5b5061021e610502366004612faf565b6115ed565b34801561051357600080fd5b506102ab610522366004612e2f565b611881565b34801561053357600080fd5b5060fc54610329906001600160a01b031681565b34801561055357600080fd5b5061032961191d565b34801561056857600080fd5b5061021e610577366004612b44565b61192c565b34801561058857600080fd5b5060fb54610329906001600160a01b031681565b3480156105a857600080fd5b5061021e6105b7366004612e2f565b6119f6565b3480156105c857600080fd5b506102d96105d736600461301a565b611d3c565b3480156105e857600080fd5b5061021e6105f7366004612b44565b611de1565b34801561060857600080fd5b5061021e610617366004612b44565b611ee0565b34801561062857600080fd5b5061021e610637366004612f0f565b611f56565b34801561064857600080fd5b5061021e610657366004613065565b6121a5565b34801561066857600080fd5b506102d9610677366004612e2f565b61244b565b60ff546001600160a01b031633146106f45760405162461bcd60e51b815260206004820152603060248201527f4f7261636c697a653a2063616c6c6572206973206e6f7420746865206375727260448201526f656e74204f70656e51204f7261636c6560801b60648201526084015b60405180910390fd5b8061010084846040516107089291906130e8565b908152604080516020928190038301902080546001600160a01b0319166001600160a01b0394851617905591831660009081526101019091522061074d838583613180565b50604080516000815260208101918290527ff44f40bb141f723e878ef4a64f4e7cb43236fea95cd40ea55986a82a578867b79161079291869186918691600290613269565b60405180910390a1505050565b60606000829050806001600160a01b031663c17bd75e6040518163ffffffff1660e01b8152600401600060405180830381865afa1580156107e4573d6000803e3d6000fd5b505050506040513d6000823e601f3d908101601f1916820160405261080c91908101906132b1565b9392505050565b6001600160a01b037f000000000000000000000000000000000000000000000000000000000000000016300361085b5760405162461bcd60e51b81526004016106eb9061331e565b7f00000000000000000000000000000000000000000000000000000000000000006001600160a01b031661088d6124e8565b6001600160a01b0316146108b35760405162461bcd60e51b81526004016106eb9061336a565b6108bb612504565b60fb80546001600160a01b0319166001600160a01b0392909216919091179055565b6001600160a01b037f00000000000000000000000000000000000000000000000000000000000000001630036109255760405162461bcd60e51b81526004016106eb9061331e565b7f00000000000000000000000000000000000000000000000000000000000000006001600160a01b03166109576124e8565b6001600160a01b03161461097d5760405162461bcd60e51b81526004016106eb9061336a565b610985612504565b60fd80546001600160a01b0319166001600160a01b0392909216919091179055565b60008060fe88886040516109bc9291906130e8565b90815260405160209181900382018120546001600160a01b0316925082916000916109ef918a918a918a918a91016133b6565b60408051601f19818403018152908290528051602090910120636420fd9360e01b82526004820181905291506000906001600160a01b03841690636420fd9390602401602060405180830381865afa158015610a4f573d6000803e3d6000fd5b505050506040513d601f19601f82011682018060405250810190610a7391906133dd565b9b9a5050505050505050505050565b6001600160a01b037f0000000000000000000000000000000000000000000000000000000000000000163003610aca5760405162461bcd60e51b81526004016106eb9061331e565b7f00000000000000000000000000000000000000000000000000000000000000006001600160a01b0316610afc6124e8565b6001600160a01b031614610b225760405162461bcd60e51b81526004016106eb9061336a565b610b2b8161255e565b60408051600080825260208201909252610b4791839190612566565b50565b6000600260c95403610b9e5760405162461bcd60e51b815260206004820152601f60248201527f5265656e7472616e637947756172643a207265656e7472616e742063616c6c0060448201526064016106eb565b600260c9556001600160a01b037f0000000000000000000000000000000000000000000000000000000000000000163003610beb5760405162461bcd60e51b81526004016106eb9061331e565b7f00000000000000000000000000000000000000000000000000000000000000006001600160a01b0316610c1d6124e8565b6001600160a01b031614610c435760405162461bcd60e51b81526004016106eb9061336a565b60006001600160a01b031660fe8787604051610c609291906130e8565b908152604080519182900360209081018320548383019092526015835274424f554e54595f414c52454144595f45584953545360581b9083015290916001600160a01b0390911614610cc55760405162461bcd60e51b81526004016106eb9190612bb1565b5060fb5460fc5460fd546040516323e95f5160e11b81526000936001600160a01b03908116936347d2bea293610d11938d938d9333938e938e9392831692909116908d906004016133ff565b6020604051808303816000875af1158015610d30573d6000803e3d6000fd5b505050506040513d601f19601f82011682018060405250810190610d549190613484565b90508060fe8888604051610d699291906130e8565b90815260405190819003602001902080546001600160a01b03929092166001600160a01b03199092169190911790557f07bf14db09a3c8b7d7e240acc23ab6da8587183655a6ffcbda01ca7b026a375787878787338642610dca8787611881565b8b602001516001604051610de79a999897969594939291906134a1565b60405180910390a1600160c9559695505050505050565b60008060fe8484604051610e139291906130e8565b908152604080516020928190038301812054630b98090760e31b825291516001600160a01b03909216935083926000928492633aecd0e3928492635cc048389260048082019392918290030181865afa158015610e74573d6000803e3d6000fd5b505050506040513d601f19601f82011682018060405250810190610e989190613484565b6040516001600160e01b031960e084901b1681526001600160a01b039091166004820152602401602060405180830381865afa158015610edc573d6000803e3d6000fd5b505050506040513d601f19601f82011682018060405250810190610f00919061351c565b9050816001600160a01b031663b3f23b736040518163ffffffff1660e01b8152600401602060405180830381865afa158015610f40573d6000803e3d6000fd5b505050506040513d601f19601f82011682018060405250810190610f64919061351c565b111595945050505050565b6001600160a01b037f0000000000000000000000000000000000000000000000000000000000000000163003610fb75760405162461bcd60e51b81526004016106eb9061331e565b7f00000000000000000000000000000000000000000000000000000000000000006001600160a01b0316610fe96124e8565b6001600160a01b03161461100f5760405162461bcd60e51b81526004016106eb9061336a565b6110188261255e565b61102482826001612566565b5050565b6000306001600160a01b037f000000000000000000000000000000000000000000000000000000000000000016146110c85760405162461bcd60e51b815260206004820152603860248201527f555550535570677261646561626c653a206d757374206e6f742062652063616c60448201527f6c6564207468726f7567682064656c656761746563616c6c000000000000000060648201526084016106eb565b5060008051602061373083398151915290565b61010160205260009081526040902080546110f5906130f8565b80601f0160208091040260200160405190810160405280929190818152602001828054611121906130f8565b801561116e5780601f106111435761010080835404028352916020019161116e565b820191906000526020600020905b81548152906001019060200180831161115157829003601f168201915b505050505081565b61117e612504565b61118860006126d6565b565b6001600160a01b037f00000000000000000000000000000000000000000000000000000000000000001630036111d25760405162461bcd60e51b81526004016106eb9061331e565b7f00000000000000000000000000000000000000000000000000000000000000006001600160a01b03166112046124e8565b6001600160a01b03161461122a5760405162461bcd60e51b81526004016106eb9061336a565b600060fe858560405161123e9291906130e8565b9081526040805160209281900383018120546303a2870960e31b825291516001600160a01b03909216935083928392631d1438489260048082019392918290030181865afa158015611294573d6000803e3d6000fd5b505050506040513d601f19601f820116820180604052508101906112b89190613484565b6001600160a01b0316336001600160a01b0316146040518060400160405280601181526020017021a0a62622a92fa727aa2fa4a9a9aaa2a960791b815250906113145760405162461bcd60e51b81526004016106eb9190612bb1565b50604051633d0cb68760e11b81526001600160a01b03858116600483015260248201859052821690637a196d0e90604401600060405180830381600087803b15801561135f57600080fd5b505af1158015611373573d6000803e3d6000fd5b505050507fbb9405a972eb4ee3568c40dcd1a2c0ad2b86495f0478c68c5924d0a3773f282d828585846001600160a01b031663b3ca1f3b6040518163ffffffff1660e01b8152600401602060405180830381865afa1580156113d9573d6000803e3d6000fd5b505050506040513d601f19601f820116820180604052508101906113fd919061351c565b6040805160008152602081019182905261141d9594939291600190613535565b60405180910390a1505050505050565b600054610100900460ff161580801561144d5750600054600160ff909116105b806114675750303b158015611467575060005460ff166001145b6114ca5760405162461bcd60e51b815260206004820152602e60248201527f496e697469616c697a61626c653a20636f6e747261637420697320616c72656160448201526d191e481a5b9a5d1a585b1a5e995960921b60648201526084016106eb565b6000805460ff1916600117905580156114ed576000805461ff0019166101001790555b6001600160a01b037f00000000000000000000000000000000000000000000000000000000000000001630036115355760405162461bcd60e51b81526004016106eb9061331e565b7f00000000000000000000000000000000000000000000000000000000000000006001600160a01b03166115676124e8565b6001600160a01b03161461158d5760405162461bcd60e51b81526004016106eb9061336a565b611595612728565b61159d612757565b6115a561277e565b8015610b47576000805461ff0019169055604051600181527f7f26b83ff96e1f2b6a682f133852f6798a09c465da95921460cefb38474024989060200160405180910390a150565b6001600160a01b037f00000000000000000000000000000000000000000000000000000000000000001630036116355760405162461bcd60e51b81526004016106eb9061331e565b7f00000000000000000000000000000000000000000000000000000000000000006001600160a01b03166116676124e8565b6001600160a01b03161461168d5760405162461bcd60e51b81526004016106eb9061336a565b600060fe85856040516116a19291906130e8565b9081526040805160209281900383018120546303a2870960e31b825291516001600160a01b03909216935083928392631d1438489260048082019392918290030181865afa1580156116f7573d6000803e3d6000fd5b505050506040513d601f19601f8201168201806040525081019061171b9190613484565b6001600160a01b0316336001600160a01b0316146040518060400160405280601181526020017021a0a62622a92fa727aa2fa4a9a9aaa2a960791b815250906117775760405162461bcd60e51b81526004016106eb9190612bb1565b50604051631f2e3a3960e21b81526001600160a01b03821690637cb8e8e4906117a690879087906004016135b4565b600060405180830381600087803b1580156117c057600080fd5b505af11580156117d4573d6000803e3d6000fd5b505050507fc01596aef916fd836c1d861e3aa0bcabd30fa27830ebb88b76016236c942b4598260008686856001600160a01b031663b3ca1f3b6040518163ffffffff1660e01b8152600401602060405180830381865afa15801561183c573d6000803e3d6000fd5b505050506040513d601f19601f82011682018060405250810190611860919061351c565b6040805160008152602081019182905261141d9695949392916001906135c8565b60008060fe84846040516118969291906130e8565b9081526040805191829003602090810183205463b3ca1f3b60e01b845291516001600160a01b0390921693508392600092849263b3ca1f3b92600480820193918290030181865afa1580156118ef573d6000803e3d6000fd5b505050506040513d601f19601f82011682018060405250810190611913919061351c565b9695505050505050565b60006119276124e8565b905090565b6001600160a01b037f00000000000000000000000000000000000000000000000000000000000000001630036119745760405162461bcd60e51b81526004016106eb9061331e565b7f00000000000000000000000000000000000000000000000000000000000000006001600160a01b03166119a66124e8565b6001600160a01b0316146119cc5760405162461bcd60e51b81526004016106eb9061336a565b6119d4612504565b60fc80546001600160a01b0319166001600160a01b0392909216919091179055565b611a00828261244b565b6040518060400160405280601781526020017f434f4e54524143545f414c52454144595f434c4f53454400000000000000000081525090611a545760405162461bcd60e51b81526004016106eb9190612bb1565b506001611a618383611881565b146040518060400160405280601781526020017f4e4f545f414e5f4f4e474f494e475f434f4e545241435400000000000000000081525090611ab65760405162461bcd60e51b81526004016106eb9190612bb1565b50600060fe8383604051611acb9291906130e8565b9081526040805160209281900383018120546303a2870960e31b825291516001600160a01b0390921693508392631d143848926004808401938290030181865afa158015611b1d573d6000803e3d6000fd5b505050506040513d601f19601f82011682018060405250810190611b419190613484565b6001600160a01b0316336001600160a01b0316146040518060400160405280601181526020017021a0a62622a92fa727aa2fa4a9a9aaa2a960791b81525090611b9d5760405162461bcd60e51b81526004016106eb9190612bb1565b5060405163764e161b60e11b81523360048201526001600160a01b0382169063ec9c2c3690602401600060405180830381600087803b158015611bdf57600080fd5b505af1158015611bf3573d6000803e3d6000fd5b505050507fb9d76ba577270421a3b4826a02b81b7678f1d62214225408b99f94e42d78278c838360fe8686604051611c2c9291906130e8565b908152602001604051809103902060009054906101000a90046001600160a01b0316846001600160a01b03166323bd4d7a6040518163ffffffff1660e01b8152600401600060405180830381865afa158015611c8c573d6000803e3d6000fd5b505050506040513d6000823e601f3d908101601f19168201604052611cb491908101906132b1565b600042876001600160a01b031663b3ca1f3b6040518163ffffffff1660e01b8152600401602060405180830381865afa158015611cf5573d6000803e3d6000fd5b505050506040513d601f19601f82011682018060405250810190611d19919061351c565b604080516000815260208101918290526107929897969594939291600190613622565b60008060fe8585604051611d519291906130e8565b90815260405190819003602001812054634ee5bdc760e11b82526001600160a01b0316915081906000908290639dcb7b8e90611d9590889060040190815260200190565b602060405180830381865afa158015611db2573d6000803e3d6000fd5b505050506040513d601f19601f82011682018060405250810190611dd691906133dd565b979650505050505050565b6001600160a01b037f0000000000000000000000000000000000000000000000000000000000000000163003611e295760405162461bcd60e51b81526004016106eb9061331e565b7f00000000000000000000000000000000000000000000000000000000000000006001600160a01b0316611e5b6124e8565b6001600160a01b031614611e815760405162461bcd60e51b81526004016106eb9061336a565b611e89612504565b60408051808201909152600f81526e4e4f5f5a45524f5f4144445245535360881b60208201526001600160a01b038216611ed65760405162461bcd60e51b81526004016106eb9190612bb1565b50610b47816127ad565b611ee8612504565b6001600160a01b038116611f4d5760405162461bcd60e51b815260206004820152602660248201527f4f776e61626c653a206e6577206f776e657220697320746865207a65726f206160448201526564647265737360d01b60648201526084016106eb565b610b47816126d6565b6001600160a01b037f0000000000000000000000000000000000000000000000000000000000000000163003611f9e5760405162461bcd60e51b81526004016106eb9061331e565b7f00000000000000000000000000000000000000000000000000000000000000006001600160a01b0316611fd06124e8565b6001600160a01b031614611ff65760405162461bcd60e51b81526004016106eb9061336a565b600060fe858560405161200a9291906130e8565b9081526040805160209281900383018120546303a2870960e31b825291516001600160a01b03909216935083928392631d1438489260048082019392918290030181865afa158015612060573d6000803e3d6000fd5b505050506040513d601f19601f820116820180604052508101906120849190613484565b6001600160a01b0316336001600160a01b0316146040518060400160405280601181526020017021a0a62622a92fa727aa2fa4a9a9aaa2a960791b815250906120e05760405162461bcd60e51b81526004016106eb9190612bb1565b5060405163ceff310760e01b81526001600160a01b0385811660048301526024820185905282169063ceff310790604401600060405180830381600087803b15801561212b57600080fd5b505af115801561213f573d6000803e3d6000fd5b505050507f9ebf11c1043e634700e1019f0f2f99b428b0fe7e1d5f1d1a5cb3fc74137eb957828585846001600160a01b031663b3ca1f3b6040518163ffffffff1660e01b8152600401602060405180830381865afa1580156113d9573d6000803e3d6000fd5b6001600160a01b037f00000000000000000000000000000000000000000000000000000000000000001630036121ed5760405162461bcd60e51b81526004016106eb9061331e565b7f00000000000000000000000000000000000000000000000000000000000000006001600160a01b031661221f6124e8565b6001600160a01b0316146122455760405162461bcd60e51b81526004016106eb9061336a565b600060fe86866040516122599291906130e8565b9081526040805160209281900383018120546303a2870960e31b825291516001600160a01b03909216935083928392631d1438489260048082019392918290030181865afa1580156122af573d6000803e3d6000fd5b505050506040513d601f19601f820116820180604052508101906122d39190613484565b6001600160a01b0316336001600160a01b0316146040518060400160405280601181526020017021a0a62622a92fa727aa2fa4a9a9aaa2a960791b8152509061232f5760405162461bcd60e51b81526004016106eb9190612bb1565b50604051630309e3e760e31b81526001600160a01b0382169063184f1f38906123609088908890889060040161369c565b600060405180830381600087803b15801561237a57600080fd5b505af115801561238e573d6000803e3d6000fd5b505050507fc01596aef916fd836c1d861e3aa0bcabd30fa27830ebb88b76016236c942b45982848787856001600160a01b031663b3ca1f3b6040518163ffffffff1660e01b8152600401602060405180830381865afa1580156123f5573d6000803e3d6000fd5b505050506040513d601f19601f82011682018060405250810190612419919061351c565b6040805160008152602081019182905261243a9695949392916001906135c8565b60405180910390a150505050505050565b60008060fe84846040516124609291906130e8565b908152604080516020928190038301812054631006976960e11b825291516001600160a01b03909216935083926000928392859263200d2ed2926004808401938290030181865afa1580156124b9573d6000803e3d6000fd5b505050506040513d601f19601f820116820180604052508101906124dd919061351c565b149695505050505050565b600080516020613730833981519152546001600160a01b031690565b6033546001600160a01b031633146111885760405162461bcd60e51b815260206004820181905260248201527f4f776e61626c653a2063616c6c6572206973206e6f7420746865206f776e657260448201526064016106eb565b610b47612504565b7f4910fdfa16fed3260ed0e7147f7cc6da11a60208b5b9406d12a635614ffd91435460ff161561259e57612599836127ff565b505050565b826001600160a01b03166352d1902d6040518163ffffffff1660e01b8152600401602060405180830381865afa9250505080156125f8575060408051601f3d908101601f191682019092526125f59181019061351c565b60015b61265b5760405162461bcd60e51b815260206004820152602e60248201527f45524331393637557067726164653a206e657720696d706c656d656e7461746960448201526d6f6e206973206e6f74205555505360901b60648201526084016106eb565b60008051602061373083398151915281146126ca5760405162461bcd60e51b815260206004820152602960248201527f45524331393637557067726164653a20756e737570706f727465642070726f786044820152681a58589b195555525160ba1b60648201526084016106eb565b5061259983838361289b565b603380546001600160a01b038381166001600160a01b0319831681179093556040519116919082907f8be0079c531659141344cd1fd0a4f28419497f9722a3daafe3b4186f6b6457e090600090a35050565b600054610100900460ff1661274f5760405162461bcd60e51b81526004016106eb906136c8565b6111886128c6565b600054610100900460ff166111885760405162461bcd60e51b81526004016106eb906136c8565b600054610100900460ff166127a55760405162461bcd60e51b81526004016106eb906136c8565b6111886128f6565b60ff80546001600160a01b038381166001600160a01b0319831681179093556040519116919082907f9b0948b943e24ff3413cb400b2eeae4337138739aaf31759dc6e813e8076fbc390600090a35050565b6001600160a01b0381163b61286c5760405162461bcd60e51b815260206004820152602d60248201527f455243313936373a206e657720696d706c656d656e746174696f6e206973206e60448201526c1bdd08184818dbdb9d1c9858dd609a1b60648201526084016106eb565b60008051602061373083398151915280546001600160a01b0319166001600160a01b0392909216919091179055565b6128a483612924565b6000825111806128b15750805b15612599576128c08383612964565b50505050565b600054610100900460ff166128ed5760405162461bcd60e51b81526004016106eb906136c8565b611188336126d6565b600054610100900460ff1661291d5760405162461bcd60e51b81526004016106eb906136c8565b600160c955565b61292d816127ff565b6040516001600160a01b038216907fbc7cd75a20ee27fd9adebab32041f755214dbc6bffa90cc0225b39da2e5c2d3b90600090a250565b60606001600160a01b0383163b6129cc5760405162461bcd60e51b815260206004820152602660248201527f416464726573733a2064656c65676174652063616c6c20746f206e6f6e2d636f6044820152651b9d1c9858dd60d21b60648201526084016106eb565b600080846001600160a01b0316846040516129e79190613713565b600060405180830381855af49150503d8060008114612a22576040519150601f19603f3d011682016040523d82523d6000602084013e612a27565b606091505b5091509150612a4f828260405180606001604052806027815260200161375060279139612a58565b95945050505050565b60608315612a6757508161080c565b825115612a775782518084602001fd5b8160405162461bcd60e51b81526004016106eb9190612bb1565b60008083601f840112612aa357600080fd5b5081356001600160401b03811115612aba57600080fd5b602083019150836020828501011115612ad257600080fd5b9250929050565b6001600160a01b0381168114610b4757600080fd5b600080600060408486031215612b0357600080fd5b83356001600160401b03811115612b1957600080fd5b612b2586828701612a91565b9094509250506020840135612b3981612ad9565b809150509250925092565b600060208284031215612b5657600080fd5b813561080c81612ad9565b60005b83811015612b7c578181015183820152602001612b64565b50506000910152565b60008151808452612b9d816020860160208601612b61565b601f01601f19169290920160200192915050565b60208152600061080c6020830184612b85565b60008060008060008060608789031215612bdd57600080fd5b86356001600160401b0380821115612bf457600080fd5b612c008a838b01612a91565b90985096506020890135915080821115612c1957600080fd5b612c258a838b01612a91565b90965094506040890135915080821115612c3e57600080fd5b50612c4b89828a01612a91565b979a9699509497509295939492505050565b634e487b7160e01b600052604160045260246000fd5b604080519081016001600160401b0381118282101715612c9557612c95612c5d565b60405290565b604051601f8201601f191681016001600160401b0381118282101715612cc357612cc3612c5d565b604052919050565b60006001600160401b03821115612ce457612ce4612c5d565b50601f01601f191660200190565b6000612d05612d0084612ccb565b612c9b565b9050828152838383011115612d1957600080fd5b828260208301376000602084830101529392505050565b600082601f830112612d4157600080fd5b61080c83833560208501612cf2565b600080600080600060608688031215612d6857600080fd5b85356001600160401b0380821115612d7f57600080fd5b612d8b89838a01612a91565b90975095506020880135915080821115612da457600080fd5b612db089838a01612a91565b90955093506040880135915080821115612dc957600080fd5b908701906040828a031215612ddd57600080fd5b612de5612c73565b823563ffffffff81168114612df957600080fd5b8152602083013582811115612e0d57600080fd5b612e198b828601612d30565b6020830152508093505050509295509295909350565b60008060208385031215612e4257600080fd5b82356001600160401b03811115612e5857600080fd5b612e6485828601612a91565b90969095509350505050565b600060208284031215612e8257600080fd5b81356001600160401b03811115612e9857600080fd5b8201601f81018413612ea957600080fd5b612eb884823560208401612cf2565b949350505050565b60008060408385031215612ed357600080fd5b8235612ede81612ad9565b915060208301356001600160401b03811115612ef957600080fd5b612f0585828601612d30565b9150509250929050565b60008060008060608587031215612f2557600080fd5b84356001600160401b03811115612f3b57600080fd5b612f4787828801612a91565b9095509350506020850135612f5b81612ad9565b9396929550929360400135925050565b60008083601f840112612f7d57600080fd5b5081356001600160401b03811115612f9457600080fd5b6020830191508360208260051b8501011115612ad257600080fd5b60008060008060408587031215612fc557600080fd5b84356001600160401b0380821115612fdc57600080fd5b612fe888838901612a91565b9096509450602087013591508082111561300157600080fd5b5061300e87828801612f6b565b95989497509550505050565b60008060006040848603121561302f57600080fd5b83356001600160401b0381111561304557600080fd5b61305186828701612a91565b909790965060209590950135949350505050565b60008060008060006060868803121561307d57600080fd5b85356001600160401b038082111561309457600080fd5b6130a089838a01612a91565b909750955060208801359150808211156130b957600080fd5b506130c688828901612f6b565b90945092505060408601356130da81612ad9565b809150509295509295909350565b8183823760009101908152919050565b600181811c9082168061310c57607f821691505b60208210810361312c57634e487b7160e01b600052602260045260246000fd5b50919050565b601f82111561259957600081815260208120601f850160051c810160208610156131595750805b601f850160051c820191505b8181101561317857828155600101613165565b505050505050565b6001600160401b0383111561319757613197612c5d565b6131ab836131a583546130f8565b83613132565b6000601f8411600181146131df57600085156131c75750838201355b600019600387901b1c1916600186901b178355613239565b600083815260209020601f19861690835b8281101561321057868501358255602094850194600190920191016131f0565b508682101561322d5760001960f88860031b161c19848701351681555b505060018560011b0183555b5050505050565b81835281816020850137506000828201602090810191909152601f909101601f19169091010190565b60808152600061327d608083018789613240565b6001600160a01b0386166020840152828103604084015261329e8186612b85565b9150508260608301529695505050505050565b6000602082840312156132c357600080fd5b81516001600160401b038111156132d957600080fd5b8201601f810184136132ea57600080fd5b80516132f8612d0082612ccb565b81815285602083850101111561330d57600080fd5b612a4f826020830160208601612b61565b6020808252602c908201527f46756e6374696f6e206d7573742062652063616c6c6564207468726f7567682060408201526b19195b1959d85d1958d85b1b60a21b606082015260800190565b6020808252602c908201527f46756e6374696f6e206d7573742062652063616c6c6564207468726f7567682060408201526b6163746976652070726f787960a01b606082015260800190565b6040815260006133ca604083018688613240565b8281036020840152611dd6818587613240565b6000602082840312156133ef57600080fd5b8151801515811461080c57600080fd5b60c08152600061341360c083018a8c613240565b6001600160a01b038981166020850152838203604085015261343682898b613240565b9150808716606085015280861660808501525082810360a084015263ffffffff84511681526020840151604060208301526134746040830182612b85565b9c9b505050505050505050505050565b60006020828403121561349657600080fd5b815161080c81612ad9565b60006101008083526134b68184018d8f613240565b905082810360208401526134cb818b8d613240565b6001600160a01b038a81166040860152891660608501526080840188905260a0840187905283810360c085015290506135048186612b85565b9150508260e08301529b9a5050505050505050505050565b60006020828403121561352e57600080fd5b5051919050565b6001600160a01b03878116825286166020820152604081018590526060810184905260c06080820181905260009061356f90830185612b85565b90508260a0830152979650505050505050565b81835260006001600160fb1b0383111561359b57600080fd5b8260051b80836020870137939093016020019392505050565b602081526000612eb8602083018486613582565b6001600160a01b0388811682528716602082015260c0604082018190526000906135f59083018789613582565b856060840152828103608084015261360d8186612b85565b9150508260a083015298975050505050505050565b60006101008083526136378184018c8e613240565b6001600160a01b038b81166020860152848203604086015290915061365c828b612b85565b91508089166060850152508660808401528560a084015282810360c08401526136858186612b85565b9150508260e08301529a9950505050505050505050565b6040815260006136b0604083018587613582565b905060018060a01b0383166020830152949350505050565b6020808252602b908201527f496e697469616c697a61626c653a20636f6e7472616374206973206e6f74206960408201526a6e697469616c697a696e6760a81b606082015260800190565b60008251613725818460208701612b61565b919091019291505056fe360894a13ba1a3210667c828492db98dca3e2076cc3735a920a3ca505d382bbc416464726573733a206c6f772d6c6576656c2064656c65676174652063616c6c206661696c6564a26469706673582212203b699757375dfc99b00cab39f276c5e3be290a1744672c8cdd763820633671e564736f6c63430008100033",
  "linkReferences": {},
  "deployedLinkReferences": {}
}