{
  "_format": "hh-sol-artifact-1",
  "contractName": "OpenQTokenWhitelist",
  "sourceName": "contracts/Tokens/OpenQTokenWhitelist.sol",
  "abi": [
    {
      "inputs": [
        {
          "internalType": "uint256",
          "name": "_tokenAddressLimit",
          "type": "uint256"
        }
      ],
      "stateMutability": "nonpayable",
      "type": "constructor"
    },
    {
      "anonymous": false,
      "inputs": [
        {
          "indexed": true,
          "internalType": "address",
          "name": "previousOwner",
          "type": "address"
        },
        {
          "indexed": true,
          "internalType": "address",
          "name": "newOwner",
          "type": "address"
        }
      ],
      "name": "OwnershipTransferred",
      "type": "event"
    },
    {
      "inputs": [],
      "name": "TOKEN_ADDRESS_LIMIT",
      "outputs": [
        {
          "internalType": "uint256",
          "name": "",
          "type": "uint256"
        }
      ],
      "stateMutability": "view",
      "type": "function"
    },
    {
      "inputs": [
        {
          "internalType": "address",
          "name": "tokenAddress",
          "type": "address"
        }
      ],
      "name": "addToken",
      "outputs": [],
      "stateMutability": "nonpayable",
      "type": "function"
    },
    {
      "inputs": [
        {
          "internalType": "address",
          "name": "tokenAddress",
          "type": "address"
        }
      ],
      "name": "isWhitelisted",
      "outputs": [
        {
          "internalType": "bool",
          "name": "",
          "type": "bool"
        }
      ],
      "stateMutability": "view",
      "type": "function"
    },
    {
      "inputs": [],
      "name": "owner",
      "outputs": [
        {
          "internalType": "address",
          "name": "",
          "type": "address"
        }
      ],
      "stateMutability": "view",
      "type": "function"
    },
    {
      "inputs": [
        {
          "internalType": "address",
          "name": "tokenAddress",
          "type": "address"
        }
      ],
      "name": "removeToken",
      "outputs": [],
      "stateMutability": "nonpayable",
      "type": "function"
    },
    {
      "inputs": [],
      "name": "renounceOwnership",
      "outputs": [],
      "stateMutability": "nonpayable",
      "type": "function"
    },
    {
      "inputs": [
        {
          "internalType": "uint256",
          "name": "newTokenAddressLimit",
          "type": "uint256"
        }
      ],
      "name": "setTokenAddressLimit",
      "outputs": [],
      "stateMutability": "nonpayable",
      "type": "function"
    },
    {
      "inputs": [],
      "name": "tokenCount",
      "outputs": [
        {
          "internalType": "uint256",
          "name": "",
          "type": "uint256"
        }
      ],
      "stateMutability": "view",
      "type": "function"
    },
    {
      "inputs": [
        {
          "internalType": "address",
          "name": "newOwner",
          "type": "address"
        }
      ],
      "name": "transferOwnership",
      "outputs": [],
      "stateMutability": "nonpayable",
      "type": "function"
    },
    {
      "inputs": [
        {
          "internalType": "address",
          "name": "",
          "type": "address"
        }
      ],
      "name": "whitelist",
      "outputs": [
        {
          "internalType": "bool",
          "name": "",
          "type": "bool"
        }
      ],
      "stateMutability": "view",
      "type": "function"
    }
  ],
  "bytecode": "0x608060405234801561001057600080fd5b5060405161066638038061066683398101604081905261002f91610090565b61003833610040565b6001556100a9565b600080546001600160a01b038381166001600160a01b0319831681178455604051919092169283917f8be0079c531659141344cd1fd0a4f28419497f9722a3daafe3b4186f6b6457e09190a35050565b6000602082840312156100a257600080fd5b5051919050565b6105ae806100b86000396000f3fe608060405234801561001057600080fd5b506004361061009e5760003560e01c80638da5cb5b116100665780638da5cb5b1461012b5780639b19251a146101445780639f181b5e14610167578063d48bfca714610170578063f2fde38b1461018357600080fd5b80633af32abf146100a35780635e9ab49c146100e45780635fa7b584146100f9578063601260d81461010c578063715018a614610123575b600080fd5b6100cf6100b13660046104b3565b6001600160a01b031660009081526003602052604090205460ff1690565b60405190151581526020015b60405180910390f35b6100f76100f23660046104e3565b610196565b005b6100f76101073660046104b3565b6101a3565b61011560015481565b6040519081526020016100db565b6100f7610296565b6000546001600160a01b03166040516100db91906104fc565b6100cf6101523660046104b3565b60036020526000908152604090205460ff1681565b61011560025481565b6100f761017e3660046104b3565b6102aa565b6100f76101913660046104b3565b610390565b61019e610409565b600155565b6101ab610409565b604051633af32abf60e01b81523090633af32abf906101ce9084906004016104fc565b602060405180830381865afa1580156101eb573d6000803e3d6000fd5b505050506040513d601f19601f8201168201806040525081019061020f9190610510565b6102605760405162461bcd60e51b815260206004820152601d60248201527f544f4b454e5f4e4f545f414c52454144595f57484954454c495354454400000060448201526064015b60405180910390fd5b6001600160a01b0381166000908152600360205260408120805460ff19169055600280549161028e83610548565b919050555050565b61029e610409565b6102a86000610463565b565b6102b2610409565b604051633af32abf60e01b81523090633af32abf906102d59084906004016104fc565b602060405180830381865afa1580156102f2573d6000803e3d6000fd5b505050506040513d601f19601f820116820180604052508101906103169190610510565b1561035f5760405162461bcd60e51b81526020600482015260196024820152781513d2d15397d053149150511657d5d2125511531254d51151603a1b6044820152606401610257565b6001600160a01b0381166000908152600360205260408120805460ff19166001179055600280549161028e8361055f565b610398610409565b6001600160a01b0381166103fd5760405162461bcd60e51b815260206004820152602660248201527f4f776e61626c653a206e6577206f776e657220697320746865207a65726f206160448201526564647265737360d01b6064820152608401610257565b61040681610463565b50565b6000546001600160a01b031633146102a85760405162461bcd60e51b815260206004820181905260248201527f4f776e61626c653a2063616c6c6572206973206e6f7420746865206f776e65726044820152606401610257565b600080546001600160a01b038381166001600160a01b0319831681178455604051919092169283917f8be0079c531659141344cd1fd0a4f28419497f9722a3daafe3b4186f6b6457e09190a35050565b6000602082840312156104c557600080fd5b81356001600160a01b03811681146104dc57600080fd5b9392505050565b6000602082840312156104f557600080fd5b5035919050565b6001600160a01b0391909116815260200190565b60006020828403121561052257600080fd5b815180151581146104dc57600080fd5b634e487b7160e01b600052601160045260246000fd5b60008161055757610557610532565b506000190190565b60006001820161057157610571610532565b506001019056fea2646970667358221220dbbcc8b9fe3505ec388fcad1918fb0d591a6ad874e537325a9d4fa60c9addcf864736f6c63430008100033",
  "linkReferences": {},
  "deployedLinkReferences": {}
}