{
  "_format": "hh-sol-artifact-1",
  "contractName": "OpenQV1",
  "sourceName": "contracts/OpenQ/Implementations/OpenQV1.sol",
  "abi": [
    {
      "inputs": [],
      "stateMutability": "nonpayable",
      "type": "constructor"
    },
    {
      "anonymous": false,
      "inputs": [
        {
          "indexed": false,
          "internalType": "address",
          "name": "previousAdmin",
          "type": "address"
        },
        {
          "indexed": false,
          "internalType": "address",
          "name": "newAdmin",
          "type": "address"
        }
      ],
      "name": "AdminChanged",
      "type": "event"
    },
    {
      "anonymous": false,
      "inputs": [
        {
          "indexed": true,
          "internalType": "address",
          "name": "beacon",
          "type": "address"
        }
      ],
      "name": "BeaconUpgraded",
      "type": "event"
    },
    {
      "anonymous": false,
      "inputs": [
        {
          "indexed": false,
          "internalType": "string",
          "name": "bountyId",
          "type": "string"
        },
        {
          "indexed": false,
          "internalType": "address",
          "name": "bountyAddress",
          "type": "address"
        },
        {
          "indexed": false,
          "internalType": "string",
          "name": "organization",
          "type": "string"
        },
        {
          "indexed": false,
          "internalType": "address",
          "name": "closer",
          "type": "address"
        },
        {
          "indexed": false,
          "internalType": "uint256",
          "name": "bountyClosedTime",
          "type": "uint256"
        },
        {
          "indexed": false,
          "internalType": "uint256",
          "name": "bountyType",
          "type": "uint256"
        },
        {
          "indexed": false,
          "internalType": "bytes",
          "name": "data",
          "type": "bytes"
        },
        {
          "indexed": false,
          "internalType": "uint256",
          "name": "version",
          "type": "uint256"
        }
      ],
      "name": "BountyClosed",
      "type": "event"
    },
    {
      "anonymous": false,
      "inputs": [
        {
          "indexed": false,
          "internalType": "string",
          "name": "bountyId",
          "type": "string"
        },
        {
          "indexed": false,
          "internalType": "string",
          "name": "organization",
          "type": "string"
        },
        {
          "indexed": false,
          "internalType": "address",
          "name": "issuerAddress",
          "type": "address"
        },
        {
          "indexed": false,
          "internalType": "address",
          "name": "bountyAddress",
          "type": "address"
        },
        {
          "indexed": false,
          "internalType": "uint256",
          "name": "bountyMintTime",
          "type": "uint256"
        },
        {
          "indexed": false,
          "internalType": "uint256",
          "name": "bountyType",
          "type": "uint256"
        },
        {
          "indexed": false,
          "internalType": "bytes",
          "name": "data",
          "type": "bytes"
        },
        {
          "indexed": false,
          "internalType": "uint256",
          "name": "version",
          "type": "uint256"
        }
      ],
      "name": "BountyCreated",
      "type": "event"
    },
    {
      "anonymous": false,
      "inputs": [
        {
          "indexed": false,
          "internalType": "string",
          "name": "newExternalUserId",
          "type": "string"
        },
        {
          "indexed": false,
          "internalType": "address",
          "name": "newAddress",
          "type": "address"
        },
        {
          "indexed": false,
          "internalType": "string",
          "name": "formerExternalUserId",
          "type": "string"
        },
        {
          "indexed": false,
          "internalType": "address",
          "name": "formerAddress",
          "type": "address"
        },
        {
          "indexed": false,
          "internalType": "bytes",
          "name": "data",
          "type": "bytes"
        },
        {
          "indexed": false,
          "internalType": "uint256",
          "name": "version",
          "type": "uint256"
        }
      ],
      "name": "ExternalUserIdAssociatedWithAddress",
      "type": "event"
    },
    {
      "anonymous": false,
      "inputs": [
        {
          "indexed": false,
          "internalType": "address",
          "name": "bountyAddress",
          "type": "address"
        },
        {
          "indexed": false,
          "internalType": "address",
          "name": "fundingGoalTokenAddress",
          "type": "address"
        },
        {
          "indexed": false,
          "internalType": "uint256",
          "name": "fundingGoalVolume",
          "type": "uint256"
        },
        {
          "indexed": false,
          "internalType": "uint256",
          "name": "bountyType",
          "type": "uint256"
        },
        {
          "indexed": false,
          "internalType": "bytes",
          "name": "data",
          "type": "bytes"
        },
        {
          "indexed": false,
          "internalType": "uint256",
          "name": "version",
          "type": "uint256"
        }
      ],
      "name": "FundingGoalSet",
      "type": "event"
    },
    {
      "anonymous": false,
      "inputs": [
        {
          "indexed": false,
          "internalType": "uint8",
          "name": "version",
          "type": "uint8"
        }
      ],
      "name": "Initialized",
      "type": "event"
    },
    {
      "anonymous": false,
      "inputs": [
        {
          "indexed": false,
          "internalType": "address",
          "name": "bountyAddress",
          "type": "address"
        },
        {
          "indexed": false,
          "internalType": "uint256",
          "name": "bountyType",
          "type": "uint256"
        },
        {
          "indexed": false,
          "internalType": "bytes",
          "name": "data",
          "type": "bytes"
        },
        {
          "indexed": false,
          "internalType": "uint256",
          "name": "version",
          "type": "uint256"
        }
      ],
      "name": "InvoiceCompleteSet",
      "type": "event"
    },
    {
      "anonymous": false,
      "inputs": [
        {
          "indexed": false,
          "internalType": "address",
          "name": "bountyAddress",
          "type": "address"
        },
        {
          "indexed": false,
          "internalType": "bool",
          "name": "invoiceRequired",
          "type": "bool"
        },
        {
          "indexed": false,
          "internalType": "uint256",
          "name": "bountyType",
          "type": "uint256"
        },
        {
          "indexed": false,
          "internalType": "bytes",
          "name": "data",
          "type": "bytes"
        },
        {
          "indexed": false,
          "internalType": "uint256",
          "name": "version",
          "type": "uint256"
        }
      ],
      "name": "InvoiceRequiredSet",
      "type": "event"
    },
    {
      "anonymous": false,
      "inputs": [
        {
          "indexed": false,
          "internalType": "address",
          "name": "bountyAddress",
          "type": "address"
        },
        {
          "indexed": false,
          "internalType": "bool",
          "name": "kycRequired",
          "type": "bool"
        },
        {
          "indexed": false,
          "internalType": "uint256",
          "name": "bountyType",
          "type": "uint256"
        },
        {
          "indexed": false,
          "internalType": "bytes",
          "name": "data",
          "type": "bytes"
        },
        {
          "indexed": false,
          "internalType": "uint256",
          "name": "version",
          "type": "uint256"
        }
      ],
      "name": "KYCRequiredSet",
      "type": "event"
    },
    {
      "anonymous": false,
      "inputs": [
        {
          "indexed": true,
          "internalType": "address",
          "name": "previousOracle",
          "type": "address"
        },
        {
          "indexed": true,
          "internalType": "address",
          "name": "newOracle",
          "type": "address"
        }
      ],
      "name": "OracleTransferred",
      "type": "event"
    },
    {
      "anonymous": false,
      "inputs": [
        {
          "indexed": true,
          "internalType": "address",
          "name": "previousOwner",
          "type": "address"
        },
        {
          "indexed": true,
          "internalType": "address",
          "name": "newOwner",
          "type": "address"
        }
      ],
      "name": "OwnershipTransferred",
      "type": "event"
    },
    {
      "anonymous": false,
      "inputs": [
        {
          "indexed": false,
          "internalType": "address",
          "name": "bountyAddress",
          "type": "address"
        },
        {
          "indexed": false,
          "internalType": "address",
          "name": "payoutTokenAddress",
          "type": "address"
        },
        {
          "indexed": false,
          "internalType": "uint256[]",
          "name": "payoutSchedule",
          "type": "uint256[]"
        },
        {
          "indexed": false,
          "internalType": "uint256",
          "name": "bountyType",
          "type": "uint256"
        },
        {
          "indexed": false,
          "internalType": "bytes",
          "name": "data",
          "type": "bytes"
        },
        {
          "indexed": false,
          "internalType": "uint256",
          "name": "version",
          "type": "uint256"
        }
      ],
      "name": "PayoutScheduleSet",
      "type": "event"
    },
    {
      "anonymous": false,
      "inputs": [
        {
          "indexed": false,
          "internalType": "address",
          "name": "bountyAddress",
          "type": "address"
        },
        {
          "indexed": false,
          "internalType": "address",
          "name": "payoutTokenAddress",
          "type": "address"
        },
        {
          "indexed": false,
          "internalType": "uint256",
          "name": "payoutTokenVolume",
          "type": "uint256"
        },
        {
          "indexed": false,
          "internalType": "uint256",
          "name": "bountyType",
          "type": "uint256"
        },
        {
          "indexed": false,
          "internalType": "bytes",
          "name": "data",
          "type": "bytes"
        },
        {
          "indexed": false,
          "internalType": "uint256",
          "name": "version",
          "type": "uint256"
        }
      ],
      "name": "PayoutSet",
      "type": "event"
    },
    {
      "anonymous": false,
      "inputs": [
        {
          "indexed": false,
          "internalType": "address",
          "name": "bountyAddress",
          "type": "address"
        },
        {
          "indexed": false,
          "internalType": "uint256",
          "name": "bountyType",
          "type": "uint256"
        },
        {
          "indexed": false,
          "internalType": "bytes",
          "name": "data",
          "type": "bytes"
        },
        {
          "indexed": false,
          "internalType": "uint256",
          "name": "version",
          "type": "uint256"
        }
      ],
      "name": "SupportingDocumentsCompleteSet",
      "type": "event"
    },
    {
      "anonymous": false,
      "inputs": [
        {
          "indexed": false,
          "internalType": "address",
          "name": "bountyAddress",
          "type": "address"
        },
        {
          "indexed": false,
          "internalType": "bool",
          "name": "supportingDocuments",
          "type": "bool"
        },
        {
          "indexed": false,
          "internalType": "uint256",
          "name": "bountyType",
          "type": "uint256"
        },
        {
          "indexed": false,
          "internalType": "bytes",
          "name": "data",
          "type": "bytes"
        },
        {
          "indexed": false,
          "internalType": "uint256",
          "name": "version",
          "type": "uint256"
        }
      ],
      "name": "SupportingDocumentsRequiredSet",
      "type": "event"
    },
    {
      "anonymous": false,
      "inputs": [
        {
          "indexed": false,
          "internalType": "address",
          "name": "bountyAddress",
          "type": "address"
        },
        {
          "indexed": false,
          "internalType": "address",
          "name": "claimant",
          "type": "address"
        },
        {
          "indexed": false,
          "internalType": "bytes",
          "name": "data",
          "type": "bytes"
        },
        {
          "indexed": false,
          "internalType": "uint256",
          "name": "version",
          "type": "uint256"
        }
      ],
      "name": "TierClaimed",
      "type": "event"
    },
    {
      "anonymous": false,
      "inputs": [
        {
          "indexed": false,
          "internalType": "address",
          "name": "bountyAddress",
          "type": "address"
        },
        {
          "indexed": false,
          "internalType": "string[]",
          "name": "tierWinners",
          "type": "string[]"
        },
        {
          "indexed": false,
          "internalType": "bytes",
          "name": "data",
          "type": "bytes"
        },
        {
          "indexed": false,
          "internalType": "uint256",
          "name": "version",
          "type": "uint256"
        }
      ],
      "name": "TierWinnerSelected",
      "type": "event"
    },
    {
      "anonymous": false,
      "inputs": [
        {
          "indexed": true,
          "internalType": "address",
          "name": "implementation",
          "type": "address"
        }
      ],
      "name": "Upgraded",
      "type": "event"
    },
    {
      "inputs": [],
      "name": "VERSION_1",
      "outputs": [
        {
          "internalType": "uint256",
          "name": "",
          "type": "uint256"
        }
      ],
      "stateMutability": "view",
      "type": "function"
    },
    {
      "inputs": [
        {
          "internalType": "address",
          "name": "",
          "type": "address"
        }
      ],
      "name": "addressToExternalUserId",
      "outputs": [
        {
          "internalType": "string",
          "name": "",
          "type": "string"
        }
      ],
      "stateMutability": "view",
      "type": "function"
    },
    {
      "inputs": [
        {
          "internalType": "string",
          "name": "_externalUserId",
          "type": "string"
        },
        {
          "internalType": "address",
          "name": "_associatedAddress",
          "type": "address"
        }
      ],
      "name": "associateExternalIdToAddress",
      "outputs": [],
      "stateMutability": "nonpayable",
      "type": "function"
    },
    {
      "inputs": [
        {
          "internalType": "string[]",
          "name": "_bountyIds",
          "type": "string[]"
        },
        {
          "internalType": "string[]",
          "name": "_organizations",
          "type": "string[]"
        },
        {
          "components": [
            {
              "internalType": "uint32",
              "name": "operationType",
              "type": "uint32"
            },
            {
              "internalType": "bytes",
              "name": "data",
              "type": "bytes"
            }
          ],
          "internalType": "struct OpenQDefinitions.InitOperation[]",
          "name": "_initOperations",
          "type": "tuple[]"
        }
      ],
      "name": "batchMintBounty",
      "outputs": [],
      "stateMutability": "nonpayable",
      "type": "function"
    },
    {
      "inputs": [
        {
          "internalType": "string[]",
          "name": "_bountyIds",
          "type": "string[]"
        },
        {
          "internalType": "bytes[]",
          "name": "_data",
          "type": "bytes[]"
        }
      ],
      "name": "batchSetInvoiceComplete",
      "outputs": [],
      "stateMutability": "nonpayable",
      "type": "function"
    },
    {
      "inputs": [
        {
          "internalType": "string[]",
          "name": "_bountyIds",
          "type": "string[]"
        },
        {
          "internalType": "bytes[]",
          "name": "_data",
          "type": "bytes[]"
        }
      ],
      "name": "batchSetSupportingDocumentsComplete",
      "outputs": [],
      "stateMutability": "nonpayable",
      "type": "function"
    },
    {
      "inputs": [
        {
          "internalType": "string[]",
          "name": "_bountyIds",
          "type": "string[]"
        },
        {
          "internalType": "uint256[]",
          "name": "_tiers",
          "type": "uint256[]"
        },
        {
          "internalType": "string[]",
          "name": "_winners",
          "type": "string[]"
        }
      ],
      "name": "batchSetTierWinner",
      "outputs": [],
      "stateMutability": "nonpayable",
      "type": "function"
    },
    {
      "inputs": [
        {
          "internalType": "address",
          "name": "_bountyAddress",
          "type": "address"
        }
      ],
      "name": "bountyAddressToBountyId",
      "outputs": [
        {
          "internalType": "string",
          "name": "",
          "type": "string"
        }
      ],
      "stateMutability": "view",
      "type": "function"
    },
    {
      "inputs": [],
      "name": "bountyFactory",
      "outputs": [
        {
          "internalType": "address",
          "name": "",
          "type": "address"
        }
      ],
      "stateMutability": "view",
      "type": "function"
    },
    {
      "inputs": [
        {
          "internalType": "string",
          "name": "",
          "type": "string"
        }
      ],
      "name": "bountyIdToAddress",
      "outputs": [
        {
          "internalType": "address",
          "name": "",
          "type": "address"
        }
      ],
      "stateMutability": "view",
      "type": "function"
    },
    {
      "inputs": [
        {
          "internalType": "string",
          "name": "_bountyId",
          "type": "string"
        }
      ],
      "name": "bountyIsOpen",
      "outputs": [
        {
          "internalType": "bool",
          "name": "",
          "type": "bool"
        }
      ],
      "stateMutability": "view",
      "type": "function"
    },
    {
      "inputs": [
        {
          "internalType": "string",
          "name": "_bountyId",
          "type": "string"
        }
      ],
      "name": "bountyType",
      "outputs": [
        {
          "internalType": "uint256",
          "name": "",
          "type": "uint256"
        }
      ],
      "stateMutability": "view",
      "type": "function"
    },
    {
      "inputs": [],
      "name": "claimManager",
      "outputs": [
        {
          "internalType": "address",
          "name": "",
          "type": "address"
        }
      ],
      "stateMutability": "view",
      "type": "function"
    },
    {
      "inputs": [],
      "name": "depositManager",
      "outputs": [
        {
          "internalType": "address",
          "name": "",
          "type": "address"
        }
      ],
      "stateMutability": "view",
      "type": "function"
    },
    {
      "inputs": [
        {
          "internalType": "string",
          "name": "",
          "type": "string"
        }
      ],
      "name": "externalUserIdToAddress",
      "outputs": [
        {
          "internalType": "address",
          "name": "",
          "type": "address"
        }
      ],
      "stateMutability": "view",
      "type": "function"
    },
    {
      "inputs": [],
      "name": "getImplementation",
      "outputs": [
        {
          "internalType": "address",
          "name": "",
          "type": "address"
        }
      ],
      "stateMutability": "view",
      "type": "function"
    },
    {
      "inputs": [
        {
          "internalType": "address",
          "name": "_initialOracle",
          "type": "address"
        },
        {
          "internalType": "address",
          "name": "_bountyFactory",
          "type": "address"
        },
        {
          "internalType": "address",
          "name": "_depositManager",
          "type": "address"
        },
        {
          "internalType": "address",
          "name": "_claimManager",
          "type": "address"
        }
      ],
      "name": "initialize",
      "outputs": [],
      "stateMutability": "nonpayable",
      "type": "function"
    },
    {
      "inputs": [
        {
          "internalType": "string",
          "name": "_bountyId",
          "type": "string"
        },
        {
          "internalType": "string",
          "name": "_organization",
          "type": "string"
        },
        {
          "components": [
            {
              "internalType": "uint32",
              "name": "operationType",
              "type": "uint32"
            },
            {
              "internalType": "bytes",
              "name": "data",
              "type": "bytes"
            }
          ],
          "internalType": "struct OpenQDefinitions.InitOperation",
          "name": "_initOperation",
          "type": "tuple"
        }
      ],
      "name": "mintBounty",
      "outputs": [
        {
          "internalType": "address",
          "name": "",
          "type": "address"
        }
      ],
      "stateMutability": "nonpayable",
      "type": "function"
    },
    {
      "inputs": [],
      "name": "oracle",
      "outputs": [
        {
          "internalType": "address",
          "name": "",
          "type": "address"
        }
      ],
      "stateMutability": "view",
      "type": "function"
    },
    {
      "inputs": [],
      "name": "owner",
      "outputs": [
        {
          "internalType": "address",
          "name": "",
          "type": "address"
        }
      ],
      "stateMutability": "view",
      "type": "function"
    },
    {
      "inputs": [],
      "name": "proxiableUUID",
      "outputs": [
        {
          "internalType": "bytes32",
          "name": "",
          "type": "bytes32"
        }
      ],
      "stateMutability": "view",
      "type": "function"
    },
    {
      "inputs": [],
      "name": "renounceOwnership",
      "outputs": [],
      "stateMutability": "nonpayable",
      "type": "function"
    },
    {
      "inputs": [
        {
          "internalType": "address",
          "name": "_bountyFactory",
          "type": "address"
        }
      ],
      "name": "setBountyFactory",
      "outputs": [],
      "stateMutability": "nonpayable",
      "type": "function"
    },
    {
      "inputs": [
        {
          "internalType": "address",
          "name": "_claimManager",
          "type": "address"
        }
      ],
      "name": "setClaimManager",
      "outputs": [],
      "stateMutability": "nonpayable",
      "type": "function"
    },
    {
      "inputs": [
        {
          "internalType": "address",
          "name": "_depositManager",
          "type": "address"
        }
      ],
      "name": "setDepositManager",
      "outputs": [],
      "stateMutability": "nonpayable",
      "type": "function"
    },
    {
      "inputs": [
        {
          "internalType": "string",
          "name": "_bountyId",
          "type": "string"
        },
        {
          "internalType": "address",
          "name": "_fundingGoalToken",
          "type": "address"
        },
        {
          "internalType": "uint256",
          "name": "_fundingGoalVolume",
          "type": "uint256"
        }
      ],
      "name": "setFundingGoal",
      "outputs": [],
      "stateMutability": "nonpayable",
      "type": "function"
    },
    {
      "inputs": [
        {
          "internalType": "string",
          "name": "_bountyId",
          "type": "string"
        },
        {
          "internalType": "bytes",
          "name": "_data",
          "type": "bytes"
        }
      ],
      "name": "setInvoiceComplete",
      "outputs": [],
      "stateMutability": "nonpayable",
      "type": "function"
    },
    {
      "inputs": [
        {
          "internalType": "string",
          "name": "_bountyId",
          "type": "string"
        },
        {
          "internalType": "bool",
          "name": "_invoiceRequired",
          "type": "bool"
        }
      ],
      "name": "setInvoiceRequired",
      "outputs": [],
      "stateMutability": "nonpayable",
      "type": "function"
    },
    {
      "inputs": [
        {
          "internalType": "string",
          "name": "_bountyId",
          "type": "string"
        },
        {
          "internalType": "bool",
          "name": "_kycRequired",
          "type": "bool"
        }
      ],
      "name": "setKycRequired",
      "outputs": [],
      "stateMutability": "nonpayable",
      "type": "function"
    },
    {
      "inputs": [
        {
          "internalType": "string",
          "name": "_bountyId",
          "type": "string"
        },
        {
          "internalType": "uint256[]",
          "name": "_payoutSchedule",
          "type": "uint256[]"
        },
        {
          "internalType": "address",
          "name": "_payoutTokenAddress",
          "type": "address"
        }
      ],
      "name": "setPayoutScheduleFixed",
      "outputs": [],
      "stateMutability": "nonpayable",
      "type": "function"
    },
    {
      "inputs": [
        {
          "internalType": "string",
          "name": "_bountyId",
          "type": "string"
        },
        {
          "internalType": "bytes",
          "name": "_data",
          "type": "bytes"
        }
      ],
      "name": "setSupportingDocumentsComplete",
      "outputs": [],
      "stateMutability": "nonpayable",
      "type": "function"
    },
    {
      "inputs": [
        {
          "internalType": "string",
          "name": "_bountyId",
          "type": "string"
        },
        {
          "internalType": "bool",
          "name": "_supportingDocumentsRequired",
          "type": "bool"
        }
      ],
      "name": "setSupportingDocumentsRequired",
      "outputs": [],
      "stateMutability": "nonpayable",
      "type": "function"
    },
    {
      "inputs": [
        {
          "internalType": "string",
          "name": "_bountyId",
          "type": "string"
        },
        {
          "internalType": "uint256",
          "name": "_tier",
          "type": "uint256"
        },
        {
          "internalType": "string",
          "name": "_winner",
          "type": "string"
        }
      ],
      "name": "setTierWinner",
      "outputs": [],
      "stateMutability": "nonpayable",
      "type": "function"
    },
    {
      "inputs": [
        {
          "internalType": "string",
          "name": "_bountyId",
          "type": "string"
        },
        {
          "internalType": "uint256",
          "name": "_tier",
          "type": "uint256"
        }
      ],
      "name": "tierClaimed",
      "outputs": [
        {
          "internalType": "bool",
          "name": "",
          "type": "bool"
        }
      ],
      "stateMutability": "view",
      "type": "function"
    },
    {
      "inputs": [
        {
          "internalType": "address",
          "name": "_newOracle",
          "type": "address"
        }
      ],
      "name": "transferOracle",
      "outputs": [],
      "stateMutability": "nonpayable",
      "type": "function"
    },
    {
      "inputs": [
        {
          "internalType": "address",
          "name": "newOwner",
          "type": "address"
        }
      ],
      "name": "transferOwnership",
      "outputs": [],
      "stateMutability": "nonpayable",
      "type": "function"
    },
    {
      "inputs": [
        {
          "internalType": "address",
          "name": "newImplementation",
          "type": "address"
        }
      ],
      "name": "upgradeTo",
      "outputs": [],
      "stateMutability": "nonpayable",
      "type": "function"
    },
    {
      "inputs": [
        {
          "internalType": "address",
          "name": "newImplementation",
          "type": "address"
        },
        {
          "internalType": "bytes",
          "name": "data",
          "type": "bytes"
        }
      ],
      "name": "upgradeToAndCall",
      "outputs": [],
      "stateMutability": "payable",
      "type": "function"
    }
  ],
  "bytecode": "0x60a0604052306080523480156200001557600080fd5b506200002062000026565b620000e8565b600054610100900460ff1615620000935760405162461bcd60e51b815260206004820152602760248201527f496e697469616c697a61626c653a20636f6e747261637420697320696e697469604482015266616c697a696e6760c81b606482015260840160405180910390fd5b60005460ff9081161015620000e6576000805460ff191660ff9081179091556040519081527f7f26b83ff96e1f2b6a682f133852f6798a09c465da95921460cefb38474024989060200160405180910390a15b565b608051614bbc6200020e600039600081816109fe01528181610a3e01528181610ac901528181610b0901528181610d4301528181610d8301528181610ff301528181611033015281816110e4015281816111240152818161144e0152818161148e0152818161150701528181611547015281816117f20152818161195f0152818161199f01528181611b1f01528181611b5f01528181611d3a01528181611d7a01528181611ef701528181611f370152818161205401528181612094015281816121a5015281816121e501528181612453015281816124930152818161255201528181612592015281816127f10152818161283101528181612ada01528181612b1a01528181612c2401528181612c6401528181612e990152612ed90152614bbc6000f3fe6080604052600436106102055760003560e01c8063849e306811610113578063bdc969c6116100ab578063f8c780701161006f578063f8c7807014610682578063f8c8765e146106a2578063f8d7c19d146106c2578063fa4657ad146106e2578063fd1b2e3f1461070257600080fd5b8063bdc969c6146105d2578063be17211814610602578063e732680614610622578063e77b90f114610642578063f2fde38b1461066257600080fd5b8063849e3068146104bd5780638da5cb5b146104dd578063a8bca7b8146104fb578063a9a36dcd1461051b578063aaf10f421461053c578063abae1a3314610551578063b43ac72614610571578063b6da214414610591578063b8f75c0b146105b157600080fd5b806348bd1e99116101a157806362b137c51161016557806362b137c5146104075780636c7ac9d81461042757806371006cf414610448578063715018a61461048a5780637dc0d1d01461049f57600080fd5b806348bd1e991461035d5780634f1ef2861461039f57806350febc46146103b257806352d1902d146103d257806357f8520c146103e757600080fd5b80630681ebe51461020a57806310fd86c81461022c57806316a2a0cc146102625780631c70bf2714610282578063228d71a9146102a257806326c20e5f146102c257806333203064146102e55780633659cfe6146103055780633948eddd14610325575b600080fd5b34801561021657600080fd5b5061022a61022536600461386f565b610722565b005b34801561023857600080fd5b5061024c6102473660046138c5565b610980565b6040516102599190613932565b60405180910390f35b34801561026e57600080fd5b5061022a61027d3660046138c5565b6109f4565b34801561028e57600080fd5b5061022a61029d366004613953565b610abf565b3480156102ae57600080fd5b5061022a6102bd3660046138c5565b610d39565b3480156102ce57600080fd5b506102d7600181565b604051908152602001610259565b3480156102f157600080fd5b5061022a61030036600461399e565b610e04565b34801561031157600080fd5b5061022a6103203660046138c5565b610fe9565b34801561033157600080fd5b50610345610340366004613b64565b6110b1565b6040516001600160a01b039091168152602001610259565b34801561036957600080fd5b50610345610378366004613bf7565b8051602081830181018051610131825292820191909301209152546001600160a01b031681565b61022a6103ad366004613c47565b611444565b3480156103be57600080fd5b5061022a6103cd366004613c96565b6114fd565b3480156103de57600080fd5b506102d76117e5565b3480156103f357600080fd5b5061024c6104023660046138c5565b611893565b34801561041357600080fd5b5061022a610422366004613d45565b61192e565b34801561043357600080fd5b5061013054610345906001600160a01b031681565b34801561045457600080fd5b50610345610463366004613bf7565b8051602081830181018051610132825292820191909301209152546001600160a01b031681565b34801561049657600080fd5b5061022a611ada565b3480156104ab57600080fd5b5060fb546001600160a01b0316610345565b3480156104c957600080fd5b5061022a6104d8366004613dde565b611aee565b3480156104e957600080fd5b506033546001600160a01b0316610345565b34801561050757600080fd5b506102d7610516366004613e3d565b611c7e565b34801561052757600080fd5b5061012f54610345906001600160a01b031681565b34801561054857600080fd5b50610345611cfa565b34801561055d57600080fd5b5061022a61056c366004613ea1565b611d09565b34801561057d57600080fd5b5061022a61058c366004613dde565b611ec6565b34801561059d57600080fd5b5061022a6105ac3660046138c5565b61204a565b3480156105bd57600080fd5b5061012e54610345906001600160a01b031681565b3480156105de57600080fd5b506105f26105ed366004613fa4565b612115565b6040519015158152602001610259565b34801561060e57600080fd5b5061022a61061d366004613c96565b61219b565b34801561062e57600080fd5b5061022a61063d3660046138c5565b612449565b34801561064e57600080fd5b5061022a61065d366004613953565b612548565b34801561066e57600080fd5b5061022a61067d3660046138c5565b612771565b34801561068e57600080fd5b5061022a61069d366004613953565b6127e7565b3480156106ae57600080fd5b5061022a6106bd366004613fef565b612a10565b3480156106ce57600080fd5b5061022a6106dd36600461404b565b612c1a565b3480156106ee57600080fd5b5061022a6106fd3660046140a7565b612e8f565b34801561070e57600080fd5b506105f261071d366004613e3d565b613106565b60fb546001600160a01b0316331461079a5760405162461bcd60e51b815260206004820152603060248201527f4f7261636c697a653a2063616c6c6572206973206e6f7420746865206375727260448201526f656e74204f70656e51204f7261636c6560801b60648201526084015b60405180910390fd5b6001600160a01b03811660009081526101336020526040812080546107be9061412a565b80601f01602080910402602001604051908101604052809291908181526020018280546107ea9061412a565b80156108375780601f1061080c57610100808354040283529160200191610837565b820191906000526020600020905b81548152906001019060200180831161081a57829003601f168201915b5050505050905060006101328585604051610853929190614164565b908152604051908190036020018120546001600160a01b0316915060009061013290610880908590614174565b908152604080516020928190038301812080546001600160a01b0319166001600160a01b03958616179055828101825260008082529385168452610133909252909120906108ce90826141f3565b508261013286866040516108e3929190614164565b908152604080516020928190038301902080546001600160a01b0319166001600160a01b039485161790559185166000908152610133909152206109288587836142ac565b50604080516000815260208101918290527f360b0c08a5b7e86027de2197be3636994abe4e3f4017faf4c13f9eed98c9aacf91610971918891889188918891889160019061438e565b60405180910390a15050505050565b60606000829050806001600160a01b031663c17bd75e6040518163ffffffff1660e01b8152600401600060405180830381865afa1580156109c5573d6000803e3d6000fd5b505050506040513d6000823e601f3d908101601f191682016040526109ed9190810190614445565b9392505050565b6001600160a01b037f0000000000000000000000000000000000000000000000000000000000000000163003610a3c5760405162461bcd60e51b815260040161079190614479565b7f00000000000000000000000000000000000000000000000000000000000000006001600160a01b0316610a6e61318a565b6001600160a01b031614610a945760405162461bcd60e51b8152600401610791906144c5565b610a9c6131a6565b61012e80546001600160a01b0319166001600160a01b0392909216919091179055565b6001600160a01b037f0000000000000000000000000000000000000000000000000000000000000000163003610b075760405162461bcd60e51b815260040161079190614479565b7f00000000000000000000000000000000000000000000000000000000000000006001600160a01b0316610b3961318a565b6001600160a01b031614610b5f5760405162461bcd60e51b8152600401610791906144c5565b6000610b6b8484613200565b9050806001600160a01b0316631d1438486040518163ffffffff1660e01b8152600401602060405180830381865afa158015610bab573d6000803e3d6000fd5b505050506040513d601f19601f82011682018060405250810190610bcf9190614511565b6001600160a01b0316336001600160a01b0316146040518060400160405280601181526020017021a0a62622a92fa727aa2fa4a9a9aaa2a960791b81525090610c2b5760405162461bcd60e51b81526004016107919190613932565b5060405163150909f760e01b815282151560048201526001600160a01b0382169063150909f790602401600060405180830381600087803b158015610c6f57600080fd5b505af1158015610c83573d6000803e3d6000fd5b505050507fa3d922005d2e4752e1c918ec9b634eed8af8fc9be7215572c011b15c4b8d604b8183836001600160a01b031663b3ca1f3b6040518163ffffffff1660e01b8152600401602060405180830381865afa158015610ce8573d6000803e3d6000fd5b505050506040513d601f19601f82011682018060405250810190610d0c919061452e565b60408051600081526020810191829052610d2b94939291600190614547565b60405180910390a150505050565b6001600160a01b037f0000000000000000000000000000000000000000000000000000000000000000163003610d815760405162461bcd60e51b815260040161079190614479565b7f00000000000000000000000000000000000000000000000000000000000000006001600160a01b0316610db361318a565b6001600160a01b031614610dd95760405162461bcd60e51b8152600401610791906144c5565b610de16131a6565b61013080546001600160a01b0319166001600160a01b0392909216919091179055565b6000610e108686613200565b9050806001600160a01b0316631d1438486040518163ffffffff1660e01b8152600401602060405180830381865afa158015610e50573d6000803e3d6000fd5b505050506040513d601f19601f82011682018060405250810190610e749190614511565b6001600160a01b0316336001600160a01b0316146040518060400160405280601181526020017021a0a62622a92fa727aa2fa4a9a9aaa2a960791b81525090610ed05760405162461bcd60e51b81526004016107919190613932565b50604051630f3b6d4d60e01b81526001600160a01b03821690630f3b6d4d90610f0190869086908990600401614588565b600060405180830381600087803b158015610f1b57600080fd5b505af1158015610f2f573d6000803e3d6000fd5b505050507f0f514f110eb3745ee3be04b8310994cddb52ba75b6a4107e0435757f7a929f3881826001600160a01b03166336150d386040518163ffffffff1660e01b8152600401600060405180830381865afa158015610f93573d6000803e3d6000fd5b505050506040513d6000823e601f3d908101601f19168201604052610fbb91908101906145ac565b60408051600081526020810191829052610fd993929160019061465c565b60405180910390a1505050505050565b6001600160a01b037f00000000000000000000000000000000000000000000000000000000000000001630036110315760405162461bcd60e51b815260040161079190614479565b7f00000000000000000000000000000000000000000000000000000000000000006001600160a01b031661106361318a565b6001600160a01b0316146110895760405162461bcd60e51b8152600401610791906144c5565b61109281613238565b604080516000808252602082019092526110ae91839190613240565b50565b6000600260c954036110d55760405162461bcd60e51b8152600401610791906146e9565b600260c9556001600160a01b037f00000000000000000000000000000000000000000000000000000000000000001630036111225760405162461bcd60e51b815260040161079190614479565b7f00000000000000000000000000000000000000000000000000000000000000006001600160a01b031661115461318a565b6001600160a01b03161461117a5760405162461bcd60e51b8152600401610791906144c5565b60006001600160a01b03166101318787604051611198929190614164565b908152604080519182900360209081018320548383019092526015835274424f554e54595f414c52454144595f45584953545360581b9083015290916001600160a01b03909116146111fd5760405162461bcd60e51b81526004016107919190613932565b5061123d86868080601f0160208091040260200160405190810160405280939291908181526020018383808284376000920191909152506133b092505050565b6040518060400160405280600e81526020016d494e56414c49445f535452494e4760901b815250906112825760405162461bcd60e51b81526004016107919190613932565b506112c284848080601f0160208091040260200160405190810160405280939291908181526020018383808284376000920191909152506133b092505050565b6040518060400160405280600e81526020016d494e56414c49445f535452494e4760901b815250906113075760405162461bcd60e51b81526004016107919190613932565b5061012e5461012f54610130546040516323e95f5160e11b81526000936001600160a01b03908116936347d2bea293611356938d938d9333938e938e9392831692909116908d90600401614745565b6020604051808303816000875af1158015611375573d6000803e3d6000fd5b505050506040513d601f19601f820116820180604052508101906113999190614511565b90508061013188886040516113af929190614164565b90815260405190819003602001902080546001600160a01b03929092166001600160a01b03199092169190911790557f07bf14db09a3c8b7d7e240acc23ab6da8587183655a6ffcbda01ca7b026a3757878787873386426114108787611c7e565b8b60200151600160405161142d9a999897969594939291906147af565b60405180910390a1600160c9559695505050505050565b6001600160a01b037f000000000000000000000000000000000000000000000000000000000000000016300361148c5760405162461bcd60e51b815260040161079190614479565b7f00000000000000000000000000000000000000000000000000000000000000006001600160a01b03166114be61318a565b6001600160a01b0316146114e45760405162461bcd60e51b8152600401610791906144c5565b6114ed82613238565b6114f982826001613240565b5050565b6001600160a01b037f00000000000000000000000000000000000000000000000000000000000000001630036115455760405162461bcd60e51b815260040161079190614479565b7f00000000000000000000000000000000000000000000000000000000000000006001600160a01b031661157761318a565b6001600160a01b03161461159d5760405162461bcd60e51b8152600401610791906144c5565b60006115a98585613200565b9050806001600160a01b0316631d1438486040518163ffffffff1660e01b8152600401602060405180830381865afa1580156115e9573d6000803e3d6000fd5b505050506040513d601f19601f8201168201806040525081019061160d9190614511565b6001600160a01b0316336001600160a01b03161480611636575060fb546001600160a01b031633145b6040518060400160405280601b81526020017a43414c4c45525f4e4f545f4953535545525f4f525f4f5241434c4560281b815250906116885760405162461bcd60e51b81526004016107919190613932565b50604051632af8e0c560e11b81526001600160a01b038216906355f1c18a906116b7908690869060040161482a565b600060405180830381600087803b1580156116d157600080fd5b505af11580156116e5573d6000803e3d6000fd5b505050507fbaa282623a40e3cc746bff17d34425e76241f9fd520d84dc3db1c569f2c6819281826001600160a01b031663b3ca1f3b6040518163ffffffff1660e01b8152600401602060405180830381865afa158015611749573d6000803e3d6000fd5b505050506040513d601f19601f8201168201806040525081019061176d919061452e565b836001600160a01b031663dda640816040518163ffffffff1660e01b8152600401600060405180830381865afa1580156117ab573d6000803e3d6000fd5b505050506040513d6000823e601f3d908101601f191682016040526117d3919081019061483e565b60016040516109719493929190614886565b6000306001600160a01b037f000000000000000000000000000000000000000000000000000000000000000016146118805760405162461bcd60e51b815260206004820152603860248201527f555550535570677261646561626c653a206d757374206e6f742062652063616c6044820152771b1959081d1a1c9bdd59da0819195b1959d85d1958d85b1b60421b6064820152608401610791565b50600080516020614b4083398151915290565b61013360205260009081526040902080546118ad9061412a565b80601f01602080910402602001604051908101604052809291908181526020018280546118d99061412a565b80156119265780601f106118fb57610100808354040283529160200191611926565b820191906000526020600020905b81548152906001019060200180831161190957829003601f168201915b505050505081565b600260c954036119505760405162461bcd60e51b8152600401610791906146e9565b600260c9556001600160a01b037f000000000000000000000000000000000000000000000000000000000000000016300361199d5760405162461bcd60e51b815260040161079190614479565b7f00000000000000000000000000000000000000000000000000000000000000006001600160a01b03166119cf61318a565b6001600160a01b0316146119f55760405162461bcd60e51b8152600401610791906144c5565b60005b85811015611acc57306333203064888884818110611a1857611a186148be565b9050602002810190611a2a91906148d4565b888886818110611a3c57611a3c6148be565b90506020020135878787818110611a5557611a556148be565b9050602002810190611a6791906148d4565b6040518663ffffffff1660e01b8152600401611a8795949392919061491a565b600060405180830381600087803b158015611aa157600080fd5b505af1158015611ab5573d6000803e3d6000fd5b505050508080611ac490614953565b9150506119f8565b5050600160c9555050505050565b611ae26131a6565b611aec600061341c565b565b600260c95403611b105760405162461bcd60e51b8152600401610791906146e9565b600260c9556001600160a01b037f0000000000000000000000000000000000000000000000000000000000000000163003611b5d5760405162461bcd60e51b815260040161079190614479565b7f00000000000000000000000000000000000000000000000000000000000000006001600160a01b0316611b8f61318a565b6001600160a01b031614611bb55760405162461bcd60e51b8152600401610791906144c5565b60005b83811015611c72573063be172118868684818110611bd857611bd86148be565b9050602002810190611bea91906148d4565b868686818110611bfc57611bfc6148be565b9050602002810190611c0e91906148d4565b6040518563ffffffff1660e01b8152600401611c2d949392919061497a565b600060405180830381600087803b158015611c4757600080fd5b505af1158015611c5b573d6000803e3d6000fd5b505050508080611c6a90614953565b915050611bb8565b5050600160c955505050565b600080611c8b8484613200565b90506000816001600160a01b031663b3ca1f3b6040518163ffffffff1660e01b8152600401602060405180830381865afa158015611ccd573d6000803e3d6000fd5b505050506040513d601f19601f82011682018060405250810190611cf1919061452e565b95945050505050565b6000611d0461318a565b905090565b600260c95403611d2b5760405162461bcd60e51b8152600401610791906146e9565b600260c9556001600160a01b037f0000000000000000000000000000000000000000000000000000000000000000163003611d785760405162461bcd60e51b815260040161079190614479565b7f00000000000000000000000000000000000000000000000000000000000000006001600160a01b0316611daa61318a565b6001600160a01b031614611dd05760405162461bcd60e51b8152600401610791906144c5565b60005b84811015611eb95730633948eddd878784818110611df357611df36148be565b9050602002810190611e0591906148d4565b878786818110611e1757611e176148be565b9050602002810190611e2991906148d4565b878781518110611e3b57611e3b6148be565b60200260200101516040518663ffffffff1660e01b8152600401611e639594939291906149ac565b6020604051808303816000875af1158015611e82573d6000803e3d6000fd5b505050506040513d601f19601f82011682018060405250810190611ea69190614511565b5080611eb181614953565b915050611dd3565b5050600160c95550505050565b600260c95403611ee85760405162461bcd60e51b8152600401610791906146e9565b600260c9556001600160a01b037f0000000000000000000000000000000000000000000000000000000000000000163003611f355760405162461bcd60e51b815260040161079190614479565b7f00000000000000000000000000000000000000000000000000000000000000006001600160a01b0316611f6761318a565b6001600160a01b031614611f8d5760405162461bcd60e51b8152600401610791906144c5565b60005b83811015611c7257306350febc46868684818110611fb057611fb06148be565b9050602002810190611fc291906148d4565b868686818110611fd457611fd46148be565b9050602002810190611fe691906148d4565b6040518563ffffffff1660e01b8152600401612005949392919061497a565b600060405180830381600087803b15801561201f57600080fd5b505af1158015612033573d6000803e3d6000fd5b50505050808061204290614953565b915050611f90565b6001600160a01b037f00000000000000000000000000000000000000000000000000000000000000001630036120925760405162461bcd60e51b815260040161079190614479565b7f00000000000000000000000000000000000000000000000000000000000000006001600160a01b03166120c461318a565b6001600160a01b0316146120ea5760405162461bcd60e51b8152600401610791906144c5565b6120f26131a6565b61012f80546001600160a01b0319166001600160a01b0392909216919091179055565b6000806121228585613200565b604051634ee5bdc760e11b8152600481018590529091506000906001600160a01b03831690639dcb7b8e90602401602060405180830381865afa15801561216d573d6000803e3d6000fd5b505050506040513d601f19601f8201168201806040525081019061219191906149e7565b9695505050505050565b6001600160a01b037f00000000000000000000000000000000000000000000000000000000000000001630036121e35760405162461bcd60e51b815260040161079190614479565b7f00000000000000000000000000000000000000000000000000000000000000006001600160a01b031661221561318a565b6001600160a01b03161461223b5760405162461bcd60e51b8152600401610791906144c5565b60006122478585613200565b9050806001600160a01b0316631d1438486040518163ffffffff1660e01b8152600401602060405180830381865afa158015612287573d6000803e3d6000fd5b505050506040513d601f19601f820116820180604052508101906122ab9190614511565b6001600160a01b0316336001600160a01b031614806122d4575060fb546001600160a01b031633145b6040518060400160405280601b81526020017a43414c4c45525f4e4f545f4953535545525f4f525f4f5241434c4560281b815250906123265760405162461bcd60e51b81526004016107919190613932565b5060405163ee1034fb60e01b81526001600160a01b0382169063ee1034fb90612355908690869060040161482a565b600060405180830381600087803b15801561236f57600080fd5b505af1158015612383573d6000803e3d6000fd5b505050507ff510398d18ddf3c481663daf3769fc21a954cb43b8a2248fb585fe2433cd2e1c81826001600160a01b031663b3ca1f3b6040518163ffffffff1660e01b8152600401602060405180830381865afa1580156123e7573d6000803e3d6000fd5b505050506040513d601f19601f8201168201806040525081019061240b919061452e565b836001600160a01b0316637026b4726040518163ffffffff1660e01b8152600401600060405180830381865afa1580156117ab573d6000803e3d6000fd5b6001600160a01b037f00000000000000000000000000000000000000000000000000000000000000001630036124915760405162461bcd60e51b815260040161079190614479565b7f00000000000000000000000000000000000000000000000000000000000000006001600160a01b03166124c361318a565b6001600160a01b0316146124e95760405162461bcd60e51b8152600401610791906144c5565b6124f16131a6565b60408051808201909152600f81526e4e4f5f5a45524f5f4144445245535360881b60208201526001600160a01b03821661253e5760405162461bcd60e51b81526004016107919190613932565b506110ae8161346e565b6001600160a01b037f00000000000000000000000000000000000000000000000000000000000000001630036125905760405162461bcd60e51b815260040161079190614479565b7f00000000000000000000000000000000000000000000000000000000000000006001600160a01b03166125c261318a565b6001600160a01b0316146125e85760405162461bcd60e51b8152600401610791906144c5565b60006125f48484613200565b9050806001600160a01b0316631d1438486040518163ffffffff1660e01b8152600401602060405180830381865afa158015612634573d6000803e3d6000fd5b505050506040513d601f19601f820116820180604052508101906126589190614511565b6001600160a01b0316336001600160a01b0316146040518060400160405280601181526020017021a0a62622a92fa727aa2fa4a9a9aaa2a960791b815250906126b45760405162461bcd60e51b81526004016107919190613932565b506040516315add63b60e01b815282151560048201526001600160a01b038216906315add63b90602401600060405180830381600087803b1580156126f857600080fd5b505af115801561270c573d6000803e3d6000fd5b505050507f4b48960caadc721c9f02528d7cd0dd15a093dc8464cda684c5cd51b856ce730d8183836001600160a01b031663b3ca1f3b6040518163ffffffff1660e01b8152600401602060405180830381865afa158015610ce8573d6000803e3d6000fd5b6127796131a6565b6001600160a01b0381166127de5760405162461bcd60e51b815260206004820152602660248201527f4f776e61626c653a206e6577206f776e657220697320746865207a65726f206160448201526564647265737360d01b6064820152608401610791565b6110ae8161341c565b6001600160a01b037f000000000000000000000000000000000000000000000000000000000000000016300361282f5760405162461bcd60e51b815260040161079190614479565b7f00000000000000000000000000000000000000000000000000000000000000006001600160a01b031661286161318a565b6001600160a01b0316146128875760405162461bcd60e51b8152600401610791906144c5565b60006128938484613200565b9050806001600160a01b0316631d1438486040518163ffffffff1660e01b8152600401602060405180830381865afa1580156128d3573d6000803e3d6000fd5b505050506040513d601f19601f820116820180604052508101906128f79190614511565b6001600160a01b0316336001600160a01b0316146040518060400160405280601181526020017021a0a62622a92fa727aa2fa4a9a9aaa2a960791b815250906129535760405162461bcd60e51b81526004016107919190613932565b50604051633f67bd1f60e21b815282151560048201526001600160a01b0382169063fd9ef47c90602401600060405180830381600087803b15801561299757600080fd5b505af11580156129ab573d6000803e3d6000fd5b505050507fd97821513e869a55cf9f8695619bc9da3cb7d5329c0e3609b7e63ac55ce193c88183836001600160a01b031663b3ca1f3b6040518163ffffffff1660e01b8152600401602060405180830381865afa158015610ce8573d6000803e3d6000fd5b600054610100900460ff1615808015612a305750600054600160ff909116105b80612a4a5750303b158015612a4a575060005460ff166001145b612aad5760405162461bcd60e51b815260206004820152602e60248201527f496e697469616c697a61626c653a20636f6e747261637420697320616c72656160448201526d191e481a5b9a5d1a585b1a5e995960921b6064820152608401610791565b6000805460ff191660011790558015612ad0576000805461ff0019166101001790555b6001600160a01b037f0000000000000000000000000000000000000000000000000000000000000000163003612b185760405162461bcd60e51b815260040161079190614479565b7f00000000000000000000000000000000000000000000000000000000000000006001600160a01b0316612b4a61318a565b6001600160a01b031614612b705760405162461bcd60e51b8152600401610791906144c5565b612b786134c0565b612b81856134ef565b612b89613538565b612b9161355f565b61012e80546001600160a01b038087166001600160a01b031992831617909255610130805486841690831617905561012f8054928516929091169190911790558015612c13576000805461ff0019169055604051600181527f7f26b83ff96e1f2b6a682f133852f6798a09c465da95921460cefb384740249890602001610971565b5050505050565b6001600160a01b037f0000000000000000000000000000000000000000000000000000000000000000163003612c625760405162461bcd60e51b815260040161079190614479565b7f00000000000000000000000000000000000000000000000000000000000000006001600160a01b0316612c9461318a565b6001600160a01b031614612cba5760405162461bcd60e51b8152600401610791906144c5565b6000612cc68585613200565b9050806001600160a01b0316631d1438486040518163ffffffff1660e01b8152600401602060405180830381865afa158015612d06573d6000803e3d6000fd5b505050506040513d601f19601f82011682018060405250810190612d2a9190614511565b6001600160a01b0316336001600160a01b0316146040518060400160405280601181526020017021a0a62622a92fa727aa2fa4a9a9aaa2a960791b81525090612d865760405162461bcd60e51b81526004016107919190613932565b5060405163ceff310760e01b81526001600160a01b0384811660048301526024820184905282169063ceff310790604401600060405180830381600087803b158015612dd157600080fd5b505af1158015612de5573d6000803e3d6000fd5b505050507f9ebf11c1043e634700e1019f0f2f99b428b0fe7e1d5f1d1a5cb3fc74137eb957818484846001600160a01b031663b3ca1f3b6040518163ffffffff1660e01b8152600401602060405180830381865afa158015612e4b573d6000803e3d6000fd5b505050506040513d601f19601f82011682018060405250810190612e6f919061452e565b604080516000815260208101918290526109719594939291600190614a04565b6001600160a01b037f0000000000000000000000000000000000000000000000000000000000000000163003612ed75760405162461bcd60e51b815260040161079190614479565b7f00000000000000000000000000000000000000000000000000000000000000006001600160a01b0316612f0961318a565b6001600160a01b031614612f2f5760405162461bcd60e51b8152600401610791906144c5565b6000612f3b8686613200565b9050806001600160a01b0316631d1438486040518163ffffffff1660e01b8152600401602060405180830381865afa158015612f7b573d6000803e3d6000fd5b505050506040513d601f19601f82011682018060405250810190612f9f9190614511565b6001600160a01b0316336001600160a01b0316146040518060400160405280601181526020017021a0a62622a92fa727aa2fa4a9a9aaa2a960791b81525090612ffb5760405162461bcd60e51b81526004016107919190613932565b50604051630309e3e760e31b81526001600160a01b0382169063184f1f389061302c90879087908790600401614a83565b600060405180830381600087803b15801561304657600080fd5b505af115801561305a573d6000803e3d6000fd5b505050507fc01596aef916fd836c1d861e3aa0bcabd30fa27830ebb88b76016236c942b45981838686856001600160a01b031663b3ca1f3b6040518163ffffffff1660e01b8152600401602060405180830381865afa1580156130c1573d6000803e3d6000fd5b505050506040513d601f19601f820116820180604052508101906130e5919061452e565b60408051600081526020810191829052610fd9969594939291600190614aaf565b6000806131138484613200565b905060008063ffffffff16826001600160a01b031663200d2ed26040518163ffffffff1660e01b8152600401602060405180830381865afa15801561315c573d6000803e3d6000fd5b505050506040513d601f19601f82011682018060405250810190613180919061452e565b1495945050505050565b600080516020614b40833981519152546001600160a01b031690565b6033546001600160a01b03163314611aec5760405162461bcd60e51b815260206004820181905260248201527f4f776e61626c653a2063616c6c6572206973206e6f7420746865206f776e65726044820152606401610791565b6000806101318484604051613216929190614164565b908152604051908190036020019020546001600160a01b031691505092915050565b6110ae6131a6565b7f4910fdfa16fed3260ed0e7147f7cc6da11a60208b5b9406d12a635614ffd91435460ff1615613278576132738361358e565b505050565b826001600160a01b03166352d1902d6040518163ffffffff1660e01b8152600401602060405180830381865afa9250505080156132d2575060408051601f3d908101601f191682019092526132cf9181019061452e565b60015b6133355760405162461bcd60e51b815260206004820152602e60248201527f45524331393637557067726164653a206e657720696d706c656d656e7461746960448201526d6f6e206973206e6f74205555505360901b6064820152608401610791565b600080516020614b4083398151915281146133a45760405162461bcd60e51b815260206004820152602960248201527f45524331393637557067726164653a20756e737570706f727465642070726f786044820152681a58589b195555525160ba1b6064820152608401610791565b5061327383838361362a565b600081815b81518110156134125760008282815181106133d2576133d26148be565b0160209081015160f81c9150811115806133ef5750607e8160ff16115b156133ff57506000949350505050565b508061340a81614953565b9150506133b5565b5060019392505050565b603380546001600160a01b038381166001600160a01b0319831681179093556040519116919082907f8be0079c531659141344cd1fd0a4f28419497f9722a3daafe3b4186f6b6457e090600090a35050565b60fb80546001600160a01b038381166001600160a01b0319831681179093556040519116919082907f9b0948b943e24ff3413cb400b2eeae4337138739aaf31759dc6e813e8076fbc390600090a35050565b600054610100900460ff166134e75760405162461bcd60e51b815260040161079190614af4565b611aec613655565b600054610100900460ff166135165760405162461bcd60e51b815260040161079190614af4565b60fb80546001600160a01b0319166001600160a01b0392909216919091179055565b600054610100900460ff16611aec5760405162461bcd60e51b815260040161079190614af4565b600054610100900460ff166135865760405162461bcd60e51b815260040161079190614af4565b611aec613685565b6001600160a01b0381163b6135fb5760405162461bcd60e51b815260206004820152602d60248201527f455243313936373a206e657720696d706c656d656e746174696f6e206973206e60448201526c1bdd08184818dbdb9d1c9858dd609a1b6064820152608401610791565b600080516020614b4083398151915280546001600160a01b0319166001600160a01b0392909216919091179055565b613633836136b3565b6000825111806136405750805b156132735761364f83836136f3565b50505050565b600054610100900460ff1661367c5760405162461bcd60e51b815260040161079190614af4565b611aec3361341c565b600054610100900460ff166136ac5760405162461bcd60e51b815260040161079190614af4565b600160c955565b6136bc8161358e565b6040516001600160a01b038216907fbc7cd75a20ee27fd9adebab32041f755214dbc6bffa90cc0225b39da2e5c2d3b90600090a250565b60606001600160a01b0383163b61375b5760405162461bcd60e51b815260206004820152602660248201527f416464726573733a2064656c65676174652063616c6c20746f206e6f6e2d636f6044820152651b9d1c9858dd60d21b6064820152608401610791565b600080846001600160a01b0316846040516137769190614174565b600060405180830381855af49150503d80600081146137b1576040519150601f19603f3d011682016040523d82523d6000602084013e6137b6565b606091505b5091509150611cf18282604051806060016040528060278152602001614b6060279139606083156137e85750816109ed565b8251156137f85782518084602001fd5b8160405162461bcd60e51b81526004016107919190613932565b60008083601f84011261382457600080fd5b5081356001600160401b0381111561383b57600080fd5b60208301915083602082850101111561385357600080fd5b9250929050565b6001600160a01b03811681146110ae57600080fd5b60008060006040848603121561388457600080fd5b83356001600160401b0381111561389a57600080fd5b6138a686828701613812565b90945092505060208401356138ba8161385a565b809150509250925092565b6000602082840312156138d757600080fd5b81356109ed8161385a565b60005b838110156138fd5781810151838201526020016138e5565b50506000910152565b6000815180845261391e8160208601602086016138e2565b601f01601f19169290920160200192915050565b6020815260006109ed6020830184613906565b80151581146110ae57600080fd5b60008060006040848603121561396857600080fd5b83356001600160401b0381111561397e57600080fd5b61398a86828701613812565b90945092505060208401356138ba81613945565b6000806000806000606086880312156139b657600080fd5b85356001600160401b03808211156139cd57600080fd5b6139d989838a01613812565b90975095506020880135945060408801359150808211156139f957600080fd5b50613a0688828901613812565b969995985093965092949392505050565b634e487b7160e01b600052604160045260246000fd5b604051601f8201601f191681016001600160401b0381118282101715613a5557613a55613a17565b604052919050565b60006001600160401b03821115613a7657613a76613a17565b50601f01601f191660200190565b6000613a97613a9284613a5d565b613a2d565b9050828152838383011115613aab57600080fd5b828260208301376000602084830101529392505050565b600082601f830112613ad357600080fd5b6109ed83833560208501613a84565b600060408284031215613af457600080fd5b604051604081016001600160401b038282108183111715613b1757613b17613a17565b816040528293508435915063ffffffff82168214613b3457600080fd5b90825260208401359080821115613b4a57600080fd5b50613b5785828601613ac2565b6020830152505092915050565b600080600080600060608688031215613b7c57600080fd5b85356001600160401b0380821115613b9357600080fd5b613b9f89838a01613812565b90975095506020880135915080821115613bb857600080fd5b613bc489838a01613812565b90955093506040880135915080821115613bdd57600080fd5b50613bea88828901613ae2565b9150509295509295909350565b600060208284031215613c0957600080fd5b81356001600160401b03811115613c1f57600080fd5b8201601f81018413613c3057600080fd5b613c3f84823560208401613a84565b949350505050565b60008060408385031215613c5a57600080fd5b8235613c658161385a565b915060208301356001600160401b03811115613c8057600080fd5b613c8c85828601613ac2565b9150509250929050565b60008060008060408587031215613cac57600080fd5b84356001600160401b0380821115613cc357600080fd5b613ccf88838901613812565b90965094506020870135915080821115613ce857600080fd5b50613cf587828801613812565b95989497509550505050565b60008083601f840112613d1357600080fd5b5081356001600160401b03811115613d2a57600080fd5b6020830191508360208260051b850101111561385357600080fd5b60008060008060008060608789031215613d5e57600080fd5b86356001600160401b0380821115613d7557600080fd5b613d818a838b01613d01565b90985096506020890135915080821115613d9a57600080fd5b613da68a838b01613d01565b90965094506040890135915080821115613dbf57600080fd5b50613dcc89828a01613d01565b979a9699509497509295939492505050565b60008060008060408587031215613df457600080fd5b84356001600160401b0380821115613e0b57600080fd5b613e1788838901613d01565b90965094506020870135915080821115613e3057600080fd5b50613cf587828801613d01565b60008060208385031215613e5057600080fd5b82356001600160401b03811115613e6657600080fd5b613e7285828601613812565b90969095509350505050565b60006001600160401b03821115613e9757613e97613a17565b5060051b60200190565b600080600080600060608688031215613eb957600080fd5b85356001600160401b0380821115613ed057600080fd5b613edc89838a01613d01565b9097509550602091508782013581811115613ef657600080fd5b613f028a828b01613d01565b909650945050604088013581811115613f1a57600080fd5b8801601f81018a13613f2b57600080fd5b8035613f39613a9282613e7e565b81815260059190911b8201840190848101908c831115613f5857600080fd5b8584015b83811015613f9057803586811115613f745760008081fd5b613f828f8983890101613ae2565b845250918601918601613f5c565b508096505050505050509295509295909350565b600080600060408486031215613fb957600080fd5b83356001600160401b03811115613fcf57600080fd5b613fdb86828701613812565b909790965060209590950135949350505050565b6000806000806080858703121561400557600080fd5b84356140108161385a565b935060208501356140208161385a565b925060408501356140308161385a565b915060608501356140408161385a565b939692955090935050565b6000806000806060858703121561406157600080fd5b84356001600160401b0381111561407757600080fd5b61408387828801613812565b90955093505060208501356140978161385a565b9396929550929360400135925050565b6000806000806000606086880312156140bf57600080fd5b85356001600160401b03808211156140d657600080fd5b6140e289838a01613812565b909750955060208801359150808211156140fb57600080fd5b5061410888828901613d01565b909450925050604086013561411c8161385a565b809150509295509295909350565b600181811c9082168061413e57607f821691505b60208210810361415e57634e487b7160e01b600052602260045260246000fd5b50919050565b8183823760009101908152919050565b600082516141868184602087016138e2565b9190910192915050565b601f82111561327357600081815260208120601f850160051c810160208610156141b75750805b601f850160051c820191505b818110156141d6578281556001016141c3565b505050505050565b600019600383901b1c191660019190911b1790565b81516001600160401b0381111561420c5761420c613a17565b6142208161421a845461412a565b84614190565b602080601f83116001811461424f576000841561423d5750858301515b61424785826141de565b8655506141d6565b600085815260208120601f198616915b8281101561427e5788860151825594840194600190910190840161425f565b508582101561429c5787850151600019600388901b60f8161c191681555b5050505050600190811b01905550565b6001600160401b038311156142c3576142c3613a17565b6142d7836142d1835461412a565b83614190565b6000601f84116001811461430557600085156142f35750838201355b6142fd86826141de565b845550612c13565b600083815260209020601f19861690835b828110156143365786850135825560209485019460019092019101614316565b50868210156143535760001960f88860031b161c19848701351681555b505060018560011b0183555050505050565b81835281816020850137506000828201602090810191909152601f909101601f19169091010190565b60c0815260006143a260c08301898b614365565b6001600160a01b03888116602085015283820360408501526143c48289613906565b9087166060850152838103608085015290506143e08186613906565b9150508260a083015298975050505050505050565b6000614403613a9284613a5d565b905082815283838301111561441757600080fd5b6109ed8360208301846138e2565b600082601f83011261443657600080fd5b6109ed838351602085016143f5565b60006020828403121561445757600080fd5b81516001600160401b0381111561446d57600080fd5b613c3f84828501614425565b6020808252602c908201527f46756e6374696f6e206d7573742062652063616c6c6564207468726f7567682060408201526b19195b1959d85d1958d85b1b60a21b606082015260800190565b6020808252602c908201527f46756e6374696f6e206d7573742062652063616c6c6564207468726f7567682060408201526b6163746976652070726f787960a01b606082015260800190565b60006020828403121561452357600080fd5b81516109ed8161385a565b60006020828403121561454057600080fd5b5051919050565b60018060a01b0386168152841515602082015283604082015260a06060820152600061457660a0830185613906565b90508260808301529695505050505050565b60408152600061459c604083018587614365565b9050826020830152949350505050565b600060208083850312156145bf57600080fd5b82516001600160401b03808211156145d657600080fd5b818501915085601f8301126145ea57600080fd5b81516145f8613a9282613e7e565b81815260059190911b8301840190848101908883111561461757600080fd5b8585015b8381101561464f578051858111156146335760008081fd5b6146418b89838a0101614425565b84525091860191860161461b565b5098975050505050505050565b60006080820160018060a01b0387168352602060808185015281875180845260a08601915060a08160051b870101935082890160005b828110156146c057609f198887030184526146ae868351613906565b95509284019290840190600101614692565b505050505082810360408401526146d78186613906565b91505082606083015295945050505050565b6020808252601f908201527f5265656e7472616e637947756172643a207265656e7472616e742063616c6c00604082015260600190565b63ffffffff81511682526000602082015160406020850152613c3f6040850182613906565b60c08152600061475960c083018a8c614365565b6001600160a01b038981166020850152838203604085015261477c82898b614365565b8782166060860152908616608085015283810360a085015290506147a08185614720565b9b9a5050505050505050505050565b60006101008083526147c48184018d8f614365565b905082810360208401526147d9818b8d614365565b6001600160a01b038a81166040860152891660608501526080840188905260a0840187905283810360c085015290506148128186613906565b9150508260e08301529b9a5050505050505050505050565b602081526000613c3f602083018486614365565b60006020828403121561485057600080fd5b81516001600160401b0381111561486657600080fd5b8201601f8101841361487757600080fd5b613c3f848251602084016143f5565b60018060a01b03851681528360208201526080604082015260006148ad6080830185613906565b905082606083015295945050505050565b634e487b7160e01b600052603260045260246000fd5b6000808335601e198436030181126148eb57600080fd5b8301803591506001600160401b0382111561490557600080fd5b60200191503681900382131561385357600080fd5b60608152600061492e606083018789614365565b8560208401528281036040840152614947818587614365565b98975050505050505050565b60006001820161497357634e487b7160e01b600052601160045260246000fd5b5060010190565b60408152600061498e604083018688614365565b82810360208401526149a1818587614365565b979650505050505050565b6060815260006149c0606083018789614365565b82810360208401526149d3818688614365565b905082810360408401526149478185614720565b6000602082840312156149f957600080fd5b81516109ed81613945565b6001600160a01b03878116825286166020820152604081018590526060810184905260c060808201819052600090614a3e90830185613906565b90508260a0830152979650505050505050565b81835260006001600160fb1b03831115614a6a57600080fd5b8260051b80836020870137939093016020019392505050565b604081526000614a97604083018587614a51565b905060018060a01b0383166020830152949350505050565b6001600160a01b0388811682528716602082015260c060408201819052600090614adc9083018789614a51565b85606084015282810360808401526143e08186613906565b6020808252602b908201527f496e697469616c697a61626c653a20636f6e7472616374206973206e6f74206960408201526a6e697469616c697a696e6760a81b60608201526080019056fe360894a13ba1a3210667c828492db98dca3e2076cc3735a920a3ca505d382bbc416464726573733a206c6f772d6c6576656c2064656c65676174652063616c6c206661696c6564a26469706673582212209fd342aa27bcfe356fc6a273f25dd91720dda038a29d58f4df4739bf9bff28f564736f6c63430008110033",
  "linkReferences": {},
  "deployedLinkReferences": {}
}