{
  "_format": "hh-sol-artifact-1",
  "contractName": "OpenQV1",
  "sourceName": "contracts/OpenQ/Implementations/OpenQV1.sol",
  "abi": [
    {
      "inputs": [],
      "stateMutability": "nonpayable",
      "type": "constructor"
    },
    {
      "anonymous": false,
      "inputs": [
        {
          "indexed": false,
          "internalType": "address",
          "name": "previousAdmin",
          "type": "address"
        },
        {
          "indexed": false,
          "internalType": "address",
          "name": "newAdmin",
          "type": "address"
        }
      ],
      "name": "AdminChanged",
      "type": "event"
    },
    {
      "anonymous": false,
      "inputs": [
        {
          "indexed": true,
          "internalType": "address",
          "name": "beacon",
          "type": "address"
        }
      ],
      "name": "BeaconUpgraded",
      "type": "event"
    },
    {
      "anonymous": false,
      "inputs": [
        {
          "indexed": false,
          "internalType": "string",
          "name": "bountyId",
          "type": "string"
        },
        {
          "indexed": true,
          "internalType": "address",
          "name": "bountyAddress",
          "type": "address"
        },
        {
          "indexed": false,
          "internalType": "string",
          "name": "organization",
          "type": "string"
        },
        {
          "indexed": false,
          "internalType": "address",
          "name": "closer",
          "type": "address"
        },
        {
          "indexed": false,
          "internalType": "uint256",
          "name": "bountyClosedTime",
          "type": "uint256"
        },
        {
          "indexed": false,
          "internalType": "string",
          "name": "closerData",
          "type": "string"
        }
      ],
      "name": "BountyClosed",
      "type": "event"
    },
    {
      "anonymous": false,
      "inputs": [
        {
          "indexed": false,
          "internalType": "string",
          "name": "bountyId",
          "type": "string"
        },
        {
          "indexed": false,
          "internalType": "string",
          "name": "organization",
          "type": "string"
        },
        {
          "indexed": false,
          "internalType": "address",
          "name": "issuerAddress",
          "type": "address"
        },
        {
          "indexed": true,
          "internalType": "address",
          "name": "bountyAddress",
          "type": "address"
        },
        {
          "indexed": false,
          "internalType": "uint256",
          "name": "bountyMintTime",
          "type": "uint256"
        }
      ],
      "name": "BountyCreated",
      "type": "event"
    },
    {
      "anonymous": false,
      "inputs": [
        {
          "indexed": false,
          "internalType": "bytes32",
          "name": "depositId",
          "type": "bytes32"
        },
        {
          "indexed": false,
          "internalType": "uint256",
          "name": "newExpiration",
          "type": "uint256"
        }
      ],
      "name": "DepositExtended",
      "type": "event"
    },
    {
      "anonymous": false,
      "inputs": [
        {
          "indexed": false,
          "internalType": "bytes32",
          "name": "depositId",
          "type": "bytes32"
        },
        {
          "indexed": false,
          "internalType": "string",
          "name": "bountyId",
          "type": "string"
        },
        {
          "indexed": true,
          "internalType": "address",
          "name": "bountyAddress",
          "type": "address"
        },
        {
          "indexed": false,
          "internalType": "string",
          "name": "organization",
          "type": "string"
        },
        {
          "indexed": false,
          "internalType": "uint256",
          "name": "refundTime",
          "type": "uint256"
        }
      ],
      "name": "DepositRefunded",
      "type": "event"
    },
    {
      "anonymous": false,
      "inputs": [
        {
          "indexed": false,
          "internalType": "bytes32",
          "name": "depositId",
          "type": "bytes32"
        },
        {
          "indexed": true,
          "internalType": "address",
          "name": "bountyAddress",
          "type": "address"
        },
        {
          "indexed": false,
          "internalType": "string",
          "name": "bountyId",
          "type": "string"
        },
        {
          "indexed": false,
          "internalType": "string",
          "name": "organization",
          "type": "string"
        },
        {
          "indexed": false,
          "internalType": "address",
          "name": "tokenAddress",
          "type": "address"
        },
        {
          "indexed": false,
          "internalType": "uint256",
          "name": "receiveTime",
          "type": "uint256"
        },
        {
          "indexed": false,
          "internalType": "address",
          "name": "sender",
          "type": "address"
        },
        {
          "indexed": false,
          "internalType": "uint256",
          "name": "expiration",
          "type": "uint256"
        },
        {
          "indexed": false,
          "internalType": "uint256",
          "name": "tokenId",
          "type": "uint256"
        }
      ],
      "name": "NFTDepositReceived",
      "type": "event"
    },
    {
      "anonymous": false,
      "inputs": [
        {
          "indexed": true,
          "internalType": "address",
          "name": "previousOracle",
          "type": "address"
        },
        {
          "indexed": true,
          "internalType": "address",
          "name": "newOracle",
          "type": "address"
        }
      ],
      "name": "OracleTransferred",
      "type": "event"
    },
    {
      "anonymous": false,
      "inputs": [
        {
          "indexed": true,
          "internalType": "address",
          "name": "previousOwner",
          "type": "address"
        },
        {
          "indexed": true,
          "internalType": "address",
          "name": "newOwner",
          "type": "address"
        }
      ],
      "name": "OwnershipTransferred",
      "type": "event"
    },
    {
      "anonymous": false,
      "inputs": [
        {
          "indexed": false,
          "internalType": "string",
          "name": "bountyId",
          "type": "string"
        },
        {
          "indexed": true,
          "internalType": "address",
          "name": "bountyAddress",
          "type": "address"
        },
        {
          "indexed": false,
          "internalType": "string",
          "name": "organization",
          "type": "string"
        },
        {
          "indexed": false,
          "internalType": "address",
          "name": "closer",
          "type": "address"
        },
        {
          "indexed": false,
          "internalType": "uint256",
          "name": "payoutTime",
          "type": "uint256"
        },
        {
          "indexed": false,
          "internalType": "address",
          "name": "tokenAddress",
          "type": "address"
        },
        {
          "indexed": false,
          "internalType": "uint256",
          "name": "volume",
          "type": "uint256"
        }
      ],
      "name": "TokenBalanceClaimed",
      "type": "event"
    },
    {
      "anonymous": false,
      "inputs": [
        {
          "indexed": false,
          "internalType": "bytes32",
          "name": "depositId",
          "type": "bytes32"
        },
        {
          "indexed": true,
          "internalType": "address",
          "name": "bountyAddress",
          "type": "address"
        },
        {
          "indexed": false,
          "internalType": "string",
          "name": "bountyId",
          "type": "string"
        },
        {
          "indexed": false,
          "internalType": "string",
          "name": "organization",
          "type": "string"
        },
        {
          "indexed": false,
          "internalType": "address",
          "name": "tokenAddress",
          "type": "address"
        },
        {
          "indexed": false,
          "internalType": "uint256",
          "name": "receiveTime",
          "type": "uint256"
        },
        {
          "indexed": false,
          "internalType": "address",
          "name": "sender",
          "type": "address"
        },
        {
          "indexed": false,
          "internalType": "uint256",
          "name": "expiration",
          "type": "uint256"
        },
        {
          "indexed": false,
          "internalType": "uint256",
          "name": "volume",
          "type": "uint256"
        }
      ],
      "name": "TokenDepositReceived",
      "type": "event"
    },
    {
      "anonymous": false,
      "inputs": [
        {
          "indexed": true,
          "internalType": "address",
          "name": "implementation",
          "type": "address"
        }
      ],
      "name": "Upgraded",
      "type": "event"
    },
    {
      "inputs": [
        {
          "internalType": "address",
          "name": "_bountyAddress",
          "type": "address"
        }
      ],
      "name": "bountyAddressToBountyId",
      "outputs": [
        {
          "internalType": "string",
          "name": "",
          "type": "string"
        }
      ],
      "stateMutability": "view",
      "type": "function"
    },
    {
      "inputs": [],
      "name": "bountyFactory",
      "outputs": [
        {
          "internalType": "contract BountyFactory",
          "name": "",
          "type": "address"
        }
      ],
      "stateMutability": "view",
      "type": "function"
    },
    {
      "inputs": [
        {
          "internalType": "string",
          "name": "",
          "type": "string"
        }
      ],
      "name": "bountyIdToAddress",
      "outputs": [
        {
          "internalType": "address",
          "name": "",
          "type": "address"
        }
      ],
      "stateMutability": "view",
      "type": "function"
    },
    {
      "inputs": [
        {
          "internalType": "string",
          "name": "_bountyId",
          "type": "string"
        }
      ],
      "name": "bountyIsOpen",
      "outputs": [
        {
          "internalType": "bool",
          "name": "",
          "type": "bool"
        }
      ],
      "stateMutability": "view",
      "type": "function"
    },
    {
      "inputs": [
        {
          "internalType": "string",
          "name": "_bountyId",
          "type": "string"
        },
        {
          "internalType": "address",
          "name": "_closer",
          "type": "address"
        },
        {
          "internalType": "string",
          "name": "_closerData",
          "type": "string"
        }
      ],
      "name": "claimBounty",
      "outputs": [],
      "stateMutability": "nonpayable",
      "type": "function"
    },
    {
      "inputs": [],
      "name": "foo",
      "outputs": [
        {
          "internalType": "uint256",
          "name": "",
          "type": "uint256"
        }
      ],
      "stateMutability": "view",
      "type": "function"
    },
    {
      "inputs": [
        {
          "internalType": "string",
          "name": "_bountyId",
          "type": "string"
        },
        {
          "internalType": "address",
          "name": "_tokenAddress",
          "type": "address"
        },
        {
          "internalType": "uint256",
          "name": "_tokenId",
          "type": "uint256"
        },
        {
          "internalType": "uint256",
          "name": "_expiration",
          "type": "uint256"
        }
      ],
      "name": "fundBountyNFT",
      "outputs": [],
      "stateMutability": "nonpayable",
      "type": "function"
    },
    {
      "inputs": [
        {
          "internalType": "string",
          "name": "_bountyId",
          "type": "string"
        },
        {
          "internalType": "address",
          "name": "_tokenAddress",
          "type": "address"
        },
        {
          "internalType": "uint256",
          "name": "_volume",
          "type": "uint256"
        },
        {
          "internalType": "uint256",
          "name": "_expiration",
          "type": "uint256"
        }
      ],
      "name": "fundBountyToken",
      "outputs": [],
      "stateMutability": "payable",
      "type": "function"
    },
    {
      "inputs": [],
      "name": "getImplementation",
      "outputs": [
        {
          "internalType": "address",
          "name": "",
          "type": "address"
        }
      ],
      "stateMutability": "view",
      "type": "function"
    },
    {
      "inputs": [
        {
          "internalType": "address",
          "name": "oracle",
          "type": "address"
        }
      ],
      "name": "initialize",
      "outputs": [],
      "stateMutability": "nonpayable",
      "type": "function"
    },
    {
      "inputs": [
        {
          "internalType": "address",
          "name": "_tokenAddress",
          "type": "address"
        }
      ],
      "name": "isWhitelisted",
      "outputs": [
        {
          "internalType": "bool",
          "name": "",
          "type": "bool"
        }
      ],
      "stateMutability": "view",
      "type": "function"
    },
    {
      "inputs": [
        {
          "internalType": "string",
          "name": "_bountyId",
          "type": "string"
        },
        {
          "internalType": "string",
          "name": "_organization",
          "type": "string"
        }
      ],
      "name": "mintBounty",
      "outputs": [
        {
          "internalType": "address",
          "name": "",
          "type": "address"
        }
      ],
      "stateMutability": "nonpayable",
      "type": "function"
    },
    {
      "inputs": [],
      "name": "newStorageVar",
      "outputs": [
        {
          "internalType": "uint256",
          "name": "",
          "type": "uint256"
        }
      ],
      "stateMutability": "view",
      "type": "function"
    },
    {
      "inputs": [],
      "name": "openQTokenWhitelist",
      "outputs": [
        {
          "internalType": "contract OpenQTokenWhitelist",
          "name": "",
          "type": "address"
        }
      ],
      "stateMutability": "view",
      "type": "function"
    },
    {
      "inputs": [],
      "name": "oracle",
      "outputs": [
        {
          "internalType": "address",
          "name": "",
          "type": "address"
        }
      ],
      "stateMutability": "view",
      "type": "function"
    },
    {
      "inputs": [],
      "name": "owner",
      "outputs": [
        {
          "internalType": "address",
          "name": "",
          "type": "address"
        }
      ],
      "stateMutability": "view",
      "type": "function"
    },
    {
      "inputs": [],
      "name": "proxiableUUID",
      "outputs": [
        {
          "internalType": "bytes32",
          "name": "",
          "type": "bytes32"
        }
      ],
      "stateMutability": "view",
      "type": "function"
    },
    {
      "inputs": [
        {
          "internalType": "string",
          "name": "_bountyId",
          "type": "string"
        },
        {
          "internalType": "bytes32",
          "name": "_depositId",
          "type": "bytes32"
        }
      ],
      "name": "refundDeposit",
      "outputs": [],
      "stateMutability": "nonpayable",
      "type": "function"
    },
    {
      "inputs": [],
      "name": "renounceOwnership",
      "outputs": [],
      "stateMutability": "nonpayable",
      "type": "function"
    },
    {
      "inputs": [
        {
          "internalType": "address",
          "name": "_bountyFactory",
          "type": "address"
        }
      ],
      "name": "setBountyFactory",
      "outputs": [],
      "stateMutability": "nonpayable",
      "type": "function"
    },
    {
      "inputs": [
        {
          "internalType": "uint256",
          "name": "_foo",
          "type": "uint256"
        }
      ],
      "name": "setFoo",
      "outputs": [],
      "stateMutability": "nonpayable",
      "type": "function"
    },
    {
      "inputs": [
        {
          "internalType": "address",
          "name": "_openQTokenWhitelist",
          "type": "address"
        }
      ],
      "name": "setTokenWhitelist",
      "outputs": [],
      "stateMutability": "nonpayable",
      "type": "function"
    },
    {
      "inputs": [
        {
          "internalType": "address",
          "name": "_newOracle",
          "type": "address"
        }
      ],
      "name": "transferOracle",
      "outputs": [],
      "stateMutability": "nonpayable",
      "type": "function"
    },
    {
      "inputs": [
        {
          "internalType": "address",
          "name": "newOwner",
          "type": "address"
        }
      ],
      "name": "transferOwnership",
      "outputs": [],
      "stateMutability": "nonpayable",
      "type": "function"
    },
    {
      "inputs": [
        {
          "internalType": "address",
          "name": "newImplementation",
          "type": "address"
        }
      ],
      "name": "upgradeTo",
      "outputs": [],
      "stateMutability": "nonpayable",
      "type": "function"
    },
    {
      "inputs": [
        {
          "internalType": "address",
          "name": "newImplementation",
          "type": "address"
        },
        {
          "internalType": "bytes",
          "name": "data",
          "type": "bytes"
        }
      ],
      "name": "upgradeToAndCall",
      "outputs": [],
      "stateMutability": "payable",
      "type": "function"
    }
  ],
  "bytecode": "0x60a06040523060805234801561001457600080fd5b506080516131556100bc60003960008181610b9801528181610bd801528181610cad01528181610ced01528181610ed501528181610f150152818161101201528181611052015281816110cb0152818161110b015281816111ba015281816112c7015281816113070152818161171f0152818161175f01528181611a8a01528181611aca01528181611b8701528181611bc701528181611e3f0152611e7f01526131556000f3fe6080604052600436106101815760003560e01c80639da607cd116100d1578063c4d66de81161008a578063e732680611610064578063e732680614610463578063f2fde38b14610483578063f75161c6146104a3578063fd1b2e3f146104c357600080fd5b8063c4d66de814610410578063dc80035d14610430578063decef9b01461045057600080fd5b80639da607cd1461036e578063aaaa2c5e14610385578063aae57065146103a5578063aaf10f42146103c5578063b8f75c0b146103da578063c2985578146103fa57600080fd5b806348bd1e991161013e57806352d1902d1161011857806352d1902d146102fa578063715018a61461031d5780637dc0d1d0146103325780638da5cb5b1461035057600080fd5b806348bd1e99146102865780634f1ef286146102c7578063527b22db146102da57600080fd5b80630b2711801461018657806310fd86c8146101a857806316a2a0cc146101de5780631ee290fb146101fe5780633659cfe6146102365780633af32abf14610256575b600080fd5b34801561019257600080fd5b506101a66101a13660046126c7565b6104e3565b005b3480156101b457600080fd5b506101c86101c336600461274b565b610b1a565b6040516101d591906127c0565b60405180910390f35b3480156101ea57600080fd5b506101a66101f936600461274b565b610b8e565b34801561020a57600080fd5b5061021e6102193660046127d3565b610c7a565b6040516001600160a01b0390911681526020016101d5565b34801561024257600080fd5b506101a661025136600461274b565b610ecb565b34801561026257600080fd5b5061027661027136600461274b565b610f93565b60405190151581526020016101d5565b34801561029257600080fd5b5061021e6102a13660046128e9565b805160208183018101805160fe825292820191909301209152546001600160a01b031681565b6101a66102d5366004612939565b611008565b3480156102e657600080fd5b506101a66102f536600461274b565b6110c1565b34801561030657600080fd5b5061030f6111ad565b6040519081526020016101d5565b34801561032957600080fd5b506101a6611260565b34801561033e57600080fd5b5060fb546001600160a01b031661021e565b34801561035c57600080fd5b506033546001600160a01b031661021e565b34801561037a57600080fd5b5061030f6101005481565b34801561039157600080fd5b506101a66103a036600461299c565b611296565b3480156103b157600080fd5b506101a66103c03660046129e7565b6116ee565b3480156103d157600080fd5b5061021e6119cd565b3480156103e657600080fd5b5060fc5461021e906001600160a01b031681565b34801561040657600080fd5b5061030f60ff5481565b34801561041c57600080fd5b506101a661042b36600461274b565b6119dc565b34801561043c57600080fd5b506101a661044b366004612a4d565b60ff55565b6101a661045e3660046129e7565b611b56565b34801561046f57600080fd5b506101a661047e36600461274b565b611e35565b34801561048f57600080fd5b506101a661049e36600461274b565b611f6f565b3480156104af57600080fd5b5060fd5461021e906001600160a01b031681565b3480156104cf57600080fd5b506102766104de366004612a66565b612007565b60fb546001600160a01b0316331461055b5760405162461bcd60e51b815260206004820152603060248201527f4f7261636c697a653a2063616c6c6572206973206e6f7420746865206375727260448201526f656e74204f70656e51204f7261636c6560801b60648201526084015b60405180910390fd5b600260c9540361057d5760405162461bcd60e51b815260040161055290612aa7565b600260c95561058c8585612007565b15156001146105d65760405162461bcd60e51b8152602060048201526016602482015275434c41494d494e475f434c4f5345445f424f554e545960501b6044820152606401610552565b600060fe86866040516105ea929190612ade565b908152604051908190036020019020546001600160a01b031690508060005b816001600160a01b031663ee8c24b86040518163ffffffff1660e01b8152600401600060405180830381865afa158015610647573d6000803e3d6000fd5b505050506040513d6000823e601f3d908101601f1916820160405261066f9190810190612b11565b518110156108a1576000826001600160a01b031663ee8c24b86040518163ffffffff1660e01b8152600401600060405180830381865afa1580156106b7573d6000803e3d6000fd5b505050506040513d6000823e601f3d908101601f191682016040526106df9190810190612b11565b82815181106106f0576106f0612baa565b602090810291909101015160405163cb2da3db60e01b81526001600160a01b038981166004830152808316602483015291925060009185169063cb2da3db906044016020604051808303816000875af1158015610751573d6000803e3d6000fd5b505050506040513d601f19601f820116820180604052508101906107759190612bc0565b9050846001600160a01b03167f2bf17f21105d9af8509a541a76fc6a7aa864cba19c9069c816abf81fe49eab59856001600160a01b031663c17bd75e6040518163ffffffff1660e01b8152600401600060405180830381865afa1580156107e0573d6000803e3d6000fd5b505050506040513d6000823e601f3d908101601f191682016040526108089190810190612bd9565b866001600160a01b03166323bd4d7a6040518163ffffffff1660e01b8152600401600060405180830381865afa158015610846573d6000803e3d6000fd5b505050506040513d6000823e601f3d908101601f1916820160405261086e9190810190612bd9565b8b42878760405161088496959493929190612c46565b60405180910390a25050808061089990612cb1565b915050610609565b5060005b816001600160a01b03166377ede8a66040518163ffffffff1660e01b8152600401600060405180830381865afa1580156108e3573d6000803e3d6000fd5b505050506040513d6000823e601f3d908101601f1916820160405261090b9190810190612cca565b518110156109f757604051630de2fe4b60e11b8152600481018290526001600160a01b038316906371ec4ebf9088908390631bc5fc9690602401602060405180830381865afa158015610962573d6000803e3d6000fd5b505050506040513d601f19601f820116820180604052508101906109869190612bc0565b6040516001600160e01b031960e085901b1681526001600160a01b0390921660048301526024820152604401600060405180830381600087803b1580156109cc57600080fd5b505af11580156109e0573d6000803e3d6000fd5b5050505080806109ef90612cb1565b9150506108a5565b5060405163187c06af60e31b81526001600160a01b0382169063c3e0357890610a2890889088908890600401612d78565b600060405180830381600087803b158015610a4257600080fd5b505af1158015610a56573d6000803e3d6000fd5b50505050816001600160a01b03167fd67ae373601e56612bbe8787644f4cdd5d6f7ef88ebc0bf73fa75f3fdc4d92268888846001600160a01b03166323bd4d7a6040518163ffffffff1660e01b8152600401600060405180830381865afa158015610ac5573d6000803e3d6000fd5b505050506040513d6000823e601f3d908101601f19168201604052610aed9190810190612bd9565b89428a8a604051610b049796959493929190612d9d565b60405180910390a25050600160c9555050505050565b60606000829050806001600160a01b031663c17bd75e6040518163ffffffff1660e01b8152600401600060405180830381865afa158015610b5f573d6000803e3d6000fd5b505050506040513d6000823e601f3d908101601f19168201604052610b879190810190612bd9565b9392505050565b6001600160a01b037f0000000000000000000000000000000000000000000000000000000000000000163003610bd65760405162461bcd60e51b815260040161055290612dfc565b7f00000000000000000000000000000000000000000000000000000000000000006001600160a01b0316610c086120a4565b6001600160a01b031614610c2e5760405162461bcd60e51b815260040161055290612e48565b6033546001600160a01b03163314610c585760405162461bcd60e51b815260040161055290612e94565b60fc80546001600160a01b0319166001600160a01b0392909216919091179055565b6000600260c95403610c9e5760405162461bcd60e51b815260040161055290612aa7565b600260c9556001600160a01b037f0000000000000000000000000000000000000000000000000000000000000000163003610ceb5760405162461bcd60e51b815260040161055290612dfc565b7f00000000000000000000000000000000000000000000000000000000000000006001600160a01b0316610d1d6120a4565b6001600160a01b031614610d435760405162461bcd60e51b815260040161055290612e48565b60006001600160a01b031660fe8686604051610d60929190612ade565b908152604051908190036020019020546001600160a01b031614610dbe5760405162461bcd60e51b8152602060048201526015602482015274424f554e54595f414c52454144595f45584953545360581b6044820152606401610552565b60fc546040516318aa5f9d60e31b81526000916001600160a01b03169063c552fce890610df7908990899033908a908a90600401612ec9565b6020604051808303816000875af1158015610e16573d6000803e3d6000fd5b505050506040513d601f19601f82011682018060405250810190610e3a9190612f0b565b90508060fe8787604051610e4f929190612ade565b90815260405190819003602001812080546001600160a01b039384166001600160a01b0319909116179055908216907f9b4ec425461e6b6e22c6b5a40c3fba7c8200dbc1832b92910140d4311872c13990610eb590899089908990899033904290612f28565b60405180910390a2600160c95595945050505050565b6001600160a01b037f0000000000000000000000000000000000000000000000000000000000000000163003610f135760405162461bcd60e51b815260040161055290612dfc565b7f00000000000000000000000000000000000000000000000000000000000000006001600160a01b0316610f456120a4565b6001600160a01b031614610f6b5760405162461bcd60e51b815260040161055290612e48565b610f74816120c0565b60408051600080825260208201909252610f90918391906120ea565b50565b60fd54604051633af32abf60e01b81526001600160a01b0383811660048301526000921690633af32abf90602401602060405180830381865afa158015610fde573d6000803e3d6000fd5b505050506040513d601f19601f820116820180604052508101906110029190612f6e565b92915050565b6001600160a01b037f00000000000000000000000000000000000000000000000000000000000000001630036110505760405162461bcd60e51b815260040161055290612dfc565b7f00000000000000000000000000000000000000000000000000000000000000006001600160a01b03166110826120a4565b6001600160a01b0316146110a85760405162461bcd60e51b815260040161055290612e48565b6110b1826120c0565b6110bd828260016120ea565b5050565b6001600160a01b037f00000000000000000000000000000000000000000000000000000000000000001630036111095760405162461bcd60e51b815260040161055290612dfc565b7f00000000000000000000000000000000000000000000000000000000000000006001600160a01b031661113b6120a4565b6001600160a01b0316146111615760405162461bcd60e51b815260040161055290612e48565b6033546001600160a01b0316331461118b5760405162461bcd60e51b815260040161055290612e94565b60fd80546001600160a01b0319166001600160a01b0392909216919091179055565b6000306001600160a01b037f0000000000000000000000000000000000000000000000000000000000000000161461124d5760405162461bcd60e51b815260206004820152603860248201527f555550535570677261646561626c653a206d757374206e6f742062652063616c60448201527f6c6564207468726f7567682064656c656761746563616c6c00000000000000006064820152608401610552565b506000805160206130d983398151915290565b6033546001600160a01b0316331461128a5760405162461bcd60e51b815260040161055290612e94565b611294600061225a565b565b600260c954036112b85760405162461bcd60e51b815260040161055290612aa7565b600260c9556001600160a01b037f00000000000000000000000000000000000000000000000000000000000000001630036113055760405162461bcd60e51b815260040161055290612dfc565b7f00000000000000000000000000000000000000000000000000000000000000006001600160a01b03166113376120a4565b6001600160a01b03161461135d5760405162461bcd60e51b815260040161055290612e48565b600060fe8484604051611371929190612ade565b908152604051908190036020019020546001600160a01b03169050806113978585612007565b15156001146113e85760405162461bcd60e51b815260206004820152601760248201527f524546554e44494e475f434c4f5345445f424f554e54590000000000000000006044820152606401610552565b60405163166ea0d160e21b81526004810184905233906001600160a01b038316906359ba834490602401602060405180830381865afa15801561142f573d6000803e3d6000fd5b505050506040513d601f19601f820116820180604052508101906114539190612f0b565b6001600160a01b0316146114a95760405162461bcd60e51b815260206004820152601e60248201527f4f4e4c595f46554e4445525f43414e5f524551554553545f524546554e4400006044820152606401610552565b6040516356406fa560e01b815260048101849052611585906001600160a01b038316906356406fa590602401602060405180830381865afa1580156114f2573d6000803e3d6000fd5b505050506040513d601f19601f820116820180604052508101906115169190612bc0565b60405163968b098f60e01b8152600481018690526001600160a01b0384169063968b098f90602401602060405180830381865afa15801561155b573d6000803e3d6000fd5b505050506040513d601f19601f8201168201806040525081019061157f9190612bc0565b906122ac565b4210156115d45760405162461bcd60e51b815260206004820152601860248201527f5052454d41545552455f524546554e445f5245515545535400000000000000006044820152606401610552565b604051630c82823f60e31b8152600481018490523360248201526001600160a01b0382169063641411f890604401600060405180830381600087803b15801561161c57600080fd5b505af1158015611630573d6000803e3d6000fd5b50505050816001600160a01b03167f5cfacced9b0054c7760e6620dfb8bb83cae10b8c701ad759b2e68e0d6707bfd4848787856001600160a01b03166323bd4d7a6040518163ffffffff1660e01b8152600401600060405180830381865afa1580156116a0573d6000803e3d6000fd5b505050506040513d6000823e601f3d908101601f191682016040526116c89190810190612bd9565b426040516116da959493929190612f90565b60405180910390a25050600160c955505050565b600260c954036117105760405162461bcd60e51b815260040161055290612aa7565b600260c9556001600160a01b037f000000000000000000000000000000000000000000000000000000000000000016300361175d5760405162461bcd60e51b815260040161055290612dfc565b7f00000000000000000000000000000000000000000000000000000000000000006001600160a01b031661178f6120a4565b6001600160a01b0316146117b55760405162461bcd60e51b815260040161055290612e48565b600060fe86866040516117c9929190612ade565b908152604051908190036020019020546001600160a01b03169050806117ee85610f93565b61182f5760405162461bcd60e51b81526020600482015260126024820152711513d2d15397d393d517d050d0d15415115160721b6044820152606401610552565b6118398787612007565b15156001146118825760405162461bcd60e51b815260206004820152601560248201527446554e44494e475f434c4f5345445f424f554e545960581b6044820152606401610552565b60405163e129b33360e01b81523360048201526001600160a01b03868116602483015260448201869052606482018590526000919083169063e129b333906084016020604051808303816000875af11580156118e2573d6000803e3d6000fd5b505050506040513d601f19601f820116820180604052508101906119069190612bc0565b9050826001600160a01b03167f787b2d0c3b917fe6a118b5225b044e4a4ba6d2d1cfa26f9b156fc1b1e263dee7828a8a866001600160a01b03166323bd4d7a6040518163ffffffff1660e01b8152600401600060405180830381865afa158015611974573d6000803e3d6000fd5b505050506040513d6000823e601f3d908101601f1916820160405261199c9190810190612bd9565b8b42338c8e6040516119b699989796959493929190612fcf565b60405180910390a25050600160c955505050505050565b60006119d76120a4565b905090565b600054610100900460ff166119f75760005460ff16156119fb565b303b155b611a5e5760405162461bcd60e51b815260206004820152602e60248201527f496e697469616c697a61626c653a20636f6e747261637420697320616c72656160448201526d191e481a5b9a5d1a585b1a5e995960921b6064820152608401610552565b600054610100900460ff16158015611a80576000805461ffff19166101011790555b6001600160a01b037f0000000000000000000000000000000000000000000000000000000000000000163003611ac85760405162461bcd60e51b815260040161055290612dfc565b7f00000000000000000000000000000000000000000000000000000000000000006001600160a01b0316611afa6120a4565b6001600160a01b031614611b205760405162461bcd60e51b815260040161055290612e48565b611b286122b8565b611b306122e7565b611b398261230e565b611b41612357565b80156110bd576000805461ff00191690555050565b600260c95403611b785760405162461bcd60e51b815260040161055290612aa7565b600260c9556001600160a01b037f0000000000000000000000000000000000000000000000000000000000000000163003611bc55760405162461bcd60e51b815260040161055290612dfc565b7f00000000000000000000000000000000000000000000000000000000000000006001600160a01b0316611bf76120a4565b6001600160a01b031614611c1d5760405162461bcd60e51b815260040161055290612e48565b600060fe8686604051611c31929190612ade565b908152604051908190036020019020546001600160a01b0316905080611c5685610f93565b611c975760405162461bcd60e51b81526020600482015260126024820152711513d2d15397d393d517d050d0d15415115160721b6044820152606401610552565b611ca18787612007565b611ce55760405162461bcd60e51b815260206004820152601560248201527446554e44494e475f434c4f5345445f424f554e545960581b6044820152606401610552565b6040516335bf83d160e21b81523360048201526001600160a01b0386811660248301526044820186905260648201859052600091829184169063d6fe0f44903490608401604080518083038185885af1158015611d46573d6000803e3d6000fd5b50505050506040513d601f19601f82011682018060405250810190611d6b9190613035565b91509150836001600160a01b03167faf36131f1dc94492cced7f049feaadaceaba10e417412ce818eccd383e16f563838b8b876001600160a01b03166323bd4d7a6040518163ffffffff1660e01b8152600401600060405180830381865afa158015611ddb573d6000803e3d6000fd5b505050506040513d6000823e601f3d908101601f19168201604052611e039190810190612bd9565b8c42338d8a604051611e1d99989796959493929190612fcf565b60405180910390a25050600160c95550505050505050565b6001600160a01b037f0000000000000000000000000000000000000000000000000000000000000000163003611e7d5760405162461bcd60e51b815260040161055290612dfc565b7f00000000000000000000000000000000000000000000000000000000000000006001600160a01b0316611eaf6120a4565b6001600160a01b031614611ed55760405162461bcd60e51b815260040161055290612e48565b6033546001600160a01b03163314611eff5760405162461bcd60e51b815260040161055290612e94565b6001600160a01b038116611f665760405162461bcd60e51b815260206004820152602860248201527f4f7261636c697a653a206e6577206f7261636c6520697320746865207a65726f604482015267206164647265737360c01b6064820152608401610552565b610f9081612386565b6033546001600160a01b03163314611f995760405162461bcd60e51b815260040161055290612e94565b6001600160a01b038116611ffe5760405162461bcd60e51b815260206004820152602660248201527f4f776e61626c653a206e6577206f776e657220697320746865207a65726f206160448201526564647265737360d01b6064820152608401610552565b610f908161225a565b60008060fe848460405161201c929190612ade565b90815260408051918290036020908101832054631006976960e11b845291516001600160a01b0390921693508392600092849263200d2ed292600480820193918290030181865afa158015612075573d6000803e3d6000fd5b505050506040513d601f19601f820116820180604052508101906120999190612bc0565b159695505050505050565b6000805160206130d9833981519152546001600160a01b031690565b6033546001600160a01b03163314610f905760405162461bcd60e51b815260040161055290612e94565b7f4910fdfa16fed3260ed0e7147f7cc6da11a60208b5b9406d12a635614ffd91435460ff16156121225761211d836123d8565b505050565b826001600160a01b03166352d1902d6040518163ffffffff1660e01b8152600401602060405180830381865afa92505050801561217c575060408051601f3d908101601f1916820190925261217991810190612bc0565b60015b6121df5760405162461bcd60e51b815260206004820152602e60248201527f45524331393637557067726164653a206e657720696d706c656d656e7461746960448201526d6f6e206973206e6f74205555505360901b6064820152608401610552565b6000805160206130d9833981519152811461224e5760405162461bcd60e51b815260206004820152602960248201527f45524331393637557067726164653a20756e737570706f727465642070726f786044820152681a58589b195555525160ba1b6064820152608401610552565b5061211d838383612474565b603380546001600160a01b038381166001600160a01b0319831681179093556040519116919082907f8be0079c531659141344cd1fd0a4f28419497f9722a3daafe3b4186f6b6457e090600090a35050565b6000610b878284613059565b600054610100900460ff166122df5760405162461bcd60e51b815260040161055290613071565b61129461249f565b600054610100900460ff166112945760405162461bcd60e51b815260040161055290613071565b600054610100900460ff166123355760405162461bcd60e51b815260040161055290613071565b60fb80546001600160a01b0319166001600160a01b0392909216919091179055565b600054610100900460ff1661237e5760405162461bcd60e51b815260040161055290613071565b6112946124cf565b60fb80546001600160a01b038381166001600160a01b0319831681179093556040519116919082907f9b0948b943e24ff3413cb400b2eeae4337138739aaf31759dc6e813e8076fbc390600090a35050565b6001600160a01b0381163b6124455760405162461bcd60e51b815260206004820152602d60248201527f455243313936373a206e657720696d706c656d656e746174696f6e206973206e60448201526c1bdd08184818dbdb9d1c9858dd609a1b6064820152608401610552565b6000805160206130d983398151915280546001600160a01b0319166001600160a01b0392909216919091179055565b61247d836124fd565b60008251118061248a5750805b1561211d57612499838361253d565b50505050565b600054610100900460ff166124c65760405162461bcd60e51b815260040161055290613071565b6112943361225a565b600054610100900460ff166124f65760405162461bcd60e51b815260040161055290613071565b600160c955565b612506816123d8565b6040516001600160a01b038216907fbc7cd75a20ee27fd9adebab32041f755214dbc6bffa90cc0225b39da2e5c2d3b90600090a250565b60606001600160a01b0383163b6125a55760405162461bcd60e51b815260206004820152602660248201527f416464726573733a2064656c65676174652063616c6c20746f206e6f6e2d636f6044820152651b9d1c9858dd60d21b6064820152608401610552565b600080846001600160a01b0316846040516125c091906130bc565b600060405180830381855af49150503d80600081146125fb576040519150601f19603f3d011682016040523d82523d6000602084013e612600565b606091505b509150915061262882826040518060600160405280602781526020016130f960279139612631565b95945050505050565b60608315612640575081610b87565b8251156126505782518084602001fd5b8160405162461bcd60e51b815260040161055291906127c0565b60008083601f84011261267c57600080fd5b5081356001600160401b0381111561269357600080fd5b6020830191508360208285010111156126ab57600080fd5b9250929050565b6001600160a01b0381168114610f9057600080fd5b6000806000806000606086880312156126df57600080fd5b85356001600160401b03808211156126f657600080fd5b61270289838a0161266a565b909750955060208801359150612717826126b2565b9093506040870135908082111561272d57600080fd5b5061273a8882890161266a565b969995985093965092949392505050565b60006020828403121561275d57600080fd5b8135610b87816126b2565b60005b8381101561278357818101518382015260200161276b565b838111156124995750506000910152565b600081518084526127ac816020860160208601612768565b601f01601f19169290920160200192915050565b602081526000610b876020830184612794565b600080600080604085870312156127e957600080fd5b84356001600160401b038082111561280057600080fd5b61280c8883890161266a565b9096509450602087013591508082111561282557600080fd5b506128328782880161266a565b95989497509550505050565b634e487b7160e01b600052604160045260246000fd5b604051601f8201601f191681016001600160401b038111828210171561287c5761287c61283e565b604052919050565b60006001600160401b0382111561289d5761289d61283e565b50601f01601f191660200190565b60006128be6128b984612884565b612854565b90508281528383830111156128d257600080fd5b828260208301376000602084830101529392505050565b6000602082840312156128fb57600080fd5b81356001600160401b0381111561291157600080fd5b8201601f8101841361292257600080fd5b612931848235602084016128ab565b949350505050565b6000806040838503121561294c57600080fd5b8235612957816126b2565b915060208301356001600160401b0381111561297257600080fd5b8301601f8101851361298357600080fd5b612992858235602084016128ab565b9150509250929050565b6000806000604084860312156129b157600080fd5b83356001600160401b038111156129c757600080fd5b6129d38682870161266a565b909790965060209590950135949350505050565b6000806000806000608086880312156129ff57600080fd5b85356001600160401b03811115612a1557600080fd5b612a218882890161266a565b9096509450506020860135612a35816126b2565b94979396509394604081013594506060013592915050565b600060208284031215612a5f57600080fd5b5035919050565b60008060208385031215612a7957600080fd5b82356001600160401b03811115612a8f57600080fd5b612a9b8582860161266a565b90969095509350505050565b6020808252601f908201527f5265656e7472616e637947756172643a207265656e7472616e742063616c6c00604082015260600190565b8183823760009101908152919050565b60006001600160401b03821115612b0757612b0761283e565b5060051b60200190565b60006020808385031215612b2457600080fd5b82516001600160401b03811115612b3a57600080fd5b8301601f81018513612b4b57600080fd5b8051612b596128b982612aee565b81815260059190911b82018301908381019087831115612b7857600080fd5b928401925b82841015612b9f578351612b90816126b2565b82529284019290840190612b7d565b979650505050505050565b634e487b7160e01b600052603260045260246000fd5b600060208284031215612bd257600080fd5b5051919050565b600060208284031215612beb57600080fd5b81516001600160401b03811115612c0157600080fd5b8201601f81018413612c1257600080fd5b8051612c206128b982612884565b818152856020838501011115612c3557600080fd5b612628826020830160208601612768565b60c081526000612c5960c0830189612794565b8281036020840152612c6b8189612794565b6001600160a01b0397881660408501526060840196909652505091909316608082015260a0019190915292915050565b634e487b7160e01b600052601160045260246000fd5b600060018201612cc357612cc3612c9b565b5060010190565b60006020808385031215612cdd57600080fd5b82516001600160401b03811115612cf357600080fd5b8301601f81018513612d0457600080fd5b8051612d126128b982612aee565b81815260059190911b82018301908381019087831115612d3157600080fd5b928401925b82841015612b9f57835182529284019290840190612d36565b81835281816020850137506000828201602090810191909152601f909101601f19169091010190565b6001600160a01b03841681526040602082018190526000906126289083018486612d4f565b60a081526000612db160a08301898b612d4f565b8281036020840152612dc38189612794565b6001600160a01b03881660408501526060840187905283810360808501529050612dee818587612d4f565b9a9950505050505050505050565b6020808252602c908201527f46756e6374696f6e206d7573742062652063616c6c6564207468726f7567682060408201526b19195b1959d85d1958d85b1b60a21b606082015260800190565b6020808252602c908201527f46756e6374696f6e206d7573742062652063616c6c6564207468726f7567682060408201526b6163746976652070726f787960a01b606082015260800190565b6020808252818101527f4f776e61626c653a2063616c6c6572206973206e6f7420746865206f776e6572604082015260600190565b606081526000612edd606083018789612d4f565b6001600160a01b03861660208401528281036040840152612eff818587612d4f565b98975050505050505050565b600060208284031215612f1d57600080fd5b8151610b87816126b2565b608081526000612f3c60808301888a612d4f565b8281036020840152612f4f818789612d4f565b6001600160a01b03959095166040840152505060600152949350505050565b600060208284031215612f8057600080fd5b81518015158114610b8757600080fd5b858152608060208201526000612faa608083018688612d4f565b8281036040840152612fbc8186612794565b9150508260608301529695505050505050565b60006101008b8352806020840152612fea8184018b8d612d4f565b90508281036040840152612ffe818a612794565b6001600160a01b039889166060850152608084019790975250509290941660a083015260c082015260e00191909152949350505050565b6000806040838503121561304857600080fd5b505080516020909101519092909150565b6000821982111561306c5761306c612c9b565b500190565b6020808252602b908201527f496e697469616c697a61626c653a20636f6e7472616374206973206e6f74206960408201526a6e697469616c697a696e6760a81b606082015260800190565b600082516130ce818460208701612768565b919091019291505056fe360894a13ba1a3210667c828492db98dca3e2076cc3735a920a3ca505d382bbc416464726573733a206c6f772d6c6576656c2064656c65676174652063616c6c206661696c6564a26469706673582212204f544da20de42034dc64af264fbd8ec5a2942b88e239edd11a1a9df1e3d13d9964736f6c634300080d0033",
  "linkReferences": {},
  "deployedLinkReferences": {}
}