{
  "_format": "hh-sol-artifact-1",
  "contractName": "OpenQV1",
  "sourceName": "contracts/OpenQ/Implementations/OpenQV1.sol",
  "abi": [
    {
      "inputs": [],
      "stateMutability": "nonpayable",
      "type": "constructor"
    },
    {
      "anonymous": false,
      "inputs": [
        {
          "indexed": false,
          "internalType": "address",
          "name": "previousAdmin",
          "type": "address"
        },
        {
          "indexed": false,
          "internalType": "address",
          "name": "newAdmin",
          "type": "address"
        }
      ],
      "name": "AdminChanged",
      "type": "event"
    },
    {
      "anonymous": false,
      "inputs": [
        {
          "indexed": true,
          "internalType": "address",
          "name": "beacon",
          "type": "address"
        }
      ],
      "name": "BeaconUpgraded",
      "type": "event"
    },
    {
      "anonymous": false,
      "inputs": [
        {
          "indexed": false,
          "internalType": "string",
          "name": "bountyId",
          "type": "string"
        },
        {
          "indexed": true,
          "internalType": "address",
          "name": "bountyAddress",
          "type": "address"
        },
        {
          "indexed": false,
          "internalType": "string",
          "name": "organization",
          "type": "string"
        },
        {
          "indexed": false,
          "internalType": "address",
          "name": "closer",
          "type": "address"
        },
        {
          "indexed": false,
          "internalType": "uint256",
          "name": "bountyClosedTime",
          "type": "uint256"
        }
      ],
      "name": "BountyClosed",
      "type": "event"
    },
    {
      "anonymous": false,
      "inputs": [
        {
          "indexed": false,
          "internalType": "string",
          "name": "bountyId",
          "type": "string"
        },
        {
          "indexed": false,
          "internalType": "string",
          "name": "organization",
          "type": "string"
        },
        {
          "indexed": false,
          "internalType": "address",
          "name": "issuerAddress",
          "type": "address"
        },
        {
          "indexed": true,
          "internalType": "address",
          "name": "bountyAddress",
          "type": "address"
        },
        {
          "indexed": false,
          "internalType": "uint256",
          "name": "bountyMintTime",
          "type": "uint256"
        }
      ],
      "name": "BountyCreated",
      "type": "event"
    },
    {
      "anonymous": false,
      "inputs": [
        {
          "indexed": false,
          "internalType": "bytes32",
          "name": "depositId",
          "type": "bytes32"
        },
        {
          "indexed": false,
          "internalType": "uint256",
          "name": "newExpiration",
          "type": "uint256"
        }
      ],
      "name": "DepositExtended",
      "type": "event"
    },
    {
      "anonymous": false,
      "inputs": [
        {
          "indexed": false,
          "internalType": "bytes32",
          "name": "depositId",
          "type": "bytes32"
        },
        {
          "indexed": false,
          "internalType": "string",
          "name": "bountyId",
          "type": "string"
        },
        {
          "indexed": true,
          "internalType": "address",
          "name": "bountyAddress",
          "type": "address"
        },
        {
          "indexed": false,
          "internalType": "string",
          "name": "organization",
          "type": "string"
        },
        {
          "indexed": false,
          "internalType": "uint256",
          "name": "refundTime",
          "type": "uint256"
        }
      ],
      "name": "DepositRefunded",
      "type": "event"
    },
    {
      "anonymous": false,
      "inputs": [
        {
          "indexed": false,
          "internalType": "uint8",
          "name": "version",
          "type": "uint8"
        }
      ],
      "name": "Initialized",
      "type": "event"
    },
    {
      "anonymous": false,
      "inputs": [
        {
          "indexed": false,
          "internalType": "bytes32",
          "name": "depositId",
          "type": "bytes32"
        },
        {
          "indexed": true,
          "internalType": "address",
          "name": "bountyAddress",
          "type": "address"
        },
        {
          "indexed": false,
          "internalType": "string",
          "name": "bountyId",
          "type": "string"
        },
        {
          "indexed": false,
          "internalType": "string",
          "name": "organization",
          "type": "string"
        },
        {
          "indexed": false,
          "internalType": "address",
          "name": "tokenAddress",
          "type": "address"
        },
        {
          "indexed": false,
          "internalType": "uint256",
          "name": "receiveTime",
          "type": "uint256"
        },
        {
          "indexed": false,
          "internalType": "address",
          "name": "sender",
          "type": "address"
        },
        {
          "indexed": false,
          "internalType": "uint256",
          "name": "expiration",
          "type": "uint256"
        },
        {
          "indexed": false,
          "internalType": "uint256",
          "name": "tokenId",
          "type": "uint256"
        }
      ],
      "name": "NFTDepositReceived",
      "type": "event"
    },
    {
      "anonymous": false,
      "inputs": [
        {
          "indexed": true,
          "internalType": "address",
          "name": "previousOracle",
          "type": "address"
        },
        {
          "indexed": true,
          "internalType": "address",
          "name": "newOracle",
          "type": "address"
        }
      ],
      "name": "OracleTransferred",
      "type": "event"
    },
    {
      "anonymous": false,
      "inputs": [
        {
          "indexed": true,
          "internalType": "address",
          "name": "previousOwner",
          "type": "address"
        },
        {
          "indexed": true,
          "internalType": "address",
          "name": "newOwner",
          "type": "address"
        }
      ],
      "name": "OwnershipTransferred",
      "type": "event"
    },
    {
      "anonymous": false,
      "inputs": [
        {
          "indexed": false,
          "internalType": "string",
          "name": "bountyId",
          "type": "string"
        },
        {
          "indexed": true,
          "internalType": "address",
          "name": "bountyAddress",
          "type": "address"
        },
        {
          "indexed": false,
          "internalType": "string",
          "name": "organization",
          "type": "string"
        },
        {
          "indexed": false,
          "internalType": "address",
          "name": "closer",
          "type": "address"
        },
        {
          "indexed": false,
          "internalType": "uint256",
          "name": "payoutTime",
          "type": "uint256"
        },
        {
          "indexed": false,
          "internalType": "address",
          "name": "tokenAddress",
          "type": "address"
        },
        {
          "indexed": false,
          "internalType": "uint256",
          "name": "volume",
          "type": "uint256"
        }
      ],
      "name": "TokenBalanceClaimed",
      "type": "event"
    },
    {
      "anonymous": false,
      "inputs": [
        {
          "indexed": false,
          "internalType": "bytes32",
          "name": "depositId",
          "type": "bytes32"
        },
        {
          "indexed": true,
          "internalType": "address",
          "name": "bountyAddress",
          "type": "address"
        },
        {
          "indexed": false,
          "internalType": "string",
          "name": "bountyId",
          "type": "string"
        },
        {
          "indexed": false,
          "internalType": "string",
          "name": "organization",
          "type": "string"
        },
        {
          "indexed": false,
          "internalType": "address",
          "name": "tokenAddress",
          "type": "address"
        },
        {
          "indexed": false,
          "internalType": "uint256",
          "name": "receiveTime",
          "type": "uint256"
        },
        {
          "indexed": false,
          "internalType": "address",
          "name": "sender",
          "type": "address"
        },
        {
          "indexed": false,
          "internalType": "uint256",
          "name": "expiration",
          "type": "uint256"
        },
        {
          "indexed": false,
          "internalType": "uint256",
          "name": "volume",
          "type": "uint256"
        }
      ],
      "name": "TokenDepositReceived",
      "type": "event"
    },
    {
      "anonymous": false,
      "inputs": [
        {
          "indexed": true,
          "internalType": "address",
          "name": "implementation",
          "type": "address"
        }
      ],
      "name": "Upgraded",
      "type": "event"
    },
    {
      "inputs": [
        {
          "internalType": "address",
          "name": "_bountyAddress",
          "type": "address"
        }
      ],
      "name": "bountyAddressToBountyId",
      "outputs": [
        {
          "internalType": "string",
          "name": "",
          "type": "string"
        }
      ],
      "stateMutability": "view",
      "type": "function"
    },
    {
      "inputs": [],
      "name": "bountyFactory",
      "outputs": [
        {
          "internalType": "contract BountyFactory",
          "name": "",
          "type": "address"
        }
      ],
      "stateMutability": "view",
      "type": "function"
    },
    {
      "inputs": [
        {
          "internalType": "string",
          "name": "",
          "type": "string"
        }
      ],
      "name": "bountyIdToAddress",
      "outputs": [
        {
          "internalType": "address",
          "name": "",
          "type": "address"
        }
      ],
      "stateMutability": "view",
      "type": "function"
    },
    {
      "inputs": [
        {
          "internalType": "string",
          "name": "_bountyId",
          "type": "string"
        }
      ],
      "name": "bountyIsOpen",
      "outputs": [
        {
          "internalType": "bool",
          "name": "",
          "type": "bool"
        }
      ],
      "stateMutability": "view",
      "type": "function"
    },
    {
      "inputs": [
        {
          "internalType": "string",
          "name": "_bountyId",
          "type": "string"
        },
        {
          "internalType": "address",
          "name": "_closer",
          "type": "address"
        }
      ],
      "name": "claimBounty",
      "outputs": [],
      "stateMutability": "nonpayable",
      "type": "function"
    },
    {
      "inputs": [],
      "name": "foo",
      "outputs": [
        {
          "internalType": "uint256",
          "name": "",
          "type": "uint256"
        }
      ],
      "stateMutability": "view",
      "type": "function"
    },
    {
      "inputs": [
        {
          "internalType": "string",
          "name": "_bountyId",
          "type": "string"
        },
        {
          "internalType": "address",
          "name": "_tokenAddress",
          "type": "address"
        },
        {
          "internalType": "uint256",
          "name": "_tokenId",
          "type": "uint256"
        },
        {
          "internalType": "uint256",
          "name": "_expiration",
          "type": "uint256"
        }
      ],
      "name": "fundBountyNFT",
      "outputs": [],
      "stateMutability": "nonpayable",
      "type": "function"
    },
    {
      "inputs": [
        {
          "internalType": "string",
          "name": "_bountyId",
          "type": "string"
        },
        {
          "internalType": "address",
          "name": "_tokenAddress",
          "type": "address"
        },
        {
          "internalType": "uint256",
          "name": "_volume",
          "type": "uint256"
        },
        {
          "internalType": "uint256",
          "name": "_expiration",
          "type": "uint256"
        }
      ],
      "name": "fundBountyToken",
      "outputs": [],
      "stateMutability": "payable",
      "type": "function"
    },
    {
      "inputs": [],
      "name": "getImplementation",
      "outputs": [
        {
          "internalType": "address",
          "name": "",
          "type": "address"
        }
      ],
      "stateMutability": "view",
      "type": "function"
    },
    {
      "inputs": [
        {
          "internalType": "address",
          "name": "oracle",
          "type": "address"
        }
      ],
      "name": "initialize",
      "outputs": [],
      "stateMutability": "nonpayable",
      "type": "function"
    },
    {
      "inputs": [
        {
          "internalType": "address",
          "name": "_tokenAddress",
          "type": "address"
        }
      ],
      "name": "isWhitelisted",
      "outputs": [
        {
          "internalType": "bool",
          "name": "",
          "type": "bool"
        }
      ],
      "stateMutability": "view",
      "type": "function"
    },
    {
      "inputs": [
        {
          "internalType": "string",
          "name": "_bountyId",
          "type": "string"
        },
        {
          "internalType": "string",
          "name": "_organization",
          "type": "string"
        }
      ],
      "name": "mintBounty",
      "outputs": [
        {
          "internalType": "address",
          "name": "",
          "type": "address"
        }
      ],
      "stateMutability": "nonpayable",
      "type": "function"
    },
    {
      "inputs": [],
      "name": "newStorageVar",
      "outputs": [
        {
          "internalType": "uint256",
          "name": "",
          "type": "uint256"
        }
      ],
      "stateMutability": "view",
      "type": "function"
    },
    {
      "inputs": [],
      "name": "openQTokenWhitelist",
      "outputs": [
        {
          "internalType": "contract OpenQTokenWhitelist",
          "name": "",
          "type": "address"
        }
      ],
      "stateMutability": "view",
      "type": "function"
    },
    {
      "inputs": [],
      "name": "oracle",
      "outputs": [
        {
          "internalType": "address",
          "name": "",
          "type": "address"
        }
      ],
      "stateMutability": "view",
      "type": "function"
    },
    {
      "inputs": [],
      "name": "owner",
      "outputs": [
        {
          "internalType": "address",
          "name": "",
          "type": "address"
        }
      ],
      "stateMutability": "view",
      "type": "function"
    },
    {
      "inputs": [],
      "name": "proxiableUUID",
      "outputs": [
        {
          "internalType": "bytes32",
          "name": "",
          "type": "bytes32"
        }
      ],
      "stateMutability": "view",
      "type": "function"
    },
    {
      "inputs": [
        {
          "internalType": "string",
          "name": "_bountyId",
          "type": "string"
        },
        {
          "internalType": "bytes32",
          "name": "_depositId",
          "type": "bytes32"
        }
      ],
      "name": "refundDeposit",
      "outputs": [],
      "stateMutability": "nonpayable",
      "type": "function"
    },
    {
      "inputs": [],
      "name": "renounceOwnership",
      "outputs": [],
      "stateMutability": "nonpayable",
      "type": "function"
    },
    {
      "inputs": [
        {
          "internalType": "address",
          "name": "_bountyFactory",
          "type": "address"
        }
      ],
      "name": "setBountyFactory",
      "outputs": [],
      "stateMutability": "nonpayable",
      "type": "function"
    },
    {
      "inputs": [
        {
          "internalType": "uint256",
          "name": "_foo",
          "type": "uint256"
        }
      ],
      "name": "setFoo",
      "outputs": [],
      "stateMutability": "nonpayable",
      "type": "function"
    },
    {
      "inputs": [
        {
          "internalType": "address",
          "name": "_openQTokenWhitelist",
          "type": "address"
        }
      ],
      "name": "setTokenWhitelist",
      "outputs": [],
      "stateMutability": "nonpayable",
      "type": "function"
    },
    {
      "inputs": [
        {
          "internalType": "address",
          "name": "_newOracle",
          "type": "address"
        }
      ],
      "name": "transferOracle",
      "outputs": [],
      "stateMutability": "nonpayable",
      "type": "function"
    },
    {
      "inputs": [
        {
          "internalType": "address",
          "name": "newOwner",
          "type": "address"
        }
      ],
      "name": "transferOwnership",
      "outputs": [],
      "stateMutability": "nonpayable",
      "type": "function"
    },
    {
      "inputs": [
        {
          "internalType": "address",
          "name": "newImplementation",
          "type": "address"
        }
      ],
      "name": "upgradeTo",
      "outputs": [],
      "stateMutability": "nonpayable",
      "type": "function"
    },
    {
      "inputs": [
        {
          "internalType": "address",
          "name": "newImplementation",
          "type": "address"
        },
        {
          "internalType": "bytes",
          "name": "data",
          "type": "bytes"
        }
      ],
      "name": "upgradeToAndCall",
      "outputs": [],
      "stateMutability": "payable",
      "type": "function"
    }
  ],
  "bytecode": "0x60a06040523060805234801561001457600080fd5b506080516131546100bc60003960008181610561015281816105aa0152818161067f015281816106bf015281816108a7015281816108e70152818161100901528181611049015281816110c201528181611102015281816111b1015281816112be015281816112fe0152818161170201528181611742015281816119ed01528181611a2d01528181611b1e01528181611b5e01528181611dd60152611e1601526131546000f3fe6080604052600436106101815760003560e01c80639da607cd116100d1578063c4d66de81161008a578063e732680611610064578063e732680614610463578063f2fde38b14610483578063f75161c6146104a3578063fd1b2e3f146104c357600080fd5b8063c4d66de814610410578063dc80035d14610430578063decef9b01461045057600080fd5b80639da607cd1461036e578063aaaa2c5e14610385578063aae57065146103a5578063aaf10f42146103c5578063b8f75c0b146103da578063c2985578146103fa57600080fd5b806348bd1e991161013e57806352d1902d1161011857806352d1902d146102fa578063715018a61461031d5780637dc0d1d0146103325780638da5cb5b1461035057600080fd5b806348bd1e99146102865780634f1ef286146102c7578063527b22db146102da57600080fd5b806310fd86c81461018657806316a2a0cc146101bc5780631ee290fb146101de5780633659cfe6146102165780633af32abf146102365780633e7da1a914610266575b600080fd5b34801561019257600080fd5b506101a66101a136600461269e565b6104e3565b6040516101b39190612713565b60405180910390f35b3480156101c857600080fd5b506101dc6101d736600461269e565b610557565b005b3480156101ea57600080fd5b506101fe6101f936600461276e565b61064c565b6040516001600160a01b0390911681526020016101b3565b34801561022257600080fd5b506101dc61023136600461269e565b61089d565b34801561024257600080fd5b5061025661025136600461269e565b610965565b60405190151581526020016101b3565b34801561027257600080fd5b506101dc6102813660046127d9565b6109da565b34801561029257600080fd5b506101fe6102a13660046128da565b805160208183018101805160fe825292820191909301209152546001600160a01b031681565b6101dc6102d536600461292a565b610fff565b3480156102e657600080fd5b506101dc6102f536600461269e565b6110b8565b34801561030657600080fd5b5061030f6111a4565b6040519081526020016101b3565b34801561032957600080fd5b506101dc611257565b34801561033e57600080fd5b5060fb546001600160a01b03166101fe565b34801561035c57600080fd5b506033546001600160a01b03166101fe565b34801561037a57600080fd5b5061030f6101005481565b34801561039157600080fd5b506101dc6103a036600461298d565b61128d565b3480156103b157600080fd5b506101dc6103c03660046129d8565b6116d1565b3480156103d157600080fd5b506101fe6119b0565b3480156103e657600080fd5b5060fc546101fe906001600160a01b031681565b34801561040657600080fd5b5061030f60ff5481565b34801561041c57600080fd5b506101dc61042b36600461269e565b6119bf565b34801561043c57600080fd5b506101dc61044b366004612a3e565b60ff55565b6101dc61045e3660046129d8565b611aed565b34801561046f57600080fd5b506101dc61047e36600461269e565b611dcc565b34801561048f57600080fd5b506101dc61049e36600461269e565b611f06565b3480156104af57600080fd5b5060fd546101fe906001600160a01b031681565b3480156104cf57600080fd5b506102566104de366004612a57565b611f9e565b60606000829050806001600160a01b031663c17bd75e6040518163ffffffff1660e01b8152600401600060405180830381865afa158015610528573d6000803e3d6000fd5b505050506040513d6000823e601f3d908101601f191682016040526105509190810190612a98565b9392505050565b6001600160a01b037f00000000000000000000000000000000000000000000000000000000000000001630036105a85760405162461bcd60e51b815260040161059f90612b05565b60405180910390fd5b7f00000000000000000000000000000000000000000000000000000000000000006001600160a01b03166105da61203b565b6001600160a01b0316146106005760405162461bcd60e51b815260040161059f90612b51565b6033546001600160a01b0316331461062a5760405162461bcd60e51b815260040161059f90612b9d565b60fc80546001600160a01b0319166001600160a01b0392909216919091179055565b6000600260c954036106705760405162461bcd60e51b815260040161059f90612bd2565b600260c9556001600160a01b037f00000000000000000000000000000000000000000000000000000000000000001630036106bd5760405162461bcd60e51b815260040161059f90612b05565b7f00000000000000000000000000000000000000000000000000000000000000006001600160a01b03166106ef61203b565b6001600160a01b0316146107155760405162461bcd60e51b815260040161059f90612b51565b60006001600160a01b031660fe8686604051610732929190612c09565b908152604051908190036020019020546001600160a01b0316146107905760405162461bcd60e51b8152602060048201526015602482015274424f554e54595f414c52454144595f45584953545360581b604482015260640161059f565b60fc546040516318aa5f9d60e31b81526000916001600160a01b03169063c552fce8906107c9908990899033908a908a90600401612c42565b6020604051808303816000875af11580156107e8573d6000803e3d6000fd5b505050506040513d601f19601f8201168201806040525081019061080c9190612c84565b90508060fe8787604051610821929190612c09565b90815260405190819003602001812080546001600160a01b039384166001600160a01b0319909116179055908216907f9b4ec425461e6b6e22c6b5a40c3fba7c8200dbc1832b92910140d4311872c1399061088790899089908990899033904290612ca1565b60405180910390a2600160c95595945050505050565b6001600160a01b037f00000000000000000000000000000000000000000000000000000000000000001630036108e55760405162461bcd60e51b815260040161059f90612b05565b7f00000000000000000000000000000000000000000000000000000000000000006001600160a01b031661091761203b565b6001600160a01b03161461093d5760405162461bcd60e51b815260040161059f90612b51565b61094681612057565b6040805160008082526020820190925261096291839190612081565b50565b60fd54604051633af32abf60e01b81526001600160a01b0383811660048301526000921690633af32abf90602401602060405180830381865afa1580156109b0573d6000803e3d6000fd5b505050506040513d601f19601f820116820180604052508101906109d49190612ce7565b92915050565b60fb546001600160a01b03163314610a4d5760405162461bcd60e51b815260206004820152603060248201527f4f7261636c697a653a2063616c6c6572206973206e6f7420746865206375727260448201526f656e74204f70656e51204f7261636c6560801b606482015260840161059f565b600260c95403610a6f5760405162461bcd60e51b815260040161059f90612bd2565b600260c955610a7e8383611f9e565b1515600114610ac85760405162461bcd60e51b8152602060048201526016602482015275434c41494d494e475f434c4f5345445f424f554e545960501b604482015260640161059f565b600060fe8484604051610adc929190612c09565b908152604051908190036020019020546001600160a01b031690508060005b816001600160a01b031663ee8c24b86040518163ffffffff1660e01b8152600401600060405180830381865afa158015610b39573d6000803e3d6000fd5b505050506040513d6000823e601f3d908101601f19168201604052610b619190810190612d2c565b51811015610d93576000826001600160a01b031663ee8c24b86040518163ffffffff1660e01b8152600401600060405180830381865afa158015610ba9573d6000803e3d6000fd5b505050506040513d6000823e601f3d908101601f19168201604052610bd19190810190612d2c565b8281518110610be257610be2612dc5565b602090810291909101015160405163cb2da3db60e01b81526001600160a01b038781166004830152808316602483015291925060009185169063cb2da3db906044016020604051808303816000875af1158015610c43573d6000803e3d6000fd5b505050506040513d601f19601f82011682018060405250810190610c679190612ddb565b9050846001600160a01b03167f2bf17f21105d9af8509a541a76fc6a7aa864cba19c9069c816abf81fe49eab59856001600160a01b031663c17bd75e6040518163ffffffff1660e01b8152600401600060405180830381865afa158015610cd2573d6000803e3d6000fd5b505050506040513d6000823e601f3d908101601f19168201604052610cfa9190810190612a98565b866001600160a01b03166323bd4d7a6040518163ffffffff1660e01b8152600401600060405180830381865afa158015610d38573d6000803e3d6000fd5b505050506040513d6000823e601f3d908101601f19168201604052610d609190810190612a98565b89428787604051610d7696959493929190612df4565b60405180910390a250508080610d8b90612e5f565b915050610afb565b5060005b816001600160a01b03166377ede8a66040518163ffffffff1660e01b8152600401600060405180830381865afa158015610dd5573d6000803e3d6000fd5b505050506040513d6000823e601f3d908101601f19168201604052610dfd9190810190612e78565b51811015610ee957604051630de2fe4b60e11b8152600481018290526001600160a01b038316906371ec4ebf9086908390631bc5fc9690602401602060405180830381865afa158015610e54573d6000803e3d6000fd5b505050506040513d601f19601f82011682018060405250810190610e789190612ddb565b6040516001600160e01b031960e085901b1681526001600160a01b0390921660048301526024820152604401600060405180830381600087803b158015610ebe57600080fd5b505af1158015610ed2573d6000803e3d6000fd5b505050508080610ee190612e5f565b915050610d97565b5060405163c74073a160e01b81526001600160a01b03848116600483015282169063c74073a190602401600060405180830381600087803b158015610f2d57600080fd5b505af1158015610f41573d6000803e3d6000fd5b50505050816001600160a01b03167f9343271f905976f6466b93515ab914676ff8c6c6151a3d597d8c319dc3bc75138686846001600160a01b03166323bd4d7a6040518163ffffffff1660e01b8152600401600060405180830381865afa158015610fb0573d6000803e3d6000fd5b505050506040513d6000823e601f3d908101601f19168201604052610fd89190810190612a98565b8742604051610feb959493929190612efd565b60405180910390a25050600160c955505050565b6001600160a01b037f00000000000000000000000000000000000000000000000000000000000000001630036110475760405162461bcd60e51b815260040161059f90612b05565b7f00000000000000000000000000000000000000000000000000000000000000006001600160a01b031661107961203b565b6001600160a01b03161461109f5760405162461bcd60e51b815260040161059f90612b51565b6110a882612057565b6110b482826001612081565b5050565b6001600160a01b037f00000000000000000000000000000000000000000000000000000000000000001630036111005760405162461bcd60e51b815260040161059f90612b05565b7f00000000000000000000000000000000000000000000000000000000000000006001600160a01b031661113261203b565b6001600160a01b0316146111585760405162461bcd60e51b815260040161059f90612b51565b6033546001600160a01b031633146111825760405162461bcd60e51b815260040161059f90612b9d565b60fd80546001600160a01b0319166001600160a01b0392909216919091179055565b6000306001600160a01b037f000000000000000000000000000000000000000000000000000000000000000016146112445760405162461bcd60e51b815260206004820152603860248201527f555550535570677261646561626c653a206d757374206e6f742062652063616c60448201527f6c6564207468726f7567682064656c656761746563616c6c0000000000000000606482015260840161059f565b506000805160206130d883398151915290565b6033546001600160a01b031633146112815760405162461bcd60e51b815260040161059f90612b9d565b61128b60006121f1565b565b600260c954036112af5760405162461bcd60e51b815260040161059f90612bd2565b600260c9556001600160a01b037f00000000000000000000000000000000000000000000000000000000000000001630036112fc5760405162461bcd60e51b815260040161059f90612b05565b7f00000000000000000000000000000000000000000000000000000000000000006001600160a01b031661132e61203b565b6001600160a01b0316146113545760405162461bcd60e51b815260040161059f90612b51565b600060fe8484604051611368929190612c09565b908152604051908190036020019020546001600160a01b031690508061138e8585611f9e565b15156001146113df5760405162461bcd60e51b815260206004820152601760248201527f524546554e44494e475f434c4f5345445f424f554e5459000000000000000000604482015260640161059f565b60405163166ea0d160e21b81526004810184905233906001600160a01b038316906359ba834490602401602060405180830381865afa158015611426573d6000803e3d6000fd5b505050506040513d601f19601f8201168201806040525081019061144a9190612c84565b6001600160a01b0316146114a05760405162461bcd60e51b815260206004820152601e60248201527f4f4e4c595f46554e4445525f43414e5f524551554553545f524546554e440000604482015260640161059f565b6040516356406fa560e01b81526004810184905261157c906001600160a01b038316906356406fa590602401602060405180830381865afa1580156114e9573d6000803e3d6000fd5b505050506040513d601f19601f8201168201806040525081019061150d9190612ddb565b60405163968b098f60e01b8152600481018690526001600160a01b0384169063968b098f90602401602060405180830381865afa158015611552573d6000803e3d6000fd5b505050506040513d601f19601f820116820180604052508101906115769190612ddb565b90612243565b4210156115cb5760405162461bcd60e51b815260206004820152601860248201527f5052454d41545552455f524546554e445f524551554553540000000000000000604482015260640161059f565b604051630c82823f60e31b8152600481018490523360248201526001600160a01b0382169063641411f890604401600060405180830381600087803b15801561161357600080fd5b505af1158015611627573d6000803e3d6000fd5b50505050816001600160a01b03167f5cfacced9b0054c7760e6620dfb8bb83cae10b8c701ad759b2e68e0d6707bfd4848787856001600160a01b03166323bd4d7a6040518163ffffffff1660e01b8152600401600060405180830381865afa158015611697573d6000803e3d6000fd5b505050506040513d6000823e601f3d908101601f191682016040526116bf9190810190612a98565b42604051610feb959493929190612f41565b600260c954036116f35760405162461bcd60e51b815260040161059f90612bd2565b600260c9556001600160a01b037f00000000000000000000000000000000000000000000000000000000000000001630036117405760405162461bcd60e51b815260040161059f90612b05565b7f00000000000000000000000000000000000000000000000000000000000000006001600160a01b031661177261203b565b6001600160a01b0316146117985760405162461bcd60e51b815260040161059f90612b51565b600060fe86866040516117ac929190612c09565b908152604051908190036020019020546001600160a01b03169050806117d185610965565b6118125760405162461bcd60e51b81526020600482015260126024820152711513d2d15397d393d517d050d0d15415115160721b604482015260640161059f565b61181c8787611f9e565b15156001146118655760405162461bcd60e51b815260206004820152601560248201527446554e44494e475f434c4f5345445f424f554e545960581b604482015260640161059f565b60405163e129b33360e01b81523360048201526001600160a01b03868116602483015260448201869052606482018590526000919083169063e129b333906084016020604051808303816000875af11580156118c5573d6000803e3d6000fd5b505050506040513d601f19601f820116820180604052508101906118e99190612ddb565b9050826001600160a01b03167f787b2d0c3b917fe6a118b5225b044e4a4ba6d2d1cfa26f9b156fc1b1e263dee7828a8a866001600160a01b03166323bd4d7a6040518163ffffffff1660e01b8152600401600060405180830381865afa158015611957573d6000803e3d6000fd5b505050506040513d6000823e601f3d908101601f1916820160405261197f9190810190612a98565b8b42338c8e60405161199999989796959493929190612f80565b60405180910390a25050600160c955505050505050565b60006119ba61203b565b905090565b60006119cb600161224f565b905080156119e3576000805461ff0019166101001790555b6001600160a01b037f0000000000000000000000000000000000000000000000000000000000000000163003611a2b5760405162461bcd60e51b815260040161059f90612b05565b7f00000000000000000000000000000000000000000000000000000000000000006001600160a01b0316611a5d61203b565b6001600160a01b031614611a835760405162461bcd60e51b815260040161059f90612b51565b611a8b6122d7565b611a93612306565b611a9c8261232d565b611aa4612376565b80156110b4576000805461ff0019169055604051600181527f7f26b83ff96e1f2b6a682f133852f6798a09c465da95921460cefb38474024989060200160405180910390a15050565b600260c95403611b0f5760405162461bcd60e51b815260040161059f90612bd2565b600260c9556001600160a01b037f0000000000000000000000000000000000000000000000000000000000000000163003611b5c5760405162461bcd60e51b815260040161059f90612b05565b7f00000000000000000000000000000000000000000000000000000000000000006001600160a01b0316611b8e61203b565b6001600160a01b031614611bb45760405162461bcd60e51b815260040161059f90612b51565b600060fe8686604051611bc8929190612c09565b908152604051908190036020019020546001600160a01b0316905080611bed85610965565b611c2e5760405162461bcd60e51b81526020600482015260126024820152711513d2d15397d393d517d050d0d15415115160721b604482015260640161059f565b611c388787611f9e565b611c7c5760405162461bcd60e51b815260206004820152601560248201527446554e44494e475f434c4f5345445f424f554e545960581b604482015260640161059f565b6040516335bf83d160e21b81523360048201526001600160a01b0386811660248301526044820186905260648201859052600091829184169063d6fe0f44903490608401604080518083038185885af1158015611cdd573d6000803e3d6000fd5b50505050506040513d601f19601f82011682018060405250810190611d029190612fe6565b91509150836001600160a01b03167faf36131f1dc94492cced7f049feaadaceaba10e417412ce818eccd383e16f563838b8b876001600160a01b03166323bd4d7a6040518163ffffffff1660e01b8152600401600060405180830381865afa158015611d72573d6000803e3d6000fd5b505050506040513d6000823e601f3d908101601f19168201604052611d9a9190810190612a98565b8c42338d8a604051611db499989796959493929190612f80565b60405180910390a25050600160c95550505050505050565b6001600160a01b037f0000000000000000000000000000000000000000000000000000000000000000163003611e145760405162461bcd60e51b815260040161059f90612b05565b7f00000000000000000000000000000000000000000000000000000000000000006001600160a01b0316611e4661203b565b6001600160a01b031614611e6c5760405162461bcd60e51b815260040161059f90612b51565b6033546001600160a01b03163314611e965760405162461bcd60e51b815260040161059f90612b9d565b6001600160a01b038116611efd5760405162461bcd60e51b815260206004820152602860248201527f4f7261636c697a653a206e6577206f7261636c6520697320746865207a65726f604482015267206164647265737360c01b606482015260840161059f565b610962816123a5565b6033546001600160a01b03163314611f305760405162461bcd60e51b815260040161059f90612b9d565b6001600160a01b038116611f955760405162461bcd60e51b815260206004820152602660248201527f4f776e61626c653a206e6577206f776e657220697320746865207a65726f206160448201526564647265737360d01b606482015260840161059f565b610962816121f1565b60008060fe8484604051611fb3929190612c09565b90815260408051918290036020908101832054631006976960e11b845291516001600160a01b0390921693508392600092849263200d2ed292600480820193918290030181865afa15801561200c573d6000803e3d6000fd5b505050506040513d601f19601f820116820180604052508101906120309190612ddb565b159695505050505050565b6000805160206130d8833981519152546001600160a01b031690565b6033546001600160a01b031633146109625760405162461bcd60e51b815260040161059f90612b9d565b7f4910fdfa16fed3260ed0e7147f7cc6da11a60208b5b9406d12a635614ffd91435460ff16156120b9576120b4836123f7565b505050565b826001600160a01b03166352d1902d6040518163ffffffff1660e01b8152600401602060405180830381865afa925050508015612113575060408051601f3d908101601f1916820190925261211091810190612ddb565b60015b6121765760405162461bcd60e51b815260206004820152602e60248201527f45524331393637557067726164653a206e657720696d706c656d656e7461746960448201526d6f6e206973206e6f74205555505360901b606482015260840161059f565b6000805160206130d883398151915281146121e55760405162461bcd60e51b815260206004820152602960248201527f45524331393637557067726164653a20756e737570706f727465642070726f786044820152681a58589b195555525160ba1b606482015260840161059f565b506120b4838383612493565b603380546001600160a01b038381166001600160a01b0319831681179093556040519116919082907f8be0079c531659141344cd1fd0a4f28419497f9722a3daafe3b4186f6b6457e090600090a35050565b6000610550828461300a565b60008054610100900460ff1615612296578160ff1660011480156122725750303b155b61228e5760405162461bcd60e51b815260040161059f90613022565b506000919050565b60005460ff8084169116106122bd5760405162461bcd60e51b815260040161059f90613022565b506000805460ff191660ff92909216919091179055600190565b600054610100900460ff166122fe5760405162461bcd60e51b815260040161059f90613070565b61128b6124be565b600054610100900460ff1661128b5760405162461bcd60e51b815260040161059f90613070565b600054610100900460ff166123545760405162461bcd60e51b815260040161059f90613070565b60fb80546001600160a01b0319166001600160a01b0392909216919091179055565b600054610100900460ff1661239d5760405162461bcd60e51b815260040161059f90613070565b61128b6124ee565b60fb80546001600160a01b038381166001600160a01b0319831681179093556040519116919082907f9b0948b943e24ff3413cb400b2eeae4337138739aaf31759dc6e813e8076fbc390600090a35050565b6001600160a01b0381163b6124645760405162461bcd60e51b815260206004820152602d60248201527f455243313936373a206e657720696d706c656d656e746174696f6e206973206e60448201526c1bdd08184818dbdb9d1c9858dd609a1b606482015260840161059f565b6000805160206130d883398151915280546001600160a01b0319166001600160a01b0392909216919091179055565b61249c8361251c565b6000825111806124a95750805b156120b4576124b8838361255c565b50505050565b600054610100900460ff166124e55760405162461bcd60e51b815260040161059f90613070565b61128b336121f1565b600054610100900460ff166125155760405162461bcd60e51b815260040161059f90613070565b600160c955565b612525816123f7565b6040516001600160a01b038216907fbc7cd75a20ee27fd9adebab32041f755214dbc6bffa90cc0225b39da2e5c2d3b90600090a250565b60606001600160a01b0383163b6125c45760405162461bcd60e51b815260206004820152602660248201527f416464726573733a2064656c65676174652063616c6c20746f206e6f6e2d636f6044820152651b9d1c9858dd60d21b606482015260840161059f565b600080846001600160a01b0316846040516125df91906130bb565b600060405180830381855af49150503d806000811461261a576040519150601f19603f3d011682016040523d82523d6000602084013e61261f565b606091505b509150915061264782826040518060600160405280602781526020016130f860279139612650565b95945050505050565b6060831561265f575081610550565b82511561266f5782518084602001fd5b8160405162461bcd60e51b815260040161059f9190612713565b6001600160a01b038116811461096257600080fd5b6000602082840312156126b057600080fd5b813561055081612689565b60005b838110156126d65781810151838201526020016126be565b838111156124b85750506000910152565b600081518084526126ff8160208601602086016126bb565b601f01601f19169290920160200192915050565b60208152600061055060208301846126e7565b60008083601f84011261273857600080fd5b5081356001600160401b0381111561274f57600080fd5b60208301915083602082850101111561276757600080fd5b9250929050565b6000806000806040858703121561278457600080fd5b84356001600160401b038082111561279b57600080fd5b6127a788838901612726565b909650945060208701359150808211156127c057600080fd5b506127cd87828801612726565b95989497509550505050565b6000806000604084860312156127ee57600080fd5b83356001600160401b0381111561280457600080fd5b61281086828701612726565b909450925050602084013561282481612689565b809150509250925092565b634e487b7160e01b600052604160045260246000fd5b604051601f8201601f191681016001600160401b038111828210171561286d5761286d61282f565b604052919050565b60006001600160401b0382111561288e5761288e61282f565b50601f01601f191660200190565b60006128af6128aa84612875565b612845565b90508281528383830111156128c357600080fd5b828260208301376000602084830101529392505050565b6000602082840312156128ec57600080fd5b81356001600160401b0381111561290257600080fd5b8201601f8101841361291357600080fd5b6129228482356020840161289c565b949350505050565b6000806040838503121561293d57600080fd5b823561294881612689565b915060208301356001600160401b0381111561296357600080fd5b8301601f8101851361297457600080fd5b6129838582356020840161289c565b9150509250929050565b6000806000604084860312156129a257600080fd5b83356001600160401b038111156129b857600080fd5b6129c486828701612726565b909790965060209590950135949350505050565b6000806000806000608086880312156129f057600080fd5b85356001600160401b03811115612a0657600080fd5b612a1288828901612726565b9096509450506020860135612a2681612689565b94979396509394604081013594506060013592915050565b600060208284031215612a5057600080fd5b5035919050565b60008060208385031215612a6a57600080fd5b82356001600160401b03811115612a8057600080fd5b612a8c85828601612726565b90969095509350505050565b600060208284031215612aaa57600080fd5b81516001600160401b03811115612ac057600080fd5b8201601f81018413612ad157600080fd5b8051612adf6128aa82612875565b818152856020838501011115612af457600080fd5b6126478260208301602086016126bb565b6020808252602c908201527f46756e6374696f6e206d7573742062652063616c6c6564207468726f7567682060408201526b19195b1959d85d1958d85b1b60a21b606082015260800190565b6020808252602c908201527f46756e6374696f6e206d7573742062652063616c6c6564207468726f7567682060408201526b6163746976652070726f787960a01b606082015260800190565b6020808252818101527f4f776e61626c653a2063616c6c6572206973206e6f7420746865206f776e6572604082015260600190565b6020808252601f908201527f5265656e7472616e637947756172643a207265656e7472616e742063616c6c00604082015260600190565b8183823760009101908152919050565b81835281816020850137506000828201602090810191909152601f909101601f19169091010190565b606081526000612c56606083018789612c19565b6001600160a01b03861660208401528281036040840152612c78818587612c19565b98975050505050505050565b600060208284031215612c9657600080fd5b815161055081612689565b608081526000612cb560808301888a612c19565b8281036020840152612cc8818789612c19565b6001600160a01b03959095166040840152505060600152949350505050565b600060208284031215612cf957600080fd5b8151801515811461055057600080fd5b60006001600160401b03821115612d2257612d2261282f565b5060051b60200190565b60006020808385031215612d3f57600080fd5b82516001600160401b03811115612d5557600080fd5b8301601f81018513612d6657600080fd5b8051612d746128aa82612d09565b81815260059190911b82018301908381019087831115612d9357600080fd5b928401925b82841015612dba578351612dab81612689565b82529284019290840190612d98565b979650505050505050565b634e487b7160e01b600052603260045260246000fd5b600060208284031215612ded57600080fd5b5051919050565b60c081526000612e0760c08301896126e7565b8281036020840152612e1981896126e7565b6001600160a01b0397881660408501526060840196909652505091909316608082015260a0019190915292915050565b634e487b7160e01b600052601160045260246000fd5b600060018201612e7157612e71612e49565b5060010190565b60006020808385031215612e8b57600080fd5b82516001600160401b03811115612ea157600080fd5b8301601f81018513612eb257600080fd5b8051612ec06128aa82612d09565b81815260059190911b82018301908381019087831115612edf57600080fd5b928401925b82841015612dba57835182529284019290840190612ee4565b608081526000612f11608083018789612c19565b8281036020840152612f2381876126e7565b6001600160a01b039590951660408401525050606001529392505050565b858152608060208201526000612f5b608083018688612c19565b8281036040840152612f6d81866126e7565b9150508260608301529695505050505050565b60006101008b8352806020840152612f9b8184018b8d612c19565b90508281036040840152612faf818a6126e7565b6001600160a01b039889166060850152608084019790975250509290941660a083015260c082015260e00191909152949350505050565b60008060408385031215612ff957600080fd5b505080516020909101519092909150565b6000821982111561301d5761301d612e49565b500190565b6020808252602e908201527f496e697469616c697a61626c653a20636f6e747261637420697320616c72656160408201526d191e481a5b9a5d1a585b1a5e995960921b606082015260800190565b6020808252602b908201527f496e697469616c697a61626c653a20636f6e7472616374206973206e6f74206960408201526a6e697469616c697a696e6760a81b606082015260800190565b600082516130cd8184602087016126bb565b919091019291505056fe360894a13ba1a3210667c828492db98dca3e2076cc3735a920a3ca505d382bbc416464726573733a206c6f772d6c6576656c2064656c65676174652063616c6c206661696c6564a2646970667358221220ed9f919355ff68b4050693d779f4d42522a5f58ab30e0547c03304f5ae6d02e064736f6c634300080d0033",
  "linkReferences": {},
  "deployedLinkReferences": {}
}