{
  "_format": "hh-sol-artifact-1",
  "contractName": "OpenQV1",
  "sourceName": "contracts/OpenQ/Implementations/OpenQV1.sol",
  "abi": [
    {
      "inputs": [],
      "stateMutability": "nonpayable",
      "type": "constructor"
    },
    {
      "anonymous": false,
      "inputs": [
        {
          "indexed": false,
          "internalType": "address",
          "name": "previousAdmin",
          "type": "address"
        },
        {
          "indexed": false,
          "internalType": "address",
          "name": "newAdmin",
          "type": "address"
        }
      ],
      "name": "AdminChanged",
      "type": "event"
    },
    {
      "anonymous": false,
      "inputs": [
        {
          "indexed": true,
          "internalType": "address",
          "name": "beacon",
          "type": "address"
        }
      ],
      "name": "BeaconUpgraded",
      "type": "event"
    },
    {
      "anonymous": false,
      "inputs": [
        {
          "indexed": false,
          "internalType": "string",
          "name": "bountyId",
          "type": "string"
        },
        {
          "indexed": false,
          "internalType": "address",
          "name": "bountyAddress",
          "type": "address"
        },
        {
          "indexed": false,
          "internalType": "string",
          "name": "organization",
          "type": "string"
        },
        {
          "indexed": false,
          "internalType": "address",
          "name": "closer",
          "type": "address"
        },
        {
          "indexed": false,
          "internalType": "uint256",
          "name": "bountyClosedTime",
          "type": "uint256"
        },
        {
          "indexed": false,
          "internalType": "uint256",
          "name": "bountyType",
          "type": "uint256"
        },
        {
          "indexed": false,
          "internalType": "bytes",
          "name": "data",
          "type": "bytes"
        },
        {
          "indexed": false,
          "internalType": "uint256",
          "name": "version",
          "type": "uint256"
        }
      ],
      "name": "BountyClosed",
      "type": "event"
    },
    {
      "anonymous": false,
      "inputs": [
        {
          "indexed": false,
          "internalType": "string",
          "name": "bountyId",
          "type": "string"
        },
        {
          "indexed": false,
          "internalType": "string",
          "name": "organization",
          "type": "string"
        },
        {
          "indexed": false,
          "internalType": "address",
          "name": "issuerAddress",
          "type": "address"
        },
        {
          "indexed": false,
          "internalType": "address",
          "name": "bountyAddress",
          "type": "address"
        },
        {
          "indexed": false,
          "internalType": "uint256",
          "name": "bountyMintTime",
          "type": "uint256"
        },
        {
          "indexed": false,
          "internalType": "uint256",
          "name": "bountyType",
          "type": "uint256"
        },
        {
          "indexed": false,
          "internalType": "bytes",
          "name": "data",
          "type": "bytes"
        },
        {
          "indexed": false,
          "internalType": "uint256",
          "name": "version",
          "type": "uint256"
        }
      ],
      "name": "BountyCreated",
      "type": "event"
    },
    {
      "anonymous": false,
      "inputs": [
        {
          "indexed": false,
          "internalType": "uint256",
          "name": "claimTime",
          "type": "uint256"
        },
        {
          "indexed": false,
          "internalType": "uint256",
          "name": "bountyType",
          "type": "uint256"
        },
        {
          "indexed": false,
          "internalType": "bytes",
          "name": "data",
          "type": "bytes"
        },
        {
          "indexed": false,
          "internalType": "uint256",
          "name": "version",
          "type": "uint256"
        }
      ],
      "name": "ClaimSuccess",
      "type": "event"
    },
    {
      "anonymous": false,
      "inputs": [
        {
          "indexed": false,
          "internalType": "bytes32",
          "name": "depositId",
          "type": "bytes32"
        },
        {
          "indexed": false,
          "internalType": "uint256",
          "name": "newExpiration",
          "type": "uint256"
        },
        {
          "indexed": false,
          "internalType": "uint256",
          "name": "bountyType",
          "type": "uint256"
        },
        {
          "indexed": false,
          "internalType": "bytes",
          "name": "data",
          "type": "bytes"
        },
        {
          "indexed": false,
          "internalType": "uint256",
          "name": "version",
          "type": "uint256"
        }
      ],
      "name": "DepositExtended",
      "type": "event"
    },
    {
      "anonymous": false,
      "inputs": [
        {
          "indexed": false,
          "internalType": "bytes32",
          "name": "depositId",
          "type": "bytes32"
        },
        {
          "indexed": false,
          "internalType": "string",
          "name": "bountyId",
          "type": "string"
        },
        {
          "indexed": false,
          "internalType": "address",
          "name": "bountyAddress",
          "type": "address"
        },
        {
          "indexed": false,
          "internalType": "string",
          "name": "organization",
          "type": "string"
        },
        {
          "indexed": false,
          "internalType": "uint256",
          "name": "refundTime",
          "type": "uint256"
        },
        {
          "indexed": false,
          "internalType": "address",
          "name": "tokenAddress",
          "type": "address"
        },
        {
          "indexed": false,
          "internalType": "uint256",
          "name": "volume",
          "type": "uint256"
        },
        {
          "indexed": false,
          "internalType": "uint256",
          "name": "bountyType",
          "type": "uint256"
        },
        {
          "indexed": false,
          "internalType": "bytes",
          "name": "data",
          "type": "bytes"
        },
        {
          "indexed": false,
          "internalType": "uint256",
          "name": "version",
          "type": "uint256"
        }
      ],
      "name": "DepositRefunded",
      "type": "event"
    },
    {
      "anonymous": false,
      "inputs": [
        {
          "indexed": false,
          "internalType": "address",
          "name": "bountyAddress",
          "type": "address"
        },
        {
          "indexed": false,
          "internalType": "address",
          "name": "fundingGoalTokenAddress",
          "type": "address"
        },
        {
          "indexed": false,
          "internalType": "uint256",
          "name": "fundingGoalVolume",
          "type": "uint256"
        },
        {
          "indexed": false,
          "internalType": "uint256",
          "name": "bountyType",
          "type": "uint256"
        },
        {
          "indexed": false,
          "internalType": "bytes",
          "name": "data",
          "type": "bytes"
        },
        {
          "indexed": false,
          "internalType": "uint256",
          "name": "version",
          "type": "uint256"
        }
      ],
      "name": "FundingGoalSet",
      "type": "event"
    },
    {
      "anonymous": false,
      "inputs": [
        {
          "indexed": false,
          "internalType": "uint8",
          "name": "version",
          "type": "uint8"
        }
      ],
      "name": "Initialized",
      "type": "event"
    },
    {
      "anonymous": false,
      "inputs": [
        {
          "indexed": false,
          "internalType": "string",
          "name": "bountyId",
          "type": "string"
        },
        {
          "indexed": false,
          "internalType": "address",
          "name": "bountyAddress",
          "type": "address"
        },
        {
          "indexed": false,
          "internalType": "string",
          "name": "organization",
          "type": "string"
        },
        {
          "indexed": false,
          "internalType": "address",
          "name": "closer",
          "type": "address"
        },
        {
          "indexed": false,
          "internalType": "uint256",
          "name": "payoutTime",
          "type": "uint256"
        },
        {
          "indexed": false,
          "internalType": "address",
          "name": "tokenAddress",
          "type": "address"
        },
        {
          "indexed": false,
          "internalType": "uint256",
          "name": "tokenId",
          "type": "uint256"
        },
        {
          "indexed": false,
          "internalType": "uint256",
          "name": "bountyType",
          "type": "uint256"
        },
        {
          "indexed": false,
          "internalType": "bytes",
          "name": "data",
          "type": "bytes"
        },
        {
          "indexed": false,
          "internalType": "uint256",
          "name": "version",
          "type": "uint256"
        }
      ],
      "name": "NFTClaimed",
      "type": "event"
    },
    {
      "anonymous": false,
      "inputs": [
        {
          "indexed": false,
          "internalType": "bytes32",
          "name": "depositId",
          "type": "bytes32"
        },
        {
          "indexed": false,
          "internalType": "address",
          "name": "bountyAddress",
          "type": "address"
        },
        {
          "indexed": false,
          "internalType": "string",
          "name": "bountyId",
          "type": "string"
        },
        {
          "indexed": false,
          "internalType": "string",
          "name": "organization",
          "type": "string"
        },
        {
          "indexed": false,
          "internalType": "address",
          "name": "tokenAddress",
          "type": "address"
        },
        {
          "indexed": false,
          "internalType": "uint256",
          "name": "receiveTime",
          "type": "uint256"
        },
        {
          "indexed": false,
          "internalType": "address",
          "name": "sender",
          "type": "address"
        },
        {
          "indexed": false,
          "internalType": "uint256",
          "name": "expiration",
          "type": "uint256"
        },
        {
          "indexed": false,
          "internalType": "uint256",
          "name": "tokenId",
          "type": "uint256"
        },
        {
          "indexed": false,
          "internalType": "uint256",
          "name": "bountyType",
          "type": "uint256"
        },
        {
          "indexed": false,
          "internalType": "bytes",
          "name": "data",
          "type": "bytes"
        },
        {
          "indexed": false,
          "internalType": "uint256",
          "name": "version",
          "type": "uint256"
        }
      ],
      "name": "NFTDepositReceived",
      "type": "event"
    },
    {
      "anonymous": false,
      "inputs": [
        {
          "indexed": true,
          "internalType": "address",
          "name": "previousOwner",
          "type": "address"
        },
        {
          "indexed": true,
          "internalType": "address",
          "name": "newOwner",
          "type": "address"
        }
      ],
      "name": "OwnershipTransferred",
      "type": "event"
    },
    {
      "anonymous": false,
      "inputs": [
        {
          "indexed": false,
          "internalType": "address",
          "name": "bountyAddress",
          "type": "address"
        },
        {
          "indexed": false,
          "internalType": "address",
          "name": "payoutTokenAddress",
          "type": "address"
        },
        {
          "indexed": false,
          "internalType": "uint256[]",
          "name": "payoutSchedule",
          "type": "uint256[]"
        },
        {
          "indexed": false,
          "internalType": "uint256",
          "name": "bountyType",
          "type": "uint256"
        },
        {
          "indexed": false,
          "internalType": "bytes",
          "name": "data",
          "type": "bytes"
        },
        {
          "indexed": false,
          "internalType": "uint256",
          "name": "version",
          "type": "uint256"
        }
      ],
      "name": "PayoutScheduleSet",
      "type": "event"
    },
    {
      "anonymous": false,
      "inputs": [
        {
          "indexed": false,
          "internalType": "address",
          "name": "bountyAddress",
          "type": "address"
        },
        {
          "indexed": false,
          "internalType": "address",
          "name": "payoutTokenAddress",
          "type": "address"
        },
        {
          "indexed": false,
          "internalType": "uint256",
          "name": "payoutTokenVolume",
          "type": "uint256"
        },
        {
          "indexed": false,
          "internalType": "uint256",
          "name": "bountyType",
          "type": "uint256"
        },
        {
          "indexed": false,
          "internalType": "bytes",
          "name": "data",
          "type": "bytes"
        },
        {
          "indexed": false,
          "internalType": "uint256",
          "name": "version",
          "type": "uint256"
        }
      ],
      "name": "PayoutSet",
      "type": "event"
    },
    {
      "anonymous": false,
      "inputs": [
        {
          "indexed": false,
          "internalType": "string",
          "name": "bountyId",
          "type": "string"
        },
        {
          "indexed": false,
          "internalType": "address",
          "name": "bountyAddress",
          "type": "address"
        },
        {
          "indexed": false,
          "internalType": "string",
          "name": "organization",
          "type": "string"
        },
        {
          "indexed": false,
          "internalType": "address",
          "name": "closer",
          "type": "address"
        },
        {
          "indexed": false,
          "internalType": "uint256",
          "name": "payoutTime",
          "type": "uint256"
        },
        {
          "indexed": false,
          "internalType": "address",
          "name": "tokenAddress",
          "type": "address"
        },
        {
          "indexed": false,
          "internalType": "uint256",
          "name": "volume",
          "type": "uint256"
        },
        {
          "indexed": false,
          "internalType": "uint256",
          "name": "bountyType",
          "type": "uint256"
        },
        {
          "indexed": false,
          "internalType": "bytes",
          "name": "data",
          "type": "bytes"
        },
        {
          "indexed": false,
          "internalType": "uint256",
          "name": "version",
          "type": "uint256"
        }
      ],
      "name": "TokenBalanceClaimed",
      "type": "event"
    },
    {
      "anonymous": false,
      "inputs": [
        {
          "indexed": false,
          "internalType": "bytes32",
          "name": "depositId",
          "type": "bytes32"
        },
        {
          "indexed": false,
          "internalType": "address",
          "name": "bountyAddress",
          "type": "address"
        },
        {
          "indexed": false,
          "internalType": "string",
          "name": "bountyId",
          "type": "string"
        },
        {
          "indexed": false,
          "internalType": "string",
          "name": "organization",
          "type": "string"
        },
        {
          "indexed": false,
          "internalType": "address",
          "name": "tokenAddress",
          "type": "address"
        },
        {
          "indexed": false,
          "internalType": "uint256",
          "name": "receiveTime",
          "type": "uint256"
        },
        {
          "indexed": false,
          "internalType": "address",
          "name": "sender",
          "type": "address"
        },
        {
          "indexed": false,
          "internalType": "uint256",
          "name": "expiration",
          "type": "uint256"
        },
        {
          "indexed": false,
          "internalType": "uint256",
          "name": "volume",
          "type": "uint256"
        },
        {
          "indexed": false,
          "internalType": "uint256",
          "name": "bountyType",
          "type": "uint256"
        },
        {
          "indexed": false,
          "internalType": "bytes",
          "name": "data",
          "type": "bytes"
        },
        {
          "indexed": false,
          "internalType": "uint256",
          "name": "version",
          "type": "uint256"
        }
      ],
      "name": "TokenDepositReceived",
      "type": "event"
    },
    {
      "anonymous": false,
      "inputs": [
        {
          "indexed": true,
          "internalType": "address",
          "name": "implementation",
          "type": "address"
        }
      ],
      "name": "Upgraded",
      "type": "event"
    },
    {
      "inputs": [],
      "name": "VERSION_1",
      "outputs": [
        {
          "internalType": "uint256",
          "name": "",
          "type": "uint256"
        }
      ],
      "stateMutability": "view",
      "type": "function"
    },
    {
      "inputs": [
        {
          "internalType": "address",
          "name": "_bountyAddress",
          "type": "address"
        }
      ],
      "name": "bountyAddressToBountyId",
      "outputs": [
        {
          "internalType": "string",
          "name": "",
          "type": "string"
        }
      ],
      "stateMutability": "view",
      "type": "function"
    },
    {
      "inputs": [],
      "name": "bountyFactory",
      "outputs": [
        {
          "internalType": "contract BountyFactory",
          "name": "",
          "type": "address"
        }
      ],
      "stateMutability": "view",
      "type": "function"
    },
    {
      "inputs": [
        {
          "internalType": "string",
          "name": "",
          "type": "string"
        }
      ],
      "name": "bountyIdToAddress",
      "outputs": [
        {
          "internalType": "address",
          "name": "",
          "type": "address"
        }
      ],
      "stateMutability": "view",
      "type": "function"
    },
    {
      "inputs": [
        {
          "internalType": "string",
          "name": "_bountyId",
          "type": "string"
        }
      ],
      "name": "bountyIsOpen",
      "outputs": [
        {
          "internalType": "bool",
          "name": "",
          "type": "bool"
        }
      ],
      "stateMutability": "view",
      "type": "function"
    },
    {
      "inputs": [
        {
          "internalType": "string",
          "name": "_bountyId",
          "type": "string"
        }
      ],
      "name": "bountyType",
      "outputs": [
        {
          "internalType": "uint256",
          "name": "",
          "type": "uint256"
        }
      ],
      "stateMutability": "view",
      "type": "function"
    },
    {
      "inputs": [],
      "name": "claimManager",
      "outputs": [
        {
          "internalType": "address",
          "name": "",
          "type": "address"
        }
      ],
      "stateMutability": "view",
      "type": "function"
    },
    {
      "inputs": [
        {
          "internalType": "string",
          "name": "_bountyId",
          "type": "string"
        }
      ],
      "name": "closeCompetition",
      "outputs": [],
      "stateMutability": "nonpayable",
      "type": "function"
    },
    {
      "inputs": [
        {
          "internalType": "string",
          "name": "_bountyId",
          "type": "string"
        }
      ],
      "name": "closeOngoing",
      "outputs": [],
      "stateMutability": "nonpayable",
      "type": "function"
    },
    {
      "inputs": [],
      "name": "depositManager",
      "outputs": [
        {
          "internalType": "address",
          "name": "",
          "type": "address"
        }
      ],
      "stateMutability": "view",
      "type": "function"
    },
    {
      "inputs": [],
      "name": "getImplementation",
      "outputs": [
        {
          "internalType": "address",
          "name": "",
          "type": "address"
        }
      ],
      "stateMutability": "view",
      "type": "function"
    },
    {
      "inputs": [],
      "name": "initialize",
      "outputs": [],
      "stateMutability": "nonpayable",
      "type": "function"
    },
    {
      "inputs": [
        {
          "internalType": "string",
          "name": "_bountyId",
          "type": "string"
        },
        {
          "internalType": "string",
          "name": "_organization",
          "type": "string"
        },
        {
          "components": [
            {
              "internalType": "uint32",
              "name": "operationType",
              "type": "uint32"
            },
            {
              "internalType": "bytes",
              "name": "data",
              "type": "bytes"
            }
          ],
          "internalType": "struct OpenQDefinitions.InitOperation",
          "name": "_initOperation",
          "type": "tuple"
        }
      ],
      "name": "mintBounty",
      "outputs": [
        {
          "internalType": "address",
          "name": "",
          "type": "address"
        }
      ],
      "stateMutability": "nonpayable",
      "type": "function"
    },
    {
      "inputs": [
        {
          "internalType": "string",
          "name": "_bountyId",
          "type": "string"
        },
        {
          "internalType": "string",
          "name": "claimant",
          "type": "string"
        },
        {
          "internalType": "string",
          "name": "claimantAsset",
          "type": "string"
        }
      ],
      "name": "ongoingClaimed",
      "outputs": [
        {
          "internalType": "bool",
          "name": "",
          "type": "bool"
        }
      ],
      "stateMutability": "view",
      "type": "function"
    },
    {
      "inputs": [],
      "name": "owner",
      "outputs": [
        {
          "internalType": "address",
          "name": "",
          "type": "address"
        }
      ],
      "stateMutability": "view",
      "type": "function"
    },
    {
      "inputs": [],
      "name": "proxiableUUID",
      "outputs": [
        {
          "internalType": "bytes32",
          "name": "",
          "type": "bytes32"
        }
      ],
      "stateMutability": "view",
      "type": "function"
    },
    {
      "inputs": [],
      "name": "renounceOwnership",
      "outputs": [],
      "stateMutability": "nonpayable",
      "type": "function"
    },
    {
      "inputs": [
        {
          "internalType": "address",
          "name": "_bountyFactory",
          "type": "address"
        }
      ],
      "name": "setBountyFactory",
      "outputs": [],
      "stateMutability": "nonpayable",
      "type": "function"
    },
    {
      "inputs": [
        {
          "internalType": "address",
          "name": "_claimManager",
          "type": "address"
        }
      ],
      "name": "setClaimManager",
      "outputs": [],
      "stateMutability": "nonpayable",
      "type": "function"
    },
    {
      "inputs": [
        {
          "internalType": "address",
          "name": "_depositManager",
          "type": "address"
        }
      ],
      "name": "setDepositManager",
      "outputs": [],
      "stateMutability": "nonpayable",
      "type": "function"
    },
    {
      "inputs": [
        {
          "internalType": "string",
          "name": "_bountyId",
          "type": "string"
        },
        {
          "internalType": "address",
          "name": "_fundingGoalToken",
          "type": "address"
        },
        {
          "internalType": "uint256",
          "name": "_fundingGoalVolume",
          "type": "uint256"
        }
      ],
      "name": "setFundingGoal",
      "outputs": [],
      "stateMutability": "nonpayable",
      "type": "function"
    },
    {
      "inputs": [
        {
          "internalType": "string",
          "name": "_bountyId",
          "type": "string"
        },
        {
          "internalType": "address",
          "name": "_payoutToken",
          "type": "address"
        },
        {
          "internalType": "uint256",
          "name": "_payoutVolume",
          "type": "uint256"
        }
      ],
      "name": "setPayout",
      "outputs": [],
      "stateMutability": "nonpayable",
      "type": "function"
    },
    {
      "inputs": [
        {
          "internalType": "string",
          "name": "_bountyId",
          "type": "string"
        },
        {
          "internalType": "uint256[]",
          "name": "_payoutSchedule",
          "type": "uint256[]"
        }
      ],
      "name": "setPayoutSchedule",
      "outputs": [],
      "stateMutability": "nonpayable",
      "type": "function"
    },
    {
      "inputs": [
        {
          "internalType": "string",
          "name": "_bountyId",
          "type": "string"
        },
        {
          "internalType": "uint256[]",
          "name": "_payoutSchedule",
          "type": "uint256[]"
        },
        {
          "internalType": "address",
          "name": "_payoutTokenAddress",
          "type": "address"
        }
      ],
      "name": "setPayoutScheduleFixed",
      "outputs": [],
      "stateMutability": "nonpayable",
      "type": "function"
    },
    {
      "inputs": [
        {
          "internalType": "string",
          "name": "_bountyId",
          "type": "string"
        },
        {
          "internalType": "uint256",
          "name": "_tier",
          "type": "uint256"
        }
      ],
      "name": "tierClaimed",
      "outputs": [
        {
          "internalType": "bool",
          "name": "",
          "type": "bool"
        }
      ],
      "stateMutability": "view",
      "type": "function"
    },
    {
      "inputs": [
        {
          "internalType": "address",
          "name": "newOwner",
          "type": "address"
        }
      ],
      "name": "transferOwnership",
      "outputs": [],
      "stateMutability": "nonpayable",
      "type": "function"
    },
    {
      "inputs": [
        {
          "internalType": "address",
          "name": "newImplementation",
          "type": "address"
        }
      ],
      "name": "upgradeTo",
      "outputs": [],
      "stateMutability": "nonpayable",
      "type": "function"
    },
    {
      "inputs": [
        {
          "internalType": "address",
          "name": "newImplementation",
          "type": "address"
        },
        {
          "internalType": "bytes",
          "name": "data",
          "type": "bytes"
        }
      ],
      "name": "upgradeToAndCall",
      "outputs": [],
      "stateMutability": "payable",
      "type": "function"
    }
  ],
  "bytecode": "0x60a06040523060805234801561001457600080fd5b5060805161315f6100ca600039600081816105e30152818161062c015281816106b6015281816106f601528181610ba801528181610be801528181610cc901528181610d0901528181610f1c01528181610f5c01528181610fd80152818161109c015281816110dc015281816113d201528181611412015281816114d201528181611512015281816117e40152818161182401528181611b7a01528181611bba01528181611d9c0152611ddc015261315f6000f3fe6080604052600436106101b75760003560e01c80638129fc1c116100ec578063b8f75c0b1161008a578063f2fde38b11610064578063f2fde38b146104e5578063f8d7c19d14610505578063fa4657ad14610525578063fd1b2e3f1461054557600080fd5b8063b8f75c0b14610485578063b91a53df146104a5578063bdc969c6146104c557600080fd5b8063a8bca7b8116100c6578063a8bca7b814610410578063a9a36dcd14610430578063aaf10f4214610450578063b6da21441461046557600080fd5b80638129fc1c146103bd5780638da5cb5b146103d2578063957016ed146103f057600080fd5b80633948eddd1161015957806352d1902d1161013357806352d1902d146103535780636c7ac9d814610368578063715018a61461038857806371b30d8c1461039d57600080fd5b80633948eddd146102c757806348bd1e99146102ff5780634f1ef2861461034057600080fd5b806322c2adf51161019557806322c2adf51461023457806326c20e5f1461025457806336200461146102775780633659cfe6146102a757600080fd5b806310fd86c8146101bc57806316a2a0cc146101f2578063228d71a914610214575b600080fd5b3480156101c857600080fd5b506101dc6101d7366004612614565b610565565b6040516101e99190612681565b60405180910390f35b3480156101fe57600080fd5b5061021261020d366004612614565b6105d9565b005b34801561022057600080fd5b5061021261022f366004612614565b6106ac565b34801561024057600080fd5b5061021261024f3660046126dc565b610776565b34801561026057600080fd5b50610269600181565b6040519081526020016101e9565b34801561028357600080fd5b5061029761029236600461271d565b610ac3565b60405190151581526020016101e9565b3480156102b357600080fd5b506102126102c2366004612614565b610b9e565b3480156102d357600080fd5b506102e76102e23660046128a9565b610c66565b6040516001600160a01b0390911681526020016101e9565b34801561030b57600080fd5b506102e761031a366004612988565b805160208183018101805160fe825292820191909301209152546001600160a01b031681565b61021261034e3660046129d8565b610f12565b34801561035f57600080fd5b50610269610fcb565b34801561037457600080fd5b5060fd546102e7906001600160a01b031681565b34801561039457600080fd5b5061021261107e565b3480156103a957600080fd5b506102126103b8366004612a27565b611092565b3480156103c957600080fd5b50610212611308565b3480156103de57600080fd5b506033546001600160a01b03166102e7565b3480156103fc57600080fd5b5061021261040b366004612ac7565b6114c8565b34801561041c57600080fd5b5061026961042b3660046126dc565b61172f565b34801561043c57600080fd5b5060fc546102e7906001600160a01b031681565b34801561045c57600080fd5b506102e76117cb565b34801561047157600080fd5b50610212610480366004612614565b6117da565b34801561049157600080fd5b5060fb546102e7906001600160a01b031681565b3480156104b157600080fd5b506102126104c03660046126dc565b6118a4565b3480156104d157600080fd5b506102976104e0366004612b32565b611a55565b3480156104f157600080fd5b50610212610500366004612614565b611afa565b34801561051157600080fd5b50610212610520366004612a27565b611b70565b34801561053157600080fd5b50610212610540366004612b7d565b611d92565b34801561055157600080fd5b506102976105603660046126dc565b61200b565b60606000829050806001600160a01b031663c17bd75e6040518163ffffffff1660e01b8152600401600060405180830381865afa1580156105aa573d6000803e3d6000fd5b505050506040513d6000823e601f3d908101601f191682016040526105d29190810190612c00565b9392505050565b6001600160a01b037f000000000000000000000000000000000000000000000000000000000000000016300361062a5760405162461bcd60e51b815260040161062190612c6d565b60405180910390fd5b7f00000000000000000000000000000000000000000000000000000000000000006001600160a01b031661065c6120a8565b6001600160a01b0316146106825760405162461bcd60e51b815260040161062190612cb9565b61068a6120c4565b60fb80546001600160a01b0319166001600160a01b0392909216919091179055565b6001600160a01b037f00000000000000000000000000000000000000000000000000000000000000001630036106f45760405162461bcd60e51b815260040161062190612c6d565b7f00000000000000000000000000000000000000000000000000000000000000006001600160a01b03166107266120a8565b6001600160a01b03161461074c5760405162461bcd60e51b815260040161062190612cb9565b6107546120c4565b60fd80546001600160a01b0319166001600160a01b0392909216919091179055565b610780828261200b565b6107cc5760405162461bcd60e51b815260206004820152601a60248201527f434f4d5045544954494f4e5f414c52454144595f434c4f5345440000000000006044820152606401610621565b60026107d8838361172f565b14806107ed575060036107eb838361172f565b145b6108395760405162461bcd60e51b815260206004820152601860248201527f4e4f545f415f434f4d5045544954494f4e5f424f554e545900000000000000006044820152606401610621565b600060fe838360405161084d929190612d05565b9081526040805160209281900383018120546303a2870960e31b825291516001600160a01b0390921693508392631d143848926004808401938290030181865afa15801561089f573d6000803e3d6000fd5b505050506040513d601f19601f820116820180604052508101906108c39190612d15565b6001600160a01b0316336001600160a01b0316146109175760405162461bcd60e51b815260206004820152601160248201527021a627a9a2a92fa727aa2fa4a9a9aaa2a960791b6044820152606401610621565b60405163031b33b760e11b81523360048201526001600160a01b03821690630636676e906024015b600060405180830381600087803b15801561095957600080fd5b505af115801561096d573d6000803e3d6000fd5b505050507fb9d76ba577270421a3b4826a02b81b7678f1d62214225408b99f94e42d78278c838360fe86866040516109a6929190612d05565b908152602001604051809103902060009054906101000a90046001600160a01b0316846001600160a01b03166323bd4d7a6040518163ffffffff1660e01b8152600401600060405180830381865afa158015610a06573d6000803e3d6000fd5b505050506040513d6000823e601f3d908101601f19168201604052610a2e9190810190612c00565b600042876001600160a01b031663b3ca1f3b6040518163ffffffff1660e01b8152600401602060405180830381865afa158015610a6f573d6000803e3d6000fd5b505050506040513d601f19601f82011682018060405250810190610a939190612d32565b60408051600081526020810191829052610ab69897969594939291600190612d74565b60405180910390a1505050565b60008060fe8888604051610ad8929190612d05565b90815260405160209181900382018120546001600160a01b031692508291600091610b0b918a918a918a918a9101612dee565b60408051601f19818403018152908290528051602090910120636420fd9360e01b82526004820181905291506000906001600160a01b03841690636420fd9390602401602060405180830381865afa158015610b6b573d6000803e3d6000fd5b505050506040513d601f19601f82011682018060405250810190610b8f9190612e15565b9b9a5050505050505050505050565b6001600160a01b037f0000000000000000000000000000000000000000000000000000000000000000163003610be65760405162461bcd60e51b815260040161062190612c6d565b7f00000000000000000000000000000000000000000000000000000000000000006001600160a01b0316610c186120a8565b6001600160a01b031614610c3e5760405162461bcd60e51b815260040161062190612cb9565b610c478161211e565b60408051600080825260208201909252610c6391839190612126565b50565b6000600260c95403610cba5760405162461bcd60e51b815260206004820152601f60248201527f5265656e7472616e637947756172643a207265656e7472616e742063616c6c006044820152606401610621565b600260c9556001600160a01b037f0000000000000000000000000000000000000000000000000000000000000000163003610d075760405162461bcd60e51b815260040161062190612c6d565b7f00000000000000000000000000000000000000000000000000000000000000006001600160a01b0316610d396120a8565b6001600160a01b031614610d5f5760405162461bcd60e51b815260040161062190612cb9565b60006001600160a01b031660fe8787604051610d7c929190612d05565b908152604051908190036020019020546001600160a01b031614610dda5760405162461bcd60e51b8152602060048201526015602482015274424f554e54595f414c52454144595f45584953545360581b6044820152606401610621565b60fb5460fc5460fd546040516323e95f5160e11b81526000936001600160a01b03908116936347d2bea293610e25938d938d9333938e938e9392831692909116908d90600401612e37565b6020604051808303816000875af1158015610e44573d6000803e3d6000fd5b505050506040513d601f19601f82011682018060405250810190610e689190612d15565b90508060fe8888604051610e7d929190612d05565b90815260405190819003602001902080546001600160a01b03929092166001600160a01b03199092169190911790557f07bf14db09a3c8b7d7e240acc23ab6da8587183655a6ffcbda01ca7b026a375787878787338642610ede878761172f565b8b602001516001604051610efb9a99989796959493929190612ebc565b60405180910390a1600160c9559695505050505050565b6001600160a01b037f0000000000000000000000000000000000000000000000000000000000000000163003610f5a5760405162461bcd60e51b815260040161062190612c6d565b7f00000000000000000000000000000000000000000000000000000000000000006001600160a01b0316610f8c6120a8565b6001600160a01b031614610fb25760405162461bcd60e51b815260040161062190612cb9565b610fbb8261211e565b610fc782826001612126565b5050565b6000306001600160a01b037f0000000000000000000000000000000000000000000000000000000000000000161461106b5760405162461bcd60e51b815260206004820152603860248201527f555550535570677261646561626c653a206d757374206e6f742062652063616c60448201527f6c6564207468726f7567682064656c656761746563616c6c00000000000000006064820152608401610621565b506000805160206130e383398151915290565b6110866120c4565b6110906000612296565b565b6001600160a01b037f00000000000000000000000000000000000000000000000000000000000000001630036110da5760405162461bcd60e51b815260040161062190612c6d565b7f00000000000000000000000000000000000000000000000000000000000000006001600160a01b031661110c6120a8565b6001600160a01b0316146111325760405162461bcd60e51b815260040161062190612cb9565b600060fe8585604051611146929190612d05565b9081526040805160209281900383018120546303a2870960e31b825291516001600160a01b03909216935083928392631d1438489260048082019392918290030181865afa15801561119c573d6000803e3d6000fd5b505050506040513d601f19601f820116820180604052508101906111c09190612d15565b6001600160a01b0316336001600160a01b0316146111f05760405162461bcd60e51b815260040161062190612f37565b604051633d0cb68760e11b81526001600160a01b03858116600483015260248201859052821690637a196d0e90604401600060405180830381600087803b15801561123a57600080fd5b505af115801561124e573d6000803e3d6000fd5b505050507fbb9405a972eb4ee3568c40dcd1a2c0ad2b86495f0478c68c5924d0a3773f282d828585846001600160a01b031663b3ca1f3b6040518163ffffffff1660e01b8152600401602060405180830381865afa1580156112b4573d6000803e3d6000fd5b505050506040513d601f19601f820116820180604052508101906112d89190612d32565b604080516000815260208101918290526112f89594939291600190612f62565b60405180910390a1505050505050565b600054610100900460ff16158080156113285750600054600160ff909116105b806113425750303b158015611342575060005460ff166001145b6113a55760405162461bcd60e51b815260206004820152602e60248201527f496e697469616c697a61626c653a20636f6e747261637420697320616c72656160448201526d191e481a5b9a5d1a585b1a5e995960921b6064820152608401610621565b6000805460ff1916600117905580156113c8576000805461ff0019166101001790555b6001600160a01b037f00000000000000000000000000000000000000000000000000000000000000001630036114105760405162461bcd60e51b815260040161062190612c6d565b7f00000000000000000000000000000000000000000000000000000000000000006001600160a01b03166114426120a8565b6001600160a01b0316146114685760405162461bcd60e51b815260040161062190612cb9565b6114706122e8565b611478612317565b61148061233e565b8015610c63576000805461ff0019169055604051600181527f7f26b83ff96e1f2b6a682f133852f6798a09c465da95921460cefb38474024989060200160405180910390a150565b6001600160a01b037f00000000000000000000000000000000000000000000000000000000000000001630036115105760405162461bcd60e51b815260040161062190612c6d565b7f00000000000000000000000000000000000000000000000000000000000000006001600160a01b03166115426120a8565b6001600160a01b0316146115685760405162461bcd60e51b815260040161062190612cb9565b600060fe858560405161157c929190612d05565b9081526040805160209281900383018120546303a2870960e31b825291516001600160a01b03909216935083928392631d1438489260048082019392918290030181865afa1580156115d2573d6000803e3d6000fd5b505050506040513d601f19601f820116820180604052508101906115f69190612d15565b6001600160a01b0316336001600160a01b0316146116265760405162461bcd60e51b815260040161062190612f37565b604051631f2e3a3960e21b81526001600160a01b03821690637cb8e8e4906116549087908790600401612fe1565b600060405180830381600087803b15801561166e57600080fd5b505af1158015611682573d6000803e3d6000fd5b505050507fc01596aef916fd836c1d861e3aa0bcabd30fa27830ebb88b76016236c942b4598260008686856001600160a01b031663b3ca1f3b6040518163ffffffff1660e01b8152600401602060405180830381865afa1580156116ea573d6000803e3d6000fd5b505050506040513d601f19601f8201168201806040525081019061170e9190612d32565b604080516000815260208101918290526112f8969594939291600190612ff5565b60008060fe8484604051611744929190612d05565b9081526040805191829003602090810183205463b3ca1f3b60e01b845291516001600160a01b0390921693508392600092849263b3ca1f3b92600480820193918290030181865afa15801561179d573d6000803e3d6000fd5b505050506040513d601f19601f820116820180604052508101906117c19190612d32565b9695505050505050565b60006117d56120a8565b905090565b6001600160a01b037f00000000000000000000000000000000000000000000000000000000000000001630036118225760405162461bcd60e51b815260040161062190612c6d565b7f00000000000000000000000000000000000000000000000000000000000000006001600160a01b03166118546120a8565b6001600160a01b03161461187a5760405162461bcd60e51b815260040161062190612cb9565b6118826120c4565b60fc80546001600160a01b0319166001600160a01b0392909216919091179055565b6118ae828261200b565b6118fa5760405162461bcd60e51b815260206004820152601d60248201527f4f4e474f494e475f424f554e54595f414c52454144595f434c4f5345440000006044820152606401610621565b6001611906838361172f565b1461194b5760405162461bcd60e51b81526020600482015260156024820152744e4f545f414e5f4f4e474f494e475f424f554e545960581b6044820152606401610621565b600060fe838360405161195f929190612d05565b9081526040805160209281900383018120546303a2870960e31b825291516001600160a01b0390921693508392631d143848926004808401938290030181865afa1580156119b1573d6000803e3d6000fd5b505050506040513d601f19601f820116820180604052508101906119d59190612d15565b6001600160a01b0316336001600160a01b031614611a295760405162461bcd60e51b815260206004820152601160248201527021a627a9a2a92fa727aa2fa4a9a9aaa2a960791b6044820152606401610621565b60405163764e161b60e11b81523360048201526001600160a01b0382169063ec9c2c369060240161093f565b60008060fe8585604051611a6a929190612d05565b90815260405190819003602001812054634ee5bdc760e11b82526001600160a01b0316915081906000908290639dcb7b8e90611aae90889060040190815260200190565b602060405180830381865afa158015611acb573d6000803e3d6000fd5b505050506040513d601f19601f82011682018060405250810190611aef9190612e15565b979650505050505050565b611b026120c4565b6001600160a01b038116611b675760405162461bcd60e51b815260206004820152602660248201527f4f776e61626c653a206e6577206f776e657220697320746865207a65726f206160448201526564647265737360d01b6064820152608401610621565b610c6381612296565b6001600160a01b037f0000000000000000000000000000000000000000000000000000000000000000163003611bb85760405162461bcd60e51b815260040161062190612c6d565b7f00000000000000000000000000000000000000000000000000000000000000006001600160a01b0316611bea6120a8565b6001600160a01b031614611c105760405162461bcd60e51b815260040161062190612cb9565b600060fe8585604051611c24929190612d05565b9081526040805160209281900383018120546303a2870960e31b825291516001600160a01b03909216935083928392631d1438489260048082019392918290030181865afa158015611c7a573d6000803e3d6000fd5b505050506040513d601f19601f82011682018060405250810190611c9e9190612d15565b6001600160a01b0316336001600160a01b031614611cce5760405162461bcd60e51b815260040161062190612f37565b60405163ceff310760e01b81526001600160a01b0385811660048301526024820185905282169063ceff310790604401600060405180830381600087803b158015611d1857600080fd5b505af1158015611d2c573d6000803e3d6000fd5b505050507f9ebf11c1043e634700e1019f0f2f99b428b0fe7e1d5f1d1a5cb3fc74137eb957828585846001600160a01b031663b3ca1f3b6040518163ffffffff1660e01b8152600401602060405180830381865afa1580156112b4573d6000803e3d6000fd5b6001600160a01b037f0000000000000000000000000000000000000000000000000000000000000000163003611dda5760405162461bcd60e51b815260040161062190612c6d565b7f00000000000000000000000000000000000000000000000000000000000000006001600160a01b0316611e0c6120a8565b6001600160a01b031614611e325760405162461bcd60e51b815260040161062190612cb9565b600060fe8686604051611e46929190612d05565b9081526040805160209281900383018120546303a2870960e31b825291516001600160a01b03909216935083928392631d1438489260048082019392918290030181865afa158015611e9c573d6000803e3d6000fd5b505050506040513d601f19601f82011682018060405250810190611ec09190612d15565b6001600160a01b0316336001600160a01b031614611ef05760405162461bcd60e51b815260040161062190612f37565b604051630309e3e760e31b81526001600160a01b0382169063184f1f3890611f209088908890889060040161304f565b600060405180830381600087803b158015611f3a57600080fd5b505af1158015611f4e573d6000803e3d6000fd5b505050507fc01596aef916fd836c1d861e3aa0bcabd30fa27830ebb88b76016236c942b45982848787856001600160a01b031663b3ca1f3b6040518163ffffffff1660e01b8152600401602060405180830381865afa158015611fb5573d6000803e3d6000fd5b505050506040513d601f19601f82011682018060405250810190611fd99190612d32565b60408051600081526020810191829052611ffa969594939291600190612ff5565b60405180910390a150505050505050565b60008060fe8484604051612020929190612d05565b908152604080516020928190038301812054631006976960e11b825291516001600160a01b03909216935083926000928392859263200d2ed2926004808401938290030181865afa158015612079573d6000803e3d6000fd5b505050506040513d601f19601f8201168201806040525081019061209d9190612d32565b149695505050505050565b6000805160206130e3833981519152546001600160a01b031690565b6033546001600160a01b031633146110905760405162461bcd60e51b815260206004820181905260248201527f4f776e61626c653a2063616c6c6572206973206e6f7420746865206f776e65726044820152606401610621565b610c636120c4565b7f4910fdfa16fed3260ed0e7147f7cc6da11a60208b5b9406d12a635614ffd91435460ff161561215e576121598361236d565b505050565b826001600160a01b03166352d1902d6040518163ffffffff1660e01b8152600401602060405180830381865afa9250505080156121b8575060408051601f3d908101601f191682019092526121b591810190612d32565b60015b61221b5760405162461bcd60e51b815260206004820152602e60248201527f45524331393637557067726164653a206e657720696d706c656d656e7461746960448201526d6f6e206973206e6f74205555505360901b6064820152608401610621565b6000805160206130e3833981519152811461228a5760405162461bcd60e51b815260206004820152602960248201527f45524331393637557067726164653a20756e737570706f727465642070726f786044820152681a58589b195555525160ba1b6064820152608401610621565b50612159838383612409565b603380546001600160a01b038381166001600160a01b0319831681179093556040519116919082907f8be0079c531659141344cd1fd0a4f28419497f9722a3daafe3b4186f6b6457e090600090a35050565b600054610100900460ff1661230f5760405162461bcd60e51b81526004016106219061307b565b611090612434565b600054610100900460ff166110905760405162461bcd60e51b81526004016106219061307b565b600054610100900460ff166123655760405162461bcd60e51b81526004016106219061307b565b611090612464565b6001600160a01b0381163b6123da5760405162461bcd60e51b815260206004820152602d60248201527f455243313936373a206e657720696d706c656d656e746174696f6e206973206e60448201526c1bdd08184818dbdb9d1c9858dd609a1b6064820152608401610621565b6000805160206130e383398151915280546001600160a01b0319166001600160a01b0392909216919091179055565b61241283612492565b60008251118061241f5750805b156121595761242e83836124d2565b50505050565b600054610100900460ff1661245b5760405162461bcd60e51b81526004016106219061307b565b61109033612296565b600054610100900460ff1661248b5760405162461bcd60e51b81526004016106219061307b565b600160c955565b61249b8161236d565b6040516001600160a01b038216907fbc7cd75a20ee27fd9adebab32041f755214dbc6bffa90cc0225b39da2e5c2d3b90600090a250565b60606001600160a01b0383163b61253a5760405162461bcd60e51b815260206004820152602660248201527f416464726573733a2064656c65676174652063616c6c20746f206e6f6e2d636f6044820152651b9d1c9858dd60d21b6064820152608401610621565b600080846001600160a01b03168460405161255591906130c6565b600060405180830381855af49150503d8060008114612590576040519150601f19603f3d011682016040523d82523d6000602084013e612595565b606091505b50915091506125bd8282604051806060016040528060278152602001613103602791396125c6565b95945050505050565b606083156125d55750816105d2565b8251156125e55782518084602001fd5b8160405162461bcd60e51b81526004016106219190612681565b6001600160a01b0381168114610c6357600080fd5b60006020828403121561262657600080fd5b81356105d2816125ff565b60005b8381101561264c578181015183820152602001612634565b50506000910152565b6000815180845261266d816020860160208601612631565b601f01601f19169290920160200192915050565b6020815260006105d26020830184612655565b60008083601f8401126126a657600080fd5b5081356001600160401b038111156126bd57600080fd5b6020830191508360208285010111156126d557600080fd5b9250929050565b600080602083850312156126ef57600080fd5b82356001600160401b0381111561270557600080fd5b61271185828601612694565b90969095509350505050565b6000806000806000806060878903121561273657600080fd5b86356001600160401b038082111561274d57600080fd5b6127598a838b01612694565b9098509650602089013591508082111561277257600080fd5b61277e8a838b01612694565b9096509450604089013591508082111561279757600080fd5b506127a489828a01612694565b979a9699509497509295939492505050565b634e487b7160e01b600052604160045260246000fd5b604080519081016001600160401b03811182821017156127ee576127ee6127b6565b60405290565b604051601f8201601f191681016001600160401b038111828210171561281c5761281c6127b6565b604052919050565b60006001600160401b0382111561283d5761283d6127b6565b50601f01601f191660200190565b600061285e61285984612824565b6127f4565b905082815283838301111561287257600080fd5b828260208301376000602084830101529392505050565b600082601f83011261289a57600080fd5b6105d28383356020850161284b565b6000806000806000606086880312156128c157600080fd5b85356001600160401b03808211156128d857600080fd5b6128e489838a01612694565b909750955060208801359150808211156128fd57600080fd5b61290989838a01612694565b9095509350604088013591508082111561292257600080fd5b908701906040828a03121561293657600080fd5b61293e6127cc565b823563ffffffff8116811461295257600080fd5b815260208301358281111561296657600080fd5b6129728b828601612889565b6020830152508093505050509295509295909350565b60006020828403121561299a57600080fd5b81356001600160401b038111156129b057600080fd5b8201601f810184136129c157600080fd5b6129d08482356020840161284b565b949350505050565b600080604083850312156129eb57600080fd5b82356129f6816125ff565b915060208301356001600160401b03811115612a1157600080fd5b612a1d85828601612889565b9150509250929050565b60008060008060608587031215612a3d57600080fd5b84356001600160401b03811115612a5357600080fd5b612a5f87828801612694565b9095509350506020850135612a73816125ff565b9396929550929360400135925050565b60008083601f840112612a9557600080fd5b5081356001600160401b03811115612aac57600080fd5b6020830191508360208260051b85010111156126d557600080fd5b60008060008060408587031215612add57600080fd5b84356001600160401b0380821115612af457600080fd5b612b0088838901612694565b90965094506020870135915080821115612b1957600080fd5b50612b2687828801612a83565b95989497509550505050565b600080600060408486031215612b4757600080fd5b83356001600160401b03811115612b5d57600080fd5b612b6986828701612694565b909790965060209590950135949350505050565b600080600080600060608688031215612b9557600080fd5b85356001600160401b0380821115612bac57600080fd5b612bb889838a01612694565b90975095506020880135915080821115612bd157600080fd5b50612bde88828901612a83565b9094509250506040860135612bf2816125ff565b809150509295509295909350565b600060208284031215612c1257600080fd5b81516001600160401b03811115612c2857600080fd5b8201601f81018413612c3957600080fd5b8051612c4761285982612824565b818152856020838501011115612c5c57600080fd5b6125bd826020830160208601612631565b6020808252602c908201527f46756e6374696f6e206d7573742062652063616c6c6564207468726f7567682060408201526b19195b1959d85d1958d85b1b60a21b606082015260800190565b6020808252602c908201527f46756e6374696f6e206d7573742062652063616c6c6564207468726f7567682060408201526b6163746976652070726f787960a01b606082015260800190565b8183823760009101908152919050565b600060208284031215612d2757600080fd5b81516105d2816125ff565b600060208284031215612d4457600080fd5b5051919050565b81835281816020850137506000828201602090810191909152601f909101601f19169091010190565b6000610100808352612d898184018c8e612d4b565b6001600160a01b038b811660208601528482036040860152909150612dae828b612655565b91508089166060850152508660808401528560a084015282810360c0840152612dd78186612655565b9150508260e08301529a9950505050505050505050565b604081526000612e02604083018688612d4b565b8281036020840152611aef818587612d4b565b600060208284031215612e2757600080fd5b815180151581146105d257600080fd5b60c081526000612e4b60c083018a8c612d4b565b6001600160a01b0389811660208501528382036040850152612e6e82898b612d4b565b9150808716606085015280861660808501525082810360a084015263ffffffff8451168152602084015160406020830152612eac6040830182612655565b9c9b505050505050505050505050565b6000610100808352612ed18184018d8f612d4b565b90508281036020840152612ee6818b8d612d4b565b6001600160a01b038a81166040860152891660608501526080840188905260a0840187905283810360c08501529050612f1f8186612655565b9150508260e08301529b9a5050505050505050505050565b60208082526011908201527021a0a62622a92fa727aa2fa4a9a9aaa2a960791b604082015260600190565b6001600160a01b03878116825286166020820152604081018590526060810184905260c060808201819052600090612f9c90830185612655565b90508260a0830152979650505050505050565b81835260006001600160fb1b03831115612fc857600080fd5b8260051b80836020870137939093016020019392505050565b6020815260006129d0602083018486612faf565b6001600160a01b0388811682528716602082015260c0604082018190526000906130229083018789612faf565b856060840152828103608084015261303a8186612655565b9150508260a083015298975050505050505050565b604081526000613063604083018587612faf565b905060018060a01b0383166020830152949350505050565b6020808252602b908201527f496e697469616c697a61626c653a20636f6e7472616374206973206e6f74206960408201526a6e697469616c697a696e6760a81b606082015260800190565b600082516130d8818460208701612631565b919091019291505056fe360894a13ba1a3210667c828492db98dca3e2076cc3735a920a3ca505d382bbc416464726573733a206c6f772d6c6576656c2064656c65676174652063616c6c206661696c6564a2646970667358221220e670f28c4c00ab5085b40263171e75bff11dd3de89975ebe30d6962811230fbc64736f6c63430008100033",
  "linkReferences": {},
  "deployedLinkReferences": {}
}