{
  "_format": "hh-sol-artifact-1",
  "contractName": "OpenQV1",
  "sourceName": "contracts/OpenQ/Implementations/OpenQV1.sol",
  "abi": [
    {
      "inputs": [],
      "stateMutability": "nonpayable",
      "type": "constructor"
    },
    {
      "anonymous": false,
      "inputs": [
        {
          "indexed": false,
          "internalType": "address",
          "name": "previousAdmin",
          "type": "address"
        },
        {
          "indexed": false,
          "internalType": "address",
          "name": "newAdmin",
          "type": "address"
        }
      ],
      "name": "AdminChanged",
      "type": "event"
    },
    {
      "anonymous": false,
      "inputs": [
        {
          "indexed": true,
          "internalType": "address",
          "name": "beacon",
          "type": "address"
        }
      ],
      "name": "BeaconUpgraded",
      "type": "event"
    },
    {
      "anonymous": false,
      "inputs": [
        {
          "indexed": false,
          "internalType": "string",
          "name": "bountyId",
          "type": "string"
        },
        {
          "indexed": false,
          "internalType": "address",
          "name": "bountyAddress",
          "type": "address"
        },
        {
          "indexed": false,
          "internalType": "string",
          "name": "organization",
          "type": "string"
        },
        {
          "indexed": false,
          "internalType": "address",
          "name": "closer",
          "type": "address"
        },
        {
          "indexed": false,
          "internalType": "uint256",
          "name": "bountyClosedTime",
          "type": "uint256"
        },
        {
          "indexed": false,
          "internalType": "uint256",
          "name": "bountyType",
          "type": "uint256"
        },
        {
          "indexed": false,
          "internalType": "bytes",
          "name": "data",
          "type": "bytes"
        },
        {
          "indexed": false,
          "internalType": "uint256",
          "name": "version",
          "type": "uint256"
        }
      ],
      "name": "BountyClosed",
      "type": "event"
    },
    {
      "anonymous": false,
      "inputs": [
        {
          "indexed": false,
          "internalType": "string",
          "name": "bountyId",
          "type": "string"
        },
        {
          "indexed": false,
          "internalType": "string",
          "name": "organization",
          "type": "string"
        },
        {
          "indexed": false,
          "internalType": "address",
          "name": "issuerAddress",
          "type": "address"
        },
        {
          "indexed": false,
          "internalType": "address",
          "name": "bountyAddress",
          "type": "address"
        },
        {
          "indexed": false,
          "internalType": "uint256",
          "name": "bountyMintTime",
          "type": "uint256"
        },
        {
          "indexed": false,
          "internalType": "uint256",
          "name": "bountyType",
          "type": "uint256"
        },
        {
          "indexed": false,
          "internalType": "bytes",
          "name": "data",
          "type": "bytes"
        },
        {
          "indexed": false,
          "internalType": "uint256",
          "name": "version",
          "type": "uint256"
        }
      ],
      "name": "BountyCreated",
      "type": "event"
    },
    {
      "anonymous": false,
      "inputs": [
        {
          "indexed": false,
          "internalType": "string",
          "name": "newExternalUserId",
          "type": "string"
        },
        {
          "indexed": false,
          "internalType": "address",
          "name": "newAddress",
          "type": "address"
        },
        {
          "indexed": false,
          "internalType": "string",
          "name": "formerExternalUserId",
          "type": "string"
        },
        {
          "indexed": false,
          "internalType": "address",
          "name": "formerAddress",
          "type": "address"
        },
        {
          "indexed": false,
          "internalType": "bytes",
          "name": "data",
          "type": "bytes"
        },
        {
          "indexed": false,
          "internalType": "uint256",
          "name": "version",
          "type": "uint256"
        }
      ],
      "name": "ExternalUserIdAssociatedWithAddress",
      "type": "event"
    },
    {
      "anonymous": false,
      "inputs": [
        {
          "indexed": false,
          "internalType": "address",
          "name": "bountyAddress",
          "type": "address"
        },
        {
          "indexed": false,
          "internalType": "address",
          "name": "fundingGoalTokenAddress",
          "type": "address"
        },
        {
          "indexed": false,
          "internalType": "uint256",
          "name": "fundingGoalVolume",
          "type": "uint256"
        },
        {
          "indexed": false,
          "internalType": "uint256",
          "name": "bountyType",
          "type": "uint256"
        },
        {
          "indexed": false,
          "internalType": "bytes",
          "name": "data",
          "type": "bytes"
        },
        {
          "indexed": false,
          "internalType": "uint256",
          "name": "version",
          "type": "uint256"
        }
      ],
      "name": "FundingGoalSet",
      "type": "event"
    },
    {
      "anonymous": false,
      "inputs": [
        {
          "indexed": false,
          "internalType": "uint8",
          "name": "version",
          "type": "uint8"
        }
      ],
      "name": "Initialized",
      "type": "event"
    },
    {
      "anonymous": false,
      "inputs": [
        {
          "indexed": false,
          "internalType": "address",
          "name": "bountyAddress",
          "type": "address"
        },
        {
          "indexed": false,
          "internalType": "uint256",
          "name": "bountyType",
          "type": "uint256"
        },
        {
          "indexed": false,
          "internalType": "bytes",
          "name": "data",
          "type": "bytes"
        },
        {
          "indexed": false,
          "internalType": "uint256",
          "name": "version",
          "type": "uint256"
        }
      ],
      "name": "InvoiceCompleteSet",
      "type": "event"
    },
    {
      "anonymous": false,
      "inputs": [
        {
          "indexed": false,
          "internalType": "address",
          "name": "bountyAddress",
          "type": "address"
        },
        {
          "indexed": false,
          "internalType": "bool",
          "name": "invoiceRequired",
          "type": "bool"
        },
        {
          "indexed": false,
          "internalType": "uint256",
          "name": "bountyType",
          "type": "uint256"
        },
        {
          "indexed": false,
          "internalType": "bytes",
          "name": "data",
          "type": "bytes"
        },
        {
          "indexed": false,
          "internalType": "uint256",
          "name": "version",
          "type": "uint256"
        }
      ],
      "name": "InvoiceRequiredSet",
      "type": "event"
    },
    {
      "anonymous": false,
      "inputs": [
        {
          "indexed": false,
          "internalType": "address",
          "name": "bountyAddress",
          "type": "address"
        },
        {
          "indexed": false,
          "internalType": "bool",
          "name": "kycRequired",
          "type": "bool"
        },
        {
          "indexed": false,
          "internalType": "uint256",
          "name": "bountyType",
          "type": "uint256"
        },
        {
          "indexed": false,
          "internalType": "bytes",
          "name": "data",
          "type": "bytes"
        },
        {
          "indexed": false,
          "internalType": "uint256",
          "name": "version",
          "type": "uint256"
        }
      ],
      "name": "KYCRequiredSet",
      "type": "event"
    },
    {
      "anonymous": false,
      "inputs": [
        {
          "indexed": true,
          "internalType": "address",
          "name": "previousOracle",
          "type": "address"
        },
        {
          "indexed": true,
          "internalType": "address",
          "name": "newOracle",
          "type": "address"
        }
      ],
      "name": "OracleTransferred",
      "type": "event"
    },
    {
      "anonymous": false,
      "inputs": [
        {
          "indexed": true,
          "internalType": "address",
          "name": "previousOwner",
          "type": "address"
        },
        {
          "indexed": true,
          "internalType": "address",
          "name": "newOwner",
          "type": "address"
        }
      ],
      "name": "OwnershipTransferred",
      "type": "event"
    },
    {
      "anonymous": false,
      "inputs": [
        {
          "indexed": false,
          "internalType": "address",
          "name": "bountyAddress",
          "type": "address"
        },
        {
          "indexed": false,
          "internalType": "address",
          "name": "payoutTokenAddress",
          "type": "address"
        },
        {
          "indexed": false,
          "internalType": "uint256[]",
          "name": "payoutSchedule",
          "type": "uint256[]"
        },
        {
          "indexed": false,
          "internalType": "uint256",
          "name": "bountyType",
          "type": "uint256"
        },
        {
          "indexed": false,
          "internalType": "bytes",
          "name": "data",
          "type": "bytes"
        },
        {
          "indexed": false,
          "internalType": "uint256",
          "name": "version",
          "type": "uint256"
        }
      ],
      "name": "PayoutScheduleSet",
      "type": "event"
    },
    {
      "anonymous": false,
      "inputs": [
        {
          "indexed": false,
          "internalType": "address",
          "name": "bountyAddress",
          "type": "address"
        },
        {
          "indexed": false,
          "internalType": "address",
          "name": "payoutTokenAddress",
          "type": "address"
        },
        {
          "indexed": false,
          "internalType": "uint256",
          "name": "payoutTokenVolume",
          "type": "uint256"
        },
        {
          "indexed": false,
          "internalType": "uint256",
          "name": "bountyType",
          "type": "uint256"
        },
        {
          "indexed": false,
          "internalType": "bytes",
          "name": "data",
          "type": "bytes"
        },
        {
          "indexed": false,
          "internalType": "uint256",
          "name": "version",
          "type": "uint256"
        }
      ],
      "name": "PayoutSet",
      "type": "event"
    },
    {
      "anonymous": false,
      "inputs": [
        {
          "indexed": false,
          "internalType": "address",
          "name": "bountyAddress",
          "type": "address"
        },
        {
          "indexed": false,
          "internalType": "uint256",
          "name": "bountyType",
          "type": "uint256"
        },
        {
          "indexed": false,
          "internalType": "bytes",
          "name": "data",
          "type": "bytes"
        },
        {
          "indexed": false,
          "internalType": "uint256",
          "name": "version",
          "type": "uint256"
        }
      ],
      "name": "SupportingDocumentsCompleteSet",
      "type": "event"
    },
    {
      "anonymous": false,
      "inputs": [
        {
          "indexed": false,
          "internalType": "address",
          "name": "bountyAddress",
          "type": "address"
        },
        {
          "indexed": false,
          "internalType": "bool",
          "name": "supportingDocuments",
          "type": "bool"
        },
        {
          "indexed": false,
          "internalType": "uint256",
          "name": "bountyType",
          "type": "uint256"
        },
        {
          "indexed": false,
          "internalType": "bytes",
          "name": "data",
          "type": "bytes"
        },
        {
          "indexed": false,
          "internalType": "uint256",
          "name": "version",
          "type": "uint256"
        }
      ],
      "name": "SupportingDocumentsRequiredSet",
      "type": "event"
    },
    {
      "anonymous": false,
      "inputs": [
        {
          "indexed": false,
          "internalType": "address",
          "name": "bountyAddress",
          "type": "address"
        },
        {
          "indexed": false,
          "internalType": "address",
          "name": "claimant",
          "type": "address"
        },
        {
          "indexed": false,
          "internalType": "bytes",
          "name": "data",
          "type": "bytes"
        },
        {
          "indexed": false,
          "internalType": "uint256",
          "name": "version",
          "type": "uint256"
        }
      ],
      "name": "TierClaimed",
      "type": "event"
    },
    {
      "anonymous": false,
      "inputs": [
        {
          "indexed": false,
          "internalType": "address",
          "name": "bountyAddress",
          "type": "address"
        },
        {
          "indexed": false,
          "internalType": "string[]",
          "name": "tierWinners",
          "type": "string[]"
        },
        {
          "indexed": false,
          "internalType": "bytes",
          "name": "data",
          "type": "bytes"
        },
        {
          "indexed": false,
          "internalType": "uint256",
          "name": "version",
          "type": "uint256"
        }
      ],
      "name": "TierWinnerSelected",
      "type": "event"
    },
    {
      "anonymous": false,
      "inputs": [
        {
          "indexed": true,
          "internalType": "address",
          "name": "implementation",
          "type": "address"
        }
      ],
      "name": "Upgraded",
      "type": "event"
    },
    {
      "inputs": [],
      "name": "VERSION_1",
      "outputs": [
        {
          "internalType": "uint256",
          "name": "",
          "type": "uint256"
        }
      ],
      "stateMutability": "view",
      "type": "function"
    },
    {
      "inputs": [
        {
          "internalType": "address",
          "name": "",
          "type": "address"
        }
      ],
      "name": "addressToExternalUserId",
      "outputs": [
        {
          "internalType": "string",
          "name": "",
          "type": "string"
        }
      ],
      "stateMutability": "view",
      "type": "function"
    },
    {
      "inputs": [
        {
          "internalType": "string",
          "name": "_externalUserId",
          "type": "string"
        },
        {
          "internalType": "address",
          "name": "_associatedAddress",
          "type": "address"
        }
      ],
      "name": "associateExternalIdToAddress",
      "outputs": [],
      "stateMutability": "nonpayable",
      "type": "function"
    },
    {
      "inputs": [
        {
          "internalType": "address",
          "name": "_bountyAddress",
          "type": "address"
        }
      ],
      "name": "bountyAddressToBountyId",
      "outputs": [
        {
          "internalType": "string",
          "name": "",
          "type": "string"
        }
      ],
      "stateMutability": "view",
      "type": "function"
    },
    {
      "inputs": [],
      "name": "bountyFactory",
      "outputs": [
        {
          "internalType": "address",
          "name": "",
          "type": "address"
        }
      ],
      "stateMutability": "view",
      "type": "function"
    },
    {
      "inputs": [
        {
          "internalType": "string",
          "name": "",
          "type": "string"
        }
      ],
      "name": "bountyIdToAddress",
      "outputs": [
        {
          "internalType": "address",
          "name": "",
          "type": "address"
        }
      ],
      "stateMutability": "view",
      "type": "function"
    },
    {
      "inputs": [
        {
          "internalType": "string",
          "name": "_bountyId",
          "type": "string"
        }
      ],
      "name": "bountyIsOpen",
      "outputs": [
        {
          "internalType": "bool",
          "name": "",
          "type": "bool"
        }
      ],
      "stateMutability": "view",
      "type": "function"
    },
    {
      "inputs": [
        {
          "internalType": "string",
          "name": "_bountyId",
          "type": "string"
        }
      ],
      "name": "bountyType",
      "outputs": [
        {
          "internalType": "uint256",
          "name": "",
          "type": "uint256"
        }
      ],
      "stateMutability": "view",
      "type": "function"
    },
    {
      "inputs": [],
      "name": "claimManager",
      "outputs": [
        {
          "internalType": "address",
          "name": "",
          "type": "address"
        }
      ],
      "stateMutability": "view",
      "type": "function"
    },
    {
      "inputs": [],
      "name": "depositManager",
      "outputs": [
        {
          "internalType": "address",
          "name": "",
          "type": "address"
        }
      ],
      "stateMutability": "view",
      "type": "function"
    },
    {
      "inputs": [
        {
          "internalType": "string",
          "name": "",
          "type": "string"
        }
      ],
      "name": "externalUserIdToAddress",
      "outputs": [
        {
          "internalType": "address",
          "name": "",
          "type": "address"
        }
      ],
      "stateMutability": "view",
      "type": "function"
    },
    {
      "inputs": [],
      "name": "getImplementation",
      "outputs": [
        {
          "internalType": "address",
          "name": "",
          "type": "address"
        }
      ],
      "stateMutability": "view",
      "type": "function"
    },
    {
      "inputs": [
        {
          "internalType": "address",
          "name": "_initialOracle",
          "type": "address"
        },
        {
          "internalType": "address",
          "name": "_bountyFactory",
          "type": "address"
        },
        {
          "internalType": "address",
          "name": "_depositManager",
          "type": "address"
        },
        {
          "internalType": "address",
          "name": "_claimManager",
          "type": "address"
        }
      ],
      "name": "initialize",
      "outputs": [],
      "stateMutability": "nonpayable",
      "type": "function"
    },
    {
      "inputs": [
        {
          "internalType": "string",
          "name": "_bountyId",
          "type": "string"
        },
        {
          "internalType": "string",
          "name": "_organization",
          "type": "string"
        },
        {
          "components": [
            {
              "internalType": "uint32",
              "name": "operationType",
              "type": "uint32"
            },
            {
              "internalType": "bytes",
              "name": "data",
              "type": "bytes"
            }
          ],
          "internalType": "struct OpenQDefinitions.InitOperation",
          "name": "_initOperation",
          "type": "tuple"
        }
      ],
      "name": "mintBounty",
      "outputs": [
        {
          "internalType": "address",
          "name": "",
          "type": "address"
        }
      ],
      "stateMutability": "nonpayable",
      "type": "function"
    },
    {
      "inputs": [],
      "name": "oracle",
      "outputs": [
        {
          "internalType": "address",
          "name": "",
          "type": "address"
        }
      ],
      "stateMutability": "view",
      "type": "function"
    },
    {
      "inputs": [],
      "name": "owner",
      "outputs": [
        {
          "internalType": "address",
          "name": "",
          "type": "address"
        }
      ],
      "stateMutability": "view",
      "type": "function"
    },
    {
      "inputs": [],
      "name": "proxiableUUID",
      "outputs": [
        {
          "internalType": "bytes32",
          "name": "",
          "type": "bytes32"
        }
      ],
      "stateMutability": "view",
      "type": "function"
    },
    {
      "inputs": [],
      "name": "renounceOwnership",
      "outputs": [],
      "stateMutability": "nonpayable",
      "type": "function"
    },
    {
      "inputs": [
        {
          "internalType": "address",
          "name": "_bountyFactory",
          "type": "address"
        }
      ],
      "name": "setBountyFactory",
      "outputs": [],
      "stateMutability": "nonpayable",
      "type": "function"
    },
    {
      "inputs": [
        {
          "internalType": "address",
          "name": "_claimManager",
          "type": "address"
        }
      ],
      "name": "setClaimManager",
      "outputs": [],
      "stateMutability": "nonpayable",
      "type": "function"
    },
    {
      "inputs": [
        {
          "internalType": "address",
          "name": "_depositManager",
          "type": "address"
        }
      ],
      "name": "setDepositManager",
      "outputs": [],
      "stateMutability": "nonpayable",
      "type": "function"
    },
    {
      "inputs": [
        {
          "internalType": "string",
          "name": "_bountyId",
          "type": "string"
        },
        {
          "internalType": "address",
          "name": "_fundingGoalToken",
          "type": "address"
        },
        {
          "internalType": "uint256",
          "name": "_fundingGoalVolume",
          "type": "uint256"
        }
      ],
      "name": "setFundingGoal",
      "outputs": [],
      "stateMutability": "nonpayable",
      "type": "function"
    },
    {
      "inputs": [
        {
          "internalType": "string",
          "name": "_bountyId",
          "type": "string"
        },
        {
          "internalType": "bytes",
          "name": "_data",
          "type": "bytes"
        }
      ],
      "name": "setInvoiceComplete",
      "outputs": [],
      "stateMutability": "nonpayable",
      "type": "function"
    },
    {
      "inputs": [
        {
          "internalType": "string",
          "name": "_bountyId",
          "type": "string"
        },
        {
          "internalType": "bool",
          "name": "_invoiceRequired",
          "type": "bool"
        }
      ],
      "name": "setInvoiceRequired",
      "outputs": [],
      "stateMutability": "nonpayable",
      "type": "function"
    },
    {
      "inputs": [
        {
          "internalType": "string",
          "name": "_bountyId",
          "type": "string"
        },
        {
          "internalType": "bool",
          "name": "_kycRequired",
          "type": "bool"
        }
      ],
      "name": "setKycRequired",
      "outputs": [],
      "stateMutability": "nonpayable",
      "type": "function"
    },
    {
      "inputs": [
        {
          "internalType": "string",
          "name": "_bountyId",
          "type": "string"
        },
        {
          "internalType": "uint256[]",
          "name": "_payoutSchedule",
          "type": "uint256[]"
        },
        {
          "internalType": "address",
          "name": "_payoutTokenAddress",
          "type": "address"
        }
      ],
      "name": "setPayoutScheduleFixed",
      "outputs": [],
      "stateMutability": "nonpayable",
      "type": "function"
    },
    {
      "inputs": [
        {
          "internalType": "string",
          "name": "_bountyId",
          "type": "string"
        },
        {
          "internalType": "bytes",
          "name": "_data",
          "type": "bytes"
        }
      ],
      "name": "setSupportingDocumentsComplete",
      "outputs": [],
      "stateMutability": "nonpayable",
      "type": "function"
    },
    {
      "inputs": [
        {
          "internalType": "string",
          "name": "_bountyId",
          "type": "string"
        },
        {
          "internalType": "bool",
          "name": "_supportingDocumentsRequired",
          "type": "bool"
        }
      ],
      "name": "setSupportingDocumentsRequired",
      "outputs": [],
      "stateMutability": "nonpayable",
      "type": "function"
    },
    {
      "inputs": [
        {
          "internalType": "string",
          "name": "_bountyId",
          "type": "string"
        },
        {
          "internalType": "uint256",
          "name": "_tier",
          "type": "uint256"
        },
        {
          "internalType": "string",
          "name": "_winner",
          "type": "string"
        }
      ],
      "name": "setTierWinner",
      "outputs": [],
      "stateMutability": "nonpayable",
      "type": "function"
    },
    {
      "inputs": [
        {
          "internalType": "string",
          "name": "_bountyId",
          "type": "string"
        },
        {
          "internalType": "uint256",
          "name": "_tier",
          "type": "uint256"
        }
      ],
      "name": "tierClaimed",
      "outputs": [
        {
          "internalType": "bool",
          "name": "",
          "type": "bool"
        }
      ],
      "stateMutability": "view",
      "type": "function"
    },
    {
      "inputs": [
        {
          "internalType": "address",
          "name": "_newOracle",
          "type": "address"
        }
      ],
      "name": "transferOracle",
      "outputs": [],
      "stateMutability": "nonpayable",
      "type": "function"
    },
    {
      "inputs": [
        {
          "internalType": "address",
          "name": "newOwner",
          "type": "address"
        }
      ],
      "name": "transferOwnership",
      "outputs": [],
      "stateMutability": "nonpayable",
      "type": "function"
    },
    {
      "inputs": [
        {
          "internalType": "address",
          "name": "newImplementation",
          "type": "address"
        }
      ],
      "name": "upgradeTo",
      "outputs": [],
      "stateMutability": "nonpayable",
      "type": "function"
    },
    {
      "inputs": [
        {
          "internalType": "address",
          "name": "newImplementation",
          "type": "address"
        },
        {
          "internalType": "bytes",
          "name": "data",
          "type": "bytes"
        }
      ],
      "name": "upgradeToAndCall",
      "outputs": [],
      "stateMutability": "payable",
      "type": "function"
    }
  ],
  "bytecode": "0x60a0604052306080523480156200001557600080fd5b506200002062000026565b620000e8565b600054610100900460ff1615620000935760405162461bcd60e51b815260206004820152602760248201527f496e697469616c697a61626c653a20636f6e747261637420697320696e697469604482015266616c697a696e6760c81b606482015260840160405180910390fd5b60005460ff9081161015620000e6576000805460ff191660ff9081179091556040519081527f7f26b83ff96e1f2b6a682f133852f6798a09c465da95921460cefb38474024989060200160405180910390a15b565b608051614155620001d66000396000818161093201528181610972015281816109fd01528181610a3d01528181610c7701528181610cb701528181610f2701528181610f670152818161104801528181611088015281816113b2015281816113f20152818161146b015281816114ab015281816117560152818161193b0152818161197b01528181611a8c01528181611acc01528181611d3a01528181611d7a01528181611e3901528181611e79015281816120d801528181612118015281816123c1015281816124010152818161250b0152818161254b0152818161278001526127c001526141556000f3fe6080604052600436106101b95760003560e01c80637dc0d1d0116100ed578063be17211811610090578063be17211814610536578063e732680614610556578063e77b90f114610576578063f2fde38b14610596578063f8c78070146105b6578063f8c8765e146105d6578063f8d7c19d146105f6578063fa4657ad14610616578063fd1b2e3f1461063657600080fd5b80637dc0d1d0146104335780638da5cb5b14610451578063a8bca7b81461046f578063a9a36dcd1461048f578063aaf10f42146104b0578063b6da2144146104c5578063b8f75c0b146104e5578063bdc969c61461050657600080fd5b80633948eddd116101605780633948eddd146102d957806348bd1e99146103115780634f1ef2861461035357806350febc461461036657806352d1902d1461038657806357f8520c1461039b5780636c7ac9d8146103bb57806371006cf4146103dc578063715018a61461041e57600080fd5b80630681ebe5146101be57806310fd86c8146101e057806316a2a0cc146102165780631c70bf2714610236578063228d71a91461025657806326c20e5f1461027657806333203064146102995780633659cfe6146102b9575b600080fd5b3480156101ca57600080fd5b506101de6101d9366004613166565b610656565b005b3480156101ec57600080fd5b506102006101fb3660046131bc565b6108b4565b60405161020d9190613229565b60405180910390f35b34801561022257600080fd5b506101de6102313660046131bc565b610928565b34801561024257600080fd5b506101de61025136600461324a565b6109f3565b34801561026257600080fd5b506101de6102713660046131bc565b610c6d565b34801561028257600080fd5b5061028b600181565b60405190815260200161020d565b3480156102a557600080fd5b506101de6102b4366004613295565b610d38565b3480156102c557600080fd5b506101de6102d43660046131bc565b610f1d565b3480156102e557600080fd5b506102f96102f4366004613401565b610fe5565b6040516001600160a01b03909116815260200161020d565b34801561031d57600080fd5b506102f961032c3660046134e0565b8051602081830181018051610131825292820191909301209152546001600160a01b031681565b6101de610361366004613530565b6113a8565b34801561037257600080fd5b506101de61038136600461357f565b611461565b34801561039257600080fd5b5061028b611749565b3480156103a757600080fd5b506102006103b63660046131bc565b6117f7565b3480156103c757600080fd5b50610130546102f9906001600160a01b031681565b3480156103e857600080fd5b506102f96103f73660046134e0565b8051602081830181018051610132825292820191909301209152546001600160a01b031681565b34801561042a57600080fd5b506101de611892565b34801561043f57600080fd5b5060fb546001600160a01b03166102f9565b34801561045d57600080fd5b506033546001600160a01b03166102f9565b34801561047b57600080fd5b5061028b61048a3660046135ea565b6118a6565b34801561049b57600080fd5b5061012f546102f9906001600160a01b031681565b3480156104bc57600080fd5b506102f9611922565b3480156104d157600080fd5b506101de6104e03660046131bc565b611931565b3480156104f157600080fd5b5061012e546102f9906001600160a01b031681565b34801561051257600080fd5b5061052661052136600461362b565b6119fc565b604051901515815260200161020d565b34801561054257600080fd5b506101de61055136600461357f565b611a82565b34801561056257600080fd5b506101de6105713660046131bc565b611d30565b34801561058257600080fd5b506101de61059136600461324a565b611e2f565b3480156105a257600080fd5b506101de6105b13660046131bc565b612058565b3480156105c257600080fd5b506101de6105d136600461324a565b6120ce565b3480156105e257600080fd5b506101de6105f1366004613676565b6122f7565b34801561060257600080fd5b506101de6106113660046136d2565b612501565b34801561062257600080fd5b506101de61063136600461372e565b612776565b34801561064257600080fd5b506105266106513660046135ea565b6129ed565b60fb546001600160a01b031633146106ce5760405162461bcd60e51b815260206004820152603060248201527f4f7261636c697a653a2063616c6c6572206973206e6f7420746865206375727260448201526f656e74204f70656e51204f7261636c6560801b60648201526084015b60405180910390fd5b6001600160a01b03811660009081526101336020526040812080546106f2906137de565b80601f016020809104026020016040519081016040528092919081815260200182805461071e906137de565b801561076b5780601f106107405761010080835404028352916020019161076b565b820191906000526020600020905b81548152906001019060200180831161074e57829003601f168201915b5050505050905060006101328585604051610787929190613818565b908152604051908190036020018120546001600160a01b03169150600090610132906107b4908590613828565b908152604080516020928190038301812080546001600160a01b0319166001600160a01b039586161790558281018252600080825293851684526101339092529091209061080290826138a7565b50826101328686604051610817929190613818565b908152604080516020928190038301902080546001600160a01b0319166001600160a01b0394851617905591851660009081526101339091522061085c858783613960565b50604080516000815260208101918290527f360b0c08a5b7e86027de2197be3636994abe4e3f4017faf4c13f9eed98c9aacf916108a59188918891889188918891600190613a42565b60405180910390a15050505050565b60606000829050806001600160a01b031663c17bd75e6040518163ffffffff1660e01b8152600401600060405180830381865afa1580156108f9573d6000803e3d6000fd5b505050506040513d6000823e601f3d908101601f191682016040526109219190810190613af9565b9392505050565b6001600160a01b037f00000000000000000000000000000000000000000000000000000000000000001630036109705760405162461bcd60e51b81526004016106c590613b2d565b7f00000000000000000000000000000000000000000000000000000000000000006001600160a01b03166109a2612a71565b6001600160a01b0316146109c85760405162461bcd60e51b81526004016106c590613b79565b6109d0612a8d565b61012e80546001600160a01b0319166001600160a01b0392909216919091179055565b6001600160a01b037f0000000000000000000000000000000000000000000000000000000000000000163003610a3b5760405162461bcd60e51b81526004016106c590613b2d565b7f00000000000000000000000000000000000000000000000000000000000000006001600160a01b0316610a6d612a71565b6001600160a01b031614610a935760405162461bcd60e51b81526004016106c590613b79565b6000610a9f8484612ae7565b9050806001600160a01b0316631d1438486040518163ffffffff1660e01b8152600401602060405180830381865afa158015610adf573d6000803e3d6000fd5b505050506040513d601f19601f82011682018060405250810190610b039190613bc5565b6001600160a01b0316336001600160a01b0316146040518060400160405280601181526020017021a0a62622a92fa727aa2fa4a9a9aaa2a960791b81525090610b5f5760405162461bcd60e51b81526004016106c59190613229565b5060405163150909f760e01b815282151560048201526001600160a01b0382169063150909f790602401600060405180830381600087803b158015610ba357600080fd5b505af1158015610bb7573d6000803e3d6000fd5b505050507fa3d922005d2e4752e1c918ec9b634eed8af8fc9be7215572c011b15c4b8d604b8183836001600160a01b031663b3ca1f3b6040518163ffffffff1660e01b8152600401602060405180830381865afa158015610c1c573d6000803e3d6000fd5b505050506040513d601f19601f82011682018060405250810190610c409190613be2565b60408051600081526020810191829052610c5f94939291600190613bfb565b60405180910390a150505050565b6001600160a01b037f0000000000000000000000000000000000000000000000000000000000000000163003610cb55760405162461bcd60e51b81526004016106c590613b2d565b7f00000000000000000000000000000000000000000000000000000000000000006001600160a01b0316610ce7612a71565b6001600160a01b031614610d0d5760405162461bcd60e51b81526004016106c590613b79565b610d15612a8d565b61013080546001600160a01b0319166001600160a01b0392909216919091179055565b6000610d448686612ae7565b9050806001600160a01b0316631d1438486040518163ffffffff1660e01b8152600401602060405180830381865afa158015610d84573d6000803e3d6000fd5b505050506040513d601f19601f82011682018060405250810190610da89190613bc5565b6001600160a01b0316336001600160a01b0316146040518060400160405280601181526020017021a0a62622a92fa727aa2fa4a9a9aaa2a960791b81525090610e045760405162461bcd60e51b81526004016106c59190613229565b50604051630f3b6d4d60e01b81526001600160a01b03821690630f3b6d4d90610e3590869086908990600401613c3c565b600060405180830381600087803b158015610e4f57600080fd5b505af1158015610e63573d6000803e3d6000fd5b505050507f0f514f110eb3745ee3be04b8310994cddb52ba75b6a4107e0435757f7a929f3881826001600160a01b03166336150d386040518163ffffffff1660e01b8152600401600060405180830381865afa158015610ec7573d6000803e3d6000fd5b505050506040513d6000823e601f3d908101601f19168201604052610eef9190810190613c60565b60408051600081526020810191829052610f0d939291600190613d22565b60405180910390a1505050505050565b6001600160a01b037f0000000000000000000000000000000000000000000000000000000000000000163003610f655760405162461bcd60e51b81526004016106c590613b2d565b7f00000000000000000000000000000000000000000000000000000000000000006001600160a01b0316610f97612a71565b6001600160a01b031614610fbd5760405162461bcd60e51b81526004016106c590613b79565b610fc681612b1f565b60408051600080825260208201909252610fe291839190612b27565b50565b6000600260c954036110395760405162461bcd60e51b815260206004820152601f60248201527f5265656e7472616e637947756172643a207265656e7472616e742063616c6c0060448201526064016106c5565b600260c9556001600160a01b037f00000000000000000000000000000000000000000000000000000000000000001630036110865760405162461bcd60e51b81526004016106c590613b2d565b7f00000000000000000000000000000000000000000000000000000000000000006001600160a01b03166110b8612a71565b6001600160a01b0316146110de5760405162461bcd60e51b81526004016106c590613b79565b60006001600160a01b031661013187876040516110fc929190613818565b908152604080519182900360209081018320548383019092526015835274424f554e54595f414c52454144595f45584953545360581b9083015290916001600160a01b03909116146111615760405162461bcd60e51b81526004016106c59190613229565b506111a186868080601f016020809104026020016040519081016040528093929190818152602001838380828437600092019190915250612c9792505050565b6040518060400160405280600e81526020016d494e56414c49445f535452494e4760901b815250906111e65760405162461bcd60e51b81526004016106c59190613229565b5061122684848080601f016020809104026020016040519081016040528093929190818152602001838380828437600092019190915250612c9792505050565b6040518060400160405280600e81526020016d494e56414c49445f535452494e4760901b8152509061126b5760405162461bcd60e51b81526004016106c59190613229565b5061012e5461012f54610130546040516323e95f5160e11b81526000936001600160a01b03908116936347d2bea2936112ba938d938d9333938e938e9392831692909116908d90600401613daf565b6020604051808303816000875af11580156112d9573d6000803e3d6000fd5b505050506040513d601f19601f820116820180604052508101906112fd9190613bc5565b9050806101318888604051611313929190613818565b90815260405190819003602001902080546001600160a01b03929092166001600160a01b03199092169190911790557f07bf14db09a3c8b7d7e240acc23ab6da8587183655a6ffcbda01ca7b026a37578787878733864261137487876118a6565b8b6020015160016040516113919a99989796959493929190613e34565b60405180910390a1600160c9559695505050505050565b6001600160a01b037f00000000000000000000000000000000000000000000000000000000000000001630036113f05760405162461bcd60e51b81526004016106c590613b2d565b7f00000000000000000000000000000000000000000000000000000000000000006001600160a01b0316611422612a71565b6001600160a01b0316146114485760405162461bcd60e51b81526004016106c590613b79565b61145182612b1f565b61145d82826001612b27565b5050565b6001600160a01b037f00000000000000000000000000000000000000000000000000000000000000001630036114a95760405162461bcd60e51b81526004016106c590613b2d565b7f00000000000000000000000000000000000000000000000000000000000000006001600160a01b03166114db612a71565b6001600160a01b0316146115015760405162461bcd60e51b81526004016106c590613b79565b600061150d8585612ae7565b9050806001600160a01b0316631d1438486040518163ffffffff1660e01b8152600401602060405180830381865afa15801561154d573d6000803e3d6000fd5b505050506040513d601f19601f820116820180604052508101906115719190613bc5565b6001600160a01b0316336001600160a01b0316148061159a575060fb546001600160a01b031633145b6040518060400160405280601b81526020017a43414c4c45525f4e4f545f4953535545525f4f525f4f5241434c4560281b815250906115ec5760405162461bcd60e51b81526004016106c59190613229565b50604051632af8e0c560e11b81526001600160a01b038216906355f1c18a9061161b9086908690600401613eaf565b600060405180830381600087803b15801561163557600080fd5b505af1158015611649573d6000803e3d6000fd5b505050507fbaa282623a40e3cc746bff17d34425e76241f9fd520d84dc3db1c569f2c6819281826001600160a01b031663b3ca1f3b6040518163ffffffff1660e01b8152600401602060405180830381865afa1580156116ad573d6000803e3d6000fd5b505050506040513d601f19601f820116820180604052508101906116d19190613be2565b836001600160a01b031663dda640816040518163ffffffff1660e01b8152600401600060405180830381865afa15801561170f573d6000803e3d6000fd5b505050506040513d6000823e601f3d908101601f191682016040526117379190810190613ec3565b60016040516108a59493929190613f0b565b6000306001600160a01b037f000000000000000000000000000000000000000000000000000000000000000016146117e45760405162461bcd60e51b815260206004820152603860248201527f555550535570677261646561626c653a206d757374206e6f742062652063616c6044820152771b1959081d1a1c9bdd59da0819195b1959d85d1958d85b1b60421b60648201526084016106c5565b506000805160206140d983398151915290565b6101336020526000908152604090208054611811906137de565b80601f016020809104026020016040519081016040528092919081815260200182805461183d906137de565b801561188a5780601f1061185f5761010080835404028352916020019161188a565b820191906000526020600020905b81548152906001019060200180831161186d57829003601f168201915b505050505081565b61189a612a8d565b6118a46000612d03565b565b6000806118b38484612ae7565b90506000816001600160a01b031663b3ca1f3b6040518163ffffffff1660e01b8152600401602060405180830381865afa1580156118f5573d6000803e3d6000fd5b505050506040513d601f19601f820116820180604052508101906119199190613be2565b95945050505050565b600061192c612a71565b905090565b6001600160a01b037f00000000000000000000000000000000000000000000000000000000000000001630036119795760405162461bcd60e51b81526004016106c590613b2d565b7f00000000000000000000000000000000000000000000000000000000000000006001600160a01b03166119ab612a71565b6001600160a01b0316146119d15760405162461bcd60e51b81526004016106c590613b79565b6119d9612a8d565b61012f80546001600160a01b0319166001600160a01b0392909216919091179055565b600080611a098585612ae7565b604051634ee5bdc760e11b8152600481018590529091506000906001600160a01b03831690639dcb7b8e90602401602060405180830381865afa158015611a54573d6000803e3d6000fd5b505050506040513d601f19601f82011682018060405250810190611a789190613f43565b9695505050505050565b6001600160a01b037f0000000000000000000000000000000000000000000000000000000000000000163003611aca5760405162461bcd60e51b81526004016106c590613b2d565b7f00000000000000000000000000000000000000000000000000000000000000006001600160a01b0316611afc612a71565b6001600160a01b031614611b225760405162461bcd60e51b81526004016106c590613b79565b6000611b2e8585612ae7565b9050806001600160a01b0316631d1438486040518163ffffffff1660e01b8152600401602060405180830381865afa158015611b6e573d6000803e3d6000fd5b505050506040513d601f19601f82011682018060405250810190611b929190613bc5565b6001600160a01b0316336001600160a01b03161480611bbb575060fb546001600160a01b031633145b6040518060400160405280601b81526020017a43414c4c45525f4e4f545f4953535545525f4f525f4f5241434c4560281b81525090611c0d5760405162461bcd60e51b81526004016106c59190613229565b5060405163ee1034fb60e01b81526001600160a01b0382169063ee1034fb90611c3c9086908690600401613eaf565b600060405180830381600087803b158015611c5657600080fd5b505af1158015611c6a573d6000803e3d6000fd5b505050507ff510398d18ddf3c481663daf3769fc21a954cb43b8a2248fb585fe2433cd2e1c81826001600160a01b031663b3ca1f3b6040518163ffffffff1660e01b8152600401602060405180830381865afa158015611cce573d6000803e3d6000fd5b505050506040513d601f19601f82011682018060405250810190611cf29190613be2565b836001600160a01b0316637026b4726040518163ffffffff1660e01b8152600401600060405180830381865afa15801561170f573d6000803e3d6000fd5b6001600160a01b037f0000000000000000000000000000000000000000000000000000000000000000163003611d785760405162461bcd60e51b81526004016106c590613b2d565b7f00000000000000000000000000000000000000000000000000000000000000006001600160a01b0316611daa612a71565b6001600160a01b031614611dd05760405162461bcd60e51b81526004016106c590613b79565b611dd8612a8d565b60408051808201909152600f81526e4e4f5f5a45524f5f4144445245535360881b60208201526001600160a01b038216611e255760405162461bcd60e51b81526004016106c59190613229565b50610fe281612d55565b6001600160a01b037f0000000000000000000000000000000000000000000000000000000000000000163003611e775760405162461bcd60e51b81526004016106c590613b2d565b7f00000000000000000000000000000000000000000000000000000000000000006001600160a01b0316611ea9612a71565b6001600160a01b031614611ecf5760405162461bcd60e51b81526004016106c590613b79565b6000611edb8484612ae7565b9050806001600160a01b0316631d1438486040518163ffffffff1660e01b8152600401602060405180830381865afa158015611f1b573d6000803e3d6000fd5b505050506040513d601f19601f82011682018060405250810190611f3f9190613bc5565b6001600160a01b0316336001600160a01b0316146040518060400160405280601181526020017021a0a62622a92fa727aa2fa4a9a9aaa2a960791b81525090611f9b5760405162461bcd60e51b81526004016106c59190613229565b506040516315add63b60e01b815282151560048201526001600160a01b038216906315add63b90602401600060405180830381600087803b158015611fdf57600080fd5b505af1158015611ff3573d6000803e3d6000fd5b505050507f4b48960caadc721c9f02528d7cd0dd15a093dc8464cda684c5cd51b856ce730d8183836001600160a01b031663b3ca1f3b6040518163ffffffff1660e01b8152600401602060405180830381865afa158015610c1c573d6000803e3d6000fd5b612060612a8d565b6001600160a01b0381166120c55760405162461bcd60e51b815260206004820152602660248201527f4f776e61626c653a206e6577206f776e657220697320746865207a65726f206160448201526564647265737360d01b60648201526084016106c5565b610fe281612d03565b6001600160a01b037f00000000000000000000000000000000000000000000000000000000000000001630036121165760405162461bcd60e51b81526004016106c590613b2d565b7f00000000000000000000000000000000000000000000000000000000000000006001600160a01b0316612148612a71565b6001600160a01b03161461216e5760405162461bcd60e51b81526004016106c590613b79565b600061217a8484612ae7565b9050806001600160a01b0316631d1438486040518163ffffffff1660e01b8152600401602060405180830381865afa1580156121ba573d6000803e3d6000fd5b505050506040513d601f19601f820116820180604052508101906121de9190613bc5565b6001600160a01b0316336001600160a01b0316146040518060400160405280601181526020017021a0a62622a92fa727aa2fa4a9a9aaa2a960791b8152509061223a5760405162461bcd60e51b81526004016106c59190613229565b50604051633f67bd1f60e21b815282151560048201526001600160a01b0382169063fd9ef47c90602401600060405180830381600087803b15801561227e57600080fd5b505af1158015612292573d6000803e3d6000fd5b505050507fd97821513e869a55cf9f8695619bc9da3cb7d5329c0e3609b7e63ac55ce193c88183836001600160a01b031663b3ca1f3b6040518163ffffffff1660e01b8152600401602060405180830381865afa158015610c1c573d6000803e3d6000fd5b600054610100900460ff16158080156123175750600054600160ff909116105b806123315750303b158015612331575060005460ff166001145b6123945760405162461bcd60e51b815260206004820152602e60248201527f496e697469616c697a61626c653a20636f6e747261637420697320616c72656160448201526d191e481a5b9a5d1a585b1a5e995960921b60648201526084016106c5565b6000805460ff1916600117905580156123b7576000805461ff0019166101001790555b6001600160a01b037f00000000000000000000000000000000000000000000000000000000000000001630036123ff5760405162461bcd60e51b81526004016106c590613b2d565b7f00000000000000000000000000000000000000000000000000000000000000006001600160a01b0316612431612a71565b6001600160a01b0316146124575760405162461bcd60e51b81526004016106c590613b79565b61245f612da7565b61246885612dd6565b612470612e1f565b612478612e46565b61012e80546001600160a01b038087166001600160a01b031992831617909255610130805486841690831617905561012f80549285169290911691909117905580156124fa576000805461ff0019169055604051600181527f7f26b83ff96e1f2b6a682f133852f6798a09c465da95921460cefb3847402498906020016108a5565b5050505050565b6001600160a01b037f00000000000000000000000000000000000000000000000000000000000000001630036125495760405162461bcd60e51b81526004016106c590613b2d565b7f00000000000000000000000000000000000000000000000000000000000000006001600160a01b031661257b612a71565b6001600160a01b0316146125a15760405162461bcd60e51b81526004016106c590613b79565b60006125ad8585612ae7565b9050806001600160a01b0316631d1438486040518163ffffffff1660e01b8152600401602060405180830381865afa1580156125ed573d6000803e3d6000fd5b505050506040513d601f19601f820116820180604052508101906126119190613bc5565b6001600160a01b0316336001600160a01b0316146040518060400160405280601181526020017021a0a62622a92fa727aa2fa4a9a9aaa2a960791b8152509061266d5760405162461bcd60e51b81526004016106c59190613229565b5060405163ceff310760e01b81526001600160a01b0384811660048301526024820184905282169063ceff310790604401600060405180830381600087803b1580156126b857600080fd5b505af11580156126cc573d6000803e3d6000fd5b505050507f9ebf11c1043e634700e1019f0f2f99b428b0fe7e1d5f1d1a5cb3fc74137eb957818484846001600160a01b031663b3ca1f3b6040518163ffffffff1660e01b8152600401602060405180830381865afa158015612732573d6000803e3d6000fd5b505050506040513d601f19601f820116820180604052508101906127569190613be2565b604080516000815260208101918290526108a59594939291600190613f60565b6001600160a01b037f00000000000000000000000000000000000000000000000000000000000000001630036127be5760405162461bcd60e51b81526004016106c590613b2d565b7f00000000000000000000000000000000000000000000000000000000000000006001600160a01b03166127f0612a71565b6001600160a01b0316146128165760405162461bcd60e51b81526004016106c590613b79565b60006128228686612ae7565b9050806001600160a01b0316631d1438486040518163ffffffff1660e01b8152600401602060405180830381865afa158015612862573d6000803e3d6000fd5b505050506040513d601f19601f820116820180604052508101906128869190613bc5565b6001600160a01b0316336001600160a01b0316146040518060400160405280601181526020017021a0a62622a92fa727aa2fa4a9a9aaa2a960791b815250906128e25760405162461bcd60e51b81526004016106c59190613229565b50604051630309e3e760e31b81526001600160a01b0382169063184f1f389061291390879087908790600401613fdf565b600060405180830381600087803b15801561292d57600080fd5b505af1158015612941573d6000803e3d6000fd5b505050507fc01596aef916fd836c1d861e3aa0bcabd30fa27830ebb88b76016236c942b45981838686856001600160a01b031663b3ca1f3b6040518163ffffffff1660e01b8152600401602060405180830381865afa1580156129a8573d6000803e3d6000fd5b505050506040513d601f19601f820116820180604052508101906129cc9190613be2565b60408051600081526020810191829052610f0d96959493929160019061400b565b6000806129fa8484612ae7565b905060008063ffffffff16826001600160a01b031663200d2ed26040518163ffffffff1660e01b8152600401602060405180830381865afa158015612a43573d6000803e3d6000fd5b505050506040513d601f19601f82011682018060405250810190612a679190613be2565b1495945050505050565b6000805160206140d9833981519152546001600160a01b031690565b6033546001600160a01b031633146118a45760405162461bcd60e51b815260206004820181905260248201527f4f776e61626c653a2063616c6c6572206973206e6f7420746865206f776e657260448201526064016106c5565b6000806101318484604051612afd929190613818565b908152604051908190036020019020546001600160a01b031691505092915050565b610fe2612a8d565b7f4910fdfa16fed3260ed0e7147f7cc6da11a60208b5b9406d12a635614ffd91435460ff1615612b5f57612b5a83612e75565b505050565b826001600160a01b03166352d1902d6040518163ffffffff1660e01b8152600401602060405180830381865afa925050508015612bb9575060408051601f3d908101601f19168201909252612bb691810190613be2565b60015b612c1c5760405162461bcd60e51b815260206004820152602e60248201527f45524331393637557067726164653a206e657720696d706c656d656e7461746960448201526d6f6e206973206e6f74205555505360901b60648201526084016106c5565b6000805160206140d98339815191528114612c8b5760405162461bcd60e51b815260206004820152602960248201527f45524331393637557067726164653a20756e737570706f727465642070726f786044820152681a58589b195555525160ba1b60648201526084016106c5565b50612b5a838383612f11565b600081815b8151811015612cf9576000828281518110612cb957612cb9614050565b0160209081015160f81c915081111580612cd65750607e8160ff16115b15612ce657506000949350505050565b5080612cf181614066565b915050612c9c565b5060019392505050565b603380546001600160a01b038381166001600160a01b0319831681179093556040519116919082907f8be0079c531659141344cd1fd0a4f28419497f9722a3daafe3b4186f6b6457e090600090a35050565b60fb80546001600160a01b038381166001600160a01b0319831681179093556040519116919082907f9b0948b943e24ff3413cb400b2eeae4337138739aaf31759dc6e813e8076fbc390600090a35050565b600054610100900460ff16612dce5760405162461bcd60e51b81526004016106c59061408d565b6118a4612f3c565b600054610100900460ff16612dfd5760405162461bcd60e51b81526004016106c59061408d565b60fb80546001600160a01b0319166001600160a01b0392909216919091179055565b600054610100900460ff166118a45760405162461bcd60e51b81526004016106c59061408d565b600054610100900460ff16612e6d5760405162461bcd60e51b81526004016106c59061408d565b6118a4612f6c565b6001600160a01b0381163b612ee25760405162461bcd60e51b815260206004820152602d60248201527f455243313936373a206e657720696d706c656d656e746174696f6e206973206e60448201526c1bdd08184818dbdb9d1c9858dd609a1b60648201526084016106c5565b6000805160206140d983398151915280546001600160a01b0319166001600160a01b0392909216919091179055565b612f1a83612f9a565b600082511180612f275750805b15612b5a57612f368383612fda565b50505050565b600054610100900460ff16612f635760405162461bcd60e51b81526004016106c59061408d565b6118a433612d03565b600054610100900460ff16612f935760405162461bcd60e51b81526004016106c59061408d565b600160c955565b612fa381612e75565b6040516001600160a01b038216907fbc7cd75a20ee27fd9adebab32041f755214dbc6bffa90cc0225b39da2e5c2d3b90600090a250565b60606001600160a01b0383163b6130425760405162461bcd60e51b815260206004820152602660248201527f416464726573733a2064656c65676174652063616c6c20746f206e6f6e2d636f6044820152651b9d1c9858dd60d21b60648201526084016106c5565b600080846001600160a01b03168460405161305d9190613828565b600060405180830381855af49150503d8060008114613098576040519150601f19603f3d011682016040523d82523d6000602084013e61309d565b606091505b509150915061191982826040518060600160405280602781526020016140f960279139606083156130cf575081610921565b8251156130df5782518084602001fd5b8160405162461bcd60e51b81526004016106c59190613229565b60008083601f84011261310b57600080fd5b5081356001600160401b0381111561312257600080fd5b60208301915083602082850101111561313a57600080fd5b9250929050565b6001600160a01b0381168114610fe257600080fd5b803561316181613141565b919050565b60008060006040848603121561317b57600080fd5b83356001600160401b0381111561319157600080fd5b61319d868287016130f9565b90945092505060208401356131b181613141565b809150509250925092565b6000602082840312156131ce57600080fd5b813561092181613141565b60005b838110156131f45781810151838201526020016131dc565b50506000910152565b600081518084526132158160208601602086016131d9565b601f01601f19169290920160200192915050565b60208152600061092160208301846131fd565b8015158114610fe257600080fd5b60008060006040848603121561325f57600080fd5b83356001600160401b0381111561327557600080fd5b613281868287016130f9565b90945092505060208401356131b18161323c565b6000806000806000606086880312156132ad57600080fd5b85356001600160401b03808211156132c457600080fd5b6132d089838a016130f9565b90975095506020880135945060408801359150808211156132f057600080fd5b506132fd888289016130f9565b969995985093965092949392505050565b634e487b7160e01b600052604160045260246000fd5b604080519081016001600160401b03811182821017156133465761334661330e565b60405290565b604051601f8201601f191681016001600160401b03811182821017156133745761337461330e565b604052919050565b60006001600160401b038211156133955761339561330e565b50601f01601f191660200190565b60006133b66133b18461337c565b61334c565b90508281528383830111156133ca57600080fd5b828260208301376000602084830101529392505050565b600082601f8301126133f257600080fd5b610921838335602085016133a3565b60008060008060006060868803121561341957600080fd5b85356001600160401b038082111561343057600080fd5b61343c89838a016130f9565b9097509550602088013591508082111561345557600080fd5b61346189838a016130f9565b9095509350604088013591508082111561347a57600080fd5b908701906040828a03121561348e57600080fd5b613496613324565b823563ffffffff811681146134aa57600080fd5b81526020830135828111156134be57600080fd5b6134ca8b8286016133e1565b6020830152508093505050509295509295909350565b6000602082840312156134f257600080fd5b81356001600160401b0381111561350857600080fd5b8201601f8101841361351957600080fd5b613528848235602084016133a3565b949350505050565b6000806040838503121561354357600080fd5b823561354e81613141565b915060208301356001600160401b0381111561356957600080fd5b613575858286016133e1565b9150509250929050565b6000806000806040858703121561359557600080fd5b84356001600160401b03808211156135ac57600080fd5b6135b8888389016130f9565b909650945060208701359150808211156135d157600080fd5b506135de878288016130f9565b95989497509550505050565b600080602083850312156135fd57600080fd5b82356001600160401b0381111561361357600080fd5b61361f858286016130f9565b90969095509350505050565b60008060006040848603121561364057600080fd5b83356001600160401b0381111561365657600080fd5b613662868287016130f9565b909790965060209590950135949350505050565b6000806000806080858703121561368c57600080fd5b843561369781613141565b935060208501356136a781613141565b925060408501356136b781613141565b915060608501356136c781613141565b939692955090935050565b600080600080606085870312156136e857600080fd5b84356001600160401b038111156136fe57600080fd5b61370a878288016130f9565b909550935050602085013561371e81613141565b9396929550929360400135925050565b60008060008060006060868803121561374657600080fd5b85356001600160401b038082111561375d57600080fd5b61376989838a016130f9565b9097509550602088013591508082111561378257600080fd5b818801915088601f83011261379657600080fd5b8135818111156137a557600080fd5b8960208260051b85010111156137ba57600080fd5b6020830195508094505050506137d260408701613156565b90509295509295909350565b600181811c908216806137f257607f821691505b60208210810361381257634e487b7160e01b600052602260045260246000fd5b50919050565b8183823760009101908152919050565b6000825161383a8184602087016131d9565b9190910192915050565b601f821115612b5a57600081815260208120601f850160051c8101602086101561386b5750805b601f850160051c820191505b8181101561388a57828155600101613877565b505050505050565b600019600383901b1c191660019190911b1790565b81516001600160401b038111156138c0576138c061330e565b6138d4816138ce84546137de565b84613844565b602080601f83116001811461390357600084156138f15750858301515b6138fb8582613892565b86555061388a565b600085815260208120601f198616915b8281101561393257888601518255948401946001909101908401613913565b50858210156139505787850151600019600388901b60f8161c191681555b5050505050600190811b01905550565b6001600160401b038311156139775761397761330e565b61398b8361398583546137de565b83613844565b6000601f8411600181146139b957600085156139a75750838201355b6139b18682613892565b8455506124fa565b600083815260209020601f19861690835b828110156139ea57868501358255602094850194600190920191016139ca565b5086821015613a075760001960f88860031b161c19848701351681555b505060018560011b0183555050505050565b81835281816020850137506000828201602090810191909152601f909101601f19169091010190565b60c081526000613a5660c08301898b613a19565b6001600160a01b0388811660208501528382036040850152613a7882896131fd565b908716606085015283810360808501529050613a9481866131fd565b9150508260a083015298975050505050505050565b6000613ab76133b18461337c565b9050828152838383011115613acb57600080fd5b6109218360208301846131d9565b600082601f830112613aea57600080fd5b61092183835160208501613aa9565b600060208284031215613b0b57600080fd5b81516001600160401b03811115613b2157600080fd5b61352884828501613ad9565b6020808252602c908201527f46756e6374696f6e206d7573742062652063616c6c6564207468726f7567682060408201526b19195b1959d85d1958d85b1b60a21b606082015260800190565b6020808252602c908201527f46756e6374696f6e206d7573742062652063616c6c6564207468726f7567682060408201526b6163746976652070726f787960a01b606082015260800190565b600060208284031215613bd757600080fd5b815161092181613141565b600060208284031215613bf457600080fd5b5051919050565b60018060a01b0386168152841515602082015283604082015260a060608201526000613c2a60a08301856131fd565b90508260808301529695505050505050565b604081526000613c50604083018587613a19565b9050826020830152949350505050565b60006020808385031215613c7357600080fd5b82516001600160401b0380821115613c8a57600080fd5b818501915085601f830112613c9e57600080fd5b815181811115613cb057613cb061330e565b8060051b613cbf85820161334c565b9182528381018501918581019089841115613cd957600080fd5b86860192505b83831015613d1557825185811115613cf75760008081fd5b613d058b89838a0101613ad9565b8352509186019190860190613cdf565b9998505050505050505050565b60006080820160018060a01b0387168352602060808185015281875180845260a08601915060a08160051b870101935082890160005b82811015613d8657609f19888703018452613d748683516131fd565b95509284019290840190600101613d58565b50505050508281036040840152613d9d81866131fd565b91505082606083015295945050505050565b60c081526000613dc360c083018a8c613a19565b6001600160a01b0389811660208501528382036040850152613de682898b613a19565b9150808716606085015280861660808501525082810360a084015263ffffffff8451168152602084015160406020830152613e2460408301826131fd565b9c9b505050505050505050505050565b6000610100808352613e498184018d8f613a19565b90508281036020840152613e5e818b8d613a19565b6001600160a01b038a81166040860152891660608501526080840188905260a0840187905283810360c08501529050613e9781866131fd565b9150508260e08301529b9a5050505050505050505050565b602081526000613528602083018486613a19565b600060208284031215613ed557600080fd5b81516001600160401b03811115613eeb57600080fd5b8201601f81018413613efc57600080fd5b61352884825160208401613aa9565b60018060a01b0385168152836020820152608060408201526000613f3260808301856131fd565b905082606083015295945050505050565b600060208284031215613f5557600080fd5b81516109218161323c565b6001600160a01b03878116825286166020820152604081018590526060810184905260c060808201819052600090613f9a908301856131fd565b90508260a0830152979650505050505050565b81835260006001600160fb1b03831115613fc657600080fd5b8260051b80836020870137939093016020019392505050565b604081526000613ff3604083018587613fad565b905060018060a01b0383166020830152949350505050565b6001600160a01b0388811682528716602082015260c0604082018190526000906140389083018789613fad565b8560608401528281036080840152613a9481866131fd565b634e487b7160e01b600052603260045260246000fd5b60006001820161408657634e487b7160e01b600052601160045260246000fd5b5060010190565b6020808252602b908201527f496e697469616c697a61626c653a20636f6e7472616374206973206e6f74206960408201526a6e697469616c697a696e6760a81b60608201526080019056fe360894a13ba1a3210667c828492db98dca3e2076cc3735a920a3ca505d382bbc416464726573733a206c6f772d6c6576656c2064656c65676174652063616c6c206661696c6564a26469706673582212201af251e1f17721eda476e27f449ea0e5d9afebd36261fe79ffb0c3cb3e2c51ac64736f6c63430008110033",
  "linkReferences": {},
  "deployedLinkReferences": {}
}