{
  "_format": "hh-sol-artifact-1",
  "contractName": "MockKyc",
  "sourceName": "contracts/Mocks/MockKyc.sol",
  "abi": [
    {
      "inputs": [
        {
          "internalType": "address",
          "name": "_address",
          "type": "address"
        }
      ],
      "name": "hasValidToken",
      "outputs": [
        {
          "internalType": "bool",
          "name": "valid",
          "type": "bool"
        }
      ],
      "stateMutability": "view",
      "type": "function"
    },
    {
      "inputs": [
        {
          "internalType": "address",
          "name": "_address",
          "type": "address"
        }
      ],
      "name": "setIsValid",
      "outputs": [],
      "stateMutability": "nonpayable",
      "type": "function"
    }
  ],
  "bytecode": "0x608060405234801561001057600080fd5b50610109806100206000396000f3fe6080604052348015600f57600080fd5b506004361060325760003560e01c80639d267630146037578063cbec8c81146074575b600080fd5b6060604236600460a5565b6001600160a01b031660009081526020819052604090205460ff1690565b604051901515815260200160405180910390f35b60a3607f36600460a5565b6001600160a01b03166000908152602081905260409020805460ff19166001179055565b005b60006020828403121560b657600080fd5b81356001600160a01b038116811460cc57600080fd5b939250505056fea2646970667358221220640afbd2728a488d3e77a565ade409c096ae8edd39d18c49cad349a25c24587264736f6c63430008110033",
  "linkReferences": {},
  "deployedLinkReferences": {}
}