{
  "_format": "hh-sol-artifact-1",
  "contractName": "BountyFactory",
  "sourceName": "contracts/BountyFactory/BountyFactory.sol",
  "abi": [
    {
      "inputs": [
        {
          "internalType": "address",
          "name": "_openQ",
          "type": "address"
        },
        {
          "internalType": "address",
          "name": "_atomicBountyBeacon",
          "type": "address"
        },
        {
          "internalType": "address",
          "name": "_ongoingBountyBeacon",
          "type": "address"
        },
        {
          "internalType": "address",
          "name": "_tieredPercentageBountyBeacon",
          "type": "address"
        },
        {
          "internalType": "address",
          "name": "_tieredFixedBountyBeacon",
          "type": "address"
        }
      ],
      "stateMutability": "nonpayable",
      "type": "constructor"
    },
    {
      "anonymous": false,
      "inputs": [
        {
          "indexed": false,
          "internalType": "uint8",
          "name": "version",
          "type": "uint8"
        }
      ],
      "name": "Initialized",
      "type": "event"
    },
    {
      "inputs": [],
      "name": "atomicBountyBeacon",
      "outputs": [
        {
          "internalType": "address",
          "name": "",
          "type": "address"
        }
      ],
      "stateMutability": "view",
      "type": "function"
    },
    {
      "inputs": [
        {
          "internalType": "string",
          "name": "_id",
          "type": "string"
        },
        {
          "internalType": "address",
          "name": "_issuer",
          "type": "address"
        },
        {
          "internalType": "string",
          "name": "_organization",
          "type": "string"
        },
        {
          "internalType": "address",
          "name": "_claimManager",
          "type": "address"
        },
        {
          "internalType": "address",
          "name": "_depositManager",
          "type": "address"
        },
        {
          "components": [
            {
              "internalType": "uint32",
              "name": "operationType",
              "type": "uint32"
            },
            {
              "internalType": "bytes",
              "name": "data",
              "type": "bytes"
            }
          ],
          "internalType": "struct OpenQDefinitions.InitOperation",
          "name": "_operation",
          "type": "tuple"
        }
      ],
      "name": "mintBounty",
      "outputs": [
        {
          "internalType": "address",
          "name": "",
          "type": "address"
        }
      ],
      "stateMutability": "nonpayable",
      "type": "function"
    },
    {
      "inputs": [],
      "name": "ongoingBountyBeacon",
      "outputs": [
        {
          "internalType": "address",
          "name": "",
          "type": "address"
        }
      ],
      "stateMutability": "view",
      "type": "function"
    },
    {
      "inputs": [],
      "name": "openQ",
      "outputs": [
        {
          "internalType": "address",
          "name": "",
          "type": "address"
        }
      ],
      "stateMutability": "view",
      "type": "function"
    },
    {
      "inputs": [],
      "name": "tieredFixedBountyBeacon",
      "outputs": [
        {
          "internalType": "address",
          "name": "",
          "type": "address"
        }
      ],
      "stateMutability": "view",
      "type": "function"
    },
    {
      "inputs": [],
      "name": "tieredPercentageBountyBeacon",
      "outputs": [
        {
          "internalType": "address",
          "name": "",
          "type": "address"
        }
      ],
      "stateMutability": "view",
      "type": "function"
    }
  ],
  "bytecode": "0x61010060405234801561001157600080fd5b506040516111433803806111438339810160408190526100309161008a565b603380546001600160a01b0319166001600160a01b0387161790556001600160a01b0393841660805291831660a052821660c0521660e052506100ef565b80516001600160a01b038116811461008557600080fd5b919050565b600080600080600060a086880312156100a257600080fd5b6100ab8661006e565b94506100b96020870161006e565b93506100c76040870161006e565b92506100d56060870161006e565b91506100e36080870161006e565b90509295509295909350565b60805160a05160c05160e0516110016101426000396000818161010a015261027b01526000818160a80152610243015260008181610132015261020b01526000818160d001526101d301526110016000f3fe60806040523480156200001157600080fd5b50600436106200006a5760003560e01c806347d2bea2146200006f57806364f3c06814620000a2578063682cf75614620000ca5780637dc81fa214620000f2578063cc33f7fb1462000104578063d2ba4720146200012c575b600080fd5b62000086620000803660046200049a565b62000154565b6040516001600160a01b03909116815260200160405180910390f35b620000867f000000000000000000000000000000000000000000000000000000000000000081565b620000867f000000000000000000000000000000000000000000000000000000000000000081565b6033546001600160a01b031662000086565b620000867f000000000000000000000000000000000000000000000000000000000000000081565b620000867f000000000000000000000000000000000000000000000000000000000000000081565b6033546000906001600160a01b0316336001600160a01b031614620001c05760405162461bcd60e51b815260206004820181905260248201527f4d6574686f64206973206f6e6c792063616c6c61626c65206279204f70656e5160448201526064015b60405180910390fd5b8151600063ffffffff8216620001f857507f0000000000000000000000000000000000000000000000000000000000000000620002e3565b60001963ffffffff8316016200023057507f0000000000000000000000000000000000000000000000000000000000000000620002e3565b60011963ffffffff8316016200026857507f0000000000000000000000000000000000000000000000000000000000000000620002e3565b60021963ffffffff831601620002a057507f0000000000000000000000000000000000000000000000000000000000000000620002e3565b6040805180820182526013815272554e4b4e4f574e5f424f554e54595f5459504560681b6020820152905162461bcd60e51b8152620001b7919060040162000614565b6000818a8a8a620002fc6033546001600160a01b031690565b8b8b8b60405160240162000317979695949392919062000629565b60408051601f198184030181529181526020820180516001600160e01b0316631fa07b1b60e11b179052516200034d9062000386565b6200035a929190620006b9565b604051809103906000f08015801562000377573d6000803e3d6000fd5b509a9950505050505050505050565b6108e480620006e883390190565b634e487b7160e01b600052604160045260246000fd5b6040805190810167ffffffffffffffff81118282101715620003d057620003d062000394565b60405290565b600067ffffffffffffffff80841115620003f457620003f462000394565b604051601f8501601f19908116603f011681019082821181831017156200041f576200041f62000394565b816040528093508581528686860111156200043957600080fd5b858560208301376000602087830101525050509392505050565b600082601f8301126200046557600080fd5b6200047683833560208501620003d6565b9392505050565b80356001600160a01b03811681146200049557600080fd5b919050565b60008060008060008060c08789031215620004b457600080fd5b863567ffffffffffffffff80821115620004cd57600080fd5b620004db8a838b0162000453565b9750620004eb60208a016200047d565b965060408901359150808211156200050257600080fd5b620005108a838b0162000453565b95506200052060608a016200047d565b94506200053060808a016200047d565b935060a08901359150808211156200054757600080fd5b908801906040828b0312156200055c57600080fd5b62000566620003aa565b823563ffffffff811681146200057b57600080fd5b81526020830135828111156200059057600080fd5b8084019350508a601f840112620005a657600080fd5b620005b78b843560208601620003d6565b60208201528093505050509295509295509295565b6000815180845260005b81811015620005f457602081850181015186830182015201620005d6565b506000602082860101526020601f19601f83011685010191505092915050565b602081526000620004766020830184620005cc565b60e0815260006200063e60e083018a620005cc565b6001600160a01b038981166020850152838203604085015262000662828a620005cc565b91508088166060850152808716608085015280861660a08501525082810360c084015263ffffffff8451168152602084015160406020830152620006aa6040830182620005cc565b9b9a5050505050505050505050565b6001600160a01b0383168152604060208201819052600090620006df90830184620005cc565b94935050505056fe60806040526040516108e43803806108e48339810160408190526100229161044e565b61002e82826000610035565b5050610578565b61003e83610100565b6040516001600160a01b038416907f1cf3b03a6cf19fa2baba4df148e9dcabedea7f8a5c07840e207e5c089be95d3e90600090a260008251118061007f5750805b156100fb576100f9836001600160a01b0316635c60da1b6040518163ffffffff1660e01b8152600401602060405180830381865afa1580156100c5573d6000803e3d6000fd5b505050506040513d601f19601f820116820180604052508101906100e9919061050e565b836102a360201b6100291760201c565b505b505050565b610113816102cf60201b6100551760201c565b6101725760405162461bcd60e51b815260206004820152602560248201527f455243313936373a206e657720626561636f6e206973206e6f74206120636f6e6044820152641d1c9858dd60da1b60648201526084015b60405180910390fd5b6101e6816001600160a01b0316635c60da1b6040518163ffffffff1660e01b8152600401602060405180830381865afa1580156101b3573d6000803e3d6000fd5b505050506040513d601f19601f820116820180604052508101906101d7919061050e565b6102cf60201b6100551760201c565b61024b5760405162461bcd60e51b815260206004820152603060248201527f455243313936373a20626561636f6e20696d706c656d656e746174696f6e206960448201526f1cc81b9bdd08184818dbdb9d1c9858dd60821b6064820152608401610169565b806102827fa3f0ad74e5423aebfd80d3ef4346578335a9a72aeaee59ff6cb3582b35133d5060001b6102de60201b6100641760201c565b80546001600160a01b0319166001600160a01b039290921691909117905550565b60606102c883836040518060600160405280602781526020016108bd602791396102e1565b9392505050565b6001600160a01b03163b151590565b90565b60606001600160a01b0384163b6103495760405162461bcd60e51b815260206004820152602660248201527f416464726573733a2064656c65676174652063616c6c20746f206e6f6e2d636f6044820152651b9d1c9858dd60d21b6064820152608401610169565b600080856001600160a01b0316856040516103649190610529565b600060405180830381855af49150503d806000811461039f576040519150601f19603f3d011682016040523d82523d6000602084013e6103a4565b606091505b5090925090506103b58282866103bf565b9695505050505050565b606083156103ce5750816102c8565b8251156103de5782518084602001fd5b8160405162461bcd60e51b81526004016101699190610545565b80516001600160a01b038116811461040f57600080fd5b919050565b634e487b7160e01b600052604160045260246000fd5b60005b8381101561044557818101518382015260200161042d565b50506000910152565b6000806040838503121561046157600080fd5b61046a836103f8565b60208401519092506001600160401b038082111561048757600080fd5b818501915085601f83011261049b57600080fd5b8151818111156104ad576104ad610414565b604051601f8201601f19908116603f011681019083821181831017156104d5576104d5610414565b816040528281528860208487010111156104ee57600080fd5b6104ff83602083016020880161042a565b80955050505050509250929050565b60006020828403121561052057600080fd5b6102c8826103f8565b6000825161053b81846020870161042a565b9190910192915050565b602081526000825180602084015261056481604085016020870161042a565b601f01601f19169190910160400192915050565b610336806105876000396000f3fe60806040523661001357610011610017565b005b6100115b610027610022610067565b610100565b565b606061004e83836040518060600160405280602781526020016102da60279139610124565b9392505050565b6001600160a01b03163b151590565b90565b600061009a7fa3f0ad74e5423aebfd80d3ef4346578335a9a72aeaee59ff6cb3582b35133d50546001600160a01b031690565b6001600160a01b0316635c60da1b6040518163ffffffff1660e01b8152600401602060405180830381865afa1580156100d7573d6000803e3d6000fd5b505050506040513d601f19601f820116820180604052508101906100fb919061023d565b905090565b3660008037600080366000845af43d6000803e80801561011f573d6000f35b3d6000fd5b606061012f84610055565b61018f5760405162461bcd60e51b815260206004820152602660248201527f416464726573733a2064656c65676174652063616c6c20746f206e6f6e2d636f6044820152651b9d1c9858dd60d21b60648201526084015b60405180910390fd5b600080856001600160a01b0316856040516101aa919061028a565b600060405180830381855af49150503d80600081146101e5576040519150601f19603f3d011682016040523d82523d6000602084013e6101ea565b606091505b50915091506101fa828286610204565b9695505050505050565b6060831561021357508161004e565b8251156102235782518084602001fd5b8160405162461bcd60e51b815260040161018691906102a6565b60006020828403121561024f57600080fd5b81516001600160a01b038116811461004e57600080fd5b60005b83811015610281578181015183820152602001610269565b50506000910152565b6000825161029c818460208701610266565b9190910192915050565b60208152600082518060208401526102c5816040850160208701610266565b601f01601f1916919091016040019291505056fe416464726573733a206c6f772d6c6576656c2064656c65676174652063616c6c206661696c6564a26469706673582212202d2530184f42ba91ef4068e2a74ca6b01a19631182e84fc893749353159aae7164736f6c63430008110033416464726573733a206c6f772d6c6576656c2064656c65676174652063616c6c206661696c6564a2646970667358221220f0bfaa1c6c65b161db14e5e8e58e5b49a41305365017efc7d63c51cfa02c792764736f6c63430008110033",
  "linkReferences": {},
  "deployedLinkReferences": {}
}