{
  "_format": "hh-sol-artifact-1",
  "contractName": "BountyFactory",
  "sourceName": "contracts/BountyFactory/BountyFactory.sol",
  "abi": [
    {
      "inputs": [
        {
          "internalType": "address",
          "name": "_openQ",
          "type": "address"
        },
        {
          "internalType": "address",
          "name": "_atomicBountyBeacon",
          "type": "address"
        },
        {
          "internalType": "address",
          "name": "_tieredFixedBountyBeacon",
          "type": "address"
        }
      ],
      "stateMutability": "nonpayable",
      "type": "constructor"
    },
    {
      "anonymous": false,
      "inputs": [
        {
          "indexed": false,
          "internalType": "uint8",
          "name": "version",
          "type": "uint8"
        }
      ],
      "name": "Initialized",
      "type": "event"
    },
    {
      "inputs": [],
      "name": "atomicBountyBeacon",
      "outputs": [
        {
          "internalType": "address",
          "name": "",
          "type": "address"
        }
      ],
      "stateMutability": "view",
      "type": "function"
    },
    {
      "inputs": [
        {
          "internalType": "string",
          "name": "_id",
          "type": "string"
        },
        {
          "internalType": "address",
          "name": "_issuer",
          "type": "address"
        },
        {
          "internalType": "string",
          "name": "_organization",
          "type": "string"
        },
        {
          "internalType": "address",
          "name": "_claimManager",
          "type": "address"
        },
        {
          "internalType": "address",
          "name": "_depositManager",
          "type": "address"
        },
        {
          "components": [
            {
              "internalType": "uint32",
              "name": "operationType",
              "type": "uint32"
            },
            {
              "internalType": "bytes",
              "name": "data",
              "type": "bytes"
            }
          ],
          "internalType": "struct OpenQDefinitions.InitOperation",
          "name": "_operation",
          "type": "tuple"
        }
      ],
      "name": "mintBounty",
      "outputs": [
        {
          "internalType": "address",
          "name": "",
          "type": "address"
        }
      ],
      "stateMutability": "nonpayable",
      "type": "function"
    },
    {
      "inputs": [],
      "name": "openQ",
      "outputs": [
        {
          "internalType": "address",
          "name": "",
          "type": "address"
        }
      ],
      "stateMutability": "view",
      "type": "function"
    },
    {
      "inputs": [],
      "name": "tieredFixedBountyBeacon",
      "outputs": [
        {
          "internalType": "address",
          "name": "",
          "type": "address"
        }
      ],
      "stateMutability": "view",
      "type": "function"
    }
  ],
  "bytecode": "0x60c060405234801561001057600080fd5b5060405161101b38038061101b83398101604081905261002f9161007e565b603380546001600160a01b0319166001600160a01b0385161790556001600160a01b039182166080521660a052506100c1565b80516001600160a01b038116811461007957600080fd5b919050565b60008060006060848603121561009357600080fd5b61009c84610062565b92506100aa60208501610062565b91506100b860408501610062565b90509250925092565b60805160a051610f296100f26000396000818160ca01526101a30152600081816090015261016b0152610f296000f3fe60806040523480156200001157600080fd5b5060043610620000525760003560e01c806347d2bea21462000057578063682cf756146200008a5780637dc81fa214620000b2578063cc33f7fb14620000c4575b600080fd5b6200006e62000068366004620003c2565b620000ec565b6040516001600160a01b03909116815260200160405180910390f35b6200006e7f000000000000000000000000000000000000000000000000000000000000000081565b6033546001600160a01b03166200006e565b6200006e7f000000000000000000000000000000000000000000000000000000000000000081565b6033546000906001600160a01b0316336001600160a01b031614620001585760405162461bcd60e51b815260206004820181905260248201527f4d6574686f64206973206f6e6c792063616c6c61626c65206279204f70656e5160448201526064015b60405180910390fd5b8151600063ffffffff82166200019057507f00000000000000000000000000000000000000000000000000000000000000006200020b565b60021963ffffffff831601620001c857507f00000000000000000000000000000000000000000000000000000000000000006200020b565b6040805180820182526013815272554e4b4e4f574e5f424f554e54595f5459504560681b6020820152905162461bcd60e51b81526200014f91906004016200053c565b6000818a8a8a620002246033546001600160a01b031690565b8b8b8b6040516024016200023f979695949392919062000551565b60408051601f198184030181529181526020820180516001600160e01b0316631fa07b1b60e11b179052516200027590620002ae565b62000282929190620005e1565b604051809103906000f0801580156200029f573d6000803e3d6000fd5b509a9950505050505050505050565b6108e4806200061083390190565b634e487b7160e01b600052604160045260246000fd5b6040805190810167ffffffffffffffff81118282101715620002f857620002f8620002bc565b60405290565b600067ffffffffffffffff808411156200031c576200031c620002bc565b604051601f8501601f19908116603f01168101908282118183101715620003475762000347620002bc565b816040528093508581528686860111156200036157600080fd5b858560208301376000602087830101525050509392505050565b600082601f8301126200038d57600080fd5b6200039e83833560208501620002fe565b9392505050565b80356001600160a01b0381168114620003bd57600080fd5b919050565b60008060008060008060c08789031215620003dc57600080fd5b863567ffffffffffffffff80821115620003f557600080fd5b620004038a838b016200037b565b97506200041360208a01620003a5565b965060408901359150808211156200042a57600080fd5b620004388a838b016200037b565b95506200044860608a01620003a5565b94506200045860808a01620003a5565b935060a08901359150808211156200046f57600080fd5b908801906040828b0312156200048457600080fd5b6200048e620002d2565b823563ffffffff81168114620004a357600080fd5b8152602083013582811115620004b857600080fd5b8084019350508a601f840112620004ce57600080fd5b620004df8b843560208601620002fe565b60208201528093505050509295509295509295565b6000815180845260005b818110156200051c57602081850181015186830182015201620004fe565b506000602082860101526020601f19601f83011685010191505092915050565b6020815260006200039e6020830184620004f4565b60e0815260006200056660e083018a620004f4565b6001600160a01b03898116602085015283820360408501526200058a828a620004f4565b91508088166060850152808716608085015280861660a08501525082810360c084015263ffffffff8451168152602084015160406020830152620005d26040830182620004f4565b9b9a5050505050505050505050565b6001600160a01b03831681526040602082018190526000906200060790830184620004f4565b94935050505056fe60806040526040516108e43803806108e48339810160408190526100229161044e565b61002e82826000610035565b5050610578565b61003e83610100565b6040516001600160a01b038416907f1cf3b03a6cf19fa2baba4df148e9dcabedea7f8a5c07840e207e5c089be95d3e90600090a260008251118061007f5750805b156100fb576100f9836001600160a01b0316635c60da1b6040518163ffffffff1660e01b8152600401602060405180830381865afa1580156100c5573d6000803e3d6000fd5b505050506040513d601f19601f820116820180604052508101906100e9919061050e565b836102a360201b6100291760201c565b505b505050565b610113816102cf60201b6100551760201c565b6101725760405162461bcd60e51b815260206004820152602560248201527f455243313936373a206e657720626561636f6e206973206e6f74206120636f6e6044820152641d1c9858dd60da1b60648201526084015b60405180910390fd5b6101e6816001600160a01b0316635c60da1b6040518163ffffffff1660e01b8152600401602060405180830381865afa1580156101b3573d6000803e3d6000fd5b505050506040513d601f19601f820116820180604052508101906101d7919061050e565b6102cf60201b6100551760201c565b61024b5760405162461bcd60e51b815260206004820152603060248201527f455243313936373a20626561636f6e20696d706c656d656e746174696f6e206960448201526f1cc81b9bdd08184818dbdb9d1c9858dd60821b6064820152608401610169565b806102827fa3f0ad74e5423aebfd80d3ef4346578335a9a72aeaee59ff6cb3582b35133d5060001b6102de60201b6100641760201c565b80546001600160a01b0319166001600160a01b039290921691909117905550565b60606102c883836040518060600160405280602781526020016108bd602791396102e1565b9392505050565b6001600160a01b03163b151590565b90565b60606001600160a01b0384163b6103495760405162461bcd60e51b815260206004820152602660248201527f416464726573733a2064656c65676174652063616c6c20746f206e6f6e2d636f6044820152651b9d1c9858dd60d21b6064820152608401610169565b600080856001600160a01b0316856040516103649190610529565b600060405180830381855af49150503d806000811461039f576040519150601f19603f3d011682016040523d82523d6000602084013e6103a4565b606091505b5090925090506103b58282866103bf565b9695505050505050565b606083156103ce5750816102c8565b8251156103de5782518084602001fd5b8160405162461bcd60e51b81526004016101699190610545565b80516001600160a01b038116811461040f57600080fd5b919050565b634e487b7160e01b600052604160045260246000fd5b60005b8381101561044557818101518382015260200161042d565b50506000910152565b6000806040838503121561046157600080fd5b61046a836103f8565b60208401519092506001600160401b038082111561048757600080fd5b818501915085601f83011261049b57600080fd5b8151818111156104ad576104ad610414565b604051601f8201601f19908116603f011681019083821181831017156104d5576104d5610414565b816040528281528860208487010111156104ee57600080fd5b6104ff83602083016020880161042a565b80955050505050509250929050565b60006020828403121561052057600080fd5b6102c8826103f8565b6000825161053b81846020870161042a565b9190910192915050565b602081526000825180602084015261056481604085016020870161042a565b601f01601f19169190910160400192915050565b610336806105876000396000f3fe60806040523661001357610011610017565b005b6100115b610027610022610067565b610100565b565b606061004e83836040518060600160405280602781526020016102da60279139610124565b9392505050565b6001600160a01b03163b151590565b90565b600061009a7fa3f0ad74e5423aebfd80d3ef4346578335a9a72aeaee59ff6cb3582b35133d50546001600160a01b031690565b6001600160a01b0316635c60da1b6040518163ffffffff1660e01b8152600401602060405180830381865afa1580156100d7573d6000803e3d6000fd5b505050506040513d601f19601f820116820180604052508101906100fb919061023d565b905090565b3660008037600080366000845af43d6000803e80801561011f573d6000f35b3d6000fd5b606061012f84610055565b61018f5760405162461bcd60e51b815260206004820152602660248201527f416464726573733a2064656c65676174652063616c6c20746f206e6f6e2d636f6044820152651b9d1c9858dd60d21b60648201526084015b60405180910390fd5b600080856001600160a01b0316856040516101aa919061028a565b600060405180830381855af49150503d80600081146101e5576040519150601f19603f3d011682016040523d82523d6000602084013e6101ea565b606091505b50915091506101fa828286610204565b9695505050505050565b6060831561021357508161004e565b8251156102235782518084602001fd5b8160405162461bcd60e51b815260040161018691906102a6565b60006020828403121561024f57600080fd5b81516001600160a01b038116811461004e57600080fd5b60005b83811015610281578181015183820152602001610269565b50506000910152565b6000825161029c818460208701610266565b9190910192915050565b60208152600082518060208401526102c5816040850160208701610266565b601f01601f1916919091016040019291505056fe416464726573733a206c6f772d6c6576656c2064656c65676174652063616c6c206661696c6564a26469706673582212202d2530184f42ba91ef4068e2a74ca6b01a19631182e84fc893749353159aae7164736f6c63430008110033416464726573733a206c6f772d6c6576656c2064656c65676174652063616c6c206661696c6564a2646970667358221220bf9d03f7e70f364e92c6c3a17eb88bcbae3939d3cadcd51dc6c04d7ac978b1cb64736f6c63430008110033",
  "linkReferences": {},
  "deployedLinkReferences": {}
}