{
  "_format": "hh-sol-artifact-1",
  "contractName": "DepositManagerV2",
  "sourceName": "contracts/DepositManager/DepositManagerV2.sol",
  "abi": [
    {
      "inputs": [],
      "stateMutability": "nonpayable",
      "type": "constructor"
    },
    {
      "anonymous": false,
      "inputs": [
        {
          "indexed": false,
          "internalType": "address",
          "name": "previousAdmin",
          "type": "address"
        },
        {
          "indexed": false,
          "internalType": "address",
          "name": "newAdmin",
          "type": "address"
        }
      ],
      "name": "AdminChanged",
      "type": "event"
    },
    {
      "anonymous": false,
      "inputs": [
        {
          "indexed": true,
          "internalType": "address",
          "name": "beacon",
          "type": "address"
        }
      ],
      "name": "BeaconUpgraded",
      "type": "event"
    },
    {
      "anonymous": false,
      "inputs": [
        {
          "indexed": false,
          "internalType": "string",
          "name": "bountyId",
          "type": "string"
        },
        {
          "indexed": false,
          "internalType": "address",
          "name": "bountyAddress",
          "type": "address"
        },
        {
          "indexed": false,
          "internalType": "string",
          "name": "organization",
          "type": "string"
        },
        {
          "indexed": false,
          "internalType": "address",
          "name": "closer",
          "type": "address"
        },
        {
          "indexed": false,
          "internalType": "uint256",
          "name": "bountyClosedTime",
          "type": "uint256"
        },
        {
          "indexed": false,
          "internalType": "uint256",
          "name": "bountyType",
          "type": "uint256"
        },
        {
          "indexed": false,
          "internalType": "bytes",
          "name": "data",
          "type": "bytes"
        },
        {
          "indexed": false,
          "internalType": "uint256",
          "name": "version",
          "type": "uint256"
        }
      ],
      "name": "BountyClosed",
      "type": "event"
    },
    {
      "anonymous": false,
      "inputs": [
        {
          "indexed": false,
          "internalType": "string",
          "name": "bountyId",
          "type": "string"
        },
        {
          "indexed": false,
          "internalType": "string",
          "name": "organization",
          "type": "string"
        },
        {
          "indexed": false,
          "internalType": "address",
          "name": "issuerAddress",
          "type": "address"
        },
        {
          "indexed": false,
          "internalType": "address",
          "name": "bountyAddress",
          "type": "address"
        },
        {
          "indexed": false,
          "internalType": "uint256",
          "name": "bountyMintTime",
          "type": "uint256"
        },
        {
          "indexed": false,
          "internalType": "uint256",
          "name": "bountyType",
          "type": "uint256"
        },
        {
          "indexed": false,
          "internalType": "bytes",
          "name": "data",
          "type": "bytes"
        },
        {
          "indexed": false,
          "internalType": "uint256",
          "name": "version",
          "type": "uint256"
        }
      ],
      "name": "BountyCreated",
      "type": "event"
    },
    {
      "anonymous": false,
      "inputs": [
        {
          "indexed": false,
          "internalType": "uint256",
          "name": "claimTime",
          "type": "uint256"
        },
        {
          "indexed": false,
          "internalType": "uint256",
          "name": "bountyType",
          "type": "uint256"
        },
        {
          "indexed": false,
          "internalType": "bytes",
          "name": "data",
          "type": "bytes"
        },
        {
          "indexed": false,
          "internalType": "uint256",
          "name": "version",
          "type": "uint256"
        }
      ],
      "name": "ClaimSuccess",
      "type": "event"
    },
    {
      "anonymous": false,
      "inputs": [
        {
          "indexed": false,
          "internalType": "bytes32",
          "name": "depositId",
          "type": "bytes32"
        },
        {
          "indexed": false,
          "internalType": "uint256",
          "name": "newExpiration",
          "type": "uint256"
        },
        {
          "indexed": false,
          "internalType": "uint256",
          "name": "bountyType",
          "type": "uint256"
        },
        {
          "indexed": false,
          "internalType": "bytes",
          "name": "data",
          "type": "bytes"
        },
        {
          "indexed": false,
          "internalType": "uint256",
          "name": "version",
          "type": "uint256"
        }
      ],
      "name": "DepositExtended",
      "type": "event"
    },
    {
      "anonymous": false,
      "inputs": [
        {
          "indexed": false,
          "internalType": "bytes32",
          "name": "depositId",
          "type": "bytes32"
        },
        {
          "indexed": false,
          "internalType": "string",
          "name": "bountyId",
          "type": "string"
        },
        {
          "indexed": false,
          "internalType": "address",
          "name": "bountyAddress",
          "type": "address"
        },
        {
          "indexed": false,
          "internalType": "string",
          "name": "organization",
          "type": "string"
        },
        {
          "indexed": false,
          "internalType": "uint256",
          "name": "refundTime",
          "type": "uint256"
        },
        {
          "indexed": false,
          "internalType": "address",
          "name": "tokenAddress",
          "type": "address"
        },
        {
          "indexed": false,
          "internalType": "uint256",
          "name": "volume",
          "type": "uint256"
        },
        {
          "indexed": false,
          "internalType": "uint256",
          "name": "bountyType",
          "type": "uint256"
        },
        {
          "indexed": false,
          "internalType": "bytes",
          "name": "data",
          "type": "bytes"
        },
        {
          "indexed": false,
          "internalType": "uint256",
          "name": "version",
          "type": "uint256"
        }
      ],
      "name": "DepositRefunded",
      "type": "event"
    },
    {
      "anonymous": false,
      "inputs": [
        {
          "indexed": false,
          "internalType": "string",
          "name": "externalUserId",
          "type": "string"
        },
        {
          "indexed": false,
          "internalType": "address",
          "name": "newAddress",
          "type": "address"
        },
        {
          "indexed": false,
          "internalType": "bytes",
          "name": "data",
          "type": "bytes"
        },
        {
          "indexed": false,
          "internalType": "uint256",
          "name": "version",
          "type": "uint256"
        }
      ],
      "name": "ExternalUserIdAssociatedWithAddress",
      "type": "event"
    },
    {
      "anonymous": false,
      "inputs": [
        {
          "indexed": false,
          "internalType": "address",
          "name": "bountyAddress",
          "type": "address"
        },
        {
          "indexed": false,
          "internalType": "address",
          "name": "fundingGoalTokenAddress",
          "type": "address"
        },
        {
          "indexed": false,
          "internalType": "uint256",
          "name": "fundingGoalVolume",
          "type": "uint256"
        },
        {
          "indexed": false,
          "internalType": "uint256",
          "name": "bountyType",
          "type": "uint256"
        },
        {
          "indexed": false,
          "internalType": "bytes",
          "name": "data",
          "type": "bytes"
        },
        {
          "indexed": false,
          "internalType": "uint256",
          "name": "version",
          "type": "uint256"
        }
      ],
      "name": "FundingGoalSet",
      "type": "event"
    },
    {
      "anonymous": false,
      "inputs": [
        {
          "indexed": false,
          "internalType": "uint8",
          "name": "version",
          "type": "uint8"
        }
      ],
      "name": "Initialized",
      "type": "event"
    },
    {
      "anonymous": false,
      "inputs": [
        {
          "indexed": false,
          "internalType": "address",
          "name": "bountyAddress",
          "type": "address"
        },
        {
          "indexed": false,
          "internalType": "bool",
          "name": "invoiceCompletedSet",
          "type": "bool"
        },
        {
          "indexed": false,
          "internalType": "bytes",
          "name": "data",
          "type": "bytes"
        },
        {
          "indexed": false,
          "internalType": "uint256",
          "name": "version",
          "type": "uint256"
        }
      ],
      "name": "InvoiceCompletedSet",
      "type": "event"
    },
    {
      "anonymous": false,
      "inputs": [
        {
          "indexed": false,
          "internalType": "address",
          "name": "bountyAddress",
          "type": "address"
        },
        {
          "indexed": false,
          "internalType": "bool",
          "name": "invoiceable",
          "type": "bool"
        },
        {
          "indexed": false,
          "internalType": "bytes",
          "name": "data",
          "type": "bytes"
        },
        {
          "indexed": false,
          "internalType": "uint256",
          "name": "version",
          "type": "uint256"
        }
      ],
      "name": "InvoiceableSet",
      "type": "event"
    },
    {
      "anonymous": false,
      "inputs": [
        {
          "indexed": false,
          "internalType": "address",
          "name": "bountyAddress",
          "type": "address"
        },
        {
          "indexed": false,
          "internalType": "bool",
          "name": "kycRequired",
          "type": "bool"
        },
        {
          "indexed": false,
          "internalType": "bytes",
          "name": "data",
          "type": "bytes"
        },
        {
          "indexed": false,
          "internalType": "uint256",
          "name": "version",
          "type": "uint256"
        }
      ],
      "name": "KYCRequiredSet",
      "type": "event"
    },
    {
      "anonymous": false,
      "inputs": [
        {
          "indexed": false,
          "internalType": "string",
          "name": "bountyId",
          "type": "string"
        },
        {
          "indexed": false,
          "internalType": "address",
          "name": "bountyAddress",
          "type": "address"
        },
        {
          "indexed": false,
          "internalType": "string",
          "name": "organization",
          "type": "string"
        },
        {
          "indexed": false,
          "internalType": "address",
          "name": "closer",
          "type": "address"
        },
        {
          "indexed": false,
          "internalType": "uint256",
          "name": "payoutTime",
          "type": "uint256"
        },
        {
          "indexed": false,
          "internalType": "address",
          "name": "tokenAddress",
          "type": "address"
        },
        {
          "indexed": false,
          "internalType": "uint256",
          "name": "tokenId",
          "type": "uint256"
        },
        {
          "indexed": false,
          "internalType": "uint256",
          "name": "bountyType",
          "type": "uint256"
        },
        {
          "indexed": false,
          "internalType": "bytes",
          "name": "data",
          "type": "bytes"
        },
        {
          "indexed": false,
          "internalType": "uint256",
          "name": "version",
          "type": "uint256"
        }
      ],
      "name": "NFTClaimed",
      "type": "event"
    },
    {
      "anonymous": false,
      "inputs": [
        {
          "indexed": false,
          "internalType": "bytes32",
          "name": "depositId",
          "type": "bytes32"
        },
        {
          "indexed": false,
          "internalType": "address",
          "name": "bountyAddress",
          "type": "address"
        },
        {
          "indexed": false,
          "internalType": "string",
          "name": "bountyId",
          "type": "string"
        },
        {
          "indexed": false,
          "internalType": "string",
          "name": "organization",
          "type": "string"
        },
        {
          "indexed": false,
          "internalType": "address",
          "name": "tokenAddress",
          "type": "address"
        },
        {
          "indexed": false,
          "internalType": "uint256",
          "name": "receiveTime",
          "type": "uint256"
        },
        {
          "indexed": false,
          "internalType": "address",
          "name": "sender",
          "type": "address"
        },
        {
          "indexed": false,
          "internalType": "uint256",
          "name": "expiration",
          "type": "uint256"
        },
        {
          "indexed": false,
          "internalType": "uint256",
          "name": "tokenId",
          "type": "uint256"
        },
        {
          "indexed": false,
          "internalType": "uint256",
          "name": "bountyType",
          "type": "uint256"
        },
        {
          "indexed": false,
          "internalType": "bytes",
          "name": "data",
          "type": "bytes"
        },
        {
          "indexed": false,
          "internalType": "uint256",
          "name": "version",
          "type": "uint256"
        }
      ],
      "name": "NFTDepositReceived",
      "type": "event"
    },
    {
      "anonymous": false,
      "inputs": [
        {
          "indexed": true,
          "internalType": "address",
          "name": "previousOwner",
          "type": "address"
        },
        {
          "indexed": true,
          "internalType": "address",
          "name": "newOwner",
          "type": "address"
        }
      ],
      "name": "OwnershipTransferred",
      "type": "event"
    },
    {
      "anonymous": false,
      "inputs": [
        {
          "indexed": false,
          "internalType": "address",
          "name": "bountyAddress",
          "type": "address"
        },
        {
          "indexed": false,
          "internalType": "address",
          "name": "payoutTokenAddress",
          "type": "address"
        },
        {
          "indexed": false,
          "internalType": "uint256[]",
          "name": "payoutSchedule",
          "type": "uint256[]"
        },
        {
          "indexed": false,
          "internalType": "uint256",
          "name": "bountyType",
          "type": "uint256"
        },
        {
          "indexed": false,
          "internalType": "bytes",
          "name": "data",
          "type": "bytes"
        },
        {
          "indexed": false,
          "internalType": "uint256",
          "name": "version",
          "type": "uint256"
        }
      ],
      "name": "PayoutScheduleSet",
      "type": "event"
    },
    {
      "anonymous": false,
      "inputs": [
        {
          "indexed": false,
          "internalType": "address",
          "name": "bountyAddress",
          "type": "address"
        },
        {
          "indexed": false,
          "internalType": "address",
          "name": "payoutTokenAddress",
          "type": "address"
        },
        {
          "indexed": false,
          "internalType": "uint256",
          "name": "payoutTokenVolume",
          "type": "uint256"
        },
        {
          "indexed": false,
          "internalType": "uint256",
          "name": "bountyType",
          "type": "uint256"
        },
        {
          "indexed": false,
          "internalType": "bytes",
          "name": "data",
          "type": "bytes"
        },
        {
          "indexed": false,
          "internalType": "uint256",
          "name": "version",
          "type": "uint256"
        }
      ],
      "name": "PayoutSet",
      "type": "event"
    },
    {
      "anonymous": false,
      "inputs": [
        {
          "indexed": false,
          "internalType": "address",
          "name": "bountyAddress",
          "type": "address"
        },
        {
          "indexed": false,
          "internalType": "bool",
          "name": "supportDocumentsCompleted",
          "type": "bool"
        },
        {
          "indexed": false,
          "internalType": "bytes",
          "name": "data",
          "type": "bytes"
        },
        {
          "indexed": false,
          "internalType": "uint256",
          "name": "version",
          "type": "uint256"
        }
      ],
      "name": "SupportDocumentsCompletedSet",
      "type": "event"
    },
    {
      "anonymous": false,
      "inputs": [
        {
          "indexed": false,
          "internalType": "address",
          "name": "bountyAddress",
          "type": "address"
        },
        {
          "indexed": false,
          "internalType": "bool",
          "name": "supportingDocuments",
          "type": "bool"
        },
        {
          "indexed": false,
          "internalType": "bytes",
          "name": "data",
          "type": "bytes"
        },
        {
          "indexed": false,
          "internalType": "uint256",
          "name": "version",
          "type": "uint256"
        }
      ],
      "name": "SupportingDocumentsSet",
      "type": "event"
    },
    {
      "anonymous": false,
      "inputs": [
        {
          "indexed": false,
          "internalType": "address",
          "name": "bountyAddress",
          "type": "address"
        },
        {
          "indexed": false,
          "internalType": "address",
          "name": "claimant",
          "type": "address"
        },
        {
          "indexed": false,
          "internalType": "bytes",
          "name": "data",
          "type": "bytes"
        },
        {
          "indexed": false,
          "internalType": "uint256",
          "name": "version",
          "type": "uint256"
        }
      ],
      "name": "TierClaimed",
      "type": "event"
    },
    {
      "anonymous": false,
      "inputs": [
        {
          "indexed": false,
          "internalType": "address",
          "name": "bountyAddress",
          "type": "address"
        },
        {
          "indexed": false,
          "internalType": "string",
          "name": "winner",
          "type": "string"
        },
        {
          "indexed": false,
          "internalType": "uint256",
          "name": "tier",
          "type": "uint256"
        },
        {
          "indexed": false,
          "internalType": "bytes",
          "name": "data",
          "type": "bytes"
        },
        {
          "indexed": false,
          "internalType": "uint256",
          "name": "version",
          "type": "uint256"
        }
      ],
      "name": "TierWinnerSelected",
      "type": "event"
    },
    {
      "anonymous": false,
      "inputs": [
        {
          "indexed": false,
          "internalType": "string",
          "name": "bountyId",
          "type": "string"
        },
        {
          "indexed": false,
          "internalType": "address",
          "name": "bountyAddress",
          "type": "address"
        },
        {
          "indexed": false,
          "internalType": "string",
          "name": "organization",
          "type": "string"
        },
        {
          "indexed": false,
          "internalType": "address",
          "name": "closer",
          "type": "address"
        },
        {
          "indexed": false,
          "internalType": "uint256",
          "name": "payoutTime",
          "type": "uint256"
        },
        {
          "indexed": false,
          "internalType": "address",
          "name": "tokenAddress",
          "type": "address"
        },
        {
          "indexed": false,
          "internalType": "uint256",
          "name": "volume",
          "type": "uint256"
        },
        {
          "indexed": false,
          "internalType": "uint256",
          "name": "bountyType",
          "type": "uint256"
        },
        {
          "indexed": false,
          "internalType": "bytes",
          "name": "data",
          "type": "bytes"
        },
        {
          "indexed": false,
          "internalType": "uint256",
          "name": "version",
          "type": "uint256"
        }
      ],
      "name": "TokenBalanceClaimed",
      "type": "event"
    },
    {
      "anonymous": false,
      "inputs": [
        {
          "indexed": false,
          "internalType": "bytes32",
          "name": "depositId",
          "type": "bytes32"
        },
        {
          "indexed": false,
          "internalType": "address",
          "name": "bountyAddress",
          "type": "address"
        },
        {
          "indexed": false,
          "internalType": "string",
          "name": "bountyId",
          "type": "string"
        },
        {
          "indexed": false,
          "internalType": "string",
          "name": "organization",
          "type": "string"
        },
        {
          "indexed": false,
          "internalType": "address",
          "name": "tokenAddress",
          "type": "address"
        },
        {
          "indexed": false,
          "internalType": "uint256",
          "name": "receiveTime",
          "type": "uint256"
        },
        {
          "indexed": false,
          "internalType": "address",
          "name": "sender",
          "type": "address"
        },
        {
          "indexed": false,
          "internalType": "uint256",
          "name": "expiration",
          "type": "uint256"
        },
        {
          "indexed": false,
          "internalType": "uint256",
          "name": "volume",
          "type": "uint256"
        },
        {
          "indexed": false,
          "internalType": "uint256",
          "name": "bountyType",
          "type": "uint256"
        },
        {
          "indexed": false,
          "internalType": "bytes",
          "name": "data",
          "type": "bytes"
        },
        {
          "indexed": false,
          "internalType": "uint256",
          "name": "version",
          "type": "uint256"
        }
      ],
      "name": "TokenDepositReceived",
      "type": "event"
    },
    {
      "anonymous": false,
      "inputs": [
        {
          "indexed": true,
          "internalType": "address",
          "name": "implementation",
          "type": "address"
        }
      ],
      "name": "Upgraded",
      "type": "event"
    },
    {
      "inputs": [],
      "name": "VERSION_1",
      "outputs": [
        {
          "internalType": "uint256",
          "name": "",
          "type": "uint256"
        }
      ],
      "stateMutability": "view",
      "type": "function"
    },
    {
      "inputs": [],
      "name": "VERSION_2",
      "outputs": [
        {
          "internalType": "uint256",
          "name": "",
          "type": "uint256"
        }
      ],
      "stateMutability": "view",
      "type": "function"
    },
    {
      "inputs": [
        {
          "internalType": "address",
          "name": "_bountyAddress",
          "type": "address"
        }
      ],
      "name": "bountyIsOpen",
      "outputs": [
        {
          "internalType": "bool",
          "name": "",
          "type": "bool"
        }
      ],
      "stateMutability": "view",
      "type": "function"
    },
    {
      "inputs": [
        {
          "internalType": "address",
          "name": "_bountyAddress",
          "type": "address"
        },
        {
          "internalType": "bytes32",
          "name": "_depositId",
          "type": "bytes32"
        },
        {
          "internalType": "uint256",
          "name": "_seconds",
          "type": "uint256"
        }
      ],
      "name": "extendDeposit",
      "outputs": [],
      "stateMutability": "nonpayable",
      "type": "function"
    },
    {
      "inputs": [
        {
          "internalType": "address",
          "name": "_bountyAddress",
          "type": "address"
        },
        {
          "internalType": "address",
          "name": "_tokenAddress",
          "type": "address"
        },
        {
          "internalType": "uint256",
          "name": "_tokenId",
          "type": "uint256"
        },
        {
          "internalType": "uint256",
          "name": "_expiration",
          "type": "uint256"
        },
        {
          "internalType": "uint256",
          "name": "_tier",
          "type": "uint256"
        }
      ],
      "name": "fundBountyNFT",
      "outputs": [],
      "stateMutability": "nonpayable",
      "type": "function"
    },
    {
      "inputs": [
        {
          "internalType": "address",
          "name": "_bountyAddress",
          "type": "address"
        },
        {
          "internalType": "address",
          "name": "_tokenAddress",
          "type": "address"
        },
        {
          "internalType": "uint256",
          "name": "_volume",
          "type": "uint256"
        },
        {
          "internalType": "uint256",
          "name": "_expiration",
          "type": "uint256"
        },
        {
          "internalType": "string",
          "name": "funderUuid",
          "type": "string"
        }
      ],
      "name": "fundBountyToken",
      "outputs": [],
      "stateMutability": "payable",
      "type": "function"
    },
    {
      "inputs": [],
      "name": "initialize",
      "outputs": [],
      "stateMutability": "nonpayable",
      "type": "function"
    },
    {
      "inputs": [
        {
          "internalType": "address",
          "name": "_tokenAddress",
          "type": "address"
        }
      ],
      "name": "isWhitelisted",
      "outputs": [
        {
          "internalType": "bool",
          "name": "",
          "type": "bool"
        }
      ],
      "stateMutability": "view",
      "type": "function"
    },
    {
      "inputs": [],
      "name": "openQTokenWhitelist",
      "outputs": [
        {
          "internalType": "contract OpenQTokenWhitelist",
          "name": "",
          "type": "address"
        }
      ],
      "stateMutability": "view",
      "type": "function"
    },
    {
      "inputs": [],
      "name": "owner",
      "outputs": [
        {
          "internalType": "address",
          "name": "",
          "type": "address"
        }
      ],
      "stateMutability": "view",
      "type": "function"
    },
    {
      "inputs": [],
      "name": "proxiableUUID",
      "outputs": [
        {
          "internalType": "bytes32",
          "name": "",
          "type": "bytes32"
        }
      ],
      "stateMutability": "view",
      "type": "function"
    },
    {
      "inputs": [
        {
          "internalType": "address",
          "name": "_bountyAddress",
          "type": "address"
        },
        {
          "internalType": "bytes32",
          "name": "_depositId",
          "type": "bytes32"
        }
      ],
      "name": "refundDeposit",
      "outputs": [],
      "stateMutability": "nonpayable",
      "type": "function"
    },
    {
      "inputs": [],
      "name": "renounceOwnership",
      "outputs": [],
      "stateMutability": "nonpayable",
      "type": "function"
    },
    {
      "inputs": [
        {
          "internalType": "address",
          "name": "_openQTokenWhitelist",
          "type": "address"
        }
      ],
      "name": "setTokenWhitelist",
      "outputs": [],
      "stateMutability": "nonpayable",
      "type": "function"
    },
    {
      "inputs": [
        {
          "internalType": "address",
          "name": "_bountyAddress",
          "type": "address"
        }
      ],
      "name": "tokenAddressLimitReached",
      "outputs": [
        {
          "internalType": "bool",
          "name": "",
          "type": "bool"
        }
      ],
      "stateMutability": "view",
      "type": "function"
    },
    {
      "inputs": [
        {
          "internalType": "address",
          "name": "newOwner",
          "type": "address"
        }
      ],
      "name": "transferOwnership",
      "outputs": [],
      "stateMutability": "nonpayable",
      "type": "function"
    },
    {
      "inputs": [
        {
          "internalType": "address",
          "name": "newImplementation",
          "type": "address"
        }
      ],
      "name": "upgradeTo",
      "outputs": [],
      "stateMutability": "nonpayable",
      "type": "function"
    },
    {
      "inputs": [
        {
          "internalType": "address",
          "name": "newImplementation",
          "type": "address"
        },
        {
          "internalType": "bytes",
          "name": "data",
          "type": "bytes"
        }
      ],
      "name": "upgradeToAndCall",
      "outputs": [],
      "stateMutability": "payable",
      "type": "function"
    }
  ],
  "bytecode": "0x60a06040523060805234801561001457600080fd5b506080516124af610092600039600081816103f10152818161043a0152818161062b0152818161066b0152818161076b015281816107ab0152818161082c0152818161086c015281816108f10152818161099c015281816109dc01528181610e5001528181610e900152818161159301526115d301526124af6000f3fe6080604052600436106100e95760003560e01c8063715018a611610085578063715018a6146102105780638129fc1c146102255780638ca4d5841461023a5780638da5cb5b1461024f578063975b961514610276578063d0dec35914610296578063f2fde38b146102b6578063f75161c6146102d6578063ff9d28b0146102f657600080fd5b806326c20e5f146100ee5780632fa0ac291461011657806332fe1fec146101465780633659cfe6146101685780633af32abf146101885780634f1ef286146101a8578063527b22db146101bb57806352d1902d146101db5780636da585e2146101f0575b600080fd5b3480156100fa57600080fd5b50610103600181565b6040519081526020015b60405180910390f35b34801561012257600080fd5b50610136610131366004611dd2565b610309565b604051901515815260200161010d565b34801561015257600080fd5b50610166610161366004611def565b6103e7565b005b34801561017457600080fd5b50610166610183366004611dd2565b610621565b34801561019457600080fd5b506101366101a3366004611dd2565b6106e9565b6101666101b6366004611ed1565b610761565b3480156101c757600080fd5b506101666101d6366004611dd2565b61081a565b3480156101e757600080fd5b506101036108e4565b3480156101fc57600080fd5b5061016661020b366004611f35565b610992565b34801561021c57600080fd5b50610166610ca0565b34801561023157600080fd5b50610166610cb4565b34801561024657600080fd5b50610103600281565b34801561025b57600080fd5b506033546001600160a01b03165b60405161010d9190611f86565b34801561028257600080fd5b50610136610291366004611dd2565b610dcc565b3480156102a257600080fd5b506101666102b1366004611f9a565b610e46565b3480156102c257600080fd5b506101666102d1366004611dd2565b611513565b3480156102e257600080fd5b5060c954610269906001600160a01b031681565b610166610304366004611fc6565b611589565b60c95460408051630c024c1b60e31b8152905160009284926001600160a01b039091169163601260d8916004808201926020929091908290030181865afa158015610358573d6000803e3d6000fd5b505050506040513d601f19601f8201168201806040525081019061037c9190612050565b816001600160a01b031663c5b6e7056040518163ffffffff1660e01b8152600401602060405180830381865afa1580156103ba573d6000803e3d6000fd5b505050506040513d601f19601f820116820180604052508101906103de9190612050565b10159392505050565b6001600160a01b037f00000000000000000000000000000000000000000000000000000000000000001630036104385760405162461bcd60e51b815260040161042f90612069565b60405180910390fd5b7f00000000000000000000000000000000000000000000000000000000000000006001600160a01b031661046a6118bc565b6001600160a01b0316146104905760405162461bcd60e51b815260040161042f906120b5565b60405163166ea0d160e21b815260048101839052839033906001600160a01b038316906359ba834490602401602060405180830381865afa1580156104d9573d6000803e3d6000fd5b505050506040513d601f19601f820116820180604052508101906104fd9190612101565b6001600160a01b0316146040518060400160405280601181526020017021a0a62622a92fa727aa2fa32aa72222a960791b8152509061054f5760405162461bcd60e51b815260040161042f919061216e565b5060405163e83963eb60e01b815260048101849052602481018390523360448201526000906001600160a01b0383169063e83963eb906064016020604051808303816000875af11580156105a7573d6000803e3d6000fd5b505050506040513d601f19601f820116820180604052508101906105cb9190612050565b60408051600080825260208201928390529293507fff6b606253b167363e000664c8b931e839bf0ab135de9d6cfc5e26311a1ff6c492610612928892869291600290612181565b60405180910390a15050505050565b6001600160a01b037f00000000000000000000000000000000000000000000000000000000000000001630036106695760405162461bcd60e51b815260040161042f90612069565b7f00000000000000000000000000000000000000000000000000000000000000006001600160a01b031661069b6118bc565b6001600160a01b0316146106c15760405162461bcd60e51b815260040161042f906120b5565b6106ca816118d8565b604080516000808252602082019092526106e6918391906118e0565b50565b60c954604051633af32abf60e01b81526000916001600160a01b031690633af32abf9061071a908590600401611f86565b602060405180830381865afa158015610737573d6000803e3d6000fd5b505050506040513d601f19601f8201168201806040525081019061075b91906121b8565b92915050565b6001600160a01b037f00000000000000000000000000000000000000000000000000000000000000001630036107a95760405162461bcd60e51b815260040161042f90612069565b7f00000000000000000000000000000000000000000000000000000000000000006001600160a01b03166107db6118bc565b6001600160a01b0316146108015760405162461bcd60e51b815260040161042f906120b5565b61080a826118d8565b610816828260016118e0565b5050565b610822611a50565b6001600160a01b037f000000000000000000000000000000000000000000000000000000000000000016300361086a5760405162461bcd60e51b815260040161042f90612069565b7f00000000000000000000000000000000000000000000000000000000000000006001600160a01b031661089c6118bc565b6001600160a01b0316146108c25760405162461bcd60e51b815260040161042f906120b5565b60c980546001600160a01b0319166001600160a01b0392909216919091179055565b6000306001600160a01b037f0000000000000000000000000000000000000000000000000000000000000000161461097f5760405162461bcd60e51b815260206004820152603860248201527f555550535570677261646561626c653a206d757374206e6f742062652063616c6044820152771b1959081d1a1c9bdd59da0819195b1959d85d1958d85b1b60421b606482015260840161042f565b5060008051602061243383398151915290565b6001600160a01b037f00000000000000000000000000000000000000000000000000000000000000001630036109da5760405162461bcd60e51b815260040161042f90612069565b7f00000000000000000000000000000000000000000000000000000000000000006001600160a01b0316610a0c6118bc565b6001600160a01b031614610a325760405162461bcd60e51b815260040161042f906120b5565b84610a3c856106e9565b604051806040016040528060128152602001711513d2d15397d393d517d050d0d15415115160721b81525090610a855760405162461bcd60e51b815260040161042f919061216e565b50610a8f86610dcc565b6040518060400160405280601781526020017610d3d395149050d517d053149150511657d0d313d4d151604a1b81525090610add5760405162461bcd60e51b815260040161042f919061216e565b506040516324f0cae560e01b81523360048201526001600160a01b038681166024830152604482018690526064820185905260848201849052600091908316906324f0cae59060a4016020604051808303816000875af1158015610b45573d6000803e3d6000fd5b505050506040513d601f19601f82011682018060405250810190610b699190612050565b90507f113d7b68690d10a1b57a4033f31ccbe3071a8b22eb4156a27533b32fe2cfb1e48188846001600160a01b031663c17bd75e6040518163ffffffff1660e01b8152600401600060405180830381865afa158015610bcc573d6000803e3d6000fd5b505050506040513d6000823e601f3d908101601f19168201604052610bf491908101906121da565b856001600160a01b03166323bd4d7a6040518163ffffffff1660e01b8152600401600060405180830381865afa158015610c32573d6000803e3d6000fd5b505050506040513d6000823e601f3d908101601f19168201604052610c5a91908101906121da565b604080516000808252602082019092528c91429133918d918f91906002604051610c8f9c9b9a99989796959493929190612248565b60405180910390a150505050505050565b610ca8611a50565b610cb26000611aaa565b565b600054610100900460ff1615808015610cd45750600054600160ff909116105b80610cee5750303b158015610cee575060005460ff166001145b610d515760405162461bcd60e51b815260206004820152602e60248201527f496e697469616c697a61626c653a20636f6e747261637420697320616c72656160448201526d191e481a5b9a5d1a585b1a5e995960921b606482015260840161042f565b6000805460ff191660011790558015610d74576000805461ff0019166101001790555b610d7c611afc565b610d84611b2b565b80156106e6576000805461ff0019169055604051600181527f7f26b83ff96e1f2b6a682f133852f6798a09c465da95921460cefb38474024989060200160405180910390a150565b60008082905060008063ffffffff16826001600160a01b031663200d2ed26040518163ffffffff1660e01b8152600401602060405180830381865afa158015610e19573d6000803e3d6000fd5b505050506040513d601f19601f82011682018060405250810190610e3d9190612050565b14949350505050565b6001600160a01b037f0000000000000000000000000000000000000000000000000000000000000000163003610e8e5760405162461bcd60e51b815260040161042f90612069565b7f00000000000000000000000000000000000000000000000000000000000000006001600160a01b0316610ec06118bc565b6001600160a01b031614610ee65760405162461bcd60e51b815260040161042f906120b5565b60405163166ea0d160e21b815260048101829052829033906001600160a01b038316906359ba834490602401602060405180830381865afa158015610f2f573d6000803e3d6000fd5b505050506040513d601f19601f82011682018060405250810190610f539190612101565b6001600160a01b0316146040518060400160405280601181526020017021a0a62622a92fa727aa2fa32aa72222a960791b81525090610fa55760405162461bcd60e51b815260040161042f919061216e565b506040516356406fa560e01b8152600481018390526001600160a01b038216906356406fa590602401602060405180830381865afa158015610feb573d6000803e3d6000fd5b505050506040513d601f19601f8201168201806040525081019061100f9190612050565b60405163968b098f60e01b8152600481018490526001600160a01b0383169063968b098f90602401602060405180830381865afa158015611054573d6000803e3d6000fd5b505050506040513d601f19601f820116820180604052508101906110789190612050565b61108291906122f9565b4210156040518060400160405280601881526020017714149153505515549157d4915195539117d49154555154d560421b815250906110d45760405162461bcd60e51b815260040161042f919061216e565b506040516397bb3ce960e01b8152600481018390526000906001600160a01b038316906397bb3ce990602401602060405180830381865afa15801561111d573d6000803e3d6000fd5b505050506040513d601f19601f820116820180604052508101906111419190612101565b604051636df367b560e11b81526001600160a01b038681166004830152808316602483015291925060009184169063dbe6cf6a90604401602060405180830381865afa158015611195573d6000803e3d6000fd5b505050506040513d601f19601f820116820180604052508101906111b99190612050565b604051633aecd0e360e01b81526001600160a01b03851690633aecd0e3906111e5908690600401611f86565b602060405180830381865afa158015611202573d6000803e3d6000fd5b505050506040513d601f19601f820116820180604052508101906112269190612050565b611230919061230c565b9050600081846001600160a01b0316631595eea4876040518263ffffffff1660e01b815260040161126391815260200190565b602060405180830381865afa158015611280573d6000803e3d6000fd5b505050506040513d601f19601f820116820180604052508101906112a49190612050565b11611319576040516305657ba960e21b8152600481018690526001600160a01b03851690631595eea490602401602060405180830381865afa1580156112ee573d6000803e3d6000fd5b505050506040513d601f19601f820116820180604052508101906113129190612050565b905061131c565b50805b60405163eb58c0fd60e01b815260048101869052336024820152604481018290526001600160a01b0385169063eb58c0fd90606401600060405180830381600087803b15801561136b57600080fd5b505af115801561137f573d6000803e3d6000fd5b505050507f69564edf78e6beb23606d24a3d00a7d77315e974782eca07c9a0139393ef797f85856001600160a01b031663c17bd75e6040518163ffffffff1660e01b8152600401600060405180830381865afa1580156113e3573d6000803e3d6000fd5b505050506040513d6000823e601f3d908101601f1916820160405261140b91908101906121da565b88876001600160a01b03166323bd4d7a6040518163ffffffff1660e01b8152600401600060405180830381865afa15801561144a573d6000803e3d6000fd5b505050506040513d6000823e601f3d908101601f1916820160405261147291908101906121da565b6040516397bb3ce960e01b8152600481018b905242906001600160a01b038b16906397bb3ce990602401602060405180830381865afa1580156114b9573d6000803e3d6000fd5b505050506040513d601f19601f820116820180604052508101906114dd9190612101565b6040805160008082526020820192839052611503989796959493928b929060029061231f565b60405180910390a1505050505050565b61151b611a50565b6001600160a01b0381166115805760405162461bcd60e51b815260206004820152602660248201527f4f776e61626c653a206e6577206f776e657220697320746865207a65726f206160448201526564647265737360d01b606482015260840161042f565b6106e681611aaa565b6001600160a01b037f00000000000000000000000000000000000000000000000000000000000000001630036115d15760405162461bcd60e51b815260040161042f90612069565b7f00000000000000000000000000000000000000000000000000000000000000006001600160a01b03166116036118bc565b6001600160a01b0316146116295760405162461bcd60e51b815260040161042f906120b5565b84611633856106e9565b6116925761164086610309565b1560405180604001604052806018815260200177544f4f5f4d414e595f544f4b454e5f41444452455353455360401b815250906116905760405162461bcd60e51b815260040161042f919061216e565b505b61169b86610dcc565b6040518060400160405280601781526020017610d3d395149050d517d053149150511657d0d313d4d151604a1b815250906116e95760405162461bcd60e51b815260040161042f919061216e565b506040516335bf83d160e21b81523360048201526001600160a01b0386811660248301526044820186905260648201859052600091829184169063d6fe0f44903490608401604080518083038185885af115801561174b573d6000803e3d6000fd5b50505050506040513d601f19601f8201168201806040525081019061177091906123a7565b91509150600084604051602001611787919061216e565b60405160208183030381529060405290507f5b079a43aec0177fbeb930213940b8d476a8c4e0b37343e2059b6d61400d9762838a866001600160a01b031663c17bd75e6040518163ffffffff1660e01b8152600401600060405180830381865afa1580156117f9573d6000803e3d6000fd5b505050506040513d6000823e601f3d908101601f1916820160405261182191908101906121da565b876001600160a01b03166323bd4d7a6040518163ffffffff1660e01b8152600401600060405180830381865afa15801561185f573d6000803e3d6000fd5b505050506040513d6000823e601f3d908101601f1916820160405261188791908101906121da565b8c42338d8a60008b60026040516118a99c9b9a99989796959493929190612248565b60405180910390a1505050505050505050565b600080516020612433833981519152546001600160a01b031690565b6106e6611a50565b7f4910fdfa16fed3260ed0e7147f7cc6da11a60208b5b9406d12a635614ffd91435460ff16156119185761191383611b52565b505050565b826001600160a01b03166352d1902d6040518163ffffffff1660e01b8152600401602060405180830381865afa925050508015611972575060408051601f3d908101601f1916820190925261196f91810190612050565b60015b6119d55760405162461bcd60e51b815260206004820152602e60248201527f45524331393637557067726164653a206e657720696d706c656d656e7461746960448201526d6f6e206973206e6f74205555505360901b606482015260840161042f565b6000805160206124338339815191528114611a445760405162461bcd60e51b815260206004820152602960248201527f45524331393637557067726164653a20756e737570706f727465642070726f786044820152681a58589b195555525160ba1b606482015260840161042f565b50611913838383611bee565b6033546001600160a01b03163314610cb25760405162461bcd60e51b815260206004820181905260248201527f4f776e61626c653a2063616c6c6572206973206e6f7420746865206f776e6572604482015260640161042f565b603380546001600160a01b038381166001600160a01b0319831681179093556040519116919082907f8be0079c531659141344cd1fd0a4f28419497f9722a3daafe3b4186f6b6457e090600090a35050565b600054610100900460ff16611b235760405162461bcd60e51b815260040161042f906123cb565b610cb2611c19565b600054610100900460ff16610cb25760405162461bcd60e51b815260040161042f906123cb565b6001600160a01b0381163b611bbf5760405162461bcd60e51b815260206004820152602d60248201527f455243313936373a206e657720696d706c656d656e746174696f6e206973206e60448201526c1bdd08184818dbdb9d1c9858dd609a1b606482015260840161042f565b60008051602061243383398151915280546001600160a01b0319166001600160a01b0392909216919091179055565b611bf783611c49565b600082511180611c045750805b1561191357611c138383611c89565b50505050565b600054610100900460ff16611c405760405162461bcd60e51b815260040161042f906123cb565b610cb233611aaa565b611c5281611b52565b6040516001600160a01b038216907fbc7cd75a20ee27fd9adebab32041f755214dbc6bffa90cc0225b39da2e5c2d3b90600090a250565b60606001600160a01b0383163b611cf15760405162461bcd60e51b815260206004820152602660248201527f416464726573733a2064656c65676174652063616c6c20746f206e6f6e2d636f6044820152651b9d1c9858dd60d21b606482015260840161042f565b600080846001600160a01b031684604051611d0c9190612416565b600060405180830381855af49150503d8060008114611d47576040519150601f19603f3d011682016040523d82523d6000602084013e611d4c565b606091505b5091509150611d74828260405180606001604052806027815260200161245360279139611d7d565b95945050505050565b60608315611d8c575081611db6565b825115611d9c5782518084602001fd5b8160405162461bcd60e51b815260040161042f919061216e565b9392505050565b6001600160a01b03811681146106e657600080fd5b600060208284031215611de457600080fd5b8135611db681611dbd565b600080600060608486031215611e0457600080fd5b8335611e0f81611dbd565b95602085013595506040909401359392505050565b634e487b7160e01b600052604160045260246000fd5b604051601f8201601f1916810167ffffffffffffffff81118282101715611e6357611e63611e24565b604052919050565b600067ffffffffffffffff821115611e8557611e85611e24565b50601f01601f191660200190565b6000611ea6611ea184611e6b565b611e3a565b9050828152838383011115611eba57600080fd5b828260208301376000602084830101529392505050565b60008060408385031215611ee457600080fd5b8235611eef81611dbd565b9150602083013567ffffffffffffffff811115611f0b57600080fd5b8301601f81018513611f1c57600080fd5b611f2b85823560208401611e93565b9150509250929050565b600080600080600060a08688031215611f4d57600080fd5b8535611f5881611dbd565b94506020860135611f6881611dbd565b94979496505050506040830135926060810135926080909101359150565b6001600160a01b0391909116815260200190565b60008060408385031215611fad57600080fd5b8235611fb881611dbd565b946020939093013593505050565b600080600080600060a08688031215611fde57600080fd5b8535611fe981611dbd565b94506020860135611ff981611dbd565b93506040860135925060608601359150608086013567ffffffffffffffff81111561202357600080fd5b8601601f8101881361203457600080fd5b61204388823560208401611e93565b9150509295509295909350565b60006020828403121561206257600080fd5b5051919050565b6020808252602c908201527f46756e6374696f6e206d7573742062652063616c6c6564207468726f7567682060408201526b19195b1959d85d1958d85b1b60a21b606082015260800190565b6020808252602c908201527f46756e6374696f6e206d7573742062652063616c6c6564207468726f7567682060408201526b6163746976652070726f787960a01b606082015260800190565b60006020828403121561211357600080fd5b8151611db681611dbd565b60005b83811015612139578181015183820152602001612121565b50506000910152565b6000815180845261215a81602086016020860161211e565b601f01601f19169290920160200192915050565b602081526000611db66020830184612142565b85815284602082015283604082015260a0606082015260006121a660a0830185612142565b90508260808301529695505050505050565b6000602082840312156121ca57600080fd5b81518015158114611db657600080fd5b6000602082840312156121ec57600080fd5b815167ffffffffffffffff81111561220357600080fd5b8201601f8101841361221457600080fd5b8051612222611ea182611e6b565b81815285602083850101111561223757600080fd5b611d7482602083016020860161211e565b8c81526001600160a01b038c81166020830152610180604083018190526000916122748483018f612142565b91508382036060850152612288828e612142565b9150808c1660808501528a60a0850152808a1660c0850152508760e084015286610100840152856101208401528281036101408401526122c88186612142565b915050826101608301529d9c50505050505050505050505050565b634e487b7160e01b600052601160045260246000fd5b8082018082111561075b5761075b6122e3565b8181038181111561075b5761075b6122e3565b60006101408c83528060208401526123398184018d612142565b6001600160a01b038c81166040860152848203606086015290915061235e828c612142565b915089608085015280891660a0850152508660c08401528560e084015282810361010084015261238e8186612142565b915050826101208301529b9a5050505050505050505050565b600080604083850312156123ba57600080fd5b505080516020909101519092909150565b6020808252602b908201527f496e697469616c697a61626c653a20636f6e7472616374206973206e6f74206960408201526a6e697469616c697a696e6760a81b606082015260800190565b6000825161242881846020870161211e565b919091019291505056fe360894a13ba1a3210667c828492db98dca3e2076cc3735a920a3ca505d382bbc416464726573733a206c6f772d6c6576656c2064656c65676174652063616c6c206661696c6564a26469706673582212209f246c094ace3422a47536bc6686f1ee1081e597f150dbcecb7e436127e96aac64736f6c63430008100033",
  "linkReferences": {},
  "deployedLinkReferences": {}
}