{
  "_format": "hh-sol-artifact-1",
  "contractName": "DepositManagerV2",
  "sourceName": "contracts/DepositManager/DepositManagerV2.sol",
  "abi": [
    {
      "inputs": [],
      "stateMutability": "nonpayable",
      "type": "constructor"
    },
    {
      "anonymous": false,
      "inputs": [
        {
          "indexed": false,
          "internalType": "address",
          "name": "previousAdmin",
          "type": "address"
        },
        {
          "indexed": false,
          "internalType": "address",
          "name": "newAdmin",
          "type": "address"
        }
      ],
      "name": "AdminChanged",
      "type": "event"
    },
    {
      "anonymous": false,
      "inputs": [
        {
          "indexed": true,
          "internalType": "address",
          "name": "beacon",
          "type": "address"
        }
      ],
      "name": "BeaconUpgraded",
      "type": "event"
    },
    {
      "anonymous": false,
      "inputs": [
        {
          "indexed": false,
          "internalType": "string",
          "name": "bountyId",
          "type": "string"
        },
        {
          "indexed": false,
          "internalType": "address",
          "name": "bountyAddress",
          "type": "address"
        },
        {
          "indexed": false,
          "internalType": "string",
          "name": "organization",
          "type": "string"
        },
        {
          "indexed": false,
          "internalType": "address",
          "name": "closer",
          "type": "address"
        },
        {
          "indexed": false,
          "internalType": "uint256",
          "name": "bountyClosedTime",
          "type": "uint256"
        },
        {
          "indexed": false,
          "internalType": "uint256",
          "name": "bountyType",
          "type": "uint256"
        },
        {
          "indexed": false,
          "internalType": "bytes",
          "name": "data",
          "type": "bytes"
        },
        {
          "indexed": false,
          "internalType": "uint256",
          "name": "version",
          "type": "uint256"
        }
      ],
      "name": "BountyClosed",
      "type": "event"
    },
    {
      "anonymous": false,
      "inputs": [
        {
          "indexed": false,
          "internalType": "string",
          "name": "bountyId",
          "type": "string"
        },
        {
          "indexed": false,
          "internalType": "string",
          "name": "organization",
          "type": "string"
        },
        {
          "indexed": false,
          "internalType": "address",
          "name": "issuerAddress",
          "type": "address"
        },
        {
          "indexed": false,
          "internalType": "address",
          "name": "bountyAddress",
          "type": "address"
        },
        {
          "indexed": false,
          "internalType": "uint256",
          "name": "bountyMintTime",
          "type": "uint256"
        },
        {
          "indexed": false,
          "internalType": "uint256",
          "name": "bountyType",
          "type": "uint256"
        },
        {
          "indexed": false,
          "internalType": "bytes",
          "name": "data",
          "type": "bytes"
        },
        {
          "indexed": false,
          "internalType": "uint256",
          "name": "version",
          "type": "uint256"
        }
      ],
      "name": "BountyCreated",
      "type": "event"
    },
    {
      "anonymous": false,
      "inputs": [
        {
          "indexed": false,
          "internalType": "uint256",
          "name": "claimTime",
          "type": "uint256"
        },
        {
          "indexed": false,
          "internalType": "uint256",
          "name": "bountyType",
          "type": "uint256"
        },
        {
          "indexed": false,
          "internalType": "bytes",
          "name": "data",
          "type": "bytes"
        },
        {
          "indexed": false,
          "internalType": "uint256",
          "name": "version",
          "type": "uint256"
        }
      ],
      "name": "ClaimSuccess",
      "type": "event"
    },
    {
      "anonymous": false,
      "inputs": [
        {
          "indexed": false,
          "internalType": "bytes32",
          "name": "depositId",
          "type": "bytes32"
        },
        {
          "indexed": false,
          "internalType": "uint256",
          "name": "newExpiration",
          "type": "uint256"
        },
        {
          "indexed": false,
          "internalType": "uint256",
          "name": "bountyType",
          "type": "uint256"
        },
        {
          "indexed": false,
          "internalType": "bytes",
          "name": "data",
          "type": "bytes"
        },
        {
          "indexed": false,
          "internalType": "uint256",
          "name": "version",
          "type": "uint256"
        }
      ],
      "name": "DepositExtended",
      "type": "event"
    },
    {
      "anonymous": false,
      "inputs": [
        {
          "indexed": false,
          "internalType": "bytes32",
          "name": "depositId",
          "type": "bytes32"
        },
        {
          "indexed": false,
          "internalType": "string",
          "name": "bountyId",
          "type": "string"
        },
        {
          "indexed": false,
          "internalType": "address",
          "name": "bountyAddress",
          "type": "address"
        },
        {
          "indexed": false,
          "internalType": "string",
          "name": "organization",
          "type": "string"
        },
        {
          "indexed": false,
          "internalType": "uint256",
          "name": "refundTime",
          "type": "uint256"
        },
        {
          "indexed": false,
          "internalType": "address",
          "name": "tokenAddress",
          "type": "address"
        },
        {
          "indexed": false,
          "internalType": "uint256",
          "name": "volume",
          "type": "uint256"
        },
        {
          "indexed": false,
          "internalType": "uint256",
          "name": "bountyType",
          "type": "uint256"
        },
        {
          "indexed": false,
          "internalType": "bytes",
          "name": "data",
          "type": "bytes"
        },
        {
          "indexed": false,
          "internalType": "uint256",
          "name": "version",
          "type": "uint256"
        }
      ],
      "name": "DepositRefunded",
      "type": "event"
    },
    {
      "anonymous": false,
      "inputs": [
        {
          "indexed": false,
          "internalType": "string",
          "name": "externalUserId",
          "type": "string"
        },
        {
          "indexed": false,
          "internalType": "address",
          "name": "newAddress",
          "type": "address"
        },
        {
          "indexed": false,
          "internalType": "bytes",
          "name": "data",
          "type": "bytes"
        },
        {
          "indexed": false,
          "internalType": "uint256",
          "name": "version",
          "type": "uint256"
        }
      ],
      "name": "ExternalUserIdAssociatedWithAddress",
      "type": "event"
    },
    {
      "anonymous": false,
      "inputs": [
        {
          "indexed": false,
          "internalType": "address",
          "name": "bountyAddress",
          "type": "address"
        },
        {
          "indexed": false,
          "internalType": "address",
          "name": "fundingGoalTokenAddress",
          "type": "address"
        },
        {
          "indexed": false,
          "internalType": "uint256",
          "name": "fundingGoalVolume",
          "type": "uint256"
        },
        {
          "indexed": false,
          "internalType": "uint256",
          "name": "bountyType",
          "type": "uint256"
        },
        {
          "indexed": false,
          "internalType": "bytes",
          "name": "data",
          "type": "bytes"
        },
        {
          "indexed": false,
          "internalType": "uint256",
          "name": "version",
          "type": "uint256"
        }
      ],
      "name": "FundingGoalSet",
      "type": "event"
    },
    {
      "anonymous": false,
      "inputs": [
        {
          "indexed": false,
          "internalType": "uint8",
          "name": "version",
          "type": "uint8"
        }
      ],
      "name": "Initialized",
      "type": "event"
    },
    {
      "anonymous": false,
      "inputs": [
        {
          "indexed": false,
          "internalType": "address",
          "name": "bountyAddress",
          "type": "address"
        },
        {
          "indexed": false,
          "internalType": "bool",
          "name": "invoiceable",
          "type": "bool"
        },
        {
          "indexed": false,
          "internalType": "bytes",
          "name": "data",
          "type": "bytes"
        },
        {
          "indexed": false,
          "internalType": "uint256",
          "name": "version",
          "type": "uint256"
        }
      ],
      "name": "InvoiceableSet",
      "type": "event"
    },
    {
      "anonymous": false,
      "inputs": [
        {
          "indexed": false,
          "internalType": "address",
          "name": "bountyAddress",
          "type": "address"
        },
        {
          "indexed": false,
          "internalType": "bool",
          "name": "kycRequired",
          "type": "bool"
        },
        {
          "indexed": false,
          "internalType": "bytes",
          "name": "data",
          "type": "bytes"
        },
        {
          "indexed": false,
          "internalType": "uint256",
          "name": "version",
          "type": "uint256"
        }
      ],
      "name": "KYCRequiredSet",
      "type": "event"
    },
    {
      "anonymous": false,
      "inputs": [
        {
          "indexed": false,
          "internalType": "string",
          "name": "bountyId",
          "type": "string"
        },
        {
          "indexed": false,
          "internalType": "address",
          "name": "bountyAddress",
          "type": "address"
        },
        {
          "indexed": false,
          "internalType": "string",
          "name": "organization",
          "type": "string"
        },
        {
          "indexed": false,
          "internalType": "address",
          "name": "closer",
          "type": "address"
        },
        {
          "indexed": false,
          "internalType": "uint256",
          "name": "payoutTime",
          "type": "uint256"
        },
        {
          "indexed": false,
          "internalType": "address",
          "name": "tokenAddress",
          "type": "address"
        },
        {
          "indexed": false,
          "internalType": "uint256",
          "name": "tokenId",
          "type": "uint256"
        },
        {
          "indexed": false,
          "internalType": "uint256",
          "name": "bountyType",
          "type": "uint256"
        },
        {
          "indexed": false,
          "internalType": "bytes",
          "name": "data",
          "type": "bytes"
        },
        {
          "indexed": false,
          "internalType": "uint256",
          "name": "version",
          "type": "uint256"
        }
      ],
      "name": "NFTClaimed",
      "type": "event"
    },
    {
      "anonymous": false,
      "inputs": [
        {
          "indexed": false,
          "internalType": "bytes32",
          "name": "depositId",
          "type": "bytes32"
        },
        {
          "indexed": false,
          "internalType": "address",
          "name": "bountyAddress",
          "type": "address"
        },
        {
          "indexed": false,
          "internalType": "string",
          "name": "bountyId",
          "type": "string"
        },
        {
          "indexed": false,
          "internalType": "string",
          "name": "organization",
          "type": "string"
        },
        {
          "indexed": false,
          "internalType": "address",
          "name": "tokenAddress",
          "type": "address"
        },
        {
          "indexed": false,
          "internalType": "uint256",
          "name": "receiveTime",
          "type": "uint256"
        },
        {
          "indexed": false,
          "internalType": "address",
          "name": "sender",
          "type": "address"
        },
        {
          "indexed": false,
          "internalType": "uint256",
          "name": "expiration",
          "type": "uint256"
        },
        {
          "indexed": false,
          "internalType": "uint256",
          "name": "tokenId",
          "type": "uint256"
        },
        {
          "indexed": false,
          "internalType": "uint256",
          "name": "bountyType",
          "type": "uint256"
        },
        {
          "indexed": false,
          "internalType": "bytes",
          "name": "data",
          "type": "bytes"
        },
        {
          "indexed": false,
          "internalType": "uint256",
          "name": "version",
          "type": "uint256"
        }
      ],
      "name": "NFTDepositReceived",
      "type": "event"
    },
    {
      "anonymous": false,
      "inputs": [
        {
          "indexed": true,
          "internalType": "address",
          "name": "previousOwner",
          "type": "address"
        },
        {
          "indexed": true,
          "internalType": "address",
          "name": "newOwner",
          "type": "address"
        }
      ],
      "name": "OwnershipTransferred",
      "type": "event"
    },
    {
      "anonymous": false,
      "inputs": [
        {
          "indexed": false,
          "internalType": "address",
          "name": "bountyAddress",
          "type": "address"
        },
        {
          "indexed": false,
          "internalType": "address",
          "name": "payoutTokenAddress",
          "type": "address"
        },
        {
          "indexed": false,
          "internalType": "uint256[]",
          "name": "payoutSchedule",
          "type": "uint256[]"
        },
        {
          "indexed": false,
          "internalType": "uint256",
          "name": "bountyType",
          "type": "uint256"
        },
        {
          "indexed": false,
          "internalType": "bytes",
          "name": "data",
          "type": "bytes"
        },
        {
          "indexed": false,
          "internalType": "uint256",
          "name": "version",
          "type": "uint256"
        }
      ],
      "name": "PayoutScheduleSet",
      "type": "event"
    },
    {
      "anonymous": false,
      "inputs": [
        {
          "indexed": false,
          "internalType": "address",
          "name": "bountyAddress",
          "type": "address"
        },
        {
          "indexed": false,
          "internalType": "address",
          "name": "payoutTokenAddress",
          "type": "address"
        },
        {
          "indexed": false,
          "internalType": "uint256",
          "name": "payoutTokenVolume",
          "type": "uint256"
        },
        {
          "indexed": false,
          "internalType": "uint256",
          "name": "bountyType",
          "type": "uint256"
        },
        {
          "indexed": false,
          "internalType": "bytes",
          "name": "data",
          "type": "bytes"
        },
        {
          "indexed": false,
          "internalType": "uint256",
          "name": "version",
          "type": "uint256"
        }
      ],
      "name": "PayoutSet",
      "type": "event"
    },
    {
      "anonymous": false,
      "inputs": [
        {
          "indexed": false,
          "internalType": "address",
          "name": "bountyAddress",
          "type": "address"
        },
        {
          "indexed": false,
          "internalType": "address",
          "name": "claimant",
          "type": "address"
        },
        {
          "indexed": false,
          "internalType": "bytes",
          "name": "data",
          "type": "bytes"
        },
        {
          "indexed": false,
          "internalType": "uint256",
          "name": "version",
          "type": "uint256"
        }
      ],
      "name": "TierClaimed",
      "type": "event"
    },
    {
      "anonymous": false,
      "inputs": [
        {
          "indexed": false,
          "internalType": "string",
          "name": "bountyId",
          "type": "string"
        },
        {
          "indexed": false,
          "internalType": "address",
          "name": "bountyAddress",
          "type": "address"
        },
        {
          "indexed": false,
          "internalType": "string",
          "name": "organization",
          "type": "string"
        },
        {
          "indexed": false,
          "internalType": "address",
          "name": "closer",
          "type": "address"
        },
        {
          "indexed": false,
          "internalType": "uint256",
          "name": "payoutTime",
          "type": "uint256"
        },
        {
          "indexed": false,
          "internalType": "address",
          "name": "tokenAddress",
          "type": "address"
        },
        {
          "indexed": false,
          "internalType": "uint256",
          "name": "volume",
          "type": "uint256"
        },
        {
          "indexed": false,
          "internalType": "uint256",
          "name": "bountyType",
          "type": "uint256"
        },
        {
          "indexed": false,
          "internalType": "bytes",
          "name": "data",
          "type": "bytes"
        },
        {
          "indexed": false,
          "internalType": "uint256",
          "name": "version",
          "type": "uint256"
        }
      ],
      "name": "TokenBalanceClaimed",
      "type": "event"
    },
    {
      "anonymous": false,
      "inputs": [
        {
          "indexed": false,
          "internalType": "bytes32",
          "name": "depositId",
          "type": "bytes32"
        },
        {
          "indexed": false,
          "internalType": "address",
          "name": "bountyAddress",
          "type": "address"
        },
        {
          "indexed": false,
          "internalType": "string",
          "name": "bountyId",
          "type": "string"
        },
        {
          "indexed": false,
          "internalType": "string",
          "name": "organization",
          "type": "string"
        },
        {
          "indexed": false,
          "internalType": "address",
          "name": "tokenAddress",
          "type": "address"
        },
        {
          "indexed": false,
          "internalType": "uint256",
          "name": "receiveTime",
          "type": "uint256"
        },
        {
          "indexed": false,
          "internalType": "address",
          "name": "sender",
          "type": "address"
        },
        {
          "indexed": false,
          "internalType": "uint256",
          "name": "expiration",
          "type": "uint256"
        },
        {
          "indexed": false,
          "internalType": "uint256",
          "name": "volume",
          "type": "uint256"
        },
        {
          "indexed": false,
          "internalType": "uint256",
          "name": "bountyType",
          "type": "uint256"
        },
        {
          "indexed": false,
          "internalType": "bytes",
          "name": "data",
          "type": "bytes"
        },
        {
          "indexed": false,
          "internalType": "uint256",
          "name": "version",
          "type": "uint256"
        }
      ],
      "name": "TokenDepositReceived",
      "type": "event"
    },
    {
      "anonymous": false,
      "inputs": [
        {
          "indexed": true,
          "internalType": "address",
          "name": "implementation",
          "type": "address"
        }
      ],
      "name": "Upgraded",
      "type": "event"
    },
    {
      "inputs": [],
      "name": "VERSION_1",
      "outputs": [
        {
          "internalType": "uint256",
          "name": "",
          "type": "uint256"
        }
      ],
      "stateMutability": "view",
      "type": "function"
    },
    {
      "inputs": [],
      "name": "VERSION_2",
      "outputs": [
        {
          "internalType": "uint256",
          "name": "",
          "type": "uint256"
        }
      ],
      "stateMutability": "view",
      "type": "function"
    },
    {
      "inputs": [
        {
          "internalType": "address",
          "name": "_bountyAddress",
          "type": "address"
        }
      ],
      "name": "bountyIsOpen",
      "outputs": [
        {
          "internalType": "bool",
          "name": "",
          "type": "bool"
        }
      ],
      "stateMutability": "view",
      "type": "function"
    },
    {
      "inputs": [
        {
          "internalType": "address",
          "name": "_bountyAddress",
          "type": "address"
        },
        {
          "internalType": "bytes32",
          "name": "_depositId",
          "type": "bytes32"
        },
        {
          "internalType": "uint256",
          "name": "_seconds",
          "type": "uint256"
        }
      ],
      "name": "extendDeposit",
      "outputs": [],
      "stateMutability": "nonpayable",
      "type": "function"
    },
    {
      "inputs": [
        {
          "internalType": "address",
          "name": "_bountyAddress",
          "type": "address"
        },
        {
          "internalType": "address",
          "name": "_tokenAddress",
          "type": "address"
        },
        {
          "internalType": "uint256",
          "name": "_tokenId",
          "type": "uint256"
        },
        {
          "internalType": "uint256",
          "name": "_expiration",
          "type": "uint256"
        },
        {
          "internalType": "uint256",
          "name": "_tier",
          "type": "uint256"
        }
      ],
      "name": "fundBountyNFT",
      "outputs": [],
      "stateMutability": "nonpayable",
      "type": "function"
    },
    {
      "inputs": [
        {
          "internalType": "address",
          "name": "_bountyAddress",
          "type": "address"
        },
        {
          "internalType": "address",
          "name": "_tokenAddress",
          "type": "address"
        },
        {
          "internalType": "uint256",
          "name": "_volume",
          "type": "uint256"
        },
        {
          "internalType": "uint256",
          "name": "_expiration",
          "type": "uint256"
        },
        {
          "internalType": "string",
          "name": "funderUuid",
          "type": "string"
        }
      ],
      "name": "fundBountyToken",
      "outputs": [],
      "stateMutability": "payable",
      "type": "function"
    },
    {
      "inputs": [],
      "name": "initialize",
      "outputs": [],
      "stateMutability": "nonpayable",
      "type": "function"
    },
    {
      "inputs": [
        {
          "internalType": "address",
          "name": "_tokenAddress",
          "type": "address"
        }
      ],
      "name": "isWhitelisted",
      "outputs": [
        {
          "internalType": "bool",
          "name": "",
          "type": "bool"
        }
      ],
      "stateMutability": "view",
      "type": "function"
    },
    {
      "inputs": [],
      "name": "openQTokenWhitelist",
      "outputs": [
        {
          "internalType": "contract OpenQTokenWhitelist",
          "name": "",
          "type": "address"
        }
      ],
      "stateMutability": "view",
      "type": "function"
    },
    {
      "inputs": [],
      "name": "owner",
      "outputs": [
        {
          "internalType": "address",
          "name": "",
          "type": "address"
        }
      ],
      "stateMutability": "view",
      "type": "function"
    },
    {
      "inputs": [],
      "name": "proxiableUUID",
      "outputs": [
        {
          "internalType": "bytes32",
          "name": "",
          "type": "bytes32"
        }
      ],
      "stateMutability": "view",
      "type": "function"
    },
    {
      "inputs": [
        {
          "internalType": "address",
          "name": "_bountyAddress",
          "type": "address"
        },
        {
          "internalType": "bytes32",
          "name": "_depositId",
          "type": "bytes32"
        }
      ],
      "name": "refundDeposit",
      "outputs": [],
      "stateMutability": "nonpayable",
      "type": "function"
    },
    {
      "inputs": [],
      "name": "renounceOwnership",
      "outputs": [],
      "stateMutability": "nonpayable",
      "type": "function"
    },
    {
      "inputs": [
        {
          "internalType": "address",
          "name": "_openQTokenWhitelist",
          "type": "address"
        }
      ],
      "name": "setTokenWhitelist",
      "outputs": [],
      "stateMutability": "nonpayable",
      "type": "function"
    },
    {
      "inputs": [
        {
          "internalType": "address",
          "name": "_bountyAddress",
          "type": "address"
        }
      ],
      "name": "tokenAddressLimitReached",
      "outputs": [
        {
          "internalType": "bool",
          "name": "",
          "type": "bool"
        }
      ],
      "stateMutability": "view",
      "type": "function"
    },
    {
      "inputs": [
        {
          "internalType": "address",
          "name": "newOwner",
          "type": "address"
        }
      ],
      "name": "transferOwnership",
      "outputs": [],
      "stateMutability": "nonpayable",
      "type": "function"
    },
    {
      "inputs": [
        {
          "internalType": "address",
          "name": "newImplementation",
          "type": "address"
        }
      ],
      "name": "upgradeTo",
      "outputs": [],
      "stateMutability": "nonpayable",
      "type": "function"
    },
    {
      "inputs": [
        {
          "internalType": "address",
          "name": "newImplementation",
          "type": "address"
        },
        {
          "internalType": "bytes",
          "name": "data",
          "type": "bytes"
        }
      ],
      "name": "upgradeToAndCall",
      "outputs": [],
      "stateMutability": "payable",
      "type": "function"
    }
  ],
  "bytecode": "0x60a06040523060805234801561001457600080fd5b506080516124cf6100926000396000818161041c01528181610465015281816106560152818161069601528181610793015281816107d3015281816108540152818161089401528181610919015281816109c901528181610a0901528181610e7d01528181610ebd015281816115c2015261160201526124cf6000f3fe6080604052600436106101095760003560e01c8063715018a611610095578063975b961511610064578063975b9615146102a1578063d0dec359146102c1578063f2fde38b146102e1578063f75161c614610301578063ff9d28b01461032157600080fd5b8063715018a6146102305780638129fc1c146102455780638ca4d5841461025a5780638da5cb5b1461026f57600080fd5b80633af32abf116100dc5780633af32abf146101a85780634f1ef286146101c8578063527b22db146101db57806352d1902d146101fb5780636da585e21461021057600080fd5b806326c20e5f1461010e5780632fa0ac291461013657806332fe1fec146101665780633659cfe614610188575b600080fd5b34801561011a57600080fd5b50610123600181565b6040519081526020015b60405180910390f35b34801561014257600080fd5b50610156610151366004611e06565b610334565b604051901515815260200161012d565b34801561017257600080fd5b50610186610181366004611e23565b610412565b005b34801561019457600080fd5b506101866101a3366004611e06565b61064c565b3480156101b457600080fd5b506101566101c3366004611e06565b610714565b6101866101d6366004611f05565b610789565b3480156101e757600080fd5b506101866101f6366004611e06565b610842565b34801561020757600080fd5b5061012361090c565b34801561021c57600080fd5b5061018661022b366004611f69565b6109bf565b34801561023c57600080fd5b50610186610ccd565b34801561025157600080fd5b50610186610ce1565b34801561026657600080fd5b50610123600281565b34801561027b57600080fd5b506033546001600160a01b03165b6040516001600160a01b03909116815260200161012d565b3480156102ad57600080fd5b506101566102bc366004611e06565b610df9565b3480156102cd57600080fd5b506101866102dc366004611fba565b610e73565b3480156102ed57600080fd5b506101866102fc366004611e06565b611542565b34801561030d57600080fd5b5060c954610289906001600160a01b031681565b61018661032f366004611fe6565b6115b8565b60c95460408051630c024c1b60e31b8152905160009284926001600160a01b039091169163601260d8916004808201926020929091908290030181865afa158015610383573d6000803e3d6000fd5b505050506040513d601f19601f820116820180604052508101906103a79190612070565b816001600160a01b031663c5b6e7056040518163ffffffff1660e01b8152600401602060405180830381865afa1580156103e5573d6000803e3d6000fd5b505050506040513d601f19601f820116820180604052508101906104099190612070565b10159392505050565b6001600160a01b037f00000000000000000000000000000000000000000000000000000000000000001630036104635760405162461bcd60e51b815260040161045a90612089565b60405180910390fd5b7f00000000000000000000000000000000000000000000000000000000000000006001600160a01b03166104956118f0565b6001600160a01b0316146104bb5760405162461bcd60e51b815260040161045a906120d5565b60405163166ea0d160e21b815260048101839052839033906001600160a01b038316906359ba834490602401602060405180830381865afa158015610504573d6000803e3d6000fd5b505050506040513d601f19601f820116820180604052508101906105289190612121565b6001600160a01b0316146040518060400160405280601181526020017021a0a62622a92fa727aa2fa32aa72222a960791b8152509061057a5760405162461bcd60e51b815260040161045a919061218e565b5060405163e83963eb60e01b815260048101849052602481018390523360448201526000906001600160a01b0383169063e83963eb906064016020604051808303816000875af11580156105d2573d6000803e3d6000fd5b505050506040513d601f19601f820116820180604052508101906105f69190612070565b60408051600080825260208201928390529293507fff6b606253b167363e000664c8b931e839bf0ab135de9d6cfc5e26311a1ff6c49261063d9288928692916002906121a1565b60405180910390a15050505050565b6001600160a01b037f00000000000000000000000000000000000000000000000000000000000000001630036106945760405162461bcd60e51b815260040161045a90612089565b7f00000000000000000000000000000000000000000000000000000000000000006001600160a01b03166106c66118f0565b6001600160a01b0316146106ec5760405162461bcd60e51b815260040161045a906120d5565b6106f58161190c565b6040805160008082526020820190925261071191839190611914565b50565b60c954604051633af32abf60e01b81526001600160a01b0383811660048301526000921690633af32abf90602401602060405180830381865afa15801561075f573d6000803e3d6000fd5b505050506040513d601f19601f8201168201806040525081019061078391906121d8565b92915050565b6001600160a01b037f00000000000000000000000000000000000000000000000000000000000000001630036107d15760405162461bcd60e51b815260040161045a90612089565b7f00000000000000000000000000000000000000000000000000000000000000006001600160a01b03166108036118f0565b6001600160a01b0316146108295760405162461bcd60e51b815260040161045a906120d5565b6108328261190c565b61083e82826001611914565b5050565b61084a611a84565b6001600160a01b037f00000000000000000000000000000000000000000000000000000000000000001630036108925760405162461bcd60e51b815260040161045a90612089565b7f00000000000000000000000000000000000000000000000000000000000000006001600160a01b03166108c46118f0565b6001600160a01b0316146108ea5760405162461bcd60e51b815260040161045a906120d5565b60c980546001600160a01b0319166001600160a01b0392909216919091179055565b6000306001600160a01b037f000000000000000000000000000000000000000000000000000000000000000016146109ac5760405162461bcd60e51b815260206004820152603860248201527f555550535570677261646561626c653a206d757374206e6f742062652063616c60448201527f6c6564207468726f7567682064656c656761746563616c6c0000000000000000606482015260840161045a565b5060008051602061245383398151915290565b6001600160a01b037f0000000000000000000000000000000000000000000000000000000000000000163003610a075760405162461bcd60e51b815260040161045a90612089565b7f00000000000000000000000000000000000000000000000000000000000000006001600160a01b0316610a396118f0565b6001600160a01b031614610a5f5760405162461bcd60e51b815260040161045a906120d5565b84610a6985610714565b604051806040016040528060128152602001711513d2d15397d393d517d050d0d15415115160721b81525090610ab25760405162461bcd60e51b815260040161045a919061218e565b50610abc86610df9565b6040518060400160405280601781526020017610d3d395149050d517d053149150511657d0d313d4d151604a1b81525090610b0a5760405162461bcd60e51b815260040161045a919061218e565b506040516324f0cae560e01b81523360048201526001600160a01b038681166024830152604482018690526064820185905260848201849052600091908316906324f0cae59060a4016020604051808303816000875af1158015610b72573d6000803e3d6000fd5b505050506040513d601f19601f82011682018060405250810190610b969190612070565b90507f113d7b68690d10a1b57a4033f31ccbe3071a8b22eb4156a27533b32fe2cfb1e48188846001600160a01b031663c17bd75e6040518163ffffffff1660e01b8152600401600060405180830381865afa158015610bf9573d6000803e3d6000fd5b505050506040513d6000823e601f3d908101601f19168201604052610c2191908101906121fa565b856001600160a01b03166323bd4d7a6040518163ffffffff1660e01b8152600401600060405180830381865afa158015610c5f573d6000803e3d6000fd5b505050506040513d6000823e601f3d908101601f19168201604052610c8791908101906121fa565b604080516000808252602082019092528c91429133918d918f91906002604051610cbc9c9b9a99989796959493929190612268565b60405180910390a150505050505050565b610cd5611a84565b610cdf6000611ade565b565b600054610100900460ff1615808015610d015750600054600160ff909116105b80610d1b5750303b158015610d1b575060005460ff166001145b610d7e5760405162461bcd60e51b815260206004820152602e60248201527f496e697469616c697a61626c653a20636f6e747261637420697320616c72656160448201526d191e481a5b9a5d1a585b1a5e995960921b606482015260840161045a565b6000805460ff191660011790558015610da1576000805461ff0019166101001790555b610da9611b30565b610db1611b5f565b8015610711576000805461ff0019169055604051600181527f7f26b83ff96e1f2b6a682f133852f6798a09c465da95921460cefb38474024989060200160405180910390a150565b60008082905060008063ffffffff16826001600160a01b031663200d2ed26040518163ffffffff1660e01b8152600401602060405180830381865afa158015610e46573d6000803e3d6000fd5b505050506040513d601f19601f82011682018060405250810190610e6a9190612070565b14949350505050565b6001600160a01b037f0000000000000000000000000000000000000000000000000000000000000000163003610ebb5760405162461bcd60e51b815260040161045a90612089565b7f00000000000000000000000000000000000000000000000000000000000000006001600160a01b0316610eed6118f0565b6001600160a01b031614610f135760405162461bcd60e51b815260040161045a906120d5565b60405163166ea0d160e21b815260048101829052829033906001600160a01b038316906359ba834490602401602060405180830381865afa158015610f5c573d6000803e3d6000fd5b505050506040513d601f19601f82011682018060405250810190610f809190612121565b6001600160a01b0316146040518060400160405280601181526020017021a0a62622a92fa727aa2fa32aa72222a960791b81525090610fd25760405162461bcd60e51b815260040161045a919061218e565b506040516356406fa560e01b8152600481018390526001600160a01b038216906356406fa590602401602060405180830381865afa158015611018573d6000803e3d6000fd5b505050506040513d601f19601f8201168201806040525081019061103c9190612070565b60405163968b098f60e01b8152600481018490526001600160a01b0383169063968b098f90602401602060405180830381865afa158015611081573d6000803e3d6000fd5b505050506040513d601f19601f820116820180604052508101906110a59190612070565b6110af9190612319565b4210156040518060400160405280601881526020017f5052454d41545552455f524546554e445f524551554553540000000000000000815250906111065760405162461bcd60e51b815260040161045a919061218e565b506040516397bb3ce960e01b8152600481018390526000906001600160a01b038316906397bb3ce990602401602060405180830381865afa15801561114f573d6000803e3d6000fd5b505050506040513d601f19601f820116820180604052508101906111739190612121565b604051636df367b560e11b81526001600160a01b038681166004830152808316602483015291925060009184169063dbe6cf6a90604401602060405180830381865afa1580156111c7573d6000803e3d6000fd5b505050506040513d601f19601f820116820180604052508101906111eb9190612070565b604051633aecd0e360e01b81526001600160a01b038481166004830152851690633aecd0e390602401602060405180830381865afa158015611231573d6000803e3d6000fd5b505050506040513d601f19601f820116820180604052508101906112559190612070565b61125f919061232c565b9050600081846001600160a01b0316631595eea4876040518263ffffffff1660e01b815260040161129291815260200190565b602060405180830381865afa1580156112af573d6000803e3d6000fd5b505050506040513d601f19601f820116820180604052508101906112d39190612070565b11611348576040516305657ba960e21b8152600481018690526001600160a01b03851690631595eea490602401602060405180830381865afa15801561131d573d6000803e3d6000fd5b505050506040513d601f19601f820116820180604052508101906113419190612070565b905061134b565b50805b60405163eb58c0fd60e01b815260048101869052336024820152604481018290526001600160a01b0385169063eb58c0fd90606401600060405180830381600087803b15801561139a57600080fd5b505af11580156113ae573d6000803e3d6000fd5b505050507f69564edf78e6beb23606d24a3d00a7d77315e974782eca07c9a0139393ef797f85856001600160a01b031663c17bd75e6040518163ffffffff1660e01b8152600401600060405180830381865afa158015611412573d6000803e3d6000fd5b505050506040513d6000823e601f3d908101601f1916820160405261143a91908101906121fa565b88876001600160a01b03166323bd4d7a6040518163ffffffff1660e01b8152600401600060405180830381865afa158015611479573d6000803e3d6000fd5b505050506040513d6000823e601f3d908101601f191682016040526114a191908101906121fa565b6040516397bb3ce960e01b8152600481018b905242906001600160a01b038b16906397bb3ce990602401602060405180830381865afa1580156114e8573d6000803e3d6000fd5b505050506040513d601f19601f8201168201806040525081019061150c9190612121565b6040805160008082526020820192839052611532989796959493928b929060029061233f565b60405180910390a1505050505050565b61154a611a84565b6001600160a01b0381166115af5760405162461bcd60e51b815260206004820152602660248201527f4f776e61626c653a206e6577206f776e657220697320746865207a65726f206160448201526564647265737360d01b606482015260840161045a565b61071181611ade565b6001600160a01b037f00000000000000000000000000000000000000000000000000000000000000001630036116005760405162461bcd60e51b815260040161045a90612089565b7f00000000000000000000000000000000000000000000000000000000000000006001600160a01b03166116326118f0565b6001600160a01b0316146116585760405162461bcd60e51b815260040161045a906120d5565b8461166285610714565b6116c65761166f86610334565b156040518060400160405280601881526020017f544f4f5f4d414e595f544f4b454e5f4144445245535345530000000000000000815250906116c45760405162461bcd60e51b815260040161045a919061218e565b505b6116cf86610df9565b6040518060400160405280601781526020017610d3d395149050d517d053149150511657d0d313d4d151604a1b8152509061171d5760405162461bcd60e51b815260040161045a919061218e565b506040516335bf83d160e21b81523360048201526001600160a01b0386811660248301526044820186905260648201859052600091829184169063d6fe0f44903490608401604080518083038185885af115801561177f573d6000803e3d6000fd5b50505050506040513d601f19601f820116820180604052508101906117a491906123c7565b915091506000846040516020016117bb919061218e565b60405160208183030381529060405290507f5b079a43aec0177fbeb930213940b8d476a8c4e0b37343e2059b6d61400d9762838a866001600160a01b031663c17bd75e6040518163ffffffff1660e01b8152600401600060405180830381865afa15801561182d573d6000803e3d6000fd5b505050506040513d6000823e601f3d908101601f1916820160405261185591908101906121fa565b876001600160a01b03166323bd4d7a6040518163ffffffff1660e01b8152600401600060405180830381865afa158015611893573d6000803e3d6000fd5b505050506040513d6000823e601f3d908101601f191682016040526118bb91908101906121fa565b8c42338d8a60008b60026040516118dd9c9b9a99989796959493929190612268565b60405180910390a1505050505050505050565b600080516020612453833981519152546001600160a01b031690565b610711611a84565b7f4910fdfa16fed3260ed0e7147f7cc6da11a60208b5b9406d12a635614ffd91435460ff161561194c5761194783611b86565b505050565b826001600160a01b03166352d1902d6040518163ffffffff1660e01b8152600401602060405180830381865afa9250505080156119a6575060408051601f3d908101601f191682019092526119a391810190612070565b60015b611a095760405162461bcd60e51b815260206004820152602e60248201527f45524331393637557067726164653a206e657720696d706c656d656e7461746960448201526d6f6e206973206e6f74205555505360901b606482015260840161045a565b6000805160206124538339815191528114611a785760405162461bcd60e51b815260206004820152602960248201527f45524331393637557067726164653a20756e737570706f727465642070726f786044820152681a58589b195555525160ba1b606482015260840161045a565b50611947838383611c22565b6033546001600160a01b03163314610cdf5760405162461bcd60e51b815260206004820181905260248201527f4f776e61626c653a2063616c6c6572206973206e6f7420746865206f776e6572604482015260640161045a565b603380546001600160a01b038381166001600160a01b0319831681179093556040519116919082907f8be0079c531659141344cd1fd0a4f28419497f9722a3daafe3b4186f6b6457e090600090a35050565b600054610100900460ff16611b575760405162461bcd60e51b815260040161045a906123eb565b610cdf611c4d565b600054610100900460ff16610cdf5760405162461bcd60e51b815260040161045a906123eb565b6001600160a01b0381163b611bf35760405162461bcd60e51b815260206004820152602d60248201527f455243313936373a206e657720696d706c656d656e746174696f6e206973206e60448201526c1bdd08184818dbdb9d1c9858dd609a1b606482015260840161045a565b60008051602061245383398151915280546001600160a01b0319166001600160a01b0392909216919091179055565b611c2b83611c7d565b600082511180611c385750805b1561194757611c478383611cbd565b50505050565b600054610100900460ff16611c745760405162461bcd60e51b815260040161045a906123eb565b610cdf33611ade565b611c8681611b86565b6040516001600160a01b038216907fbc7cd75a20ee27fd9adebab32041f755214dbc6bffa90cc0225b39da2e5c2d3b90600090a250565b60606001600160a01b0383163b611d255760405162461bcd60e51b815260206004820152602660248201527f416464726573733a2064656c65676174652063616c6c20746f206e6f6e2d636f6044820152651b9d1c9858dd60d21b606482015260840161045a565b600080846001600160a01b031684604051611d409190612436565b600060405180830381855af49150503d8060008114611d7b576040519150601f19603f3d011682016040523d82523d6000602084013e611d80565b606091505b5091509150611da8828260405180606001604052806027815260200161247360279139611db1565b95945050505050565b60608315611dc0575081611dea565b825115611dd05782518084602001fd5b8160405162461bcd60e51b815260040161045a919061218e565b9392505050565b6001600160a01b038116811461071157600080fd5b600060208284031215611e1857600080fd5b8135611dea81611df1565b600080600060608486031215611e3857600080fd5b8335611e4381611df1565b95602085013595506040909401359392505050565b634e487b7160e01b600052604160045260246000fd5b604051601f8201601f1916810167ffffffffffffffff81118282101715611e9757611e97611e58565b604052919050565b600067ffffffffffffffff821115611eb957611eb9611e58565b50601f01601f191660200190565b6000611eda611ed584611e9f565b611e6e565b9050828152838383011115611eee57600080fd5b828260208301376000602084830101529392505050565b60008060408385031215611f1857600080fd5b8235611f2381611df1565b9150602083013567ffffffffffffffff811115611f3f57600080fd5b8301601f81018513611f5057600080fd5b611f5f85823560208401611ec7565b9150509250929050565b600080600080600060a08688031215611f8157600080fd5b8535611f8c81611df1565b94506020860135611f9c81611df1565b94979496505050506040830135926060810135926080909101359150565b60008060408385031215611fcd57600080fd5b8235611fd881611df1565b946020939093013593505050565b600080600080600060a08688031215611ffe57600080fd5b853561200981611df1565b9450602086013561201981611df1565b93506040860135925060608601359150608086013567ffffffffffffffff81111561204357600080fd5b8601601f8101881361205457600080fd5b61206388823560208401611ec7565b9150509295509295909350565b60006020828403121561208257600080fd5b5051919050565b6020808252602c908201527f46756e6374696f6e206d7573742062652063616c6c6564207468726f7567682060408201526b19195b1959d85d1958d85b1b60a21b606082015260800190565b6020808252602c908201527f46756e6374696f6e206d7573742062652063616c6c6564207468726f7567682060408201526b6163746976652070726f787960a01b606082015260800190565b60006020828403121561213357600080fd5b8151611dea81611df1565b60005b83811015612159578181015183820152602001612141565b50506000910152565b6000815180845261217a81602086016020860161213e565b601f01601f19169290920160200192915050565b602081526000611dea6020830184612162565b85815284602082015283604082015260a0606082015260006121c660a0830185612162565b90508260808301529695505050505050565b6000602082840312156121ea57600080fd5b81518015158114611dea57600080fd5b60006020828403121561220c57600080fd5b815167ffffffffffffffff81111561222357600080fd5b8201601f8101841361223457600080fd5b8051612242611ed582611e9f565b81815285602083850101111561225757600080fd5b611da882602083016020860161213e565b8c81526001600160a01b038c81166020830152610180604083018190526000916122948483018f612162565b915083820360608501526122a8828e612162565b9150808c1660808501528a60a0850152808a1660c0850152508760e084015286610100840152856101208401528281036101408401526122e88186612162565b915050826101608301529d9c50505050505050505050505050565b634e487b7160e01b600052601160045260246000fd5b8082018082111561078357610783612303565b8181038181111561078357610783612303565b60006101408c83528060208401526123598184018d612162565b6001600160a01b038c81166040860152848203606086015290915061237e828c612162565b915089608085015280891660a0850152508660c08401528560e08401528281036101008401526123ae8186612162565b915050826101208301529b9a5050505050505050505050565b600080604083850312156123da57600080fd5b505080516020909101519092909150565b6020808252602b908201527f496e697469616c697a61626c653a20636f6e7472616374206973206e6f74206960408201526a6e697469616c697a696e6760a81b606082015260800190565b6000825161244881846020870161213e565b919091019291505056fe360894a13ba1a3210667c828492db98dca3e2076cc3735a920a3ca505d382bbc416464726573733a206c6f772d6c6576656c2064656c65676174652063616c6c206661696c6564a2646970667358221220ffe17bdf57859eacfa560a346ded84585e0ceb5a444725b7ea4bbc7fe0c08da564736f6c63430008100033",
  "linkReferences": {},
  "deployedLinkReferences": {}
}