{
  "_format": "hh-sol-artifact-1",
  "contractName": "OpenQTokenWhitelist",
  "sourceName": "contracts/TokenWhitelist/OpenQTokenWhitelist.sol",
  "abi": [
    {
      "inputs": [],
      "stateMutability": "nonpayable",
      "type": "constructor"
    },
    {
      "anonymous": false,
      "inputs": [
        {
          "indexed": true,
          "internalType": "address",
          "name": "previousOwner",
          "type": "address"
        },
        {
          "indexed": true,
          "internalType": "address",
          "name": "newOwner",
          "type": "address"
        }
      ],
      "name": "OwnershipTransferred",
      "type": "event"
    },
    {
      "inputs": [
        {
          "internalType": "address",
          "name": "_tokenAddress",
          "type": "address"
        }
      ],
      "name": "addToken",
      "outputs": [],
      "stateMutability": "nonpayable",
      "type": "function"
    },
    {
      "inputs": [
        {
          "internalType": "address",
          "name": "_tokenAddress",
          "type": "address"
        }
      ],
      "name": "isWhitelisted",
      "outputs": [
        {
          "internalType": "bool",
          "name": "",
          "type": "bool"
        }
      ],
      "stateMutability": "view",
      "type": "function"
    },
    {
      "inputs": [],
      "name": "owner",
      "outputs": [
        {
          "internalType": "address",
          "name": "",
          "type": "address"
        }
      ],
      "stateMutability": "view",
      "type": "function"
    },
    {
      "inputs": [
        {
          "internalType": "address",
          "name": "_tokenAddress",
          "type": "address"
        }
      ],
      "name": "removeToken",
      "outputs": [],
      "stateMutability": "nonpayable",
      "type": "function"
    },
    {
      "inputs": [],
      "name": "renounceOwnership",
      "outputs": [],
      "stateMutability": "nonpayable",
      "type": "function"
    },
    {
      "inputs": [],
      "name": "tokenCount",
      "outputs": [
        {
          "internalType": "uint256",
          "name": "",
          "type": "uint256"
        }
      ],
      "stateMutability": "view",
      "type": "function"
    },
    {
      "inputs": [
        {
          "internalType": "address",
          "name": "newOwner",
          "type": "address"
        }
      ],
      "name": "transferOwnership",
      "outputs": [],
      "stateMutability": "nonpayable",
      "type": "function"
    },
    {
      "inputs": [
        {
          "internalType": "address",
          "name": "",
          "type": "address"
        }
      ],
      "name": "whitelist",
      "outputs": [
        {
          "internalType": "bool",
          "name": "",
          "type": "bool"
        }
      ],
      "stateMutability": "view",
      "type": "function"
    }
  ],
  "bytecode": "0x608060405234801561001057600080fd5b5061001a3361001f565b61006f565b600080546001600160a01b038381166001600160a01b0319831681178455604051919092169283917f8be0079c531659141344cd1fd0a4f28419497f9722a3daafe3b4186f6b6457e09190a35050565b6105ab8061007e6000396000f3fe608060405234801561001057600080fd5b50600436106100785760003560e01c80633af32abf1461007d5780635fa7b584146100be578063715018a6146100d35780638da5cb5b146100db5780639b19251a146100f45780639f181b5e14610117578063d48bfca71461012e578063f2fde38b14610141575b600080fd5b6100a961008b36600461047b565b6001600160a01b031660009081526002602052604090205460ff1690565b60405190151581526020015b60405180910390f35b6100d16100cc36600461047b565b610154565b005b6100d1610254565b6000546001600160a01b03166040516100b591906104ab565b6100a961010236600461047b565b60026020526000908152604090205460ff1681565b61012060015481565b6040519081526020016100b5565b6100d161013c36600461047b565b610268565b6100d161014f36600461047b565b610358565b61015c6103d1565b604051633af32abf60e01b81523090633af32abf9061017f9084906004016104ab565b602060405180830381865afa15801561019c573d6000803e3d6000fd5b505050506040513d601f19601f820116820180604052508101906101c091906104bf565b6040518060400160405280601d81526020017f544f4b454e5f4e4f545f414c52454144595f57484954454c49535445440000008152509061021d5760405162461bcd60e51b815260040161021491906104e1565b60405180910390fd5b506001600160a01b0381166000908152600260205260408120805460ff19169055600180549161024c83610545565b919050555050565b61025c6103d1565b610266600061042b565b565b6102706103d1565b604051633af32abf60e01b81523090633af32abf906102939084906004016104ab565b602060405180830381865afa1580156102b0573d6000803e3d6000fd5b505050506040513d601f19601f820116820180604052508101906102d491906104bf565b15604051806040016040528060198152602001781513d2d15397d053149150511657d5d2125511531254d51151603a1b815250906103255760405162461bcd60e51b815260040161021491906104e1565b506001600160a01b0381166000908152600260205260408120805460ff1916600190811790915580549161024c8361055c565b6103606103d1565b6001600160a01b0381166103c55760405162461bcd60e51b815260206004820152602660248201527f4f776e61626c653a206e6577206f776e657220697320746865207a65726f206160448201526564647265737360d01b6064820152608401610214565b6103ce8161042b565b50565b6000546001600160a01b031633146102665760405162461bcd60e51b815260206004820181905260248201527f4f776e61626c653a2063616c6c6572206973206e6f7420746865206f776e65726044820152606401610214565b600080546001600160a01b038381166001600160a01b0319831681178455604051919092169283917f8be0079c531659141344cd1fd0a4f28419497f9722a3daafe3b4186f6b6457e09190a35050565b60006020828403121561048d57600080fd5b81356001600160a01b03811681146104a457600080fd5b9392505050565b6001600160a01b0391909116815260200190565b6000602082840312156104d157600080fd5b815180151581146104a457600080fd5b600060208083528351808285015260005b8181101561050e578581018301518582016040015282016104f2565b506000604082860101526040601f19601f8301168501019250505092915050565b634e487b7160e01b600052601160045260246000fd5b6000816105545761055461052f565b506000190190565b60006001820161056e5761056e61052f565b506001019056fea264697066735822122007e28ea71b5edaac272b386aa841caab8d8b335cf14912ae4b44c09c79e3b4fd64736f6c63430008110033",
  "linkReferences": {},
  "deployedLinkReferences": {}
}