{
  "_format": "hh-sol-artifact-1",
  "contractName": "ClaimManagerV3",
  "sourceName": "contracts/ClaimManager/Implementations/ClaimManagerV3.sol",
  "abi": [
    {
      "inputs": [],
      "stateMutability": "nonpayable",
      "type": "constructor"
    },
    {
      "anonymous": false,
      "inputs": [
        {
          "indexed": false,
          "internalType": "address",
          "name": "previousAdmin",
          "type": "address"
        },
        {
          "indexed": false,
          "internalType": "address",
          "name": "newAdmin",
          "type": "address"
        }
      ],
      "name": "AdminChanged",
      "type": "event"
    },
    {
      "anonymous": false,
      "inputs": [
        {
          "indexed": true,
          "internalType": "address",
          "name": "beacon",
          "type": "address"
        }
      ],
      "name": "BeaconUpgraded",
      "type": "event"
    },
    {
      "anonymous": false,
      "inputs": [
        {
          "indexed": false,
          "internalType": "string",
          "name": "bountyId",
          "type": "string"
        },
        {
          "indexed": false,
          "internalType": "address",
          "name": "bountyAddress",
          "type": "address"
        },
        {
          "indexed": false,
          "internalType": "string",
          "name": "organization",
          "type": "string"
        },
        {
          "indexed": false,
          "internalType": "address",
          "name": "closer",
          "type": "address"
        },
        {
          "indexed": false,
          "internalType": "uint256",
          "name": "bountyClosedTime",
          "type": "uint256"
        },
        {
          "indexed": false,
          "internalType": "uint256",
          "name": "bountyType",
          "type": "uint256"
        },
        {
          "indexed": false,
          "internalType": "bytes",
          "name": "data",
          "type": "bytes"
        },
        {
          "indexed": false,
          "internalType": "uint256",
          "name": "version",
          "type": "uint256"
        }
      ],
      "name": "BountyClosed",
      "type": "event"
    },
    {
      "anonymous": false,
      "inputs": [
        {
          "indexed": false,
          "internalType": "string",
          "name": "bountyId",
          "type": "string"
        },
        {
          "indexed": false,
          "internalType": "string",
          "name": "organization",
          "type": "string"
        },
        {
          "indexed": false,
          "internalType": "address",
          "name": "issuerAddress",
          "type": "address"
        },
        {
          "indexed": false,
          "internalType": "address",
          "name": "bountyAddress",
          "type": "address"
        },
        {
          "indexed": false,
          "internalType": "uint256",
          "name": "bountyMintTime",
          "type": "uint256"
        },
        {
          "indexed": false,
          "internalType": "uint256",
          "name": "bountyType",
          "type": "uint256"
        },
        {
          "indexed": false,
          "internalType": "bytes",
          "name": "data",
          "type": "bytes"
        },
        {
          "indexed": false,
          "internalType": "uint256",
          "name": "version",
          "type": "uint256"
        }
      ],
      "name": "BountyCreated",
      "type": "event"
    },
    {
      "anonymous": false,
      "inputs": [
        {
          "indexed": false,
          "internalType": "uint256",
          "name": "claimTime",
          "type": "uint256"
        },
        {
          "indexed": false,
          "internalType": "uint256",
          "name": "bountyType",
          "type": "uint256"
        },
        {
          "indexed": false,
          "internalType": "bytes",
          "name": "data",
          "type": "bytes"
        },
        {
          "indexed": false,
          "internalType": "uint256",
          "name": "version",
          "type": "uint256"
        }
      ],
      "name": "ClaimSuccess",
      "type": "event"
    },
    {
      "anonymous": false,
      "inputs": [
        {
          "indexed": false,
          "internalType": "bytes32",
          "name": "depositId",
          "type": "bytes32"
        },
        {
          "indexed": false,
          "internalType": "uint256",
          "name": "newExpiration",
          "type": "uint256"
        },
        {
          "indexed": false,
          "internalType": "uint256",
          "name": "bountyType",
          "type": "uint256"
        },
        {
          "indexed": false,
          "internalType": "bytes",
          "name": "data",
          "type": "bytes"
        },
        {
          "indexed": false,
          "internalType": "uint256",
          "name": "version",
          "type": "uint256"
        }
      ],
      "name": "DepositExtended",
      "type": "event"
    },
    {
      "anonymous": false,
      "inputs": [
        {
          "indexed": false,
          "internalType": "bytes32",
          "name": "depositId",
          "type": "bytes32"
        },
        {
          "indexed": false,
          "internalType": "string",
          "name": "bountyId",
          "type": "string"
        },
        {
          "indexed": false,
          "internalType": "address",
          "name": "bountyAddress",
          "type": "address"
        },
        {
          "indexed": false,
          "internalType": "string",
          "name": "organization",
          "type": "string"
        },
        {
          "indexed": false,
          "internalType": "uint256",
          "name": "refundTime",
          "type": "uint256"
        },
        {
          "indexed": false,
          "internalType": "address",
          "name": "tokenAddress",
          "type": "address"
        },
        {
          "indexed": false,
          "internalType": "uint256",
          "name": "volume",
          "type": "uint256"
        },
        {
          "indexed": false,
          "internalType": "uint256",
          "name": "bountyType",
          "type": "uint256"
        },
        {
          "indexed": false,
          "internalType": "bytes",
          "name": "data",
          "type": "bytes"
        },
        {
          "indexed": false,
          "internalType": "uint256",
          "name": "version",
          "type": "uint256"
        }
      ],
      "name": "DepositRefunded",
      "type": "event"
    },
    {
      "anonymous": false,
      "inputs": [
        {
          "indexed": false,
          "internalType": "string",
          "name": "externalUserId",
          "type": "string"
        },
        {
          "indexed": false,
          "internalType": "address",
          "name": "newAddress",
          "type": "address"
        },
        {
          "indexed": false,
          "internalType": "bytes",
          "name": "data",
          "type": "bytes"
        },
        {
          "indexed": false,
          "internalType": "uint256",
          "name": "version",
          "type": "uint256"
        }
      ],
      "name": "ExternalUserIdAssociatedWithAddress",
      "type": "event"
    },
    {
      "anonymous": false,
      "inputs": [
        {
          "indexed": false,
          "internalType": "address",
          "name": "bountyAddress",
          "type": "address"
        },
        {
          "indexed": false,
          "internalType": "address",
          "name": "fundingGoalTokenAddress",
          "type": "address"
        },
        {
          "indexed": false,
          "internalType": "uint256",
          "name": "fundingGoalVolume",
          "type": "uint256"
        },
        {
          "indexed": false,
          "internalType": "uint256",
          "name": "bountyType",
          "type": "uint256"
        },
        {
          "indexed": false,
          "internalType": "bytes",
          "name": "data",
          "type": "bytes"
        },
        {
          "indexed": false,
          "internalType": "uint256",
          "name": "version",
          "type": "uint256"
        }
      ],
      "name": "FundingGoalSet",
      "type": "event"
    },
    {
      "anonymous": false,
      "inputs": [
        {
          "indexed": false,
          "internalType": "uint8",
          "name": "version",
          "type": "uint8"
        }
      ],
      "name": "Initialized",
      "type": "event"
    },
    {
      "anonymous": false,
      "inputs": [
        {
          "indexed": false,
          "internalType": "address",
          "name": "bountyAddress",
          "type": "address"
        },
        {
          "indexed": false,
          "internalType": "bool",
          "name": "invoiceable",
          "type": "bool"
        },
        {
          "indexed": false,
          "internalType": "bytes",
          "name": "data",
          "type": "bytes"
        },
        {
          "indexed": false,
          "internalType": "uint256",
          "name": "version",
          "type": "uint256"
        }
      ],
      "name": "InvoiceableSet",
      "type": "event"
    },
    {
      "anonymous": false,
      "inputs": [
        {
          "indexed": false,
          "internalType": "address",
          "name": "bountyAddress",
          "type": "address"
        },
        {
          "indexed": false,
          "internalType": "bool",
          "name": "kycRequired",
          "type": "bool"
        },
        {
          "indexed": false,
          "internalType": "bytes",
          "name": "data",
          "type": "bytes"
        },
        {
          "indexed": false,
          "internalType": "uint256",
          "name": "version",
          "type": "uint256"
        }
      ],
      "name": "KYCRequiredSet",
      "type": "event"
    },
    {
      "anonymous": false,
      "inputs": [
        {
          "indexed": false,
          "internalType": "string",
          "name": "bountyId",
          "type": "string"
        },
        {
          "indexed": false,
          "internalType": "address",
          "name": "bountyAddress",
          "type": "address"
        },
        {
          "indexed": false,
          "internalType": "string",
          "name": "organization",
          "type": "string"
        },
        {
          "indexed": false,
          "internalType": "address",
          "name": "closer",
          "type": "address"
        },
        {
          "indexed": false,
          "internalType": "uint256",
          "name": "payoutTime",
          "type": "uint256"
        },
        {
          "indexed": false,
          "internalType": "address",
          "name": "tokenAddress",
          "type": "address"
        },
        {
          "indexed": false,
          "internalType": "uint256",
          "name": "tokenId",
          "type": "uint256"
        },
        {
          "indexed": false,
          "internalType": "uint256",
          "name": "bountyType",
          "type": "uint256"
        },
        {
          "indexed": false,
          "internalType": "bytes",
          "name": "data",
          "type": "bytes"
        },
        {
          "indexed": false,
          "internalType": "uint256",
          "name": "version",
          "type": "uint256"
        }
      ],
      "name": "NFTClaimed",
      "type": "event"
    },
    {
      "anonymous": false,
      "inputs": [
        {
          "indexed": false,
          "internalType": "bytes32",
          "name": "depositId",
          "type": "bytes32"
        },
        {
          "indexed": false,
          "internalType": "address",
          "name": "bountyAddress",
          "type": "address"
        },
        {
          "indexed": false,
          "internalType": "string",
          "name": "bountyId",
          "type": "string"
        },
        {
          "indexed": false,
          "internalType": "string",
          "name": "organization",
          "type": "string"
        },
        {
          "indexed": false,
          "internalType": "address",
          "name": "tokenAddress",
          "type": "address"
        },
        {
          "indexed": false,
          "internalType": "uint256",
          "name": "receiveTime",
          "type": "uint256"
        },
        {
          "indexed": false,
          "internalType": "address",
          "name": "sender",
          "type": "address"
        },
        {
          "indexed": false,
          "internalType": "uint256",
          "name": "expiration",
          "type": "uint256"
        },
        {
          "indexed": false,
          "internalType": "uint256",
          "name": "tokenId",
          "type": "uint256"
        },
        {
          "indexed": false,
          "internalType": "uint256",
          "name": "bountyType",
          "type": "uint256"
        },
        {
          "indexed": false,
          "internalType": "bytes",
          "name": "data",
          "type": "bytes"
        },
        {
          "indexed": false,
          "internalType": "uint256",
          "name": "version",
          "type": "uint256"
        }
      ],
      "name": "NFTDepositReceived",
      "type": "event"
    },
    {
      "anonymous": false,
      "inputs": [
        {
          "indexed": true,
          "internalType": "address",
          "name": "previousOracle",
          "type": "address"
        },
        {
          "indexed": true,
          "internalType": "address",
          "name": "newOracle",
          "type": "address"
        }
      ],
      "name": "OracleTransferred",
      "type": "event"
    },
    {
      "anonymous": false,
      "inputs": [
        {
          "indexed": true,
          "internalType": "address",
          "name": "previousOwner",
          "type": "address"
        },
        {
          "indexed": true,
          "internalType": "address",
          "name": "newOwner",
          "type": "address"
        }
      ],
      "name": "OwnershipTransferred",
      "type": "event"
    },
    {
      "anonymous": false,
      "inputs": [
        {
          "indexed": false,
          "internalType": "address",
          "name": "bountyAddress",
          "type": "address"
        },
        {
          "indexed": false,
          "internalType": "address",
          "name": "payoutTokenAddress",
          "type": "address"
        },
        {
          "indexed": false,
          "internalType": "uint256[]",
          "name": "payoutSchedule",
          "type": "uint256[]"
        },
        {
          "indexed": false,
          "internalType": "uint256",
          "name": "bountyType",
          "type": "uint256"
        },
        {
          "indexed": false,
          "internalType": "bytes",
          "name": "data",
          "type": "bytes"
        },
        {
          "indexed": false,
          "internalType": "uint256",
          "name": "version",
          "type": "uint256"
        }
      ],
      "name": "PayoutScheduleSet",
      "type": "event"
    },
    {
      "anonymous": false,
      "inputs": [
        {
          "indexed": false,
          "internalType": "address",
          "name": "bountyAddress",
          "type": "address"
        },
        {
          "indexed": false,
          "internalType": "address",
          "name": "payoutTokenAddress",
          "type": "address"
        },
        {
          "indexed": false,
          "internalType": "uint256",
          "name": "payoutTokenVolume",
          "type": "uint256"
        },
        {
          "indexed": false,
          "internalType": "uint256",
          "name": "bountyType",
          "type": "uint256"
        },
        {
          "indexed": false,
          "internalType": "bytes",
          "name": "data",
          "type": "bytes"
        },
        {
          "indexed": false,
          "internalType": "uint256",
          "name": "version",
          "type": "uint256"
        }
      ],
      "name": "PayoutSet",
      "type": "event"
    },
    {
      "anonymous": false,
      "inputs": [
        {
          "indexed": false,
          "internalType": "address",
          "name": "bountyAddress",
          "type": "address"
        },
        {
          "indexed": false,
          "internalType": "address",
          "name": "claimant",
          "type": "address"
        },
        {
          "indexed": false,
          "internalType": "bytes",
          "name": "data",
          "type": "bytes"
        },
        {
          "indexed": false,
          "internalType": "uint256",
          "name": "version",
          "type": "uint256"
        }
      ],
      "name": "TierClaimed",
      "type": "event"
    },
    {
      "anonymous": false,
      "inputs": [
        {
          "indexed": false,
          "internalType": "string",
          "name": "bountyId",
          "type": "string"
        },
        {
          "indexed": false,
          "internalType": "address",
          "name": "bountyAddress",
          "type": "address"
        },
        {
          "indexed": false,
          "internalType": "string",
          "name": "organization",
          "type": "string"
        },
        {
          "indexed": false,
          "internalType": "address",
          "name": "closer",
          "type": "address"
        },
        {
          "indexed": false,
          "internalType": "uint256",
          "name": "payoutTime",
          "type": "uint256"
        },
        {
          "indexed": false,
          "internalType": "address",
          "name": "tokenAddress",
          "type": "address"
        },
        {
          "indexed": false,
          "internalType": "uint256",
          "name": "volume",
          "type": "uint256"
        },
        {
          "indexed": false,
          "internalType": "uint256",
          "name": "bountyType",
          "type": "uint256"
        },
        {
          "indexed": false,
          "internalType": "bytes",
          "name": "data",
          "type": "bytes"
        },
        {
          "indexed": false,
          "internalType": "uint256",
          "name": "version",
          "type": "uint256"
        }
      ],
      "name": "TokenBalanceClaimed",
      "type": "event"
    },
    {
      "anonymous": false,
      "inputs": [
        {
          "indexed": false,
          "internalType": "bytes32",
          "name": "depositId",
          "type": "bytes32"
        },
        {
          "indexed": false,
          "internalType": "address",
          "name": "bountyAddress",
          "type": "address"
        },
        {
          "indexed": false,
          "internalType": "string",
          "name": "bountyId",
          "type": "string"
        },
        {
          "indexed": false,
          "internalType": "string",
          "name": "organization",
          "type": "string"
        },
        {
          "indexed": false,
          "internalType": "address",
          "name": "tokenAddress",
          "type": "address"
        },
        {
          "indexed": false,
          "internalType": "uint256",
          "name": "receiveTime",
          "type": "uint256"
        },
        {
          "indexed": false,
          "internalType": "address",
          "name": "sender",
          "type": "address"
        },
        {
          "indexed": false,
          "internalType": "uint256",
          "name": "expiration",
          "type": "uint256"
        },
        {
          "indexed": false,
          "internalType": "uint256",
          "name": "volume",
          "type": "uint256"
        },
        {
          "indexed": false,
          "internalType": "uint256",
          "name": "bountyType",
          "type": "uint256"
        },
        {
          "indexed": false,
          "internalType": "bytes",
          "name": "data",
          "type": "bytes"
        },
        {
          "indexed": false,
          "internalType": "uint256",
          "name": "version",
          "type": "uint256"
        }
      ],
      "name": "TokenDepositReceived",
      "type": "event"
    },
    {
      "anonymous": false,
      "inputs": [
        {
          "indexed": true,
          "internalType": "address",
          "name": "implementation",
          "type": "address"
        }
      ],
      "name": "Upgraded",
      "type": "event"
    },
    {
      "inputs": [],
      "name": "VERSION_1",
      "outputs": [
        {
          "internalType": "uint256",
          "name": "",
          "type": "uint256"
        }
      ],
      "stateMutability": "view",
      "type": "function"
    },
    {
      "inputs": [],
      "name": "VERSION_2",
      "outputs": [
        {
          "internalType": "uint256",
          "name": "",
          "type": "uint256"
        }
      ],
      "stateMutability": "view",
      "type": "function"
    },
    {
      "inputs": [],
      "name": "VERSION_3",
      "outputs": [
        {
          "internalType": "uint256",
          "name": "",
          "type": "uint256"
        }
      ],
      "stateMutability": "view",
      "type": "function"
    },
    {
      "inputs": [
        {
          "internalType": "address",
          "name": "_bountyAddress",
          "type": "address"
        }
      ],
      "name": "bountyIsClaimable",
      "outputs": [
        {
          "internalType": "bool",
          "name": "",
          "type": "bool"
        }
      ],
      "stateMutability": "view",
      "type": "function"
    },
    {
      "inputs": [
        {
          "internalType": "address",
          "name": "_bountyAddress",
          "type": "address"
        },
        {
          "internalType": "address",
          "name": "_closer",
          "type": "address"
        },
        {
          "internalType": "bytes",
          "name": "_closerData",
          "type": "bytes"
        }
      ],
      "name": "claimBounty",
      "outputs": [],
      "stateMutability": "nonpayable",
      "type": "function"
    },
    {
      "inputs": [
        {
          "internalType": "address",
          "name": "_bountyAddress",
          "type": "address"
        },
        {
          "internalType": "string",
          "name": "_externalUserId",
          "type": "string"
        },
        {
          "internalType": "bytes",
          "name": "_closerData",
          "type": "bytes"
        }
      ],
      "name": "directClaimTieredBounty",
      "outputs": [],
      "stateMutability": "nonpayable",
      "type": "function"
    },
    {
      "inputs": [
        {
          "internalType": "address",
          "name": "oracle",
          "type": "address"
        }
      ],
      "name": "initialize",
      "outputs": [],
      "stateMutability": "nonpayable",
      "type": "function"
    },
    {
      "inputs": [],
      "name": "kyc",
      "outputs": [
        {
          "internalType": "contract IKycValidity",
          "name": "",
          "type": "address"
        }
      ],
      "stateMutability": "view",
      "type": "function"
    },
    {
      "inputs": [],
      "name": "openQ",
      "outputs": [
        {
          "internalType": "address",
          "name": "",
          "type": "address"
        }
      ],
      "stateMutability": "view",
      "type": "function"
    },
    {
      "inputs": [],
      "name": "oracle",
      "outputs": [
        {
          "internalType": "address",
          "name": "",
          "type": "address"
        }
      ],
      "stateMutability": "view",
      "type": "function"
    },
    {
      "inputs": [],
      "name": "owner",
      "outputs": [
        {
          "internalType": "address",
          "name": "",
          "type": "address"
        }
      ],
      "stateMutability": "view",
      "type": "function"
    },
    {
      "inputs": [
        {
          "internalType": "address",
          "name": "_bountyAddress",
          "type": "address"
        },
        {
          "internalType": "string",
          "name": "_externalUserId",
          "type": "string"
        },
        {
          "internalType": "bytes",
          "name": "_closerData",
          "type": "bytes"
        }
      ],
      "name": "permissionedClaimTier",
      "outputs": [],
      "stateMutability": "nonpayable",
      "type": "function"
    },
    {
      "inputs": [],
      "name": "proxiableUUID",
      "outputs": [
        {
          "internalType": "bytes32",
          "name": "",
          "type": "bytes32"
        }
      ],
      "stateMutability": "view",
      "type": "function"
    },
    {
      "inputs": [],
      "name": "renounceOwnership",
      "outputs": [],
      "stateMutability": "nonpayable",
      "type": "function"
    },
    {
      "inputs": [
        {
          "internalType": "address",
          "name": "_kyc",
          "type": "address"
        }
      ],
      "name": "setKyc",
      "outputs": [],
      "stateMutability": "nonpayable",
      "type": "function"
    },
    {
      "inputs": [
        {
          "internalType": "address",
          "name": "_openQ",
          "type": "address"
        }
      ],
      "name": "setOpenQ",
      "outputs": [],
      "stateMutability": "nonpayable",
      "type": "function"
    },
    {
      "inputs": [
        {
          "internalType": "address",
          "name": "_newOracle",
          "type": "address"
        }
      ],
      "name": "transferOracle",
      "outputs": [],
      "stateMutability": "nonpayable",
      "type": "function"
    },
    {
      "inputs": [
        {
          "internalType": "address",
          "name": "newOwner",
          "type": "address"
        }
      ],
      "name": "transferOwnership",
      "outputs": [],
      "stateMutability": "nonpayable",
      "type": "function"
    },
    {
      "inputs": [
        {
          "internalType": "address",
          "name": "newImplementation",
          "type": "address"
        }
      ],
      "name": "upgradeTo",
      "outputs": [],
      "stateMutability": "nonpayable",
      "type": "function"
    },
    {
      "inputs": [
        {
          "internalType": "address",
          "name": "newImplementation",
          "type": "address"
        },
        {
          "internalType": "bytes",
          "name": "data",
          "type": "bytes"
        }
      ],
      "name": "upgradeToAndCall",
      "outputs": [],
      "stateMutability": "payable",
      "type": "function"
    }
  ],
  "bytecode": "0x60a06040523060805234801561001457600080fd5b506080516144bd6100ae6000396000818161039f015281816103e801528181610470015281816104b0015281816108a6015281816108e60152818161096201528181610a2601528181610a6601528181610b6301528181610ba30152818161111d0152818161115d0152818161121f0152818161125f015281816113b6015281816113f601528181611639015261167901526144bd6000f3fe60806040526004361061011f5760003560e01c80638da5cb5b116100a0578063e71aa31511610064578063e71aa315146102e5578063e732680614610305578063e7ae390a14610325578063f2fde38b14610355578063fdf993a81461037557600080fd5b80638da5cb5b1461024757806390d6b45f1461026557806399c2720614610285578063a9c6dfda146102a5578063c4d66de8146102c557600080fd5b806352d1902d116100e757806352d1902d146101b6578063715018a6146101cb5780637dc0d1d0146101e05780637dc81fa2146102125780638ca4d5841461023257600080fd5b80630a5dbc311461012457806326c20e5f1461014c5780633659cfe61461016157806346619e3f146101835780634f1ef286146101a3575b600080fd5b34801561013057600080fd5b50610139600381565b6040519081526020015b60405180910390f35b34801561015857600080fd5b50610139600181565b34801561016d57600080fd5b5061018161017c366004613b1d565b610395565b005b34801561018f57600080fd5b5061018161019e366004613b83565b610466565b6101816101b1366004613cb3565b61089c565b3480156101c257600080fd5b50610139610955565b3480156101d757600080fd5b50610181610a08565b3480156101ec57600080fd5b506033546001600160a01b03165b6040516001600160a01b039091168152602001610143565b34801561021e57600080fd5b5060ca546101fa906001600160a01b031681565b34801561023e57600080fd5b50610139600281565b34801561025357600080fd5b506034546001600160a01b03166101fa565b34801561027157600080fd5b5060cb546101fa906001600160a01b031681565b34801561029157600080fd5b506101816102a0366004613b1d565b610a1c565b3480156102b157600080fd5b506101816102c0366004613d17565b610ae6565b3480156102d157600080fd5b506101816102e0366004613b1d565b611053565b3480156102f157600080fd5b50610181610300366004613b83565b611215565b34801561031157600080fd5b50610181610320366004613b1d565b6113ac565b34801561033157600080fd5b50610345610340366004613b1d565b6114ab565b6040519015158152602001610143565b34801561036157600080fd5b50610181610370366004613b1d565b6115b9565b34801561038157600080fd5b50610181610390366004613b1d565b61162f565b6001600160a01b037f00000000000000000000000000000000000000000000000000000000000000001630036103e65760405162461bcd60e51b81526004016103dd90613d7c565b60405180910390fd5b7f00000000000000000000000000000000000000000000000000000000000000006001600160a01b03166104186116f9565b6001600160a01b03161461043e5760405162461bcd60e51b81526004016103dd90613dc8565b61044781611715565b604080516000808252602082019092526104639183919061171d565b50565b6001600160a01b037f00000000000000000000000000000000000000000000000000000000000000001630036104ae5760405162461bcd60e51b81526004016103dd90613d7c565b7f00000000000000000000000000000000000000000000000000000000000000006001600160a01b03166104e06116f9565b6001600160a01b0316146105065760405162461bcd60e51b81526004016103dd90613dc8565b60cb546040516309d2676360e41b81523360048201526001600160a01b0390911690639d26763090602401602060405180830381865afa15801561054e573d6000803e3d6000fd5b505050506040513d601f19601f820116820180604052508101906105729190613e14565b6105db5760405162461bcd60e51b815260206004820152603460248201527f596f75206d757374206861766520612076616c6964204b594320746f6b656e206044820152731d1bc81d5cd9481d1a1a5cc818dbdb9d1c9858dd60621b60648201526084016103dd565b60ca54604051631c401b3d60e21b815286916000916001600160a01b03909116906371006cf4906106129089908990600401613e5f565b6020604051808303816000875af1158015610631573d6000803e3d6000fd5b505050506040513d601f19601f820116820180604052508101906106559190613e7b565b6040805180820190915260158152744e4f5f4153534f4349415445445f4144445245535360581b60208201529091506001600160a01b0382166106ab5760405162461bcd60e51b81526004016103dd9190613ee8565b50600363ffffffff16826001600160a01b031663b3ca1f3b6040518163ffffffff1660e01b8152600401602060405180830381865afa1580156106f2573d6000803e3d6000fd5b505050506040513d601f19601f820116820180604052508101906107169190613efb565b0361072c576107278282868661188d565b6107f2565b600263ffffffff16826001600160a01b031663b3ca1f3b6040518163ffffffff1660e01b8152600401602060405180830381865afa158015610772573d6000803e3d6000fd5b505050506040513d601f19601f820116820180604052508101906107969190613efb565b036107a75761072782828686612250565b604080518082018252601a81527f4e4f545f415f434f4d5045544954494f4e5f434f4e54524143540000000000006020820152905162461bcd60e51b81526103dd9190600401613ee8565b7fd6de63792ebd5ae7b0da0e2a38b6fe8acd3b85073d8c96d84bd84271663d0eca42836001600160a01b031663b3ca1f3b6040518163ffffffff1660e01b8152600401602060405180830381865afa158015610852573d6000803e3d6000fd5b505050506040513d601f19601f820116820180604052508101906108769190613efb565b8686600360405161088b959493929190613f14565b60405180910390a150505050505050565b6001600160a01b037f00000000000000000000000000000000000000000000000000000000000000001630036108e45760405162461bcd60e51b81526004016103dd90613d7c565b7f00000000000000000000000000000000000000000000000000000000000000006001600160a01b03166109166116f9565b6001600160a01b03161461093c5760405162461bcd60e51b81526004016103dd90613dc8565b61094582611715565b6109518282600161171d565b5050565b6000306001600160a01b037f000000000000000000000000000000000000000000000000000000000000000016146109f55760405162461bcd60e51b815260206004820152603860248201527f555550535570677261646561626c653a206d757374206e6f742062652063616c60448201527f6c6564207468726f7567682064656c656761746563616c6c000000000000000060648201526084016103dd565b5060008051602061444183398151915290565b610a10612d48565b610a1a6000612da2565b565b6001600160a01b037f0000000000000000000000000000000000000000000000000000000000000000163003610a645760405162461bcd60e51b81526004016103dd90613d7c565b7f00000000000000000000000000000000000000000000000000000000000000006001600160a01b0316610a966116f9565b6001600160a01b031614610abc5760405162461bcd60e51b81526004016103dd90613dc8565b610ac4612d48565b60cb80546001600160a01b0319166001600160a01b0392909216919091179055565b6033546001600160a01b03163314610b595760405162461bcd60e51b815260206004820152603060248201527f4f7261636c697a653a2063616c6c6572206973206e6f7420746865206375727260448201526f656e74204f70656e51204f7261636c6560801b60648201526084016103dd565b6001600160a01b037f0000000000000000000000000000000000000000000000000000000000000000163003610ba15760405162461bcd60e51b81526004016103dd90613d7c565b7f00000000000000000000000000000000000000000000000000000000000000006001600160a01b0316610bd36116f9565b6001600160a01b031614610bf95760405162461bcd60e51b81526004016103dd90613dc8565b60008490506000816001600160a01b031663b3ca1f3b6040518163ffffffff1660e01b8152600401602060405180830381865afa158015610c3e573d6000803e3d6000fd5b505050506040513d601f19601f82011682018060405250810190610c629190613efb565b905080610f0b57600063ffffffff16826001600160a01b031663200d2ed26040518163ffffffff1660e01b8152600401602060405180830381865afa158015610caf573d6000803e3d6000fd5b505050506040513d601f19601f82011682018060405250810190610cd39190613efb565b1460405180604001604052806019815260200178434f4e54524143545f49535f4e4f545f434c41494d41424c4560381b81525090610d245760405162461bcd60e51b81526004016103dd9190613ee8565b50610d3182868686612df4565b604051632338d37760e01b81526001600160a01b03831690632338d37790610d6190889088908890600401613f46565b600060405180830381600087803b158015610d7b57600080fd5b505af1158015610d8f573d6000803e3d6000fd5b505050507fb9d76ba577270421a3b4826a02b81b7678f1d62214225408b99f94e42d78278c826001600160a01b031663c17bd75e6040518163ffffffff1660e01b8152600401600060405180830381865afa158015610df2573d6000803e3d6000fd5b505050506040513d6000823e601f3d908101601f19168201604052610e1a9190810190613f6b565b87846001600160a01b03166323bd4d7a6040518163ffffffff1660e01b8152600401600060405180830381865afa158015610e59573d6000803e3d6000fd5b505050506040513d6000823e601f3d908101601f19168201604052610e819190810190613f6b565b8842876001600160a01b031663b3ca1f3b6040518163ffffffff1660e01b8152600401602060405180830381865afa158015610ec1573d6000803e3d6000fd5b505050506040513d601f19601f82011682018060405250810190610ee59190613efb565b8a8a6003604051610efe99989796959493929190613fd9565b60405180910390a161100b565b6000198101610fe157600063ffffffff16826001600160a01b031663200d2ed26040518163ffffffff1660e01b8152600401602060405180830381865afa158015610f5a573d6000803e3d6000fd5b505050506040513d601f19601f82011682018060405250810190610f7e9190613efb565b1460405180604001604052806019815260200178434f4e54524143545f49535f4e4f545f434c41494d41424c4560381b81525090610fcf5760405162461bcd60e51b81526004016103dd9190613ee8565b50610fdc828686866135d6565b61100b565b6001198101610ff657610fdc82868686612250565b600219810161011f57610fdc8286868661188d565b7fd6de63792ebd5ae7b0da0e2a38b6fe8acd3b85073d8c96d84bd84271663d0eca428286866003604051611043959493929190613f14565b60405180910390a1505050505050565b600054610100900460ff16158080156110735750600054600160ff909116105b8061108d5750303b15801561108d575060005460ff166001145b6110f05760405162461bcd60e51b815260206004820152602e60248201527f496e697469616c697a61626c653a20636f6e747261637420697320616c72656160448201526d191e481a5b9a5d1a585b1a5e995960921b60648201526084016103dd565b6000805460ff191660011790558015611113576000805461ff0019166101001790555b6001600160a01b037f000000000000000000000000000000000000000000000000000000000000000016300361115b5760405162461bcd60e51b81526004016103dd90613d7c565b7f00000000000000000000000000000000000000000000000000000000000000006001600160a01b031661118d6116f9565b6001600160a01b0316146111b35760405162461bcd60e51b81526004016103dd90613dc8565b6111bb6137ac565b6111c36137db565b6111cc82613802565b8015610951576000805461ff0019169055604051600181527f7f26b83ff96e1f2b6a682f133852f6798a09c465da95921460cefb38474024989060200160405180910390a15050565b6001600160a01b037f000000000000000000000000000000000000000000000000000000000000000016300361125d5760405162461bcd60e51b81526004016103dd90613d7c565b7f00000000000000000000000000000000000000000000000000000000000000006001600160a01b031661128f6116f9565b6001600160a01b0316146112b55760405162461bcd60e51b81526004016103dd90613dc8565b6000859050806001600160a01b0316631d1438486040518163ffffffff1660e01b8152600401602060405180830381865afa1580156112f8573d6000803e3d6000fd5b505050506040513d601f19601f8201168201806040525081019061131c9190613e7b565b6001600160a01b0316336001600160a01b0316146040518060400160405280601181526020017021a0a62622a92fa727aa2fa4a9a9aaa2a960791b815250906113785760405162461bcd60e51b81526004016103dd9190613ee8565b5060ca54604051631c401b3d60e21b81526000916001600160a01b0316906371006cf4906106129089908990600401613e5f565b6001600160a01b037f00000000000000000000000000000000000000000000000000000000000000001630036113f45760405162461bcd60e51b81526004016103dd90613d7c565b7f00000000000000000000000000000000000000000000000000000000000000006001600160a01b03166114266116f9565b6001600160a01b03161461144c5760405162461bcd60e51b81526004016103dd90613dc8565b611454612d48565b60408051808201909152600f81526e4e4f5f5a45524f5f4144445245535360881b60208201526001600160a01b0382166114a15760405162461bcd60e51b81526004016103dd9190613ee8565b506104638161384b565b6000808290506000816001600160a01b031663200d2ed26040518163ffffffff1660e01b8152600401602060405180830381865afa1580156114f1573d6000803e3d6000fd5b505050506040513d601f19601f820116820180604052508101906115159190613efb565b90506000826001600160a01b031663b3ca1f3b6040518163ffffffff1660e01b8152600401602060405180830381865afa158015611557573d6000803e3d6000fd5b505050506040513d601f19601f8201168201806040525081019061157b9190613efb565b905080158061158a5750600181145b806115955750600281145b806115a05750600381145b156115ae5750159392505050565b506001149392505050565b6115c1612d48565b6001600160a01b0381166116265760405162461bcd60e51b815260206004820152602660248201527f4f776e61626c653a206e6577206f776e657220697320746865207a65726f206160448201526564647265737360d01b60648201526084016103dd565b61046381612da2565b6001600160a01b037f00000000000000000000000000000000000000000000000000000000000000001630036116775760405162461bcd60e51b81526004016103dd90613d7c565b7f00000000000000000000000000000000000000000000000000000000000000006001600160a01b03166116a96116f9565b6001600160a01b0316146116cf5760405162461bcd60e51b81526004016103dd90613dc8565b6116d7612d48565b60ca80546001600160a01b0319166001600160a01b0392909216919091179055565b600080516020614441833981519152546001600160a01b031690565b610463612d48565b7f4910fdfa16fed3260ed0e7147f7cc6da11a60208b5b9406d12a635614ffd91435460ff1615611755576117508361389d565b505050565b826001600160a01b03166352d1902d6040518163ffffffff1660e01b8152600401602060405180830381865afa9250505080156117af575060408051601f3d908101601f191682019092526117ac91810190613efb565b60015b6118125760405162461bcd60e51b815260206004820152602e60248201527f45524331393637557067726164653a206e657720696d706c656d656e7461746960448201526d6f6e206973206e6f74205555505360901b60648201526084016103dd565b60008051602061444183398151915281146118815760405162461bcd60e51b815260206004820152602960248201527f45524331393637557067726164653a20756e737570706f727465642070726f786044820152681a58589b195555525160ba1b60648201526084016103dd565b50611750838383613939565b600061189b82840184614073565b604051634ee5bdc760e11b8152600481018290529095506001600160a01b038a169450639dcb7b8e935060240191506118d19050565b602060405180830381865afa1580156118ee573d6000803e3d6000fd5b505050506040513d601f19601f820116820180604052508101906119129190613e14565b15604051806040016040528060148152602001731512515497d053149150511657d0d3105253515160621b8152509061195e5760405162461bcd60e51b81526004016103dd9190613ee8565b50846001600160a01b031663200d2ed26040518163ffffffff1660e01b8152600401602060405180830381865afa15801561199d573d6000803e3d6000fd5b505050506040513d601f19601f820116820180604052508101906119c19190613efb565b600003611b9957846001600160a01b03166322fa365e6040518163ffffffff1660e01b8152600401600060405180830381600087803b158015611a0357600080fd5b505af1158015611a17573d6000803e3d6000fd5b505050507fb9d76ba577270421a3b4826a02b81b7678f1d62214225408b99f94e42d78278c856001600160a01b031663c17bd75e6040518163ffffffff1660e01b8152600401600060405180830381865afa158015611a7a573d6000803e3d6000fd5b505050506040513d6000823e601f3d908101601f19168201604052611aa29190810190613f6b565b86876001600160a01b03166323bd4d7a6040518163ffffffff1660e01b8152600401600060405180830381865afa158015611ae1573d6000803e3d6000fd5b505050506040513d6000823e601f3d908101601f19168201604052611b099190810190613f6b565b6000428a6001600160a01b031663b3ca1f3b6040518163ffffffff1660e01b8152600401602060405180830381865afa158015611b4a573d6000803e3d6000fd5b505050506040513d601f19601f82011682018060405250810190611b6e9190613efb565b60408051600081526020810191829052611b9097969594939291600390614106565b60405180910390a15b60405163020702ff60e11b81526001600160a01b038581166004830152602482018390526000919087169063040e05fe906044016020604051808303816000875af1158015611bec573d6000803e3d6000fd5b505050506040513d601f19601f82011682018060405250810190611c109190613efb565b9050600080516020614421833981519152866001600160a01b031663c17bd75e6040518163ffffffff1660e01b8152600401600060405180830381865afa158015611c5f573d6000803e3d6000fd5b505050506040513d6000823e601f3d908101601f19168201604052611c879190810190613f6b565b87886001600160a01b03166323bd4d7a6040518163ffffffff1660e01b8152600401600060405180830381865afa158015611cc6573d6000803e3d6000fd5b505050506040513d6000823e601f3d908101601f19168201604052611cee9190810190613f6b565b88428b6001600160a01b0316635cc048386040518163ffffffff1660e01b8152600401602060405180830381865afa158015611d2e573d6000803e3d6000fd5b505050506040513d601f19601f82011682018060405250810190611d529190613e7b565b878d6001600160a01b031663b3ca1f3b6040518163ffffffff1660e01b8152600401602060405180830381865afa158015611d91573d6000803e3d6000fd5b505050506040513d601f19601f82011682018060405250810190611db59190613efb565b8c8c6003604051611dd09b9a9998979695949392919061417e565b60405180910390a160005b866001600160a01b03166377ede8a66040518163ffffffff1660e01b8152600401600060405180830381865afa158015611e19573d6000803e3d6000fd5b505050506040513d6000823e601f3d908101601f19168201604052611e41919081019061422e565b518110156121ed57604051630de2fe4b60e11b8152600481018290526000906001600160a01b03891690631bc5fc9690602401602060405180830381865afa158015611e91573d6000803e3d6000fd5b505050506040513d601f19601f82011682018060405250810190611eb59190613efb565b60405163160a30a360e01b81526004810182905290915084906001600160a01b038a169063160a30a390602401602060405180830381865afa158015611eff573d6000803e3d6000fd5b505050506040513d601f19601f82011682018060405250810190611f239190613efb565b036121da576040516371ec4ebf60e01b81526001600160a01b038881166004830152602482018390528916906371ec4ebf90604401600060405180830381600087803b158015611f7257600080fd5b505af1158015611f86573d6000803e3d6000fd5b505050507f7bec1fa43a121aa27c28cbbe6f5296871967c47439c054218395b34e41579e55886001600160a01b031663c17bd75e6040518163ffffffff1660e01b8152600401600060405180830381865afa158015611fe9573d6000803e3d6000fd5b505050506040513d6000823e601f3d908101601f191682016040526120119190810190613f6b565b898a6001600160a01b03166323bd4d7a6040518163ffffffff1660e01b8152600401600060405180830381865afa158015612050573d6000803e3d6000fd5b505050506040513d6000823e601f3d908101601f191682016040526120789190810190613f6b565b6040516397bb3ce960e01b8152600481018690528b9042906001600160a01b038f16906397bb3ce990602401602060405180830381865afa1580156120c1573d6000803e3d6000fd5b505050506040513d601f19601f820116820180604052508101906120e59190613e7b565b8e6001600160a01b031663f2321725896040518263ffffffff1660e01b815260040161211391815260200190565b602060405180830381865afa158015612130573d6000803e3d6000fd5b505050506040513d601f19601f820116820180604052508101906121549190613efb565b8f6001600160a01b031663b3ca1f3b6040518163ffffffff1660e01b8152600401602060405180830381865afa158015612192573d6000803e3d6000fd5b505050506040513d601f19601f820116820180604052508101906121b69190613efb565b8e8e60036040516121d19b9a9998979695949392919061417e565b60405180910390a15b50806121e5816142bf565b915050611ddb565b5060405163fe0329c960e01b8152600481018390526001600160a01b0387169063fe0329c990602401600060405180830381600087803b15801561223057600080fd5b505af1158015612244573d6000803e3d6000fd5b50505050505050505050565b600061225e82840184614073565b604051634ee5bdc760e11b8152600481018290529095506001600160a01b038a169450639dcb7b8e935060240191506122949050565b602060405180830381865afa1580156122b1573d6000803e3d6000fd5b505050506040513d601f19601f820116820180604052508101906122d59190613e14565b15604051806040016040528060148152602001731512515497d053149150511657d0d3105253515160621b815250906123215760405162461bcd60e51b81526004016103dd9190613ee8565b50846001600160a01b031663200d2ed26040518163ffffffff1660e01b8152600401602060405180830381865afa158015612360573d6000803e3d6000fd5b505050506040513d601f19601f820116820180604052508101906123849190613efb565b60000361255c57846001600160a01b03166322fa365e6040518163ffffffff1660e01b8152600401600060405180830381600087803b1580156123c657600080fd5b505af11580156123da573d6000803e3d6000fd5b505050507fb9d76ba577270421a3b4826a02b81b7678f1d62214225408b99f94e42d78278c856001600160a01b031663c17bd75e6040518163ffffffff1660e01b8152600401600060405180830381865afa15801561243d573d6000803e3d6000fd5b505050506040513d6000823e601f3d908101601f191682016040526124659190810190613f6b565b86876001600160a01b03166323bd4d7a6040518163ffffffff1660e01b8152600401600060405180830381865afa1580156124a4573d6000803e3d6000fd5b505050506040513d6000823e601f3d908101601f191682016040526124cc9190810190613f6b565b6000428a6001600160a01b031663b3ca1f3b6040518163ffffffff1660e01b8152600401602060405180830381865afa15801561250d573d6000803e3d6000fd5b505050506040513d601f19601f820116820180604052508101906125319190613efb565b6040805160008152602081019182905261255397969594939291600390614106565b60405180910390a15b60005b856001600160a01b031663ee8c24b86040518163ffffffff1660e01b8152600401600060405180830381865afa15801561259d573d6000803e3d6000fd5b505050506040513d6000823e601f3d908101601f191682016040526125c591908101906142e6565b518110156128d6576000866001600160a01b031663b3b41cea87858a6001600160a01b031663ee8c24b86040518163ffffffff1660e01b8152600401600060405180830381865afa15801561261e573d6000803e3d6000fd5b505050506040513d6000823e601f3d908101601f1916820160405261264691908101906142e6565b868151811061265757612657614375565b60200260200101516040518463ffffffff1660e01b815260040161269b939291906001600160a01b0393841681526020810192909252909116604082015260600190565b6020604051808303816000875af11580156126ba573d6000803e3d6000fd5b505050506040513d601f19601f820116820180604052508101906126de9190613efb565b9050600080516020614421833981519152876001600160a01b031663c17bd75e6040518163ffffffff1660e01b8152600401600060405180830381865afa15801561272d573d6000803e3d6000fd5b505050506040513d6000823e601f3d908101601f191682016040526127559190810190613f6b565b88896001600160a01b03166323bd4d7a6040518163ffffffff1660e01b8152600401600060405180830381865afa158015612794573d6000803e3d6000fd5b505050506040513d6000823e601f3d908101601f191682016040526127bc9190810190613f6b565b89428c6001600160a01b031663ee8c24b86040518163ffffffff1660e01b8152600401600060405180830381865afa1580156127fc573d6000803e3d6000fd5b505050506040513d6000823e601f3d908101601f1916820160405261282491908101906142e6565b888151811061283557612835614375565b6020026020010151878e6001600160a01b031663b3ca1f3b6040518163ffffffff1660e01b8152600401602060405180830381865afa15801561287c573d6000803e3d6000fd5b505050506040513d601f19601f820116820180604052508101906128a09190613efb565b8d8d60036040516128bb9b9a9998979695949392919061417e565b60405180910390a150806128ce816142bf565b91505061255f565b5060005b856001600160a01b03166377ede8a66040518163ffffffff1660e01b8152600401600060405180830381865afa158015612918573d6000803e3d6000fd5b505050506040513d6000823e601f3d908101601f19168201604052612940919081019061422e565b51811015612ce657604051630de2fe4b60e11b8152600481018290526000906001600160a01b03881690631bc5fc9690602401602060405180830381865afa158015612990573d6000803e3d6000fd5b505050506040513d601f19601f820116820180604052508101906129b49190613efb565b60405163160a30a360e01b81526004810182905290915083906001600160a01b0389169063160a30a390602401602060405180830381865afa1580156129fe573d6000803e3d6000fd5b505050506040513d601f19601f82011682018060405250810190612a229190613efb565b03612cd3576040516371ec4ebf60e01b81526001600160a01b038781166004830152602482018390528816906371ec4ebf90604401600060405180830381600087803b158015612a7157600080fd5b505af1158015612a85573d6000803e3d6000fd5b505050507f7bec1fa43a121aa27c28cbbe6f5296871967c47439c054218395b34e41579e55876001600160a01b031663c17bd75e6040518163ffffffff1660e01b8152600401600060405180830381865afa158015612ae8573d6000803e3d6000fd5b505050506040513d6000823e601f3d908101601f19168201604052612b109190810190613f6b565b88896001600160a01b03166323bd4d7a6040518163ffffffff1660e01b8152600401600060405180830381865afa158015612b4f573d6000803e3d6000fd5b505050506040513d6000823e601f3d908101601f19168201604052612b779190810190613f6b565b6040516397bb3ce960e01b8152600481018690528a9042906001600160a01b038e16906397bb3ce990602401602060405180830381865afa158015612bc0573d6000803e3d6000fd5b505050506040513d601f19601f82011682018060405250810190612be49190613e7b565b60405163f232172560e01b8152600481018990526001600160a01b038f169063f232172590602401602060405180830381865afa158015612c29573d6000803e3d6000fd5b505050506040513d601f19601f82011682018060405250810190612c4d9190613efb565b8e6001600160a01b031663b3ca1f3b6040518163ffffffff1660e01b8152600401602060405180830381865afa158015612c8b573d6000803e3d6000fd5b505050506040513d601f19601f82011682018060405250810190612caf9190613efb565b8d8d6003604051612cca9b9a9998979695949392919061417e565b60405180910390a15b5080612cde816142bf565b9150506128da565b5060405163fe0329c960e01b8152600481018290526001600160a01b0386169063fe0329c990602401600060405180830381600087803b158015612d2957600080fd5b505af1158015612d3d573d6000803e3d6000fd5b505050505050505050565b6034546001600160a01b03163314610a1a5760405162461bcd60e51b815260206004820181905260248201527f4f776e61626c653a2063616c6c6572206973206e6f7420746865206f776e657260448201526064016103dd565b603480546001600160a01b038381166001600160a01b0319831681179093556040519116919082907f8be0079c531659141344cd1fd0a4f28419497f9722a3daafe3b4186f6b6457e090600090a35050565b60005b846001600160a01b031663ee8c24b86040518163ffffffff1660e01b8152600401600060405180830381865afa158015612e35573d6000803e3d6000fd5b505050506040513d6000823e601f3d908101601f19168201604052612e5d91908101906142e6565b51811015613163576000856001600160a01b031663cb2da3db86886001600160a01b031663ee8c24b86040518163ffffffff1660e01b8152600401600060405180830381865afa158015612eb5573d6000803e3d6000fd5b505050506040513d6000823e601f3d908101601f19168201604052612edd91908101906142e6565b8581518110612eee57612eee614375565b60200260200101516040518363ffffffff1660e01b8152600401612f289291906001600160a01b0392831681529116602082015260400190565b6020604051808303816000875af1158015612f47573d6000803e3d6000fd5b505050506040513d601f19601f82011682018060405250810190612f6b9190613efb565b9050600080516020614421833981519152866001600160a01b031663c17bd75e6040518163ffffffff1660e01b8152600401600060405180830381865afa158015612fba573d6000803e3d6000fd5b505050506040513d6000823e601f3d908101601f19168201604052612fe29190810190613f6b565b87886001600160a01b03166323bd4d7a6040518163ffffffff1660e01b8152600401600060405180830381865afa158015613021573d6000803e3d6000fd5b505050506040513d6000823e601f3d908101601f191682016040526130499190810190613f6b565b88428b6001600160a01b031663ee8c24b86040518163ffffffff1660e01b8152600401600060405180830381865afa158015613089573d6000803e3d6000fd5b505050506040513d6000823e601f3d908101601f191682016040526130b191908101906142e6565b88815181106130c2576130c2614375565b6020026020010151878d6001600160a01b031663b3ca1f3b6040518163ffffffff1660e01b8152600401602060405180830381865afa158015613109573d6000803e3d6000fd5b505050506040513d601f19601f8201168201806040525081019061312d9190613efb565b8c8c60036040516131489b9a9998979695949392919061417e565b60405180910390a1508061315b816142bf565b915050612df7565b5060005b846001600160a01b03166377ede8a66040518163ffffffff1660e01b8152600401600060405180830381865afa1580156131a5573d6000803e3d6000fd5b505050506040513d6000823e601f3d908101601f191682016040526131cd919081019061422e565b518110156135cf57604051630de2fe4b60e11b8152600481018290526001600160a01b038616906371ec4ebf9086908390631bc5fc9690602401602060405180830381865afa158015613224573d6000803e3d6000fd5b505050506040513d601f19601f820116820180604052508101906132489190613efb565b6040516001600160e01b031960e085901b1681526001600160a01b0390921660048301526024820152604401600060405180830381600087803b15801561328e57600080fd5b505af11580156132a2573d6000803e3d6000fd5b505050507f7bec1fa43a121aa27c28cbbe6f5296871967c47439c054218395b34e41579e55856001600160a01b031663c17bd75e6040518163ffffffff1660e01b8152600401600060405180830381865afa158015613305573d6000803e3d6000fd5b505050506040513d6000823e601f3d908101601f1916820160405261332d9190810190613f6b565b86876001600160a01b03166323bd4d7a6040518163ffffffff1660e01b8152600401600060405180830381865afa15801561336c573d6000803e3d6000fd5b505050506040513d6000823e601f3d908101601f191682016040526133949190810190613f6b565b604051630de2fe4b60e11b815260048101869052889042906001600160a01b038c16906397bb3ce9908290631bc5fc9690602401602060405180830381865afa1580156133e5573d6000803e3d6000fd5b505050506040513d601f19601f820116820180604052508101906134099190613efb565b6040518263ffffffff1660e01b815260040161342791815260200190565b602060405180830381865afa158015613444573d6000803e3d6000fd5b505050506040513d601f19601f820116820180604052508101906134689190613e7b565b604051630de2fe4b60e11b8152600481018990526001600160a01b038d169063f2321725908290631bc5fc9690602401602060405180830381865afa1580156134b5573d6000803e3d6000fd5b505050506040513d601f19601f820116820180604052508101906134d99190613efb565b6040518263ffffffff1660e01b81526004016134f791815260200190565b602060405180830381865afa158015613514573d6000803e3d6000fd5b505050506040513d601f19601f820116820180604052508101906135389190613efb565b8c6001600160a01b031663b3ca1f3b6040518163ffffffff1660e01b8152600401602060405180830381865afa158015613576573d6000803e3d6000fd5b505050506040513d601f19601f8201168201806040525081019061359a9190613efb565b8b8b60036040516135b59b9a9998979695949392919061417e565b60405180910390a1806135c7816142bf565b915050613167565b5050505050565b600080856001600160a01b031663a09dd1aa8686866040518463ffffffff1660e01b815260040161360993929190613f46565b60408051808303816000875af1158015613627573d6000803e3d6000fd5b505050506040513d601f19601f8201168201806040525081019061364b919061438b565b91509150600080516020614421833981519152866001600160a01b031663c17bd75e6040518163ffffffff1660e01b8152600401600060405180830381865afa15801561369c573d6000803e3d6000fd5b505050506040513d6000823e601f3d908101601f191682016040526136c49190810190613f6b565b87886001600160a01b03166323bd4d7a6040518163ffffffff1660e01b8152600401600060405180830381865afa158015613703573d6000803e3d6000fd5b505050506040513d6000823e601f3d908101601f1916820160405261372b9190810190613f6b565b884287878d6001600160a01b031663b3ca1f3b6040518163ffffffff1660e01b8152600401602060405180830381865afa15801561376d573d6000803e3d6000fd5b505050506040513d601f19601f820116820180604052508101906137919190613efb565b8c8c60036040516110439b9a9998979695949392919061417e565b600054610100900460ff166137d35760405162461bcd60e51b81526004016103dd906143b9565b610a1a613964565b600054610100900460ff16610a1a5760405162461bcd60e51b81526004016103dd906143b9565b600054610100900460ff166138295760405162461bcd60e51b81526004016103dd906143b9565b603380546001600160a01b0319166001600160a01b0392909216919091179055565b603380546001600160a01b038381166001600160a01b0319831681179093556040519116919082907f9b0948b943e24ff3413cb400b2eeae4337138739aaf31759dc6e813e8076fbc390600090a35050565b6001600160a01b0381163b61390a5760405162461bcd60e51b815260206004820152602d60248201527f455243313936373a206e657720696d706c656d656e746174696f6e206973206e60448201526c1bdd08184818dbdb9d1c9858dd609a1b60648201526084016103dd565b60008051602061444183398151915280546001600160a01b0319166001600160a01b0392909216919091179055565b61394283613994565b60008251118061394f5750805b156117505761395e83836139d4565b50505050565b600054610100900460ff1661398b5760405162461bcd60e51b81526004016103dd906143b9565b610a1a33612da2565b61399d8161389d565b6040516001600160a01b038216907fbc7cd75a20ee27fd9adebab32041f755214dbc6bffa90cc0225b39da2e5c2d3b90600090a250565b60606001600160a01b0383163b613a3c5760405162461bcd60e51b815260206004820152602660248201527f416464726573733a2064656c65676174652063616c6c20746f206e6f6e2d636f6044820152651b9d1c9858dd60d21b60648201526084016103dd565b600080846001600160a01b031684604051613a579190614404565b600060405180830381855af49150503d8060008114613a92576040519150601f19603f3d011682016040523d82523d6000602084013e613a97565b606091505b5091509150613abf828260405180606001604052806027815260200161446160279139613ac8565b95945050505050565b60608315613ad7575081613b01565b825115613ae75782518084602001fd5b8160405162461bcd60e51b81526004016103dd9190613ee8565b9392505050565b6001600160a01b038116811461046357600080fd5b600060208284031215613b2f57600080fd5b8135613b0181613b08565b60008083601f840112613b4c57600080fd5b50813567ffffffffffffffff811115613b6457600080fd5b602083019150836020828501011115613b7c57600080fd5b9250929050565b600080600080600060608688031215613b9b57600080fd5b8535613ba681613b08565b9450602086013567ffffffffffffffff80821115613bc357600080fd5b613bcf89838a01613b3a565b90965094506040880135915080821115613be857600080fd5b50613bf588828901613b3a565b969995985093965092949392505050565b634e487b7160e01b600052604160045260246000fd5b604051601f8201601f1916810167ffffffffffffffff81118282101715613c4557613c45613c06565b604052919050565b600067ffffffffffffffff821115613c6757613c67613c06565b50601f01601f191660200190565b6000613c88613c8384613c4d565b613c1c565b9050828152838383011115613c9c57600080fd5b828260208301376000602084830101529392505050565b60008060408385031215613cc657600080fd5b8235613cd181613b08565b9150602083013567ffffffffffffffff811115613ced57600080fd5b8301601f81018513613cfe57600080fd5b613d0d85823560208401613c75565b9150509250929050565b60008060008060608587031215613d2d57600080fd5b8435613d3881613b08565b93506020850135613d4881613b08565b9250604085013567ffffffffffffffff811115613d6457600080fd5b613d7087828801613b3a565b95989497509550505050565b6020808252602c908201527f46756e6374696f6e206d7573742062652063616c6c6564207468726f7567682060408201526b19195b1959d85d1958d85b1b60a21b606082015260800190565b6020808252602c908201527f46756e6374696f6e206d7573742062652063616c6c6564207468726f7567682060408201526b6163746976652070726f787960a01b606082015260800190565b600060208284031215613e2657600080fd5b81518015158114613b0157600080fd5b81835281816020850137506000828201602090810191909152601f909101601f19169091010190565b602081526000613e73602083018486613e36565b949350505050565b600060208284031215613e8d57600080fd5b8151613b0181613b08565b60005b83811015613eb3578181015183820152602001613e9b565b50506000910152565b60008151808452613ed4816020860160208601613e98565b601f01601f19169290920160200192915050565b602081526000613b016020830184613ebc565b600060208284031215613f0d57600080fd5b5051919050565b858152846020820152608060408201526000613f34608083018587613e36565b90508260608301529695505050505050565b6001600160a01b0384168152604060208201819052600090613abf9083018486613e36565b600060208284031215613f7d57600080fd5b815167ffffffffffffffff811115613f9457600080fd5b8201601f81018413613fa557600080fd5b8051613fb3613c8382613c4d565b818152856020838501011115613fc857600080fd5b613abf826020830160208601613e98565b6000610100808352613fed8184018d613ebc565b6001600160a01b038c811660208601528482036040860152909150614012828c613ebc565b9150808a166060850152508760808401528660a084015282810360c084015261403c818688613e36565b9150508260e08301529a9950505050505050505050565b600082601f83011261406457600080fd5b613b0183833560208501613c75565b600080600080600060a0868803121561408b57600080fd5b853561409681613b08565b9450602086013567ffffffffffffffff808211156140b357600080fd5b6140bf89838a01614053565b9550604088013591506140d182613b08565b909350606087013590808211156140e757600080fd5b506140f488828901614053565b95989497509295608001359392505050565b600061010080835261411a8184018c613ebc565b6001600160a01b038b81166020860152848203604086015290915061413f828b613ebc565b91508089166060850152508660808401528560a084015282810360c08401526141688186613ebc565b9150508260e08301529998505050505050505050565b60006101408083526141928184018f613ebc565b6001600160a01b038e8116602086015284820360408601529091506141b7828e613ebc565b9150808c1660608501528a6080850152808a1660a0850152508760c08401528660e08401528281036101008401526141f0818688613e36565b915050826101208301529c9b505050505050505050505050565b600067ffffffffffffffff82111561422457614224613c06565b5060051b60200190565b6000602080838503121561424157600080fd5b825167ffffffffffffffff81111561425857600080fd5b8301601f8101851361426957600080fd5b8051614277613c838261420a565b81815260059190911b8201830190838101908783111561429657600080fd5b928401925b828410156142b45783518252928401929084019061429b565b979650505050505050565b6000600182016142df57634e487b7160e01b600052601160045260246000fd5b5060010190565b600060208083850312156142f957600080fd5b825167ffffffffffffffff81111561431057600080fd5b8301601f8101851361432157600080fd5b805161432f613c838261420a565b81815260059190911b8201830190838101908783111561434e57600080fd5b928401925b828410156142b457835161436681613b08565b82529284019290840190614353565b634e487b7160e01b600052603260045260246000fd5b6000806040838503121561439e57600080fd5b82516143a981613b08565b6020939093015192949293505050565b6020808252602b908201527f496e697469616c697a61626c653a20636f6e7472616374206973206e6f74206960408201526a6e697469616c697a696e6760a81b606082015260800190565b60008251614416818460208701613e98565b919091019291505056fe740c702bb9b71852192a0a943140360ddb500d906a1f945b48c4a6bf78047852360894a13ba1a3210667c828492db98dca3e2076cc3735a920a3ca505d382bbc416464726573733a206c6f772d6c6576656c2064656c65676174652063616c6c206661696c6564a2646970667358221220a211287d7eaac25fdf28d9ce06cd0e93353ffd17e128bdb1e5042cf3187cd3eb64736f6c63430008100033",
  "linkReferences": {},
  "deployedLinkReferences": {}
}