{
  "_format": "hh-sol-artifact-1",
  "contractName": "ClaimManagerV3",
  "sourceName": "contracts/ClaimManager/Implementations/ClaimManagerV3.sol",
  "abi": [
    {
      "inputs": [],
      "stateMutability": "nonpayable",
      "type": "constructor"
    },
    {
      "anonymous": false,
      "inputs": [
        {
          "indexed": false,
          "internalType": "address",
          "name": "previousAdmin",
          "type": "address"
        },
        {
          "indexed": false,
          "internalType": "address",
          "name": "newAdmin",
          "type": "address"
        }
      ],
      "name": "AdminChanged",
      "type": "event"
    },
    {
      "anonymous": false,
      "inputs": [
        {
          "indexed": true,
          "internalType": "address",
          "name": "beacon",
          "type": "address"
        }
      ],
      "name": "BeaconUpgraded",
      "type": "event"
    },
    {
      "anonymous": false,
      "inputs": [
        {
          "indexed": false,
          "internalType": "string",
          "name": "bountyId",
          "type": "string"
        },
        {
          "indexed": false,
          "internalType": "address",
          "name": "bountyAddress",
          "type": "address"
        },
        {
          "indexed": false,
          "internalType": "string",
          "name": "organization",
          "type": "string"
        },
        {
          "indexed": false,
          "internalType": "address",
          "name": "closer",
          "type": "address"
        },
        {
          "indexed": false,
          "internalType": "uint256",
          "name": "bountyClosedTime",
          "type": "uint256"
        },
        {
          "indexed": false,
          "internalType": "uint256",
          "name": "bountyType",
          "type": "uint256"
        },
        {
          "indexed": false,
          "internalType": "bytes",
          "name": "data",
          "type": "bytes"
        },
        {
          "indexed": false,
          "internalType": "uint256",
          "name": "version",
          "type": "uint256"
        }
      ],
      "name": "BountyClosed",
      "type": "event"
    },
    {
      "anonymous": false,
      "inputs": [
        {
          "indexed": false,
          "internalType": "string",
          "name": "bountyId",
          "type": "string"
        },
        {
          "indexed": false,
          "internalType": "string",
          "name": "organization",
          "type": "string"
        },
        {
          "indexed": false,
          "internalType": "address",
          "name": "issuerAddress",
          "type": "address"
        },
        {
          "indexed": false,
          "internalType": "address",
          "name": "bountyAddress",
          "type": "address"
        },
        {
          "indexed": false,
          "internalType": "uint256",
          "name": "bountyMintTime",
          "type": "uint256"
        },
        {
          "indexed": false,
          "internalType": "uint256",
          "name": "bountyType",
          "type": "uint256"
        },
        {
          "indexed": false,
          "internalType": "bytes",
          "name": "data",
          "type": "bytes"
        },
        {
          "indexed": false,
          "internalType": "uint256",
          "name": "version",
          "type": "uint256"
        }
      ],
      "name": "BountyCreated",
      "type": "event"
    },
    {
      "anonymous": false,
      "inputs": [
        {
          "indexed": false,
          "internalType": "uint256",
          "name": "claimTime",
          "type": "uint256"
        },
        {
          "indexed": false,
          "internalType": "uint256",
          "name": "bountyType",
          "type": "uint256"
        },
        {
          "indexed": false,
          "internalType": "bytes",
          "name": "data",
          "type": "bytes"
        },
        {
          "indexed": false,
          "internalType": "uint256",
          "name": "version",
          "type": "uint256"
        }
      ],
      "name": "ClaimSuccess",
      "type": "event"
    },
    {
      "anonymous": false,
      "inputs": [
        {
          "indexed": false,
          "internalType": "bytes32",
          "name": "depositId",
          "type": "bytes32"
        },
        {
          "indexed": false,
          "internalType": "uint256",
          "name": "newExpiration",
          "type": "uint256"
        },
        {
          "indexed": false,
          "internalType": "uint256",
          "name": "bountyType",
          "type": "uint256"
        },
        {
          "indexed": false,
          "internalType": "bytes",
          "name": "data",
          "type": "bytes"
        },
        {
          "indexed": false,
          "internalType": "uint256",
          "name": "version",
          "type": "uint256"
        }
      ],
      "name": "DepositExtended",
      "type": "event"
    },
    {
      "anonymous": false,
      "inputs": [
        {
          "indexed": false,
          "internalType": "bytes32",
          "name": "depositId",
          "type": "bytes32"
        },
        {
          "indexed": false,
          "internalType": "string",
          "name": "bountyId",
          "type": "string"
        },
        {
          "indexed": false,
          "internalType": "address",
          "name": "bountyAddress",
          "type": "address"
        },
        {
          "indexed": false,
          "internalType": "string",
          "name": "organization",
          "type": "string"
        },
        {
          "indexed": false,
          "internalType": "uint256",
          "name": "refundTime",
          "type": "uint256"
        },
        {
          "indexed": false,
          "internalType": "address",
          "name": "tokenAddress",
          "type": "address"
        },
        {
          "indexed": false,
          "internalType": "uint256",
          "name": "volume",
          "type": "uint256"
        },
        {
          "indexed": false,
          "internalType": "uint256",
          "name": "bountyType",
          "type": "uint256"
        },
        {
          "indexed": false,
          "internalType": "bytes",
          "name": "data",
          "type": "bytes"
        },
        {
          "indexed": false,
          "internalType": "uint256",
          "name": "version",
          "type": "uint256"
        }
      ],
      "name": "DepositRefunded",
      "type": "event"
    },
    {
      "anonymous": false,
      "inputs": [
        {
          "indexed": false,
          "internalType": "string",
          "name": "externalUserId",
          "type": "string"
        },
        {
          "indexed": false,
          "internalType": "address",
          "name": "newAddress",
          "type": "address"
        },
        {
          "indexed": false,
          "internalType": "bytes",
          "name": "data",
          "type": "bytes"
        },
        {
          "indexed": false,
          "internalType": "uint256",
          "name": "version",
          "type": "uint256"
        }
      ],
      "name": "ExternalUserIdAssociatedWithAddress",
      "type": "event"
    },
    {
      "anonymous": false,
      "inputs": [
        {
          "indexed": false,
          "internalType": "address",
          "name": "bountyAddress",
          "type": "address"
        },
        {
          "indexed": false,
          "internalType": "address",
          "name": "fundingGoalTokenAddress",
          "type": "address"
        },
        {
          "indexed": false,
          "internalType": "uint256",
          "name": "fundingGoalVolume",
          "type": "uint256"
        },
        {
          "indexed": false,
          "internalType": "uint256",
          "name": "bountyType",
          "type": "uint256"
        },
        {
          "indexed": false,
          "internalType": "bytes",
          "name": "data",
          "type": "bytes"
        },
        {
          "indexed": false,
          "internalType": "uint256",
          "name": "version",
          "type": "uint256"
        }
      ],
      "name": "FundingGoalSet",
      "type": "event"
    },
    {
      "anonymous": false,
      "inputs": [
        {
          "indexed": false,
          "internalType": "uint8",
          "name": "version",
          "type": "uint8"
        }
      ],
      "name": "Initialized",
      "type": "event"
    },
    {
      "anonymous": false,
      "inputs": [
        {
          "indexed": false,
          "internalType": "address",
          "name": "bountyAddress",
          "type": "address"
        },
        {
          "indexed": false,
          "internalType": "bool",
          "name": "invoiceCompletedSet",
          "type": "bool"
        },
        {
          "indexed": false,
          "internalType": "bytes",
          "name": "data",
          "type": "bytes"
        },
        {
          "indexed": false,
          "internalType": "uint256",
          "name": "version",
          "type": "uint256"
        }
      ],
      "name": "InvoiceCompletedSet",
      "type": "event"
    },
    {
      "anonymous": false,
      "inputs": [
        {
          "indexed": false,
          "internalType": "address",
          "name": "bountyAddress",
          "type": "address"
        },
        {
          "indexed": false,
          "internalType": "bool",
          "name": "invoiceable",
          "type": "bool"
        },
        {
          "indexed": false,
          "internalType": "bytes",
          "name": "data",
          "type": "bytes"
        },
        {
          "indexed": false,
          "internalType": "uint256",
          "name": "version",
          "type": "uint256"
        }
      ],
      "name": "InvoiceableSet",
      "type": "event"
    },
    {
      "anonymous": false,
      "inputs": [
        {
          "indexed": false,
          "internalType": "address",
          "name": "bountyAddress",
          "type": "address"
        },
        {
          "indexed": false,
          "internalType": "bool",
          "name": "kycRequired",
          "type": "bool"
        },
        {
          "indexed": false,
          "internalType": "bytes",
          "name": "data",
          "type": "bytes"
        },
        {
          "indexed": false,
          "internalType": "uint256",
          "name": "version",
          "type": "uint256"
        }
      ],
      "name": "KYCRequiredSet",
      "type": "event"
    },
    {
      "anonymous": false,
      "inputs": [
        {
          "indexed": false,
          "internalType": "string",
          "name": "bountyId",
          "type": "string"
        },
        {
          "indexed": false,
          "internalType": "address",
          "name": "bountyAddress",
          "type": "address"
        },
        {
          "indexed": false,
          "internalType": "string",
          "name": "organization",
          "type": "string"
        },
        {
          "indexed": false,
          "internalType": "address",
          "name": "closer",
          "type": "address"
        },
        {
          "indexed": false,
          "internalType": "uint256",
          "name": "payoutTime",
          "type": "uint256"
        },
        {
          "indexed": false,
          "internalType": "address",
          "name": "tokenAddress",
          "type": "address"
        },
        {
          "indexed": false,
          "internalType": "uint256",
          "name": "tokenId",
          "type": "uint256"
        },
        {
          "indexed": false,
          "internalType": "uint256",
          "name": "bountyType",
          "type": "uint256"
        },
        {
          "indexed": false,
          "internalType": "bytes",
          "name": "data",
          "type": "bytes"
        },
        {
          "indexed": false,
          "internalType": "uint256",
          "name": "version",
          "type": "uint256"
        }
      ],
      "name": "NFTClaimed",
      "type": "event"
    },
    {
      "anonymous": false,
      "inputs": [
        {
          "indexed": false,
          "internalType": "bytes32",
          "name": "depositId",
          "type": "bytes32"
        },
        {
          "indexed": false,
          "internalType": "address",
          "name": "bountyAddress",
          "type": "address"
        },
        {
          "indexed": false,
          "internalType": "string",
          "name": "bountyId",
          "type": "string"
        },
        {
          "indexed": false,
          "internalType": "string",
          "name": "organization",
          "type": "string"
        },
        {
          "indexed": false,
          "internalType": "address",
          "name": "tokenAddress",
          "type": "address"
        },
        {
          "indexed": false,
          "internalType": "uint256",
          "name": "receiveTime",
          "type": "uint256"
        },
        {
          "indexed": false,
          "internalType": "address",
          "name": "sender",
          "type": "address"
        },
        {
          "indexed": false,
          "internalType": "uint256",
          "name": "expiration",
          "type": "uint256"
        },
        {
          "indexed": false,
          "internalType": "uint256",
          "name": "tokenId",
          "type": "uint256"
        },
        {
          "indexed": false,
          "internalType": "uint256",
          "name": "bountyType",
          "type": "uint256"
        },
        {
          "indexed": false,
          "internalType": "bytes",
          "name": "data",
          "type": "bytes"
        },
        {
          "indexed": false,
          "internalType": "uint256",
          "name": "version",
          "type": "uint256"
        }
      ],
      "name": "NFTDepositReceived",
      "type": "event"
    },
    {
      "anonymous": false,
      "inputs": [
        {
          "indexed": true,
          "internalType": "address",
          "name": "previousOracle",
          "type": "address"
        },
        {
          "indexed": true,
          "internalType": "address",
          "name": "newOracle",
          "type": "address"
        }
      ],
      "name": "OracleTransferred",
      "type": "event"
    },
    {
      "anonymous": false,
      "inputs": [
        {
          "indexed": true,
          "internalType": "address",
          "name": "previousOwner",
          "type": "address"
        },
        {
          "indexed": true,
          "internalType": "address",
          "name": "newOwner",
          "type": "address"
        }
      ],
      "name": "OwnershipTransferred",
      "type": "event"
    },
    {
      "anonymous": false,
      "inputs": [
        {
          "indexed": false,
          "internalType": "address",
          "name": "bountyAddress",
          "type": "address"
        },
        {
          "indexed": false,
          "internalType": "address",
          "name": "payoutTokenAddress",
          "type": "address"
        },
        {
          "indexed": false,
          "internalType": "uint256[]",
          "name": "payoutSchedule",
          "type": "uint256[]"
        },
        {
          "indexed": false,
          "internalType": "uint256",
          "name": "bountyType",
          "type": "uint256"
        },
        {
          "indexed": false,
          "internalType": "bytes",
          "name": "data",
          "type": "bytes"
        },
        {
          "indexed": false,
          "internalType": "uint256",
          "name": "version",
          "type": "uint256"
        }
      ],
      "name": "PayoutScheduleSet",
      "type": "event"
    },
    {
      "anonymous": false,
      "inputs": [
        {
          "indexed": false,
          "internalType": "address",
          "name": "bountyAddress",
          "type": "address"
        },
        {
          "indexed": false,
          "internalType": "address",
          "name": "payoutTokenAddress",
          "type": "address"
        },
        {
          "indexed": false,
          "internalType": "uint256",
          "name": "payoutTokenVolume",
          "type": "uint256"
        },
        {
          "indexed": false,
          "internalType": "uint256",
          "name": "bountyType",
          "type": "uint256"
        },
        {
          "indexed": false,
          "internalType": "bytes",
          "name": "data",
          "type": "bytes"
        },
        {
          "indexed": false,
          "internalType": "uint256",
          "name": "version",
          "type": "uint256"
        }
      ],
      "name": "PayoutSet",
      "type": "event"
    },
    {
      "anonymous": false,
      "inputs": [
        {
          "indexed": false,
          "internalType": "address",
          "name": "bountyAddress",
          "type": "address"
        },
        {
          "indexed": false,
          "internalType": "bool",
          "name": "supportDocumentsCompleted",
          "type": "bool"
        },
        {
          "indexed": false,
          "internalType": "bytes",
          "name": "data",
          "type": "bytes"
        },
        {
          "indexed": false,
          "internalType": "uint256",
          "name": "version",
          "type": "uint256"
        }
      ],
      "name": "SupportDocumentsCompletedSet",
      "type": "event"
    },
    {
      "anonymous": false,
      "inputs": [
        {
          "indexed": false,
          "internalType": "address",
          "name": "bountyAddress",
          "type": "address"
        },
        {
          "indexed": false,
          "internalType": "bool",
          "name": "supportingDocuments",
          "type": "bool"
        },
        {
          "indexed": false,
          "internalType": "bytes",
          "name": "data",
          "type": "bytes"
        },
        {
          "indexed": false,
          "internalType": "uint256",
          "name": "version",
          "type": "uint256"
        }
      ],
      "name": "SupportingDocumentsSet",
      "type": "event"
    },
    {
      "anonymous": false,
      "inputs": [
        {
          "indexed": false,
          "internalType": "address",
          "name": "bountyAddress",
          "type": "address"
        },
        {
          "indexed": false,
          "internalType": "address",
          "name": "claimant",
          "type": "address"
        },
        {
          "indexed": false,
          "internalType": "bytes",
          "name": "data",
          "type": "bytes"
        },
        {
          "indexed": false,
          "internalType": "uint256",
          "name": "version",
          "type": "uint256"
        }
      ],
      "name": "TierClaimed",
      "type": "event"
    },
    {
      "anonymous": false,
      "inputs": [
        {
          "indexed": false,
          "internalType": "address",
          "name": "bountyAddress",
          "type": "address"
        },
        {
          "indexed": false,
          "internalType": "string",
          "name": "winner",
          "type": "string"
        },
        {
          "indexed": false,
          "internalType": "uint256",
          "name": "tier",
          "type": "uint256"
        },
        {
          "indexed": false,
          "internalType": "bytes",
          "name": "data",
          "type": "bytes"
        },
        {
          "indexed": false,
          "internalType": "uint256",
          "name": "version",
          "type": "uint256"
        }
      ],
      "name": "TierWinnerSelected",
      "type": "event"
    },
    {
      "anonymous": false,
      "inputs": [
        {
          "indexed": false,
          "internalType": "string",
          "name": "bountyId",
          "type": "string"
        },
        {
          "indexed": false,
          "internalType": "address",
          "name": "bountyAddress",
          "type": "address"
        },
        {
          "indexed": false,
          "internalType": "string",
          "name": "organization",
          "type": "string"
        },
        {
          "indexed": false,
          "internalType": "address",
          "name": "closer",
          "type": "address"
        },
        {
          "indexed": false,
          "internalType": "uint256",
          "name": "payoutTime",
          "type": "uint256"
        },
        {
          "indexed": false,
          "internalType": "address",
          "name": "tokenAddress",
          "type": "address"
        },
        {
          "indexed": false,
          "internalType": "uint256",
          "name": "volume",
          "type": "uint256"
        },
        {
          "indexed": false,
          "internalType": "uint256",
          "name": "bountyType",
          "type": "uint256"
        },
        {
          "indexed": false,
          "internalType": "bytes",
          "name": "data",
          "type": "bytes"
        },
        {
          "indexed": false,
          "internalType": "uint256",
          "name": "version",
          "type": "uint256"
        }
      ],
      "name": "TokenBalanceClaimed",
      "type": "event"
    },
    {
      "anonymous": false,
      "inputs": [
        {
          "indexed": false,
          "internalType": "bytes32",
          "name": "depositId",
          "type": "bytes32"
        },
        {
          "indexed": false,
          "internalType": "address",
          "name": "bountyAddress",
          "type": "address"
        },
        {
          "indexed": false,
          "internalType": "string",
          "name": "bountyId",
          "type": "string"
        },
        {
          "indexed": false,
          "internalType": "string",
          "name": "organization",
          "type": "string"
        },
        {
          "indexed": false,
          "internalType": "address",
          "name": "tokenAddress",
          "type": "address"
        },
        {
          "indexed": false,
          "internalType": "uint256",
          "name": "receiveTime",
          "type": "uint256"
        },
        {
          "indexed": false,
          "internalType": "address",
          "name": "sender",
          "type": "address"
        },
        {
          "indexed": false,
          "internalType": "uint256",
          "name": "expiration",
          "type": "uint256"
        },
        {
          "indexed": false,
          "internalType": "uint256",
          "name": "volume",
          "type": "uint256"
        },
        {
          "indexed": false,
          "internalType": "uint256",
          "name": "bountyType",
          "type": "uint256"
        },
        {
          "indexed": false,
          "internalType": "bytes",
          "name": "data",
          "type": "bytes"
        },
        {
          "indexed": false,
          "internalType": "uint256",
          "name": "version",
          "type": "uint256"
        }
      ],
      "name": "TokenDepositReceived",
      "type": "event"
    },
    {
      "anonymous": false,
      "inputs": [
        {
          "indexed": true,
          "internalType": "address",
          "name": "implementation",
          "type": "address"
        }
      ],
      "name": "Upgraded",
      "type": "event"
    },
    {
      "inputs": [],
      "name": "VERSION_1",
      "outputs": [
        {
          "internalType": "uint256",
          "name": "",
          "type": "uint256"
        }
      ],
      "stateMutability": "view",
      "type": "function"
    },
    {
      "inputs": [],
      "name": "VERSION_2",
      "outputs": [
        {
          "internalType": "uint256",
          "name": "",
          "type": "uint256"
        }
      ],
      "stateMutability": "view",
      "type": "function"
    },
    {
      "inputs": [],
      "name": "VERSION_3",
      "outputs": [
        {
          "internalType": "uint256",
          "name": "",
          "type": "uint256"
        }
      ],
      "stateMutability": "view",
      "type": "function"
    },
    {
      "inputs": [
        {
          "internalType": "address",
          "name": "_bountyAddress",
          "type": "address"
        }
      ],
      "name": "bountyIsClaimable",
      "outputs": [
        {
          "internalType": "bool",
          "name": "",
          "type": "bool"
        }
      ],
      "stateMutability": "view",
      "type": "function"
    },
    {
      "inputs": [
        {
          "internalType": "address",
          "name": "_bountyAddress",
          "type": "address"
        },
        {
          "internalType": "address",
          "name": "_closer",
          "type": "address"
        },
        {
          "internalType": "bytes",
          "name": "_closerData",
          "type": "bytes"
        }
      ],
      "name": "claimBounty",
      "outputs": [],
      "stateMutability": "nonpayable",
      "type": "function"
    },
    {
      "inputs": [
        {
          "internalType": "address",
          "name": "_bountyAddress",
          "type": "address"
        },
        {
          "internalType": "string",
          "name": "_externalUserId",
          "type": "string"
        },
        {
          "internalType": "bytes",
          "name": "_closerData",
          "type": "bytes"
        }
      ],
      "name": "directClaimTieredBounty",
      "outputs": [],
      "stateMutability": "nonpayable",
      "type": "function"
    },
    {
      "inputs": [
        {
          "internalType": "address",
          "name": "oracle",
          "type": "address"
        }
      ],
      "name": "initialize",
      "outputs": [],
      "stateMutability": "nonpayable",
      "type": "function"
    },
    {
      "inputs": [],
      "name": "kyc",
      "outputs": [
        {
          "internalType": "contract IKycValidity",
          "name": "",
          "type": "address"
        }
      ],
      "stateMutability": "view",
      "type": "function"
    },
    {
      "inputs": [],
      "name": "openQ",
      "outputs": [
        {
          "internalType": "address",
          "name": "",
          "type": "address"
        }
      ],
      "stateMutability": "view",
      "type": "function"
    },
    {
      "inputs": [],
      "name": "oracle",
      "outputs": [
        {
          "internalType": "address",
          "name": "",
          "type": "address"
        }
      ],
      "stateMutability": "view",
      "type": "function"
    },
    {
      "inputs": [],
      "name": "owner",
      "outputs": [
        {
          "internalType": "address",
          "name": "",
          "type": "address"
        }
      ],
      "stateMutability": "view",
      "type": "function"
    },
    {
      "inputs": [
        {
          "internalType": "address",
          "name": "_bountyAddress",
          "type": "address"
        },
        {
          "internalType": "string",
          "name": "_externalUserId",
          "type": "string"
        },
        {
          "internalType": "bytes",
          "name": "_closerData",
          "type": "bytes"
        }
      ],
      "name": "permissionedClaimTier",
      "outputs": [],
      "stateMutability": "nonpayable",
      "type": "function"
    },
    {
      "inputs": [
        {
          "internalType": "address",
          "name": "_bountyAddress",
          "type": "address"
        },
        {
          "internalType": "bytes",
          "name": "_closerData",
          "type": "bytes"
        }
      ],
      "name": "permissionedClaimTieredBounty",
      "outputs": [],
      "stateMutability": "nonpayable",
      "type": "function"
    },
    {
      "inputs": [],
      "name": "proxiableUUID",
      "outputs": [
        {
          "internalType": "bytes32",
          "name": "",
          "type": "bytes32"
        }
      ],
      "stateMutability": "view",
      "type": "function"
    },
    {
      "inputs": [],
      "name": "renounceOwnership",
      "outputs": [],
      "stateMutability": "nonpayable",
      "type": "function"
    },
    {
      "inputs": [
        {
          "internalType": "address",
          "name": "_kyc",
          "type": "address"
        }
      ],
      "name": "setKyc",
      "outputs": [],
      "stateMutability": "nonpayable",
      "type": "function"
    },
    {
      "inputs": [
        {
          "internalType": "address",
          "name": "_openQ",
          "type": "address"
        }
      ],
      "name": "setOpenQ",
      "outputs": [],
      "stateMutability": "nonpayable",
      "type": "function"
    },
    {
      "inputs": [
        {
          "internalType": "address",
          "name": "_newOracle",
          "type": "address"
        }
      ],
      "name": "transferOracle",
      "outputs": [],
      "stateMutability": "nonpayable",
      "type": "function"
    },
    {
      "inputs": [
        {
          "internalType": "address",
          "name": "newOwner",
          "type": "address"
        }
      ],
      "name": "transferOwnership",
      "outputs": [],
      "stateMutability": "nonpayable",
      "type": "function"
    },
    {
      "inputs": [
        {
          "internalType": "address",
          "name": "newImplementation",
          "type": "address"
        }
      ],
      "name": "upgradeTo",
      "outputs": [],
      "stateMutability": "nonpayable",
      "type": "function"
    },
    {
      "inputs": [
        {
          "internalType": "address",
          "name": "newImplementation",
          "type": "address"
        },
        {
          "internalType": "bytes",
          "name": "data",
          "type": "bytes"
        }
      ],
      "name": "upgradeToAndCall",
      "outputs": [],
      "stateMutability": "payable",
      "type": "function"
    }
  ],
  "bytecode": "0x60a06040523060805234801561001457600080fd5b50608051614af36100bc600039600081816103bf0152818161040801528181610490015281816104d0015281816108b9015281816108f90152818161097501528181610a3401528181610a7401528181610b7101528181610bb101528181611107015281816111470152818161120901528181611249015281816117ef0152818161182f01528181611986015281816119c601528181611c090152611c490152614af36000f3fe60806040526004361061012a5760003560e01c80638da5cb5b116100ab578063e1a0e3d81161006f578063e1a0e3d8146102e5578063e71aa31514610305578063e732680614610325578063e7ae390a14610345578063f2fde38b14610375578063fdf993a81461039557600080fd5b80638da5cb5b1461024757806390d6b45f1461026557806399c2720614610285578063a9c6dfda146102a5578063c4d66de8146102c557600080fd5b806352d1902d116100f257806352d1902d146101c1578063715018a6146101d65780637dc0d1d0146101eb5780637dc81fa2146102125780638ca4d5841461023257600080fd5b80630a5dbc311461012f57806326c20e5f146101575780633659cfe61461016c57806346619e3f1461018e5780634f1ef286146101ae575b600080fd5b34801561013b57600080fd5b50610144600381565b6040519081526020015b60405180910390f35b34801561016357600080fd5b50610144600181565b34801561017857600080fd5b5061018c61018736600461407d565b6103b5565b005b34801561019a57600080fd5b5061018c6101a93660046140e2565b610486565b61018c6101bc36600461420f565b6108af565b3480156101cd57600080fd5b50610144610968565b3480156101e257600080fd5b5061018c610a16565b3480156101f757600080fd5b506033546001600160a01b03165b60405161014e9190614272565b34801561021e57600080fd5b5060ca54610205906001600160a01b031681565b34801561023e57600080fd5b50610144600281565b34801561025357600080fd5b506034546001600160a01b0316610205565b34801561027157600080fd5b5060cb54610205906001600160a01b031681565b34801561029157600080fd5b5061018c6102a036600461407d565b610a2a565b3480156102b157600080fd5b5061018c6102c0366004614286565b610af4565b3480156102d157600080fd5b5061018c6102e036600461407d565b61103d565b3480156102f157600080fd5b5061018c6103003660046142ea565b6111ff565b34801561031157600080fd5b5061018c6103203660046140e2565b6117e5565b34801561033157600080fd5b5061018c61034036600461407d565b61197c565b34801561035157600080fd5b5061036561036036600461407d565b611a7b565b604051901515815260200161014e565b34801561038157600080fd5b5061018c61039036600461407d565b611b89565b3480156103a157600080fd5b5061018c6103b036600461407d565b611bff565b6001600160a01b037f00000000000000000000000000000000000000000000000000000000000000001630036104065760405162461bcd60e51b81526004016103fd9061433e565b60405180910390fd5b7f00000000000000000000000000000000000000000000000000000000000000006001600160a01b0316610438611cc9565b6001600160a01b03161461045e5760405162461bcd60e51b81526004016103fd9061438a565b61046781611ce5565b6040805160008082526020820190925261048391839190611ced565b50565b6001600160a01b037f00000000000000000000000000000000000000000000000000000000000000001630036104ce5760405162461bcd60e51b81526004016103fd9061433e565b7f00000000000000000000000000000000000000000000000000000000000000006001600160a01b0316610500611cc9565b6001600160a01b0316146105265760405162461bcd60e51b81526004016103fd9061438a565b60cb546040516309d2676360e41b81526001600160a01b0390911690639d26763090610556903390600401614272565b602060405180830381865afa158015610573573d6000803e3d6000fd5b505050506040513d601f19601f8201168201806040525081019061059791906143d6565b6106005760405162461bcd60e51b815260206004820152603460248201527f596f75206d757374206861766520612076616c6964204b594320746f6b656e206044820152731d1bc81d5cd9481d1a1a5cc818dbdb9d1c9858dd60621b60648201526084016103fd565b60ca54604051631c401b3d60e21b815286916000916001600160a01b03909116906371006cf4906106379089908990600401614421565b6020604051808303816000875af1158015610656573d6000803e3d6000fd5b505050506040513d601f19601f8201168201806040525081019061067a919061443d565b6040805180820190915260158152744e4f5f4153534f4349415445445f4144445245535360581b60208201529091506001600160a01b0382166106d05760405162461bcd60e51b81526004016103fd91906144aa565b50600363ffffffff16826001600160a01b031663b3ca1f3b6040518163ffffffff1660e01b8152600401602060405180830381865afa158015610717573d6000803e3d6000fd5b505050506040513d601f19601f8201168201806040525081019061073b91906144bd565b036107515761074c82828686611e5d565b610817565b600263ffffffff16826001600160a01b031663b3ca1f3b6040518163ffffffff1660e01b8152600401602060405180830381865afa158015610797573d6000803e3d6000fd5b505050506040513d601f19601f820116820180604052508101906107bb91906144bd565b036107cc5761074c828286866127f7565b604080518082018252601a81527f4e4f545f415f434f4d5045544954494f4e5f434f4e54524143540000000000006020820152905162461bcd60e51b81526103fd91906004016144aa565b600080516020614a7783398151915242836001600160a01b031663b3ca1f3b6040518163ffffffff1660e01b8152600401602060405180830381865afa158015610865573d6000803e3d6000fd5b505050506040513d601f19601f8201168201806040525081019061088991906144bd565b8686600360405161089e9594939291906144d6565b60405180910390a150505050505050565b6001600160a01b037f00000000000000000000000000000000000000000000000000000000000000001630036108f75760405162461bcd60e51b81526004016103fd9061433e565b7f00000000000000000000000000000000000000000000000000000000000000006001600160a01b0316610929611cc9565b6001600160a01b03161461094f5760405162461bcd60e51b81526004016103fd9061438a565b61095882611ce5565b61096482826001611ced565b5050565b6000306001600160a01b037f00000000000000000000000000000000000000000000000000000000000000001614610a035760405162461bcd60e51b815260206004820152603860248201527f555550535570677261646561626c653a206d757374206e6f742062652063616c6044820152771b1959081d1a1c9bdd59da0819195b1959d85d1958d85b1b60421b60648201526084016103fd565b50600080516020614a5783398151915290565b610a1e6132c9565b610a286000613323565b565b6001600160a01b037f0000000000000000000000000000000000000000000000000000000000000000163003610a725760405162461bcd60e51b81526004016103fd9061433e565b7f00000000000000000000000000000000000000000000000000000000000000006001600160a01b0316610aa4611cc9565b6001600160a01b031614610aca5760405162461bcd60e51b81526004016103fd9061438a565b610ad26132c9565b60cb80546001600160a01b0319166001600160a01b0392909216919091179055565b6033546001600160a01b03163314610b675760405162461bcd60e51b815260206004820152603060248201527f4f7261636c697a653a2063616c6c6572206973206e6f7420746865206375727260448201526f656e74204f70656e51204f7261636c6560801b60648201526084016103fd565b6001600160a01b037f0000000000000000000000000000000000000000000000000000000000000000163003610baf5760405162461bcd60e51b81526004016103fd9061433e565b7f00000000000000000000000000000000000000000000000000000000000000006001600160a01b0316610be1611cc9565b6001600160a01b031614610c075760405162461bcd60e51b81526004016103fd9061438a565b60008490506000816001600160a01b031663b3ca1f3b6040518163ffffffff1660e01b8152600401602060405180830381865afa158015610c4c573d6000803e3d6000fd5b505050506040513d601f19601f82011682018060405250810190610c7091906144bd565b905080610f0757600063ffffffff16826001600160a01b031663200d2ed26040518163ffffffff1660e01b8152600401602060405180830381865afa158015610cbd573d6000803e3d6000fd5b505050506040513d601f19601f82011682018060405250810190610ce191906144bd565b1460405180604001604052806019815260200178434f4e54524143545f49535f4e4f545f434c41494d41424c4560381b81525090610d325760405162461bcd60e51b81526004016103fd91906144aa565b50610d3f82868686613375565b604051632338d37760e01b81526001600160a01b03831690632338d37790610d6f90889088908890600401614508565b600060405180830381600087803b158015610d8957600080fd5b505af1158015610d9d573d6000803e3d6000fd5b50505050600080516020614a17833981519152826001600160a01b031663c17bd75e6040518163ffffffff1660e01b8152600401600060405180830381865afa158015610dee573d6000803e3d6000fd5b505050506040513d6000823e601f3d908101601f19168201604052610e16919081019061452d565b87846001600160a01b03166323bd4d7a6040518163ffffffff1660e01b8152600401600060405180830381865afa158015610e55573d6000803e3d6000fd5b505050506040513d6000823e601f3d908101601f19168201604052610e7d919081019061452d565b8842876001600160a01b031663b3ca1f3b6040518163ffffffff1660e01b8152600401602060405180830381865afa158015610ebd573d6000803e3d6000fd5b505050506040513d601f19601f82011682018060405250810190610ee191906144bd565b8a8a6003604051610efa9998979695949392919061459a565b60405180910390a1611007565b6000198101610fdd57600063ffffffff16826001600160a01b031663200d2ed26040518163ffffffff1660e01b8152600401602060405180830381865afa158015610f56573d6000803e3d6000fd5b505050506040513d601f19601f82011682018060405250810190610f7a91906144bd565b1460405180604001604052806019815260200178434f4e54524143545f49535f4e4f545f434c41494d41424c4560381b81525090610fcb5760405162461bcd60e51b81526004016103fd91906144aa565b50610fd882868686613b36565b611007565b6001198101610ff257610fd8828686866127f7565b600219810161012a57610fd882868686611e5d565b600080516020614a7783398151915242828686600360405161102d9594939291906144d6565b60405180910390a1505050505050565b600054610100900460ff161580801561105d5750600054600160ff909116105b806110775750303b158015611077575060005460ff166001145b6110da5760405162461bcd60e51b815260206004820152602e60248201527f496e697469616c697a61626c653a20636f6e747261637420697320616c72656160448201526d191e481a5b9a5d1a585b1a5e995960921b60648201526084016103fd565b6000805460ff1916600117905580156110fd576000805461ff0019166101001790555b6001600160a01b037f00000000000000000000000000000000000000000000000000000000000000001630036111455760405162461bcd60e51b81526004016103fd9061433e565b7f00000000000000000000000000000000000000000000000000000000000000006001600160a01b0316611177611cc9565b6001600160a01b03161461119d5760405162461bcd60e51b81526004016103fd9061438a565b6111a5613d0c565b6111ad613d3b565b6111b682613d62565b8015610964576000805461ff0019169055604051600181527f7f26b83ff96e1f2b6a682f133852f6798a09c465da95921460cefb38474024989060200160405180910390a15050565b6001600160a01b037f00000000000000000000000000000000000000000000000000000000000000001630036112475760405162461bcd60e51b81526004016103fd9061433e565b7f00000000000000000000000000000000000000000000000000000000000000006001600160a01b0316611279611cc9565b6001600160a01b03161461129f5760405162461bcd60e51b81526004016103fd9061438a565b6000839050806001600160a01b0316631d1438486040518163ffffffff1660e01b8152600401602060405180830381865afa1580156112e2573d6000803e3d6000fd5b505050506040513d601f19601f82011682018060405250810190611306919061443d565b6001600160a01b0316336001600160a01b0316146040518060400160405280601181526020017021a0a62622a92fa727aa2fa4a9a9aaa2a960791b815250906113625760405162461bcd60e51b81526004016103fd91906144aa565b50600061137183850185614634565b60ca546040516315fe148360e21b8152919650600095506001600160a01b031693506357f8520c92506113a991503390600401614272565b6000604051808303816000875af11580156113c8573d6000803e3d6000fd5b505050506040513d6000823e601f3d908101601f191682016040526113f0919081019061452d565b60405163cd8ffb3760e01b8152600481018490529091506001600160a01b0384169063cd8ffb3790602401600060405180830381865afa158015611438573d6000803e3d6000fd5b505050506040513d6000823e601f3d908101601f19168201604052611460919081019061452d565b60405160200161147091906144aa565b604051602081830303815290604052805190602001208160405160200161149791906144aa565b60405160208183030381529060405280519060200120146040518060400160405280601881526020017721a620a4a6a0a72a2fa727aa2faa24a2a92faba4a72722a960411b815250906114fd5760405162461bcd60e51b81526004016103fd91906144aa565b50826001600160a01b031663d54a117b6040518163ffffffff1660e01b8152600401602060405180830381865afa15801561153c573d6000803e3d6000fd5b505050506040513d601f19601f8201168201806040525081019061156091906143d6565b6040518060400160405280601c81526020017f535550504f5254494e475f444f43535f4e4f545f434f4d504c45544500000000815250906115b45760405162461bcd60e51b81526004016103fd91906144aa565b50826001600160a01b031663152e56a26040518163ffffffff1660e01b8152600401602060405180830381865afa1580156115f3573d6000803e3d6000fd5b505050506040513d601f19601f8201168201806040525081019061161791906143d6565b60405180604001604052806014815260200173494e564f4943455f4e4f545f434f4d504c45544560601b815250906116625760405162461bcd60e51b81526004016103fd91906144aa565b50600363ffffffff16836001600160a01b031663b3ca1f3b6040518163ffffffff1660e01b8152600401602060405180830381865afa1580156116a9573d6000803e3d6000fd5b505050506040513d601f19601f820116820180604052508101906116cd91906144bd565b036116e3576116de83338787611e5d565b61175e565b600263ffffffff16836001600160a01b031663b3ca1f3b6040518163ffffffff1660e01b8152600401602060405180830381865afa158015611729573d6000803e3d6000fd5b505050506040513d601f19601f8201168201806040525081019061174d91906144bd565b036107cc576116de833387876127f7565b600080516020614a7783398151915242846001600160a01b031663b3ca1f3b6040518163ffffffff1660e01b8152600401602060405180830381865afa1580156117ac573d6000803e3d6000fd5b505050506040513d601f19601f820116820180604052508101906117d091906144bd565b8787600360405161102d9594939291906144d6565b6001600160a01b037f000000000000000000000000000000000000000000000000000000000000000016300361182d5760405162461bcd60e51b81526004016103fd9061433e565b7f00000000000000000000000000000000000000000000000000000000000000006001600160a01b031661185f611cc9565b6001600160a01b0316146118855760405162461bcd60e51b81526004016103fd9061438a565b6000859050806001600160a01b0316631d1438486040518163ffffffff1660e01b8152600401602060405180830381865afa1580156118c8573d6000803e3d6000fd5b505050506040513d601f19601f820116820180604052508101906118ec919061443d565b6001600160a01b0316336001600160a01b0316146040518060400160405280601181526020017021a0a62622a92fa727aa2fa4a9a9aaa2a960791b815250906119485760405162461bcd60e51b81526004016103fd91906144aa565b5060ca54604051631c401b3d60e21b81526000916001600160a01b0316906371006cf4906106379089908990600401614421565b6001600160a01b037f00000000000000000000000000000000000000000000000000000000000000001630036119c45760405162461bcd60e51b81526004016103fd9061433e565b7f00000000000000000000000000000000000000000000000000000000000000006001600160a01b03166119f6611cc9565b6001600160a01b031614611a1c5760405162461bcd60e51b81526004016103fd9061438a565b611a246132c9565b60408051808201909152600f81526e4e4f5f5a45524f5f4144445245535360881b60208201526001600160a01b038216611a715760405162461bcd60e51b81526004016103fd91906144aa565b5061048381613dab565b6000808290506000816001600160a01b031663200d2ed26040518163ffffffff1660e01b8152600401602060405180830381865afa158015611ac1573d6000803e3d6000fd5b505050506040513d601f19601f82011682018060405250810190611ae591906144bd565b90506000826001600160a01b031663b3ca1f3b6040518163ffffffff1660e01b8152600401602060405180830381865afa158015611b27573d6000803e3d6000fd5b505050506040513d601f19601f82011682018060405250810190611b4b91906144bd565b9050801580611b5a5750600181145b80611b655750600281145b80611b705750600381145b15611b7e5750159392505050565b506001149392505050565b611b916132c9565b6001600160a01b038116611bf65760405162461bcd60e51b815260206004820152602660248201527f4f776e61626c653a206e6577206f776e657220697320746865207a65726f206160448201526564647265737360d01b60648201526084016103fd565b61048381613323565b6001600160a01b037f0000000000000000000000000000000000000000000000000000000000000000163003611c475760405162461bcd60e51b81526004016103fd9061433e565b7f00000000000000000000000000000000000000000000000000000000000000006001600160a01b0316611c79611cc9565b6001600160a01b031614611c9f5760405162461bcd60e51b81526004016103fd9061438a565b611ca76132c9565b60ca80546001600160a01b0319166001600160a01b0392909216919091179055565b600080516020614a57833981519152546001600160a01b031690565b6104836132c9565b7f4910fdfa16fed3260ed0e7147f7cc6da11a60208b5b9406d12a635614ffd91435460ff1615611d2557611d2083613dfd565b505050565b826001600160a01b03166352d1902d6040518163ffffffff1660e01b8152600401602060405180830381865afa925050508015611d7f575060408051601f3d908101601f19168201909252611d7c918101906144bd565b60015b611de25760405162461bcd60e51b815260206004820152602e60248201527f45524331393637557067726164653a206e657720696d706c656d656e7461746960448201526d6f6e206973206e6f74205555505360901b60648201526084016103fd565b600080516020614a578339815191528114611e515760405162461bcd60e51b815260206004820152602960248201527f45524331393637557067726164653a20756e737570706f727465642070726f786044820152681a58589b195555525160ba1b60648201526084016103fd565b50611d20838383613e99565b6000611e6b82840184614634565b604051634ee5bdc760e11b8152600481018290529095506001600160a01b038a169450639dcb7b8e93506024019150611ea19050565b602060405180830381865afa158015611ebe573d6000803e3d6000fd5b505050506040513d601f19601f82011682018060405250810190611ee291906143d6565b15604051806040016040528060148152602001731512515497d053149150511657d0d3105253515160621b81525090611f2e5760405162461bcd60e51b81526004016103fd91906144aa565b50846001600160a01b031663200d2ed26040518163ffffffff1660e01b8152600401602060405180830381865afa158015611f6d573d6000803e3d6000fd5b505050506040513d601f19601f82011682018060405250810190611f9191906144bd565b60000361215757846001600160a01b03166322fa365e6040518163ffffffff1660e01b8152600401600060405180830381600087803b158015611fd357600080fd5b505af1158015611fe7573d6000803e3d6000fd5b50505050600080516020614a17833981519152856001600160a01b031663c17bd75e6040518163ffffffff1660e01b8152600401600060405180830381865afa158015612038573d6000803e3d6000fd5b505050506040513d6000823e601f3d908101601f19168201604052612060919081019061452d565b86876001600160a01b03166323bd4d7a6040518163ffffffff1660e01b8152600401600060405180830381865afa15801561209f573d6000803e3d6000fd5b505050506040513d6000823e601f3d908101601f191682016040526120c7919081019061452d565b6000428a6001600160a01b031663b3ca1f3b6040518163ffffffff1660e01b8152600401602060405180830381865afa158015612108573d6000803e3d6000fd5b505050506040513d601f19601f8201168201806040525081019061212c91906144bd565b6040805160008152602081019182905261214e979695949392916003906146c6565b60405180910390a15b60405163020702ff60e11b81526000906001600160a01b0387169063040e05fe90612188908890869060040161473e565b6020604051808303816000875af11580156121a7573d6000803e3d6000fd5b505050506040513d601f19601f820116820180604052508101906121cb91906144bd565b90506000805160206149f7833981519152866001600160a01b031663c17bd75e6040518163ffffffff1660e01b8152600401600060405180830381865afa15801561221a573d6000803e3d6000fd5b505050506040513d6000823e601f3d908101601f19168201604052612242919081019061452d565b87886001600160a01b03166323bd4d7a6040518163ffffffff1660e01b8152600401600060405180830381865afa158015612281573d6000803e3d6000fd5b505050506040513d6000823e601f3d908101601f191682016040526122a9919081019061452d565b88428b6001600160a01b0316635cc048386040518163ffffffff1660e01b8152600401602060405180830381865afa1580156122e9573d6000803e3d6000fd5b505050506040513d601f19601f8201168201806040525081019061230d919061443d565b878d6001600160a01b031663b3ca1f3b6040518163ffffffff1660e01b8152600401602060405180830381865afa15801561234c573d6000803e3d6000fd5b505050506040513d601f19601f8201168201806040525081019061237091906144bd565b8c8c600360405161238b9b9a99989796959493929190614757565b60405180910390a160005b866001600160a01b03166377ede8a66040518163ffffffff1660e01b8152600401600060405180830381865afa1580156123d4573d6000803e3d6000fd5b505050506040513d6000823e601f3d908101601f191682016040526123fc9190810190614806565b5181101561279457604051630de2fe4b60e11b8152600481018290526000906001600160a01b03891690631bc5fc9690602401602060405180830381865afa15801561244c573d6000803e3d6000fd5b505050506040513d601f19601f8201168201806040525081019061247091906144bd565b60405163160a30a360e01b81526004810182905290915084906001600160a01b038a169063160a30a390602401602060405180830381865afa1580156124ba573d6000803e3d6000fd5b505050506040513d601f19601f820116820180604052508101906124de91906144bd565b03612781576040516371ec4ebf60e01b81526001600160a01b038916906371ec4ebf90612511908a90859060040161473e565b600060405180830381600087803b15801561252b57600080fd5b505af115801561253f573d6000803e3d6000fd5b50505050600080516020614a37833981519152886001600160a01b031663c17bd75e6040518163ffffffff1660e01b8152600401600060405180830381865afa158015612590573d6000803e3d6000fd5b505050506040513d6000823e601f3d908101601f191682016040526125b8919081019061452d565b898a6001600160a01b03166323bd4d7a6040518163ffffffff1660e01b8152600401600060405180830381865afa1580156125f7573d6000803e3d6000fd5b505050506040513d6000823e601f3d908101601f1916820160405261261f919081019061452d565b6040516397bb3ce960e01b8152600481018690528b9042906001600160a01b038f16906397bb3ce990602401602060405180830381865afa158015612668573d6000803e3d6000fd5b505050506040513d601f19601f8201168201806040525081019061268c919061443d565b8e6001600160a01b031663f2321725896040518263ffffffff1660e01b81526004016126ba91815260200190565b602060405180830381865afa1580156126d7573d6000803e3d6000fd5b505050506040513d601f19601f820116820180604052508101906126fb91906144bd565b8f6001600160a01b031663b3ca1f3b6040518163ffffffff1660e01b8152600401602060405180830381865afa158015612739573d6000803e3d6000fd5b505050506040513d601f19601f8201168201806040525081019061275d91906144bd565b8e8e60036040516127789b9a99989796959493929190614757565b60405180910390a15b508061278c81614896565b915050612396565b5060405163fe0329c960e01b8152600481018390526001600160a01b0387169063fe0329c990602401600060405180830381600087803b1580156127d757600080fd5b505af11580156127eb573d6000803e3d6000fd5b50505050505050505050565b600061280582840184614634565b604051634ee5bdc760e11b8152600481018290529095506001600160a01b038a169450639dcb7b8e9350602401915061283b9050565b602060405180830381865afa158015612858573d6000803e3d6000fd5b505050506040513d601f19601f8201168201806040525081019061287c91906143d6565b15604051806040016040528060148152602001731512515497d053149150511657d0d3105253515160621b815250906128c85760405162461bcd60e51b81526004016103fd91906144aa565b50846001600160a01b031663200d2ed26040518163ffffffff1660e01b8152600401602060405180830381865afa158015612907573d6000803e3d6000fd5b505050506040513d601f19601f8201168201806040525081019061292b91906144bd565b600003612af157846001600160a01b03166322fa365e6040518163ffffffff1660e01b8152600401600060405180830381600087803b15801561296d57600080fd5b505af1158015612981573d6000803e3d6000fd5b50505050600080516020614a17833981519152856001600160a01b031663c17bd75e6040518163ffffffff1660e01b8152600401600060405180830381865afa1580156129d2573d6000803e3d6000fd5b505050506040513d6000823e601f3d908101601f191682016040526129fa919081019061452d565b86876001600160a01b03166323bd4d7a6040518163ffffffff1660e01b8152600401600060405180830381865afa158015612a39573d6000803e3d6000fd5b505050506040513d6000823e601f3d908101601f19168201604052612a61919081019061452d565b6000428a6001600160a01b031663b3ca1f3b6040518163ffffffff1660e01b8152600401602060405180830381865afa158015612aa2573d6000803e3d6000fd5b505050506040513d601f19601f82011682018060405250810190612ac691906144bd565b60408051600081526020810191829052612ae8979695949392916003906146c6565b60405180910390a15b60005b856001600160a01b031663ee8c24b86040518163ffffffff1660e01b8152600401600060405180830381865afa158015612b32573d6000803e3d6000fd5b505050506040513d6000823e601f3d908101601f19168201604052612b5a91908101906148bd565b51811015612e6b576000866001600160a01b031663b3b41cea87858a6001600160a01b031663ee8c24b86040518163ffffffff1660e01b8152600401600060405180830381865afa158015612bb3573d6000803e3d6000fd5b505050506040513d6000823e601f3d908101601f19168201604052612bdb91908101906148bd565b8681518110612bec57612bec61494b565b60200260200101516040518463ffffffff1660e01b8152600401612c30939291906001600160a01b0393841681526020810192909252909116604082015260600190565b6020604051808303816000875af1158015612c4f573d6000803e3d6000fd5b505050506040513d601f19601f82011682018060405250810190612c7391906144bd565b90506000805160206149f7833981519152876001600160a01b031663c17bd75e6040518163ffffffff1660e01b8152600401600060405180830381865afa158015612cc2573d6000803e3d6000fd5b505050506040513d6000823e601f3d908101601f19168201604052612cea919081019061452d565b88896001600160a01b03166323bd4d7a6040518163ffffffff1660e01b8152600401600060405180830381865afa158015612d29573d6000803e3d6000fd5b505050506040513d6000823e601f3d908101601f19168201604052612d51919081019061452d565b89428c6001600160a01b031663ee8c24b86040518163ffffffff1660e01b8152600401600060405180830381865afa158015612d91573d6000803e3d6000fd5b505050506040513d6000823e601f3d908101601f19168201604052612db991908101906148bd565b8881518110612dca57612dca61494b565b6020026020010151878e6001600160a01b031663b3ca1f3b6040518163ffffffff1660e01b8152600401602060405180830381865afa158015612e11573d6000803e3d6000fd5b505050506040513d601f19601f82011682018060405250810190612e3591906144bd565b8d8d6003604051612e509b9a99989796959493929190614757565b60405180910390a15080612e6381614896565b915050612af4565b5060005b856001600160a01b03166377ede8a66040518163ffffffff1660e01b8152600401600060405180830381865afa158015612ead573d6000803e3d6000fd5b505050506040513d6000823e601f3d908101601f19168201604052612ed59190810190614806565b5181101561326757604051630de2fe4b60e11b8152600481018290526000906001600160a01b03881690631bc5fc9690602401602060405180830381865afa158015612f25573d6000803e3d6000fd5b505050506040513d601f19601f82011682018060405250810190612f4991906144bd565b60405163160a30a360e01b81526004810182905290915083906001600160a01b0389169063160a30a390602401602060405180830381865afa158015612f93573d6000803e3d6000fd5b505050506040513d601f19601f82011682018060405250810190612fb791906144bd565b03613254576040516371ec4ebf60e01b81526001600160a01b038816906371ec4ebf90612fea908990859060040161473e565b600060405180830381600087803b15801561300457600080fd5b505af1158015613018573d6000803e3d6000fd5b50505050600080516020614a37833981519152876001600160a01b031663c17bd75e6040518163ffffffff1660e01b8152600401600060405180830381865afa158015613069573d6000803e3d6000fd5b505050506040513d6000823e601f3d908101601f19168201604052613091919081019061452d565b88896001600160a01b03166323bd4d7a6040518163ffffffff1660e01b8152600401600060405180830381865afa1580156130d0573d6000803e3d6000fd5b505050506040513d6000823e601f3d908101601f191682016040526130f8919081019061452d565b6040516397bb3ce960e01b8152600481018690528a9042906001600160a01b038e16906397bb3ce990602401602060405180830381865afa158015613141573d6000803e3d6000fd5b505050506040513d601f19601f82011682018060405250810190613165919061443d565b60405163f232172560e01b8152600481018990526001600160a01b038f169063f232172590602401602060405180830381865afa1580156131aa573d6000803e3d6000fd5b505050506040513d601f19601f820116820180604052508101906131ce91906144bd565b8e6001600160a01b031663b3ca1f3b6040518163ffffffff1660e01b8152600401602060405180830381865afa15801561320c573d6000803e3d6000fd5b505050506040513d601f19601f8201168201806040525081019061323091906144bd565b8d8d600360405161324b9b9a99989796959493929190614757565b60405180910390a15b508061325f81614896565b915050612e6f565b5060405163fe0329c960e01b8152600481018290526001600160a01b0386169063fe0329c990602401600060405180830381600087803b1580156132aa57600080fd5b505af11580156132be573d6000803e3d6000fd5b505050505050505050565b6034546001600160a01b03163314610a285760405162461bcd60e51b815260206004820181905260248201527f4f776e61626c653a2063616c6c6572206973206e6f7420746865206f776e657260448201526064016103fd565b603480546001600160a01b038381166001600160a01b0319831681179093556040519116919082907f8be0079c531659141344cd1fd0a4f28419497f9722a3daafe3b4186f6b6457e090600090a35050565b60005b846001600160a01b031663ee8c24b86040518163ffffffff1660e01b8152600401600060405180830381865afa1580156133b6573d6000803e3d6000fd5b505050506040513d6000823e601f3d908101601f191682016040526133de91908101906148bd565b518110156136e4576000856001600160a01b031663cb2da3db86886001600160a01b031663ee8c24b86040518163ffffffff1660e01b8152600401600060405180830381865afa158015613436573d6000803e3d6000fd5b505050506040513d6000823e601f3d908101601f1916820160405261345e91908101906148bd565b858151811061346f5761346f61494b565b60200260200101516040518363ffffffff1660e01b81526004016134a99291906001600160a01b0392831681529116602082015260400190565b6020604051808303816000875af11580156134c8573d6000803e3d6000fd5b505050506040513d601f19601f820116820180604052508101906134ec91906144bd565b90506000805160206149f7833981519152866001600160a01b031663c17bd75e6040518163ffffffff1660e01b8152600401600060405180830381865afa15801561353b573d6000803e3d6000fd5b505050506040513d6000823e601f3d908101601f19168201604052613563919081019061452d565b87886001600160a01b03166323bd4d7a6040518163ffffffff1660e01b8152600401600060405180830381865afa1580156135a2573d6000803e3d6000fd5b505050506040513d6000823e601f3d908101601f191682016040526135ca919081019061452d565b88428b6001600160a01b031663ee8c24b86040518163ffffffff1660e01b8152600401600060405180830381865afa15801561360a573d6000803e3d6000fd5b505050506040513d6000823e601f3d908101601f1916820160405261363291908101906148bd565b88815181106136435761364361494b565b6020026020010151878d6001600160a01b031663b3ca1f3b6040518163ffffffff1660e01b8152600401602060405180830381865afa15801561368a573d6000803e3d6000fd5b505050506040513d601f19601f820116820180604052508101906136ae91906144bd565b8c8c60036040516136c99b9a99989796959493929190614757565b60405180910390a150806136dc81614896565b915050613378565b5060005b846001600160a01b03166377ede8a66040518163ffffffff1660e01b8152600401600060405180830381865afa158015613726573d6000803e3d6000fd5b505050506040513d6000823e601f3d908101601f1916820160405261374e9190810190614806565b51811015613b2f57604051630de2fe4b60e11b8152600481018290526001600160a01b038616906371ec4ebf9086908390631bc5fc9690602401602060405180830381865afa1580156137a5573d6000803e3d6000fd5b505050506040513d601f19601f820116820180604052508101906137c991906144bd565b6040518363ffffffff1660e01b81526004016137e692919061473e565b600060405180830381600087803b15801561380057600080fd5b505af1158015613814573d6000803e3d6000fd5b50505050600080516020614a37833981519152856001600160a01b031663c17bd75e6040518163ffffffff1660e01b8152600401600060405180830381865afa158015613865573d6000803e3d6000fd5b505050506040513d6000823e601f3d908101601f1916820160405261388d919081019061452d565b86876001600160a01b03166323bd4d7a6040518163ffffffff1660e01b8152600401600060405180830381865afa1580156138cc573d6000803e3d6000fd5b505050506040513d6000823e601f3d908101601f191682016040526138f4919081019061452d565b604051630de2fe4b60e11b815260048101869052889042906001600160a01b038c16906397bb3ce9908290631bc5fc9690602401602060405180830381865afa158015613945573d6000803e3d6000fd5b505050506040513d601f19601f8201168201806040525081019061396991906144bd565b6040518263ffffffff1660e01b815260040161398791815260200190565b602060405180830381865afa1580156139a4573d6000803e3d6000fd5b505050506040513d601f19601f820116820180604052508101906139c8919061443d565b604051630de2fe4b60e11b8152600481018990526001600160a01b038d169063f2321725908290631bc5fc9690602401602060405180830381865afa158015613a15573d6000803e3d6000fd5b505050506040513d601f19601f82011682018060405250810190613a3991906144bd565b6040518263ffffffff1660e01b8152600401613a5791815260200190565b602060405180830381865afa158015613a74573d6000803e3d6000fd5b505050506040513d601f19601f82011682018060405250810190613a9891906144bd565b8c6001600160a01b031663b3ca1f3b6040518163ffffffff1660e01b8152600401602060405180830381865afa158015613ad6573d6000803e3d6000fd5b505050506040513d601f19601f82011682018060405250810190613afa91906144bd565b8b8b6003604051613b159b9a99989796959493929190614757565b60405180910390a180613b2781614896565b9150506136e8565b5050505050565b600080856001600160a01b031663a09dd1aa8686866040518463ffffffff1660e01b8152600401613b6993929190614508565b60408051808303816000875af1158015613b87573d6000803e3d6000fd5b505050506040513d601f19601f82011682018060405250810190613bab9190614961565b915091506000805160206149f7833981519152866001600160a01b031663c17bd75e6040518163ffffffff1660e01b8152600401600060405180830381865afa158015613bfc573d6000803e3d6000fd5b505050506040513d6000823e601f3d908101601f19168201604052613c24919081019061452d565b87886001600160a01b03166323bd4d7a6040518163ffffffff1660e01b8152600401600060405180830381865afa158015613c63573d6000803e3d6000fd5b505050506040513d6000823e601f3d908101601f19168201604052613c8b919081019061452d565b884287878d6001600160a01b031663b3ca1f3b6040518163ffffffff1660e01b8152600401602060405180830381865afa158015613ccd573d6000803e3d6000fd5b505050506040513d601f19601f82011682018060405250810190613cf191906144bd565b8c8c600360405161102d9b9a99989796959493929190614757565b600054610100900460ff16613d335760405162461bcd60e51b81526004016103fd9061498f565b610a28613ec4565b600054610100900460ff16610a285760405162461bcd60e51b81526004016103fd9061498f565b600054610100900460ff16613d895760405162461bcd60e51b81526004016103fd9061498f565b603380546001600160a01b0319166001600160a01b0392909216919091179055565b603380546001600160a01b038381166001600160a01b0319831681179093556040519116919082907f9b0948b943e24ff3413cb400b2eeae4337138739aaf31759dc6e813e8076fbc390600090a35050565b6001600160a01b0381163b613e6a5760405162461bcd60e51b815260206004820152602d60248201527f455243313936373a206e657720696d706c656d656e746174696f6e206973206e60448201526c1bdd08184818dbdb9d1c9858dd609a1b60648201526084016103fd565b600080516020614a5783398151915280546001600160a01b0319166001600160a01b0392909216919091179055565b613ea283613ef4565b600082511180613eaf5750805b15611d2057613ebe8383613f34565b50505050565b600054610100900460ff16613eeb5760405162461bcd60e51b81526004016103fd9061498f565b610a2833613323565b613efd81613dfd565b6040516001600160a01b038216907fbc7cd75a20ee27fd9adebab32041f755214dbc6bffa90cc0225b39da2e5c2d3b90600090a250565b60606001600160a01b0383163b613f9c5760405162461bcd60e51b815260206004820152602660248201527f416464726573733a2064656c65676174652063616c6c20746f206e6f6e2d636f6044820152651b9d1c9858dd60d21b60648201526084016103fd565b600080846001600160a01b031684604051613fb791906149da565b600060405180830381855af49150503d8060008114613ff2576040519150601f19603f3d011682016040523d82523d6000602084013e613ff7565b606091505b509150915061401f8282604051806060016040528060278152602001614a9760279139614028565b95945050505050565b60608315614037575081614061565b8251156140475782518084602001fd5b8160405162461bcd60e51b81526004016103fd91906144aa565b9392505050565b6001600160a01b038116811461048357600080fd5b60006020828403121561408f57600080fd5b813561406181614068565b60008083601f8401126140ac57600080fd5b5081356001600160401b038111156140c357600080fd5b6020830191508360208285010111156140db57600080fd5b9250929050565b6000806000806000606086880312156140fa57600080fd5b853561410581614068565b945060208601356001600160401b038082111561412157600080fd5b61412d89838a0161409a565b9096509450604088013591508082111561414657600080fd5b506141538882890161409a565b969995985093965092949392505050565b634e487b7160e01b600052604160045260246000fd5b604051601f8201601f191681016001600160401b03811182821017156141a2576141a2614164565b604052919050565b60006001600160401b038211156141c3576141c3614164565b50601f01601f191660200190565b60006141e46141df846141aa565b61417a565b90508281528383830111156141f857600080fd5b828260208301376000602084830101529392505050565b6000806040838503121561422257600080fd5b823561422d81614068565b915060208301356001600160401b0381111561424857600080fd5b8301601f8101851361425957600080fd5b614268858235602084016141d1565b9150509250929050565b6001600160a01b0391909116815260200190565b6000806000806060858703121561429c57600080fd5b84356142a781614068565b935060208501356142b781614068565b925060408501356001600160401b038111156142d257600080fd5b6142de8782880161409a565b95989497509550505050565b6000806000604084860312156142ff57600080fd5b833561430a81614068565b925060208401356001600160401b0381111561432557600080fd5b6143318682870161409a565b9497909650939450505050565b6020808252602c908201527f46756e6374696f6e206d7573742062652063616c6c6564207468726f7567682060408201526b19195b1959d85d1958d85b1b60a21b606082015260800190565b6020808252602c908201527f46756e6374696f6e206d7573742062652063616c6c6564207468726f7567682060408201526b6163746976652070726f787960a01b606082015260800190565b6000602082840312156143e857600080fd5b8151801515811461406157600080fd5b81835281816020850137506000828201602090810191909152601f909101601f19169091010190565b6020815260006144356020830184866143f8565b949350505050565b60006020828403121561444f57600080fd5b815161406181614068565b60005b8381101561447557818101518382015260200161445d565b50506000910152565b6000815180845261449681602086016020860161445a565b601f01601f19169290920160200192915050565b602081526000614061602083018461447e565b6000602082840312156144cf57600080fd5b5051919050565b8581528460208201526080604082015260006144f66080830185876143f8565b90508260608301529695505050505050565b6001600160a01b038416815260406020820181905260009061401f90830184866143f8565b60006020828403121561453f57600080fd5b81516001600160401b0381111561455557600080fd5b8201601f8101841361456657600080fd5b80516145746141df826141aa565b81815285602083850101111561458957600080fd5b61401f82602083016020860161445a565b60006101008083526145ae8184018d61447e565b6001600160a01b038c8116602086015284820360408601529091506145d3828c61447e565b9150808a166060850152508760808401528660a084015282810360c08401526145fd8186886143f8565b9150508260e08301529a9950505050505050505050565b600082601f83011261462557600080fd5b614061838335602085016141d1565b600080600080600060a0868803121561464c57600080fd5b853561465781614068565b945060208601356001600160401b038082111561467357600080fd5b61467f89838a01614614565b95506040880135915061469182614068565b909350606087013590808211156146a757600080fd5b506146b488828901614614565b95989497509295608001359392505050565b60006101008083526146da8184018c61447e565b6001600160a01b038b8116602086015284820360408601529091506146ff828b61447e565b91508089166060850152508660808401528560a084015282810360c0840152614728818661447e565b9150508260e08301529998505050505050505050565b6001600160a01b03929092168252602082015260400190565b600061014080835261476b8184018f61447e565b6001600160a01b038e811660208601528482036040860152909150614790828e61447e565b9150808c1660608501528a6080850152808a1660a0850152508760c08401528660e08401528281036101008401526147c98186886143f8565b915050826101208301529c9b505050505050505050505050565b60006001600160401b038211156147fc576147fc614164565b5060051b60200190565b6000602080838503121561481957600080fd5b82516001600160401b0381111561482f57600080fd5b8301601f8101851361484057600080fd5b805161484e6141df826147e3565b81815260059190911b8201830190838101908783111561486d57600080fd5b928401925b8284101561488b57835182529284019290840190614872565b979650505050505050565b6000600182016148b657634e487b7160e01b600052601160045260246000fd5b5060010190565b600060208083850312156148d057600080fd5b82516001600160401b038111156148e657600080fd5b8301601f810185136148f757600080fd5b80516149056141df826147e3565b81815260059190911b8201830190838101908783111561492457600080fd5b928401925b8284101561488b57835161493c81614068565b82529284019290840190614929565b634e487b7160e01b600052603260045260246000fd5b6000806040838503121561497457600080fd5b825161497f81614068565b6020939093015192949293505050565b6020808252602b908201527f496e697469616c697a61626c653a20636f6e7472616374206973206e6f74206960408201526a6e697469616c697a696e6760a81b606082015260800190565b600082516149ec81846020870161445a565b919091019291505056fe740c702bb9b71852192a0a943140360ddb500d906a1f945b48c4a6bf78047852b9d76ba577270421a3b4826a02b81b7678f1d62214225408b99f94e42d78278c7bec1fa43a121aa27c28cbbe6f5296871967c47439c054218395b34e41579e55360894a13ba1a3210667c828492db98dca3e2076cc3735a920a3ca505d382bbcd6de63792ebd5ae7b0da0e2a38b6fe8acd3b85073d8c96d84bd84271663d0eca416464726573733a206c6f772d6c6576656c2064656c65676174652063616c6c206661696c6564a26469706673582212208d6674ca75934ec59795b5f6e65a04d8a060fe381aeafe2f795fe8a8b57ec86064736f6c63430008100033",
  "linkReferences": {},
  "deployedLinkReferences": {}
}