{
  "_format": "hh-sol-artifact-1",
  "contractName": "ClaimManagerV2",
  "sourceName": "contracts/ClaimManager/Implementations/ClaimManagerV2.sol",
  "abi": [
    {
      "inputs": [],
      "stateMutability": "nonpayable",
      "type": "constructor"
    },
    {
      "anonymous": false,
      "inputs": [
        {
          "indexed": false,
          "internalType": "address",
          "name": "previousAdmin",
          "type": "address"
        },
        {
          "indexed": false,
          "internalType": "address",
          "name": "newAdmin",
          "type": "address"
        }
      ],
      "name": "AdminChanged",
      "type": "event"
    },
    {
      "anonymous": false,
      "inputs": [
        {
          "indexed": true,
          "internalType": "address",
          "name": "beacon",
          "type": "address"
        }
      ],
      "name": "BeaconUpgraded",
      "type": "event"
    },
    {
      "anonymous": false,
      "inputs": [
        {
          "indexed": false,
          "internalType": "string",
          "name": "bountyId",
          "type": "string"
        },
        {
          "indexed": false,
          "internalType": "address",
          "name": "bountyAddress",
          "type": "address"
        },
        {
          "indexed": false,
          "internalType": "string",
          "name": "organization",
          "type": "string"
        },
        {
          "indexed": false,
          "internalType": "address",
          "name": "closer",
          "type": "address"
        },
        {
          "indexed": false,
          "internalType": "uint256",
          "name": "bountyClosedTime",
          "type": "uint256"
        },
        {
          "indexed": false,
          "internalType": "uint256",
          "name": "bountyType",
          "type": "uint256"
        },
        {
          "indexed": false,
          "internalType": "bytes",
          "name": "data",
          "type": "bytes"
        },
        {
          "indexed": false,
          "internalType": "uint256",
          "name": "version",
          "type": "uint256"
        }
      ],
      "name": "BountyClosed",
      "type": "event"
    },
    {
      "anonymous": false,
      "inputs": [
        {
          "indexed": false,
          "internalType": "string",
          "name": "bountyId",
          "type": "string"
        },
        {
          "indexed": false,
          "internalType": "string",
          "name": "organization",
          "type": "string"
        },
        {
          "indexed": false,
          "internalType": "address",
          "name": "issuerAddress",
          "type": "address"
        },
        {
          "indexed": false,
          "internalType": "address",
          "name": "bountyAddress",
          "type": "address"
        },
        {
          "indexed": false,
          "internalType": "uint256",
          "name": "bountyMintTime",
          "type": "uint256"
        },
        {
          "indexed": false,
          "internalType": "uint256",
          "name": "bountyType",
          "type": "uint256"
        },
        {
          "indexed": false,
          "internalType": "bytes",
          "name": "data",
          "type": "bytes"
        },
        {
          "indexed": false,
          "internalType": "uint256",
          "name": "version",
          "type": "uint256"
        }
      ],
      "name": "BountyCreated",
      "type": "event"
    },
    {
      "anonymous": false,
      "inputs": [
        {
          "indexed": false,
          "internalType": "uint256",
          "name": "claimTime",
          "type": "uint256"
        },
        {
          "indexed": false,
          "internalType": "uint256",
          "name": "bountyType",
          "type": "uint256"
        },
        {
          "indexed": false,
          "internalType": "bytes",
          "name": "data",
          "type": "bytes"
        },
        {
          "indexed": false,
          "internalType": "uint256",
          "name": "version",
          "type": "uint256"
        }
      ],
      "name": "ClaimSuccess",
      "type": "event"
    },
    {
      "anonymous": false,
      "inputs": [
        {
          "indexed": false,
          "internalType": "bytes32",
          "name": "depositId",
          "type": "bytes32"
        },
        {
          "indexed": false,
          "internalType": "uint256",
          "name": "newExpiration",
          "type": "uint256"
        },
        {
          "indexed": false,
          "internalType": "uint256",
          "name": "bountyType",
          "type": "uint256"
        },
        {
          "indexed": false,
          "internalType": "bytes",
          "name": "data",
          "type": "bytes"
        },
        {
          "indexed": false,
          "internalType": "uint256",
          "name": "version",
          "type": "uint256"
        }
      ],
      "name": "DepositExtended",
      "type": "event"
    },
    {
      "anonymous": false,
      "inputs": [
        {
          "indexed": false,
          "internalType": "bytes32",
          "name": "depositId",
          "type": "bytes32"
        },
        {
          "indexed": false,
          "internalType": "string",
          "name": "bountyId",
          "type": "string"
        },
        {
          "indexed": false,
          "internalType": "address",
          "name": "bountyAddress",
          "type": "address"
        },
        {
          "indexed": false,
          "internalType": "string",
          "name": "organization",
          "type": "string"
        },
        {
          "indexed": false,
          "internalType": "uint256",
          "name": "refundTime",
          "type": "uint256"
        },
        {
          "indexed": false,
          "internalType": "address",
          "name": "tokenAddress",
          "type": "address"
        },
        {
          "indexed": false,
          "internalType": "uint256",
          "name": "volume",
          "type": "uint256"
        },
        {
          "indexed": false,
          "internalType": "uint256",
          "name": "bountyType",
          "type": "uint256"
        },
        {
          "indexed": false,
          "internalType": "bytes",
          "name": "data",
          "type": "bytes"
        },
        {
          "indexed": false,
          "internalType": "uint256",
          "name": "version",
          "type": "uint256"
        }
      ],
      "name": "DepositRefunded",
      "type": "event"
    },
    {
      "anonymous": false,
      "inputs": [
        {
          "indexed": false,
          "internalType": "string",
          "name": "externalUserId",
          "type": "string"
        },
        {
          "indexed": false,
          "internalType": "address",
          "name": "newAddress",
          "type": "address"
        },
        {
          "indexed": false,
          "internalType": "bytes",
          "name": "data",
          "type": "bytes"
        },
        {
          "indexed": false,
          "internalType": "uint256",
          "name": "version",
          "type": "uint256"
        }
      ],
      "name": "ExternalUserIdAssociatedWithAddress",
      "type": "event"
    },
    {
      "anonymous": false,
      "inputs": [
        {
          "indexed": false,
          "internalType": "address",
          "name": "bountyAddress",
          "type": "address"
        },
        {
          "indexed": false,
          "internalType": "address",
          "name": "fundingGoalTokenAddress",
          "type": "address"
        },
        {
          "indexed": false,
          "internalType": "uint256",
          "name": "fundingGoalVolume",
          "type": "uint256"
        },
        {
          "indexed": false,
          "internalType": "uint256",
          "name": "bountyType",
          "type": "uint256"
        },
        {
          "indexed": false,
          "internalType": "bytes",
          "name": "data",
          "type": "bytes"
        },
        {
          "indexed": false,
          "internalType": "uint256",
          "name": "version",
          "type": "uint256"
        }
      ],
      "name": "FundingGoalSet",
      "type": "event"
    },
    {
      "anonymous": false,
      "inputs": [
        {
          "indexed": false,
          "internalType": "uint8",
          "name": "version",
          "type": "uint8"
        }
      ],
      "name": "Initialized",
      "type": "event"
    },
    {
      "anonymous": false,
      "inputs": [
        {
          "indexed": false,
          "internalType": "string",
          "name": "bountyId",
          "type": "string"
        },
        {
          "indexed": false,
          "internalType": "address",
          "name": "bountyAddress",
          "type": "address"
        },
        {
          "indexed": false,
          "internalType": "string",
          "name": "organization",
          "type": "string"
        },
        {
          "indexed": false,
          "internalType": "address",
          "name": "closer",
          "type": "address"
        },
        {
          "indexed": false,
          "internalType": "uint256",
          "name": "payoutTime",
          "type": "uint256"
        },
        {
          "indexed": false,
          "internalType": "address",
          "name": "tokenAddress",
          "type": "address"
        },
        {
          "indexed": false,
          "internalType": "uint256",
          "name": "tokenId",
          "type": "uint256"
        },
        {
          "indexed": false,
          "internalType": "uint256",
          "name": "bountyType",
          "type": "uint256"
        },
        {
          "indexed": false,
          "internalType": "bytes",
          "name": "data",
          "type": "bytes"
        },
        {
          "indexed": false,
          "internalType": "uint256",
          "name": "version",
          "type": "uint256"
        }
      ],
      "name": "NFTClaimed",
      "type": "event"
    },
    {
      "anonymous": false,
      "inputs": [
        {
          "indexed": false,
          "internalType": "bytes32",
          "name": "depositId",
          "type": "bytes32"
        },
        {
          "indexed": false,
          "internalType": "address",
          "name": "bountyAddress",
          "type": "address"
        },
        {
          "indexed": false,
          "internalType": "string",
          "name": "bountyId",
          "type": "string"
        },
        {
          "indexed": false,
          "internalType": "string",
          "name": "organization",
          "type": "string"
        },
        {
          "indexed": false,
          "internalType": "address",
          "name": "tokenAddress",
          "type": "address"
        },
        {
          "indexed": false,
          "internalType": "uint256",
          "name": "receiveTime",
          "type": "uint256"
        },
        {
          "indexed": false,
          "internalType": "address",
          "name": "sender",
          "type": "address"
        },
        {
          "indexed": false,
          "internalType": "uint256",
          "name": "expiration",
          "type": "uint256"
        },
        {
          "indexed": false,
          "internalType": "uint256",
          "name": "tokenId",
          "type": "uint256"
        },
        {
          "indexed": false,
          "internalType": "uint256",
          "name": "bountyType",
          "type": "uint256"
        },
        {
          "indexed": false,
          "internalType": "bytes",
          "name": "data",
          "type": "bytes"
        },
        {
          "indexed": false,
          "internalType": "uint256",
          "name": "version",
          "type": "uint256"
        }
      ],
      "name": "NFTDepositReceived",
      "type": "event"
    },
    {
      "anonymous": false,
      "inputs": [
        {
          "indexed": true,
          "internalType": "address",
          "name": "previousOracle",
          "type": "address"
        },
        {
          "indexed": true,
          "internalType": "address",
          "name": "newOracle",
          "type": "address"
        }
      ],
      "name": "OracleTransferred",
      "type": "event"
    },
    {
      "anonymous": false,
      "inputs": [
        {
          "indexed": true,
          "internalType": "address",
          "name": "previousOwner",
          "type": "address"
        },
        {
          "indexed": true,
          "internalType": "address",
          "name": "newOwner",
          "type": "address"
        }
      ],
      "name": "OwnershipTransferred",
      "type": "event"
    },
    {
      "anonymous": false,
      "inputs": [
        {
          "indexed": false,
          "internalType": "address",
          "name": "bountyAddress",
          "type": "address"
        },
        {
          "indexed": false,
          "internalType": "address",
          "name": "payoutTokenAddress",
          "type": "address"
        },
        {
          "indexed": false,
          "internalType": "uint256[]",
          "name": "payoutSchedule",
          "type": "uint256[]"
        },
        {
          "indexed": false,
          "internalType": "uint256",
          "name": "bountyType",
          "type": "uint256"
        },
        {
          "indexed": false,
          "internalType": "bytes",
          "name": "data",
          "type": "bytes"
        },
        {
          "indexed": false,
          "internalType": "uint256",
          "name": "version",
          "type": "uint256"
        }
      ],
      "name": "PayoutScheduleSet",
      "type": "event"
    },
    {
      "anonymous": false,
      "inputs": [
        {
          "indexed": false,
          "internalType": "address",
          "name": "bountyAddress",
          "type": "address"
        },
        {
          "indexed": false,
          "internalType": "address",
          "name": "payoutTokenAddress",
          "type": "address"
        },
        {
          "indexed": false,
          "internalType": "uint256",
          "name": "payoutTokenVolume",
          "type": "uint256"
        },
        {
          "indexed": false,
          "internalType": "uint256",
          "name": "bountyType",
          "type": "uint256"
        },
        {
          "indexed": false,
          "internalType": "bytes",
          "name": "data",
          "type": "bytes"
        },
        {
          "indexed": false,
          "internalType": "uint256",
          "name": "version",
          "type": "uint256"
        }
      ],
      "name": "PayoutSet",
      "type": "event"
    },
    {
      "anonymous": false,
      "inputs": [
        {
          "indexed": false,
          "internalType": "address",
          "name": "bountyAddress",
          "type": "address"
        },
        {
          "indexed": false,
          "internalType": "address",
          "name": "claimant",
          "type": "address"
        },
        {
          "indexed": false,
          "internalType": "bytes",
          "name": "data",
          "type": "bytes"
        },
        {
          "indexed": false,
          "internalType": "uint256",
          "name": "version",
          "type": "uint256"
        }
      ],
      "name": "TierClaimed",
      "type": "event"
    },
    {
      "anonymous": false,
      "inputs": [
        {
          "indexed": false,
          "internalType": "string",
          "name": "bountyId",
          "type": "string"
        },
        {
          "indexed": false,
          "internalType": "address",
          "name": "bountyAddress",
          "type": "address"
        },
        {
          "indexed": false,
          "internalType": "string",
          "name": "organization",
          "type": "string"
        },
        {
          "indexed": false,
          "internalType": "address",
          "name": "closer",
          "type": "address"
        },
        {
          "indexed": false,
          "internalType": "uint256",
          "name": "payoutTime",
          "type": "uint256"
        },
        {
          "indexed": false,
          "internalType": "address",
          "name": "tokenAddress",
          "type": "address"
        },
        {
          "indexed": false,
          "internalType": "uint256",
          "name": "volume",
          "type": "uint256"
        },
        {
          "indexed": false,
          "internalType": "uint256",
          "name": "bountyType",
          "type": "uint256"
        },
        {
          "indexed": false,
          "internalType": "bytes",
          "name": "data",
          "type": "bytes"
        },
        {
          "indexed": false,
          "internalType": "uint256",
          "name": "version",
          "type": "uint256"
        }
      ],
      "name": "TokenBalanceClaimed",
      "type": "event"
    },
    {
      "anonymous": false,
      "inputs": [
        {
          "indexed": false,
          "internalType": "bytes32",
          "name": "depositId",
          "type": "bytes32"
        },
        {
          "indexed": false,
          "internalType": "address",
          "name": "bountyAddress",
          "type": "address"
        },
        {
          "indexed": false,
          "internalType": "string",
          "name": "bountyId",
          "type": "string"
        },
        {
          "indexed": false,
          "internalType": "string",
          "name": "organization",
          "type": "string"
        },
        {
          "indexed": false,
          "internalType": "address",
          "name": "tokenAddress",
          "type": "address"
        },
        {
          "indexed": false,
          "internalType": "uint256",
          "name": "receiveTime",
          "type": "uint256"
        },
        {
          "indexed": false,
          "internalType": "address",
          "name": "sender",
          "type": "address"
        },
        {
          "indexed": false,
          "internalType": "uint256",
          "name": "expiration",
          "type": "uint256"
        },
        {
          "indexed": false,
          "internalType": "uint256",
          "name": "volume",
          "type": "uint256"
        },
        {
          "indexed": false,
          "internalType": "uint256",
          "name": "bountyType",
          "type": "uint256"
        },
        {
          "indexed": false,
          "internalType": "bytes",
          "name": "data",
          "type": "bytes"
        },
        {
          "indexed": false,
          "internalType": "uint256",
          "name": "version",
          "type": "uint256"
        }
      ],
      "name": "TokenDepositReceived",
      "type": "event"
    },
    {
      "anonymous": false,
      "inputs": [
        {
          "indexed": true,
          "internalType": "address",
          "name": "implementation",
          "type": "address"
        }
      ],
      "name": "Upgraded",
      "type": "event"
    },
    {
      "inputs": [],
      "name": "VERSION_1",
      "outputs": [
        {
          "internalType": "uint256",
          "name": "",
          "type": "uint256"
        }
      ],
      "stateMutability": "view",
      "type": "function"
    },
    {
      "inputs": [],
      "name": "VERSION_2",
      "outputs": [
        {
          "internalType": "uint256",
          "name": "",
          "type": "uint256"
        }
      ],
      "stateMutability": "view",
      "type": "function"
    },
    {
      "inputs": [
        {
          "internalType": "address",
          "name": "_bountyAddress",
          "type": "address"
        }
      ],
      "name": "bountyIsClaimable",
      "outputs": [
        {
          "internalType": "bool",
          "name": "",
          "type": "bool"
        }
      ],
      "stateMutability": "view",
      "type": "function"
    },
    {
      "inputs": [
        {
          "internalType": "address",
          "name": "_bountyAddress",
          "type": "address"
        },
        {
          "internalType": "address",
          "name": "_closer",
          "type": "address"
        },
        {
          "internalType": "bytes",
          "name": "_closerData",
          "type": "bytes"
        }
      ],
      "name": "claimBounty",
      "outputs": [],
      "stateMutability": "nonpayable",
      "type": "function"
    },
    {
      "inputs": [
        {
          "internalType": "address",
          "name": "_bountyAddress",
          "type": "address"
        },
        {
          "internalType": "string",
          "name": "_externalUserId",
          "type": "string"
        },
        {
          "internalType": "bytes",
          "name": "_closerData",
          "type": "bytes"
        }
      ],
      "name": "directClaimTieredBounty",
      "outputs": [],
      "stateMutability": "nonpayable",
      "type": "function"
    },
    {
      "inputs": [
        {
          "internalType": "address",
          "name": "oracle",
          "type": "address"
        }
      ],
      "name": "initialize",
      "outputs": [],
      "stateMutability": "nonpayable",
      "type": "function"
    },
    {
      "inputs": [],
      "name": "openQ",
      "outputs": [
        {
          "internalType": "address",
          "name": "",
          "type": "address"
        }
      ],
      "stateMutability": "view",
      "type": "function"
    },
    {
      "inputs": [],
      "name": "oracle",
      "outputs": [
        {
          "internalType": "address",
          "name": "",
          "type": "address"
        }
      ],
      "stateMutability": "view",
      "type": "function"
    },
    {
      "inputs": [],
      "name": "owner",
      "outputs": [
        {
          "internalType": "address",
          "name": "",
          "type": "address"
        }
      ],
      "stateMutability": "view",
      "type": "function"
    },
    {
      "inputs": [],
      "name": "proxiableUUID",
      "outputs": [
        {
          "internalType": "bytes32",
          "name": "",
          "type": "bytes32"
        }
      ],
      "stateMutability": "view",
      "type": "function"
    },
    {
      "inputs": [],
      "name": "renounceOwnership",
      "outputs": [],
      "stateMutability": "nonpayable",
      "type": "function"
    },
    {
      "inputs": [
        {
          "internalType": "address",
          "name": "_openQ",
          "type": "address"
        }
      ],
      "name": "setOpenQ",
      "outputs": [],
      "stateMutability": "nonpayable",
      "type": "function"
    },
    {
      "inputs": [
        {
          "internalType": "address",
          "name": "_newOracle",
          "type": "address"
        }
      ],
      "name": "transferOracle",
      "outputs": [],
      "stateMutability": "nonpayable",
      "type": "function"
    },
    {
      "inputs": [
        {
          "internalType": "address",
          "name": "newOwner",
          "type": "address"
        }
      ],
      "name": "transferOwnership",
      "outputs": [],
      "stateMutability": "nonpayable",
      "type": "function"
    },
    {
      "inputs": [
        {
          "internalType": "address",
          "name": "newImplementation",
          "type": "address"
        }
      ],
      "name": "upgradeTo",
      "outputs": [],
      "stateMutability": "nonpayable",
      "type": "function"
    },
    {
      "inputs": [
        {
          "internalType": "address",
          "name": "newImplementation",
          "type": "address"
        },
        {
          "internalType": "bytes",
          "name": "data",
          "type": "bytes"
        }
      ],
      "name": "upgradeToAndCall",
      "outputs": [],
      "stateMutability": "payable",
      "type": "function"
    }
  ],
  "bytecode": "0x60a06040523060805234801561001457600080fd5b50608051613f8c610068600039600081816102fe01528181610347015281816103cf0152818161040f0152818161048b015281816105c20152818161060201528181610eff0152610f3f0152613f8c6000f3fe6080604052600436106100f35760003560e01c80638da5cb5b1161008a578063e732680611610059578063e732680614610264578063e7ae390a14610284578063f2fde38b146102b4578063fdf993a8146102d457600080fd5b80638da5cb5b146101e6578063a9c6dfda14610204578063c4d66de814610224578063e71aa3151461024457600080fd5b8063715018a6116100c6578063715018a61461016a5780637dc0d1d01461017f5780637dc81fa2146101b15780638ca4d584146101d157600080fd5b806326c20e5f146100f85780633659cfe6146101205780634f1ef2861461014257806352d1902d14610155575b600080fd5b34801561010457600080fd5b5061010d600181565b6040519081526020015b60405180910390f35b34801561012c57600080fd5b5061014061013b3660046135c6565b6102f4565b005b610140610150366004613690565b6103c5565b34801561016157600080fd5b5061010d61047e565b34801561017657600080fd5b50610140610531565b34801561018b57600080fd5b506033546001600160a01b03165b6040516001600160a01b039091168152602001610117565b3480156101bd57600080fd5b5060ca54610199906001600160a01b031681565b3480156101dd57600080fd5b5061010d600281565b3480156101f257600080fd5b506034546001600160a01b0316610199565b34801561021057600080fd5b5061014061021f36600461373d565b610545565b34801561023057600080fd5b5061014061023f3660046135c6565b610ab2565b34801561025057600080fd5b5061014061025f3660046137a2565b610bd4565b34801561027057600080fd5b5061014061027f3660046135c6565b610ef5565b34801561029057600080fd5b506102a461029f3660046135c6565b610ff4565b6040519015158152602001610117565b3480156102c057600080fd5b506101406102cf3660046135c6565b611102565b3480156102e057600080fd5b506101406102ef3660046135c6565b611178565b6001600160a01b037f00000000000000000000000000000000000000000000000000000000000000001630036103455760405162461bcd60e51b815260040161033c90613825565b60405180910390fd5b7f00000000000000000000000000000000000000000000000000000000000000006001600160a01b03166103776111a2565b6001600160a01b03161461039d5760405162461bcd60e51b815260040161033c90613871565b6103a6816111be565b604080516000808252602082019092526103c2918391906111c6565b50565b6001600160a01b037f000000000000000000000000000000000000000000000000000000000000000016300361040d5760405162461bcd60e51b815260040161033c90613825565b7f00000000000000000000000000000000000000000000000000000000000000006001600160a01b031661043f6111a2565b6001600160a01b0316146104655760405162461bcd60e51b815260040161033c90613871565b61046e826111be565b61047a828260016111c6565b5050565b6000306001600160a01b037f0000000000000000000000000000000000000000000000000000000000000000161461051e5760405162461bcd60e51b815260206004820152603860248201527f555550535570677261646561626c653a206d757374206e6f742062652063616c60448201527f6c6564207468726f7567682064656c656761746563616c6c0000000000000000606482015260840161033c565b50600080516020613f1083398151915290565b610539611336565b6105436000611390565b565b6033546001600160a01b031633146105b85760405162461bcd60e51b815260206004820152603060248201527f4f7261636c697a653a2063616c6c6572206973206e6f7420746865206375727260448201526f656e74204f70656e51204f7261636c6560801b606482015260840161033c565b6001600160a01b037f00000000000000000000000000000000000000000000000000000000000000001630036106005760405162461bcd60e51b815260040161033c90613825565b7f00000000000000000000000000000000000000000000000000000000000000006001600160a01b03166106326111a2565b6001600160a01b0316146106585760405162461bcd60e51b815260040161033c90613871565b60008490506000816001600160a01b031663b3ca1f3b6040518163ffffffff1660e01b8152600401602060405180830381865afa15801561069d573d6000803e3d6000fd5b505050506040513d601f19601f820116820180604052508101906106c191906138bd565b90508061096a57600063ffffffff16826001600160a01b031663200d2ed26040518163ffffffff1660e01b8152600401602060405180830381865afa15801561070e573d6000803e3d6000fd5b505050506040513d601f19601f8201168201806040525081019061073291906138bd565b1460405180604001604052806019815260200178434f4e54524143545f49535f4e4f545f434c41494d41424c4560381b815250906107835760405162461bcd60e51b815260040161033c9190613926565b50610790828686866113e2565b604051632338d37760e01b81526001600160a01b03831690632338d377906107c090889088908890600401613962565b600060405180830381600087803b1580156107da57600080fd5b505af11580156107ee573d6000803e3d6000fd5b505050507fb9d76ba577270421a3b4826a02b81b7678f1d62214225408b99f94e42d78278c826001600160a01b031663c17bd75e6040518163ffffffff1660e01b8152600401600060405180830381865afa158015610851573d6000803e3d6000fd5b505050506040513d6000823e601f3d908101601f191682016040526108799190810190613987565b87846001600160a01b03166323bd4d7a6040518163ffffffff1660e01b8152600401600060405180830381865afa1580156108b8573d6000803e3d6000fd5b505050506040513d6000823e601f3d908101601f191682016040526108e09190810190613987565b8842876001600160a01b031663b3ca1f3b6040518163ffffffff1660e01b8152600401602060405180830381865afa158015610920573d6000803e3d6000fd5b505050506040513d601f19601f8201168201806040525081019061094491906138bd565b8a8a600160405161095d999897969594939291906139f5565b60405180910390a1610a6a565b6000198101610a4057600063ffffffff16826001600160a01b031663200d2ed26040518163ffffffff1660e01b8152600401602060405180830381865afa1580156109b9573d6000803e3d6000fd5b505050506040513d601f19601f820116820180604052508101906109dd91906138bd565b1460405180604001604052806019815260200178434f4e54524143545f49535f4e4f545f434c41494d41424c4560381b81525090610a2e5760405162461bcd60e51b815260040161033c9190613926565b50610a3b82868686611bc4565b610a6a565b6001198101610a5557610a3b82868686611d9a565b60021981016100f357610a3b82868686612892565b7fd6de63792ebd5ae7b0da0e2a38b6fe8acd3b85073d8c96d84bd84271663d0eca428286866001604051610aa2959493929190613a6f565b60405180910390a1505050505050565b600054610100900460ff1615808015610ad25750600054600160ff909116105b80610aec5750303b158015610aec575060005460ff166001145b610b4f5760405162461bcd60e51b815260206004820152602e60248201527f496e697469616c697a61626c653a20636f6e747261637420697320616c72656160448201526d191e481a5b9a5d1a585b1a5e995960921b606482015260840161033c565b6000805460ff191660011790558015610b72576000805461ff0019166101001790555b610b7a613255565b610b82613284565b610b8b826132ab565b801561047a576000805461ff0019169055604051600181527f7f26b83ff96e1f2b6a682f133852f6798a09c465da95921460cefb38474024989060200160405180910390a15050565b6000859050806001600160a01b0316631d1438486040518163ffffffff1660e01b8152600401602060405180830381865afa158015610c17573d6000803e3d6000fd5b505050506040513d601f19601f82011682018060405250810190610c3b9190613aa1565b6001600160a01b0316336001600160a01b0316146040518060400160405280601181526020017021a0a62622a92fa727aa2fa4a9a9aaa2a960791b81525090610c975760405162461bcd60e51b815260040161033c9190613926565b5060ca54604051631c401b3d60e21b81526000916001600160a01b0316906371006cf490610ccb9089908990600401613abe565b6020604051808303816000875af1158015610cea573d6000803e3d6000fd5b505050506040513d601f19601f82011682018060405250810190610d0e9190613aa1565b6040805180820190915260158152744e4f5f4153534f4349415445445f4144445245535360581b60208201529091506001600160a01b038216610d645760405162461bcd60e51b815260040161033c9190613926565b50600363ffffffff16826001600160a01b031663b3ca1f3b6040518163ffffffff1660e01b8152600401602060405180830381865afa158015610dab573d6000803e3d6000fd5b505050506040513d601f19601f82011682018060405250810190610dcf91906138bd565b03610de557610de082828686612892565b610eab565b600263ffffffff16826001600160a01b031663b3ca1f3b6040518163ffffffff1660e01b8152600401602060405180830381865afa158015610e2b573d6000803e3d6000fd5b505050506040513d601f19601f82011682018060405250810190610e4f91906138bd565b03610e6057610de082828686611d9a565b604080518082018252601a81527f4e4f545f415f434f4d5045544954494f4e5f434f4e54524143540000000000006020820152905162461bcd60e51b815261033c9190600401613926565b7fd6de63792ebd5ae7b0da0e2a38b6fe8acd3b85073d8c96d84bd84271663d0eca42600386866001604051610ee4959493929190613ada565b60405180910390a150505050505050565b6001600160a01b037f0000000000000000000000000000000000000000000000000000000000000000163003610f3d5760405162461bcd60e51b815260040161033c90613825565b7f00000000000000000000000000000000000000000000000000000000000000006001600160a01b0316610f6f6111a2565b6001600160a01b031614610f955760405162461bcd60e51b815260040161033c90613871565b610f9d611336565b60408051808201909152600f81526e4e4f5f5a45524f5f4144445245535360881b60208201526001600160a01b038216610fea5760405162461bcd60e51b815260040161033c9190613926565b506103c2816132f4565b6000808290506000816001600160a01b031663200d2ed26040518163ffffffff1660e01b8152600401602060405180830381865afa15801561103a573d6000803e3d6000fd5b505050506040513d601f19601f8201168201806040525081019061105e91906138bd565b90506000826001600160a01b031663b3ca1f3b6040518163ffffffff1660e01b8152600401602060405180830381865afa1580156110a0573d6000803e3d6000fd5b505050506040513d601f19601f820116820180604052508101906110c491906138bd565b90508015806110d35750600181145b806110de5750600281145b806110e95750600381145b156110f75750159392505050565b506001149392505050565b61110a611336565b6001600160a01b03811661116f5760405162461bcd60e51b815260206004820152602660248201527f4f776e61626c653a206e6577206f776e657220697320746865207a65726f206160448201526564647265737360d01b606482015260840161033c565b6103c281611390565b611180611336565b60ca80546001600160a01b0319166001600160a01b0392909216919091179055565b600080516020613f10833981519152546001600160a01b031690565b6103c2611336565b7f4910fdfa16fed3260ed0e7147f7cc6da11a60208b5b9406d12a635614ffd91435460ff16156111fe576111f983613346565b505050565b826001600160a01b03166352d1902d6040518163ffffffff1660e01b8152600401602060405180830381865afa925050508015611258575060408051601f3d908101601f19168201909252611255918101906138bd565b60015b6112bb5760405162461bcd60e51b815260206004820152602e60248201527f45524331393637557067726164653a206e657720696d706c656d656e7461746960448201526d6f6e206973206e6f74205555505360901b606482015260840161033c565b600080516020613f10833981519152811461132a5760405162461bcd60e51b815260206004820152602960248201527f45524331393637557067726164653a20756e737570706f727465642070726f786044820152681a58589b195555525160ba1b606482015260840161033c565b506111f98383836133e2565b6034546001600160a01b031633146105435760405162461bcd60e51b815260206004820181905260248201527f4f776e61626c653a2063616c6c6572206973206e6f7420746865206f776e6572604482015260640161033c565b603480546001600160a01b038381166001600160a01b0319831681179093556040519116919082907f8be0079c531659141344cd1fd0a4f28419497f9722a3daafe3b4186f6b6457e090600090a35050565b60005b846001600160a01b031663ee8c24b86040518163ffffffff1660e01b8152600401600060405180830381865afa158015611423573d6000803e3d6000fd5b505050506040513d6000823e601f3d908101601f1916820160405261144b9190810190613b24565b51811015611751576000856001600160a01b031663cb2da3db86886001600160a01b031663ee8c24b86040518163ffffffff1660e01b8152600401600060405180830381865afa1580156114a3573d6000803e3d6000fd5b505050506040513d6000823e601f3d908101601f191682016040526114cb9190810190613b24565b85815181106114dc576114dc613bbe565b60200260200101516040518363ffffffff1660e01b81526004016115169291906001600160a01b0392831681529116602082015260400190565b6020604051808303816000875af1158015611535573d6000803e3d6000fd5b505050506040513d601f19601f8201168201806040525081019061155991906138bd565b9050600080516020613ef0833981519152866001600160a01b031663c17bd75e6040518163ffffffff1660e01b8152600401600060405180830381865afa1580156115a8573d6000803e3d6000fd5b505050506040513d6000823e601f3d908101601f191682016040526115d09190810190613987565b87886001600160a01b03166323bd4d7a6040518163ffffffff1660e01b8152600401600060405180830381865afa15801561160f573d6000803e3d6000fd5b505050506040513d6000823e601f3d908101601f191682016040526116379190810190613987565b88428b6001600160a01b031663ee8c24b86040518163ffffffff1660e01b8152600401600060405180830381865afa158015611677573d6000803e3d6000fd5b505050506040513d6000823e601f3d908101601f1916820160405261169f9190810190613b24565b88815181106116b0576116b0613bbe565b6020026020010151878d6001600160a01b031663b3ca1f3b6040518163ffffffff1660e01b8152600401602060405180830381865afa1580156116f7573d6000803e3d6000fd5b505050506040513d601f19601f8201168201806040525081019061171b91906138bd565b8c8c60016040516117369b9a99989796959493929190613bd4565b60405180910390a1508061174981613c60565b9150506113e5565b5060005b846001600160a01b03166377ede8a66040518163ffffffff1660e01b8152600401600060405180830381865afa158015611793573d6000803e3d6000fd5b505050506040513d6000823e601f3d908101601f191682016040526117bb9190810190613c87565b51811015611bbd57604051630de2fe4b60e11b8152600481018290526001600160a01b038616906371ec4ebf9086908390631bc5fc9690602401602060405180830381865afa158015611812573d6000803e3d6000fd5b505050506040513d601f19601f8201168201806040525081019061183691906138bd565b6040516001600160e01b031960e085901b1681526001600160a01b0390921660048301526024820152604401600060405180830381600087803b15801561187c57600080fd5b505af1158015611890573d6000803e3d6000fd5b505050507f7bec1fa43a121aa27c28cbbe6f5296871967c47439c054218395b34e41579e55856001600160a01b031663c17bd75e6040518163ffffffff1660e01b8152600401600060405180830381865afa1580156118f3573d6000803e3d6000fd5b505050506040513d6000823e601f3d908101601f1916820160405261191b9190810190613987565b86876001600160a01b03166323bd4d7a6040518163ffffffff1660e01b8152600401600060405180830381865afa15801561195a573d6000803e3d6000fd5b505050506040513d6000823e601f3d908101601f191682016040526119829190810190613987565b604051630de2fe4b60e11b815260048101869052889042906001600160a01b038c16906397bb3ce9908290631bc5fc9690602401602060405180830381865afa1580156119d3573d6000803e3d6000fd5b505050506040513d601f19601f820116820180604052508101906119f791906138bd565b6040518263ffffffff1660e01b8152600401611a1591815260200190565b602060405180830381865afa158015611a32573d6000803e3d6000fd5b505050506040513d601f19601f82011682018060405250810190611a569190613aa1565b604051630de2fe4b60e11b8152600481018990526001600160a01b038d169063f2321725908290631bc5fc9690602401602060405180830381865afa158015611aa3573d6000803e3d6000fd5b505050506040513d601f19601f82011682018060405250810190611ac791906138bd565b6040518263ffffffff1660e01b8152600401611ae591815260200190565b602060405180830381865afa158015611b02573d6000803e3d6000fd5b505050506040513d601f19601f82011682018060405250810190611b2691906138bd565b8c6001600160a01b031663b3ca1f3b6040518163ffffffff1660e01b8152600401602060405180830381865afa158015611b64573d6000803e3d6000fd5b505050506040513d601f19601f82011682018060405250810190611b8891906138bd565b8b8b6001604051611ba39b9a99989796959493929190613bd4565b60405180910390a180611bb581613c60565b915050611755565b5050505050565b600080856001600160a01b031663a09dd1aa8686866040518463ffffffff1660e01b8152600401611bf793929190613962565b60408051808303816000875af1158015611c15573d6000803e3d6000fd5b505050506040513d601f19601f82011682018060405250810190611c399190613d0d565b91509150600080516020613ef0833981519152866001600160a01b031663c17bd75e6040518163ffffffff1660e01b8152600401600060405180830381865afa158015611c8a573d6000803e3d6000fd5b505050506040513d6000823e601f3d908101601f19168201604052611cb29190810190613987565b87886001600160a01b03166323bd4d7a6040518163ffffffff1660e01b8152600401600060405180830381865afa158015611cf1573d6000803e3d6000fd5b505050506040513d6000823e601f3d908101601f19168201604052611d199190810190613987565b884287878d6001600160a01b031663b3ca1f3b6040518163ffffffff1660e01b8152600401602060405180830381865afa158015611d5b573d6000803e3d6000fd5b505050506040513d601f19601f82011682018060405250810190611d7f91906138bd565b8c8c6001604051610aa29b9a99989796959493929190613bd4565b6000611da882840184613d5b565b604051634ee5bdc760e11b8152600481018290529095506001600160a01b038a169450639dcb7b8e93506024019150611dde9050565b602060405180830381865afa158015611dfb573d6000803e3d6000fd5b505050506040513d601f19601f82011682018060405250810190611e1f9190613dee565b15604051806040016040528060148152602001731512515497d053149150511657d0d3105253515160621b81525090611e6b5760405162461bcd60e51b815260040161033c9190613926565b50846001600160a01b031663200d2ed26040518163ffffffff1660e01b8152600401602060405180830381865afa158015611eaa573d6000803e3d6000fd5b505050506040513d601f19601f82011682018060405250810190611ece91906138bd565b6000036120a657846001600160a01b03166322fa365e6040518163ffffffff1660e01b8152600401600060405180830381600087803b158015611f1057600080fd5b505af1158015611f24573d6000803e3d6000fd5b505050507fb9d76ba577270421a3b4826a02b81b7678f1d62214225408b99f94e42d78278c856001600160a01b031663c17bd75e6040518163ffffffff1660e01b8152600401600060405180830381865afa158015611f87573d6000803e3d6000fd5b505050506040513d6000823e601f3d908101601f19168201604052611faf9190810190613987565b86876001600160a01b03166323bd4d7a6040518163ffffffff1660e01b8152600401600060405180830381865afa158015611fee573d6000803e3d6000fd5b505050506040513d6000823e601f3d908101601f191682016040526120169190810190613987565b6000428a6001600160a01b031663b3ca1f3b6040518163ffffffff1660e01b8152600401602060405180830381865afa158015612057573d6000803e3d6000fd5b505050506040513d601f19601f8201168201806040525081019061207b91906138bd565b6040805160008152602081019182905261209d97969594939291600190613e10565b60405180910390a15b60005b856001600160a01b031663ee8c24b86040518163ffffffff1660e01b8152600401600060405180830381865afa1580156120e7573d6000803e3d6000fd5b505050506040513d6000823e601f3d908101601f1916820160405261210f9190810190613b24565b51811015612420576000866001600160a01b031663b3b41cea87858a6001600160a01b031663ee8c24b86040518163ffffffff1660e01b8152600401600060405180830381865afa158015612168573d6000803e3d6000fd5b505050506040513d6000823e601f3d908101601f191682016040526121909190810190613b24565b86815181106121a1576121a1613bbe565b60200260200101516040518463ffffffff1660e01b81526004016121e5939291906001600160a01b0393841681526020810192909252909116604082015260600190565b6020604051808303816000875af1158015612204573d6000803e3d6000fd5b505050506040513d601f19601f8201168201806040525081019061222891906138bd565b9050600080516020613ef0833981519152876001600160a01b031663c17bd75e6040518163ffffffff1660e01b8152600401600060405180830381865afa158015612277573d6000803e3d6000fd5b505050506040513d6000823e601f3d908101601f1916820160405261229f9190810190613987565b88896001600160a01b03166323bd4d7a6040518163ffffffff1660e01b8152600401600060405180830381865afa1580156122de573d6000803e3d6000fd5b505050506040513d6000823e601f3d908101601f191682016040526123069190810190613987565b89428c6001600160a01b031663ee8c24b86040518163ffffffff1660e01b8152600401600060405180830381865afa158015612346573d6000803e3d6000fd5b505050506040513d6000823e601f3d908101601f1916820160405261236e9190810190613b24565b888151811061237f5761237f613bbe565b6020026020010151878e6001600160a01b031663b3ca1f3b6040518163ffffffff1660e01b8152600401602060405180830381865afa1580156123c6573d6000803e3d6000fd5b505050506040513d601f19601f820116820180604052508101906123ea91906138bd565b8d8d60016040516124059b9a99989796959493929190613bd4565b60405180910390a1508061241881613c60565b9150506120a9565b5060005b856001600160a01b03166377ede8a66040518163ffffffff1660e01b8152600401600060405180830381865afa158015612462573d6000803e3d6000fd5b505050506040513d6000823e601f3d908101601f1916820160405261248a9190810190613c87565b5181101561283057604051630de2fe4b60e11b8152600481018290526000906001600160a01b03881690631bc5fc9690602401602060405180830381865afa1580156124da573d6000803e3d6000fd5b505050506040513d601f19601f820116820180604052508101906124fe91906138bd565b60405163160a30a360e01b81526004810182905290915083906001600160a01b0389169063160a30a390602401602060405180830381865afa158015612548573d6000803e3d6000fd5b505050506040513d601f19601f8201168201806040525081019061256c91906138bd565b0361281d576040516371ec4ebf60e01b81526001600160a01b038781166004830152602482018390528816906371ec4ebf90604401600060405180830381600087803b1580156125bb57600080fd5b505af11580156125cf573d6000803e3d6000fd5b505050507f7bec1fa43a121aa27c28cbbe6f5296871967c47439c054218395b34e41579e55876001600160a01b031663c17bd75e6040518163ffffffff1660e01b8152600401600060405180830381865afa158015612632573d6000803e3d6000fd5b505050506040513d6000823e601f3d908101601f1916820160405261265a9190810190613987565b88896001600160a01b03166323bd4d7a6040518163ffffffff1660e01b8152600401600060405180830381865afa158015612699573d6000803e3d6000fd5b505050506040513d6000823e601f3d908101601f191682016040526126c19190810190613987565b6040516397bb3ce960e01b8152600481018690528a9042906001600160a01b038e16906397bb3ce990602401602060405180830381865afa15801561270a573d6000803e3d6000fd5b505050506040513d601f19601f8201168201806040525081019061272e9190613aa1565b60405163f232172560e01b8152600481018990526001600160a01b038f169063f232172590602401602060405180830381865afa158015612773573d6000803e3d6000fd5b505050506040513d601f19601f8201168201806040525081019061279791906138bd565b8e6001600160a01b031663b3ca1f3b6040518163ffffffff1660e01b8152600401602060405180830381865afa1580156127d5573d6000803e3d6000fd5b505050506040513d601f19601f820116820180604052508101906127f991906138bd565b8d8d60016040516128149b9a99989796959493929190613bd4565b60405180910390a15b508061282881613c60565b915050612424565b5060405163fe0329c960e01b8152600481018290526001600160a01b0386169063fe0329c990602401600060405180830381600087803b15801561287357600080fd5b505af1158015612887573d6000803e3d6000fd5b505050505050505050565b60006128a082840184613d5b565b604051634ee5bdc760e11b8152600481018290529095506001600160a01b038a169450639dcb7b8e935060240191506128d69050565b602060405180830381865afa1580156128f3573d6000803e3d6000fd5b505050506040513d601f19601f820116820180604052508101906129179190613dee565b15604051806040016040528060148152602001731512515497d053149150511657d0d3105253515160621b815250906129635760405162461bcd60e51b815260040161033c9190613926565b50846001600160a01b031663200d2ed26040518163ffffffff1660e01b8152600401602060405180830381865afa1580156129a2573d6000803e3d6000fd5b505050506040513d601f19601f820116820180604052508101906129c691906138bd565b600003612b9e57846001600160a01b03166322fa365e6040518163ffffffff1660e01b8152600401600060405180830381600087803b158015612a0857600080fd5b505af1158015612a1c573d6000803e3d6000fd5b505050507fb9d76ba577270421a3b4826a02b81b7678f1d62214225408b99f94e42d78278c856001600160a01b031663c17bd75e6040518163ffffffff1660e01b8152600401600060405180830381865afa158015612a7f573d6000803e3d6000fd5b505050506040513d6000823e601f3d908101601f19168201604052612aa79190810190613987565b86876001600160a01b03166323bd4d7a6040518163ffffffff1660e01b8152600401600060405180830381865afa158015612ae6573d6000803e3d6000fd5b505050506040513d6000823e601f3d908101601f19168201604052612b0e9190810190613987565b6000428a6001600160a01b031663b3ca1f3b6040518163ffffffff1660e01b8152600401602060405180830381865afa158015612b4f573d6000803e3d6000fd5b505050506040513d601f19601f82011682018060405250810190612b7391906138bd565b60408051600081526020810191829052612b9597969594939291600190613e10565b60405180910390a15b60405163020702ff60e11b81526001600160a01b038581166004830152602482018390526000919087169063040e05fe906044016020604051808303816000875af1158015612bf1573d6000803e3d6000fd5b505050506040513d601f19601f82011682018060405250810190612c1591906138bd565b9050600080516020613ef0833981519152866001600160a01b031663c17bd75e6040518163ffffffff1660e01b8152600401600060405180830381865afa158015612c64573d6000803e3d6000fd5b505050506040513d6000823e601f3d908101601f19168201604052612c8c9190810190613987565b87886001600160a01b03166323bd4d7a6040518163ffffffff1660e01b8152600401600060405180830381865afa158015612ccb573d6000803e3d6000fd5b505050506040513d6000823e601f3d908101601f19168201604052612cf39190810190613987565b88428b6001600160a01b0316635cc048386040518163ffffffff1660e01b8152600401602060405180830381865afa158015612d33573d6000803e3d6000fd5b505050506040513d601f19601f82011682018060405250810190612d579190613aa1565b878d6001600160a01b031663b3ca1f3b6040518163ffffffff1660e01b8152600401602060405180830381865afa158015612d96573d6000803e3d6000fd5b505050506040513d601f19601f82011682018060405250810190612dba91906138bd565b8c8c6001604051612dd59b9a99989796959493929190613bd4565b60405180910390a160005b866001600160a01b03166377ede8a66040518163ffffffff1660e01b8152600401600060405180830381865afa158015612e1e573d6000803e3d6000fd5b505050506040513d6000823e601f3d908101601f19168201604052612e469190810190613c87565b518110156131f257604051630de2fe4b60e11b8152600481018290526000906001600160a01b03891690631bc5fc9690602401602060405180830381865afa158015612e96573d6000803e3d6000fd5b505050506040513d601f19601f82011682018060405250810190612eba91906138bd565b60405163160a30a360e01b81526004810182905290915084906001600160a01b038a169063160a30a390602401602060405180830381865afa158015612f04573d6000803e3d6000fd5b505050506040513d601f19601f82011682018060405250810190612f2891906138bd565b036131df576040516371ec4ebf60e01b81526001600160a01b038881166004830152602482018390528916906371ec4ebf90604401600060405180830381600087803b158015612f7757600080fd5b505af1158015612f8b573d6000803e3d6000fd5b505050507f7bec1fa43a121aa27c28cbbe6f5296871967c47439c054218395b34e41579e55886001600160a01b031663c17bd75e6040518163ffffffff1660e01b8152600401600060405180830381865afa158015612fee573d6000803e3d6000fd5b505050506040513d6000823e601f3d908101601f191682016040526130169190810190613987565b898a6001600160a01b03166323bd4d7a6040518163ffffffff1660e01b8152600401600060405180830381865afa158015613055573d6000803e3d6000fd5b505050506040513d6000823e601f3d908101601f1916820160405261307d9190810190613987565b6040516397bb3ce960e01b8152600481018690528b9042906001600160a01b038f16906397bb3ce990602401602060405180830381865afa1580156130c6573d6000803e3d6000fd5b505050506040513d601f19601f820116820180604052508101906130ea9190613aa1565b8e6001600160a01b031663f2321725896040518263ffffffff1660e01b815260040161311891815260200190565b602060405180830381865afa158015613135573d6000803e3d6000fd5b505050506040513d601f19601f8201168201806040525081019061315991906138bd565b8f6001600160a01b031663b3ca1f3b6040518163ffffffff1660e01b8152600401602060405180830381865afa158015613197573d6000803e3d6000fd5b505050506040513d601f19601f820116820180604052508101906131bb91906138bd565b8e8e60016040516131d69b9a99989796959493929190613bd4565b60405180910390a15b50806131ea81613c60565b915050612de0565b5060405163fe0329c960e01b8152600481018390526001600160a01b0387169063fe0329c990602401600060405180830381600087803b15801561323557600080fd5b505af1158015613249573d6000803e3d6000fd5b50505050505050505050565b600054610100900460ff1661327c5760405162461bcd60e51b815260040161033c90613e88565b61054361340d565b600054610100900460ff166105435760405162461bcd60e51b815260040161033c90613e88565b600054610100900460ff166132d25760405162461bcd60e51b815260040161033c90613e88565b603380546001600160a01b0319166001600160a01b0392909216919091179055565b603380546001600160a01b038381166001600160a01b0319831681179093556040519116919082907f9b0948b943e24ff3413cb400b2eeae4337138739aaf31759dc6e813e8076fbc390600090a35050565b6001600160a01b0381163b6133b35760405162461bcd60e51b815260206004820152602d60248201527f455243313936373a206e657720696d706c656d656e746174696f6e206973206e60448201526c1bdd08184818dbdb9d1c9858dd609a1b606482015260840161033c565b600080516020613f1083398151915280546001600160a01b0319166001600160a01b0392909216919091179055565b6133eb8361343d565b6000825111806133f85750805b156111f957613407838361347d565b50505050565b600054610100900460ff166134345760405162461bcd60e51b815260040161033c90613e88565b61054333611390565b61344681613346565b6040516001600160a01b038216907fbc7cd75a20ee27fd9adebab32041f755214dbc6bffa90cc0225b39da2e5c2d3b90600090a250565b60606001600160a01b0383163b6134e55760405162461bcd60e51b815260206004820152602660248201527f416464726573733a2064656c65676174652063616c6c20746f206e6f6e2d636f6044820152651b9d1c9858dd60d21b606482015260840161033c565b600080846001600160a01b0316846040516135009190613ed3565b600060405180830381855af49150503d806000811461353b576040519150601f19603f3d011682016040523d82523d6000602084013e613540565b606091505b50915091506135688282604051806060016040528060278152602001613f3060279139613571565b95945050505050565b606083156135805750816135aa565b8251156135905782518084602001fd5b8160405162461bcd60e51b815260040161033c9190613926565b9392505050565b6001600160a01b03811681146103c257600080fd5b6000602082840312156135d857600080fd5b81356135aa816135b1565b634e487b7160e01b600052604160045260246000fd5b604051601f8201601f1916810167ffffffffffffffff81118282101715613622576136226135e3565b604052919050565b600067ffffffffffffffff821115613644576136446135e3565b50601f01601f191660200190565b60006136656136608461362a565b6135f9565b905082815283838301111561367957600080fd5b828260208301376000602084830101529392505050565b600080604083850312156136a357600080fd5b82356136ae816135b1565b9150602083013567ffffffffffffffff8111156136ca57600080fd5b8301601f810185136136db57600080fd5b6136ea85823560208401613652565b9150509250929050565b60008083601f84011261370657600080fd5b50813567ffffffffffffffff81111561371e57600080fd5b60208301915083602082850101111561373657600080fd5b9250929050565b6000806000806060858703121561375357600080fd5b843561375e816135b1565b9350602085013561376e816135b1565b9250604085013567ffffffffffffffff81111561378a57600080fd5b613796878288016136f4565b95989497509550505050565b6000806000806000606086880312156137ba57600080fd5b85356137c5816135b1565b9450602086013567ffffffffffffffff808211156137e257600080fd5b6137ee89838a016136f4565b9096509450604088013591508082111561380757600080fd5b50613814888289016136f4565b969995985093965092949392505050565b6020808252602c908201527f46756e6374696f6e206d7573742062652063616c6c6564207468726f7567682060408201526b19195b1959d85d1958d85b1b60a21b606082015260800190565b6020808252602c908201527f46756e6374696f6e206d7573742062652063616c6c6564207468726f7567682060408201526b6163746976652070726f787960a01b606082015260800190565b6000602082840312156138cf57600080fd5b5051919050565b60005b838110156138f15781810151838201526020016138d9565b50506000910152565b600081518084526139128160208601602086016138d6565b601f01601f19169290920160200192915050565b6020815260006135aa60208301846138fa565b81835281816020850137506000828201602090810191909152601f909101601f19169091010190565b6001600160a01b03841681526040602082018190526000906135689083018486613939565b60006020828403121561399957600080fd5b815167ffffffffffffffff8111156139b057600080fd5b8201601f810184136139c157600080fd5b80516139cf6136608261362a565b8181528560208385010111156139e457600080fd5b6135688260208301602086016138d6565b6000610100808352613a098184018d6138fa565b6001600160a01b038c811660208601528482036040860152909150613a2e828c6138fa565b9150808a166060850152508760808401528660a084015282810360c0840152613a58818688613939565b9150508260e08301529a9950505050505050505050565b858152846020820152608060408201526000613a8f608083018587613939565b90508260608301529695505050505050565b600060208284031215613ab357600080fd5b81516135aa816135b1565b602081526000613ad2602083018486613939565b949350505050565b85815263ffffffff85166020820152608060408201526000613a8f608083018587613939565b600067ffffffffffffffff821115613b1a57613b1a6135e3565b5060051b60200190565b60006020808385031215613b3757600080fd5b825167ffffffffffffffff811115613b4e57600080fd5b8301601f81018513613b5f57600080fd5b8051613b6d61366082613b00565b81815260059190911b82018301908381019087831115613b8c57600080fd5b928401925b82841015613bb3578351613ba4816135b1565b82529284019290840190613b91565b979650505050505050565b634e487b7160e01b600052603260045260246000fd5b6000610140808352613be88184018f6138fa565b6001600160a01b038e811660208601528482036040860152909150613c0d828e6138fa565b9150808c1660608501528a6080850152808a1660a0850152508760c08401528660e0840152828103610100840152613c46818688613939565b915050826101208301529c9b505050505050505050505050565b600060018201613c8057634e487b7160e01b600052601160045260246000fd5b5060010190565b60006020808385031215613c9a57600080fd5b825167ffffffffffffffff811115613cb157600080fd5b8301601f81018513613cc257600080fd5b8051613cd061366082613b00565b81815260059190911b82018301908381019087831115613cef57600080fd5b928401925b82841015613bb357835182529284019290840190613cf4565b60008060408385031215613d2057600080fd5b8251613d2b816135b1565b6020939093015192949293505050565b600082601f830112613d4c57600080fd5b6135aa83833560208501613652565b600080600080600060a08688031215613d7357600080fd5b8535613d7e816135b1565b9450602086013567ffffffffffffffff80821115613d9b57600080fd5b613da789838a01613d3b565b955060408801359150613db9826135b1565b90935060608701359080821115613dcf57600080fd5b50613ddc88828901613d3b565b95989497509295608001359392505050565b600060208284031215613e0057600080fd5b815180151581146135aa57600080fd5b6000610100808352613e248184018c6138fa565b6001600160a01b038b811660208601528482036040860152909150613e49828b6138fa565b91508089166060850152508660808401528560a084015282810360c0840152613e7281866138fa565b9150508260e08301529998505050505050505050565b6020808252602b908201527f496e697469616c697a61626c653a20636f6e7472616374206973206e6f74206960408201526a6e697469616c697a696e6760a81b606082015260800190565b60008251613ee58184602087016138d6565b919091019291505056fe740c702bb9b71852192a0a943140360ddb500d906a1f945b48c4a6bf78047852360894a13ba1a3210667c828492db98dca3e2076cc3735a920a3ca505d382bbc416464726573733a206c6f772d6c6576656c2064656c65676174652063616c6c206661696c6564a264697066735822122026e70f376b371829e2ceb37321eec8373c497c23aed07e21838c5a971c9afbc064736f6c63430008100033",
  "linkReferences": {},
  "deployedLinkReferences": {}
}