{
  "_format": "hh-sol-artifact-1",
  "contractName": "ClaimManagerV2",
  "sourceName": "contracts/ClaimManager/Implementations/ClaimManagerV2.sol",
  "abi": [
    {
      "inputs": [],
      "stateMutability": "nonpayable",
      "type": "constructor"
    },
    {
      "anonymous": false,
      "inputs": [
        {
          "indexed": false,
          "internalType": "address",
          "name": "previousAdmin",
          "type": "address"
        },
        {
          "indexed": false,
          "internalType": "address",
          "name": "newAdmin",
          "type": "address"
        }
      ],
      "name": "AdminChanged",
      "type": "event"
    },
    {
      "anonymous": false,
      "inputs": [
        {
          "indexed": true,
          "internalType": "address",
          "name": "beacon",
          "type": "address"
        }
      ],
      "name": "BeaconUpgraded",
      "type": "event"
    },
    {
      "anonymous": false,
      "inputs": [
        {
          "indexed": false,
          "internalType": "string",
          "name": "bountyId",
          "type": "string"
        },
        {
          "indexed": false,
          "internalType": "address",
          "name": "bountyAddress",
          "type": "address"
        },
        {
          "indexed": false,
          "internalType": "string",
          "name": "organization",
          "type": "string"
        },
        {
          "indexed": false,
          "internalType": "address",
          "name": "closer",
          "type": "address"
        },
        {
          "indexed": false,
          "internalType": "uint256",
          "name": "bountyClosedTime",
          "type": "uint256"
        },
        {
          "indexed": false,
          "internalType": "uint256",
          "name": "bountyType",
          "type": "uint256"
        },
        {
          "indexed": false,
          "internalType": "bytes",
          "name": "data",
          "type": "bytes"
        },
        {
          "indexed": false,
          "internalType": "uint256",
          "name": "version",
          "type": "uint256"
        }
      ],
      "name": "BountyClosed",
      "type": "event"
    },
    {
      "anonymous": false,
      "inputs": [
        {
          "indexed": false,
          "internalType": "string",
          "name": "bountyId",
          "type": "string"
        },
        {
          "indexed": false,
          "internalType": "string",
          "name": "organization",
          "type": "string"
        },
        {
          "indexed": false,
          "internalType": "address",
          "name": "issuerAddress",
          "type": "address"
        },
        {
          "indexed": false,
          "internalType": "address",
          "name": "bountyAddress",
          "type": "address"
        },
        {
          "indexed": false,
          "internalType": "uint256",
          "name": "bountyMintTime",
          "type": "uint256"
        },
        {
          "indexed": false,
          "internalType": "uint256",
          "name": "bountyType",
          "type": "uint256"
        },
        {
          "indexed": false,
          "internalType": "bytes",
          "name": "data",
          "type": "bytes"
        },
        {
          "indexed": false,
          "internalType": "uint256",
          "name": "version",
          "type": "uint256"
        }
      ],
      "name": "BountyCreated",
      "type": "event"
    },
    {
      "anonymous": false,
      "inputs": [
        {
          "indexed": false,
          "internalType": "uint256",
          "name": "claimTime",
          "type": "uint256"
        },
        {
          "indexed": false,
          "internalType": "uint256",
          "name": "bountyType",
          "type": "uint256"
        },
        {
          "indexed": false,
          "internalType": "bytes",
          "name": "data",
          "type": "bytes"
        },
        {
          "indexed": false,
          "internalType": "uint256",
          "name": "version",
          "type": "uint256"
        }
      ],
      "name": "ClaimSuccess",
      "type": "event"
    },
    {
      "anonymous": false,
      "inputs": [
        {
          "indexed": false,
          "internalType": "bytes32",
          "name": "depositId",
          "type": "bytes32"
        },
        {
          "indexed": false,
          "internalType": "uint256",
          "name": "newExpiration",
          "type": "uint256"
        },
        {
          "indexed": false,
          "internalType": "uint256",
          "name": "bountyType",
          "type": "uint256"
        },
        {
          "indexed": false,
          "internalType": "bytes",
          "name": "data",
          "type": "bytes"
        },
        {
          "indexed": false,
          "internalType": "uint256",
          "name": "version",
          "type": "uint256"
        }
      ],
      "name": "DepositExtended",
      "type": "event"
    },
    {
      "anonymous": false,
      "inputs": [
        {
          "indexed": false,
          "internalType": "bytes32",
          "name": "depositId",
          "type": "bytes32"
        },
        {
          "indexed": false,
          "internalType": "string",
          "name": "bountyId",
          "type": "string"
        },
        {
          "indexed": false,
          "internalType": "address",
          "name": "bountyAddress",
          "type": "address"
        },
        {
          "indexed": false,
          "internalType": "string",
          "name": "organization",
          "type": "string"
        },
        {
          "indexed": false,
          "internalType": "uint256",
          "name": "refundTime",
          "type": "uint256"
        },
        {
          "indexed": false,
          "internalType": "address",
          "name": "tokenAddress",
          "type": "address"
        },
        {
          "indexed": false,
          "internalType": "uint256",
          "name": "volume",
          "type": "uint256"
        },
        {
          "indexed": false,
          "internalType": "uint256",
          "name": "bountyType",
          "type": "uint256"
        },
        {
          "indexed": false,
          "internalType": "bytes",
          "name": "data",
          "type": "bytes"
        },
        {
          "indexed": false,
          "internalType": "uint256",
          "name": "version",
          "type": "uint256"
        }
      ],
      "name": "DepositRefunded",
      "type": "event"
    },
    {
      "anonymous": false,
      "inputs": [
        {
          "indexed": false,
          "internalType": "string",
          "name": "externalUserId",
          "type": "string"
        },
        {
          "indexed": false,
          "internalType": "address",
          "name": "newAddress",
          "type": "address"
        },
        {
          "indexed": false,
          "internalType": "bytes",
          "name": "data",
          "type": "bytes"
        },
        {
          "indexed": false,
          "internalType": "uint256",
          "name": "version",
          "type": "uint256"
        }
      ],
      "name": "ExternalUserIdAssociatedWithAddress",
      "type": "event"
    },
    {
      "anonymous": false,
      "inputs": [
        {
          "indexed": false,
          "internalType": "address",
          "name": "bountyAddress",
          "type": "address"
        },
        {
          "indexed": false,
          "internalType": "address",
          "name": "fundingGoalTokenAddress",
          "type": "address"
        },
        {
          "indexed": false,
          "internalType": "uint256",
          "name": "fundingGoalVolume",
          "type": "uint256"
        },
        {
          "indexed": false,
          "internalType": "uint256",
          "name": "bountyType",
          "type": "uint256"
        },
        {
          "indexed": false,
          "internalType": "bytes",
          "name": "data",
          "type": "bytes"
        },
        {
          "indexed": false,
          "internalType": "uint256",
          "name": "version",
          "type": "uint256"
        }
      ],
      "name": "FundingGoalSet",
      "type": "event"
    },
    {
      "anonymous": false,
      "inputs": [
        {
          "indexed": false,
          "internalType": "uint8",
          "name": "version",
          "type": "uint8"
        }
      ],
      "name": "Initialized",
      "type": "event"
    },
    {
      "anonymous": false,
      "inputs": [
        {
          "indexed": false,
          "internalType": "address",
          "name": "bountyAddress",
          "type": "address"
        },
        {
          "indexed": false,
          "internalType": "bool",
          "name": "invoiceable",
          "type": "bool"
        },
        {
          "indexed": false,
          "internalType": "bytes",
          "name": "data",
          "type": "bytes"
        },
        {
          "indexed": false,
          "internalType": "uint256",
          "name": "version",
          "type": "uint256"
        }
      ],
      "name": "InvoiceableSet",
      "type": "event"
    },
    {
      "anonymous": false,
      "inputs": [
        {
          "indexed": false,
          "internalType": "address",
          "name": "bountyAddress",
          "type": "address"
        },
        {
          "indexed": false,
          "internalType": "bool",
          "name": "kycRequired",
          "type": "bool"
        },
        {
          "indexed": false,
          "internalType": "bytes",
          "name": "data",
          "type": "bytes"
        },
        {
          "indexed": false,
          "internalType": "uint256",
          "name": "version",
          "type": "uint256"
        }
      ],
      "name": "KYCRequiredSet",
      "type": "event"
    },
    {
      "anonymous": false,
      "inputs": [
        {
          "indexed": false,
          "internalType": "string",
          "name": "bountyId",
          "type": "string"
        },
        {
          "indexed": false,
          "internalType": "address",
          "name": "bountyAddress",
          "type": "address"
        },
        {
          "indexed": false,
          "internalType": "string",
          "name": "organization",
          "type": "string"
        },
        {
          "indexed": false,
          "internalType": "address",
          "name": "closer",
          "type": "address"
        },
        {
          "indexed": false,
          "internalType": "uint256",
          "name": "payoutTime",
          "type": "uint256"
        },
        {
          "indexed": false,
          "internalType": "address",
          "name": "tokenAddress",
          "type": "address"
        },
        {
          "indexed": false,
          "internalType": "uint256",
          "name": "tokenId",
          "type": "uint256"
        },
        {
          "indexed": false,
          "internalType": "uint256",
          "name": "bountyType",
          "type": "uint256"
        },
        {
          "indexed": false,
          "internalType": "bytes",
          "name": "data",
          "type": "bytes"
        },
        {
          "indexed": false,
          "internalType": "uint256",
          "name": "version",
          "type": "uint256"
        }
      ],
      "name": "NFTClaimed",
      "type": "event"
    },
    {
      "anonymous": false,
      "inputs": [
        {
          "indexed": false,
          "internalType": "bytes32",
          "name": "depositId",
          "type": "bytes32"
        },
        {
          "indexed": false,
          "internalType": "address",
          "name": "bountyAddress",
          "type": "address"
        },
        {
          "indexed": false,
          "internalType": "string",
          "name": "bountyId",
          "type": "string"
        },
        {
          "indexed": false,
          "internalType": "string",
          "name": "organization",
          "type": "string"
        },
        {
          "indexed": false,
          "internalType": "address",
          "name": "tokenAddress",
          "type": "address"
        },
        {
          "indexed": false,
          "internalType": "uint256",
          "name": "receiveTime",
          "type": "uint256"
        },
        {
          "indexed": false,
          "internalType": "address",
          "name": "sender",
          "type": "address"
        },
        {
          "indexed": false,
          "internalType": "uint256",
          "name": "expiration",
          "type": "uint256"
        },
        {
          "indexed": false,
          "internalType": "uint256",
          "name": "tokenId",
          "type": "uint256"
        },
        {
          "indexed": false,
          "internalType": "uint256",
          "name": "bountyType",
          "type": "uint256"
        },
        {
          "indexed": false,
          "internalType": "bytes",
          "name": "data",
          "type": "bytes"
        },
        {
          "indexed": false,
          "internalType": "uint256",
          "name": "version",
          "type": "uint256"
        }
      ],
      "name": "NFTDepositReceived",
      "type": "event"
    },
    {
      "anonymous": false,
      "inputs": [
        {
          "indexed": true,
          "internalType": "address",
          "name": "previousOracle",
          "type": "address"
        },
        {
          "indexed": true,
          "internalType": "address",
          "name": "newOracle",
          "type": "address"
        }
      ],
      "name": "OracleTransferred",
      "type": "event"
    },
    {
      "anonymous": false,
      "inputs": [
        {
          "indexed": true,
          "internalType": "address",
          "name": "previousOwner",
          "type": "address"
        },
        {
          "indexed": true,
          "internalType": "address",
          "name": "newOwner",
          "type": "address"
        }
      ],
      "name": "OwnershipTransferred",
      "type": "event"
    },
    {
      "anonymous": false,
      "inputs": [
        {
          "indexed": false,
          "internalType": "address",
          "name": "bountyAddress",
          "type": "address"
        },
        {
          "indexed": false,
          "internalType": "address",
          "name": "payoutTokenAddress",
          "type": "address"
        },
        {
          "indexed": false,
          "internalType": "uint256[]",
          "name": "payoutSchedule",
          "type": "uint256[]"
        },
        {
          "indexed": false,
          "internalType": "uint256",
          "name": "bountyType",
          "type": "uint256"
        },
        {
          "indexed": false,
          "internalType": "bytes",
          "name": "data",
          "type": "bytes"
        },
        {
          "indexed": false,
          "internalType": "uint256",
          "name": "version",
          "type": "uint256"
        }
      ],
      "name": "PayoutScheduleSet",
      "type": "event"
    },
    {
      "anonymous": false,
      "inputs": [
        {
          "indexed": false,
          "internalType": "address",
          "name": "bountyAddress",
          "type": "address"
        },
        {
          "indexed": false,
          "internalType": "address",
          "name": "payoutTokenAddress",
          "type": "address"
        },
        {
          "indexed": false,
          "internalType": "uint256",
          "name": "payoutTokenVolume",
          "type": "uint256"
        },
        {
          "indexed": false,
          "internalType": "uint256",
          "name": "bountyType",
          "type": "uint256"
        },
        {
          "indexed": false,
          "internalType": "bytes",
          "name": "data",
          "type": "bytes"
        },
        {
          "indexed": false,
          "internalType": "uint256",
          "name": "version",
          "type": "uint256"
        }
      ],
      "name": "PayoutSet",
      "type": "event"
    },
    {
      "anonymous": false,
      "inputs": [
        {
          "indexed": false,
          "internalType": "address",
          "name": "bountyAddress",
          "type": "address"
        },
        {
          "indexed": false,
          "internalType": "address",
          "name": "claimant",
          "type": "address"
        },
        {
          "indexed": false,
          "internalType": "bytes",
          "name": "data",
          "type": "bytes"
        },
        {
          "indexed": false,
          "internalType": "uint256",
          "name": "version",
          "type": "uint256"
        }
      ],
      "name": "TierClaimed",
      "type": "event"
    },
    {
      "anonymous": false,
      "inputs": [
        {
          "indexed": false,
          "internalType": "string",
          "name": "bountyId",
          "type": "string"
        },
        {
          "indexed": false,
          "internalType": "address",
          "name": "bountyAddress",
          "type": "address"
        },
        {
          "indexed": false,
          "internalType": "string",
          "name": "organization",
          "type": "string"
        },
        {
          "indexed": false,
          "internalType": "address",
          "name": "closer",
          "type": "address"
        },
        {
          "indexed": false,
          "internalType": "uint256",
          "name": "payoutTime",
          "type": "uint256"
        },
        {
          "indexed": false,
          "internalType": "address",
          "name": "tokenAddress",
          "type": "address"
        },
        {
          "indexed": false,
          "internalType": "uint256",
          "name": "volume",
          "type": "uint256"
        },
        {
          "indexed": false,
          "internalType": "uint256",
          "name": "bountyType",
          "type": "uint256"
        },
        {
          "indexed": false,
          "internalType": "bytes",
          "name": "data",
          "type": "bytes"
        },
        {
          "indexed": false,
          "internalType": "uint256",
          "name": "version",
          "type": "uint256"
        }
      ],
      "name": "TokenBalanceClaimed",
      "type": "event"
    },
    {
      "anonymous": false,
      "inputs": [
        {
          "indexed": false,
          "internalType": "bytes32",
          "name": "depositId",
          "type": "bytes32"
        },
        {
          "indexed": false,
          "internalType": "address",
          "name": "bountyAddress",
          "type": "address"
        },
        {
          "indexed": false,
          "internalType": "string",
          "name": "bountyId",
          "type": "string"
        },
        {
          "indexed": false,
          "internalType": "string",
          "name": "organization",
          "type": "string"
        },
        {
          "indexed": false,
          "internalType": "address",
          "name": "tokenAddress",
          "type": "address"
        },
        {
          "indexed": false,
          "internalType": "uint256",
          "name": "receiveTime",
          "type": "uint256"
        },
        {
          "indexed": false,
          "internalType": "address",
          "name": "sender",
          "type": "address"
        },
        {
          "indexed": false,
          "internalType": "uint256",
          "name": "expiration",
          "type": "uint256"
        },
        {
          "indexed": false,
          "internalType": "uint256",
          "name": "volume",
          "type": "uint256"
        },
        {
          "indexed": false,
          "internalType": "uint256",
          "name": "bountyType",
          "type": "uint256"
        },
        {
          "indexed": false,
          "internalType": "bytes",
          "name": "data",
          "type": "bytes"
        },
        {
          "indexed": false,
          "internalType": "uint256",
          "name": "version",
          "type": "uint256"
        }
      ],
      "name": "TokenDepositReceived",
      "type": "event"
    },
    {
      "anonymous": false,
      "inputs": [
        {
          "indexed": true,
          "internalType": "address",
          "name": "implementation",
          "type": "address"
        }
      ],
      "name": "Upgraded",
      "type": "event"
    },
    {
      "inputs": [],
      "name": "VERSION_1",
      "outputs": [
        {
          "internalType": "uint256",
          "name": "",
          "type": "uint256"
        }
      ],
      "stateMutability": "view",
      "type": "function"
    },
    {
      "inputs": [],
      "name": "VERSION_2",
      "outputs": [
        {
          "internalType": "uint256",
          "name": "",
          "type": "uint256"
        }
      ],
      "stateMutability": "view",
      "type": "function"
    },
    {
      "inputs": [
        {
          "internalType": "address",
          "name": "_bountyAddress",
          "type": "address"
        }
      ],
      "name": "bountyIsClaimable",
      "outputs": [
        {
          "internalType": "bool",
          "name": "",
          "type": "bool"
        }
      ],
      "stateMutability": "view",
      "type": "function"
    },
    {
      "inputs": [
        {
          "internalType": "address",
          "name": "_bountyAddress",
          "type": "address"
        },
        {
          "internalType": "address",
          "name": "_closer",
          "type": "address"
        },
        {
          "internalType": "bytes",
          "name": "_closerData",
          "type": "bytes"
        }
      ],
      "name": "claimBounty",
      "outputs": [],
      "stateMutability": "nonpayable",
      "type": "function"
    },
    {
      "inputs": [
        {
          "internalType": "address",
          "name": "_bountyAddress",
          "type": "address"
        },
        {
          "internalType": "string",
          "name": "_externalUserId",
          "type": "string"
        },
        {
          "internalType": "bytes",
          "name": "_closerData",
          "type": "bytes"
        }
      ],
      "name": "directClaimTieredBounty",
      "outputs": [],
      "stateMutability": "nonpayable",
      "type": "function"
    },
    {
      "inputs": [
        {
          "internalType": "address",
          "name": "oracle",
          "type": "address"
        }
      ],
      "name": "initialize",
      "outputs": [],
      "stateMutability": "nonpayable",
      "type": "function"
    },
    {
      "inputs": [],
      "name": "openQ",
      "outputs": [
        {
          "internalType": "address",
          "name": "",
          "type": "address"
        }
      ],
      "stateMutability": "view",
      "type": "function"
    },
    {
      "inputs": [],
      "name": "oracle",
      "outputs": [
        {
          "internalType": "address",
          "name": "",
          "type": "address"
        }
      ],
      "stateMutability": "view",
      "type": "function"
    },
    {
      "inputs": [],
      "name": "owner",
      "outputs": [
        {
          "internalType": "address",
          "name": "",
          "type": "address"
        }
      ],
      "stateMutability": "view",
      "type": "function"
    },
    {
      "inputs": [],
      "name": "proxiableUUID",
      "outputs": [
        {
          "internalType": "bytes32",
          "name": "",
          "type": "bytes32"
        }
      ],
      "stateMutability": "view",
      "type": "function"
    },
    {
      "inputs": [],
      "name": "renounceOwnership",
      "outputs": [],
      "stateMutability": "nonpayable",
      "type": "function"
    },
    {
      "inputs": [
        {
          "internalType": "address",
          "name": "_openQ",
          "type": "address"
        }
      ],
      "name": "setOpenQ",
      "outputs": [],
      "stateMutability": "nonpayable",
      "type": "function"
    },
    {
      "inputs": [
        {
          "internalType": "address",
          "name": "_newOracle",
          "type": "address"
        }
      ],
      "name": "transferOracle",
      "outputs": [],
      "stateMutability": "nonpayable",
      "type": "function"
    },
    {
      "inputs": [
        {
          "internalType": "address",
          "name": "newOwner",
          "type": "address"
        }
      ],
      "name": "transferOwnership",
      "outputs": [],
      "stateMutability": "nonpayable",
      "type": "function"
    },
    {
      "inputs": [
        {
          "internalType": "address",
          "name": "newImplementation",
          "type": "address"
        }
      ],
      "name": "upgradeTo",
      "outputs": [],
      "stateMutability": "nonpayable",
      "type": "function"
    },
    {
      "inputs": [
        {
          "internalType": "address",
          "name": "newImplementation",
          "type": "address"
        },
        {
          "internalType": "bytes",
          "name": "data",
          "type": "bytes"
        }
      ],
      "name": "upgradeToAndCall",
      "outputs": [],
      "stateMutability": "payable",
      "type": "function"
    }
  ],
  "bytecode": "0x60a06040523060805234801561001457600080fd5b506080516141a6610092600039600081816102fe01528181610347015281816103cf0152818161040f0152818161048b015281816105c20152818161060201528181610b7c01528181610bbc01528181610c7e01528181610cbe0152818161109f015281816110df01528181611322015261136201526141a66000f3fe6080604052600436106100f35760003560e01c80638da5cb5b1161008a578063e732680611610059578063e732680614610264578063e7ae390a14610284578063f2fde38b146102b4578063fdf993a8146102d457600080fd5b80638da5cb5b146101e6578063a9c6dfda14610204578063c4d66de814610224578063e71aa3151461024457600080fd5b8063715018a6116100c6578063715018a61461016a5780637dc0d1d01461017f5780637dc81fa2146101b15780638ca4d584146101d157600080fd5b806326c20e5f146100f85780633659cfe6146101205780634f1ef2861461014257806352d1902d14610155575b600080fd5b34801561010457600080fd5b5061010d600181565b6040519081526020015b60405180910390f35b34801561012c57600080fd5b5061014061013b366004613806565b6102f4565b005b6101406101503660046138d0565b6103c5565b34801561016157600080fd5b5061010d61047e565b34801561017657600080fd5b50610140610531565b34801561018b57600080fd5b506033546001600160a01b03165b6040516001600160a01b039091168152602001610117565b3480156101bd57600080fd5b5060ca54610199906001600160a01b031681565b3480156101dd57600080fd5b5061010d600281565b3480156101f257600080fd5b506034546001600160a01b0316610199565b34801561021057600080fd5b5061014061021f36600461397d565b610545565b34801561023057600080fd5b5061014061023f366004613806565b610ab2565b34801561025057600080fd5b5061014061025f3660046139e2565b610c74565b34801561027057600080fd5b5061014061027f366004613806565b611095565b34801561029057600080fd5b506102a461029f366004613806565b611194565b6040519015158152602001610117565b3480156102c057600080fd5b506101406102cf366004613806565b6112a2565b3480156102e057600080fd5b506101406102ef366004613806565b611318565b6001600160a01b037f00000000000000000000000000000000000000000000000000000000000000001630036103455760405162461bcd60e51b815260040161033c90613a65565b60405180910390fd5b7f00000000000000000000000000000000000000000000000000000000000000006001600160a01b03166103776113e2565b6001600160a01b03161461039d5760405162461bcd60e51b815260040161033c90613ab1565b6103a6816113fe565b604080516000808252602082019092526103c291839190611406565b50565b6001600160a01b037f000000000000000000000000000000000000000000000000000000000000000016300361040d5760405162461bcd60e51b815260040161033c90613a65565b7f00000000000000000000000000000000000000000000000000000000000000006001600160a01b031661043f6113e2565b6001600160a01b0316146104655760405162461bcd60e51b815260040161033c90613ab1565b61046e826113fe565b61047a82826001611406565b5050565b6000306001600160a01b037f0000000000000000000000000000000000000000000000000000000000000000161461051e5760405162461bcd60e51b815260206004820152603860248201527f555550535570677261646561626c653a206d757374206e6f742062652063616c60448201527f6c6564207468726f7567682064656c656761746563616c6c0000000000000000606482015260840161033c565b5060008051602061412a83398151915290565b610539611576565b61054360006115d0565b565b6033546001600160a01b031633146105b85760405162461bcd60e51b815260206004820152603060248201527f4f7261636c697a653a2063616c6c6572206973206e6f7420746865206375727260448201526f656e74204f70656e51204f7261636c6560801b606482015260840161033c565b6001600160a01b037f00000000000000000000000000000000000000000000000000000000000000001630036106005760405162461bcd60e51b815260040161033c90613a65565b7f00000000000000000000000000000000000000000000000000000000000000006001600160a01b03166106326113e2565b6001600160a01b0316146106585760405162461bcd60e51b815260040161033c90613ab1565b60008490506000816001600160a01b031663b3ca1f3b6040518163ffffffff1660e01b8152600401602060405180830381865afa15801561069d573d6000803e3d6000fd5b505050506040513d601f19601f820116820180604052508101906106c19190613afd565b90508061096a57600063ffffffff16826001600160a01b031663200d2ed26040518163ffffffff1660e01b8152600401602060405180830381865afa15801561070e573d6000803e3d6000fd5b505050506040513d601f19601f820116820180604052508101906107329190613afd565b1460405180604001604052806019815260200178434f4e54524143545f49535f4e4f545f434c41494d41424c4560381b815250906107835760405162461bcd60e51b815260040161033c9190613b66565b5061079082868686611622565b604051632338d37760e01b81526001600160a01b03831690632338d377906107c090889088908890600401613ba2565b600060405180830381600087803b1580156107da57600080fd5b505af11580156107ee573d6000803e3d6000fd5b505050507fb9d76ba577270421a3b4826a02b81b7678f1d62214225408b99f94e42d78278c826001600160a01b031663c17bd75e6040518163ffffffff1660e01b8152600401600060405180830381865afa158015610851573d6000803e3d6000fd5b505050506040513d6000823e601f3d908101601f191682016040526108799190810190613bc7565b87846001600160a01b03166323bd4d7a6040518163ffffffff1660e01b8152600401600060405180830381865afa1580156108b8573d6000803e3d6000fd5b505050506040513d6000823e601f3d908101601f191682016040526108e09190810190613bc7565b8842876001600160a01b031663b3ca1f3b6040518163ffffffff1660e01b8152600401602060405180830381865afa158015610920573d6000803e3d6000fd5b505050506040513d601f19601f820116820180604052508101906109449190613afd565b8a8a600260405161095d99989796959493929190613c35565b60405180910390a1610a6a565b6000198101610a4057600063ffffffff16826001600160a01b031663200d2ed26040518163ffffffff1660e01b8152600401602060405180830381865afa1580156109b9573d6000803e3d6000fd5b505050506040513d601f19601f820116820180604052508101906109dd9190613afd565b1460405180604001604052806019815260200178434f4e54524143545f49535f4e4f545f434c41494d41424c4560381b81525090610a2e5760405162461bcd60e51b815260040161033c9190613b66565b50610a3b82868686611e04565b610a6a565b6001198101610a5557610a3b82868686611fda565b60021981016100f357610a3b82868686612ad2565b7fd6de63792ebd5ae7b0da0e2a38b6fe8acd3b85073d8c96d84bd84271663d0eca428286866002604051610aa2959493929190613caf565b60405180910390a1505050505050565b600054610100900460ff1615808015610ad25750600054600160ff909116105b80610aec5750303b158015610aec575060005460ff166001145b610b4f5760405162461bcd60e51b815260206004820152602e60248201527f496e697469616c697a61626c653a20636f6e747261637420697320616c72656160448201526d191e481a5b9a5d1a585b1a5e995960921b606482015260840161033c565b6000805460ff191660011790558015610b72576000805461ff0019166101001790555b6001600160a01b037f0000000000000000000000000000000000000000000000000000000000000000163003610bba5760405162461bcd60e51b815260040161033c90613a65565b7f00000000000000000000000000000000000000000000000000000000000000006001600160a01b0316610bec6113e2565b6001600160a01b031614610c125760405162461bcd60e51b815260040161033c90613ab1565b610c1a613495565b610c226134c4565b610c2b826134eb565b801561047a576000805461ff0019169055604051600181527f7f26b83ff96e1f2b6a682f133852f6798a09c465da95921460cefb38474024989060200160405180910390a15050565b6001600160a01b037f0000000000000000000000000000000000000000000000000000000000000000163003610cbc5760405162461bcd60e51b815260040161033c90613a65565b7f00000000000000000000000000000000000000000000000000000000000000006001600160a01b0316610cee6113e2565b6001600160a01b031614610d145760405162461bcd60e51b815260040161033c90613ab1565b6000859050806001600160a01b0316631d1438486040518163ffffffff1660e01b8152600401602060405180830381865afa158015610d57573d6000803e3d6000fd5b505050506040513d601f19601f82011682018060405250810190610d7b9190613ce1565b6001600160a01b0316336001600160a01b0316146040518060400160405280601181526020017021a0a62622a92fa727aa2fa4a9a9aaa2a960791b81525090610dd75760405162461bcd60e51b815260040161033c9190613b66565b5060ca54604051631c401b3d60e21b81526000916001600160a01b0316906371006cf490610e0b9089908990600401613cfe565b6020604051808303816000875af1158015610e2a573d6000803e3d6000fd5b505050506040513d601f19601f82011682018060405250810190610e4e9190613ce1565b6040805180820190915260158152744e4f5f4153534f4349415445445f4144445245535360581b60208201529091506001600160a01b038216610ea45760405162461bcd60e51b815260040161033c9190613b66565b50600363ffffffff16826001600160a01b031663b3ca1f3b6040518163ffffffff1660e01b8152600401602060405180830381865afa158015610eeb573d6000803e3d6000fd5b505050506040513d601f19601f82011682018060405250810190610f0f9190613afd565b03610f2557610f2082828686612ad2565b610feb565b600263ffffffff16826001600160a01b031663b3ca1f3b6040518163ffffffff1660e01b8152600401602060405180830381865afa158015610f6b573d6000803e3d6000fd5b505050506040513d601f19601f82011682018060405250810190610f8f9190613afd565b03610fa057610f2082828686611fda565b604080518082018252601a81527f4e4f545f415f434f4d5045544954494f4e5f434f4e54524143540000000000006020820152905162461bcd60e51b815261033c9190600401613b66565b7fd6de63792ebd5ae7b0da0e2a38b6fe8acd3b85073d8c96d84bd84271663d0eca42836001600160a01b031663b3ca1f3b6040518163ffffffff1660e01b8152600401602060405180830381865afa15801561104b573d6000803e3d6000fd5b505050506040513d601f19601f8201168201806040525081019061106f9190613afd565b86866002604051611084959493929190613caf565b60405180910390a150505050505050565b6001600160a01b037f00000000000000000000000000000000000000000000000000000000000000001630036110dd5760405162461bcd60e51b815260040161033c90613a65565b7f00000000000000000000000000000000000000000000000000000000000000006001600160a01b031661110f6113e2565b6001600160a01b0316146111355760405162461bcd60e51b815260040161033c90613ab1565b61113d611576565b60408051808201909152600f81526e4e4f5f5a45524f5f4144445245535360881b60208201526001600160a01b03821661118a5760405162461bcd60e51b815260040161033c9190613b66565b506103c281613534565b6000808290506000816001600160a01b031663200d2ed26040518163ffffffff1660e01b8152600401602060405180830381865afa1580156111da573d6000803e3d6000fd5b505050506040513d601f19601f820116820180604052508101906111fe9190613afd565b90506000826001600160a01b031663b3ca1f3b6040518163ffffffff1660e01b8152600401602060405180830381865afa158015611240573d6000803e3d6000fd5b505050506040513d601f19601f820116820180604052508101906112649190613afd565b90508015806112735750600181145b8061127e5750600281145b806112895750600381145b156112975750159392505050565b506001149392505050565b6112aa611576565b6001600160a01b03811661130f5760405162461bcd60e51b815260206004820152602660248201527f4f776e61626c653a206e6577206f776e657220697320746865207a65726f206160448201526564647265737360d01b606482015260840161033c565b6103c2816115d0565b6001600160a01b037f00000000000000000000000000000000000000000000000000000000000000001630036113605760405162461bcd60e51b815260040161033c90613a65565b7f00000000000000000000000000000000000000000000000000000000000000006001600160a01b03166113926113e2565b6001600160a01b0316146113b85760405162461bcd60e51b815260040161033c90613ab1565b6113c0611576565b60ca80546001600160a01b0319166001600160a01b0392909216919091179055565b60008051602061412a833981519152546001600160a01b031690565b6103c2611576565b7f4910fdfa16fed3260ed0e7147f7cc6da11a60208b5b9406d12a635614ffd91435460ff161561143e5761143983613586565b505050565b826001600160a01b03166352d1902d6040518163ffffffff1660e01b8152600401602060405180830381865afa925050508015611498575060408051601f3d908101601f1916820190925261149591810190613afd565b60015b6114fb5760405162461bcd60e51b815260206004820152602e60248201527f45524331393637557067726164653a206e657720696d706c656d656e7461746960448201526d6f6e206973206e6f74205555505360901b606482015260840161033c565b60008051602061412a833981519152811461156a5760405162461bcd60e51b815260206004820152602960248201527f45524331393637557067726164653a20756e737570706f727465642070726f786044820152681a58589b195555525160ba1b606482015260840161033c565b50611439838383613622565b6034546001600160a01b031633146105435760405162461bcd60e51b815260206004820181905260248201527f4f776e61626c653a2063616c6c6572206973206e6f7420746865206f776e6572604482015260640161033c565b603480546001600160a01b038381166001600160a01b0319831681179093556040519116919082907f8be0079c531659141344cd1fd0a4f28419497f9722a3daafe3b4186f6b6457e090600090a35050565b60005b846001600160a01b031663ee8c24b86040518163ffffffff1660e01b8152600401600060405180830381865afa158015611663573d6000803e3d6000fd5b505050506040513d6000823e601f3d908101601f1916820160405261168b9190810190613d3e565b51811015611991576000856001600160a01b031663cb2da3db86886001600160a01b031663ee8c24b86040518163ffffffff1660e01b8152600401600060405180830381865afa1580156116e3573d6000803e3d6000fd5b505050506040513d6000823e601f3d908101601f1916820160405261170b9190810190613d3e565b858151811061171c5761171c613dd8565b60200260200101516040518363ffffffff1660e01b81526004016117569291906001600160a01b0392831681529116602082015260400190565b6020604051808303816000875af1158015611775573d6000803e3d6000fd5b505050506040513d601f19601f820116820180604052508101906117999190613afd565b905060008051602061410a833981519152866001600160a01b031663c17bd75e6040518163ffffffff1660e01b8152600401600060405180830381865afa1580156117e8573d6000803e3d6000fd5b505050506040513d6000823e601f3d908101601f191682016040526118109190810190613bc7565b87886001600160a01b03166323bd4d7a6040518163ffffffff1660e01b8152600401600060405180830381865afa15801561184f573d6000803e3d6000fd5b505050506040513d6000823e601f3d908101601f191682016040526118779190810190613bc7565b88428b6001600160a01b031663ee8c24b86040518163ffffffff1660e01b8152600401600060405180830381865afa1580156118b7573d6000803e3d6000fd5b505050506040513d6000823e601f3d908101601f191682016040526118df9190810190613d3e565b88815181106118f0576118f0613dd8565b6020026020010151878d6001600160a01b031663b3ca1f3b6040518163ffffffff1660e01b8152600401602060405180830381865afa158015611937573d6000803e3d6000fd5b505050506040513d601f19601f8201168201806040525081019061195b9190613afd565b8c8c60026040516119769b9a99989796959493929190613dee565b60405180910390a1508061198981613e7a565b915050611625565b5060005b846001600160a01b03166377ede8a66040518163ffffffff1660e01b8152600401600060405180830381865afa1580156119d3573d6000803e3d6000fd5b505050506040513d6000823e601f3d908101601f191682016040526119fb9190810190613ea1565b51811015611dfd57604051630de2fe4b60e11b8152600481018290526001600160a01b038616906371ec4ebf9086908390631bc5fc9690602401602060405180830381865afa158015611a52573d6000803e3d6000fd5b505050506040513d601f19601f82011682018060405250810190611a769190613afd565b6040516001600160e01b031960e085901b1681526001600160a01b0390921660048301526024820152604401600060405180830381600087803b158015611abc57600080fd5b505af1158015611ad0573d6000803e3d6000fd5b505050507f7bec1fa43a121aa27c28cbbe6f5296871967c47439c054218395b34e41579e55856001600160a01b031663c17bd75e6040518163ffffffff1660e01b8152600401600060405180830381865afa158015611b33573d6000803e3d6000fd5b505050506040513d6000823e601f3d908101601f19168201604052611b5b9190810190613bc7565b86876001600160a01b03166323bd4d7a6040518163ffffffff1660e01b8152600401600060405180830381865afa158015611b9a573d6000803e3d6000fd5b505050506040513d6000823e601f3d908101601f19168201604052611bc29190810190613bc7565b604051630de2fe4b60e11b815260048101869052889042906001600160a01b038c16906397bb3ce9908290631bc5fc9690602401602060405180830381865afa158015611c13573d6000803e3d6000fd5b505050506040513d601f19601f82011682018060405250810190611c379190613afd565b6040518263ffffffff1660e01b8152600401611c5591815260200190565b602060405180830381865afa158015611c72573d6000803e3d6000fd5b505050506040513d601f19601f82011682018060405250810190611c969190613ce1565b604051630de2fe4b60e11b8152600481018990526001600160a01b038d169063f2321725908290631bc5fc9690602401602060405180830381865afa158015611ce3573d6000803e3d6000fd5b505050506040513d601f19601f82011682018060405250810190611d079190613afd565b6040518263ffffffff1660e01b8152600401611d2591815260200190565b602060405180830381865afa158015611d42573d6000803e3d6000fd5b505050506040513d601f19601f82011682018060405250810190611d669190613afd565b8c6001600160a01b031663b3ca1f3b6040518163ffffffff1660e01b8152600401602060405180830381865afa158015611da4573d6000803e3d6000fd5b505050506040513d601f19601f82011682018060405250810190611dc89190613afd565b8b8b6002604051611de39b9a99989796959493929190613dee565b60405180910390a180611df581613e7a565b915050611995565b5050505050565b600080856001600160a01b031663a09dd1aa8686866040518463ffffffff1660e01b8152600401611e3793929190613ba2565b60408051808303816000875af1158015611e55573d6000803e3d6000fd5b505050506040513d601f19601f82011682018060405250810190611e799190613f27565b9150915060008051602061410a833981519152866001600160a01b031663c17bd75e6040518163ffffffff1660e01b8152600401600060405180830381865afa158015611eca573d6000803e3d6000fd5b505050506040513d6000823e601f3d908101601f19168201604052611ef29190810190613bc7565b87886001600160a01b03166323bd4d7a6040518163ffffffff1660e01b8152600401600060405180830381865afa158015611f31573d6000803e3d6000fd5b505050506040513d6000823e601f3d908101601f19168201604052611f599190810190613bc7565b884287878d6001600160a01b031663b3ca1f3b6040518163ffffffff1660e01b8152600401602060405180830381865afa158015611f9b573d6000803e3d6000fd5b505050506040513d601f19601f82011682018060405250810190611fbf9190613afd565b8c8c6002604051610aa29b9a99989796959493929190613dee565b6000611fe882840184613f75565b604051634ee5bdc760e11b8152600481018290529095506001600160a01b038a169450639dcb7b8e9350602401915061201e9050565b602060405180830381865afa15801561203b573d6000803e3d6000fd5b505050506040513d601f19601f8201168201806040525081019061205f9190614008565b15604051806040016040528060148152602001731512515497d053149150511657d0d3105253515160621b815250906120ab5760405162461bcd60e51b815260040161033c9190613b66565b50846001600160a01b031663200d2ed26040518163ffffffff1660e01b8152600401602060405180830381865afa1580156120ea573d6000803e3d6000fd5b505050506040513d601f19601f8201168201806040525081019061210e9190613afd565b6000036122e657846001600160a01b03166322fa365e6040518163ffffffff1660e01b8152600401600060405180830381600087803b15801561215057600080fd5b505af1158015612164573d6000803e3d6000fd5b505050507fb9d76ba577270421a3b4826a02b81b7678f1d62214225408b99f94e42d78278c856001600160a01b031663c17bd75e6040518163ffffffff1660e01b8152600401600060405180830381865afa1580156121c7573d6000803e3d6000fd5b505050506040513d6000823e601f3d908101601f191682016040526121ef9190810190613bc7565b86876001600160a01b03166323bd4d7a6040518163ffffffff1660e01b8152600401600060405180830381865afa15801561222e573d6000803e3d6000fd5b505050506040513d6000823e601f3d908101601f191682016040526122569190810190613bc7565b6000428a6001600160a01b031663b3ca1f3b6040518163ffffffff1660e01b8152600401602060405180830381865afa158015612297573d6000803e3d6000fd5b505050506040513d601f19601f820116820180604052508101906122bb9190613afd565b604080516000815260208101918290526122dd9796959493929160029061402a565b60405180910390a15b60005b856001600160a01b031663ee8c24b86040518163ffffffff1660e01b8152600401600060405180830381865afa158015612327573d6000803e3d6000fd5b505050506040513d6000823e601f3d908101601f1916820160405261234f9190810190613d3e565b51811015612660576000866001600160a01b031663b3b41cea87858a6001600160a01b031663ee8c24b86040518163ffffffff1660e01b8152600401600060405180830381865afa1580156123a8573d6000803e3d6000fd5b505050506040513d6000823e601f3d908101601f191682016040526123d09190810190613d3e565b86815181106123e1576123e1613dd8565b60200260200101516040518463ffffffff1660e01b8152600401612425939291906001600160a01b0393841681526020810192909252909116604082015260600190565b6020604051808303816000875af1158015612444573d6000803e3d6000fd5b505050506040513d601f19601f820116820180604052508101906124689190613afd565b905060008051602061410a833981519152876001600160a01b031663c17bd75e6040518163ffffffff1660e01b8152600401600060405180830381865afa1580156124b7573d6000803e3d6000fd5b505050506040513d6000823e601f3d908101601f191682016040526124df9190810190613bc7565b88896001600160a01b03166323bd4d7a6040518163ffffffff1660e01b8152600401600060405180830381865afa15801561251e573d6000803e3d6000fd5b505050506040513d6000823e601f3d908101601f191682016040526125469190810190613bc7565b89428c6001600160a01b031663ee8c24b86040518163ffffffff1660e01b8152600401600060405180830381865afa158015612586573d6000803e3d6000fd5b505050506040513d6000823e601f3d908101601f191682016040526125ae9190810190613d3e565b88815181106125bf576125bf613dd8565b6020026020010151878e6001600160a01b031663b3ca1f3b6040518163ffffffff1660e01b8152600401602060405180830381865afa158015612606573d6000803e3d6000fd5b505050506040513d601f19601f8201168201806040525081019061262a9190613afd565b8d8d60026040516126459b9a99989796959493929190613dee565b60405180910390a1508061265881613e7a565b9150506122e9565b5060005b856001600160a01b03166377ede8a66040518163ffffffff1660e01b8152600401600060405180830381865afa1580156126a2573d6000803e3d6000fd5b505050506040513d6000823e601f3d908101601f191682016040526126ca9190810190613ea1565b51811015612a7057604051630de2fe4b60e11b8152600481018290526000906001600160a01b03881690631bc5fc9690602401602060405180830381865afa15801561271a573d6000803e3d6000fd5b505050506040513d601f19601f8201168201806040525081019061273e9190613afd565b60405163160a30a360e01b81526004810182905290915083906001600160a01b0389169063160a30a390602401602060405180830381865afa158015612788573d6000803e3d6000fd5b505050506040513d601f19601f820116820180604052508101906127ac9190613afd565b03612a5d576040516371ec4ebf60e01b81526001600160a01b038781166004830152602482018390528816906371ec4ebf90604401600060405180830381600087803b1580156127fb57600080fd5b505af115801561280f573d6000803e3d6000fd5b505050507f7bec1fa43a121aa27c28cbbe6f5296871967c47439c054218395b34e41579e55876001600160a01b031663c17bd75e6040518163ffffffff1660e01b8152600401600060405180830381865afa158015612872573d6000803e3d6000fd5b505050506040513d6000823e601f3d908101601f1916820160405261289a9190810190613bc7565b88896001600160a01b03166323bd4d7a6040518163ffffffff1660e01b8152600401600060405180830381865afa1580156128d9573d6000803e3d6000fd5b505050506040513d6000823e601f3d908101601f191682016040526129019190810190613bc7565b6040516397bb3ce960e01b8152600481018690528a9042906001600160a01b038e16906397bb3ce990602401602060405180830381865afa15801561294a573d6000803e3d6000fd5b505050506040513d601f19601f8201168201806040525081019061296e9190613ce1565b60405163f232172560e01b8152600481018990526001600160a01b038f169063f232172590602401602060405180830381865afa1580156129b3573d6000803e3d6000fd5b505050506040513d601f19601f820116820180604052508101906129d79190613afd565b8e6001600160a01b031663b3ca1f3b6040518163ffffffff1660e01b8152600401602060405180830381865afa158015612a15573d6000803e3d6000fd5b505050506040513d601f19601f82011682018060405250810190612a399190613afd565b8d8d6002604051612a549b9a99989796959493929190613dee565b60405180910390a15b5080612a6881613e7a565b915050612664565b5060405163fe0329c960e01b8152600481018290526001600160a01b0386169063fe0329c990602401600060405180830381600087803b158015612ab357600080fd5b505af1158015612ac7573d6000803e3d6000fd5b505050505050505050565b6000612ae082840184613f75565b604051634ee5bdc760e11b8152600481018290529095506001600160a01b038a169450639dcb7b8e93506024019150612b169050565b602060405180830381865afa158015612b33573d6000803e3d6000fd5b505050506040513d601f19601f82011682018060405250810190612b579190614008565b15604051806040016040528060148152602001731512515497d053149150511657d0d3105253515160621b81525090612ba35760405162461bcd60e51b815260040161033c9190613b66565b50846001600160a01b031663200d2ed26040518163ffffffff1660e01b8152600401602060405180830381865afa158015612be2573d6000803e3d6000fd5b505050506040513d601f19601f82011682018060405250810190612c069190613afd565b600003612dde57846001600160a01b03166322fa365e6040518163ffffffff1660e01b8152600401600060405180830381600087803b158015612c4857600080fd5b505af1158015612c5c573d6000803e3d6000fd5b505050507fb9d76ba577270421a3b4826a02b81b7678f1d62214225408b99f94e42d78278c856001600160a01b031663c17bd75e6040518163ffffffff1660e01b8152600401600060405180830381865afa158015612cbf573d6000803e3d6000fd5b505050506040513d6000823e601f3d908101601f19168201604052612ce79190810190613bc7565b86876001600160a01b03166323bd4d7a6040518163ffffffff1660e01b8152600401600060405180830381865afa158015612d26573d6000803e3d6000fd5b505050506040513d6000823e601f3d908101601f19168201604052612d4e9190810190613bc7565b6000428a6001600160a01b031663b3ca1f3b6040518163ffffffff1660e01b8152600401602060405180830381865afa158015612d8f573d6000803e3d6000fd5b505050506040513d601f19601f82011682018060405250810190612db39190613afd565b60408051600081526020810191829052612dd59796959493929160029061402a565b60405180910390a15b60405163020702ff60e11b81526001600160a01b038581166004830152602482018390526000919087169063040e05fe906044016020604051808303816000875af1158015612e31573d6000803e3d6000fd5b505050506040513d601f19601f82011682018060405250810190612e559190613afd565b905060008051602061410a833981519152866001600160a01b031663c17bd75e6040518163ffffffff1660e01b8152600401600060405180830381865afa158015612ea4573d6000803e3d6000fd5b505050506040513d6000823e601f3d908101601f19168201604052612ecc9190810190613bc7565b87886001600160a01b03166323bd4d7a6040518163ffffffff1660e01b8152600401600060405180830381865afa158015612f0b573d6000803e3d6000fd5b505050506040513d6000823e601f3d908101601f19168201604052612f339190810190613bc7565b88428b6001600160a01b0316635cc048386040518163ffffffff1660e01b8152600401602060405180830381865afa158015612f73573d6000803e3d6000fd5b505050506040513d601f19601f82011682018060405250810190612f979190613ce1565b878d6001600160a01b031663b3ca1f3b6040518163ffffffff1660e01b8152600401602060405180830381865afa158015612fd6573d6000803e3d6000fd5b505050506040513d601f19601f82011682018060405250810190612ffa9190613afd565b8c8c60026040516130159b9a99989796959493929190613dee565b60405180910390a160005b866001600160a01b03166377ede8a66040518163ffffffff1660e01b8152600401600060405180830381865afa15801561305e573d6000803e3d6000fd5b505050506040513d6000823e601f3d908101601f191682016040526130869190810190613ea1565b5181101561343257604051630de2fe4b60e11b8152600481018290526000906001600160a01b03891690631bc5fc9690602401602060405180830381865afa1580156130d6573d6000803e3d6000fd5b505050506040513d601f19601f820116820180604052508101906130fa9190613afd565b60405163160a30a360e01b81526004810182905290915084906001600160a01b038a169063160a30a390602401602060405180830381865afa158015613144573d6000803e3d6000fd5b505050506040513d601f19601f820116820180604052508101906131689190613afd565b0361341f576040516371ec4ebf60e01b81526001600160a01b038881166004830152602482018390528916906371ec4ebf90604401600060405180830381600087803b1580156131b757600080fd5b505af11580156131cb573d6000803e3d6000fd5b505050507f7bec1fa43a121aa27c28cbbe6f5296871967c47439c054218395b34e41579e55886001600160a01b031663c17bd75e6040518163ffffffff1660e01b8152600401600060405180830381865afa15801561322e573d6000803e3d6000fd5b505050506040513d6000823e601f3d908101601f191682016040526132569190810190613bc7565b898a6001600160a01b03166323bd4d7a6040518163ffffffff1660e01b8152600401600060405180830381865afa158015613295573d6000803e3d6000fd5b505050506040513d6000823e601f3d908101601f191682016040526132bd9190810190613bc7565b6040516397bb3ce960e01b8152600481018690528b9042906001600160a01b038f16906397bb3ce990602401602060405180830381865afa158015613306573d6000803e3d6000fd5b505050506040513d601f19601f8201168201806040525081019061332a9190613ce1565b8e6001600160a01b031663f2321725896040518263ffffffff1660e01b815260040161335891815260200190565b602060405180830381865afa158015613375573d6000803e3d6000fd5b505050506040513d601f19601f820116820180604052508101906133999190613afd565b8f6001600160a01b031663b3ca1f3b6040518163ffffffff1660e01b8152600401602060405180830381865afa1580156133d7573d6000803e3d6000fd5b505050506040513d601f19601f820116820180604052508101906133fb9190613afd565b8e8e60026040516134169b9a99989796959493929190613dee565b60405180910390a15b508061342a81613e7a565b915050613020565b5060405163fe0329c960e01b8152600481018390526001600160a01b0387169063fe0329c990602401600060405180830381600087803b15801561347557600080fd5b505af1158015613489573d6000803e3d6000fd5b50505050505050505050565b600054610100900460ff166134bc5760405162461bcd60e51b815260040161033c906140a2565b61054361364d565b600054610100900460ff166105435760405162461bcd60e51b815260040161033c906140a2565b600054610100900460ff166135125760405162461bcd60e51b815260040161033c906140a2565b603380546001600160a01b0319166001600160a01b0392909216919091179055565b603380546001600160a01b038381166001600160a01b0319831681179093556040519116919082907f9b0948b943e24ff3413cb400b2eeae4337138739aaf31759dc6e813e8076fbc390600090a35050565b6001600160a01b0381163b6135f35760405162461bcd60e51b815260206004820152602d60248201527f455243313936373a206e657720696d706c656d656e746174696f6e206973206e60448201526c1bdd08184818dbdb9d1c9858dd609a1b606482015260840161033c565b60008051602061412a83398151915280546001600160a01b0319166001600160a01b0392909216919091179055565b61362b8361367d565b6000825111806136385750805b156114395761364783836136bd565b50505050565b600054610100900460ff166136745760405162461bcd60e51b815260040161033c906140a2565b610543336115d0565b61368681613586565b6040516001600160a01b038216907fbc7cd75a20ee27fd9adebab32041f755214dbc6bffa90cc0225b39da2e5c2d3b90600090a250565b60606001600160a01b0383163b6137255760405162461bcd60e51b815260206004820152602660248201527f416464726573733a2064656c65676174652063616c6c20746f206e6f6e2d636f6044820152651b9d1c9858dd60d21b606482015260840161033c565b600080846001600160a01b03168460405161374091906140ed565b600060405180830381855af49150503d806000811461377b576040519150601f19603f3d011682016040523d82523d6000602084013e613780565b606091505b50915091506137a8828260405180606001604052806027815260200161414a602791396137b1565b95945050505050565b606083156137c05750816137ea565b8251156137d05782518084602001fd5b8160405162461bcd60e51b815260040161033c9190613b66565b9392505050565b6001600160a01b03811681146103c257600080fd5b60006020828403121561381857600080fd5b81356137ea816137f1565b634e487b7160e01b600052604160045260246000fd5b604051601f8201601f1916810167ffffffffffffffff8111828210171561386257613862613823565b604052919050565b600067ffffffffffffffff82111561388457613884613823565b50601f01601f191660200190565b60006138a56138a08461386a565b613839565b90508281528383830111156138b957600080fd5b828260208301376000602084830101529392505050565b600080604083850312156138e357600080fd5b82356138ee816137f1565b9150602083013567ffffffffffffffff81111561390a57600080fd5b8301601f8101851361391b57600080fd5b61392a85823560208401613892565b9150509250929050565b60008083601f84011261394657600080fd5b50813567ffffffffffffffff81111561395e57600080fd5b60208301915083602082850101111561397657600080fd5b9250929050565b6000806000806060858703121561399357600080fd5b843561399e816137f1565b935060208501356139ae816137f1565b9250604085013567ffffffffffffffff8111156139ca57600080fd5b6139d687828801613934565b95989497509550505050565b6000806000806000606086880312156139fa57600080fd5b8535613a05816137f1565b9450602086013567ffffffffffffffff80821115613a2257600080fd5b613a2e89838a01613934565b90965094506040880135915080821115613a4757600080fd5b50613a5488828901613934565b969995985093965092949392505050565b6020808252602c908201527f46756e6374696f6e206d7573742062652063616c6c6564207468726f7567682060408201526b19195b1959d85d1958d85b1b60a21b606082015260800190565b6020808252602c908201527f46756e6374696f6e206d7573742062652063616c6c6564207468726f7567682060408201526b6163746976652070726f787960a01b606082015260800190565b600060208284031215613b0f57600080fd5b5051919050565b60005b83811015613b31578181015183820152602001613b19565b50506000910152565b60008151808452613b52816020860160208601613b16565b601f01601f19169290920160200192915050565b6020815260006137ea6020830184613b3a565b81835281816020850137506000828201602090810191909152601f909101601f19169091010190565b6001600160a01b03841681526040602082018190526000906137a89083018486613b79565b600060208284031215613bd957600080fd5b815167ffffffffffffffff811115613bf057600080fd5b8201601f81018413613c0157600080fd5b8051613c0f6138a08261386a565b818152856020838501011115613c2457600080fd5b6137a8826020830160208601613b16565b6000610100808352613c498184018d613b3a565b6001600160a01b038c811660208601528482036040860152909150613c6e828c613b3a565b9150808a166060850152508760808401528660a084015282810360c0840152613c98818688613b79565b9150508260e08301529a9950505050505050505050565b858152846020820152608060408201526000613ccf608083018587613b79565b90508260608301529695505050505050565b600060208284031215613cf357600080fd5b81516137ea816137f1565b602081526000613d12602083018486613b79565b949350505050565b600067ffffffffffffffff821115613d3457613d34613823565b5060051b60200190565b60006020808385031215613d5157600080fd5b825167ffffffffffffffff811115613d6857600080fd5b8301601f81018513613d7957600080fd5b8051613d876138a082613d1a565b81815260059190911b82018301908381019087831115613da657600080fd5b928401925b82841015613dcd578351613dbe816137f1565b82529284019290840190613dab565b979650505050505050565b634e487b7160e01b600052603260045260246000fd5b6000610140808352613e028184018f613b3a565b6001600160a01b038e811660208601528482036040860152909150613e27828e613b3a565b9150808c1660608501528a6080850152808a1660a0850152508760c08401528660e0840152828103610100840152613e60818688613b79565b915050826101208301529c9b505050505050505050505050565b600060018201613e9a57634e487b7160e01b600052601160045260246000fd5b5060010190565b60006020808385031215613eb457600080fd5b825167ffffffffffffffff811115613ecb57600080fd5b8301601f81018513613edc57600080fd5b8051613eea6138a082613d1a565b81815260059190911b82018301908381019087831115613f0957600080fd5b928401925b82841015613dcd57835182529284019290840190613f0e565b60008060408385031215613f3a57600080fd5b8251613f45816137f1565b6020939093015192949293505050565b600082601f830112613f6657600080fd5b6137ea83833560208501613892565b600080600080600060a08688031215613f8d57600080fd5b8535613f98816137f1565b9450602086013567ffffffffffffffff80821115613fb557600080fd5b613fc189838a01613f55565b955060408801359150613fd3826137f1565b90935060608701359080821115613fe957600080fd5b50613ff688828901613f55565b95989497509295608001359392505050565b60006020828403121561401a57600080fd5b815180151581146137ea57600080fd5b600061010080835261403e8184018c613b3a565b6001600160a01b038b811660208601528482036040860152909150614063828b613b3a565b91508089166060850152508660808401528560a084015282810360c084015261408c8186613b3a565b9150508260e08301529998505050505050505050565b6020808252602b908201527f496e697469616c697a61626c653a20636f6e7472616374206973206e6f74206960408201526a6e697469616c697a696e6760a81b606082015260800190565b600082516140ff818460208701613b16565b919091019291505056fe740c702bb9b71852192a0a943140360ddb500d906a1f945b48c4a6bf78047852360894a13ba1a3210667c828492db98dca3e2076cc3735a920a3ca505d382bbc416464726573733a206c6f772d6c6576656c2064656c65676174652063616c6c206661696c6564a26469706673582212209fe3741171cf59e4711fc1b8c5e8812833327fc559872a2ec7458f12ba4362e164736f6c63430008100033",
  "linkReferences": {},
  "deployedLinkReferences": {}
}