{
  "_format": "hh-sol-artifact-1",
  "contractName": "MockNft",
  "sourceName": "contracts/Mocks/MockNft.sol",
  "abi": [
    {
      "inputs": [],
      "stateMutability": "nonpayable",
      "type": "constructor"
    },
    {
      "anonymous": false,
      "inputs": [
        {
          "indexed": true,
          "internalType": "address",
          "name": "owner",
          "type": "address"
        },
        {
          "indexed": true,
          "internalType": "address",
          "name": "approved",
          "type": "address"
        },
        {
          "indexed": true,
          "internalType": "uint256",
          "name": "tokenId",
          "type": "uint256"
        }
      ],
      "name": "Approval",
      "type": "event"
    },
    {
      "anonymous": false,
      "inputs": [
        {
          "indexed": true,
          "internalType": "address",
          "name": "owner",
          "type": "address"
        },
        {
          "indexed": true,
          "internalType": "address",
          "name": "operator",
          "type": "address"
        },
        {
          "indexed": false,
          "internalType": "bool",
          "name": "approved",
          "type": "bool"
        }
      ],
      "name": "ApprovalForAll",
      "type": "event"
    },
    {
      "anonymous": false,
      "inputs": [
        {
          "indexed": true,
          "internalType": "address",
          "name": "previousOwner",
          "type": "address"
        },
        {
          "indexed": true,
          "internalType": "address",
          "name": "newOwner",
          "type": "address"
        }
      ],
      "name": "OwnershipTransferred",
      "type": "event"
    },
    {
      "anonymous": false,
      "inputs": [
        {
          "indexed": true,
          "internalType": "address",
          "name": "from",
          "type": "address"
        },
        {
          "indexed": true,
          "internalType": "address",
          "name": "to",
          "type": "address"
        },
        {
          "indexed": true,
          "internalType": "uint256",
          "name": "tokenId",
          "type": "uint256"
        }
      ],
      "name": "Transfer",
      "type": "event"
    },
    {
      "inputs": [
        {
          "internalType": "address",
          "name": "to",
          "type": "address"
        },
        {
          "internalType": "uint256",
          "name": "tokenId",
          "type": "uint256"
        }
      ],
      "name": "approve",
      "outputs": [],
      "stateMutability": "nonpayable",
      "type": "function"
    },
    {
      "inputs": [
        {
          "internalType": "address",
          "name": "owner",
          "type": "address"
        }
      ],
      "name": "balanceOf",
      "outputs": [
        {
          "internalType": "uint256",
          "name": "",
          "type": "uint256"
        }
      ],
      "stateMutability": "view",
      "type": "function"
    },
    {
      "inputs": [
        {
          "internalType": "uint256",
          "name": "tokenId",
          "type": "uint256"
        }
      ],
      "name": "getApproved",
      "outputs": [
        {
          "internalType": "address",
          "name": "",
          "type": "address"
        }
      ],
      "stateMutability": "view",
      "type": "function"
    },
    {
      "inputs": [
        {
          "internalType": "address",
          "name": "owner",
          "type": "address"
        },
        {
          "internalType": "address",
          "name": "operator",
          "type": "address"
        }
      ],
      "name": "isApprovedForAll",
      "outputs": [
        {
          "internalType": "bool",
          "name": "",
          "type": "bool"
        }
      ],
      "stateMutability": "view",
      "type": "function"
    },
    {
      "inputs": [],
      "name": "name",
      "outputs": [
        {
          "internalType": "string",
          "name": "",
          "type": "string"
        }
      ],
      "stateMutability": "view",
      "type": "function"
    },
    {
      "inputs": [],
      "name": "owner",
      "outputs": [
        {
          "internalType": "address",
          "name": "",
          "type": "address"
        }
      ],
      "stateMutability": "view",
      "type": "function"
    },
    {
      "inputs": [
        {
          "internalType": "uint256",
          "name": "tokenId",
          "type": "uint256"
        }
      ],
      "name": "ownerOf",
      "outputs": [
        {
          "internalType": "address",
          "name": "",
          "type": "address"
        }
      ],
      "stateMutability": "view",
      "type": "function"
    },
    {
      "inputs": [],
      "name": "renounceOwnership",
      "outputs": [],
      "stateMutability": "nonpayable",
      "type": "function"
    },
    {
      "inputs": [
        {
          "internalType": "address",
          "name": "to",
          "type": "address"
        }
      ],
      "name": "safeMint",
      "outputs": [],
      "stateMutability": "nonpayable",
      "type": "function"
    },
    {
      "inputs": [
        {
          "internalType": "address",
          "name": "from",
          "type": "address"
        },
        {
          "internalType": "address",
          "name": "to",
          "type": "address"
        },
        {
          "internalType": "uint256",
          "name": "tokenId",
          "type": "uint256"
        }
      ],
      "name": "safeTransferFrom",
      "outputs": [],
      "stateMutability": "nonpayable",
      "type": "function"
    },
    {
      "inputs": [
        {
          "internalType": "address",
          "name": "from",
          "type": "address"
        },
        {
          "internalType": "address",
          "name": "to",
          "type": "address"
        },
        {
          "internalType": "uint256",
          "name": "tokenId",
          "type": "uint256"
        },
        {
          "internalType": "bytes",
          "name": "data",
          "type": "bytes"
        }
      ],
      "name": "safeTransferFrom",
      "outputs": [],
      "stateMutability": "nonpayable",
      "type": "function"
    },
    {
      "inputs": [
        {
          "internalType": "address",
          "name": "operator",
          "type": "address"
        },
        {
          "internalType": "bool",
          "name": "approved",
          "type": "bool"
        }
      ],
      "name": "setApprovalForAll",
      "outputs": [],
      "stateMutability": "nonpayable",
      "type": "function"
    },
    {
      "inputs": [
        {
          "internalType": "bytes4",
          "name": "interfaceId",
          "type": "bytes4"
        }
      ],
      "name": "supportsInterface",
      "outputs": [
        {
          "internalType": "bool",
          "name": "",
          "type": "bool"
        }
      ],
      "stateMutability": "view",
      "type": "function"
    },
    {
      "inputs": [],
      "name": "symbol",
      "outputs": [
        {
          "internalType": "string",
          "name": "",
          "type": "string"
        }
      ],
      "stateMutability": "view",
      "type": "function"
    },
    {
      "inputs": [
        {
          "internalType": "uint256",
          "name": "tokenId",
          "type": "uint256"
        }
      ],
      "name": "tokenURI",
      "outputs": [
        {
          "internalType": "string",
          "name": "",
          "type": "string"
        }
      ],
      "stateMutability": "view",
      "type": "function"
    },
    {
      "inputs": [
        {
          "internalType": "address",
          "name": "from",
          "type": "address"
        },
        {
          "internalType": "address",
          "name": "to",
          "type": "address"
        },
        {
          "internalType": "uint256",
          "name": "tokenId",
          "type": "uint256"
        }
      ],
      "name": "transferFrom",
      "outputs": [],
      "stateMutability": "nonpayable",
      "type": "function"
    },
    {
      "inputs": [
        {
          "internalType": "address",
          "name": "newOwner",
          "type": "address"
        }
      ],
      "name": "transferOwnership",
      "outputs": [],
      "stateMutability": "nonpayable",
      "type": "function"
    }
  ],
  "bytecode": "0x6101006040526054608081815290620019f160a039600990620000239082620001ad565b503480156200003157600080fd5b5060405180604001604052806007815260200166135bd8dad3999d60ca1b815250604051806040016040528060048152602001631353919560e21b8152508160009081620000809190620001ad565b5060016200008f8282620001ad565b505050620000ac620000a6620000b260201b60201c565b620000b6565b62000279565b3390565b600780546001600160a01b038381166001600160a01b0319831681179093556040519116919082907f8be0079c531659141344cd1fd0a4f28419497f9722a3daafe3b4186f6b6457e090600090a35050565b634e487b7160e01b600052604160045260246000fd5b600181811c908216806200013357607f821691505b6020821081036200015457634e487b7160e01b600052602260045260246000fd5b50919050565b601f821115620001a857600081815260208120601f850160051c81016020861015620001835750805b601f850160051c820191505b81811015620001a4578281556001016200018f565b5050505b505050565b81516001600160401b03811115620001c957620001c962000108565b620001e181620001da84546200011e565b846200015a565b602080601f831160018114620002195760008415620002005750858301515b600019600386901b1c1916600185901b178555620001a4565b600085815260208120601f198616915b828110156200024a5788860151825594840194600190910190840162000229565b5085821015620002695787850151600019600388901b60f8161c191681555b5050505050600190811b01905550565b61176880620002896000396000f3fe608060405234801561001057600080fd5b50600436106100eb5760003560e01c806370a082311161009257806370a08231146101b9578063715018a6146101da5780638da5cb5b146101e257806395d89b41146101f3578063a22cb465146101fb578063b88d4fde1461020e578063c87b56dd14610221578063e985e9c514610234578063f2fde38b1461024757600080fd5b806301ffc9a7146100f057806306fdde0314610118578063081812fc1461012d578063095ea7b31461015857806323b872dd1461016d57806340d097c31461018057806342842e0e146101935780636352211e146101a6575b600080fd5b6101036100fe36600461114f565b61025a565b60405190151581526020015b60405180910390f35b6101206102ac565b60405161010f91906111bc565b61014061013b3660046111cf565b61033e565b6040516001600160a01b03909116815260200161010f565b61016b610166366004611204565b610365565b005b61016b61017b36600461122e565b61047f565b61016b61018e36600461126a565b6104b0565b61016b6101a136600461122e565b610575565b6101406101b43660046111cf565b610590565b6101cc6101c736600461126a565b6105c5565b60405190815260200161010f565b61016b61064b565b6007546001600160a01b0316610140565b61012061065f565b61016b610209366004611285565b61066e565b61016b61021c3660046112d7565b610679565b61012061022f3660046111cf565b6106b1565b6101036102423660046113b3565b6106bc565b61016b61025536600461126a565b6106ea565b60006001600160e01b031982166380ac58cd60e01b148061028b57506001600160e01b03198216635b5e139f60e01b145b806102a657506301ffc9a760e01b6001600160e01b03198316145b92915050565b6060600080546102bb906113e6565b80601f01602080910402602001604051908101604052809291908181526020018280546102e7906113e6565b80156103345780601f1061030957610100808354040283529160200191610334565b820191906000526020600020905b81548152906001019060200180831161031757829003601f168201915b5050505050905090565b600061034982610763565b506000908152600460205260409020546001600160a01b031690565b600061037082610590565b9050806001600160a01b0316836001600160a01b0316036103e25760405162461bcd60e51b815260206004820152602160248201527f4552433732313a20617070726f76616c20746f2063757272656e74206f776e656044820152603960f91b60648201526084015b60405180910390fd5b336001600160a01b03821614806103fe57506103fe81336106bc565b6104705760405162461bcd60e51b815260206004820152603e60248201527f4552433732313a20617070726f76652063616c6c6572206973206e6f7420746f60448201527f6b656e206f776e6572206e6f7220617070726f76656420666f7220616c6c000060648201526084016103d9565b61047a8383610788565b505050565b61048933826107f6565b6104a55760405162461bcd60e51b81526004016103d990611420565b61047a838383610855565b6104b86109f1565b60006104c360085490565b90506104d3600880546001019055565b6104dd8282610a4b565b61057181600980546104ee906113e6565b80601f016020809104026020016040519081016040528092919081815260200182805461051a906113e6565b80156105675780601f1061053c57610100808354040283529160200191610567565b820191906000526020600020905b81548152906001019060200180831161054a57829003601f168201915b5050505050610a65565b5050565b61047a83838360405180602001604052806000815250610679565b6000818152600260205260408120546001600160a01b0316806102a65760405162461bcd60e51b81526004016103d99061146e565b60006001600160a01b03821661062f5760405162461bcd60e51b815260206004820152602960248201527f4552433732313a2061646472657373207a65726f206973206e6f7420612076616044820152683634b21037bbb732b960b91b60648201526084016103d9565b506001600160a01b031660009081526003602052604090205490565b6106536109f1565b61065d6000610ae9565b565b6060600180546102bb906113e6565b610571338383610b3b565b61068333836107f6565b61069f5760405162461bcd60e51b81526004016103d990611420565b6106ab84848484610c05565b50505050565b60606102a682610c38565b6001600160a01b03918216600090815260056020908152604080832093909416825291909152205460ff1690565b6106f26109f1565b6001600160a01b0381166107575760405162461bcd60e51b815260206004820152602660248201527f4f776e61626c653a206e6577206f776e657220697320746865207a65726f206160448201526564647265737360d01b60648201526084016103d9565b61076081610ae9565b50565b61076c81610d40565b6107605760405162461bcd60e51b81526004016103d99061146e565b600081815260046020526040902080546001600160a01b0319166001600160a01b03841690811790915581906107bd82610590565b6001600160a01b03167f8c5be1e5ebec7d5bd14f71427d1e84f3dd0314c0f7b2291e5b200ac8c7c3b92560405160405180910390a45050565b60008061080283610590565b9050806001600160a01b0316846001600160a01b03161480610829575061082981856106bc565b8061084d5750836001600160a01b03166108428461033e565b6001600160a01b0316145b949350505050565b826001600160a01b031661086882610590565b6001600160a01b0316146108cc5760405162461bcd60e51b815260206004820152602560248201527f4552433732313a207472616e736665722066726f6d20696e636f72726563742060448201526437bbb732b960d91b60648201526084016103d9565b6001600160a01b03821661092e5760405162461bcd60e51b8152602060048201526024808201527f4552433732313a207472616e7366657220746f20746865207a65726f206164646044820152637265737360e01b60648201526084016103d9565b610939600082610788565b6001600160a01b03831660009081526003602052604081208054600192906109629084906114b6565b90915550506001600160a01b03821660009081526003602052604081208054600192906109909084906114c9565b909155505060008181526002602052604080822080546001600160a01b0319166001600160a01b0386811691821790925591518493918716917fddf252ad1be2c89b69c2b068fc378daa952ba7f163c4a11628f55a4df523b3ef91a4505050565b6007546001600160a01b0316331461065d5760405162461bcd60e51b815260206004820181905260248201527f4f776e61626c653a2063616c6c6572206973206e6f7420746865206f776e657260448201526064016103d9565b610571828260405180602001604052806000815250610d5d565b610a6e82610d40565b610ad15760405162461bcd60e51b815260206004820152602e60248201527f45524337323155524953746f726167653a2055524920736574206f66206e6f6e60448201526d32bc34b9ba32b73a103a37b5b2b760911b60648201526084016103d9565b600082815260066020526040902061047a828261152a565b600780546001600160a01b038381166001600160a01b0319831681179093556040519116919082907f8be0079c531659141344cd1fd0a4f28419497f9722a3daafe3b4186f6b6457e090600090a35050565b816001600160a01b0316836001600160a01b031603610b985760405162461bcd60e51b815260206004820152601960248201527822a9219b99189d1030b8383937bb32903a379031b0b63632b960391b60448201526064016103d9565b6001600160a01b03838116600081815260056020908152604080832094871680845294825291829020805460ff191686151590811790915591519182527f17307eab39ab6107e8899845ad3d59bd9653f200f220920489ca2b5937696c31910160405180910390a3505050565b610c10848484610855565b610c1c84848484610d90565b6106ab5760405162461bcd60e51b81526004016103d9906115ea565b6060610c4382610763565b60008281526006602052604081208054610c5c906113e6565b80601f0160208091040260200160405190810160405280929190818152602001828054610c88906113e6565b8015610cd55780601f10610caa57610100808354040283529160200191610cd5565b820191906000526020600020905b815481529060010190602001808311610cb857829003601f168201915b505050505090506000610cf360408051602081019091526000815290565b90508051600003610d05575092915050565b815115610d37578082604051602001610d1f92919061163c565b60405160208183030381529060405292505050919050565b61084d84610e91565b6000908152600260205260409020546001600160a01b0316151590565b610d678383610f05565b610d746000848484610d90565b61047a5760405162461bcd60e51b81526004016103d9906115ea565b60006001600160a01b0384163b15610e8657604051630a85bd0160e11b81526001600160a01b0385169063150b7a0290610dd490339089908890889060040161166b565b6020604051808303816000875af1925050508015610e0f575060408051601f3d908101601f19168201909252610e0c918101906116a8565b60015b610e6c573d808015610e3d576040519150601f19603f3d011682016040523d82523d6000602084013e610e42565b606091505b508051600003610e645760405162461bcd60e51b81526004016103d9906115ea565b805181602001fd5b6001600160e01b031916630a85bd0160e11b14905061084d565b506001949350505050565b6060610e9c82610763565b6000610eb360408051602081019091526000815290565b90506000815111610ed35760405180602001604052806000815250610efe565b80610edd84611038565b604051602001610eee92919061163c565b6040516020818303038152906040525b9392505050565b6001600160a01b038216610f5b5760405162461bcd60e51b815260206004820181905260248201527f4552433732313a206d696e7420746f20746865207a65726f206164647265737360448201526064016103d9565b610f6481610d40565b15610fb15760405162461bcd60e51b815260206004820152601c60248201527f4552433732313a20746f6b656e20616c7265616479206d696e7465640000000060448201526064016103d9565b6001600160a01b0382166000908152600360205260408120805460019290610fda9084906114c9565b909155505060008181526002602052604080822080546001600160a01b0319166001600160a01b03861690811790915590518392907fddf252ad1be2c89b69c2b068fc378daa952ba7f163c4a11628f55a4df523b3ef908290a45050565b60608160000361105f5750506040805180820190915260018152600360fc1b602082015290565b8160005b81156110895780611073816116c5565b91506110829050600a836116f4565b9150611063565b60008167ffffffffffffffff8111156110a4576110a46112c1565b6040519080825280601f01601f1916602001820160405280156110ce576020820181803683370190505b5090505b841561084d576110e36001836114b6565b91506110f0600a86611708565b6110fb9060306114c9565b60f81b8183815181106111105761111061171c565b60200101906001600160f81b031916908160001a905350611132600a866116f4565b94506110d2565b6001600160e01b03198116811461076057600080fd5b60006020828403121561116157600080fd5b8135610efe81611139565b60005b8381101561118757818101518382015260200161116f565b50506000910152565b600081518084526111a881602086016020860161116c565b601f01601f19169290920160200192915050565b602081526000610efe6020830184611190565b6000602082840312156111e157600080fd5b5035919050565b80356001600160a01b03811681146111ff57600080fd5b919050565b6000806040838503121561121757600080fd5b611220836111e8565b946020939093013593505050565b60008060006060848603121561124357600080fd5b61124c846111e8565b925061125a602085016111e8565b9150604084013590509250925092565b60006020828403121561127c57600080fd5b610efe826111e8565b6000806040838503121561129857600080fd5b6112a1836111e8565b9150602083013580151581146112b657600080fd5b809150509250929050565b634e487b7160e01b600052604160045260246000fd5b600080600080608085870312156112ed57600080fd5b6112f6856111e8565b9350611304602086016111e8565b925060408501359150606085013567ffffffffffffffff8082111561132857600080fd5b818701915087601f83011261133c57600080fd5b81358181111561134e5761134e6112c1565b604051601f8201601f19908116603f01168101908382118183101715611376576113766112c1565b816040528281528a602084870101111561138f57600080fd5b82602086016020830137600060208483010152809550505050505092959194509250565b600080604083850312156113c657600080fd5b6113cf836111e8565b91506113dd602084016111e8565b90509250929050565b600181811c908216806113fa57607f821691505b60208210810361141a57634e487b7160e01b600052602260045260246000fd5b50919050565b6020808252602e908201527f4552433732313a2063616c6c6572206973206e6f7420746f6b656e206f776e6560408201526d1c881b9bdc88185c1c1c9bdd995960921b606082015260800190565b602080825260189082015277115490cdcc8c4e881a5b9d985b1a59081d1bdad95b88125160421b604082015260600190565b634e487b7160e01b600052601160045260246000fd5b818103818111156102a6576102a66114a0565b808201808211156102a6576102a66114a0565b601f82111561047a57600081815260208120601f850160051c810160208610156115035750805b601f850160051c820191505b818110156115225782815560010161150f565b505050505050565b815167ffffffffffffffff811115611544576115446112c1565b6115588161155284546113e6565b846114dc565b602080601f83116001811461158d57600084156115755750858301515b600019600386901b1c1916600185901b178555611522565b600085815260208120601f198616915b828110156115bc5788860151825594840194600190910190840161159d565b50858210156115da5787850151600019600388901b60f8161c191681555b5050505050600190811b01905550565b60208082526032908201527f4552433732313a207472616e7366657220746f206e6f6e20455243373231526560408201527131b2b4bb32b91034b6b83632b6b2b73a32b960711b606082015260800190565b6000835161164e81846020880161116c565b83519083019061166281836020880161116c565b01949350505050565b6001600160a01b038581168252841660208201526040810183905260806060820181905260009061169e90830184611190565b9695505050505050565b6000602082840312156116ba57600080fd5b8151610efe81611139565b6000600182016116d7576116d76114a0565b5060010190565b634e487b7160e01b600052601260045260246000fd5b600082611703576117036116de565b500490565b600082611717576117176116de565b500690565b634e487b7160e01b600052603260045260246000fdfea26469706673582212201c26155238156c0f03324746b34c84e70970e60d51c809f5e4c285353942448264736f6c6343000811003368747470733a2f2f6461726b686f7273652e696e667572612d697066732e696f2f697066732f516d647078737237596e6866367046365935726b653466574e455a633367655775704c694732754b433352385254",
  "linkReferences": {},
  "deployedLinkReferences": {}
}