{
  "_format": "hh-sol-artifact-1",
  "contractName": "ClaimManager",
  "sourceName": "contracts/ClaimManager/ClaimManager.sol",
  "abi": [
    {
      "inputs": [],
      "stateMutability": "nonpayable",
      "type": "constructor"
    },
    {
      "anonymous": false,
      "inputs": [
        {
          "indexed": false,
          "internalType": "address",
          "name": "previousAdmin",
          "type": "address"
        },
        {
          "indexed": false,
          "internalType": "address",
          "name": "newAdmin",
          "type": "address"
        }
      ],
      "name": "AdminChanged",
      "type": "event"
    },
    {
      "anonymous": false,
      "inputs": [
        {
          "indexed": true,
          "internalType": "address",
          "name": "beacon",
          "type": "address"
        }
      ],
      "name": "BeaconUpgraded",
      "type": "event"
    },
    {
      "anonymous": false,
      "inputs": [
        {
          "indexed": false,
          "internalType": "string",
          "name": "bountyId",
          "type": "string"
        },
        {
          "indexed": false,
          "internalType": "address",
          "name": "bountyAddress",
          "type": "address"
        },
        {
          "indexed": false,
          "internalType": "string",
          "name": "organization",
          "type": "string"
        },
        {
          "indexed": false,
          "internalType": "address",
          "name": "closer",
          "type": "address"
        },
        {
          "indexed": false,
          "internalType": "uint256",
          "name": "bountyClosedTime",
          "type": "uint256"
        },
        {
          "indexed": false,
          "internalType": "uint256",
          "name": "bountyType",
          "type": "uint256"
        },
        {
          "indexed": false,
          "internalType": "bytes",
          "name": "data",
          "type": "bytes"
        },
        {
          "indexed": false,
          "internalType": "uint256",
          "name": "version",
          "type": "uint256"
        }
      ],
      "name": "BountyClosed",
      "type": "event"
    },
    {
      "anonymous": false,
      "inputs": [
        {
          "indexed": false,
          "internalType": "string",
          "name": "bountyId",
          "type": "string"
        },
        {
          "indexed": false,
          "internalType": "string",
          "name": "organization",
          "type": "string"
        },
        {
          "indexed": false,
          "internalType": "address",
          "name": "issuerAddress",
          "type": "address"
        },
        {
          "indexed": false,
          "internalType": "address",
          "name": "bountyAddress",
          "type": "address"
        },
        {
          "indexed": false,
          "internalType": "uint256",
          "name": "bountyMintTime",
          "type": "uint256"
        },
        {
          "indexed": false,
          "internalType": "uint256",
          "name": "bountyType",
          "type": "uint256"
        },
        {
          "indexed": false,
          "internalType": "bytes",
          "name": "data",
          "type": "bytes"
        },
        {
          "indexed": false,
          "internalType": "uint256",
          "name": "version",
          "type": "uint256"
        }
      ],
      "name": "BountyCreated",
      "type": "event"
    },
    {
      "anonymous": false,
      "inputs": [
        {
          "indexed": false,
          "internalType": "uint256",
          "name": "claimTime",
          "type": "uint256"
        },
        {
          "indexed": false,
          "internalType": "uint256",
          "name": "bountyType",
          "type": "uint256"
        },
        {
          "indexed": false,
          "internalType": "bytes",
          "name": "data",
          "type": "bytes"
        },
        {
          "indexed": false,
          "internalType": "uint256",
          "name": "version",
          "type": "uint256"
        }
      ],
      "name": "ClaimSuccess",
      "type": "event"
    },
    {
      "anonymous": false,
      "inputs": [
        {
          "indexed": false,
          "internalType": "bytes32",
          "name": "depositId",
          "type": "bytes32"
        },
        {
          "indexed": false,
          "internalType": "uint256",
          "name": "newExpiration",
          "type": "uint256"
        },
        {
          "indexed": false,
          "internalType": "uint256",
          "name": "bountyType",
          "type": "uint256"
        },
        {
          "indexed": false,
          "internalType": "bytes",
          "name": "data",
          "type": "bytes"
        },
        {
          "indexed": false,
          "internalType": "uint256",
          "name": "version",
          "type": "uint256"
        }
      ],
      "name": "DepositExtended",
      "type": "event"
    },
    {
      "anonymous": false,
      "inputs": [
        {
          "indexed": false,
          "internalType": "bytes32",
          "name": "depositId",
          "type": "bytes32"
        },
        {
          "indexed": false,
          "internalType": "string",
          "name": "bountyId",
          "type": "string"
        },
        {
          "indexed": false,
          "internalType": "address",
          "name": "bountyAddress",
          "type": "address"
        },
        {
          "indexed": false,
          "internalType": "string",
          "name": "organization",
          "type": "string"
        },
        {
          "indexed": false,
          "internalType": "uint256",
          "name": "refundTime",
          "type": "uint256"
        },
        {
          "indexed": false,
          "internalType": "address",
          "name": "tokenAddress",
          "type": "address"
        },
        {
          "indexed": false,
          "internalType": "uint256",
          "name": "volume",
          "type": "uint256"
        },
        {
          "indexed": false,
          "internalType": "uint256",
          "name": "bountyType",
          "type": "uint256"
        },
        {
          "indexed": false,
          "internalType": "bytes",
          "name": "data",
          "type": "bytes"
        },
        {
          "indexed": false,
          "internalType": "uint256",
          "name": "version",
          "type": "uint256"
        }
      ],
      "name": "DepositRefunded",
      "type": "event"
    },
    {
      "anonymous": false,
      "inputs": [
        {
          "indexed": false,
          "internalType": "address",
          "name": "bountyAddress",
          "type": "address"
        },
        {
          "indexed": false,
          "internalType": "address",
          "name": "fundingGoalTokenAddress",
          "type": "address"
        },
        {
          "indexed": false,
          "internalType": "uint256",
          "name": "fundingGoalVolume",
          "type": "uint256"
        },
        {
          "indexed": false,
          "internalType": "uint256",
          "name": "bountyType",
          "type": "uint256"
        },
        {
          "indexed": false,
          "internalType": "bytes",
          "name": "data",
          "type": "bytes"
        },
        {
          "indexed": false,
          "internalType": "uint256",
          "name": "version",
          "type": "uint256"
        }
      ],
      "name": "FundingGoalSet",
      "type": "event"
    },
    {
      "anonymous": false,
      "inputs": [
        {
          "indexed": false,
          "internalType": "uint8",
          "name": "version",
          "type": "uint8"
        }
      ],
      "name": "Initialized",
      "type": "event"
    },
    {
      "anonymous": false,
      "inputs": [
        {
          "indexed": false,
          "internalType": "string",
          "name": "bountyId",
          "type": "string"
        },
        {
          "indexed": false,
          "internalType": "address",
          "name": "bountyAddress",
          "type": "address"
        },
        {
          "indexed": false,
          "internalType": "string",
          "name": "organization",
          "type": "string"
        },
        {
          "indexed": false,
          "internalType": "address",
          "name": "closer",
          "type": "address"
        },
        {
          "indexed": false,
          "internalType": "uint256",
          "name": "payoutTime",
          "type": "uint256"
        },
        {
          "indexed": false,
          "internalType": "address",
          "name": "tokenAddress",
          "type": "address"
        },
        {
          "indexed": false,
          "internalType": "uint256",
          "name": "tokenId",
          "type": "uint256"
        },
        {
          "indexed": false,
          "internalType": "uint256",
          "name": "bountyType",
          "type": "uint256"
        },
        {
          "indexed": false,
          "internalType": "bytes",
          "name": "data",
          "type": "bytes"
        },
        {
          "indexed": false,
          "internalType": "uint256",
          "name": "version",
          "type": "uint256"
        }
      ],
      "name": "NFTClaimed",
      "type": "event"
    },
    {
      "anonymous": false,
      "inputs": [
        {
          "indexed": false,
          "internalType": "bytes32",
          "name": "depositId",
          "type": "bytes32"
        },
        {
          "indexed": false,
          "internalType": "address",
          "name": "bountyAddress",
          "type": "address"
        },
        {
          "indexed": false,
          "internalType": "string",
          "name": "bountyId",
          "type": "string"
        },
        {
          "indexed": false,
          "internalType": "string",
          "name": "organization",
          "type": "string"
        },
        {
          "indexed": false,
          "internalType": "address",
          "name": "tokenAddress",
          "type": "address"
        },
        {
          "indexed": false,
          "internalType": "uint256",
          "name": "receiveTime",
          "type": "uint256"
        },
        {
          "indexed": false,
          "internalType": "address",
          "name": "sender",
          "type": "address"
        },
        {
          "indexed": false,
          "internalType": "uint256",
          "name": "expiration",
          "type": "uint256"
        },
        {
          "indexed": false,
          "internalType": "uint256",
          "name": "tokenId",
          "type": "uint256"
        },
        {
          "indexed": false,
          "internalType": "uint256",
          "name": "bountyType",
          "type": "uint256"
        },
        {
          "indexed": false,
          "internalType": "bytes",
          "name": "data",
          "type": "bytes"
        },
        {
          "indexed": false,
          "internalType": "uint256",
          "name": "version",
          "type": "uint256"
        }
      ],
      "name": "NFTDepositReceived",
      "type": "event"
    },
    {
      "anonymous": false,
      "inputs": [
        {
          "indexed": true,
          "internalType": "address",
          "name": "previousOracle",
          "type": "address"
        },
        {
          "indexed": true,
          "internalType": "address",
          "name": "newOracle",
          "type": "address"
        }
      ],
      "name": "OracleTransferred",
      "type": "event"
    },
    {
      "anonymous": false,
      "inputs": [
        {
          "indexed": true,
          "internalType": "address",
          "name": "previousOwner",
          "type": "address"
        },
        {
          "indexed": true,
          "internalType": "address",
          "name": "newOwner",
          "type": "address"
        }
      ],
      "name": "OwnershipTransferred",
      "type": "event"
    },
    {
      "anonymous": false,
      "inputs": [
        {
          "indexed": false,
          "internalType": "address",
          "name": "bountyAddress",
          "type": "address"
        },
        {
          "indexed": false,
          "internalType": "address",
          "name": "payoutTokenAddress",
          "type": "address"
        },
        {
          "indexed": false,
          "internalType": "uint256[]",
          "name": "payoutSchedule",
          "type": "uint256[]"
        },
        {
          "indexed": false,
          "internalType": "uint256",
          "name": "bountyType",
          "type": "uint256"
        },
        {
          "indexed": false,
          "internalType": "bytes",
          "name": "data",
          "type": "bytes"
        },
        {
          "indexed": false,
          "internalType": "uint256",
          "name": "version",
          "type": "uint256"
        }
      ],
      "name": "PayoutScheduleSet",
      "type": "event"
    },
    {
      "anonymous": false,
      "inputs": [
        {
          "indexed": false,
          "internalType": "address",
          "name": "bountyAddress",
          "type": "address"
        },
        {
          "indexed": false,
          "internalType": "address",
          "name": "payoutTokenAddress",
          "type": "address"
        },
        {
          "indexed": false,
          "internalType": "uint256",
          "name": "payoutTokenVolume",
          "type": "uint256"
        },
        {
          "indexed": false,
          "internalType": "uint256",
          "name": "bountyType",
          "type": "uint256"
        },
        {
          "indexed": false,
          "internalType": "bytes",
          "name": "data",
          "type": "bytes"
        },
        {
          "indexed": false,
          "internalType": "uint256",
          "name": "version",
          "type": "uint256"
        }
      ],
      "name": "PayoutSet",
      "type": "event"
    },
    {
      "anonymous": false,
      "inputs": [
        {
          "indexed": false,
          "internalType": "string",
          "name": "bountyId",
          "type": "string"
        },
        {
          "indexed": false,
          "internalType": "address",
          "name": "bountyAddress",
          "type": "address"
        },
        {
          "indexed": false,
          "internalType": "string",
          "name": "organization",
          "type": "string"
        },
        {
          "indexed": false,
          "internalType": "address",
          "name": "closer",
          "type": "address"
        },
        {
          "indexed": false,
          "internalType": "uint256",
          "name": "payoutTime",
          "type": "uint256"
        },
        {
          "indexed": false,
          "internalType": "address",
          "name": "tokenAddress",
          "type": "address"
        },
        {
          "indexed": false,
          "internalType": "uint256",
          "name": "volume",
          "type": "uint256"
        },
        {
          "indexed": false,
          "internalType": "uint256",
          "name": "bountyType",
          "type": "uint256"
        },
        {
          "indexed": false,
          "internalType": "bytes",
          "name": "data",
          "type": "bytes"
        },
        {
          "indexed": false,
          "internalType": "uint256",
          "name": "version",
          "type": "uint256"
        }
      ],
      "name": "TokenBalanceClaimed",
      "type": "event"
    },
    {
      "anonymous": false,
      "inputs": [
        {
          "indexed": false,
          "internalType": "bytes32",
          "name": "depositId",
          "type": "bytes32"
        },
        {
          "indexed": false,
          "internalType": "address",
          "name": "bountyAddress",
          "type": "address"
        },
        {
          "indexed": false,
          "internalType": "string",
          "name": "bountyId",
          "type": "string"
        },
        {
          "indexed": false,
          "internalType": "string",
          "name": "organization",
          "type": "string"
        },
        {
          "indexed": false,
          "internalType": "address",
          "name": "tokenAddress",
          "type": "address"
        },
        {
          "indexed": false,
          "internalType": "uint256",
          "name": "receiveTime",
          "type": "uint256"
        },
        {
          "indexed": false,
          "internalType": "address",
          "name": "sender",
          "type": "address"
        },
        {
          "indexed": false,
          "internalType": "uint256",
          "name": "expiration",
          "type": "uint256"
        },
        {
          "indexed": false,
          "internalType": "uint256",
          "name": "volume",
          "type": "uint256"
        },
        {
          "indexed": false,
          "internalType": "uint256",
          "name": "bountyType",
          "type": "uint256"
        },
        {
          "indexed": false,
          "internalType": "bytes",
          "name": "data",
          "type": "bytes"
        },
        {
          "indexed": false,
          "internalType": "uint256",
          "name": "version",
          "type": "uint256"
        }
      ],
      "name": "TokenDepositReceived",
      "type": "event"
    },
    {
      "anonymous": false,
      "inputs": [
        {
          "indexed": true,
          "internalType": "address",
          "name": "implementation",
          "type": "address"
        }
      ],
      "name": "Upgraded",
      "type": "event"
    },
    {
      "inputs": [],
      "name": "VERSION_1",
      "outputs": [
        {
          "internalType": "uint256",
          "name": "",
          "type": "uint256"
        }
      ],
      "stateMutability": "view",
      "type": "function"
    },
    {
      "inputs": [
        {
          "internalType": "address",
          "name": "_bountyAddress",
          "type": "address"
        }
      ],
      "name": "bountyIsClaimable",
      "outputs": [
        {
          "internalType": "bool",
          "name": "",
          "type": "bool"
        }
      ],
      "stateMutability": "view",
      "type": "function"
    },
    {
      "inputs": [
        {
          "internalType": "address",
          "name": "_bountyAddress",
          "type": "address"
        },
        {
          "internalType": "address",
          "name": "_closer",
          "type": "address"
        },
        {
          "internalType": "bytes",
          "name": "_closerData",
          "type": "bytes"
        }
      ],
      "name": "claimBounty",
      "outputs": [],
      "stateMutability": "nonpayable",
      "type": "function"
    },
    {
      "inputs": [
        {
          "internalType": "address",
          "name": "oracle",
          "type": "address"
        }
      ],
      "name": "initialize",
      "outputs": [],
      "stateMutability": "nonpayable",
      "type": "function"
    },
    {
      "inputs": [],
      "name": "oracle",
      "outputs": [
        {
          "internalType": "address",
          "name": "",
          "type": "address"
        }
      ],
      "stateMutability": "view",
      "type": "function"
    },
    {
      "inputs": [],
      "name": "owner",
      "outputs": [
        {
          "internalType": "address",
          "name": "",
          "type": "address"
        }
      ],
      "stateMutability": "view",
      "type": "function"
    },
    {
      "inputs": [],
      "name": "proxiableUUID",
      "outputs": [
        {
          "internalType": "bytes32",
          "name": "",
          "type": "bytes32"
        }
      ],
      "stateMutability": "view",
      "type": "function"
    },
    {
      "inputs": [],
      "name": "renounceOwnership",
      "outputs": [],
      "stateMutability": "nonpayable",
      "type": "function"
    },
    {
      "inputs": [
        {
          "internalType": "address",
          "name": "_newOracle",
          "type": "address"
        }
      ],
      "name": "transferOracle",
      "outputs": [],
      "stateMutability": "nonpayable",
      "type": "function"
    },
    {
      "inputs": [
        {
          "internalType": "address",
          "name": "newOwner",
          "type": "address"
        }
      ],
      "name": "transferOwnership",
      "outputs": [],
      "stateMutability": "nonpayable",
      "type": "function"
    },
    {
      "inputs": [
        {
          "internalType": "address",
          "name": "newImplementation",
          "type": "address"
        }
      ],
      "name": "upgradeTo",
      "outputs": [],
      "stateMutability": "nonpayable",
      "type": "function"
    },
    {
      "inputs": [
        {
          "internalType": "address",
          "name": "newImplementation",
          "type": "address"
        },
        {
          "internalType": "bytes",
          "name": "data",
          "type": "bytes"
        }
      ],
      "name": "upgradeToAndCall",
      "outputs": [],
      "stateMutability": "payable",
      "type": "function"
    }
  ],
  "bytecode": "0x60a06040523060805234801561001457600080fd5b506080516134d56100686000396000818161023d015281816102860152818161030e0152818161034e015281816103ca0152818161050101528181610541015281816109fa0152610a3a01526134d56000f3fe6080604052600436106100a75760003560e01c80638da5cb5b116100645780638da5cb5b14610165578063a9c6dfda14610183578063c4d66de8146101a3578063e7326806146101c3578063e7ae390a146101e3578063f2fde38b1461021357600080fd5b806326c20e5f146100ac5780633659cfe6146100d45780634f1ef286146100f657806352d1902d14610109578063715018a61461011e5780637dc0d1d014610133575b600080fd5b3480156100b857600080fd5b506100c1600181565b6040519081526020015b60405180910390f35b3480156100e057600080fd5b506100f46100ef366004612c68565b610233565b005b6100f4610104366004612d32565b610304565b34801561011557600080fd5b506100c16103bd565b34801561012a57600080fd5b506100f4610470565b34801561013f57600080fd5b506033546001600160a01b03165b6040516001600160a01b0390911681526020016100cb565b34801561017157600080fd5b506034546001600160a01b031661014d565b34801561018f57600080fd5b506100f461019e366004612d96565b610484565b3480156101af57600080fd5b506100f46101be366004612c68565b6108ce565b3480156101cf57600080fd5b506100f46101de366004612c68565b6109f0565b3480156101ef57600080fd5b506102036101fe366004612c68565b610b08565b60405190151581526020016100cb565b34801561021f57600080fd5b506100f461022e366004612c68565b610c54565b6001600160a01b037f00000000000000000000000000000000000000000000000000000000000000001630036102845760405162461bcd60e51b815260040161027b90612e28565b60405180910390fd5b7f00000000000000000000000000000000000000000000000000000000000000006001600160a01b03166102b6610cca565b6001600160a01b0316146102dc5760405162461bcd60e51b815260040161027b90612e74565b6102e581610ce6565b6040805160008082526020820190925261030191839190610cee565b50565b6001600160a01b037f000000000000000000000000000000000000000000000000000000000000000016300361034c5760405162461bcd60e51b815260040161027b90612e28565b7f00000000000000000000000000000000000000000000000000000000000000006001600160a01b031661037e610cca565b6001600160a01b0316146103a45760405162461bcd60e51b815260040161027b90612e74565b6103ad82610ce6565b6103b982826001610cee565b5050565b6000306001600160a01b037f0000000000000000000000000000000000000000000000000000000000000000161461045d5760405162461bcd60e51b815260206004820152603860248201527f555550535570677261646561626c653a206d757374206e6f742062652063616c60448201527f6c6564207468726f7567682064656c656761746563616c6c0000000000000000606482015260840161027b565b5060008051602061345983398151915290565b610478610e5e565b6104826000610eb8565b565b6033546001600160a01b031633146104f75760405162461bcd60e51b815260206004820152603060248201527f4f7261636c697a653a2063616c6c6572206973206e6f7420746865206375727260448201526f656e74204f70656e51204f7261636c6560801b606482015260840161027b565b6001600160a01b037f000000000000000000000000000000000000000000000000000000000000000016300361053f5760405162461bcd60e51b815260040161027b90612e28565b7f00000000000000000000000000000000000000000000000000000000000000006001600160a01b0316610571610cca565b6001600160a01b0316146105975760405162461bcd60e51b815260040161027b90612e74565b6105a084610b08565b6105ec5760405162461bcd60e51b815260206004820152601760248201527f424f554e54595f49535f4e4f545f434c41494d41424c45000000000000000000604482015260640161027b565b60008490506000816001600160a01b031663b3ca1f3b6040518163ffffffff1660e01b8152600401602060405180830381865afa158015610631573d6000803e3d6000fd5b505050506040513d601f19601f820116820180604052508101906106559190612ec0565b9050806108425761066882868686610f0a565b604051632338d37760e01b81526001600160a01b03831690632338d3779061069890889088908890600401612f02565b600060405180830381600087803b1580156106b257600080fd5b505af11580156106c6573d6000803e3d6000fd5b505050507fb9d76ba577270421a3b4826a02b81b7678f1d62214225408b99f94e42d78278c826001600160a01b031663c17bd75e6040518163ffffffff1660e01b8152600401600060405180830381865afa158015610729573d6000803e3d6000fd5b505050506040513d6000823e601f3d908101601f191682016040526107519190810190612f4b565b87846001600160a01b03166323bd4d7a6040518163ffffffff1660e01b8152600401600060405180830381865afa158015610790573d6000803e3d6000fd5b505050506040513d6000823e601f3d908101601f191682016040526107b89190810190612f4b565b8842876001600160a01b031663b3ca1f3b6040518163ffffffff1660e01b8152600401602060405180830381865afa1580156107f8573d6000803e3d6000fd5b505050506040513d601f19601f8201168201806040525081019061081c9190612ec0565b8a8a600160405161083599989796959493929190612fe5565b60405180910390a1610886565b600019810161085c57610857828686866116ec565b610886565b600119810161087157610857828686866118c2565b60021981016100a75761085782868686612177565b7fd6de63792ebd5ae7b0da0e2a38b6fe8acd3b85073d8c96d84bd84271663d0eca4282868660016040516108be95949392919061305f565b60405180910390a1505050505050565b600054610100900460ff16158080156108ee5750600054600160ff909116105b806109085750303b158015610908575060005460ff166001145b61096b5760405162461bcd60e51b815260206004820152602e60248201527f496e697469616c697a61626c653a20636f6e747261637420697320616c72656160448201526d191e481a5b9a5d1a585b1a5e995960921b606482015260840161027b565b6000805460ff19166001179055801561098e576000805461ff0019166101001790555b6109966128f7565b61099e612926565b6109a78261294d565b80156103b9576000805461ff0019169055604051600181527f7f26b83ff96e1f2b6a682f133852f6798a09c465da95921460cefb38474024989060200160405180910390a15050565b6001600160a01b037f0000000000000000000000000000000000000000000000000000000000000000163003610a385760405162461bcd60e51b815260040161027b90612e28565b7f00000000000000000000000000000000000000000000000000000000000000006001600160a01b0316610a6a610cca565b6001600160a01b031614610a905760405162461bcd60e51b815260040161027b90612e74565b610a98610e5e565b6001600160a01b038116610aff5760405162461bcd60e51b815260206004820152602860248201527f4f7261636c697a653a206e6577206f7261636c6520697320746865207a65726f604482015267206164647265737360c01b606482015260840161027b565b61030181612996565b6000808290506000816001600160a01b031663200d2ed26040518163ffffffff1660e01b8152600401602060405180830381865afa158015610b4e573d6000803e3d6000fd5b505050506040513d601f19601f82011682018060405250810190610b729190612ec0565b90506000826001600160a01b031663b3ca1f3b6040518163ffffffff1660e01b8152600401602060405180830381865afa158015610bb4573d6000803e3d6000fd5b505050506040513d601f19601f82011682018060405250810190610bd89190612ec0565b9050801580610be75750600181145b15610bf55750159392505050565b6002811480610c045750600381145b15610c1457506001149392505050565b60405162461bcd60e51b8152602060048201526015602482015274554e4b4e4f574e5f424f554e54595f53544154555360581b604482015260640161027b565b610c5c610e5e565b6001600160a01b038116610cc15760405162461bcd60e51b815260206004820152602660248201527f4f776e61626c653a206e6577206f776e657220697320746865207a65726f206160448201526564647265737360d01b606482015260840161027b565b61030181610eb8565b600080516020613459833981519152546001600160a01b031690565b610301610e5e565b7f4910fdfa16fed3260ed0e7147f7cc6da11a60208b5b9406d12a635614ffd91435460ff1615610d2657610d21836129e8565b505050565b826001600160a01b03166352d1902d6040518163ffffffff1660e01b8152600401602060405180830381865afa925050508015610d80575060408051601f3d908101601f19168201909252610d7d91810190612ec0565b60015b610de35760405162461bcd60e51b815260206004820152602e60248201527f45524331393637557067726164653a206e657720696d706c656d656e7461746960448201526d6f6e206973206e6f74205555505360901b606482015260840161027b565b6000805160206134598339815191528114610e525760405162461bcd60e51b815260206004820152602960248201527f45524331393637557067726164653a20756e737570706f727465642070726f786044820152681a58589b195555525160ba1b606482015260840161027b565b50610d21838383612a84565b6034546001600160a01b031633146104825760405162461bcd60e51b815260206004820181905260248201527f4f776e61626c653a2063616c6c6572206973206e6f7420746865206f776e6572604482015260640161027b565b603480546001600160a01b038381166001600160a01b0319831681179093556040519116919082907f8be0079c531659141344cd1fd0a4f28419497f9722a3daafe3b4186f6b6457e090600090a35050565b60005b846001600160a01b031663ee8c24b86040518163ffffffff1660e01b8152600401600060405180830381865afa158015610f4b573d6000803e3d6000fd5b505050506040513d6000823e601f3d908101601f19168201604052610f7391908101906130b5565b51811015611279576000856001600160a01b031663cb2da3db86886001600160a01b031663ee8c24b86040518163ffffffff1660e01b8152600401600060405180830381865afa158015610fcb573d6000803e3d6000fd5b505050506040513d6000823e601f3d908101601f19168201604052610ff391908101906130b5565b85815181106110045761100461314f565b60200260200101516040518363ffffffff1660e01b815260040161103e9291906001600160a01b0392831681529116602082015260400190565b6020604051808303816000875af115801561105d573d6000803e3d6000fd5b505050506040513d601f19601f820116820180604052508101906110819190612ec0565b9050600080516020613439833981519152866001600160a01b031663c17bd75e6040518163ffffffff1660e01b8152600401600060405180830381865afa1580156110d0573d6000803e3d6000fd5b505050506040513d6000823e601f3d908101601f191682016040526110f89190810190612f4b565b87886001600160a01b03166323bd4d7a6040518163ffffffff1660e01b8152600401600060405180830381865afa158015611137573d6000803e3d6000fd5b505050506040513d6000823e601f3d908101601f1916820160405261115f9190810190612f4b565b88428b6001600160a01b031663ee8c24b86040518163ffffffff1660e01b8152600401600060405180830381865afa15801561119f573d6000803e3d6000fd5b505050506040513d6000823e601f3d908101601f191682016040526111c791908101906130b5565b88815181106111d8576111d861314f565b6020026020010151878d6001600160a01b031663b3ca1f3b6040518163ffffffff1660e01b8152600401602060405180830381865afa15801561121f573d6000803e3d6000fd5b505050506040513d601f19601f820116820180604052508101906112439190612ec0565b8c8c600160405161125e9b9a99989796959493929190613165565b60405180910390a15080611271816131f1565b915050610f0d565b5060005b846001600160a01b03166377ede8a66040518163ffffffff1660e01b8152600401600060405180830381865afa1580156112bb573d6000803e3d6000fd5b505050506040513d6000823e601f3d908101601f191682016040526112e39190810190613218565b518110156116e557604051630de2fe4b60e11b8152600481018290526001600160a01b038616906371ec4ebf9086908390631bc5fc9690602401602060405180830381865afa15801561133a573d6000803e3d6000fd5b505050506040513d601f19601f8201168201806040525081019061135e9190612ec0565b6040516001600160e01b031960e085901b1681526001600160a01b0390921660048301526024820152604401600060405180830381600087803b1580156113a457600080fd5b505af11580156113b8573d6000803e3d6000fd5b505050507f7bec1fa43a121aa27c28cbbe6f5296871967c47439c054218395b34e41579e55856001600160a01b031663c17bd75e6040518163ffffffff1660e01b8152600401600060405180830381865afa15801561141b573d6000803e3d6000fd5b505050506040513d6000823e601f3d908101601f191682016040526114439190810190612f4b565b86876001600160a01b03166323bd4d7a6040518163ffffffff1660e01b8152600401600060405180830381865afa158015611482573d6000803e3d6000fd5b505050506040513d6000823e601f3d908101601f191682016040526114aa9190810190612f4b565b604051630de2fe4b60e11b815260048101869052889042906001600160a01b038c16906397bb3ce9908290631bc5fc9690602401602060405180830381865afa1580156114fb573d6000803e3d6000fd5b505050506040513d601f19601f8201168201806040525081019061151f9190612ec0565b6040518263ffffffff1660e01b815260040161153d91815260200190565b602060405180830381865afa15801561155a573d6000803e3d6000fd5b505050506040513d601f19601f8201168201806040525081019061157e919061329e565b604051630de2fe4b60e11b8152600481018990526001600160a01b038d169063f2321725908290631bc5fc9690602401602060405180830381865afa1580156115cb573d6000803e3d6000fd5b505050506040513d601f19601f820116820180604052508101906115ef9190612ec0565b6040518263ffffffff1660e01b815260040161160d91815260200190565b602060405180830381865afa15801561162a573d6000803e3d6000fd5b505050506040513d601f19601f8201168201806040525081019061164e9190612ec0565b8c6001600160a01b031663b3ca1f3b6040518163ffffffff1660e01b8152600401602060405180830381865afa15801561168c573d6000803e3d6000fd5b505050506040513d601f19601f820116820180604052508101906116b09190612ec0565b8b8b60016040516116cb9b9a99989796959493929190613165565b60405180910390a1806116dd816131f1565b91505061127d565b5050505050565b600080856001600160a01b031663a09dd1aa8686866040518463ffffffff1660e01b815260040161171f93929190612f02565b60408051808303816000875af115801561173d573d6000803e3d6000fd5b505050506040513d601f19601f8201168201806040525081019061176191906132bb565b91509150600080516020613439833981519152866001600160a01b031663c17bd75e6040518163ffffffff1660e01b8152600401600060405180830381865afa1580156117b2573d6000803e3d6000fd5b505050506040513d6000823e601f3d908101601f191682016040526117da9190810190612f4b565b87886001600160a01b03166323bd4d7a6040518163ffffffff1660e01b8152600401600060405180830381865afa158015611819573d6000803e3d6000fd5b505050506040513d6000823e601f3d908101601f191682016040526118419190810190612f4b565b884287878d6001600160a01b031663b3ca1f3b6040518163ffffffff1660e01b8152600401602060405180830381865afa158015611883573d6000803e3d6000fd5b505050506040513d601f19601f820116820180604052508101906118a79190612ec0565b8c8c60016040516108be9b9a99989796959493929190613165565b60006118d082840184613309565b604051634ee5bdc760e11b8152600481018290529095506001600160a01b038a169450639dcb7b8e935060240191506119069050565b602060405180830381865afa158015611923573d6000803e3d6000fd5b505050506040513d601f19601f82011682018060405250810190611947919061339c565b1561198b5760405162461bcd60e51b81526020600482015260146024820152731512515497d053149150511657d0d3105253515160621b604482015260640161027b565b60005b856001600160a01b031663ee8c24b86040518163ffffffff1660e01b8152600401600060405180830381865afa1580156119cc573d6000803e3d6000fd5b505050506040513d6000823e601f3d908101601f191682016040526119f491908101906130b5565b51811015611d05576000866001600160a01b031663b3b41cea87858a6001600160a01b031663ee8c24b86040518163ffffffff1660e01b8152600401600060405180830381865afa158015611a4d573d6000803e3d6000fd5b505050506040513d6000823e601f3d908101601f19168201604052611a7591908101906130b5565b8681518110611a8657611a8661314f565b60200260200101516040518463ffffffff1660e01b8152600401611aca939291906001600160a01b0393841681526020810192909252909116604082015260600190565b6020604051808303816000875af1158015611ae9573d6000803e3d6000fd5b505050506040513d601f19601f82011682018060405250810190611b0d9190612ec0565b9050600080516020613439833981519152876001600160a01b031663c17bd75e6040518163ffffffff1660e01b8152600401600060405180830381865afa158015611b5c573d6000803e3d6000fd5b505050506040513d6000823e601f3d908101601f19168201604052611b849190810190612f4b565b88896001600160a01b03166323bd4d7a6040518163ffffffff1660e01b8152600401600060405180830381865afa158015611bc3573d6000803e3d6000fd5b505050506040513d6000823e601f3d908101601f19168201604052611beb9190810190612f4b565b89428c6001600160a01b031663ee8c24b86040518163ffffffff1660e01b8152600401600060405180830381865afa158015611c2b573d6000803e3d6000fd5b505050506040513d6000823e601f3d908101601f19168201604052611c5391908101906130b5565b8881518110611c6457611c6461314f565b6020026020010151878e6001600160a01b031663b3ca1f3b6040518163ffffffff1660e01b8152600401602060405180830381865afa158015611cab573d6000803e3d6000fd5b505050506040513d601f19601f82011682018060405250810190611ccf9190612ec0565b8d8d6001604051611cea9b9a99989796959493929190613165565b60405180910390a15080611cfd816131f1565b91505061198e565b5060005b856001600160a01b03166377ede8a66040518163ffffffff1660e01b8152600401600060405180830381865afa158015611d47573d6000803e3d6000fd5b505050506040513d6000823e601f3d908101601f19168201604052611d6f9190810190613218565b5181101561211557604051630de2fe4b60e11b8152600481018290526000906001600160a01b03881690631bc5fc9690602401602060405180830381865afa158015611dbf573d6000803e3d6000fd5b505050506040513d601f19601f82011682018060405250810190611de39190612ec0565b60405163160a30a360e01b81526004810182905290915083906001600160a01b0389169063160a30a390602401602060405180830381865afa158015611e2d573d6000803e3d6000fd5b505050506040513d601f19601f82011682018060405250810190611e519190612ec0565b03612102576040516371ec4ebf60e01b81526001600160a01b038781166004830152602482018390528816906371ec4ebf90604401600060405180830381600087803b158015611ea057600080fd5b505af1158015611eb4573d6000803e3d6000fd5b505050507f7bec1fa43a121aa27c28cbbe6f5296871967c47439c054218395b34e41579e55876001600160a01b031663c17bd75e6040518163ffffffff1660e01b8152600401600060405180830381865afa158015611f17573d6000803e3d6000fd5b505050506040513d6000823e601f3d908101601f19168201604052611f3f9190810190612f4b565b88896001600160a01b03166323bd4d7a6040518163ffffffff1660e01b8152600401600060405180830381865afa158015611f7e573d6000803e3d6000fd5b505050506040513d6000823e601f3d908101601f19168201604052611fa69190810190612f4b565b6040516397bb3ce960e01b8152600481018690528a9042906001600160a01b038e16906397bb3ce990602401602060405180830381865afa158015611fef573d6000803e3d6000fd5b505050506040513d601f19601f82011682018060405250810190612013919061329e565b60405163f232172560e01b8152600481018990526001600160a01b038f169063f232172590602401602060405180830381865afa158015612058573d6000803e3d6000fd5b505050506040513d601f19601f8201168201806040525081019061207c9190612ec0565b8e6001600160a01b031663b3ca1f3b6040518163ffffffff1660e01b8152600401602060405180830381865afa1580156120ba573d6000803e3d6000fd5b505050506040513d601f19601f820116820180604052508101906120de9190612ec0565b8d8d60016040516120f99b9a99989796959493929190613165565b60405180910390a15b508061210d816131f1565b915050611d09565b5060405163fe0329c960e01b8152600481018290526001600160a01b0386169063fe0329c990602401600060405180830381600087803b15801561215857600080fd5b505af115801561216c573d6000803e3d6000fd5b505050505050505050565b600061218582840184613309565b604051634ee5bdc760e11b8152600481018290529095506001600160a01b038a169450639dcb7b8e935060240191506121bb9050565b602060405180830381865afa1580156121d8573d6000803e3d6000fd5b505050506040513d601f19601f820116820180604052508101906121fc919061339c565b156122405760405162461bcd60e51b81526020600482015260146024820152731512515497d053149150511657d0d3105253515160621b604482015260640161027b565b60405163020702ff60e11b81526001600160a01b038581166004830152602482018390526000919087169063040e05fe906044016020604051808303816000875af1158015612293573d6000803e3d6000fd5b505050506040513d601f19601f820116820180604052508101906122b79190612ec0565b9050600080516020613439833981519152866001600160a01b031663c17bd75e6040518163ffffffff1660e01b8152600401600060405180830381865afa158015612306573d6000803e3d6000fd5b505050506040513d6000823e601f3d908101601f1916820160405261232e9190810190612f4b565b87886001600160a01b03166323bd4d7a6040518163ffffffff1660e01b8152600401600060405180830381865afa15801561236d573d6000803e3d6000fd5b505050506040513d6000823e601f3d908101601f191682016040526123959190810190612f4b565b88428b6001600160a01b0316635cc048386040518163ffffffff1660e01b8152600401602060405180830381865afa1580156123d5573d6000803e3d6000fd5b505050506040513d601f19601f820116820180604052508101906123f9919061329e565b878d6001600160a01b031663b3ca1f3b6040518163ffffffff1660e01b8152600401602060405180830381865afa158015612438573d6000803e3d6000fd5b505050506040513d601f19601f8201168201806040525081019061245c9190612ec0565b8c8c60016040516124779b9a99989796959493929190613165565b60405180910390a160005b866001600160a01b03166377ede8a66040518163ffffffff1660e01b8152600401600060405180830381865afa1580156124c0573d6000803e3d6000fd5b505050506040513d6000823e601f3d908101601f191682016040526124e89190810190613218565b5181101561289457604051630de2fe4b60e11b8152600481018290526000906001600160a01b03891690631bc5fc9690602401602060405180830381865afa158015612538573d6000803e3d6000fd5b505050506040513d601f19601f8201168201806040525081019061255c9190612ec0565b60405163160a30a360e01b81526004810182905290915084906001600160a01b038a169063160a30a390602401602060405180830381865afa1580156125a6573d6000803e3d6000fd5b505050506040513d601f19601f820116820180604052508101906125ca9190612ec0565b03612881576040516371ec4ebf60e01b81526001600160a01b038881166004830152602482018390528916906371ec4ebf90604401600060405180830381600087803b15801561261957600080fd5b505af115801561262d573d6000803e3d6000fd5b505050507f7bec1fa43a121aa27c28cbbe6f5296871967c47439c054218395b34e41579e55886001600160a01b031663c17bd75e6040518163ffffffff1660e01b8152600401600060405180830381865afa158015612690573d6000803e3d6000fd5b505050506040513d6000823e601f3d908101601f191682016040526126b89190810190612f4b565b898a6001600160a01b03166323bd4d7a6040518163ffffffff1660e01b8152600401600060405180830381865afa1580156126f7573d6000803e3d6000fd5b505050506040513d6000823e601f3d908101601f1916820160405261271f9190810190612f4b565b6040516397bb3ce960e01b8152600481018690528b9042906001600160a01b038f16906397bb3ce990602401602060405180830381865afa158015612768573d6000803e3d6000fd5b505050506040513d601f19601f8201168201806040525081019061278c919061329e565b8e6001600160a01b031663f2321725896040518263ffffffff1660e01b81526004016127ba91815260200190565b602060405180830381865afa1580156127d7573d6000803e3d6000fd5b505050506040513d601f19601f820116820180604052508101906127fb9190612ec0565b8f6001600160a01b031663b3ca1f3b6040518163ffffffff1660e01b8152600401602060405180830381865afa158015612839573d6000803e3d6000fd5b505050506040513d601f19601f8201168201806040525081019061285d9190612ec0565b8e8e60016040516128789b9a99989796959493929190613165565b60405180910390a15b508061288c816131f1565b915050612482565b5060405163fe0329c960e01b8152600481018390526001600160a01b0387169063fe0329c990602401600060405180830381600087803b1580156128d757600080fd5b505af11580156128eb573d6000803e3d6000fd5b50505050505050505050565b600054610100900460ff1661291e5760405162461bcd60e51b815260040161027b906133be565b610482612aaf565b600054610100900460ff166104825760405162461bcd60e51b815260040161027b906133be565b600054610100900460ff166129745760405162461bcd60e51b815260040161027b906133be565b603380546001600160a01b0319166001600160a01b0392909216919091179055565b603380546001600160a01b038381166001600160a01b0319831681179093556040519116919082907f9b0948b943e24ff3413cb400b2eeae4337138739aaf31759dc6e813e8076fbc390600090a35050565b6001600160a01b0381163b612a555760405162461bcd60e51b815260206004820152602d60248201527f455243313936373a206e657720696d706c656d656e746174696f6e206973206e60448201526c1bdd08184818dbdb9d1c9858dd609a1b606482015260840161027b565b60008051602061345983398151915280546001600160a01b0319166001600160a01b0392909216919091179055565b612a8d83612adf565b600082511180612a9a5750805b15610d2157612aa98383612b1f565b50505050565b600054610100900460ff16612ad65760405162461bcd60e51b815260040161027b906133be565b61048233610eb8565b612ae8816129e8565b6040516001600160a01b038216907fbc7cd75a20ee27fd9adebab32041f755214dbc6bffa90cc0225b39da2e5c2d3b90600090a250565b60606001600160a01b0383163b612b875760405162461bcd60e51b815260206004820152602660248201527f416464726573733a2064656c65676174652063616c6c20746f206e6f6e2d636f6044820152651b9d1c9858dd60d21b606482015260840161027b565b600080846001600160a01b031684604051612ba29190613409565b600060405180830381855af49150503d8060008114612bdd576040519150601f19603f3d011682016040523d82523d6000602084013e612be2565b606091505b5091509150612c0a828260405180606001604052806027815260200161347960279139612c13565b95945050505050565b60608315612c22575081612c4c565b825115612c325782518084602001fd5b8160405162461bcd60e51b815260040161027b9190613425565b9392505050565b6001600160a01b038116811461030157600080fd5b600060208284031215612c7a57600080fd5b8135612c4c81612c53565b634e487b7160e01b600052604160045260246000fd5b604051601f8201601f1916810167ffffffffffffffff81118282101715612cc457612cc4612c85565b604052919050565b600067ffffffffffffffff821115612ce657612ce6612c85565b50601f01601f191660200190565b6000612d07612d0284612ccc565b612c9b565b9050828152838383011115612d1b57600080fd5b828260208301376000602084830101529392505050565b60008060408385031215612d4557600080fd5b8235612d5081612c53565b9150602083013567ffffffffffffffff811115612d6c57600080fd5b8301601f81018513612d7d57600080fd5b612d8c85823560208401612cf4565b9150509250929050565b60008060008060608587031215612dac57600080fd5b8435612db781612c53565b93506020850135612dc781612c53565b9250604085013567ffffffffffffffff80821115612de457600080fd5b818701915087601f830112612df857600080fd5b813581811115612e0757600080fd5b886020828501011115612e1957600080fd5b95989497505060200194505050565b6020808252602c908201527f46756e6374696f6e206d7573742062652063616c6c6564207468726f7567682060408201526b19195b1959d85d1958d85b1b60a21b606082015260800190565b6020808252602c908201527f46756e6374696f6e206d7573742062652063616c6c6564207468726f7567682060408201526b6163746976652070726f787960a01b606082015260800190565b600060208284031215612ed257600080fd5b5051919050565b81835281816020850137506000828201602090810191909152601f909101601f19169091010190565b6001600160a01b0384168152604060208201819052600090612c0a9083018486612ed9565b60005b83811015612f42578181015183820152602001612f2a565b50506000910152565b600060208284031215612f5d57600080fd5b815167ffffffffffffffff811115612f7457600080fd5b8201601f81018413612f8557600080fd5b8051612f93612d0282612ccc565b818152856020838501011115612fa857600080fd5b612c0a826020830160208601612f27565b60008151808452612fd1816020860160208601612f27565b601f01601f19169290920160200192915050565b6000610100808352612ff98184018d612fb9565b6001600160a01b038c81166020860152848203604086015290915061301e828c612fb9565b9150808a166060850152508760808401528660a084015282810360c0840152613048818688612ed9565b9150508260e08301529a9950505050505050505050565b85815284602082015260806040820152600061307f608083018587612ed9565b90508260608301529695505050505050565b600067ffffffffffffffff8211156130ab576130ab612c85565b5060051b60200190565b600060208083850312156130c857600080fd5b825167ffffffffffffffff8111156130df57600080fd5b8301601f810185136130f057600080fd5b80516130fe612d0282613091565b81815260059190911b8201830190838101908783111561311d57600080fd5b928401925b8284101561314457835161313581612c53565b82529284019290840190613122565b979650505050505050565b634e487b7160e01b600052603260045260246000fd5b60006101408083526131798184018f612fb9565b6001600160a01b038e81166020860152848203604086015290915061319e828e612fb9565b9150808c1660608501528a6080850152808a1660a0850152508760c08401528660e08401528281036101008401526131d7818688612ed9565b915050826101208301529c9b505050505050505050505050565b60006001820161321157634e487b7160e01b600052601160045260246000fd5b5060010190565b6000602080838503121561322b57600080fd5b825167ffffffffffffffff81111561324257600080fd5b8301601f8101851361325357600080fd5b8051613261612d0282613091565b81815260059190911b8201830190838101908783111561328057600080fd5b928401925b8284101561314457835182529284019290840190613285565b6000602082840312156132b057600080fd5b8151612c4c81612c53565b600080604083850312156132ce57600080fd5b82516132d981612c53565b6020939093015192949293505050565b600082601f8301126132fa57600080fd5b612c4c83833560208501612cf4565b600080600080600060a0868803121561332157600080fd5b853561332c81612c53565b9450602086013567ffffffffffffffff8082111561334957600080fd5b61335589838a016132e9565b95506040880135915061336782612c53565b9093506060870135908082111561337d57600080fd5b5061338a888289016132e9565b95989497509295608001359392505050565b6000602082840312156133ae57600080fd5b81518015158114612c4c57600080fd5b6020808252602b908201527f496e697469616c697a61626c653a20636f6e7472616374206973206e6f74206960408201526a6e697469616c697a696e6760a81b606082015260800190565b6000825161341b818460208701612f27565b9190910192915050565b602081526000612c4c6020830184612fb956fe740c702bb9b71852192a0a943140360ddb500d906a1f945b48c4a6bf78047852360894a13ba1a3210667c828492db98dca3e2076cc3735a920a3ca505d382bbc416464726573733a206c6f772d6c6576656c2064656c65676174652063616c6c206661696c6564a264697066735822122094b19c50c7ca1c97b8ee769d8c54a3e3c04683fbc6b45c66eb5425f433c6bdad64736f6c63430008100033",
  "linkReferences": {},
  "deployedLinkReferences": {}
}