{
  "_format": "hh-sol-artifact-1",
  "contractName": "ClaimManager",
  "sourceName": "contracts/ClaimManager/ClaimManager.sol",
  "abi": [
    {
      "inputs": [],
      "stateMutability": "nonpayable",
      "type": "constructor"
    },
    {
      "anonymous": false,
      "inputs": [
        {
          "indexed": false,
          "internalType": "address",
          "name": "previousAdmin",
          "type": "address"
        },
        {
          "indexed": false,
          "internalType": "address",
          "name": "newAdmin",
          "type": "address"
        }
      ],
      "name": "AdminChanged",
      "type": "event"
    },
    {
      "anonymous": false,
      "inputs": [
        {
          "indexed": true,
          "internalType": "address",
          "name": "beacon",
          "type": "address"
        }
      ],
      "name": "BeaconUpgraded",
      "type": "event"
    },
    {
      "anonymous": false,
      "inputs": [
        {
          "indexed": false,
          "internalType": "string",
          "name": "bountyId",
          "type": "string"
        },
        {
          "indexed": false,
          "internalType": "address",
          "name": "bountyAddress",
          "type": "address"
        },
        {
          "indexed": false,
          "internalType": "string",
          "name": "organization",
          "type": "string"
        },
        {
          "indexed": false,
          "internalType": "address",
          "name": "closer",
          "type": "address"
        },
        {
          "indexed": false,
          "internalType": "uint256",
          "name": "bountyClosedTime",
          "type": "uint256"
        },
        {
          "indexed": false,
          "internalType": "uint256",
          "name": "bountyType",
          "type": "uint256"
        },
        {
          "indexed": false,
          "internalType": "bytes",
          "name": "data",
          "type": "bytes"
        },
        {
          "indexed": false,
          "internalType": "uint256",
          "name": "version",
          "type": "uint256"
        }
      ],
      "name": "BountyClosed",
      "type": "event"
    },
    {
      "anonymous": false,
      "inputs": [
        {
          "indexed": false,
          "internalType": "string",
          "name": "bountyId",
          "type": "string"
        },
        {
          "indexed": false,
          "internalType": "string",
          "name": "organization",
          "type": "string"
        },
        {
          "indexed": false,
          "internalType": "address",
          "name": "issuerAddress",
          "type": "address"
        },
        {
          "indexed": false,
          "internalType": "address",
          "name": "bountyAddress",
          "type": "address"
        },
        {
          "indexed": false,
          "internalType": "uint256",
          "name": "bountyMintTime",
          "type": "uint256"
        },
        {
          "indexed": false,
          "internalType": "uint256",
          "name": "bountyType",
          "type": "uint256"
        },
        {
          "indexed": false,
          "internalType": "bytes",
          "name": "data",
          "type": "bytes"
        },
        {
          "indexed": false,
          "internalType": "uint256",
          "name": "version",
          "type": "uint256"
        }
      ],
      "name": "BountyCreated",
      "type": "event"
    },
    {
      "anonymous": false,
      "inputs": [
        {
          "indexed": false,
          "internalType": "uint256",
          "name": "claimTime",
          "type": "uint256"
        },
        {
          "indexed": false,
          "internalType": "uint256",
          "name": "bountyType",
          "type": "uint256"
        },
        {
          "indexed": false,
          "internalType": "bytes",
          "name": "data",
          "type": "bytes"
        },
        {
          "indexed": false,
          "internalType": "uint256",
          "name": "version",
          "type": "uint256"
        }
      ],
      "name": "ClaimSuccess",
      "type": "event"
    },
    {
      "anonymous": false,
      "inputs": [
        {
          "indexed": false,
          "internalType": "bytes32",
          "name": "depositId",
          "type": "bytes32"
        },
        {
          "indexed": false,
          "internalType": "uint256",
          "name": "newExpiration",
          "type": "uint256"
        },
        {
          "indexed": false,
          "internalType": "uint256",
          "name": "bountyType",
          "type": "uint256"
        },
        {
          "indexed": false,
          "internalType": "bytes",
          "name": "data",
          "type": "bytes"
        },
        {
          "indexed": false,
          "internalType": "uint256",
          "name": "version",
          "type": "uint256"
        }
      ],
      "name": "DepositExtended",
      "type": "event"
    },
    {
      "anonymous": false,
      "inputs": [
        {
          "indexed": false,
          "internalType": "bytes32",
          "name": "depositId",
          "type": "bytes32"
        },
        {
          "indexed": false,
          "internalType": "string",
          "name": "bountyId",
          "type": "string"
        },
        {
          "indexed": false,
          "internalType": "address",
          "name": "bountyAddress",
          "type": "address"
        },
        {
          "indexed": false,
          "internalType": "string",
          "name": "organization",
          "type": "string"
        },
        {
          "indexed": false,
          "internalType": "uint256",
          "name": "refundTime",
          "type": "uint256"
        },
        {
          "indexed": false,
          "internalType": "address",
          "name": "tokenAddress",
          "type": "address"
        },
        {
          "indexed": false,
          "internalType": "uint256",
          "name": "volume",
          "type": "uint256"
        },
        {
          "indexed": false,
          "internalType": "uint256",
          "name": "bountyType",
          "type": "uint256"
        },
        {
          "indexed": false,
          "internalType": "bytes",
          "name": "data",
          "type": "bytes"
        },
        {
          "indexed": false,
          "internalType": "uint256",
          "name": "version",
          "type": "uint256"
        }
      ],
      "name": "DepositRefunded",
      "type": "event"
    },
    {
      "anonymous": false,
      "inputs": [
        {
          "indexed": false,
          "internalType": "address",
          "name": "bountyAddress",
          "type": "address"
        },
        {
          "indexed": false,
          "internalType": "address",
          "name": "fundingGoalTokenAddress",
          "type": "address"
        },
        {
          "indexed": false,
          "internalType": "uint256",
          "name": "fundingGoalVolume",
          "type": "uint256"
        },
        {
          "indexed": false,
          "internalType": "uint256",
          "name": "bountyType",
          "type": "uint256"
        },
        {
          "indexed": false,
          "internalType": "bytes",
          "name": "data",
          "type": "bytes"
        },
        {
          "indexed": false,
          "internalType": "uint256",
          "name": "version",
          "type": "uint256"
        }
      ],
      "name": "FundingGoalSet",
      "type": "event"
    },
    {
      "anonymous": false,
      "inputs": [
        {
          "indexed": false,
          "internalType": "uint8",
          "name": "version",
          "type": "uint8"
        }
      ],
      "name": "Initialized",
      "type": "event"
    },
    {
      "anonymous": false,
      "inputs": [
        {
          "indexed": false,
          "internalType": "string",
          "name": "bountyId",
          "type": "string"
        },
        {
          "indexed": false,
          "internalType": "address",
          "name": "bountyAddress",
          "type": "address"
        },
        {
          "indexed": false,
          "internalType": "string",
          "name": "organization",
          "type": "string"
        },
        {
          "indexed": false,
          "internalType": "address",
          "name": "closer",
          "type": "address"
        },
        {
          "indexed": false,
          "internalType": "uint256",
          "name": "payoutTime",
          "type": "uint256"
        },
        {
          "indexed": false,
          "internalType": "address",
          "name": "tokenAddress",
          "type": "address"
        },
        {
          "indexed": false,
          "internalType": "uint256",
          "name": "tokenId",
          "type": "uint256"
        },
        {
          "indexed": false,
          "internalType": "uint256",
          "name": "bountyType",
          "type": "uint256"
        },
        {
          "indexed": false,
          "internalType": "bytes",
          "name": "data",
          "type": "bytes"
        },
        {
          "indexed": false,
          "internalType": "uint256",
          "name": "version",
          "type": "uint256"
        }
      ],
      "name": "NFTClaimed",
      "type": "event"
    },
    {
      "anonymous": false,
      "inputs": [
        {
          "indexed": false,
          "internalType": "bytes32",
          "name": "depositId",
          "type": "bytes32"
        },
        {
          "indexed": false,
          "internalType": "address",
          "name": "bountyAddress",
          "type": "address"
        },
        {
          "indexed": false,
          "internalType": "string",
          "name": "bountyId",
          "type": "string"
        },
        {
          "indexed": false,
          "internalType": "string",
          "name": "organization",
          "type": "string"
        },
        {
          "indexed": false,
          "internalType": "address",
          "name": "tokenAddress",
          "type": "address"
        },
        {
          "indexed": false,
          "internalType": "uint256",
          "name": "receiveTime",
          "type": "uint256"
        },
        {
          "indexed": false,
          "internalType": "address",
          "name": "sender",
          "type": "address"
        },
        {
          "indexed": false,
          "internalType": "uint256",
          "name": "expiration",
          "type": "uint256"
        },
        {
          "indexed": false,
          "internalType": "uint256",
          "name": "tokenId",
          "type": "uint256"
        },
        {
          "indexed": false,
          "internalType": "uint256",
          "name": "bountyType",
          "type": "uint256"
        },
        {
          "indexed": false,
          "internalType": "bytes",
          "name": "data",
          "type": "bytes"
        },
        {
          "indexed": false,
          "internalType": "uint256",
          "name": "version",
          "type": "uint256"
        }
      ],
      "name": "NFTDepositReceived",
      "type": "event"
    },
    {
      "anonymous": false,
      "inputs": [
        {
          "indexed": true,
          "internalType": "address",
          "name": "previousOracle",
          "type": "address"
        },
        {
          "indexed": true,
          "internalType": "address",
          "name": "newOracle",
          "type": "address"
        }
      ],
      "name": "OracleTransferred",
      "type": "event"
    },
    {
      "anonymous": false,
      "inputs": [
        {
          "indexed": true,
          "internalType": "address",
          "name": "previousOwner",
          "type": "address"
        },
        {
          "indexed": true,
          "internalType": "address",
          "name": "newOwner",
          "type": "address"
        }
      ],
      "name": "OwnershipTransferred",
      "type": "event"
    },
    {
      "anonymous": false,
      "inputs": [
        {
          "indexed": false,
          "internalType": "address",
          "name": "bountyAddress",
          "type": "address"
        },
        {
          "indexed": false,
          "internalType": "address",
          "name": "payoutTokenAddress",
          "type": "address"
        },
        {
          "indexed": false,
          "internalType": "uint256[]",
          "name": "payoutSchedule",
          "type": "uint256[]"
        },
        {
          "indexed": false,
          "internalType": "uint256",
          "name": "bountyType",
          "type": "uint256"
        },
        {
          "indexed": false,
          "internalType": "bytes",
          "name": "data",
          "type": "bytes"
        },
        {
          "indexed": false,
          "internalType": "uint256",
          "name": "version",
          "type": "uint256"
        }
      ],
      "name": "PayoutScheduleSet",
      "type": "event"
    },
    {
      "anonymous": false,
      "inputs": [
        {
          "indexed": false,
          "internalType": "address",
          "name": "bountyAddress",
          "type": "address"
        },
        {
          "indexed": false,
          "internalType": "address",
          "name": "payoutTokenAddress",
          "type": "address"
        },
        {
          "indexed": false,
          "internalType": "uint256",
          "name": "payoutTokenVolume",
          "type": "uint256"
        },
        {
          "indexed": false,
          "internalType": "uint256",
          "name": "bountyType",
          "type": "uint256"
        },
        {
          "indexed": false,
          "internalType": "bytes",
          "name": "data",
          "type": "bytes"
        },
        {
          "indexed": false,
          "internalType": "uint256",
          "name": "version",
          "type": "uint256"
        }
      ],
      "name": "PayoutSet",
      "type": "event"
    },
    {
      "anonymous": false,
      "inputs": [
        {
          "indexed": false,
          "internalType": "string",
          "name": "bountyId",
          "type": "string"
        },
        {
          "indexed": false,
          "internalType": "address",
          "name": "bountyAddress",
          "type": "address"
        },
        {
          "indexed": false,
          "internalType": "string",
          "name": "organization",
          "type": "string"
        },
        {
          "indexed": false,
          "internalType": "address",
          "name": "closer",
          "type": "address"
        },
        {
          "indexed": false,
          "internalType": "uint256",
          "name": "payoutTime",
          "type": "uint256"
        },
        {
          "indexed": false,
          "internalType": "address",
          "name": "tokenAddress",
          "type": "address"
        },
        {
          "indexed": false,
          "internalType": "uint256",
          "name": "volume",
          "type": "uint256"
        },
        {
          "indexed": false,
          "internalType": "uint256",
          "name": "bountyType",
          "type": "uint256"
        },
        {
          "indexed": false,
          "internalType": "bytes",
          "name": "data",
          "type": "bytes"
        },
        {
          "indexed": false,
          "internalType": "uint256",
          "name": "version",
          "type": "uint256"
        }
      ],
      "name": "TokenBalanceClaimed",
      "type": "event"
    },
    {
      "anonymous": false,
      "inputs": [
        {
          "indexed": false,
          "internalType": "bytes32",
          "name": "depositId",
          "type": "bytes32"
        },
        {
          "indexed": false,
          "internalType": "address",
          "name": "bountyAddress",
          "type": "address"
        },
        {
          "indexed": false,
          "internalType": "string",
          "name": "bountyId",
          "type": "string"
        },
        {
          "indexed": false,
          "internalType": "string",
          "name": "organization",
          "type": "string"
        },
        {
          "indexed": false,
          "internalType": "address",
          "name": "tokenAddress",
          "type": "address"
        },
        {
          "indexed": false,
          "internalType": "uint256",
          "name": "receiveTime",
          "type": "uint256"
        },
        {
          "indexed": false,
          "internalType": "address",
          "name": "sender",
          "type": "address"
        },
        {
          "indexed": false,
          "internalType": "uint256",
          "name": "expiration",
          "type": "uint256"
        },
        {
          "indexed": false,
          "internalType": "uint256",
          "name": "volume",
          "type": "uint256"
        },
        {
          "indexed": false,
          "internalType": "uint256",
          "name": "bountyType",
          "type": "uint256"
        },
        {
          "indexed": false,
          "internalType": "bytes",
          "name": "data",
          "type": "bytes"
        },
        {
          "indexed": false,
          "internalType": "uint256",
          "name": "version",
          "type": "uint256"
        }
      ],
      "name": "TokenDepositReceived",
      "type": "event"
    },
    {
      "anonymous": false,
      "inputs": [
        {
          "indexed": true,
          "internalType": "address",
          "name": "implementation",
          "type": "address"
        }
      ],
      "name": "Upgraded",
      "type": "event"
    },
    {
      "inputs": [],
      "name": "VERSION_1",
      "outputs": [
        {
          "internalType": "uint256",
          "name": "",
          "type": "uint256"
        }
      ],
      "stateMutability": "view",
      "type": "function"
    },
    {
      "inputs": [
        {
          "internalType": "address",
          "name": "_bountyAddress",
          "type": "address"
        }
      ],
      "name": "bountyIsClaimable",
      "outputs": [
        {
          "internalType": "bool",
          "name": "",
          "type": "bool"
        }
      ],
      "stateMutability": "view",
      "type": "function"
    },
    {
      "inputs": [
        {
          "internalType": "address",
          "name": "_bountyAddress",
          "type": "address"
        },
        {
          "internalType": "address",
          "name": "_closer",
          "type": "address"
        },
        {
          "internalType": "bytes",
          "name": "_closerData",
          "type": "bytes"
        }
      ],
      "name": "claimBounty",
      "outputs": [],
      "stateMutability": "nonpayable",
      "type": "function"
    },
    {
      "inputs": [
        {
          "internalType": "address",
          "name": "oracle",
          "type": "address"
        }
      ],
      "name": "initialize",
      "outputs": [],
      "stateMutability": "nonpayable",
      "type": "function"
    },
    {
      "inputs": [],
      "name": "oracle",
      "outputs": [
        {
          "internalType": "address",
          "name": "",
          "type": "address"
        }
      ],
      "stateMutability": "view",
      "type": "function"
    },
    {
      "inputs": [],
      "name": "owner",
      "outputs": [
        {
          "internalType": "address",
          "name": "",
          "type": "address"
        }
      ],
      "stateMutability": "view",
      "type": "function"
    },
    {
      "inputs": [],
      "name": "proxiableUUID",
      "outputs": [
        {
          "internalType": "bytes32",
          "name": "",
          "type": "bytes32"
        }
      ],
      "stateMutability": "view",
      "type": "function"
    },
    {
      "inputs": [],
      "name": "renounceOwnership",
      "outputs": [],
      "stateMutability": "nonpayable",
      "type": "function"
    },
    {
      "inputs": [
        {
          "internalType": "address",
          "name": "_newOracle",
          "type": "address"
        }
      ],
      "name": "transferOracle",
      "outputs": [],
      "stateMutability": "nonpayable",
      "type": "function"
    },
    {
      "inputs": [
        {
          "internalType": "address",
          "name": "newOwner",
          "type": "address"
        }
      ],
      "name": "transferOwnership",
      "outputs": [],
      "stateMutability": "nonpayable",
      "type": "function"
    },
    {
      "inputs": [
        {
          "internalType": "address",
          "name": "newImplementation",
          "type": "address"
        }
      ],
      "name": "upgradeTo",
      "outputs": [],
      "stateMutability": "nonpayable",
      "type": "function"
    },
    {
      "inputs": [
        {
          "internalType": "address",
          "name": "newImplementation",
          "type": "address"
        },
        {
          "internalType": "bytes",
          "name": "data",
          "type": "bytes"
        }
      ],
      "name": "upgradeToAndCall",
      "outputs": [],
      "stateMutability": "payable",
      "type": "function"
    }
  ],
  "bytecode": "0x60a06040523060805234801561001457600080fd5b50608051613a9f6100686000396000818161023d015281816102860152818161030e0152818161034e015281816103ca015281816105010152818161054101528181610b1d0152610b5d0152613a9f6000f3fe6080604052600436106100a75760003560e01c80638da5cb5b116100645780638da5cb5b14610165578063a9c6dfda14610183578063c4d66de8146101a3578063e7326806146101c3578063e7ae390a146101e3578063f2fde38b1461021357600080fd5b806326c20e5f146100ac5780633659cfe6146100d45780634f1ef286146100f657806352d1902d14610109578063715018a61461011e5780637dc0d1d014610133575b600080fd5b3480156100b857600080fd5b506100c1600181565b6040519081526020015b60405180910390f35b3480156100e057600080fd5b506100f46100ef3660046131ba565b610233565b005b6100f4610104366004613284565b610304565b34801561011557600080fd5b506100c16103bd565b34801561012a57600080fd5b506100f4610470565b34801561013f57600080fd5b506033546001600160a01b03165b6040516001600160a01b0390911681526020016100cb565b34801561017157600080fd5b506034546001600160a01b031661014d565b34801561018f57600080fd5b506100f461019e3660046132e8565b610484565b3480156101af57600080fd5b506100f46101be3660046131ba565b6109f1565b3480156101cf57600080fd5b506100f46101de3660046131ba565b610b13565b3480156101ef57600080fd5b506102036101fe3660046131ba565b610c12565b60405190151581526020016100cb565b34801561021f57600080fd5b506100f461022e3660046131ba565b610d20565b6001600160a01b037f00000000000000000000000000000000000000000000000000000000000000001630036102845760405162461bcd60e51b815260040161027b9061337a565b60405180910390fd5b7f00000000000000000000000000000000000000000000000000000000000000006001600160a01b03166102b6610d96565b6001600160a01b0316146102dc5760405162461bcd60e51b815260040161027b906133c6565b6102e581610db2565b6040805160008082526020820190925261030191839190610dba565b50565b6001600160a01b037f000000000000000000000000000000000000000000000000000000000000000016300361034c5760405162461bcd60e51b815260040161027b9061337a565b7f00000000000000000000000000000000000000000000000000000000000000006001600160a01b031661037e610d96565b6001600160a01b0316146103a45760405162461bcd60e51b815260040161027b906133c6565b6103ad82610db2565b6103b982826001610dba565b5050565b6000306001600160a01b037f0000000000000000000000000000000000000000000000000000000000000000161461045d5760405162461bcd60e51b815260206004820152603860248201527f555550535570677261646561626c653a206d757374206e6f742062652063616c60448201527f6c6564207468726f7567682064656c656761746563616c6c0000000000000000606482015260840161027b565b50600080516020613a2383398151915290565b610478610f2a565b6104826000610f84565b565b6033546001600160a01b031633146104f75760405162461bcd60e51b815260206004820152603060248201527f4f7261636c697a653a2063616c6c6572206973206e6f7420746865206375727260448201526f656e74204f70656e51204f7261636c6560801b606482015260840161027b565b6001600160a01b037f000000000000000000000000000000000000000000000000000000000000000016300361053f5760405162461bcd60e51b815260040161027b9061337a565b7f00000000000000000000000000000000000000000000000000000000000000006001600160a01b0316610571610d96565b6001600160a01b0316146105975760405162461bcd60e51b815260040161027b906133c6565b60008490506000816001600160a01b031663b3ca1f3b6040518163ffffffff1660e01b8152600401602060405180830381865afa1580156105dc573d6000803e3d6000fd5b505050506040513d601f19601f820116820180604052508101906106009190613412565b9050806108a957600063ffffffff16826001600160a01b031663200d2ed26040518163ffffffff1660e01b8152600401602060405180830381865afa15801561064d573d6000803e3d6000fd5b505050506040513d601f19601f820116820180604052508101906106719190613412565b1460405180604001604052806019815260200178434f4e54524143545f49535f4e4f545f434c41494d41424c4560381b815250906106c25760405162461bcd60e51b815260040161027b919061347b565b506106cf82868686610fd6565b604051632338d37760e01b81526001600160a01b03831690632338d377906106ff908890889088906004016134b7565b600060405180830381600087803b15801561071957600080fd5b505af115801561072d573d6000803e3d6000fd5b505050507fb9d76ba577270421a3b4826a02b81b7678f1d62214225408b99f94e42d78278c826001600160a01b031663c17bd75e6040518163ffffffff1660e01b8152600401600060405180830381865afa158015610790573d6000803e3d6000fd5b505050506040513d6000823e601f3d908101601f191682016040526107b891908101906134dc565b87846001600160a01b03166323bd4d7a6040518163ffffffff1660e01b8152600401600060405180830381865afa1580156107f7573d6000803e3d6000fd5b505050506040513d6000823e601f3d908101601f1916820160405261081f91908101906134dc565b8842876001600160a01b031663b3ca1f3b6040518163ffffffff1660e01b8152600401602060405180830381865afa15801561085f573d6000803e3d6000fd5b505050506040513d601f19601f820116820180604052508101906108839190613412565b8a8a600160405161089c9998979695949392919061354a565b60405180910390a16109a9565b600019810161097f57600063ffffffff16826001600160a01b031663200d2ed26040518163ffffffff1660e01b8152600401602060405180830381865afa1580156108f8573d6000803e3d6000fd5b505050506040513d601f19601f8201168201806040525081019061091c9190613412565b1460405180604001604052806019815260200178434f4e54524143545f49535f4e4f545f434c41494d41424c4560381b8152509061096d5760405162461bcd60e51b815260040161027b919061347b565b5061097a828686866117b8565b6109a9565b60011981016109945761097a8286868661198e565b60021981016100a75761097a82868686612486565b7fd6de63792ebd5ae7b0da0e2a38b6fe8acd3b85073d8c96d84bd84271663d0eca4282868660016040516109e19594939291906135c4565b60405180910390a1505050505050565b600054610100900460ff1615808015610a115750600054600160ff909116105b80610a2b5750303b158015610a2b575060005460ff166001145b610a8e5760405162461bcd60e51b815260206004820152602e60248201527f496e697469616c697a61626c653a20636f6e747261637420697320616c72656160448201526d191e481a5b9a5d1a585b1a5e995960921b606482015260840161027b565b6000805460ff191660011790558015610ab1576000805461ff0019166101001790555b610ab9612e49565b610ac1612e78565b610aca82612e9f565b80156103b9576000805461ff0019169055604051600181527f7f26b83ff96e1f2b6a682f133852f6798a09c465da95921460cefb38474024989060200160405180910390a15050565b6001600160a01b037f0000000000000000000000000000000000000000000000000000000000000000163003610b5b5760405162461bcd60e51b815260040161027b9061337a565b7f00000000000000000000000000000000000000000000000000000000000000006001600160a01b0316610b8d610d96565b6001600160a01b031614610bb35760405162461bcd60e51b815260040161027b906133c6565b610bbb610f2a565b60408051808201909152600f81526e4e4f5f5a45524f5f4144445245535360881b60208201526001600160a01b038216610c085760405162461bcd60e51b815260040161027b919061347b565b5061030181612ee8565b6000808290506000816001600160a01b031663200d2ed26040518163ffffffff1660e01b8152600401602060405180830381865afa158015610c58573d6000803e3d6000fd5b505050506040513d601f19601f82011682018060405250810190610c7c9190613412565b90506000826001600160a01b031663b3ca1f3b6040518163ffffffff1660e01b8152600401602060405180830381865afa158015610cbe573d6000803e3d6000fd5b505050506040513d601f19601f82011682018060405250810190610ce29190613412565b9050801580610cf15750600181145b80610cfc5750600281145b80610d075750600381145b15610d155750159392505050565b506001149392505050565b610d28610f2a565b6001600160a01b038116610d8d5760405162461bcd60e51b815260206004820152602660248201527f4f776e61626c653a206e6577206f776e657220697320746865207a65726f206160448201526564647265737360d01b606482015260840161027b565b61030181610f84565b600080516020613a23833981519152546001600160a01b031690565b610301610f2a565b7f4910fdfa16fed3260ed0e7147f7cc6da11a60208b5b9406d12a635614ffd91435460ff1615610df257610ded83612f3a565b505050565b826001600160a01b03166352d1902d6040518163ffffffff1660e01b8152600401602060405180830381865afa925050508015610e4c575060408051601f3d908101601f19168201909252610e4991810190613412565b60015b610eaf5760405162461bcd60e51b815260206004820152602e60248201527f45524331393637557067726164653a206e657720696d706c656d656e7461746960448201526d6f6e206973206e6f74205555505360901b606482015260840161027b565b600080516020613a238339815191528114610f1e5760405162461bcd60e51b815260206004820152602960248201527f45524331393637557067726164653a20756e737570706f727465642070726f786044820152681a58589b195555525160ba1b606482015260840161027b565b50610ded838383612fd6565b6034546001600160a01b031633146104825760405162461bcd60e51b815260206004820181905260248201527f4f776e61626c653a2063616c6c6572206973206e6f7420746865206f776e6572604482015260640161027b565b603480546001600160a01b038381166001600160a01b0319831681179093556040519116919082907f8be0079c531659141344cd1fd0a4f28419497f9722a3daafe3b4186f6b6457e090600090a35050565b60005b846001600160a01b031663ee8c24b86040518163ffffffff1660e01b8152600401600060405180830381865afa158015611017573d6000803e3d6000fd5b505050506040513d6000823e601f3d908101601f1916820160405261103f919081019061361a565b51811015611345576000856001600160a01b031663cb2da3db86886001600160a01b031663ee8c24b86040518163ffffffff1660e01b8152600401600060405180830381865afa158015611097573d6000803e3d6000fd5b505050506040513d6000823e601f3d908101601f191682016040526110bf919081019061361a565b85815181106110d0576110d06136b4565b60200260200101516040518363ffffffff1660e01b815260040161110a9291906001600160a01b0392831681529116602082015260400190565b6020604051808303816000875af1158015611129573d6000803e3d6000fd5b505050506040513d601f19601f8201168201806040525081019061114d9190613412565b9050600080516020613a03833981519152866001600160a01b031663c17bd75e6040518163ffffffff1660e01b8152600401600060405180830381865afa15801561119c573d6000803e3d6000fd5b505050506040513d6000823e601f3d908101601f191682016040526111c491908101906134dc565b87886001600160a01b03166323bd4d7a6040518163ffffffff1660e01b8152600401600060405180830381865afa158015611203573d6000803e3d6000fd5b505050506040513d6000823e601f3d908101601f1916820160405261122b91908101906134dc565b88428b6001600160a01b031663ee8c24b86040518163ffffffff1660e01b8152600401600060405180830381865afa15801561126b573d6000803e3d6000fd5b505050506040513d6000823e601f3d908101601f19168201604052611293919081019061361a565b88815181106112a4576112a46136b4565b6020026020010151878d6001600160a01b031663b3ca1f3b6040518163ffffffff1660e01b8152600401602060405180830381865afa1580156112eb573d6000803e3d6000fd5b505050506040513d601f19601f8201168201806040525081019061130f9190613412565b8c8c600160405161132a9b9a999897969594939291906136ca565b60405180910390a1508061133d81613756565b915050610fd9565b5060005b846001600160a01b03166377ede8a66040518163ffffffff1660e01b8152600401600060405180830381865afa158015611387573d6000803e3d6000fd5b505050506040513d6000823e601f3d908101601f191682016040526113af919081019061377d565b518110156117b157604051630de2fe4b60e11b8152600481018290526001600160a01b038616906371ec4ebf9086908390631bc5fc9690602401602060405180830381865afa158015611406573d6000803e3d6000fd5b505050506040513d601f19601f8201168201806040525081019061142a9190613412565b6040516001600160e01b031960e085901b1681526001600160a01b0390921660048301526024820152604401600060405180830381600087803b15801561147057600080fd5b505af1158015611484573d6000803e3d6000fd5b505050507f7bec1fa43a121aa27c28cbbe6f5296871967c47439c054218395b34e41579e55856001600160a01b031663c17bd75e6040518163ffffffff1660e01b8152600401600060405180830381865afa1580156114e7573d6000803e3d6000fd5b505050506040513d6000823e601f3d908101601f1916820160405261150f91908101906134dc565b86876001600160a01b03166323bd4d7a6040518163ffffffff1660e01b8152600401600060405180830381865afa15801561154e573d6000803e3d6000fd5b505050506040513d6000823e601f3d908101601f1916820160405261157691908101906134dc565b604051630de2fe4b60e11b815260048101869052889042906001600160a01b038c16906397bb3ce9908290631bc5fc9690602401602060405180830381865afa1580156115c7573d6000803e3d6000fd5b505050506040513d601f19601f820116820180604052508101906115eb9190613412565b6040518263ffffffff1660e01b815260040161160991815260200190565b602060405180830381865afa158015611626573d6000803e3d6000fd5b505050506040513d601f19601f8201168201806040525081019061164a9190613803565b604051630de2fe4b60e11b8152600481018990526001600160a01b038d169063f2321725908290631bc5fc9690602401602060405180830381865afa158015611697573d6000803e3d6000fd5b505050506040513d601f19601f820116820180604052508101906116bb9190613412565b6040518263ffffffff1660e01b81526004016116d991815260200190565b602060405180830381865afa1580156116f6573d6000803e3d6000fd5b505050506040513d601f19601f8201168201806040525081019061171a9190613412565b8c6001600160a01b031663b3ca1f3b6040518163ffffffff1660e01b8152600401602060405180830381865afa158015611758573d6000803e3d6000fd5b505050506040513d601f19601f8201168201806040525081019061177c9190613412565b8b8b60016040516117979b9a999897969594939291906136ca565b60405180910390a1806117a981613756565b915050611349565b5050505050565b600080856001600160a01b031663a09dd1aa8686866040518463ffffffff1660e01b81526004016117eb939291906134b7565b60408051808303816000875af1158015611809573d6000803e3d6000fd5b505050506040513d601f19601f8201168201806040525081019061182d9190613820565b91509150600080516020613a03833981519152866001600160a01b031663c17bd75e6040518163ffffffff1660e01b8152600401600060405180830381865afa15801561187e573d6000803e3d6000fd5b505050506040513d6000823e601f3d908101601f191682016040526118a691908101906134dc565b87886001600160a01b03166323bd4d7a6040518163ffffffff1660e01b8152600401600060405180830381865afa1580156118e5573d6000803e3d6000fd5b505050506040513d6000823e601f3d908101601f1916820160405261190d91908101906134dc565b884287878d6001600160a01b031663b3ca1f3b6040518163ffffffff1660e01b8152600401602060405180830381865afa15801561194f573d6000803e3d6000fd5b505050506040513d601f19601f820116820180604052508101906119739190613412565b8c8c60016040516109e19b9a999897969594939291906136ca565b600061199c8284018461386e565b604051634ee5bdc760e11b8152600481018290529095506001600160a01b038a169450639dcb7b8e935060240191506119d29050565b602060405180830381865afa1580156119ef573d6000803e3d6000fd5b505050506040513d601f19601f82011682018060405250810190611a139190613901565b15604051806040016040528060148152602001731512515497d053149150511657d0d3105253515160621b81525090611a5f5760405162461bcd60e51b815260040161027b919061347b565b50846001600160a01b031663200d2ed26040518163ffffffff1660e01b8152600401602060405180830381865afa158015611a9e573d6000803e3d6000fd5b505050506040513d601f19601f82011682018060405250810190611ac29190613412565b600003611c9a57846001600160a01b03166322fa365e6040518163ffffffff1660e01b8152600401600060405180830381600087803b158015611b0457600080fd5b505af1158015611b18573d6000803e3d6000fd5b505050507fb9d76ba577270421a3b4826a02b81b7678f1d62214225408b99f94e42d78278c856001600160a01b031663c17bd75e6040518163ffffffff1660e01b8152600401600060405180830381865afa158015611b7b573d6000803e3d6000fd5b505050506040513d6000823e601f3d908101601f19168201604052611ba391908101906134dc565b86876001600160a01b03166323bd4d7a6040518163ffffffff1660e01b8152600401600060405180830381865afa158015611be2573d6000803e3d6000fd5b505050506040513d6000823e601f3d908101601f19168201604052611c0a91908101906134dc565b6000428a6001600160a01b031663b3ca1f3b6040518163ffffffff1660e01b8152600401602060405180830381865afa158015611c4b573d6000803e3d6000fd5b505050506040513d601f19601f82011682018060405250810190611c6f9190613412565b60408051600081526020810191829052611c9197969594939291600190613923565b60405180910390a15b60005b856001600160a01b031663ee8c24b86040518163ffffffff1660e01b8152600401600060405180830381865afa158015611cdb573d6000803e3d6000fd5b505050506040513d6000823e601f3d908101601f19168201604052611d03919081019061361a565b51811015612014576000866001600160a01b031663b3b41cea87858a6001600160a01b031663ee8c24b86040518163ffffffff1660e01b8152600401600060405180830381865afa158015611d5c573d6000803e3d6000fd5b505050506040513d6000823e601f3d908101601f19168201604052611d84919081019061361a565b8681518110611d9557611d956136b4565b60200260200101516040518463ffffffff1660e01b8152600401611dd9939291906001600160a01b0393841681526020810192909252909116604082015260600190565b6020604051808303816000875af1158015611df8573d6000803e3d6000fd5b505050506040513d601f19601f82011682018060405250810190611e1c9190613412565b9050600080516020613a03833981519152876001600160a01b031663c17bd75e6040518163ffffffff1660e01b8152600401600060405180830381865afa158015611e6b573d6000803e3d6000fd5b505050506040513d6000823e601f3d908101601f19168201604052611e9391908101906134dc565b88896001600160a01b03166323bd4d7a6040518163ffffffff1660e01b8152600401600060405180830381865afa158015611ed2573d6000803e3d6000fd5b505050506040513d6000823e601f3d908101601f19168201604052611efa91908101906134dc565b89428c6001600160a01b031663ee8c24b86040518163ffffffff1660e01b8152600401600060405180830381865afa158015611f3a573d6000803e3d6000fd5b505050506040513d6000823e601f3d908101601f19168201604052611f62919081019061361a565b8881518110611f7357611f736136b4565b6020026020010151878e6001600160a01b031663b3ca1f3b6040518163ffffffff1660e01b8152600401602060405180830381865afa158015611fba573d6000803e3d6000fd5b505050506040513d601f19601f82011682018060405250810190611fde9190613412565b8d8d6001604051611ff99b9a999897969594939291906136ca565b60405180910390a1508061200c81613756565b915050611c9d565b5060005b856001600160a01b03166377ede8a66040518163ffffffff1660e01b8152600401600060405180830381865afa158015612056573d6000803e3d6000fd5b505050506040513d6000823e601f3d908101601f1916820160405261207e919081019061377d565b5181101561242457604051630de2fe4b60e11b8152600481018290526000906001600160a01b03881690631bc5fc9690602401602060405180830381865afa1580156120ce573d6000803e3d6000fd5b505050506040513d601f19601f820116820180604052508101906120f29190613412565b60405163160a30a360e01b81526004810182905290915083906001600160a01b0389169063160a30a390602401602060405180830381865afa15801561213c573d6000803e3d6000fd5b505050506040513d601f19601f820116820180604052508101906121609190613412565b03612411576040516371ec4ebf60e01b81526001600160a01b038781166004830152602482018390528816906371ec4ebf90604401600060405180830381600087803b1580156121af57600080fd5b505af11580156121c3573d6000803e3d6000fd5b505050507f7bec1fa43a121aa27c28cbbe6f5296871967c47439c054218395b34e41579e55876001600160a01b031663c17bd75e6040518163ffffffff1660e01b8152600401600060405180830381865afa158015612226573d6000803e3d6000fd5b505050506040513d6000823e601f3d908101601f1916820160405261224e91908101906134dc565b88896001600160a01b03166323bd4d7a6040518163ffffffff1660e01b8152600401600060405180830381865afa15801561228d573d6000803e3d6000fd5b505050506040513d6000823e601f3d908101601f191682016040526122b591908101906134dc565b6040516397bb3ce960e01b8152600481018690528a9042906001600160a01b038e16906397bb3ce990602401602060405180830381865afa1580156122fe573d6000803e3d6000fd5b505050506040513d601f19601f820116820180604052508101906123229190613803565b60405163f232172560e01b8152600481018990526001600160a01b038f169063f232172590602401602060405180830381865afa158015612367573d6000803e3d6000fd5b505050506040513d601f19601f8201168201806040525081019061238b9190613412565b8e6001600160a01b031663b3ca1f3b6040518163ffffffff1660e01b8152600401602060405180830381865afa1580156123c9573d6000803e3d6000fd5b505050506040513d601f19601f820116820180604052508101906123ed9190613412565b8d8d60016040516124089b9a999897969594939291906136ca565b60405180910390a15b508061241c81613756565b915050612018565b5060405163fe0329c960e01b8152600481018290526001600160a01b0386169063fe0329c990602401600060405180830381600087803b15801561246757600080fd5b505af115801561247b573d6000803e3d6000fd5b505050505050505050565b60006124948284018461386e565b604051634ee5bdc760e11b8152600481018290529095506001600160a01b038a169450639dcb7b8e935060240191506124ca9050565b602060405180830381865afa1580156124e7573d6000803e3d6000fd5b505050506040513d601f19601f8201168201806040525081019061250b9190613901565b15604051806040016040528060148152602001731512515497d053149150511657d0d3105253515160621b815250906125575760405162461bcd60e51b815260040161027b919061347b565b50846001600160a01b031663200d2ed26040518163ffffffff1660e01b8152600401602060405180830381865afa158015612596573d6000803e3d6000fd5b505050506040513d601f19601f820116820180604052508101906125ba9190613412565b60000361279257846001600160a01b03166322fa365e6040518163ffffffff1660e01b8152600401600060405180830381600087803b1580156125fc57600080fd5b505af1158015612610573d6000803e3d6000fd5b505050507fb9d76ba577270421a3b4826a02b81b7678f1d62214225408b99f94e42d78278c856001600160a01b031663c17bd75e6040518163ffffffff1660e01b8152600401600060405180830381865afa158015612673573d6000803e3d6000fd5b505050506040513d6000823e601f3d908101601f1916820160405261269b91908101906134dc565b86876001600160a01b03166323bd4d7a6040518163ffffffff1660e01b8152600401600060405180830381865afa1580156126da573d6000803e3d6000fd5b505050506040513d6000823e601f3d908101601f1916820160405261270291908101906134dc565b6000428a6001600160a01b031663b3ca1f3b6040518163ffffffff1660e01b8152600401602060405180830381865afa158015612743573d6000803e3d6000fd5b505050506040513d601f19601f820116820180604052508101906127679190613412565b6040805160008152602081019182905261278997969594939291600190613923565b60405180910390a15b60405163020702ff60e11b81526001600160a01b038581166004830152602482018390526000919087169063040e05fe906044016020604051808303816000875af11580156127e5573d6000803e3d6000fd5b505050506040513d601f19601f820116820180604052508101906128099190613412565b9050600080516020613a03833981519152866001600160a01b031663c17bd75e6040518163ffffffff1660e01b8152600401600060405180830381865afa158015612858573d6000803e3d6000fd5b505050506040513d6000823e601f3d908101601f1916820160405261288091908101906134dc565b87886001600160a01b03166323bd4d7a6040518163ffffffff1660e01b8152600401600060405180830381865afa1580156128bf573d6000803e3d6000fd5b505050506040513d6000823e601f3d908101601f191682016040526128e791908101906134dc565b88428b6001600160a01b0316635cc048386040518163ffffffff1660e01b8152600401602060405180830381865afa158015612927573d6000803e3d6000fd5b505050506040513d601f19601f8201168201806040525081019061294b9190613803565b878d6001600160a01b031663b3ca1f3b6040518163ffffffff1660e01b8152600401602060405180830381865afa15801561298a573d6000803e3d6000fd5b505050506040513d601f19601f820116820180604052508101906129ae9190613412565b8c8c60016040516129c99b9a999897969594939291906136ca565b60405180910390a160005b866001600160a01b03166377ede8a66040518163ffffffff1660e01b8152600401600060405180830381865afa158015612a12573d6000803e3d6000fd5b505050506040513d6000823e601f3d908101601f19168201604052612a3a919081019061377d565b51811015612de657604051630de2fe4b60e11b8152600481018290526000906001600160a01b03891690631bc5fc9690602401602060405180830381865afa158015612a8a573d6000803e3d6000fd5b505050506040513d601f19601f82011682018060405250810190612aae9190613412565b60405163160a30a360e01b81526004810182905290915084906001600160a01b038a169063160a30a390602401602060405180830381865afa158015612af8573d6000803e3d6000fd5b505050506040513d601f19601f82011682018060405250810190612b1c9190613412565b03612dd3576040516371ec4ebf60e01b81526001600160a01b038881166004830152602482018390528916906371ec4ebf90604401600060405180830381600087803b158015612b6b57600080fd5b505af1158015612b7f573d6000803e3d6000fd5b505050507f7bec1fa43a121aa27c28cbbe6f5296871967c47439c054218395b34e41579e55886001600160a01b031663c17bd75e6040518163ffffffff1660e01b8152600401600060405180830381865afa158015612be2573d6000803e3d6000fd5b505050506040513d6000823e601f3d908101601f19168201604052612c0a91908101906134dc565b898a6001600160a01b03166323bd4d7a6040518163ffffffff1660e01b8152600401600060405180830381865afa158015612c49573d6000803e3d6000fd5b505050506040513d6000823e601f3d908101601f19168201604052612c7191908101906134dc565b6040516397bb3ce960e01b8152600481018690528b9042906001600160a01b038f16906397bb3ce990602401602060405180830381865afa158015612cba573d6000803e3d6000fd5b505050506040513d601f19601f82011682018060405250810190612cde9190613803565b8e6001600160a01b031663f2321725896040518263ffffffff1660e01b8152600401612d0c91815260200190565b602060405180830381865afa158015612d29573d6000803e3d6000fd5b505050506040513d601f19601f82011682018060405250810190612d4d9190613412565b8f6001600160a01b031663b3ca1f3b6040518163ffffffff1660e01b8152600401602060405180830381865afa158015612d8b573d6000803e3d6000fd5b505050506040513d601f19601f82011682018060405250810190612daf9190613412565b8e8e6001604051612dca9b9a999897969594939291906136ca565b60405180910390a15b5080612dde81613756565b9150506129d4565b5060405163fe0329c960e01b8152600481018390526001600160a01b0387169063fe0329c990602401600060405180830381600087803b158015612e2957600080fd5b505af1158015612e3d573d6000803e3d6000fd5b50505050505050505050565b600054610100900460ff16612e705760405162461bcd60e51b815260040161027b9061399b565b610482613001565b600054610100900460ff166104825760405162461bcd60e51b815260040161027b9061399b565b600054610100900460ff16612ec65760405162461bcd60e51b815260040161027b9061399b565b603380546001600160a01b0319166001600160a01b0392909216919091179055565b603380546001600160a01b038381166001600160a01b0319831681179093556040519116919082907f9b0948b943e24ff3413cb400b2eeae4337138739aaf31759dc6e813e8076fbc390600090a35050565b6001600160a01b0381163b612fa75760405162461bcd60e51b815260206004820152602d60248201527f455243313936373a206e657720696d706c656d656e746174696f6e206973206e60448201526c1bdd08184818dbdb9d1c9858dd609a1b606482015260840161027b565b600080516020613a2383398151915280546001600160a01b0319166001600160a01b0392909216919091179055565b612fdf83613031565b600082511180612fec5750805b15610ded57612ffb8383613071565b50505050565b600054610100900460ff166130285760405162461bcd60e51b815260040161027b9061399b565b61048233610f84565b61303a81612f3a565b6040516001600160a01b038216907fbc7cd75a20ee27fd9adebab32041f755214dbc6bffa90cc0225b39da2e5c2d3b90600090a250565b60606001600160a01b0383163b6130d95760405162461bcd60e51b815260206004820152602660248201527f416464726573733a2064656c65676174652063616c6c20746f206e6f6e2d636f6044820152651b9d1c9858dd60d21b606482015260840161027b565b600080846001600160a01b0316846040516130f491906139e6565b600060405180830381855af49150503d806000811461312f576040519150601f19603f3d011682016040523d82523d6000602084013e613134565b606091505b509150915061315c8282604051806060016040528060278152602001613a4360279139613165565b95945050505050565b6060831561317457508161319e565b8251156131845782518084602001fd5b8160405162461bcd60e51b815260040161027b919061347b565b9392505050565b6001600160a01b038116811461030157600080fd5b6000602082840312156131cc57600080fd5b813561319e816131a5565b634e487b7160e01b600052604160045260246000fd5b604051601f8201601f1916810167ffffffffffffffff81118282101715613216576132166131d7565b604052919050565b600067ffffffffffffffff821115613238576132386131d7565b50601f01601f191660200190565b60006132596132548461321e565b6131ed565b905082815283838301111561326d57600080fd5b828260208301376000602084830101529392505050565b6000806040838503121561329757600080fd5b82356132a2816131a5565b9150602083013567ffffffffffffffff8111156132be57600080fd5b8301601f810185136132cf57600080fd5b6132de85823560208401613246565b9150509250929050565b600080600080606085870312156132fe57600080fd5b8435613309816131a5565b93506020850135613319816131a5565b9250604085013567ffffffffffffffff8082111561333657600080fd5b818701915087601f83011261334a57600080fd5b81358181111561335957600080fd5b88602082850101111561336b57600080fd5b95989497505060200194505050565b6020808252602c908201527f46756e6374696f6e206d7573742062652063616c6c6564207468726f7567682060408201526b19195b1959d85d1958d85b1b60a21b606082015260800190565b6020808252602c908201527f46756e6374696f6e206d7573742062652063616c6c6564207468726f7567682060408201526b6163746976652070726f787960a01b606082015260800190565b60006020828403121561342457600080fd5b5051919050565b60005b8381101561344657818101518382015260200161342e565b50506000910152565b6000815180845261346781602086016020860161342b565b601f01601f19169290920160200192915050565b60208152600061319e602083018461344f565b81835281816020850137506000828201602090810191909152601f909101601f19169091010190565b6001600160a01b038416815260406020820181905260009061315c908301848661348e565b6000602082840312156134ee57600080fd5b815167ffffffffffffffff81111561350557600080fd5b8201601f8101841361351657600080fd5b80516135246132548261321e565b81815285602083850101111561353957600080fd5b61315c82602083016020860161342b565b600061010080835261355e8184018d61344f565b6001600160a01b038c811660208601528482036040860152909150613583828c61344f565b9150808a166060850152508760808401528660a084015282810360c08401526135ad81868861348e565b9150508260e08301529a9950505050505050505050565b8581528460208201526080604082015260006135e460808301858761348e565b90508260608301529695505050505050565b600067ffffffffffffffff821115613610576136106131d7565b5060051b60200190565b6000602080838503121561362d57600080fd5b825167ffffffffffffffff81111561364457600080fd5b8301601f8101851361365557600080fd5b8051613663613254826135f6565b81815260059190911b8201830190838101908783111561368257600080fd5b928401925b828410156136a957835161369a816131a5565b82529284019290840190613687565b979650505050505050565b634e487b7160e01b600052603260045260246000fd5b60006101408083526136de8184018f61344f565b6001600160a01b038e811660208601528482036040860152909150613703828e61344f565b9150808c1660608501528a6080850152808a1660a0850152508760c08401528660e084015282810361010084015261373c81868861348e565b915050826101208301529c9b505050505050505050505050565b60006001820161377657634e487b7160e01b600052601160045260246000fd5b5060010190565b6000602080838503121561379057600080fd5b825167ffffffffffffffff8111156137a757600080fd5b8301601f810185136137b857600080fd5b80516137c6613254826135f6565b81815260059190911b820183019083810190878311156137e557600080fd5b928401925b828410156136a9578351825292840192908401906137ea565b60006020828403121561381557600080fd5b815161319e816131a5565b6000806040838503121561383357600080fd5b825161383e816131a5565b6020939093015192949293505050565b600082601f83011261385f57600080fd5b61319e83833560208501613246565b600080600080600060a0868803121561388657600080fd5b8535613891816131a5565b9450602086013567ffffffffffffffff808211156138ae57600080fd5b6138ba89838a0161384e565b9550604088013591506138cc826131a5565b909350606087013590808211156138e257600080fd5b506138ef8882890161384e565b95989497509295608001359392505050565b60006020828403121561391357600080fd5b8151801515811461319e57600080fd5b60006101008083526139378184018c61344f565b6001600160a01b038b81166020860152848203604086015290915061395c828b61344f565b91508089166060850152508660808401528560a084015282810360c0840152613985818661344f565b9150508260e08301529998505050505050505050565b6020808252602b908201527f496e697469616c697a61626c653a20636f6e7472616374206973206e6f74206960408201526a6e697469616c697a696e6760a81b606082015260800190565b600082516139f881846020870161342b565b919091019291505056fe740c702bb9b71852192a0a943140360ddb500d906a1f945b48c4a6bf78047852360894a13ba1a3210667c828492db98dca3e2076cc3735a920a3ca505d382bbc416464726573733a206c6f772d6c6576656c2064656c65676174652063616c6c206661696c6564a2646970667358221220805a4751708856f71ea2968332d287393474dbc448dbcd8468a73459944ee98564736f6c63430008100033",
  "linkReferences": {},
  "deployedLinkReferences": {}
}