{
  "_format": "hh-sol-artifact-1",
  "contractName": "BountyV2",
  "sourceName": "contracts/Bounty/Implementations/BountyV2.sol",
  "abi": [
    {
      "inputs": [],
      "stateMutability": "nonpayable",
      "type": "constructor"
    },
    {
      "anonymous": false,
      "inputs": [
        {
          "indexed": false,
          "internalType": "uint8",
          "name": "version",
          "type": "uint8"
        }
      ],
      "name": "Initialized",
      "type": "event"
    },
    {
      "inputs": [],
      "name": "bountyClosedTime",
      "outputs": [
        {
          "internalType": "uint256",
          "name": "",
          "type": "uint256"
        }
      ],
      "stateMutability": "view",
      "type": "function"
    },
    {
      "inputs": [],
      "name": "bountyCreatedTime",
      "outputs": [
        {
          "internalType": "uint256",
          "name": "",
          "type": "uint256"
        }
      ],
      "stateMutability": "view",
      "type": "function"
    },
    {
      "inputs": [],
      "name": "bountyId",
      "outputs": [
        {
          "internalType": "string",
          "name": "",
          "type": "string"
        }
      ],
      "stateMutability": "view",
      "type": "function"
    },
    {
      "inputs": [],
      "name": "bountyType",
      "outputs": [
        {
          "internalType": "uint256",
          "name": "",
          "type": "uint256"
        }
      ],
      "stateMutability": "view",
      "type": "function"
    },
    {
      "inputs": [
        {
          "internalType": "address",
          "name": "_payoutAddress",
          "type": "address"
        },
        {
          "internalType": "address",
          "name": "_tokenAddress",
          "type": "address"
        }
      ],
      "name": "claimBalance",
      "outputs": [
        {
          "internalType": "uint256",
          "name": "",
          "type": "uint256"
        }
      ],
      "stateMutability": "nonpayable",
      "type": "function"
    },
    {
      "inputs": [],
      "name": "claimManager",
      "outputs": [
        {
          "internalType": "address",
          "name": "",
          "type": "address"
        }
      ],
      "stateMutability": "view",
      "type": "function"
    },
    {
      "inputs": [
        {
          "internalType": "address",
          "name": "_payoutAddress",
          "type": "address"
        },
        {
          "internalType": "bytes32",
          "name": "_depositId",
          "type": "bytes32"
        }
      ],
      "name": "claimNft",
      "outputs": [],
      "stateMutability": "nonpayable",
      "type": "function"
    },
    {
      "inputs": [
        {
          "internalType": "address",
          "name": "_payoutAddress",
          "type": "address"
        },
        {
          "internalType": "bytes",
          "name": "_closerData",
          "type": "bytes"
        }
      ],
      "name": "claimOngoingPayout",
      "outputs": [
        {
          "internalType": "address",
          "name": "",
          "type": "address"
        },
        {
          "internalType": "uint256",
          "name": "",
          "type": "uint256"
        }
      ],
      "stateMutability": "nonpayable",
      "type": "function"
    },
    {
      "inputs": [
        {
          "internalType": "address",
          "name": "_payoutAddress",
          "type": "address"
        },
        {
          "internalType": "uint256",
          "name": "_tier",
          "type": "uint256"
        },
        {
          "internalType": "address",
          "name": "_tokenAddress",
          "type": "address"
        }
      ],
      "name": "claimTiered",
      "outputs": [
        {
          "internalType": "uint256",
          "name": "",
          "type": "uint256"
        }
      ],
      "stateMutability": "nonpayable",
      "type": "function"
    },
    {
      "inputs": [
        {
          "internalType": "address",
          "name": "_payoutAddress",
          "type": "address"
        },
        {
          "internalType": "uint256",
          "name": "_tier",
          "type": "uint256"
        }
      ],
      "name": "claimTieredFixed",
      "outputs": [
        {
          "internalType": "uint256",
          "name": "",
          "type": "uint256"
        }
      ],
      "stateMutability": "nonpayable",
      "type": "function"
    },
    {
      "inputs": [
        {
          "internalType": "bytes32",
          "name": "",
          "type": "bytes32"
        }
      ],
      "name": "claimId",
      "outputs": [
        {
          "internalType": "bool",
          "name": "",
          "type": "bool"
        }
      ],
      "stateMutability": "view",
      "type": "function"
    },
    {
      "inputs": [
        {
          "internalType": "address",
          "name": "_payoutAddress",
          "type": "address"
        },
        {
          "internalType": "bytes",
          "name": "_closerData",
          "type": "bytes"
        }
      ],
      "name": "close",
      "outputs": [],
      "stateMutability": "nonpayable",
      "type": "function"
    },
    {
      "inputs": [],
      "name": "closeCompetition",
      "outputs": [],
      "stateMutability": "nonpayable",
      "type": "function"
    },
    {
      "inputs": [
        {
          "internalType": "address",
          "name": "_closer",
          "type": "address"
        }
      ],
      "name": "closeOngoing",
      "outputs": [],
      "stateMutability": "nonpayable",
      "type": "function"
    },
    {
      "inputs": [],
      "name": "closer",
      "outputs": [
        {
          "internalType": "address",
          "name": "",
          "type": "address"
        }
      ],
      "stateMutability": "view",
      "type": "function"
    },
    {
      "inputs": [],
      "name": "closerData",
      "outputs": [
        {
          "internalType": "bytes",
          "name": "",
          "type": "bytes"
        }
      ],
      "stateMutability": "view",
      "type": "function"
    },
    {
      "inputs": [],
      "name": "depositManager",
      "outputs": [
        {
          "internalType": "address",
          "name": "",
          "type": "address"
        }
      ],
      "stateMutability": "view",
      "type": "function"
    },
    {
      "inputs": [
        {
          "internalType": "bytes32",
          "name": "",
          "type": "bytes32"
        }
      ],
      "name": "depositTime",
      "outputs": [
        {
          "internalType": "uint256",
          "name": "",
          "type": "uint256"
        }
      ],
      "stateMutability": "view",
      "type": "function"
    },
    {
      "inputs": [
        {
          "internalType": "uint256",
          "name": "",
          "type": "uint256"
        }
      ],
      "name": "deposits",
      "outputs": [
        {
          "internalType": "bytes32",
          "name": "",
          "type": "bytes32"
        }
      ],
      "stateMutability": "view",
      "type": "function"
    },
    {
      "inputs": [
        {
          "internalType": "bytes32",
          "name": "",
          "type": "bytes32"
        }
      ],
      "name": "expiration",
      "outputs": [
        {
          "internalType": "uint256",
          "name": "",
          "type": "uint256"
        }
      ],
      "stateMutability": "view",
      "type": "function"
    },
    {
      "inputs": [
        {
          "internalType": "bytes32",
          "name": "_depositId",
          "type": "bytes32"
        },
        {
          "internalType": "uint256",
          "name": "_seconds",
          "type": "uint256"
        },
        {
          "internalType": "address",
          "name": "_funder",
          "type": "address"
        }
      ],
      "name": "extendDeposit",
      "outputs": [
        {
          "internalType": "uint256",
          "name": "",
          "type": "uint256"
        }
      ],
      "stateMutability": "nonpayable",
      "type": "function"
    },
    {
      "inputs": [
        {
          "internalType": "bytes32",
          "name": "",
          "type": "bytes32"
        }
      ],
      "name": "funder",
      "outputs": [
        {
          "internalType": "address",
          "name": "",
          "type": "address"
        }
      ],
      "stateMutability": "view",
      "type": "function"
    },
    {
      "inputs": [],
      "name": "fundingGoal",
      "outputs": [
        {
          "internalType": "uint256",
          "name": "",
          "type": "uint256"
        }
      ],
      "stateMutability": "view",
      "type": "function"
    },
    {
      "inputs": [],
      "name": "fundingToken",
      "outputs": [
        {
          "internalType": "address",
          "name": "",
          "type": "address"
        }
      ],
      "stateMutability": "view",
      "type": "function"
    },
    {
      "inputs": [
        {
          "internalType": "address",
          "name": "",
          "type": "address"
        }
      ],
      "name": "fundingTotals",
      "outputs": [
        {
          "internalType": "uint256",
          "name": "",
          "type": "uint256"
        }
      ],
      "stateMutability": "view",
      "type": "function"
    },
    {
      "inputs": [],
      "name": "getDeposits",
      "outputs": [
        {
          "internalType": "bytes32[]",
          "name": "",
          "type": "bytes32[]"
        }
      ],
      "stateMutability": "view",
      "type": "function"
    },
    {
      "inputs": [
        {
          "internalType": "address",
          "name": "_tokenAddress",
          "type": "address"
        }
      ],
      "name": "getERC20Balance",
      "outputs": [
        {
          "internalType": "uint256",
          "name": "balance",
          "type": "uint256"
        }
      ],
      "stateMutability": "view",
      "type": "function"
    },
    {
      "inputs": [
        {
          "internalType": "address",
          "name": "_bountyAddress",
          "type": "address"
        },
        {
          "internalType": "address",
          "name": "_depositId",
          "type": "address"
        }
      ],
      "name": "getLockedFunds",
      "outputs": [
        {
          "internalType": "uint256",
          "name": "",
          "type": "uint256"
        }
      ],
      "stateMutability": "view",
      "type": "function"
    },
    {
      "inputs": [],
      "name": "getNftDeposits",
      "outputs": [
        {
          "internalType": "bytes32[]",
          "name": "",
          "type": "bytes32[]"
        }
      ],
      "stateMutability": "view",
      "type": "function"
    },
    {
      "inputs": [],
      "name": "getPayoutSchedule",
      "outputs": [
        {
          "internalType": "uint256[]",
          "name": "",
          "type": "uint256[]"
        }
      ],
      "stateMutability": "view",
      "type": "function"
    },
    {
      "inputs": [],
      "name": "getTokenAddresses",
      "outputs": [
        {
          "internalType": "address[]",
          "name": "",
          "type": "address[]"
        }
      ],
      "stateMutability": "view",
      "type": "function"
    },
    {
      "inputs": [],
      "name": "getTokenAddressesCount",
      "outputs": [
        {
          "internalType": "uint256",
          "name": "",
          "type": "uint256"
        }
      ],
      "stateMutability": "view",
      "type": "function"
    },
    {
      "inputs": [
        {
          "internalType": "address",
          "name": "_tokenAddress",
          "type": "address"
        }
      ],
      "name": "getTokenBalance",
      "outputs": [
        {
          "internalType": "uint256",
          "name": "",
          "type": "uint256"
        }
      ],
      "stateMutability": "view",
      "type": "function"
    },
    {
      "inputs": [],
      "name": "hasFundingGoal",
      "outputs": [
        {
          "internalType": "bool",
          "name": "",
          "type": "bool"
        }
      ],
      "stateMutability": "view",
      "type": "function"
    },
    {
      "inputs": [
        {
          "internalType": "string",
          "name": "_bountyId",
          "type": "string"
        },
        {
          "internalType": "address",
          "name": "_issuer",
          "type": "address"
        },
        {
          "internalType": "string",
          "name": "_organization",
          "type": "string"
        },
        {
          "internalType": "address",
          "name": "_openQ",
          "type": "address"
        },
        {
          "internalType": "address",
          "name": "_claimManager",
          "type": "address"
        },
        {
          "internalType": "address",
          "name": "_depositManager",
          "type": "address"
        },
        {
          "components": [
            {
              "internalType": "uint32",
              "name": "operationType",
              "type": "uint32"
            },
            {
              "internalType": "bytes",
              "name": "data",
              "type": "bytes"
            }
          ],
          "internalType": "struct OpenQDefinitions.InitOperation",
          "name": "_operation",
          "type": "tuple"
        }
      ],
      "name": "initialize",
      "outputs": [],
      "stateMutability": "nonpayable",
      "type": "function"
    },
    {
      "inputs": [],
      "name": "invoiceable",
      "outputs": [
        {
          "internalType": "bool",
          "name": "",
          "type": "bool"
        }
      ],
      "stateMutability": "view",
      "type": "function"
    },
    {
      "inputs": [
        {
          "internalType": "bytes32",
          "name": "",
          "type": "bytes32"
        }
      ],
      "name": "isNFT",
      "outputs": [
        {
          "internalType": "bool",
          "name": "",
          "type": "bool"
        }
      ],
      "stateMutability": "view",
      "type": "function"
    },
    {
      "inputs": [],
      "name": "issuer",
      "outputs": [
        {
          "internalType": "address",
          "name": "",
          "type": "address"
        }
      ],
      "stateMutability": "view",
      "type": "function"
    },
    {
      "inputs": [],
      "name": "kycRequired",
      "outputs": [
        {
          "internalType": "bool",
          "name": "",
          "type": "bool"
        }
      ],
      "stateMutability": "view",
      "type": "function"
    },
    {
      "inputs": [],
      "name": "nftDepositLimit",
      "outputs": [
        {
          "internalType": "uint256",
          "name": "",
          "type": "uint256"
        }
      ],
      "stateMutability": "view",
      "type": "function"
    },
    {
      "inputs": [
        {
          "internalType": "uint256",
          "name": "",
          "type": "uint256"
        }
      ],
      "name": "nftDeposits",
      "outputs": [
        {
          "internalType": "bytes32",
          "name": "",
          "type": "bytes32"
        }
      ],
      "stateMutability": "view",
      "type": "function"
    },
    {
      "inputs": [
        {
          "internalType": "address",
          "name": "",
          "type": "address"
        },
        {
          "internalType": "address",
          "name": "",
          "type": "address"
        },
        {
          "internalType": "uint256",
          "name": "",
          "type": "uint256"
        },
        {
          "internalType": "bytes",
          "name": "",
          "type": "bytes"
        }
      ],
      "name": "onERC721Received",
      "outputs": [
        {
          "internalType": "bytes4",
          "name": "",
          "type": "bytes4"
        }
      ],
      "stateMutability": "nonpayable",
      "type": "function"
    },
    {
      "inputs": [],
      "name": "openQ",
      "outputs": [
        {
          "internalType": "address",
          "name": "",
          "type": "address"
        }
      ],
      "stateMutability": "view",
      "type": "function"
    },
    {
      "inputs": [],
      "name": "organization",
      "outputs": [
        {
          "internalType": "string",
          "name": "",
          "type": "string"
        }
      ],
      "stateMutability": "view",
      "type": "function"
    },
    {
      "inputs": [
        {
          "internalType": "bytes32",
          "name": "",
          "type": "bytes32"
        }
      ],
      "name": "payoutAddress",
      "outputs": [
        {
          "internalType": "address",
          "name": "",
          "type": "address"
        }
      ],
      "stateMutability": "view",
      "type": "function"
    },
    {
      "inputs": [
        {
          "internalType": "uint256",
          "name": "",
          "type": "uint256"
        }
      ],
      "name": "payoutSchedule",
      "outputs": [
        {
          "internalType": "uint256",
          "name": "",
          "type": "uint256"
        }
      ],
      "stateMutability": "view",
      "type": "function"
    },
    {
      "inputs": [],
      "name": "payoutTokenAddress",
      "outputs": [
        {
          "internalType": "address",
          "name": "",
          "type": "address"
        }
      ],
      "stateMutability": "view",
      "type": "function"
    },
    {
      "inputs": [],
      "name": "payoutVolume",
      "outputs": [
        {
          "internalType": "uint256",
          "name": "",
          "type": "uint256"
        }
      ],
      "stateMutability": "view",
      "type": "function"
    },
    {
      "inputs": [
        {
          "internalType": "address",
          "name": "_funder",
          "type": "address"
        },
        {
          "internalType": "address",
          "name": "_tokenAddress",
          "type": "address"
        },
        {
          "internalType": "uint256",
          "name": "_volume",
          "type": "uint256"
        },
        {
          "internalType": "uint256",
          "name": "_expiration",
          "type": "uint256"
        }
      ],
      "name": "receiveFunds",
      "outputs": [
        {
          "internalType": "bytes32",
          "name": "",
          "type": "bytes32"
        },
        {
          "internalType": "uint256",
          "name": "",
          "type": "uint256"
        }
      ],
      "stateMutability": "payable",
      "type": "function"
    },
    {
      "inputs": [
        {
          "internalType": "address",
          "name": "_sender",
          "type": "address"
        },
        {
          "internalType": "address",
          "name": "_tokenAddress",
          "type": "address"
        },
        {
          "internalType": "uint256",
          "name": "_tokenId",
          "type": "uint256"
        },
        {
          "internalType": "uint256",
          "name": "_expiration",
          "type": "uint256"
        },
        {
          "internalType": "uint256",
          "name": "_tier",
          "type": "uint256"
        }
      ],
      "name": "receiveNft",
      "outputs": [
        {
          "internalType": "bytes32",
          "name": "",
          "type": "bytes32"
        }
      ],
      "stateMutability": "nonpayable",
      "type": "function"
    },
    {
      "inputs": [
        {
          "internalType": "bytes32",
          "name": "_depositId",
          "type": "bytes32"
        },
        {
          "internalType": "address",
          "name": "_funder",
          "type": "address"
        },
        {
          "internalType": "uint256",
          "name": "_volume",
          "type": "uint256"
        }
      ],
      "name": "refundDeposit",
      "outputs": [],
      "stateMutability": "nonpayable",
      "type": "function"
    },
    {
      "inputs": [
        {
          "internalType": "bytes32",
          "name": "",
          "type": "bytes32"
        }
      ],
      "name": "refunded",
      "outputs": [
        {
          "internalType": "bool",
          "name": "",
          "type": "bool"
        }
      ],
      "stateMutability": "view",
      "type": "function"
    },
    {
      "inputs": [
        {
          "internalType": "address",
          "name": "_fundingToken",
          "type": "address"
        },
        {
          "internalType": "uint256",
          "name": "_fundingGoal",
          "type": "uint256"
        }
      ],
      "name": "setFundingGoal",
      "outputs": [],
      "stateMutability": "nonpayable",
      "type": "function"
    },
    {
      "inputs": [
        {
          "internalType": "bool",
          "name": "_invoiceable",
          "type": "bool"
        }
      ],
      "name": "setInvoiceable",
      "outputs": [],
      "stateMutability": "nonpayable",
      "type": "function"
    },
    {
      "inputs": [
        {
          "internalType": "bool",
          "name": "_kycRequired",
          "type": "bool"
        }
      ],
      "name": "setKycRequired",
      "outputs": [],
      "stateMutability": "nonpayable",
      "type": "function"
    },
    {
      "inputs": [
        {
          "internalType": "address",
          "name": "_payoutTokenAddress",
          "type": "address"
        },
        {
          "internalType": "uint256",
          "name": "_payoutVolume",
          "type": "uint256"
        }
      ],
      "name": "setPayout",
      "outputs": [],
      "stateMutability": "nonpayable",
      "type": "function"
    },
    {
      "inputs": [
        {
          "internalType": "uint256[]",
          "name": "_payoutSchedule",
          "type": "uint256[]"
        }
      ],
      "name": "setPayoutSchedule",
      "outputs": [],
      "stateMutability": "nonpayable",
      "type": "function"
    },
    {
      "inputs": [
        {
          "internalType": "uint256[]",
          "name": "_payoutSchedule",
          "type": "uint256[]"
        },
        {
          "internalType": "address",
          "name": "_payoutTokenAddress",
          "type": "address"
        }
      ],
      "name": "setPayoutScheduleFixed",
      "outputs": [],
      "stateMutability": "nonpayable",
      "type": "function"
    },
    {
      "inputs": [
        {
          "internalType": "uint256",
          "name": "_tier",
          "type": "uint256"
        }
      ],
      "name": "setTierClaimed",
      "outputs": [],
      "stateMutability": "nonpayable",
      "type": "function"
    },
    {
      "inputs": [],
      "name": "status",
      "outputs": [
        {
          "internalType": "uint256",
          "name": "",
          "type": "uint256"
        }
      ],
      "stateMutability": "view",
      "type": "function"
    },
    {
      "inputs": [
        {
          "internalType": "bytes32",
          "name": "",
          "type": "bytes32"
        }
      ],
      "name": "tier",
      "outputs": [
        {
          "internalType": "uint256",
          "name": "",
          "type": "uint256"
        }
      ],
      "stateMutability": "view",
      "type": "function"
    },
    {
      "inputs": [
        {
          "internalType": "uint256",
          "name": "",
          "type": "uint256"
        }
      ],
      "name": "tierClaimed",
      "outputs": [
        {
          "internalType": "bool",
          "name": "",
          "type": "bool"
        }
      ],
      "stateMutability": "view",
      "type": "function"
    },
    {
      "inputs": [
        {
          "internalType": "bytes32",
          "name": "",
          "type": "bytes32"
        }
      ],
      "name": "tokenAddress",
      "outputs": [
        {
          "internalType": "address",
          "name": "",
          "type": "address"
        }
      ],
      "stateMutability": "view",
      "type": "function"
    },
    {
      "inputs": [
        {
          "internalType": "bytes32",
          "name": "",
          "type": "bytes32"
        }
      ],
      "name": "tokenId",
      "outputs": [
        {
          "internalType": "uint256",
          "name": "",
          "type": "uint256"
        }
      ],
      "stateMutability": "view",
      "type": "function"
    },
    {
      "inputs": [
        {
          "internalType": "bytes32",
          "name": "",
          "type": "bytes32"
        }
      ],
      "name": "volume",
      "outputs": [
        {
          "internalType": "uint256",
          "name": "",
          "type": "uint256"
        }
      ],
      "stateMutability": "view",
      "type": "function"
    },
    {
      "stateMutability": "payable",
      "type": "receive"
    }
  ],
  "bytecode": "0x608060405234801561001057600080fd5b506144d6806100206000396000f3fe6080604052600436106103d25760003560e01c80637a3a0e84116101fd578063c17bd75e11610118578063e5f60947116100ab578063ee1e43e01161007a578063ee1e43e014610ca4578063ee8c24b814610cbe578063f05e0f7e14610ce0578063f232172514610d10578063fe0329c914610d3d57600080fd5b8063e5f6094714610c17578063e83963eb14610c44578063eb58c0fd14610c64578063ec9c2c3614610c8457600080fd5b8063ceff3107116100e7578063ceff310714610b8f578063d6fe0f4414610baf578063dbe6cf6a14610bd7578063e452d08b14610bf757600080fd5b8063c17bd75e14610b2f578063c5b6e70514610b44578063cb2da3db14610b59578063cb4436b714610b7957600080fd5b8063a9a36dcd11610190578063b3f23b731161015f578063b3f23b7314610aa4578063b588d22514610aba578063b969909114610ada578063b99bb99014610af957600080fd5b8063a9a36dcd14610a30578063b02c43d014610a4e578063b3b41cea14610a6e578063b3ca1f3b14610a8e57600080fd5b806397bb3ce9116101cc57806397bb3ce914610975578063995280b0146109ab5780639dcb7b8e146109c1578063a09dd1aa146109f157600080fd5b80637a3a0e84146108f45780637cb8e8e41461090a5780637dc81fa21461092a578063968b098f1461094857600080fd5b80632a120b33116102ed5780636b149d871161028057806371ec4ebf1161024f57806371ec4ebf1461087a57806377ede8a61461089a57806378065f27146108af5780637a196d0e146108d457600080fd5b80636b149d871461080d5780636c7ac9d8146108225780637044f28214610840578063714dbe461461086057600080fd5b806356406fa5116102bc57806356406fa51461075a57806359ba8344146107875780635cc04838146107bd5780636420fd93146107dd57600080fd5b80632a120b33146106d85780633aecd0e3146106fa5780633b67152b1461071a5780633f40f6361461073a57600080fd5b80631bc5fc96116103655780632338d377116103345780632338d37714610643578063235b2b941461066357806323bd4d7a146106a357806324f0cae5146106b857600080fd5b80631bc5fc96146105c05780631d143848146105e0578063200d2ed21461061857806322fa365e1461062e57600080fd5b8063150b7a02116103a1578063150b7a02146105025780631595eea414610546578063160a30a314610573578063184f1f38146105a057600080fd5b8063040e05fe146104755780630961413d146104a85780630dd81887146104be578063150909f7146104e057600080fd5b366104705760405162461bcd60e51b815260206004820152605d60248201527f43616e6e6f742073656e64204574686572206469726563746c7920746f20626f60448201527f75746e7920636f6e74726163742e20506c65617365207573652074686520426f60648201527f756e747956312e7265636569766546756e64732829206d6574686f642e000000608482015260a4015b60405180910390fd5b600080fd5b34801561048157600080fd5b506104956104903660046134ee565b610d5d565b6040519081526020015b60405180910390f35b3480156104b457600080fd5b5061049560a15481565b3480156104ca57600080fd5b506104d3610eb0565b60405161049f919061356a565b3480156104ec57600080fd5b506105006104fb36600461358b565b610f3e565b005b34801561050e57600080fd5b5061052d61051d36600461365d565b630a85bd0160e11b949350505050565b6040516001600160e01b0319909116815260200161049f565b34801561055257600080fd5b506104956105613660046136c8565b60a46020526000908152604090205481565b34801561057f57600080fd5b5061049561058e3660046136c8565b60ab6020526000908152604090205481565b3480156105ac57600080fd5b506105006105bb36600461372c565b610f8b565b3480156105cc57600080fd5b506104956105db3660046136c8565b611048565b3480156105ec57600080fd5b50609d54610600906001600160a01b031681565b6040516001600160a01b03909116815260200161049f565b34801561062457600080fd5b5061049560a05481565b34801561063a57600080fd5b50610500611069565b34801561064f57600080fd5b5061050061065e366004613782565b61115d565b34801561066f57600080fd5b5061069361067e3660046136c8565b60aa6020526000908152604090205460ff1681565b604051901515815260200161049f565b3480156106af57600080fd5b506104d361125d565b3480156106c457600080fd5b506104956106d3366004613806565b61126a565b3480156106e457600080fd5b506106ed611472565b60405161049f9190613857565b34801561070657600080fd5b5061049561071536600461389b565b6114ca565b34801561072657600080fd5b5061050061073536600461358b565b6114f5565b34801561074657600080fd5b5061050061075536600461393a565b61153b565b34801561076657600080fd5b506104956107753660046136c8565b60a96020526000908152604090205481565b34801561079357600080fd5b506106006107a23660046136c8565b60a2602052600090815260409020546001600160a01b031681565b3480156107c957600080fd5b5060b254610600906001600160a01b031681565b3480156107e957600080fd5b506106936107f83660046136c8565b60b46020526000908152604090205460ff1681565b34801561081957600080fd5b506106ed61175e565b34801561082e57600080fd5b506099546001600160a01b0316610600565b34801561084c57600080fd5b50609f54610600906001600160a01b031681565b34801561086c57600080fd5b5060ba546106939060ff1681565b34801561088657600080fd5b506105006108953660046134ee565b6117b4565b3480156108a657600080fd5b506106ed61183d565b3480156108bb57600080fd5b5060b8546106009061010090046001600160a01b031681565b3480156108e057600080fd5b506105006108ef3660046134ee565b611893565b34801561090057600080fd5b5061049560b95481565b34801561091657600080fd5b50610500610925366004613a0d565b6118ec565b34801561093657600080fd5b506097546001600160a01b0316610600565b34801561095457600080fd5b506104956109633660046136c8565b60a56020526000908152604090205481565b34801561098157600080fd5b506106006109903660046136c8565b60a3602052600090815260409020546001600160a01b031681565b3480156109b757600080fd5b50610495609b5481565b3480156109cd57600080fd5b506106936109dc3660046136c8565b60b76020526000908152604090205460ff1681565b3480156109fd57600080fd5b50610a11610a0c366004613782565b611a15565b604080516001600160a01b03909316835260208301919091520161049f565b348015610a3c57600080fd5b506098546001600160a01b0316610600565b348015610a5a57600080fd5b50610495610a693660046136c8565b611ae7565b348015610a7a57600080fd5b50610495610a89366004613a4e565b611af7565b348015610a9a57600080fd5b5061049560b15481565b348015610ab057600080fd5b5061049560b35481565b348015610ac657600080fd5b50610495610ad536600461389b565b611c64565b348015610ae657600080fd5b5060ba5461069390610100900460ff1681565b348015610b0557600080fd5b50610600610b143660046136c8565b60a7602052600090815260409020546001600160a01b031681565b348015610b3b57600080fd5b506104d3611cd8565b348015610b5057600080fd5b50610495611ce5565b348015610b6557600080fd5b50610495610b74366004613a85565b611cf7565b348015610b8557600080fd5b50610495609c5481565b348015610b9b57600080fd5b50610500610baa3660046134ee565b611d63565b610bc2610bbd366004613abe565b611dca565b6040805192835260208301919091520161049f565b348015610be357600080fd5b50610495610bf2366004613a85565b611ffb565b348015610c0357600080fd5b50610495610c123660046136c8565b6122ef565b348015610c2357600080fd5b50610495610c3236600461389b565b60b66020526000908152604090205481565b348015610c5057600080fd5b50610495610c5f366004613b04565b6122ff565b348015610c7057600080fd5b50610500610c7f366004613b32565b612512565b348015610c9057600080fd5b50610500610c9f36600461389b565b61278e565b348015610cb057600080fd5b5060b8546106939060ff1681565b348015610cca57600080fd5b50610cd3612876565b60405161049f9190613b6a565b348015610cec57600080fd5b50610693610cfb3660046136c8565b60a66020526000908152604090205460ff1681565b348015610d1c57600080fd5b50610495610d2b3660046136c8565b60a86020526000908152604090205481565b348015610d4957600080fd5b50610500610d583660046136c8565b612887565b6098546000906001600160a01b03163314610d8a5760405162461bcd60e51b815260040161046790613bab565b600260015403610dac5760405162461bcd60e51b815260040161046790613c13565b600260015560b15460408051808201909152601981527f4e4f545f415f5449455245445f46495845445f424f554e545900000000000000602082015290600314610e095760405162461bcd60e51b8152600401610467919061356a565b50600082815260b7602090815260409182902054825180840190935260148352731512515497d053149150511657d0d3105253515160621b9183019190915260ff1615610e695760405162461bcd60e51b8152600401610467919061356a565b50600060b58381548110610e7f57610e7f613c4a565b60009182526020909120015460b254909150610ea5906001600160a01b031682866128cc565b600180559392505050565b60b08054610ebd90613c60565b80601f0160208091040260200160405190810160405280929190818152602001828054610ee990613c60565b8015610f365780601f10610f0b57610100808354040283529160200191610f36565b820191906000526020600020905b815481529060010190602001808311610f1957829003601f168201915b505050505081565b6097546001600160a01b0316336001600160a01b031614610f715760405162461bcd60e51b815260040161046790613c9a565b60ba80549115156101000261ff0019909216919091179055565b6097546001600160a01b0316336001600160a01b031614610fbe5760405162461bcd60e51b815260040161046790613c9a565b60b15460408051808201909152601981527f4e4f545f415f46495845445f5449455245445f424f554e5459000000000000006020820152906003146110165760405162461bcd60e51b8152600401610467919061356a565b5061102360b58484613433565b5060b280546001600160a01b0319166001600160a01b03929092169190911790555050565b60ad818154811061105857600080fd5b600091825260209091200154905081565b6098546001600160a01b031633146110935760405162461bcd60e51b815260040161046790613bab565b60a05460408051808201909152601781527610d3d395149050d517d053149150511657d0d313d4d151604a1b602082015290156110e35760405162461bcd60e51b8152600401610467919061356a565b50600160a05542609c5560005b6110f8612876565b5181101561115a57600061110a612876565b828151811061111b5761111b613c4a565b6020026020010151905061112e816114ca565b6001600160a01b03909116600090815260b660205260409020558061115281613ce5565b9150506110f0565b50565b6098546001600160a01b031633146111875760405162461bcd60e51b815260040161046790613bab565b60a05460408051808201909152601781527610d3d395149050d517d053149150511657d0d313d4d151604a1b602082015290156111d75760405162461bcd60e51b8152600401610467919061356a565b5060408051808201909152600f81526e4e4f5f5a45524f5f4144445245535360881b60208201526001600160a01b0384166112255760405162461bcd60e51b8152600401610467919061356a565b50600160a055609f80546001600160a01b0319166001600160a01b03851617905542609c5560b0611257828483613d44565b50505050565b609e8054610ebd90613c60565b6099546000906001600160a01b031633146112975760405162461bcd60e51b815260040161046790613e04565b6002600154036112b95760405162461bcd60e51b815260040161046790613c13565b600260015560a15460ad5460408051808201909152601981527f4e46545f4445504f5349545f4c494d49545f5245414348454400000000000000602082015291116113175760405162461bcd60e51b8152600401610467919061356a565b50600083116040518060400160405280602081526020017f45585049524154494f4e5f4e4f545f475245415445525f5448414e5f5a45524f815250906113705760405162461bcd60e51b8152600401610467919061356a565b5061137c8587866128f4565b600061138661295c565b600081815260a26020908152604080832080546001600160a01b039c8d166001600160a01b03199182161790915560a3835281842080549b909c169a169990991790995560a5895287812042905560a889528781209690965560a9885286862094909455505060aa8552838320805460ff1916600190811790915560ab9095529282209290925560ac80548085019091557f0a0a1bcadd9f6a5539376fa82276e043ae3cb4499daaaf8136572ecb1f9f0d600182905560ad8054808501825591527f0440fd76b4e685d17019b0eef836cea9994650028b99dddfb48be06fa4240aa60181905590805590565b606060b58054806020026020016040519081016040528092919081815260200182805480156114c057602002820191906000526020600020905b8154815260200190600101908083116114ac575b5050505050905090565b60006001600160a01b0382166114e1575047919050565b6114ea82611c64565b92915050565b919050565b6097546001600160a01b0316336001600160a01b0316146115285760405162461bcd60e51b815260040161046790613c9a565b60ba805460ff1916911515919091179055565b600054610100900460ff161580801561155b5750600054600160ff909116105b806115755750303b158015611575575060005460ff166001145b6115d85760405162461bcd60e51b815260206004820152602e60248201527f496e697469616c697a61626c653a20636f6e747261637420697320616c72656160448201526d191e481a5b9a5d1a585b1a5e995960921b6064820152608401610467565b6000805460ff1916600117905580156115fb576000805461ff0019166101001790555b87516040805180820190915260128152711393d7d15354151657d093d553951657d25160721b6020820152906116445760405162461bcd60e51b8152600401610467919061356a565b5085516040805180820190915260158152742727afa2a6a82a2cafa7a923a0a724ad20aa24a7a760591b6020820152906116915760405162461bcd60e51b8152600401610467919061356a565b5061169a612990565b609780546001600160a01b0319166001600160a01b0387161790556116be846129c1565b6116c783612a0a565b609a6116d38982613e70565b50609d80546001600160a01b0319166001600160a01b038916179055609e6116fb8782613e70565b5042609b55600560a15561170e82612a53565b8015611754576000805461ff0019169055604051600181527f7f26b83ff96e1f2b6a682f133852f6798a09c465da95921460cefb38474024989060200160405180910390a15b5050505050505050565b606060ac8054806020026020016040519081016040528092919081815260200182805480156114c057602002820191906000526020600020908154815260200190600101908083116114ac575050505050905090565b6098546001600160a01b031633146117de5760405162461bcd60e51b815260040161046790613bab565b6002600154036118005760405162461bcd60e51b815260040161046790613c13565b6002600155600081815260a3602090815260408083205460a890925290912054611835916001600160a01b0316908490612c92565b505060018055565b606060ad8054806020026020016040519081016040528092919081815260200182805480156114c057602002820191906000526020600020908154815260200190600101908083116114ac575050505050905090565b6097546001600160a01b0316336001600160a01b0316146118c65760405162461bcd60e51b815260040161046790613c9a565b60b280546001600160a01b0319166001600160a01b03939093169290921790915560b355565b6097546001600160a01b0316336001600160a01b03161461191f5760405162461bcd60e51b815260040161046790613c9a565b60b1546040805180820190915260138152724e4f545f415f5449455245445f424f554e545960681b60208201529060021461196d5760405162461bcd60e51b8152600401610467919061356a565b506000805b828110156119b25783838281811061198c5761198c613c4a565b905060200201358261199e9190613f2f565b9150806119aa81613ce5565b915050611972565b5060408051808201909152601f81527f5041594f55545f5343484544554c455f4d5553545f4144445f544f5f31303000602082015260648214611a085760405162461bcd60e51b8152600401610467919061356a565b5061125760b58484613433565b60985460009081906001600160a01b03163314611a445760405162461bcd60e51b815260040161046790613bab565b600260015403611a665760405162461bcd60e51b815260040161046790613c13565b6002600155600080611a7a85870187613f42565b9350509250506000611a8c8383612cd0565b600081815260b460205260409020805460ff1916600117905560b25460b354919250611ac4916001600160a01b03909116908a6128cc565b505060b25460b354600180556001600160a01b0390911697909650945050505050565b60ac818154811061105857600080fd5b6098546000906001600160a01b03163314611b245760405162461bcd60e51b815260040161046790613bab565b600260015403611b465760405162461bcd60e51b815260040161046790613c13565b6002600181905560b1546040805180820190915260138152724e4f545f415f5449455245445f424f554e545960681b60208201529114611b995760405162461bcd60e51b8152600401610467919061356a565b50600083815260b7602090815260409182902054825180840190935260148352731512515497d053149150511657d0d3105253515160621b9183019190915260ff1615611bf95760405162461bcd60e51b8152600401610467919061356a565b506001600160a01b038216600090815260b6602052604081205460b58054606492919087908110611c2c57611c2c613c4a565b9060005260206000200154611c419190613fc0565b611c4b9190613fdf565b9050611c588382876128cc565b60018055949350505050565b6040516370a0823160e01b815230600482015260009082906001600160a01b038216906370a0823190602401602060405180830381865afa158015611cad573d6000803e3d6000fd5b505050506040513d601f19601f82011682018060405250810190611cd19190614001565b9392505050565b609a8054610ebd90613c60565b6000611cf160ae612d03565b51905090565b6098546000906001600160a01b03163314611d245760405162461bcd60e51b815260040161046790613bab565b600260015403611d465760405162461bcd60e51b815260040161046790613c13565b60026001556000611d56836114ca565b9050610ea58382866128cc565b6097546001600160a01b0316336001600160a01b031614611d965760405162461bcd60e51b815260040161046790613c9a565b60b95560b8805460ff196001600160a01b0390931661010002929092166001600160a81b0319909216919091176001179055565b60995460009081906001600160a01b03163314611df95760405162461bcd60e51b815260040161046790613e04565b600260015403611e1b5760405162461bcd60e51b815260040161046790613c13565b600260015560408051808201909152601081526f16915493d7d593d315535157d4d1539560821b602082015284611e655760405162461bcd60e51b8152600401610467919061356a565b50600083116040518060400160405280602081526020017f45585049524154494f4e5f4e4f545f475245415445525f5448414e5f5a45524f81525090611ebe5760405162461bcd60e51b8152600401610467919061356a565b5060a05460408051808201909152601281527110d3d395149050d517d254d7d0d313d4d15160721b60208201529015611f0a5760405162461bcd60e51b8152600401610467919061356a565b506000611f1561295c565b905060006001600160a01b038716611f2e575034611f3c565b611f39878988612d10565b90505b600082815260a26020908152604080832080546001600160a01b03808e166001600160a01b03199283161790925560a384528285208054928d169290911691909117905560a4825280832084905560a5825280832042905560a9825280832088905560aa9091528120805460ff1916905560ac805460018101825591527f0a0a1bcadd9f6a5539376fa82276e043ae3cb4499daaaf8136572ecb1f9f0d6001829055611fe960ae88612daf565b50600180559097909650945050505050565b600080839050600080826001600160a01b0316636b149d876040518163ffffffff1660e01b8152600401600060405180830381865afa158015612042573d6000803e3d6000fd5b505050506040513d6000823e601f3d908101601f1916820160405261206a919081019061403d565b905060005b81518110156122e457836001600160a01b03166356406fa583838151811061209957612099613c4a565b60200260200101516040518263ffffffff1660e01b81526004016120bf91815260200190565b602060405180830381865afa1580156120dc573d6000803e3d6000fd5b505050506040513d601f19601f820116820180604052508101906121009190614001565b846001600160a01b031663968b098f84848151811061212157612121613c4a565b60200260200101516040518263ffffffff1660e01b815260040161214791815260200190565b602060405180830381865afa158015612164573d6000803e3d6000fd5b505050506040513d601f19601f820116820180604052508101906121889190614001565b6121929190613f2f565b421080156122385750856001600160a01b0316846001600160a01b03166397bb3ce98484815181106121c6576121c6613c4a565b60200260200101516040518263ffffffff1660e01b81526004016121ec91815260200190565b602060405180830381865afa158015612209573d6000803e3d6000fd5b505050506040513d601f19601f8201168201806040525081019061222d91906140c7565b6001600160a01b0316145b156122d257836001600160a01b0316631595eea483838151811061225e5761225e613c4a565b60200260200101516040518263ffffffff1660e01b815260040161228491815260200190565b602060405180830381865afa1580156122a1573d6000803e3d6000fd5b505050506040513d601f19601f820116820180604052508101906122c59190614001565b6122cf9084613f2f565b92505b806122dc81613ce5565b91505061206f565b509095945050505050565b60b5818154811061105857600080fd5b6099546000906001600160a01b0316331461232c5760405162461bcd60e51b815260040161046790613e04565b60026001540361234e5760405162461bcd60e51b815260040161046790613c13565b600260015560a05460408051808201909152601281527110d3d395149050d517d254d7d0d313d4d15160721b6020820152901561239e5760405162461bcd60e51b8152600401610467919061356a565b50600084815260a66020908152604091829020548251808401909352601883527711115413d4d25517d053149150511657d49151955391115160421b9183019190915260ff16156124025760405162461bcd60e51b8152600401610467919061356a565b50600084815260a26020908152604091829020548251808401909352601183527021a0a62622a92fa727aa2fa32aa72222a960791b918301919091526001600160a01b038481169116146124695760405162461bcd60e51b8152600401610467919061356a565b50600084815260a9602090815260408083205460a59092529091205461248f9190613f2f565b4211156124cf57600084815260a5602052604090205483906124b190426140e4565b6124bb9190613f2f565b600085815260a960205260409020556124f9565b600084815260a960205260409020546124e9908490613f2f565b600085815260a960205260409020555b505050600090815260a960205260409020546001805590565b6099546001600160a01b0316331461253c5760405162461bcd60e51b815260040161046790613e04565b60026001540361255e5760405162461bcd60e51b815260040161046790613c13565b6002600155600083815260a66020908152604091829020548251808401909352601883527711115413d4d25517d053149150511657d49151955391115160421b9183019190915260ff16156125c65760405162461bcd60e51b8152600401610467919061356a565b50600083815260a26020908152604091829020548251808401909352601183527021a0a62622a92fa727aa2fa32aa72222a960791b918301919091526001600160a01b0384811691161461262d5760405162461bcd60e51b8152600401610467919061356a565b50600083815260a9602090815260408083205460a5909252909120546126539190613f2f565b4210156040518060400160405280601881526020017f5052454d41545552455f524546554e445f524551554553540000000000000000815250906126aa5760405162461bcd60e51b8152600401610467919061356a565b50600083815260a660209081526040808320805460ff1916600117905560a39091529020546001600160a01b031661270357600083815260a260205260409020546126fe906001600160a01b031682612dc4565b612785565b600083815260aa602052604090205460ff161561275357600083815260a3602090815260408083205460a283528184205460a89093529220546126fe926001600160a01b03908116921690612c92565b600083815260a3602090815260408083205460a290925290912054612785916001600160a01b03908116911683612dd7565b50506001805550565b6097546001600160a01b0316336001600160a01b0316146127c15760405162461bcd60e51b815260040161046790613c9a565b60a05460408051808201909152601781527610d3d395149050d517d053149150511657d0d313d4d151604a1b602082015290156128115760405162461bcd60e51b8152600401610467919061356a565b50609d5460408051808201909152601181527021a0a62622a92fa727aa2fa4a9a9aaa2a960791b6020820152906001600160a01b038381169116146128695760405162461bcd60e51b8152600401610467919061356a565b5050600160a05542609c55565b606061288260ae612d03565b905090565b6098546001600160a01b031633146128b15760405162461bcd60e51b815260040161046790613bab565b600090815260b760205260409020805460ff19166001179055565b6001600160a01b0383166128e9576128e48183612dc4565b505050565b6128e4838284612dd7565b604051632142170760e11b81526001600160a01b038381166004830152306024830152604482018390528491908216906342842e0e906064015b600060405180830381600087803b15801561294857600080fd5b505af1158015611754573d6000803e3d6000fd5b60ac5460405160009161297591609a91906020016140f7565b60405160208183030381529060405280519060200120905090565b600054610100900460ff166129b75760405162461bcd60e51b81526004016104679061418b565b6129bf612dec565b565b600054610100900460ff166129e85760405162461bcd60e51b81526004016104679061418b565b609880546001600160a01b0319166001600160a01b0392909216919091179055565b600054610100900460ff16612a315760405162461bcd60e51b81526004016104679061418b565b609980546001600160a01b0319166001600160a01b0392909216919091179055565b805163ffffffff8116612af05760008060008060008660200151806020019051810190612a8091906141d6565b600060b15560b880546001600160a81b031916861515610100600160a81b031916176101006001600160a01b03871681029190911790915560b984905560ba805461ffff191684151561ff0019161783151590920291909117905593985091965094509250905050505050505050565b60001963ffffffff821601612bb35760008060008060008060008860200151806020019051810190612b229190614241565b600160b15560b280546001600160a01b0319166001600160a01b03808a169190911790915560b387905560b880546001600160a81b031916871515610100600160a81b03191617610100928716830217905560b984905560ba805461ffff191684151561ff00191617831515909202919091179055959c50939a509198509650945092509050505050505050505050565b60011963ffffffff821601612bfd576000806000806000808760200151806020019051810190612be3919061432f565b955095509550955095509550611754868686868686612e19565b60021963ffffffff821601612c46576000806000808560200151806020019051810190612c2a91906143c3565b9350935093509350612c3e84848484612f2f565b505050505050565b60405162461bcd60e51b815260206004820152601f60248201527f4f513a20756e6b6e6f776e20696e6974206f7065726174696f6e2074797065006044820152606401610467565b5050565b604051632142170760e11b81523060048201526001600160a01b038381166024830152604482018390528491908216906342842e0e9060640161292e565b60008282604051602001612ce5929190614439565b60405160208183030381529060405280519060200120905092915050565b60606000611cd183612f91565b600080612d1c85611c64565b905084612d346001600160a01b038216863087612fed565b6000612d3f87611c64565b9050828110156040518060400160405280601a81526020017f544f4b454e5f5452414e534645525f494e5f4f564552464c4f5700000000000081525090612d995760405162461bcd60e51b8152600401610467919061356a565b50612da483826140e4565b979650505050505050565b6000611cd1836001600160a01b038416613058565b612c8e6001600160a01b038316826130a7565b826112576001600160a01b03821684846131c0565b600054610100900460ff16612e135760405162461bcd60e51b81526004016104679061418b565b60018055565b600260b1556000805b8751811015612e6457878181518110612e3d57612e3d613c4a565b602002602001015182612e509190613f2f565b915080612e5c81613ce5565b915050612e22565b5060408051808201909152601f81527f5041594f55545f5343484544554c455f4d5553545f4144445f544f5f31303000602082015260648214612eba5760405162461bcd60e51b8152600401610467919061356a565b508651612ece9060b59060208a019061347e565b505060b880546001600160a81b031916951515610100600160a81b031916959095176101006001600160a01b039590951685021790945560b99190915560ba805461ffff191691151561ff0019169190911792151590910291909117905550565b600360b1558351612f479060b590602087019061347e565b5060b280546001600160a01b039094166001600160a01b03199094169390931790925560ba80549215156101000261ff00199215159290921661ffff199093169290921717905550565b606081600001805480602002602001604051908101604052809291908181526020018280548015612fe157602002820191906000526020600020905b815481526020019060010190808311612fcd575b50505050509050919050565b6040516001600160a01b03808516602483015283166044820152606481018290526112579085906323b872dd60e01b906084015b60408051601f198184030181529190526020810180516001600160e01b03166001600160e01b0319909316929092179091526131f0565b600081815260018301602052604081205461309f575081546001818101845560008481526020808220909301849055845484825282860190935260409020919091556114ea565b5060006114ea565b804710156130f75760405162461bcd60e51b815260206004820152601d60248201527f416464726573733a20696e73756666696369656e742062616c616e63650000006044820152606401610467565b6000826001600160a01b03168260405160006040518083038185875af1925050503d8060008114613144576040519150601f19603f3d011682016040523d82523d6000602084013e613149565b606091505b50509050806128e45760405162461bcd60e51b815260206004820152603a60248201527f416464726573733a20756e61626c6520746f2073656e642076616c75652c207260448201527f6563697069656e74206d617920686176652072657665727465640000000000006064820152608401610467565b6040516001600160a01b0383166024820152604481018290526128e490849063a9059cbb60e01b90606401613021565b6000613245826040518060400160405280602081526020017f5361666545524332303a206c6f772d6c6576656c2063616c6c206661696c6564815250856001600160a01b03166132c29092919063ffffffff16565b8051909150156128e457808060200190518101906132639190614467565b6128e45760405162461bcd60e51b815260206004820152602a60248201527f5361666545524332303a204552433230206f7065726174696f6e20646964206e6044820152691bdd081cdd58d8d9595960b21b6064820152608401610467565b60606132d184846000856132d9565b949350505050565b60608247101561333a5760405162461bcd60e51b815260206004820152602660248201527f416464726573733a20696e73756666696369656e742062616c616e636520666f6044820152651c8818d85b1b60d21b6064820152608401610467565b6001600160a01b0385163b6133915760405162461bcd60e51b815260206004820152601d60248201527f416464726573733a2063616c6c20746f206e6f6e2d636f6e74726163740000006044820152606401610467565b600080866001600160a01b031685876040516133ad9190614484565b60006040518083038185875af1925050503d80600081146133ea576040519150601f19603f3d011682016040523d82523d6000602084013e6133ef565b606091505b5091509150612da482828660608315613409575081611cd1565b8251156134195782518084602001fd5b8160405162461bcd60e51b8152600401610467919061356a565b82805482825590600052602060002090810192821561346e579160200282015b8281111561346e578235825591602001919060010190613453565b5061347a9291506134b9565b5090565b82805482825590600052602060002090810192821561346e579160200282015b8281111561346e57825182559160200191906001019061349e565b5b8082111561347a57600081556001016134ba565b6001600160a01b038116811461115a57600080fd5b80356114f0816134ce565b6000806040838503121561350157600080fd5b823561350c816134ce565b946020939093013593505050565b60005b8381101561353557818101518382015260200161351d565b50506000910152565b6000815180845261355681602086016020860161351a565b601f01601f19169290920160200192915050565b602081526000611cd1602083018461353e565b801515811461115a57600080fd5b60006020828403121561359d57600080fd5b8135611cd18161357d565b634e487b7160e01b600052604160045260246000fd5b604051601f8201601f191681016001600160401b03811182821017156135e6576135e66135a8565b604052919050565b600082601f8301126135ff57600080fd5b81356001600160401b03811115613618576136186135a8565b61362b601f8201601f19166020016135be565b81815284602083860101111561364057600080fd5b816020850160208301376000918101602001919091529392505050565b6000806000806080858703121561367357600080fd5b843561367e816134ce565b9350602085013561368e816134ce565b92506040850135915060608501356001600160401b038111156136b057600080fd5b6136bc878288016135ee565b91505092959194509250565b6000602082840312156136da57600080fd5b5035919050565b60008083601f8401126136f357600080fd5b5081356001600160401b0381111561370a57600080fd5b6020830191508360208260051b850101111561372557600080fd5b9250929050565b60008060006040848603121561374157600080fd5b83356001600160401b0381111561375757600080fd5b613763868287016136e1565b9094509250506020840135613777816134ce565b809150509250925092565b60008060006040848603121561379757600080fd5b83356137a2816134ce565b925060208401356001600160401b03808211156137be57600080fd5b818601915086601f8301126137d257600080fd5b8135818111156137e157600080fd5b8760208285010111156137f357600080fd5b6020830194508093505050509250925092565b600080600080600060a0868803121561381e57600080fd5b8535613829816134ce565b94506020860135613839816134ce565b94979496505050506040830135926060810135926080909101359150565b6020808252825182820181905260009190848201906040850190845b8181101561388f57835183529284019291840191600101613873565b50909695505050505050565b6000602082840312156138ad57600080fd5b8135611cd1816134ce565b6000604082840312156138ca57600080fd5b604051604081016001600160401b0382821081831117156138ed576138ed6135a8565b816040528293508435915063ffffffff8216821461390a57600080fd5b9082526020840135908082111561392057600080fd5b5061392d858286016135ee565b6020830152505092915050565b600080600080600080600060e0888a03121561395557600080fd5b87356001600160401b038082111561396c57600080fd5b6139788b838c016135ee565b985060208a0135915061398a826134ce565b909650604089013590808211156139a057600080fd5b6139ac8b838c016135ee565b965060608a013591506139be826134ce565b8195506139cd60808b016134e3565b94506139db60a08b016134e3565b935060c08a01359150808211156139f157600080fd5b506139fe8a828b016138b8565b91505092959891949750929550565b60008060208385031215613a2057600080fd5b82356001600160401b03811115613a3657600080fd5b613a42858286016136e1565b90969095509350505050565b600080600060608486031215613a6357600080fd5b8335613a6e816134ce565b9250602084013591506040840135613777816134ce565b60008060408385031215613a9857600080fd5b8235613aa3816134ce565b91506020830135613ab3816134ce565b809150509250929050565b60008060008060808587031215613ad457600080fd5b8435613adf816134ce565b93506020850135613aef816134ce565b93969395505050506040820135916060013590565b600080600060608486031215613b1957600080fd5b83359250602084013591506040840135613777816134ce565b600080600060608486031215613b4757600080fd5b833592506020840135613b59816134ce565b929592945050506040919091013590565b6020808252825182820181905260009190848201906040850190845b8181101561388f5783516001600160a01b031683529284019291840191600101613b86565b60208082526042908201527f436c61696d4d616e616765724f776e61626c653a2063616c6c6572206973206e60408201527f6f74207468652063757272656e74204f70656e5120436c61696d204d616e616760608201526132b960f11b608082015260a00190565b6020808252601f908201527f5265656e7472616e637947756172643a207265656e7472616e742063616c6c00604082015260600190565b634e487b7160e01b600052603260045260246000fd5b600181811c90821680613c7457607f821691505b602082108103613c9457634e487b7160e01b600052602260045260246000fd5b50919050565b6020808252818101527f4d6574686f64206973206f6e6c792063616c6c61626c65206279204f70656e51604082015260600190565b634e487b7160e01b600052601160045260246000fd5b600060018201613cf757613cf7613ccf565b5060010190565b601f8211156128e457600081815260208120601f850160051c81016020861015613d255750805b601f850160051c820191505b81811015612c3e57828155600101613d31565b6001600160401b03831115613d5b57613d5b6135a8565b613d6f83613d698354613c60565b83613cfe565b6000601f841160018114613da35760008515613d8b5750838201355b600019600387901b1c1916600186901b178355613dfd565b600083815260209020601f19861690835b82811015613dd45786850135825560209485019460019092019101613db4565b5086821015613df15760001960f88860031b161c19848701351681555b505060018560011b0183555b5050505050565b60208082526046908201527f4465706f7369744d616e616765724f776e61626c653a2063616c6c657220697360408201527f206e6f74207468652063757272656e74204f70656e51204465706f736974204d60608201526530b730b3b2b960d11b608082015260a00190565b81516001600160401b03811115613e8957613e896135a8565b613e9d81613e978454613c60565b84613cfe565b602080601f831160018114613ed25760008415613eba5750858301515b600019600386901b1c1916600185901b178555612c3e565b600085815260208120601f198616915b82811015613f0157888601518255948401946001909101908401613ee2565b5085821015613f1f5787850151600019600388901b60f8161c191681555b5050505050600190811b01905550565b808201808211156114ea576114ea613ccf565b60008060008060808587031215613f5857600080fd5b8435613f63816134ce565b935060208501356001600160401b0380821115613f7f57600080fd5b613f8b888389016135ee565b945060408701359150613f9d826134ce565b90925060608601359080821115613fb357600080fd5b506136bc878288016135ee565b6000816000190483118215151615613fda57613fda613ccf565b500290565b600082613ffc57634e487b7160e01b600052601260045260246000fd5b500490565b60006020828403121561401357600080fd5b5051919050565b60006001600160401b03821115614033576140336135a8565b5060051b60200190565b6000602080838503121561405057600080fd5b82516001600160401b0381111561406657600080fd5b8301601f8101851361407757600080fd5b805161408a6140858261401a565b6135be565b81815260059190911b820183019083810190878311156140a957600080fd5b928401925b82841015612da4578351825292840192908401906140ae565b6000602082840312156140d957600080fd5b8151611cd1816134ce565b818103818111156114ea576114ea613ccf565b60408152600080845461410981613c60565b806040860152606060018084166000811461412b576001811461414557614176565b60ff1985168884015283151560051b880183019550614176565b8960005260208060002060005b8681101561416d5781548b8201870152908401908201614152565b8a018501975050505b50505050506020929092019290925292915050565b6020808252602b908201527f496e697469616c697a61626c653a20636f6e7472616374206973206e6f74206960408201526a6e697469616c697a696e6760a81b606082015260800190565b600080600080600060a086880312156141ee57600080fd5b85516141f98161357d565b602087015190955061420a816134ce565b6040870151606088015191955093506142228161357d565b60808701519092506142338161357d565b809150509295509295909350565b600080600080600080600060e0888a03121561425c57600080fd5b8751614267816134ce565b602089015160408a0151919850965061427f8161357d565b6060890151909550614290816134ce565b608089015160a08a015191955093506142a88161357d565b60c08901519092506142b98161357d565b8091505092959891949750929550565b600082601f8301126142da57600080fd5b815160206142ea6140858361401a565b82815260059290921b8401810191818101908684111561430957600080fd5b8286015b84811015614324578051835291830191830161430d565b509695505050505050565b60008060008060008060c0878903121561434857600080fd5b86516001600160401b0381111561435e57600080fd5b61436a89828a016142c9565b965050602087015161437b8161357d565b604088015190955061438c816134ce565b6060880151608089015191955093506143a48161357d565b60a08801519092506143b58161357d565b809150509295509295509295565b600080600080608085870312156143d957600080fd5b84516001600160401b038111156143ef57600080fd5b6143fb878288016142c9565b945050602085015161440c816134ce565b604086015190935061441d8161357d565b606086015190925061442e8161357d565b939692955090935050565b60408152600061444c604083018561353e565b828103602084015261445e818561353e565b95945050505050565b60006020828403121561447957600080fd5b8151611cd18161357d565b6000825161449681846020870161351a565b919091019291505056fea2646970667358221220d0b872d0eb19d9b01292e745ed0c5222421c9697b0d6f3fb60ee1b062b90e98664736f6c63430008100033",
  "linkReferences": {},
  "deployedLinkReferences": {}
}