{
  "_format": "hh-sol-artifact-1",
  "contractName": "OpenQProxy",
  "sourceName": "contracts/Proxy/OpenQProxy.sol",
  "abi": [
    {
      "inputs": [
        {
          "internalType": "address",
          "name": "_logic",
          "type": "address"
        },
        {
          "internalType": "bytes",
          "name": "_data",
          "type": "bytes"
        }
      ],
      "stateMutability": "nonpayable",
      "type": "constructor"
    },
    {
      "anonymous": false,
      "inputs": [
        {
          "indexed": false,
          "internalType": "address",
          "name": "previousAdmin",
          "type": "address"
        },
        {
          "indexed": false,
          "internalType": "address",
          "name": "newAdmin",
          "type": "address"
        }
      ],
      "name": "AdminChanged",
      "type": "event"
    },
    {
      "anonymous": false,
      "inputs": [
        {
          "indexed": true,
          "internalType": "address",
          "name": "beacon",
          "type": "address"
        }
      ],
      "name": "BeaconUpgraded",
      "type": "event"
    },
    {
      "anonymous": false,
      "inputs": [
        {
          "indexed": true,
          "internalType": "address",
          "name": "previousOwner",
          "type": "address"
        },
        {
          "indexed": true,
          "internalType": "address",
          "name": "newOwner",
          "type": "address"
        }
      ],
      "name": "OwnershipTransferred",
      "type": "event"
    },
    {
      "anonymous": false,
      "inputs": [
        {
          "indexed": true,
          "internalType": "address",
          "name": "implementation",
          "type": "address"
        }
      ],
      "name": "Upgraded",
      "type": "event"
    },
    {
      "stateMutability": "payable",
      "type": "fallback"
    },
    {
      "inputs": [
        {
          "internalType": "address",
          "name": "_bountyAddress",
          "type": "address"
        }
      ],
      "name": "bountyAddressToBountyId",
      "outputs": [
        {
          "internalType": "string",
          "name": "bountyId",
          "type": "string"
        }
      ],
      "stateMutability": "view",
      "type": "function"
    },
    {
      "inputs": [
        {
          "internalType": "string",
          "name": "_bountyId",
          "type": "string"
        }
      ],
      "name": "bountyIdToAddress",
      "outputs": [
        {
          "internalType": "address",
          "name": "bountyAddress",
          "type": "address"
        }
      ],
      "stateMutability": "view",
      "type": "function"
    },
    {
      "inputs": [
        {
          "internalType": "bytes",
          "name": "encoded",
          "type": "bytes"
        }
      ],
      "name": "hash",
      "outputs": [
        {
          "internalType": "bytes32",
          "name": "",
          "type": "bytes32"
        }
      ],
      "stateMutability": "pure",
      "type": "function"
    },
    {
      "inputs": [],
      "name": "openQStorage",
      "outputs": [
        {
          "internalType": "contract OpenQStorage",
          "name": "",
          "type": "address"
        }
      ],
      "stateMutability": "view",
      "type": "function"
    },
    {
      "inputs": [],
      "name": "owner",
      "outputs": [
        {
          "internalType": "address",
          "name": "",
          "type": "address"
        }
      ],
      "stateMutability": "view",
      "type": "function"
    },
    {
      "inputs": [],
      "name": "renounceOwnership",
      "outputs": [],
      "stateMutability": "nonpayable",
      "type": "function"
    },
    {
      "inputs": [
        {
          "internalType": "address",
          "name": "_bountyAddress",
          "type": "address"
        },
        {
          "internalType": "string",
          "name": "_bountyId",
          "type": "string"
        }
      ],
      "name": "setBountyAddressToBountyId",
      "outputs": [],
      "stateMutability": "nonpayable",
      "type": "function"
    },
    {
      "inputs": [
        {
          "internalType": "string",
          "name": "_bountyId",
          "type": "string"
        },
        {
          "internalType": "address",
          "name": "_bountyAddress",
          "type": "address"
        }
      ],
      "name": "setBountyIdToAddress",
      "outputs": [],
      "stateMutability": "nonpayable",
      "type": "function"
    },
    {
      "inputs": [
        {
          "internalType": "address",
          "name": "_openQStorage",
          "type": "address"
        }
      ],
      "name": "setOpenQStorage",
      "outputs": [],
      "stateMutability": "nonpayable",
      "type": "function"
    },
    {
      "inputs": [
        {
          "internalType": "address",
          "name": "newOwner",
          "type": "address"
        }
      ],
      "name": "transferOwnership",
      "outputs": [],
      "stateMutability": "nonpayable",
      "type": "function"
    },
    {
      "inputs": [
        {
          "internalType": "address",
          "name": "newImplementation",
          "type": "address"
        }
      ],
      "name": "upgradeTo",
      "outputs": [],
      "stateMutability": "nonpayable",
      "type": "function"
    },
    {
      "stateMutability": "payable",
      "type": "receive"
    }
  ],
  "bytecode": "0x60806040523480156200001157600080fd5b5060405162002127380380620021278339818101604052810190620000379190620006c4565b818160017f360894a13ba1a3210667c828492db98dca3e2076cc3735a920a3ca505d382bbd60001c6200006b919062000763565b60001b7f360894a13ba1a3210667c828492db98dca3e2076cc3735a920a3ca505d382bbc60001b14620000a357620000a26200079e565b5b620000b782826000620000e160201b60201c565b5050620000d9620000cd6200012460201b60201c565b6200012c60201b60201c565b5050620009e4565b620000f283620001f260201b60201c565b600082511180620001005750805b156200011f576200011d83836200024960201b620008ac1760201c565b505b505050565b600033905090565b6000600160009054906101000a900473ffffffffffffffffffffffffffffffffffffffff16905081600160006101000a81548173ffffffffffffffffffffffffffffffffffffffff021916908373ffffffffffffffffffffffffffffffffffffffff1602179055508173ffffffffffffffffffffffffffffffffffffffff168173ffffffffffffffffffffffffffffffffffffffff167f8be0079c531659141344cd1fd0a4f28419497f9722a3daafe3b4186f6b6457e060405160405180910390a35050565b62000203816200027f60201b60201c565b8073ffffffffffffffffffffffffffffffffffffffff167fbc7cd75a20ee27fd9adebab32041f755214dbc6bffa90cc0225b39da2e5c2d3b60405160405180910390a250565b606062000277838360405180606001604052806027815260200162002100602791396200035560201b60201c565b905092915050565b62000295816200043960201b620008d91760201c565b620002d7576040517f08c379a0000000000000000000000000000000000000000000000000000000008152600401620002ce9062000854565b60405180910390fd5b80620003117f360894a13ba1a3210667c828492db98dca3e2076cc3735a920a3ca505d382bbc60001b6200044c60201b620008ec1760201c565b60000160006101000a81548173ffffffffffffffffffffffffffffffffffffffff021916908373ffffffffffffffffffffffffffffffffffffffff16021790555050565b606062000368846200043960201b60201c565b620003aa576040517f08c379a0000000000000000000000000000000000000000000000000000000008152600401620003a190620008ec565b60405180910390fd5b6000808573ffffffffffffffffffffffffffffffffffffffff1685604051620003d491906200095b565b600060405180830381855af49150503d806000811462000411576040519150601f19603f3d011682016040523d82523d6000602084013e62000416565b606091505b50915091506200042e8282866200045660201b60201c565b925050509392505050565b600080823b905060008111915050919050565b6000819050919050565b606083156200046857829050620004bb565b6000835111156200047c5782518084602001fd5b816040517f08c379a0000000000000000000000000000000000000000000000000000000008152600401620004b29190620009c0565b60405180910390fd5b9392505050565b6000604051905090565b600080fd5b600080fd5b600073ffffffffffffffffffffffffffffffffffffffff82169050919050565b60006200050382620004d6565b9050919050565b6200051581620004f6565b81146200052157600080fd5b50565b60008151905062000535816200050a565b92915050565b600080fd5b600080fd5b6000601f19601f8301169050919050565b7f4e487b7100000000000000000000000000000000000000000000000000000000600052604160045260246000fd5b620005908262000545565b810181811067ffffffffffffffff82111715620005b257620005b162000556565b5b80604052505050565b6000620005c7620004c2565b9050620005d5828262000585565b919050565b600067ffffffffffffffff821115620005f857620005f762000556565b5b620006038262000545565b9050602081019050919050565b60005b838110156200063057808201518184015260208101905062000613565b8381111562000640576000848401525b50505050565b60006200065d6200065784620005da565b620005bb565b9050828152602081018484840111156200067c576200067b62000540565b5b6200068984828562000610565b509392505050565b600082601f830112620006a957620006a86200053b565b5b8151620006bb84826020860162000646565b91505092915050565b60008060408385031215620006de57620006dd620004cc565b5b6000620006ee8582860162000524565b925050602083015167ffffffffffffffff811115620007125762000711620004d1565b5b620007208582860162000691565b9150509250929050565b6000819050919050565b7f4e487b7100000000000000000000000000000000000000000000000000000000600052601160045260246000fd5b600062000770826200072a565b91506200077d836200072a565b92508282101562000793576200079262000734565b5b828203905092915050565b7f4e487b7100000000000000000000000000000000000000000000000000000000600052600160045260246000fd5b600082825260208201905092915050565b7f455243313936373a206e657720696d706c656d656e746174696f6e206973206e60008201527f6f74206120636f6e747261637400000000000000000000000000000000000000602082015250565b60006200083c602d83620007cd565b91506200084982620007de565b604082019050919050565b600060208201905081810360008301526200086f816200082d565b9050919050565b7f416464726573733a2064656c65676174652063616c6c20746f206e6f6e2d636f60008201527f6e74726163740000000000000000000000000000000000000000000000000000602082015250565b6000620008d4602683620007cd565b9150620008e18262000876565b604082019050919050565b600060208201905081810360008301526200090781620008c5565b9050919050565b600081519050919050565b600081905092915050565b600062000931826200090e565b6200093d818562000919565b93506200094f81856020860162000610565b80840191505092915050565b600062000969828462000924565b915081905092915050565b600081519050919050565b60006200098c8262000974565b620009988185620007cd565b9350620009aa81856020860162000610565b620009b58162000545565b840191505092915050565b60006020820190508181036000830152620009dc81846200097f565b905092915050565b61170c80620009f46000396000f3fe6080604052600436106100a05760003560e01c80638babb8b3116100645780638babb8b31461019e5780638da5cb5b146101c7578063aa1e84de146101f2578063ed4326b11461022f578063f2fde38b14610258578063f525849114610281576100af565b80630bc93001146100b957806310fd86c8146100e45780633659cfe61461012157806348bd1e991461014a578063715018a614610187576100af565b366100af576100ad6102aa565b005b6100b76102aa565b005b3480156100c557600080fd5b506100ce6102c4565b6040516100db9190610d0d565b60405180910390f35b3480156100f057600080fd5b5061010b60048036038101906101069190610d7a565b6102e8565b6040516101189190610e40565b60405180910390f35b34801561012d57600080fd5b5061014860048036038101906101439190610d7a565b6103cc565b005b34801561015657600080fd5b50610171600480360381019061016c9190610f97565b610454565b60405161017e9190610fef565b60405180910390f35b34801561019357600080fd5b5061019c610532565b005b3480156101aa57600080fd5b506101c560048036038101906101c0919061100a565b6105ba565b005b3480156101d357600080fd5b506101dc610678565b6040516101e99190610fef565b60405180910390f35b3480156101fe57600080fd5b5061021960048036038101906102149190611107565b6106a2565b6040516102269190611169565b60405180910390f35b34801561023b57600080fd5b5061025660048036038101906102519190611184565b6106b3565b005b34801561026457600080fd5b5061027f600480360381019061027a9190610d7a565b610771565b005b34801561028d57600080fd5b506102a860048036038101906102a39190610d7a565b610869565b005b6102b26108f6565b6102c26102bd6108f8565b610907565b565b60008054906101000a900473ffffffffffffffffffffffffffffffffffffffff1681565b60606000826040516020016102fd919061122c565b604051602081830303815290604052905060008054906101000a900473ffffffffffffffffffffffffffffffffffffffff1673ffffffffffffffffffffffffffffffffffffffff1663986e791a610353836106a2565b6040518263ffffffff1660e01b815260040161036f9190611169565b60006040518083038186803b15801561038757600080fd5b505afa15801561039b573d6000803e3d6000fd5b505050506040513d6000823e3d601f19601f820116820180604052508101906103c491906112ca565b915050919050565b6103d461092d565b73ffffffffffffffffffffffffffffffffffffffff166103f2610678565b73ffffffffffffffffffffffffffffffffffffffff1614610448576040517f08c379a000000000000000000000000000000000000000000000000000000000815260040161043f9061135f565b60405180910390fd5b61045181610935565b50565b6000808260405160200161046891906113cb565b604051602081830303815290604052905060008054906101000a900473ffffffffffffffffffffffffffffffffffffffff1673ffffffffffffffffffffffffffffffffffffffff166321f8a7216104be836106a2565b6040518263ffffffff1660e01b81526004016104da9190611169565b60206040518083038186803b1580156104f257600080fd5b505afa158015610506573d6000803e3d6000fd5b505050506040513d601f19601f8201168201806040525081019061052a9190611415565b915050919050565b61053a61092d565b73ffffffffffffffffffffffffffffffffffffffff16610558610678565b73ffffffffffffffffffffffffffffffffffffffff16146105ae576040517f08c379a00000000000000000000000000000000000000000000000000000000081526004016105a59061135f565b60405180910390fd5b6105b86000610984565b565b6000826040516020016105cd91906113cb565b604051602081830303815290604052905060008054906101000a900473ffffffffffffffffffffffffffffffffffffffff1673ffffffffffffffffffffffffffffffffffffffff1663ca446dd9610623836106a2565b846040518363ffffffff1660e01b8152600401610641929190611442565b600060405180830381600087803b15801561065b57600080fd5b505af115801561066f573d6000803e3d6000fd5b50505050505050565b6000600160009054906101000a900473ffffffffffffffffffffffffffffffffffffffff16905090565b600081805190602001209050919050565b6000826040516020016106c6919061122c565b604051602081830303815290604052905060008054906101000a900473ffffffffffffffffffffffffffffffffffffffff1673ffffffffffffffffffffffffffffffffffffffff16636e89955061071c836106a2565b846040518363ffffffff1660e01b815260040161073a92919061146b565b600060405180830381600087803b15801561075457600080fd5b505af1158015610768573d6000803e3d6000fd5b50505050505050565b61077961092d565b73ffffffffffffffffffffffffffffffffffffffff16610797610678565b73ffffffffffffffffffffffffffffffffffffffff16146107ed576040517f08c379a00000000000000000000000000000000000000000000000000000000081526004016107e49061135f565b60405180910390fd5b600073ffffffffffffffffffffffffffffffffffffffff168173ffffffffffffffffffffffffffffffffffffffff16141561085d576040517f08c379a00000000000000000000000000000000000000000000000000000000081526004016108549061150d565b60405180910390fd5b61086681610984565b50565b806000806101000a81548173ffffffffffffffffffffffffffffffffffffffff021916908373ffffffffffffffffffffffffffffffffffffffff16021790555050565b60606108d183836040518060600160405280602781526020016116b060279139610a4a565b905092915050565b600080823b905060008111915050919050565b6000819050919050565b565b6000610902610b17565b905090565b3660008037600080366000845af43d6000803e8060008114610928573d6000f35b3d6000fd5b600033905090565b61093e81610b6e565b8073ffffffffffffffffffffffffffffffffffffffff167fbc7cd75a20ee27fd9adebab32041f755214dbc6bffa90cc0225b39da2e5c2d3b60405160405180910390a250565b6000600160009054906101000a900473ffffffffffffffffffffffffffffffffffffffff16905081600160006101000a81548173ffffffffffffffffffffffffffffffffffffffff021916908373ffffffffffffffffffffffffffffffffffffffff1602179055508173ffffffffffffffffffffffffffffffffffffffff168173ffffffffffffffffffffffffffffffffffffffff167f8be0079c531659141344cd1fd0a4f28419497f9722a3daafe3b4186f6b6457e060405160405180910390a35050565b6060610a55846108d9565b610a94576040517f08c379a0000000000000000000000000000000000000000000000000000000008152600401610a8b9061159f565b60405180910390fd5b6000808573ffffffffffffffffffffffffffffffffffffffff1685604051610abc9190611606565b600060405180830381855af49150503d8060008114610af7576040519150601f19603f3d011682016040523d82523d6000602084013e610afc565b606091505b5091509150610b0c828286610c27565b925050509392505050565b6000610b457f360894a13ba1a3210667c828492db98dca3e2076cc3735a920a3ca505d382bbc60001b6108ec565b60000160009054906101000a900473ffffffffffffffffffffffffffffffffffffffff16905090565b610b77816108d9565b610bb6576040517f08c379a0000000000000000000000000000000000000000000000000000000008152600401610bad9061168f565b60405180910390fd5b80610be37f360894a13ba1a3210667c828492db98dca3e2076cc3735a920a3ca505d382bbc60001b6108ec565b60000160006101000a81548173ffffffffffffffffffffffffffffffffffffffff021916908373ffffffffffffffffffffffffffffffffffffffff16021790555050565b60608315610c3757829050610c87565b600083511115610c4a5782518084602001fd5b816040517f08c379a0000000000000000000000000000000000000000000000000000000008152600401610c7e9190610e40565b60405180910390fd5b9392505050565b600073ffffffffffffffffffffffffffffffffffffffff82169050919050565b6000819050919050565b6000610cd3610cce610cc984610c8e565b610cae565b610c8e565b9050919050565b6000610ce582610cb8565b9050919050565b6000610cf782610cda565b9050919050565b610d0781610cec565b82525050565b6000602082019050610d226000830184610cfe565b92915050565b6000604051905090565b600080fd5b600080fd5b6000610d4782610c8e565b9050919050565b610d5781610d3c565b8114610d6257600080fd5b50565b600081359050610d7481610d4e565b92915050565b600060208284031215610d9057610d8f610d32565b5b6000610d9e84828501610d65565b91505092915050565b600081519050919050565b600082825260208201905092915050565b60005b83811015610de1578082015181840152602081019050610dc6565b83811115610df0576000848401525b50505050565b6000601f19601f8301169050919050565b6000610e1282610da7565b610e1c8185610db2565b9350610e2c818560208601610dc3565b610e3581610df6565b840191505092915050565b60006020820190508181036000830152610e5a8184610e07565b905092915050565b600080fd5b600080fd5b7f4e487b7100000000000000000000000000000000000000000000000000000000600052604160045260246000fd5b610ea482610df6565b810181811067ffffffffffffffff82111715610ec357610ec2610e6c565b5b80604052505050565b6000610ed6610d28565b9050610ee28282610e9b565b919050565b600067ffffffffffffffff821115610f0257610f01610e6c565b5b610f0b82610df6565b9050602081019050919050565b82818337600083830152505050565b6000610f3a610f3584610ee7565b610ecc565b905082815260208101848484011115610f5657610f55610e67565b5b610f61848285610f18565b509392505050565b600082601f830112610f7e57610f7d610e62565b5b8135610f8e848260208601610f27565b91505092915050565b600060208284031215610fad57610fac610d32565b5b600082013567ffffffffffffffff811115610fcb57610fca610d37565b5b610fd784828501610f69565b91505092915050565b610fe981610d3c565b82525050565b60006020820190506110046000830184610fe0565b92915050565b6000806040838503121561102157611020610d32565b5b600083013567ffffffffffffffff81111561103f5761103e610d37565b5b61104b85828601610f69565b925050602061105c85828601610d65565b9150509250929050565b600067ffffffffffffffff82111561108157611080610e6c565b5b61108a82610df6565b9050602081019050919050565b60006110aa6110a584611066565b610ecc565b9050828152602081018484840111156110c6576110c5610e67565b5b6110d1848285610f18565b509392505050565b600082601f8301126110ee576110ed610e62565b5b81356110fe848260208601611097565b91505092915050565b60006020828403121561111d5761111c610d32565b5b600082013567ffffffffffffffff81111561113b5761113a610d37565b5b611147848285016110d9565b91505092915050565b6000819050919050565b61116381611150565b82525050565b600060208201905061117e600083018461115a565b92915050565b6000806040838503121561119b5761119a610d32565b5b60006111a985828601610d65565b925050602083013567ffffffffffffffff8111156111ca576111c9610d37565b5b6111d685828601610f69565b9150509250929050565b7f626f756e747941646472657373546f4964000000000000000000000000000000600082015250565b6000611216601183610db2565b9150611221826111e0565b602082019050919050565b6000604082019050818103600083015261124581611209565b90506112546020830184610fe0565b92915050565b600061126d61126884610ee7565b610ecc565b90508281526020810184848401111561128957611288610e67565b5b611294848285610dc3565b509392505050565b600082601f8301126112b1576112b0610e62565b5b81516112c184826020860161125a565b91505092915050565b6000602082840312156112e0576112df610d32565b5b600082015167ffffffffffffffff8111156112fe576112fd610d37565b5b61130a8482850161129c565b91505092915050565b7f4f776e61626c653a2063616c6c6572206973206e6f7420746865206f776e6572600082015250565b6000611349602083610db2565b915061135482611313565b602082019050919050565b600060208201905081810360008301526113788161133c565b9050919050565b7f626f756e74794964546f41646472657373000000000000000000000000000000600082015250565b60006113b5601183610db2565b91506113c08261137f565b602082019050919050565b600060408201905081810360008301526113e4816113a8565b905081810360208301526113f88184610e07565b905092915050565b60008151905061140f81610d4e565b92915050565b60006020828403121561142b5761142a610d32565b5b600061143984828501611400565b91505092915050565b6000604082019050611457600083018561115a565b6114646020830184610fe0565b9392505050565b6000604082019050611480600083018561115a565b81810360208301526114928184610e07565b90509392505050565b7f4f776e61626c653a206e6577206f776e657220697320746865207a65726f206160008201527f6464726573730000000000000000000000000000000000000000000000000000602082015250565b60006114f7602683610db2565b91506115028261149b565b604082019050919050565b60006020820190508181036000830152611526816114ea565b9050919050565b7f416464726573733a2064656c65676174652063616c6c20746f206e6f6e2d636f60008201527f6e74726163740000000000000000000000000000000000000000000000000000602082015250565b6000611589602683610db2565b91506115948261152d565b604082019050919050565b600060208201905081810360008301526115b88161157c565b9050919050565b600081519050919050565b600081905092915050565b60006115e0826115bf565b6115ea81856115ca565b93506115fa818560208601610dc3565b80840191505092915050565b600061161282846115d5565b915081905092915050565b7f455243313936373a206e657720696d706c656d656e746174696f6e206973206e60008201527f6f74206120636f6e747261637400000000000000000000000000000000000000602082015250565b6000611679602d83610db2565b91506116848261161d565b604082019050919050565b600060208201905081810360008301526116a88161166c565b905091905056fe416464726573733a206c6f772d6c6576656c2064656c65676174652063616c6c206661696c6564a26469706673582212202df60b65d9b1e406158fa09dbaaa8f4eee033c2ad54e5271c1c4af93d07faf3d64736f6c63430008080033416464726573733a206c6f772d6c6576656c2064656c65676174652063616c6c206661696c6564",
  "linkReferences": {},
  "deployedLinkReferences": {}
}