{
  "_format": "hh-sol-artifact-1",
  "contractName": "Issue",
  "sourceName": "contracts/Issue.sol",
  "abi": [
    {
      "inputs": [
        {
          "internalType": "string",
          "name": "_id",
          "type": "string"
        },
        {
          "internalType": "address[]",
          "name": "_tokenAddresses",
          "type": "address[]"
        }
      ],
      "stateMutability": "nonpayable",
      "type": "constructor"
    },
    {
      "inputs": [
        {
          "internalType": "address",
          "name": "_tokenAddress",
          "type": "address"
        }
      ],
      "name": "getERC20Balance",
      "outputs": [
        {
          "internalType": "uint256",
          "name": "balance",
          "type": "uint256"
        }
      ],
      "stateMutability": "view",
      "type": "function"
    },
    {
      "inputs": [],
      "name": "id",
      "outputs": [
        {
          "internalType": "string",
          "name": "",
          "type": "string"
        }
      ],
      "stateMutability": "view",
      "type": "function"
    },
    {
      "inputs": [],
      "name": "owner",
      "outputs": [
        {
          "internalType": "address",
          "name": "",
          "type": "address"
        }
      ],
      "stateMutability": "view",
      "type": "function"
    },
    {
      "inputs": [],
      "name": "status",
      "outputs": [
        {
          "internalType": "enum Issue.IssueStatus",
          "name": "",
          "type": "uint8"
        }
      ],
      "stateMutability": "view",
      "type": "function"
    },
    {
      "inputs": [
        {
          "internalType": "uint256",
          "name": "",
          "type": "uint256"
        }
      ],
      "name": "tokenAddresses",
      "outputs": [
        {
          "internalType": "address",
          "name": "",
          "type": "address"
        }
      ],
      "stateMutability": "view",
      "type": "function"
    },
    {
      "inputs": [
        {
          "internalType": "address",
          "name": "_payoutAddress",
          "type": "address"
        }
      ],
      "name": "transferAllERC20",
      "outputs": [],
      "stateMutability": "nonpayable",
      "type": "function"
    }
  ],
  "bytecode": "0x60806040523480156200001157600080fd5b506040516200121a3803806200121a83398181016040528101906200003791906200036e565b81600090805190602001906200004f92919062000104565b5033600160006101000a81548173ffffffffffffffffffffffffffffffffffffffff021916908373ffffffffffffffffffffffffffffffffffffffff1602179055508060029080519060200190620000a992919062000195565b506000600360006101000a81548160ff02191690836001811115620000f7577f4e487b7100000000000000000000000000000000000000000000000000000000600052602160045260246000fd5b02179055505050620005ce565b8280546200011290620004d9565b90600052602060002090601f01602090048101928262000136576000855562000182565b82601f106200015157805160ff191683800117855562000182565b8280016001018555821562000182579182015b828111156200018157825182559160200191906001019062000164565b5b50905062000191919062000224565b5090565b82805482825590600052602060002090810192821562000211579160200282015b82811115620002105782518260006101000a81548173ffffffffffffffffffffffffffffffffffffffff021916908373ffffffffffffffffffffffffffffffffffffffff16021790555091602001919060010190620001b6565b5b50905062000220919062000224565b5090565b5b808211156200023f57600081600090555060010162000225565b5090565b60006200025a62000254846200040a565b620003e1565b905080838252602082019050828560208602820111156200027a57600080fd5b60005b85811015620002ae5781620002938882620002fd565b8452602084019350602083019250506001810190506200027d565b5050509392505050565b6000620002cf620002c98462000439565b620003e1565b905082815260208101848484011115620002e857600080fd5b620002f5848285620004a3565b509392505050565b6000815190506200030e81620005b4565b92915050565b600082601f8301126200032657600080fd5b81516200033884826020860162000243565b91505092915050565b600082601f8301126200035357600080fd5b815162000365848260208601620002b8565b91505092915050565b600080604083850312156200038257600080fd5b600083015167ffffffffffffffff8111156200039d57600080fd5b620003ab8582860162000341565b925050602083015167ffffffffffffffff811115620003c957600080fd5b620003d78582860162000314565b9150509250929050565b6000620003ed62000400565b9050620003fb82826200050f565b919050565b6000604051905090565b600067ffffffffffffffff82111562000428576200042762000574565b5b602082029050602081019050919050565b600067ffffffffffffffff82111562000457576200045662000574565b5b6200046282620005a3565b9050602081019050919050565b60006200047c8262000483565b9050919050565b600073ffffffffffffffffffffffffffffffffffffffff82169050919050565b60005b83811015620004c3578082015181840152602081019050620004a6565b83811115620004d3576000848401525b50505050565b60006002820490506001821680620004f257607f821691505b6020821081141562000509576200050862000545565b5b50919050565b6200051a82620005a3565b810181811067ffffffffffffffff821117156200053c576200053b62000574565b5b80604052505050565b7f4e487b7100000000000000000000000000000000000000000000000000000000600052602260045260246000fd5b7f4e487b7100000000000000000000000000000000000000000000000000000000600052604160045260246000fd5b6000601f19601f8301169050919050565b620005bf816200046f565b8114620005cb57600080fd5b50565b610c3c80620005de6000396000f3fe608060405234801561001057600080fd5b50600436106100625760003560e01c8063200d2ed2146100675780638da5cb5b146100855780639375dd90146100a3578063af640d0f146100bf578063b588d225146100dd578063e5df8b841461010d575b600080fd5b61006f61013d565b60405161007c91906108b8565b60405180910390f35b61008d610150565b60405161009a9190610874565b60405180910390f35b6100bd60048036038101906100b891906106fb565b610176565b005b6100c761052e565b6040516100d491906108d3565b60405180910390f35b6100f760048036038101906100f291906106fb565b6105bc565b6040516101049190610935565b60405180910390f35b61012760048036038101906101229190610776565b610653565b6040516101349190610874565b60405180910390f35b600360009054906101000a900460ff1681565b600160009054906101000a900473ffffffffffffffffffffffffffffffffffffffff1681565b600160009054906101000a900473ffffffffffffffffffffffffffffffffffffffff1673ffffffffffffffffffffffffffffffffffffffff163373ffffffffffffffffffffffffffffffffffffffff1614610206576040517f08c379a00000000000000000000000000000000000000000000000000000000081526004016101fd90610915565b60405180910390fd5b60006001811115610240577f4e487b7100000000000000000000000000000000000000000000000000000000600052602160045260246000fd5b3073ffffffffffffffffffffffffffffffffffffffff1663200d2ed26040518163ffffffff1660e01b815260040160206040518083038186803b15801561028657600080fd5b505afa15801561029a573d6000803e3d6000fd5b505050506040513d601f19601f820116820180604052508101906102be919061074d565b60018111156102f6577f4e487b7100000000000000000000000000000000000000000000000000000000600052602160045260246000fd5b14610336576040517f08c379a000000000000000000000000000000000000000000000000000000000815260040161032d906108f5565b60405180910390fd5b60005b6002805490508110156104d957600060028281548110610382577f4e487b7100000000000000000000000000000000000000000000000000000000600052603260045260246000fd5b9060005260206000200160009054906101000a900473ffffffffffffffffffffffffffffffffffffffff1690508073ffffffffffffffffffffffffffffffffffffffff1663a9059cbb848373ffffffffffffffffffffffffffffffffffffffff166370a08231306040518263ffffffff1660e01b81526004016104059190610874565b60206040518083038186803b15801561041d57600080fd5b505afa158015610431573d6000803e3d6000fd5b505050506040513d601f19601f82011682018060405250810190610455919061079f565b6040518363ffffffff1660e01b815260040161047292919061088f565b602060405180830381600087803b15801561048c57600080fd5b505af11580156104a0573d6000803e3d6000fd5b505050506040513d601f19601f820116820180604052508101906104c49190610724565b505080806104d190610a3e565b915050610339565b506001600360006101000a81548160ff02191690836001811115610526577f4e487b7100000000000000000000000000000000000000000000000000000000600052602160045260246000fd5b021790555050565b6000805461053b90610a0c565b80601f016020809104026020016040519081016040528092919081815260200182805461056790610a0c565b80156105b45780601f10610589576101008083540402835291602001916105b4565b820191906000526020600020905b81548152906001019060200180831161059757829003601f168201915b505050505081565b6000808290508073ffffffffffffffffffffffffffffffffffffffff166370a08231306040518263ffffffff1660e01b81526004016105fb9190610874565b60206040518083038186803b15801561061357600080fd5b505afa158015610627573d6000803e3d6000fd5b505050506040513d601f19601f8201168201806040525081019061064b919061079f565b915050919050565b6002818154811061066357600080fd5b906000526020600020016000915054906101000a900473ffffffffffffffffffffffffffffffffffffffff1681565b6000813590506106a181610bb1565b92915050565b6000815190506106b681610bc8565b92915050565b6000815190506106cb81610bdf565b92915050565b6000813590506106e081610bef565b92915050565b6000815190506106f581610bef565b92915050565b60006020828403121561070d57600080fd5b600061071b84828501610692565b91505092915050565b60006020828403121561073657600080fd5b6000610744848285016106a7565b91505092915050565b60006020828403121561075f57600080fd5b600061076d848285016106bc565b91505092915050565b60006020828403121561078857600080fd5b6000610796848285016106d1565b91505092915050565b6000602082840312156107b157600080fd5b60006107bf848285016106e6565b91505092915050565b6107d18161096c565b82525050565b6107e0816109c7565b82525050565b60006107f182610950565b6107fb818561095b565b935061080b8185602086016109d9565b61081481610b14565b840191505092915050565b600061082c602f8361095b565b915061083782610b25565b604082019050919050565b600061084f601f8361095b565b915061085a82610b74565b602082019050919050565b61086e816109bd565b82525050565b600060208201905061088960008301846107c8565b92915050565b60006040820190506108a460008301856107c8565b6108b16020830184610865565b9392505050565b60006020820190506108cd60008301846107d7565b92915050565b600060208201905081810360008301526108ed81846107e6565b905092915050565b6000602082019050818103600083015261090e8161081f565b9050919050565b6000602082019050818103600083015261092e81610842565b9050919050565b600060208201905061094a6000830184610865565b92915050565b600081519050919050565b600082825260208201905092915050565b60006109778261099d565b9050919050565b60008115159050919050565b600081905061099882610b9d565b919050565b600073ffffffffffffffffffffffffffffffffffffffff82169050919050565b6000819050919050565b60006109d28261098a565b9050919050565b60005b838110156109f75780820151818401526020810190506109dc565b83811115610a06576000848401525b50505050565b60006002820490506001821680610a2457607f821691505b60208210811415610a3857610a37610ae5565b5b50919050565b6000610a49826109bd565b91507fffffffffffffffffffffffffffffffffffffffffffffffffffffffffffffffff821415610a7c57610a7b610a87565b5b600182019050919050565b7f4e487b7100000000000000000000000000000000000000000000000000000000600052601160045260246000fd5b7f4e487b7100000000000000000000000000000000000000000000000000000000600052602160045260246000fd5b7f4e487b7100000000000000000000000000000000000000000000000000000000600052602260045260246000fd5b6000601f19601f8301169050919050565b7f5468697320697320697373756520697320636c6f7365642e2043616e6e6f742060008201527f776974686472617720616761696e2e0000000000000000000000000000000000602082015250565b7f4f6e6c792063616c6c61626c65206279204f70656e5120636f6e747261637400600082015250565b60028110610bae57610bad610ab6565b5b50565b610bba8161096c565b8114610bc557600080fd5b50565b610bd18161097e565b8114610bdc57600080fd5b50565b60028110610bec57600080fd5b50565b610bf8816109bd565b8114610c0357600080fd5b5056fea2646970667358221220ee780906be9605f4233143e90028f76608fe5332356e2b31037390077bfeb49a64736f6c63430008040033",
  "linkReferences": {},
  "deployedLinkReferences": {}
}