{
  "_format": "hh-sol-artifact-1",
  "contractName": "Issue",
  "sourceName": "contracts/Issue.sol",
  "abi": [
    {
      "inputs": [
        {
          "internalType": "string",
          "name": "_id",
          "type": "string"
        },
        {
          "internalType": "address[]",
          "name": "_tokenAddresses",
          "type": "address[]"
        }
      ],
      "stateMutability": "nonpayable",
      "type": "constructor"
    },
    {
      "inputs": [
        {
          "internalType": "address",
          "name": "_tokenAddress",
          "type": "address"
        }
      ],
      "name": "getERC20Balance",
      "outputs": [
        {
          "internalType": "uint256",
          "name": "balance",
          "type": "uint256"
        }
      ],
      "stateMutability": "view",
      "type": "function"
    },
    {
      "inputs": [],
      "name": "id",
      "outputs": [
        {
          "internalType": "string",
          "name": "",
          "type": "string"
        }
      ],
      "stateMutability": "view",
      "type": "function"
    },
    {
      "inputs": [],
      "name": "owner",
      "outputs": [
        {
          "internalType": "address",
          "name": "",
          "type": "address"
        }
      ],
      "stateMutability": "view",
      "type": "function"
    },
    {
      "inputs": [
        {
          "internalType": "uint256",
          "name": "",
          "type": "uint256"
        }
      ],
      "name": "tokenAddresses",
      "outputs": [
        {
          "internalType": "address",
          "name": "",
          "type": "address"
        }
      ],
      "stateMutability": "view",
      "type": "function"
    },
    {
      "inputs": [
        {
          "internalType": "address",
          "name": "_payoutAddress",
          "type": "address"
        }
      ],
      "name": "transferAllERC20",
      "outputs": [],
      "stateMutability": "nonpayable",
      "type": "function"
    }
  ],
  "bytecode": "0x60806040523480156200001157600080fd5b5060405162000e9938038062000e9983398181016040528101906200003791906200031c565b81600090805190602001906200004f929190620000b2565b5033600160006101000a81548173ffffffffffffffffffffffffffffffffffffffff021916908373ffffffffffffffffffffffffffffffffffffffff1602179055508060029080519060200190620000a992919062000143565b5050506200057c565b828054620000c09062000487565b90600052602060002090601f016020900481019282620000e4576000855562000130565b82601f10620000ff57805160ff191683800117855562000130565b8280016001018555821562000130579182015b828111156200012f57825182559160200191906001019062000112565b5b5090506200013f9190620001d2565b5090565b828054828255906000526020600020908101928215620001bf579160200282015b82811115620001be5782518260006101000a81548173ffffffffffffffffffffffffffffffffffffffff021916908373ffffffffffffffffffffffffffffffffffffffff1602179055509160200191906001019062000164565b5b509050620001ce9190620001d2565b5090565b5b80821115620001ed576000816000905550600101620001d3565b5090565b6000620002086200020284620003b8565b6200038f565b905080838252602082019050828560208602820111156200022857600080fd5b60005b858110156200025c5781620002418882620002ab565b8452602084019350602083019250506001810190506200022b565b5050509392505050565b60006200027d6200027784620003e7565b6200038f565b9050828152602081018484840111156200029657600080fd5b620002a384828562000451565b509392505050565b600081519050620002bc8162000562565b92915050565b600082601f830112620002d457600080fd5b8151620002e6848260208601620001f1565b91505092915050565b600082601f8301126200030157600080fd5b81516200031384826020860162000266565b91505092915050565b600080604083850312156200033057600080fd5b600083015167ffffffffffffffff8111156200034b57600080fd5b6200035985828601620002ef565b925050602083015167ffffffffffffffff8111156200037757600080fd5b6200038585828601620002c2565b9150509250929050565b60006200039b620003ae565b9050620003a98282620004bd565b919050565b6000604051905090565b600067ffffffffffffffff821115620003d657620003d562000522565b5b602082029050602081019050919050565b600067ffffffffffffffff82111562000405576200040462000522565b5b620004108262000551565b9050602081019050919050565b60006200042a8262000431565b9050919050565b600073ffffffffffffffffffffffffffffffffffffffff82169050919050565b60005b838110156200047157808201518184015260208101905062000454565b8381111562000481576000848401525b50505050565b60006002820490506001821680620004a057607f821691505b60208210811415620004b757620004b6620004f3565b5b50919050565b620004c88262000551565b810181811067ffffffffffffffff82111715620004ea57620004e962000522565b5b80604052505050565b7f4e487b7100000000000000000000000000000000000000000000000000000000600052602260045260246000fd5b7f4e487b7100000000000000000000000000000000000000000000000000000000600052604160045260246000fd5b6000601f19601f8301169050919050565b6200056d816200041d565b81146200057957600080fd5b50565b61090d806200058c6000396000f3fe608060405234801561001057600080fd5b50600436106100575760003560e01c80638da5cb5b1461005c5780639375dd901461007a578063af640d0f14610096578063b588d225146100b4578063e5df8b84146100e4575b600080fd5b610064610114565b6040516100719190610647565b60405180910390f35b610094600480360381019061008f9190610529565b61013a565b005b61009e610371565b6040516100ab919061068b565b60405180910390f35b6100ce60048036038101906100c99190610529565b6103ff565b6040516100db91906106cd565b60405180910390f35b6100fe60048036038101906100f9919061057b565b610496565b60405161010b9190610647565b60405180910390f35b600160009054906101000a900473ffffffffffffffffffffffffffffffffffffffff1681565b600160009054906101000a900473ffffffffffffffffffffffffffffffffffffffff1673ffffffffffffffffffffffffffffffffffffffff163373ffffffffffffffffffffffffffffffffffffffff16146101ca576040517f08c379a00000000000000000000000000000000000000000000000000000000081526004016101c1906106ad565b60405180910390fd5b60005b60028054905081101561036d57600060028281548110610216577f4e487b7100000000000000000000000000000000000000000000000000000000600052603260045260246000fd5b9060005260206000200160009054906101000a900473ffffffffffffffffffffffffffffffffffffffff1690508073ffffffffffffffffffffffffffffffffffffffff1663a9059cbb848373ffffffffffffffffffffffffffffffffffffffff166370a08231306040518263ffffffff1660e01b81526004016102999190610647565b60206040518083038186803b1580156102b157600080fd5b505afa1580156102c5573d6000803e3d6000fd5b505050506040513d601f19601f820116820180604052508101906102e991906105a4565b6040518363ffffffff1660e01b8152600401610306929190610662565b602060405180830381600087803b15801561032057600080fd5b505af1158015610334573d6000803e3d6000fd5b505050506040513d601f19601f820116820180604052508101906103589190610552565b50508080610365906107b1565b9150506101cd565b5050565b6000805461037e9061077f565b80601f01602080910402602001604051908101604052809291908181526020018280546103aa9061077f565b80156103f75780601f106103cc576101008083540402835291602001916103f7565b820191906000526020600020905b8154815290600101906020018083116103da57829003601f168201915b505050505081565b6000808290508073ffffffffffffffffffffffffffffffffffffffff166370a08231306040518263ffffffff1660e01b815260040161043e9190610647565b60206040518083038186803b15801561045657600080fd5b505afa15801561046a573d6000803e3d6000fd5b505050506040513d601f19601f8201168201806040525081019061048e91906105a4565b915050919050565b600281815481106104a657600080fd5b906000526020600020016000915054906101000a900473ffffffffffffffffffffffffffffffffffffffff1681565b6000813590506104e481610892565b92915050565b6000815190506104f9816108a9565b92915050565b60008135905061050e816108c0565b92915050565b600081519050610523816108c0565b92915050565b60006020828403121561053b57600080fd5b6000610549848285016104d5565b91505092915050565b60006020828403121561056457600080fd5b6000610572848285016104ea565b91505092915050565b60006020828403121561058d57600080fd5b600061059b848285016104ff565b91505092915050565b6000602082840312156105b657600080fd5b60006105c484828501610514565b91505092915050565b6105d681610704565b82525050565b60006105e7826106e8565b6105f181856106f3565b935061060181856020860161074c565b61060a81610858565b840191505092915050565b6000610622601f836106f3565b915061062d82610869565b602082019050919050565b61064181610742565b82525050565b600060208201905061065c60008301846105cd565b92915050565b600060408201905061067760008301856105cd565b6106846020830184610638565b9392505050565b600060208201905081810360008301526106a581846105dc565b905092915050565b600060208201905081810360008301526106c681610615565b9050919050565b60006020820190506106e26000830184610638565b92915050565b600081519050919050565b600082825260208201905092915050565b600061070f82610722565b9050919050565b60008115159050919050565b600073ffffffffffffffffffffffffffffffffffffffff82169050919050565b6000819050919050565b60005b8381101561076a57808201518184015260208101905061074f565b83811115610779576000848401525b50505050565b6000600282049050600182168061079757607f821691505b602082108114156107ab576107aa610829565b5b50919050565b60006107bc82610742565b91507fffffffffffffffffffffffffffffffffffffffffffffffffffffffffffffffff8214156107ef576107ee6107fa565b5b600182019050919050565b7f4e487b7100000000000000000000000000000000000000000000000000000000600052601160045260246000fd5b7f4e487b7100000000000000000000000000000000000000000000000000000000600052602260045260246000fd5b6000601f19601f8301169050919050565b7f4f6e6c792063616c6c61626c65206279204f70656e5120636f6e747261637400600082015250565b61089b81610704565b81146108a657600080fd5b50565b6108b281610716565b81146108bd57600080fd5b50565b6108c981610742565b81146108d457600080fd5b5056fea264697066735822122003c8313aca6d946da39c8c748464056ca16f5ca7b0ad30fe7c0e42069307f13d64736f6c63430008040033",
  "linkReferences": {},
  "deployedLinkReferences": {}
}