{
  "_format": "hh-sol-artifact-1",
  "contractName": "OpenQV3",
  "sourceName": "contracts/OpenQ/Implementations/OpenQV3.sol",
  "abi": [
    {
      "inputs": [],
      "stateMutability": "nonpayable",
      "type": "constructor"
    },
    {
      "anonymous": false,
      "inputs": [
        {
          "indexed": false,
          "internalType": "address",
          "name": "previousAdmin",
          "type": "address"
        },
        {
          "indexed": false,
          "internalType": "address",
          "name": "newAdmin",
          "type": "address"
        }
      ],
      "name": "AdminChanged",
      "type": "event"
    },
    {
      "anonymous": false,
      "inputs": [
        {
          "indexed": true,
          "internalType": "address",
          "name": "beacon",
          "type": "address"
        }
      ],
      "name": "BeaconUpgraded",
      "type": "event"
    },
    {
      "anonymous": false,
      "inputs": [
        {
          "indexed": false,
          "internalType": "string",
          "name": "bountyId",
          "type": "string"
        },
        {
          "indexed": false,
          "internalType": "address",
          "name": "bountyAddress",
          "type": "address"
        },
        {
          "indexed": false,
          "internalType": "string",
          "name": "organization",
          "type": "string"
        },
        {
          "indexed": false,
          "internalType": "address",
          "name": "closer",
          "type": "address"
        },
        {
          "indexed": false,
          "internalType": "uint256",
          "name": "bountyClosedTime",
          "type": "uint256"
        },
        {
          "indexed": false,
          "internalType": "uint256",
          "name": "bountyType",
          "type": "uint256"
        },
        {
          "indexed": false,
          "internalType": "bytes",
          "name": "data",
          "type": "bytes"
        },
        {
          "indexed": false,
          "internalType": "uint256",
          "name": "version",
          "type": "uint256"
        }
      ],
      "name": "BountyClosed",
      "type": "event"
    },
    {
      "anonymous": false,
      "inputs": [
        {
          "indexed": false,
          "internalType": "string",
          "name": "bountyId",
          "type": "string"
        },
        {
          "indexed": false,
          "internalType": "string",
          "name": "organization",
          "type": "string"
        },
        {
          "indexed": false,
          "internalType": "address",
          "name": "issuerAddress",
          "type": "address"
        },
        {
          "indexed": false,
          "internalType": "address",
          "name": "bountyAddress",
          "type": "address"
        },
        {
          "indexed": false,
          "internalType": "uint256",
          "name": "bountyMintTime",
          "type": "uint256"
        },
        {
          "indexed": false,
          "internalType": "uint256",
          "name": "bountyType",
          "type": "uint256"
        },
        {
          "indexed": false,
          "internalType": "bytes",
          "name": "data",
          "type": "bytes"
        },
        {
          "indexed": false,
          "internalType": "uint256",
          "name": "version",
          "type": "uint256"
        }
      ],
      "name": "BountyCreated",
      "type": "event"
    },
    {
      "anonymous": false,
      "inputs": [
        {
          "indexed": false,
          "internalType": "uint256",
          "name": "claimTime",
          "type": "uint256"
        },
        {
          "indexed": false,
          "internalType": "uint256",
          "name": "bountyType",
          "type": "uint256"
        },
        {
          "indexed": false,
          "internalType": "bytes",
          "name": "data",
          "type": "bytes"
        },
        {
          "indexed": false,
          "internalType": "uint256",
          "name": "version",
          "type": "uint256"
        }
      ],
      "name": "ClaimSuccess",
      "type": "event"
    },
    {
      "anonymous": false,
      "inputs": [
        {
          "indexed": false,
          "internalType": "bytes32",
          "name": "depositId",
          "type": "bytes32"
        },
        {
          "indexed": false,
          "internalType": "uint256",
          "name": "newExpiration",
          "type": "uint256"
        },
        {
          "indexed": false,
          "internalType": "uint256",
          "name": "bountyType",
          "type": "uint256"
        },
        {
          "indexed": false,
          "internalType": "bytes",
          "name": "data",
          "type": "bytes"
        },
        {
          "indexed": false,
          "internalType": "uint256",
          "name": "version",
          "type": "uint256"
        }
      ],
      "name": "DepositExtended",
      "type": "event"
    },
    {
      "anonymous": false,
      "inputs": [
        {
          "indexed": false,
          "internalType": "bytes32",
          "name": "depositId",
          "type": "bytes32"
        },
        {
          "indexed": false,
          "internalType": "string",
          "name": "bountyId",
          "type": "string"
        },
        {
          "indexed": false,
          "internalType": "address",
          "name": "bountyAddress",
          "type": "address"
        },
        {
          "indexed": false,
          "internalType": "string",
          "name": "organization",
          "type": "string"
        },
        {
          "indexed": false,
          "internalType": "uint256",
          "name": "refundTime",
          "type": "uint256"
        },
        {
          "indexed": false,
          "internalType": "address",
          "name": "tokenAddress",
          "type": "address"
        },
        {
          "indexed": false,
          "internalType": "uint256",
          "name": "volume",
          "type": "uint256"
        },
        {
          "indexed": false,
          "internalType": "uint256",
          "name": "bountyType",
          "type": "uint256"
        },
        {
          "indexed": false,
          "internalType": "bytes",
          "name": "data",
          "type": "bytes"
        },
        {
          "indexed": false,
          "internalType": "uint256",
          "name": "version",
          "type": "uint256"
        }
      ],
      "name": "DepositRefunded",
      "type": "event"
    },
    {
      "anonymous": false,
      "inputs": [
        {
          "indexed": false,
          "internalType": "string",
          "name": "externalUserId",
          "type": "string"
        },
        {
          "indexed": false,
          "internalType": "address",
          "name": "newAddress",
          "type": "address"
        },
        {
          "indexed": false,
          "internalType": "bytes",
          "name": "data",
          "type": "bytes"
        },
        {
          "indexed": false,
          "internalType": "uint256",
          "name": "version",
          "type": "uint256"
        }
      ],
      "name": "ExternalUserIdAssociatedWithAddress",
      "type": "event"
    },
    {
      "anonymous": false,
      "inputs": [
        {
          "indexed": false,
          "internalType": "address",
          "name": "bountyAddress",
          "type": "address"
        },
        {
          "indexed": false,
          "internalType": "address",
          "name": "fundingGoalTokenAddress",
          "type": "address"
        },
        {
          "indexed": false,
          "internalType": "uint256",
          "name": "fundingGoalVolume",
          "type": "uint256"
        },
        {
          "indexed": false,
          "internalType": "uint256",
          "name": "bountyType",
          "type": "uint256"
        },
        {
          "indexed": false,
          "internalType": "bytes",
          "name": "data",
          "type": "bytes"
        },
        {
          "indexed": false,
          "internalType": "uint256",
          "name": "version",
          "type": "uint256"
        }
      ],
      "name": "FundingGoalSet",
      "type": "event"
    },
    {
      "anonymous": false,
      "inputs": [
        {
          "indexed": false,
          "internalType": "uint8",
          "name": "version",
          "type": "uint8"
        }
      ],
      "name": "Initialized",
      "type": "event"
    },
    {
      "anonymous": false,
      "inputs": [
        {
          "indexed": false,
          "internalType": "address",
          "name": "bountyAddress",
          "type": "address"
        },
        {
          "indexed": false,
          "internalType": "bool",
          "name": "invoiceable",
          "type": "bool"
        },
        {
          "indexed": false,
          "internalType": "bytes",
          "name": "data",
          "type": "bytes"
        },
        {
          "indexed": false,
          "internalType": "uint256",
          "name": "version",
          "type": "uint256"
        }
      ],
      "name": "InvoiceableSet",
      "type": "event"
    },
    {
      "anonymous": false,
      "inputs": [
        {
          "indexed": false,
          "internalType": "address",
          "name": "bountyAddress",
          "type": "address"
        },
        {
          "indexed": false,
          "internalType": "bool",
          "name": "kycRequired",
          "type": "bool"
        },
        {
          "indexed": false,
          "internalType": "bytes",
          "name": "data",
          "type": "bytes"
        },
        {
          "indexed": false,
          "internalType": "uint256",
          "name": "version",
          "type": "uint256"
        }
      ],
      "name": "KYCRequiredSet",
      "type": "event"
    },
    {
      "anonymous": false,
      "inputs": [
        {
          "indexed": false,
          "internalType": "string",
          "name": "bountyId",
          "type": "string"
        },
        {
          "indexed": false,
          "internalType": "address",
          "name": "bountyAddress",
          "type": "address"
        },
        {
          "indexed": false,
          "internalType": "string",
          "name": "organization",
          "type": "string"
        },
        {
          "indexed": false,
          "internalType": "address",
          "name": "closer",
          "type": "address"
        },
        {
          "indexed": false,
          "internalType": "uint256",
          "name": "payoutTime",
          "type": "uint256"
        },
        {
          "indexed": false,
          "internalType": "address",
          "name": "tokenAddress",
          "type": "address"
        },
        {
          "indexed": false,
          "internalType": "uint256",
          "name": "tokenId",
          "type": "uint256"
        },
        {
          "indexed": false,
          "internalType": "uint256",
          "name": "bountyType",
          "type": "uint256"
        },
        {
          "indexed": false,
          "internalType": "bytes",
          "name": "data",
          "type": "bytes"
        },
        {
          "indexed": false,
          "internalType": "uint256",
          "name": "version",
          "type": "uint256"
        }
      ],
      "name": "NFTClaimed",
      "type": "event"
    },
    {
      "anonymous": false,
      "inputs": [
        {
          "indexed": false,
          "internalType": "bytes32",
          "name": "depositId",
          "type": "bytes32"
        },
        {
          "indexed": false,
          "internalType": "address",
          "name": "bountyAddress",
          "type": "address"
        },
        {
          "indexed": false,
          "internalType": "string",
          "name": "bountyId",
          "type": "string"
        },
        {
          "indexed": false,
          "internalType": "string",
          "name": "organization",
          "type": "string"
        },
        {
          "indexed": false,
          "internalType": "address",
          "name": "tokenAddress",
          "type": "address"
        },
        {
          "indexed": false,
          "internalType": "uint256",
          "name": "receiveTime",
          "type": "uint256"
        },
        {
          "indexed": false,
          "internalType": "address",
          "name": "sender",
          "type": "address"
        },
        {
          "indexed": false,
          "internalType": "uint256",
          "name": "expiration",
          "type": "uint256"
        },
        {
          "indexed": false,
          "internalType": "uint256",
          "name": "tokenId",
          "type": "uint256"
        },
        {
          "indexed": false,
          "internalType": "uint256",
          "name": "bountyType",
          "type": "uint256"
        },
        {
          "indexed": false,
          "internalType": "bytes",
          "name": "data",
          "type": "bytes"
        },
        {
          "indexed": false,
          "internalType": "uint256",
          "name": "version",
          "type": "uint256"
        }
      ],
      "name": "NFTDepositReceived",
      "type": "event"
    },
    {
      "anonymous": false,
      "inputs": [
        {
          "indexed": true,
          "internalType": "address",
          "name": "previousOracle",
          "type": "address"
        },
        {
          "indexed": true,
          "internalType": "address",
          "name": "newOracle",
          "type": "address"
        }
      ],
      "name": "OracleTransferred",
      "type": "event"
    },
    {
      "anonymous": false,
      "inputs": [
        {
          "indexed": true,
          "internalType": "address",
          "name": "previousOwner",
          "type": "address"
        },
        {
          "indexed": true,
          "internalType": "address",
          "name": "newOwner",
          "type": "address"
        }
      ],
      "name": "OwnershipTransferred",
      "type": "event"
    },
    {
      "anonymous": false,
      "inputs": [
        {
          "indexed": false,
          "internalType": "address",
          "name": "bountyAddress",
          "type": "address"
        },
        {
          "indexed": false,
          "internalType": "address",
          "name": "payoutTokenAddress",
          "type": "address"
        },
        {
          "indexed": false,
          "internalType": "uint256[]",
          "name": "payoutSchedule",
          "type": "uint256[]"
        },
        {
          "indexed": false,
          "internalType": "uint256",
          "name": "bountyType",
          "type": "uint256"
        },
        {
          "indexed": false,
          "internalType": "bytes",
          "name": "data",
          "type": "bytes"
        },
        {
          "indexed": false,
          "internalType": "uint256",
          "name": "version",
          "type": "uint256"
        }
      ],
      "name": "PayoutScheduleSet",
      "type": "event"
    },
    {
      "anonymous": false,
      "inputs": [
        {
          "indexed": false,
          "internalType": "address",
          "name": "bountyAddress",
          "type": "address"
        },
        {
          "indexed": false,
          "internalType": "address",
          "name": "payoutTokenAddress",
          "type": "address"
        },
        {
          "indexed": false,
          "internalType": "uint256",
          "name": "payoutTokenVolume",
          "type": "uint256"
        },
        {
          "indexed": false,
          "internalType": "uint256",
          "name": "bountyType",
          "type": "uint256"
        },
        {
          "indexed": false,
          "internalType": "bytes",
          "name": "data",
          "type": "bytes"
        },
        {
          "indexed": false,
          "internalType": "uint256",
          "name": "version",
          "type": "uint256"
        }
      ],
      "name": "PayoutSet",
      "type": "event"
    },
    {
      "anonymous": false,
      "inputs": [
        {
          "indexed": false,
          "internalType": "address",
          "name": "bountyAddress",
          "type": "address"
        },
        {
          "indexed": false,
          "internalType": "address",
          "name": "claimant",
          "type": "address"
        },
        {
          "indexed": false,
          "internalType": "bytes",
          "name": "data",
          "type": "bytes"
        },
        {
          "indexed": false,
          "internalType": "uint256",
          "name": "version",
          "type": "uint256"
        }
      ],
      "name": "TierClaimed",
      "type": "event"
    },
    {
      "anonymous": false,
      "inputs": [
        {
          "indexed": false,
          "internalType": "string",
          "name": "bountyId",
          "type": "string"
        },
        {
          "indexed": false,
          "internalType": "address",
          "name": "bountyAddress",
          "type": "address"
        },
        {
          "indexed": false,
          "internalType": "string",
          "name": "organization",
          "type": "string"
        },
        {
          "indexed": false,
          "internalType": "address",
          "name": "closer",
          "type": "address"
        },
        {
          "indexed": false,
          "internalType": "uint256",
          "name": "payoutTime",
          "type": "uint256"
        },
        {
          "indexed": false,
          "internalType": "address",
          "name": "tokenAddress",
          "type": "address"
        },
        {
          "indexed": false,
          "internalType": "uint256",
          "name": "volume",
          "type": "uint256"
        },
        {
          "indexed": false,
          "internalType": "uint256",
          "name": "bountyType",
          "type": "uint256"
        },
        {
          "indexed": false,
          "internalType": "bytes",
          "name": "data",
          "type": "bytes"
        },
        {
          "indexed": false,
          "internalType": "uint256",
          "name": "version",
          "type": "uint256"
        }
      ],
      "name": "TokenBalanceClaimed",
      "type": "event"
    },
    {
      "anonymous": false,
      "inputs": [
        {
          "indexed": false,
          "internalType": "bytes32",
          "name": "depositId",
          "type": "bytes32"
        },
        {
          "indexed": false,
          "internalType": "address",
          "name": "bountyAddress",
          "type": "address"
        },
        {
          "indexed": false,
          "internalType": "string",
          "name": "bountyId",
          "type": "string"
        },
        {
          "indexed": false,
          "internalType": "string",
          "name": "organization",
          "type": "string"
        },
        {
          "indexed": false,
          "internalType": "address",
          "name": "tokenAddress",
          "type": "address"
        },
        {
          "indexed": false,
          "internalType": "uint256",
          "name": "receiveTime",
          "type": "uint256"
        },
        {
          "indexed": false,
          "internalType": "address",
          "name": "sender",
          "type": "address"
        },
        {
          "indexed": false,
          "internalType": "uint256",
          "name": "expiration",
          "type": "uint256"
        },
        {
          "indexed": false,
          "internalType": "uint256",
          "name": "volume",
          "type": "uint256"
        },
        {
          "indexed": false,
          "internalType": "uint256",
          "name": "bountyType",
          "type": "uint256"
        },
        {
          "indexed": false,
          "internalType": "bytes",
          "name": "data",
          "type": "bytes"
        },
        {
          "indexed": false,
          "internalType": "uint256",
          "name": "version",
          "type": "uint256"
        }
      ],
      "name": "TokenDepositReceived",
      "type": "event"
    },
    {
      "anonymous": false,
      "inputs": [
        {
          "indexed": true,
          "internalType": "address",
          "name": "implementation",
          "type": "address"
        }
      ],
      "name": "Upgraded",
      "type": "event"
    },
    {
      "inputs": [],
      "name": "VERSION_1",
      "outputs": [
        {
          "internalType": "uint256",
          "name": "",
          "type": "uint256"
        }
      ],
      "stateMutability": "view",
      "type": "function"
    },
    {
      "inputs": [],
      "name": "VERSION_2",
      "outputs": [
        {
          "internalType": "uint256",
          "name": "",
          "type": "uint256"
        }
      ],
      "stateMutability": "view",
      "type": "function"
    },
    {
      "inputs": [],
      "name": "VERSION_3",
      "outputs": [
        {
          "internalType": "uint256",
          "name": "",
          "type": "uint256"
        }
      ],
      "stateMutability": "view",
      "type": "function"
    },
    {
      "inputs": [
        {
          "internalType": "address",
          "name": "",
          "type": "address"
        }
      ],
      "name": "addressToExternalUserId",
      "outputs": [
        {
          "internalType": "string",
          "name": "",
          "type": "string"
        }
      ],
      "stateMutability": "view",
      "type": "function"
    },
    {
      "inputs": [
        {
          "internalType": "string",
          "name": "_externalUserId",
          "type": "string"
        },
        {
          "internalType": "address",
          "name": "_associatedAddress",
          "type": "address"
        }
      ],
      "name": "associateExternalIdToAddress",
      "outputs": [],
      "stateMutability": "nonpayable",
      "type": "function"
    },
    {
      "inputs": [
        {
          "internalType": "address",
          "name": "_bountyAddress",
          "type": "address"
        }
      ],
      "name": "bountyAddressToBountyId",
      "outputs": [
        {
          "internalType": "string",
          "name": "",
          "type": "string"
        }
      ],
      "stateMutability": "view",
      "type": "function"
    },
    {
      "inputs": [],
      "name": "bountyFactory",
      "outputs": [
        {
          "internalType": "contract BountyFactory",
          "name": "",
          "type": "address"
        }
      ],
      "stateMutability": "view",
      "type": "function"
    },
    {
      "inputs": [
        {
          "internalType": "string",
          "name": "",
          "type": "string"
        }
      ],
      "name": "bountyIdToAddress",
      "outputs": [
        {
          "internalType": "address",
          "name": "",
          "type": "address"
        }
      ],
      "stateMutability": "view",
      "type": "function"
    },
    {
      "inputs": [
        {
          "internalType": "string",
          "name": "_bountyId",
          "type": "string"
        }
      ],
      "name": "bountyIsOpen",
      "outputs": [
        {
          "internalType": "bool",
          "name": "",
          "type": "bool"
        }
      ],
      "stateMutability": "view",
      "type": "function"
    },
    {
      "inputs": [
        {
          "internalType": "string",
          "name": "_bountyId",
          "type": "string"
        }
      ],
      "name": "bountyType",
      "outputs": [
        {
          "internalType": "uint256",
          "name": "",
          "type": "uint256"
        }
      ],
      "stateMutability": "view",
      "type": "function"
    },
    {
      "inputs": [],
      "name": "claimManager",
      "outputs": [
        {
          "internalType": "address",
          "name": "",
          "type": "address"
        }
      ],
      "stateMutability": "view",
      "type": "function"
    },
    {
      "inputs": [
        {
          "internalType": "string",
          "name": "_bountyId",
          "type": "string"
        }
      ],
      "name": "closeOngoing",
      "outputs": [],
      "stateMutability": "nonpayable",
      "type": "function"
    },
    {
      "inputs": [],
      "name": "depositManager",
      "outputs": [
        {
          "internalType": "address",
          "name": "",
          "type": "address"
        }
      ],
      "stateMutability": "view",
      "type": "function"
    },
    {
      "inputs": [
        {
          "internalType": "string",
          "name": "",
          "type": "string"
        }
      ],
      "name": "externalUserIdToAddress",
      "outputs": [
        {
          "internalType": "address",
          "name": "",
          "type": "address"
        }
      ],
      "stateMutability": "view",
      "type": "function"
    },
    {
      "inputs": [],
      "name": "getImplementation",
      "outputs": [
        {
          "internalType": "address",
          "name": "",
          "type": "address"
        }
      ],
      "stateMutability": "view",
      "type": "function"
    },
    {
      "inputs": [],
      "name": "initialize",
      "outputs": [],
      "stateMutability": "nonpayable",
      "type": "function"
    },
    {
      "inputs": [
        {
          "internalType": "string",
          "name": "_bountyId",
          "type": "string"
        },
        {
          "internalType": "string",
          "name": "_organization",
          "type": "string"
        },
        {
          "components": [
            {
              "internalType": "uint32",
              "name": "operationType",
              "type": "uint32"
            },
            {
              "internalType": "bytes",
              "name": "data",
              "type": "bytes"
            }
          ],
          "internalType": "struct OpenQDefinitions.InitOperation",
          "name": "_initOperation",
          "type": "tuple"
        }
      ],
      "name": "mintBounty",
      "outputs": [
        {
          "internalType": "address",
          "name": "",
          "type": "address"
        }
      ],
      "stateMutability": "nonpayable",
      "type": "function"
    },
    {
      "inputs": [
        {
          "internalType": "string",
          "name": "_bountyId",
          "type": "string"
        },
        {
          "internalType": "string",
          "name": "_claimant",
          "type": "string"
        },
        {
          "internalType": "string",
          "name": "_claimantAsset",
          "type": "string"
        }
      ],
      "name": "ongoingClaimed",
      "outputs": [
        {
          "internalType": "bool",
          "name": "",
          "type": "bool"
        }
      ],
      "stateMutability": "view",
      "type": "function"
    },
    {
      "inputs": [],
      "name": "oracle",
      "outputs": [
        {
          "internalType": "address",
          "name": "",
          "type": "address"
        }
      ],
      "stateMutability": "view",
      "type": "function"
    },
    {
      "inputs": [],
      "name": "owner",
      "outputs": [
        {
          "internalType": "address",
          "name": "",
          "type": "address"
        }
      ],
      "stateMutability": "view",
      "type": "function"
    },
    {
      "inputs": [],
      "name": "proxiableUUID",
      "outputs": [
        {
          "internalType": "bytes32",
          "name": "",
          "type": "bytes32"
        }
      ],
      "stateMutability": "view",
      "type": "function"
    },
    {
      "inputs": [],
      "name": "renounceOwnership",
      "outputs": [],
      "stateMutability": "nonpayable",
      "type": "function"
    },
    {
      "inputs": [
        {
          "internalType": "address",
          "name": "_bountyFactory",
          "type": "address"
        }
      ],
      "name": "setBountyFactory",
      "outputs": [],
      "stateMutability": "nonpayable",
      "type": "function"
    },
    {
      "inputs": [
        {
          "internalType": "address",
          "name": "_claimManager",
          "type": "address"
        }
      ],
      "name": "setClaimManager",
      "outputs": [],
      "stateMutability": "nonpayable",
      "type": "function"
    },
    {
      "inputs": [
        {
          "internalType": "address",
          "name": "_depositManager",
          "type": "address"
        }
      ],
      "name": "setDepositManager",
      "outputs": [],
      "stateMutability": "nonpayable",
      "type": "function"
    },
    {
      "inputs": [
        {
          "internalType": "string",
          "name": "_bountyId",
          "type": "string"
        },
        {
          "internalType": "address",
          "name": "_fundingGoalToken",
          "type": "address"
        },
        {
          "internalType": "uint256",
          "name": "_fundingGoalVolume",
          "type": "uint256"
        }
      ],
      "name": "setFundingGoal",
      "outputs": [],
      "stateMutability": "nonpayable",
      "type": "function"
    },
    {
      "inputs": [
        {
          "internalType": "string",
          "name": "_bountyId",
          "type": "string"
        },
        {
          "internalType": "bool",
          "name": "_invoiceable",
          "type": "bool"
        }
      ],
      "name": "setInvoiceable",
      "outputs": [],
      "stateMutability": "nonpayable",
      "type": "function"
    },
    {
      "inputs": [
        {
          "internalType": "string",
          "name": "_bountyId",
          "type": "string"
        },
        {
          "internalType": "bool",
          "name": "_kycRequired",
          "type": "bool"
        }
      ],
      "name": "setKycRequired",
      "outputs": [],
      "stateMutability": "nonpayable",
      "type": "function"
    },
    {
      "inputs": [
        {
          "internalType": "string",
          "name": "_bountyId",
          "type": "string"
        },
        {
          "internalType": "address",
          "name": "_payoutToken",
          "type": "address"
        },
        {
          "internalType": "uint256",
          "name": "_payoutVolume",
          "type": "uint256"
        }
      ],
      "name": "setPayout",
      "outputs": [],
      "stateMutability": "nonpayable",
      "type": "function"
    },
    {
      "inputs": [
        {
          "internalType": "string",
          "name": "_bountyId",
          "type": "string"
        },
        {
          "internalType": "uint256[]",
          "name": "_payoutSchedule",
          "type": "uint256[]"
        }
      ],
      "name": "setPayoutSchedule",
      "outputs": [],
      "stateMutability": "nonpayable",
      "type": "function"
    },
    {
      "inputs": [
        {
          "internalType": "string",
          "name": "_bountyId",
          "type": "string"
        },
        {
          "internalType": "uint256[]",
          "name": "_payoutSchedule",
          "type": "uint256[]"
        },
        {
          "internalType": "address",
          "name": "_payoutTokenAddress",
          "type": "address"
        }
      ],
      "name": "setPayoutScheduleFixed",
      "outputs": [],
      "stateMutability": "nonpayable",
      "type": "function"
    },
    {
      "inputs": [
        {
          "internalType": "string",
          "name": "_bountyId",
          "type": "string"
        }
      ],
      "name": "solvent",
      "outputs": [
        {
          "internalType": "bool",
          "name": "",
          "type": "bool"
        }
      ],
      "stateMutability": "view",
      "type": "function"
    },
    {
      "inputs": [
        {
          "internalType": "string",
          "name": "_bountyId",
          "type": "string"
        },
        {
          "internalType": "uint256",
          "name": "_tier",
          "type": "uint256"
        }
      ],
      "name": "tierClaimed",
      "outputs": [
        {
          "internalType": "bool",
          "name": "",
          "type": "bool"
        }
      ],
      "stateMutability": "view",
      "type": "function"
    },
    {
      "inputs": [
        {
          "internalType": "address",
          "name": "_newOracle",
          "type": "address"
        }
      ],
      "name": "transferOracle",
      "outputs": [],
      "stateMutability": "nonpayable",
      "type": "function"
    },
    {
      "inputs": [
        {
          "internalType": "address",
          "name": "newOwner",
          "type": "address"
        }
      ],
      "name": "transferOwnership",
      "outputs": [],
      "stateMutability": "nonpayable",
      "type": "function"
    },
    {
      "inputs": [
        {
          "internalType": "address",
          "name": "newImplementation",
          "type": "address"
        }
      ],
      "name": "upgradeTo",
      "outputs": [],
      "stateMutability": "nonpayable",
      "type": "function"
    },
    {
      "inputs": [
        {
          "internalType": "address",
          "name": "newImplementation",
          "type": "address"
        },
        {
          "internalType": "bytes",
          "name": "data",
          "type": "bytes"
        }
      ],
      "name": "upgradeToAndCall",
      "outputs": [],
      "stateMutability": "payable",
      "type": "function"
    }
  ],
  "bytecode": "0x60a06040523060805234801561001457600080fd5b50608051613d1d6100f46000396000818161088f015281816108cf015281816109590152818161099901528181610bb401528181610bf401528181610c7e01528181610cbe01528181610f6c01528181610fac0152818161108d015281816110cd01528181611459015281816114990152818161151501528181611674015281816116b4015281816119d701528181611a1701528181611ad701528181611b1701528181611e1601528181611e56015281816122cb0152818161230b01528181612440015281816124800152818161268f01526126cf0152613d1d6000f3fe60806040526004361061021a5760003560e01c8063715018a611610123578063aaf10f42116100ab578063e73268061161006f578063e73268061461064e578063f2fde38b1461066e578063f8d7c19d1461068e578063fa4657ad146106ae578063fd1b2e3f146106ce57600080fd5b8063aaf10f42146105b9578063b6da2144146105ce578063b8f75c0b146105ee578063b91a53df1461060e578063bdc969c61461062e57600080fd5b80638ca4d584116100f25780638ca4d584146105265780638da5cb5b1461053b578063957016ed14610559578063a8bca7b814610579578063a9a36dcd1461059957600080fd5b8063715018a6146104be57806371b30d8c146104d35780637dc0d1d0146104f35780638129fc1c1461051157600080fd5b80633659cfe6116101a65780634f1ef286116101755780634f1ef2861461041457806352d1902d1461042757806357f8520c1461043c5780636c7ac9d81461045c57806371006cf41461047c57600080fd5b80633659cfe61461035b5780633948eddd1461037b5780634352dc1b146103b357806348bd1e99146103d357600080fd5b80631c70bf27116101ed5780631c70bf27146102b6578063228d71a9146102d65780632446afb4146102f657806326c20e5f14610316578063362004611461032b57600080fd5b80630681ebe51461021f5780630a5dbc311461024157806310fd86c81461026957806316a2a0cc14610296575b600080fd5b34801561022b57600080fd5b5061023f61023a366004612fce565b6106ee565b005b34801561024d57600080fd5b50610256600381565b6040519081526020015b60405180910390f35b34801561027557600080fd5b50610289610284366004613024565b610811565b6040516102609190613091565b3480156102a257600080fd5b5061023f6102b1366004613024565b610885565b3480156102c257600080fd5b5061023f6102d13660046130b2565b61094f565b3480156102e257600080fd5b5061023f6102f1366004613024565b610baa565b34801561030257600080fd5b5061023f6103113660046130b2565b610c74565b34801561032257600080fd5b50610256600181565b34801561033757600080fd5b5061034b6103463660046130fd565b610e87565b6040519015158152602001610260565b34801561036757600080fd5b5061023f610376366004613024565b610f62565b34801561038757600080fd5b5061039b610396366004613289565b61102a565b6040516001600160a01b039091168152602001610260565b3480156103bf57600080fd5b5061034b6103ce366004613368565b6112de565b3480156103df57600080fd5b5061039b6103ee3660046133a9565b805160208183018101805160fe825292820191909301209152546001600160a01b031681565b61023f6104223660046133f9565b61144f565b34801561043357600080fd5b50610256611508565b34801561044857600080fd5b50610289610457366004613024565b6115bb565b34801561046857600080fd5b5060fd5461039b906001600160a01b031681565b34801561048857600080fd5b5061039b6104973660046133a9565b8051602081830181018051610100825292820191909301209152546001600160a01b031681565b3480156104ca57600080fd5b5061023f611656565b3480156104df57600080fd5b5061023f6104ee366004613448565b61166a565b3480156104ff57600080fd5b5060ff546001600160a01b031661039b565b34801561051d57600080fd5b5061023f61190d565b34801561053257600080fd5b50610256600281565b34801561054757600080fd5b506033546001600160a01b031661039b565b34801561056557600080fd5b5061023f6105743660046134e8565b611acd565b34801561058557600080fd5b50610256610594366004613368565b611d61565b3480156105a557600080fd5b5060fc5461039b906001600160a01b031681565b3480156105c557600080fd5b5061039b611dfd565b3480156105da57600080fd5b5061023f6105e9366004613024565b611e0c565b3480156105fa57600080fd5b5060fb5461039b906001600160a01b031681565b34801561061a57600080fd5b5061023f610629366004613368565b611ed6565b34801561063a57600080fd5b5061034b610649366004613553565b61221c565b34801561065a57600080fd5b5061023f610669366004613024565b6122c1565b34801561067a57600080fd5b5061023f610689366004613024565b6123c0565b34801561069a57600080fd5b5061023f6106a9366004613448565b612436565b3480156106ba57600080fd5b5061023f6106c936600461359e565b612685565b3480156106da57600080fd5b5061034b6106e9366004613368565b61292b565b60ff546001600160a01b031633146107665760405162461bcd60e51b815260206004820152603060248201527f4f7261636c697a653a2063616c6c6572206973206e6f7420746865206375727260448201526f656e74204f70656e51204f7261636c6560801b60648201526084015b60405180910390fd5b80610100848460405161077a929190613621565b908152604080516020928190038301902080546001600160a01b0319166001600160a01b039485161790559183166000908152610101909152206107bf8385836136b9565b50604080516000815260208101918290527ff44f40bb141f723e878ef4a64f4e7cb43236fea95cd40ea55986a82a578867b791610804918691869186916003906137a2565b60405180910390a1505050565b60606000829050806001600160a01b031663c17bd75e6040518163ffffffff1660e01b8152600401600060405180830381865afa158015610856573d6000803e3d6000fd5b505050506040513d6000823e601f3d908101601f1916820160405261087e91908101906137ea565b9392505050565b6001600160a01b037f00000000000000000000000000000000000000000000000000000000000000001630036108cd5760405162461bcd60e51b815260040161075d90613857565b7f00000000000000000000000000000000000000000000000000000000000000006001600160a01b03166108ff6129c8565b6001600160a01b0316146109255760405162461bcd60e51b815260040161075d906138a3565b61092d6129e4565b60fb80546001600160a01b0319166001600160a01b0392909216919091179055565b6001600160a01b037f00000000000000000000000000000000000000000000000000000000000000001630036109975760405162461bcd60e51b815260040161075d90613857565b7f00000000000000000000000000000000000000000000000000000000000000006001600160a01b03166109c96129c8565b6001600160a01b0316146109ef5760405162461bcd60e51b815260040161075d906138a3565b600060fe8484604051610a03929190613621565b9081526040805160209281900383018120546303a2870960e31b825291516001600160a01b03909216935083928392631d1438489260048082019392918290030181865afa158015610a59573d6000803e3d6000fd5b505050506040513d601f19601f82011682018060405250810190610a7d91906138ef565b6001600160a01b0316336001600160a01b0316146040518060400160405280601181526020017021a0a62622a92fa727aa2fa4a9a9aaa2a960791b81525090610ad95760405162461bcd60e51b815260040161075d9190613091565b5060405163150909f760e01b815283151560048201526001600160a01b0382169063150909f790602401600060405180830381600087803b158015610b1d57600080fd5b505af1158015610b31573d6000803e3d6000fd5b507fee85917eaf813cc3062152b860547604cfde8f11b83ce0208af6017ed3a9f071925084915085905060005b6040519080825280601f01601f191660200182016040528015610b88576020820181803683370190505b506003604051610b9b949392919061390c565b60405180910390a15050505050565b6001600160a01b037f0000000000000000000000000000000000000000000000000000000000000000163003610bf25760405162461bcd60e51b815260040161075d90613857565b7f00000000000000000000000000000000000000000000000000000000000000006001600160a01b0316610c246129c8565b6001600160a01b031614610c4a5760405162461bcd60e51b815260040161075d906138a3565b610c526129e4565b60fd80546001600160a01b0319166001600160a01b0392909216919091179055565b6001600160a01b037f0000000000000000000000000000000000000000000000000000000000000000163003610cbc5760405162461bcd60e51b815260040161075d90613857565b7f00000000000000000000000000000000000000000000000000000000000000006001600160a01b0316610cee6129c8565b6001600160a01b031614610d145760405162461bcd60e51b815260040161075d906138a3565b600060fe8484604051610d28929190613621565b9081526040805160209281900383018120546303a2870960e31b825291516001600160a01b03909216935083928392631d1438489260048082019392918290030181865afa158015610d7e573d6000803e3d6000fd5b505050506040513d601f19601f82011682018060405250810190610da291906138ef565b6001600160a01b0316336001600160a01b0316146040518060400160405280601181526020017021a0a62622a92fa727aa2fa4a9a9aaa2a960791b81525090610dfe5760405162461bcd60e51b815260040161075d9190613091565b50604051633b67152b60e01b815283151560048201526001600160a01b03821690633b67152b90602401600060405180830381600087803b158015610e4257600080fd5b505af1158015610e56573d6000803e3d6000fd5b507f2db57cd21891e0bdeacb6659c60bb77b62fe4d902c83c21dfd05148f2389cba592508491508590506000610b5e565b60008060fe8888604051610e9c929190613621565b90815260405160209181900382018120546001600160a01b031692508291600091610ecf918a918a918a918a9101613949565b60408051601f19818403018152908290528051602090910120636420fd9360e01b82526004820181905291506000906001600160a01b03841690636420fd9390602401602060405180830381865afa158015610f2f573d6000803e3d6000fd5b505050506040513d601f19601f82011682018060405250810190610f539190613970565b9b9a5050505050505050505050565b6001600160a01b037f0000000000000000000000000000000000000000000000000000000000000000163003610faa5760405162461bcd60e51b815260040161075d90613857565b7f00000000000000000000000000000000000000000000000000000000000000006001600160a01b0316610fdc6129c8565b6001600160a01b0316146110025760405162461bcd60e51b815260040161075d906138a3565b61100b81612a3e565b6040805160008082526020820190925261102791839190612a46565b50565b6000600260c9540361107e5760405162461bcd60e51b815260206004820152601f60248201527f5265656e7472616e637947756172643a207265656e7472616e742063616c6c00604482015260640161075d565b600260c9556001600160a01b037f00000000000000000000000000000000000000000000000000000000000000001630036110cb5760405162461bcd60e51b815260040161075d90613857565b7f00000000000000000000000000000000000000000000000000000000000000006001600160a01b03166110fd6129c8565b6001600160a01b0316146111235760405162461bcd60e51b815260040161075d906138a3565b60006001600160a01b031660fe8787604051611140929190613621565b908152604080519182900360209081018320548383019092526015835274424f554e54595f414c52454144595f45584953545360581b9083015290916001600160a01b03909116146111a55760405162461bcd60e51b815260040161075d9190613091565b5060fb5460fc5460fd546040516323e95f5160e11b81526000936001600160a01b03908116936347d2bea2936111f1938d938d9333938e938e9392831692909116908d9060040161398d565b6020604051808303816000875af1158015611210573d6000803e3d6000fd5b505050506040513d601f19601f8201168201806040525081019061123491906138ef565b90508060fe8888604051611249929190613621565b90815260405190819003602001902080546001600160a01b03929092166001600160a01b03199092169190911790557f07bf14db09a3c8b7d7e240acc23ab6da8587183655a6ffcbda01ca7b026a3757878787873386426112aa8787611d61565b8b6020015160036040516112c79a99989796959493929190613a12565b60405180910390a1600160c9559695505050505050565b60008060fe84846040516112f3929190613621565b908152604080516020928190038301812054630b98090760e31b825291516001600160a01b03909216935083926000928492633aecd0e3928492635cc048389260048082019392918290030181865afa158015611354573d6000803e3d6000fd5b505050506040513d601f19601f8201168201806040525081019061137891906138ef565b6040516001600160e01b031960e084901b1681526001600160a01b039091166004820152602401602060405180830381865afa1580156113bc573d6000803e3d6000fd5b505050506040513d601f19601f820116820180604052508101906113e09190613a8d565b9050816001600160a01b031663b3f23b736040518163ffffffff1660e01b8152600401602060405180830381865afa158015611420573d6000803e3d6000fd5b505050506040513d601f19601f820116820180604052508101906114449190613a8d565b111595945050505050565b6001600160a01b037f00000000000000000000000000000000000000000000000000000000000000001630036114975760405162461bcd60e51b815260040161075d90613857565b7f00000000000000000000000000000000000000000000000000000000000000006001600160a01b03166114c96129c8565b6001600160a01b0316146114ef5760405162461bcd60e51b815260040161075d906138a3565b6114f882612a3e565b61150482826001612a46565b5050565b6000306001600160a01b037f000000000000000000000000000000000000000000000000000000000000000016146115a85760405162461bcd60e51b815260206004820152603860248201527f555550535570677261646561626c653a206d757374206e6f742062652063616c60448201527f6c6564207468726f7567682064656c656761746563616c6c0000000000000000606482015260840161075d565b50600080516020613ca183398151915290565b61010160205260009081526040902080546115d590613631565b80601f016020809104026020016040519081016040528092919081815260200182805461160190613631565b801561164e5780601f106116235761010080835404028352916020019161164e565b820191906000526020600020905b81548152906001019060200180831161163157829003601f168201915b505050505081565b61165e6129e4565b6116686000612bb6565b565b6001600160a01b037f00000000000000000000000000000000000000000000000000000000000000001630036116b25760405162461bcd60e51b815260040161075d90613857565b7f00000000000000000000000000000000000000000000000000000000000000006001600160a01b03166116e46129c8565b6001600160a01b03161461170a5760405162461bcd60e51b815260040161075d906138a3565b600060fe858560405161171e929190613621565b9081526040805160209281900383018120546303a2870960e31b825291516001600160a01b03909216935083928392631d1438489260048082019392918290030181865afa158015611774573d6000803e3d6000fd5b505050506040513d601f19601f8201168201806040525081019061179891906138ef565b6001600160a01b0316336001600160a01b0316146040518060400160405280601181526020017021a0a62622a92fa727aa2fa4a9a9aaa2a960791b815250906117f45760405162461bcd60e51b815260040161075d9190613091565b50604051633d0cb68760e11b81526001600160a01b03858116600483015260248201859052821690637a196d0e90604401600060405180830381600087803b15801561183f57600080fd5b505af1158015611853573d6000803e3d6000fd5b505050507fbb9405a972eb4ee3568c40dcd1a2c0ad2b86495f0478c68c5924d0a3773f282d828585846001600160a01b031663b3ca1f3b6040518163ffffffff1660e01b8152600401602060405180830381865afa1580156118b9573d6000803e3d6000fd5b505050506040513d601f19601f820116820180604052508101906118dd9190613a8d565b604080516000815260208101918290526118fd9594939291600390613aa6565b60405180910390a1505050505050565b600054610100900460ff161580801561192d5750600054600160ff909116105b806119475750303b158015611947575060005460ff166001145b6119aa5760405162461bcd60e51b815260206004820152602e60248201527f496e697469616c697a61626c653a20636f6e747261637420697320616c72656160448201526d191e481a5b9a5d1a585b1a5e995960921b606482015260840161075d565b6000805460ff1916600117905580156119cd576000805461ff0019166101001790555b6001600160a01b037f0000000000000000000000000000000000000000000000000000000000000000163003611a155760405162461bcd60e51b815260040161075d90613857565b7f00000000000000000000000000000000000000000000000000000000000000006001600160a01b0316611a476129c8565b6001600160a01b031614611a6d5760405162461bcd60e51b815260040161075d906138a3565b611a75612c08565b611a7d612c37565b611a85612c5e565b8015611027576000805461ff0019169055604051600181527f7f26b83ff96e1f2b6a682f133852f6798a09c465da95921460cefb38474024989060200160405180910390a150565b6001600160a01b037f0000000000000000000000000000000000000000000000000000000000000000163003611b155760405162461bcd60e51b815260040161075d90613857565b7f00000000000000000000000000000000000000000000000000000000000000006001600160a01b0316611b476129c8565b6001600160a01b031614611b6d5760405162461bcd60e51b815260040161075d906138a3565b600060fe8585604051611b81929190613621565b9081526040805160209281900383018120546303a2870960e31b825291516001600160a01b03909216935083928392631d1438489260048082019392918290030181865afa158015611bd7573d6000803e3d6000fd5b505050506040513d601f19601f82011682018060405250810190611bfb91906138ef565b6001600160a01b0316336001600160a01b0316146040518060400160405280601181526020017021a0a62622a92fa727aa2fa4a9a9aaa2a960791b81525090611c575760405162461bcd60e51b815260040161075d9190613091565b50604051631f2e3a3960e21b81526001600160a01b03821690637cb8e8e490611c869087908790600401613b25565b600060405180830381600087803b158015611ca057600080fd5b505af1158015611cb4573d6000803e3d6000fd5b505050507fc01596aef916fd836c1d861e3aa0bcabd30fa27830ebb88b76016236c942b4598260008686856001600160a01b031663b3ca1f3b6040518163ffffffff1660e01b8152600401602060405180830381865afa158015611d1c573d6000803e3d6000fd5b505050506040513d601f19601f82011682018060405250810190611d409190613a8d565b604080516000815260208101918290526118fd969594939291600390613b39565b60008060fe8484604051611d76929190613621565b9081526040805191829003602090810183205463b3ca1f3b60e01b845291516001600160a01b0390921693508392600092849263b3ca1f3b92600480820193918290030181865afa158015611dcf573d6000803e3d6000fd5b505050506040513d601f19601f82011682018060405250810190611df39190613a8d565b9695505050505050565b6000611e076129c8565b905090565b6001600160a01b037f0000000000000000000000000000000000000000000000000000000000000000163003611e545760405162461bcd60e51b815260040161075d90613857565b7f00000000000000000000000000000000000000000000000000000000000000006001600160a01b0316611e866129c8565b6001600160a01b031614611eac5760405162461bcd60e51b815260040161075d906138a3565b611eb46129e4565b60fc80546001600160a01b0319166001600160a01b0392909216919091179055565b611ee0828261292b565b6040518060400160405280601781526020017f434f4e54524143545f414c52454144595f434c4f53454400000000000000000081525090611f345760405162461bcd60e51b815260040161075d9190613091565b506001611f418383611d61565b146040518060400160405280601781526020017f4e4f545f414e5f4f4e474f494e475f434f4e545241435400000000000000000081525090611f965760405162461bcd60e51b815260040161075d9190613091565b50600060fe8383604051611fab929190613621565b9081526040805160209281900383018120546303a2870960e31b825291516001600160a01b0390921693508392631d143848926004808401938290030181865afa158015611ffd573d6000803e3d6000fd5b505050506040513d601f19601f8201168201806040525081019061202191906138ef565b6001600160a01b0316336001600160a01b0316146040518060400160405280601181526020017021a0a62622a92fa727aa2fa4a9a9aaa2a960791b8152509061207d5760405162461bcd60e51b815260040161075d9190613091565b5060405163764e161b60e11b81523360048201526001600160a01b0382169063ec9c2c3690602401600060405180830381600087803b1580156120bf57600080fd5b505af11580156120d3573d6000803e3d6000fd5b505050507fb9d76ba577270421a3b4826a02b81b7678f1d62214225408b99f94e42d78278c838360fe868660405161210c929190613621565b908152602001604051809103902060009054906101000a90046001600160a01b0316846001600160a01b03166323bd4d7a6040518163ffffffff1660e01b8152600401600060405180830381865afa15801561216c573d6000803e3d6000fd5b505050506040513d6000823e601f3d908101601f1916820160405261219491908101906137ea565b600042876001600160a01b031663b3ca1f3b6040518163ffffffff1660e01b8152600401602060405180830381865afa1580156121d5573d6000803e3d6000fd5b505050506040513d601f19601f820116820180604052508101906121f99190613a8d565b604080516000815260208101918290526108049897969594939291600390613b93565b60008060fe8585604051612231929190613621565b90815260405190819003602001812054634ee5bdc760e11b82526001600160a01b0316915081906000908290639dcb7b8e9061227590889060040190815260200190565b602060405180830381865afa158015612292573d6000803e3d6000fd5b505050506040513d601f19601f820116820180604052508101906122b69190613970565b979650505050505050565b6001600160a01b037f00000000000000000000000000000000000000000000000000000000000000001630036123095760405162461bcd60e51b815260040161075d90613857565b7f00000000000000000000000000000000000000000000000000000000000000006001600160a01b031661233b6129c8565b6001600160a01b0316146123615760405162461bcd60e51b815260040161075d906138a3565b6123696129e4565b60408051808201909152600f81526e4e4f5f5a45524f5f4144445245535360881b60208201526001600160a01b0382166123b65760405162461bcd60e51b815260040161075d9190613091565b5061102781612c8d565b6123c86129e4565b6001600160a01b03811661242d5760405162461bcd60e51b815260206004820152602660248201527f4f776e61626c653a206e6577206f776e657220697320746865207a65726f206160448201526564647265737360d01b606482015260840161075d565b61102781612bb6565b6001600160a01b037f000000000000000000000000000000000000000000000000000000000000000016300361247e5760405162461bcd60e51b815260040161075d90613857565b7f00000000000000000000000000000000000000000000000000000000000000006001600160a01b03166124b06129c8565b6001600160a01b0316146124d65760405162461bcd60e51b815260040161075d906138a3565b600060fe85856040516124ea929190613621565b9081526040805160209281900383018120546303a2870960e31b825291516001600160a01b03909216935083928392631d1438489260048082019392918290030181865afa158015612540573d6000803e3d6000fd5b505050506040513d601f19601f8201168201806040525081019061256491906138ef565b6001600160a01b0316336001600160a01b0316146040518060400160405280601181526020017021a0a62622a92fa727aa2fa4a9a9aaa2a960791b815250906125c05760405162461bcd60e51b815260040161075d9190613091565b5060405163ceff310760e01b81526001600160a01b0385811660048301526024820185905282169063ceff310790604401600060405180830381600087803b15801561260b57600080fd5b505af115801561261f573d6000803e3d6000fd5b505050507f9ebf11c1043e634700e1019f0f2f99b428b0fe7e1d5f1d1a5cb3fc74137eb957828585846001600160a01b031663b3ca1f3b6040518163ffffffff1660e01b8152600401602060405180830381865afa1580156118b9573d6000803e3d6000fd5b6001600160a01b037f00000000000000000000000000000000000000000000000000000000000000001630036126cd5760405162461bcd60e51b815260040161075d90613857565b7f00000000000000000000000000000000000000000000000000000000000000006001600160a01b03166126ff6129c8565b6001600160a01b0316146127255760405162461bcd60e51b815260040161075d906138a3565b600060fe8686604051612739929190613621565b9081526040805160209281900383018120546303a2870960e31b825291516001600160a01b03909216935083928392631d1438489260048082019392918290030181865afa15801561278f573d6000803e3d6000fd5b505050506040513d601f19601f820116820180604052508101906127b391906138ef565b6001600160a01b0316336001600160a01b0316146040518060400160405280601181526020017021a0a62622a92fa727aa2fa4a9a9aaa2a960791b8152509061280f5760405162461bcd60e51b815260040161075d9190613091565b50604051630309e3e760e31b81526001600160a01b0382169063184f1f389061284090889088908890600401613c0d565b600060405180830381600087803b15801561285a57600080fd5b505af115801561286e573d6000803e3d6000fd5b505050507fc01596aef916fd836c1d861e3aa0bcabd30fa27830ebb88b76016236c942b45982848787856001600160a01b031663b3ca1f3b6040518163ffffffff1660e01b8152600401602060405180830381865afa1580156128d5573d6000803e3d6000fd5b505050506040513d601f19601f820116820180604052508101906128f99190613a8d565b6040805160008152602081019182905261291a969594939291600390613b39565b60405180910390a150505050505050565b60008060fe8484604051612940929190613621565b908152604080516020928190038301812054631006976960e11b825291516001600160a01b03909216935083926000928392859263200d2ed2926004808401938290030181865afa158015612999573d6000803e3d6000fd5b505050506040513d601f19601f820116820180604052508101906129bd9190613a8d565b149695505050505050565b600080516020613ca1833981519152546001600160a01b031690565b6033546001600160a01b031633146116685760405162461bcd60e51b815260206004820181905260248201527f4f776e61626c653a2063616c6c6572206973206e6f7420746865206f776e6572604482015260640161075d565b6110276129e4565b7f4910fdfa16fed3260ed0e7147f7cc6da11a60208b5b9406d12a635614ffd91435460ff1615612a7e57612a7983612cdf565b505050565b826001600160a01b03166352d1902d6040518163ffffffff1660e01b8152600401602060405180830381865afa925050508015612ad8575060408051601f3d908101601f19168201909252612ad591810190613a8d565b60015b612b3b5760405162461bcd60e51b815260206004820152602e60248201527f45524331393637557067726164653a206e657720696d706c656d656e7461746960448201526d6f6e206973206e6f74205555505360901b606482015260840161075d565b600080516020613ca18339815191528114612baa5760405162461bcd60e51b815260206004820152602960248201527f45524331393637557067726164653a20756e737570706f727465642070726f786044820152681a58589b195555525160ba1b606482015260840161075d565b50612a79838383612d7b565b603380546001600160a01b038381166001600160a01b0319831681179093556040519116919082907f8be0079c531659141344cd1fd0a4f28419497f9722a3daafe3b4186f6b6457e090600090a35050565b600054610100900460ff16612c2f5760405162461bcd60e51b815260040161075d90613c39565b611668612da6565b600054610100900460ff166116685760405162461bcd60e51b815260040161075d90613c39565b600054610100900460ff16612c855760405162461bcd60e51b815260040161075d90613c39565b611668612dd6565b60ff80546001600160a01b038381166001600160a01b0319831681179093556040519116919082907f9b0948b943e24ff3413cb400b2eeae4337138739aaf31759dc6e813e8076fbc390600090a35050565b6001600160a01b0381163b612d4c5760405162461bcd60e51b815260206004820152602d60248201527f455243313936373a206e657720696d706c656d656e746174696f6e206973206e60448201526c1bdd08184818dbdb9d1c9858dd609a1b606482015260840161075d565b600080516020613ca183398151915280546001600160a01b0319166001600160a01b0392909216919091179055565b612d8483612e04565b600082511180612d915750805b15612a7957612da08383612e44565b50505050565b600054610100900460ff16612dcd5760405162461bcd60e51b815260040161075d90613c39565b61166833612bb6565b600054610100900460ff16612dfd5760405162461bcd60e51b815260040161075d90613c39565b600160c955565b612e0d81612cdf565b6040516001600160a01b038216907fbc7cd75a20ee27fd9adebab32041f755214dbc6bffa90cc0225b39da2e5c2d3b90600090a250565b60606001600160a01b0383163b612eac5760405162461bcd60e51b815260206004820152602660248201527f416464726573733a2064656c65676174652063616c6c20746f206e6f6e2d636f6044820152651b9d1c9858dd60d21b606482015260840161075d565b600080846001600160a01b031684604051612ec79190613c84565b600060405180830381855af49150503d8060008114612f02576040519150601f19603f3d011682016040523d82523d6000602084013e612f07565b606091505b5091509150612f2f8282604051806060016040528060278152602001613cc160279139612f38565b95945050505050565b60608315612f4757508161087e565b825115612f575782518084602001fd5b8160405162461bcd60e51b815260040161075d9190613091565b60008083601f840112612f8357600080fd5b5081356001600160401b03811115612f9a57600080fd5b602083019150836020828501011115612fb257600080fd5b9250929050565b6001600160a01b038116811461102757600080fd5b600080600060408486031215612fe357600080fd5b83356001600160401b03811115612ff957600080fd5b61300586828701612f71565b909450925050602084013561301981612fb9565b809150509250925092565b60006020828403121561303657600080fd5b813561087e81612fb9565b60005b8381101561305c578181015183820152602001613044565b50506000910152565b6000815180845261307d816020860160208601613041565b601f01601f19169290920160200192915050565b60208152600061087e6020830184613065565b801515811461102757600080fd5b6000806000604084860312156130c757600080fd5b83356001600160401b038111156130dd57600080fd5b6130e986828701612f71565b9094509250506020840135613019816130a4565b6000806000806000806060878903121561311657600080fd5b86356001600160401b038082111561312d57600080fd5b6131398a838b01612f71565b9098509650602089013591508082111561315257600080fd5b61315e8a838b01612f71565b9096509450604089013591508082111561317757600080fd5b5061318489828a01612f71565b979a9699509497509295939492505050565b634e487b7160e01b600052604160045260246000fd5b604080519081016001600160401b03811182821017156131ce576131ce613196565b60405290565b604051601f8201601f191681016001600160401b03811182821017156131fc576131fc613196565b604052919050565b60006001600160401b0382111561321d5761321d613196565b50601f01601f191660200190565b600061323e61323984613204565b6131d4565b905082815283838301111561325257600080fd5b828260208301376000602084830101529392505050565b600082601f83011261327a57600080fd5b61087e8383356020850161322b565b6000806000806000606086880312156132a157600080fd5b85356001600160401b03808211156132b857600080fd5b6132c489838a01612f71565b909750955060208801359150808211156132dd57600080fd5b6132e989838a01612f71565b9095509350604088013591508082111561330257600080fd5b908701906040828a03121561331657600080fd5b61331e6131ac565b823563ffffffff8116811461333257600080fd5b815260208301358281111561334657600080fd5b6133528b828601613269565b6020830152508093505050509295509295909350565b6000806020838503121561337b57600080fd5b82356001600160401b0381111561339157600080fd5b61339d85828601612f71565b90969095509350505050565b6000602082840312156133bb57600080fd5b81356001600160401b038111156133d157600080fd5b8201601f810184136133e257600080fd5b6133f18482356020840161322b565b949350505050565b6000806040838503121561340c57600080fd5b823561341781612fb9565b915060208301356001600160401b0381111561343257600080fd5b61343e85828601613269565b9150509250929050565b6000806000806060858703121561345e57600080fd5b84356001600160401b0381111561347457600080fd5b61348087828801612f71565b909550935050602085013561349481612fb9565b9396929550929360400135925050565b60008083601f8401126134b657600080fd5b5081356001600160401b038111156134cd57600080fd5b6020830191508360208260051b8501011115612fb257600080fd5b600080600080604085870312156134fe57600080fd5b84356001600160401b038082111561351557600080fd5b61352188838901612f71565b9096509450602087013591508082111561353a57600080fd5b50613547878288016134a4565b95989497509550505050565b60008060006040848603121561356857600080fd5b83356001600160401b0381111561357e57600080fd5b61358a86828701612f71565b909790965060209590950135949350505050565b6000806000806000606086880312156135b657600080fd5b85356001600160401b03808211156135cd57600080fd5b6135d989838a01612f71565b909750955060208801359150808211156135f257600080fd5b506135ff888289016134a4565b909450925050604086013561361381612fb9565b809150509295509295909350565b8183823760009101908152919050565b600181811c9082168061364557607f821691505b60208210810361366557634e487b7160e01b600052602260045260246000fd5b50919050565b601f821115612a7957600081815260208120601f850160051c810160208610156136925750805b601f850160051c820191505b818110156136b15782815560010161369e565b505050505050565b6001600160401b038311156136d0576136d0613196565b6136e4836136de8354613631565b8361366b565b6000601f84116001811461371857600085156137005750838201355b600019600387901b1c1916600186901b178355613772565b600083815260209020601f19861690835b828110156137495786850135825560209485019460019092019101613729565b50868210156137665760001960f88860031b161c19848701351681555b505060018560011b0183555b5050505050565b81835281816020850137506000828201602090810191909152601f909101601f19169091010190565b6080815260006137b6608083018789613779565b6001600160a01b038616602084015282810360408401526137d78186613065565b9150508260608301529695505050505050565b6000602082840312156137fc57600080fd5b81516001600160401b0381111561381257600080fd5b8201601f8101841361382357600080fd5b805161383161323982613204565b81815285602083850101111561384657600080fd5b612f2f826020830160208601613041565b6020808252602c908201527f46756e6374696f6e206d7573742062652063616c6c6564207468726f7567682060408201526b19195b1959d85d1958d85b1b60a21b606082015260800190565b6020808252602c908201527f46756e6374696f6e206d7573742062652063616c6c6564207468726f7567682060408201526b6163746976652070726f787960a01b606082015260800190565b60006020828403121561390157600080fd5b815161087e81612fb9565b6001600160a01b0385168152831515602082015260806040820181905260009061393890830185613065565b905082606083015295945050505050565b60408152600061395d604083018688613779565b82810360208401526122b6818587613779565b60006020828403121561398257600080fd5b815161087e816130a4565b60c0815260006139a160c083018a8c613779565b6001600160a01b03898116602085015283820360408501526139c482898b613779565b9150808716606085015280861660808501525082810360a084015263ffffffff8451168152602084015160406020830152613a026040830182613065565b9c9b505050505050505050505050565b6000610100808352613a278184018d8f613779565b90508281036020840152613a3c818b8d613779565b6001600160a01b038a81166040860152891660608501526080840188905260a0840187905283810360c08501529050613a758186613065565b9150508260e08301529b9a5050505050505050505050565b600060208284031215613a9f57600080fd5b5051919050565b6001600160a01b03878116825286166020820152604081018590526060810184905260c060808201819052600090613ae090830185613065565b90508260a0830152979650505050505050565b81835260006001600160fb1b03831115613b0c57600080fd5b8260051b80836020870137939093016020019392505050565b6020815260006133f1602083018486613af3565b6001600160a01b0388811682528716602082015260c060408201819052600090613b669083018789613af3565b8560608401528281036080840152613b7e8186613065565b9150508260a083015298975050505050505050565b6000610100808352613ba88184018c8e613779565b6001600160a01b038b811660208601528482036040860152909150613bcd828b613065565b91508089166060850152508660808401528560a084015282810360c0840152613bf68186613065565b9150508260e08301529a9950505050505050505050565b604081526000613c21604083018587613af3565b905060018060a01b0383166020830152949350505050565b6020808252602b908201527f496e697469616c697a61626c653a20636f6e7472616374206973206e6f74206960408201526a6e697469616c697a696e6760a81b606082015260800190565b60008251613c96818460208701613041565b919091019291505056fe360894a13ba1a3210667c828492db98dca3e2076cc3735a920a3ca505d382bbc416464726573733a206c6f772d6c6576656c2064656c65676174652063616c6c206661696c6564a26469706673582212205a06232a6a499613a820f7de28c3266affe953585b48d85fa91629a0ccd8390964736f6c63430008100033",
  "linkReferences": {},
  "deployedLinkReferences": {}
}