{
  "_format": "hh-sol-artifact-1",
  "contractName": "DepositManagerV1",
  "sourceName": "contracts/DepositManager/Implementations/DepositManagerV1.sol",
  "abi": [
    {
      "inputs": [],
      "stateMutability": "nonpayable",
      "type": "constructor"
    },
    {
      "anonymous": false,
      "inputs": [
        {
          "indexed": false,
          "internalType": "address",
          "name": "previousAdmin",
          "type": "address"
        },
        {
          "indexed": false,
          "internalType": "address",
          "name": "newAdmin",
          "type": "address"
        }
      ],
      "name": "AdminChanged",
      "type": "event"
    },
    {
      "anonymous": false,
      "inputs": [
        {
          "indexed": true,
          "internalType": "address",
          "name": "beacon",
          "type": "address"
        }
      ],
      "name": "BeaconUpgraded",
      "type": "event"
    },
    {
      "anonymous": false,
      "inputs": [
        {
          "indexed": false,
          "internalType": "bytes32",
          "name": "depositId",
          "type": "bytes32"
        },
        {
          "indexed": false,
          "internalType": "uint256",
          "name": "newExpiration",
          "type": "uint256"
        },
        {
          "indexed": false,
          "internalType": "uint256",
          "name": "bountyType",
          "type": "uint256"
        },
        {
          "indexed": false,
          "internalType": "bytes",
          "name": "data",
          "type": "bytes"
        },
        {
          "indexed": false,
          "internalType": "uint256",
          "name": "version",
          "type": "uint256"
        }
      ],
      "name": "DepositExtended",
      "type": "event"
    },
    {
      "anonymous": false,
      "inputs": [
        {
          "indexed": false,
          "internalType": "bytes32",
          "name": "depositId",
          "type": "bytes32"
        },
        {
          "indexed": false,
          "internalType": "string",
          "name": "bountyId",
          "type": "string"
        },
        {
          "indexed": false,
          "internalType": "address",
          "name": "bountyAddress",
          "type": "address"
        },
        {
          "indexed": false,
          "internalType": "string",
          "name": "organization",
          "type": "string"
        },
        {
          "indexed": false,
          "internalType": "uint256",
          "name": "refundTime",
          "type": "uint256"
        },
        {
          "indexed": false,
          "internalType": "address",
          "name": "tokenAddress",
          "type": "address"
        },
        {
          "indexed": false,
          "internalType": "uint256",
          "name": "volume",
          "type": "uint256"
        },
        {
          "indexed": false,
          "internalType": "uint256",
          "name": "bountyType",
          "type": "uint256"
        },
        {
          "indexed": false,
          "internalType": "bytes",
          "name": "data",
          "type": "bytes"
        },
        {
          "indexed": false,
          "internalType": "uint256",
          "name": "version",
          "type": "uint256"
        }
      ],
      "name": "DepositRefunded",
      "type": "event"
    },
    {
      "anonymous": false,
      "inputs": [
        {
          "indexed": false,
          "internalType": "uint8",
          "name": "version",
          "type": "uint8"
        }
      ],
      "name": "Initialized",
      "type": "event"
    },
    {
      "anonymous": false,
      "inputs": [
        {
          "indexed": false,
          "internalType": "bytes32",
          "name": "depositId",
          "type": "bytes32"
        },
        {
          "indexed": false,
          "internalType": "address",
          "name": "bountyAddress",
          "type": "address"
        },
        {
          "indexed": false,
          "internalType": "string",
          "name": "bountyId",
          "type": "string"
        },
        {
          "indexed": false,
          "internalType": "string",
          "name": "organization",
          "type": "string"
        },
        {
          "indexed": false,
          "internalType": "address",
          "name": "tokenAddress",
          "type": "address"
        },
        {
          "indexed": false,
          "internalType": "uint256",
          "name": "receiveTime",
          "type": "uint256"
        },
        {
          "indexed": false,
          "internalType": "address",
          "name": "sender",
          "type": "address"
        },
        {
          "indexed": false,
          "internalType": "uint256",
          "name": "expiration",
          "type": "uint256"
        },
        {
          "indexed": false,
          "internalType": "uint256",
          "name": "tokenId",
          "type": "uint256"
        },
        {
          "indexed": false,
          "internalType": "uint256",
          "name": "bountyType",
          "type": "uint256"
        },
        {
          "indexed": false,
          "internalType": "bytes",
          "name": "data",
          "type": "bytes"
        },
        {
          "indexed": false,
          "internalType": "uint256",
          "name": "version",
          "type": "uint256"
        }
      ],
      "name": "NFTDepositReceived",
      "type": "event"
    },
    {
      "anonymous": false,
      "inputs": [
        {
          "indexed": true,
          "internalType": "address",
          "name": "previousOwner",
          "type": "address"
        },
        {
          "indexed": true,
          "internalType": "address",
          "name": "newOwner",
          "type": "address"
        }
      ],
      "name": "OwnershipTransferred",
      "type": "event"
    },
    {
      "anonymous": false,
      "inputs": [
        {
          "indexed": false,
          "internalType": "bytes32",
          "name": "depositId",
          "type": "bytes32"
        },
        {
          "indexed": false,
          "internalType": "address",
          "name": "bountyAddress",
          "type": "address"
        },
        {
          "indexed": false,
          "internalType": "string",
          "name": "bountyId",
          "type": "string"
        },
        {
          "indexed": false,
          "internalType": "string",
          "name": "organization",
          "type": "string"
        },
        {
          "indexed": false,
          "internalType": "address",
          "name": "tokenAddress",
          "type": "address"
        },
        {
          "indexed": false,
          "internalType": "uint256",
          "name": "receiveTime",
          "type": "uint256"
        },
        {
          "indexed": false,
          "internalType": "address",
          "name": "sender",
          "type": "address"
        },
        {
          "indexed": false,
          "internalType": "uint256",
          "name": "expiration",
          "type": "uint256"
        },
        {
          "indexed": false,
          "internalType": "uint256",
          "name": "volume",
          "type": "uint256"
        },
        {
          "indexed": false,
          "internalType": "uint256",
          "name": "bountyType",
          "type": "uint256"
        },
        {
          "indexed": false,
          "internalType": "bytes",
          "name": "data",
          "type": "bytes"
        },
        {
          "indexed": false,
          "internalType": "uint256",
          "name": "version",
          "type": "uint256"
        }
      ],
      "name": "TokenDepositReceived",
      "type": "event"
    },
    {
      "anonymous": false,
      "inputs": [
        {
          "indexed": true,
          "internalType": "address",
          "name": "implementation",
          "type": "address"
        }
      ],
      "name": "Upgraded",
      "type": "event"
    },
    {
      "inputs": [],
      "name": "VERSION_1",
      "outputs": [
        {
          "internalType": "uint256",
          "name": "",
          "type": "uint256"
        }
      ],
      "stateMutability": "view",
      "type": "function"
    },
    {
      "inputs": [
        {
          "internalType": "address",
          "name": "_bountyAddress",
          "type": "address"
        }
      ],
      "name": "bountyIsOpen",
      "outputs": [
        {
          "internalType": "bool",
          "name": "",
          "type": "bool"
        }
      ],
      "stateMutability": "view",
      "type": "function"
    },
    {
      "inputs": [
        {
          "internalType": "address",
          "name": "_bountyAddress",
          "type": "address"
        },
        {
          "internalType": "bytes32",
          "name": "_depositId",
          "type": "bytes32"
        },
        {
          "internalType": "uint256",
          "name": "_seconds",
          "type": "uint256"
        }
      ],
      "name": "extendDeposit",
      "outputs": [],
      "stateMutability": "nonpayable",
      "type": "function"
    },
    {
      "inputs": [
        {
          "internalType": "address",
          "name": "_bountyAddress",
          "type": "address"
        },
        {
          "internalType": "address",
          "name": "_tokenAddress",
          "type": "address"
        },
        {
          "internalType": "uint256",
          "name": "_tokenId",
          "type": "uint256"
        },
        {
          "internalType": "uint256",
          "name": "_expiration",
          "type": "uint256"
        },
        {
          "internalType": "bytes",
          "name": "_data",
          "type": "bytes"
        }
      ],
      "name": "fundBountyNFT",
      "outputs": [],
      "stateMutability": "nonpayable",
      "type": "function"
    },
    {
      "inputs": [
        {
          "internalType": "address",
          "name": "_bountyAddress",
          "type": "address"
        },
        {
          "internalType": "address",
          "name": "_tokenAddress",
          "type": "address"
        },
        {
          "internalType": "uint256",
          "name": "_volume",
          "type": "uint256"
        },
        {
          "internalType": "uint256",
          "name": "_expiration",
          "type": "uint256"
        },
        {
          "internalType": "string",
          "name": "funderUuid",
          "type": "string"
        }
      ],
      "name": "fundBountyToken",
      "outputs": [],
      "stateMutability": "payable",
      "type": "function"
    },
    {
      "inputs": [],
      "name": "initialize",
      "outputs": [],
      "stateMutability": "nonpayable",
      "type": "function"
    },
    {
      "inputs": [
        {
          "internalType": "address",
          "name": "_tokenAddress",
          "type": "address"
        }
      ],
      "name": "isWhitelisted",
      "outputs": [
        {
          "internalType": "bool",
          "name": "",
          "type": "bool"
        }
      ],
      "stateMutability": "view",
      "type": "function"
    },
    {
      "inputs": [],
      "name": "openQTokenWhitelist",
      "outputs": [
        {
          "internalType": "contract OpenQTokenWhitelist",
          "name": "",
          "type": "address"
        }
      ],
      "stateMutability": "view",
      "type": "function"
    },
    {
      "inputs": [],
      "name": "owner",
      "outputs": [
        {
          "internalType": "address",
          "name": "",
          "type": "address"
        }
      ],
      "stateMutability": "view",
      "type": "function"
    },
    {
      "inputs": [],
      "name": "proxiableUUID",
      "outputs": [
        {
          "internalType": "bytes32",
          "name": "",
          "type": "bytes32"
        }
      ],
      "stateMutability": "view",
      "type": "function"
    },
    {
      "inputs": [
        {
          "internalType": "address",
          "name": "_bountyAddress",
          "type": "address"
        },
        {
          "internalType": "bytes32",
          "name": "_depositId",
          "type": "bytes32"
        }
      ],
      "name": "refundDeposit",
      "outputs": [],
      "stateMutability": "nonpayable",
      "type": "function"
    },
    {
      "inputs": [],
      "name": "renounceOwnership",
      "outputs": [],
      "stateMutability": "nonpayable",
      "type": "function"
    },
    {
      "inputs": [
        {
          "internalType": "address",
          "name": "_openQTokenWhitelist",
          "type": "address"
        }
      ],
      "name": "setTokenWhitelist",
      "outputs": [],
      "stateMutability": "nonpayable",
      "type": "function"
    },
    {
      "inputs": [
        {
          "internalType": "address",
          "name": "_bountyAddress",
          "type": "address"
        }
      ],
      "name": "tokenAddressLimitReached",
      "outputs": [
        {
          "internalType": "bool",
          "name": "",
          "type": "bool"
        }
      ],
      "stateMutability": "view",
      "type": "function"
    },
    {
      "inputs": [
        {
          "internalType": "address",
          "name": "newOwner",
          "type": "address"
        }
      ],
      "name": "transferOwnership",
      "outputs": [],
      "stateMutability": "nonpayable",
      "type": "function"
    },
    {
      "inputs": [
        {
          "internalType": "address",
          "name": "newImplementation",
          "type": "address"
        }
      ],
      "name": "upgradeTo",
      "outputs": [],
      "stateMutability": "nonpayable",
      "type": "function"
    },
    {
      "inputs": [
        {
          "internalType": "address",
          "name": "newImplementation",
          "type": "address"
        },
        {
          "internalType": "bytes",
          "name": "data",
          "type": "bytes"
        }
      ],
      "name": "upgradeToAndCall",
      "outputs": [],
      "stateMutability": "payable",
      "type": "function"
    }
  ],
  "bytecode": "0x60a06040523060805234801561001457600080fd5b506080516125cb610092600039600081816103d10152818161041a0152818161060b0152818161064b0152818161074b0152818161078b0152818161080c0152818161084c015281816108d101528181610b2201528181610b620152818161125e0152818161129e0152818161154d015261158d01526125cb6000f3fe6080604052600436106100de5760003560e01c8063715018a611610085578063715018a6146101e55780638129fc1c146101fa5780638da5cb5b1461020f578063975b961514610236578063d0dec35914610256578063f2fde38b14610276578063f4b8f49814610296578063f75161c6146102b6578063ff9d28b0146102d657600080fd5b806326c20e5f146100e35780632fa0ac291461010b57806332fe1fec1461013b5780633659cfe61461015d5780633af32abf1461017d5780634f1ef2861461019d578063527b22db146101b057806352d1902d146101d0575b600080fd5b3480156100ef57600080fd5b506100f8600181565b6040519081526020015b60405180910390f35b34801561011757600080fd5b5061012b610126366004611d8c565b6102e9565b6040519015158152602001610102565b34801561014757600080fd5b5061015b610156366004611da9565b6103c7565b005b34801561016957600080fd5b5061015b610178366004611d8c565b610601565b34801561018957600080fd5b5061012b610198366004611d8c565b6106c9565b61015b6101ab366004611e8b565b610741565b3480156101bc57600080fd5b5061015b6101cb366004611d8c565b6107fa565b3480156101dc57600080fd5b506100f86108c4565b3480156101f157600080fd5b5061015b610972565b34801561020657600080fd5b5061015b610986565b34801561021b57600080fd5b506033546001600160a01b03165b6040516101029190611eef565b34801561024257600080fd5b5061012b610251366004611d8c565b610a9e565b34801561026257600080fd5b5061015b610271366004611f03565b610b18565b34801561028257600080fd5b5061015b610291366004611d8c565b6111de565b3480156102a257600080fd5b5061015b6102b1366004611f2f565b611254565b3480156102c257600080fd5b5060c954610229906001600160a01b031681565b61015b6102e4366004611fd9565b611543565b60c95460408051630c024c1b60e31b8152905160009284926001600160a01b039091169163601260d8916004808201926020929091908290030181865afa158015610338573d6000803e3d6000fd5b505050506040513d601f19601f8201168201806040525081019061035c9190612063565b816001600160a01b031663c5b6e7056040518163ffffffff1660e01b8152600401602060405180830381865afa15801561039a573d6000803e3d6000fd5b505050506040513d601f19601f820116820180604052508101906103be9190612063565b10159392505050565b6001600160a01b037f00000000000000000000000000000000000000000000000000000000000000001630036104185760405162461bcd60e51b815260040161040f9061207c565b60405180910390fd5b7f00000000000000000000000000000000000000000000000000000000000000006001600160a01b031661044a611876565b6001600160a01b0316146104705760405162461bcd60e51b815260040161040f906120c8565b60405163166ea0d160e21b815260048101839052839033906001600160a01b038316906359ba834490602401602060405180830381865afa1580156104b9573d6000803e3d6000fd5b505050506040513d601f19601f820116820180604052508101906104dd9190612114565b6001600160a01b0316146040518060400160405280601181526020017021a0a62622a92fa727aa2fa32aa72222a960791b8152509061052f5760405162461bcd60e51b815260040161040f9190612181565b5060405163e83963eb60e01b815260048101849052602481018390523360448201526000906001600160a01b0383169063e83963eb906064016020604051808303816000875af1158015610587573d6000803e3d6000fd5b505050506040513d601f19601f820116820180604052508101906105ab9190612063565b60408051600080825260208201928390529293507fff6b606253b167363e000664c8b931e839bf0ab135de9d6cfc5e26311a1ff6c4926105f2928892869291600190612194565b60405180910390a15050505050565b6001600160a01b037f00000000000000000000000000000000000000000000000000000000000000001630036106495760405162461bcd60e51b815260040161040f9061207c565b7f00000000000000000000000000000000000000000000000000000000000000006001600160a01b031661067b611876565b6001600160a01b0316146106a15760405162461bcd60e51b815260040161040f906120c8565b6106aa81611892565b604080516000808252602082019092526106c69183919061189a565b50565b60c954604051633af32abf60e01b81526000916001600160a01b031690633af32abf906106fa908590600401611eef565b602060405180830381865afa158015610717573d6000803e3d6000fd5b505050506040513d601f19601f8201168201806040525081019061073b91906121cb565b92915050565b6001600160a01b037f00000000000000000000000000000000000000000000000000000000000000001630036107895760405162461bcd60e51b815260040161040f9061207c565b7f00000000000000000000000000000000000000000000000000000000000000006001600160a01b03166107bb611876565b6001600160a01b0316146107e15760405162461bcd60e51b815260040161040f906120c8565b6107ea82611892565b6107f68282600161189a565b5050565b610802611a0a565b6001600160a01b037f000000000000000000000000000000000000000000000000000000000000000016300361084a5760405162461bcd60e51b815260040161040f9061207c565b7f00000000000000000000000000000000000000000000000000000000000000006001600160a01b031661087c611876565b6001600160a01b0316146108a25760405162461bcd60e51b815260040161040f906120c8565b60c980546001600160a01b0319166001600160a01b0392909216919091179055565b6000306001600160a01b037f0000000000000000000000000000000000000000000000000000000000000000161461095f5760405162461bcd60e51b815260206004820152603860248201527f555550535570677261646561626c653a206d757374206e6f742062652063616c6044820152771b1959081d1a1c9bdd59da0819195b1959d85d1958d85b1b60421b606482015260840161040f565b5060008051602061254f83398151915290565b61097a611a0a565b6109846000611a64565b565b600054610100900460ff16158080156109a65750600054600160ff909116105b806109c05750303b1580156109c0575060005460ff166001145b610a235760405162461bcd60e51b815260206004820152602e60248201527f496e697469616c697a61626c653a20636f6e747261637420697320616c72656160448201526d191e481a5b9a5d1a585b1a5e995960921b606482015260840161040f565b6000805460ff191660011790558015610a46576000805461ff0019166101001790555b610a4e611ab6565b610a56611ae5565b80156106c6576000805461ff0019169055604051600181527f7f26b83ff96e1f2b6a682f133852f6798a09c465da95921460cefb38474024989060200160405180910390a150565b60008082905060008063ffffffff16826001600160a01b031663200d2ed26040518163ffffffff1660e01b8152600401602060405180830381865afa158015610aeb573d6000803e3d6000fd5b505050506040513d601f19601f82011682018060405250810190610b0f9190612063565b14949350505050565b6001600160a01b037f0000000000000000000000000000000000000000000000000000000000000000163003610b605760405162461bcd60e51b815260040161040f9061207c565b7f00000000000000000000000000000000000000000000000000000000000000006001600160a01b0316610b92611876565b6001600160a01b031614610bb85760405162461bcd60e51b815260040161040f906120c8565b60405163166ea0d160e21b815260048101829052829033906001600160a01b038316906359ba834490602401602060405180830381865afa158015610c01573d6000803e3d6000fd5b505050506040513d601f19601f82011682018060405250810190610c259190612114565b6001600160a01b0316146040518060400160405280601181526020017021a0a62622a92fa727aa2fa32aa72222a960791b81525090610c775760405162461bcd60e51b815260040161040f9190612181565b506040516356406fa560e01b8152600481018390526001600160a01b038216906356406fa590602401602060405180830381865afa158015610cbd573d6000803e3d6000fd5b505050506040513d601f19601f82011682018060405250810190610ce19190612063565b60405163968b098f60e01b8152600481018490526001600160a01b0383169063968b098f90602401602060405180830381865afa158015610d26573d6000803e3d6000fd5b505050506040513d601f19601f82011682018060405250810190610d4a9190612063565b610d549190612203565b4210156040518060400160405280601881526020017714149153505515549157d4915195539117d49154555154d560421b81525090610da65760405162461bcd60e51b815260040161040f9190612181565b506040516397bb3ce960e01b8152600481018390526000906001600160a01b038316906397bb3ce990602401602060405180830381865afa158015610def573d6000803e3d6000fd5b505050506040513d601f19601f82011682018060405250810190610e139190612114565b90506000826001600160a01b031663a7f01e4d836040518263ffffffff1660e01b8152600401610e439190611eef565b602060405180830381865afa158015610e60573d6000803e3d6000fd5b505050506040513d601f19601f82011682018060405250810190610e849190612063565b604051633aecd0e360e01b81526001600160a01b03851690633aecd0e390610eb0908690600401611eef565b602060405180830381865afa158015610ecd573d6000803e3d6000fd5b505050506040513d601f19601f82011682018060405250810190610ef19190612063565b610efb9190612216565b9050600081846001600160a01b0316631595eea4876040518263ffffffff1660e01b8152600401610f2e91815260200190565b602060405180830381865afa158015610f4b573d6000803e3d6000fd5b505050506040513d601f19601f82011682018060405250810190610f6f9190612063565b11610fe4576040516305657ba960e21b8152600481018690526001600160a01b03851690631595eea490602401602060405180830381865afa158015610fb9573d6000803e3d6000fd5b505050506040513d601f19601f82011682018060405250810190610fdd9190612063565b9050610fe7565b50805b60405163eb58c0fd60e01b815260048101869052336024820152604481018290526001600160a01b0385169063eb58c0fd90606401600060405180830381600087803b15801561103657600080fd5b505af115801561104a573d6000803e3d6000fd5b505050507f69564edf78e6beb23606d24a3d00a7d77315e974782eca07c9a0139393ef797f85856001600160a01b031663c17bd75e6040518163ffffffff1660e01b8152600401600060405180830381865afa1580156110ae573d6000803e3d6000fd5b505050506040513d6000823e601f3d908101601f191682016040526110d69190810190612229565b88876001600160a01b03166323bd4d7a6040518163ffffffff1660e01b8152600401600060405180830381865afa158015611115573d6000803e3d6000fd5b505050506040513d6000823e601f3d908101601f1916820160405261113d9190810190612229565b6040516397bb3ce960e01b8152600481018b905242906001600160a01b038b16906397bb3ce990602401602060405180830381865afa158015611184573d6000803e3d6000fd5b505050506040513d601f19601f820116820180604052508101906111a89190612114565b60408051600080825260208201928390526111ce989796959493928b9290600190612297565b60405180910390a1505050505050565b6111e6611a0a565b6001600160a01b03811661124b5760405162461bcd60e51b815260206004820152602660248201527f4f776e61626c653a206e6577206f776e657220697320746865207a65726f206160448201526564647265737360d01b606482015260840161040f565b6106c681611a64565b6001600160a01b037f000000000000000000000000000000000000000000000000000000000000000016300361129c5760405162461bcd60e51b815260040161040f9061207c565b7f00000000000000000000000000000000000000000000000000000000000000006001600160a01b03166112ce611876565b6001600160a01b0316146112f45760405162461bcd60e51b815260040161040f906120c8565b856112fe866106c9565b604051806040016040528060128152602001711513d2d15397d393d517d050d0d15415115160721b815250906113475760405162461bcd60e51b815260040161040f9190612181565b5061135187610a9e565b6040518060400160405280601781526020017610d3d395149050d517d053149150511657d0d313d4d151604a1b8152509061139f5760405162461bcd60e51b815260040161040f9190612181565b50604051632772a8f360e21b81526000906001600160a01b03831690639dcaa3cc906113d99033908b908b908b908b908b90600401612348565b6020604051808303816000875af11580156113f8573d6000803e3d6000fd5b505050506040513d601f19601f8201168201806040525081019061141c9190612063565b90507f113d7b68690d10a1b57a4033f31ccbe3071a8b22eb4156a27533b32fe2cfb1e48189846001600160a01b031663c17bd75e6040518163ffffffff1660e01b8152600401600060405180830381865afa15801561147f573d6000803e3d6000fd5b505050506040513d6000823e601f3d908101601f191682016040526114a79190810190612229565b856001600160a01b03166323bd4d7a6040518163ffffffff1660e01b8152600401600060405180830381865afa1580156114e5573d6000803e3d6000fd5b505050506040513d6000823e601f3d908101601f1916820160405261150d9190810190612229565b8b42338c8e60008e8e60016040516115319d9c9b9a9998979695949392919061238f565b60405180910390a15050505050505050565b6001600160a01b037f000000000000000000000000000000000000000000000000000000000000000016300361158b5760405162461bcd60e51b815260040161040f9061207c565b7f00000000000000000000000000000000000000000000000000000000000000006001600160a01b03166115bd611876565b6001600160a01b0316146115e35760405162461bcd60e51b815260040161040f906120c8565b846115ed856106c9565b61164c576115fa866102e9565b1560405180604001604052806018815260200177544f4f5f4d414e595f544f4b454e5f41444452455353455360401b8152509061164a5760405162461bcd60e51b815260040161040f9190612181565b505b61165586610a9e565b6040518060400160405280601781526020017610d3d395149050d517d053149150511657d0d313d4d151604a1b815250906116a35760405162461bcd60e51b815260040161040f9190612181565b506040516335bf83d160e21b81523360048201526001600160a01b0386811660248301526044820186905260648201859052600091829184169063d6fe0f44903490608401604080518083038185885af1158015611705573d6000803e3d6000fd5b50505050506040513d601f19601f8201168201806040525081019061172a9190612428565b915091506000846040516020016117419190612181565b60405160208183030381529060405290507f5b079a43aec0177fbeb930213940b8d476a8c4e0b37343e2059b6d61400d9762838a866001600160a01b031663c17bd75e6040518163ffffffff1660e01b8152600401600060405180830381865afa1580156117b3573d6000803e3d6000fd5b505050506040513d6000823e601f3d908101601f191682016040526117db9190810190612229565b876001600160a01b03166323bd4d7a6040518163ffffffff1660e01b8152600401600060405180830381865afa158015611819573d6000803e3d6000fd5b505050506040513d6000823e601f3d908101601f191682016040526118419190810190612229565b8c42338d8a60008b60016040516118639c9b9a9998979695949392919061244c565b60405180910390a1505050505050505050565b60008051602061254f833981519152546001600160a01b031690565b6106c6611a0a565b7f4910fdfa16fed3260ed0e7147f7cc6da11a60208b5b9406d12a635614ffd91435460ff16156118d2576118cd83611b0c565b505050565b826001600160a01b03166352d1902d6040518163ffffffff1660e01b8152600401602060405180830381865afa92505050801561192c575060408051601f3d908101601f1916820190925261192991810190612063565b60015b61198f5760405162461bcd60e51b815260206004820152602e60248201527f45524331393637557067726164653a206e657720696d706c656d656e7461746960448201526d6f6e206973206e6f74205555505360901b606482015260840161040f565b60008051602061254f83398151915281146119fe5760405162461bcd60e51b815260206004820152602960248201527f45524331393637557067726164653a20756e737570706f727465642070726f786044820152681a58589b195555525160ba1b606482015260840161040f565b506118cd838383611ba8565b6033546001600160a01b031633146109845760405162461bcd60e51b815260206004820181905260248201527f4f776e61626c653a2063616c6c6572206973206e6f7420746865206f776e6572604482015260640161040f565b603380546001600160a01b038381166001600160a01b0319831681179093556040519116919082907f8be0079c531659141344cd1fd0a4f28419497f9722a3daafe3b4186f6b6457e090600090a35050565b600054610100900460ff16611add5760405162461bcd60e51b815260040161040f906124e7565b610984611bd3565b600054610100900460ff166109845760405162461bcd60e51b815260040161040f906124e7565b6001600160a01b0381163b611b795760405162461bcd60e51b815260206004820152602d60248201527f455243313936373a206e657720696d706c656d656e746174696f6e206973206e60448201526c1bdd08184818dbdb9d1c9858dd609a1b606482015260840161040f565b60008051602061254f83398151915280546001600160a01b0319166001600160a01b0392909216919091179055565b611bb183611c03565b600082511180611bbe5750805b156118cd57611bcd8383611c43565b50505050565b600054610100900460ff16611bfa5760405162461bcd60e51b815260040161040f906124e7565b61098433611a64565b611c0c81611b0c565b6040516001600160a01b038216907fbc7cd75a20ee27fd9adebab32041f755214dbc6bffa90cc0225b39da2e5c2d3b90600090a250565b60606001600160a01b0383163b611cab5760405162461bcd60e51b815260206004820152602660248201527f416464726573733a2064656c65676174652063616c6c20746f206e6f6e2d636f6044820152651b9d1c9858dd60d21b606482015260840161040f565b600080846001600160a01b031684604051611cc69190612532565b600060405180830381855af49150503d8060008114611d01576040519150601f19603f3d011682016040523d82523d6000602084013e611d06565b606091505b5091509150611d2e828260405180606001604052806027815260200161256f60279139611d37565b95945050505050565b60608315611d46575081611d70565b825115611d565782518084602001fd5b8160405162461bcd60e51b815260040161040f9190612181565b9392505050565b6001600160a01b03811681146106c657600080fd5b600060208284031215611d9e57600080fd5b8135611d7081611d77565b600080600060608486031215611dbe57600080fd5b8335611dc981611d77565b95602085013595506040909401359392505050565b634e487b7160e01b600052604160045260246000fd5b604051601f8201601f1916810167ffffffffffffffff81118282101715611e1d57611e1d611dde565b604052919050565b600067ffffffffffffffff821115611e3f57611e3f611dde565b50601f01601f191660200190565b6000611e60611e5b84611e25565b611df4565b9050828152838383011115611e7457600080fd5b828260208301376000602084830101529392505050565b60008060408385031215611e9e57600080fd5b8235611ea981611d77565b9150602083013567ffffffffffffffff811115611ec557600080fd5b8301601f81018513611ed657600080fd5b611ee585823560208401611e4d565b9150509250929050565b6001600160a01b0391909116815260200190565b60008060408385031215611f1657600080fd5b8235611f2181611d77565b946020939093013593505050565b60008060008060008060a08789031215611f4857600080fd5b8635611f5381611d77565b95506020870135611f6381611d77565b94506040870135935060608701359250608087013567ffffffffffffffff80821115611f8e57600080fd5b818901915089601f830112611fa257600080fd5b813581811115611fb157600080fd5b8a6020828501011115611fc357600080fd5b6020830194508093505050509295509295509295565b600080600080600060a08688031215611ff157600080fd5b8535611ffc81611d77565b9450602086013561200c81611d77565b93506040860135925060608601359150608086013567ffffffffffffffff81111561203657600080fd5b8601601f8101881361204757600080fd5b61205688823560208401611e4d565b9150509295509295909350565b60006020828403121561207557600080fd5b5051919050565b6020808252602c908201527f46756e6374696f6e206d7573742062652063616c6c6564207468726f7567682060408201526b19195b1959d85d1958d85b1b60a21b606082015260800190565b6020808252602c908201527f46756e6374696f6e206d7573742062652063616c6c6564207468726f7567682060408201526b6163746976652070726f787960a01b606082015260800190565b60006020828403121561212657600080fd5b8151611d7081611d77565b60005b8381101561214c578181015183820152602001612134565b50506000910152565b6000815180845261216d816020860160208601612131565b601f01601f19169290920160200192915050565b602081526000611d706020830184612155565b85815284602082015283604082015260a0606082015260006121b960a0830185612155565b90508260808301529695505050505050565b6000602082840312156121dd57600080fd5b81518015158114611d7057600080fd5b634e487b7160e01b600052601160045260246000fd5b8082018082111561073b5761073b6121ed565b8181038181111561073b5761073b6121ed565b60006020828403121561223b57600080fd5b815167ffffffffffffffff81111561225257600080fd5b8201601f8101841361226357600080fd5b8051612271611e5b82611e25565b81815285602083850101111561228657600080fd5b611d2e826020830160208601612131565b60006101408c83528060208401526122b18184018d612155565b6001600160a01b038c8116604086015284820360608601529091506122d6828c612155565b915089608085015280891660a0850152508660c08401528560e08401528281036101008401526123068186612155565b915050826101208301529b9a5050505050505050505050565b81835281816020850137506000828201602090810191909152601f909101601f19169091010190565b6001600160a01b03878116825286166020820152604081018590526060810184905260a060808201819052600090612383908301848661231f565b98975050505050505050565b8d8152600060018060a01b03808f16602084015261018060408401526123b961018084018f612155565b83810360608501526123cb818f612155565b9050818d1660808501528b60a0850152818b1660c08501528960e0850152886101008501528761012085015283810361014085015261240b81878961231f565b92505050826101608301529e9d5050505050505050505050505050565b6000806040838503121561243b57600080fd5b505080516020909101519092909150565b8c81526001600160a01b038c81166020830152610180604083018190526000916124788483018f612155565b9150838203606085015261248c828e612155565b9150808c1660808501528a60a0850152808a1660c0850152508760e084015286610100840152856101208401528281036101408401526124cc8186612155565b915050826101608301529d9c50505050505050505050505050565b6020808252602b908201527f496e697469616c697a61626c653a20636f6e7472616374206973206e6f74206960408201526a6e697469616c697a696e6760a81b606082015260800190565b60008251612544818460208701612131565b919091019291505056fe360894a13ba1a3210667c828492db98dca3e2076cc3735a920a3ca505d382bbc416464726573733a206c6f772d6c6576656c2064656c65676174652063616c6c206661696c6564a2646970667358221220938d5b8df2c7e455f8cba221ae990b6fb5d1265f87815cafde3c58c560776aba64736f6c63430008110033",
  "linkReferences": {},
  "deployedLinkReferences": {}
}