{
  "_format": "hh-sol-artifact-1",
  "contractName": "OngoingBountyV1",
  "sourceName": "contracts/Bounty/Implementations/OngoingBountyV1.sol",
  "abi": [
    {
      "inputs": [],
      "stateMutability": "nonpayable",
      "type": "constructor"
    },
    {
      "anonymous": false,
      "inputs": [
        {
          "indexed": false,
          "internalType": "uint8",
          "name": "version",
          "type": "uint8"
        }
      ],
      "name": "Initialized",
      "type": "event"
    },
    {
      "inputs": [],
      "name": "VERSION_1",
      "outputs": [
        {
          "internalType": "uint256",
          "name": "",
          "type": "uint256"
        }
      ],
      "stateMutability": "view",
      "type": "function"
    },
    {
      "inputs": [],
      "name": "bountyClosedTime",
      "outputs": [
        {
          "internalType": "uint256",
          "name": "",
          "type": "uint256"
        }
      ],
      "stateMutability": "view",
      "type": "function"
    },
    {
      "inputs": [],
      "name": "bountyCreatedTime",
      "outputs": [
        {
          "internalType": "uint256",
          "name": "",
          "type": "uint256"
        }
      ],
      "stateMutability": "view",
      "type": "function"
    },
    {
      "inputs": [],
      "name": "bountyId",
      "outputs": [
        {
          "internalType": "string",
          "name": "",
          "type": "string"
        }
      ],
      "stateMutability": "view",
      "type": "function"
    },
    {
      "inputs": [],
      "name": "bountyType",
      "outputs": [
        {
          "internalType": "uint256",
          "name": "",
          "type": "uint256"
        }
      ],
      "stateMutability": "view",
      "type": "function"
    },
    {
      "inputs": [
        {
          "internalType": "bytes32",
          "name": "",
          "type": "bytes32"
        }
      ],
      "name": "claimId",
      "outputs": [
        {
          "internalType": "bool",
          "name": "",
          "type": "bool"
        }
      ],
      "stateMutability": "view",
      "type": "function"
    },
    {
      "inputs": [
        {
          "internalType": "uint256",
          "name": "",
          "type": "uint256"
        }
      ],
      "name": "claimIds",
      "outputs": [
        {
          "internalType": "bytes32",
          "name": "",
          "type": "bytes32"
        }
      ],
      "stateMutability": "view",
      "type": "function"
    },
    {
      "inputs": [],
      "name": "claimManager",
      "outputs": [
        {
          "internalType": "address",
          "name": "",
          "type": "address"
        }
      ],
      "stateMutability": "view",
      "type": "function"
    },
    {
      "inputs": [
        {
          "internalType": "address",
          "name": "_payoutAddress",
          "type": "address"
        },
        {
          "internalType": "bytes32",
          "name": "_depositId",
          "type": "bytes32"
        }
      ],
      "name": "claimNft",
      "outputs": [],
      "stateMutability": "nonpayable",
      "type": "function"
    },
    {
      "inputs": [
        {
          "internalType": "address",
          "name": "_payoutAddress",
          "type": "address"
        },
        {
          "internalType": "bytes",
          "name": "_closerData",
          "type": "bytes"
        }
      ],
      "name": "claimOngoingPayout",
      "outputs": [
        {
          "internalType": "address",
          "name": "",
          "type": "address"
        },
        {
          "internalType": "uint256",
          "name": "",
          "type": "uint256"
        }
      ],
      "stateMutability": "nonpayable",
      "type": "function"
    },
    {
      "inputs": [
        {
          "internalType": "address",
          "name": "_closer",
          "type": "address"
        }
      ],
      "name": "closeOngoing",
      "outputs": [],
      "stateMutability": "nonpayable",
      "type": "function"
    },
    {
      "inputs": [],
      "name": "closer",
      "outputs": [
        {
          "internalType": "address",
          "name": "",
          "type": "address"
        }
      ],
      "stateMutability": "view",
      "type": "function"
    },
    {
      "inputs": [],
      "name": "closerData",
      "outputs": [
        {
          "internalType": "bytes",
          "name": "",
          "type": "bytes"
        }
      ],
      "stateMutability": "view",
      "type": "function"
    },
    {
      "inputs": [],
      "name": "depositManager",
      "outputs": [
        {
          "internalType": "address",
          "name": "",
          "type": "address"
        }
      ],
      "stateMutability": "view",
      "type": "function"
    },
    {
      "inputs": [
        {
          "internalType": "bytes32",
          "name": "",
          "type": "bytes32"
        }
      ],
      "name": "depositTime",
      "outputs": [
        {
          "internalType": "uint256",
          "name": "",
          "type": "uint256"
        }
      ],
      "stateMutability": "view",
      "type": "function"
    },
    {
      "inputs": [
        {
          "internalType": "uint256",
          "name": "",
          "type": "uint256"
        }
      ],
      "name": "deposits",
      "outputs": [
        {
          "internalType": "bytes32",
          "name": "",
          "type": "bytes32"
        }
      ],
      "stateMutability": "view",
      "type": "function"
    },
    {
      "inputs": [
        {
          "internalType": "bytes32",
          "name": "",
          "type": "bytes32"
        }
      ],
      "name": "expiration",
      "outputs": [
        {
          "internalType": "uint256",
          "name": "",
          "type": "uint256"
        }
      ],
      "stateMutability": "view",
      "type": "function"
    },
    {
      "inputs": [
        {
          "internalType": "bytes32",
          "name": "_depositId",
          "type": "bytes32"
        },
        {
          "internalType": "uint256",
          "name": "_seconds",
          "type": "uint256"
        },
        {
          "internalType": "address",
          "name": "_funder",
          "type": "address"
        }
      ],
      "name": "extendDeposit",
      "outputs": [
        {
          "internalType": "uint256",
          "name": "",
          "type": "uint256"
        }
      ],
      "stateMutability": "nonpayable",
      "type": "function"
    },
    {
      "inputs": [
        {
          "internalType": "bytes32",
          "name": "",
          "type": "bytes32"
        }
      ],
      "name": "funder",
      "outputs": [
        {
          "internalType": "address",
          "name": "",
          "type": "address"
        }
      ],
      "stateMutability": "view",
      "type": "function"
    },
    {
      "inputs": [],
      "name": "fundingGoal",
      "outputs": [
        {
          "internalType": "uint256",
          "name": "",
          "type": "uint256"
        }
      ],
      "stateMutability": "view",
      "type": "function"
    },
    {
      "inputs": [],
      "name": "fundingToken",
      "outputs": [
        {
          "internalType": "address",
          "name": "",
          "type": "address"
        }
      ],
      "stateMutability": "view",
      "type": "function"
    },
    {
      "inputs": [],
      "name": "getClaimIds",
      "outputs": [
        {
          "internalType": "bytes32[]",
          "name": "",
          "type": "bytes32[]"
        }
      ],
      "stateMutability": "nonpayable",
      "type": "function"
    },
    {
      "inputs": [],
      "name": "getDeposits",
      "outputs": [
        {
          "internalType": "bytes32[]",
          "name": "",
          "type": "bytes32[]"
        }
      ],
      "stateMutability": "view",
      "type": "function"
    },
    {
      "inputs": [
        {
          "internalType": "address",
          "name": "_tokenAddress",
          "type": "address"
        }
      ],
      "name": "getERC20Balance",
      "outputs": [
        {
          "internalType": "uint256",
          "name": "balance",
          "type": "uint256"
        }
      ],
      "stateMutability": "view",
      "type": "function"
    },
    {
      "inputs": [],
      "name": "getInvoiceComplete",
      "outputs": [
        {
          "internalType": "bytes",
          "name": "",
          "type": "bytes"
        }
      ],
      "stateMutability": "view",
      "type": "function"
    },
    {
      "inputs": [
        {
          "internalType": "address",
          "name": "_depositId",
          "type": "address"
        }
      ],
      "name": "getLockedFunds",
      "outputs": [
        {
          "internalType": "uint256",
          "name": "",
          "type": "uint256"
        }
      ],
      "stateMutability": "view",
      "type": "function"
    },
    {
      "inputs": [],
      "name": "getNftDeposits",
      "outputs": [
        {
          "internalType": "bytes32[]",
          "name": "",
          "type": "bytes32[]"
        }
      ],
      "stateMutability": "view",
      "type": "function"
    },
    {
      "inputs": [],
      "name": "getSupportingDocumentsComplete",
      "outputs": [
        {
          "internalType": "bytes",
          "name": "",
          "type": "bytes"
        }
      ],
      "stateMutability": "view",
      "type": "function"
    },
    {
      "inputs": [],
      "name": "getTokenAddresses",
      "outputs": [
        {
          "internalType": "address[]",
          "name": "",
          "type": "address[]"
        }
      ],
      "stateMutability": "view",
      "type": "function"
    },
    {
      "inputs": [],
      "name": "getTokenAddressesCount",
      "outputs": [
        {
          "internalType": "uint256",
          "name": "",
          "type": "uint256"
        }
      ],
      "stateMutability": "view",
      "type": "function"
    },
    {
      "inputs": [
        {
          "internalType": "address",
          "name": "_tokenAddress",
          "type": "address"
        }
      ],
      "name": "getTokenBalance",
      "outputs": [
        {
          "internalType": "uint256",
          "name": "",
          "type": "uint256"
        }
      ],
      "stateMutability": "view",
      "type": "function"
    },
    {
      "inputs": [],
      "name": "hasFundingGoal",
      "outputs": [
        {
          "internalType": "bool",
          "name": "",
          "type": "bool"
        }
      ],
      "stateMutability": "view",
      "type": "function"
    },
    {
      "inputs": [
        {
          "internalType": "string",
          "name": "_bountyId",
          "type": "string"
        },
        {
          "internalType": "address",
          "name": "_issuer",
          "type": "address"
        },
        {
          "internalType": "string",
          "name": "_organization",
          "type": "string"
        },
        {
          "internalType": "address",
          "name": "_openQ",
          "type": "address"
        },
        {
          "internalType": "address",
          "name": "_claimManager",
          "type": "address"
        },
        {
          "internalType": "address",
          "name": "_depositManager",
          "type": "address"
        },
        {
          "components": [
            {
              "internalType": "uint32",
              "name": "operationType",
              "type": "uint32"
            },
            {
              "internalType": "bytes",
              "name": "data",
              "type": "bytes"
            }
          ],
          "internalType": "struct OpenQDefinitions.InitOperation",
          "name": "_operation",
          "type": "tuple"
        }
      ],
      "name": "initialize",
      "outputs": [],
      "stateMutability": "nonpayable",
      "type": "function"
    },
    {
      "inputs": [
        {
          "internalType": "bytes32",
          "name": "",
          "type": "bytes32"
        }
      ],
      "name": "invoiceComplete",
      "outputs": [
        {
          "internalType": "bool",
          "name": "",
          "type": "bool"
        }
      ],
      "stateMutability": "view",
      "type": "function"
    },
    {
      "inputs": [],
      "name": "invoiceRequired",
      "outputs": [
        {
          "internalType": "bool",
          "name": "",
          "type": "bool"
        }
      ],
      "stateMutability": "view",
      "type": "function"
    },
    {
      "inputs": [
        {
          "internalType": "bytes32",
          "name": "",
          "type": "bytes32"
        }
      ],
      "name": "isNFT",
      "outputs": [
        {
          "internalType": "bool",
          "name": "",
          "type": "bool"
        }
      ],
      "stateMutability": "view",
      "type": "function"
    },
    {
      "inputs": [],
      "name": "issuer",
      "outputs": [
        {
          "internalType": "address",
          "name": "",
          "type": "address"
        }
      ],
      "stateMutability": "view",
      "type": "function"
    },
    {
      "inputs": [],
      "name": "issuerExternalUserId",
      "outputs": [
        {
          "internalType": "string",
          "name": "",
          "type": "string"
        }
      ],
      "stateMutability": "view",
      "type": "function"
    },
    {
      "inputs": [],
      "name": "kycRequired",
      "outputs": [
        {
          "internalType": "bool",
          "name": "",
          "type": "bool"
        }
      ],
      "stateMutability": "view",
      "type": "function"
    },
    {
      "inputs": [],
      "name": "nftDepositLimit",
      "outputs": [
        {
          "internalType": "uint256",
          "name": "",
          "type": "uint256"
        }
      ],
      "stateMutability": "view",
      "type": "function"
    },
    {
      "inputs": [
        {
          "internalType": "uint256",
          "name": "",
          "type": "uint256"
        }
      ],
      "name": "nftDeposits",
      "outputs": [
        {
          "internalType": "bytes32",
          "name": "",
          "type": "bytes32"
        }
      ],
      "stateMutability": "view",
      "type": "function"
    },
    {
      "inputs": [
        {
          "internalType": "address",
          "name": "",
          "type": "address"
        },
        {
          "internalType": "address",
          "name": "",
          "type": "address"
        },
        {
          "internalType": "uint256",
          "name": "",
          "type": "uint256"
        },
        {
          "internalType": "bytes",
          "name": "",
          "type": "bytes"
        }
      ],
      "name": "onERC721Received",
      "outputs": [
        {
          "internalType": "bytes4",
          "name": "",
          "type": "bytes4"
        }
      ],
      "stateMutability": "nonpayable",
      "type": "function"
    },
    {
      "inputs": [],
      "name": "openQ",
      "outputs": [
        {
          "internalType": "address",
          "name": "",
          "type": "address"
        }
      ],
      "stateMutability": "view",
      "type": "function"
    },
    {
      "inputs": [],
      "name": "organization",
      "outputs": [
        {
          "internalType": "string",
          "name": "",
          "type": "string"
        }
      ],
      "stateMutability": "view",
      "type": "function"
    },
    {
      "inputs": [
        {
          "internalType": "bytes32",
          "name": "",
          "type": "bytes32"
        }
      ],
      "name": "payoutAddress",
      "outputs": [
        {
          "internalType": "address",
          "name": "",
          "type": "address"
        }
      ],
      "stateMutability": "view",
      "type": "function"
    },
    {
      "inputs": [],
      "name": "payoutTokenAddress",
      "outputs": [
        {
          "internalType": "address",
          "name": "",
          "type": "address"
        }
      ],
      "stateMutability": "view",
      "type": "function"
    },
    {
      "inputs": [],
      "name": "payoutVolume",
      "outputs": [
        {
          "internalType": "uint256",
          "name": "",
          "type": "uint256"
        }
      ],
      "stateMutability": "view",
      "type": "function"
    },
    {
      "inputs": [
        {
          "internalType": "address",
          "name": "_funder",
          "type": "address"
        },
        {
          "internalType": "address",
          "name": "_tokenAddress",
          "type": "address"
        },
        {
          "internalType": "uint256",
          "name": "_volume",
          "type": "uint256"
        },
        {
          "internalType": "uint256",
          "name": "_expiration",
          "type": "uint256"
        }
      ],
      "name": "receiveFunds",
      "outputs": [
        {
          "internalType": "bytes32",
          "name": "",
          "type": "bytes32"
        },
        {
          "internalType": "uint256",
          "name": "",
          "type": "uint256"
        }
      ],
      "stateMutability": "payable",
      "type": "function"
    },
    {
      "inputs": [
        {
          "internalType": "address",
          "name": "_sender",
          "type": "address"
        },
        {
          "internalType": "address",
          "name": "_tokenAddress",
          "type": "address"
        },
        {
          "internalType": "uint256",
          "name": "_tokenId",
          "type": "uint256"
        },
        {
          "internalType": "uint256",
          "name": "_expiration",
          "type": "uint256"
        },
        {
          "internalType": "bytes",
          "name": "",
          "type": "bytes"
        }
      ],
      "name": "receiveNft",
      "outputs": [
        {
          "internalType": "bytes32",
          "name": "",
          "type": "bytes32"
        }
      ],
      "stateMutability": "nonpayable",
      "type": "function"
    },
    {
      "inputs": [
        {
          "internalType": "bytes32",
          "name": "_depositId",
          "type": "bytes32"
        },
        {
          "internalType": "address",
          "name": "_funder",
          "type": "address"
        },
        {
          "internalType": "uint256",
          "name": "_volume",
          "type": "uint256"
        }
      ],
      "name": "refundDeposit",
      "outputs": [],
      "stateMutability": "nonpayable",
      "type": "function"
    },
    {
      "inputs": [
        {
          "internalType": "bytes32",
          "name": "",
          "type": "bytes32"
        }
      ],
      "name": "refunded",
      "outputs": [
        {
          "internalType": "bool",
          "name": "",
          "type": "bool"
        }
      ],
      "stateMutability": "view",
      "type": "function"
    },
    {
      "inputs": [
        {
          "internalType": "address",
          "name": "_fundingToken",
          "type": "address"
        },
        {
          "internalType": "uint256",
          "name": "_fundingGoal",
          "type": "uint256"
        }
      ],
      "name": "setFundingGoal",
      "outputs": [],
      "stateMutability": "nonpayable",
      "type": "function"
    },
    {
      "inputs": [
        {
          "internalType": "bytes",
          "name": "_data",
          "type": "bytes"
        }
      ],
      "name": "setInvoiceComplete",
      "outputs": [],
      "stateMutability": "nonpayable",
      "type": "function"
    },
    {
      "inputs": [
        {
          "internalType": "bool",
          "name": "_invoiceRequired",
          "type": "bool"
        }
      ],
      "name": "setInvoiceRequired",
      "outputs": [],
      "stateMutability": "nonpayable",
      "type": "function"
    },
    {
      "inputs": [
        {
          "internalType": "bool",
          "name": "_kycRequired",
          "type": "bool"
        }
      ],
      "name": "setKycRequired",
      "outputs": [],
      "stateMutability": "nonpayable",
      "type": "function"
    },
    {
      "inputs": [
        {
          "internalType": "address",
          "name": "_payoutTokenAddress",
          "type": "address"
        },
        {
          "internalType": "uint256",
          "name": "_payoutVolume",
          "type": "uint256"
        }
      ],
      "name": "setPayout",
      "outputs": [],
      "stateMutability": "nonpayable",
      "type": "function"
    },
    {
      "inputs": [
        {
          "internalType": "bytes",
          "name": "_data",
          "type": "bytes"
        }
      ],
      "name": "setSupportingDocumentsComplete",
      "outputs": [],
      "stateMutability": "nonpayable",
      "type": "function"
    },
    {
      "inputs": [
        {
          "internalType": "bool",
          "name": "_supportingDocumentsRequired",
          "type": "bool"
        }
      ],
      "name": "setSupportingDocumentsRequired",
      "outputs": [],
      "stateMutability": "nonpayable",
      "type": "function"
    },
    {
      "inputs": [],
      "name": "status",
      "outputs": [
        {
          "internalType": "uint256",
          "name": "",
          "type": "uint256"
        }
      ],
      "stateMutability": "view",
      "type": "function"
    },
    {
      "inputs": [
        {
          "internalType": "bytes32",
          "name": "",
          "type": "bytes32"
        }
      ],
      "name": "supportingDocumentsComplete",
      "outputs": [
        {
          "internalType": "bool",
          "name": "",
          "type": "bool"
        }
      ],
      "stateMutability": "view",
      "type": "function"
    },
    {
      "inputs": [],
      "name": "supportingDocumentsRequired",
      "outputs": [
        {
          "internalType": "bool",
          "name": "",
          "type": "bool"
        }
      ],
      "stateMutability": "view",
      "type": "function"
    },
    {
      "inputs": [
        {
          "internalType": "bytes32",
          "name": "",
          "type": "bytes32"
        }
      ],
      "name": "tokenAddress",
      "outputs": [
        {
          "internalType": "address",
          "name": "",
          "type": "address"
        }
      ],
      "stateMutability": "view",
      "type": "function"
    },
    {
      "inputs": [
        {
          "internalType": "bytes32",
          "name": "",
          "type": "bytes32"
        }
      ],
      "name": "tokenId",
      "outputs": [
        {
          "internalType": "uint256",
          "name": "",
          "type": "uint256"
        }
      ],
      "stateMutability": "view",
      "type": "function"
    },
    {
      "inputs": [
        {
          "internalType": "bytes32",
          "name": "",
          "type": "bytes32"
        }
      ],
      "name": "volume",
      "outputs": [
        {
          "internalType": "uint256",
          "name": "",
          "type": "uint256"
        }
      ],
      "stateMutability": "view",
      "type": "function"
    },
    {
      "stateMutability": "payable",
      "type": "receive"
    }
  ],
  "bytecode": "0x608060405234801561001057600080fd5b506136d7806100206000396000f3fe6080604052600436106103475760003560e01c806397bb3ce9116101b2578063cb4436b7116100ed578063ec9c2c3611610090578063ec9c2c3614610b82578063ee1034fb14610ba2578063ee1e43e014610bc2578063ee8c24b814610bdc578063f05e0f7e14610bfe578063f232172514610c2e578063fbeadd2b14610c5b578063fd9ef47c14610c7057600080fd5b8063cb4436b714610aaf578063cbcca3dc14610ac5578063ceff310714610ae5578063cf6b751214610b05578063d6fe0f4414610b1a578063dda6408114610733578063e83963eb14610b42578063eb58c0fd14610b6257600080fd5b8063b3f23b7311610155578063b3f23b731461099a578063b588d225146109b0578063b9699091146109d0578063b99bb990146109ef578063c17bd75e14610a25578063c5b6e70514610a3a578063c8b8cd3d14610a4f578063c9f3dcf614610a7f57600080fd5b806397bb3ce91461087b578063995280b0146108b15780639dcaa3cc146108c7578063a09dd1aa146108e7578063a7f01e4d14610926578063a9a36dcd14610946578063b02c43d014610964578063b3ca1f3b1461098457600080fd5b806355f1c18a1161028257806371ec4ebf1161022557806371ec4ebf1461078657806377ede8a6146107a657806378065f27146107bb5780637a196d0e146107e05780637a3a0e84146108005780637d6694b5146108165780637dc81fa214610830578063968b098f1461084e57600080fd5b806355f1c18a1461065057806356406fa51461067057806359ba83441461069d5780635cc04838146106d35780636b149d87146106f35780636c7ac9d8146107155780637026b472146107335780637044f2821461076657600080fd5b8063200d2ed2116102ea578063200d2ed214610540578063235b2b941461055657806323bd4d7a1461059657806325401d8e146105ab57806326c20e5f146105cb5780633aecd0e3146105e05780633f40f6361461060057806354c63c4f1461062057600080fd5b80630961413d146103ea5780630dd8188714610413578063150909f714610435578063150b7a02146104575780631595eea41461049b57806315add63b146104c85780631bc5fc96146104e85780631d1438481461050857600080fd5b366103e55760405162461bcd60e51b815260206004820152605d60248201527f43616e6e6f742073656e64204574686572206469726563746c7920746f20626f60448201527f75746e7920636f6e74726163742e20506c65617365207573652074686520426f60648201527f756e747956312e7265636569766546756e64732829206d6574686f642e000000608482015260a4015b60405180910390fd5b600080fd5b3480156103f657600080fd5b5061040060a15481565b6040519081526020015b60405180910390f35b34801561041f57600080fd5b50610428610c90565b60405161040a9190612998565b34801561044157600080fd5b506104556104503660046129bc565b610d1e565b005b34801561046357600080fd5b50610482610472366004612abc565b630a85bd0160e11b949350505050565b6040516001600160e01b0319909116815260200161040a565b3480156104a757600080fd5b506104006104b6366004612b27565b60a46020526000908152604090205481565b3480156104d457600080fd5b506104556104e33660046129bc565b610d6b565b3480156104f457600080fd5b50610400610503366004612b27565b610db1565b34801561051457600080fd5b50609d54610528906001600160a01b031681565b6040516001600160a01b03909116815260200161040a565b34801561054c57600080fd5b5061040060a05481565b34801561056257600080fd5b50610586610571366004612b27565b60aa6020526000908152604090205460ff1681565b604051901515815260200161040a565b3480156105a257600080fd5b50610428610dd2565b3480156105b757600080fd5b506104006105c6366004612b27565b610ddf565b3480156105d757600080fd5b50610400600181565b3480156105ec57600080fd5b506104006105fb366004612b40565b610def565b34801561060c57600080fd5b5061045561061b366004612bdf565b610e1a565b34801561062c57600080fd5b5061058661063b366004612b27565b60b76020526000908152604090205460ff1681565b34801561065c57600080fd5b5061045561066b366004612cfa565b61115f565b34801561067c57600080fd5b5061040061068b366004612b27565b60a96020526000908152604090205481565b3480156106a957600080fd5b506105286106b8366004612b27565b60a2602052600090815260409020546001600160a01b031681565b3480156106df57600080fd5b5060b554610528906001600160a01b031681565b3480156106ff57600080fd5b506107086111c5565b60405161040a9190612d3b565b34801561072157600080fd5b506099546001600160a01b0316610528565b34801561073f57600080fd5b50610428604080516001602082015260609101604051602081830303815290604052905090565b34801561077257600080fd5b50609f54610528906001600160a01b031681565b34801561079257600080fd5b506104556107a1366004612d7f565b61121d565b3480156107b257600080fd5b506107086112a6565b3480156107c757600080fd5b5060b1546105289061010090046001600160a01b031681565b3480156107ec57600080fd5b506104556107fb366004612d7f565b6112fc565b34801561080c57600080fd5b5061040060b25481565b34801561082257600080fd5b5060b3546105869060ff1681565b34801561083c57600080fd5b506097546001600160a01b0316610528565b34801561085a57600080fd5b50610400610869366004612b27565b60a56020526000908152604090205481565b34801561088757600080fd5b50610528610896366004612b27565b60a3602052600090815260409020546001600160a01b031681565b3480156108bd57600080fd5b50610400609b5481565b3480156108d357600080fd5b506104006108e2366004612dab565b611355565b3480156108f357600080fd5b50610907610902366004612e26565b611552565b604080516001600160a01b03909316835260208301919091520161040a565b34801561093257600080fd5b50610400610941366004612b40565b611658565b34801561095257600080fd5b506098546001600160a01b0316610528565b34801561097057600080fd5b5061040061097f366004612b27565b6117df565b34801561099057600080fd5b5061040060b05481565b3480156109a657600080fd5b5061040060b65481565b3480156109bc57600080fd5b506104006109cb366004612b40565b6117ef565b3480156109dc57600080fd5b5060b35461058690610100900460ff1681565b3480156109fb57600080fd5b50610528610a0a366004612b27565b60a7602052600090815260409020546001600160a01b031681565b348015610a3157600080fd5b50610428611863565b348015610a4657600080fd5b50610400611870565b348015610a5b57600080fd5b50610586610a6a366004612b27565b60ba6020526000908152604090205460ff1681565b348015610a8b57600080fd5b50610586610a9a366004612b27565b60b96020526000908152604090205460ff1681565b348015610abb57600080fd5b50610400609c5481565b348015610ad157600080fd5b5060b3546105869062010000900460ff1681565b348015610af157600080fd5b50610455610b00366004612d7f565b611882565b348015610b1157600080fd5b506107086118e9565b610b2d610b28366004612e7a565b61193f565b6040805192835260208301919091520161040a565b348015610b4e57600080fd5b50610400610b5d366004612ec0565b611b70565b348015610b6e57600080fd5b50610455610b7d366004612ef9565b611d83565b348015610b8e57600080fd5b50610455610b9d366004612b40565b611ffa565b348015610bae57600080fd5b50610455610bbd366004612cfa565b6120e2565b348015610bce57600080fd5b5060b1546105869060ff1681565b348015610be857600080fd5b50610bf1612148565b60405161040a9190612f31565b348015610c0a57600080fd5b50610586610c19366004612b27565b60a66020526000908152604090205460ff1681565b348015610c3a57600080fd5b50610400610c49366004612b27565b60a86020526000908152604090205481565b348015610c6757600080fd5b50610428612159565b348015610c7c57600080fd5b50610455610c8b3660046129bc565b612166565b60af8054610c9d90612f72565b80601f0160208091040260200160405190810160405280929190818152602001828054610cc990612f72565b8015610d165780601f10610ceb57610100808354040283529160200191610d16565b820191906000526020600020905b815481529060010190602001808311610cf957829003601f168201915b505050505081565b6097546001600160a01b0316336001600160a01b031614610d515760405162461bcd60e51b81526004016103dc90612fac565b60b380549115156101000261ff0019909216919091179055565b6097546001600160a01b0316336001600160a01b031614610d9e5760405162461bcd60e51b81526004016103dc90612fac565b60b3805460ff1916911515919091179055565b60ac8181548110610dc157600080fd5b600091825260209091200154905081565b609e8054610c9d90612f72565b60b88181548110610dc157600080fd5b60006001600160a01b038216610e06575047919050565b610e0f826117ef565b92915050565b919050565b600054610100900460ff1615808015610e3a5750600054600160ff909116105b80610e545750303b158015610e54575060005460ff166001145b610eb75760405162461bcd60e51b815260206004820152602e60248201527f496e697469616c697a61626c653a20636f6e747261637420697320616c72656160448201526d191e481a5b9a5d1a585b1a5e995960921b60648201526084016103dc565b6000805460ff191660011790558015610eda576000805461ff0019166101001790555b87516040805180820190915260128152711393d7d15354151657d093d553951657d25160721b602082015290610f235760405162461bcd60e51b81526004016103dc9190612998565b5085516040805180820190915260158152742727afa2a6a82a2cafa7a923a0a724ad20aa24a7a760591b602082015290610f705760405162461bcd60e51b81526004016103dc9190612998565b50610f796121b5565b609780546001600160a01b0319166001600160a01b038716179055610f9d846121e6565b610fa68361222f565b609a610fb2898261302f565b50609d80546001600160a01b0319166001600160a01b038916179055609e610fda878261302f565b5042609b81905550600560a18190555060008060008060008060008060008a602001518060200190518101906110109190613149565b5050985098509850985098509850985098509850600163ffffffff1660b0819055508860b560006101000a8154816001600160a01b0302191690836001600160a01b031602179055508760b6819055508660b160006101000a81548160ff0219169083151502179055508560b160016101000a8154816001600160a01b0302191690836001600160a01b031602179055508460b2819055508360b360006101000a81548160ff0219169083151502179055508260b360016101000a81548160ff0219169083151502179055508160b360026101000a81548160ff0219169083151502179055508060b49081611105919061302f565b505050505050505050508015611155576000805461ff0019169055604051600181527f7f26b83ff96e1f2b6a682f133852f6798a09c465da95921460cefb38474024989060200160405180910390a15b5050505050505050565b6097546001600160a01b0316336001600160a01b0316146111925760405162461bcd60e51b81526004016103dc90612fac565b6000806111a183850185613255565b600091825260b96020526040909120805460ff191691151591909117905550505050565b606060ab80548060200260200160405190810160405280929190818152602001828054801561121357602002820191906000526020600020905b8154815260200190600101908083116111ff575b5050505050905090565b6098546001600160a01b031633146112475760405162461bcd60e51b81526004016103dc90613285565b6002600154036112695760405162461bcd60e51b81526004016103dc906132ed565b6002600155600081815260a3602090815260408083205460a89092529091205461129e916001600160a01b0316908490612278565b505060018055565b606060ac80548060200260200160405190810160405280929190818152602001828054801561121357602002820191906000526020600020908154815260200190600101908083116111ff575050505050905090565b6097546001600160a01b0316336001600160a01b03161461132f5760405162461bcd60e51b81526004016103dc90612fac565b60b580546001600160a01b0319166001600160a01b03939093169290921790915560b655565b6099546000906001600160a01b031633146113825760405162461bcd60e51b81526004016103dc90613324565b6002600154036113a45760405162461bcd60e51b81526004016103dc906132ed565b600260015560a15460ac5460408051808201909152601981527813919517d1115413d4d25517d31253525517d4915050d21151603a1b602082015291116113fe5760405162461bcd60e51b81526004016103dc9190612998565b50600084116040518060400160405280602081526020017f45585049524154494f4e5f4e4f545f475245415445525f5448414e5f5a45524f815250906114575760405162461bcd60e51b81526004016103dc9190612998565b506114638688876122d8565b600061146d61230a565b600081815260a26020908152604080832080546001600160a01b039d8e166001600160a01b03199182161790915560a3835281842080549c909d169b169a909a17909a5560a58a5288812042905560a88a528881209790975560a9895287872095909555505060aa90955250918120805460ff1916600190811790915560ab80548083019091557ffc377260a69a39dd786235c89f4bcd5d9639157731cac38071a0508750eb115a0183905560ac8054808301825592527f0a0a1bcadd9f6a5539376fa82276e043ae3cb4499daaaf8136572ecb1f9f0d609091018290558055919050565b60985460009081906001600160a01b031633146115815760405162461bcd60e51b81526004016103dc90613285565b6002600154036115a35760405162461bcd60e51b81526004016103dc906132ed565b60026001556000806115b785870187613390565b93505092505060006115c9838361233e565b600081815260b760205260408120805460ff1916600190811790915560b8805491820181559091527fd91d691c894f8266e3f2d5e558ad2349d6783327a752a4949bc554f514e349880181905560b55460b654919250611635916001600160a01b03909116908a612371565b505060b55460b654600180556001600160a01b0390911697909650945050505050565b6000806000306001600160a01b0316636b149d876040518163ffffffff1660e01b8152600401600060405180830381865afa15801561169b573d6000803e3d6000fd5b505050506040513d6000823e601f3d908101601f191682016040526116c3919081019061340e565b905060005b81518110156117d65760a960008383815181106116e7576116e76134b3565b602002602001015181526020019081526020016000205460a56000848481518110611714576117146134b3565b602002602001015181526020019081526020016000205461173591906134df565b421080156117845750846001600160a01b031660a3600084848151811061175e5761175e6134b3565b6020908102919091018101518252810191909152604001600020546001600160a01b0316145b156117c45760a4600083838151811061179f5761179f6134b3565b6020026020010151815260200190815260200160002054836117c191906134df565b92505b806117ce816134f2565b9150506116c8565b50909392505050565b60ab8181548110610dc157600080fd5b6040516370a0823160e01b815230600482015260009082906001600160a01b038216906370a0823190602401602060405180830381865afa158015611838573d6000803e3d6000fd5b505050506040513d601f19601f8201168201806040525081019061185c919061350b565b9392505050565b609a8054610c9d90612f72565b600061187c60ad612399565b51905090565b6097546001600160a01b0316336001600160a01b0316146118b55760405162461bcd60e51b81526004016103dc90612fac565b60b25560b1805460ff196001600160a01b0390931661010002929092166001600160a81b0319909216919091176001179055565b606060b880548060200260200160405190810160405280929190818152602001828054801561121357602002820191906000526020600020908154815260200190600101908083116111ff575050505050905090565b60995460009081906001600160a01b0316331461196e5760405162461bcd60e51b81526004016103dc90613324565b6002600154036119905760405162461bcd60e51b81526004016103dc906132ed565b600260015560408051808201909152601081526f16915493d7d593d315535157d4d1539560821b6020820152846119da5760405162461bcd60e51b81526004016103dc9190612998565b50600083116040518060400160405280602081526020017f45585049524154494f4e5f4e4f545f475245415445525f5448414e5f5a45524f81525090611a335760405162461bcd60e51b81526004016103dc9190612998565b5060a05460408051808201909152601281527110d3d395149050d517d254d7d0d313d4d15160721b60208201529015611a7f5760405162461bcd60e51b81526004016103dc9190612998565b506000611a8a61230a565b905060006001600160a01b038716611aa3575034611ab1565b611aae8789886123a6565b90505b600082815260a26020908152604080832080546001600160a01b03808e166001600160a01b03199283161790925560a384528285208054928d169290911691909117905560a4825280832084905560a5825280832042905560a9825280832088905560aa9091528120805460ff1916905560ab805460018101825591527ffc377260a69a39dd786235c89f4bcd5d9639157731cac38071a0508750eb115a01829055611b5e60ad88612445565b50600180559097909650945050505050565b6099546000906001600160a01b03163314611b9d5760405162461bcd60e51b81526004016103dc90613324565b600260015403611bbf5760405162461bcd60e51b81526004016103dc906132ed565b600260015560a05460408051808201909152601281527110d3d395149050d517d254d7d0d313d4d15160721b60208201529015611c0f5760405162461bcd60e51b81526004016103dc9190612998565b50600084815260a66020908152604091829020548251808401909352601883527711115413d4d25517d053149150511657d49151955391115160421b9183019190915260ff1615611c735760405162461bcd60e51b81526004016103dc9190612998565b50600084815260a26020908152604091829020548251808401909352601183527021a0a62622a92fa727aa2fa32aa72222a960791b918301919091526001600160a01b03848116911614611cda5760405162461bcd60e51b81526004016103dc9190612998565b50600084815260a9602090815260408083205460a590925290912054611d0091906134df565b421115611d4057600084815260a560205260409020548390611d229042613524565b611d2c91906134df565b600085815260a96020526040902055611d6a565b600084815260a96020526040902054611d5a9084906134df565b600085815260a960205260409020555b505050600090815260a960205260409020546001805590565b6099546001600160a01b03163314611dad5760405162461bcd60e51b81526004016103dc90613324565b600260015403611dcf5760405162461bcd60e51b81526004016103dc906132ed565b6002600155600083815260a66020908152604091829020548251808401909352601883527711115413d4d25517d053149150511657d49151955391115160421b9183019190915260ff1615611e375760405162461bcd60e51b81526004016103dc9190612998565b50600083815260a26020908152604091829020548251808401909352601183527021a0a62622a92fa727aa2fa32aa72222a960791b918301919091526001600160a01b03848116911614611e9e5760405162461bcd60e51b81526004016103dc9190612998565b50600083815260a9602090815260408083205460a590925290912054611ec491906134df565b4210156040518060400160405280601881526020017714149153505515549157d4915195539117d49154555154d560421b81525090611f165760405162461bcd60e51b81526004016103dc9190612998565b50600083815260a660209081526040808320805460ff1916600117905560a39091529020546001600160a01b0316611f6f57600083815260a26020526040902054611f6a906001600160a01b03168261245a565b611ff1565b600083815260aa602052604090205460ff1615611fbf57600083815260a3602090815260408083205460a283528184205460a8909352922054611f6a926001600160a01b03908116921690612278565b600083815260a3602090815260408083205460a290925290912054611ff1916001600160a01b03908116911683612471565b50506001805550565b6097546001600160a01b0316336001600160a01b03161461202d5760405162461bcd60e51b81526004016103dc90612fac565b60a05460408051808201909152601781527610d3d395149050d517d053149150511657d0d313d4d151604a1b6020820152901561207d5760405162461bcd60e51b81526004016103dc9190612998565b50609d5460408051808201909152601181527021a0a62622a92fa727aa2fa4a9a9aaa2a960791b6020820152906001600160a01b038381169116146120d55760405162461bcd60e51b81526004016103dc9190612998565b5050600160a05542609c55565b6097546001600160a01b0316336001600160a01b0316146121155760405162461bcd60e51b81526004016103dc90612fac565b60008061212483850185613255565b600091825260ba6020526040909120805460ff191691151591909117905550505050565b606061215460ad612399565b905090565b60b48054610c9d90612f72565b6097546001600160a01b0316336001600160a01b0316146121995760405162461bcd60e51b81526004016103dc90612fac565b60b38054911515620100000262ff000019909216919091179055565b600054610100900460ff166121dc5760405162461bcd60e51b81526004016103dc90613537565b6121e461248c565b565b600054610100900460ff1661220d5760405162461bcd60e51b81526004016103dc90613537565b609880546001600160a01b0319166001600160a01b0392909216919091179055565b600054610100900460ff166122565760405162461bcd60e51b81526004016103dc90613537565b609980546001600160a01b0319166001600160a01b0392909216919091179055565b604051632142170760e11b815283906001600160a01b038216906342842e0e906122aa90309087908790600401613582565b600060405180830381600087803b1580156122c457600080fd5b505af1158015611155573d6000803e3d6000fd5b604051632142170760e11b815283906001600160a01b038216906342842e0e906122aa90869030908790600401613582565b60ab5460405160009161232391609a91906020016135a6565b60405160208183030381529060405280519060200120905090565b6000828260405160200161235392919061363a565b60405160208183030381529060405280519060200120905092915050565b6001600160a01b03831661238e57612389818361245a565b505050565b612389838284612471565b6060600061185c836124b9565b6000806123b2856117ef565b9050846123ca6001600160a01b038216863087612515565b60006123d5876117ef565b9050828110156040518060400160405280601a81526020017f544f4b454e5f5452414e534645525f494e5f4f564552464c4f570000000000008152509061242f5760405162461bcd60e51b81526004016103dc9190612998565b5061243a8382613524565b979650505050505050565b600061185c836001600160a01b03841661256d565b61246d6001600160a01b038316826125bc565b5050565b826124866001600160a01b03821684846126d5565b50505050565b600054610100900460ff166124b35760405162461bcd60e51b81526004016103dc90613537565b60018055565b60608160000180548060200260200160405190810160405280929190818152602001828054801561250957602002820191906000526020600020905b8154815260200190600101908083116124f5575b50505050509050919050565b612486846323b872dd60e01b85858560405160240161253693929190613582565b60408051601f198184030181529190526020810180516001600160e01b03166001600160e01b031990931692909217909152612705565b60008181526001830160205260408120546125b457508154600181810184556000848152602080822090930184905584548482528286019093526040902091909155610e0f565b506000610e0f565b8047101561260c5760405162461bcd60e51b815260206004820152601d60248201527f416464726573733a20696e73756666696369656e742062616c616e636500000060448201526064016103dc565b6000826001600160a01b03168260405160006040518083038185875af1925050503d8060008114612659576040519150601f19603f3d011682016040523d82523d6000602084013e61265e565b606091505b50509050806123895760405162461bcd60e51b815260206004820152603a60248201527f416464726573733a20756e61626c6520746f2073656e642076616c75652c207260448201527f6563697069656e74206d6179206861766520726576657274656400000000000060648201526084016103dc565b6040516001600160a01b03831660248201526044810182905261238990849063a9059cbb60e01b90606401612536565b600061275a826040518060400160405280602081526020017f5361666545524332303a206c6f772d6c6576656c2063616c6c206661696c6564815250856001600160a01b03166127d79092919063ffffffff16565b80519091501561238957808060200190518101906127789190613668565b6123895760405162461bcd60e51b815260206004820152602a60248201527f5361666545524332303a204552433230206f7065726174696f6e20646964206e6044820152691bdd081cdd58d8d9595960b21b60648201526084016103dc565b60606127e684846000856127ee565b949350505050565b60608247101561284f5760405162461bcd60e51b815260206004820152602660248201527f416464726573733a20696e73756666696369656e742062616c616e636520666f6044820152651c8818d85b1b60d21b60648201526084016103dc565b6001600160a01b0385163b6128a65760405162461bcd60e51b815260206004820152601d60248201527f416464726573733a2063616c6c20746f206e6f6e2d636f6e747261637400000060448201526064016103dc565b600080866001600160a01b031685876040516128c29190613685565b60006040518083038185875af1925050503d80600081146128ff576040519150601f19603f3d011682016040523d82523d6000602084013e612904565b606091505b509150915061243a8282866060831561291e57508161185c565b82511561292e5782518084602001fd5b8160405162461bcd60e51b81526004016103dc9190612998565b60005b8381101561296357818101518382015260200161294b565b50506000910152565b60008151808452612984816020860160208601612948565b601f01601f19169290920160200192915050565b60208152600061185c602083018461296c565b80151581146129b957600080fd5b50565b6000602082840312156129ce57600080fd5b813561185c816129ab565b6001600160a01b03811681146129b957600080fd5b8035610e15816129d9565b634e487b7160e01b600052604160045260246000fd5b604051601f8201601f191681016001600160401b0381118282101715612a3757612a376129f9565b604052919050565b60006001600160401b03821115612a5857612a586129f9565b50601f01601f191660200190565b600082601f830112612a7757600080fd5b8135612a8a612a8582612a3f565b612a0f565b818152846020838601011115612a9f57600080fd5b816020850160208301376000918101602001919091529392505050565b60008060008060808587031215612ad257600080fd5b8435612add816129d9565b93506020850135612aed816129d9565b92506040850135915060608501356001600160401b03811115612b0f57600080fd5b612b1b87828801612a66565b91505092959194509250565b600060208284031215612b3957600080fd5b5035919050565b600060208284031215612b5257600080fd5b813561185c816129d9565b600060408284031215612b6f57600080fd5b604051604081016001600160401b038282108183111715612b9257612b926129f9565b816040528293508435915063ffffffff82168214612baf57600080fd5b90825260208401359080821115612bc557600080fd5b50612bd285828601612a66565b6020830152505092915050565b600080600080600080600060e0888a031215612bfa57600080fd5b87356001600160401b0380821115612c1157600080fd5b612c1d8b838c01612a66565b985060208a01359150612c2f826129d9565b90965060408901359080821115612c4557600080fd5b612c518b838c01612a66565b965060608a01359150612c63826129d9565b819550612c7260808b016129ee565b9450612c8060a08b016129ee565b935060c08a0135915080821115612c9657600080fd5b50612ca38a828b01612b5d565b91505092959891949750929550565b60008083601f840112612cc457600080fd5b5081356001600160401b03811115612cdb57600080fd5b602083019150836020828501011115612cf357600080fd5b9250929050565b60008060208385031215612d0d57600080fd5b82356001600160401b03811115612d2357600080fd5b612d2f85828601612cb2565b90969095509350505050565b6020808252825182820181905260009190848201906040850190845b81811015612d7357835183529284019291840191600101612d57565b50909695505050505050565b60008060408385031215612d9257600080fd5b8235612d9d816129d9565b946020939093013593505050565b60008060008060008060a08789031215612dc457600080fd5b8635612dcf816129d9565b95506020870135612ddf816129d9565b9450604087013593506060870135925060808701356001600160401b03811115612e0857600080fd5b612e1489828a01612cb2565b979a9699509497509295939492505050565b600080600060408486031215612e3b57600080fd5b8335612e46816129d9565b925060208401356001600160401b03811115612e6157600080fd5b612e6d86828701612cb2565b9497909650939450505050565b60008060008060808587031215612e9057600080fd5b8435612e9b816129d9565b93506020850135612eab816129d9565b93969395505050506040820135916060013590565b600080600060608486031215612ed557600080fd5b83359250602084013591506040840135612eee816129d9565b809150509250925092565b600080600060608486031215612f0e57600080fd5b833592506020840135612f20816129d9565b929592945050506040919091013590565b6020808252825182820181905260009190848201906040850190845b81811015612d735783516001600160a01b031683529284019291840191600101612f4d565b600181811c90821680612f8657607f821691505b602082108103612fa657634e487b7160e01b600052602260045260246000fd5b50919050565b6020808252818101527f4d6574686f64206973206f6e6c792063616c6c61626c65206279204f70656e51604082015260600190565b601f82111561238957600081815260208120601f850160051c810160208610156130085750805b601f850160051c820191505b8181101561302757828155600101613014565b505050505050565b81516001600160401b03811115613048576130486129f9565b61305c816130568454612f72565b84612fe1565b602080601f83116001811461309157600084156130795750858301515b600019600386901b1c1916600185901b178555613027565b600085815260208120601f198616915b828110156130c0578886015182559484019460019091019084016130a1565b50858210156130de5787850151600019600388901b60f8161c191681555b5050505050600190811b01905550565b8051610e15816129d9565b8051610e15816129ab565b600082601f83011261311557600080fd5b8151613123612a8582612a3f565b81815284602083860101111561313857600080fd5b6127e6826020830160208701612948565b60008060008060008060008060008060006101608c8e03121561316b57600080fd5b6131748c6130ee565b9a5060208c0151995061318960408d016130f9565b985061319760608d016130ee565b975060808c015196506131ac60a08d016130f9565b95506131ba60c08d016130f9565b94506131c860e08d016130f9565b93506101008c01516001600160401b038111156131e457600080fd5b6131f08e828f01613104565b9350506101208c01516001600160401b0381111561320d57600080fd5b6132198e828f01613104565b9250506101408c01516001600160401b0381111561323657600080fd5b6132428e828f01613104565b9150509295989b509295989b9093969950565b6000806040838503121561326857600080fd5b82359150602083013561327a816129ab565b809150509250929050565b60208082526042908201527f436c61696d4d616e616765724f776e61626c653a2063616c6c6572206973206e60408201527f6f74207468652063757272656e74204f70656e5120436c61696d204d616e616760608201526132b960f11b608082015260a00190565b6020808252601f908201527f5265656e7472616e637947756172643a207265656e7472616e742063616c6c00604082015260600190565b60208082526046908201527f4465706f7369744d616e616765724f776e61626c653a2063616c6c657220697360408201527f206e6f74207468652063757272656e74204f70656e51204465706f736974204d60608201526530b730b3b2b960d11b608082015260a00190565b600080600080608085870312156133a657600080fd5b84356133b1816129d9565b935060208501356001600160401b03808211156133cd57600080fd5b6133d988838901612a66565b9450604087013591506133eb826129d9565b9092506060860135908082111561340157600080fd5b50612b1b87828801612a66565b6000602080838503121561342157600080fd5b82516001600160401b038082111561343857600080fd5b818501915085601f83011261344c57600080fd5b81518181111561345e5761345e6129f9565b8060051b915061346f848301612a0f565b818152918301840191848101908884111561348957600080fd5b938501935b838510156134a75784518252938501939085019061348e565b98975050505050505050565b634e487b7160e01b600052603260045260246000fd5b634e487b7160e01b600052601160045260246000fd5b80820180821115610e0f57610e0f6134c9565b600060018201613504576135046134c9565b5060010190565b60006020828403121561351d57600080fd5b5051919050565b81810381811115610e0f57610e0f6134c9565b6020808252602b908201527f496e697469616c697a61626c653a20636f6e7472616374206973206e6f74206960408201526a6e697469616c697a696e6760a81b606082015260800190565b6001600160a01b039384168152919092166020820152604081019190915260600190565b6040815260008084546135b881612f72565b80604086015260606001808416600081146135da57600181146135f457613625565b60ff1985168884015283151560051b880183019550613625565b8960005260208060002060005b8681101561361c5781548b8201870152908401908201613601565b8a018501975050505b50505050506020929092019290925292915050565b60408152600061364d604083018561296c565b828103602084015261365f818561296c565b95945050505050565b60006020828403121561367a57600080fd5b815161185c816129ab565b60008251613697818460208701612948565b919091019291505056fea2646970667358221220463c7bb9654afb582d12ed36264f7122eb66333081d198fc219b259113a4fa7e64736f6c63430008110033",
  "linkReferences": {},
  "deployedLinkReferences": {}
}